8=FIX.4.4|9=105|35=A|34=1|49=001|50=001B27|52=20190612-14:46:24.934|56=EXC|98=0|108=30|141=Y|553=001FCM001|554=001FCM001|10=090|8=FIX.4.4|9=185|35=R|34=2|49=001|50=001B27|52=20190612-14:46:27.297|56=EXC|131=2019061294622_R|146=1|55=TFIT16280428|22=M|762=RFQF|54=1|38=1000000000|453=2|448=002B35|447=C|452=37|448=DCV|447=C|452=10|10=047|8=FIX.4.4|9=59|35=0|34=3|49=001|50=001B27|52=20190612-14:46:57.874|56=EXC|10=063|