8=FIX.4.4|9=110|35=A|34=1|49=013|50=013B17|52=20190611-14:36:21.731|56=EXC|43=Y|98=0|108=30|141=Y|553=013FCM001|554=013FCM001|10=085|8=FIX.4.4|9=59|35=0|34=2|49=013|50=013B17|52=20190611-14:36:52.610|56=EXC|10=048|8=FIX.4.4|9=59|35=0|34=3|49=013|50=013B17|52=20190611-14:37:22.610|56=EXC|10=047|8=FIX.4.4|9=59|35=0|34=4|49=013|50=013B17|52=20190611-14:37:52.611|56=EXC|10=052|