8=FIX.4.4|9=110|35=A|34=1|49=013|50=013B17|52=20190530-22:09:04.592|56=EXC|43=Y|98=0|108=30|141=Y|553=013FCM001|554=013FCM001|10=090|8=FIX.4.4|9=59|35=0|34=2|49=013|50=013B17|52=20190530-22:09:35.522|56=EXC|10=050|8=FIX.4.4|9=59|35=0|34=3|49=013|50=013B17|52=20190530-22:10:06.506|56=EXC|10=043|8=FIX.4.4|9=59|35=0|34=4|49=013|50=013B17|52=20190530-22:10:36.508|56=EXC|10=049|8=FIX.4.4|9=59|35=0|34=5|49=013|50=013B17|52=20190530-22:11:06.517|56=EXC|10=048|8=FIX.4.4|9=59|35=0|34=6|49=013|50=013B17|52=20190530-22:11:36.515|56=EXC|10=050|8=FIX.4.4|9=59|35=0|34=7|49=013|50=013B17|52=20190530-22:12:06.508|56=EXC|10=051|8=FIX.4.4|9=59|35=0|34=8|49=013|50=013B17|52=20190530-22:12:36.507|56=EXC|10=054|8=FIX.4.4|9=59|35=0|34=9|49=013|50=013B17|52=20190530-22:13:06.507|56=EXC|10=053|