8=FIX.4.4|9=110|35=A|34=1|49=013|50=013B17|52=20190529-00:31:10.196|56=EXC|43=Y|98=0|108=30|141=Y|553=013FCM001|554=013FCM001|10=086|