8=FIX.4.4|9=110|35=A|34=1|49=001|50=001B27|52=20190606-20:27:29.054|56=EXC|43=Y|98=0|108=30|141=Y|553=001FCM001|554=001FCM001|10=081|8=FIX.4.4|9=153|35=R|34=2|49=001|50=001B27|52=20190606-20:27:32.620|56=EXC|131=36968344|146=1|55=TFIC14280426|22=M|762=RFQF|54=1|38=500000000|453=1|448=DCV|447=C|452=10|10=186|8=FIX.4.4|9=153|35=R|34=3|49=001|50=001B27|52=20190606-20:27:34.041|56=EXC|131=72700564|146=1|55=TFIC14280426|22=M|762=RFQF|54=1|38=500000000|453=1|448=DCV|447=C|452=10|10=174|8=FIX.4.4|9=124|35=R|34=4|49=001|50=001B27|52=20190606-20:27:47.961|56=EXC|131=24679256|146=1|55=TFIT16280428|22=M|762=RFQF|54=1|38=0|453=0|10=064|8=FIX.4.4|9=68|35=2|34=5|49=001|50=001B27|52=20190606-20:27:53.147|56=EXC|7=4|16=0|10=181|8=FIX.4.4|9=118|35=3|34=6|49=001|50=001B27|52=20190606-20:27:53.154|56=EXC|45=6|58=Required tag missing, field=38|371=38|372=AG|373=1|10=076|8=FIX.4.4|9=68|35=2|34=7|49=001|50=001B27|52=20190606-20:27:53.207|56=EXC|7=4|16=0|10=180|8=FIX.4.4|9=118|35=3|34=8|49=001|50=001B27|52=20190606-20:27:53.211|56=EXC|45=6|58=Required tag missing, field=38|371=38|372=AG|373=1|10=072|8=FIX.4.4|9=118|35=3|34=9|49=001|50=001B27|52=20190606-20:27:53.330|56=EXC|45=6|58=Required tag missing, field=38|371=38|372=AG|373=1|10=075|