8=FIX.4.4|9=110|35=A|34=1|49=001|50=001B27|52=20190607-17:05:59.070|56=EXC|43=Y|98=0|108=30|141=Y|553=001FCM001|554=001FCM001|10=085|8=FIX.4.4|9=177|35=R|34=2|49=001|50=001B27|52=20190607-17:06:01.585|56=EXC|131=42582317|146=1|55=TFIC13280425|22=M|762=RFQF|54=1|38=500000000|453=2|448=002B35|447=C|452=37|448=DCV|447=C|452=10|10=059|8=FIX.4.4|9=138|35=AJ|34=3|49=001|50=001B27|52=20190607-17:06:13.380|56=EXC|54=1|55=TFIC13280425|117=20190607-000000000038.00|693=48705433|694=1|762=RFQF|10=016|8=FIX.4.4|9=133|35=R|34=4|49=001|50=001B27|52=20190607-17:06:19.760|56=EXC|131=75330286|146=1|55=TFIT16280428|22=M|762=RFQF|54=1|38=1000000000|453=0|10=234|8=FIX.4.4|9=118|35=3|34=5|49=001|50=001B27|52=20190607-17:06:19.790|56=EXC|45=5|58=Required tag missing, field=38|371=38|372=AG|373=1|10=086|