8=FIX.4.4|9=110|35=A|34=1|49=001|50=001B27|52=20190628-14:44:48.548|56=EXC|43=Y|98=0|108=30|141=Y|553=001FCM001|554=001FCM001|10=096|8=FIX.4.4|9=152|35=R|34=2|49=001|50=001B27|52=20190628-14:44:56.242|56=EXC|131=20190628944454_R|146=1|55=   |22=M|762=RFQF|54=1|38=500000000|453=1|448=DCV|447=C|452=10|10=068|8=FIX.4.4|9=59|35=5|34=3|49=001|50=001B27|52=20190628-14:45:17.078|56=EXC|10=066|