8=FIX.4.4|9=110|35=A|34=1|49=001|50=001B27|52=20190529-22:25:11.633|56=EXC|43=Y|98=0|108=30|141=Y|553=001FCM001|554=001FCM001|10=079|