8=FIX.4.4|9=105|35=A|34=1|49=001|50=001B27|52=20190612-13:44:28.218|56=EXC|98=0|108=30|141=Y|553=001FCM001|554=001FCM001|10=086|8=FIX.4.4|9=184|35=R|34=2|49=001|50=001B27|52=20190612-13:44:30.609|56=EXC|131=2019061284425_R|146=1|55=TFIT16300632|22=M|762=RFQF|54=1|38=500000000|453=2|448=002B35|447=C|452=37|448=DCV|447=C|452=10|10=236|8=FIX.4.4|9=176|35=R|34=3|49=001|50=001B27|52=20190612-13:44:41.179|56=EXC|131=2019061284425_R|146=1|55=TFIT16300632|22=M|762=RFQF|54=1|38=0|453=2|448=002B35|447=C|452=37|448=DCV|447=C|452=10|10=109|