8=FIX.4.4|9=107|35=A|34=1|49=|50=001B27|52=20190509-13:22:08.714|56=EXC|43=Y|98=0|108=30|141=Y|553=001FCM001|554=001FCM001|10=197|8=FIX.4.4|9=174|35=R|34=2|49=|50=001B27|52=20190509-13:22:17.450|56=EXC|131=16281548|146=1|55=TFIC13280425|22=M|762=RQFQ|54=1|38=500000000|453=2|448=002B35|447=C|452=37|448=DCV|447=C|452=10|10=174|