8=FIX.4.4|9=110|35=A|34=1|49=013|50=013B17|52=20190530-17:27:42.317|56=EXC|43=Y|98=0|108=30|141=Y|553=013FCM001|554=013FCM001|10=091|8=FIX.4.4|9=59|35=0|34=2|49=013|50=013B17|52=20190530-17:28:13.240|56=EXC|10=048|8=FIX.4.4|9=59|35=0|34=3|49=013|50=013B17|52=20190530-17:28:43.260|56=EXC|10=054|