8=FIX.4.4|9=110|35=A|34=1|49=001|50=001B27|52=20190530-21:09:35.312|56=EXC|43=Y|98=0|108=30|141=Y|553=001FCM001|554=001FCM001|10=072|8=FIX.4.4|9=177|35=R|34=2|49=001|50=001B27|52=20190530-21:09:40.903|56=EXC|131=59589015|146=1|55=TFIC13280425|22=M|762=RFQF|54=1|38=500000000|453=2|448=002B35|447=C|452=37|448=DCV|447=C|452=10|10=059|8=FIX.4.4|9=104|35=A|34=3|49=001|50=001B27|52=20190530-21:09:57.111|56=EXC|43=Y|98=0|108=30|553=001FCM001|554=001FCM001|10=033|8=FIX.4.4|9=59|35=0|34=4|49=001|50=001B27|52=20190530-21:10:28.091|56=EXC|10=041|8=0|108=30|553=001FCM001|554=001FCM001|10=031|8=FIX.4.4|9=177|35=R|34=5|49=001|50=001B27|52=20190530-21:10:33.102|56=EXC|131=28827237|146=1|55=TFIC13280425|22=M|762=RFQF|54=1|38=500000000|453=2|448=002B35|447=C|452=37|448=DCV|447=C|452=10|10=044|8=FIX.4.4|9=68|35=2|34=6|49=001|50=001B27|52=20190530-21:10:33.232|56=EXC|7=5|16=0|10=165|8=FIX.4.4|9=104|35=A|34=7|49=001|50=001B27|52=20190530-21:10:36.282|56=EXC|43=Y|98=0|108=30|553=001FCM001|554=001FCM001|10=035|8=FIX.4.4|9=104|35=A|34=8|49=001|50=001B27|52=20190530-21:10:49.395|56=EXC|43=Y|98=0|108=30|553=001FCM001|554=001FCM001|10=045|