8=FIX.4.4|9=110|35=A|34=1|49=001|50=001B27|52=20190529-19:08:47.119|56=EXC|43=Y|98=0|108=30|141=Y|553=001FCM001|554=001FCM001|10=094|8=FIX.4.4|9=177|35=R|34=2|49=001|50=001B27|52=20190529-19:08:52.525|56=EXC|131=47196255|146=1|55=TFIC13280425|22=M|762=RFQF|54=1|38=500000000|453=2|448=002B35|447=C|452=37|448=DCV|447=C|452=10|10=073|