8=FIX.4.4|9=110|35=A|34=1|49=001|50=001B27|52=20190611-22:03:47.664|56=EXC|43=Y|98=0|108=30|141=Y|553=001FCM001|554=001FCM001|10=080|8=FIX.4.4|9=177|35=R|34=2|49=001|50=001B27|52=20190611-22:03:50.217|56=EXC|131=48087332|146=1|55=TFIC13280425|22=M|762=RFQF|54=1|38=500000000|453=2|448=002B35|447=C|452=37|448=DCV|447=C|452=10|10=046|8=FIX.4.4|9=68|35=2|34=3|49=001|50=001B27|52=20190611-22:04:07.037|56=EXC|7=2|16=0|10=167|8=FIX.4.4|9=68|35=2|34=4|49=001|50=001B27|52=20190611-22:04:17.527|56=EXC|7=2|16=0|10=173|