8=FIX.4.4|9=110|35=A|34=1|49=010|50=010BWN|52=20190529-22:55:38.449|56=EXC|43=Y|98=0|108=30|141=Y|553=010FCE003|554=010FCE003|10=144|8=FIX.4.4|9=59|35=0|34=2|49=010|50=010BWN|52=20190529-22:56:09.116|56=EXC|10=115|8=FIX.4.4|9=59|35=0|34=3|49=010|50=010BWN|52=20190529-22:56:39.117|56=EXC|10=120|8=FIX.4.4|9=59|35=0|34=4|49=010|50=010BWN|52=20190529-22:57:09.117|56=EXC|10=119|8=FIX.4.4|9=59|35=0|34=5|49=010|50=010BWN|52=20190529-22:57:39.113|56=EXC|10=119|
