8=FIX.4.4|9=110|35=A|34=1|49=010|50=010BWN|52=20190530-22:09:05.488|56=EXC|43=Y|98=0|108=30|141=Y|553=010FCE003|554=010FCE003|10=132|8=FIX.4.4|9=59|35=0|34=2|49=010|50=010BWN|52=20190530-22:09:35.486|56=EXC|10=114|8=FIX.4.4|9=59|35=0|34=3|49=010|50=010BWN|52=20190530-22:10:05.479|56=EXC|10=106|8=FIX.4.4|9=59|35=0|34=4|49=010|50=010BWN|52=20190530-22:10:35.483|56=EXC|10=105|8=FIX.4.4|9=59|35=0|34=5|49=010|50=010BWN|52=20190530-22:11:05.485|56=EXC|10=106|8=FIX.4.4|9=59|35=0|34=6|49=010|50=010BWN|52=20190530-22:11:35.482|56=EXC|10=107|8=FIX.4.4|9=59|35=0|34=7|49=010|50=010BWN|52=20190530-22:12:05.491|56=EXC|10=106|8=FIX.4.4|9=59|35=0|34=8|49=010|50=010BWN|52=20190530-22:12:35.486|56=EXC|10=114|8=FIX.4.4|9=59|35=0|34=9|49=010|50=010BWN|52=20190530-22:13:05.479|56=EXC|10=115|