8=FIX.4.4|9=110|35=A|34=1|49=001|50=001B27|52=20190606-18:54:40.426|56=EXC|43=Y|98=0|108=30|141=Y|553=001FCM001|554=001FCM001|10=084|8=FIX.4.4|9=154|35=R|34=2|49=001|50=001B27|52=20190606-18:54:42.861|56=EXC|131=67944925|146=1|55=TFIT15260826|22=M|762=RFQF|54=1|38=1500000000|453=1|448=DCV|447=C|452=10|10=018|8=FIX.4.4|9=68|35=2|34=3|49=001|50=001B27|52=20190606-18:54:42.937|56=EXC|7=2|16=0|10=189|8=FIX.4.4|9=68|35=2|34=4|49=001|50=001B27|52=20190606-18:54:42.999|56=EXC|7=2|16=0|10=198|8=FIX.4.4|9=59|35=0|34=5|49=001|50=001B27|52=20190606-18:55:13.008|56=EXC|10=053|8=FIX.4.4|9=59|35=0|34=6|49=001|50=001B27|52=20190606-18:55:43.008|56=EXC|10=057|