8=FIX.4.4|9=110|35=A|34=1|49=001|50=001B27|52=20190606-14:22:21.905|56=EXC|43=Y|98=0|108=30|141=Y|553=001FCM001|554=001FCM001|10=076|8=FIX.4.4|9=133|35=R|34=2|49=001|50=001B27|52=20190606-14:22:24.192|56=EXC|131=53703295|146=1|55=TFIT06110919|22=M|762=RFQF|54=1|38=1000000000|453=0|10=217|8=FIX.4.4|9=118|35=3|34=3|49=001|50=001B27|52=20190606-14:22:24.200|56=EXC|45=2|58=Required tag missing, field=38|371=38|372=AG|373=1|10=057|