8=FIX.4.4|9=105|35=A|34=1|49=001|50=001B27|52=20190613-22:28:49.148|56=EXC|98=0|108=30|141=Y|553=001FCM001|554=001FCM001|10=094|8=FIX.4.4|9=161|35=R|34=2|49=001|50=001B27|52=20190613-22:28:56.693|56=EXC|131=201906131728464_R|146=1|55=TFIT19PEDRO|22=M|762=RFQF|54=1|38=500000000|453=1|448=DCV|447=C|452=10|10=048|8=FIX.4.4|9=118|35=3|34=3|49=001|50=001B27|52=20190613-22:28:56.721|56=EXC|45=2|58=Required tag missing, field=38|371=38|372=AG|373=1|10=073|