8=FIX.4.4|9=110|35=A|34=1|49=010|50=010BWN|52=20190611-14:36:21.697|56=EXC|43=Y|98=0|108=30|141=Y|553=010FCE003|554=010FCE003|10=133|8=FIX.4.4|9=59|35=0|34=2|49=010|50=010BWN|52=20190611-14:36:52.596|56=EXC|10=116|8=FIX.4.4|9=59|35=0|34=3|49=010|50=010BWN|52=20190611-14:37:22.595|56=EXC|10=114|8=FIX.4.4|9=59|35=0|34=4|49=010|50=010BWN|52=20190611-14:37:52.596|56=EXC|10=119|