8=FIX.4.4|9=106|35=A|34=1|49=001|50=17|52=20190509-20:37:00.846|56=EXC|43=Y|98=0|108=30|141=Y|553=001FCM001|554=001FCM001|10=131|8=FIX.4.4|9=173|35=R|34=2|49=001|50=17|52=20190509-20:37:09.226|56=EXC|131=38726873|146=1|55=TFIC13280425|22=M|762=RFQF|54=1|38=500000000|453=2|448=002B35|447=C|452=37|448=DCV|447=C|452=10|10=110|8=FIX.4.4|9=131|35=3|34=3|49=001|50=17|52=20190509-20:37:09.295|56=EXC|45=2|58=Out of order repeating group members, field=22|371=22|372=AG|373=15|10=134|8=FIX.4.4|9=55|35=0|34=4|49=001|50=17|52=20190509-20:37:39.823|56=EXC|10=100|8=FIX.4.4|9=55|35=0|34=5|49=001|50=17|52=20190509-20:38:09.824|56=EXC|10=100|8=FIX.4.4|9=55|35=0|34=6|49=001|50=17|52=20190509-20:38:39.823|56=EXC|10=103|8=FIX.4.4|9=55|35=0|34=7|49=001|50=17|52=20190509-20:39:09.823|56=EXC|10=102|8=FIX.4.4|9=55|35=0|34=8|49=001|50=17|52=20190509-20:39:39.825|56=EXC|10=108|8=FIX.4.4|9=55|35=0|34=9|49=001|50=17|52=20190509-20:40:09.823|56=EXC|10=096|8=FIX.4.4|9=56|35=0|34=10|49=001|50=17|52=20190509-20:40:39.823|56=EXC|10=140|8=FIX.4.4|9=56|35=0|34=11|49=001|50=17|52=20190509-20:41:09.824|56=EXC|10=140|8=FIX.4.4|9=56|35=0|34=12|49=001|50=17|52=20190509-20:41:39.824|56=EXC|10=144|8=FIX.4.4|9=56|35=0|34=13|49=001|50=17|52=20190509-20:42:09.823|56=EXC|10=142|8=FIX.4.4|9=56|35=0|34=14|49=001|50=17|52=20190509-20:42:39.824|56=EXC|10=147|8=FIX.4.4|9=56|35=0|34=15|49=001|50=17|52=20190509-20:43:09.823|56=EXC|10=145|8=FIX.4.4|9=56|35=0|34=16|49=001|50=17|52=20190509-20:43:39.825|56=EXC|10=151|8=FIX.4.4|9=56|35=0|34=17|49=001|50=17|52=20190509-20:44:09.825|56=EXC|10=150|8=FIX.4.4|9=56|35=0|34=18|49=001|50=17|52=20190509-20:44:39.825|56=EXC|10=154|8=FIX.4.4|9=56|35=0|34=19|49=001|50=17|52=20190509-20:45:09.823|56=EXC|10=151|8=FIX.4.4|9=56|35=0|34=20|49=001|50=17|52=20190509-20:45:39.824|56=EXC|10=147|