8=FIX.4.4|9=105|35=A|34=1|49=001|50=001B27|52=20190614-20:07:39.940|56=EXC|98=0|108=30|141=Y|553=001FCM001|554=001FCM001|10=089|8=FIX.4.4|9=186|35=R|34=2|49=001|50=001B27|52=20190614-20:07:47.245|56=EXC|131=201906141507371_R|146=1|55=TFIC13280425|22=M|762=RFQF|54=1|38=500000000|453=2|448=002B35|447=C|452=37|448=DCV|447=C|452=10|10=071|8=FIX.4.4|9=59|35=0|34=3|49=001|50=001B27|52=20190614-20:08:17.915|56=EXC|10=052|8=FIX.4.4|9=148|35=AJ|34=4|49=001|50=001B27|52=20190614-20:08:22.290|56=EXC|54=1|55=TFIC13280425|117=20190614-000000000030.00|693=201906141507371_AJ|694=1|762=RFQF|10=073|8=FIX.4.4|9=186|35=R|34=5|49=001|50=001B27|52=20190614-20:08:43.584|56=EXC|131=201906141507372_R|146=1|55=TFIT16280428|22=M|762=RFQF|54=1|38=500000000|453=2|448=002B35|447=C|452=37|448=DCV|447=C|452=10|10=101|