8=FIX.4.4|9=110|35=A|34=1|49=013|50=013B17|52=20190529-22:55:38.509|56=EXC|43=Y|98=0|108=30|141=Y|553=013FCM001|554=013FCM001|10=104|8=FIX.4.4|9=59|35=0|34=2|49=013|50=013B17|52=20190529-22:56:09.141|56=EXC|10=058|8=FIX.4.4|9=59|35=0|34=3|49=013|50=013B17|52=20190529-22:56:39.142|56=EXC|10=063|8=FIX.4.4|9=59|35=0|34=4|49=013|50=013B17|52=20190529-22:57:09.154|56=EXC|10=065|8=FIX.4.4|9=59|35=0|34=5|49=013|50=013B17|52=20190529-22:57:40.140|56=EXC|10=056|