8=FIX.4.4|9=110|35=A|34=1|49=010|50=010BWN|52=20190610-21:54:20.585|56=EXC|43=Y|98=0|108=30|141=Y|553=010FCE003|554=010FCE003|10=125|8=FIX.4.4|9=59|35=0|34=2|49=010|50=010BWN|52=20190610-21:54:51.449|56=EXC|10=109|