8=FIX.4.4|9=110|35=A|34=1|49=001|50=001B27|52=20190528-12:59:56.541|56=EXC|43=Y|98=0|108=30|141=Y|553=001FCM001|554=001FCM001|10=091|8=FIX.4.4|9=59|35=0|34=2|49=001|50=001B27|52=20190528-13:00:27.438|56=EXC|10=050|