8=FIX.4.4|9=110|35=A|34=1|49=001|50=001B27|52=20190529-15:02:18.786|56=EXC|43=Y|98=0|108=30|141=Y|553=001FCM001|554=001FCM001|10=092|8=FIX.4.4|9=59|35=0|34=2|49=001|50=001B27|52=20190529-15:02:49.774|56=EXC|10=062|8=FIX.4.4|9=59|35=0|34=3|49=001|50=001B27|52=20190529-15:03:19.777|56=EXC|10=064|8=FIX.4.4|9=59|35=0|34=4|49=001|50=001B27|52=20190529-15:03:49.777|56=EXC|10=068|