8=FIX.4.4|9=82|35=A|34=1|49=001|50=001B17|52=20190509-21:32:37.720|56=EXC|43=Y|98=0|108=30|141=Y|10=127|8=FIX.4.4|9=198|35=R|34=2|49=001|50=001B17|52=20190509-21:32:46.064|56=EXC|131=26142016|146=1|55=TFIC13280425|22=M|762=RFQF|54=1|38=500000000|453=3|448=002B35|447=C|452=37|448=DCV|447=C|452=10|448=DCV|447=C|452=10|10=069|