8=FIX.4.4|9=110|35=A|34=1|49=001|50=001B27|52=20190605-19:18:36.789|56=EXC|43=Y|98=0|108=30|141=Y|553=001FCM001|554=001FCM001|10=101|8=FIX.4.4|9=177|35=R|34=2|49=001|50=001B27|52=20190605-19:18:40.305|56=EXC|131=19924616|146=1|55=TFIC13280425|22=M|762=RFQF|54=1|38=500000000|453=2|448=002B35|447=C|452=37|448=DCV|447=C|452=10|10=061|8=FIX.4.4|9=138|35=AJ|34=3|49=001|50=001B27|52=20190605-19:19:00.266|56=EXC|54=1|55=TFIC13280425|117=20190605-000000000047.00|693=42648223|694=1|762=RFQF|10=014|8=FIX.4.4|9=59|35=0|34=4|49=001|50=001B27|52=20190605-19:19:30.413|56=EXC|10=051|8=FIX.4.4|9=59|35=0|34=5|49=001|50=001B27|52=20190605-19:20:00.412|56=EXC|10=040|8=FIX.4.4|9=59|35=0|34=6|49=001|50=001B27|52=20190605-19:20:30.413|56=EXC|10=045|8=FIX.4.4|9=59|35=0|34=7|49=001|50=001B27|52=20190605-19:21:00.411|56=EXC|10=042|8=FIX.4.4|9=59|35=0|34=8|49=001|50=001B27|52=20190605-19:21:30.413|56=EXC|10=048|8=FIX.4.4|9=59|35=0|34=9|49=001|50=001B27|52=20190605-19:22:00.413|56=EXC|10=047|8=FIX.4.4|9=60|35=0|34=10|49=001|50=001B27|52=20190605-19:22:30.413|56=EXC|10=082|8=FIX.4.4|9=60|35=0|34=11|49=001|50=001B27|52=20190605-19:23:00.411|56=EXC|10=079|8=FIX.4.4|9=60|35=0|34=12|49=001|50=001B27|52=20190605-19:23:30.411|56=EXC|10=083|8=FIX.4.4|9=60|35=0|34=13|49=001|50=001B27|52=20190605-19:24:00.412|56=EXC|10=083|8=FIX.4.4|9=60|35=0|34=14|49=001|50=001B27|52=20190605-19:24:30.411|56=EXC|10=086|8=FIX.4.4|9=60|35=0|34=15|49=001|50=001B27|52=20190605-19:25:00.412|56=EXC|10=086|8=FIX.4.4|9=60|35=0|34=16|49=001|50=001B27|52=20190605-19:25:30.412|56=EXC|10=090|8=FIX.4.4|9=60|35=0|34=17|49=001|50=001B27|52=20190605-19:26:00.411|56=EXC|10=088|8=FIX.4.4|9=60|35=0|34=18|49=001|50=001B27|52=20190605-19:26:30.413|56=EXC|10=094|8=FIX.4.4|9=60|35=0|34=19|49=001|50=001B27|52=20190605-19:27:00.412|56=EXC|10=092|8=FIX.4.4|9=60|35=0|34=20|49=001|50=001B27|52=20190605-19:27:30.413|56=EXC|10=088|8=FIX.4.4|9=60|35=0|34=21|49=001|50=001B27|52=20190605-19:28:00.411|56=EXC|10=085|8=FIX.4.4|9=60|35=0|34=22|49=001|50=001B27|52=20190605-19:28:30.412|56=EXC|10=090|8=FIX.4.4|9=60|35=0|34=23|49=001|50=001B27|52=20190605-19:29:00.413|56=EXC|10=090|8=FIX.4.4|9=60|35=0|34=24|49=001|50=001B27|52=20190605-19:29:30.412|56=EXC|10=093|8=FIX.4.4|9=60|35=0|34=25|49=001|50=001B27|52=20190605-19:30:00.413|56=EXC|10=084|