8=FIX.4.4|9=77|35=A|34=1|49=037|50=037B18|52=20190808-19:34:13.335|56=EXC|98=0|108=30|141=Y|10=159|