8=FIX.4.4|9=110|35=A|34=1|49=037|50=037B18|52=20190801-13:53:57.791|56=EXC|43=N|98=0|108=30|141=Y|553=037FCM001|554=037FCM001|10=113|8=FIX.4.4|9=179|35=S|34=2|49=037|50=037B18|52=20190801-13:54:23.806|56=EXC|1=RT001|55=T24U19F|62=20190830-22:00:00.000|117=201908010853531_S|131=20190801-000000000001.00|133=120|135=100|762=AFIR|10=031|8=FIX.4.4|9=59|35=0|34=3|49=037|50=037B18|52=20190801-13:54:54.424|56=EXC|10=067|8=FIX.4.4|9=59|35=0|34=4|49=037|50=037B18|52=20190801-13:55:24.422|56=EXC|10=064|8=FIX.4.4|9=185|35=S|34=5|49=037|50=037B18|52=20190801-13:55:34.228|56=EXC|1=RT001|55=T24U19F|62=20190830-22:00:00.000|117=201908010853532_S|131=20190801-000000000002.00|132=120|134=100|135=0|762=AFIR|10=039|8=FIX.4.4|9=59|35=0|34=6|49=037|50=037B18|52=20190801-13:56:04.427|56=EXC|10=070|8=FIX.4.4|9=59|35=0|34=7|49=037|50=037B18|52=20190801-13:56:34.428|56=EXC|10=075|8=FIX.4.4|9=183|35=S|34=8|49=037|50=037B18|52=20190801-13:56:44.419|56=EXC|1=RT001|55=T24U19F|62=20190830-22:00:00.000|117=201908010853533_S|131=20190801-000000000003.00|133=120.544|135=150|762=AFIR|10=249|8=FIX.4.4|9=59|35=0|34=9|49=037|50=037B18|52=20190801-13:57:14.432|56=EXC|10=071|8=FIX.4.4|9=60|35=0|34=10|49=037|50=037B18|52=20190801-13:57:44.430|56=EXC|10=104|8=FIX.4.4|9=60|35=0|34=11|49=037|50=037B18|52=20190801-13:58:14.427|56=EXC|10=109|8=FIX.4.4|9=60|35=0|34=12|49=037|50=037B18|52=20190801-13:58:44.429|56=EXC|10=115|8=FIX.4.4|9=60|35=0|34=13|49=037|50=037B18|52=20190801-13:59:14.420|56=EXC|10=105|8=FIX.4.4|9=60|35=0|34=14|49=037|50=037B18|52=20190801-13:59:44.435|56=EXC|10=115|8=FIX.4.4|9=60|35=0|34=15|49=037|50=037B18|52=20190801-14:00:15.424|56=EXC|10=099|8=FIX.4.4|9=60|35=0|34=16|49=037|50=037B18|52=20190801-14:00:45.425|56=EXC|10=104|8=FIX.4.4|9=60|35=5|34=17|49=037|50=037B18|52=20190801-14:00:55.300|56=EXC|10=103|