8=FIX.4.4|9=110|35=A|34=1|49=037|50=037B18|52=20190726-15:54:34.703|56=EXC|43=N|98=0|108=30|141=Y|553=037FCM001|554=037FCM001|10=110|8=FIX.4.4|9=59|35=5|34=2|49=037|50=037B18|52=20190726-15:55:01.532|56=EXC|10=072|