8=FIX.4.4|9=110|35=A|34=1|49=037|50=037B18|52=20190731-20:39:27.833|56=EXC|43=N|98=0|108=30|141=Y|553=037FCM001|554=037FCM001|10=111|8=FIX.4.4|9=179|35=S|34=2|49=037|50=037B18|52=20190731-20:39:53.795|56=EXC|1=RT001|55=T24U19F|62=20190830-22:00:00.000|117=201907311539231_S|131=20190731-000000000011.00|133=120|135=100|762=AFIR|10=048|8=FIX.4.4|9=59|35=0|34=3|49=037|50=037B18|52=20190731-20:40:24.543|56=EXC|10=061|8=FIX.4.4|9=59|35=0|34=4|49=037|50=037B18|52=20190731-20:40:54.549|56=EXC|10=071|8=FIX.4.4|9=185|35=S|34=5|49=037|50=037B18|52=20190731-20:41:04.140|56=EXC|1=RT001|55=T24U19F|62=20190830-22:00:00.000|117=201907311539232_S|131=20190731-000000000012.00|132=120|134=100|135=0|762=AFIR|10=028|8=FIX.4.4|9=59|35=0|34=6|49=037|50=037B18|52=20190731-20:41:34.544|56=EXC|10=067|8=FIX.4.4|9=59|35=0|34=7|49=037|50=037B18|52=20190731-20:42:04.554|56=EXC|10=067|8=FIX.4.4|9=183|35=S|34=8|49=037|50=037B18|52=20190731-20:42:09.346|56=EXC|1=RT001|55=T24U19F|62=20190830-22:00:00.000|117=201907311539233_S|131=20190731-000000000013.00|133=120.544|135=150|762=AFIR|10=248|8=FIX.4.4|9=59|35=0|34=9|49=037|50=037B18|52=20190731-20:42:39.553|56=EXC|10=076|8=FIX.4.4|9=60|35=0|34=10|49=037|50=037B18|52=20190731-20:43:10.545|56=EXC|10=099|8=FIX.4.4|9=60|35=0|34=11|49=037|50=037B18|52=20190731-20:43:40.551|56=EXC|10=100|8=FIX.4.4|9=60|35=0|34=12|49=037|50=037B18|52=20190731-20:44:10.549|56=EXC|10=106|8=FIX.4.4|9=60|35=0|34=13|49=037|50=037B18|52=20190731-20:44:40.544|56=EXC|10=105|8=FIX.4.4|9=60|35=0|34=14|49=037|50=037B18|52=20190731-20:45:10.542|56=EXC|10=102|8=FIX.4.4|9=60|35=0|34=15|49=037|50=037B18|52=20190731-20:45:40.552|56=EXC|10=107|8=FIX.4.4|9=60|35=0|34=16|49=037|50=037B18|52=20190731-20:46:10.547|56=EXC|10=110|8=FIX.4.4|9=60|35=5|34=17|49=037|50=037B18|52=20190731-20:46:15.054|56=EXC|10=114|