8=FIX.4.4|9=110|35=A|34=1|49=037|50=037B18|52=20190726-20:19:51.535|56=EXC|43=N|98=0|108=30|141=Y|553=037FCM001|554=037FCM001|10=109|8=FIX.4.4|9=178|35=S|34=2|49=037|50=037B18|52=20190726-20:20:17.681|56=EXC|1=RT001|55=T24U19F|62=20190530-22:00:00.000|117=2019072615194615_S|131=20190726-000000000023.00|133=101|135=0|762=AFIR|10=001|8=FIX.4.4|9=59|35=0|34=3|49=037|50=037B18|52=20190726-20:20:48.237|56=EXC|10=069|8=FIX.4.4|9=185|35=S|34=4|49=037|50=037B18|52=20190726-20:21:03.061|56=EXC|1=RT001|55=T24U19F|62=20190830-22:00:00.000|117=2019072615194616_S|131=20190726-000000000024.00|132=118|134=48|135=0|762=AFIR|10=067|8=FIX.4.4|9=59|35=0|34=5|49=037|50=037B18|52=20190726-20:21:33.233|56=EXC|10=062|8=FIX.4.4|9=179|35=S|34=6|49=037|50=037B18|52=20190726-20:21:48.147|56=EXC|1=RT001|55=T24U19F|62=20190830-22:00:00.000|117=2019072615194617_S|131=20190726-000000000025.00|133=30|135=120|762=AFIR|10=067|8=FIX.4.4|9=59|35=0|34=7|49=037|50=037B18|52=20190726-20:22:18.244|56=EXC|10=070|8=FIX.4.4|9=177|35=S|34=8|49=037|50=037B18|52=20190726-20:22:33.227|56=EXC|1=RT001|55=T24U19F|62=20190830-22:00:00.000|117=2019072615194618_S|131=20190726-000000000026.00|133=6|135=65|762=AFIR|10=234|8=FIX.4.4|9=59|35=0|34=9|49=037|50=037B18|52=20190726-20:23:03.242|56=EXC|10=065|8=FIX.4.4|9=180|35=S|34=10|49=037|50=037B18|52=20190726-20:23:18.335|56=EXC|1=RT001|55=T24U19F|62=20190830-22:00:00.000|117=2019072615194619_S|131=20190726-000000000027.00|133=98|135=146|762=AFIR|10=126|8=FIX.4.4|9=60|35=0|34=11|49=037|50=037B18|52=20190726-20:23:49.241|56=EXC|10=107|8=FIX.4.4|9=187|35=S|34=12|49=037|50=037B18|52=20190726-20:24:03.407|56=EXC|1=RT001|55=T24U19F|62=20190830-22:00:00.000|117=2019072615194620_S|131=20190726-000000000028.00|132=111|134=130|135=0|762=AFIR|10=155|8=FIX.4.4|9=60|35=5|34=13|49=037|50=037B18|52=20190726-20:24:28.605|56=EXC|10=116|