8=FIX.4.4|9=110|35=A|34=1|49=037|50=037B18|52=20190724-16:28:05.377|56=EXC|43=N|98=0|108=30|141=Y|553=037FCM001|554=037FCM001|10=115|8=FIX.4.4|9=179|35=S|34=2|49=037|50=037B18|52=20190724-16:28:31.472|56=EXC|1=RT001|55=T24U19F|62=20190830-22:00:00.000|117=201907241128011_S|131=20190724-000000000011.00|133=100|135=100|762=AFIR|10=033|8=FIX.4.4|9=59|35=0|34=3|49=037|50=037B18|52=20190724-16:29:02.043|56=EXC|10=066|8=FIX.4.4|9=185|35=S|34=4|49=037|50=037B18|52=20190724-16:29:16.604|56=EXC|1=RT001|55=T24U19F|62=20190830-22:00:00.000|117=201907241128012_S|131=20190724-000000000012.00|132=120|134=100|135=0|762=AFIR|10=042|8=FIX.4.4|9=59|35=0|34=5|49=037|50=037B18|52=20190724-16:29:47.053|56=EXC|10=078|8=FIX.4.4|9=59|35=0|34=6|49=037|50=037B18|52=20190724-16:30:17.045|56=EXC|10=069|8=FIX.4.4|9=179|35=S|34=7|49=037|50=037B18|52=20190724-16:30:26.841|56=EXC|1=RT001|55=T24U19F|62=20190830-22:00:00.000|117=201907241128013_S|131=20190724-000000000013.00|133=123|135=150|762=AFIR|10=049|8=FIX.4.4|9=59|35=0|34=8|49=037|50=037B18|52=20190724-16:30:57.044|56=EXC|10=074|8=FIX.4.4|9=59|35=0|34=9|49=037|50=037B18|52=20190724-16:31:27.040|56=EXC|10=069|8=FIX.4.4|9=60|35=0|34=10|49=037|50=037B18|52=20190724-16:31:57.046|56=EXC|10=110|8=FIX.4.4|9=60|35=0|34=11|49=037|50=037B18|52=20190724-16:32:27.055|56=EXC|10=109|8=FIX.4.4|9=60|35=0|34=12|49=037|50=037B18|52=20190724-16:32:57.051|56=EXC|10=109|8=FIX.4.4|9=60|35=0|34=13|49=037|50=037B18|52=20190724-16:33:27.050|56=EXC|10=107|8=FIX.4.4|9=60|35=0|34=14|49=037|50=037B18|52=20190724-16:33:57.054|56=EXC|10=115|8=FIX.4.4|9=60|35=0|34=15|49=037|50=037B18|52=20190724-16:34:27.047|56=EXC|10=116|8=FIX.4.4|9=60|35=5|34=16|49=037|50=037B18|52=20190724-16:34:32.927|56=EXC|10=125|