8=FIX.4.4|9=110|35=A|34=1|49=037|50=037B18|52=20190805-18:42:55.752|56=EXC|43=N|98=0|108=30|141=Y|553=037FCM001|554=037FCM001|10=115|