CASO,PASO,TIPO,ESTADO,TOTAL EXITOSOS,TOTAL FALLIDOS,PORCENTAJE VALIDACION,DESCRIPCION VALIDACION,MENSAJE,CODIGO ERROR,ERROR
8,0,FIX_R,EXITOSO,,,,(8) MSG: FIX.4.4 BD: FIX.4.4
8,0,FIX_R,FALLIDO,,,,(34) MSG: null BD: 3,8=FIX.4.4|9=118|35=3|34=3|49=001|50=001B27|52=20190613-21:01:11.771|56=EXC|45=2|58=Required tag missing, field=38|371=38|372=AG|373=1|10=059|,null,null
8,0,FIX_R,FALLIDO,,,,(49) MSG: EXC BD: 001,8=FIX.4.4|9=118|35=3|34=3|49=001|50=001B27|52=20190613-21:01:11.771|56=EXC|45=2|58=Required tag missing, field=38|371=38|372=AG|373=1|10=059|,null,null
8,0,FIX_R,FALLIDO,,,,(56) MSG: null BD: EXC,8=FIX.4.4|9=118|35=3|34=3|49=001|50=001B27|52=20190613-21:01:11.771|56=EXC|45=2|58=Required tag missing, field=38|371=38|372=AG|373=1|10=059|,null,null
Fin de caso 8,,,,1.0,3.0,25.00%,

Total exitosos:,1.0
Total fallidos:,3.0
Porcentaje total: ,25.00%