8=FIX.4.4|9=110|35=A|34=1|49=001|50=001B27|52=20190528-15:22:28.666|56=EXC|43=Y|98=0|108=30|141=Y|553=001FCM001|554=001FCM001|10=091|
8=FIX.4.4|9=0067|35=A|34=1|49=EXC|56=001|52=20190528-15:22:28.762|98=0|108=30|141=Y|10=015|
8=FIX.4.4|9=122|35=R|34=2|49=001|50=001B27|52=20190528-15:22:33.782|56=EXC|131=1|146=1|453=2|448=002B35|447=C|452=37|448=DCV|447=C|452=10|10=044|
8=FIX.4.4|9=0125|35=3|34=2|49=EXC|56=001|52=20190528-15:22:33.819|45=2|371=38|372=R|373=1|58=(1463): Hace falta campo requerido OrderQty(#38)|10=033|
8=FIX.4.4|9=110|35=A|34=1|49=001|50=001B27|52=20190528-15:24:02.396|56=EXC|43=Y|98=0|108=30|141=Y|553=001FCM001|554=001FCM001|10=085|
8=FIX.4.4|9=0067|35=A|34=1|49=EXC|56=001|52=20190528-15:24:02.478|98=0|108=30|141=Y|10=013|
8=FIX.4.4|9=122|35=R|34=2|49=001|50=001B27|52=20190528-15:24:07.545|56=EXC|131=1|146=1|453=2|448=002B35|447=C|452=37|448=DCV|447=C|452=10|10=044|
8=FIX.4.4|9=0125|35=3|34=2|49=EXC|56=001|52=20190528-15:24:07.583|45=2|371=38|372=R|373=1|58=(1463): Hace falta campo requerido OrderQty(#38)|10=034|
