8=FIX.4.4|9=110|35=A|34=1|49=001|50=001B27|52=20190607-12:29:13.241|56=EXC|43=Y|98=0|108=30|141=Y|553=001FCM001|554=001FCM001|10=076|
8=FIX.4.4|9=0067|35=A|34=1|49=EXC|56=001|52=20190607-12:29:14.737|98=0|108=30|141=Y|10=014|
8=FIX.4.4|9=110|35=A|34=1|49=001|50=001B27|52=20190607-12:31:01.153|56=EXC|43=Y|98=0|108=30|141=Y|553=001FCM001|554=001FCM001|10=068|
8=FIX.4.4|9=0067|35=A|34=1|49=EXC|56=001|52=20190607-12:31:02.361|98=0|108=30|141=Y|10=253|
8=FIX.4.4|9=110|35=A|34=1|49=001|50=001B27|52=20190607-12:37:18.371|56=EXC|43=Y|98=0|108=30|141=Y|553=001FCM001|554=001FCM001|10=084|
8=FIX.4.4|9=0067|35=A|34=1|49=EXC|56=001|52=20190607-12:37:18.779|98=0|108=30|141=Y|10=023|
8=FIX.4.4|9=153|35=R|34=2|49=001|50=001B27|52=20190607-12:37:20.806|56=EXC|131=1952355|146=1|55=TFIT15260826|22=M|762=RFQF|54=1|38=1500000000|453=1|448=DCV|447=C|452=10|10=200|
8=FIX.4.4|9=0235|35=AI|34=2|49=EXC|56=001|57=001B27|52=20190607-12:37:21.174|131=1952355|453=4|448=DCV|447=C|452=10|448=001B27|447=C|452=12|448=001|447=C|452=1|448=001FCM001|447=C|452=36|55=TFIT15260826|762=RFQF|48=20348|22=M|54=1|38=1500000000|297=10|10=099|
8=FIX.4.4|9=0192|35=R|34=3|49=EXC|56=001|52=20190607-12:37:21.174|131=20190607-000000000001.00|146=1|55=TFIT15260826|762=RFQF|48=20348|22=M|54=1|38=1500000000|453=2|448=001B27|447=C|452=12|448=001|447=C|452=1|10=233|
8=FIX.4.4|9=68|35=2|34=3|49=001|50=001B27|52=20190607-12:37:20.906|56=EXC|7=2|16=0|10=177|
8=FIX.4.4|9=0266|35=AI|34=2|43=Y|52=20190607-12:37:21.271|49=EXC|56=001|57=001B27|122=20190607-12:37:21.174|131=1952355|453=4|448=DCV|447=C|452=10|448=001B27|447=C|452=12|448=001|447=C|452=1|448=001FCM001|447=C|452=36|55=TFIT15260826|762=RFQF|48=20348|22=M|54=1|38=1500000000|297=10|10=106|
8=FIX.4.4|9=0223|35=R|34=3|43=Y|52=20190607-12:37:21.271|49=EXC|56=001|122=20190607-12:37:21.174|131=20190607-000000000001.00|146=1|55=TFIT15260826|762=RFQF|48=20348|22=M|54=1|38=1500000000|453=2|448=001B27|447=C|452=12|448=001|447=C|452=1|10=231|
8=FIX.4.4|9=0054|35=4|34=4|49=EXC|56=001|52=20190607-12:37:21.272|36=5|10=141|
8=FIX.4.4|9=68|35=2|34=4|49=001|50=001B27|52=20190607-12:37:20.953|56=EXC|7=2|16=0|10=180|
8=FIX.4.4|9=0266|35=AI|34=2|43=Y|52=20190607-12:37:21.322|49=EXC|56=001|57=001B27|122=20190607-12:37:21.174|131=1952355|453=4|448=DCV|447=C|452=10|448=001B27|447=C|452=12|448=001|447=C|452=1|448=001FCM001|447=C|452=36|55=TFIT15260826|762=RFQF|48=20348|22=M|54=1|38=1500000000|297=10|10=103|
8=FIX.4.4|9=0223|35=R|34=3|43=Y|52=20190607-12:37:21.322|49=EXC|56=001|122=20190607-12:37:21.174|131=20190607-000000000001.00|146=1|55=TFIT15260826|762=RFQF|48=20348|22=M|54=1|38=1500000000|453=2|448=001B27|447=C|452=12|448=001|447=C|452=1|10=228|
8=FIX.4.4|9=0065|35=4|34=4|43=Y|49=EXC|56=001|52=20190607-12:37:21.322|123=Y|36=5|10=182|
8=FIX.4.4|9=0054|35=4|34=5|49=EXC|56=001|52=20190607-12:37:21.322|36=6|10=139|
8=FIX.4.4|9=110|35=A|34=1|49=001|50=001B27|52=20190607-13:06:52.875|56=EXC|43=Y|98=0|108=30|141=Y|553=001FCM001|554=001FCM001|10=088|
8=FIX.4.4|9=0067|35=A|34=1|49=EXC|56=001|52=20190607-13:06:52.387|98=0|108=30|141=Y|10=013|
8=FIX.4.4|9=154|35=R|34=2|49=001|50=001B27|52=20190607-13:06:55.250|56=EXC|131=72401483|146=1|55=TFIT15260826|22=M|762=RFQF|54=1|38=1500000000|453=1|448=DCV|447=C|452=10|10=246|
8=FIX.4.4|9=0236|35=AI|34=2|49=EXC|56=001|57=001B27|52=20190607-13:06:54.725|131=72401483|453=4|448=DCV|447=C|452=10|448=001B27|447=C|452=12|448=001|447=C|452=1|448=001FCM001|447=C|452=36|55=TFIT15260826|762=RFQF|48=20348|22=M|54=1|38=1500000000|297=10|10=152|
8=FIX.4.4|9=0192|35=R|34=3|49=EXC|56=001|52=20190607-13:06:54.725|131=20190607-000000000002.00|146=1|55=TFIT15260826|762=RFQF|48=20348|22=M|54=1|38=1500000000|453=2|448=001B27|447=C|452=12|448=001|447=C|452=1|10=239|
8=FIX.4.4|9=68|35=2|34=3|49=001|50=001B27|52=20190607-13:06:55.313|56=EXC|7=2|16=0|10=174|
8=FIX.4.4|9=0267|35=AI|34=2|43=Y|52=20190607-13:06:54.792|49=EXC|56=001|57=001B27|122=20190607-13:06:54.725|131=72401483|453=4|448=DCV|447=C|452=10|448=001B27|447=C|452=12|448=001|447=C|452=1|448=001FCM001|447=C|452=36|55=TFIT15260826|762=RFQF|48=20348|22=M|54=1|38=1500000000|297=10|10=170|
8=FIX.4.4|9=0223|35=R|34=3|43=Y|52=20190607-13:06:54.792|49=EXC|56=001|122=20190607-13:06:54.725|131=20190607-000000000002.00|146=1|55=TFIT15260826|762=RFQF|48=20348|22=M|54=1|38=1500000000|453=2|448=001B27|447=C|452=12|448=001|447=C|452=1|10=248|
8=FIX.4.4|9=0054|35=4|34=4|49=EXC|56=001|52=20190607-13:06:54.792|36=5|10=151|
8=FIX.4.4|9=68|35=2|34=4|49=001|50=001B27|52=20190607-13:06:55.366|56=EXC|7=2|16=0|10=183|
8=FIX.4.4|9=0267|35=AI|34=2|43=Y|52=20190607-13:06:54.841|49=EXC|56=001|57=001B27|122=20190607-13:06:54.725|131=72401483|453=4|448=DCV|447=C|452=10|448=001B27|447=C|452=12|448=001|447=C|452=1|448=001FCM001|447=C|452=36|55=TFIT15260826|762=RFQF|48=20348|22=M|54=1|38=1500000000|297=10|10=165|
8=FIX.4.4|9=0223|35=R|34=3|43=Y|52=20190607-13:06:54.841|49=EXC|56=001|122=20190607-13:06:54.725|131=20190607-000000000002.00|146=1|55=TFIT15260826|762=RFQF|48=20348|22=M|54=1|38=1500000000|453=2|448=001B27|447=C|452=12|448=001|447=C|452=1|10=243|
8=FIX.4.4|9=0065|35=4|34=4|43=Y|49=EXC|56=001|52=20190607-13:06:54.841|123=Y|36=5|10=191|
8=FIX.4.4|9=0054|35=4|34=5|49=EXC|56=001|52=20190607-13:06:54.841|36=6|10=148|
8=FIX.4.4|9=110|35=A|34=1|49=001|50=001B27|52=20190607-13:41:37.764|56=EXC|43=Y|98=0|108=30|141=Y|553=001FCM001|554=001FCM001|10=087|
8=FIX.4.4|9=0067|35=A|34=1|49=EXC|56=001|52=20190607-13:41:37.348|98=0|108=30|141=Y|10=012|
8=FIX.4.4|9=177|35=R|34=2|49=001|50=001B27|52=20190607-13:41:40.261|56=EXC|131=17473025|146=1|55=TFIC13280425|22=M|762=RFQF|54=1|38=500000000|453=2|448=002B35|447=C|452=37|448=DCV|447=C|452=10|10=045|
8=FIX.4.4|9=0259|35=AI|34=2|49=EXC|56=001|57=001B27|52=20190607-13:41:39.773|131=17473025|453=5|448=DCV|447=C|452=10|448=001B27|447=C|452=12|448=001|447=C|452=1|448=001FCM001|447=C|452=36|448=002B35|447=C|452=37|55=TFIC13280425|762=RFQF|48=20626|22=M|54=1|38=500000000|297=10|10=216|
8=FIX.4.4|9=110|35=A|34=1|49=001|50=001B27|52=20190607-13:44:49.696|56=EXC|43=Y|98=0|108=30|141=Y|553=001FCM001|554=001FCM001|10=097|
8=FIX.4.4|9=0067|35=A|34=1|49=EXC|56=001|52=20190607-13:44:49.242|98=0|108=30|141=Y|10=011|
8=FIX.4.4|9=154|35=R|34=2|49=001|50=001B27|52=20190607-13:44:52.116|56=EXC|131=37953849|146=1|55=TFIT15260826|22=M|762=RFQF|54=1|38=1500000000|453=1|448=DCV|447=C|452=10|10=009|
8=FIX.4.4|9=0236|35=AI|34=2|49=EXC|56=001|57=001B27|52=20190607-13:44:51.624|131=37953849|453=4|448=DCV|447=C|452=10|448=001B27|447=C|452=12|448=001|447=C|452=1|448=001FCM001|447=C|452=36|55=TFIT15260826|762=RFQF|48=20348|22=M|54=1|38=1500000000|297=10|10=168|
8=FIX.4.4|9=0192|35=R|34=3|49=EXC|56=001|52=20190607-13:44:51.624|131=20190607-000000000004.00|146=1|55=TFIT15260826|762=RFQF|48=20348|22=M|54=1|38=1500000000|453=2|448=001B27|447=C|452=12|448=001|447=C|452=1|10=238|
8=FIX.4.4|9=68|35=2|34=3|49=001|50=001B27|52=20190607-13:44:52.258|56=EXC|7=2|16=0|10=181|
8=FIX.4.4|9=0267|35=AI|34=2|43=Y|52=20190607-13:44:51.767|49=EXC|56=001|57=001B27|122=20190607-13:44:51.624|131=37953849|453=4|448=DCV|447=C|452=10|448=001B27|447=C|452=12|448=001|447=C|452=1|448=001FCM001|447=C|452=36|55=TFIT15260826|762=RFQF|48=20348|22=M|54=1|38=1500000000|297=10|10=187|
8=FIX.4.4|9=0223|35=R|34=3|43=Y|52=20190607-13:44:51.767|49=EXC|56=001|122=20190607-13:44:51.624|131=20190607-000000000004.00|146=1|55=TFIT15260826|762=RFQF|48=20348|22=M|54=1|38=1500000000|453=2|448=001B27|447=C|452=12|448=001|447=C|452=1|10=248|
8=FIX.4.4|9=0054|35=4|34=4|49=EXC|56=001|52=20190607-13:44:51.767|36=5|10=152|
8=FIX.4.4|9=68|35=2|34=4|49=001|50=001B27|52=20190607-13:44:52.358|56=EXC|7=2|16=0|10=183|
8=FIX.4.4|9=0267|35=AI|34=2|43=Y|52=20190607-13:44:51.868|49=EXC|56=001|57=001B27|122=20190607-13:44:51.624|131=37953849|453=4|448=DCV|447=C|452=10|448=001B27|447=C|452=12|448=001|447=C|452=1|448=001FCM001|447=C|452=36|55=TFIT15260826|762=RFQF|48=20348|22=M|54=1|38=1500000000|297=10|10=189|
8=FIX.4.4|9=0223|35=R|34=3|43=Y|52=20190607-13:44:51.868|49=EXC|56=001|122=20190607-13:44:51.624|131=20190607-000000000004.00|146=1|55=TFIT15260826|762=RFQF|48=20348|22=M|54=1|38=1500000000|453=2|448=001B27|447=C|452=12|448=001|447=C|452=1|10=250|
8=FIX.4.4|9=0065|35=4|34=4|43=Y|49=EXC|56=001|52=20190607-13:44:51.868|123=Y|36=5|10=199|
8=FIX.4.4|9=0054|35=4|34=5|49=EXC|56=001|52=20190607-13:44:51.868|36=6|10=156|
8=FIX.4.4|9=154|35=R|34=5|49=001|50=001B27|52=20190607-13:44:52.842|56=EXC|131=10739601|146=1|55=TFIT15260826|22=M|762=RFQF|54=1|38=1500000000|453=1|448=DCV|447=C|452=10|10=253|
8=FIX.4.4|9=0236|35=AI|34=6|49=EXC|56=001|57=001B27|52=20190607-13:44:52.353|131=10739601|453=4|448=DCV|447=C|452=10|448=001B27|447=C|452=12|448=001|447=C|452=1|448=001FCM001|447=C|452=36|55=TFIT15260826|762=RFQF|48=20348|22=M|54=1|38=1500000000|297=10|10=151|
8=FIX.4.4|9=0192|35=R|34=7|49=EXC|56=001|52=20190607-13:44:52.353|131=20190607-000000000005.00|146=1|55=TFIT15260826|762=RFQF|48=20348|22=M|54=1|38=1500000000|453=2|448=001B27|447=C|452=12|448=001|447=C|452=1|10=243|
8=FIX.4.4|9=68|35=2|34=6|49=001|50=001B27|52=20190607-13:44:52.885|56=EXC|7=6|16=0|10=194|
8=FIX.4.4|9=0267|35=AI|34=6|43=Y|52=20190607-13:44:52.395|49=EXC|56=001|57=001B27|122=20190607-13:44:52.353|131=10739601|453=4|448=DCV|447=C|452=10|448=001B27|447=C|452=12|448=001|447=C|452=1|448=001FCM001|447=C|452=36|55=TFIT15260826|762=RFQF|48=20348|22=M|54=1|38=1500000000|297=10|10=168|
8=FIX.4.4|9=0223|35=R|34=7|43=Y|52=20190607-13:44:52.395|49=EXC|56=001|122=20190607-13:44:52.353|131=20190607-000000000005.00|146=1|55=TFIT15260826|762=RFQF|48=20348|22=M|54=1|38=1500000000|453=2|448=001B27|447=C|452=12|448=001|447=C|452=1|10=251|
8=FIX.4.4|9=0054|35=4|34=8|49=EXC|56=001|52=20190607-13:44:52.395|36=9|10=158|
8=FIX.4.4|9=68|35=2|34=7|49=001|50=001B27|52=20190607-13:44:52.933|56=EXC|7=6|16=0|10=189|
8=FIX.4.4|9=0267|35=AI|34=6|43=Y|52=20190607-13:44:52.440|49=EXC|56=001|57=001B27|122=20190607-13:44:52.353|131=10739601|453=4|448=DCV|447=C|452=10|448=001B27|447=C|452=12|448=001|447=C|452=1|448=001FCM001|447=C|452=36|55=TFIT15260826|762=RFQF|48=20348|22=M|54=1|38=1500000000|297=10|10=159|
8=FIX.4.4|9=0223|35=R|34=7|43=Y|52=20190607-13:44:52.440|49=EXC|56=001|122=20190607-13:44:52.353|131=20190607-000000000005.00|146=1|55=TFIT15260826|762=RFQF|48=20348|22=M|54=1|38=1500000000|453=2|448=001B27|447=C|452=12|448=001|447=C|452=1|10=242|
8=FIX.4.4|9=0065|35=4|34=8|43=Y|49=EXC|56=001|52=20190607-13:44:52.440|123=Y|36=9|10=194|
8=FIX.4.4|9=0055|35=4|34=9|49=EXC|56=001|52=20190607-13:44:52.441|36=10|10=192|
8=FIX.4.4|9=110|35=A|34=1|49=001|50=001B27|52=20190607-14:07:59.616|56=EXC|43=Y|98=0|108=30|141=Y|553=001FCM001|554=001FCM001|10=090|
8=FIX.4.4|9=0067|35=A|34=1|49=EXC|56=001|52=20190607-14:07:59.350|98=0|108=30|141=Y|10=012|
8=FIX.4.4|9=154|35=R|34=2|49=001|50=001B27|52=20190607-14:08:02.030|56=EXC|131=66900438|146=1|55=TFIT15260826|22=M|762=RFQF|54=1|38=1500000000|453=1|448=DCV|447=C|452=10|10=244|
8=FIX.4.4|9=0236|35=AI|34=2|49=EXC|56=001|57=001B27|52=20190607-14:08:01.717|131=66900438|453=4|448=DCV|447=C|452=10|448=001B27|447=C|452=12|448=001|447=C|452=1|448=001FCM001|447=C|452=36|55=TFIT15260826|762=RFQF|48=20348|22=M|54=1|38=1500000000|297=10|10=155|
8=FIX.4.4|9=0192|35=R|34=3|49=EXC|56=001|52=20190607-14:08:01.717|131=20190607-000000000007.00|146=1|55=TFIT15260826|762=RFQF|48=20348|22=M|54=1|38=1500000000|453=2|448=001B27|447=C|452=12|448=001|447=C|452=1|10=240|
8=FIX.4.4|9=68|35=2|34=3|49=001|50=001B27|52=20190607-14:08:02.106|56=EXC|7=2|16=0|10=169|
8=FIX.4.4|9=0267|35=AI|34=2|43=Y|52=20190607-14:08:01.789|49=EXC|56=001|57=001B27|122=20190607-14:08:01.717|131=66900438|453=4|448=DCV|447=C|452=10|448=001B27|447=C|452=12|448=001|447=C|452=1|448=001FCM001|447=C|452=36|55=TFIT15260826|762=RFQF|48=20348|22=M|54=1|38=1500000000|297=10|10=174|
8=FIX.4.4|9=0223|35=R|34=3|43=Y|52=20190607-14:08:01.789|49=EXC|56=001|122=20190607-14:08:01.717|131=20190607-000000000007.00|146=1|55=TFIT15260826|762=RFQF|48=20348|22=M|54=1|38=1500000000|453=2|448=001B27|447=C|452=12|448=001|447=C|452=1|10=250|
8=FIX.4.4|9=0054|35=4|34=4|49=EXC|56=001|52=20190607-14:08:01.789|36=5|10=152|
8=FIX.4.4|9=68|35=2|34=4|49=001|50=001B27|52=20190607-14:08:02.178|56=EXC|7=2|16=0|10=179|
8=FIX.4.4|9=0267|35=AI|34=2|43=Y|52=20190607-14:08:01.865|49=EXC|56=001|57=001B27|122=20190607-14:08:01.717|131=66900438|453=4|448=DCV|447=C|452=10|448=001B27|447=C|452=12|448=001|447=C|452=1|448=001FCM001|447=C|452=36|55=TFIT15260826|762=RFQF|48=20348|22=M|54=1|38=1500000000|297=10|10=169|
8=FIX.4.4|9=0223|35=R|34=3|43=Y|52=20190607-14:08:01.865|49=EXC|56=001|122=20190607-14:08:01.717|131=20190607-000000000007.00|146=1|55=TFIT15260826|762=RFQF|48=20348|22=M|54=1|38=1500000000|453=2|448=001B27|447=C|452=12|448=001|447=C|452=1|10=245|
8=FIX.4.4|9=0065|35=4|34=4|43=Y|49=EXC|56=001|52=20190607-14:08:01.865|123=Y|36=5|10=192|
8=FIX.4.4|9=0054|35=4|34=5|49=EXC|56=001|52=20190607-14:08:01.865|36=6|10=149|
8=FIX.4.4|9=154|35=R|34=5|49=001|50=001B27|52=20190607-14:08:02.900|56=EXC|131=60469099|146=1|55=TFIT15260826|22=M|762=RFQF|54=1|38=1500000000|453=1|448=DCV|447=C|452=10|10=004|
8=FIX.4.4|9=0236|35=AI|34=6|49=EXC|56=001|57=001B27|52=20190607-14:08:02.586|131=60469099|453=4|448=DCV|447=C|452=10|448=001B27|447=C|452=12|448=001|447=C|452=1|448=001FCM001|447=C|452=36|55=TFIT15260826|762=RFQF|48=20348|22=M|54=1|38=1500000000|297=10|10=171|
8=FIX.4.4|9=0192|35=R|34=7|49=EXC|56=001|52=20190607-14:08:02.586|131=20190607-000000000008.00|146=1|55=TFIT15260826|762=RFQF|48=20348|22=M|54=1|38=1500000000|453=2|448=001B27|447=C|452=12|448=001|447=C|452=1|10=250|
8=FIX.4.4|9=68|35=2|34=6|49=001|50=001B27|52=20190607-14:08:02.951|56=EXC|7=6|16=0|10=184|
8=FIX.4.4|9=0267|35=AI|34=6|43=Y|52=20190607-14:08:02.635|49=EXC|56=001|57=001B27|122=20190607-14:08:02.586|131=60469099|453=4|448=DCV|447=C|452=10|448=001B27|447=C|452=12|448=001|447=C|452=1|448=001FCM001|447=C|452=36|55=TFIT15260826|762=RFQF|48=20348|22=M|54=1|38=1500000000|297=10|10=181|
8=FIX.4.4|9=0223|35=R|34=7|43=Y|52=20190607-14:08:02.635|49=EXC|56=001|122=20190607-14:08:02.586|131=20190607-000000000008.00|146=1|55=TFIT15260826|762=RFQF|48=20348|22=M|54=1|38=1500000000|453=2|448=001B27|447=C|452=12|448=001|447=C|452=1|10=251|
8=FIX.4.4|9=0054|35=4|34=8|49=EXC|56=001|52=20190607-14:08:02.635|36=9|10=151|
8=FIX.4.4|9=68|35=2|34=7|49=001|50=001B27|52=20190607-14:08:03.015|56=EXC|7=6|16=0|10=177|
8=FIX.4.4|9=0267|35=AI|34=6|43=Y|52=20190607-14:08:02.702|49=EXC|56=001|57=001B27|122=20190607-14:08:02.586|131=60469099|453=4|448=DCV|447=C|452=10|448=001B27|447=C|452=12|448=001|447=C|452=1|448=001FCM001|447=C|452=36|55=TFIT15260826|762=RFQF|48=20348|22=M|54=1|38=1500000000|297=10|10=176|
8=FIX.4.4|9=0223|35=R|34=7|43=Y|52=20190607-14:08:02.702|49=EXC|56=001|122=20190607-14:08:02.586|131=20190607-000000000008.00|146=1|55=TFIT15260826|762=RFQF|48=20348|22=M|54=1|38=1500000000|453=2|448=001B27|447=C|452=12|448=001|447=C|452=1|10=246|
8=FIX.4.4|9=0065|35=4|34=8|43=Y|49=EXC|56=001|52=20190607-14:08:02.702|123=Y|36=9|10=191|
8=FIX.4.4|9=0055|35=4|34=9|49=EXC|56=001|52=20190607-14:08:02.702|36=10|10=188|
8=FIX.4.4|9=0050|35=0|34=10|49=EXC|56=001|52=20190607-14:08:32.000|10=205|
8=FIX.4.4|9=59|35=0|34=8|49=001|50=001B27|52=20190607-14:08:33.556|56=EXC|10=061|
8=FIX.4.4|9=0050|35=0|34=11|49=EXC|56=001|52=20190607-14:09:02.000|10=204|
8=FIX.4.4|9=59|35=0|34=9|49=001|50=001B27|52=20190607-14:09:04.522|56=EXC|10=054|
8=FIX.4.4|9=0050|35=0|34=12|49=EXC|56=001|52=20190607-14:09:32.000|10=208|
8=FIX.4.4|9=60|35=0|34=10|49=001|50=001B27|52=20190607-14:09:35.487|56=EXC|10=100|
8=FIX.4.4|9=0050|35=0|34=13|49=EXC|56=001|52=20190607-14:10:02.000|10=198|
8=FIX.4.4|9=60|35=0|34=11|49=001|50=001B27|52=20190607-14:10:06.455|56=EXC|10=086|
8=FIX.4.4|9=110|35=A|34=1|49=001|50=001B27|52=20190607-14:10:41.130|56=EXC|43=Y|98=0|108=30|141=Y|553=001FCM001|554=001FCM001|10=066|
8=FIX.4.4|9=0067|35=A|34=1|49=EXC|56=001|52=20190607-14:10:41.003|98=0|108=30|141=Y|10=248|
8=FIX.4.4|9=154|35=R|34=2|49=001|50=001B27|52=20190607-14:10:43.482|56=EXC|131=10970865|146=1|55=TFIT15260826|22=M|762=RFQF|54=1|38=1500000000|453=1|448=DCV|447=C|452=10|10=253|
8=FIX.4.4|9=0236|35=AI|34=2|49=EXC|56=001|57=001B27|52=20190607-14:10:43.320|131=10970865|453=4|448=DCV|447=C|452=10|448=001B27|447=C|452=12|448=001|447=C|452=1|448=001FCM001|447=C|452=36|55=TFIT15260826|762=RFQF|48=20348|22=M|54=1|38=1500000000|297=10|10=144|
8=FIX.4.4|9=0192|35=R|34=3|49=EXC|56=001|52=20190607-14:10:43.320|131=20190607-000000000009.00|146=1|55=TFIT15260826|762=RFQF|48=20348|22=M|54=1|38=1500000000|453=2|448=001B27|447=C|452=12|448=001|447=C|452=1|10=231|
8=FIX.4.4|9=68|35=2|34=3|49=001|50=001B27|52=20190607-14:10:43.546|56=EXC|7=2|16=0|10=175|
8=FIX.4.4|9=0267|35=AI|34=2|43=Y|52=20190607-14:10:43.383|49=EXC|56=001|57=001B27|122=20190607-14:10:43.320|131=10970865|453=4|448=DCV|447=C|452=10|448=001B27|447=C|452=12|448=001|447=C|452=1|448=001FCM001|447=C|452=36|55=TFIT15260826|762=RFQF|48=20348|22=M|54=1|38=1500000000|297=10|10=152|
8=FIX.4.4|9=0223|35=R|34=3|43=Y|52=20190607-14:10:43.383|49=EXC|56=001|122=20190607-14:10:43.320|131=20190607-000000000009.00|146=1|55=TFIT15260826|762=RFQF|48=20348|22=M|54=1|38=1500000000|453=2|448=001B27|447=C|452=12|448=001|447=C|452=1|10=230|
8=FIX.4.4|9=0054|35=4|34=4|49=EXC|56=001|52=20190607-14:10:43.383|36=5|10=141|
8=FIX.4.4|9=68|35=2|34=4|49=001|50=001B27|52=20190607-14:10:43.614|56=EXC|7=2|16=0|10=172|
8=FIX.4.4|9=0267|35=AI|34=2|43=Y|52=20190607-14:10:43.452|49=EXC|56=001|57=001B27|122=20190607-14:10:43.320|131=10970865|453=4|448=DCV|447=C|452=10|448=001B27|447=C|452=12|448=001|447=C|452=1|448=001FCM001|447=C|452=36|55=TFIT15260826|762=RFQF|48=20348|22=M|54=1|38=1500000000|297=10|10=149|
8=FIX.4.4|9=0223|35=R|34=3|43=Y|52=20190607-14:10:43.452|49=EXC|56=001|122=20190607-14:10:43.320|131=20190607-000000000009.00|146=1|55=TFIT15260826|762=RFQF|48=20348|22=M|54=1|38=1500000000|453=2|448=001B27|447=C|452=12|448=001|447=C|452=1|10=227|
8=FIX.4.4|9=0065|35=4|34=4|43=Y|49=EXC|56=001|52=20190607-14:10:43.452|123=Y|36=5|10=183|
8=FIX.4.4|9=0054|35=4|34=5|49=EXC|56=001|52=20190607-14:10:43.452|36=6|10=140|
8=FIX.4.4|9=154|35=R|34=5|49=001|50=001B27|52=20190607-14:10:44.185|56=EXC|131=65115011|146=1|55=TFIT15260826|22=M|762=RFQF|54=1|38=1500000000|453=1|448=DCV|447=C|452=10|10=241|
8=FIX.4.4|9=0236|35=AI|34=6|49=EXC|56=001|57=001B27|52=20190607-14:10:44.022|131=65115011|453=4|448=DCV|447=C|452=10|448=001B27|447=C|452=12|448=001|447=C|452=1|448=001FCM001|447=C|452=36|55=TFIT15260826|762=RFQF|48=20348|22=M|54=1|38=1500000000|297=10|10=132|
8=FIX.4.4|9=0192|35=R|34=7|49=EXC|56=001|52=20190607-14:10:44.022|131=20190607-000000000010.00|146=1|55=TFIT15260826|762=RFQF|48=20348|22=M|54=1|38=1500000000|453=2|448=001B27|447=C|452=12|448=001|447=C|452=1|10=227|
8=FIX.4.4|9=68|35=2|34=6|49=001|50=001B27|52=20190607-14:10:44.221|56=EXC|7=6|16=0|10=173|
8=FIX.4.4|9=0267|35=AI|34=6|43=Y|52=20190607-14:10:44.060|49=EXC|56=001|57=001B27|122=20190607-14:10:44.022|131=65115011|453=4|448=DCV|447=C|452=10|448=001B27|447=C|452=12|448=001|447=C|452=1|448=001FCM001|447=C|452=36|55=TFIT15260826|762=RFQF|48=20348|22=M|54=1|38=1500000000|297=10|10=133|
8=FIX.4.4|9=0223|35=R|34=7|43=Y|52=20190607-14:10:44.060|49=EXC|56=001|122=20190607-14:10:44.022|131=20190607-000000000010.00|146=1|55=TFIT15260826|762=RFQF|48=20348|22=M|54=1|38=1500000000|453=2|448=001B27|447=C|452=12|448=001|447=C|452=1|10=219|
8=FIX.4.4|9=0054|35=4|34=8|49=EXC|56=001|52=20190607-14:10:44.060|36=9|10=142|
8=FIX.4.4|9=68|35=2|34=7|49=001|50=001B27|52=20190607-14:10:44.257|56=EXC|7=6|16=0|10=183|
8=FIX.4.4|9=0267|35=AI|34=6|43=Y|52=20190607-14:10:44.096|49=EXC|56=001|57=001B27|122=20190607-14:10:44.022|131=65115011|453=4|448=DCV|447=C|452=10|448=001B27|447=C|452=12|448=001|447=C|452=1|448=001FCM001|447=C|452=36|55=TFIT15260826|762=RFQF|48=20348|22=M|54=1|38=1500000000|297=10|10=142|
8=FIX.4.4|9=0223|35=R|34=7|43=Y|52=20190607-14:10:44.096|49=EXC|56=001|122=20190607-14:10:44.022|131=20190607-000000000010.00|146=1|55=TFIT15260826|762=RFQF|48=20348|22=M|54=1|38=1500000000|453=2|448=001B27|447=C|452=12|448=001|447=C|452=1|10=228|
8=FIX.4.4|9=0065|35=4|34=8|43=Y|49=EXC|56=001|52=20190607-14:10:44.096|123=Y|36=9|10=196|
8=FIX.4.4|9=0055|35=4|34=9|49=EXC|56=001|52=20190607-14:10:44.096|36=10|10=193|
8=FIX.4.4|9=0050|35=0|34=10|49=EXC|56=001|52=20190607-14:11:14.000|10=199|
8=FIX.4.4|9=59|35=0|34=8|49=001|50=001B27|52=20190607-14:11:15.071|56=EXC|10=047|
8=FIX.4.4|9=110|35=A|34=1|49=001|50=001B27|52=20190607-14:22:14.001|56=EXC|43=Y|98=0|108=30|141=Y|553=001FCM001|554=001FCM001|10=066|
8=FIX.4.4|9=0067|35=A|34=1|49=EXC|56=001|52=20190607-14:22:14.325|98=0|108=30|141=Y|10=002|
8=FIX.4.4|9=177|35=R|34=2|49=001|50=001B27|52=20190607-14:22:16.433|56=EXC|131=50089462|146=1|55=TFIC13280425|22=M|762=RFQF|54=1|38=500000000|453=2|448=002B35|447=C|452=37|448=DCV|447=C|452=10|10=054|
8=FIX.4.4|9=0259|35=AI|34=2|49=EXC|56=001|57=001B27|52=20190607-14:22:16.683|131=50089462|453=5|448=DCV|447=C|452=10|448=001B27|447=C|452=12|448=001|447=C|452=1|448=001FCM001|447=C|452=36|448=002B35|447=C|452=37|55=TFIC13280425|762=RFQF|48=20626|22=M|54=1|38=500000000|297=10|10=216|
8=FIX.4.4|9=177|35=R|34=3|49=001|50=001B27|52=20190607-14:22:17.297|56=EXC|131=40681930|146=1|55=TFIC13280425|22=M|762=RFQF|54=1|38=500000000|453=2|448=002B35|447=C|452=37|448=DCV|447=C|452=10|10=061|
8=FIX.4.4|9=0259|35=AI|34=3|49=EXC|56=001|57=001B27|52=20190607-14:22:17.547|131=40681930|453=5|448=DCV|447=C|452=10|448=001B27|447=C|452=12|448=001|447=C|452=1|448=001FCM001|447=C|452=36|448=002B35|447=C|452=37|55=TFIC13280425|762=RFQF|48=20626|22=M|54=1|38=500000000|297=10|10=214|
8=FIX.4.4|9=110|35=A|34=1|49=001|50=001B27|52=20190607-14:23:02.311|56=EXC|43=Y|98=0|108=30|141=Y|553=001FCM001|554=001FCM001|10=068|
8=FIX.4.4|9=0067|35=A|34=1|49=EXC|56=001|52=20190607-14:23:02.606|98=0|108=30|141=Y|10=002|
8=FIX.4.4|9=176|35=R|34=2|49=001|50=001B27|52=20190607-14:23:04.646|56=EXC|131=7494850|146=1|55=TFIC13280425|22=M|762=RFQF|54=1|38=500000000|453=2|448=002B35|447=C|452=37|448=DCV|447=C|452=10|10=012|
8=FIX.4.4|9=0258|35=AI|34=2|49=EXC|56=001|57=001B27|52=20190607-14:23:04.896|131=7494850|453=5|448=DCV|447=C|452=10|448=001B27|447=C|452=12|448=001|447=C|452=1|448=001FCM001|447=C|452=36|448=002B35|447=C|452=37|55=TFIC13280425|762=RFQF|48=20626|22=M|54=1|38=500000000|297=10|10=174|
8=FIX.4.4|9=0306|35=S|34=3|49=EXC|56=001|57=001B27|52=20190607-14:23:15.597|131=7494850|117=20190607-000000000015.00|55=TFIC13280425|762=RFQF|48=20626|22=M|453=5|448=DCV|447=C|452=10|448=001B27|447=C|452=12|448=001|447=C|452=1|448=001FCM001|447=C|452=36|448=002B35|447=C|452=37|634=4.000|135=500000000|62=20190617-22:00:00|10=202|
8=FIX.4.4|9=110|35=A|34=1|49=001|50=001B27|52=20190607-14:23:31.469|56=EXC|43=Y|98=0|108=30|141=Y|553=001FCM001|554=001FCM001|10=084|
8=FIX.4.4|9=0067|35=A|34=1|49=EXC|56=001|52=20190607-14:23:31.789|98=0|108=30|141=Y|10=016|
8=FIX.4.4|9=153|35=R|34=2|49=001|50=001B27|52=20190607-14:23:33.813|56=EXC|131=6512679|146=1|55=TFIT15260826|22=M|762=RFQF|54=1|38=1500000000|453=1|448=DCV|447=C|452=10|10=205|
8=FIX.4.4|9=0235|35=AI|34=2|49=EXC|56=001|57=001B27|52=20190607-14:23:34.063|131=6512679|453=4|448=DCV|447=C|452=10|448=001B27|447=C|452=12|448=001|447=C|452=1|448=001FCM001|447=C|452=36|55=TFIT15260826|762=RFQF|48=20348|22=M|54=1|38=1500000000|297=10|10=103|
8=FIX.4.4|9=0192|35=R|34=3|49=EXC|56=001|52=20190607-14:23:34.063|131=20190607-000000000016.00|146=1|55=TFIT15260826|762=RFQF|48=20348|22=M|54=1|38=1500000000|453=2|448=001B27|447=C|452=12|448=001|447=C|452=1|10=237|
8=FIX.4.4|9=68|35=2|34=3|49=001|50=001B27|52=20190607-14:23:33.877|56=EXC|7=2|16=0|10=185|
8=FIX.4.4|9=0266|35=AI|34=2|43=Y|52=20190607-14:23:34.127|49=EXC|56=001|57=001B27|122=20190607-14:23:34.063|131=6512679|453=4|448=DCV|447=C|452=10|448=001B27|447=C|452=12|448=001|447=C|452=1|448=001FCM001|447=C|452=36|55=TFIT15260826|762=RFQF|48=20348|22=M|54=1|38=1500000000|297=10|10=111|
8=FIX.4.4|9=0223|35=R|34=3|43=Y|52=20190607-14:23:34.127|49=EXC|56=001|122=20190607-14:23:34.063|131=20190607-000000000016.00|146=1|55=TFIT15260826|762=RFQF|48=20348|22=M|54=1|38=1500000000|453=2|448=001B27|447=C|452=12|448=001|447=C|452=1|10=236|
8=FIX.4.4|9=0054|35=4|34=4|49=EXC|56=001|52=20190607-14:23:34.128|36=5|10=142|
8=FIX.4.4|9=68|35=2|34=4|49=001|50=001B27|52=20190607-14:23:33.925|56=EXC|7=2|16=0|10=180|
8=FIX.4.4|9=0266|35=AI|34=2|43=Y|52=20190607-14:23:34.177|49=EXC|56=001|57=001B27|122=20190607-14:23:34.063|131=6512679|453=4|448=DCV|447=C|452=10|448=001B27|447=C|452=12|448=001|447=C|452=1|448=001FCM001|447=C|452=36|55=TFIT15260826|762=RFQF|48=20348|22=M|54=1|38=1500000000|297=10|10=116|
8=FIX.4.4|9=0223|35=R|34=3|43=Y|52=20190607-14:23:34.177|49=EXC|56=001|122=20190607-14:23:34.063|131=20190607-000000000016.00|146=1|55=TFIT15260826|762=RFQF|48=20348|22=M|54=1|38=1500000000|453=2|448=001B27|447=C|452=12|448=001|447=C|452=1|10=241|
8=FIX.4.4|9=0065|35=4|34=4|43=Y|49=EXC|56=001|52=20190607-14:23:34.177|123=Y|36=5|10=191|
8=FIX.4.4|9=0054|35=4|34=5|49=EXC|56=001|52=20190607-14:23:34.177|36=6|10=148|
8=FIX.4.4|9=0049|35=0|34=6|49=EXC|56=001|52=20190607-14:24:04.000|10=167|
8=FIX.4.4|9=59|35=0|34=5|49=001|50=001B27|52=20190607-14:24:04.456|56=EXC|10=053|
8=FIX.4.4|9=0049|35=0|34=7|49=EXC|56=001|52=20190607-14:24:34.000|10=171|
8=FIX.4.4|9=59|35=0|34=6|49=001|50=001B27|52=20190607-14:24:34.476|56=EXC|10=059|
8=FIX.4.4|9=110|35=A|34=1|49=001|50=001B27|52=20190607-14:42:14.820|56=EXC|43=Y|98=0|108=30|141=Y|553=001FCM001|554=001FCM001|10=077|
8=FIX.4.4|9=0067|35=A|34=1|49=EXC|56=001|52=20190607-14:42:14.889|98=0|108=30|141=Y|10=019|
8=FIX.4.4|9=154|35=R|34=2|49=001|50=001B27|52=20190607-14:42:17.262|56=EXC|131=37568370|146=1|55=TFIT15260826|22=M|762=RFQF|54=1|38=1500000000|453=1|448=DCV|447=C|452=10|10=002|
8=FIX.4.4|9=0236|35=AI|34=2|49=EXC|56=001|57=001B27|52=20190607-14:42:17.288|131=37568370|453=4|448=DCV|447=C|452=10|448=001B27|447=C|452=12|448=001|447=C|452=1|448=001FCM001|447=C|452=36|55=TFIT15260826|762=RFQF|48=20348|22=M|54=1|38=1500000000|297=10|10=166|
8=FIX.4.4|9=0192|35=R|34=3|49=EXC|56=001|52=20190607-14:42:17.288|131=20190607-000000000017.00|146=1|55=TFIT15260826|762=RFQF|48=20348|22=M|54=1|38=1500000000|453=2|448=001B27|447=C|452=12|448=001|447=C|452=1|10=249|
8=FIX.4.4|9=68|35=2|34=3|49=001|50=001B27|52=20190607-14:42:17.369|56=EXC|7=2|16=0|10=184|
8=FIX.4.4|9=0267|35=AI|34=2|43=Y|52=20190607-14:42:17.396|49=EXC|56=001|57=001B27|122=20190607-14:42:17.288|131=37568370|453=4|448=DCV|447=C|452=10|448=001B27|447=C|452=12|448=001|447=C|452=1|448=001FCM001|447=C|452=36|55=TFIT15260826|762=RFQF|48=20348|22=M|54=1|38=1500000000|297=10|10=184|
8=FIX.4.4|9=0223|35=R|34=3|43=Y|52=20190607-14:42:17.396|49=EXC|56=001|122=20190607-14:42:17.288|131=20190607-000000000017.00|146=1|55=TFIT15260826|762=RFQF|48=20348|22=M|54=1|38=1500000000|453=2|448=001B27|447=C|452=12|448=001|447=C|452=1|10=002|
8=FIX.4.4|9=0054|35=4|34=4|49=EXC|56=001|52=20190607-14:42:17.396|36=5|10=151|
8=FIX.4.4|9=68|35=2|34=4|49=001|50=001B27|52=20190607-14:42:17.418|56=EXC|7=2|16=0|10=180|
8=FIX.4.4|9=0267|35=AI|34=2|43=Y|52=20190607-14:42:17.445|49=EXC|56=001|57=001B27|122=20190607-14:42:17.288|131=37568370|453=4|448=DCV|447=C|452=10|448=001B27|447=C|452=12|448=001|447=C|452=1|448=001FCM001|447=C|452=36|55=TFIT15260826|762=RFQF|48=20348|22=M|54=1|38=1500000000|297=10|10=179|
8=FIX.4.4|9=0223|35=R|34=3|43=Y|52=20190607-14:42:17.445|49=EXC|56=001|122=20190607-14:42:17.288|131=20190607-000000000017.00|146=1|55=TFIT15260826|762=RFQF|48=20348|22=M|54=1|38=1500000000|453=2|448=001B27|447=C|452=12|448=001|447=C|452=1|10=253|
8=FIX.4.4|9=0065|35=4|34=4|43=Y|49=EXC|56=001|52=20190607-14:42:17.445|123=Y|36=5|10=191|
8=FIX.4.4|9=0054|35=4|34=5|49=EXC|56=001|52=20190607-14:42:17.445|36=6|10=148|
8=FIX.4.4|9=110|35=A|34=1|49=001|50=001B27|52=20190607-14:45:47.308|56=EXC|43=Y|98=0|108=30|141=Y|553=001FCM001|554=001FCM001|10=087|
8=FIX.4.4|9=0067|35=A|34=1|49=EXC|56=001|52=20190607-14:45:47.379|98=0|108=30|141=Y|10=022|
8=FIX.4.4|9=154|35=R|34=2|49=001|50=001B27|52=20190607-14:45:49.634|56=EXC|131=20299157|146=1|55=TFIT15260826|22=M|762=RFQF|54=1|38=1500000000|453=1|448=DCV|447=C|452=10|10=009|
8=FIX.4.4|9=0236|35=AI|34=2|49=EXC|56=001|57=001B27|52=20190607-14:45:49.663|131=20299157|453=4|448=DCV|447=C|452=10|448=001B27|447=C|452=12|448=001|447=C|452=1|448=001FCM001|447=C|452=36|55=TFIT15260826|762=RFQF|48=20348|22=M|54=1|38=1500000000|297=10|10=167|
8=FIX.4.4|9=0192|35=R|34=3|49=EXC|56=001|52=20190607-14:45:49.663|131=20190607-000000000018.00|146=1|55=TFIT15260826|762=RFQF|48=20348|22=M|54=1|38=1500000000|453=2|448=001B27|447=C|452=12|448=001|447=C|452=1|10=255|
8=FIX.4.4|9=68|35=2|34=3|49=001|50=001B27|52=20190607-14:45:49.694|56=EXC|7=2|16=0|10=193|
8=FIX.4.4|9=0267|35=AI|34=2|43=Y|52=20190607-14:45:49.721|49=EXC|56=001|57=001B27|122=20190607-14:45:49.663|131=20299157|453=4|448=DCV|447=C|452=10|448=001B27|447=C|452=12|448=001|447=C|452=1|448=001FCM001|447=C|452=36|55=TFIT15260826|762=RFQF|48=20348|22=M|54=1|38=1500000000|297=10|10=185|
8=FIX.4.4|9=0223|35=R|34=3|43=Y|52=20190607-14:45:49.721|49=EXC|56=001|122=20190607-14:45:49.663|131=20190607-000000000018.00|146=1|55=TFIT15260826|762=RFQF|48=20348|22=M|54=1|38=1500000000|453=2|448=001B27|447=C|452=12|448=001|447=C|452=1|10=008|
8=FIX.4.4|9=0054|35=4|34=4|49=EXC|56=001|52=20190607-14:45:49.721|36=5|10=151|
8=FIX.4.4|9=68|35=2|34=4|49=001|50=001B27|52=20190607-14:45:49.738|56=EXC|7=2|16=0|10=193|
8=FIX.4.4|9=0267|35=AI|34=2|43=Y|52=20190607-14:45:49.767|49=EXC|56=001|57=001B27|122=20190607-14:45:49.663|131=20299157|453=4|448=DCV|447=C|452=10|448=001B27|447=C|452=12|448=001|447=C|452=1|448=001FCM001|447=C|452=36|55=TFIT15260826|762=RFQF|48=20348|22=M|54=1|38=1500000000|297=10|10=195|
8=FIX.4.4|9=0223|35=R|34=3|43=Y|52=20190607-14:45:49.767|49=EXC|56=001|122=20190607-14:45:49.663|131=20190607-000000000018.00|146=1|55=TFIT15260826|762=RFQF|48=20348|22=M|54=1|38=1500000000|453=2|448=001B27|447=C|452=12|448=001|447=C|452=1|10=018|
8=FIX.4.4|9=0065|35=4|34=4|43=Y|49=EXC|56=001|52=20190607-14:45:49.767|123=Y|36=5|10=206|
8=FIX.4.4|9=0054|35=4|34=5|49=EXC|56=001|52=20190607-14:45:49.768|36=6|10=164|
8=FIX.4.4|9=0049|35=0|34=6|49=EXC|56=001|52=20190607-14:46:19.000|10=177|
8=FIX.4.4|9=59|35=0|34=5|49=001|50=001B27|52=20190607-14:46:20.281|56=EXC|10=051|
8=FIX.4.4|9=0049|35=0|34=7|49=EXC|56=001|52=20190607-14:46:49.000|10=181|
8=FIX.4.4|9=59|35=0|34=6|49=001|50=001B27|52=20190607-14:46:50.281|56=EXC|10=055|
8=FIX.4.4|9=110|35=A|34=1|49=001|50=001B27|52=20190607-14:51:25.935|56=EXC|43=Y|98=0|108=30|141=Y|553=001FCM001|554=001FCM001|10=086|
8=FIX.4.4|9=0067|35=A|34=1|49=EXC|56=001|52=20190607-14:51:26.013|98=0|108=30|141=Y|10=001|
8=FIX.4.4|9=177|35=R|34=2|49=001|50=001B27|52=20190607-14:51:28.333|56=EXC|131=26400225|146=1|55=TFIC13280425|22=M|762=RFQF|54=1|38=500000000|453=2|448=002B35|447=C|452=37|448=DCV|447=C|452=10|10=045|
8=FIX.4.4|9=0259|35=AI|34=2|49=EXC|56=001|57=001B27|52=20190607-14:51:28.365|131=26400225|453=5|448=DCV|447=C|452=10|448=001B27|447=C|452=12|448=001|447=C|452=1|448=001FCM001|447=C|452=36|448=002B35|447=C|452=37|55=TFIC13280425|762=RFQF|48=20626|22=M|54=1|38=500000000|297=10|10=205|
8=FIX.4.4|9=110|35=A|34=1|49=001|50=001B27|52=20190607-14:54:09.898|56=EXC|43=Y|98=0|108=30|141=Y|553=001FCM001|554=001FCM001|10=099|
8=FIX.4.4|9=0067|35=A|34=1|49=EXC|56=001|52=20190607-14:54:09.967|98=0|108=30|141=Y|10=023|
8=FIX.4.4|9=154|35=R|34=2|49=001|50=001B27|52=20190607-14:54:12.231|56=EXC|131=23930639|146=1|55=TFIT15260826|22=M|762=RFQF|54=1|38=1500000000|453=1|448=DCV|447=C|452=10|10=248|
8=FIX.4.4|9=0236|35=AI|34=2|49=EXC|56=001|57=001B27|52=20190607-14:54:12.262|131=23930639|453=4|448=DCV|447=C|452=10|448=001B27|447=C|452=12|448=001|447=C|452=1|448=001FCM001|447=C|452=36|55=TFIT15260826|762=RFQF|48=20348|22=M|54=1|38=1500000000|297=10|10=152|
8=FIX.4.4|9=0192|35=R|34=3|49=EXC|56=001|52=20190607-14:54:12.262|131=20190607-000000000020.00|146=1|55=TFIT15260826|762=RFQF|48=20348|22=M|54=1|38=1500000000|453=2|448=001B27|447=C|452=12|448=001|447=C|452=1|10=233|
8=FIX.4.4|9=68|35=2|34=3|49=001|50=001B27|52=20190607-14:54:12.291|56=EXC|7=2|16=0|10=176|
8=FIX.4.4|9=0267|35=AI|34=2|43=Y|52=20190607-14:54:12.322|49=EXC|56=001|57=001B27|122=20190607-14:54:12.262|131=23930639|453=4|448=DCV|447=C|452=10|448=001B27|447=C|452=12|448=001|447=C|452=1|448=001FCM001|447=C|452=36|55=TFIT15260826|762=RFQF|48=20348|22=M|54=1|38=1500000000|297=10|10=157|
8=FIX.4.4|9=0223|35=R|34=3|43=Y|52=20190607-14:54:12.322|49=EXC|56=001|122=20190607-14:54:12.262|131=20190607-000000000020.00|146=1|55=TFIT15260826|762=RFQF|48=20348|22=M|54=1|38=1500000000|453=2|448=001B27|447=C|452=12|448=001|447=C|452=1|10=229|
8=FIX.4.4|9=0054|35=4|34=4|49=EXC|56=001|52=20190607-14:54:12.322|36=5|10=138|
8=FIX.4.4|9=68|35=2|34=4|49=001|50=001B27|52=20190607-14:54:12.343|56=EXC|7=2|16=0|10=175|
8=FIX.4.4|9=0267|35=AI|34=2|43=Y|52=20190607-14:54:12.374|49=EXC|56=001|57=001B27|122=20190607-14:54:12.262|131=23930639|453=4|448=DCV|447=C|452=10|448=001B27|447=C|452=12|448=001|447=C|452=1|448=001FCM001|447=C|452=36|55=TFIT15260826|762=RFQF|48=20348|22=M|54=1|38=1500000000|297=10|10=164|
8=FIX.4.4|9=0223|35=R|34=3|43=Y|52=20190607-14:54:12.374|49=EXC|56=001|122=20190607-14:54:12.262|131=20190607-000000000020.00|146=1|55=TFIT15260826|762=RFQF|48=20348|22=M|54=1|38=1500000000|453=2|448=001B27|447=C|452=12|448=001|447=C|452=1|10=236|
8=FIX.4.4|9=0065|35=4|34=4|43=Y|49=EXC|56=001|52=20190607-14:54:12.374|123=Y|36=5|10=190|
8=FIX.4.4|9=0054|35=4|34=5|49=EXC|56=001|52=20190607-14:54:12.374|36=6|10=147|
8=FIX.4.4|9=110|35=A|34=1|49=001|50=001B27|52=20190607-14:55:37.494|56=EXC|43=Y|98=0|108=30|141=Y|553=001FCM001|554=001FCM001|10=093|
8=FIX.4.4|9=0067|35=A|34=1|49=EXC|56=001|52=20190607-14:55:37.561|98=0|108=30|141=Y|10=015|
8=FIX.4.4|9=177|35=R|34=2|49=001|50=001B27|52=20190607-14:55:39.927|56=EXC|131=10445183|146=1|55=TFIC13280425|22=M|762=RFQF|54=1|38=500000000|453=2|448=002B35|447=C|452=37|448=DCV|447=C|452=10|10=065|
8=FIX.4.4|9=0259|35=AI|34=2|49=EXC|56=001|57=001B27|52=20190607-14:55:39.956|131=10445183|453=5|448=DCV|447=C|452=10|448=001B27|447=C|452=12|448=001|447=C|452=1|448=001FCM001|447=C|452=36|448=002B35|447=C|452=37|55=TFIC13280425|762=RFQF|48=20626|22=M|54=1|38=500000000|297=10|10=222|
8=FIX.4.4|9=0049|35=0|34=3|49=EXC|56=001|52=20190607-14:56:09.000|10=174|
8=FIX.4.4|9=59|35=0|34=3|49=001|50=001B27|52=20190607-14:56:10.467|56=EXC|10=055|
8=FIX.4.4|9=110|35=A|34=1|49=001|50=001B27|52=20190607-14:57:52.497|56=EXC|43=Y|98=0|108=30|141=Y|553=001FCM001|554=001FCM001|10=095|
8=FIX.4.4|9=0067|35=A|34=1|49=EXC|56=001|52=20190607-14:57:52.569|98=0|108=30|141=Y|10=022|
8=FIX.4.4|9=154|35=R|34=2|49=001|50=001B27|52=20190607-14:57:54.842|56=EXC|131=46465284|146=1|55=TFIT15260826|22=M|762=RFQF|54=1|38=1500000000|453=1|448=DCV|447=C|452=10|10=013|
8=FIX.4.4|9=0236|35=AI|34=2|49=EXC|56=001|57=001B27|52=20190607-14:57:54.873|131=46465284|453=4|448=DCV|447=C|452=10|448=001B27|447=C|452=12|448=001|447=C|452=1|448=001FCM001|447=C|452=36|55=TFIT15260826|762=RFQF|48=20348|22=M|54=1|38=1500000000|297=10|10=173|
8=FIX.4.4|9=0192|35=R|34=3|49=EXC|56=001|52=20190607-14:57:54.873|131=20190607-000000000022.00|146=1|55=TFIT15260826|762=RFQF|48=20348|22=M|54=1|38=1500000000|453=2|448=001B27|447=C|452=12|448=001|447=C|452=1|10=252|
8=FIX.4.4|9=68|35=2|34=3|49=001|50=001B27|52=20190607-14:57:54.914|56=EXC|7=2|16=0|10=187|
8=FIX.4.4|9=0267|35=AI|34=2|43=Y|52=20190607-14:57:54.944|49=EXC|56=001|57=001B27|122=20190607-14:57:54.873|131=46465284|453=4|448=DCV|447=C|452=10|448=001B27|447=C|452=12|448=001|447=C|452=1|448=001FCM001|447=C|452=36|55=TFIT15260826|762=RFQF|48=20348|22=M|54=1|38=1500000000|297=10|10=197|
8=FIX.4.4|9=0223|35=R|34=3|43=Y|52=20190607-14:57:54.944|49=EXC|56=001|122=20190607-14:57:54.873|131=20190607-000000000022.00|146=1|55=TFIT15260826|762=RFQF|48=20348|22=M|54=1|38=1500000000|453=2|448=001B27|447=C|452=12|448=001|447=C|452=1|10=011|
8=FIX.4.4|9=0054|35=4|34=4|49=EXC|56=001|52=20190607-14:57:54.944|36=5|10=157|
8=FIX.4.4|9=68|35=2|34=4|49=001|50=001B27|52=20190607-14:57:54.966|56=EXC|7=2|16=0|10=195|
8=FIX.4.4|9=0267|35=AI|34=2|43=Y|52=20190607-14:57:54.996|49=EXC|56=001|57=001B27|122=20190607-14:57:54.873|131=46465284|453=4|448=DCV|447=C|452=10|448=001B27|447=C|452=12|448=001|447=C|452=1|448=001FCM001|447=C|452=36|55=TFIT15260826|762=RFQF|48=20348|22=M|54=1|38=1500000000|297=10|10=204|
8=FIX.4.4|9=0223|35=R|34=3|43=Y|52=20190607-14:57:54.996|49=EXC|56=001|122=20190607-14:57:54.873|131=20190607-000000000022.00|146=1|55=TFIT15260826|762=RFQF|48=20348|22=M|54=1|38=1500000000|453=2|448=001B27|447=C|452=12|448=001|447=C|452=1|10=018|
8=FIX.4.4|9=0065|35=4|34=4|43=Y|49=EXC|56=001|52=20190607-14:57:54.996|123=Y|36=5|10=209|
8=FIX.4.4|9=0054|35=4|34=5|49=EXC|56=001|52=20190607-14:57:54.997|36=6|10=167|
8=FIX.4.4|9=0049|35=0|34=6|49=EXC|56=001|52=20190607-14:58:24.000|10=176|
8=FIX.4.4|9=59|35=0|34=5|49=001|50=001B27|52=20190607-14:58:25.471|56=EXC|10=060|
8=FIX.4.4|9=0049|35=0|34=7|49=EXC|56=001|52=20190607-14:58:54.000|10=180|
8=FIX.4.4|9=59|35=0|34=6|49=001|50=001B27|52=20190607-14:58:55.471|56=EXC|10=064|
8=FIX.4.4|9=0049|35=0|34=8|49=EXC|56=001|52=20190607-14:59:24.000|10=179|
8=FIX.4.4|9=59|35=0|34=7|49=001|50=001B27|52=20190607-14:59:25.475|56=EXC|10=067|
8=FIX.4.4|9=0049|35=0|34=9|49=EXC|56=001|52=20190607-14:59:54.000|10=183|
8=FIX.4.4|9=59|35=0|34=8|49=001|50=001B27|52=20190607-14:59:55.473|56=EXC|10=069|
8=FIX.4.4|9=0050|35=0|34=10|49=EXC|56=001|52=20190607-15:00:24.000|10=199|
8=FIX.4.4|9=59|35=0|34=9|49=001|50=001B27|52=20190607-15:00:25.472|56=EXC|10=053|
8=FIX.4.4|9=0050|35=0|34=11|49=EXC|56=001|52=20190607-15:00:54.000|10=203|
8=FIX.4.4|9=60|35=0|34=10|49=001|50=001B27|52=20190607-15:00:55.474|56=EXC|10=090|
8=FIX.4.4|9=0050|35=0|34=12|49=EXC|56=001|52=20190607-15:01:24.000|10=202|
8=FIX.4.4|9=60|35=0|34=11|49=001|50=001B27|52=20190607-15:01:25.475|56=EXC|10=090|
8=FIX.4.4|9=0050|35=0|34=13|49=EXC|56=001|52=20190607-15:01:54.000|10=206|
8=FIX.4.4|9=60|35=0|34=12|49=001|50=001B27|52=20190607-15:01:55.474|56=EXC|10=093|
8=FIX.4.4|9=0050|35=0|34=14|49=EXC|56=001|52=20190607-15:02:24.000|10=205|
8=FIX.4.4|9=60|35=0|34=13|49=001|50=001B27|52=20190607-15:02:25.473|56=EXC|10=091|
8=FIX.4.4|9=0050|35=0|34=15|49=EXC|56=001|52=20190607-15:02:54.000|10=209|
8=FIX.4.4|9=60|35=0|34=14|49=001|50=001B27|52=20190607-15:02:55.473|56=EXC|10=095|
8=FIX.4.4|9=0050|35=0|34=16|49=EXC|56=001|52=20190607-15:03:24.000|10=208|
8=FIX.4.4|9=60|35=0|34=15|49=001|50=001B27|52=20190607-15:03:25.472|56=EXC|10=093|
8=FIX.4.4|9=0050|35=0|34=17|49=EXC|56=001|52=20190607-15:03:54.000|10=212|
8=FIX.4.4|9=60|35=0|34=16|49=001|50=001B27|52=20190607-15:03:55.472|56=EXC|10=097|
