<<<<<<< HEAD
<<<<<<< HEAD
<<<<<<< HEAD
8=FIX.4.4|9=110|35=A|34=1|49=013|50=013B17|52=20190607-14:13:05.174|56=EXC|43=Y|98=0|108=30|141=Y|553=013FCM001|554=013FCM001|10=088|
8=FIX.4.4|9=0067|35=A|34=1|49=EXC|56=013|52=20190607-14:13:05.235|98=0|108=30|141=Y|10=005|
8=FIX.4.4|9=0192|35=R|34=2|49=EXC|56=013|52=20190607-14:13:07.262|131=20190607-000000000012.00|146=1|55=TFIT15260826|762=RFQF|48=20348|22=M|54=1|38=1500000000|453=2|448=001B27|447=C|452=12|448=001|447=C|452=1|10=235|
8=FIX.4.4|9=110|35=A|34=1|49=013|50=013B17|52=20190607-15:35:43.382|56=EXC|43=Y|98=0|108=30|141=Y|553=013FCM001|554=013FCM001|10=096|
8=FIX.4.4|9=0067|35=A|34=1|49=EXC|56=013|52=20190607-15:35:43.442|98=0|108=30|141=Y|10=012|
8=FIX.4.4|9=110|35=A|34=1|49=013|50=013B17|52=20190607-16:16:18.429|56=EXC|43=Y|98=0|108=30|141=Y|553=013FCM001|554=013FCM001|10=100|
8=FIX.4.4|9=0067|35=A|34=1|49=EXC|56=013|52=20190607-16:16:18.497|98=0|108=30|141=Y|10=024|
8=FIX.4.4|9=110|35=A|34=1|49=013|50=013B17|52=20190607-16:39:55.284|56=EXC|43=Y|98=0|108=30|141=Y|553=013FCM001|554=013FCM001|10=105|
8=FIX.4.4|9=0067|35=A|34=1|49=EXC|56=013|52=20190607-16:39:55.323|98=0|108=30|141=Y|10=018|
8=FIX.4.4|9=110|35=A|34=1|49=013|50=013B17|52=20190607-16:43:05.220|56=EXC|43=Y|98=0|108=30|141=Y|553=013FCM001|554=013FCM001|10=085|
8=FIX.4.4|9=0067|35=A|34=1|49=EXC|56=013|52=20190607-16:43:05.252|98=0|108=30|141=Y|10=009|
8=FIX.4.4|9=110|35=A|34=1|49=013|50=013B17|52=20190607-16:44:16.390|56=EXC|43=Y|98=0|108=30|141=Y|553=013FCM001|554=013FCM001|10=096|
8=FIX.4.4|9=0067|35=A|34=1|49=EXC|56=013|52=20190607-16:44:16.421|98=0|108=30|141=Y|10=010|
8=FIX.4.4|9=110|35=A|34=1|49=013|50=013B17|52=20190607-16:47:05.356|56=EXC|43=Y|98=0|108=30|141=Y|553=013FCM001|554=013FCM001|10=099|
8=FIX.4.4|9=0067|35=A|34=1|49=EXC|56=013|52=20190607-16:47:05.394|98=0|108=30|141=Y|10=020|
8=FIX.4.4|9=0192|35=R|34=2|49=EXC|56=013|52=20190607-16:47:07.473|131=20190607-000000000033.00|146=1|55=TFIT15260826|762=RFQF|48=20348|22=M|54=1|38=1500000000|453=2|448=007B26|447=C|452=12|448=007|447=C|452=1|10=006|
8=FIX.4.4|9=110|35=A|34=1|49=013|50=013B17|52=20190607-16:53:12.424|56=EXC|43=Y|98=0|108=30|141=Y|553=013FCM001|554=013FCM001|10=090|
8=FIX.4.4|9=0067|35=A|34=1|49=EXC|56=013|52=20190607-16:53:12.478|98=0|108=30|141=Y|10=018|
8=FIX.4.4|9=110|35=A|34=1|49=013|50=013B17|52=20190607-17:01:26.322|56=EXC|43=Y|98=0|108=30|141=Y|553=013FCM001|554=013FCM001|10=086|
8=FIX.4.4|9=0067|35=A|34=1|49=EXC|56=013|52=20190607-17:01:26.349|98=0|108=30|141=Y|10=014|
8=FIX.4.4|9=0192|35=R|34=2|49=EXC|56=013|52=20190607-17:01:28.235|131=20190607-000000000037.00|146=1|55=TFIT15260826|762=RFQF|48=20348|22=M|54=1|38=1500000000|453=2|448=007B26|447=C|452=12|448=007|447=C|452=1|10=000|
8=FIX.4.4|9=110|35=A|34=1|49=013|50=013B17|52=20190607-17:05:59.449|56=EXC|43=Y|98=0|108=30|141=Y|553=013FCM001|554=013FCM001|10=106|
8=FIX.4.4|9=0067|35=A|34=1|49=EXC|56=013|52=20190607-17:05:59.455|98=0|108=30|141=Y|10=022|
=======
8=FIX.4.4|9=110|35=A|34=1|49=013|50=013B17|52=20190607-12:29:13.473|56=EXC|43=Y|98=0|108=30|141=Y|553=013FCM001|554=013FCM001|10=094|
8=FIX.4.4|9=0067|35=A|34=1|49=EXC|56=013|52=20190607-12:29:14.931|98=0|108=30|141=Y|10=013|
8=FIX.4.4|9=110|35=A|34=1|49=013|50=013B17|52=20190607-12:31:01.374|56=EXC|43=Y|98=0|108=30|141=Y|553=013FCM001|554=013FCM001|10=084|
8=FIX.4.4|9=0067|35=A|34=1|49=EXC|56=013|52=20190607-12:31:02.561|98=0|108=30|141=Y|10=002|
8=FIX.4.4|9=110|35=A|34=1|49=013|50=013B17|52=20190607-12:37:18.572|56=EXC|43=Y|98=0|108=30|141=Y|553=013FCM001|554=013FCM001|10=098|
8=FIX.4.4|9=0067|35=A|34=1|49=EXC|56=013|52=20190607-12:37:18.983|98=0|108=30|141=Y|10=023|
8=FIX.4.4|9=0192|35=R|34=2|49=EXC|56=013|52=20190607-12:37:21.174|131=20190607-000000000001.00|146=1|55=TFIT15260826|762=RFQF|48=20348|22=M|54=1|38=1500000000|453=2|448=001B27|447=C|452=12|448=001|447=C|452=1|10=235|
8=FIX.4.4|9=110|35=A|34=1|49=013|50=013B17|52=20190607-13:06:53.075|56=EXC|43=Y|98=0|108=30|141=Y|553=013FCM001|554=013FCM001|10=092|
8=FIX.4.4|9=0067|35=A|34=1|49=EXC|56=013|52=20190607-13:06:52.590|98=0|108=30|141=Y|10=012|
8=FIX.4.4|9=0192|35=R|34=2|49=EXC|56=013|52=20190607-13:06:54.725|131=20190607-000000000002.00|146=1|55=TFIT15260826|762=RFQF|48=20348|22=M|54=1|38=1500000000|453=2|448=001B27|447=C|452=12|448=001|447=C|452=1|10=241|
8=FIX.4.4|9=110|35=A|34=1|49=013|50=013B17|52=20190607-13:41:38.038|56=EXC|43=Y|98=0|108=30|141=Y|553=013FCM001|554=013FCM001|10=093|
8=FIX.4.4|9=0067|35=A|34=1|49=EXC|56=013|52=20190607-13:41:37.582|98=0|108=30|141=Y|10=015|
8=FIX.4.4|9=110|35=A|34=1|49=013|50=013B17|52=20190607-13:44:49.883|56=EXC|43=Y|98=0|108=30|141=Y|553=013FCM001|554=013FCM001|10=106|
8=FIX.4.4|9=0067|35=A|34=1|49=EXC|56=013|52=20190607-13:44:49.422|98=0|108=30|141=Y|10=014|
8=FIX.4.4|9=0192|35=R|34=2|49=EXC|56=013|52=20190607-13:44:51.624|131=20190607-000000000004.00|146=1|55=TFIT15260826|762=RFQF|48=20348|22=M|54=1|38=1500000000|453=2|448=001B27|447=C|452=12|448=001|447=C|452=1|10=240|
8=FIX.4.4|9=0192|35=R|34=3|49=EXC|56=013|52=20190607-13:44:52.353|131=20190607-000000000005.00|146=1|55=TFIT15260826|762=RFQF|48=20348|22=M|54=1|38=1500000000|453=2|448=001B27|447=C|452=12|448=001|447=C|452=1|10=242|
8=FIX.4.4|9=68|35=2|34=2|49=013|50=013B17|52=20190607-13:44:52.868|56=EXC|7=2|16=0|10=192|
8=FIX.4.4|9=0223|35=R|34=2|43=Y|52=20190607-13:44:52.375|49=EXC|56=013|122=20190607-13:44:51.624|131=20190607-000000000004.00|146=1|55=TFIT15260826|762=RFQF|48=20348|22=M|54=1|38=1500000000|453=2|448=001B27|447=C|452=12|448=001|447=C|452=1|10=246|
8=FIX.4.4|9=0223|35=R|34=3|43=Y|52=20190607-13:44:52.375|49=EXC|56=013|122=20190607-13:44:52.353|131=20190607-000000000005.00|146=1|55=TFIT15260826|762=RFQF|48=20348|22=M|54=1|38=1500000000|453=2|448=001B27|447=C|452=12|448=001|447=C|452=1|10=248|
8=FIX.4.4|9=0054|35=4|34=4|49=EXC|56=013|52=20190607-13:44:52.375|36=5|10=151|
8=FIX.4.4|9=68|35=2|34=3|49=013|50=013B17|52=20190607-13:44:52.965|56=EXC|7=2|16=0|10=191|
8=FIX.4.4|9=0223|35=R|34=2|43=Y|52=20190607-13:44:52.475|49=EXC|56=013|122=20190607-13:44:51.624|131=20190607-000000000004.00|146=1|55=TFIT15260826|762=RFQF|48=20348|22=M|54=1|38=1500000000|453=2|448=001B27|447=C|452=12|448=001|447=C|452=1|10=247|
8=FIX.4.4|9=0223|35=R|34=3|43=Y|52=20190607-13:44:52.475|49=EXC|56=013|122=20190607-13:44:52.353|131=20190607-000000000005.00|146=1|55=TFIT15260826|762=RFQF|48=20348|22=M|54=1|38=1500000000|453=2|448=001B27|447=C|452=12|448=001|447=C|452=1|10=249|
8=FIX.4.4|9=0065|35=4|34=4|43=Y|49=EXC|56=013|52=20190607-13:44:52.475|123=Y|36=5|10=197|
8=FIX.4.4|9=0054|35=4|34=5|49=EXC|56=013|52=20190607-13:44:52.475|36=6|10=154|
8=FIX.4.4|9=110|35=A|34=1|49=013|50=013B17|52=20190607-14:07:59.802|56=EXC|43=Y|98=0|108=30|141=Y|553=013FCM001|554=013FCM001|10=098|
8=FIX.4.4|9=0067|35=A|34=1|49=EXC|56=013|52=20190607-14:07:59.517|98=0|108=30|141=Y|10=020|
8=FIX.4.4|9=0192|35=R|34=2|49=EXC|56=013|52=20190607-14:08:01.717|131=20190607-000000000007.00|146=1|55=TFIT15260826|762=RFQF|48=20348|22=M|54=1|38=1500000000|453=2|448=001B27|447=C|452=12|448=001|447=C|452=1|10=242|
8=FIX.4.4|9=0192|35=R|34=3|49=EXC|56=013|52=20190607-14:08:02.586|131=20190607-000000000008.00|146=1|55=TFIT15260826|762=RFQF|48=20348|22=M|54=1|38=1500000000|453=2|448=001B27|447=C|452=12|448=001|447=C|452=1|10=249|
8=FIX.4.4|9=68|35=2|34=2|49=013|50=013B17|52=20190607-14:08:02.923|56=EXC|7=2|16=0|10=180|
8=FIX.4.4|9=0223|35=R|34=2|43=Y|52=20190607-14:08:02.608|49=EXC|56=013|122=20190607-14:08:01.717|131=20190607-000000000007.00|146=1|55=TFIT15260826|762=RFQF|48=20348|22=M|54=1|38=1500000000|453=2|448=001B27|447=C|452=12|448=001|447=C|452=1|10=243|
8=FIX.4.4|9=0223|35=R|34=3|43=Y|52=20190607-14:08:02.608|49=EXC|56=013|122=20190607-14:08:02.586|131=20190607-000000000008.00|146=1|55=TFIT15260826|762=RFQF|48=20348|22=M|54=1|38=1500000000|453=2|448=001B27|447=C|452=12|448=001|447=C|452=1|10=250|
8=FIX.4.4|9=0054|35=4|34=4|49=EXC|56=013|52=20190607-14:08:02.609|36=5|10=147|
8=FIX.4.4|9=68|35=2|34=3|49=013|50=013B17|52=20190607-14:08:02.999|56=EXC|7=2|16=0|10=194|
8=FIX.4.4|9=0223|35=R|34=2|43=Y|52=20190607-14:08:02.686|49=EXC|56=013|122=20190607-14:08:01.717|131=20190607-000000000007.00|146=1|55=TFIT15260826|762=RFQF|48=20348|22=M|54=1|38=1500000000|453=2|448=001B27|447=C|452=12|448=001|447=C|452=1|10=249|
8=FIX.4.4|9=0223|35=R|34=3|43=Y|52=20190607-14:08:02.686|49=EXC|56=013|122=20190607-14:08:02.586|131=20190607-000000000008.00|146=1|55=TFIT15260826|762=RFQF|48=20348|22=M|54=1|38=1500000000|453=2|448=001B27|447=C|452=12|448=001|447=C|452=1|10=000|
8=FIX.4.4|9=0065|35=4|34=4|43=Y|49=EXC|56=013|52=20190607-14:08:02.686|123=Y|36=5|10=197|
8=FIX.4.4|9=0054|35=4|34=5|49=EXC|56=013|52=20190607-14:08:02.686|36=6|10=154|
8=FIX.4.4|9=0049|35=0|34=6|49=EXC|56=013|52=20190607-14:08:32.000|10=173|
8=FIX.4.4|9=59|35=0|34=4|49=013|50=013B17|52=20190607-14:08:33.766|56=EXC|10=065|
8=FIX.4.4|9=0049|35=0|34=7|49=EXC|56=013|52=20190607-14:09:02.000|10=172|
8=FIX.4.4|9=59|35=0|34=5|49=013|50=013B17|52=20190607-14:09:04.733|56=EXC|10=059|
8=FIX.4.4|9=0049|35=0|34=8|49=EXC|56=013|52=20190607-14:09:32.000|10=176|
8=FIX.4.4|9=59|35=0|34=6|49=013|50=013B17|52=20190607-14:09:35.697|56=EXC|10=073|
8=FIX.4.4|9=0049|35=0|34=9|49=EXC|56=013|52=20190607-14:10:02.000|10=166|
8=FIX.4.4|9=59|35=0|34=7|49=013|50=013B17|52=20190607-14:10:06.665|56=EXC|10=059|
8=FIX.4.4|9=110|35=A|34=1|49=013|50=013B17|52=20190607-14:10:41.306|56=EXC|43=Y|98=0|108=30|141=Y|553=013FCM001|554=013FCM001|10=082|
8=FIX.4.4|9=0067|35=A|34=1|49=EXC|56=013|52=20190607-14:10:41.171|98=0|108=30|141=Y|10=001|
8=FIX.4.4|9=0192|35=R|34=2|49=EXC|56=013|52=20190607-14:10:43.320|131=20190607-000000000009.00|146=1|55=TFIT15260826|762=RFQF|48=20348|22=M|54=1|38=1500000000|453=2|448=001B27|447=C|452=12|448=001|447=C|452=1|10=233|
8=FIX.4.4|9=0192|35=R|34=3|49=EXC|56=013|52=20190607-14:10:44.022|131=20190607-000000000010.00|146=1|55=TFIT15260826|762=RFQF|48=20348|22=M|54=1|38=1500000000|453=2|448=001B27|447=C|452=12|448=001|447=C|452=1|10=226|
8=FIX.4.4|9=68|35=2|34=2|49=013|50=013B17|52=20190607-14:10:44.205|56=EXC|7=2|16=0|10=172|
8=FIX.4.4|9=0223|35=R|34=2|43=Y|52=20190607-14:10:44.042|49=EXC|56=013|122=20190607-14:10:43.320|131=20190607-000000000009.00|146=1|55=TFIT15260826|762=RFQF|48=20348|22=M|54=1|38=1500000000|453=2|448=001B27|447=C|452=12|448=001|447=C|452=1|10=225|
8=FIX.4.4|9=0223|35=R|34=3|43=Y|52=20190607-14:10:44.042|49=EXC|56=013|122=20190607-14:10:44.022|131=20190607-000000000010.00|146=1|55=TFIT15260826|762=RFQF|48=20348|22=M|54=1|38=1500000000|453=2|448=001B27|447=C|452=12|448=001|447=C|452=1|10=218|
8=FIX.4.4|9=0054|35=4|34=4|49=EXC|56=013|52=20190607-14:10:44.042|36=5|10=137|
8=FIX.4.4|9=68|35=2|34=3|49=013|50=013B17|52=20190607-14:10:44.290|56=EXC|7=2|16=0|10=177|
8=FIX.4.4|9=0223|35=R|34=2|43=Y|52=20190607-14:10:44.129|49=EXC|56=013|122=20190607-14:10:43.320|131=20190607-000000000009.00|146=1|55=TFIT15260826|762=RFQF|48=20348|22=M|54=1|38=1500000000|453=2|448=001B27|447=C|452=12|448=001|447=C|452=1|10=231|
8=FIX.4.4|9=0223|35=R|34=3|43=Y|52=20190607-14:10:44.129|49=EXC|56=013|122=20190607-14:10:44.022|131=20190607-000000000010.00|146=1|55=TFIT15260826|762=RFQF|48=20348|22=M|54=1|38=1500000000|453=2|448=001B27|447=C|452=12|448=001|447=C|452=1|10=224|
8=FIX.4.4|9=0065|35=4|34=4|43=Y|49=EXC|56=013|52=20190607-14:10:44.129|123=Y|36=5|10=188|
8=FIX.4.4|9=0054|35=4|34=5|49=EXC|56=013|52=20190607-14:10:44.129|36=6|10=145|
8=FIX.4.4|9=0049|35=0|34=6|49=EXC|56=013|52=20190607-14:11:14.000|10=167|
8=FIX.4.4|9=59|35=0|34=4|49=013|50=013B17|52=20190607-14:11:15.249|56=EXC|10=055|
8=FIX.4.4|9=110|35=A|34=1|49=013|50=013B17|52=20190607-14:22:14.227|56=EXC|43=Y|98=0|108=30|141=Y|553=013FCM001|554=013FCM001|10=087|
8=FIX.4.4|9=0067|35=A|34=1|49=EXC|56=013|52=20190607-14:22:14.508|98=0|108=30|141=Y|10=008|
8=FIX.4.4|9=0049|35=0|34=2|49=EXC|56=013|52=20190607-14:22:44.000|10=168|
8=FIX.4.4|9=59|35=0|34=2|49=013|50=013B17|52=20190607-14:22:45.154|56=EXC|10=053|
8=FIX.4.4|9=110|35=A|34=1|49=013|50=013B17|52=20190607-14:23:02.517|56=EXC|43=Y|98=0|108=30|141=Y|553=013FCM001|554=013FCM001|10=087|
8=FIX.4.4|9=0067|35=A|34=1|49=EXC|56=013|52=20190607-14:23:02.801|98=0|108=30|141=Y|10=002|
8=FIX.4.4|9=110|35=A|34=1|49=013|50=013B17|52=20190607-14:23:31.671|56=EXC|43=Y|98=0|108=30|141=Y|553=013FCM001|554=013FCM001|10=090|
8=FIX.4.4|9=0067|35=A|34=1|49=EXC|56=013|52=20190607-14:23:31.981|98=0|108=30|141=Y|10=013|
8=FIX.4.4|9=0192|35=R|34=2|49=EXC|56=013|52=20190607-14:23:34.063|131=20190607-000000000016.00|146=1|55=TFIT15260826|762=RFQF|48=20348|22=M|54=1|38=1500000000|453=2|448=001B27|447=C|452=12|448=001|447=C|452=1|10=239|
8=FIX.4.4|9=59|35=0|34=2|49=013|50=013B17|52=20190607-14:24:02.627|56=EXC|10=053|
8=FIX.4.4|9=0049|35=0|34=3|49=EXC|56=013|52=20190607-14:24:04.000|10=167|
8=FIX.4.4|9=68|35=2|34=3|49=013|50=013B17|52=20190607-14:24:03.822|56=EXC|7=2|16=0|10=178|
8=FIX.4.4|9=0223|35=R|34=2|43=Y|52=20190607-14:24:04.053|49=EXC|56=013|122=20190607-14:23:34.063|131=20190607-000000000016.00|146=1|55=TFIT15260826|762=RFQF|48=20348|22=M|54=1|38=1500000000|453=2|448=001B27|447=C|452=12|448=001|447=C|452=1|10=234|
8=FIX.4.4|9=0065|35=4|34=3|43=Y|49=EXC|56=013|52=20190607-14:24:04.053|123=Y|36=4|10=183|
8=FIX.4.4|9=0054|35=4|34=4|49=EXC|56=013|52=20190607-14:24:04.053|36=5|10=140|
8=FIX.4.4|9=68|35=2|34=4|49=013|50=013B17|52=20190607-14:24:08.876|56=EXC|7=2|16=0|10=193|
8=FIX.4.4|9=0223|35=R|34=2|43=Y|52=20190607-14:24:09.106|49=EXC|56=013|122=20190607-14:23:34.063|131=20190607-000000000016.00|146=1|55=TFIT15260826|762=RFQF|48=20348|22=M|54=1|38=1500000000|453=2|448=001B27|447=C|452=12|448=001|447=C|452=1|10=238|
8=FIX.4.4|9=0065|35=4|34=3|43=Y|49=EXC|56=013|52=20190607-14:24:09.106|123=Y|36=5|10=188|
8=FIX.4.4|9=0054|35=4|34=5|49=EXC|56=013|52=20190607-14:24:09.106|36=6|10=146|
8=FIX.4.4|9=0049|35=0|34=6|49=EXC|56=013|52=20190607-14:24:39.000|10=178|
8=FIX.4.4|9=59|35=0|34=5|49=013|50=013B17|52=20190607-14:24:39.655|56=EXC|10=067|
8=FIX.4.4|9=110|35=A|34=1|49=013|50=013B17|52=20190607-14:42:15.035|56=EXC|43=Y|98=0|108=30|141=Y|553=013FCM001|554=013FCM001|10=087|
8=FIX.4.4|9=0067|35=A|34=1|49=EXC|56=013|52=20190607-14:42:15.101|98=0|108=30|141=Y|10=000|
8=FIX.4.4|9=0192|35=R|34=2|49=EXC|56=013|52=20190607-14:42:17.288|131=20190607-000000000017.00|146=1|55=TFIT15260826|762=RFQF|48=20348|22=M|54=1|38=1500000000|453=2|448=001B27|447=C|452=12|448=001|447=C|452=1|10=251|
8=FIX.4.4|9=110|35=A|34=1|49=013|50=013B17|52=20190607-14:45:47.516|56=EXC|43=Y|98=0|108=30|141=Y|553=013FCM001|554=013FCM001|10=099|
8=FIX.4.4|9=0067|35=A|34=1|49=EXC|56=013|52=20190607-14:45:47.583|98=0|108=30|141=Y|10=022|
8=FIX.4.4|9=0192|35=R|34=2|49=EXC|56=013|52=20190607-14:45:49.663|131=20190607-000000000018.00|146=1|55=TFIT15260826|762=RFQF|48=20348|22=M|54=1|38=1500000000|453=2|448=001B27|447=C|452=12|448=001|447=C|452=1|10=001|
8=FIX.4.4|9=59|35=0|34=2|49=013|50=013B17|52=20190607-14:46:18.470|56=EXC|10=060|
8=FIX.4.4|9=0049|35=0|34=3|49=EXC|56=013|52=20190607-14:46:19.000|10=177|
8=FIX.4.4|9=68|35=2|34=3|49=013|50=013B17|52=20190607-14:46:18.990|56=EXC|7=2|16=0|10=194|
8=FIX.4.4|9=0223|35=R|34=2|43=Y|52=20190607-14:46:19.019|49=EXC|56=013|122=20190607-14:45:49.663|131=20190607-000000000018.00|146=1|55=TFIT15260826|762=RFQF|48=20348|22=M|54=1|38=1500000000|453=2|448=001B27|447=C|452=12|448=001|447=C|452=1|10=008|
8=FIX.4.4|9=0065|35=4|34=3|43=Y|49=EXC|56=013|52=20190607-14:46:19.019|123=Y|36=4|10=195|
8=FIX.4.4|9=0054|35=4|34=4|49=EXC|56=013|52=20190607-14:46:19.019|36=5|10=152|
8=FIX.4.4|9=68|35=2|34=4|49=013|50=013B17|52=20190607-14:46:24.048|56=EXC|7=2|16=0|10=186|
8=FIX.4.4|9=0223|35=R|34=2|43=Y|52=20190607-14:46:24.078|49=EXC|56=013|122=20190607-14:45:49.663|131=20190607-000000000018.00|146=1|55=TFIT15260826|762=RFQF|48=20348|22=M|54=1|38=1500000000|453=2|448=001B27|447=C|452=12|448=001|447=C|452=1|10=009|
8=FIX.4.4|9=0065|35=4|34=3|43=Y|49=EXC|56=013|52=20190607-14:46:24.078|123=Y|36=5|10=197|
8=FIX.4.4|9=0054|35=4|34=5|49=EXC|56=013|52=20190607-14:46:24.078|36=6|10=155|
8=FIX.4.4|9=0049|35=0|34=6|49=EXC|56=013|52=20190607-14:46:54.000|10=179|
8=FIX.4.4|9=59|35=0|34=5|49=013|50=013B17|52=20190607-14:46:54.470|56=EXC|10=063|
8=FIX.4.4|9=110|35=A|34=1|49=013|50=013B17|52=20190607-14:51:26.117|56=EXC|43=Y|98=0|108=30|141=Y|553=013FCM001|554=013FCM001|10=090|
8=FIX.4.4|9=0067|35=A|34=1|49=EXC|56=013|52=20190607-14:51:26.176|98=0|108=30|141=Y|10=014|
8=FIX.4.4|9=110|35=A|34=1|49=013|50=013B17|52=20190607-14:54:10.075|56=EXC|43=Y|98=0|108=30|141=Y|553=013FCM001|554=013FCM001|10=089|
8=FIX.4.4|9=0067|35=A|34=1|49=EXC|56=013|52=20190607-14:54:10.135|98=0|108=30|141=Y|10=005|
8=FIX.4.4|9=0192|35=R|34=2|49=EXC|56=013|52=20190607-14:54:12.262|131=20190607-000000000020.00|146=1|55=TFIT15260826|762=RFQF|48=20348|22=M|54=1|38=1500000000|453=2|448=001B27|447=C|452=12|448=001|447=C|452=1|10=235|
8=FIX.4.4|9=110|35=A|34=1|49=013|50=013B17|52=20190607-14:55:37.705|56=EXC|43=Y|98=0|108=30|141=Y|553=013FCM001|554=013FCM001|10=099|
8=FIX.4.4|9=0067|35=A|34=1|49=EXC|56=013|52=20190607-14:55:37.768|98=0|108=30|141=Y|10=027|
8=FIX.4.4|9=0049|35=0|34=2|49=EXC|56=013|52=20190607-14:56:07.000|10=174|
8=FIX.4.4|9=59|35=0|34=2|49=013|50=013B17|52=20190607-14:56:08.683|56=EXC|10=066|
8=FIX.4.4|9=110|35=A|34=1|49=013|50=013B17|52=20190607-14:57:52.685|56=EXC|43=Y|98=0|108=30|141=Y|553=013FCM001|554=013FCM001|10=105|
8=FIX.4.4|9=0067|35=A|34=1|49=EXC|56=013|52=20190607-14:57:52.748|98=0|108=30|141=Y|10=024|
8=FIX.4.4|9=0192|35=R|34=2|49=EXC|56=013|52=20190607-14:57:54.873|131=20190607-000000000022.00|146=1|55=TFIT15260826|762=RFQF|48=20348|22=M|54=1|38=1500000000|453=2|448=001B27|447=C|452=12|448=001|447=C|452=1|10=254|
8=FIX.4.4|9=59|35=0|34=2|49=013|50=013B17|52=20190607-14:58:23.655|56=EXC|10=064|
8=FIX.4.4|9=0049|35=0|34=3|49=EXC|56=013|52=20190607-14:58:24.000|10=176|
8=FIX.4.4|9=68|35=2|34=3|49=013|50=013B17|52=20190607-14:58:23.991|56=EXC|7=2|16=0|10=194|
8=FIX.4.4|9=0223|35=R|34=2|43=Y|52=20190607-14:58:24.020|49=EXC|56=013|122=20190607-14:57:54.873|131=20190607-000000000022.00|146=1|55=TFIT15260826|762=RFQF|48=20348|22=M|54=1|38=1500000000|453=2|448=001B27|447=C|452=12|448=001|447=C|452=1|10=252|
8=FIX.4.4|9=0065|35=4|34=3|43=Y|49=EXC|56=013|52=20190607-14:58:24.020|123=Y|36=4|10=186|
8=FIX.4.4|9=0054|35=4|34=4|49=EXC|56=013|52=20190607-14:58:24.020|36=5|10=143|
8=FIX.4.4|9=68|35=2|34=4|49=013|50=013B17|52=20190607-14:58:29.029|56=EXC|7=2|16=0|10=193|
8=FIX.4.4|9=0223|35=R|34=2|43=Y|52=20190607-14:58:29.059|49=EXC|56=013|122=20190607-14:57:54.873|131=20190607-000000000022.00|146=1|55=TFIT15260826|762=RFQF|48=20348|22=M|54=1|38=1500000000|453=2|448=001B27|447=C|452=12|448=001|447=C|452=1|10=013|
8=FIX.4.4|9=0065|35=4|34=3|43=Y|49=EXC|56=013|52=20190607-14:58:29.059|123=Y|36=5|10=204|
8=FIX.4.4|9=0054|35=4|34=5|49=EXC|56=013|52=20190607-14:58:29.059|36=6|10=162|
8=FIX.4.4|9=0049|35=0|34=6|49=EXC|56=013|52=20190607-14:58:59.000|10=187|
8=FIX.4.4|9=59|35=0|34=5|49=013|50=013B17|52=20190607-14:58:59.655|56=EXC|10=076|
8=FIX.4.4|9=0049|35=0|34=7|49=EXC|56=013|52=20190607-14:59:29.000|10=186|
8=FIX.4.4|9=59|35=0|34=6|49=013|50=013B17|52=20190607-14:59:29.653|56=EXC|10=073|
8=FIX.4.4|9=0049|35=0|34=8|49=EXC|56=013|52=20190607-14:59:59.000|10=190|
8=FIX.4.4|9=59|35=0|34=7|49=013|50=013B17|52=20190607-14:59:59.656|56=EXC|10=080|
8=FIX.4.4|9=0049|35=0|34=9|49=EXC|56=013|52=20190607-15:00:29.000|10=175|
8=FIX.4.4|9=59|35=0|34=8|49=013|50=013B17|52=20190607-15:00:29.674|56=EXC|10=065|
8=FIX.4.4|9=0050|35=0|34=10|49=EXC|56=013|52=20190607-15:00:59.000|10=210|
8=FIX.4.4|9=59|35=0|34=9|49=013|50=013B17|52=20190607-15:01:00.655|56=EXC|10=055|
8=FIX.4.4|9=0050|35=0|34=11|49=EXC|56=013|52=20190607-15:01:29.000|10=209|
8=FIX.4.4|9=60|35=0|34=10|49=013|50=013B17|52=20190607-15:01:30.653|56=EXC|10=088|
8=FIX.4.4|9=0050|35=0|34=12|49=EXC|56=013|52=20190607-15:01:59.000|10=213|
8=FIX.4.4|9=60|35=0|34=11|49=013|50=013B17|52=20190607-15:02:00.655|56=EXC|10=089|
8=FIX.4.4|9=0050|35=0|34=13|49=EXC|56=013|52=20190607-15:02:29.000|10=212|
8=FIX.4.4|9=60|35=0|34=12|49=013|50=013B17|52=20190607-15:02:30.655|56=EXC|10=093|
8=FIX.4.4|9=0050|35=0|34=14|49=EXC|56=013|52=20190607-15:02:59.000|10=216|
8=FIX.4.4|9=60|35=0|34=13|49=013|50=013B17|52=20190607-15:03:00.656|56=EXC|10=093|
8=FIX.4.4|9=0050|35=0|34=15|49=EXC|56=013|52=20190607-15:03:29.000|10=215|
8=FIX.4.4|9=60|35=0|34=14|49=013|50=013B17|52=20190607-15:03:30.655|56=EXC|10=096|
8=FIX.4.4|9=0050|35=0|34=16|49=EXC|56=013|52=20190607-15:03:59.000|10=219|
8=FIX.4.4|9=60|35=0|34=15|49=013|50=013B17|52=20190607-15:04:00.655|56=EXC|10=095|
>>>>>>> 069492ed1c47821f77e483ed6a9d34242fbb67bb
8=FIX.4.4|9=110|35=A|34=1|49=013|50=013B17|52=20190607-19:00:29.692|56=EXC|43=Y|98=0|108=30|141=Y|553=013FCM001|554=013FCM001|10=100|
8=FIX.4.4|9=0067|35=A|34=1|49=EXC|56=013|52=20190607-19:00:29.733|98=0|108=30|141=Y|10=015|
8=FIX.4.4|9=0049|35=0|34=2|49=EXC|56=013|52=20190607-19:00:59.000|10=175|
8=FIX.4.4|9=59|35=0|34=2|49=013|50=013B17|52=20190607-19:01:00.597|56=EXC|10=057|
8=FIX.4.4|9=0049|35=0|34=3|49=EXC|56=013|52=20190607-19:01:29.000|10=174|
8=FIX.4.4|9=59|35=0|34=3|49=013|50=013B17|52=20190607-19:01:31.587|56=EXC|10=061|
8=FIX.4.4|9=110|35=A|34=1|49=013|50=013B17|52=20190607-19:04:04.280|56=EXC|43=Y|98=0|108=30|141=Y|553=013FCM001|554=013FCM001|10=090|
8=FIX.4.4|9=0067|35=A|34=1|49=EXC|56=013|52=20190607-19:04:04.346|98=0|108=30|141=Y|10=012|
8=FIX.4.4|9=0192|35=R|34=2|49=EXC|56=013|52=20190607-19:04:06.230|131=20190607-000000000040.00|146=1|55=TFIT15260826|762=RFQF|48=20348|22=M|54=1|38=1500000000|453=2|448=007B26|447=C|452=12|448=007|447=C|452=1|10=246|
8=FIX.4.4|9=59|35=0|34=2|49=013|50=013B17|52=20190607-19:04:34.946|56=EXC|10=065|
8=FIX.4.4|9=0049|35=0|34=3|49=EXC|56=013|52=20190607-19:04:36.000|10=175|
8=FIX.4.4|9=68|35=2|34=3|49=013|50=013B17|52=20190607-19:04:36.042|56=EXC|7=2|16=0|10=181|
8=FIX.4.4|9=0223|35=R|34=2|43=Y|52=20190607-19:04:36.043|49=EXC|56=013|122=20190607-19:04:06.230|131=20190607-000000000040.00|146=1|55=TFIT15260826|762=RFQF|48=20348|22=M|54=1|38=1500000000|453=2|448=007B26|447=C|452=12|448=007|447=C|452=1|10=248|
8=FIX.4.4|9=0065|35=4|34=3|43=Y|49=EXC|56=013|52=20190607-19:04:36.043|123=Y|36=4|10=190|
8=FIX.4.4|9=0054|35=4|34=4|49=EXC|56=013|52=20190607-19:04:36.044|36=5|10=148|
8=FIX.4.4|9=68|35=2|34=4|49=013|50=013B17|52=20190607-19:04:41.274|56=EXC|7=2|16=0|10=185|
8=FIX.4.4|9=0223|35=R|34=2|43=Y|52=20190607-19:04:41.262|49=EXC|56=013|122=20190607-19:04:06.230|131=20190607-000000000040.00|146=1|55=TFIT15260826|762=RFQF|48=20348|22=M|54=1|38=1500000000|453=2|448=007B26|447=C|452=12|448=007|447=C|452=1|10=247|
8=FIX.4.4|9=0065|35=4|34=3|43=Y|49=EXC|56=013|52=20190607-19:04:41.262|123=Y|36=5|10=190|
8=FIX.4.4|9=0054|35=4|34=5|49=EXC|56=013|52=20190607-19:04:41.262|36=6|10=148|
8=FIX.4.4|9=110|35=A|34=1|49=013|50=013B17|52=20190607-19:05:53.599|56=EXC|43=Y|98=0|108=30|141=Y|553=013FCM001|554=013FCM001|10=108|
8=FIX.4.4|9=0067|35=A|34=1|49=EXC|56=013|52=20190607-19:05:53.743|98=0|108=30|141=Y|10=018|
8=FIX.4.4|9=0192|35=R|34=2|49=EXC|56=013|52=20190607-19:05:55.555|131=20190607-000000000041.00|146=1|55=TFIT15260826|762=RFQF|48=20348|22=M|54=1|38=1500000000|453=2|448=007B26|447=C|452=12|448=007|447=C|452=1|10=006|
8=FIX.4.4|9=110|35=A|34=1|49=013|50=013B17|52=20190607-19:13:31.970|56=EXC|43=Y|98=0|108=30|141=Y|553=013FCM001|554=013FCM001|10=096|
8=FIX.4.4|9=0067|35=A|34=1|49=EXC|56=013|52=20190607-19:13:32.059|98=0|108=30|141=Y|10=014|
8=FIX.4.4|9=0192|35=R|34=2|49=EXC|56=013|52=20190607-19:13:34.145|131=20190607-000000000042.00|146=1|55=TFIT15260826|762=RFQF|48=20348|22=M|54=1|38=1500000000|453=2|448=007B26|447=C|452=12|448=007|447=C|452=1|10=254|
8=FIX.4.4|9=110|35=A|34=1|49=013|50=013B17|52=20190607-19:21:06.064|56=EXC|43=Y|98=0|108=30|141=Y|553=013FCM001|554=013FCM001|10=091|
8=FIX.4.4|9=0067|35=A|34=1|49=EXC|56=013|52=20190607-19:21:06.174|98=0|108=30|141=Y|10=012|
8=FIX.4.4|9=0192|35=R|34=2|49=EXC|56=013|52=20190607-19:21:08.256|131=20190607-000000000043.00|146=1|55=TFIT15260826|762=RFQF|48=20348|22=M|54=1|38=1500000000|453=2|448=007B26|447=C|452=12|448=007|447=C|452=1|10=002|
8=FIX.4.4|9=110|35=A|34=1|49=013|50=013B17|52=20190607-19:21:31.307|56=EXC|43=Y|98=0|108=30|141=Y|553=013FCM001|554=013FCM001|10=089|
8=FIX.4.4|9=0067|35=A|34=1|49=EXC|56=013|52=20190607-19:21:31.554|98=0|108=30|141=Y|10=012|
8=FIX.4.4|9=0192|35=R|34=2|49=EXC|56=013|52=20190607-19:21:32.086|131=20190607-000000000044.00|146=1|55=TFIT15260826|762=RFQF|48=20348|22=M|54=1|38=1500000000|453=2|448=007B26|447=C|452=12|448=007|447=C|452=1|10=001|
8=FIX.4.4|9=110|35=A|34=1|49=013|50=013B17|52=20190607-19:27:55.140|56=EXC|43=Y|98=0|108=30|141=Y|553=013FCM001|554=013FCM001|10=096|
8=FIX.4.4|9=0067|35=A|34=1|49=EXC|56=013|52=20190607-19:27:55.247|98=0|108=30|141=Y|10=023|
8=FIX.4.4|9=0192|35=R|34=2|49=EXC|56=013|52=20190607-19:27:55.378|131=20190607-000000000047.00|146=1|55=TFIT15260826|762=RFQF|48=20348|22=M|54=1|38=1500000000|453=2|448=007B26|447=C|452=12|448=007|447=C|452=1|10=019|
8=FIX.4.4|9=110|35=A|34=1|49=013|50=013B17|52=20190607-19:28:56.427|56=EXC|43=Y|98=0|108=30|141=Y|553=013FCM001|554=013FCM001|10=106|
8=FIX.4.4|9=0067|35=A|34=1|49=EXC|56=013|52=20190607-19:28:57.994|98=0|108=30|141=Y|10=035|
8=FIX.4.4|9=0192|35=R|34=2|49=EXC|56=013|52=20190607-19:28:58.241|131=20190607-000000000048.00|146=1|55=TFIT15260826|762=RFQF|48=20348|22=M|54=1|38=1500000000|453=2|448=007B26|447=C|452=12|448=007|447=C|452=1|10=013|
8=FIX.4.4|9=110|35=A|34=1|49=013|50=013B17|52=20190607-19:30:00.024|56=EXC|43=Y|98=0|108=30|141=Y|553=013FCM001|554=013FCM001|10=081|
8=FIX.4.4|9=0067|35=A|34=1|49=EXC|56=013|52=20190607-19:30:00.057|98=0|108=30|141=Y|10=006|
8=FIX.4.4|9=0192|35=R|34=2|49=EXC|56=013|52=20190607-19:30:02.019|131=20190607-000000000049.00|146=1|55=TFIT15260826|762=RFQF|48=20348|22=M|54=1|38=1500000000|453=2|448=007B26|447=C|452=12|448=007|447=C|452=1|10=255|
8=FIX.4.4|9=59|35=0|34=2|49=013|50=013B17|52=20190607-19:30:30.642|56=EXC|10=053|
8=FIX.4.4|9=0049|35=0|34=3|49=EXC|56=013|52=20190607-19:30:32.000|10=170|
8=FIX.4.4|9=68|35=2|34=3|49=013|50=013B17|52=20190607-19:30:36.211|56=EXC|7=2|16=0|10=178|
8=FIX.4.4|9=0223|35=R|34=2|43=Y|52=20190607-19:30:36.188|49=EXC|56=013|122=20190607-19:30:02.019|131=20190607-000000000049.00|146=1|55=TFIT15260826|762=RFQF|48=20348|22=M|54=1|38=1500000000|453=2|448=007B26|447=C|452=12|448=007|447=C|452=1|10=010|
8=FIX.4.4|9=0065|35=4|34=3|43=Y|49=EXC|56=013|52=20190607-19:30:36.188|123=Y|36=4|10=199|
8=FIX.4.4|9=0054|35=4|34=4|49=EXC|56=013|52=20190607-19:30:36.188|36=5|10=156|
8=FIX.4.4|9=0049|35=0|34=5|49=EXC|56=013|52=20190607-19:31:06.000|10=174|
8=FIX.4.4|9=59|35=0|34=4|49=013|50=013B17|52=20190607-19:31:06.636|56=EXC|10=062|
8=FIX.4.4|9=110|35=A|34=1|49=013|50=013B17|52=20190607-19:33:19.264|56=EXC|43=Y|98=0|108=30|141=Y|553=013FCM001|554=013FCM001|10=100|
8=FIX.4.4|9=0067|35=A|34=1|49=EXC|56=013|52=20190607-19:33:19.437|98=0|108=30|141=Y|10=021|
8=FIX.4.4|9=0192|35=R|34=2|49=EXC|56=013|52=20190607-19:33:21.739|131=20190607-000000000050.00|146=1|55=TFIT15260826|762=RFQF|48=20348|22=M|54=1|38=1500000000|453=2|448=007B26|447=C|452=12|448=007|447=C|452=1|10=004|
8=FIX.4.4|9=59|35=0|34=2|49=013|50=013B17|52=20190607-19:33:50.239|56=EXC|10=060|
8=FIX.4.4|9=0049|35=0|34=3|49=EXC|56=013|52=20190607-19:33:51.000|10=174|
8=FIX.4.4|9=68|35=2|34=3|49=013|50=013B17|52=20190607-19:33:51.154|56=EXC|7=2|16=0|10=184|
8=FIX.4.4|9=0223|35=R|34=2|43=Y|52=20190607-19:33:51.133|49=EXC|56=013|122=20190607-19:33:21.739|131=20190607-000000000050.00|146=1|55=TFIT15260826|762=RFQF|48=20348|22=M|54=1|38=1500000000|453=2|448=007B26|447=C|452=12|448=007|447=C|452=1|10=005|
8=FIX.4.4|9=0065|35=4|34=3|43=Y|49=EXC|56=013|52=20190607-19:33:51.133|123=Y|36=4|10=189|
8=FIX.4.4|9=0054|35=4|34=4|49=EXC|56=013|52=20190607-19:33:51.133|36=5|10=146|
8=FIX.4.4|9=68|35=2|34=4|49=013|50=013B17|52=20190607-19:33:56.380|56=EXC|7=2|16=0|10=191|
8=FIX.4.4|9=0223|35=R|34=2|43=Y|52=20190607-19:33:56.354|49=EXC|56=013|122=20190607-19:33:21.739|131=20190607-000000000050.00|146=1|55=TFIT15260826|762=RFQF|48=20348|22=M|54=1|38=1500000000|453=2|448=007B26|447=C|452=12|448=007|447=C|452=1|10=015|
8=FIX.4.4|9=0065|35=4|34=3|43=Y|49=EXC|56=013|52=20190607-19:33:56.354|123=Y|36=5|10=200|
8=FIX.4.4|9=0054|35=4|34=5|49=EXC|56=013|52=20190607-19:33:56.354|36=6|10=158|
8=FIX.4.4|9=110|35=A|34=1|49=013|50=013B17|52=20190607-19:44:06.296|56=EXC|43=Y|98=0|108=30|141=Y|553=013FCM001|554=013FCM001|10=103|
8=FIX.4.4|9=0067|35=A|34=1|49=EXC|56=013|52=20190607-19:44:06.381|98=0|108=30|141=Y|10=017|
8=FIX.4.4|9=0192|35=R|34=2|49=EXC|56=013|52=20190607-19:44:08.040|131=20190607-000000000052.00|146=1|55=TFIT15260826|762=RFQF|48=20348|22=M|54=1|38=1500000000|453=2|448=007B26|447=C|452=12|448=007|447=C|452=1|10=254|
8=FIX.4.4|9=110|35=A|34=1|49=013|50=013B17|52=20190607-19:45:08.384|56=EXC|43=Y|98=0|108=30|141=Y|553=013FCM001|554=013FCM001|10=104|
8=FIX.4.4|9=0067|35=A|34=1|49=EXC|56=013|52=20190607-19:45:08.431|98=0|108=30|141=Y|10=016|
8=FIX.4.4|9=0192|35=R|34=2|49=EXC|56=013|52=20190607-19:45:10.437|131=20190607-000000000054.00|146=1|55=TFIT15260826|762=RFQF|48=20348|22=M|54=1|38=1500000000|453=2|448=007B26|447=C|452=12|448=007|447=C|452=1|10=004|
8=FIX.4.4|9=110|35=A|34=1|49=013|50=013B17|52=20190607-19:54:07.206|56=EXC|43=Y|98=0|108=30|141=Y|553=013FCM001|554=013FCM001|10=096|
8=FIX.4.4|9=0067|35=A|34=1|49=EXC|56=013|52=20190607-19:54:07.220|98=0|108=30|141=Y|10=011|
8=FIX.4.4|9=0192|35=R|34=2|49=EXC|56=013|52=20190607-19:54:09.196|131=20190607-000000000056.00|146=1|55=TFIT15260826|762=RFQF|48=20348|22=M|54=1|38=1500000000|453=2|448=007B26|447=C|452=12|448=007|447=C|452=1|10=016|
8=FIX.4.4|9=110|35=A|34=1|49=013|50=013B17|52=20190607-20:00:37.147|56=EXC|43=Y|98=0|108=30|141=Y|553=013FCM001|554=013FCM001|10=086|
8=FIX.4.4|9=0067|35=A|34=1|49=EXC|56=013|52=20190607-20:00:37.177|98=0|108=30|141=Y|10=008|
8=FIX.4.4|9=0192|35=R|34=2|49=EXC|56=013|52=20190607-20:00:39.139|131=20190607-000000000058.00|146=1|55=TFIT15260826|762=RFQF|48=20348|22=M|54=1|38=1500000000|453=2|448=007B26|447=C|452=12|448=007|447=C|452=1|10=001|
8=FIX.4.4|9=59|35=0|34=2|49=013|50=013B17|52=20190607-20:01:07.928|56=EXC|10=054|
8=FIX.4.4|9=0049|35=0|34=3|49=EXC|56=013|52=20190607-20:01:09.000|10=164|
8=FIX.4.4|9=68|35=2|34=3|49=013|50=013B17|52=20190607-20:01:09.063|56=EXC|7=2|16=0|10=173|
8=FIX.4.4|9=0223|35=R|34=2|43=Y|52=20190607-20:01:09.023|49=EXC|56=013|122=20190607-20:00:39.139|131=20190607-000000000058.00|146=1|55=TFIT15260826|762=RFQF|48=20348|22=M|54=1|38=1500000000|453=2|448=007B26|447=C|452=12|448=007|447=C|452=1|10=246|
8=FIX.4.4|9=0065|35=4|34=3|43=Y|49=EXC|56=013|52=20190607-20:01:09.023|123=Y|36=4|10=177|
8=FIX.4.4|9=0054|35=4|34=4|49=EXC|56=013|52=20190607-20:01:09.023|36=5|10=134|
8=FIX.4.4|9=68|35=2|34=4|49=013|50=013B17|52=20190607-20:01:14.196|56=EXC|7=2|16=0|10=177|
8=FIX.4.4|9=0223|35=R|34=2|43=Y|52=20190607-20:01:14.155|49=EXC|56=013|122=20190607-20:00:39.139|131=20190607-000000000058.00|146=1|55=TFIT15260826|762=RFQF|48=20348|22=M|54=1|38=1500000000|453=2|448=007B26|447=C|452=12|448=007|447=C|452=1|10=248|
8=FIX.4.4|9=0065|35=4|34=3|43=Y|49=EXC|56=013|52=20190607-20:01:14.155|123=Y|36=5|10=180|
8=FIX.4.4|9=0054|35=4|34=5|49=EXC|56=013|52=20190607-20:01:14.156|36=6|10=139|
8=FIX.4.4|9=110|35=A|34=1|49=013|50=013B17|52=20190607-20:04:04.900|56=EXC|43=Y|98=0|108=30|141=Y|553=013FCM001|554=013FCM001|10=081|
8=FIX.4.4|9=0067|35=A|34=1|49=EXC|56=013|52=20190607-20:04:04.965|98=0|108=30|141=Y|10=011|
8=FIX.4.4|9=0192|35=R|34=2|49=EXC|56=013|52=20190607-20:04:06.698|131=20190607-000000000060.00|146=1|55=TFIT15260826|762=RFQF|48=20348|22=M|54=1|38=1500000000|453=2|448=007B26|447=C|452=12|448=007|447=C|452=1|10=002|
8=FIX.4.4|9=59|35=0|34=2|49=013|50=013B17|52=20190607-20:04:35.328|56=EXC|10=052|
8=FIX.4.4|9=0049|35=0|34=3|49=EXC|56=013|52=20190607-20:04:36.000|10=167|
8=FIX.4.4|9=68|35=2|34=3|49=013|50=013B17|52=20190607-20:04:36.132|56=EXC|7=2|16=0|10=173|
8=FIX.4.4|9=0223|35=R|34=2|43=Y|52=20190607-20:04:36.101|49=EXC|56=013|122=20190607-20:04:06.698|131=20190607-000000000060.00|146=1|55=TFIT15260826|762=RFQF|48=20348|22=M|54=1|38=1500000000|453=2|448=007B26|447=C|452=12|448=007|447=C|452=1|10=247|
8=FIX.4.4|9=0065|35=4|34=3|43=Y|49=EXC|56=013|52=20190607-20:04:36.101|123=Y|36=4|10=177|
8=FIX.4.4|9=0054|35=4|34=4|49=EXC|56=013|52=20190607-20:04:36.101|36=5|10=134|
8=FIX.4.4|9=68|35=2|34=4|49=013|50=013B17|52=20190607-20:04:41.348|56=EXC|7=2|16=0|10=179|
8=FIX.4.4|9=0223|35=R|34=2|43=Y|52=20190607-20:04:41.307|49=EXC|56=013|122=20190607-20:04:06.698|131=20190607-000000000060.00|146=1|55=TFIT15260826|762=RFQF|48=20348|22=M|54=1|38=1500000000|453=2|448=007B26|447=C|452=12|448=007|447=C|452=1|10=251|
8=FIX.4.4|9=0065|35=4|34=3|43=Y|49=EXC|56=013|52=20190607-20:04:41.307|123=Y|36=5|10=182|
8=FIX.4.4|9=0054|35=4|34=5|49=EXC|56=013|52=20190607-20:04:41.308|36=6|10=141|
8=FIX.4.4|9=110|35=A|34=1|49=013|50=013B17|52=20190607-20:05:24.252|56=EXC|43=Y|98=0|108=30|141=Y|553=013FCM001|554=013FCM001|10=084|
8=FIX.4.4|9=0067|35=A|34=1|49=EXC|56=013|52=20190607-20:05:25.615|98=0|108=30|141=Y|10=007|
8=FIX.4.4|9=0192|35=R|34=2|49=EXC|56=013|52=20190607-20:05:25.785|131=20190607-000000000061.00|146=1|55=TFIT15260826|762=RFQF|48=20348|22=M|54=1|38=1500000000|453=2|448=007B26|447=C|452=12|448=007|447=C|452=1|10=002|
8=FIX.4.4|9=110|35=A|34=1|49=013|50=013B17|52=20190607-20:41:08.045|56=EXC|43=Y|98=0|108=30|141=Y|553=013FCM001|554=013FCM001|10=086|
8=FIX.4.4|9=0067|35=A|34=1|49=EXC|56=013|52=20190607-20:41:07.972|98=0|108=30|141=Y|10=013|
8=FIX.4.4|9=110|35=A|34=1|49=013|50=013B17|52=20190607-20:42:22.725|56=EXC|43=Y|98=0|108=30|141=Y|553=013FCM001|554=013FCM001|10=088|
8=FIX.4.4|9=0067|35=A|34=1|49=EXC|56=013|52=20190607-20:42:22.644|98=0|108=30|141=Y|10=007|
8=FIX.4.4|9=110|35=A|34=1|49=013|50=013B17|52=20190607-20:42:52.335|56=EXC|43=Y|98=0|108=30|141=Y|553=013FCM001|554=013FCM001|10=088|
8=FIX.4.4|9=0067|35=A|34=1|49=EXC|56=013|52=20190607-20:42:52.262|98=0|108=30|141=Y|10=006|
8=FIX.4.4|9=0192|35=R|34=2|49=EXC|56=013|52=20190607-20:42:54.506|131=20190607-000000000062.00|146=1|55=TFIT15260826|762=RFQF|48=20348|22=M|54=1|38=1500000000|453=2|448=007B26|447=C|452=12|448=007|447=C|452=1|10=253|
8=FIX.4.4|9=110|35=A|34=1|49=013|50=013B17|52=20190607-20:44:20.429|56=EXC|43=Y|98=0|108=30|141=Y|553=013FCM001|554=013FCM001|10=089|
8=FIX.4.4|9=0067|35=A|34=1|49=EXC|56=013|52=20190607-20:44:20.347|98=0|108=30|141=Y|10=007|
8=FIX.4.4|9=0192|35=R|34=2|49=EXC|56=013|52=20190607-20:44:22.503|131=20190607-000000000064.00|146=1|55=TFIT15260826|762=RFQF|48=20348|22=M|54=1|38=1500000000|453=2|448=007B26|447=C|452=12|448=007|447=C|452=1|10=249|
8=FIX.4.4|9=110|35=A|34=1|49=013|50=013B17|52=20190607-20:54:12.031|56=EXC|43=Y|98=0|108=30|141=Y|553=013FCM001|554=013FCM001|10=080|
8=FIX.4.4|9=0067|35=A|34=1|49=EXC|56=013|52=20190607-20:54:12.057|98=0|108=30|141=Y|10=007|
8=FIX.4.4|9=0192|35=R|34=2|49=EXC|56=013|52=20190607-20:54:13.947|131=20190607-000000000065.00|146=1|55=TFIT15260826|762=RFQF|48=20348|22=M|54=1|38=1500000000|453=2|448=007B26|447=C|452=12|448=007|447=C|452=1|10=007|
8=FIX.4.4|9=59|35=0|34=2|49=013|50=013B17|52=20190607-20:54:42.770|56=EXC|10=056|
8=FIX.4.4|9=0049|35=0|34=3|49=EXC|56=013|52=20190607-20:54:43.000|10=170|
8=FIX.4.4|9=68|35=2|34=3|49=013|50=013B17|52=20190607-20:54:43.139|56=EXC|7=2|16=0|10=183|
8=FIX.4.4|9=0223|35=R|34=2|43=Y|52=20190607-20:54:43.031|49=EXC|56=013|122=20190607-20:54:13.947|131=20190607-000000000065.00|146=1|55=TFIT15260826|762=RFQF|48=20348|22=M|54=1|38=1500000000|453=2|448=007B26|447=C|452=12|448=007|447=C|452=1|10=001|
8=FIX.4.4|9=0065|35=4|34=3|43=Y|49=EXC|56=013|52=20190607-20:54:43.031|123=Y|36=4|10=182|
8=FIX.4.4|9=0054|35=4|34=4|49=EXC|56=013|52=20190607-20:54:43.032|36=5|10=140|
8=FIX.4.4|9=110|35=A|34=1|49=013|50=013B17|52=20190607-20:55:20.274|56=EXC|43=Y|98=0|108=30|141=Y|553=013FCM001|554=013FCM001|10=089|
8=FIX.4.4|9=0067|35=A|34=1|49=EXC|56=013|52=20190607-20:55:20.201|98=0|108=30|141=Y|10=254|
8=FIX.4.4|9=0192|35=R|34=2|49=EXC|56=013|52=20190607-20:55:22.248|131=20190607-000000000066.00|146=1|55=TFIT15260826|762=RFQF|48=20348|22=M|54=1|38=1500000000|453=2|448=007B26|447=C|452=12|448=007|447=C|452=1|10=003|
8=FIX.4.4|9=59|35=0|34=2|49=013|50=013B17|52=20190607-20:55:51.112|56=EXC|10=047|
8=FIX.4.4|9=0049|35=0|34=3|49=EXC|56=013|52=20190607-20:55:52.000|10=171|
8=FIX.4.4|9=68|35=2|34=3|49=013|50=013B17|52=20190607-20:55:52.132|56=EXC|7=2|16=0|10=177|
8=FIX.4.4|9=0223|35=R|34=2|43=Y|52=20190607-20:55:52.023|49=EXC|56=013|122=20190607-20:55:22.248|131=20190607-000000000066.00|146=1|55=TFIT15260826|762=RFQF|48=20348|22=M|54=1|38=1500000000|453=2|448=007B26|447=C|452=12|448=007|447=C|452=1|10=255|
8=FIX.4.4|9=0065|35=4|34=3|43=Y|49=EXC|56=013|52=20190607-20:55:52.023|123=Y|36=4|10=184|
8=FIX.4.4|9=0054|35=4|34=4|49=EXC|56=013|52=20190607-20:55:52.023|36=5|10=141|
8=FIX.4.4|9=110|35=A|34=1|49=013|50=013B17|52=20190607-21:31:59.896|56=EXC|43=Y|98=0|108=30|141=Y|553=013FCM001|554=013FCM001|10=106|
8=FIX.4.4|9=0067|35=A|34=1|49=EXC|56=013|52=20190607-21:31:59.845|98=0|108=30|141=Y|10=019|
8=FIX.4.4|9=110|35=A|34=1|49=013|50=013B17|52=20190607-21:32:39.105|56=EXC|43=Y|98=0|108=30|141=Y|553=013FCM001|554=013FCM001|10=088|
8=FIX.4.4|9=0067|35=A|34=1|49=EXC|56=013|52=20190607-21:32:39.032|98=0|108=30|141=Y|10=006|
8=FIX.4.4|9=110|35=A|34=1|49=013|50=013B17|52=20190607-21:33:03.008|56=EXC|43=Y|98=0|108=30|141=Y|553=013FCM001|554=013FCM001|10=082|
8=FIX.4.4|9=0067|35=A|34=1|49=EXC|56=013|52=20190607-21:33:02.915|98=0|108=30|141=Y|10=007|
8=FIX.4.4|9=0049|35=0|34=2|49=EXC|56=013|52=20190607-21:33:32.000|10=165|
8=FIX.4.4|9=59|35=0|34=2|49=013|50=013B17|52=20190607-21:33:33.871|56=EXC|10=056|
8=FIX.4.4|9=110|35=A|34=1|49=013|50=013B17|52=20190607-21:34:44.547|56=EXC|43=Y|98=0|108=30|141=Y|553=013FCM001|554=013FCM001|10=096|
8=FIX.4.4|9=0067|35=A|34=1|49=EXC|56=013|52=20190607-21:34:44.457|98=0|108=30|141=Y|10=015|
8=FIX.4.4|9=0049|35=0|34=2|49=EXC|56=013|52=20190607-21:35:14.000|10=167|
8=FIX.4.4|9=59|35=0|34=2|49=013|50=013B17|52=20190607-21:35:15.430|56=EXC|10=049|
8=FIX.4.4|9=104|35=A|34=3|49=013|50=013B17|52=20190607-21:35:37.758|56=EXC|43=Y|98=0|108=30|553=013FCM001|554=013FCM001|10=063|
8=FIX.4.4|9=0061|35=A|34=3|49=EXC|56=013|52=20190607-21:35:37.658|98=0|108=30|10=228|
8=FIX.4.4|9=110|35=A|34=1|49=013|50=013B17|52=20190607-21:36:19.141|56=EXC|43=Y|98=0|108=30|141=Y|553=013FCM001|554=013FCM001|10=090|
8=FIX.4.4|9=0067|35=A|34=1|49=EXC|56=013|52=20190607-21:36:19.096|98=0|108=30|141=Y|10=018|
8=FIX.4.4|9=110|35=A|34=1|49=013|50=013B17|52=20190607-21:37:18.911|56=EXC|43=Y|98=0|108=30|141=Y|553=013FCM001|554=013FCM001|10=095|
8=FIX.4.4|9=0067|35=A|34=1|49=EXC|56=013|52=20190607-21:37:18.830|98=0|108=30|141=Y|10=014|
8=FIX.4.4|9=110|35=A|34=1|49=013|50=013B17|52=20190607-21:41:52.338|56=EXC|43=Y|98=0|108=30|141=Y|553=013FCM001|554=013FCM001|10=091|
8=FIX.4.4|9=0067|35=A|34=1|49=EXC|56=013|52=20190607-21:41:52.364|98=0|108=30|141=Y|10=009|
8=FIX.4.4|9=110|35=A|34=1|49=013|50=013B17|52=20190607-21:44:11.622|56=EXC|43=Y|98=0|108=30|141=Y|553=013FCM001|554=013FCM001|10=085|
8=FIX.4.4|9=0067|35=A|34=1|49=EXC|56=013|52=20190607-21:44:11.617|98=0|108=30|141=Y|10=008|
8=FIX.4.4|9=0049|35=0|34=2|49=EXC|56=013|52=20190607-21:44:41.000|10=167|
8=FIX.4.4|9=59|35=0|34=2|49=013|50=013B17|52=20190607-21:44:42.529|56=EXC|10=058|
8=FIX.4.4|9=0049|35=0|34=3|49=EXC|56=013|52=20190607-21:45:11.000|10=166|
8=FIX.4.4|9=59|35=0|34=3|49=013|50=013B17|52=20190607-21:45:12.530|56=EXC|10=049|
8=FIX.4.4|9=0049|35=0|34=4|49=EXC|56=013|52=20190607-21:45:41.000|10=170|
8=FIX.4.4|9=59|35=0|34=4|49=013|50=013B17|52=20190607-21:45:42.530|56=EXC|10=053|
8=FIX.4.4|9=110|35=A|34=1|49=013|50=013B17|52=20190607-21:51:29.237|56=EXC|43=Y|98=0|108=30|141=Y|553=013FCM001|554=013FCM001|10=094|
8=FIX.4.4|9=0067|35=A|34=1|49=EXC|56=013|52=20190607-21:51:29.317|98=0|108=30|141=Y|10=012|
8=FIX.4.4|9=104|35=A|34=2|49=013|50=013B17|52=20190607-21:51:51.013|56=EXC|43=Y|98=0|108=30|553=013FCM001|554=013FCM001|10=040|
8=FIX.4.4|9=0061|35=A|34=2|49=EXC|56=013|52=20190607-21:51:50.908|98=0|108=30|10=218|
8=FIX.4.4|9=110|35=A|34=1|49=013|50=013B17|52=20190607-21:52:15.038|56=EXC|43=Y|98=0|108=30|141=Y|553=013FCM001|554=013FCM001|10=089|
8=FIX.4.4|9=0067|35=A|34=1|49=EXC|56=013|52=20190607-21:52:15.113|98=0|108=30|141=Y|10=002|
8=FIX.4.4|9=110|35=A|34=1|49=013|50=013B17|52=20190607-21:52:49.952|56=EXC|43=Y|98=0|108=30|141=Y|553=013FCM001|554=013FCM001|10=101|
8=FIX.4.4|9=0067|35=A|34=1|49=EXC|56=013|52=20190607-21:52:49.884|98=0|108=30|141=Y|10=024|
=======
8=FIX.4.4|9=110|35=A|34=1|49=013|50=013B17|52=20190607-21:41:30.480|56=EXC|43=Y|98=0|108=30|141=Y|553=013FCM001|554=013FCM001|10=085|
8=FIX.4.4|9=0067|35=A|34=1|49=EXC|56=013|52=20190607-21:41:30.435|98=0|108=30|141=Y|10=004|
8=FIX.4.4|9=0192|35=R|34=2|49=EXC|56=013|52=20190607-21:41:32.688|131=20190607-000000000071.00|146=1|55=TFIT15260826|762=RFQF|48=20348|22=M|54=1|38=1500000000|453=2|448=007B26|447=C|452=12|448=007|447=C|452=1|10=004|
8=FIX.4.4|9=110|35=A|34=1|49=013|50=013B17|52=20190607-21:52:30.071|56=EXC|43=Y|98=0|108=30|141=Y|553=013FCM001|554=013FCM001|10=083|
8=FIX.4.4|9=0067|35=A|34=1|49=EXC|56=013|52=20190607-21:52:30.018|98=0|108=30|141=Y|10=003|
8=FIX.4.4|9=0191|35=R|34=2|49=EXC|56=013|52=20190607-21:52:32.256|131=20190607-000000000073.00|146=1|55=TFIT16300632|762=RFQF|48=20406|22=M|54=1|38=500000000|453=2|448=001B27|447=C|452=12|448=001|447=C|452=1|10=180|
8=FIX.4.4|9=110|35=A|34=1|49=013|50=013B17|52=20190607-21:53:04.116|56=EXC|43=Y|98=0|108=30|141=Y|553=013FCM001|554=013FCM001|10=085|
8=FIX.4.4|9=0067|35=A|34=1|49=EXC|56=013|52=20190607-21:53:04.067|98=0|108=30|141=Y|10=009|
8=FIX.4.4|9=0049|35=0|34=2|49=EXC|56=013|52=20190607-21:53:34.000|10=169|
8=FIX.4.4|9=59|35=0|34=2|49=013|50=013B17|52=20190607-21:53:35.079|56=EXC|10=060|
8=FIX.4.4|9=0049|35=0|34=3|49=EXC|56=013|52=20190607-21:54:04.000|10=168|
8=FIX.4.4|9=59|35=0|34=3|49=013|50=013B17|52=20190607-21:54:05.079|56=EXC|10=059|
8=FIX.4.4|9=110|35=A|34=1|49=013|50=013B17|52=20190607-21:54:23.177|56=EXC|43=Y|98=0|108=30|141=Y|553=013FCM001|554=013FCM001|10=094|
8=FIX.4.4|9=0067|35=A|34=1|49=EXC|56=013|52=20190607-21:54:23.127|98=0|108=30|141=Y|10=008|
>>>>>>> ca8b6fd13021438c8902d768218507fa06f95332
8=FIX.4.4|9=110|35=A|34=1|49=013|50=013B17|52=20190611-14:46:34.338|56=EXC|43=Y|98=0|108=30|141=Y|553=013FCM001|554=013FCM001|10=093|
8=FIX.4.4|9=0067|35=A|34=1|49=EXC|56=013|52=20190611-14:46:34.347|98=0|108=30|141=Y|10=012|
8=FIX.4.4|9=110|35=A|34=1|49=013|50=013B17|52=20190611-14:46:55.094|56=EXC|43=Y|98=0|108=30|141=Y|553=013FCM001|554=013FCM001|10=095|
8=FIX.4.4|9=0067|35=A|34=1|49=EXC|56=013|52=20190611-14:46:55.109|98=0|108=30|141=Y|10=011|
8=FIX.4.4|9=110|35=A|34=1|49=013|50=013B17|52=20190611-14:53:44.865|56=EXC|43=Y|98=0|108=30|141=Y|553=013FCM001|554=013FCM001|10=097|
8=FIX.4.4|9=0067|35=A|34=1|49=EXC|56=013|52=20190611-14:53:44.880|98=0|108=30|141=Y|10=013|
8=FIX.4.4|9=0049|35=0|34=2|49=EXC|56=013|52=20190611-14:54:14.000|10=165|
8=FIX.4.4|9=59|35=0|34=2|49=013|50=013B17|52=20190611-14:54:15.804|56=EXC|10=052|
8=FIX.4.4|9=110|35=A|34=1|49=013|50=013B17|52=20190611-14:54:49.136|56=EXC|43=Y|98=0|108=30|141=Y|553=013FCM001|554=013FCM001|10=094|
8=FIX.4.4|9=0067|35=A|34=1|49=EXC|56=013|52=20190611-14:54:49.148|98=0|108=30|141=Y|10=016|
8=FIX.4.4|9=0049|35=0|34=2|49=EXC|56=013|52=20190611-14:55:19.000|10=171|
8=FIX.4.4|9=59|35=0|34=2|49=013|50=013B17|52=20190611-14:55:20.081|56=EXC|10=046|
8=FIX.4.4|9=0049|35=0|34=3|49=EXC|56=013|52=20190611-14:55:49.000|10=175|
8=FIX.4.4|9=59|35=0|34=3|49=013|50=013B17|52=20190611-14:55:50.081|56=EXC|10=050|
8=FIX.4.4|9=110|35=A|34=1|49=013|50=013B17|52=20190611-14:58:50.552|56=EXC|43=Y|98=0|108=30|141=Y|553=013FCM001|554=013FCM001|10=092|
8=FIX.4.4|9=0067|35=A|34=1|49=EXC|56=013|52=20190611-14:58:50.571|98=0|108=30|141=Y|10=012|
8=FIX.4.4|9=0049|35=0|34=2|49=EXC|56=013|52=20190611-14:59:20.000|10=167|
8=FIX.4.4|9=59|35=0|34=2|49=013|50=013B17|52=20190611-14:59:21.453|56=EXC|10=054|
8=FIX.4.4|9=0049|35=0|34=3|49=EXC|56=013|52=20190611-14:59:50.000|10=171|
8=FIX.4.4|9=59|35=0|34=3|49=013|50=013B17|52=20190611-14:59:51.454|56=EXC|10=059|
8=FIX.4.4|9=110|35=A|34=1|49=013|50=013B17|52=20190611-15:03:10.980|56=EXC|43=Y|98=0|108=30|141=Y|553=013FCM001|554=013FCM001|10=084|
8=FIX.4.4|9=0067|35=A|34=1|49=EXC|56=013|52=20190611-15:03:10.996|98=0|108=30|141=Y|10=010|
8=FIX.4.4|9=0049|35=0|34=2|49=EXC|56=013|52=20190611-15:03:40.000|10=159|
8=FIX.4.4|9=59|35=0|34=2|49=013|50=013B17|52=20190611-15:03:41.852|56=EXC|10=049|
8=FIX.4.4|9=0049|35=0|34=3|49=EXC|56=013|52=20190611-15:04:10.000|10=158|
8=FIX.4.4|9=59|35=0|34=3|49=013|50=013B17|52=20190611-15:04:11.850|56=EXC|10=046|
8=FIX.4.4|9=110|35=A|34=1|49=013|50=013B17|52=20190611-15:09:17.295|56=EXC|43=Y|98=0|108=30|141=Y|553=013FCM001|554=013FCM001|10=096|
8=FIX.4.4|9=0067|35=A|34=1|49=EXC|56=013|52=20190611-15:09:17.301|98=0|108=30|141=Y|10=003|
8=FIX.4.4|9=0049|35=0|34=2|49=EXC|56=013|52=20190611-15:09:47.000|10=172|
8=FIX.4.4|9=59|35=0|34=2|49=013|50=013B17|52=20190611-15:09:48.202|56=EXC|10=051|
8=FIX.4.4|9=0049|35=0|34=3|49=EXC|56=013|52=20190611-15:10:17.000|10=162|
8=FIX.4.4|9=59|35=0|34=3|49=013|50=013B17|52=20190611-15:10:18.203|56=EXC|10=042|
8=FIX.4.4|9=0049|35=0|34=4|49=EXC|56=013|52=20190611-15:10:47.000|10=166|
8=FIX.4.4|9=59|35=0|34=4|49=013|50=013B17|52=20190611-15:10:48.203|56=EXC|10=046|
8=FIX.4.4|9=110|35=A|34=1|49=013|50=013B17|52=20190611-15:14:06.472|56=EXC|43=Y|98=0|108=30|141=Y|553=013FCM001|554=013FCM001|10=087|
8=FIX.4.4|9=0067|35=A|34=1|49=EXC|56=013|52=20190611-15:14:06.478|98=0|108=30|141=Y|10=012|
8=FIX.4.4|9=110|35=A|34=1|49=013|50=013B17|52=20190611-15:14:55.464|56=EXC|43=Y|98=0|108=30|141=Y|553=013FCM001|554=013FCM001|10=092|
8=FIX.4.4|9=0067|35=A|34=1|49=EXC|56=013|52=20190611-15:14:55.474|98=0|108=30|141=Y|10=012|
8=FIX.4.4|9=0049|35=0|34=2|49=EXC|56=013|52=20190611-15:15:25.000|10=165|
8=FIX.4.4|9=59|35=0|34=2|49=013|50=013B17|52=20190611-15:15:26.389|56=EXC|10=060|
8=FIX.4.4|9=0049|35=0|34=3|49=EXC|56=013|52=20190611-15:15:55.000|10=169|
8=FIX.4.4|9=59|35=0|34=3|49=013|50=013B17|52=20190611-15:15:56.387|56=EXC|10=062|
8=FIX.4.4|9=110|35=A|34=1|49=013|50=013B17|52=20190611-15:20:55.530|56=EXC|43=Y|98=0|108=30|141=Y|553=013FCM001|554=013FCM001|10=083|
8=FIX.4.4|9=0067|35=A|34=1|49=EXC|56=013|52=20190611-15:20:55.656|98=0|108=30|141=Y|10=011|
8=FIX.4.4|9=0049|35=0|34=2|49=EXC|56=013|52=20190611-15:21:25.000|10=162|
8=FIX.4.4|9=59|35=0|34=2|49=013|50=013B17|52=20190611-15:21:26.343|56=EXC|10=047|
8=FIX.4.4|9=0049|35=0|34=3|49=EXC|56=013|52=20190611-15:21:55.000|10=166|
8=FIX.4.4|9=59|35=0|34=3|49=013|50=013B17|52=20190611-15:21:56.344|56=EXC|10=052|
8=FIX.4.4|9=0049|35=0|34=4|49=EXC|56=013|52=20190611-15:22:25.000|10=165|
8=FIX.4.4|9=59|35=0|34=4|49=013|50=013B17|52=20190611-15:22:26.344|56=EXC|10=051|
8=FIX.4.4|9=0049|35=0|34=5|49=EXC|56=013|52=20190611-15:22:55.000|10=169|
8=FIX.4.4|9=59|35=0|34=5|49=013|50=013B17|52=20190611-15:22:56.343|56=EXC|10=054|
8=FIX.4.4|9=110|35=A|34=1|49=013|50=013B17|52=20190611-15:24:34.101|56=EXC|43=Y|98=0|108=30|141=Y|553=013FCM001|554=013FCM001|10=078|
8=FIX.4.4|9=0067|35=A|34=1|49=EXC|56=013|52=20190611-15:24:34.101|98=0|108=30|141=Y|10=253|
8=FIX.4.4|9=0049|35=0|34=2|49=EXC|56=013|52=20190611-15:25:04.000|10=163|
8=FIX.4.4|9=59|35=0|34=2|49=013|50=013B17|52=20190611-15:25:05.029|56=EXC|10=049|
8=FIX.4.4|9=0049|35=0|34=3|49=EXC|56=013|52=20190611-15:25:34.000|10=167|
8=FIX.4.4|9=59|35=0|34=3|49=013|50=013B17|52=20190611-15:25:35.027|56=EXC|10=051|
8=FIX.4.4|9=0049|35=0|34=4|49=EXC|56=013|52=20190611-15:26:04.000|10=166|
8=FIX.4.4|9=59|35=0|34=4|49=013|50=013B17|52=20190611-15:26:05.027|56=EXC|10=050|
8=FIX.4.4|9=104|35=A|34=5|49=013|50=013B17|52=20190611-15:26:12.839|56=EXC|43=Y|98=0|108=30|553=013FCM001|554=013FCM001|10=056|
8=FIX.4.4|9=0061|35=A|34=5|49=EXC|56=013|52=20190611-15:26:12.833|98=0|108=30|10=216|
8=FIX.4.4|9=104|35=A|34=6|49=013|50=013B17|52=20190611-15:26:14.073|56=EXC|43=Y|98=0|108=30|553=013FCM001|554=013FCM001|10=049|
8=FIX.4.4|9=0061|35=A|34=6|49=EXC|56=013|52=20190611-15:26:14.068|98=0|108=30|10=219|
8=FIX.4.4|9=0049|35=0|34=7|49=EXC|56=013|52=20190611-15:26:44.000|10=173|
8=FIX.4.4|9=59|35=0|34=7|49=013|50=013B17|52=20190611-15:26:45.027|56=EXC|10=057|
8=FIX.4.4|9=110|35=A|34=1|49=013|50=013B17|52=20190611-15:27:04.398|56=EXC|43=Y|98=0|108=30|141=Y|553=013FCM001|554=013FCM001|10=096|
8=FIX.4.4|9=0067|35=A|34=1|49=EXC|56=013|52=20190611-15:27:04.425|98=0|108=30|141=Y|10=006|
8=FIX.4.4|9=0049|35=0|34=2|49=EXC|56=013|52=20190611-15:27:34.000|10=168|
8=FIX.4.4|9=59|35=0|34=2|49=013|50=013B17|52=20190611-15:27:35.303|56=EXC|10=049|
8=FIX.4.4|9=0049|35=0|34=3|49=EXC|56=013|52=20190611-15:28:04.000|10=167|
8=FIX.4.4|9=59|35=0|34=3|49=013|50=013B17|52=20190611-15:28:05.302|56=EXC|10=047|
8=FIX.4.4|9=0049|35=0|34=4|49=EXC|56=013|52=20190611-15:28:34.000|10=171|
8=FIX.4.4|9=59|35=0|34=4|49=013|50=013B17|52=20190611-15:28:35.301|56=EXC|10=050|
8=FIX.4.4|9=0049|35=0|34=5|49=EXC|56=013|52=20190611-15:29:04.000|10=170|
8=FIX.4.4|9=59|35=0|34=5|49=013|50=013B17|52=20190611-15:29:05.302|56=EXC|10=050|
=======
8=FIX.4.4|9=105|35=A|34=1|49=013|50=013B17|52=20190611-22:57:17.904|56=EXC|98=0|108=30|141=Y|553=013FCM001|554=013FCM001|10=100|
8=FIX.4.4|9=0067|35=A|34=1|49=EXC|56=013|52=20190611-22:57:17.909|98=0|108=30|141=Y|10=018|
8=FIX.4.4|9=0192|35=R|34=2|49=EXC|56=013|52=20190611-22:57:20.236|131=20190611-000000000020.00|146=1|55=TFIT15260826|762=RFQF|48=20348|22=M|54=1|38=1500000000|453=2|448=007B26|447=C|452=12|448=007|447=C|452=1|10=238|
8=FIX.4.4|9=0183|35=R|34=3|49=EXC|56=013|52=20190611-22:57:36.663|131=20190611-000000000020.00|146=1|55=TFIT15260826|762=RFQF|48=20348|22=M|54=1|38=0|453=2|448=007B26|447=C|452=12|448=007|447=C|452=1|10=068|
8=FIX.4.4|9=59|35=0|34=2|49=013|50=013B17|52=20190611-22:57:48.842|56=EXC|10=062|
8=FIX.4.4|9=0049|35=0|34=4|49=EXC|56=013|52=20190611-22:58:06.000|10=171|
8=FIX.4.4|9=59|35=0|34=3|49=013|50=013B17|52=20190611-22:58:18.851|56=EXC|10=061|
8=FIX.4.4|9=0049|35=0|34=5|49=EXC|56=013|52=20190611-22:58:36.000|10=175|
8=FIX.4.4|9=59|35=0|34=4|49=013|50=013B17|52=20190611-22:58:48.849|56=EXC|10=072|
8=FIX.4.4|9=0049|35=0|34=6|49=EXC|56=013|52=20190611-22:59:06.000|10=174|
8=FIX.4.4|9=59|35=0|34=5|49=013|50=013B17|52=20190611-22:59:18.844|56=EXC|10=066|
8=FIX.4.4|9=0049|35=0|34=7|49=EXC|56=013|52=20190611-22:59:36.000|10=178|
8=FIX.4.4|9=59|35=0|34=6|49=013|50=013B17|52=20190611-22:59:48.839|56=EXC|10=074|
8=FIX.4.4|9=0049|35=0|34=8|49=EXC|56=013|52=20190611-23:00:06.000|10=163|
8=FIX.4.4|9=59|35=0|34=7|49=013|50=013B17|52=20190611-23:00:18.854|56=EXC|10=056|
8=FIX.4.4|9=105|35=A|34=1|49=013|50=013B17|52=20190611-23:00:57.273|56=EXC|98=0|108=30|141=Y|553=013FCM001|554=013FCM001|10=092|
8=FIX.4.4|9=0067|35=A|34=1|49=EXC|56=013|52=20190611-23:00:57.281|98=0|108=30|141=Y|10=004|
8=FIX.4.4|9=0192|35=R|34=2|49=EXC|56=013|52=20190611-23:00:59.613|131=20190611-000000000021.00|146=1|55=TFIT15260826|762=RFQF|48=20348|22=M|54=1|38=1500000000|453=2|448=007B26|447=C|452=12|448=007|447=C|452=1|10=239|
8=FIX.4.4|9=0183|35=R|34=3|49=EXC|56=013|52=20190611-23:01:15.604|131=20190611-000000000021.00|146=1|55=TFIT15260826|762=RFQF|48=20348|22=M|54=1|38=0|453=2|448=007B26|447=C|452=12|448=007|447=C|452=1|10=051|
8=FIX.4.4|9=59|35=0|34=2|49=013|50=013B17|52=20190611-23:01:28.215|56=EXC|10=044|
8=FIX.4.4|9=105|35=A|34=1|49=013|50=013B17|52=20190611-23:03:31.361|56=EXC|98=0|108=30|141=Y|553=013FCM001|554=013FCM001|10=085|
8=FIX.4.4|9=0067|35=A|34=1|49=EXC|56=013|52=20190611-23:03:31.355|98=0|108=30|141=Y|10=001|
8=FIX.4.4|9=0192|35=R|34=2|49=EXC|56=013|52=20190611-23:03:33.644|131=20190611-000000000022.00|146=1|55=TFIT15260826|762=RFQF|48=20348|22=M|54=1|38=1500000000|453=2|448=007B26|447=C|452=12|448=007|447=C|452=1|10=239|
8=FIX.4.4|9=59|35=0|34=2|49=013|50=013B17|52=20190611-23:04:02.284|56=EXC|10=045|
8=FIX.4.4|9=0049|35=0|34=3|49=EXC|56=013|52=20190611-23:04:03.000|10=159|
8=FIX.4.4|9=68|35=1|34=3|49=013|50=013B17|52=20190611-23:04:19.274|56=EXC|112=TEST|10=072|
8=FIX.4.4|9=0058|35=0|34=4|49=EXC|56=013|52=20190611-23:04:19.231|112=TEST|10=191|
8=FIX.4.4|9=105|35=A|34=1|49=013|50=013B17|52=20190611-23:04:47.373|56=EXC|98=0|108=30|141=Y|553=013FCM001|554=013FCM001|10=096|
8=FIX.4.4|9=0067|35=A|34=1|49=EXC|56=013|52=20190611-23:04:47.377|98=0|108=30|141=Y|10=013|
8=FIX.4.4|9=105|35=A|34=1|49=013|50=013B17|52=20190611-23:05:48.302|56=EXC|98=0|108=30|141=Y|553=013FCM001|554=013FCM001|10=090|
8=FIX.4.4|9=0067|35=A|34=1|49=EXC|56=013|52=20190611-23:05:48.292|98=0|108=30|141=Y|10=011|
8=FIX.4.4|9=0049|35=0|34=2|49=EXC|56=013|52=20190611-23:06:18.000|10=166|
8=FIX.4.4|9=59|35=0|34=2|49=013|50=013B17|52=20190611-23:06:19.282|56=EXC|10=053|
8=FIX.4.4|9=105|35=A|34=1|49=013|50=013B17|52=20190611-23:33:37.213|56=EXC|98=0|108=30|141=Y|553=013FCM001|554=013FCM001|10=090|
8=FIX.4.4|9=0067|35=A|34=1|49=EXC|56=013|52=20190611-23:33:37.210|98=0|108=30|141=Y|10=000|
8=FIX.4.4|9=0192|35=R|34=2|49=EXC|56=013|52=20190611-23:33:39.653|131=20190611-000000000023.00|146=1|55=TFIT15260826|762=RFQF|48=20348|22=M|54=1|38=1500000000|453=2|448=007B26|447=C|452=12|448=007|447=C|452=1|10=249|
8=FIX.4.4|9=59|35=0|34=2|49=013|50=013B17|52=20190611-23:34:08.140|56=EXC|10=045|
8=FIX.4.4|9=0049|35=0|34=3|49=EXC|56=013|52=20190611-23:34:09.000|10=168|
8=FIX.4.4|9=105|35=A|34=1|49=013|50=013B17|52=20190611-23:36:25.645|56=EXC|98=0|108=30|141=Y|553=013FCM001|554=013FCM001|10=099|
8=FIX.4.4|9=0067|35=A|34=1|49=EXC|56=013|52=20190611-23:36:25.654|98=0|108=30|141=Y|10=012|
8=FIX.4.4|9=0192|35=R|34=2|49=EXC|56=013|52=20190611-23:36:27.933|131=20190611-000000000024.00|146=1|55=TFIT15260826|762=RFQF|48=20348|22=M|54=1|38=1500000000|453=2|448=007B26|447=C|452=12|448=007|447=C|452=1|10=251|
8=FIX.4.4|9=59|35=0|34=2|49=013|50=013B17|52=20190611-23:36:56.549|56=EXC|10=063|
8=FIX.4.4|9=0049|35=0|34=3|49=EXC|56=013|52=20190611-23:36:57.000|10=173|
8=FIX.4.4|9=59|35=0|34=3|49=013|50=013B17|52=20190611-23:37:26.560|56=EXC|10=055|
8=FIX.4.4|9=0049|35=0|34=4|49=EXC|56=013|52=20190611-23:37:27.000|10=172|
<<<<<<< HEAD
>>>>>>> f72e5dbf77f026669f3a9f397ac6f21de762bc4c
=======
8=FIX.4.4|9=105|35=A|34=1|49=013|50=013B17|52=20190612-13:11:13.897|56=EXC|98=0|108=30|141=Y|553=013FCM001|554=013FCM001|10=098|
8=FIX.4.4|9=0067|35=A|34=1|49=EXC|56=013|52=20190612-13:11:13.937|98=0|108=30|141=Y|10=006|
8=FIX.4.4|9=0192|35=R|34=2|49=EXC|56=013|52=20190612-13:11:16.411|131=20190612-000000000001.00|146=1|55=TFIT15260826|762=RFQF|48=20348|22=M|54=1|38=1500000000|453=2|448=007B26|447=C|452=12|448=007|447=C|452=1|10=229|
8=FIX.4.4|9=105|35=A|34=1|49=013|50=013B17|52=20190612-13:23:10.146|56=EXC|98=0|108=30|141=Y|553=013FCM001|554=013FCM001|10=085|
8=FIX.4.4|9=0067|35=A|34=1|49=EXC|56=013|52=20190612-13:23:10.203|98=0|108=30|141=Y|10=248|
8=FIX.4.4|9=0192|35=R|34=2|49=EXC|56=013|52=20190612-13:23:12.449|131=20190612-000000000002.00|146=1|55=TFIT15260826|762=RFQF|48=20348|22=M|54=1|38=1500000000|453=2|448=007B26|447=C|452=12|448=007|447=C|452=1|10=240|
8=FIX.4.4|9=59|35=0|34=2|49=013|50=013B17|52=20190612-13:23:41.039|56=EXC|10=047|
8=FIX.4.4|9=0049|35=0|34=3|49=EXC|56=013|52=20190612-13:23:42.000|10=163|
8=FIX.4.4|9=59|35=0|34=3|49=013|50=013B17|52=20190612-13:24:11.038|56=EXC|10=045|
8=FIX.4.4|9=0049|35=0|34=4|49=EXC|56=013|52=20190612-13:24:12.000|10=162|
8=FIX.4.4|9=59|35=0|34=4|49=013|50=013B17|52=20190612-13:24:41.040|56=EXC|10=042|
8=FIX.4.4|9=0049|35=0|34=5|49=EXC|56=013|52=20190612-13:24:42.000|10=166|
8=FIX.4.4|9=105|35=A|34=1|49=013|50=013B17|52=20190612-13:26:35.178|56=EXC|98=0|108=30|141=Y|553=013FCM001|554=013FCM001|10=100|
8=FIX.4.4|9=0067|35=A|34=1|49=EXC|56=013|52=20190612-13:26:35.230|98=0|108=30|141=Y|10=002|
8=FIX.4.4|9=0192|35=R|34=2|49=EXC|56=013|52=20190612-13:26:37.548|131=20190612-000000000003.00|146=1|55=TFIT15260826|762=RFQF|48=20348|22=M|54=1|38=1500000000|453=2|448=007B26|447=C|452=12|448=007|447=C|452=1|10=251|
8=FIX.4.4|9=59|35=0|34=2|49=013|50=013B17|52=20190612-13:27:06.133|56=EXC|10=047|
8=FIX.4.4|9=0049|35=0|34=3|49=EXC|56=013|52=20190612-13:27:07.000|10=168|
8=FIX.4.4|9=105|35=A|34=1|49=013|50=013B17|52=20190612-13:28:07.430|56=EXC|98=0|108=30|141=Y|553=013FCM001|554=013FCM001|10=092|
8=FIX.4.4|9=0067|35=A|34=1|49=EXC|56=013|52=20190612-13:28:07.481|98=0|108=30|141=Y|10=011|
8=FIX.4.4|9=0192|35=R|34=2|49=EXC|56=013|52=20190612-13:28:09.737|131=20190612-000000000004.00|146=1|55=TFIT15260826|762=RFQF|48=20348|22=M|54=1|38=1500000000|453=2|448=007B26|447=C|452=12|448=007|447=C|452=1|10=253|
8=FIX.4.4|9=59|35=0|34=2|49=013|50=013B17|52=20190612-13:28:38.301|56=EXC|10=050|
8=FIX.4.4|9=0049|35=0|34=3|49=EXC|56=013|52=20190612-13:28:39.000|10=174|
8=FIX.4.4|9=105|35=A|34=1|49=013|50=013B17|52=20190612-13:36:22.826|56=EXC|98=0|108=30|141=Y|553=013FCM001|554=013FCM001|10=097|
8=FIX.4.4|9=0067|35=A|34=1|49=EXC|56=013|52=20190612-13:36:22.864|98=0|108=30|141=Y|10=012|
8=FIX.4.4|9=0192|35=R|34=2|49=EXC|56=013|52=20190612-13:36:25.229|131=20190612-000000000005.00|146=1|55=TFIT15260826|762=RFQF|48=20348|22=M|54=1|38=1500000000|453=2|448=007B26|447=C|452=12|448=007|447=C|452=1|10=247|
8=FIX.4.4|9=0183|35=R|34=3|49=EXC|56=013|52=20190612-13:36:41.461|131=20190612-000000000005.00|146=1|55=TFIT15260826|762=RFQF|48=20348|22=M|54=1|38=0|453=2|448=007B26|447=C|452=12|448=007|447=C|452=1|10=062|
8=FIX.4.4|9=59|35=0|34=2|49=013|50=013B17|52=20190612-13:36:53.686|56=EXC|10=062|
8=FIX.4.4|9=0049|35=0|34=4|49=EXC|56=013|52=20190612-13:37:11.000|10=165|
8=FIX.4.4|9=59|35=0|34=3|49=013|50=013B17|52=20190612-13:37:23.688|56=EXC|10=063|
8=FIX.4.4|9=0049|35=0|34=5|49=EXC|56=013|52=20190612-13:37:41.000|10=169|
8=FIX.4.4|9=59|35=0|34=4|49=013|50=013B17|52=20190612-13:37:53.684|56=EXC|10=063|
8=FIX.4.4|9=0049|35=0|34=6|49=EXC|56=013|52=20190612-13:38:11.000|10=168|
8=FIX.4.4|9=105|35=A|34=1|49=013|50=013B17|52=20190612-13:39:01.673|56=EXC|98=0|108=30|141=Y|553=013FCM001|554=013FCM001|10=097|
8=FIX.4.4|9=0067|35=A|34=1|49=EXC|56=013|52=20190612-13:39:01.725|98=0|108=30|141=Y|10=008|
8=FIX.4.4|9=0192|35=R|34=2|49=EXC|56=013|52=20190612-13:39:03.964|131=20190612-000000000006.00|146=1|55=TFIT15260826|762=RFQF|48=20348|22=M|54=1|38=1500000000|453=2|448=007B26|447=C|452=12|448=007|447=C|452=1|10=253|
8=FIX.4.4|9=0183|35=R|34=3|49=EXC|56=013|52=20190612-13:39:20.172|131=20190612-000000000006.00|146=1|55=TFIT15260826|762=RFQF|48=20348|22=M|54=1|38=0|453=2|448=007B26|447=C|452=12|448=007|447=C|452=1|10=062|
8=FIX.4.4|9=59|35=0|34=2|49=013|50=013B17|52=20190612-13:39:32.587|56=EXC|10=062|
8=FIX.4.4|9=0049|35=0|34=4|49=EXC|56=013|52=20190612-13:39:50.000|10=170|
8=FIX.4.4|9=59|35=0|34=3|49=013|50=013B17|52=20190612-13:40:02.583|56=EXC|10=048|
8=FIX.4.4|9=0049|35=0|34=5|49=EXC|56=013|52=20190612-13:40:20.000|10=160|
8=FIX.4.4|9=59|35=0|34=4|49=013|50=013B17|52=20190612-13:40:32.584|56=EXC|10=053|
8=FIX.4.4|9=105|35=A|34=1|49=013|50=013B17|52=20190612-13:42:48.881|56=EXC|98=0|108=30|141=Y|553=013FCM001|554=013FCM001|10=103|
8=FIX.4.4|9=0067|35=A|34=1|49=EXC|56=013|52=20190612-13:42:48.919|98=0|108=30|141=Y|10=018|
8=FIX.4.4|9=0192|35=R|34=2|49=EXC|56=013|52=20190612-13:42:51.239|131=20190612-000000000007.00|146=1|55=TFIT15260826|762=RFQF|48=20348|22=M|54=1|38=1500000000|453=2|448=007B26|447=C|452=12|448=007|447=C|452=1|10=246|
8=FIX.4.4|9=0183|35=R|34=3|49=EXC|56=013|52=20190612-13:43:07.346|131=20190612-000000000007.00|146=1|55=TFIT15260826|762=RFQF|48=20348|22=M|54=1|38=0|453=2|448=007B26|447=C|452=12|448=007|447=C|452=1|10=066|
8=FIX.4.4|9=59|35=0|34=2|49=013|50=013B17|52=20190612-13:43:19.758|56=EXC|10=062|
8=FIX.4.4|9=0049|35=0|34=4|49=EXC|56=013|52=20190612-13:43:37.000|10=170|
8=FIX.4.4|9=0191|35=R|34=5|49=EXC|56=013|52=20190612-13:43:39.859|131=20190612-000000000008.00|146=1|55=TFIC14280426|762=RFQF|48=20602|22=M|54=1|38=500000000|453=2|448=001B27|447=C|452=12|448=001|447=C|452=1|10=177|
8=FIX.4.4|9=105|35=A|34=1|49=013|50=013B17|52=20190612-13:44:28.410|56=EXC|98=0|108=30|141=Y|553=013FCM001|554=013FCM001|10=091|
8=FIX.4.4|9=0067|35=A|34=1|49=EXC|56=013|52=20190612-13:44:28.454|98=0|108=30|141=Y|10=012|
8=FIX.4.4|9=0049|35=0|34=2|49=EXC|56=013|52=20190612-13:44:58.000|10=172|
8=FIX.4.4|9=59|35=0|34=2|49=013|50=013B17|52=20190612-13:44:59.342|56=EXC|10=056|
>>>>>>> 18c1b0dad7ac1179e40f521bb7110f9521769162
