8=FIX.4.4|9=110|35=A|34=1|49=007|50=007B26|52=20190611-15:51:59.876|56=EXC|43=Y|98=0|108=30|141=Y|553=007FCE001|554=007FCE001|10=100|
8=FIX.4.4|9=0067|35=A|34=1|49=EXC|56=007|52=20190611-15:51:59.897|98=0|108=30|141=Y|10=029|
8=FIX.4.4|9=0049|35=0|34=2|49=EXC|56=007|52=20190611-15:52:29.000|10=173|
8=FIX.4.4|9=59|35=0|34=2|49=007|50=007B26|52=20190611-15:52:30.778|56=EXC|10=064|
8=FIX.4.4|9=0191|35=R|34=3|49=EXC|56=007|52=20190611-15:52:49.887|131=20190611-000000000042.00|146=1|55=TFIT16300632|762=RFQF|48=20406|22=M|54=1|38=500000000|453=2|448=001B27|447=C|452=12|448=001|447=C|452=1|10=191|
8=FIX.4.4|9=110|35=A|34=1|49=007|50=007B26|52=20190611-18:56:22.067|56=EXC|43=Y|98=0|108=30|141=Y|553=007FCE001|554=007FCE001|10=090|
8=FIX.4.4|9=0067|35=A|34=1|49=EXC|56=007|52=20190611-18:56:21.947|98=0|108=30|141=Y|10=022|
8=FIX.4.4|9=110|35=A|34=1|49=007|50=007B26|52=20190611-19:22:23.081|56=EXC|43=Y|98=0|108=30|141=Y|553=007FCE001|554=007FCE001|10=081|
8=FIX.4.4|9=0067|35=A|34=1|49=EXC|56=007|52=20190611-19:22:23.116|98=0|108=30|141=Y|10=006|
8=FIX.4.4|9=110|35=A|34=1|49=007|50=007B26|52=20190611-19:23:58.047|56=EXC|43=Y|98=0|108=30|141=Y|553=007FCE001|554=007FCE001|10=092|
8=FIX.4.4|9=0067|35=A|34=1|49=EXC|56=007|52=20190611-19:23:58.088|98=0|108=30|141=Y|10=023|
8=FIX.4.4|9=110|35=A|34=1|49=007|50=007B26|52=20190611-19:26:32.398|56=EXC|43=Y|98=0|108=30|141=Y|553=007FCE001|554=007FCE001|10=096|
8=FIX.4.4|9=0067|35=A|34=1|49=EXC|56=007|52=20190611-19:26:32.458|98=0|108=30|141=Y|10=019|
8=FIX.4.4|9=110|35=A|34=1|49=007|50=007B26|52=20190611-19:33:13.107|56=EXC|43=Y|98=0|108=30|141=Y|553=007FCE001|554=007FCE001|10=081|
8=FIX.4.4|9=0067|35=A|34=1|49=EXC|56=007|52=20190611-19:33:13.162|98=0|108=30|141=Y|10=008|
8=FIX.4.4|9=110|35=A|34=1|49=007|50=007B26|52=20190611-19:39:31.636|56=EXC|43=Y|98=0|108=30|141=Y|553=007FCE001|554=007FCE001|10=094|
8=FIX.4.4|9=0067|35=A|34=1|49=EXC|56=007|52=20190611-19:39:31.695|98=0|108=30|141=Y|10=025|
8=FIX.4.4|9=110|35=A|34=1|49=007|50=007B26|52=20190611-19:44:56.725|56=EXC|43=Y|98=0|108=30|141=Y|553=007FCE001|554=007FCE001|10=096|
8=FIX.4.4|9=0067|35=A|34=1|49=EXC|56=007|52=20190611-19:44:57.061|98=0|108=30|141=Y|10=016|
8=FIX.4.4|9=110|35=A|34=1|49=007|50=007B26|52=20190611-19:50:18.314|56=EXC|43=Y|98=0|108=30|141=Y|553=007FCE001|554=007FCE001|10=085|
8=FIX.4.4|9=0067|35=A|34=1|49=EXC|56=007|52=20190611-19:50:18.369|98=0|108=30|141=Y|10=021|
8=FIX.4.4|9=110|35=A|34=1|49=007|50=007B26|52=20190611-19:52:18.868|56=EXC|43=Y|98=0|108=30|141=Y|553=007FCE001|554=007FCE001|10=101|
8=FIX.4.4|9=0067|35=A|34=1|49=EXC|56=007|52=20190611-19:52:18.898|98=0|108=30|141=Y|10=030|
8=FIX.4.4|9=110|35=A|34=1|49=007|50=007B26|52=20190611-19:57:54.223|56=EXC|43=Y|98=0|108=30|141=Y|553=007FCE001|554=007FCE001|10=091|
8=FIX.4.4|9=0067|35=A|34=1|49=EXC|56=007|52=20190611-19:57:54.276|98=0|108=30|141=Y|10=025|
8=FIX.4.4|9=110|35=A|34=1|49=007|50=007B26|52=20190611-20:17:57.778|56=EXC|43=Y|98=0|108=30|141=Y|553=007FCE001|554=007FCE001|10=097|
8=FIX.4.4|9=0067|35=A|34=1|49=EXC|56=007|52=20190611-20:17:57.795|98=0|108=30|141=Y|10=022|
8=FIX.4.4|9=110|35=A|34=1|49=007|50=007B26|52=20190611-20:21:26.970|56=EXC|43=Y|98=0|108=30|141=Y|553=007FCE001|554=007FCE001|10=082|
8=FIX.4.4|9=0067|35=A|34=1|49=EXC|56=007|52=20190611-20:21:27.016|98=0|108=30|141=Y|10=000|
8=FIX.4.4|9=0049|35=0|34=2|49=EXC|56=007|52=20190611-20:21:57.000|10=166|
8=FIX.4.4|9=59|35=0|34=2|49=007|50=007B26|52=20190611-20:21:57.044|56=EXC|10=051|
8=FIX.4.4|9=0049|35=0|34=3|49=EXC|56=007|52=20190611-20:22:27.000|10=165|
8=FIX.4.4|9=59|35=0|34=3|49=007|50=007B26|52=20190611-20:22:27.060|56=EXC|10=048|
8=FIX.4.4|9=110|35=A|34=1|49=007|50=007B26|52=20190611-20:39:32.376|56=EXC|43=Y|98=0|108=30|141=Y|553=007FCE001|554=007FCE001|10=088|
8=FIX.4.4|9=0067|35=A|34=1|49=EXC|56=007|52=20190611-20:39:33.881|98=0|108=30|141=Y|10=016|
8=FIX.4.4|9=59|35=0|34=2|49=007|50=007B26|52=20190611-20:40:03.034|56=EXC|10=042|
8=FIX.4.4|9=0049|35=0|34=2|49=EXC|56=007|52=20190611-20:40:03.000|10=158|
8=FIX.4.4|9=59|35=0|34=3|49=007|50=007B26|52=20190611-20:40:33.036|56=EXC|10=048|
8=FIX.4.4|9=0049|35=0|34=3|49=EXC|56=007|52=20190611-20:40:33.000|10=162|
8=FIX.4.4|9=110|35=A|34=1|49=007|50=007B26|52=20190611-20:50:00.939|56=EXC|43=Y|98=0|108=30|141=Y|553=007FCE001|554=007FCE001|10=081|
8=FIX.4.4|9=0067|35=A|34=1|49=EXC|56=007|52=20190611-20:50:00.942|98=0|108=30|141=Y|10=001|
8=FIX.4.4|9=0049|35=0|34=2|49=EXC|56=007|52=20190611-20:50:30.000|10=159|
8=FIX.4.4|9=59|35=0|34=2|49=007|50=007B26|52=20190611-20:50:31.869|56=EXC|10=060|
8=FIX.4.4|9=110|35=A|34=1|49=007|50=007B26|52=20190611-20:54:28.665|56=EXC|43=Y|98=0|108=30|141=Y|553=007FCE001|554=007FCE001|10=091|
8=FIX.4.4|9=0067|35=A|34=1|49=EXC|56=007|52=20190611-20:54:28.794|98=0|108=30|141=Y|10=020|
8=FIX.4.4|9=0049|35=0|34=2|49=EXC|56=007|52=20190611-20:54:58.000|10=173|
8=FIX.4.4|9=59|35=0|34=2|49=007|50=007B26|52=20190611-20:54:59.374|56=EXC|10=065|
8=FIX.4.4|9=110|35=A|34=1|49=007|50=007B26|52=20190611-20:56:58.461|56=EXC|43=Y|98=0|108=30|141=Y|553=007FCE001|554=007FCE001|10=090|
8=FIX.4.4|9=0067|35=A|34=1|49=EXC|56=007|52=20190611-20:56:58.752|98=0|108=30|141=Y|10=019|
8=FIX.4.4|9=0049|35=0|34=2|49=EXC|56=007|52=20190611-20:57:28.000|10=173|
8=FIX.4.4|9=59|35=0|34=2|49=007|50=007B26|52=20190611-20:57:28.966|56=EXC|10=071|
8=FIX.4.4|9=110|35=A|34=1|49=007|50=007B26|52=20190611-20:59:27.522|56=EXC|43=Y|98=0|108=30|141=Y|553=007FCE001|554=007FCE001|10=087|
8=FIX.4.4|9=0067|35=A|34=1|49=EXC|56=007|52=20190611-20:59:27.523|98=0|108=30|141=Y|10=014|
8=FIX.4.4|9=0049|35=0|34=2|49=EXC|56=007|52=20190611-20:59:57.000|10=177|
8=FIX.4.4|9=59|35=0|34=2|49=007|50=007B26|52=20190611-20:59:58.372|56=EXC|10=067|
8=FIX.4.4|9=0049|35=0|34=3|49=EXC|56=007|52=20190611-21:00:27.000|10=162|
8=FIX.4.4|9=59|35=0|34=3|49=007|50=007B26|52=20190611-21:00:28.371|56=EXC|10=051|
8=FIX.4.4|9=110|35=A|34=1|49=007|50=007B26|52=20190611-21:02:11.322|56=EXC|43=Y|98=0|108=30|141=Y|553=007FCE001|554=007FCE001|10=067|
8=FIX.4.4|9=0067|35=A|34=1|49=EXC|56=007|52=20190611-21:02:11.397|98=0|108=30|141=Y|10=005|
8=FIX.4.4|9=0049|35=0|34=2|49=EXC|56=007|52=20190611-21:02:41.000|10=159|
8=FIX.4.4|9=59|35=0|34=2|49=007|50=007B26|52=20190611-21:02:42.011|56=EXC|10=039|
8=FIX.4.4|9=110|35=A|34=1|49=007|50=007B26|52=20190611-21:18:19.801|56=EXC|43=Y|98=0|108=30|141=Y|553=007FCE001|554=007FCE001|10=084|
8=FIX.4.4|9=0067|35=A|34=1|49=EXC|56=007|52=20190611-21:18:19.751|98=0|108=30|141=Y|10=014|
8=FIX.4.4|9=0049|35=0|34=2|49=EXC|56=007|52=20190611-21:18:49.000|10=174|
8=FIX.4.4|9=59|35=0|34=2|49=007|50=007B26|52=20190611-21:18:50.685|56=EXC|10=062|
8=FIX.4.4|9=110|35=A|34=1|49=007|50=007B26|52=20190611-21:20:20.072|56=EXC|43=Y|98=0|108=30|141=Y|553=007FCE001|554=007FCE001|10=069|
8=FIX.4.4|9=0067|35=A|34=1|49=EXC|56=007|52=20190611-21:20:20.011|98=0|108=30|141=Y|10=244|
8=FIX.4.4|9=0049|35=0|34=2|49=EXC|56=007|52=20190611-21:20:50.000|10=159|
8=FIX.4.4|9=59|35=0|34=2|49=007|50=007B26|52=20190611-21:20:50.113|56=EXC|10=041|
8=FIX.4.4|9=110|35=A|34=1|49=007|50=007B26|52=20190611-21:21:34.696|56=EXC|43=Y|98=0|108=30|141=Y|553=007FCE001|554=007FCE001|10=087|
8=FIX.4.4|9=0067|35=A|34=1|49=EXC|56=007|52=20190611-21:21:34.641|98=0|108=30|141=Y|10=003|
8=FIX.4.4|9=0049|35=0|34=2|49=EXC|56=007|52=20190611-21:22:04.000|10=160|
8=FIX.4.4|9=59|35=0|34=2|49=007|50=007B26|52=20190611-21:22:05.630|56=EXC|10=047|
