8=FIX.4.4|9=110|35=A|34=1|49=002|50=002B35|52=20190529-15:45:10.676|56=EXC|43=Y|98=0|108=30|141=Y|553=002FCM001|554=002FCM001|10=092|
8=FIX.4.4|9=0067|35=A|34=1|49=EXC|56=002|52=20190529-15:45:07.247|98=0|108=30|141=Y|10=017|
8=FIX.4.4|9=0225|35=R|34=2|49=EXC|56=002|57=002B35|52=20190529-15:45:12.484|131=20190529-000000000019.00|146=1|55=TFIC13280425|762=RFQF|48=20626|22=M|54=1|38=500000000|453=3|448=001B27|447=C|452=12|448=001|447=C|452=1|448=002B35|447=C|452=37|10=023|
8=FIX.4.4|9=59|35=0|34=2|49=002|50=002B35|52=20190529-15:45:41.636|56=EXC|10=059|
8=FIX.4.4|9=110|35=A|34=1|49=002|50=002B35|52=20190529-15:49:00.816|56=EXC|43=Y|98=0|108=30|141=Y|553=002FCM001|554=002FCM001|10=091|
8=FIX.4.4|9=0067|35=A|34=1|49=EXC|56=002|52=20190529-15:48:57.361|98=0|108=30|141=Y|10=022|
8=FIX.4.4|9=0225|35=R|34=2|49=EXC|56=002|57=002B35|52=20190529-15:49:02.639|131=20190529-000000000020.00|146=1|55=TFIC13280425|762=RFQF|48=20626|22=M|54=1|38=500000000|453=3|448=001B27|447=C|452=12|448=001|447=C|452=1|448=002B35|447=C|452=37|10=020|
8=FIX.4.4|9=59|35=0|34=2|49=002|50=002B35|52=20190529-15:49:31.777|56=EXC|10=068|
8=FIX.4.4|9=110|35=A|34=1|49=002|50=002B35|52=20190529-15:53:18.829|56=EXC|43=Y|98=0|108=30|141=Y|553=002FCM001|554=002FCM001|10=099|
8=FIX.4.4|9=0067|35=A|34=1|49=EXC|56=002|52=20190529-15:53:15.392|98=0|108=30|141=Y|10=016|
8=FIX.4.4|9=0225|35=R|34=2|49=EXC|56=002|57=002B35|52=20190529-15:53:20.590|131=20190529-000000000021.00|146=1|55=TFIC13280425|762=RFQF|48=20626|22=M|54=1|38=500000000|453=3|448=001B27|447=C|452=12|448=001|447=C|452=1|448=002B35|447=C|452=37|10=012|
8=FIX.4.4|9=59|35=0|34=2|49=002|50=002B35|52=20190529-15:53:49.776|56=EXC|10=071|
8=FIX.4.4|9=0049|35=0|34=3|49=EXC|56=002|52=20190529-15:53:50.000|10=172|
8=FIX.4.4|9=110|35=A|34=1|49=002|50=002B35|52=20190529-15:54:29.825|56=EXC|43=Y|98=0|108=30|141=Y|553=002FCM001|554=002FCM001|10=098|
8=FIX.4.4|9=0067|35=A|34=1|49=EXC|56=002|52=20190529-15:54:26.486|98=0|108=30|141=Y|10=023|
8=FIX.4.4|9=0225|35=R|34=2|49=EXC|56=002|57=002B35|52=20190529-15:54:31.602|131=20190529-000000000022.00|146=1|55=TFIC13280425|762=RFQF|48=20626|22=M|54=1|38=500000000|453=3|448=001B27|447=C|452=12|448=001|447=C|452=1|448=002B35|447=C|452=37|10=010|
8=FIX.4.4|9=59|35=0|34=2|49=002|50=002B35|52=20190529-15:55:00.626|56=EXC|10=054|
8=FIX.4.4|9=0049|35=0|34=3|49=EXC|56=002|52=20190529-15:55:01.000|10=170|
8=FIX.4.4|9=110|35=A|34=1|49=002|50=002B35|52=20190529-16:31:18.874|56=EXC|43=Y|98=0|108=30|141=Y|553=002FCM001|554=002FCM001|10=096|
8=FIX.4.4|9=0067|35=A|34=1|49=EXC|56=002|52=20190529-16:31:15.431|98=0|108=30|141=Y|10=007|
8=FIX.4.4|9=0225|35=R|34=2|49=EXC|56=002|57=002B35|52=20190529-16:31:20.697|131=20190529-000000000023.00|146=1|55=TFIC13280425|762=RFQF|48=20626|22=M|54=1|38=500000000|453=3|448=001B27|447=C|452=12|448=001|447=C|452=1|448=002B35|447=C|452=37|10=019|
8=FIX.4.4|9=59|35=0|34=2|49=002|50=002B35|52=20190529-16:31:49.795|56=EXC|10=069|
8=FIX.4.4|9=0049|35=0|34=3|49=EXC|56=002|52=20190529-16:31:50.000|10=169|
8=FIX.4.4|9=59|35=0|34=3|49=002|50=002B35|52=20190529-16:32:19.797|56=EXC|10=070|
8=FIX.4.4|9=0049|35=0|34=4|49=EXC|56=002|52=20190529-16:32:20.000|10=168|
8=FIX.4.4|9=110|35=A|34=1|49=002|50=002B35|52=20190529-16:41:51.573|56=EXC|43=Y|98=0|108=30|141=Y|553=002FCM001|554=002FCM001|10=090|
8=FIX.4.4|9=0067|35=A|34=1|49=EXC|56=002|52=20190529-16:41:48.123|98=0|108=30|141=Y|10=012|
8=FIX.4.4|9=0225|35=R|34=2|49=EXC|56=002|57=002B35|52=20190529-16:41:53.327|131=20190529-000000000024.00|146=1|55=TFIC13280425|762=RFQF|48=20626|22=M|54=1|38=500000000|453=3|448=001B27|447=C|452=12|448=001|447=C|452=1|448=002B35|447=C|452=37|10=017|
8=FIX.4.4|9=59|35=0|34=2|49=002|50=002B35|52=20190529-16:42:22.514|56=EXC|10=051|
8=FIX.4.4|9=0049|35=0|34=3|49=EXC|56=002|52=20190529-16:42:23.000|10=171|
8=FIX.4.4|9=59|35=0|34=3|49=002|50=002B35|52=20190529-16:42:52.515|56=EXC|10=056|
8=FIX.4.4|9=110|35=A|34=1|49=002|50=002B35|52=20190529-16:47:42.456|56=EXC|43=Y|98=0|108=30|141=Y|553=002FCM001|554=002FCM001|10=096|
8=FIX.4.4|9=0067|35=A|34=1|49=EXC|56=002|52=20190529-16:47:38.999|98=0|108=30|141=Y|10=038|
8=FIX.4.4|9=0225|35=R|34=2|49=EXC|56=002|57=002B35|52=20190529-16:47:44.272|131=20190529-000000000025.00|146=1|55=TFIC13280425|762=RFQF|48=20626|22=M|54=1|38=500000000|453=3|448=001B27|447=C|452=12|448=001|447=C|452=1|448=002B35|447=C|452=37|10=023|
8=FIX.4.4|9=59|35=0|34=2|49=002|50=002B35|52=20190529-16:48:13.402|56=EXC|10=053|
8=FIX.4.4|9=110|35=A|34=1|49=002|50=002B35|52=20190529-16:55:22.434|56=EXC|43=Y|98=0|108=30|141=Y|553=002FCM001|554=002FCM001|10=089|
8=FIX.4.4|9=0067|35=A|34=1|49=EXC|56=002|52=20190529-16:55:18.981|98=0|108=30|141=Y|10=026|
8=FIX.4.4|9=0225|35=R|34=2|49=EXC|56=002|57=002B35|52=20190529-16:55:24.243|131=20190529-000000000026.00|146=1|55=TFIC13280425|762=RFQF|48=20626|22=M|54=1|38=500000000|453=3|448=001B27|447=C|452=12|448=001|447=C|452=1|448=002B35|447=C|452=37|10=019|
8=FIX.4.4|9=110|35=A|34=1|49=002|50=002B35|52=20190529-17:07:01.997|56=EXC|43=Y|98=0|108=30|141=Y|553=002FCM001|554=002FCM001|10=098|
8=FIX.4.4|9=0067|35=A|34=1|49=EXC|56=002|52=20190529-17:06:58.547|98=0|108=30|141=Y|10=025|
8=FIX.4.4|9=0225|35=R|34=2|49=EXC|56=002|57=002B35|52=20190529-17:07:03.814|131=20190529-000000000027.00|146=1|55=TFIC13280425|762=RFQF|48=20626|22=M|54=1|38=500000000|453=3|448=001B27|447=C|452=12|448=001|447=C|452=1|448=002B35|447=C|452=37|10=019|
8=FIX.4.4|9=110|35=A|34=1|49=002|50=002B35|52=20190529-20:17:01.840|56=EXC|43=Y|98=0|108=30|141=Y|553=002FCM001|554=002FCM001|10=080|
8=FIX.4.4|9=0067|35=A|34=1|49=EXC|56=002|52=20190529-20:16:58.312|98=0|108=30|141=Y|10=010|
8=FIX.4.4|9=0225|35=R|34=2|49=EXC|56=002|57=002B35|52=20190529-20:17:03.530|131=20190529-000000000029.00|146=1|55=TFIC13280425|762=RFQF|48=20626|22=M|54=1|38=500000000|453=3|448=001B27|447=C|452=12|448=001|447=C|452=1|448=002B35|447=C|452=37|10=011|
8=FIX.4.4|9=127|35=j|34=2|49=002|50=002B35|52=20190529-20:17:08.691|56=EXC|45=2|58=Conditionally Required Field Missing, field=131|372=R|380=5|10=056|
8=FIX.4.4|9=0109|35=j|34=3|49=EXC|56=002|57=002B35|52=20190529-20:17:05.038|45=2|372=j|380=3|58=(1468): MsgType(#35) invalido|10=061|
8=FIX.4.4|9=110|35=A|34=1|49=002|50=002B35|52=20190529-20:19:06.098|56=EXC|43=Y|98=0|108=30|141=Y|553=002FCM001|554=002FCM001|10=092|
8=FIX.4.4|9=0067|35=A|34=1|49=EXC|56=002|52=20190529-20:19:02.538|98=0|108=30|141=Y|10=012|
8=FIX.4.4|9=0225|35=R|34=2|49=EXC|56=002|57=002B35|52=20190529-20:19:07.903|131=20190529-000000000030.00|146=1|55=TFIC13280425|762=RFQF|48=20626|22=M|54=1|38=500000000|453=3|448=001B27|447=C|452=12|448=001|447=C|452=1|448=002B35|447=C|452=37|10=013|
8=FIX.4.4|9=127|35=j|34=2|49=002|50=002B35|52=20190529-20:19:13.380|56=EXC|45=2|58=Conditionally Required Field Missing, field=131|372=R|380=5|10=049|
8=FIX.4.4|9=0109|35=j|34=3|49=EXC|56=002|57=002B35|52=20190529-20:19:09.729|45=2|372=j|380=3|58=(1468): MsgType(#35) invalido|10=074|
8=FIX.4.4|9=110|35=A|34=1|49=002|50=002B35|52=20190529-20:22:47.098|56=EXC|43=Y|98=0|108=30|141=Y|553=002FCM001|554=002FCM001|10=091|
8=FIX.4.4|9=0067|35=A|34=1|49=EXC|56=002|52=20190529-20:22:43.543|98=0|108=30|141=Y|10=007|
8=FIX.4.4|9=0225|35=R|34=2|49=EXC|56=002|57=002B35|52=20190529-20:22:48.667|131=20190529-000000000031.00|146=1|55=TFIC13280425|762=RFQF|48=20626|22=M|54=1|38=500000000|453=3|448=001B27|447=C|452=12|448=001|447=C|452=1|448=002B35|447=C|452=37|10=020|
8=FIX.4.4|9=127|35=j|34=2|49=002|50=002B35|52=20190529-20:22:53.863|56=EXC|45=2|58=Conditionally Required Field Missing, field=131|372=R|380=5|10=053|
8=FIX.4.4|9=0109|35=j|34=3|49=EXC|56=002|57=002B35|52=20190529-20:22:50.211|45=2|372=j|380=3|58=(1468): MsgType(#35) invalido|10=050|
8=FIX.4.4|9=0049|35=0|34=4|49=EXC|56=002|52=20190529-20:23:20.000|10=163|
8=FIX.4.4|9=59|35=0|34=3|49=002|50=002B35|52=20190529-20:23:23.928|56=EXC|10=056|
8=FIX.4.4|9=110|35=A|34=1|49=002|50=002B35|52=20190529-20:25:43.832|56=EXC|43=Y|98=0|108=30|141=Y|553=002FCM001|554=002FCM001|10=086|
8=FIX.4.4|9=0067|35=A|34=1|49=EXC|56=002|52=20190529-20:25:40.275|98=0|108=30|141=Y|10=009|
8=FIX.4.4|9=0225|35=R|34=2|49=EXC|56=002|57=002B35|52=20190529-20:25:45.527|131=20190529-000000000032.00|146=1|55=TFIC13280425|762=RFQF|48=20626|22=M|54=1|38=500000000|453=3|448=001B27|447=C|452=12|448=001|447=C|452=1|448=002B35|447=C|452=37|10=016|
8=FIX.4.4|9=127|35=j|34=2|49=002|50=002B35|52=20190529-20:25:51.112|56=EXC|45=2|58=Conditionally Required Field Missing, field=131|372=R|380=5|10=041|
8=FIX.4.4|9=0109|35=j|34=3|49=EXC|56=002|57=002B35|52=20190529-20:25:47.457|45=2|372=j|380=3|58=(1468): MsgType(#35) invalido|10=071|
8=FIX.4.4|9=110|35=A|34=1|49=002|50=002B35|52=20190529-20:26:50.540|56=EXC|43=Y|98=0|108=30|141=Y|553=002FCM001|554=002FCM001|10=081|
8=FIX.4.4|9=0067|35=A|34=1|49=EXC|56=002|52=20190529-20:26:47.173|98=0|108=30|141=Y|10=014|
8=FIX.4.4|9=0225|35=R|34=2|49=EXC|56=002|57=002B35|52=20190529-20:26:52.287|131=20190529-000000000033.00|146=1|55=TFIC13280425|762=RFQF|48=20626|22=M|54=1|38=500000000|453=3|448=001B27|447=C|452=12|448=001|447=C|452=1|448=002B35|447=C|452=37|10=019|
8=FIX.4.4|9=59|35=0|34=2|49=002|50=002B35|52=20190529-20:27:21.066|56=EXC|10=050|
8=FIX.4.4|9=110|35=A|34=1|49=002|50=002B35|52=20190529-20:28:23.319|56=EXC|43=Y|98=0|108=30|141=Y|553=002FCM001|554=002FCM001|10=087|
8=FIX.4.4|9=0067|35=A|34=1|49=EXC|56=002|52=20190529-20:28:19.821|98=0|108=30|141=Y|10=015|
8=FIX.4.4|9=0225|35=R|34=2|49=EXC|56=002|57=002B35|52=20190529-20:28:24.473|131=20190529-000000000034.00|146=1|55=TFIC13280425|762=RFQF|48=20626|22=M|54=1|38=500000000|453=3|448=001B27|447=C|452=12|448=001|447=C|452=1|448=002B35|447=C|452=37|10=018|
8=FIX.4.4|9=59|35=0|34=2|49=002|50=002B35|52=20190529-20:28:53.563|56=EXC|10=058|
8=FIX.4.4|9=0049|35=0|34=3|49=EXC|56=002|52=20190529-20:28:54.000|10=174|
8=FIX.4.4|9=68|35=2|34=3|49=002|50=002B35|52=20190529-20:28:58.014|56=EXC|7=2|16=0|10=181|
8=FIX.4.4|9=0256|35=R|34=2|43=Y|52=20190529-20:28:54.359|49=EXC|56=002|57=002B35|122=20190529-20:28:24.473|131=20190529-000000000034.00|146=1|55=TFIC13280425|762=RFQF|48=20626|22=M|54=1|38=500000000|453=3|448=001B27|447=C|452=12|448=001|447=C|452=1|448=002B35|447=C|452=37|10=040|
8=FIX.4.4|9=0065|35=4|34=3|43=Y|49=EXC|56=002|52=20190529-20:28:54.359|123=Y|36=4|10=199|
8=FIX.4.4|9=0054|35=4|34=4|49=EXC|56=002|52=20190529-20:28:54.361|36=5|10=149|
8=FIX.4.4|9=68|35=2|34=4|49=002|50=002B35|52=20190529-20:28:58.093|56=EXC|7=2|16=0|10=189|
8=FIX.4.4|9=0256|35=R|34=2|43=Y|52=20190529-20:28:54.438|49=EXC|56=002|57=002B35|122=20190529-20:28:24.473|131=20190529-000000000034.00|146=1|55=TFIC13280425|762=RFQF|48=20626|22=M|54=1|38=500000000|453=3|448=001B27|447=C|452=12|448=001|447=C|452=1|448=002B35|447=C|452=37|10=038|
8=FIX.4.4|9=0065|35=4|34=3|43=Y|49=EXC|56=002|52=20190529-20:28:54.438|123=Y|36=5|10=198|
8=FIX.4.4|9=0054|35=4|34=5|49=EXC|56=002|52=20190529-20:28:54.438|36=6|10=156|
8=FIX.4.4|9=110|35=A|34=1|49=002|50=002B35|52=20190529-20:31:40.263|56=EXC|43=Y|98=0|108=30|141=Y|553=002FCM001|554=002FCM001|10=078|
8=FIX.4.4|9=0067|35=A|34=1|49=EXC|56=002|52=20190529-20:31:36.639|98=0|108=30|141=Y|10=015|
8=FIX.4.4|9=110|35=A|34=1|49=002|50=002B35|52=20190529-20:31:49.965|56=EXC|43=Y|98=0|108=30|141=Y|553=002FCM001|554=002FCM001|10=096|
8=FIX.4.4|9=0067|35=A|34=1|49=EXC|56=002|52=20190529-20:31:46.378|98=0|108=30|141=Y|10=016|
8=FIX.4.4|9=0225|35=R|34=2|49=EXC|56=002|57=002B35|52=20190529-20:31:51.667|131=20190529-000000000035.00|146=1|55=TFIC13280425|762=RFQF|48=20626|22=M|54=1|38=500000000|453=3|448=001B27|447=C|452=12|448=001|447=C|452=1|448=002B35|447=C|452=37|10=018|
8=FIX.4.4|9=59|35=0|34=2|49=002|50=002B35|52=20190529-20:32:20.905|56=EXC|10=047|
8=FIX.4.4|9=0049|35=0|34=3|49=EXC|56=002|52=20190529-20:32:21.000|10=163|
8=FIX.4.4|9=110|35=A|34=1|49=002|50=002B35|52=20190529-20:32:40.228|56=EXC|43=Y|98=0|108=30|141=Y|553=002FCM001|554=002FCM001|10=080|
8=FIX.4.4|9=0067|35=A|34=1|49=EXC|56=002|52=20190529-20:32:36.640|98=0|108=30|141=Y|10=008|
8=FIX.4.4|9=0225|35=R|34=2|49=EXC|56=002|57=002B35|52=20190529-20:32:41.849|131=20190529-000000000036.00|146=1|55=TFIC13280425|762=RFQF|48=20626|22=M|54=1|38=500000000|453=3|448=001B27|447=C|452=12|448=001|447=C|452=1|448=002B35|447=C|452=37|10=021|
8=FIX.4.4|9=59|35=0|34=2|49=002|50=002B35|52=20190529-20:33:11.121|56=EXC|10=038|
8=FIX.4.4|9=110|35=A|34=1|49=002|50=002B35|52=20190529-20:33:32.599|56=EXC|43=Y|98=0|108=30|141=Y|553=002FCM001|554=002FCM001|10=093|
8=FIX.4.4|9=0067|35=A|34=1|49=EXC|56=002|52=20190529-20:33:28.987|98=0|108=30|141=Y|10=024|
8=FIX.4.4|9=0225|35=R|34=2|49=EXC|56=002|57=002B35|52=20190529-20:33:34.242|131=20190529-000000000037.00|146=1|55=TFIC13280425|762=RFQF|48=20626|22=M|54=1|38=500000000|453=3|448=001B27|447=C|452=12|448=001|447=C|452=1|448=002B35|447=C|452=37|10=012|
8=FIX.4.4|9=59|35=0|34=2|49=002|50=002B35|52=20190529-20:34:03.554|56=EXC|10=050|
8=FIX.4.4|9=0049|35=0|34=3|49=EXC|56=002|52=20190529-20:34:04.000|10=166|
8=FIX.4.4|9=68|35=1|34=3|49=002|50=002B35|52=20190529-20:34:23.556|56=EXC|112=TEST|10=074|
8=FIX.4.4|9=0058|35=0|34=4|49=EXC|56=002|52=20190529-20:34:19.898|112=TEST|10=216|
8=FIX.4.4|9=110|35=A|34=1|49=002|50=002B35|52=20190529-20:34:51.598|56=EXC|43=Y|98=0|108=30|141=Y|553=002FCM001|554=002FCM001|10=094|
8=FIX.4.4|9=0067|35=A|34=1|49=EXC|56=002|52=20190529-20:34:47.977|98=0|108=30|141=Y|10=025|
8=FIX.4.4|9=110|35=A|34=1|49=002|50=002B35|52=20190529-20:37:17.424|56=EXC|43=Y|98=0|108=30|141=Y|553=002FCM001|554=002FCM001|10=087|
8=FIX.4.4|9=0067|35=A|34=1|49=EXC|56=002|52=20190529-20:37:13.800|98=0|108=30|141=Y|10=006|
8=FIX.4.4|9=0225|35=R|34=2|49=EXC|56=002|57=002B35|52=20190529-20:37:19.020|131=20190529-000000000038.00|146=1|55=TFIC13280425|762=RFQF|48=20626|22=M|54=1|38=500000000|453=3|448=001B27|447=C|452=12|448=001|447=C|452=1|448=002B35|447=C|452=37|10=014|
8=FIX.4.4|9=59|35=0|34=2|49=002|50=002B35|52=20190529-20:37:48.360|56=EXC|10=057|
8=FIX.4.4|9=0049|35=0|34=3|49=EXC|56=002|52=20190529-20:37:49.000|10=178|
8=FIX.4.4|9=68|35=2|34=3|49=002|50=002B35|52=20190529-20:37:53.786|56=EXC|7=2|16=0|10=192|
8=FIX.4.4|9=0256|35=R|34=2|43=Y|52=20190529-20:37:50.125|49=EXC|56=002|57=002B35|122=20190529-20:37:19.020|131=20190529-000000000038.00|146=1|55=TFIC13280425|762=RFQF|48=20626|22=M|54=1|38=500000000|453=3|448=001B27|447=C|452=12|448=001|447=C|452=1|448=002B35|447=C|452=37|10=023|
8=FIX.4.4|9=0065|35=4|34=3|43=Y|49=EXC|56=002|52=20190529-20:37:50.125|123=Y|36=4|10=186|
8=FIX.4.4|9=0054|35=4|34=4|49=EXC|56=002|52=20190529-20:37:50.126|36=5|10=144|
8=FIX.4.4|9=68|35=2|34=4|49=002|50=002B35|52=20190529-20:37:53.830|56=EXC|7=2|16=0|10=183|
8=FIX.4.4|9=0256|35=R|34=2|43=Y|52=20190529-20:37:50.169|49=EXC|56=002|57=002B35|122=20190529-20:37:19.020|131=20190529-000000000038.00|146=1|55=TFIC13280425|762=RFQF|48=20626|22=M|54=1|38=500000000|453=3|448=001B27|447=C|452=12|448=001|447=C|452=1|448=002B35|447=C|452=37|10=031|
8=FIX.4.4|9=0065|35=4|34=3|43=Y|49=EXC|56=002|52=20190529-20:37:50.169|123=Y|36=5|10=195|
8=FIX.4.4|9=0054|35=4|34=5|49=EXC|56=002|52=20190529-20:37:50.169|36=6|10=153|
8=FIX.4.4|9=110|35=A|34=1|49=002|50=002B35|52=20190529-20:38:56.283|56=EXC|43=Y|98=0|108=30|141=Y|553=002FCM001|554=002FCM001|10=094|
8=FIX.4.4|9=0067|35=A|34=1|49=EXC|56=002|52=20190529-20:38:52.657|98=0|108=30|141=Y|10=020|
8=FIX.4.4|9=0225|35=R|34=2|49=EXC|56=002|57=002B35|52=20190529-20:38:57.935|131=20190529-000000000039.00|146=1|55=TFIC13280425|762=RFQF|48=20626|22=M|54=1|38=500000000|453=3|448=001B27|447=C|452=12|448=001|447=C|452=1|448=002B35|447=C|452=37|10=033|
8=FIX.4.4|9=59|35=0|34=2|49=002|50=002B35|52=20190529-20:39:27.204|56=EXC|10=053|
8=FIX.4.4|9=0049|35=0|34=3|49=EXC|56=002|52=20190529-20:39:27.000|10=176|
8=FIX.4.4|9=68|35=1|34=3|49=002|50=002B35|52=20190529-20:39:47.204|56=EXC|112=TEST|10=075|
8=FIX.4.4|9=0058|35=0|34=4|49=EXC|56=002|52=20190529-20:39:43.543|112=TEST|10=205|
8=FIX.4.4|9=110|35=A|34=1|49=002|50=002B35|52=20190529-20:40:15.242|56=EXC|43=Y|98=0|108=30|141=Y|553=002FCM001|554=002FCM001|10=077|
8=FIX.4.4|9=0067|35=A|34=1|49=EXC|56=002|52=20190529-20:40:11.636|98=0|108=30|141=Y|10=005|
8=FIX.4.4|9=110|35=A|34=1|49=002|50=002B35|52=20190529-20:40:53.314|56=EXC|43=Y|98=0|108=30|141=Y|553=002FCM001|554=002FCM001|10=079|
8=FIX.4.4|9=0067|35=A|34=1|49=EXC|56=002|52=20190529-20:40:49.682|98=0|108=30|141=Y|10=017|
8=FIX.4.4|9=0225|35=R|34=2|49=EXC|56=002|57=002B35|52=20190529-20:40:54.873|131=20190529-000000000040.00|146=1|55=TFIC13280425|762=RFQF|48=20626|22=M|54=1|38=500000000|453=3|448=001B27|447=C|452=12|448=001|447=C|452=1|448=002B35|447=C|452=37|10=016|
8=FIX.4.4|9=59|35=0|34=2|49=002|50=002B35|52=20190529-20:41:24.205|56=EXC|10=044|
8=FIX.4.4|9=110|35=A|34=1|49=002|50=002B35|52=20190529-20:42:33.855|56=EXC|43=Y|98=0|108=30|141=Y|553=002FCM001|554=002FCM001|10=089|
8=FIX.4.4|9=0067|35=A|34=1|49=EXC|56=002|52=20190529-20:42:30.221|98=0|108=30|141=Y|10=254|
8=FIX.4.4|9=0225|35=R|34=2|49=EXC|56=002|57=002B35|52=20190529-20:42:35.390|131=20190529-000000000041.00|146=1|55=TFIC13280425|762=RFQF|48=20626|22=M|54=1|38=500000000|453=3|448=001B27|447=C|452=12|448=001|447=C|452=1|448=002B35|447=C|452=37|10=012|
8=FIX.4.4|9=59|35=0|34=2|49=002|50=002B35|52=20190529-20:43:04.802|56=EXC|10=047|
8=FIX.4.4|9=110|35=A|34=1|49=002|50=002B35|52=20190529-20:43:15.053|56=EXC|43=Y|98=0|108=30|141=Y|553=002FCM001|554=002FCM001|10=080|
8=FIX.4.4|9=0067|35=A|34=1|49=EXC|56=002|52=20190529-20:43:11.436|98=0|108=30|141=Y|10=006|
8=FIX.4.4|9=0225|35=R|34=2|49=EXC|56=002|57=002B35|52=20190529-20:43:16.884|131=20190529-000000000042.00|146=1|55=TFIC13280425|762=RFQF|48=20626|22=M|54=1|38=500000000|453=3|448=001B27|447=C|452=12|448=001|447=C|452=1|448=002B35|447=C|452=37|10=021|
8=FIX.4.4|9=59|35=0|34=2|49=002|50=002B35|52=20190529-20:43:46.005|56=EXC|10=048|
8=FIX.4.4|9=0049|35=0|34=3|49=EXC|56=002|52=20190529-20:43:46.000|10=172|
8=FIX.4.4|9=68|35=1|34=3|49=002|50=002B35|52=20190529-20:44:06.005|56=EXC|112=TEST|10=065|
8=FIX.4.4|9=0058|35=0|34=4|49=EXC|56=002|52=20190529-20:44:02.342|112=TEST|10=193|
8=FIX.4.4|9=110|35=A|34=1|49=002|50=002B35|52=20190529-20:45:17.294|56=EXC|43=Y|98=0|108=30|141=Y|553=002FCM001|554=002FCM001|10=091|
8=FIX.4.4|9=0067|35=A|34=1|49=EXC|56=002|52=20190529-20:45:13.687|98=0|108=30|141=Y|10=018|
8=FIX.4.4|9=0225|35=R|34=2|49=EXC|56=002|57=002B35|52=20190529-20:45:18.876|131=20190529-000000000043.00|146=1|55=TFIC13280425|762=RFQF|48=20626|22=M|54=1|38=500000000|453=3|448=001B27|447=C|452=12|448=001|447=C|452=1|448=002B35|447=C|452=37|10=027|
8=FIX.4.4|9=59|35=0|34=2|49=002|50=002B35|52=20190529-20:45:48.235|56=EXC|10=057|
8=FIX.4.4|9=0049|35=0|34=3|49=EXC|56=002|52=20190529-20:45:48.000|10=176|
8=FIX.4.4|9=68|35=2|34=3|49=002|50=002B35|52=20190529-20:45:51.685|56=EXC|7=2|16=0|10=187|
8=FIX.4.4|9=0256|35=R|34=2|43=Y|52=20190529-20:45:48.021|49=EXC|56=002|57=002B35|122=20190529-20:45:18.876|131=20190529-000000000043.00|146=1|55=TFIC13280425|762=RFQF|48=20626|22=M|54=1|38=500000000|453=3|448=001B27|447=C|452=12|448=001|447=C|452=1|448=002B35|447=C|452=37|10=037|
8=FIX.4.4|9=0065|35=4|34=3|43=Y|49=EXC|56=002|52=20190529-20:45:48.021|123=Y|36=4|10=187|
8=FIX.4.4|9=0054|35=4|34=4|49=EXC|56=002|52=20190529-20:45:48.022|36=5|10=145|
8=FIX.4.4|9=68|35=2|34=4|49=002|50=002B35|52=20190529-20:45:51.735|56=EXC|7=2|16=0|10=184|
8=FIX.4.4|9=0256|35=R|34=2|43=Y|52=20190529-20:45:48.073|49=EXC|56=002|57=002B35|122=20190529-20:45:18.876|131=20190529-000000000043.00|146=1|55=TFIC13280425|762=RFQF|48=20626|22=M|54=1|38=500000000|453=3|448=001B27|447=C|452=12|448=001|447=C|452=1|448=002B35|447=C|452=37|10=044|
8=FIX.4.4|9=0065|35=4|34=3|43=Y|49=EXC|56=002|52=20190529-20:45:48.073|123=Y|36=5|10=195|
8=FIX.4.4|9=0054|35=4|34=5|49=EXC|56=002|52=20190529-20:45:48.073|36=6|10=153|
8=FIX.4.4|9=110|35=A|34=1|49=002|50=002B35|52=20190529-20:46:43.980|56=EXC|43=Y|98=0|108=30|141=Y|553=002FCM001|554=002FCM001|10=093|
8=FIX.4.4|9=0067|35=A|34=1|49=EXC|56=002|52=20190529-20:46:40.350|98=0|108=30|141=Y|10=006|
8=FIX.4.4|9=0225|35=R|34=2|49=EXC|56=002|57=002B35|52=20190529-20:46:45.471|131=20190529-000000000044.00|146=1|55=TFIC13280425|762=RFQF|48=20626|22=M|54=1|38=500000000|453=3|448=001B27|447=C|452=12|448=001|447=C|452=1|448=002B35|447=C|452=37|10=020|
8=FIX.4.4|9=110|35=A|34=1|49=002|50=002B35|52=20190529-20:48:24.977|56=EXC|43=Y|98=0|108=30|141=Y|553=002FCM001|554=002FCM001|10=100|
8=FIX.4.4|9=0067|35=A|34=1|49=EXC|56=002|52=20190529-20:48:21.344|98=0|108=30|141=Y|10=010|
8=FIX.4.4|9=110|35=A|34=1|49=002|50=002B35|52=20190529-20:49:27.145|56=EXC|43=Y|98=0|108=30|141=Y|553=002FCM001|554=002FCM001|10=091|
8=FIX.4.4|9=0067|35=A|34=1|49=EXC|56=002|52=20190529-20:49:23.552|98=0|108=30|141=Y|10=014|
8=FIX.4.4|9=0225|35=R|34=2|49=EXC|56=002|57=002B35|52=20190529-20:49:29.777|131=20190529-000000000045.00|146=1|55=TFIC13280425|762=RFQF|48=20626|22=M|54=1|38=500000000|453=3|448=001B27|447=C|452=12|448=001|447=C|452=1|448=002B35|447=C|452=37|10=035|
8=FIX.4.4|9=59|35=0|34=2|49=002|50=002B35|52=20190529-20:49:57.980|56=EXC|10=068|
8=FIX.4.4|9=0049|35=0|34=3|49=EXC|56=002|52=20190529-20:49:59.000|10=182|
8=FIX.4.4|9=68|35=1|34=3|49=002|50=002B35|52=20190529-20:50:18.981|56=EXC|112=TEST|10=078|
8=FIX.4.4|9=0058|35=0|34=4|49=EXC|56=002|52=20190529-20:50:15.354|112=TEST|10=197|
8=FIX.4.4|9=110|35=A|34=1|49=002|50=002B35|52=20190529-20:57:09.438|56=EXC|43=Y|98=0|108=30|141=Y|553=002FCM001|554=002FCM001|10=095|
8=FIX.4.4|9=0067|35=A|34=1|49=EXC|56=002|52=20190529-20:57:06.055|98=0|108=30|141=Y|10=012|
8=FIX.4.4|9=0225|35=R|34=2|49=EXC|56=002|57=002B35|52=20190529-20:57:11.166|131=20190529-000000000046.00|146=1|55=TFIC13280425|762=RFQF|48=20626|22=M|54=1|38=500000000|453=3|448=001B27|447=C|452=12|448=001|447=C|452=1|448=002B35|447=C|452=37|10=018|
8=FIX.4.4|9=59|35=0|34=2|49=002|50=002B35|52=20190529-20:57:40.372|56=EXC|10=054|
8=FIX.4.4|9=0049|35=0|34=3|49=EXC|56=002|52=20190529-20:57:41.000|10=172|
8=FIX.4.4|9=68|35=1|34=3|49=002|50=002B35|52=20190529-20:58:00.372|56=EXC|112=TEST|10=071|
8=FIX.4.4|9=0058|35=0|34=4|49=EXC|56=002|52=20190529-20:57:56.730|112=TEST|10=207|
8=FIX.4.4|9=68|35=2|34=4|49=002|50=002B35|52=20190529-20:58:02.664|56=EXC|7=2|16=0|10=185|
8=FIX.4.4|9=0256|35=R|34=2|43=Y|52=20190529-20:57:59.125|49=EXC|56=002|57=002B35|122=20190529-20:57:11.166|131=20190529-000000000046.00|146=1|55=TFIC13280425|762=RFQF|48=20626|22=M|54=1|38=500000000|453=3|448=001B27|447=C|452=12|448=001|447=C|452=1|448=002B35|447=C|452=37|10=038|
8=FIX.4.4|9=0065|35=4|34=3|43=Y|49=EXC|56=002|52=20190529-20:57:59.125|123=Y|36=5|10=198|
8=FIX.4.4|9=0054|35=4|34=5|49=EXC|56=002|52=20190529-20:57:59.126|36=6|10=157|
8=FIX.4.4|9=110|35=A|34=1|49=002|50=002B35|52=20190529-20:58:29.380|56=EXC|43=Y|98=0|108=30|141=Y|553=002FCM001|554=002FCM001|10=094|
8=FIX.4.4|9=0067|35=A|34=1|49=EXC|56=002|52=20190529-20:58:25.801|98=0|108=30|141=Y|10=013|
8=FIX.4.4|9=0225|35=R|34=2|49=EXC|56=002|57=002B35|52=20190529-20:58:31.059|131=20190529-000000000047.00|146=1|55=TFIC13280425|762=RFQF|48=20626|22=M|54=1|38=500000000|453=3|448=001B27|447=C|452=12|448=001|447=C|452=1|448=002B35|447=C|452=37|10=023|
8=FIX.4.4|9=59|35=0|34=2|49=002|50=002B35|52=20190529-20:59:00.227|56=EXC|10=051|
8=FIX.4.4|9=110|35=A|34=1|49=002|50=002B35|52=20190529-21:02:28.802|56=EXC|43=Y|98=0|108=30|141=Y|553=002FCM001|554=002FCM001|10=082|
8=FIX.4.4|9=0067|35=A|34=1|49=EXC|56=002|52=20190529-21:02:25.505|98=0|108=30|141=Y|10=004|
8=FIX.4.4|9=0225|35=R|34=2|49=EXC|56=002|57=002B35|52=20190529-21:02:30.056|131=20190529-000000000048.00|146=1|55=TFIC13280425|762=RFQF|48=20626|22=M|54=1|38=500000000|453=3|448=001B27|447=C|452=12|448=001|447=C|452=1|448=002B35|447=C|452=37|10=010|
8=FIX.4.4|9=59|35=0|34=2|49=002|50=002B35|52=20190529-21:02:59.271|56=EXC|10=053|
8=FIX.4.4|9=110|35=A|34=1|49=002|50=002B35|52=20190529-21:04:14.559|56=EXC|43=Y|98=0|108=30|141=Y|553=002FCM001|554=002FCM001|10=088|
8=FIX.4.4|9=0067|35=A|34=1|49=EXC|56=002|52=20190529-21:04:11.075|98=0|108=30|141=Y|10=003|
8=FIX.4.4|9=0225|35=R|34=2|49=EXC|56=002|57=002B35|52=20190529-21:04:15.771|131=20190529-000000000049.00|146=1|55=TFIC13280425|762=RFQF|48=20626|22=M|54=1|38=500000000|453=3|448=001B27|447=C|452=12|448=001|447=C|452=1|448=002B35|447=C|452=37|10=020|
8=FIX.4.4|9=110|35=A|34=1|49=002|50=002B35|52=20190529-21:05:02.115|56=EXC|43=Y|98=0|108=30|141=Y|553=002FCM001|554=002FCM001|10=074|
8=FIX.4.4|9=0067|35=A|34=1|49=EXC|56=002|52=20190529-21:04:58.531|98=0|108=30|141=Y|10=011|
8=FIX.4.4|9=0049|35=0|34=2|49=EXC|56=002|52=20190529-21:05:28.000|10=170|
8=FIX.4.4|9=59|35=0|34=2|49=002|50=002B35|52=20190529-21:05:32.993|56=EXC|10=058|
8=FIX.4.4|9=110|35=A|34=1|49=002|50=002B35|52=20190529-21:06:20.292|56=EXC|43=Y|98=0|108=30|141=Y|553=002FCM001|554=002FCM001|10=081|
8=FIX.4.4|9=0067|35=A|34=1|49=EXC|56=002|52=20190529-21:06:16.707|98=0|108=30|141=Y|10=012|
8=FIX.4.4|9=0225|35=R|34=2|49=EXC|56=002|57=002B35|52=20190529-21:06:28.185|131=20190529-000000000050.00|146=1|55=TFIC13280425|762=RFQF|48=20626|22=M|54=1|38=500000000|453=3|448=001B27|447=C|452=12|448=001|447=C|452=1|448=002B35|447=C|452=37|10=017|
8=FIX.4.4|9=104|35=A|34=2|49=002|50=002B35|52=20190529-21:06:38.470|56=EXC|43=Y|98=0|108=30|553=002FCM001|554=002FCM001|10=047|
8=FIX.4.4|9=0061|35=A|34=3|49=EXC|56=002|52=20190529-21:06:34.852|98=0|108=30|10=220|
8=FIX.4.4|9=59|35=0|34=2|49=002|50=002B35|52=20190529-21:06:51.153|56=EXC|10=048|
8=FIX.4.4|9=0049|35=0|34=4|49=EXC|56=002|52=20190529-21:07:04.000|10=168|
8=FIX.4.4|9=68|35=2|34=3|49=002|50=002B35|52=20190529-21:07:07.737|56=EXC|7=3|16=0|10=186|
8=FIX.4.4|9=0065|35=4|34=3|43=Y|49=EXC|56=002|52=20190529-21:07:04.067|123=Y|36=5|10=189|
8=FIX.4.4|9=0054|35=4|34=5|49=EXC|56=002|52=20190529-21:07:04.067|36=6|10=147|
8=FIX.4.4|9=197|35=S|34=4|49=002|50=002B35|52=20190529-21:07:13.639|56=EXC|55=TFIC13280425|62=20190530-22:00:00.000|117=5351583|131=20190529-000000000050.00|135=500000000|634=4|762=RFQF|453=1|448=DCV|447=C|452=10|10=047|
8=FIX.4.4|9=0292|35=AI|34=6|49=EXC|56=002|57=002B35|52=20190529-21:07:09.968|131=20190529-000000000050.00|117=5351583|453=4|448=DCV|447=C|452=10|448=001B27|447=C|452=12|448=001|447=C|452=1|448=002B35|447=C|452=37|55=TFIC13280425|762=RFQF|48=20626|22=M|54=1|634=4.000|135=500000000|62=20190530-22:00:00|297=16|10=236|
8=FIX.4.4|9=68|35=1|34=3|49=002|50=002B35|52=20190529-21:07:17.150|56=EXC|112=TEST|10=068|
8=FIX.4.4|9=110|35=A|34=1|49=002|50=002B35|52=20190529-21:07:52.799|56=EXC|43=Y|98=0|108=30|141=Y|553=002FCM001|554=002FCM001|10=099|
8=FIX.4.4|9=0067|35=A|34=1|49=EXC|56=002|52=20190529-21:07:49.175|98=0|108=30|141=Y|10=018|
8=FIX.4.4|9=0225|35=R|34=2|49=EXC|56=002|57=002B35|52=20190529-21:07:54.534|131=20190529-000000000051.00|146=1|55=TFIC13280425|762=RFQF|48=20626|22=M|54=1|38=500000000|453=3|448=001B27|447=C|452=12|448=001|447=C|452=1|448=002B35|447=C|452=37|10=016|
8=FIX.4.4|9=104|35=A|34=2|49=002|50=002B35|52=20190529-21:08:04.854|56=EXC|43=Y|98=0|108=30|553=002FCM001|554=002FCM001|10=048|
8=FIX.4.4|9=0061|35=A|34=3|49=EXC|56=002|52=20190529-21:08:01.266|98=0|108=30|10=215|
8=FIX.4.4|9=59|35=0|34=2|49=002|50=002B35|52=20190529-21:08:23.770|56=EXC|10=054|
8=FIX.4.4|9=198|35=S|34=3|49=002|50=002B35|52=20190529-21:08:28.710|56=EXC|55=TFIC13280425|62=20190530-22:00:00.000|117=28206956|131=20190529-000000000051.00|135=500000000|634=4|762=RFQF|453=1|448=DCV|447=C|452=10|10=101|
8=FIX.4.4|9=0293|35=AI|34=4|49=EXC|56=002|57=002B35|52=20190529-21:08:25.107|131=20190529-000000000051.00|117=28206956|453=4|448=DCV|447=C|452=10|448=001B27|447=C|452=12|448=001|447=C|452=1|448=002B35|447=C|452=37|55=TFIC13280425|762=RFQF|48=20626|22=M|54=1|634=4.000|135=500000000|62=20190530-22:00:00|297=16|10=020|
8=FIX.4.4|9=68|35=2|34=4|49=002|50=002B35|52=20190529-21:08:28.802|56=EXC|7=3|16=0|10=184|
8=FIX.4.4|9=0065|35=4|34=3|43=Y|49=EXC|56=002|52=20190529-21:08:25.182|123=Y|36=4|10=190|
8=FIX.4.4|9=0324|35=AI|34=4|43=Y|52=20190529-21:08:25.182|49=EXC|56=002|57=002B35|122=20190529-21:08:25.107|131=20190529-000000000051.00|117=28206956|453=4|448=DCV|447=C|452=10|448=001B27|447=C|452=12|448=001|447=C|452=1|448=002B35|447=C|452=37|55=TFIC13280425|762=RFQF|48=20626|22=M|54=1|634=4.000|135=500000000|62=20190530-22:00:00|297=16|10=024|
8=FIX.4.4|9=0054|35=4|34=5|49=EXC|56=002|52=20190529-21:08:25.182|36=6|10=149|
8=FIX.4.4|9=110|35=A|34=1|49=002|50=002B35|52=20190529-21:12:52.295|56=EXC|43=Y|98=0|108=30|141=Y|553=002FCM001|554=002FCM001|10=086|
8=FIX.4.4|9=0067|35=A|34=1|49=EXC|56=002|52=20190529-21:12:48.719|98=0|108=30|141=Y|10=017|
8=FIX.4.4|9=0225|35=R|34=2|49=EXC|56=002|57=002B35|52=20190529-21:12:54.098|131=20190529-000000000052.00|146=1|55=TFIC13280425|762=RFQF|48=20626|22=M|54=1|38=500000000|453=3|448=001B27|447=C|452=12|448=001|447=C|452=1|448=002B35|447=C|452=37|10=018|
8=FIX.4.4|9=104|35=A|34=2|49=002|50=002B35|52=20190529-21:13:01.853|56=EXC|43=Y|98=0|108=30|553=002FCM001|554=002FCM001|10=040|
8=FIX.4.4|9=0061|35=A|34=3|49=EXC|56=002|52=20190529-21:12:58.203|98=0|108=30|10=213|
8=FIX.4.4|9=198|35=S|34=3|49=002|50=002B35|52=20190529-21:13:11.917|56=EXC|55=TFIC13280425|62=20190530-22:00:00.000|117=54888552|131=20190529-000000000052.00|135=500000000|634=4|762=RFQF|453=1|448=DCV|447=C|452=10|10=106|
8=FIX.4.4|9=0293|35=AI|34=4|49=EXC|56=002|57=002B35|52=20190529-21:13:08.244|131=20190529-000000000052.00|117=54888552|453=4|448=DCV|447=C|452=10|448=001B27|447=C|452=12|448=001|447=C|452=1|448=002B35|447=C|452=37|55=TFIC13280425|762=RFQF|48=20626|22=M|54=1|634=4.000|135=500000000|62=20190530-22:00:00|297=16|10=027|
8=FIX.4.4|9=68|35=2|34=4|49=002|50=002B35|52=20190529-21:13:11.943|56=EXC|7=3|16=0|10=178|
8=FIX.4.4|9=0065|35=4|34=3|43=Y|49=EXC|56=002|52=20190529-21:13:08.269|123=Y|36=4|10=193|
8=FIX.4.4|9=0324|35=AI|34=4|43=Y|52=20190529-21:13:08.269|49=EXC|56=002|57=002B35|122=20190529-21:13:08.244|131=20190529-000000000052.00|117=54888552|453=4|448=DCV|447=C|452=10|448=001B27|447=C|452=12|448=001|447=C|452=1|448=002B35|447=C|452=37|55=TFIC13280425|762=RFQF|48=20626|22=M|54=1|634=4.000|135=500000000|62=20190530-22:00:00|297=16|10=034|
8=FIX.4.4|9=0054|35=4|34=5|49=EXC|56=002|52=20190529-21:13:08.269|36=6|10=152|
8=FIX.4.4|9=59|35=0|34=2|49=002|50=002B35|52=20190529-21:13:23.233|56=EXC|10=044|
8=FIX.4.4|9=0049|35=0|34=6|49=EXC|56=002|52=20190529-21:13:38.000|10=174|
8=FIX.4.4|9=59|35=0|34=5|49=002|50=002B35|52=20190529-21:13:42.775|56=EXC|10=059|
8=FIX.4.4|9=68|35=1|34=3|49=002|50=002B35|52=20190529-21:13:43.232|56=EXC|112=TEST|10=065|
8=FIX.4.4|9=104|35=A|34=4|49=002|50=002B35|52=20190529-21:13:53.351|56=EXC|43=Y|98=0|108=30|553=002FCM001|554=002FCM001|10=042|
8=FIX.4.4|9=104|35=A|34=5|49=002|50=002B35|52=20190529-21:14:02.809|56=EXC|43=Y|98=0|108=30|553=002FCM001|554=002FCM001|10=046|
8=FIX.4.4|9=110|35=A|34=1|49=002|50=002B35|52=20190529-21:22:38.905|56=EXC|43=Y|98=0|108=30|141=Y|553=002FCM001|554=002FCM001|10=089|
8=FIX.4.4|9=0067|35=A|34=1|49=EXC|56=002|52=20190529-21:22:35.292|98=0|108=30|141=Y|10=010|
8=FIX.4.4|9=0225|35=R|34=2|49=EXC|56=002|57=002B35|52=20190529-21:22:40.505|131=20190529-000000000053.00|146=1|55=TFIC13280425|762=RFQF|48=20626|22=M|54=1|38=500000000|453=3|448=001B27|447=C|452=12|448=001|447=C|452=1|448=002B35|447=C|452=37|10=008|
8=FIX.4.4|9=104|35=A|34=2|49=002|50=002B35|52=20190529-21:22:45.297|56=EXC|43=Y|98=0|108=30|553=002FCM001|554=002FCM001|10=050|
8=FIX.4.4|9=0061|35=A|34=3|49=EXC|56=002|52=20190529-21:22:41.705|98=0|108=30|10=213|
8=FIX.4.4|9=198|35=S|34=3|49=002|50=002B35|52=20190529-21:22:51.846|56=EXC|55=TFIC13280425|62=20190530-22:00:00.000|117=10701905|131=20190529-000000000053.00|135=500000000|634=4|762=RFQF|453=1|448=DCV|447=C|452=10|10=090|
8=FIX.4.4|9=0293|35=AI|34=4|49=EXC|56=002|57=002B35|52=20190529-21:22:48.171|131=20190529-000000000053.00|117=10701905|453=4|448=DCV|447=C|452=10|448=001B27|447=C|452=12|448=001|447=C|452=1|448=002B35|447=C|452=37|55=TFIC13280425|762=RFQF|48=20626|22=M|54=1|634=4.000|135=500000000|62=20190530-22:00:00|297=16|10=009|
8=FIX.4.4|9=68|35=2|34=4|49=002|50=002B35|52=20190529-21:22:51.877|56=EXC|7=3|16=0|10=188|
8=FIX.4.4|9=0065|35=4|34=3|43=Y|49=EXC|56=002|52=20190529-21:22:48.203|123=Y|36=4|10=185|
8=FIX.4.4|9=0324|35=AI|34=4|43=Y|52=20190529-21:22:48.203|49=EXC|56=002|57=002B35|122=20190529-21:22:48.171|131=20190529-000000000053.00|117=10701905|453=4|448=DCV|447=C|452=10|448=001B27|447=C|452=12|448=001|447=C|452=1|448=002B35|447=C|452=37|55=TFIC13280425|762=RFQF|48=20626|22=M|54=1|634=4.000|135=500000000|62=20190530-22:00:00|297=16|10=008|
8=FIX.4.4|9=0054|35=4|34=5|49=EXC|56=002|52=20190529-21:22:48.203|36=6|10=144|
8=FIX.4.4|9=110|35=A|34=1|49=002|50=002B35|52=20190529-21:23:16.583|56=EXC|43=Y|98=0|108=30|141=Y|553=002FCM001|554=002FCM001|10=088|
8=FIX.4.4|9=0067|35=A|34=1|49=EXC|56=002|52=20190529-21:23:12.983|98=0|108=30|141=Y|10=013|
8=FIX.4.4|9=0225|35=R|34=2|49=EXC|56=002|57=002B35|52=20190529-21:23:18.099|131=20190529-000000000054.00|146=1|55=TFIC13280425|762=RFQF|48=20626|22=M|54=1|38=500000000|453=3|448=001B27|447=C|452=12|448=001|447=C|452=1|448=002B35|447=C|452=37|10=023|
8=FIX.4.4|9=104|35=A|34=2|49=002|50=002B35|52=20190529-21:23:22.907|56=EXC|43=Y|98=0|108=30|553=002FCM001|554=002FCM001|10=044|
8=FIX.4.4|9=0061|35=A|34=3|49=EXC|56=002|52=20190529-21:23:19.360|98=0|108=30|10=216|
8=FIX.4.4|9=198|35=S|34=3|49=002|50=002B35|52=20190529-21:23:29.897|56=EXC|55=TFIC13280425|62=20190530-22:00:00.000|117=17840653|131=20190529-000000000054.00|135=500000000|634=4|762=RFQF|453=1|448=DCV|447=C|452=10|10=114|
8=FIX.4.4|9=0293|35=AI|34=4|49=EXC|56=002|57=002B35|52=20190529-21:23:26.221|131=20190529-000000000054.00|117=17840653|453=4|448=DCV|447=C|452=10|448=001B27|447=C|452=12|448=001|447=C|452=1|448=002B35|447=C|452=37|55=TFIC13280425|762=RFQF|48=20626|22=M|54=1|634=4.000|135=500000000|62=20190530-22:00:00|297=16|10=014|
8=FIX.4.4|9=68|35=2|34=4|49=002|50=002B35|52=20190529-21:23:30.599|56=EXC|7=3|16=0|10=187|
8=FIX.4.4|9=0065|35=4|34=3|43=Y|49=EXC|56=002|52=20190529-21:23:27.031|123=Y|36=4|10=182|
8=FIX.4.4|9=0324|35=AI|34=4|43=Y|52=20190529-21:23:27.031|49=EXC|56=002|57=002B35|122=20190529-21:23:26.221|131=20190529-000000000054.00|117=17840653|453=4|448=DCV|447=C|452=10|448=001B27|447=C|452=12|448=001|447=C|452=1|448=002B35|447=C|452=37|55=TFIC13280425|762=RFQF|48=20626|22=M|54=1|634=4.000|135=500000000|62=20190530-22:00:00|297=16|10=010|
8=FIX.4.4|9=0054|35=4|34=5|49=EXC|56=002|52=20190529-21:23:27.031|36=6|10=141|
8=FIX.4.4|9=110|35=A|34=1|49=002|50=002B35|52=20190529-21:24:48.227|56=EXC|43=Y|98=0|108=30|141=Y|553=002FCM001|554=002FCM001|10=089|
8=FIX.4.4|9=0067|35=A|34=1|49=EXC|56=002|52=20190529-21:24:44.638|98=0|108=30|141=Y|10=016|
8=FIX.4.4|9=0225|35=R|34=2|49=EXC|56=002|57=002B35|52=20190529-21:24:49.929|131=20190529-000000000055.00|146=1|55=TFIC13280425|762=RFQF|48=20626|22=M|54=1|38=500000000|453=3|448=001B27|447=C|452=12|448=001|447=C|452=1|448=002B35|447=C|452=37|10=031|
8=FIX.4.4|9=104|35=A|34=2|49=002|50=002B35|52=20190529-21:24:54.715|56=EXC|43=Y|98=0|108=30|553=002FCM001|554=002FCM001|10=047|
8=FIX.4.4|9=0061|35=A|34=3|49=EXC|56=002|52=20190529-21:24:51.122|98=0|108=30|10=209|
8=FIX.4.4|9=198|35=S|34=3|49=002|50=002B35|52=20190529-21:25:00.942|56=EXC|55=TFIC13280425|62=20190530-22:00:00.000|117=59739732|131=20190529-000000000055.00|135=500000000|634=4|762=RFQF|453=1|448=DCV|447=C|452=10|10=108|
8=FIX.4.4|9=0293|35=AI|34=4|49=EXC|56=002|57=002B35|52=20190529-21:24:57.266|131=20190529-000000000055.00|117=59739732|453=4|448=DCV|447=C|452=10|448=001B27|447=C|452=12|448=001|447=C|452=1|448=002B35|447=C|452=37|55=TFIC13280425|762=RFQF|48=20626|22=M|54=1|634=4.000|135=500000000|62=20190530-22:00:00|297=16|10=040|
8=FIX.4.4|9=68|35=2|34=4|49=002|50=002B35|52=20190529-21:25:00.969|56=EXC|7=3|16=0|10=187|
8=FIX.4.4|9=0065|35=4|34=3|43=Y|49=EXC|56=002|52=20190529-21:24:57.291|123=Y|36=4|10=194|
8=FIX.4.4|9=0324|35=AI|34=4|43=Y|52=20190529-21:24:57.291|49=EXC|56=002|57=002B35|122=20190529-21:24:57.266|131=20190529-000000000055.00|117=59739732|453=4|448=DCV|447=C|452=10|448=001B27|447=C|452=12|448=001|447=C|452=1|448=002B35|447=C|452=37|55=TFIC13280425|762=RFQF|48=20626|22=M|54=1|634=4.000|135=500000000|62=20190530-22:00:00|297=16|10=048|
8=FIX.4.4|9=0054|35=4|34=5|49=EXC|56=002|52=20190529-21:24:57.291|36=6|10=153|
8=FIX.4.4|9=110|35=A|34=1|49=002|50=002B35|52=20190529-21:25:38.325|56=EXC|43=Y|98=0|108=30|141=Y|553=002FCM001|554=002FCM001|10=088|
8=FIX.4.4|9=0067|35=A|34=1|49=EXC|56=002|52=20190529-21:25:34.749|98=0|108=30|141=Y|10=019|
8=FIX.4.4|9=0225|35=R|34=2|49=EXC|56=002|57=002B35|52=20190529-21:25:40.216|131=20190529-000000000056.00|146=1|55=TFIC13280425|762=RFQF|48=20626|22=M|54=1|38=500000000|453=3|448=001B27|447=C|452=12|448=001|447=C|452=1|448=002B35|447=C|452=37|10=013|
8=FIX.4.4|9=104|35=A|34=2|49=002|50=002B35|52=20190529-21:25:50.666|56=EXC|43=Y|98=0|108=30|553=002FCM001|554=002FCM001|10=049|
8=FIX.4.4|9=0061|35=A|34=3|49=EXC|56=002|52=20190529-21:25:47.014|98=0|108=30|10=215|
8=FIX.4.4|9=198|35=S|34=3|49=002|50=002B35|52=20190529-21:25:59.764|56=EXC|55=TFIC13280425|62=20190530-22:00:00.000|117=58883990|131=20190529-000000000056.00|135=500000000|634=4|762=RFQF|453=1|448=DCV|447=C|452=10|10=130|
8=FIX.4.4|9=0293|35=AI|34=4|49=EXC|56=002|57=002B35|52=20190529-21:25:56.088|131=20190529-000000000056.00|117=58883990|453=4|448=DCV|447=C|452=10|448=001B27|447=C|452=12|448=001|447=C|452=1|448=002B35|447=C|452=37|55=TFIC13280425|762=RFQF|48=20626|22=M|54=1|634=4.000|135=500000000|62=20190530-22:00:00|297=16|10=048|
8=FIX.4.4|9=68|35=2|34=4|49=002|50=002B35|52=20190529-21:25:59.801|56=EXC|7=3|16=0|10=186|
8=FIX.4.4|9=0065|35=4|34=3|43=Y|49=EXC|56=002|52=20190529-21:25:56.124|123=Y|36=4|10=189|
8=FIX.4.4|9=0324|35=AI|34=4|43=Y|52=20190529-21:25:56.124|49=EXC|56=002|57=002B35|122=20190529-21:25:56.088|131=20190529-000000000056.00|117=58883990|453=4|448=DCV|447=C|452=10|448=001B27|447=C|452=12|448=001|447=C|452=1|448=002B35|447=C|452=37|55=TFIC13280425|762=RFQF|48=20626|22=M|54=1|634=4.000|135=500000000|62=20190530-22:00:00|297=16|10=051|
8=FIX.4.4|9=0054|35=4|34=5|49=EXC|56=002|52=20190529-21:25:56.124|36=6|10=148|
8=FIX.4.4|9=59|35=0|34=2|49=002|50=002B35|52=20190529-21:26:09.242|56=EXC|10=052|
8=FIX.4.4|9=68|35=1|34=3|49=002|50=002B35|52=20190529-21:26:29.240|56=EXC|112=TEST|10=072|
8=FIX.4.4|9=0049|35=0|34=6|49=EXC|56=002|52=20190529-21:26:26.000|10=175|
8=FIX.4.4|9=59|35=0|34=5|49=002|50=002B35|52=20190529-21:26:30.615|56=EXC|10=053|
8=FIX.4.4|9=110|35=A|34=1|49=002|50=002B35|52=20190529-21:36:45.287|56=EXC|43=Y|98=0|108=30|141=Y|553=002FCM001|554=002FCM001|10=095|
8=FIX.4.4|9=0067|35=A|34=1|49=EXC|56=002|52=20190529-21:36:41.706|98=0|108=30|141=Y|10=012|
8=FIX.4.4|9=0225|35=R|34=2|49=EXC|56=002|57=002B35|52=20190529-21:36:47.365|131=20190529-000000000057.00|146=1|55=TFIC13280425|762=RFQF|48=20626|22=M|54=1|38=500000000|453=3|448=001B27|447=C|452=12|448=001|447=C|452=1|448=002B35|447=C|452=37|10=028|
8=FIX.4.4|9=104|35=A|34=2|49=002|50=002B35|52=20190529-21:36:52.273|56=EXC|43=Y|98=0|108=30|553=002FCM001|554=002FCM001|10=047|
8=FIX.4.4|9=0061|35=A|34=3|49=EXC|56=002|52=20190529-21:36:48.867|98=0|108=30|10=234|
8=FIX.4.4|9=198|35=S|34=3|49=002|50=002B35|52=20190529-21:36:59.566|56=EXC|55=TFIC13280425|62=20190530-22:00:00.000|117=25569453|131=20190529-000000000057.00|135=500000000|634=4|762=RFQF|453=1|448=DCV|447=C|452=10|10=122|
8=FIX.4.4|9=0293|35=AI|34=4|49=EXC|56=002|57=002B35|52=20190529-21:36:55.946|131=20190529-000000000057.00|117=25569453|453=4|448=DCV|447=C|452=10|448=001B27|447=C|452=12|448=001|447=C|452=1|448=002B35|447=C|452=37|55=TFIC13280425|762=RFQF|48=20626|22=M|54=1|634=4.000|135=500000000|62=20190530-22:00:00|297=16|10=042|
8=FIX.4.4|9=68|35=2|34=4|49=002|50=002B35|52=20190529-21:36:59.651|56=EXC|7=3|16=0|10=191|
8=FIX.4.4|9=0065|35=4|34=3|43=Y|49=EXC|56=002|52=20190529-21:36:55.968|123=Y|36=4|10=206|
8=FIX.4.4|9=0324|35=AI|34=4|43=Y|52=20190529-21:36:55.968|49=EXC|56=002|57=002B35|122=20190529-21:36:55.946|131=20190529-000000000057.00|117=25569453|453=4|448=DCV|447=C|452=10|448=001B27|447=C|452=12|448=001|447=C|452=1|448=002B35|447=C|452=37|55=TFIC13280425|762=RFQF|48=20626|22=M|54=1|634=4.000|135=500000000|62=20190530-22:00:00|297=16|10=062|
8=FIX.4.4|9=0054|35=4|34=5|49=EXC|56=002|52=20190529-21:36:55.968|36=6|10=165|
8=FIX.4.4|9=110|35=A|34=1|49=002|50=002B35|52=20190529-21:51:05.720|56=EXC|43=Y|98=0|108=30|141=Y|553=002FCM001|554=002FCM001|10=080|
8=FIX.4.4|9=0067|35=A|34=1|49=EXC|56=002|52=20190529-21:51:02.132|98=0|108=30|141=Y|10=255|
8=FIX.4.4|9=0225|35=R|34=2|49=EXC|56=002|57=002B35|52=20190529-21:51:07.363|131=20190529-000000000058.00|146=1|55=TFIC13280425|762=RFQF|48=20626|22=M|54=1|38=500000000|453=3|448=001B27|447=C|452=12|448=001|447=C|452=1|448=002B35|447=C|452=37|10=020|
8=FIX.4.4|9=59|35=0|34=2|49=002|50=002B35|52=20190529-21:51:36.598|56=EXC|10=064|
8=FIX.4.4|9=110|35=A|34=1|49=002|50=002B35|52=20190529-21:52:24.304|56=EXC|43=Y|98=0|108=30|141=Y|553=002FCM001|554=002FCM001|10=080|
8=FIX.4.4|9=0067|35=A|34=1|49=EXC|56=002|52=20190529-21:52:20.714|98=0|108=30|141=Y|10=006|
8=FIX.4.4|9=0225|35=R|34=2|49=EXC|56=002|57=002B35|52=20190529-21:52:26.130|131=20190529-000000000059.00|146=1|55=TFIC13280425|762=RFQF|48=20626|22=M|54=1|38=500000000|453=3|448=001B27|447=C|452=12|448=001|447=C|452=1|448=002B35|447=C|452=37|10=015|
8=FIX.4.4|9=59|35=0|34=2|49=002|50=002B35|52=20190529-21:52:55.091|56=EXC|10=054|
8=FIX.4.4|9=0049|35=0|34=3|49=EXC|56=002|52=20190529-21:52:56.000|10=174|
8=FIX.4.4|9=68|35=2|34=3|49=002|50=002B35|52=20190529-21:52:59.713|56=EXC|7=2|16=0|10=186|
8=FIX.4.4|9=0256|35=R|34=2|43=Y|52=20190529-21:52:56.027|49=EXC|56=002|57=002B35|122=20190529-21:52:26.130|131=20190529-000000000059.00|146=1|55=TFIC13280425|762=RFQF|48=20626|22=M|54=1|38=500000000|453=3|448=001B27|447=C|452=12|448=001|447=C|452=1|448=002B35|447=C|452=37|10=029|
8=FIX.4.4|9=0065|35=4|34=3|43=Y|49=EXC|56=002|52=20190529-21:52:56.027|123=Y|36=4|10=191|
8=FIX.4.4|9=0054|35=4|34=4|49=EXC|56=002|52=20190529-21:52:56.027|36=5|10=148|
8=FIX.4.4|9=68|35=2|34=4|49=002|50=002B35|52=20190529-21:52:59.756|56=EXC|7=2|16=0|10=194|
8=FIX.4.4|9=0256|35=R|34=2|43=Y|52=20190529-21:52:56.126|49=EXC|56=002|57=002B35|122=20190529-21:52:26.130|131=20190529-000000000059.00|146=1|55=TFIC13280425|762=RFQF|48=20626|22=M|54=1|38=500000000|453=3|448=001B27|447=C|452=12|448=001|447=C|452=1|448=002B35|447=C|452=37|10=029|
8=FIX.4.4|9=0065|35=4|34=3|43=Y|49=EXC|56=002|52=20190529-21:52:56.126|123=Y|36=5|10=192|
8=FIX.4.4|9=0054|35=4|34=5|49=EXC|56=002|52=20190529-21:52:56.126|36=6|10=150|
8=FIX.4.4|9=110|35=A|34=1|49=002|50=002B35|52=20190529-21:54:46.004|56=EXC|43=Y|98=0|108=30|141=Y|553=002FCM001|554=002FCM001|10=083|
8=FIX.4.4|9=0067|35=A|34=1|49=EXC|56=002|52=20190529-21:54:42.415|98=0|108=30|141=Y|10=010|
8=FIX.4.4|9=0225|35=R|34=2|49=EXC|56=002|57=002B35|52=20190529-21:54:47.783|131=20190529-000000000060.00|146=1|55=TFIC13280425|762=RFQF|48=20626|22=M|54=1|38=500000000|453=3|448=001B27|447=C|452=12|448=001|447=C|452=1|448=002B35|447=C|452=37|10=026|
8=FIX.4.4|9=104|35=A|34=2|49=002|50=002B35|52=20190529-21:54:52.684|56=EXC|43=Y|98=0|108=30|553=002FCM001|554=002FCM001|10=053|
8=FIX.4.4|9=0061|35=A|34=3|49=EXC|56=002|52=20190529-21:54:49.023|98=0|108=30|10=219|
8=FIX.4.4|9=198|35=S|34=3|49=002|50=002B35|52=20190529-21:55:00.421|56=EXC|55=TFIC13280425|62=20190530-22:00:00.000|117=15753002|131=20190529-000000000060.00|135=500000000|634=4|762=RFQF|453=1|448=DCV|447=C|452=10|10=077|
8=FIX.4.4|9=0293|35=AI|34=4|49=EXC|56=002|57=002B35|52=20190529-21:54:56.732|131=20190529-000000000060.00|117=15753002|453=4|448=DCV|447=C|452=10|448=001B27|447=C|452=12|448=001|447=C|452=1|448=002B35|447=C|452=37|55=TFIC13280425|762=RFQF|48=20626|22=M|54=1|634=4.000|135=500000000|62=20190530-22:00:00|297=16|10=014|
8=FIX.4.4|9=68|35=2|34=4|49=002|50=002B35|52=20190529-21:55:00.450|56=EXC|7=3|16=0|10=175|
8=FIX.4.4|9=0065|35=4|34=3|43=Y|49=EXC|56=002|52=20190529-21:54:56.881|123=Y|36=4|10=201|
8=FIX.4.4|9=0324|35=AI|34=4|43=Y|52=20190529-21:54:56.881|49=EXC|56=002|57=002B35|122=20190529-21:54:56.732|131=20190529-000000000060.00|117=15753002|453=4|448=DCV|447=C|452=10|448=001B27|447=C|452=12|448=001|447=C|452=1|448=002B35|447=C|452=37|55=TFIC13280425|762=RFQF|48=20626|22=M|54=1|634=4.000|135=500000000|62=20190530-22:00:00|297=16|10=029|
8=FIX.4.4|9=0054|35=4|34=5|49=EXC|56=002|52=20190529-21:54:56.881|36=6|10=160|
8=FIX.4.4|9=104|35=A|34=5|49=002|50=002B35|52=20190529-21:55:01.853|56=EXC|43=Y|98=0|108=30|553=002FCM001|554=002FCM001|10=049|
8=FIX.4.4|9=0061|35=A|34=6|49=EXC|56=002|52=20190529-21:54:58.423|98=0|108=30|10=226|
8=FIX.4.4|9=0225|35=R|34=7|49=EXC|56=002|57=002B35|52=20190529-21:55:04.347|131=20190529-000000000061.00|146=1|55=TFIC13280425|762=RFQF|48=20626|22=M|54=1|38=500000000|453=3|448=001B27|447=C|452=12|448=001|447=C|452=1|448=002B35|447=C|452=37|10=022|
8=FIX.4.4|9=104|35=A|34=6|49=002|50=002B35|52=20190529-21:55:09.266|56=EXC|43=Y|98=0|108=30|553=002FCM001|554=002FCM001|10=056|
8=FIX.4.4|9=0061|35=A|34=8|49=EXC|56=002|52=20190529-21:55:05.664|98=0|108=30|10=228|
8=FIX.4.4|9=110|35=A|34=1|49=002|50=002B35|52=20190529-21:58:54.920|56=EXC|43=Y|98=0|108=30|141=Y|553=002FCM001|554=002FCM001|10=093|
8=FIX.4.4|9=0067|35=A|34=1|49=EXC|56=002|52=20190529-21:58:51.636|98=0|108=30|141=Y|10=019|
8=FIX.4.4|9=0225|35=R|34=2|49=EXC|56=002|57=002B35|52=20190529-21:58:56.727|131=20190529-000000000062.00|146=1|55=TFIC13280425|762=RFQF|48=20626|22=M|54=1|38=500000000|453=3|448=001B27|447=C|452=12|448=001|447=C|452=1|448=002B35|447=C|452=37|10=030|
8=FIX.4.4|9=104|35=A|34=2|49=002|50=002B35|52=20190529-21:59:01.623|56=EXC|43=Y|98=0|108=30|553=002FCM001|554=002FCM001|10=045|
8=FIX.4.4|9=0061|35=A|34=3|49=EXC|56=002|52=20190529-21:58:57.957|98=0|108=30|10=238|
8=FIX.4.4|9=198|35=S|34=3|49=002|50=002B35|52=20190529-21:59:08.383|56=EXC|55=TFIC13280425|62=20190530-22:00:00.000|117=50136780|131=20190529-000000000062.00|135=500000000|634=4|762=RFQF|453=1|448=DCV|447=C|452=10|10=105|
8=FIX.4.4|9=0293|35=AI|34=4|49=EXC|56=002|57=002B35|52=20190529-21:59:04.694|131=20190529-000000000062.00|117=50136780|453=4|448=DCV|447=C|452=10|448=001B27|447=C|452=12|448=001|447=C|452=1|448=002B35|447=C|452=37|55=TFIC13280425|762=RFQF|48=20626|22=M|54=1|634=4.000|135=500000000|62=20190530-22:00:00|297=16|10=028|
8=FIX.4.4|9=68|35=2|34=4|49=002|50=002B35|52=20190529-21:59:08.469|56=EXC|7=3|16=0|10=197|
8=FIX.4.4|9=0065|35=4|34=3|43=Y|49=EXC|56=002|52=20190529-21:59:04.781|123=Y|36=4|10=198|
8=FIX.4.4|9=0324|35=AI|34=4|43=Y|52=20190529-21:59:04.781|49=EXC|56=002|57=002B35|122=20190529-21:59:04.694|131=20190529-000000000062.00|117=50136780|453=4|448=DCV|447=C|452=10|448=001B27|447=C|452=12|448=001|447=C|452=1|448=002B35|447=C|452=37|55=TFIC13280425|762=RFQF|48=20626|22=M|54=1|634=4.000|135=500000000|62=20190530-22:00:00|297=16|10=040|
8=FIX.4.4|9=0054|35=4|34=5|49=EXC|56=002|52=20190529-21:59:04.782|36=6|10=158|
8=FIX.4.4|9=104|35=A|34=5|49=002|50=002B35|52=20190529-21:59:09.731|56=EXC|43=Y|98=0|108=30|553=002FCM001|554=002FCM001|10=056|
8=FIX.4.4|9=0061|35=A|34=6|49=EXC|56=002|52=20190529-21:59:06.172|98=0|108=30|10=225|
8=FIX.4.4|9=110|35=A|34=1|49=002|50=002B35|52=20190529-22:04:01.601|56=EXC|43=Y|98=0|108=30|141=Y|553=002FCM001|554=002FCM001|10=073|
8=FIX.4.4|9=0067|35=A|34=1|49=EXC|56=002|52=20190529-22:03:57.972|98=0|108=30|141=Y|10=019|
8=FIX.4.4|9=0225|35=R|34=2|49=EXC|56=002|57=002B35|52=20190529-22:04:03.316|131=20190529-000000000063.00|146=1|55=TFIC13280425|762=RFQF|48=20626|22=M|54=1|38=500000000|453=3|448=001B27|447=C|452=12|448=001|447=C|452=1|448=002B35|447=C|452=37|10=009|
8=FIX.4.4|9=104|35=A|34=2|49=002|50=002B35|52=20190529-22:04:08.126|56=EXC|43=Y|98=0|108=30|553=002FCM001|554=002FCM001|10=041|
8=FIX.4.4|9=0061|35=A|34=3|49=EXC|56=002|52=20190529-22:04:04.492|98=0|108=30|10=216|
8=FIX.4.4|9=198|35=S|34=3|49=002|50=002B35|52=20190529-22:04:14.612|56=EXC|55=TFIC13280425|62=20190530-22:00:00.000|117=60913378|131=20190529-000000000063.00|135=500000000|634=4|762=RFQF|453=1|448=DCV|447=C|452=10|10=096|
8=FIX.4.4|9=0293|35=AI|34=4|49=EXC|56=002|57=002B35|52=20190529-22:04:10.983|131=20190529-000000000063.00|117=60913378|453=4|448=DCV|447=C|452=10|448=001B27|447=C|452=12|448=001|447=C|452=1|448=002B35|447=C|452=37|55=TFIC13280425|762=RFQF|48=20626|22=M|54=1|634=4.000|135=500000000|62=20190530-22:00:00|297=16|10=025|
8=FIX.4.4|9=68|35=2|34=4|49=002|50=002B35|52=20190529-22:04:14.699|56=EXC|7=3|16=0|10=190|
8=FIX.4.4|9=0065|35=4|34=3|43=Y|49=EXC|56=002|52=20190529-22:04:11.007|123=Y|36=4|10=178|
8=FIX.4.4|9=0324|35=AI|34=4|43=Y|52=20190529-22:04:11.007|49=EXC|56=002|57=002B35|122=20190529-22:04:10.983|131=20190529-000000000063.00|117=60913378|453=4|448=DCV|447=C|452=10|448=001B27|447=C|452=12|448=001|447=C|452=1|448=002B35|447=C|452=37|55=TFIC13280425|762=RFQF|48=20626|22=M|54=1|634=4.000|135=500000000|62=20190530-22:00:00|297=16|10=017|
8=FIX.4.4|9=0054|35=4|34=5|49=EXC|56=002|52=20190529-22:04:11.008|36=6|10=138|
8=FIX.4.4|9=104|35=A|34=5|49=002|50=002B35|52=20190529-22:04:15.794|56=EXC|43=Y|98=0|108=30|553=002FCM001|554=002FCM001|10=053|
8=FIX.4.4|9=0061|35=A|34=6|49=EXC|56=002|52=20190529-22:04:12.187|98=0|108=30|10=219|
8=FIX.4.4|9=110|35=A|34=1|49=002|50=002B35|52=20190529-22:05:02.899|56=EXC|43=Y|98=0|108=30|141=Y|553=002FCM001|554=002FCM001|10=094|
8=FIX.4.4|9=0067|35=A|34=1|49=EXC|56=002|52=20190529-22:04:59.336|98=0|108=30|141=Y|10=016|
8=FIX.4.4|9=0225|35=R|34=2|49=EXC|56=002|57=002B35|52=20190529-22:05:04.622|131=20190529-000000000064.00|146=1|55=TFIC13280425|762=RFQF|48=20626|22=M|54=1|38=500000000|453=3|448=001B27|447=C|452=12|448=001|447=C|452=1|448=002B35|447=C|452=37|10=012|
8=FIX.4.4|9=104|35=A|34=2|49=002|50=002B35|52=20190529-22:05:09.551|56=EXC|43=Y|98=0|108=30|553=002FCM001|554=002FCM001|10=045|
8=FIX.4.4|9=0061|35=A|34=3|49=EXC|56=002|52=20190529-22:05:05.952|98=0|108=30|10=219|
8=FIX.4.4|9=197|35=S|34=3|49=002|50=002B35|52=20190529-22:05:16.936|56=EXC|55=TFIC13280425|62=20190530-22:00:00.000|117=9376496|131=20190529-000000000064.00|135=500000000|634=4|762=RFQF|453=1|448=DCV|447=C|452=10|10=067|
8=FIX.4.4|9=0292|35=AI|34=4|49=EXC|56=002|57=002B35|52=20190529-22:05:13.245|131=20190529-000000000064.00|117=9376496|453=4|448=DCV|447=C|452=10|448=001B27|447=C|452=12|448=001|447=C|452=1|448=002B35|447=C|452=37|55=TFIC13280425|762=RFQF|48=20626|22=M|54=1|634=4.000|135=500000000|62=20190530-22:00:00|297=16|10=235|
8=FIX.4.4|9=68|35=2|34=4|49=002|50=002B35|52=20190529-22:05:16.967|56=EXC|7=3|16=0|10=191|
8=FIX.4.4|9=0065|35=4|34=3|43=Y|49=EXC|56=002|52=20190529-22:05:13.392|123=Y|36=4|10=188|
8=FIX.4.4|9=0323|35=AI|34=4|43=Y|52=20190529-22:05:13.392|49=EXC|56=002|57=002B35|122=20190529-22:05:13.245|131=20190529-000000000064.00|117=9376496|453=4|448=DCV|447=C|452=10|448=001B27|447=C|452=12|448=001|447=C|452=1|448=002B35|447=C|452=37|55=TFIC13280425|762=RFQF|48=20626|22=M|54=1|634=4.000|135=500000000|62=20190530-22:00:00|297=16|10=237|
8=FIX.4.4|9=0054|35=4|34=5|49=EXC|56=002|52=20190529-22:05:13.392|36=6|10=147|
8=FIX.4.4|9=104|35=A|34=5|49=002|50=002B35|52=20190529-22:05:18.159|56=EXC|43=Y|98=0|108=30|553=002FCM001|554=002FCM001|10=052|
8=FIX.4.4|9=0061|35=A|34=6|49=EXC|56=002|52=20190529-22:05:14.613|98=0|108=30|10=216|
8=FIX.4.4|9=110|35=A|34=1|49=002|50=002B35|52=20190529-22:06:20.424|56=EXC|43=Y|98=0|108=30|141=Y|553=002FCM001|554=002FCM001|10=079|
8=FIX.4.4|9=0067|35=A|34=1|49=EXC|56=002|52=20190529-22:06:16.837|98=0|108=30|141=Y|10=017|
8=FIX.4.4|9=0225|35=R|34=2|49=EXC|56=002|57=002B35|52=20190529-22:06:22.099|131=20190529-000000000065.00|146=1|55=TFIC13280425|762=RFQF|48=20626|22=M|54=1|38=500000000|453=3|448=001B27|447=C|452=12|448=001|447=C|452=1|448=002B35|447=C|452=37|10=022|
8=FIX.4.4|9=104|35=A|34=2|49=002|50=002B35|52=20190529-22:06:26.987|56=EXC|43=Y|98=0|108=30|553=002FCM001|554=002FCM001|10=058|
8=FIX.4.4|9=0061|35=A|34=3|49=EXC|56=002|52=20190529-22:06:23.320|98=0|108=30|10=209|
8=FIX.4.4|9=198|35=S|34=3|49=002|50=002B35|52=20190529-22:06:48.369|56=EXC|55=TFIC13280425|62=20190530-22:00:00.000|117=39821808|131=20190529-000000000065.00|135=500000000|634=4|762=RFQF|453=1|448=DCV|447=C|452=10|10=118|
8=FIX.4.4|9=0293|35=AI|34=4|49=EXC|56=002|57=002B35|52=20190529-22:06:44.739|131=20190529-000000000065.00|117=39821808|453=4|448=DCV|447=C|452=10|448=001B27|447=C|452=12|448=001|447=C|452=1|448=002B35|447=C|452=37|55=TFIC13280425|762=RFQF|48=20626|22=M|54=1|634=4.000|135=500000000|62=20190530-22:00:00|297=16|10=037|
8=FIX.4.4|9=68|35=2|34=4|49=002|50=002B35|52=20190529-22:06:48.462|56=EXC|7=3|16=0|10=187|
8=FIX.4.4|9=0065|35=4|34=3|43=Y|49=EXC|56=002|52=20190529-22:06:44.778|123=Y|36=4|10=201|
8=FIX.4.4|9=0324|35=AI|34=4|43=Y|52=20190529-22:06:44.778|49=EXC|56=002|57=002B35|122=20190529-22:06:44.739|131=20190529-000000000065.00|117=39821808|453=4|448=DCV|447=C|452=10|448=001B27|447=C|452=12|448=001|447=C|452=1|448=002B35|447=C|452=37|55=TFIC13280425|762=RFQF|48=20626|22=M|54=1|634=4.000|135=500000000|62=20190530-22:00:00|297=16|10=052|
8=FIX.4.4|9=0054|35=4|34=5|49=EXC|56=002|52=20190529-22:06:44.779|36=6|10=161|
8=FIX.4.4|9=104|35=A|34=5|49=002|50=002B35|52=20190529-22:06:49.662|56=EXC|43=Y|98=0|108=30|553=002FCM001|554=002FCM001|10=056|
8=FIX.4.4|9=0061|35=A|34=6|49=EXC|56=002|52=20190529-22:06:45.992|98=0|108=30|10=231|
8=FIX.4.4|9=110|35=A|34=1|49=002|50=002B35|52=20190529-22:08:50.685|56=EXC|43=Y|98=0|108=30|141=Y|553=002FCM001|554=002FCM001|10=093|
8=FIX.4.4|9=0067|35=A|34=1|49=EXC|56=002|52=20190529-22:08:47.133|98=0|108=30|141=Y|10=012|
8=FIX.4.4|9=0225|35=R|34=2|49=EXC|56=002|57=002B35|52=20190529-22:08:52.496|131=20190529-000000000066.00|146=1|55=TFIC13280425|762=RFQF|48=20626|22=M|54=1|38=500000000|453=3|448=001B27|447=C|452=12|448=001|447=C|452=1|448=002B35|447=C|452=37|10=029|
8=FIX.4.4|9=104|35=A|34=2|49=002|50=002B35|52=20190529-22:09:12.417|56=EXC|43=Y|98=0|108=30|553=002FCM001|554=002FCM001|10=044|
8=FIX.4.4|9=0061|35=A|34=3|49=EXC|56=002|52=20190529-22:09:08.754|98=0|108=30|10=226|
8=FIX.4.4|9=198|35=S|34=3|49=002|50=002B35|52=20190529-22:09:19.173|56=EXC|55=TFIC13280425|62=20190530-22:00:00.000|117=36354505|131=20190529-000000000066.00|135=500000000|634=4|762=RFQF|453=1|448=DCV|447=C|452=10|10=105|
8=FIX.4.4|9=0293|35=AI|34=4|49=EXC|56=002|57=002B35|52=20190529-22:09:15.481|131=20190529-000000000066.00|117=36354505|453=4|448=DCV|447=C|452=10|448=001B27|447=C|452=12|448=001|447=C|452=1|448=002B35|447=C|452=37|55=TFIC13280425|762=RFQF|48=20626|22=M|54=1|634=4.000|135=500000000|62=20190530-22:00:00|297=16|10=025|
8=FIX.4.4|9=68|35=2|34=4|49=002|50=002B35|52=20190529-22:09:19.244|56=EXC|7=3|16=0|10=186|
8=FIX.4.4|9=0065|35=4|34=3|43=Y|49=EXC|56=002|52=20190529-22:09:15.554|123=Y|36=4|10=194|
8=FIX.4.4|9=0324|35=AI|34=4|43=Y|52=20190529-22:09:15.554|49=EXC|56=002|57=002B35|122=20190529-22:09:15.481|131=20190529-000000000066.00|117=36354505|453=4|448=DCV|447=C|452=10|448=001B27|447=C|452=12|448=001|447=C|452=1|448=002B35|447=C|452=37|55=TFIC13280425|762=RFQF|48=20626|22=M|54=1|634=4.000|135=500000000|62=20190530-22:00:00|297=16|10=033|
8=FIX.4.4|9=0054|35=4|34=5|49=EXC|56=002|52=20190529-22:09:15.554|36=6|10=153|
8=FIX.4.4|9=104|35=A|34=5|49=002|50=002B35|52=20190529-22:09:20.391|56=EXC|43=Y|98=0|108=30|553=002FCM001|554=002FCM001|10=047|
8=FIX.4.4|9=0061|35=A|34=6|49=EXC|56=002|52=20190529-22:09:16.764|98=0|108=30|10=229|
8=FIX.4.4|9=110|35=A|34=1|49=002|50=002B35|52=20190529-22:12:27.918|56=EXC|43=Y|98=0|108=30|141=Y|553=002FCM001|554=002FCM001|10=091|
8=FIX.4.4|9=0067|35=A|34=1|49=EXC|56=002|52=20190529-22:12:24.349|98=0|108=30|141=Y|10=011|
8=FIX.4.4|9=0225|35=R|34=2|49=EXC|56=002|57=002B35|52=20190529-22:12:29.474|131=20190529-000000000067.00|146=1|55=TFIC13280425|762=RFQF|48=20626|22=M|54=1|38=500000000|453=3|448=001B27|447=C|452=12|448=001|447=C|452=1|448=002B35|447=C|452=37|10=025|
8=FIX.4.4|9=104|35=A|34=2|49=002|50=002B35|52=20190529-22:12:49.315|56=EXC|43=Y|98=0|108=30|553=002FCM001|554=002FCM001|10=045|
8=FIX.4.4|9=0061|35=A|34=3|49=EXC|56=002|52=20190529-22:12:45.699|98=0|108=30|10=229|
8=FIX.4.4|9=198|35=S|34=3|49=002|50=002B35|52=20190529-22:12:55.423|56=EXC|55=TFIC13280425|62=20190530-22:00:00.000|117=21373116|131=20190529-000000000067.00|135=500000000|634=4|762=RFQF|453=1|448=DCV|447=C|452=10|10=091|
8=FIX.4.4|9=0293|35=AI|34=4|49=EXC|56=002|57=002B35|52=20190529-22:12:51.757|131=20190529-000000000067.00|117=21373116|453=4|448=DCV|447=C|452=10|448=001B27|447=C|452=12|448=001|447=C|452=1|448=002B35|447=C|452=37|55=TFIC13280425|762=RFQF|48=20626|22=M|54=1|634=4.000|135=500000000|62=20190530-22:00:00|297=16|10=019|
8=FIX.4.4|9=68|35=2|34=4|49=002|50=002B35|52=20190529-22:12:55.496|56=EXC|7=3|16=0|10=189|
8=FIX.4.4|9=0065|35=4|34=3|43=Y|49=EXC|56=002|52=20190529-22:12:51.803|123=Y|36=4|10=185|
8=FIX.4.4|9=0324|35=AI|34=4|43=Y|52=20190529-22:12:51.803|49=EXC|56=002|57=002B35|122=20190529-22:12:51.757|131=20190529-000000000067.00|117=21373116|453=4|448=DCV|447=C|452=10|448=001B27|447=C|452=12|448=001|447=C|452=1|448=002B35|447=C|452=37|55=TFIC13280425|762=RFQF|48=20626|22=M|54=1|634=4.000|135=500000000|62=20190530-22:00:00|297=16|10=018|
8=FIX.4.4|9=0054|35=4|34=5|49=EXC|56=002|52=20190529-22:12:51.803|36=6|10=144|
8=FIX.4.4|9=104|35=A|34=5|49=002|50=002B35|52=20190529-22:12:56.647|56=EXC|43=Y|98=0|108=30|553=002FCM001|554=002FCM001|10=054|
8=FIX.4.4|9=0061|35=A|34=6|49=EXC|56=002|52=20190529-22:12:53.018|98=0|108=30|10=216|
8=FIX.4.4|9=110|35=A|34=1|49=002|50=002B35|52=20190529-22:16:26.635|56=EXC|43=Y|98=0|108=30|141=Y|553=002FCM001|554=002FCM001|10=090|
8=FIX.4.4|9=0067|35=A|34=1|49=EXC|56=002|52=20190529-22:16:23.002|98=0|108=30|141=Y|10=000|
8=FIX.4.4|9=0225|35=R|34=2|49=EXC|56=002|57=002B35|52=20190529-22:16:28.622|131=20190529-000000000068.00|146=1|55=TFIC13280425|762=RFQF|48=20626|22=M|54=1|38=500000000|453=3|448=001B27|447=C|452=12|448=001|447=C|452=1|448=002B35|447=C|452=37|10=024|
8=FIX.4.4|9=104|35=A|34=2|49=002|50=002B35|52=20190529-22:16:48.542|56=EXC|43=Y|98=0|108=30|553=002FCM001|554=002FCM001|10=050|
8=FIX.4.4|9=0061|35=A|34=3|49=EXC|56=002|52=20190529-22:16:44.932|98=0|108=30|10=222|
8=FIX.4.4|9=198|35=S|34=3|49=002|50=002B35|52=20190529-22:16:55.472|56=EXC|55=TFIC13280425|62=20190530-22:00:00.000|117=71062732|131=20190529-000000000068.00|135=500000000|634=4|762=RFQF|453=1|448=DCV|447=C|452=10|10=104|
8=FIX.4.4|9=0293|35=AI|34=4|49=EXC|56=002|57=002B35|52=20190529-22:16:51.779|131=20190529-000000000068.00|117=71062732|453=4|448=DCV|447=C|452=10|448=001B27|447=C|452=12|448=001|447=C|452=1|448=002B35|447=C|452=37|55=TFIC13280425|762=RFQF|48=20626|22=M|54=1|634=4.000|135=500000000|62=20190530-22:00:00|297=16|10=032|
8=FIX.4.4|9=68|35=2|34=4|49=002|50=002B35|52=20190529-22:16:55.506|56=EXC|7=3|16=0|10=185|
8=FIX.4.4|9=0065|35=4|34=3|43=Y|49=EXC|56=002|52=20190529-22:16:51.812|123=Y|36=4|10=189|
8=FIX.4.4|9=0324|35=AI|34=4|43=Y|52=20190529-22:16:51.812|49=EXC|56=002|57=002B35|122=20190529-22:16:51.779|131=20190529-000000000068.00|117=71062732|453=4|448=DCV|447=C|452=10|448=001B27|447=C|452=12|448=001|447=C|452=1|448=002B35|447=C|452=37|55=TFIC13280425|762=RFQF|48=20626|22=M|54=1|634=4.000|135=500000000|62=20190530-22:00:00|297=16|10=035|
8=FIX.4.4|9=0054|35=4|34=5|49=EXC|56=002|52=20190529-22:16:51.813|36=6|10=149|
8=FIX.4.4|9=104|35=A|34=5|49=002|50=002B35|52=20190529-22:16:56.638|56=EXC|43=Y|98=0|108=30|553=002FCM001|554=002FCM001|10=058|
8=FIX.4.4|9=0061|35=A|34=6|49=EXC|56=002|52=20190529-22:16:52.996|98=0|108=30|10=234|
8=FIX.4.4|9=0049|35=0|34=7|49=EXC|56=002|52=20190529-22:17:22.000|10=173|
8=FIX.4.4|9=104|35=A|34=6|49=002|50=002B35|52=20190529-22:17:27.555|56=EXC|43=Y|98=0|108=30|553=002FCM001|554=002FCM001|10=056|
8=FIX.4.4|9=0061|35=A|34=8|49=EXC|56=002|52=20190529-22:17:23.916|98=0|108=30|10=227|
8=FIX.4.4|9=110|35=A|34=1|49=002|50=002B35|52=20190529-22:18:14.920|56=EXC|43=Y|98=0|108=30|141=Y|553=002FCM001|554=002FCM001|10=086|
8=FIX.4.4|9=0067|35=A|34=1|49=EXC|56=002|52=20190529-22:18:11.304|98=0|108=30|141=Y|10=004|
8=FIX.4.4|9=0225|35=R|34=2|49=EXC|56=002|57=002B35|52=20190529-22:18:16.823|131=20190529-000000000069.00|146=1|55=TFIC13280425|762=RFQF|48=20626|22=M|54=1|38=500000000|453=3|448=001B27|447=C|452=12|448=001|447=C|452=1|448=002B35|447=C|452=37|10=027|
8=FIX.4.4|9=104|35=A|34=2|49=002|50=002B35|52=20190529-22:18:36.694|56=EXC|43=Y|98=0|108=30|553=002FCM001|554=002FCM001|10=057|
8=FIX.4.4|9=0061|35=A|34=3|49=EXC|56=002|52=20190529-22:18:33.069|98=0|108=30|10=223|
8=FIX.4.4|9=198|35=S|34=3|49=002|50=002B35|52=20190529-22:18:43.105|56=EXC|55=TFIC13280425|62=20190530-22:00:00.000|117=31551682|131=20190529-000000000069.00|135=500000000|634=4|762=RFQF|453=1|448=DCV|447=C|452=10|10=100|
8=FIX.4.4|9=0293|35=AI|34=4|49=EXC|56=002|57=002B35|52=20190529-22:18:39.410|131=20190529-000000000069.00|117=31551682|453=4|448=DCV|447=C|452=10|448=001B27|447=C|452=12|448=001|447=C|452=1|448=002B35|447=C|452=37|55=TFIC13280425|762=RFQF|48=20626|22=M|54=1|634=4.000|135=500000000|62=20190530-22:00:00|297=16|10=026|
8=FIX.4.4|9=68|35=2|34=4|49=002|50=002B35|52=20190529-22:18:43.136|56=EXC|7=3|16=0|10=183|
8=FIX.4.4|9=0065|35=4|34=3|43=Y|49=EXC|56=002|52=20190529-22:18:39.440|123=Y|36=4|10=194|
8=FIX.4.4|9=0324|35=AI|34=4|43=Y|52=20190529-22:18:39.440|49=EXC|56=002|57=002B35|122=20190529-22:18:39.410|131=20190529-000000000069.00|117=31551682|453=4|448=DCV|447=C|452=10|448=001B27|447=C|452=12|448=001|447=C|452=1|448=002B35|447=C|452=37|55=TFIC13280425|762=RFQF|48=20626|22=M|54=1|634=4.000|135=500000000|62=20190530-22:00:00|297=16|10=034|
8=FIX.4.4|9=0054|35=4|34=5|49=EXC|56=002|52=20190529-22:18:39.440|36=6|10=153|
8=FIX.4.4|9=104|35=A|34=5|49=002|50=002B35|52=20190529-22:18:44.335|56=EXC|43=Y|98=0|108=30|553=002FCM001|554=002FCM001|10=051|
8=FIX.4.4|9=0061|35=A|34=6|49=EXC|56=002|52=20190529-22:18:40.722|98=0|108=30|10=220|
8=FIX.4.4|9=110|35=A|34=1|49=002|50=002B35|52=20190529-22:24:11.690|56=EXC|43=Y|98=0|108=30|141=Y|553=002FCM001|554=002FCM001|10=084|
8=FIX.4.4|9=0067|35=A|34=1|49=EXC|56=002|52=20190529-22:24:08.031|98=0|108=30|141=Y|10=004|
8=FIX.4.4|9=0225|35=R|34=2|49=EXC|56=002|57=002B35|52=20190529-22:24:13.382|131=20190529-000000000070.00|146=1|55=TFIC13280425|762=RFQF|48=20626|22=M|54=1|38=500000000|453=3|448=001B27|447=C|452=12|448=001|447=C|452=1|448=002B35|447=C|452=37|10=013|
8=FIX.4.4|9=104|35=A|34=2|49=002|50=002B35|52=20190529-22:24:33.243|56=EXC|43=Y|98=0|108=30|553=002FCM001|554=002FCM001|10=041|
8=FIX.4.4|9=0061|35=A|34=3|49=EXC|56=002|52=20190529-22:24:29.610|98=0|108=30|10=217|
8=FIX.4.4|9=110|35=A|34=1|49=002|50=002B35|52=20190529-22:25:11.734|56=EXC|43=Y|98=0|108=30|141=Y|553=002FCM001|554=002FCM001|10=084|
8=FIX.4.4|9=0067|35=A|34=1|49=EXC|56=002|52=20190529-22:25:08.131|98=0|108=30|141=Y|10=006|
8=FIX.4.4|9=110|35=A|34=1|49=002|50=002B35|52=20190530-16:05:50.368|56=EXC|43=Y|98=0|108=30|141=Y|553=002FCM001|554=002FCM001|10=083|
8=FIX.4.4|9=0067|35=A|34=1|49=EXC|56=002|52=20190530-16:05:45.718|98=0|108=30|141=Y|10=011|
8=FIX.4.4|9=0225|35=R|34=2|49=EXC|56=002|57=002B35|52=20190530-16:05:50.947|131=20190530-000000000013.00|146=1|55=TFIC13280425|762=RFQF|48=20626|22=M|54=1|38=500000000|453=3|448=001B27|447=C|452=12|448=001|447=C|452=1|448=002B35|447=C|452=37|10=004|
8=FIX.4.4|9=104|35=A|34=2|49=002|50=002B35|52=20190530-16:06:11.832|56=EXC|43=Y|98=0|108=30|553=002FCM001|554=002FCM001|10=036|
8=FIX.4.4|9=0061|35=A|34=3|49=EXC|56=002|52=20190530-16:06:07.197|98=0|108=30|10=218|
8=FIX.4.4|9=59|35=0|34=2|49=002|50=002B35|52=20190530-16:06:21.320|56=EXC|10=037|
8=FIX.4.4|9=198|35=S|34=3|49=002|50=002B35|52=20190530-16:06:21.420|56=EXC|55=TFIC13280425|62=20190530-22:00:00.000|117=80211156|131=20190530-000000000013.00|135=500000000|634=4|762=RFQF|453=1|448=DCV|447=C|452=10|10=062|
8=FIX.4.4|9=0293|35=AI|34=4|49=EXC|56=002|57=002B35|52=20190530-16:06:16.749|131=20190530-000000000013.00|117=80211156|453=4|448=DCV|447=C|452=10|448=001B27|447=C|452=12|448=001|447=C|452=1|448=002B35|447=C|452=37|55=TFIC13280425|762=RFQF|48=20626|22=M|54=1|634=4.000|135=500000000|62=20190530-22:00:00|297=16|10=002|
8=FIX.4.4|9=68|35=2|34=4|49=002|50=002B35|52=20190530-16:06:21.462|56=EXC|7=3|16=0|10=173|
8=FIX.4.4|9=0065|35=4|34=3|43=Y|49=EXC|56=002|52=20190530-16:06:16.784|123=Y|36=4|10=192|
8=FIX.4.4|9=0324|35=AI|34=4|43=Y|52=20190530-16:06:16.784|49=EXC|56=002|57=002B35|122=20190530-16:06:16.749|131=20190530-000000000013.00|117=80211156|453=4|448=DCV|447=C|452=10|448=001B27|447=C|452=12|448=001|447=C|452=1|448=002B35|447=C|452=37|55=TFIC13280425|762=RFQF|48=20626|22=M|54=1|634=4.000|135=500000000|62=20190530-22:00:00|297=16|10=008|
8=FIX.4.4|9=0054|35=4|34=5|49=EXC|56=002|52=20190530-16:06:16.785|36=6|10=152|
8=FIX.4.4|9=104|35=A|34=5|49=002|50=002B35|52=20190530-16:06:22.581|56=EXC|43=Y|98=0|108=30|553=002FCM001|554=002FCM001|10=042|
8=FIX.4.4|9=0061|35=A|34=6|49=EXC|56=002|52=20190530-16:06:17.930|98=0|108=30|10=217|
8=FIX.4.4|9=0049|35=0|34=7|49=EXC|56=002|52=20190530-16:06:47.000|10=173|
8=FIX.4.4|9=59|35=0|34=6|49=002|50=002B35|52=20190530-16:06:52.775|56=EXC|10=059|
8=FIX.4.4|9=104|35=A|34=6|49=002|50=002B35|52=20190530-16:06:52.447|56=EXC|43=Y|98=0|108=30|553=002FCM001|554=002FCM001|10=047|
8=FIX.4.4|9=110|35=A|34=1|49=002|50=002B35|52=20190530-16:27:43.157|56=EXC|43=Y|98=0|108=30|141=Y|553=002FCM001|554=002FCM001|10=085|
8=FIX.4.4|9=0067|35=A|34=1|49=EXC|56=002|52=20190530-16:27:38.268|98=0|108=30|141=Y|10=017|
8=FIX.4.4|9=0225|35=R|34=2|49=EXC|56=002|57=002B35|52=20190530-16:27:43.501|131=20190530-000000000014.00|146=1|55=TFIC13280425|762=RFQF|48=20626|22=M|54=1|38=500000000|453=3|448=001B27|447=C|452=12|448=001|447=C|452=1|448=002B35|447=C|452=37|10=253|
8=FIX.4.4|9=104|35=A|34=2|49=002|50=002B35|52=20190530-16:28:04.576|56=EXC|43=Y|98=0|108=30|553=002FCM001|554=002FCM001|10=047|
8=FIX.4.4|9=0061|35=A|34=3|49=EXC|56=002|52=20190530-16:27:59.626|98=0|108=30|10=225|
8=FIX.4.4|9=198|35=S|34=3|49=002|50=002B35|52=20190530-16:28:10.513|56=EXC|55=TFIC13280425|62=20190530-22:00:00.000|117=33676193|131=20190530-000000000014.00|135=500000000|634=4|762=RFQF|453=1|448=DCV|447=C|452=10|10=082|
8=FIX.4.4|9=0293|35=AI|34=4|49=EXC|56=002|57=002B35|52=20190530-16:28:05.543|131=20190530-000000000014.00|117=33676193|453=4|448=DCV|447=C|452=10|448=001B27|447=C|452=12|448=001|447=C|452=1|448=002B35|447=C|452=37|55=TFIC13280425|762=RFQF|48=20626|22=M|54=1|634=4.000|135=500000000|62=20190530-22:00:00|297=16|10=011|
8=FIX.4.4|9=68|35=2|34=4|49=002|50=002B35|52=20190530-16:28:10.539|56=EXC|7=3|16=0|10=180|
8=FIX.4.4|9=0065|35=4|34=3|43=Y|49=EXC|56=002|52=20190530-16:28:05.569|123=Y|36=4|10=195|
8=FIX.4.4|9=0324|35=AI|34=4|43=Y|52=20190530-16:28:05.569|49=EXC|56=002|57=002B35|122=20190530-16:28:05.543|131=20190530-000000000014.00|117=33676193|453=4|448=DCV|447=C|452=10|448=001B27|447=C|452=12|448=001|447=C|452=1|448=002B35|447=C|452=37|55=TFIC13280425|762=RFQF|48=20626|22=M|54=1|634=4.000|135=500000000|62=20190530-22:00:00|297=16|10=020|
8=FIX.4.4|9=0054|35=4|34=5|49=EXC|56=002|52=20190530-16:28:05.569|36=6|10=154|
8=FIX.4.4|9=104|35=A|34=5|49=002|50=002B35|52=20190530-16:28:11.594|56=EXC|43=Y|98=0|108=30|553=002FCM001|554=002FCM001|10=048|
8=FIX.4.4|9=0061|35=A|34=6|49=EXC|56=002|52=20190530-16:28:06.645|98=0|108=30|10=222|
8=FIX.4.4|9=110|35=A|34=1|49=002|50=002B35|52=20190530-16:31:12.877|56=EXC|43=Y|98=0|108=30|141=Y|553=002FCM001|554=002FCM001|10=085|
8=FIX.4.4|9=0067|35=A|34=1|49=EXC|56=002|52=20190530-16:31:07.984|98=0|108=30|141=Y|10=013|
8=FIX.4.4|9=0225|35=R|34=2|49=EXC|56=002|57=002B35|52=20190530-16:31:13.238|131=20190530-000000000015.00|146=1|55=TFIC13280425|762=RFQF|48=20626|22=M|54=1|38=500000000|453=3|448=001B27|447=C|452=12|448=001|447=C|452=1|448=002B35|447=C|452=37|10=253|
8=FIX.4.4|9=110|35=A|34=1|49=002|50=002B35|52=20190530-16:32:27.107|56=EXC|43=Y|98=0|108=30|141=Y|553=002FCM001|554=002FCM001|10=078|
8=FIX.4.4|9=0067|35=A|34=1|49=EXC|56=002|52=20190530-16:32:22.243|98=0|108=30|141=Y|10=255|
8=FIX.4.4|9=110|35=A|34=1|49=002|50=002B35|52=20190530-16:33:01.605|56=EXC|43=Y|98=0|108=30|141=Y|553=002FCM001|554=002FCM001|10=074|
8=FIX.4.4|9=0067|35=A|34=1|49=EXC|56=002|52=20190530-16:32:56.740|98=0|108=30|141=Y|10=008|
8=FIX.4.4|9=0225|35=R|34=2|49=EXC|56=002|57=002B35|52=20190530-16:33:01.997|131=20190530-000000000016.00|146=1|55=TFIC13280425|762=RFQF|48=20626|22=M|54=1|38=500000000|453=3|448=001B27|447=C|452=12|448=001|447=C|452=1|448=002B35|447=C|452=37|10=009|
8=FIX.4.4|9=104|35=A|34=2|49=002|50=002B35|52=20190530-16:33:23.012|56=EXC|43=Y|98=0|108=30|553=002FCM001|554=002FCM001|10=029|
8=FIX.4.4|9=0061|35=A|34=3|49=EXC|56=002|52=20190530-16:33:18.146|98=0|108=30|10=214|
8=FIX.4.4|9=110|35=A|34=1|49=002|50=002B35|52=20190530-16:33:49.136|56=EXC|43=Y|98=0|108=30|141=Y|553=002FCM001|554=002FCM001|10=085|
8=FIX.4.4|9=0067|35=A|34=1|49=EXC|56=002|52=20190530-16:33:44.279|98=0|108=30|141=Y|10=013|
8=FIX.4.4|9=0225|35=R|34=2|49=EXC|56=002|57=002B35|52=20190530-16:33:49.478|131=20190530-000000000017.00|146=1|55=TFIC13280425|762=RFQF|48=20626|22=M|54=1|38=500000000|453=3|448=001B27|447=C|452=12|448=001|447=C|452=1|448=002B35|447=C|452=37|10=016|
8=FIX.4.4|9=104|35=A|34=2|49=002|50=002B35|52=20190530-16:34:10.467|56=EXC|43=Y|98=0|108=30|553=002FCM001|554=002FCM001|10=040|
8=FIX.4.4|9=0061|35=A|34=3|49=EXC|56=002|52=20190530-16:34:05.627|98=0|108=30|10=215|
8=FIX.4.4|9=110|35=A|34=1|49=002|50=002B35|52=20190530-16:36:52.014|56=EXC|43=Y|98=0|108=30|141=Y|553=002FCM001|554=002FCM001|10=077|
8=FIX.4.4|9=0067|35=A|34=1|49=EXC|56=002|52=20190530-16:36:46.886|98=0|108=30|141=Y|10=022|
8=FIX.4.4|9=0225|35=R|34=2|49=EXC|56=002|57=002B35|52=20190530-16:36:52.204|131=20190530-000000000018.00|146=1|55=TFIC13280425|762=RFQF|48=20626|22=M|54=1|38=500000000|453=3|448=001B27|447=C|452=12|448=001|447=C|452=1|448=002B35|447=C|452=37|10=001|
8=FIX.4.4|9=104|35=A|34=2|49=002|50=002B35|52=20190530-16:37:13.564|56=EXC|43=Y|98=0|108=30|553=002FCM001|554=002FCM001|10=044|
8=FIX.4.4|9=0061|35=A|34=3|49=EXC|56=002|52=20190530-16:37:08.427|98=0|108=30|10=219|
8=FIX.4.4|9=59|35=0|34=2|49=002|50=002B35|52=20190530-16:37:22.969|56=EXC|10=061|
8=FIX.4.4|9=198|35=S|34=3|49=002|50=002B35|52=20190530-16:37:34.592|56=EXC|55=TFIC13280425|62=20190530-22:00:00.000|117=22657924|131=20190530-000000000018.00|135=500000000|634=4|762=RFQF|453=1|448=DCV|447=C|452=10|10=098|
8=FIX.4.4|9=0293|35=AI|34=4|49=EXC|56=002|57=002B35|52=20190530-16:37:29.439|131=20190530-000000000018.00|117=22657924|453=4|448=DCV|447=C|452=10|448=001B27|447=C|452=12|448=001|447=C|452=1|448=002B35|447=C|452=37|55=TFIC13280425|762=RFQF|48=20626|22=M|54=1|634=4.000|135=500000000|62=20190530-22:00:00|297=16|10=024|
8=FIX.4.4|9=68|35=2|34=4|49=002|50=002B35|52=20190530-16:37:34.629|56=EXC|7=3|16=0|10=186|
8=FIX.4.4|9=0065|35=4|34=3|43=Y|49=EXC|56=002|52=20190530-16:37:29.475|123=Y|36=4|10=197|
8=FIX.4.4|9=0324|35=AI|34=4|43=Y|52=20190530-16:37:29.475|49=EXC|56=002|57=002B35|122=20190530-16:37:29.439|131=20190530-000000000018.00|117=22657924|453=4|448=DCV|447=C|452=10|448=001B27|447=C|452=12|448=001|447=C|452=1|448=002B35|447=C|452=37|55=TFIC13280425|762=RFQF|48=20626|22=M|54=1|634=4.000|135=500000000|62=20190530-22:00:00|297=16|10=035|
8=FIX.4.4|9=0054|35=4|34=5|49=EXC|56=002|52=20190530-16:37:29.475|36=6|10=156|
8=FIX.4.4|9=104|35=A|34=5|49=002|50=002B35|52=20190530-16:37:35.681|56=EXC|43=Y|98=0|108=30|553=002FCM001|554=002FCM001|10=051|
8=FIX.4.4|9=0061|35=A|34=6|49=EXC|56=002|52=20190530-16:37:30.547|98=0|108=30|10=220|
8=FIX.4.4|9=110|35=A|34=1|49=002|50=002B35|52=20190530-16:39:03.870|56=EXC|43=Y|98=0|108=30|141=Y|553=002FCM001|554=002FCM001|10=086|
8=FIX.4.4|9=0067|35=A|34=1|49=EXC|56=002|52=20190530-16:38:58.775|98=0|108=30|141=Y|10=024|
8=FIX.4.4|9=0225|35=R|34=2|49=EXC|56=002|57=002B35|52=20190530-16:39:03.987|131=20190530-000000000019.00|146=1|55=TFIC13280425|762=RFQF|48=20626|22=M|54=1|38=500000000|453=3|448=001B27|447=C|452=12|448=001|447=C|452=1|448=002B35|447=C|452=37|10=019|
8=FIX.4.4|9=104|35=A|34=2|49=002|50=002B35|52=20190530-16:39:25.262|56=EXC|43=Y|98=0|108=30|553=002FCM001|554=002FCM001|10=044|
8=FIX.4.4|9=0061|35=A|34=3|49=EXC|56=002|52=20190530-16:39:20.185|98=0|108=30|10=216|
8=FIX.4.4|9=59|35=0|34=2|49=002|50=002B35|52=20190530-16:39:34.801|56=EXC|10=051|
8=FIX.4.4|9=198|35=S|34=3|49=002|50=002B35|52=20190530-16:39:46.610|56=EXC|55=TFIC13280425|62=20190530-22:00:00.000|117=75405133|131=20190530-000000000019.00|135=500000000|634=4|762=RFQF|453=1|448=DCV|447=C|452=10|10=086|
8=FIX.4.4|9=0293|35=AI|34=4|49=EXC|56=002|57=002B35|52=20190530-16:39:41.495|131=20190530-000000000019.00|117=75405133|453=4|448=DCV|447=C|452=10|448=001B27|447=C|452=12|448=001|447=C|452=1|448=002B35|447=C|452=37|55=TFIC13280425|762=RFQF|48=20626|22=M|54=1|634=4.000|135=500000000|62=20190530-22:00:00|297=16|10=014|
8=FIX.4.4|9=68|35=2|34=4|49=002|50=002B35|52=20190530-16:39:46.643|56=EXC|7=3|16=0|10=187|
8=FIX.4.4|9=0065|35=4|34=3|43=Y|49=EXC|56=002|52=20190530-16:39:41.523|123=Y|36=4|10=187|
8=FIX.4.4|9=0324|35=AI|34=4|43=Y|52=20190530-16:39:41.523|49=EXC|56=002|57=002B35|122=20190530-16:39:41.495|131=20190530-000000000019.00|117=75405133|453=4|448=DCV|447=C|452=10|448=001B27|447=C|452=12|448=001|447=C|452=1|448=002B35|447=C|452=37|55=TFIC13280425|762=RFQF|48=20626|22=M|54=1|634=4.000|135=500000000|62=20190530-22:00:00|297=16|10=015|
8=FIX.4.4|9=0054|35=4|34=5|49=EXC|56=002|52=20190530-16:39:41.523|36=6|10=146|
8=FIX.4.4|9=104|35=A|34=5|49=002|50=002B35|52=20190530-16:39:47.754|56=EXC|43=Y|98=0|108=30|553=002FCM001|554=002FCM001|10=057|
8=FIX.4.4|9=0061|35=A|34=6|49=EXC|56=002|52=20190530-16:39:42.680|98=0|108=30|10=223|
