8=FIX.4.4|9=106|35=A|34=1|49=001|50=17|52=20190509-14:12:23.220|56=EXC|43=Y|98=0|108=30|141=Y|553=001FCM001|554=001FCM001|10=118|
8=FIX.4.4|9=0067|35=A|34=1|49=EXC|56=001|52=20190509-14:12:23.459|98=0|108=30|141=Y|10=010|
8=FIX.4.4|9=173|35=R|34=2|49=001|50=17|52=20190509-14:12:31.520|56=EXC|131=43085130|146=1|55=TFIC13280425|22=M|762=RQFQ|54=1|38=500000000|453=2|448=002B35|447=C|452=37|448=DCV|447=C|452=10|10=089|
8=FIX.4.4|9=0148|35=AG|34=2|49=EXC|56=001|57=17|52=20190509-14:12:31.330|131=43085130|658=6|146=1|55=TFIC13280425|762=RQFQ|22=M|58=(1480): SenderSubID(#50) invalido|10=148|
8=FIX.4.4|9=131|35=3|34=3|49=001|50=17|52=20190509-14:12:31.651|56=EXC|45=2|58=Out of order repeating group members, field=22|371=22|372=AG|373=15|10=121|
8=FIX.4.4|9=0049|35=0|34=3|49=EXC|56=001|52=20190509-14:13:01.000|10=160|
8=FIX.4.4|9=55|35=0|34=4|49=001|50=17|52=20190509-14:13:02.190|56=EXC|10=084|
8=FIX.4.4|9=0049|35=0|34=4|49=EXC|56=001|52=20190509-14:13:31.000|10=164|
8=FIX.4.4|9=55|35=0|34=5|49=001|50=17|52=20190509-14:13:32.192|56=EXC|10=090|
8=FIX.4.4|9=0049|35=0|34=5|49=EXC|56=001|52=20190509-14:14:01.000|10=163|
8=FIX.4.4|9=55|35=0|34=6|49=001|50=17|52=20190509-14:14:02.199|56=EXC|10=096|
8=FIX.4.4|9=0049|35=0|34=6|49=EXC|56=001|52=20190509-14:14:31.000|10=167|
8=FIX.4.4|9=55|35=0|34=7|49=001|50=17|52=20190509-14:14:32.194|56=EXC|10=095|
8=FIX.4.4|9=0049|35=0|34=7|49=EXC|56=001|52=20190509-14:15:01.000|10=166|
8=FIX.4.4|9=55|35=0|34=8|49=001|50=17|52=20190509-14:15:02.202|56=EXC|10=084|
8=FIX.4.4|9=0049|35=0|34=8|49=EXC|56=001|52=20190509-14:15:31.000|10=170|
8=FIX.4.4|9=55|35=0|34=9|49=001|50=17|52=20190509-14:15:32.202|56=EXC|10=088|
8=FIX.4.4|9=0049|35=0|34=9|49=EXC|56=001|52=20190509-14:16:01.000|10=169|
8=FIX.4.4|9=56|35=0|34=10|49=001|50=17|52=20190509-14:16:02.210|56=EXC|10=126|
8=FIX.4.4|9=106|35=A|34=1|49=001|50=17|52=20190509-14:17:50.703|56=EXC|43=Y|98=0|108=30|141=Y|553=001FCM001|554=001FCM001|10=129|
8=FIX.4.4|9=0067|35=A|34=1|49=EXC|56=001|52=20190509-14:17:50.952|98=0|108=30|141=Y|10=013|
8=FIX.4.4|9=169|35=R|34=2|49=001|50=17|52=20190509-14:17:58.991|56=EXC|131=14486032|146=1|55=TFIC13280425|22=M|762=RQFQ|54=1|38=500000000|453=2|448=18|447=C|452=37|448=DCV|447=C|452=10|10=169|
8=FIX.4.4|9=0148|35=AG|34=2|49=EXC|56=001|57=17|52=20190509-14:17:58.791|131=14486032|658=6|146=1|55=TFIC13280425|762=RQFQ|22=M|58=(1480): SenderSubID(#50) invalido|10=177|
8=FIX.4.4|9=131|35=3|34=3|49=001|50=17|52=20190509-14:17:59.102|56=EXC|45=2|58=Out of order repeating group members, field=22|371=22|372=AG|373=15|10=127|
8=FIX.4.4|9=0049|35=0|34=3|49=EXC|56=001|52=20190509-14:18:28.000|10=174|
8=FIX.4.4|9=55|35=0|34=4|49=001|50=17|52=20190509-14:18:29.661|56=EXC|10=101|
8=FIX.4.4|9=106|35=A|34=1|49=001|50=17|52=20190509-14:26:03.623|56=EXC|43=Y|98=0|108=30|141=Y|553=001FCM001|554=001FCM001|10=128|
8=FIX.4.4|9=0067|35=A|34=1|49=EXC|56=001|52=20190509-14:26:03.879|98=0|108=30|141=Y|10=019|
8=FIX.4.4|9=169|35=R|34=2|49=001|50=17|52=20190509-14:26:11.942|56=EXC|131=46693360|146=1|55=TFIC13280425|22=M|762=RQFQ|54=1|38=500000000|453=2|448=18|447=C|452=37|448=DCV|447=C|452=10|10=163|
8=FIX.4.4|9=0148|35=AG|34=2|49=EXC|56=001|57=17|52=20190509-14:26:11.758|131=46693360|658=6|146=1|55=TFIC13280425|762=RQFQ|22=M|58=(1480): SenderSubID(#50) invalido|10=178|
8=FIX.4.4|9=131|35=3|34=3|49=001|50=17|52=20190509-14:26:12.068|56=EXC|45=2|58=Out of order repeating group members, field=22|371=22|372=AG|373=15|10=127|
8=FIX.4.4|9=0049|35=0|34=3|49=EXC|56=001|52=20190509-14:26:41.000|10=168|
8=FIX.4.4|9=55|35=0|34=4|49=001|50=17|52=20190509-14:26:42.552|56=EXC|10=094|
8=FIX.4.4|9=106|35=A|34=1|49=001|50=17|52=20190509-14:27:13.293|56=EXC|43=Y|98=0|108=30|141=Y|553=001FCM001|554=001FCM001|10=133|
8=FIX.4.4|9=0067|35=A|34=1|49=EXC|56=001|52=20190509-14:27:13.679|98=0|108=30|141=Y|10=019|
8=FIX.4.4|9=169|35=R|34=2|49=001|50=17|52=20190509-14:27:21.648|56=EXC|131=69465589|146=1|55=TFIC13280425|22=M|762=RQFQ|54=1|38=500000000|453=2|448=18|447=C|452=37|448=DCV|447=C|452=10|10=183|
8=FIX.4.4|9=0148|35=AG|34=2|49=EXC|56=001|57=17|52=20190509-14:27:21.445|131=69465589|658=6|146=1|55=TFIC13280425|762=RQFQ|22=M|58=(1480): SenderSubID(#50) invalido|10=188|
8=FIX.4.4|9=131|35=3|34=3|49=001|50=17|52=20190509-14:27:21.753|56=EXC|45=2|58=Out of order repeating group members, field=22|371=22|372=AG|373=15|10=129|
8=FIX.4.4|9=0049|35=0|34=3|49=EXC|56=001|52=20190509-14:27:51.000|10=170|
8=FIX.4.4|9=55|35=0|34=4|49=001|50=17|52=20190509-14:27:52.237|56=EXC|10=096|
8=FIX.4.4|9=0049|35=0|34=4|49=EXC|56=001|52=20190509-14:28:21.000|10=169|
8=FIX.4.4|9=55|35=0|34=5|49=001|50=17|52=20190509-14:28:22.247|56=EXC|10=096|
8=FIX.4.4|9=0049|35=0|34=5|49=EXC|56=001|52=20190509-14:28:51.000|10=173|
8=FIX.4.4|9=55|35=0|34=6|49=001|50=17|52=20190509-14:28:52.248|56=EXC|10=101|
8=FIX.4.4|9=106|35=A|34=1|49=001|50=17|52=20190509-14:29:00.541|56=EXC|43=Y|98=0|108=30|141=Y|553=001FCM001|554=001FCM001|10=127|
8=FIX.4.4|9=0067|35=A|34=1|49=EXC|56=001|52=20190509-14:29:00.802|98=0|108=30|141=Y|10=005|
8=FIX.4.4|9=168|35=R|34=2|49=001|50=17|52=20190509-14:29:08.879|56=EXC|131=9008634|146=1|55=TFIC13280425|22=M|762=RQFQ|54=1|38=500000000|453=2|448=18|447=C|452=37|448=DCV|447=C|452=10|10=125|
8=FIX.4.4|9=0147|35=AG|34=2|49=EXC|56=001|57=17|52=20190509-14:29:08.668|131=9008634|658=6|146=1|55=TFIC13280425|762=RQFQ|22=M|58=(1480): SenderSubID(#50) invalido|10=131|
8=FIX.4.4|9=131|35=3|34=3|49=001|50=17|52=20190509-14:29:08.976|56=EXC|45=2|58=Out of order repeating group members, field=22|371=22|372=AG|373=15|10=143|
8=FIX.4.4|9=0049|35=0|34=3|49=EXC|56=001|52=20190509-14:29:38.000|10=177|
8=FIX.4.4|9=55|35=0|34=4|49=001|50=17|52=20190509-14:29:39.515|56=EXC|10=102|
8=FIX.4.4|9=106|35=A|34=1|49=001|50=17|52=20190509-14:34:26.915|56=EXC|43=Y|98=0|108=30|141=Y|553=001FCM001|554=001FCM001|10=136|
8=FIX.4.4|9=0067|35=A|34=1|49=EXC|56=001|52=20190509-14:34:27.469|98=0|108=30|141=Y|10=019|
8=FIX.4.4|9=169|35=R|34=2|49=001|50=17|52=20190509-14:34:35.194|56=EXC|131=68301884|146=1|55=TFIC13280425|22=M|762=RQFQ|54=1|38=500000000|453=2|448=18|447=C|452=37|448=DCV|447=C|452=10|10=168|
8=FIX.4.4|9=0148|35=AG|34=2|49=EXC|56=001|57=17|52=20190509-14:34:35.288|131=68301884|658=6|146=1|55=TFIC13280425|762=RQFQ|22=M|58=(1480): SenderSubID(#50) invalido|10=182|
8=FIX.4.4|9=131|35=3|34=3|49=001|50=17|52=20190509-14:34:35.297|56=EXC|45=2|58=Out of order repeating group members, field=22|371=22|372=AG|373=15|10=135|
8=FIX.4.4|9=106|35=A|34=1|49=001|50=17|52=20190509-14:35:06.734|56=EXC|43=Y|98=0|108=30|141=Y|553=001FCM001|554=001FCM001|10=134|
8=FIX.4.4|9=0067|35=A|34=1|49=EXC|56=001|52=20190509-14:35:07.334|98=0|108=30|141=Y|10=009|
8=FIX.4.4|9=169|35=R|34=2|49=001|50=17|52=20190509-14:35:14.989|56=EXC|131=41848097|146=1|55=TFIC13280425|22=M|762=RQFQ|54=1|38=500000000|453=2|448=18|447=C|452=37|448=DCV|447=C|452=10|10=181|
8=FIX.4.4|9=0148|35=AG|34=2|49=EXC|56=001|57=17|52=20190509-14:35:15.079|131=41848097|658=6|146=1|55=TFIC13280425|762=RQFQ|22=M|58=(1480): SenderSubID(#50) invalido|10=182|
8=FIX.4.4|9=131|35=3|34=3|49=001|50=17|52=20190509-14:35:15.073|56=EXC|45=2|58=Out of order repeating group members, field=22|371=22|372=AG|373=15|10=126|
8=FIX.4.4|9=106|35=A|34=1|49=001|50=17|52=20190509-14:36:13.005|56=EXC|43=Y|98=0|108=30|141=Y|553=001FCM001|554=001FCM001|10=124|
8=FIX.4.4|9=0067|35=A|34=1|49=EXC|56=001|52=20190509-14:36:13.639|98=0|108=30|141=Y|10=015|
8=FIX.4.4|9=169|35=R|34=2|49=001|50=17|52=20190509-14:36:21.417|56=EXC|131=74332766|146=1|55=TFIC13280425|22=M|762=RQFQ|54=1|38=500000000|453=2|448=18|447=C|452=37|448=DCV|447=C|452=10|10=163|
8=FIX.4.4|9=0148|35=AG|34=2|49=EXC|56=001|57=17|52=20190509-14:36:21.545|131=74332766|658=6|146=1|55=TFIC13280425|762=RQFQ|22=M|58=(1480): SenderSubID(#50) invalido|10=175|
8=FIX.4.4|9=131|35=3|34=3|49=001|50=17|52=20190509-14:36:21.553|56=EXC|45=2|58=Out of order repeating group members, field=22|371=22|372=AG|373=15|10=127|
8=FIX.4.4|9=106|35=A|34=1|49=001|50=17|52=20190509-14:37:40.922|56=EXC|43=Y|98=0|108=30|141=Y|553=001FCM001|554=001FCM001|10=133|
8=FIX.4.4|9=0067|35=A|34=1|49=EXC|56=001|52=20190509-14:37:41.470|98=0|108=30|141=Y|10=010|
8=FIX.4.4|9=169|35=R|34=2|49=001|50=17|52=20190509-14:37:49.218|56=EXC|131=16861280|146=1|55=TFIC13280425|22=M|762=RQFQ|54=1|38=500000000|453=2|448=18|447=C|452=37|448=DCV|447=C|452=10|10=167|
8=FIX.4.4|9=0148|35=AG|34=2|49=EXC|56=001|57=17|52=20190509-14:37:49.318|131=16861280|658=6|146=1|55=TFIC13280425|762=RQFQ|22=M|58=(1480): SenderSubID(#50) invalido|10=178|
8=FIX.4.4|9=131|35=3|34=3|49=001|50=17|52=20190509-14:37:49.326|56=EXC|45=2|58=Out of order repeating group members, field=22|371=22|372=AG|373=15|10=136|
8=FIX.4.4|9=0049|35=0|34=3|49=EXC|56=001|52=20190509-14:38:19.000|10=176|
8=FIX.4.4|9=55|35=0|34=4|49=001|50=17|52=20190509-14:38:19.900|56=EXC|10=098|
8=FIX.4.4|9=106|35=A|34=1|49=001|50=17|52=20190509-14:39:36.798|56=EXC|43=Y|98=0|108=30|141=Y|553=001FCM001|554=001FCM001|10=151|
8=FIX.4.4|9=0067|35=A|34=1|49=EXC|56=001|52=20190509-14:39:37.365|98=0|108=30|141=Y|10=020|
8=FIX.4.4|9=169|35=R|34=2|49=001|50=17|52=20190509-14:39:45.058|56=EXC|131=19123217|146=1|55=TFIC13280425|22=M|762=RQFQ|54=1|38=500000000|453=2|448=18|447=C|452=37|448=DCV|447=C|452=10|10=161|
8=FIX.4.4|9=0148|35=AG|34=2|49=EXC|56=001|57=17|52=20190509-14:39:45.169|131=19123217|658=6|146=1|55=TFIC13280425|762=RQFQ|22=M|58=(1480): SenderSubID(#50) invalido|10=174|
8=FIX.4.4|9=131|35=3|34=3|49=001|50=17|52=20190509-14:39:45.179|56=EXC|45=2|58=Out of order repeating group members, field=22|371=22|372=AG|373=15|10=140|
8=FIX.4.4|9=0049|35=0|34=3|49=EXC|56=001|52=20190509-14:40:15.000|10=165|
8=FIX.4.4|9=55|35=0|34=4|49=001|50=17|52=20190509-14:40:15.750|56=EXC|10=090|
8=FIX.4.4|9=0049|35=0|34=4|49=EXC|56=001|52=20190509-14:40:45.000|10=169|
8=FIX.4.4|9=55|35=0|34=5|49=001|50=17|52=20190509-14:40:46.745|56=EXC|10=099|
8=FIX.4.4|9=0049|35=0|34=5|49=EXC|56=001|52=20190509-14:41:15.000|10=168|
8=FIX.4.4|9=55|35=0|34=6|49=001|50=17|52=20190509-14:41:16.745|56=EXC|10=098|
8=FIX.4.4|9=0049|35=0|34=6|49=EXC|56=001|52=20190509-14:41:45.000|10=172|
8=FIX.4.4|9=55|35=0|34=7|49=001|50=17|52=20190509-14:41:46.737|56=EXC|10=103|
8=FIX.4.4|9=0049|35=0|34=7|49=EXC|56=001|52=20190509-14:42:15.000|10=171|
8=FIX.4.4|9=55|35=0|34=8|49=001|50=17|52=20190509-14:42:16.738|56=EXC|10=103|
8=FIX.4.4|9=106|35=A|34=1|49=001|50=17|52=20190509-14:48:25.232|56=EXC|43=Y|98=0|108=30|141=Y|553=001FCM001|554=001FCM001|10=132|
8=FIX.4.4|9=0067|35=A|34=1|49=EXC|56=001|52=20190509-14:48:25.807|98=0|108=30|141=Y|10=018|
8=FIX.4.4|9=169|35=R|34=2|49=001|50=17|52=20190509-14:48:33.457|56=EXC|131=64858698|146=1|55=TFIC13280425|22=M|762=RQFQ|54=1|38=500000000|453=2|448=18|447=C|452=37|448=DCV|447=C|452=10|10=189|
8=FIX.4.4|9=0148|35=AG|34=2|49=EXC|56=001|57=17|52=20190509-14:48:33.566|131=64858698|658=6|146=1|55=TFIC13280425|762=RQFQ|22=M|58=(1480): SenderSubID(#50) invalido|10=200|
8=FIX.4.4|9=131|35=3|34=3|49=001|50=17|52=20190509-14:48:33.575|56=EXC|45=2|58=Out of order repeating group members, field=22|371=22|372=AG|373=15|10=137|
8=FIX.4.4|9=0049|35=0|34=3|49=EXC|56=001|52=20190509-14:49:03.000|10=171|
8=FIX.4.4|9=55|35=0|34=4|49=001|50=17|52=20190509-14:49:04.153|56=EXC|10=094|
8=FIX.4.4|9=0049|35=0|34=4|49=EXC|56=001|52=20190509-14:49:33.000|10=175|
8=FIX.4.4|9=55|35=0|34=5|49=001|50=17|52=20190509-14:49:34.150|56=EXC|10=095|
8=FIX.4.4|9=0049|35=0|34=5|49=EXC|56=001|52=20190509-14:50:03.000|10=165|
8=FIX.4.4|9=55|35=0|34=6|49=001|50=17|52=20190509-14:50:04.149|56=EXC|10=093|
8=FIX.4.4|9=0049|35=0|34=6|49=EXC|56=001|52=20190509-14:50:33.000|10=169|
8=FIX.4.4|9=55|35=0|34=7|49=001|50=17|52=20190509-14:50:34.154|56=EXC|10=093|
8=FIX.4.4|9=0049|35=0|34=7|49=EXC|56=001|52=20190509-14:51:03.000|10=168|
8=FIX.4.4|9=55|35=0|34=8|49=001|50=17|52=20190509-14:51:04.162|56=EXC|10=091|
8=FIX.4.4|9=0049|35=0|34=8|49=EXC|56=001|52=20190509-14:51:33.000|10=172|
8=FIX.4.4|9=55|35=0|34=9|49=001|50=17|52=20190509-14:51:34.153|56=EXC|10=095|
8=FIX.4.4|9=0049|35=0|34=9|49=EXC|56=001|52=20190509-14:52:03.000|10=171|
8=FIX.4.4|9=56|35=0|34=10|49=001|50=17|52=20190509-14:52:04.149|56=EXC|10=139|
8=FIX.4.4|9=106|35=A|34=1|49=001|50=17|52=20190509-14:52:44.938|56=EXC|43=Y|98=0|108=30|141=Y|553=001FCM001|554=001FCM001|10=141|
8=FIX.4.4|9=0067|35=A|34=1|49=EXC|56=001|52=20190509-14:52:45.574|98=0|108=30|141=Y|10=016|
8=FIX.4.4|9=169|35=R|34=2|49=001|50=17|52=20190509-14:52:53.226|56=EXC|131=30165168|146=1|55=TFIC13280425|22=M|762=RQFQ|54=1|38=500000000|453=2|448=18|447=C|452=37|448=DCV|447=C|452=10|10=156|
8=FIX.4.4|9=0148|35=AG|34=2|49=EXC|56=001|57=17|52=20190509-14:52:53.322|131=30165168|658=6|146=1|55=TFIC13280425|762=RQFQ|22=M|58=(1480): SenderSubID(#50) invalido|10=163|
8=FIX.4.4|9=131|35=3|34=3|49=001|50=17|52=20190509-14:52:53.316|56=EXC|45=2|58=Out of order repeating group members, field=22|371=22|372=AG|373=15|10=127|
8=FIX.4.4|9=0049|35=0|34=3|49=EXC|56=001|52=20190509-14:53:23.000|10=168|
8=FIX.4.4|9=55|35=0|34=4|49=001|50=17|52=20190509-14:53:23.907|56=EXC|10=097|
8=FIX.4.4|9=0049|35=0|34=4|49=EXC|56=001|52=20190509-14:53:53.000|10=172|
8=FIX.4.4|9=55|35=0|34=5|49=001|50=17|52=20190509-14:53:53.902|56=EXC|10=096|
8=FIX.4.4|9=106|35=A|34=1|49=001|50=17|52=20190509-14:54:29.970|56=EXC|43=Y|98=0|108=30|141=Y|553=001FCM001|554=001FCM001|10=142|
8=FIX.4.4|9=0067|35=A|34=1|49=EXC|56=001|52=20190509-14:54:30.491|98=0|108=30|141=Y|10=010|
8=FIX.4.4|9=169|35=R|34=2|49=001|50=17|52=20190509-14:54:38.267|56=EXC|131=20716042|146=1|55=TFIC13280425|22=M|762=RQFQ|54=1|38=500000000|453=2|448=18|447=C|452=37|448=DCV|447=C|452=10|10=158|
8=FIX.4.4|9=0148|35=AG|34=2|49=EXC|56=001|57=17|52=20190509-14:54:38.417|131=20716042|658=6|146=1|55=TFIC13280425|762=RQFQ|22=M|58=(1480): SenderSubID(#50) invalido|10=165|
8=FIX.4.4|9=131|35=3|34=3|49=001|50=17|52=20190509-14:54:38.423|56=EXC|45=2|58=Out of order repeating group members, field=22|371=22|372=AG|373=15|10=131|
8=FIX.4.4|9=0049|35=0|34=3|49=EXC|56=001|52=20190509-14:55:08.000|10=173|
8=FIX.4.4|9=55|35=0|34=4|49=001|50=17|52=20190509-14:55:08.918|56=EXC|10=104|
8=FIX.4.4|9=0049|35=0|34=4|49=EXC|56=001|52=20190509-14:55:38.000|10=177|
8=FIX.4.4|9=55|35=0|34=5|49=001|50=17|52=20190509-14:55:38.923|56=EXC|10=104|
8=FIX.4.4|9=0049|35=0|34=5|49=EXC|56=001|52=20190509-14:56:08.000|10=176|
8=FIX.4.4|9=55|35=0|34=6|49=001|50=17|52=20190509-14:56:08.924|56=EXC|10=104|
8=FIX.4.4|9=0049|35=0|34=6|49=EXC|56=001|52=20190509-14:56:38.000|10=180|
8=FIX.4.4|9=55|35=0|34=7|49=001|50=17|52=20190509-14:56:38.919|56=EXC|10=112|
8=FIX.4.4|9=106|35=A|34=1|49=001|50=17|52=20190509-14:57:09.546|56=EXC|43=Y|98=0|108=30|141=Y|553=001FCM001|554=001FCM001|10=142|
8=FIX.4.4|9=0067|35=A|34=1|49=EXC|56=001|52=20190509-14:57:10.194|98=0|108=30|141=Y|10=011|
8=FIX.4.4|9=169|35=R|34=2|49=001|50=17|52=20190509-14:57:17.767|56=EXC|131=20274879|146=1|55=TFIC13280425|22=M|762=RQFQ|54=1|38=500000000|453=2|448=18|447=C|452=37|448=DCV|447=C|452=10|10=180|
8=FIX.4.4|9=0148|35=AG|34=2|49=EXC|56=001|57=17|52=20190509-14:57:17.912|131=20274879|658=6|146=1|55=TFIC13280425|762=RQFQ|22=M|58=(1480): SenderSubID(#50) invalido|10=182|
8=FIX.4.4|9=131|35=3|34=3|49=001|50=17|52=20190509-14:57:17.916|56=EXC|45=2|58=Out of order repeating group members, field=22|371=22|372=AG|373=15|10=138|
8=FIX.4.4|9=106|35=A|34=1|49=001|50=17|52=20190509-14:57:57.591|56=EXC|43=Y|98=0|108=30|141=Y|553=001FCM001|554=001FCM001|10=145|
8=FIX.4.4|9=0067|35=A|34=1|49=EXC|56=001|52=20190509-14:57:58.173|98=0|108=30|141=Y|10=020|
8=FIX.4.4|9=169|35=R|34=2|49=001|50=17|52=20190509-14:58:05.846|56=EXC|131=67838881|146=1|55=TFIC13280425|22=M|762=RQFQ|54=1|38=500000000|453=2|448=18|447=C|452=37|448=DCV|447=C|452=10|10=186|
8=FIX.4.4|9=0148|35=AG|34=2|49=EXC|56=001|57=17|52=20190509-14:58:05.952|131=67838881|658=6|146=1|55=TFIC13280425|762=RQFQ|22=M|58=(1480): SenderSubID(#50) invalido|10=194|
8=FIX.4.4|9=131|35=3|34=3|49=001|50=17|52=20190509-14:58:05.960|56=EXC|45=2|58=Out of order repeating group members, field=22|371=22|372=AG|373=15|10=135|
8=FIX.4.4|9=0049|35=0|34=3|49=EXC|56=001|52=20190509-14:58:35.000|10=176|
8=FIX.4.4|9=55|35=0|34=4|49=001|50=17|52=20190509-14:58:36.549|56=EXC|10=108|
8=FIX.4.4|9=0049|35=0|34=4|49=EXC|56=001|52=20190509-14:59:05.000|10=175|
8=FIX.4.4|9=55|35=0|34=5|49=001|50=17|52=20190509-14:59:06.548|56=EXC|10=106|
8=FIX.4.4|9=0049|35=0|34=5|49=EXC|56=001|52=20190509-14:59:35.000|10=179|
8=FIX.4.4|9=55|35=0|34=6|49=001|50=17|52=20190509-14:59:36.548|56=EXC|10=110|
8=FIX.4.4|9=0049|35=0|34=6|49=EXC|56=001|52=20190509-15:00:05.000|10=164|
8=FIX.4.4|9=55|35=0|34=7|49=001|50=17|52=20190509-15:00:06.546|56=EXC|10=093|
8=FIX.4.4|9=0049|35=0|34=7|49=EXC|56=001|52=20190509-15:00:35.000|10=168|
8=FIX.4.4|9=55|35=0|34=8|49=001|50=17|52=20190509-15:00:36.549|56=EXC|10=100|
8=FIX.4.4|9=0049|35=0|34=8|49=EXC|56=001|52=20190509-15:01:05.000|10=167|
8=FIX.4.4|9=55|35=0|34=9|49=001|50=17|52=20190509-15:01:06.546|56=EXC|10=096|
8=FIX.4.4|9=0049|35=0|34=9|49=EXC|56=001|52=20190509-15:01:35.000|10=171|
8=FIX.4.4|9=56|35=0|34=10|49=001|50=17|52=20190509-15:01:36.555|56=EXC|10=140|
8=FIX.4.4|9=0050|35=0|34=10|49=EXC|56=001|52=20190509-15:02:05.000|10=201|
8=FIX.4.4|9=56|35=0|34=11|49=001|50=17|52=20190509-15:02:06.547|56=EXC|10=140|
8=FIX.4.4|9=0050|35=0|34=11|49=EXC|56=001|52=20190509-15:02:35.000|10=205|
8=FIX.4.4|9=56|35=0|34=12|49=001|50=17|52=20190509-15:02:36.547|56=EXC|10=144|
8=FIX.4.4|9=0050|35=0|34=12|49=EXC|56=001|52=20190509-15:03:05.000|10=204|
8=FIX.4.4|9=56|35=0|34=13|49=001|50=17|52=20190509-15:03:06.550|56=EXC|10=137|
8=FIX.4.4|9=0050|35=0|34=13|49=EXC|56=001|52=20190509-15:03:35.000|10=208|
8=FIX.4.4|9=56|35=0|34=14|49=001|50=17|52=20190509-15:03:36.547|56=EXC|10=147|
8=FIX.4.4|9=0050|35=0|34=14|49=EXC|56=001|52=20190509-15:04:05.000|10=207|
8=FIX.4.4|9=56|35=0|34=15|49=001|50=17|52=20190509-15:04:06.548|56=EXC|10=147|
8=FIX.4.4|9=0050|35=0|34=15|49=EXC|56=001|52=20190509-15:04:35.000|10=211|
8=FIX.4.4|9=56|35=0|34=16|49=001|50=17|52=20190509-15:04:36.548|56=EXC|10=151|
8=FIX.4.4|9=0050|35=0|34=16|49=EXC|56=001|52=20190509-15:05:05.000|10=210|
8=FIX.4.4|9=56|35=0|34=17|49=001|50=17|52=20190509-15:05:06.550|56=EXC|10=143|
8=FIX.4.4|9=0050|35=0|34=17|49=EXC|56=001|52=20190509-15:05:35.000|10=214|
8=FIX.4.4|9=56|35=0|34=18|49=001|50=17|52=20190509-15:05:36.547|56=EXC|10=153|
8=FIX.4.4|9=0050|35=0|34=18|49=EXC|56=001|52=20190509-15:06:05.000|10=213|
8=FIX.4.4|9=56|35=0|34=19|49=001|50=17|52=20190509-15:06:06.548|56=EXC|10=153|
8=FIX.4.4|9=0050|35=0|34=19|49=EXC|56=001|52=20190509-15:06:35.000|10=217|
8=FIX.4.4|9=56|35=0|34=20|49=001|50=17|52=20190509-15:06:36.546|56=EXC|10=146|
8=FIX.4.4|9=0050|35=0|34=20|49=EXC|56=001|52=20190509-15:07:05.000|10=207|
8=FIX.4.4|9=56|35=0|34=21|49=001|50=17|52=20190509-15:07:06.546|56=EXC|10=145|
8=FIX.4.4|9=0050|35=0|34=21|49=EXC|56=001|52=20190509-15:07:35.000|10=211|
8=FIX.4.4|9=56|35=0|34=22|49=001|50=17|52=20190509-15:07:36.549|56=EXC|10=152|
8=FIX.4.4|9=106|35=A|34=1|49=001|50=17|52=20190509-15:12:29.957|56=EXC|43=Y|98=0|108=30|141=Y|553=001FCM001|554=001FCM001|10=142|
8=FIX.4.4|9=0067|35=A|34=1|49=EXC|56=001|52=20190509-15:12:30.488|98=0|108=30|141=Y|10=011|
8=FIX.4.4|9=169|35=R|34=2|49=001|50=17|52=20190509-15:12:38.216|56=EXC|131=32747561|146=1|55=TFIC13280425|22=M|762=RQFQ|54=1|38=500000000|453=2|448=18|447=C|452=37|448=DCV|447=C|452=10|10=160|
8=FIX.4.4|9=0148|35=AG|34=2|49=EXC|56=001|57=17|52=20190509-15:12:38.355|131=32747561|658=6|146=1|55=TFIC13280425|762=RQFQ|22=M|58=(1480): SenderSubID(#50) invalido|10=174|
8=FIX.4.4|9=131|35=3|34=3|49=001|50=17|52=20190509-15:12:38.384|56=EXC|45=2|58=Out of order repeating group members, field=22|371=22|372=AG|373=15|10=132|
8=FIX.4.4|9=0049|35=0|34=3|49=EXC|56=001|52=20190509-15:13:08.000|10=168|
8=FIX.4.4|9=55|35=0|34=4|49=001|50=17|52=20190509-15:13:08.926|56=EXC|10=098|
8=FIX.4.4|9=0049|35=0|34=4|49=EXC|56=001|52=20190509-15:13:38.000|10=172|
8=FIX.4.4|9=55|35=0|34=5|49=001|50=17|52=20190509-15:13:38.931|56=EXC|10=098|
8=FIX.4.4|9=0049|35=0|34=5|49=EXC|56=001|52=20190509-15:14:08.000|10=171|
8=FIX.4.4|9=55|35=0|34=6|49=001|50=17|52=20190509-15:14:08.935|56=EXC|10=101|
8=FIX.4.4|9=0049|35=0|34=6|49=EXC|56=001|52=20190509-15:14:38.000|10=175|
8=FIX.4.4|9=55|35=0|34=7|49=001|50=17|52=20190509-15:14:38.940|56=EXC|10=101|
8=FIX.4.4|9=0049|35=0|34=7|49=EXC|56=001|52=20190509-15:15:08.000|10=174|
8=FIX.4.4|9=55|35=0|34=8|49=001|50=17|52=20190509-15:15:08.945|56=EXC|10=105|
8=FIX.4.4|9=0049|35=0|34=8|49=EXC|56=001|52=20190509-15:15:38.000|10=178|
8=FIX.4.4|9=55|35=0|34=9|49=001|50=17|52=20190509-15:15:38.949|56=EXC|10=113|
8=FIX.4.4|9=106|35=A|34=1|49=001|50=17|52=20190509-15:16:18.560|56=EXC|43=Y|98=0|108=30|141=Y|553=001FCM001|554=001FCM001|10=134|
8=FIX.4.4|9=0067|35=A|34=1|49=EXC|56=001|52=20190509-15:16:19.051|98=0|108=30|141=Y|10=008|
8=FIX.4.4|9=169|35=R|34=2|49=001|50=17|52=20190509-15:16:26.777|56=EXC|131=43678061|146=1|55=TFIT16240724|22=M|762=RQFQ|54=1|38=500000000|453=2|448=18|447=C|452=37|448=DCV|447=C|452=10|10=191|
8=FIX.4.4|9=0148|35=AG|34=2|49=EXC|56=001|57=17|52=20190509-15:16:26.820|131=43678061|658=6|146=1|55=TFIT16240724|762=RQFQ|22=M|58=(1480): SenderSubID(#50) invalido|10=190|
8=FIX.4.4|9=131|35=3|34=3|49=001|50=17|52=20190509-15:16:26.882|56=EXC|45=2|58=Out of order repeating group members, field=22|371=22|372=AG|373=15|10=136|
8=FIX.4.4|9=0049|35=0|34=3|49=EXC|56=001|52=20190509-15:16:56.000|10=174|
8=FIX.4.4|9=55|35=0|34=4|49=001|50=17|52=20190509-15:16:57.504|56=EXC|10=097|
8=FIX.4.4|9=106|35=A|34=1|49=001|50=17|52=20190509-15:17:36.259|56=EXC|43=Y|98=0|108=30|141=Y|553=001FCM001|554=001FCM001|10=140|
8=FIX.4.4|9=0067|35=A|34=1|49=EXC|56=001|52=20190509-15:17:36.701|98=0|108=30|141=Y|10=010|
8=FIX.4.4|9=149|35=R|34=2|49=001|50=17|52=20190509-15:17:44.524|56=EXC|131=33664337|146=1|55=TFIT16240724|22=M|762=RQFQ|54=1|38=500000000|453=1|448=DCV|447=C|452=10|10=009|
8=FIX.4.4|9=0148|35=AG|34=2|49=EXC|56=001|57=17|52=20190509-15:17:44.580|131=33664337|658=6|146=1|55=TFIT16240724|762=RQFQ|22=M|58=(1480): SenderSubID(#50) invalido|10=194|
8=FIX.4.4|9=131|35=3|34=3|49=001|50=17|52=20190509-15:17:44.649|56=EXC|45=2|58=Out of order repeating group members, field=22|371=22|372=AG|373=15|10=138|
8=FIX.4.4|9=0049|35=0|34=3|49=EXC|56=001|52=20190509-15:18:14.000|10=170|
8=FIX.4.4|9=55|35=0|34=4|49=001|50=17|52=20190509-15:18:15.224|56=EXC|10=092|
8=FIX.4.4|9=0049|35=0|34=4|49=EXC|56=001|52=20190509-15:18:44.000|10=174|
8=FIX.4.4|9=55|35=0|34=5|49=001|50=17|52=20190509-15:18:45.226|56=EXC|10=098|
8=FIX.4.4|9=0049|35=0|34=5|49=EXC|56=001|52=20190509-15:19:14.000|10=173|
8=FIX.4.4|9=55|35=0|34=6|49=001|50=17|52=20190509-15:19:15.228|56=EXC|10=099|
8=FIX.4.4|9=0049|35=0|34=6|49=EXC|56=001|52=20190509-15:19:44.000|10=177|
8=FIX.4.4|9=55|35=0|34=7|49=001|50=17|52=20190509-15:19:45.231|56=EXC|10=097|
8=FIX.4.4|9=106|35=A|34=1|49=001|50=17|52=20190509-15:37:20.242|56=EXC|43=Y|98=0|108=30|141=Y|553=001FCM001|554=001FCM001|10=127|
8=FIX.4.4|9=0067|35=A|34=1|49=EXC|56=001|52=20190509-15:37:20.441|98=0|108=30|141=Y|10=006|
8=FIX.4.4|9=169|35=R|34=2|49=001|50=17|52=20190509-15:37:28.393|56=EXC|131=73460657|146=1|55=TFIC13280425|22=M|762=RQFQ|54=1|38=500000000|453=2|448=18|447=C|452=37|448=DCV|447=C|452=10|10=175|
8=FIX.4.4|9=0148|35=AG|34=2|49=EXC|56=001|57=17|52=20190509-15:37:28.498|131=73460657|658=6|146=1|55=TFIC13280425|762=RQFQ|22=M|58=(1480): SenderSubID(#50) invalido|10=191|
8=FIX.4.4|9=131|35=3|34=3|49=001|50=17|52=20190509-15:37:28.512|56=EXC|45=2|58=Out of order repeating group members, field=22|371=22|372=AG|373=15|10=131|
8=FIX.4.4|9=0049|35=0|34=3|49=EXC|56=001|52=20190509-15:37:58.000|10=179|
8=FIX.4.4|9=55|35=0|34=4|49=001|50=17|52=20190509-15:37:59.115|56=EXC|10=100|
8=FIX.4.4|9=0049|35=0|34=4|49=EXC|56=001|52=20190509-15:38:28.000|10=178|
8=FIX.4.4|9=55|35=0|34=5|49=001|50=17|52=20190509-15:38:29.113|56=EXC|10=097|
8=FIX.4.4|9=0049|35=0|34=5|49=EXC|56=001|52=20190509-15:38:58.000|10=182|
8=FIX.4.4|9=55|35=0|34=6|49=001|50=17|52=20190509-15:38:59.113|56=EXC|10=101|
8=FIX.4.4|9=106|35=A|34=1|49=001|50=17|52=20190509-15:39:25.140|56=EXC|43=Y|98=0|108=30|141=Y|553=001FCM001|554=001FCM001|10=131|
8=FIX.4.4|9=106|35=A|34=1|49=001|50=17|52=20190509-18:14:38.029|56=EXC|43=Y|98=0|108=30|141=Y|553=001FCM001|554=001FCM001|10=137|
8=FIX.4.4|9=0067|35=A|34=1|49=EXC|56=001|52=20190509-18:14:38.462|98=0|108=30|141=Y|10=016|
8=FIX.4.4|9=173|35=R|34=2|49=001|50=17|52=20190509-18:14:46.216|56=EXC|131=60837279|146=1|55=TFIC13280425|22=M|762=RFQF|54=1|38=500000000|453=2|448=002B35|447=C|452=37|448=DCV|447=C|452=10|10=110|
8=FIX.4.4|9=0148|35=AG|34=2|49=EXC|56=001|57=17|52=20190509-18:14:46.604|131=60837279|658=6|146=1|55=TFIC13280425|762=RFQF|22=M|58=(1480): SenderSubID(#50) invalido|10=171|
8=FIX.4.4|9=131|35=3|34=3|49=001|50=17|52=20190509-18:14:46.385|56=EXC|45=2|58=Out of order repeating group members, field=22|371=22|372=AG|373=15|10=137|
8=FIX.4.4|9=0049|35=0|34=3|49=EXC|56=001|52=20190509-18:15:16.000|10=172|
8=FIX.4.4|9=55|35=0|34=4|49=001|50=17|52=20190509-18:15:16.906|56=EXC|10=100|
8=FIX.4.4|9=106|35=A|34=1|49=001|50=17|52=20190509-18:16:20.190|56=EXC|43=Y|98=0|108=30|141=Y|553=001FCM001|554=001FCM001|10=129|
8=FIX.4.4|9=0067|35=A|34=1|49=EXC|56=001|52=20190509-18:16:20.690|98=0|108=30|141=Y|10=012|
8=FIX.4.4|9=173|35=R|34=2|49=001|50=17|52=20190509-18:16:28.396|56=EXC|131=35728540|146=1|55=TFIC13280425|22=M|762=RFQF|54=1|38=500000000|453=2|448=002B35|447=C|452=37|448=DCV|447=C|452=10|10=113|
8=FIX.4.4|9=0148|35=AG|34=2|49=EXC|56=001|57=17|52=20190509-18:16:28.730|131=35728540|658=6|146=1|55=TFIC13280425|762=RFQF|22=M|58=(1480): SenderSubID(#50) invalido|10=165|
8=FIX.4.4|9=131|35=3|34=3|49=001|50=17|52=20190509-18:16:28.514|56=EXC|45=2|58=Out of order repeating group members, field=22|371=22|372=AG|373=15|10=133|
8=FIX.4.4|9=0049|35=0|34=3|49=EXC|56=001|52=20190509-18:16:58.000|10=179|
8=FIX.4.4|9=55|35=0|34=4|49=001|50=17|52=20190509-18:16:59.103|56=EXC|10=097|
8=FIX.4.4|9=0049|35=0|34=4|49=EXC|56=001|52=20190509-18:17:28.000|10=178|
8=FIX.4.4|9=55|35=0|34=5|49=001|50=17|52=20190509-18:17:29.123|56=EXC|10=098|
8=FIX.4.4|9=106|35=A|34=1|49=001|50=17|52=20190509-18:17:48.912|56=EXC|43=Y|98=0|108=30|141=Y|553=001FCM001|554=001FCM001|10=142|
8=FIX.4.4|9=0067|35=A|34=1|49=EXC|56=001|52=20190509-18:17:49.370|98=0|108=30|141=Y|10=019|
8=FIX.4.4|9=173|35=R|34=2|49=001|50=17|52=20190509-18:17:57.105|56=EXC|131=80699861|146=1|55=TFIC13280425|22=M|762=RFQF|54=1|38=500000000|453=2|448=002B35|447=C|452=37|448=DCV|447=C|452=10|10=117|
8=FIX.4.4|9=0148|35=AG|34=2|49=EXC|56=001|57=17|52=20190509-18:17:57.408|131=80699861|658=6|146=1|55=TFIC13280425|762=RFQF|22=M|58=(1480): SenderSubID(#50) invalido|10=183|
8=FIX.4.4|9=131|35=3|34=3|49=001|50=17|52=20190509-18:17:57.192|56=EXC|45=2|58=Out of order repeating group members, field=22|371=22|372=AG|373=15|10=138|
8=FIX.4.4|9=106|35=A|34=1|49=001|50=17|52=20190509-18:18:42.311|56=EXC|43=Y|98=0|108=30|141=Y|553=001FCM001|554=001FCM001|10=130|
8=FIX.4.4|9=0067|35=A|34=1|49=EXC|56=001|52=20190509-18:18:43.114|98=0|108=30|141=Y|10=010|
8=FIX.4.4|9=173|35=R|34=2|49=001|50=17|52=20190509-18:18:50.587|56=EXC|131=26010359|146=1|55=TFIC13280425|22=M|762=RFQF|54=1|38=500000000|453=2|448=002B35|447=C|452=37|448=DCV|447=C|452=10|10=104|
8=FIX.4.4|9=0148|35=AG|34=2|49=EXC|56=001|57=17|52=20190509-18:18:50.979|131=26010359|658=6|146=1|55=TFIC13280425|762=RFQF|22=M|58=(1480): SenderSubID(#50) invalido|10=169|
8=FIX.4.4|9=131|35=3|34=3|49=001|50=17|52=20190509-18:18:50.763|56=EXC|45=2|58=Out of order repeating group members, field=22|371=22|372=AG|373=15|10=136|
8=FIX.4.4|9=0049|35=0|34=3|49=EXC|56=001|52=20190509-18:19:20.000|10=171|
8=FIX.4.4|9=55|35=0|34=4|49=001|50=17|52=20190509-18:19:21.241|56=EXC|10=092|
8=FIX.4.4|9=106|35=A|34=1|49=001|50=17|52=20190509-18:19:55.359|56=EXC|43=Y|98=0|108=30|141=Y|553=001FCM001|554=001FCM001|10=147|
8=FIX.4.4|9=0067|35=A|34=1|49=EXC|56=001|52=20190509-18:19:56.221|98=0|108=30|141=Y|10=014|
8=FIX.4.4|9=169|35=R|34=2|49=001|50=17|52=20190509-18:20:04.030|56=EXC|131=15927396|146=1|55=TFIC13280425|22=M|762=RFQF|54=1|38=500000000|453=2|448=18|447=C|452=37|448=DCV|447=C|452=10|10=145|
8=FIX.4.4|9=0148|35=AG|34=2|49=EXC|56=001|57=17|52=20190509-18:20:04.528|131=15927396|658=6|146=1|55=TFIC13280425|762=RFQF|22=M|58=(1480): SenderSubID(#50) invalido|10=167|
8=FIX.4.4|9=131|35=3|34=3|49=001|50=17|52=20190509-18:20:04.519|56=EXC|45=2|58=Out of order repeating group members, field=22|371=22|372=AG|373=15|10=127|
8=FIX.4.4|9=0049|35=0|34=3|49=EXC|56=001|52=20190509-18:20:34.000|10=168|
8=FIX.4.4|9=55|35=0|34=4|49=001|50=17|52=20190509-18:20:35.346|56=EXC|10=095|
8=FIX.4.4|9=0049|35=0|34=4|49=EXC|56=001|52=20190509-18:21:04.000|10=167|
8=FIX.4.4|9=55|35=0|34=5|49=001|50=17|52=20190509-18:21:05.368|56=EXC|10=098|
8=FIX.4.4|9=0049|35=0|34=5|49=EXC|56=001|52=20190509-18:21:34.000|10=171|
8=FIX.4.4|9=55|35=0|34=6|49=001|50=17|52=20190509-18:21:35.391|56=EXC|10=098|
8=FIX.4.4|9=0049|35=0|34=6|49=EXC|56=001|52=20190509-18:22:04.000|10=170|
8=FIX.4.4|9=55|35=0|34=7|49=001|50=17|52=20190509-18:22:05.412|56=EXC|10=091|
8=FIX.4.4|9=0049|35=0|34=7|49=EXC|56=001|52=20190509-18:22:34.000|10=174|
8=FIX.4.4|9=55|35=0|34=8|49=001|50=17|52=20190509-18:22:35.443|56=EXC|10=099|
8=FIX.4.4|9=0049|35=0|34=8|49=EXC|56=001|52=20190509-18:23:04.000|10=173|
8=FIX.4.4|9=55|35=0|34=9|49=001|50=17|52=20190509-18:23:05.462|56=EXC|10=099|
8=FIX.4.4|9=0049|35=0|34=9|49=EXC|56=001|52=20190509-18:23:34.000|10=177|
8=FIX.4.4|9=56|35=0|34=10|49=001|50=17|52=20190509-18:23:35.481|56=EXC|10=144|
8=FIX.4.4|9=0050|35=0|34=10|49=EXC|56=001|52=20190509-18:24:04.000|10=207|
8=FIX.4.4|9=56|35=0|34=11|49=001|50=17|52=20190509-18:24:05.500|56=EXC|10=135|
8=FIX.4.4|9=106|35=A|34=1|49=001|50=17|52=20190509-18:45:04.226|56=EXC|43=Y|98=0|108=30|141=Y|553=001FCM001|554=001FCM001|10=133|
8=FIX.4.4|9=0067|35=A|34=1|49=EXC|56=001|52=20190509-18:45:04.751|98=0|108=30|141=Y|10=014|
8=FIX.4.4|9=169|35=R|34=2|49=001|50=17|52=20190509-18:45:12.542|56=EXC|131=18883902|146=1|55=TFIC13280425|22=M|762=RFQF|54=1|38=500000000|453=2|448=19|447=C|452=37|448=DCV|447=C|452=10|10=157|
8=FIX.4.4|9=0148|35=AG|34=2|49=EXC|56=001|57=17|52=20190509-18:45:12.647|131=18883902|658=6|146=1|55=TFIC13280425|762=RFQF|22=M|58=(1480): SenderSubID(#50) invalido|10=172|
8=FIX.4.4|9=131|35=3|34=3|49=001|50=17|52=20190509-18:45:12.651|56=EXC|45=2|58=Out of order repeating group members, field=22|371=22|372=AG|373=15|10=130|
8=FIX.4.4|9=0049|35=0|34=3|49=EXC|56=001|52=20190509-18:45:42.000|10=174|
8=FIX.4.4|9=55|35=0|34=4|49=001|50=17|52=20190509-18:45:43.168|56=EXC|10=103|
8=FIX.4.4|9=106|35=A|34=1|49=001|50=17|52=20190509-18:51:47.215|56=EXC|43=Y|98=0|108=30|141=Y|553=001FCM001|554=001FCM001|10=135|
8=FIX.4.4|9=0067|35=A|34=1|49=EXC|56=001|52=20190509-18:51:47.767|98=0|108=30|141=Y|10=025|
8=FIX.4.4|9=169|35=R|34=2|49=001|50=17|52=20190509-18:51:55.452|56=EXC|131=55941031|146=1|55=TFIC13280425|22=M|762=RFQF|54=1|38=500000000|453=2|448=18|447=C|452=37|448=DCV|447=C|452=10|10=149|
8=FIX.4.4|9=0148|35=AG|34=2|49=EXC|56=001|57=17|52=20190509-18:51:55.562|131=55941031|658=6|146=1|55=TFIC13280425|762=RFQF|22=M|58=(1480): SenderSubID(#50) invalido|10=161|
8=FIX.4.4|9=131|35=3|34=3|49=001|50=17|52=20190509-18:51:55.562|56=EXC|45=2|58=Out of order repeating group members, field=22|371=22|372=AG|373=15|10=135|
8=FIX.4.4|9=0049|35=0|34=3|49=EXC|56=001|52=20190509-18:52:25.000|10=173|
8=FIX.4.4|9=55|35=0|34=4|49=001|50=17|52=20190509-18:52:26.183|56=EXC|10=099|
8=FIX.4.4|9=106|35=A|34=1|49=001|50=17|52=20190509-18:52:49.302|56=EXC|43=Y|98=0|108=30|141=Y|553=001FCM001|554=001FCM001|10=135|
8=FIX.4.4|9=106|35=A|34=1|49=001|50=17|52=20190509-19:08:19.105|56=EXC|43=Y|98=0|108=30|141=Y|553=001FCM001|554=001FCM001|10=135|
8=FIX.4.4|9=0067|35=A|34=1|49=EXC|56=001|52=20190509-19:08:19.643|98=0|108=30|141=Y|10=020|
8=FIX.4.4|9=169|35=R|34=2|49=001|50=17|52=20190509-19:08:27.332|56=EXC|131=53173524|146=1|55=TFIC13280425|22=M|762=RFQF|54=1|38=500000000|453=2|448=18|447=C|452=37|448=DCV|447=C|452=10|10=150|
8=FIX.4.4|9=0148|35=AG|34=2|49=EXC|56=001|57=17|52=20190509-19:08:27.411|131=53173524|658=6|146=1|55=TFIC13280425|762=RFQF|22=M|58=(1480): SenderSubID(#50) invalido|10=158|
8=FIX.4.4|9=131|35=3|34=3|49=001|50=17|52=20190509-19:08:27.412|56=EXC|45=2|58=Out of order repeating group members, field=22|371=22|372=AG|373=15|10=131|
8=FIX.4.4|9=106|35=A|34=1|49=001|50=17|52=20190509-19:23:34.179|56=EXC|43=Y|98=0|108=30|141=Y|553=001FCM001|554=001FCM001|10=140|
8=FIX.4.4|9=0067|35=A|34=1|49=EXC|56=001|52=20190509-19:23:34.793|98=0|108=30|141=Y|10=020|
8=FIX.4.4|9=169|35=R|34=2|49=001|50=17|52=20190509-19:23:42.403|56=EXC|131=73199443|146=1|55=TFIC13280425|22=M|762=RFQF|54=1|38=500000000|453=2|448=18|447=C|452=37|448=DCV|447=C|452=10|10=153|
8=FIX.4.4|9=0148|35=AG|34=2|49=EXC|56=001|57=17|52=20190509-19:23:42.483|131=73199443|658=6|146=1|55=TFIC13280425|762=RFQF|22=M|58=(1480): SenderSubID(#50) invalido|10=171|
8=FIX.4.4|9=131|35=3|34=3|49=001|50=17|52=20190509-19:23:42.485|56=EXC|45=2|58=Out of order repeating group members, field=22|371=22|372=AG|373=15|10=135|
8=FIX.4.4|9=0049|35=0|34=3|49=EXC|56=001|52=20190509-19:24:12.000|10=169|
8=FIX.4.4|9=55|35=0|34=4|49=001|50=17|52=20190509-19:24:13.149|56=EXC|10=097|
8=FIX.4.4|9=0049|35=0|34=4|49=EXC|56=001|52=20190509-19:24:42.000|10=173|
8=FIX.4.4|9=55|35=0|34=5|49=001|50=17|52=20190509-19:24:43.149|56=EXC|10=101|
8=FIX.4.4|9=0049|35=0|34=5|49=EXC|56=001|52=20190509-19:25:12.000|10=172|
8=FIX.4.4|9=55|35=0|34=6|49=001|50=17|52=20190509-19:25:13.149|56=EXC|10=100|
8=FIX.4.4|9=0049|35=0|34=6|49=EXC|56=001|52=20190509-19:25:42.000|10=176|
8=FIX.4.4|9=55|35=0|34=7|49=001|50=17|52=20190509-19:25:43.150|56=EXC|10=096|
8=FIX.4.4|9=0049|35=0|34=7|49=EXC|56=001|52=20190509-19:26:12.000|10=175|
8=FIX.4.4|9=55|35=0|34=8|49=001|50=17|52=20190509-19:26:13.149|56=EXC|10=103|
8=FIX.4.4|9=0049|35=0|34=8|49=EXC|56=001|52=20190509-19:26:42.000|10=179|
8=FIX.4.4|9=55|35=0|34=9|49=001|50=17|52=20190509-19:26:43.150|56=EXC|10=099|
8=FIX.4.4|9=0049|35=0|34=9|49=EXC|56=001|52=20190509-19:27:12.000|10=178|
8=FIX.4.4|9=56|35=0|34=10|49=001|50=17|52=20190509-19:27:13.149|56=EXC|10=146|
8=FIX.4.4|9=0050|35=0|34=10|49=EXC|56=001|52=20190509-19:27:42.000|10=213|
8=FIX.4.4|9=56|35=0|34=11|49=001|50=17|52=20190509-19:27:43.151|56=EXC|10=143|
8=FIX.4.4|9=0050|35=0|34=11|49=EXC|56=001|52=20190509-19:28:12.000|10=212|
8=FIX.4.4|9=56|35=0|34=12|49=001|50=17|52=20190509-19:28:13.149|56=EXC|10=149|
8=FIX.4.4|9=0050|35=0|34=12|49=EXC|56=001|52=20190509-19:28:42.000|10=216|
8=FIX.4.4|9=56|35=0|34=13|49=001|50=17|52=20190509-19:28:43.149|56=EXC|10=153|
8=FIX.4.4|9=0050|35=0|34=13|49=EXC|56=001|52=20190509-19:29:12.000|10=215|
8=FIX.4.4|9=56|35=0|34=14|49=001|50=17|52=20190509-19:29:13.149|56=EXC|10=152|
8=FIX.4.4|9=0050|35=0|34=14|49=EXC|56=001|52=20190509-19:29:42.000|10=219|
8=FIX.4.4|9=56|35=0|34=15|49=001|50=17|52=20190509-19:29:43.149|56=EXC|10=156|
8=FIX.4.4|9=0050|35=0|34=15|49=EXC|56=001|52=20190509-19:30:12.000|10=209|
8=FIX.4.4|9=56|35=0|34=16|49=001|50=17|52=20190509-19:30:13.150|56=EXC|10=138|
8=FIX.4.4|9=0050|35=0|34=16|49=EXC|56=001|52=20190509-19:30:42.000|10=213|
8=FIX.4.4|9=56|35=0|34=17|49=001|50=17|52=20190509-19:30:43.149|56=EXC|10=150|
8=FIX.4.4|9=0050|35=0|34=17|49=EXC|56=001|52=20190509-19:31:12.000|10=212|
8=FIX.4.4|9=56|35=0|34=18|49=001|50=17|52=20190509-19:31:13.149|56=EXC|10=149|
8=FIX.4.4|9=0050|35=0|34=18|49=EXC|56=001|52=20190509-19:31:42.000|10=216|
8=FIX.4.4|9=56|35=0|34=19|49=001|50=17|52=20190509-19:31:43.158|56=EXC|10=153|
8=FIX.4.4|9=0050|35=0|34=19|49=EXC|56=001|52=20190509-19:32:12.000|10=215|
8=FIX.4.4|9=56|35=0|34=20|49=001|50=17|52=20190509-19:32:13.150|56=EXC|10=135|
8=FIX.4.4|9=0050|35=0|34=20|49=EXC|56=001|52=20190509-19:32:42.000|10=210|
8=FIX.4.4|9=56|35=0|34=21|49=001|50=17|52=20190509-19:32:43.149|56=EXC|10=147|
8=FIX.4.4|9=0050|35=0|34=21|49=EXC|56=001|52=20190509-19:33:12.000|10=209|
8=FIX.4.4|9=56|35=0|34=22|49=001|50=17|52=20190509-19:33:13.149|56=EXC|10=146|
8=FIX.4.4|9=0050|35=0|34=22|49=EXC|56=001|52=20190509-19:33:42.000|10=213|
8=FIX.4.4|9=56|35=0|34=23|49=001|50=17|52=20190509-19:33:43.149|56=EXC|10=150|
8=FIX.4.4|9=0050|35=0|34=23|49=EXC|56=001|52=20190509-19:34:12.000|10=212|
8=FIX.4.4|9=56|35=0|34=24|49=001|50=17|52=20190509-19:34:13.149|56=EXC|10=149|
8=FIX.4.4|9=0050|35=0|34=24|49=EXC|56=001|52=20190509-19:34:42.000|10=216|
8=FIX.4.4|9=56|35=0|34=25|49=001|50=17|52=20190509-19:34:43.150|56=EXC|10=145|
8=FIX.4.4|9=0050|35=0|34=25|49=EXC|56=001|52=20190509-19:35:12.000|10=215|
8=FIX.4.4|9=56|35=0|34=26|49=001|50=17|52=20190509-19:35:13.150|56=EXC|10=144|
8=FIX.4.4|9=0050|35=0|34=26|49=EXC|56=001|52=20190509-19:35:42.000|10=219|
8=FIX.4.4|9=56|35=0|34=27|49=001|50=17|52=20190509-19:35:43.161|56=EXC|10=150|
8=FIX.4.4|9=0050|35=0|34=27|49=EXC|56=001|52=20190509-19:36:12.000|10=218|
8=FIX.4.4|9=56|35=0|34=28|49=001|50=17|52=20190509-19:36:14.150|56=EXC|10=148|
8=FIX.4.4|9=0050|35=0|34=28|49=EXC|56=001|52=20190509-19:36:42.000|10=222|
8=FIX.4.4|9=56|35=0|34=29|49=001|50=17|52=20190509-19:36:44.149|56=EXC|10=160|
8=FIX.4.4|9=0050|35=0|34=29|49=EXC|56=001|52=20190509-19:37:12.000|10=221|
8=FIX.4.4|9=56|35=0|34=30|49=001|50=17|52=20190509-19:37:14.150|56=EXC|10=142|
8=FIX.4.4|9=106|35=A|34=1|49=001|50=17|52=20190509-20:28:03.976|56=EXC|43=Y|98=0|108=30|141=Y|553=001FCM001|554=001FCM001|10=138|
8=FIX.4.4|9=0067|35=A|34=1|49=EXC|56=001|52=20190509-20:28:04.618|98=0|108=30|141=Y|10=010|
8=FIX.4.4|9=173|35=R|34=2|49=001|50=17|52=20190509-20:28:12.362|56=EXC|131=64535538|146=1|55=TFIC13280425|22=M|762=RFQF|54=1|38=500000000|453=2|448=002B35|447=C|452=37|448=DCV|447=C|452=10|10=100|
8=FIX.4.4|9=0148|35=AG|34=2|49=EXC|56=001|57=17|52=20190509-20:28:12.439|131=64535538|658=6|146=1|55=TFIC13280425|762=RFQF|22=M|58=(1480): SenderSubID(#50) invalido|10=165|
8=FIX.4.4|9=131|35=3|34=3|49=001|50=17|52=20190509-20:28:12.447|56=EXC|45=2|58=Out of order repeating group members, field=22|371=22|372=AG|373=15|10=127|
8=FIX.4.4|9=0049|35=0|34=3|49=EXC|56=001|52=20190509-20:28:42.000|10=168|
8=FIX.4.4|9=55|35=0|34=4|49=001|50=17|52=20190509-20:28:42.936|56=EXC|10=099|
8=FIX.4.4|9=0049|35=0|34=4|49=EXC|56=001|52=20190509-20:29:12.000|10=167|
8=FIX.4.4|9=55|35=0|34=5|49=001|50=17|52=20190509-20:29:12.936|56=EXC|10=098|
8=FIX.4.4|9=0049|35=0|34=5|49=EXC|56=001|52=20190509-20:29:42.000|10=171|
8=FIX.4.4|9=106|35=A|34=1|49=001|50=17|52=20190509-20:29:51.778|56=EXC|43=Y|98=0|108=30|141=Y|553=001FCM001|554=001FCM001|10=142|
8=FIX.4.4|9=0067|35=A|34=1|49=EXC|56=001|52=20190509-20:29:52.197|98=0|108=30|141=Y|10=016|
8=FIX.4.4|9=173|35=R|34=2|49=001|50=17|52=20190509-20:30:00.142|56=EXC|131=61843719|146=1|55=TFIC13280425|22=M|762=RFQF|54=1|38=500000000|453=2|448=002B35|447=C|452=37|448=DCV|447=C|452=10|10=086|
8=FIX.4.4|9=0148|35=AG|34=2|49=EXC|56=001|57=17|52=20190509-20:30:00.241|131=61843719|658=6|146=1|55=TFIC13280425|762=RFQF|22=M|58=(1480): SenderSubID(#50) invalido|10=146|
8=FIX.4.4|9=131|35=3|34=3|49=001|50=17|52=20190509-20:30:00.251|56=EXC|45=2|58=Out of order repeating group members, field=22|371=22|372=AG|373=15|10=110|
8=FIX.4.4|9=0049|35=0|34=3|49=EXC|56=001|52=20190509-20:30:30.000|10=158|
8=FIX.4.4|9=55|35=0|34=4|49=001|50=17|52=20190509-20:30:30.737|56=EXC|10=088|
8=FIX.4.4|9=0049|35=0|34=4|49=EXC|56=001|52=20190509-20:31:00.000|10=157|
8=FIX.4.4|9=55|35=0|34=5|49=001|50=17|52=20190509-20:31:00.737|56=EXC|10=087|
8=FIX.4.4|9=0049|35=0|34=5|49=EXC|56=001|52=20190509-20:31:30.000|10=161|
8=FIX.4.4|9=55|35=0|34=6|49=001|50=17|52=20190509-20:31:30.736|56=EXC|10=090|
8=FIX.4.4|9=0049|35=0|34=6|49=EXC|56=001|52=20190509-20:32:00.000|10=160|
8=FIX.4.4|9=55|35=0|34=7|49=001|50=17|52=20190509-20:32:00.736|56=EXC|10=089|
8=FIX.4.4|9=0049|35=0|34=7|49=EXC|56=001|52=20190509-20:32:30.000|10=164|
8=FIX.4.4|9=55|35=0|34=8|49=001|50=17|52=20190509-20:32:30.737|56=EXC|10=094|
8=FIX.4.4|9=0049|35=0|34=8|49=EXC|56=001|52=20190509-20:33:00.000|10=163|
8=FIX.4.4|9=55|35=0|34=9|49=001|50=17|52=20190509-20:33:00.736|56=EXC|10=092|
8=FIX.4.4|9=0049|35=0|34=9|49=EXC|56=001|52=20190509-20:33:30.000|10=167|
8=FIX.4.4|9=56|35=0|34=10|49=001|50=17|52=20190509-20:33:30.736|56=EXC|10=136|
8=FIX.4.4|9=0050|35=0|34=10|49=EXC|56=001|52=20190509-20:34:00.000|10=197|
8=FIX.4.4|9=56|35=0|34=11|49=001|50=17|52=20190509-20:34:00.736|56=EXC|10=135|
8=FIX.4.4|9=0050|35=0|34=11|49=EXC|56=001|52=20190509-20:34:30.000|10=201|
8=FIX.4.4|9=56|35=0|34=12|49=001|50=17|52=20190509-20:34:30.736|56=EXC|10=139|
8=FIX.4.4|9=0050|35=0|34=12|49=EXC|56=001|52=20190509-20:35:00.000|10=200|
8=FIX.4.4|9=56|35=0|34=13|49=001|50=17|52=20190509-20:35:00.736|56=EXC|10=138|
8=FIX.4.4|9=0050|35=0|34=13|49=EXC|56=001|52=20190509-20:35:30.000|10=204|
8=FIX.4.4|9=56|35=0|34=14|49=001|50=17|52=20190509-20:35:30.736|56=EXC|10=142|
8=FIX.4.4|9=0050|35=0|34=14|49=EXC|56=001|52=20190509-20:36:00.000|10=203|
8=FIX.4.4|9=56|35=0|34=15|49=001|50=17|52=20190509-20:36:00.737|56=EXC|10=142|
8=FIX.4.4|9=106|35=A|34=1|49=001|50=17|52=20190509-20:37:00.846|56=EXC|43=Y|98=0|108=30|141=Y|553=001FCM001|554=001FCM001|10=131|
8=FIX.4.4|9=0067|35=A|34=1|49=EXC|56=001|52=20190509-20:37:01.268|98=0|108=30|141=Y|10=008|
8=FIX.4.4|9=173|35=R|34=2|49=001|50=17|52=20190509-20:37:09.226|56=EXC|131=38726873|146=1|55=TFIC13280425|22=M|762=RFQF|54=1|38=500000000|453=2|448=002B35|447=C|452=37|448=DCV|447=C|452=10|10=110|
8=FIX.4.4|9=0148|35=AG|34=2|49=EXC|56=001|57=17|52=20190509-20:37:09.284|131=38726873|658=6|146=1|55=TFIC13280425|762=RFQF|22=M|58=(1480): SenderSubID(#50) invalido|10=174|
8=FIX.4.4|9=131|35=3|34=3|49=001|50=17|52=20190509-20:37:09.295|56=EXC|45=2|58=Out of order repeating group members, field=22|371=22|372=AG|373=15|10=134|
8=FIX.4.4|9=0049|35=0|34=3|49=EXC|56=001|52=20190509-20:37:39.000|10=174|
8=FIX.4.4|9=55|35=0|34=4|49=001|50=17|52=20190509-20:37:39.823|56=EXC|10=100|
8=FIX.4.4|9=0049|35=0|34=4|49=EXC|56=001|52=20190509-20:38:09.000|10=173|
8=FIX.4.4|9=55|35=0|34=5|49=001|50=17|52=20190509-20:38:09.824|56=EXC|10=100|
8=FIX.4.4|9=0049|35=0|34=5|49=EXC|56=001|52=20190509-20:38:39.000|10=177|
8=FIX.4.4|9=55|35=0|34=6|49=001|50=17|52=20190509-20:38:39.823|56=EXC|10=103|
8=FIX.4.4|9=0049|35=0|34=6|49=EXC|56=001|52=20190509-20:39:09.000|10=176|
8=FIX.4.4|9=55|35=0|34=7|49=001|50=17|52=20190509-20:39:09.823|56=EXC|10=102|
8=FIX.4.4|9=0049|35=0|34=7|49=EXC|56=001|52=20190509-20:39:39.000|10=180|
8=FIX.4.4|9=55|35=0|34=8|49=001|50=17|52=20190509-20:39:39.825|56=EXC|10=108|
8=FIX.4.4|9=0049|35=0|34=8|49=EXC|56=001|52=20190509-20:40:09.000|10=170|
8=FIX.4.4|9=55|35=0|34=9|49=001|50=17|52=20190509-20:40:09.823|56=EXC|10=096|
8=FIX.4.4|9=0049|35=0|34=9|49=EXC|56=001|52=20190509-20:40:39.000|10=174|
8=FIX.4.4|9=56|35=0|34=10|49=001|50=17|52=20190509-20:40:39.823|56=EXC|10=140|
8=FIX.4.4|9=0050|35=0|34=10|49=EXC|56=001|52=20190509-20:41:09.000|10=204|
8=FIX.4.4|9=56|35=0|34=11|49=001|50=17|52=20190509-20:41:09.824|56=EXC|10=140|
8=FIX.4.4|9=0050|35=0|34=11|49=EXC|56=001|52=20190509-20:41:39.000|10=208|
8=FIX.4.4|9=56|35=0|34=12|49=001|50=17|52=20190509-20:41:39.824|56=EXC|10=144|
8=FIX.4.4|9=0050|35=0|34=12|49=EXC|56=001|52=20190509-20:42:09.000|10=207|
8=FIX.4.4|9=56|35=0|34=13|49=001|50=17|52=20190509-20:42:09.823|56=EXC|10=142|
8=FIX.4.4|9=0050|35=0|34=13|49=EXC|56=001|52=20190509-20:42:39.000|10=211|
8=FIX.4.4|9=56|35=0|34=14|49=001|50=17|52=20190509-20:42:39.824|56=EXC|10=147|
8=FIX.4.4|9=0050|35=0|34=14|49=EXC|56=001|52=20190509-20:43:09.000|10=210|
8=FIX.4.4|9=56|35=0|34=15|49=001|50=17|52=20190509-20:43:09.823|56=EXC|10=145|
8=FIX.4.4|9=0050|35=0|34=15|49=EXC|56=001|52=20190509-20:43:39.000|10=214|
8=FIX.4.4|9=56|35=0|34=16|49=001|50=17|52=20190509-20:43:39.825|56=EXC|10=151|
8=FIX.4.4|9=0050|35=0|34=16|49=EXC|56=001|52=20190509-20:44:09.000|10=213|
8=FIX.4.4|9=56|35=0|34=17|49=001|50=17|52=20190509-20:44:09.825|56=EXC|10=150|
8=FIX.4.4|9=0050|35=0|34=17|49=EXC|56=001|52=20190509-20:44:39.000|10=217|
8=FIX.4.4|9=56|35=0|34=18|49=001|50=17|52=20190509-20:44:39.825|56=EXC|10=154|
8=FIX.4.4|9=0050|35=0|34=18|49=EXC|56=001|52=20190509-20:45:09.000|10=216|
8=FIX.4.4|9=56|35=0|34=19|49=001|50=17|52=20190509-20:45:09.823|56=EXC|10=151|
8=FIX.4.4|9=0050|35=0|34=19|49=EXC|56=001|52=20190509-20:45:39.000|10=220|
8=FIX.4.4|9=56|35=0|34=20|49=001|50=17|52=20190509-20:45:39.824|56=EXC|10=147|
