8=FIX.4.4|9=110|35=A|34=1|49=010|50=010BWN|52=20190527-20:57:10.025|56=EXC|43=Y|98=0|108=30|141=Y|553=013FCM001|554=013FCM001|10=140|
8=FIX.4.4|9=110|35=A|34=1|49=010|50=010BWN|52=20190527-20:58:46.237|56=EXC|43=Y|98=0|108=30|141=Y|553=013FCM001|554=013FCM001|10=155|
8=FIX.4.4|9=110|35=A|34=1|49=010|50=010BWN|52=20190527-21:00:54.369|56=EXC|43=Y|98=0|108=30|141=Y|553=013FCM001|554=013FCM001|10=148|
8=FIX.4.4|9=110|35=A|34=1|49=010|50=010BWN|52=20190527-21:10:19.071|56=EXC|43=Y|98=0|108=30|141=Y|553=010FCE003|554=010FCE003|10=122|
8=FIX.4.4|9=0067|35=A|34=1|49=EXC|56=010|52=20190527-21:10:19.085|98=0|108=30|141=Y|10=006|
8=FIX.4.4|9=110|35=A|34=1|49=010|50=010BWN|52=20190527-21:22:19.572|56=EXC|43=Y|98=0|108=30|141=Y|553=010FCE003|554=010FCE003|10=131|
8=FIX.4.4|9=0067|35=A|34=1|49=EXC|56=010|52=20190527-21:22:19.580|98=0|108=30|141=Y|10=009|
8=FIX.4.4|9=110|35=A|34=1|49=010|50=010BWN|52=20190527-21:24:07.011|56=EXC|43=Y|98=0|108=30|141=Y|553=010FCE003|554=010FCE003|10=118|
8=FIX.4.4|9=0067|35=A|34=1|49=EXC|56=010|52=20190527-21:24:07.014|98=0|108=30|141=Y|10=000|
8=FIX.4.4|9=110|35=A|34=1|49=010|50=010BWN|52=20190527-21:28:00.414|56=EXC|43=Y|98=0|108=30|141=Y|553=010FCE003|554=010FCE003|10=122|
8=FIX.4.4|9=0067|35=A|34=1|49=EXC|56=010|52=20190527-21:28:00.419|98=0|108=30|141=Y|10=006|
8=FIX.4.4|9=110|35=A|34=1|49=010|50=010BWN|52=20190527-21:29:23.538|56=EXC|43=Y|98=0|108=30|141=Y|553=010FCE003|554=010FCE003|10=135|
8=FIX.4.4|9=0067|35=A|34=1|49=EXC|56=010|52=20190527-21:29:23.537|98=0|108=30|141=Y|10=013|
8=FIX.4.4|9=110|35=A|34=1|49=010|50=010BWN|52=20190528-12:36:49.722|56=EXC|43=Y|98=0|108=30|141=Y|553=010FCE003|554=010FCE003|10=137|
8=FIX.4.4|9=0067|35=A|34=1|49=EXC|56=010|52=20190528-12:36:50.511|98=0|108=30|141=Y|10=004|
8=FIX.4.4|9=0049|35=0|34=2|49=EXC|56=010|52=20190528-12:37:20.000|10=165|
8=FIX.4.4|9=59|35=0|34=2|49=010|50=010BWN|52=20190528-12:37:20.613|56=EXC|10=107|
8=FIX.4.4|9=110|35=A|34=1|49=010|50=010BWN|52=20190528-12:43:36.320|56=EXC|43=Y|98=0|108=30|141=Y|553=010FCE003|554=010FCE003|10=125|
8=FIX.4.4|9=0067|35=A|34=1|49=EXC|56=010|52=20190528-12:43:36.643|98=0|108=30|141=Y|10=012|
8=FIX.4.4|9=110|35=A|34=1|49=010|50=010BWN|52=20190528-12:57:43.640|56=EXC|43=Y|98=0|108=30|141=Y|553=010FCE003|554=010FCE003|10=133|
8=FIX.4.4|9=0067|35=A|34=1|49=EXC|56=010|52=20190528-12:57:44.175|98=0|108=30|141=Y|10=016|
8=FIX.4.4|9=110|35=A|34=1|49=010|50=010BWN|52=20190528-12:59:56.711|56=EXC|43=Y|98=0|108=30|141=Y|553=010FCE003|554=010FCE003|10=138|
8=FIX.4.4|9=0067|35=A|34=1|49=EXC|56=010|52=20190528-12:59:57.284|98=0|108=30|141=Y|10=023|
8=FIX.4.4|9=0049|35=0|34=2|49=EXC|56=010|52=20190528-13:00:27.000|10=163|
8=FIX.4.4|9=59|35=0|34=2|49=010|50=010BWN|52=20190528-13:00:27.534|56=EXC|10=107|
8=FIX.4.4|9=110|35=A|34=1|49=010|50=010BWN|52=20190528-13:26:08.663|56=EXC|43=Y|98=0|108=30|141=Y|553=010FCE003|554=010FCE003|10=136|
8=FIX.4.4|9=0067|35=A|34=1|49=EXC|56=010|52=20190528-13:26:08.735|98=0|108=30|141=Y|10=015|
8=FIX.4.4|9=110|35=A|34=1|49=010|50=010BWN|52=20190528-15:22:28.813|56=EXC|43=Y|98=0|108=30|141=Y|553=010FCE003|554=010FCE003|10=133|
8=FIX.4.4|9=0067|35=A|34=1|49=EXC|56=010|52=20190528-15:22:28.894|98=0|108=30|141=Y|10=021|
8=FIX.4.4|9=110|35=A|34=1|49=010|50=010BWN|52=20190528-15:24:02.543|56=EXC|43=Y|98=0|108=30|141=Y|553=010FCE003|554=010FCE003|10=127|
8=FIX.4.4|9=0067|35=A|34=1|49=EXC|56=010|52=20190528-15:24:02.609|98=0|108=30|141=Y|10=009|
8=FIX.4.4|9=110|35=A|34=1|49=010|50=010BWN|52=20190528-20:13:38.124|56=EXC|43=Y|98=0|108=30|141=Y|553=010FCE003|554=010FCE003|10=125|
8=FIX.4.4|9=0067|35=A|34=1|49=EXC|56=010|52=20190528-20:13:38.193|98=0|108=30|141=Y|10=010|
8=FIX.4.4|9=110|35=A|34=1|49=010|50=010BWN|52=20190528-20:18:12.403|56=EXC|43=Y|98=0|108=30|141=Y|553=010FCE003|554=010FCE003|10=122|
8=FIX.4.4|9=0067|35=A|34=1|49=EXC|56=010|52=20190528-20:18:12.463|98=0|108=30|141=Y|10=007|
8=FIX.4.4|9=110|35=A|34=1|49=010|50=010BWN|52=20190528-20:54:13.231|56=EXC|43=Y|98=0|108=30|141=Y|553=010FCE003|554=010FCE003|10=122|
8=FIX.4.4|9=0067|35=A|34=1|49=EXC|56=010|52=20190528-20:54:13.309|98=0|108=30|141=Y|10=007|
8=FIX.4.4|9=110|35=A|34=1|49=010|50=010BWN|52=20190528-23:51:53.691|56=EXC|43=Y|98=0|108=30|141=Y|553=010FCE003|554=010FCE003|10=136|
8=FIX.4.4|9=0067|35=A|34=1|49=EXC|56=010|52=20190528-23:51:53.442|98=0|108=30|141=Y|10=009|
8=FIX.4.4|9=0049|35=0|34=2|49=EXC|56=010|52=20190528-23:52:23.000|10=167|
8=FIX.4.4|9=59|35=0|34=2|49=010|50=010BWN|52=20190528-23:52:24.665|56=EXC|10=117|
8=FIX.4.4|9=110|35=A|34=1|49=010|50=010BWN|52=20190529-00:03:20.468|56=EXC|43=Y|98=0|108=30|141=Y|553=010FCE003|554=010FCE003|10=125|
8=FIX.4.4|9=0067|35=A|34=1|49=EXC|56=010|52=20190529-00:03:20.186|98=0|108=30|141=Y|10=001|
8=FIX.4.4|9=0049|35=0|34=2|49=EXC|56=010|52=20190529-00:03:50.000|10=159|
8=FIX.4.4|9=59|35=0|34=2|49=010|50=010BWN|52=20190529-00:03:51.330|56=EXC|10=098|
8=FIX.4.4|9=0049|35=0|34=3|49=EXC|56=010|52=20190529-00:04:20.000|10=158|
8=FIX.4.4|9=59|35=0|34=3|49=010|50=010BWN|52=20190529-00:04:21.331|56=EXC|10=098|
8=FIX.4.4|9=110|35=A|34=1|49=010|50=010BWN|52=20190529-00:09:25.941|56=EXC|43=Y|98=0|108=30|141=Y|553=010FCE003|554=010FCE003|10=132|
8=FIX.4.4|9=0067|35=A|34=1|49=EXC|56=010|52=20190529-00:09:25.651|98=0|108=30|141=Y|10=009|
8=FIX.4.4|9=0049|35=0|34=2|49=EXC|56=010|52=20190529-00:09:55.000|10=170|
8=FIX.4.4|9=59|35=0|34=2|49=010|50=010BWN|52=20190529-00:09:56.902|56=EXC|10=114|
8=FIX.4.4|9=0049|35=0|34=3|49=EXC|56=010|52=20190529-00:10:25.000|10=160|
8=FIX.4.4|9=59|35=0|34=3|49=010|50=010BWN|52=20190529-00:10:26.901|56=EXC|10=103|
8=FIX.4.4|9=110|35=A|34=1|49=010|50=010BWN|52=20190529-00:10:49.153|56=EXC|43=Y|98=0|108=30|141=Y|553=010FCE003|554=010FCE003|10=125|
8=FIX.4.4|9=0067|35=A|34=1|49=EXC|56=010|52=20190529-00:10:48.866|98=0|108=30|141=Y|10=014|
8=FIX.4.4|9=0049|35=0|34=2|49=EXC|56=010|52=20190529-00:11:18.000|10=162|
8=FIX.4.4|9=59|35=0|34=2|49=010|50=010BWN|52=20190529-00:11:20.124|56=EXC|10=094|
8=FIX.4.4|9=0049|35=0|34=3|49=EXC|56=010|52=20190529-00:11:48.000|10=166|
8=FIX.4.4|9=59|35=0|34=3|49=010|50=010BWN|52=20190529-00:11:50.123|56=EXC|10=097|
8=FIX.4.4|9=0049|35=0|34=4|49=EXC|56=010|52=20190529-00:12:18.000|10=165|
8=FIX.4.4|9=59|35=0|34=4|49=010|50=010BWN|52=20190529-00:12:20.122|56=EXC|10=095|
8=FIX.4.4|9=0049|35=0|34=5|49=EXC|56=010|52=20190529-00:12:48.000|10=169|
8=FIX.4.4|9=59|35=0|34=5|49=010|50=010BWN|52=20190529-00:12:50.123|56=EXC|10=100|
8=FIX.4.4|9=110|35=A|34=1|49=010|50=010BWN|52=20190529-00:14:06.751|56=EXC|43=Y|98=0|108=30|141=Y|553=010FCE003|554=010FCE003|10=126|
8=FIX.4.4|9=0067|35=A|34=1|49=EXC|56=010|52=20190529-00:14:06.459|98=0|108=30|141=Y|10=010|
8=FIX.4.4|9=0049|35=0|34=2|49=EXC|56=010|52=20190529-00:14:36.000|10=165|
8=FIX.4.4|9=59|35=0|34=2|49=010|50=010BWN|52=20190529-00:14:37.715|56=EXC|10=111|
8=FIX.4.4|9=0049|35=0|34=3|49=EXC|56=010|52=20190529-00:15:06.000|10=164|
8=FIX.4.4|9=59|35=0|34=3|49=010|50=010BWN|52=20190529-00:15:07.714|56=EXC|10=109|
8=FIX.4.4|9=110|35=A|34=1|49=010|50=010BWN|52=20190529-00:16:05.322|56=EXC|43=Y|98=0|108=30|141=Y|553=010FCE003|554=010FCE003|10=121|
8=FIX.4.4|9=0067|35=A|34=1|49=EXC|56=010|52=20190529-00:16:04.770|98=0|108=30|141=Y|10=006|
8=FIX.4.4|9=0049|35=0|34=2|49=EXC|56=010|52=20190529-00:16:34.000|10=165|
8=FIX.4.4|9=59|35=0|34=2|49=010|50=010BWN|52=20190529-00:16:36.298|56=EXC|10=118|
8=FIX.4.4|9=0049|35=0|34=3|49=EXC|56=010|52=20190529-00:17:04.000|10=164|
8=FIX.4.4|9=59|35=0|34=3|49=010|50=010BWN|52=20190529-00:17:06.298|56=EXC|10=117|
8=FIX.4.4|9=0049|35=0|34=4|49=EXC|56=010|52=20190529-00:17:34.000|10=168|
8=FIX.4.4|9=59|35=0|34=4|49=010|50=010BWN|52=20190529-00:17:36.297|56=EXC|10=120|
8=FIX.4.4|9=0049|35=0|34=5|49=EXC|56=010|52=20190529-00:18:04.000|10=167|
8=FIX.4.4|9=59|35=0|34=5|49=010|50=010BWN|52=20190529-00:18:06.297|56=EXC|10=119|
8=FIX.4.4|9=0049|35=0|34=6|49=EXC|56=010|52=20190529-00:18:34.000|10=171|
8=FIX.4.4|9=59|35=0|34=6|49=010|50=010BWN|52=20190529-00:18:36.298|56=EXC|10=124|
8=FIX.4.4|9=0049|35=0|34=7|49=EXC|56=010|52=20190529-00:19:04.000|10=170|
8=FIX.4.4|9=59|35=0|34=7|49=010|50=010BWN|52=20190529-00:19:06.297|56=EXC|10=122|
8=FIX.4.4|9=110|35=A|34=1|49=010|50=010BWN|52=20190529-00:19:57.275|56=EXC|43=Y|98=0|108=30|141=Y|553=010FCE003|554=010FCE003|10=138|
8=FIX.4.4|9=0067|35=A|34=1|49=EXC|56=010|52=20190529-00:19:56.717|98=0|108=30|141=Y|10=017|
8=FIX.4.4|9=0049|35=0|34=2|49=EXC|56=010|52=20190529-00:20:26.000|10=161|
8=FIX.4.4|9=59|35=0|34=2|49=010|50=010BWN|52=20190529-00:20:28.247|56=EXC|10=108|
8=FIX.4.4|9=0049|35=0|34=3|49=EXC|56=010|52=20190529-00:20:56.000|10=165|
8=FIX.4.4|9=59|35=0|34=3|49=010|50=010BWN|52=20190529-00:20:58.248|56=EXC|10=113|
8=FIX.4.4|9=110|35=A|34=1|49=010|50=010BWN|52=20190529-00:22:19.657|56=EXC|43=Y|98=0|108=30|141=Y|553=010FCE003|554=010FCE003|10=134|
8=FIX.4.4|9=0067|35=A|34=1|49=EXC|56=010|52=20190529-00:22:19.093|98=0|108=30|141=Y|10=007|
8=FIX.4.4|9=110|35=A|34=1|49=010|50=010BWN|52=20190529-00:23:37.145|56=EXC|43=Y|98=0|108=30|141=Y|553=010FCE003|554=010FCE003|10=127|
8=FIX.4.4|9=0067|35=A|34=1|49=EXC|56=010|52=20190529-00:23:36.587|98=0|108=30|141=Y|10=015|
8=FIX.4.4|9=0049|35=0|34=2|49=EXC|56=010|52=20190529-00:24:06.000|10=163|
8=FIX.4.4|9=59|35=0|34=2|49=010|50=010BWN|52=20190529-00:24:08.082|56=EXC|10=107|
8=FIX.4.4|9=0049|35=0|34=3|49=EXC|56=010|52=20190529-00:24:36.000|10=167|
8=FIX.4.4|9=59|35=0|34=3|49=010|50=010BWN|52=20190529-00:24:38.082|56=EXC|10=111|
8=FIX.4.4|9=0049|35=0|34=4|49=EXC|56=010|52=20190529-00:25:06.000|10=166|
8=FIX.4.4|9=59|35=0|34=4|49=010|50=010BWN|52=20190529-00:25:08.082|56=EXC|10=110|
8=FIX.4.4|9=110|35=A|34=1|49=010|50=010BWN|52=20190529-00:25:31.794|56=EXC|43=Y|98=0|108=30|141=Y|553=010FCE003|554=010FCE003|10=133|
8=FIX.4.4|9=0067|35=A|34=1|49=EXC|56=010|52=20190529-00:25:31.228|98=0|108=30|141=Y|10=004|
8=FIX.4.4|9=110|35=A|34=1|49=010|50=010BWN|52=20190529-00:31:10.155|56=EXC|43=Y|98=0|108=30|141=Y|553=010FCE003|554=010FCE003|10=118|
8=FIX.4.4|9=0067|35=A|34=1|49=EXC|56=010|52=20190529-00:31:09.590|98=0|108=30|141=Y|10=008|
8=FIX.4.4|9=110|35=A|34=1|49=010|50=010BWN|52=20190529-00:34:01.796|56=EXC|43=Y|98=0|108=30|141=Y|553=010FCE003|554=010FCE003|10=132|
8=FIX.4.4|9=0067|35=A|34=1|49=EXC|56=010|52=20190529-00:34:01.226|98=0|108=30|141=Y|10=255|
8=FIX.4.4|9=0049|35=0|34=2|49=EXC|56=010|52=20190529-00:34:31.000|10=162|
8=FIX.4.4|9=59|35=0|34=2|49=010|50=010BWN|52=20190529-00:34:32.752|56=EXC|10=109|
8=FIX.4.4|9=0049|35=0|34=3|49=EXC|56=010|52=20190529-00:35:01.000|10=161|
8=FIX.4.4|9=59|35=0|34=3|49=010|50=010BWN|52=20190529-00:35:02.752|56=EXC|10=108|
8=FIX.4.4|9=110|35=A|34=1|49=010|50=010BWN|52=20190529-00:35:21.183|56=EXC|43=Y|98=0|108=30|141=Y|553=010FCE003|554=010FCE003|10=125|
8=FIX.4.4|9=0067|35=A|34=1|49=EXC|56=010|52=20190529-00:35:20.612|98=0|108=30|141=Y|10=000|
8=FIX.4.4|9=110|35=A|34=1|49=010|50=010BWN|52=20190529-00:35:58.936|56=EXC|43=Y|98=0|108=30|141=Y|553=010FCE003|554=010FCE003|10=141|
8=FIX.4.4|9=0067|35=A|34=1|49=EXC|56=010|52=20190529-00:35:58.363|98=0|108=30|141=Y|10=014|
8=FIX.4.4|9=0049|35=0|34=2|49=EXC|56=010|52=20190529-00:36:28.000|10=170|
8=FIX.4.4|9=59|35=0|34=2|49=010|50=010BWN|52=20190529-00:36:29.925|56=EXC|10=119|
8=FIX.4.4|9=110|35=A|34=1|49=010|50=010BWN|52=20190529-00:37:56.508|56=EXC|43=Y|98=0|108=30|141=Y|553=010FCE003|554=010FCE003|10=136|
8=FIX.4.4|9=0067|35=A|34=1|49=EXC|56=010|52=20190529-00:37:55.932|98=0|108=30|141=Y|10=015|
8=FIX.4.4|9=0049|35=0|34=2|49=EXC|56=010|52=20190529-00:38:25.000|10=169|
8=FIX.4.4|9=59|35=0|34=2|49=010|50=010BWN|52=20190529-00:38:27.496|56=EXC|10=122|
8=FIX.4.4|9=0049|35=0|34=3|49=EXC|56=010|52=20190529-00:38:55.000|10=173|
8=FIX.4.4|9=59|35=0|34=3|49=010|50=010BWN|52=20190529-00:38:57.496|56=EXC|10=126|
8=FIX.4.4|9=0049|35=0|34=4|49=EXC|56=010|52=20190529-00:39:25.000|10=172|
8=FIX.4.4|9=59|35=0|34=4|49=010|50=010BWN|52=20190529-00:39:27.497|56=EXC|10=126|
8=FIX.4.4|9=110|35=A|34=1|49=010|50=010BWN|52=20190529-00:39:46.046|56=EXC|43=Y|98=0|108=30|141=Y|553=010FCE003|554=010FCE003|10=134|
8=FIX.4.4|9=0067|35=A|34=1|49=EXC|56=010|52=20190529-00:39:45.470|98=0|108=30|141=Y|10=013|
8=FIX.4.4|9=0049|35=0|34=2|49=EXC|56=010|52=20190529-00:40:15.000|10=161|
8=FIX.4.4|9=59|35=0|34=2|49=010|50=010BWN|52=20190529-00:40:16.039|56=EXC|10=106|
8=FIX.4.4|9=110|35=A|34=1|49=010|50=010BWN|52=20190529-00:47:49.081|56=EXC|43=Y|98=0|108=30|141=Y|553=010FCE003|554=010FCE003|10=135|
8=FIX.4.4|9=0067|35=A|34=1|49=EXC|56=010|52=20190529-00:47:48.497|98=0|108=30|141=Y|10=024|
8=FIX.4.4|9=0049|35=0|34=2|49=EXC|56=010|52=20190529-00:48:18.000|10=172|
8=FIX.4.4|9=59|35=0|34=2|49=010|50=010BWN|52=20190529-00:48:20.071|56=EXC|10=105|
8=FIX.4.4|9=0049|35=0|34=3|49=EXC|56=010|52=20190529-00:48:48.000|10=176|
8=FIX.4.4|9=59|35=0|34=3|49=010|50=010BWN|52=20190529-00:48:50.071|56=EXC|10=109|
8=FIX.4.4|9=0049|35=0|34=4|49=EXC|56=010|52=20190529-00:49:18.000|10=175|
8=FIX.4.4|9=59|35=0|34=4|49=010|50=010BWN|52=20190529-00:49:20.071|56=EXC|10=108|
8=FIX.4.4|9=0049|35=0|34=5|49=EXC|56=010|52=20190529-00:49:48.000|10=179|
8=FIX.4.4|9=59|35=0|34=5|49=010|50=010BWN|52=20190529-00:49:50.071|56=EXC|10=112|
8=FIX.4.4|9=110|35=A|34=1|49=010|50=010BWN|52=20190529-00:56:22.239|56=EXC|43=Y|98=0|108=30|141=Y|553=010FCE003|554=010FCE003|10=131|
8=FIX.4.4|9=0067|35=A|34=1|49=EXC|56=010|52=20190529-00:56:21.905|98=0|108=30|141=Y|10=009|
8=FIX.4.4|9=110|35=A|34=1|49=010|50=010BWN|52=20190529-01:03:31.771|56=EXC|43=Y|98=0|108=30|141=Y|553=010FCE003|554=010FCE003|10=125|
8=FIX.4.4|9=0067|35=A|34=1|49=EXC|56=010|52=20190529-01:03:31.434|98=0|108=30|141=Y|10=000|
8=FIX.4.4|9=110|35=A|34=1|49=010|50=010BWN|52=20190529-01:11:49.752|56=EXC|43=Y|98=0|108=30|141=Y|553=010FCE003|554=010FCE003|10=132|
8=FIX.4.4|9=0067|35=A|34=1|49=EXC|56=010|52=20190529-01:11:49.441|98=0|108=30|141=Y|10=006|
8=FIX.4.4|9=0049|35=0|34=2|49=EXC|56=010|52=20190529-01:12:19.000|10=165|
8=FIX.4.4|9=59|35=0|34=2|49=010|50=010BWN|52=20190529-01:12:19.747|56=EXC|10=115|
8=FIX.4.4|9=0049|35=0|34=3|49=EXC|56=010|52=20190529-01:12:49.000|10=169|
8=FIX.4.4|9=59|35=0|34=3|49=010|50=010BWN|52=20190529-01:12:49.750|56=EXC|10=113|
8=FIX.4.4|9=0049|35=0|34=4|49=EXC|56=010|52=20190529-01:13:19.000|10=168|
8=FIX.4.4|9=59|35=0|34=4|49=010|50=010BWN|52=20190529-01:13:19.749|56=EXC|10=120|
8=FIX.4.4|9=110|35=A|34=1|49=010|50=010BWN|52=20190529-01:25:40.599|56=EXC|43=Y|98=0|108=30|141=Y|553=010FCE003|554=010FCE003|10=137|
8=FIX.4.4|9=0067|35=A|34=1|49=EXC|56=010|52=20190529-01:25:40.265|98=0|108=30|141=Y|10=006|
8=FIX.4.4|9=0049|35=0|34=2|49=EXC|56=010|52=20190529-01:26:10.000|10=161|
8=FIX.4.4|9=59|35=0|34=2|49=010|50=010BWN|52=20190529-01:26:10.604|56=EXC|10=103|
8=FIX.4.4|9=110|35=A|34=1|49=010|50=010BWN|52=20190529-01:30:09.965|56=EXC|43=Y|98=0|108=30|141=Y|553=010FCE003|554=010FCE003|10=135|
8=FIX.4.4|9=0067|35=A|34=1|49=EXC|56=010|52=20190529-01:30:09.649|98=0|108=30|141=Y|10=013|
8=FIX.4.4|9=0049|35=0|34=2|49=EXC|56=010|52=20190529-01:30:39.000|10=167|
8=FIX.4.4|9=59|35=0|34=2|49=010|50=010BWN|52=20190529-01:30:39.961|56=EXC|10=115|
8=FIX.4.4|9=110|35=A|34=1|49=010|50=010BWN|52=20190529-12:21:50.097|56=EXC|43=Y|98=0|108=30|141=Y|553=010FCE003|554=010FCE003|10=129|
8=FIX.4.4|9=0067|35=A|34=1|49=EXC|56=010|52=20190529-12:21:50.642|98=0|108=30|141=Y|10=004|
8=FIX.4.4|9=110|35=A|34=1|49=010|50=010BWN|52=20190529-12:27:22.315|56=EXC|43=Y|98=0|108=30|141=Y|553=010FCE003|554=010FCE003|10=127|
8=FIX.4.4|9=0067|35=A|34=1|49=EXC|56=010|52=20190529-12:27:22.388|98=0|108=30|141=Y|10=016|
8=FIX.4.4|9=110|35=A|34=1|49=010|50=010BWN|52=20190529-12:31:25.054|56=EXC|43=Y|98=0|108=30|141=Y|553=010FCE003|554=010FCE003|10=125|
8=FIX.4.4|9=0067|35=A|34=1|49=EXC|56=010|52=20190529-12:31:25.104|98=0|108=30|141=Y|10=000|
8=FIX.4.4|9=110|35=A|34=1|49=010|50=010BWN|52=20190529-12:48:24.811|56=EXC|43=Y|98=0|108=30|141=Y|553=010FCE003|554=010FCE003|10=133|
8=FIX.4.4|9=0067|35=A|34=1|49=EXC|56=010|52=20190529-12:48:24.861|98=0|108=30|141=Y|10=017|
8=FIX.4.4|9=110|35=A|34=1|49=010|50=010BWN|52=20190529-12:50:53.481|56=EXC|43=Y|98=0|108=30|141=Y|553=010FCE003|554=010FCE003|10=131|
8=FIX.4.4|9=0067|35=A|34=1|49=EXC|56=010|52=20190529-12:50:53.531|98=0|108=30|141=Y|10=006|
8=FIX.4.4|9=110|35=A|34=1|49=010|50=010BWN|52=20190529-12:55:50.922|56=EXC|43=Y|98=0|108=30|141=Y|553=010FCE003|554=010FCE003|10=133|
8=FIX.4.4|9=0067|35=A|34=1|49=EXC|56=010|52=20190529-12:55:50.978|98=0|108=30|141=Y|10=023|
8=FIX.4.4|9=110|35=A|34=1|49=010|50=010BWN|52=20190529-12:57:08.554|56=EXC|43=Y|98=0|108=30|141=Y|553=010FCE003|554=010FCE003|10=139|
8=FIX.4.4|9=0067|35=A|34=1|49=EXC|56=010|52=20190529-12:57:08.603|98=0|108=30|141=Y|10=013|
8=FIX.4.4|9=110|35=A|34=1|49=010|50=010BWN|52=20190529-13:10:55.547|56=EXC|43=Y|98=0|108=30|141=Y|553=010FCE003|554=010FCE003|10=133|
8=FIX.4.4|9=0067|35=A|34=1|49=EXC|56=010|52=20190529-13:10:55.601|98=0|108=30|141=Y|10=003|
8=FIX.4.4|9=110|35=A|34=1|49=010|50=010BWN|52=20190529-13:47:13.232|56=EXC|43=Y|98=0|108=30|141=Y|553=010FCE003|554=010FCE003|10=128|
8=FIX.4.4|9=0067|35=A|34=1|49=EXC|56=010|52=20190529-13:47:12.972|98=0|108=30|141=Y|10=017|
8=FIX.4.4|9=110|35=A|34=1|49=010|50=010BWN|52=20190529-13:51:04.796|56=EXC|43=Y|98=0|108=30|141=Y|553=010FCE003|554=010FCE003|10=138|
8=FIX.4.4|9=0067|35=A|34=1|49=EXC|56=010|52=20190529-13:51:04.522|98=0|108=30|141=Y|10=004|
8=FIX.4.4|9=110|35=A|34=1|49=010|50=010BWN|52=20190529-13:58:02.496|56=EXC|43=Y|98=0|108=30|141=Y|553=010FCE003|554=010FCE003|10=140|
8=FIX.4.4|9=0067|35=A|34=1|49=EXC|56=010|52=20190529-13:58:02.215|98=0|108=30|141=Y|10=008|
8=FIX.4.4|9=0049|35=0|34=2|49=EXC|56=010|52=20190529-13:58:32.000|10=173|
8=FIX.4.4|9=59|35=0|34=2|49=010|50=010BWN|52=20190529-13:58:33.485|56=EXC|10=123|
8=FIX.4.4|9=0049|35=0|34=3|49=EXC|56=010|52=20190529-13:59:02.000|10=172|
8=FIX.4.4|9=59|35=0|34=3|49=010|50=010BWN|52=20190529-13:59:03.483|56=EXC|10=120|
8=FIX.4.4|9=110|35=A|34=1|49=010|50=010BWN|52=20190529-13:59:42.704|56=EXC|43=Y|98=0|108=30|141=Y|553=010FCE003|554=010FCE003|10=137|
8=FIX.4.4|9=0067|35=A|34=1|49=EXC|56=010|52=20190529-13:59:42.414|98=0|108=30|141=Y|10=014|
8=FIX.4.4|9=0049|35=0|34=2|49=EXC|56=010|52=20190529-14:00:12.000|10=159|
8=FIX.4.4|9=59|35=0|34=2|49=010|50=010BWN|52=20190529-14:00:13.620|56=EXC|10=100|
8=FIX.4.4|9=0049|35=0|34=3|49=EXC|56=010|52=20190529-14:00:42.000|10=163|
8=FIX.4.4|9=59|35=0|34=3|49=010|50=010BWN|52=20190529-14:00:43.629|56=EXC|10=113|
8=FIX.4.4|9=0049|35=0|34=4|49=EXC|56=010|52=20190529-14:01:12.000|10=162|
8=FIX.4.4|9=59|35=0|34=4|49=010|50=010BWN|52=20190529-14:01:13.627|56=EXC|10=110|
8=FIX.4.4|9=0049|35=0|34=5|49=EXC|56=010|52=20190529-14:01:42.000|10=166|
8=FIX.4.4|9=59|35=0|34=5|49=010|50=010BWN|52=20190529-14:01:43.619|56=EXC|10=115|
8=FIX.4.4|9=0049|35=0|34=6|49=EXC|56=010|52=20190529-14:02:12.000|10=165|
8=FIX.4.4|9=59|35=0|34=6|49=010|50=010BWN|52=20190529-14:02:13.619|56=EXC|10=114|
8=FIX.4.4|9=0049|35=0|34=7|49=EXC|56=010|52=20190529-14:02:42.000|10=169|
8=FIX.4.4|9=59|35=0|34=7|49=010|50=010BWN|52=20190529-14:02:43.620|56=EXC|10=110|
8=FIX.4.4|9=0049|35=0|34=8|49=EXC|56=010|52=20190529-14:03:12.000|10=168|
8=FIX.4.4|9=59|35=0|34=8|49=010|50=010BWN|52=20190529-14:03:13.622|56=EXC|10=111|
8=FIX.4.4|9=110|35=A|34=1|49=010|50=010BWN|52=20190529-14:04:08.545|56=EXC|43=Y|98=0|108=30|141=Y|553=010FCE003|554=010FCE003|10=133|
8=FIX.4.4|9=0067|35=A|34=1|49=EXC|56=010|52=20190529-14:04:08.265|98=0|108=30|141=Y|10=011|
8=FIX.4.4|9=0049|35=0|34=2|49=EXC|56=010|52=20190529-14:04:38.000|10=171|
8=FIX.4.4|9=59|35=0|34=2|49=010|50=010BWN|52=20190529-14:04:38.552|56=EXC|10=115|
8=FIX.4.4|9=110|35=A|34=1|49=010|50=010BWN|52=20190529-14:20:38.709|56=EXC|43=Y|98=0|108=30|141=Y|553=010FCE003|554=010FCE003|10=136|
8=FIX.4.4|9=0067|35=A|34=1|49=EXC|56=010|52=20190529-14:20:38.741|98=0|108=30|141=Y|10=011|
8=FIX.4.4|9=110|35=A|34=1|49=010|50=010BWN|52=20190529-14:25:56.790|56=EXC|43=Y|98=0|108=30|141=Y|553=010FCE003|554=010FCE003|10=141|
8=FIX.4.4|9=0067|35=A|34=1|49=EXC|56=010|52=20190529-14:25:56.800|98=0|108=30|141=Y|10=012|
8=FIX.4.4|9=110|35=A|34=1|49=010|50=010BWN|52=20190529-14:27:38.082|56=EXC|43=Y|98=0|108=30|141=Y|553=010FCE003|554=010FCE003|10=137|
8=FIX.4.4|9=0067|35=A|34=1|49=EXC|56=010|52=20190529-14:27:38.093|98=0|108=30|141=Y|10=018|
8=FIX.4.4|9=110|35=A|34=1|49=010|50=010BWN|52=20190529-22:53:12.255|56=EXC|43=Y|98=0|108=30|141=Y|553=010FCE003|554=010FCE003|10=129|
8=FIX.4.4|9=0067|35=A|34=1|49=EXC|56=010|52=20190529-22:53:08.587|98=0|108=30|141=Y|10=021|
8=FIX.4.4|9=110|35=A|34=1|49=010|50=010BWN|52=20190529-22:55:38.449|56=EXC|43=Y|98=0|108=30|141=Y|553=010FCE003|554=010FCE003|10=144|
8=FIX.4.4|9=0067|35=A|34=1|49=EXC|56=010|52=20190529-22:55:34.779|98=0|108=30|141=Y|10=025|
8=FIX.4.4|9=59|35=0|34=2|49=010|50=010BWN|52=20190529-22:56:09.116|56=EXC|10=115|
8=FIX.4.4|9=0049|35=0|34=2|49=EXC|56=010|52=20190529-22:56:04.000|10=170|
8=FIX.4.4|9=0049|35=0|34=3|49=EXC|56=010|52=20190529-22:56:34.000|10=174|
8=FIX.4.4|9=59|35=0|34=3|49=010|50=010BWN|52=20190529-22:56:39.117|56=EXC|10=120|
8=FIX.4.4|9=59|35=0|34=4|49=010|50=010BWN|52=20190529-22:57:09.117|56=EXC|10=119|
8=FIX.4.4|9=0049|35=0|34=4|49=EXC|56=010|52=20190529-22:57:04.000|10=173|
8=FIX.4.4|9=0049|35=0|34=5|49=EXC|56=010|52=20190529-22:57:34.000|10=177|
8=FIX.4.4|9=59|35=0|34=5|49=010|50=010BWN|52=20190529-22:57:39.113|56=EXC|10=119|
8=FIX.4.4|9=110|35=A|34=1|49=010|50=010BWN|52=20190530-13:56:27.477|56=EXC|43=Y|98=0|108=30|141=Y|553=010FCE003|554=010FCE003|10=136|
8=FIX.4.4|9=0067|35=A|34=1|49=EXC|56=010|52=20190530-13:56:27.797|98=0|108=30|141=Y|10=020|
8=FIX.4.4|9=110|35=A|34=1|49=010|50=010BWN|52=20190530-14:12:33.985|56=EXC|43=Y|98=0|108=30|141=Y|553=010FCE003|554=010FCE003|10=130|
8=FIX.4.4|9=0067|35=A|34=1|49=EXC|56=010|52=20190530-14:12:34.292|98=0|108=30|141=Y|10=001|
8=FIX.4.4|9=110|35=A|34=1|49=010|50=010BWN|52=20190530-14:16:01.164|56=EXC|43=Y|98=0|108=30|141=Y|553=010FCE003|554=010FCE003|10=118|
8=FIX.4.4|9=0067|35=A|34=1|49=EXC|56=010|52=20190530-14:16:01.529|98=0|108=30|141=Y|10=002|
8=FIX.4.4|9=0049|35=0|34=2|49=EXC|56=010|52=20190530-14:16:31.000|10=159|
8=FIX.4.4|9=59|35=0|34=2|49=010|50=010BWN|52=20190530-14:16:31.162|56=EXC|10=100|
8=FIX.4.4|9=0049|35=0|34=3|49=EXC|56=010|52=20190530-14:17:01.000|10=158|
8=FIX.4.4|9=59|35=0|34=3|49=010|50=010BWN|52=20190530-14:17:01.153|56=EXC|10=099|
8=FIX.4.4|9=0049|35=0|34=4|49=EXC|56=010|52=20190530-14:17:31.000|10=162|
8=FIX.4.4|9=59|35=0|34=4|49=010|50=010BWN|52=20190530-14:17:31.153|56=EXC|10=103|
8=FIX.4.4|9=0049|35=0|34=5|49=EXC|56=010|52=20190530-14:18:01.000|10=161|
8=FIX.4.4|9=59|35=0|34=5|49=010|50=010BWN|52=20190530-14:18:01.157|56=EXC|10=106|
8=FIX.4.4|9=0049|35=0|34=6|49=EXC|56=010|52=20190530-14:18:31.000|10=165|
8=FIX.4.4|9=59|35=0|34=6|49=010|50=010BWN|52=20190530-14:18:31.166|56=EXC|10=110|
8=FIX.4.4|9=0049|35=0|34=7|49=EXC|56=010|52=20190530-14:19:01.000|10=164|
8=FIX.4.4|9=59|35=0|34=7|49=010|50=010BWN|52=20190530-14:19:02.154|56=EXC|10=107|
8=FIX.4.4|9=0049|35=0|34=8|49=EXC|56=010|52=20190530-14:19:31.000|10=168|
8=FIX.4.4|9=59|35=0|34=8|49=010|50=010BWN|52=20190530-14:19:32.162|56=EXC|10=110|
8=FIX.4.4|9=0049|35=0|34=9|49=EXC|56=010|52=20190530-14:20:01.000|10=158|
8=FIX.4.4|9=59|35=0|34=9|49=010|50=010BWN|52=20190530-14:20:03.155|56=EXC|10=103|
8=FIX.4.4|9=0050|35=0|34=10|49=EXC|56=010|52=20190530-14:20:31.000|10=193|
8=FIX.4.4|9=60|35=0|34=10|49=010|50=010BWN|52=20190530-14:20:33.160|56=EXC|10=134|
8=FIX.4.4|9=0050|35=0|34=11|49=EXC|56=010|52=20190530-14:21:01.000|10=192|
8=FIX.4.4|9=60|35=0|34=11|49=010|50=010BWN|52=20190530-14:21:03.163|56=EXC|10=136|
8=FIX.4.4|9=0050|35=0|34=12|49=EXC|56=010|52=20190530-14:21:31.000|10=196|
8=FIX.4.4|9=60|35=0|34=12|49=010|50=010BWN|52=20190530-14:21:33.170|56=EXC|10=138|
8=FIX.4.4|9=0050|35=0|34=13|49=EXC|56=010|52=20190530-14:22:01.000|10=195|
8=FIX.4.4|9=60|35=0|34=13|49=010|50=010BWN|52=20190530-14:22:04.160|56=EXC|10=137|
8=FIX.4.4|9=0050|35=0|34=14|49=EXC|56=010|52=20190530-14:22:31.000|10=199|
8=FIX.4.4|9=60|35=0|34=14|49=010|50=010BWN|52=20190530-14:22:34.163|56=EXC|10=144|
8=FIX.4.4|9=0050|35=0|34=15|49=EXC|56=010|52=20190530-14:23:01.000|10=198|
8=FIX.4.4|9=60|35=0|34=15|49=010|50=010BWN|52=20190530-14:23:04.167|56=EXC|10=147|
8=FIX.4.4|9=0050|35=0|34=16|49=EXC|56=010|52=20190530-14:23:31.000|10=202|
8=FIX.4.4|9=60|35=0|34=16|49=010|50=010BWN|52=20190530-14:23:35.152|56=EXC|10=146|
8=FIX.4.4|9=0050|35=0|34=17|49=EXC|56=010|52=20190530-14:24:01.000|10=201|
8=FIX.4.4|9=60|35=0|34=17|49=010|50=010BWN|52=20190530-14:24:05.158|56=EXC|10=151|
8=FIX.4.4|9=0050|35=0|34=18|49=EXC|56=010|52=20190530-14:24:31.000|10=205|
8=FIX.4.4|9=60|35=0|34=18|49=010|50=010BWN|52=20190530-14:24:35.172|56=EXC|10=151|
8=FIX.4.4|9=0050|35=0|34=19|49=EXC|56=010|52=20190530-14:25:01.000|10=204|
8=FIX.4.4|9=60|35=0|34=19|49=010|50=010BWN|52=20190530-14:25:06.151|56=EXC|10=148|
8=FIX.4.4|9=0050|35=0|34=20|49=EXC|56=010|52=20190530-14:25:31.000|10=199|
8=FIX.4.4|9=60|35=0|34=20|49=010|50=010BWN|52=20190530-14:25:36.154|56=EXC|10=146|
8=FIX.4.4|9=0050|35=0|34=21|49=EXC|56=010|52=20190530-14:26:01.000|10=198|
8=FIX.4.4|9=60|35=0|34=21|49=010|50=010BWN|52=20190530-14:26:06.162|56=EXC|10=144|
8=FIX.4.4|9=0050|35=0|34=22|49=EXC|56=010|52=20190530-14:26:31.000|10=202|
8=FIX.4.4|9=60|35=0|34=22|49=010|50=010BWN|52=20190530-14:26:36.163|56=EXC|10=149|
8=FIX.4.4|9=110|35=A|34=1|49=010|50=010BWN|52=20190530-14:34:22.702|56=EXC|43=Y|98=0|108=30|141=Y|553=010FCE003|554=010FCE003|10=119|
8=FIX.4.4|9=0067|35=A|34=1|49=EXC|56=010|52=20190530-14:34:23.051|98=0|108=30|141=Y|10=252|
8=FIX.4.4|9=0049|35=0|34=2|49=EXC|56=010|52=20190530-14:34:53.000|10=163|
8=FIX.4.4|9=59|35=0|34=2|49=010|50=010BWN|52=20190530-14:34:52.745|56=EXC|10=110|
8=FIX.4.4|9=0049|35=0|34=3|49=EXC|56=010|52=20190530-14:35:23.000|10=162|
8=FIX.4.4|9=59|35=0|34=3|49=010|50=010BWN|52=20190530-14:35:23.334|56=EXC|10=104|
8=FIX.4.4|9=0049|35=0|34=4|49=EXC|56=010|52=20190530-14:35:53.000|10=166|
8=FIX.4.4|9=59|35=0|34=4|49=010|50=010BWN|52=20190530-14:35:53.401|56=EXC|10=103|
8=FIX.4.4|9=0049|35=0|34=5|49=EXC|56=010|52=20190530-14:36:23.000|10=165|
8=FIX.4.4|9=59|35=0|34=5|49=010|50=010BWN|52=20190530-14:36:23.591|56=EXC|10=112|
8=FIX.4.4|9=0049|35=0|34=6|49=EXC|56=010|52=20190530-14:36:53.000|10=169|
8=FIX.4.4|9=59|35=0|34=6|49=010|50=010BWN|52=20190530-14:36:53.596|56=EXC|10=121|
8=FIX.4.4|9=0049|35=0|34=7|49=EXC|56=010|52=20190530-14:37:23.000|10=168|
8=FIX.4.4|9=59|35=0|34=7|49=010|50=010BWN|52=20190530-14:37:23.600|56=EXC|10=106|
8=FIX.4.4|9=0049|35=0|34=8|49=EXC|56=010|52=20190530-14:37:53.000|10=172|
8=FIX.4.4|9=59|35=0|34=8|49=010|50=010BWN|52=20190530-14:37:53.591|56=EXC|10=119|
8=FIX.4.4|9=0049|35=0|34=9|49=EXC|56=010|52=20190530-14:38:23.000|10=171|
8=FIX.4.4|9=59|35=0|34=9|49=010|50=010BWN|52=20190530-14:38:23.601|56=EXC|10=110|
8=FIX.4.4|9=0050|35=0|34=10|49=EXC|56=010|52=20190530-14:38:53.000|10=206|
8=FIX.4.4|9=60|35=0|34=10|49=010|50=010BWN|52=20190530-14:38:54.592|56=EXC|10=155|
8=FIX.4.4|9=0050|35=0|34=11|49=EXC|56=010|52=20190530-14:39:23.000|10=205|
8=FIX.4.4|9=60|35=0|34=11|49=010|50=010BWN|52=20190530-14:39:24.587|56=EXC|10=158|
8=FIX.4.4|9=0050|35=0|34=12|49=EXC|56=010|52=20190530-14:39:53.000|10=209|
8=FIX.4.4|9=60|35=0|34=12|49=010|50=010BWN|52=20190530-14:39:54.597|56=EXC|10=163|
8=FIX.4.4|9=0050|35=0|34=13|49=EXC|56=010|52=20190530-14:40:23.000|10=199|
8=FIX.4.4|9=60|35=0|34=13|49=010|50=010BWN|52=20190530-14:40:24.597|56=EXC|10=153|
8=FIX.4.4|9=0050|35=0|34=14|49=EXC|56=010|52=20190530-14:40:53.000|10=203|
8=FIX.4.4|9=60|35=0|34=14|49=010|50=010BWN|52=20190530-14:40:54.604|56=EXC|10=146|
8=FIX.4.4|9=0050|35=0|34=15|49=EXC|56=010|52=20190530-14:41:23.000|10=202|
8=FIX.4.4|9=60|35=0|34=15|49=010|50=010BWN|52=20190530-14:41:24.600|56=EXC|10=141|
8=FIX.4.4|9=0050|35=0|34=16|49=EXC|56=010|52=20190530-14:41:53.000|10=206|
8=FIX.4.4|9=60|35=0|34=16|49=010|50=010BWN|52=20190530-14:41:54.596|56=EXC|10=159|
8=FIX.4.4|9=0050|35=0|34=17|49=EXC|56=010|52=20190530-14:42:23.000|10=205|
8=FIX.4.4|9=60|35=0|34=17|49=010|50=010BWN|52=20190530-14:42:24.592|56=EXC|10=154|
8=FIX.4.4|9=0050|35=0|34=18|49=EXC|56=010|52=20190530-14:42:53.000|10=209|
8=FIX.4.4|9=60|35=0|34=18|49=010|50=010BWN|52=20190530-14:42:54.592|56=EXC|10=158|
8=FIX.4.4|9=0050|35=0|34=19|49=EXC|56=010|52=20190530-14:43:23.000|10=208|
8=FIX.4.4|9=60|35=0|34=19|49=010|50=010BWN|52=20190530-14:43:24.596|56=EXC|10=161|
8=FIX.4.4|9=0050|35=0|34=20|49=EXC|56=010|52=20190530-14:43:53.000|10=203|
8=FIX.4.4|9=60|35=0|34=20|49=010|50=010BWN|52=20190530-14:43:54.597|56=EXC|10=157|
8=FIX.4.4|9=0050|35=0|34=21|49=EXC|56=010|52=20190530-14:44:23.000|10=202|
8=FIX.4.4|9=60|35=0|34=21|49=010|50=010BWN|52=20190530-14:44:24.590|56=EXC|10=149|
8=FIX.4.4|9=0050|35=0|34=22|49=EXC|56=010|52=20190530-14:44:53.000|10=206|
8=FIX.4.4|9=60|35=0|34=22|49=010|50=010BWN|52=20190530-14:44:54.597|56=EXC|10=160|
8=FIX.4.4|9=0050|35=0|34=23|49=EXC|56=010|52=20190530-14:45:23.000|10=205|
8=FIX.4.4|9=60|35=0|34=23|49=010|50=010BWN|52=20190530-14:45:24.593|56=EXC|10=155|
8=FIX.4.4|9=0050|35=0|34=24|49=EXC|56=010|52=20190530-14:45:53.000|10=209|
8=FIX.4.4|9=60|35=0|34=24|49=010|50=010BWN|52=20190530-14:45:54.605|56=EXC|10=153|
8=FIX.4.4|9=0050|35=0|34=25|49=EXC|56=010|52=20190530-14:46:23.000|10=208|
8=FIX.4.4|9=60|35=0|34=25|49=010|50=010BWN|52=20190530-14:46:25.595|56=EXC|10=161|
8=FIX.4.4|9=0050|35=0|34=26|49=EXC|56=010|52=20190530-14:46:53.000|10=212|
8=FIX.4.4|9=60|35=0|34=26|49=010|50=010BWN|52=20190530-14:46:55.586|56=EXC|10=165|
8=FIX.4.4|9=0050|35=0|34=27|49=EXC|56=010|52=20190530-14:47:23.000|10=211|
8=FIX.4.4|9=60|35=0|34=27|49=010|50=010BWN|52=20190530-14:47:25.601|56=EXC|10=152|
8=FIX.4.4|9=0050|35=0|34=28|49=EXC|56=010|52=20190530-14:47:53.000|10=215|
8=FIX.4.4|9=60|35=0|34=28|49=010|50=010BWN|52=20190530-14:47:56.592|56=EXC|10=166|
8=FIX.4.4|9=0050|35=0|34=29|49=EXC|56=010|52=20190530-14:48:23.000|10=214|
8=FIX.4.4|9=60|35=0|34=29|49=010|50=010BWN|52=20190530-14:48:26.587|56=EXC|10=169|
8=FIX.4.4|9=0050|35=0|34=30|49=EXC|56=010|52=20190530-14:48:53.000|10=209|
8=FIX.4.4|9=60|35=0|34=30|49=010|50=010BWN|52=20190530-14:48:56.592|56=EXC|10=160|
8=FIX.4.4|9=0050|35=0|34=31|49=EXC|56=010|52=20190530-14:49:23.000|10=208|
8=FIX.4.4|9=60|35=0|34=31|49=010|50=010BWN|52=20190530-14:49:26.594|56=EXC|10=161|
8=FIX.4.4|9=0050|35=0|34=32|49=EXC|56=010|52=20190530-14:49:53.000|10=212|
8=FIX.4.4|9=60|35=0|34=32|49=010|50=010BWN|52=20190530-14:49:56.591|56=EXC|10=162|
8=FIX.4.4|9=0050|35=0|34=33|49=EXC|56=010|52=20190530-14:50:23.000|10=202|
8=FIX.4.4|9=60|35=0|34=33|49=010|50=010BWN|52=20190530-14:50:26.595|56=EXC|10=156|
8=FIX.4.4|9=0050|35=0|34=34|49=EXC|56=010|52=20190530-14:50:53.000|10=206|
8=FIX.4.4|9=60|35=0|34=34|49=010|50=010BWN|52=20190530-14:50:56.590|56=EXC|10=155|
8=FIX.4.4|9=0050|35=0|34=35|49=EXC|56=010|52=20190530-14:51:23.000|10=205|
8=FIX.4.4|9=60|35=0|34=35|49=010|50=010BWN|52=20190530-14:51:26.586|56=EXC|10=159|
8=FIX.4.4|9=0050|35=0|34=36|49=EXC|56=010|52=20190530-14:51:53.000|10=209|
8=FIX.4.4|9=60|35=0|34=36|49=010|50=010BWN|52=20190530-14:51:56.599|56=EXC|10=167|
8=FIX.4.4|9=0050|35=0|34=37|49=EXC|56=010|52=20190530-14:52:23.000|10=208|
8=FIX.4.4|9=60|35=0|34=37|49=010|50=010BWN|52=20190530-14:52:26.607|56=EXC|10=156|
8=FIX.4.4|9=0050|35=0|34=38|49=EXC|56=010|52=20190530-14:52:53.000|10=212|
8=FIX.4.4|9=60|35=0|34=38|49=010|50=010BWN|52=20190530-14:52:57.598|56=EXC|10=170|
8=FIX.4.4|9=0050|35=0|34=39|49=EXC|56=010|52=20190530-14:53:23.000|10=211|
8=FIX.4.4|9=60|35=0|34=39|49=010|50=010BWN|52=20190530-14:53:27.598|56=EXC|10=169|
8=FIX.4.4|9=0050|35=0|34=40|49=EXC|56=010|52=20190530-14:53:53.000|10=206|
8=FIX.4.4|9=60|35=0|34=40|49=010|50=010BWN|52=20190530-14:53:57.590|56=EXC|10=156|
8=FIX.4.4|9=0050|35=0|34=41|49=EXC|56=010|52=20190530-14:54:23.000|10=205|
8=FIX.4.4|9=60|35=0|34=41|49=010|50=010BWN|52=20190530-14:54:27.589|56=EXC|10=163|
8=FIX.4.4|9=0050|35=0|34=42|49=EXC|56=010|52=20190530-14:54:53.000|10=209|
8=FIX.4.4|9=60|35=0|34=42|49=010|50=010BWN|52=20190530-14:54:57.589|56=EXC|10=167|
8=FIX.4.4|9=0050|35=0|34=43|49=EXC|56=010|52=20190530-14:55:23.000|10=208|
8=FIX.4.4|9=60|35=0|34=43|49=010|50=010BWN|52=20190530-14:55:27.595|56=EXC|10=163|
8=FIX.4.4|9=0050|35=0|34=44|49=EXC|56=010|52=20190530-14:55:53.000|10=212|
8=FIX.4.4|9=60|35=0|34=44|49=010|50=010BWN|52=20190530-14:55:57.599|56=EXC|10=171|
8=FIX.4.4|9=0050|35=0|34=45|49=EXC|56=010|52=20190530-14:56:23.000|10=211|
8=FIX.4.4|9=60|35=0|34=45|49=010|50=010BWN|52=20190530-14:56:27.592|56=EXC|10=163|
8=FIX.4.4|9=0050|35=0|34=46|49=EXC|56=010|52=20190530-14:56:53.000|10=215|
8=FIX.4.4|9=60|35=0|34=46|49=010|50=010BWN|52=20190530-14:56:57.594|56=EXC|10=169|
8=FIX.4.4|9=0050|35=0|34=47|49=EXC|56=010|52=20190530-14:57:23.000|10=214|
8=FIX.4.4|9=60|35=0|34=47|49=010|50=010BWN|52=20190530-14:57:27.599|56=EXC|10=173|
8=FIX.4.4|9=0050|35=0|34=48|49=EXC|56=010|52=20190530-14:57:53.000|10=218|
8=FIX.4.4|9=60|35=0|34=48|49=010|50=010BWN|52=20190530-14:57:57.596|56=EXC|10=174|
8=FIX.4.4|9=0050|35=0|34=49|49=EXC|56=010|52=20190530-14:58:23.000|10=217|
8=FIX.4.4|9=60|35=0|34=49|49=010|50=010BWN|52=20190530-14:58:27.589|56=EXC|10=175|
8=FIX.4.4|9=0050|35=0|34=50|49=EXC|56=010|52=20190530-14:58:53.000|10=212|
8=FIX.4.4|9=60|35=0|34=50|49=010|50=010BWN|52=20190530-14:58:57.587|56=EXC|10=168|
8=FIX.4.4|9=0050|35=0|34=51|49=EXC|56=010|52=20190530-14:59:23.000|10=211|
8=FIX.4.4|9=60|35=0|34=51|49=010|50=010BWN|52=20190530-14:59:27.585|56=EXC|10=165|
8=FIX.4.4|9=0050|35=0|34=52|49=EXC|56=010|52=20190530-14:59:53.000|10=215|
8=FIX.4.4|9=60|35=0|34=52|49=010|50=010BWN|52=20190530-14:59:57.600|56=EXC|10=157|
8=FIX.4.4|9=0050|35=0|34=53|49=EXC|56=010|52=20190530-15:00:23.000|10=200|
8=FIX.4.4|9=60|35=0|34=53|49=010|50=010BWN|52=20190530-15:00:27.597|56=EXC|10=157|
8=FIX.4.4|9=0050|35=0|34=54|49=EXC|56=010|52=20190530-15:00:53.000|10=204|
8=FIX.4.4|9=60|35=0|34=54|49=010|50=010BWN|52=20190530-15:00:57.598|56=EXC|10=162|
8=FIX.4.4|9=0050|35=0|34=55|49=EXC|56=010|52=20190530-15:01:23.000|10=203|
8=FIX.4.4|9=60|35=0|34=55|49=010|50=010BWN|52=20190530-15:01:27.606|56=EXC|10=151|
8=FIX.4.4|9=0050|35=0|34=56|49=EXC|56=010|52=20190530-15:01:53.000|10=207|
8=FIX.4.4|9=60|35=0|34=56|49=010|50=010BWN|52=20190530-15:01:58.589|56=EXC|10=166|
8=FIX.4.4|9=0050|35=0|34=57|49=EXC|56=010|52=20190530-15:02:23.000|10=206|
8=FIX.4.4|9=60|35=0|34=57|49=010|50=010BWN|52=20190530-15:02:28.597|56=EXC|10=164|
8=FIX.4.4|9=0050|35=0|34=58|49=EXC|56=010|52=20190530-15:02:53.000|10=210|
8=FIX.4.4|9=60|35=0|34=58|49=010|50=010BWN|52=20190530-15:02:58.596|56=EXC|10=167|
8=FIX.4.4|9=0050|35=0|34=59|49=EXC|56=010|52=20190530-15:03:23.000|10=209|
8=FIX.4.4|9=60|35=0|34=59|49=010|50=010BWN|52=20190530-15:03:28.592|56=EXC|10=162|
8=FIX.4.4|9=0050|35=0|34=60|49=EXC|56=010|52=20190530-15:03:53.000|10=204|
8=FIX.4.4|9=60|35=0|34=60|49=010|50=010BWN|52=20190530-15:03:58.587|56=EXC|10=161|
8=FIX.4.4|9=0050|35=0|34=61|49=EXC|56=010|52=20190530-15:04:23.000|10=203|
8=FIX.4.4|9=60|35=0|34=61|49=010|50=010BWN|52=20190530-15:04:28.585|56=EXC|10=158|
8=FIX.4.4|9=0050|35=0|34=62|49=EXC|56=010|52=20190530-15:04:53.000|10=207|
8=FIX.4.4|9=60|35=0|34=62|49=010|50=010BWN|52=20190530-15:04:58.588|56=EXC|10=165|
8=FIX.4.4|9=0050|35=0|34=63|49=EXC|56=010|52=20190530-15:05:23.000|10=206|
8=FIX.4.4|9=60|35=0|34=63|49=010|50=010BWN|52=20190530-15:05:28.588|56=EXC|10=164|
8=FIX.4.4|9=0050|35=0|34=64|49=EXC|56=010|52=20190530-15:05:53.000|10=210|
8=FIX.4.4|9=60|35=0|34=64|49=010|50=010BWN|52=20190530-15:05:58.585|56=EXC|10=165|
8=FIX.4.4|9=0050|35=0|34=65|49=EXC|56=010|52=20190530-15:06:23.000|10=209|
8=FIX.4.4|9=60|35=0|34=65|49=010|50=010BWN|52=20190530-15:06:28.597|56=EXC|10=167|
8=FIX.4.4|9=0050|35=0|34=66|49=EXC|56=010|52=20190530-15:06:53.000|10=213|
8=FIX.4.4|9=60|35=0|34=66|49=010|50=010BWN|52=20190530-15:06:58.595|56=EXC|10=169|
8=FIX.4.4|9=0050|35=0|34=67|49=EXC|56=010|52=20190530-15:07:23.000|10=212|
8=FIX.4.4|9=60|35=0|34=67|49=010|50=010BWN|52=20190530-15:07:29.583|56=EXC|10=166|
8=FIX.4.4|9=0050|35=0|34=68|49=EXC|56=010|52=20190530-15:07:53.000|10=216|
8=FIX.4.4|9=60|35=0|34=68|49=010|50=010BWN|52=20190530-15:07:59.591|56=EXC|10=169|
8=FIX.4.4|9=0050|35=0|34=69|49=EXC|56=010|52=20190530-15:08:23.000|10=215|
8=FIX.4.4|9=60|35=0|34=69|49=010|50=010BWN|52=20190530-15:08:29.595|56=EXC|10=172|
8=FIX.4.4|9=0050|35=0|34=70|49=EXC|56=010|52=20190530-15:08:53.000|10=210|
8=FIX.4.4|9=60|35=0|34=70|49=010|50=010BWN|52=20190530-15:08:59.601|56=EXC|10=155|
8=FIX.4.4|9=0050|35=0|34=71|49=EXC|56=010|52=20190530-15:09:23.000|10=209|
8=FIX.4.4|9=60|35=0|34=71|49=010|50=010BWN|52=20190530-15:09:30.592|56=EXC|10=155|
8=FIX.4.4|9=0050|35=0|34=72|49=EXC|56=010|52=20190530-15:09:53.000|10=213|
8=FIX.4.4|9=60|35=0|34=72|49=010|50=010BWN|52=20190530-15:10:00.595|56=EXC|10=148|
8=FIX.4.4|9=0050|35=0|34=73|49=EXC|56=010|52=20190530-15:10:23.000|10=203|
8=FIX.4.4|9=60|35=0|34=73|49=010|50=010BWN|52=20190530-15:10:30.590|56=EXC|10=147|
8=FIX.4.4|9=0050|35=0|34=74|49=EXC|56=010|52=20190530-15:10:53.000|10=207|
8=FIX.4.4|9=60|35=0|34=74|49=010|50=010BWN|52=20190530-15:11:00.588|56=EXC|10=153|
8=FIX.4.4|9=0050|35=0|34=75|49=EXC|56=010|52=20190530-15:11:23.000|10=206|
8=FIX.4.4|9=60|35=0|34=75|49=010|50=010BWN|52=20190530-15:11:30.594|56=EXC|10=154|
8=FIX.4.4|9=0050|35=0|34=76|49=EXC|56=010|52=20190530-15:11:53.000|10=210|
8=FIX.4.4|9=60|35=0|34=76|49=010|50=010BWN|52=20190530-15:12:00.589|56=EXC|10=157|
8=FIX.4.4|9=0050|35=0|34=77|49=EXC|56=010|52=20190530-15:12:23.000|10=209|
8=FIX.4.4|9=60|35=0|34=77|49=010|50=010BWN|52=20190530-15:12:30.595|56=EXC|10=158|
8=FIX.4.4|9=0050|35=0|34=78|49=EXC|56=010|52=20190530-15:12:53.000|10=213|
8=FIX.4.4|9=60|35=0|34=78|49=010|50=010BWN|52=20190530-15:13:00.596|56=EXC|10=158|
8=FIX.4.4|9=0050|35=0|34=79|49=EXC|56=010|52=20190530-15:13:23.000|10=212|
8=FIX.4.4|9=60|35=0|34=79|49=010|50=010BWN|52=20190530-15:13:30.590|56=EXC|10=156|
8=FIX.4.4|9=0050|35=0|34=80|49=EXC|56=010|52=20190530-15:13:53.000|10=207|
8=FIX.4.4|9=60|35=0|34=80|49=010|50=010BWN|52=20190530-15:14:00.587|56=EXC|10=152|
8=FIX.4.4|9=0050|35=0|34=81|49=EXC|56=010|52=20190530-15:14:23.000|10=206|
8=FIX.4.4|9=60|35=0|34=81|49=010|50=010BWN|52=20190530-15:14:30.590|56=EXC|10=150|
8=FIX.4.4|9=0050|35=0|34=82|49=EXC|56=010|52=20190530-15:14:53.000|10=210|
8=FIX.4.4|9=60|35=0|34=82|49=010|50=010BWN|52=20190530-15:15:00.584|56=EXC|10=152|
8=FIX.4.4|9=0050|35=0|34=83|49=EXC|56=010|52=20190530-15:15:23.000|10=209|
8=FIX.4.4|9=60|35=0|34=83|49=010|50=010BWN|52=20190530-15:15:30.589|56=EXC|10=161|
8=FIX.4.4|9=0050|35=0|34=84|49=EXC|56=010|52=20190530-15:15:53.000|10=213|
8=FIX.4.4|9=60|35=0|34=84|49=010|50=010BWN|52=20190530-15:16:00.595|56=EXC|10=157|
8=FIX.4.4|9=0050|35=0|34=85|49=EXC|56=010|52=20190530-15:16:23.000|10=212|
8=FIX.4.4|9=60|35=0|34=85|49=010|50=010BWN|52=20190530-15:16:30.593|56=EXC|10=159|
8=FIX.4.4|9=0050|35=0|34=86|49=EXC|56=010|52=20190530-15:16:53.000|10=216|
8=FIX.4.4|9=60|35=0|34=86|49=010|50=010BWN|52=20190530-15:17:01.582|56=EXC|10=157|
8=FIX.4.4|9=0050|35=0|34=87|49=EXC|56=010|52=20190530-15:17:23.000|10=215|
8=FIX.4.4|9=60|35=0|34=87|49=010|50=010BWN|52=20190530-15:17:31.589|56=EXC|10=168|
8=FIX.4.4|9=0050|35=0|34=88|49=EXC|56=010|52=20190530-15:17:53.000|10=219|
8=FIX.4.4|9=60|35=0|34=88|49=010|50=010BWN|52=20190530-15:18:01.592|56=EXC|10=161|
8=FIX.4.4|9=0050|35=0|34=89|49=EXC|56=010|52=20190530-15:18:23.000|10=218|
8=FIX.4.4|9=60|35=0|34=89|49=010|50=010BWN|52=20190530-15:18:31.584|56=EXC|10=166|
8=FIX.4.4|9=0050|35=0|34=90|49=EXC|56=010|52=20190530-15:18:53.000|10=213|
8=FIX.4.4|9=60|35=0|34=90|49=010|50=010BWN|52=20190530-15:19:01.593|56=EXC|10=156|
8=FIX.4.4|9=0050|35=0|34=91|49=EXC|56=010|52=20190530-15:19:23.000|10=212|
8=FIX.4.4|9=60|35=0|34=91|49=010|50=010BWN|52=20190530-15:19:32.583|56=EXC|10=160|
8=FIX.4.4|9=0050|35=0|34=92|49=EXC|56=010|52=20190530-15:19:53.000|10=216|
8=FIX.4.4|9=60|35=0|34=92|49=010|50=010BWN|52=20190530-15:20:02.584|56=EXC|10=151|
8=FIX.4.4|9=0050|35=0|34=93|49=EXC|56=010|52=20190530-15:20:23.000|10=206|
8=FIX.4.4|9=60|35=0|34=93|49=010|50=010BWN|52=20190530-15:20:32.585|56=EXC|10=156|
8=FIX.4.4|9=0050|35=0|34=94|49=EXC|56=010|52=20190530-15:20:53.000|10=210|
8=FIX.4.4|9=60|35=0|34=94|49=010|50=010BWN|52=20190530-15:21:02.587|56=EXC|10=157|
8=FIX.4.4|9=0050|35=0|34=95|49=EXC|56=010|52=20190530-15:21:23.000|10=209|
8=FIX.4.4|9=60|35=0|34=95|49=010|50=010BWN|52=20190530-15:21:32.593|56=EXC|10=158|
8=FIX.4.4|9=0050|35=0|34=96|49=EXC|56=010|52=20190530-15:21:53.000|10=213|
8=FIX.4.4|9=60|35=0|34=96|49=010|50=010BWN|52=20190530-15:22:02.591|56=EXC|10=155|
8=FIX.4.4|9=0050|35=0|34=97|49=EXC|56=010|52=20190530-15:22:23.000|10=212|
8=FIX.4.4|9=60|35=0|34=97|49=010|50=010BWN|52=20190530-15:22:32.593|56=EXC|10=161|
8=FIX.4.4|9=0050|35=0|34=98|49=EXC|56=010|52=20190530-15:22:53.000|10=216|
8=FIX.4.4|9=60|35=0|34=98|49=010|50=010BWN|52=20190530-15:23:02.595|56=EXC|10=162|
8=FIX.4.4|9=0050|35=0|34=99|49=EXC|56=010|52=20190530-15:23:23.000|10=215|
8=FIX.4.4|9=60|35=0|34=99|49=010|50=010BWN|52=20190530-15:23:32.594|56=EXC|10=165|
8=FIX.4.4|9=0051|35=0|34=100|49=EXC|56=010|52=20190530-15:23:53.000|10=250|
8=FIX.4.4|9=61|35=0|34=100|49=010|50=010BWN|52=20190530-15:24:02.593|56=EXC|10=194|
8=FIX.4.4|9=0051|35=0|34=101|49=EXC|56=010|52=20190530-15:24:23.000|10=249|
8=FIX.4.4|9=61|35=0|34=101|49=010|50=010BWN|52=20190530-15:24:32.585|56=EXC|10=199|
8=FIX.4.4|9=0051|35=0|34=102|49=EXC|56=010|52=20190530-15:24:53.000|10=253|
8=FIX.4.4|9=61|35=0|34=102|49=010|50=010BWN|52=20190530-15:25:02.583|56=EXC|10=196|
8=FIX.4.4|9=0051|35=0|34=103|49=EXC|56=010|52=20190530-15:25:23.000|10=252|
8=FIX.4.4|9=61|35=0|34=103|49=010|50=010BWN|52=20190530-15:25:32.593|56=EXC|10=201|
8=FIX.4.4|9=0051|35=0|34=104|49=EXC|56=010|52=20190530-15:25:53.000|10=000|
8=FIX.4.4|9=61|35=0|34=104|49=010|50=010BWN|52=20190530-15:26:02.596|56=EXC|10=203|
8=FIX.4.4|9=0051|35=0|34=105|49=EXC|56=010|52=20190530-15:26:23.000|10=255|
8=FIX.4.4|9=61|35=0|34=105|49=010|50=010BWN|52=20190530-15:26:33.585|56=EXC|10=206|
8=FIX.4.4|9=0051|35=0|34=106|49=EXC|56=010|52=20190530-15:26:53.000|10=003|
8=FIX.4.4|9=61|35=0|34=106|49=010|50=010BWN|52=20190530-15:27:03.584|56=EXC|10=204|
8=FIX.4.4|9=0051|35=0|34=107|49=EXC|56=010|52=20190530-15:27:23.000|10=002|
8=FIX.4.4|9=61|35=0|34=107|49=010|50=010BWN|52=20190530-15:27:33.588|56=EXC|10=212|
8=FIX.4.4|9=0051|35=0|34=108|49=EXC|56=010|52=20190530-15:27:53.000|10=006|
8=FIX.4.4|9=61|35=0|34=108|49=010|50=010BWN|52=20190530-15:28:03.584|56=EXC|10=207|
8=FIX.4.4|9=0051|35=0|34=109|49=EXC|56=010|52=20190530-15:28:23.000|10=005|
8=FIX.4.4|9=61|35=0|34=109|49=010|50=010BWN|52=20190530-15:28:33.581|56=EXC|10=208|
8=FIX.4.4|9=0051|35=0|34=110|49=EXC|56=010|52=20190530-15:28:53.000|10=000|
8=FIX.4.4|9=61|35=0|34=110|49=010|50=010BWN|52=20190530-15:29:03.582|56=EXC|10=199|
8=FIX.4.4|9=0051|35=0|34=111|49=EXC|56=010|52=20190530-15:29:23.000|10=255|
8=FIX.4.4|9=61|35=0|34=111|49=010|50=010BWN|52=20190530-15:29:33.582|56=EXC|10=203|
8=FIX.4.4|9=0051|35=0|34=112|49=EXC|56=010|52=20190530-15:29:53.000|10=003|
8=FIX.4.4|9=61|35=0|34=112|49=010|50=010BWN|52=20190530-15:30:03.591|56=EXC|10=193|
8=FIX.4.4|9=0051|35=0|34=113|49=EXC|56=010|52=20190530-15:30:23.000|10=249|
8=FIX.4.4|9=61|35=0|34=113|49=010|50=010BWN|52=20190530-15:30:34.590|56=EXC|10=197|
8=FIX.4.4|9=0051|35=0|34=114|49=EXC|56=010|52=20190530-15:30:53.000|10=253|
8=FIX.4.4|9=61|35=0|34=114|49=010|50=010BWN|52=20190530-15:31:04.584|56=EXC|10=199|
8=FIX.4.4|9=0051|35=0|34=115|49=EXC|56=010|52=20190530-15:31:23.000|10=252|
8=FIX.4.4|9=61|35=0|34=115|49=010|50=010BWN|52=20190530-15:31:34.583|56=EXC|10=202|
8=FIX.4.4|9=0051|35=0|34=116|49=EXC|56=010|52=20190530-15:31:53.000|10=000|
8=FIX.4.4|9=61|35=0|34=116|49=010|50=010BWN|52=20190530-15:32:04.585|56=EXC|10=203|
8=FIX.4.4|9=0051|35=0|34=117|49=EXC|56=010|52=20190530-15:32:23.000|10=255|
8=FIX.4.4|9=61|35=0|34=117|49=010|50=010BWN|52=20190530-15:32:34.590|56=EXC|10=203|
8=FIX.4.4|9=0051|35=0|34=118|49=EXC|56=010|52=20190530-15:32:53.000|10=003|
8=FIX.4.4|9=61|35=0|34=118|49=010|50=010BWN|52=20190530-15:33:04.593|56=EXC|10=205|
8=FIX.4.4|9=0051|35=0|34=119|49=EXC|56=010|52=20190530-15:33:23.000|10=002|
8=FIX.4.4|9=61|35=0|34=119|49=010|50=010BWN|52=20190530-15:33:34.592|56=EXC|10=208|
8=FIX.4.4|9=0051|35=0|34=120|49=EXC|56=010|52=20190530-15:33:53.000|10=253|
8=FIX.4.4|9=61|35=0|34=120|49=010|50=010BWN|52=20190530-15:34:04.589|56=EXC|10=204|
8=FIX.4.4|9=0051|35=0|34=121|49=EXC|56=010|52=20190530-15:34:23.000|10=252|
8=FIX.4.4|9=61|35=0|34=121|49=010|50=010BWN|52=20190530-15:34:34.598|56=EXC|10=208|
8=FIX.4.4|9=0051|35=0|34=122|49=EXC|56=010|52=20190530-15:34:53.000|10=000|
8=FIX.4.4|9=61|35=0|34=122|49=010|50=010BWN|52=20190530-15:35:04.591|56=EXC|10=200|
8=FIX.4.4|9=0051|35=0|34=123|49=EXC|56=010|52=20190530-15:35:23.000|10=255|
8=FIX.4.4|9=61|35=0|34=123|49=010|50=010BWN|52=20190530-15:35:35.595|56=EXC|10=209|
8=FIX.4.4|9=0051|35=0|34=124|49=EXC|56=010|52=20190530-15:35:53.000|10=003|
8=FIX.4.4|9=61|35=0|34=124|49=010|50=010BWN|52=20190530-15:36:05.592|56=EXC|10=205|
8=FIX.4.4|9=0051|35=0|34=125|49=EXC|56=010|52=20190530-15:36:23.000|10=002|
8=FIX.4.4|9=61|35=0|34=125|49=010|50=010BWN|52=20190530-15:36:35.591|56=EXC|10=208|
8=FIX.4.4|9=0051|35=0|34=126|49=EXC|56=010|52=20190530-15:36:53.000|10=006|
8=FIX.4.4|9=61|35=0|34=126|49=010|50=010BWN|52=20190530-15:37:05.587|56=EXC|10=212|
8=FIX.4.4|9=0051|35=0|34=127|49=EXC|56=010|52=20190530-15:37:23.000|10=005|
8=FIX.4.4|9=61|35=0|34=127|49=010|50=010BWN|52=20190530-15:37:35.589|56=EXC|10=218|
8=FIX.4.4|9=0051|35=0|34=128|49=EXC|56=010|52=20190530-15:37:53.000|10=009|
8=FIX.4.4|9=61|35=0|34=128|49=010|50=010BWN|52=20190530-15:38:05.589|56=EXC|10=217|
8=FIX.4.4|9=0051|35=0|34=129|49=EXC|56=010|52=20190530-15:38:23.000|10=008|
8=FIX.4.4|9=61|35=0|34=129|49=010|50=010BWN|52=20190530-15:38:35.600|56=EXC|10=205|
8=FIX.4.4|9=0051|35=0|34=130|49=EXC|56=010|52=20190530-15:38:53.000|10=003|
8=FIX.4.4|9=61|35=0|34=130|49=010|50=010BWN|52=20190530-15:39:06.584|56=EXC|10=207|
8=FIX.4.4|9=0051|35=0|34=131|49=EXC|56=010|52=20190530-15:39:23.000|10=002|
8=FIX.4.4|9=61|35=0|34=131|49=010|50=010BWN|52=20190530-15:39:36.596|56=EXC|10=214|
8=FIX.4.4|9=0051|35=0|34=132|49=EXC|56=010|52=20190530-15:39:53.000|10=006|
8=FIX.4.4|9=61|35=0|34=132|49=010|50=010BWN|52=20190530-15:40:07.591|56=EXC|10=200|
8=FIX.4.4|9=0051|35=0|34=133|49=EXC|56=010|52=20190530-15:40:23.000|10=252|
8=FIX.4.4|9=61|35=0|34=133|49=010|50=010BWN|52=20190530-15:40:37.590|56=EXC|10=203|
8=FIX.4.4|9=0051|35=0|34=134|49=EXC|56=010|52=20190530-15:40:53.000|10=000|
8=FIX.4.4|9=61|35=0|34=134|49=010|50=010BWN|52=20190530-15:41:07.585|56=EXC|10=206|
8=FIX.4.4|9=0051|35=0|34=135|49=EXC|56=010|52=20190530-15:41:23.000|10=255|
8=FIX.4.4|9=61|35=0|34=135|49=010|50=010BWN|52=20190530-15:41:37.594|56=EXC|10=210|
8=FIX.4.4|9=0051|35=0|34=136|49=EXC|56=010|52=20190530-15:41:53.000|10=003|
8=FIX.4.4|9=61|35=0|34=136|49=010|50=010BWN|52=20190530-15:42:08.588|56=EXC|10=213|
8=FIX.4.4|9=0051|35=0|34=137|49=EXC|56=010|52=20190530-15:42:23.000|10=002|
8=FIX.4.4|9=61|35=0|34=137|49=010|50=010BWN|52=20190530-15:42:38.594|56=EXC|10=214|
8=FIX.4.4|9=0051|35=0|34=138|49=EXC|56=010|52=20190530-15:42:53.000|10=006|
8=FIX.4.4|9=61|35=0|34=138|49=010|50=010BWN|52=20190530-15:43:08.591|56=EXC|10=210|
8=FIX.4.4|9=0051|35=0|34=139|49=EXC|56=010|52=20190530-15:43:23.000|10=005|
8=FIX.4.4|9=61|35=0|34=139|49=010|50=010BWN|52=20190530-15:43:38.592|56=EXC|10=215|
8=FIX.4.4|9=0051|35=0|34=140|49=EXC|56=010|52=20190530-15:43:53.000|10=000|
8=FIX.4.4|9=61|35=0|34=140|49=010|50=010BWN|52=20190530-15:44:08.583|56=EXC|10=205|
8=FIX.4.4|9=0051|35=0|34=141|49=EXC|56=010|52=20190530-15:44:23.000|10=255|
8=FIX.4.4|9=61|35=0|34=141|49=010|50=010BWN|52=20190530-15:44:38.592|56=EXC|10=209|
8=FIX.4.4|9=0051|35=0|34=142|49=EXC|56=010|52=20190530-15:44:53.000|10=003|
8=FIX.4.4|9=61|35=0|34=142|49=010|50=010BWN|52=20190530-15:45:08.596|56=EXC|10=212|
8=FIX.4.4|9=0051|35=0|34=143|49=EXC|56=010|52=20190530-15:45:23.000|10=002|
8=FIX.4.4|9=61|35=0|34=143|49=010|50=010BWN|52=20190530-15:45:38.595|56=EXC|10=215|
8=FIX.4.4|9=0051|35=0|34=144|49=EXC|56=010|52=20190530-15:45:53.000|10=006|
8=FIX.4.4|9=61|35=0|34=144|49=010|50=010BWN|52=20190530-15:46:08.586|56=EXC|10=214|
8=FIX.4.4|9=0051|35=0|34=145|49=EXC|56=010|52=20190530-15:46:23.000|10=005|
8=FIX.4.4|9=61|35=0|34=145|49=010|50=010BWN|52=20190530-15:46:38.590|56=EXC|10=213|
8=FIX.4.4|9=0051|35=0|34=146|49=EXC|56=010|52=20190530-15:46:53.000|10=009|
8=FIX.4.4|9=61|35=0|34=146|49=010|50=010BWN|52=20190530-15:47:08.589|56=EXC|10=220|
8=FIX.4.4|9=0051|35=0|34=147|49=EXC|56=010|52=20190530-15:47:23.000|10=008|
8=FIX.4.4|9=61|35=0|34=147|49=010|50=010BWN|52=20190530-15:47:38.592|56=EXC|10=218|
8=FIX.4.4|9=0051|35=0|34=148|49=EXC|56=010|52=20190530-15:47:53.000|10=012|
8=FIX.4.4|9=61|35=0|34=148|49=010|50=010BWN|52=20190530-15:48:08.595|56=EXC|10=220|
8=FIX.4.4|9=0051|35=0|34=149|49=EXC|56=010|52=20190530-15:48:23.000|10=011|
8=FIX.4.4|9=61|35=0|34=149|49=010|50=010BWN|52=20190530-15:48:38.589|56=EXC|10=227|
8=FIX.4.4|9=0051|35=0|34=150|49=EXC|56=010|52=20190530-15:48:53.000|10=006|
8=FIX.4.4|9=61|35=0|34=150|49=010|50=010BWN|52=20190530-15:49:08.588|56=EXC|10=216|
8=FIX.4.4|9=0051|35=0|34=151|49=EXC|56=010|52=20190530-15:49:23.000|10=005|
8=FIX.4.4|9=61|35=0|34=151|49=010|50=010BWN|52=20190530-15:49:38.581|56=EXC|10=213|
8=FIX.4.4|9=0051|35=0|34=152|49=EXC|56=010|52=20190530-15:49:53.000|10=009|
8=FIX.4.4|9=61|35=0|34=152|49=010|50=010BWN|52=20190530-15:50:08.581|56=EXC|10=203|
8=FIX.4.4|9=0051|35=0|34=153|49=EXC|56=010|52=20190530-15:50:23.000|10=255|
8=FIX.4.4|9=61|35=0|34=153|49=010|50=010BWN|52=20190530-15:50:38.586|56=EXC|10=212|
8=FIX.4.4|9=0051|35=0|34=154|49=EXC|56=010|52=20190530-15:50:53.000|10=003|
8=FIX.4.4|9=61|35=0|34=154|49=010|50=010BWN|52=20190530-15:51:08.581|56=EXC|10=206|
8=FIX.4.4|9=0051|35=0|34=155|49=EXC|56=010|52=20190530-15:51:23.000|10=002|
8=FIX.4.4|9=61|35=0|34=155|49=010|50=010BWN|52=20190530-15:51:38.587|56=EXC|10=216|
8=FIX.4.4|9=0051|35=0|34=156|49=EXC|56=010|52=20190530-15:51:53.000|10=006|
8=FIX.4.4|9=61|35=0|34=156|49=010|50=010BWN|52=20190530-15:52:08.583|56=EXC|10=211|
8=FIX.4.4|9=0051|35=0|34=157|49=EXC|56=010|52=20190530-15:52:23.000|10=005|
8=FIX.4.4|9=61|35=0|34=157|49=010|50=010BWN|52=20190530-15:52:38.587|56=EXC|10=219|
8=FIX.4.4|9=0051|35=0|34=158|49=EXC|56=010|52=20190530-15:52:53.000|10=009|
8=FIX.4.4|9=61|35=0|34=158|49=010|50=010BWN|52=20190530-15:53:08.588|56=EXC|10=219|
8=FIX.4.4|9=0051|35=0|34=159|49=EXC|56=010|52=20190530-15:53:23.000|10=008|
8=FIX.4.4|9=61|35=0|34=159|49=010|50=010BWN|52=20190530-15:53:38.593|56=EXC|10=219|
8=FIX.4.4|9=0051|35=0|34=160|49=EXC|56=010|52=20190530-15:53:53.000|10=003|
8=FIX.4.4|9=61|35=0|34=160|49=010|50=010BWN|52=20190530-15:54:08.595|56=EXC|10=211|
8=FIX.4.4|9=0051|35=0|34=161|49=EXC|56=010|52=20190530-15:54:23.000|10=002|
8=FIX.4.4|9=61|35=0|34=161|49=010|50=010BWN|52=20190530-15:54:38.589|56=EXC|10=218|
8=FIX.4.4|9=0051|35=0|34=162|49=EXC|56=010|52=20190530-15:54:53.000|10=006|
8=FIX.4.4|9=61|35=0|34=162|49=010|50=010BWN|52=20190530-15:55:08.585|56=EXC|10=213|
8=FIX.4.4|9=0051|35=0|34=163|49=EXC|56=010|52=20190530-15:55:23.000|10=005|
8=FIX.4.4|9=61|35=0|34=163|49=010|50=010BWN|52=20190530-15:55:38.595|56=EXC|10=218|
8=FIX.4.4|9=0051|35=0|34=164|49=EXC|56=010|52=20190530-15:55:53.000|10=009|
8=FIX.4.4|9=110|35=A|34=1|49=010|50=010BWN|52=20190530-16:43:53.883|56=EXC|43=Y|98=0|108=30|141=Y|553=010FCE003|554=010FCE003|10=135|
8=FIX.4.4|9=0067|35=A|34=1|49=EXC|56=010|52=20190530-16:43:55.165|98=0|108=30|141=Y|10=009|
8=FIX.4.4|9=0049|35=0|34=2|49=EXC|56=010|52=20190530-16:44:25.000|10=165|
8=FIX.4.4|9=59|35=0|34=2|49=010|50=010BWN|52=20190530-16:44:23.877|56=EXC|10=117|
8=FIX.4.4|9=0049|35=0|34=3|49=EXC|56=010|52=20190530-16:44:55.000|10=169|
8=FIX.4.4|9=59|35=0|34=3|49=010|50=010BWN|52=20190530-16:44:53.871|56=EXC|10=115|
8=FIX.4.4|9=0049|35=0|34=4|49=EXC|56=010|52=20190530-16:45:25.000|10=168|
8=FIX.4.4|9=59|35=0|34=4|49=010|50=010BWN|52=20190530-16:45:23.879|56=EXC|10=122|
8=FIX.4.4|9=110|35=A|34=1|49=010|50=010BWN|52=20190530-16:45:27.883|56=EXC|43=Y|98=0|108=30|141=Y|553=010FCE003|554=010FCE003|10=138|
8=FIX.4.4|9=110|35=A|34=1|49=010|50=010BWN|52=20190530-17:01:34.061|56=EXC|43=Y|98=0|108=30|141=Y|553=010FCE003|554=010FCE003|10=117|
8=FIX.4.4|9=0067|35=A|34=1|49=EXC|56=010|52=20190530-17:01:34.443|98=0|108=30|141=Y|10=000|
8=FIX.4.4|9=0049|35=0|34=2|49=EXC|56=010|52=20190530-17:02:04.000|10=157|
8=FIX.4.4|9=59|35=0|34=2|49=010|50=010BWN|52=20190530-17:02:04.066|56=EXC|10=101|
8=FIX.4.4|9=0049|35=0|34=3|49=EXC|56=010|52=20190530-17:02:34.000|10=161|
8=FIX.4.4|9=59|35=0|34=3|49=010|50=010BWN|52=20190530-17:02:34.073|56=EXC|10=103|
8=FIX.4.4|9=0049|35=0|34=4|49=EXC|56=010|52=20190530-17:03:04.000|10=160|
8=FIX.4.4|9=59|35=0|34=4|49=010|50=010BWN|52=20190530-17:03:05.067|56=EXC|10=106|
8=FIX.4.4|9=0049|35=0|34=5|49=EXC|56=010|52=20190530-17:03:34.000|10=164|
8=FIX.4.4|9=59|35=0|34=5|49=010|50=010BWN|52=20190530-17:03:35.073|56=EXC|10=107|
8=FIX.4.4|9=0049|35=0|34=6|49=EXC|56=010|52=20190530-17:04:04.000|10=163|
8=FIX.4.4|9=59|35=0|34=6|49=010|50=010BWN|52=20190530-17:04:06.065|56=EXC|10=108|
8=FIX.4.4|9=0049|35=0|34=7|49=EXC|56=010|52=20190530-17:04:34.000|10=167|
8=FIX.4.4|9=59|35=0|34=7|49=010|50=010BWN|52=20190530-17:04:36.066|56=EXC|10=113|
8=FIX.4.4|9=0049|35=0|34=8|49=EXC|56=010|52=20190530-17:05:04.000|10=166|
8=FIX.4.4|9=59|35=0|34=8|49=010|50=010BWN|52=20190530-17:05:06.072|56=EXC|10=109|
8=FIX.4.4|9=0049|35=0|34=9|49=EXC|56=010|52=20190530-17:05:34.000|10=170|
8=FIX.4.4|9=59|35=0|34=9|49=010|50=010BWN|52=20190530-17:05:37.064|56=EXC|10=115|
8=FIX.4.4|9=0050|35=0|34=10|49=EXC|56=010|52=20190530-17:06:04.000|10=200|
8=FIX.4.4|9=60|35=0|34=10|49=010|50=010BWN|52=20190530-17:06:07.058|56=EXC|10=148|
8=FIX.4.4|9=0050|35=0|34=11|49=EXC|56=010|52=20190530-17:06:34.000|10=204|
8=FIX.4.4|9=60|35=0|34=11|49=010|50=010BWN|52=20190530-17:06:37.071|56=EXC|10=147|
8=FIX.4.4|9=0050|35=0|34=12|49=EXC|56=010|52=20190530-17:07:04.000|10=203|
8=FIX.4.4|9=60|35=0|34=12|49=010|50=010BWN|52=20190530-17:07:08.060|56=EXC|10=145|
8=FIX.4.4|9=0050|35=0|34=13|49=EXC|56=010|52=20190530-17:07:34.000|10=207|
8=FIX.4.4|9=60|35=0|34=13|49=010|50=010BWN|52=20190530-17:07:38.059|56=EXC|10=157|
8=FIX.4.4|9=0050|35=0|34=14|49=EXC|56=010|52=20190530-17:08:04.000|10=206|
8=FIX.4.4|9=60|35=0|34=14|49=010|50=010BWN|52=20190530-17:08:08.071|56=EXC|10=150|
8=FIX.4.4|9=0050|35=0|34=15|49=EXC|56=010|52=20190530-17:08:34.000|10=210|
8=FIX.4.4|9=60|35=0|34=15|49=010|50=010BWN|52=20190530-17:08:39.061|56=EXC|10=154|
8=FIX.4.4|9=0050|35=0|34=16|49=EXC|56=010|52=20190530-17:09:04.000|10=209|
8=FIX.4.4|9=60|35=0|34=16|49=010|50=010BWN|52=20190530-17:09:09.060|56=EXC|10=152|
8=FIX.4.4|9=0050|35=0|34=17|49=EXC|56=010|52=20190530-17:09:34.000|10=213|
8=FIX.4.4|9=60|35=0|34=17|49=010|50=010BWN|52=20190530-17:09:39.061|56=EXC|10=157|
8=FIX.4.4|9=0050|35=0|34=18|49=EXC|56=010|52=20190530-17:10:04.000|10=203|
8=FIX.4.4|9=60|35=0|34=18|49=010|50=010BWN|52=20190530-17:10:09.071|56=EXC|10=148|
8=FIX.4.4|9=0050|35=0|34=19|49=EXC|56=010|52=20190530-17:10:34.000|10=207|
8=FIX.4.4|9=60|35=0|34=19|49=010|50=010BWN|52=20190530-17:10:39.063|56=EXC|10=153|
8=FIX.4.4|9=0050|35=0|34=20|49=EXC|56=010|52=20190530-17:11:04.000|10=197|
8=FIX.4.4|9=60|35=0|34=20|49=010|50=010BWN|52=20190530-17:11:09.061|56=EXC|10=141|
8=FIX.4.4|9=110|35=A|34=1|49=010|50=010BWN|52=20190530-17:13:02.509|56=EXC|43=Y|98=0|108=30|141=Y|553=010FCE003|554=010FCE003|10=122|
8=FIX.4.4|9=0067|35=A|34=1|49=EXC|56=010|52=20190530-17:13:02.577|98=0|108=30|141=Y|10=006|
8=FIX.4.4|9=110|35=A|34=1|49=010|50=010BWN|52=20190530-17:27:42.264|56=EXC|43=Y|98=0|108=30|141=Y|553=010FCE003|554=010FCE003|10=129|
8=FIX.4.4|9=0067|35=A|34=1|49=EXC|56=010|52=20190530-17:27:42.073|98=0|108=30|141=Y|10=006|
8=FIX.4.4|9=0049|35=0|34=2|49=EXC|56=010|52=20190530-17:28:12.000|10=164|
8=FIX.4.4|9=59|35=0|34=2|49=010|50=010BWN|52=20190530-17:28:12.299|56=EXC|10=116|
8=FIX.4.4|9=0049|35=0|34=3|49=EXC|56=010|52=20190530-17:28:42.000|10=168|
8=FIX.4.4|9=59|35=0|34=3|49=010|50=010BWN|52=20190530-17:28:43.222|56=EXC|10=107|
8=FIX.4.4|9=110|35=A|34=1|49=010|50=010BWN|52=20190530-21:57:11.139|56=EXC|43=Y|98=0|108=30|141=Y|553=010FCE003|554=010FCE003|10=124|
8=FIX.4.4|9=0067|35=A|34=1|49=EXC|56=010|52=20190530-21:57:11.385|98=0|108=30|141=Y|10=006|
8=FIX.4.4|9=0049|35=0|34=2|49=EXC|56=010|52=20190530-21:57:41.000|10=163|
8=FIX.4.4|9=59|35=0|34=2|49=010|50=010BWN|52=20190530-21:57:41.853|56=EXC|10=111|
8=FIX.4.4|9=0049|35=0|34=3|49=EXC|56=010|52=20190530-21:58:11.000|10=162|
8=FIX.4.4|9=59|35=0|34=3|49=010|50=010BWN|52=20190530-21:58:12.852|56=EXC|10=110|
8=FIX.4.4|9=110|35=A|34=1|49=010|50=010BWN|52=20190530-22:09:05.488|56=EXC|43=Y|98=0|108=30|141=Y|553=010FCE003|554=010FCE003|10=132|
8=FIX.4.4|9=0067|35=A|34=1|49=EXC|56=010|52=20190530-22:09:05.800|98=0|108=30|141=Y|10=255|
8=FIX.4.4|9=0049|35=0|34=2|49=EXC|56=010|52=20190530-22:09:35.000|10=164|
8=FIX.4.4|9=59|35=0|34=2|49=010|50=010BWN|52=20190530-22:09:35.486|56=EXC|10=114|
8=FIX.4.4|9=0049|35=0|34=3|49=EXC|56=010|52=20190530-22:10:05.000|10=154|
8=FIX.4.4|9=59|35=0|34=3|49=010|50=010BWN|52=20190530-22:10:05.479|56=EXC|10=106|
8=FIX.4.4|9=0049|35=0|34=4|49=EXC|56=010|52=20190530-22:10:35.000|10=158|
8=FIX.4.4|9=59|35=0|34=4|49=010|50=010BWN|52=20190530-22:10:35.483|56=EXC|10=105|
8=FIX.4.4|9=0049|35=0|34=5|49=EXC|56=010|52=20190530-22:11:05.000|10=157|
8=FIX.4.4|9=59|35=0|34=5|49=010|50=010BWN|52=20190530-22:11:05.485|56=EXC|10=106|
8=FIX.4.4|9=0049|35=0|34=6|49=EXC|56=010|52=20190530-22:11:35.000|10=161|
8=FIX.4.4|9=59|35=0|34=6|49=010|50=010BWN|52=20190530-22:11:35.482|56=EXC|10=107|
8=FIX.4.4|9=0049|35=0|34=7|49=EXC|56=010|52=20190530-22:12:05.000|10=160|
8=FIX.4.4|9=59|35=0|34=7|49=010|50=010BWN|52=20190530-22:12:05.491|56=EXC|10=106|
8=FIX.4.4|9=0049|35=0|34=8|49=EXC|56=010|52=20190530-22:12:35.000|10=164|
8=FIX.4.4|9=59|35=0|34=8|49=010|50=010BWN|52=20190530-22:12:35.486|56=EXC|10=114|
8=FIX.4.4|9=0049|35=0|34=9|49=EXC|56=010|52=20190530-22:13:05.000|10=163|
8=FIX.4.4|9=59|35=0|34=9|49=010|50=010BWN|52=20190530-22:13:05.479|56=EXC|10=115|
8=FIX.4.4|9=110|35=A|34=1|49=010|50=010BWN|52=20190606-15:06:28.818|56=EXC|43=Y|98=0|108=30|141=Y|553=010FCE003|554=010FCE003|10=137|
8=FIX.4.4|9=0067|35=A|34=1|49=EXC|56=010|52=20190606-15:06:28.875|98=0|108=30|141=Y|10=019|
8=FIX.4.4|9=110|35=A|34=1|49=010|50=010BWN|52=20190606-15:21:23.695|56=EXC|43=Y|98=0|108=30|141=Y|553=010FCE003|554=010FCE003|10=132|
8=FIX.4.4|9=0067|35=A|34=1|49=EXC|56=010|52=20190606-15:21:23.739|98=0|108=30|141=Y|10=010|
8=FIX.4.4|9=0049|35=0|34=2|49=EXC|56=010|52=20190606-15:21:53.000|10=164|
8=FIX.4.4|9=59|35=0|34=2|49=010|50=010BWN|52=20190606-15:21:54.654|56=EXC|10=112|
8=FIX.4.4|9=110|35=A|34=1|49=010|50=010BWN|52=20190606-15:23:19.033|56=EXC|43=Y|98=0|108=30|141=Y|553=010FCE003|554=010FCE003|10=125|
8=FIX.4.4|9=0067|35=A|34=1|49=EXC|56=010|52=20190606-15:23:19.066|98=0|108=30|141=Y|10=010|
8=FIX.4.4|9=110|35=A|34=1|49=010|50=010BWN|52=20190606-15:32:29.987|56=EXC|43=Y|98=0|108=30|141=Y|553=010FCE003|554=010FCE003|10=144|
8=FIX.4.4|9=0067|35=A|34=1|49=EXC|56=010|52=20190606-15:32:30.011|98=0|108=30|141=Y|10=249|
8=FIX.4.4|9=110|35=A|34=1|49=010|50=010BWN|52=20190606-15:52:40.648|56=EXC|43=Y|98=0|108=30|141=Y|553=010FCE003|554=010FCE003|10=133|
8=FIX.4.4|9=0067|35=A|34=1|49=EXC|56=010|52=20190606-15:52:40.689|98=0|108=30|141=Y|10=017|
8=FIX.4.4|9=110|35=A|34=1|49=010|50=010BWN|52=20190606-15:56:46.006|56=EXC|43=Y|98=0|108=30|141=Y|553=010FCE003|554=010FCE003|10=131|
8=FIX.4.4|9=0067|35=A|34=1|49=EXC|56=010|52=20190606-15:56:46.036|98=0|108=30|141=Y|10=013|
8=FIX.4.4|9=110|35=A|34=1|49=010|50=010BWN|52=20190606-15:59:04.847|56=EXC|43=Y|98=0|108=30|141=Y|553=010FCE003|554=010FCE003|10=141|
8=FIX.4.4|9=0067|35=A|34=1|49=EXC|56=010|52=20190606-15:59:04.879|98=0|108=30|141=Y|10=025|
8=FIX.4.4|9=110|35=A|34=1|49=010|50=010BWN|52=20190606-15:59:39.634|56=EXC|43=Y|98=0|108=30|141=Y|553=010FCE003|554=010FCE003|10=143|
8=FIX.4.4|9=0067|35=A|34=1|49=EXC|56=010|52=20190606-15:59:39.675|98=0|108=30|141=Y|10=027|
8=FIX.4.4|9=110|35=A|34=1|49=010|50=010BWN|52=20190606-15:59:59.571|56=EXC|43=Y|98=0|108=30|141=Y|553=010FCE003|554=010FCE003|10=145|
8=FIX.4.4|9=0067|35=A|34=1|49=EXC|56=010|52=20190606-15:59:59.604|98=0|108=30|141=Y|10=021|
8=FIX.4.4|9=110|35=A|34=1|49=010|50=010BWN|52=20190606-16:10:28.384|56=EXC|43=Y|98=0|108=30|141=Y|553=010FCE003|554=010FCE003|10=131|
8=FIX.4.4|9=0067|35=A|34=1|49=EXC|56=010|52=20190606-16:10:28.418|98=0|108=30|141=Y|10=008|
8=FIX.4.4|9=0192|35=R|34=2|49=EXC|56=010|52=20190606-16:10:30.602|131=20190606-000000000006.00|146=1|55=TFIT15260826|762=RFQF|48=20348|22=M|54=1|38=1500000000|453=2|448=001B27|447=C|452=12|448=001|447=C|452=1|10=226|
8=FIX.4.4|9=110|35=A|34=1|49=010|50=010BWN|52=20190606-16:26:36.575|56=EXC|43=Y|98=0|108=30|141=Y|553=010FCE003|554=010FCE003|10=139|
8=FIX.4.4|9=0067|35=A|34=1|49=EXC|56=010|52=20190606-16:26:36.610|98=0|108=30|141=Y|10=008|
8=FIX.4.4|9=0192|35=R|34=2|49=EXC|56=010|52=20190606-16:26:38.838|131=20190606-000000000007.00|146=1|55=TFIT15260826|762=RFQF|48=20348|22=M|54=1|38=1500000000|453=2|448=001B27|447=C|452=12|448=001|447=C|452=1|10=253|
8=FIX.4.4|9=110|35=A|34=1|49=010|50=010BWN|52=20190606-18:54:40.573|56=EXC|43=Y|98=0|108=30|141=Y|553=010FCE003|554=010FCE003|10=135|
8=FIX.4.4|9=0067|35=A|34=1|49=EXC|56=010|52=20190606-18:54:40.614|98=0|108=30|141=Y|10=010|
8=FIX.4.4|9=0192|35=R|34=2|49=EXC|56=010|52=20190606-18:54:42.872|131=20190606-000000000008.00|146=1|55=TFIT15260826|762=RFQF|48=20348|22=M|54=1|38=1500000000|453=2|448=001B27|447=C|452=12|448=001|447=C|452=1|10=250|
8=FIX.4.4|9=59|35=0|34=2|49=010|50=010BWN|52=20190606-18:55:11.535|56=EXC|10=113|
8=FIX.4.4|9=0049|35=0|34=3|49=EXC|56=010|52=20190606-18:55:12.000|10=170|
8=FIX.4.4|9=59|35=0|34=3|49=010|50=010BWN|52=20190606-18:55:41.536|56=EXC|10=118|
8=FIX.4.4|9=0049|35=0|34=4|49=EXC|56=010|52=20190606-18:55:42.000|10=174|
