8=FIX.4.4|9=110|35=A|34=1|49=010|50=010BWN|52=20190527-20:57:10.025|56=EXC|43=Y|98=0|108=30|141=Y|553=013FCM001|554=013FCM001|10=140|
8=FIX.4.4|9=110|35=A|34=1|49=010|50=010BWN|52=20190527-20:58:46.237|56=EXC|43=Y|98=0|108=30|141=Y|553=013FCM001|554=013FCM001|10=155|
8=FIX.4.4|9=110|35=A|34=1|49=010|50=010BWN|52=20190527-21:00:54.369|56=EXC|43=Y|98=0|108=30|141=Y|553=013FCM001|554=013FCM001|10=148|
8=FIX.4.4|9=110|35=A|34=1|49=010|50=010BWN|52=20190527-21:10:19.071|56=EXC|43=Y|98=0|108=30|141=Y|553=010FCE003|554=010FCE003|10=122|
8=FIX.4.4|9=0067|35=A|34=1|49=EXC|56=010|52=20190527-21:10:19.085|98=0|108=30|141=Y|10=006|
8=FIX.4.4|9=110|35=A|34=1|49=010|50=010BWN|52=20190527-21:22:19.572|56=EXC|43=Y|98=0|108=30|141=Y|553=010FCE003|554=010FCE003|10=131|
8=FIX.4.4|9=0067|35=A|34=1|49=EXC|56=010|52=20190527-21:22:19.580|98=0|108=30|141=Y|10=009|
8=FIX.4.4|9=110|35=A|34=1|49=010|50=010BWN|52=20190527-21:24:07.011|56=EXC|43=Y|98=0|108=30|141=Y|553=010FCE003|554=010FCE003|10=118|
8=FIX.4.4|9=0067|35=A|34=1|49=EXC|56=010|52=20190527-21:24:07.014|98=0|108=30|141=Y|10=000|
8=FIX.4.4|9=110|35=A|34=1|49=010|50=010BWN|52=20190527-21:28:00.414|56=EXC|43=Y|98=0|108=30|141=Y|553=010FCE003|554=010FCE003|10=122|
8=FIX.4.4|9=0067|35=A|34=1|49=EXC|56=010|52=20190527-21:28:00.419|98=0|108=30|141=Y|10=006|
8=FIX.4.4|9=110|35=A|34=1|49=010|50=010BWN|52=20190527-21:29:23.538|56=EXC|43=Y|98=0|108=30|141=Y|553=010FCE003|554=010FCE003|10=135|
8=FIX.4.4|9=0067|35=A|34=1|49=EXC|56=010|52=20190527-21:29:23.537|98=0|108=30|141=Y|10=013|
8=FIX.4.4|9=110|35=A|34=1|49=010|50=010BWN|52=20190528-12:36:49.722|56=EXC|43=Y|98=0|108=30|141=Y|553=010FCE003|554=010FCE003|10=137|
8=FIX.4.4|9=0067|35=A|34=1|49=EXC|56=010|52=20190528-12:36:50.511|98=0|108=30|141=Y|10=004|
8=FIX.4.4|9=0049|35=0|34=2|49=EXC|56=010|52=20190528-12:37:20.000|10=165|
8=FIX.4.4|9=59|35=0|34=2|49=010|50=010BWN|52=20190528-12:37:20.613|56=EXC|10=107|
8=FIX.4.4|9=110|35=A|34=1|49=010|50=010BWN|52=20190528-12:43:36.320|56=EXC|43=Y|98=0|108=30|141=Y|553=010FCE003|554=010FCE003|10=125|
8=FIX.4.4|9=0067|35=A|34=1|49=EXC|56=010|52=20190528-12:43:36.643|98=0|108=30|141=Y|10=012|
8=FIX.4.4|9=110|35=A|34=1|49=010|50=010BWN|52=20190528-12:57:43.640|56=EXC|43=Y|98=0|108=30|141=Y|553=010FCE003|554=010FCE003|10=133|
8=FIX.4.4|9=0067|35=A|34=1|49=EXC|56=010|52=20190528-12:57:44.175|98=0|108=30|141=Y|10=016|
8=FIX.4.4|9=110|35=A|34=1|49=010|50=010BWN|52=20190528-12:59:56.711|56=EXC|43=Y|98=0|108=30|141=Y|553=010FCE003|554=010FCE003|10=138|
8=FIX.4.4|9=0067|35=A|34=1|49=EXC|56=010|52=20190528-12:59:57.284|98=0|108=30|141=Y|10=023|
8=FIX.4.4|9=0049|35=0|34=2|49=EXC|56=010|52=20190528-13:00:27.000|10=163|
8=FIX.4.4|9=59|35=0|34=2|49=010|50=010BWN|52=20190528-13:00:27.534|56=EXC|10=107|
8=FIX.4.4|9=110|35=A|34=1|49=010|50=010BWN|52=20190528-13:26:08.663|56=EXC|43=Y|98=0|108=30|141=Y|553=010FCE003|554=010FCE003|10=136|
8=FIX.4.4|9=0067|35=A|34=1|49=EXC|56=010|52=20190528-13:26:08.735|98=0|108=30|141=Y|10=015|
8=FIX.4.4|9=110|35=A|34=1|49=010|50=010BWN|52=20190528-15:22:28.813|56=EXC|43=Y|98=0|108=30|141=Y|553=010FCE003|554=010FCE003|10=133|
8=FIX.4.4|9=0067|35=A|34=1|49=EXC|56=010|52=20190528-15:22:28.894|98=0|108=30|141=Y|10=021|
8=FIX.4.4|9=110|35=A|34=1|49=010|50=010BWN|52=20190528-15:24:02.543|56=EXC|43=Y|98=0|108=30|141=Y|553=010FCE003|554=010FCE003|10=127|
8=FIX.4.4|9=0067|35=A|34=1|49=EXC|56=010|52=20190528-15:24:02.609|98=0|108=30|141=Y|10=009|
8=FIX.4.4|9=110|35=A|34=1|49=010|50=010BWN|52=20190528-20:13:38.124|56=EXC|43=Y|98=0|108=30|141=Y|553=010FCE003|554=010FCE003|10=125|
8=FIX.4.4|9=0067|35=A|34=1|49=EXC|56=010|52=20190528-20:13:38.193|98=0|108=30|141=Y|10=010|
8=FIX.4.4|9=110|35=A|34=1|49=010|50=010BWN|52=20190528-20:18:12.403|56=EXC|43=Y|98=0|108=30|141=Y|553=010FCE003|554=010FCE003|10=122|
8=FIX.4.4|9=0067|35=A|34=1|49=EXC|56=010|52=20190528-20:18:12.463|98=0|108=30|141=Y|10=007|
8=FIX.4.4|9=110|35=A|34=1|49=010|50=010BWN|52=20190528-20:54:13.231|56=EXC|43=Y|98=0|108=30|141=Y|553=010FCE003|554=010FCE003|10=122|
8=FIX.4.4|9=0067|35=A|34=1|49=EXC|56=010|52=20190528-20:54:13.309|98=0|108=30|141=Y|10=007|
8=FIX.4.4|9=110|35=A|34=1|49=010|50=010BWN|52=20190528-23:51:53.691|56=EXC|43=Y|98=0|108=30|141=Y|553=010FCE003|554=010FCE003|10=136|
8=FIX.4.4|9=0067|35=A|34=1|49=EXC|56=010|52=20190528-23:51:53.442|98=0|108=30|141=Y|10=009|
8=FIX.4.4|9=0049|35=0|34=2|49=EXC|56=010|52=20190528-23:52:23.000|10=167|
8=FIX.4.4|9=59|35=0|34=2|49=010|50=010BWN|52=20190528-23:52:24.665|56=EXC|10=117|
8=FIX.4.4|9=110|35=A|34=1|49=010|50=010BWN|52=20190529-00:03:20.468|56=EXC|43=Y|98=0|108=30|141=Y|553=010FCE003|554=010FCE003|10=125|
8=FIX.4.4|9=0067|35=A|34=1|49=EXC|56=010|52=20190529-00:03:20.186|98=0|108=30|141=Y|10=001|
8=FIX.4.4|9=0049|35=0|34=2|49=EXC|56=010|52=20190529-00:03:50.000|10=159|
8=FIX.4.4|9=59|35=0|34=2|49=010|50=010BWN|52=20190529-00:03:51.330|56=EXC|10=098|
8=FIX.4.4|9=0049|35=0|34=3|49=EXC|56=010|52=20190529-00:04:20.000|10=158|
8=FIX.4.4|9=59|35=0|34=3|49=010|50=010BWN|52=20190529-00:04:21.331|56=EXC|10=098|
8=FIX.4.4|9=110|35=A|34=1|49=010|50=010BWN|52=20190529-00:09:25.941|56=EXC|43=Y|98=0|108=30|141=Y|553=010FCE003|554=010FCE003|10=132|
8=FIX.4.4|9=0067|35=A|34=1|49=EXC|56=010|52=20190529-00:09:25.651|98=0|108=30|141=Y|10=009|
8=FIX.4.4|9=0049|35=0|34=2|49=EXC|56=010|52=20190529-00:09:55.000|10=170|
8=FIX.4.4|9=59|35=0|34=2|49=010|50=010BWN|52=20190529-00:09:56.902|56=EXC|10=114|
8=FIX.4.4|9=0049|35=0|34=3|49=EXC|56=010|52=20190529-00:10:25.000|10=160|
8=FIX.4.4|9=59|35=0|34=3|49=010|50=010BWN|52=20190529-00:10:26.901|56=EXC|10=103|
8=FIX.4.4|9=110|35=A|34=1|49=010|50=010BWN|52=20190529-00:10:49.153|56=EXC|43=Y|98=0|108=30|141=Y|553=010FCE003|554=010FCE003|10=125|
8=FIX.4.4|9=0067|35=A|34=1|49=EXC|56=010|52=20190529-00:10:48.866|98=0|108=30|141=Y|10=014|
8=FIX.4.4|9=0049|35=0|34=2|49=EXC|56=010|52=20190529-00:11:18.000|10=162|
8=FIX.4.4|9=59|35=0|34=2|49=010|50=010BWN|52=20190529-00:11:20.124|56=EXC|10=094|
8=FIX.4.4|9=0049|35=0|34=3|49=EXC|56=010|52=20190529-00:11:48.000|10=166|
8=FIX.4.4|9=59|35=0|34=3|49=010|50=010BWN|52=20190529-00:11:50.123|56=EXC|10=097|
8=FIX.4.4|9=0049|35=0|34=4|49=EXC|56=010|52=20190529-00:12:18.000|10=165|
8=FIX.4.4|9=59|35=0|34=4|49=010|50=010BWN|52=20190529-00:12:20.122|56=EXC|10=095|
8=FIX.4.4|9=0049|35=0|34=5|49=EXC|56=010|52=20190529-00:12:48.000|10=169|
8=FIX.4.4|9=59|35=0|34=5|49=010|50=010BWN|52=20190529-00:12:50.123|56=EXC|10=100|
8=FIX.4.4|9=110|35=A|34=1|49=010|50=010BWN|52=20190529-00:14:06.751|56=EXC|43=Y|98=0|108=30|141=Y|553=010FCE003|554=010FCE003|10=126|
8=FIX.4.4|9=0067|35=A|34=1|49=EXC|56=010|52=20190529-00:14:06.459|98=0|108=30|141=Y|10=010|
8=FIX.4.4|9=0049|35=0|34=2|49=EXC|56=010|52=20190529-00:14:36.000|10=165|
8=FIX.4.4|9=59|35=0|34=2|49=010|50=010BWN|52=20190529-00:14:37.715|56=EXC|10=111|
8=FIX.4.4|9=0049|35=0|34=3|49=EXC|56=010|52=20190529-00:15:06.000|10=164|
8=FIX.4.4|9=59|35=0|34=3|49=010|50=010BWN|52=20190529-00:15:07.714|56=EXC|10=109|
8=FIX.4.4|9=110|35=A|34=1|49=010|50=010BWN|52=20190529-00:16:05.322|56=EXC|43=Y|98=0|108=30|141=Y|553=010FCE003|554=010FCE003|10=121|
8=FIX.4.4|9=0067|35=A|34=1|49=EXC|56=010|52=20190529-00:16:04.770|98=0|108=30|141=Y|10=006|
8=FIX.4.4|9=0049|35=0|34=2|49=EXC|56=010|52=20190529-00:16:34.000|10=165|
8=FIX.4.4|9=59|35=0|34=2|49=010|50=010BWN|52=20190529-00:16:36.298|56=EXC|10=118|
8=FIX.4.4|9=0049|35=0|34=3|49=EXC|56=010|52=20190529-00:17:04.000|10=164|
8=FIX.4.4|9=59|35=0|34=3|49=010|50=010BWN|52=20190529-00:17:06.298|56=EXC|10=117|
8=FIX.4.4|9=0049|35=0|34=4|49=EXC|56=010|52=20190529-00:17:34.000|10=168|
8=FIX.4.4|9=59|35=0|34=4|49=010|50=010BWN|52=20190529-00:17:36.297|56=EXC|10=120|
8=FIX.4.4|9=0049|35=0|34=5|49=EXC|56=010|52=20190529-00:18:04.000|10=167|
8=FIX.4.4|9=59|35=0|34=5|49=010|50=010BWN|52=20190529-00:18:06.297|56=EXC|10=119|
8=FIX.4.4|9=0049|35=0|34=6|49=EXC|56=010|52=20190529-00:18:34.000|10=171|
8=FIX.4.4|9=59|35=0|34=6|49=010|50=010BWN|52=20190529-00:18:36.298|56=EXC|10=124|
8=FIX.4.4|9=0049|35=0|34=7|49=EXC|56=010|52=20190529-00:19:04.000|10=170|
8=FIX.4.4|9=59|35=0|34=7|49=010|50=010BWN|52=20190529-00:19:06.297|56=EXC|10=122|
8=FIX.4.4|9=110|35=A|34=1|49=010|50=010BWN|52=20190529-00:19:57.275|56=EXC|43=Y|98=0|108=30|141=Y|553=010FCE003|554=010FCE003|10=138|
8=FIX.4.4|9=0067|35=A|34=1|49=EXC|56=010|52=20190529-00:19:56.717|98=0|108=30|141=Y|10=017|
8=FIX.4.4|9=0049|35=0|34=2|49=EXC|56=010|52=20190529-00:20:26.000|10=161|
8=FIX.4.4|9=59|35=0|34=2|49=010|50=010BWN|52=20190529-00:20:28.247|56=EXC|10=108|
8=FIX.4.4|9=0049|35=0|34=3|49=EXC|56=010|52=20190529-00:20:56.000|10=165|
8=FIX.4.4|9=59|35=0|34=3|49=010|50=010BWN|52=20190529-00:20:58.248|56=EXC|10=113|
8=FIX.4.4|9=110|35=A|34=1|49=010|50=010BWN|52=20190529-00:22:19.657|56=EXC|43=Y|98=0|108=30|141=Y|553=010FCE003|554=010FCE003|10=134|
8=FIX.4.4|9=0067|35=A|34=1|49=EXC|56=010|52=20190529-00:22:19.093|98=0|108=30|141=Y|10=007|
8=FIX.4.4|9=110|35=A|34=1|49=010|50=010BWN|52=20190529-00:23:37.145|56=EXC|43=Y|98=0|108=30|141=Y|553=010FCE003|554=010FCE003|10=127|
8=FIX.4.4|9=0067|35=A|34=1|49=EXC|56=010|52=20190529-00:23:36.587|98=0|108=30|141=Y|10=015|
8=FIX.4.4|9=0049|35=0|34=2|49=EXC|56=010|52=20190529-00:24:06.000|10=163|
8=FIX.4.4|9=59|35=0|34=2|49=010|50=010BWN|52=20190529-00:24:08.082|56=EXC|10=107|
8=FIX.4.4|9=0049|35=0|34=3|49=EXC|56=010|52=20190529-00:24:36.000|10=167|
8=FIX.4.4|9=59|35=0|34=3|49=010|50=010BWN|52=20190529-00:24:38.082|56=EXC|10=111|
8=FIX.4.4|9=0049|35=0|34=4|49=EXC|56=010|52=20190529-00:25:06.000|10=166|
8=FIX.4.4|9=59|35=0|34=4|49=010|50=010BWN|52=20190529-00:25:08.082|56=EXC|10=110|
8=FIX.4.4|9=110|35=A|34=1|49=010|50=010BWN|52=20190529-00:25:31.794|56=EXC|43=Y|98=0|108=30|141=Y|553=010FCE003|554=010FCE003|10=133|
8=FIX.4.4|9=0067|35=A|34=1|49=EXC|56=010|52=20190529-00:25:31.228|98=0|108=30|141=Y|10=004|
8=FIX.4.4|9=110|35=A|34=1|49=010|50=010BWN|52=20190529-00:31:10.155|56=EXC|43=Y|98=0|108=30|141=Y|553=010FCE003|554=010FCE003|10=118|
8=FIX.4.4|9=0067|35=A|34=1|49=EXC|56=010|52=20190529-00:31:09.590|98=0|108=30|141=Y|10=008|
