8=FIX.4.4|9=110|35=A|34=1|49=010|50=010BWN|52=20190527-20:57:10.025|56=EXC|43=Y|98=0|108=30|141=Y|553=013FCM001|554=013FCM001|10=140|
8=FIX.4.4|9=110|35=A|34=1|49=010|50=010BWN|52=20190527-20:58:46.237|56=EXC|43=Y|98=0|108=30|141=Y|553=013FCM001|554=013FCM001|10=155|
8=FIX.4.4|9=110|35=A|34=1|49=010|50=010BWN|52=20190527-21:00:54.369|56=EXC|43=Y|98=0|108=30|141=Y|553=013FCM001|554=013FCM001|10=148|
8=FIX.4.4|9=110|35=A|34=1|49=010|50=010BWN|52=20190527-21:10:19.071|56=EXC|43=Y|98=0|108=30|141=Y|553=010FCE003|554=010FCE003|10=122|
8=FIX.4.4|9=0067|35=A|34=1|49=EXC|56=010|52=20190527-21:10:19.085|98=0|108=30|141=Y|10=006|
8=FIX.4.4|9=110|35=A|34=1|49=010|50=010BWN|52=20190527-21:22:19.572|56=EXC|43=Y|98=0|108=30|141=Y|553=010FCE003|554=010FCE003|10=131|
8=FIX.4.4|9=0067|35=A|34=1|49=EXC|56=010|52=20190527-21:22:19.580|98=0|108=30|141=Y|10=009|
8=FIX.4.4|9=110|35=A|34=1|49=010|50=010BWN|52=20190527-21:24:07.011|56=EXC|43=Y|98=0|108=30|141=Y|553=010FCE003|554=010FCE003|10=118|
8=FIX.4.4|9=0067|35=A|34=1|49=EXC|56=010|52=20190527-21:24:07.014|98=0|108=30|141=Y|10=000|
8=FIX.4.4|9=110|35=A|34=1|49=010|50=010BWN|52=20190527-21:28:00.414|56=EXC|43=Y|98=0|108=30|141=Y|553=010FCE003|554=010FCE003|10=122|
8=FIX.4.4|9=0067|35=A|34=1|49=EXC|56=010|52=20190527-21:28:00.419|98=0|108=30|141=Y|10=006|
8=FIX.4.4|9=110|35=A|34=1|49=010|50=010BWN|52=20190527-21:29:23.538|56=EXC|43=Y|98=0|108=30|141=Y|553=010FCE003|554=010FCE003|10=135|
8=FIX.4.4|9=0067|35=A|34=1|49=EXC|56=010|52=20190527-21:29:23.537|98=0|108=30|141=Y|10=013|
8=FIX.4.4|9=110|35=A|34=1|49=010|50=010BWN|52=20190528-12:36:49.722|56=EXC|43=Y|98=0|108=30|141=Y|553=010FCE003|554=010FCE003|10=137|
8=FIX.4.4|9=0067|35=A|34=1|49=EXC|56=010|52=20190528-12:36:50.511|98=0|108=30|141=Y|10=004|
8=FIX.4.4|9=0049|35=0|34=2|49=EXC|56=010|52=20190528-12:37:20.000|10=165|
8=FIX.4.4|9=59|35=0|34=2|49=010|50=010BWN|52=20190528-12:37:20.613|56=EXC|10=107|
8=FIX.4.4|9=110|35=A|34=1|49=010|50=010BWN|52=20190528-12:43:36.320|56=EXC|43=Y|98=0|108=30|141=Y|553=010FCE003|554=010FCE003|10=125|
8=FIX.4.4|9=0067|35=A|34=1|49=EXC|56=010|52=20190528-12:43:36.643|98=0|108=30|141=Y|10=012|
8=FIX.4.4|9=110|35=A|34=1|49=010|50=010BWN|52=20190528-12:57:43.640|56=EXC|43=Y|98=0|108=30|141=Y|553=010FCE003|554=010FCE003|10=133|
8=FIX.4.4|9=0067|35=A|34=1|49=EXC|56=010|52=20190528-12:57:44.175|98=0|108=30|141=Y|10=016|
8=FIX.4.4|9=110|35=A|34=1|49=010|50=010BWN|52=20190528-12:59:56.711|56=EXC|43=Y|98=0|108=30|141=Y|553=010FCE003|554=010FCE003|10=138|
8=FIX.4.4|9=0067|35=A|34=1|49=EXC|56=010|52=20190528-12:59:57.284|98=0|108=30|141=Y|10=023|
8=FIX.4.4|9=0049|35=0|34=2|49=EXC|56=010|52=20190528-13:00:27.000|10=163|
8=FIX.4.4|9=59|35=0|34=2|49=010|50=010BWN|52=20190528-13:00:27.534|56=EXC|10=107|
8=FIX.4.4|9=110|35=A|34=1|49=010|50=010BWN|52=20190528-13:26:08.663|56=EXC|43=Y|98=0|108=30|141=Y|553=010FCE003|554=010FCE003|10=136|
8=FIX.4.4|9=0067|35=A|34=1|49=EXC|56=010|52=20190528-13:26:08.735|98=0|108=30|141=Y|10=015|
8=FIX.4.4|9=110|35=A|34=1|49=010|50=010BWN|52=20190528-15:22:28.813|56=EXC|43=Y|98=0|108=30|141=Y|553=010FCE003|554=010FCE003|10=133|
8=FIX.4.4|9=0067|35=A|34=1|49=EXC|56=010|52=20190528-15:22:28.894|98=0|108=30|141=Y|10=021|
8=FIX.4.4|9=110|35=A|34=1|49=010|50=010BWN|52=20190528-15:24:02.543|56=EXC|43=Y|98=0|108=30|141=Y|553=010FCE003|554=010FCE003|10=127|
8=FIX.4.4|9=0067|35=A|34=1|49=EXC|56=010|52=20190528-15:24:02.609|98=0|108=30|141=Y|10=009|
8=FIX.4.4|9=110|35=A|34=1|49=010|50=010BWN|52=20190528-20:13:38.124|56=EXC|43=Y|98=0|108=30|141=Y|553=010FCE003|554=010FCE003|10=125|
8=FIX.4.4|9=0067|35=A|34=1|49=EXC|56=010|52=20190528-20:13:38.193|98=0|108=30|141=Y|10=010|
8=FIX.4.4|9=110|35=A|34=1|49=010|50=010BWN|52=20190528-20:18:12.403|56=EXC|43=Y|98=0|108=30|141=Y|553=010FCE003|554=010FCE003|10=122|
8=FIX.4.4|9=0067|35=A|34=1|49=EXC|56=010|52=20190528-20:18:12.463|98=0|108=30|141=Y|10=007|
8=FIX.4.4|9=110|35=A|34=1|49=010|50=010BWN|52=20190528-20:54:13.231|56=EXC|43=Y|98=0|108=30|141=Y|553=010FCE003|554=010FCE003|10=122|
8=FIX.4.4|9=0067|35=A|34=1|49=EXC|56=010|52=20190528-20:54:13.309|98=0|108=30|141=Y|10=007|
8=FIX.4.4|9=110|35=A|34=1|49=010|50=010BWN|52=20190528-23:51:53.691|56=EXC|43=Y|98=0|108=30|141=Y|553=010FCE003|554=010FCE003|10=136|
8=FIX.4.4|9=0067|35=A|34=1|49=EXC|56=010|52=20190528-23:51:53.442|98=0|108=30|141=Y|10=009|
8=FIX.4.4|9=0049|35=0|34=2|49=EXC|56=010|52=20190528-23:52:23.000|10=167|
8=FIX.4.4|9=59|35=0|34=2|49=010|50=010BWN|52=20190528-23:52:24.665|56=EXC|10=117|
8=FIX.4.4|9=110|35=A|34=1|49=010|50=010BWN|52=20190529-00:03:20.468|56=EXC|43=Y|98=0|108=30|141=Y|553=010FCE003|554=010FCE003|10=125|
8=FIX.4.4|9=0067|35=A|34=1|49=EXC|56=010|52=20190529-00:03:20.186|98=0|108=30|141=Y|10=001|
8=FIX.4.4|9=0049|35=0|34=2|49=EXC|56=010|52=20190529-00:03:50.000|10=159|
8=FIX.4.4|9=59|35=0|34=2|49=010|50=010BWN|52=20190529-00:03:51.330|56=EXC|10=098|
8=FIX.4.4|9=0049|35=0|34=3|49=EXC|56=010|52=20190529-00:04:20.000|10=158|
8=FIX.4.4|9=59|35=0|34=3|49=010|50=010BWN|52=20190529-00:04:21.331|56=EXC|10=098|
8=FIX.4.4|9=110|35=A|34=1|49=010|50=010BWN|52=20190529-00:09:25.941|56=EXC|43=Y|98=0|108=30|141=Y|553=010FCE003|554=010FCE003|10=132|
8=FIX.4.4|9=0067|35=A|34=1|49=EXC|56=010|52=20190529-00:09:25.651|98=0|108=30|141=Y|10=009|
8=FIX.4.4|9=0049|35=0|34=2|49=EXC|56=010|52=20190529-00:09:55.000|10=170|
8=FIX.4.4|9=59|35=0|34=2|49=010|50=010BWN|52=20190529-00:09:56.902|56=EXC|10=114|
8=FIX.4.4|9=0049|35=0|34=3|49=EXC|56=010|52=20190529-00:10:25.000|10=160|
8=FIX.4.4|9=59|35=0|34=3|49=010|50=010BWN|52=20190529-00:10:26.901|56=EXC|10=103|
8=FIX.4.4|9=110|35=A|34=1|49=010|50=010BWN|52=20190529-00:10:49.153|56=EXC|43=Y|98=0|108=30|141=Y|553=010FCE003|554=010FCE003|10=125|
8=FIX.4.4|9=0067|35=A|34=1|49=EXC|56=010|52=20190529-00:10:48.866|98=0|108=30|141=Y|10=014|
8=FIX.4.4|9=0049|35=0|34=2|49=EXC|56=010|52=20190529-00:11:18.000|10=162|
8=FIX.4.4|9=59|35=0|34=2|49=010|50=010BWN|52=20190529-00:11:20.124|56=EXC|10=094|
8=FIX.4.4|9=0049|35=0|34=3|49=EXC|56=010|52=20190529-00:11:48.000|10=166|
8=FIX.4.4|9=59|35=0|34=3|49=010|50=010BWN|52=20190529-00:11:50.123|56=EXC|10=097|
8=FIX.4.4|9=0049|35=0|34=4|49=EXC|56=010|52=20190529-00:12:18.000|10=165|
8=FIX.4.4|9=59|35=0|34=4|49=010|50=010BWN|52=20190529-00:12:20.122|56=EXC|10=095|
8=FIX.4.4|9=0049|35=0|34=5|49=EXC|56=010|52=20190529-00:12:48.000|10=169|
8=FIX.4.4|9=59|35=0|34=5|49=010|50=010BWN|52=20190529-00:12:50.123|56=EXC|10=100|
8=FIX.4.4|9=110|35=A|34=1|49=010|50=010BWN|52=20190529-00:14:06.751|56=EXC|43=Y|98=0|108=30|141=Y|553=010FCE003|554=010FCE003|10=126|
8=FIX.4.4|9=0067|35=A|34=1|49=EXC|56=010|52=20190529-00:14:06.459|98=0|108=30|141=Y|10=010|
8=FIX.4.4|9=0049|35=0|34=2|49=EXC|56=010|52=20190529-00:14:36.000|10=165|
8=FIX.4.4|9=59|35=0|34=2|49=010|50=010BWN|52=20190529-00:14:37.715|56=EXC|10=111|
8=FIX.4.4|9=0049|35=0|34=3|49=EXC|56=010|52=20190529-00:15:06.000|10=164|
8=FIX.4.4|9=59|35=0|34=3|49=010|50=010BWN|52=20190529-00:15:07.714|56=EXC|10=109|
8=FIX.4.4|9=110|35=A|34=1|49=010|50=010BWN|52=20190529-00:16:05.322|56=EXC|43=Y|98=0|108=30|141=Y|553=010FCE003|554=010FCE003|10=121|
8=FIX.4.4|9=0067|35=A|34=1|49=EXC|56=010|52=20190529-00:16:04.770|98=0|108=30|141=Y|10=006|
8=FIX.4.4|9=0049|35=0|34=2|49=EXC|56=010|52=20190529-00:16:34.000|10=165|
8=FIX.4.4|9=59|35=0|34=2|49=010|50=010BWN|52=20190529-00:16:36.298|56=EXC|10=118|
8=FIX.4.4|9=0049|35=0|34=3|49=EXC|56=010|52=20190529-00:17:04.000|10=164|
8=FIX.4.4|9=59|35=0|34=3|49=010|50=010BWN|52=20190529-00:17:06.298|56=EXC|10=117|
8=FIX.4.4|9=0049|35=0|34=4|49=EXC|56=010|52=20190529-00:17:34.000|10=168|
8=FIX.4.4|9=59|35=0|34=4|49=010|50=010BWN|52=20190529-00:17:36.297|56=EXC|10=120|
8=FIX.4.4|9=0049|35=0|34=5|49=EXC|56=010|52=20190529-00:18:04.000|10=167|
8=FIX.4.4|9=59|35=0|34=5|49=010|50=010BWN|52=20190529-00:18:06.297|56=EXC|10=119|
8=FIX.4.4|9=0049|35=0|34=6|49=EXC|56=010|52=20190529-00:18:34.000|10=171|
8=FIX.4.4|9=59|35=0|34=6|49=010|50=010BWN|52=20190529-00:18:36.298|56=EXC|10=124|
8=FIX.4.4|9=0049|35=0|34=7|49=EXC|56=010|52=20190529-00:19:04.000|10=170|
8=FIX.4.4|9=59|35=0|34=7|49=010|50=010BWN|52=20190529-00:19:06.297|56=EXC|10=122|
8=FIX.4.4|9=110|35=A|34=1|49=010|50=010BWN|52=20190529-00:19:57.275|56=EXC|43=Y|98=0|108=30|141=Y|553=010FCE003|554=010FCE003|10=138|
8=FIX.4.4|9=0067|35=A|34=1|49=EXC|56=010|52=20190529-00:19:56.717|98=0|108=30|141=Y|10=017|
8=FIX.4.4|9=0049|35=0|34=2|49=EXC|56=010|52=20190529-00:20:26.000|10=161|
8=FIX.4.4|9=59|35=0|34=2|49=010|50=010BWN|52=20190529-00:20:28.247|56=EXC|10=108|
8=FIX.4.4|9=0049|35=0|34=3|49=EXC|56=010|52=20190529-00:20:56.000|10=165|
8=FIX.4.4|9=59|35=0|34=3|49=010|50=010BWN|52=20190529-00:20:58.248|56=EXC|10=113|
8=FIX.4.4|9=110|35=A|34=1|49=010|50=010BWN|52=20190529-00:22:19.657|56=EXC|43=Y|98=0|108=30|141=Y|553=010FCE003|554=010FCE003|10=134|
8=FIX.4.4|9=0067|35=A|34=1|49=EXC|56=010|52=20190529-00:22:19.093|98=0|108=30|141=Y|10=007|
8=FIX.4.4|9=110|35=A|34=1|49=010|50=010BWN|52=20190529-00:23:37.145|56=EXC|43=Y|98=0|108=30|141=Y|553=010FCE003|554=010FCE003|10=127|
8=FIX.4.4|9=0067|35=A|34=1|49=EXC|56=010|52=20190529-00:23:36.587|98=0|108=30|141=Y|10=015|
8=FIX.4.4|9=0049|35=0|34=2|49=EXC|56=010|52=20190529-00:24:06.000|10=163|
8=FIX.4.4|9=59|35=0|34=2|49=010|50=010BWN|52=20190529-00:24:08.082|56=EXC|10=107|
8=FIX.4.4|9=0049|35=0|34=3|49=EXC|56=010|52=20190529-00:24:36.000|10=167|
8=FIX.4.4|9=59|35=0|34=3|49=010|50=010BWN|52=20190529-00:24:38.082|56=EXC|10=111|
8=FIX.4.4|9=0049|35=0|34=4|49=EXC|56=010|52=20190529-00:25:06.000|10=166|
8=FIX.4.4|9=59|35=0|34=4|49=010|50=010BWN|52=20190529-00:25:08.082|56=EXC|10=110|
8=FIX.4.4|9=110|35=A|34=1|49=010|50=010BWN|52=20190529-00:25:31.794|56=EXC|43=Y|98=0|108=30|141=Y|553=010FCE003|554=010FCE003|10=133|
8=FIX.4.4|9=0067|35=A|34=1|49=EXC|56=010|52=20190529-00:25:31.228|98=0|108=30|141=Y|10=004|
8=FIX.4.4|9=110|35=A|34=1|49=010|50=010BWN|52=20190529-00:31:10.155|56=EXC|43=Y|98=0|108=30|141=Y|553=010FCE003|554=010FCE003|10=118|
8=FIX.4.4|9=0067|35=A|34=1|49=EXC|56=010|52=20190529-00:31:09.590|98=0|108=30|141=Y|10=008|
8=FIX.4.4|9=110|35=A|34=1|49=010|50=010BWN|52=20190529-00:34:01.796|56=EXC|43=Y|98=0|108=30|141=Y|553=010FCE003|554=010FCE003|10=132|
8=FIX.4.4|9=0067|35=A|34=1|49=EXC|56=010|52=20190529-00:34:01.226|98=0|108=30|141=Y|10=255|
8=FIX.4.4|9=0049|35=0|34=2|49=EXC|56=010|52=20190529-00:34:31.000|10=162|
8=FIX.4.4|9=59|35=0|34=2|49=010|50=010BWN|52=20190529-00:34:32.752|56=EXC|10=109|
8=FIX.4.4|9=0049|35=0|34=3|49=EXC|56=010|52=20190529-00:35:01.000|10=161|
8=FIX.4.4|9=59|35=0|34=3|49=010|50=010BWN|52=20190529-00:35:02.752|56=EXC|10=108|
8=FIX.4.4|9=110|35=A|34=1|49=010|50=010BWN|52=20190529-00:35:21.183|56=EXC|43=Y|98=0|108=30|141=Y|553=010FCE003|554=010FCE003|10=125|
8=FIX.4.4|9=0067|35=A|34=1|49=EXC|56=010|52=20190529-00:35:20.612|98=0|108=30|141=Y|10=000|
8=FIX.4.4|9=110|35=A|34=1|49=010|50=010BWN|52=20190529-00:35:58.936|56=EXC|43=Y|98=0|108=30|141=Y|553=010FCE003|554=010FCE003|10=141|
8=FIX.4.4|9=0067|35=A|34=1|49=EXC|56=010|52=20190529-00:35:58.363|98=0|108=30|141=Y|10=014|
8=FIX.4.4|9=0049|35=0|34=2|49=EXC|56=010|52=20190529-00:36:28.000|10=170|
8=FIX.4.4|9=59|35=0|34=2|49=010|50=010BWN|52=20190529-00:36:29.925|56=EXC|10=119|
8=FIX.4.4|9=110|35=A|34=1|49=010|50=010BWN|52=20190529-00:37:56.508|56=EXC|43=Y|98=0|108=30|141=Y|553=010FCE003|554=010FCE003|10=136|
8=FIX.4.4|9=0067|35=A|34=1|49=EXC|56=010|52=20190529-00:37:55.932|98=0|108=30|141=Y|10=015|
8=FIX.4.4|9=0049|35=0|34=2|49=EXC|56=010|52=20190529-00:38:25.000|10=169|
8=FIX.4.4|9=59|35=0|34=2|49=010|50=010BWN|52=20190529-00:38:27.496|56=EXC|10=122|
8=FIX.4.4|9=0049|35=0|34=3|49=EXC|56=010|52=20190529-00:38:55.000|10=173|
8=FIX.4.4|9=59|35=0|34=3|49=010|50=010BWN|52=20190529-00:38:57.496|56=EXC|10=126|
8=FIX.4.4|9=0049|35=0|34=4|49=EXC|56=010|52=20190529-00:39:25.000|10=172|
8=FIX.4.4|9=59|35=0|34=4|49=010|50=010BWN|52=20190529-00:39:27.497|56=EXC|10=126|
8=FIX.4.4|9=110|35=A|34=1|49=010|50=010BWN|52=20190529-00:39:46.046|56=EXC|43=Y|98=0|108=30|141=Y|553=010FCE003|554=010FCE003|10=134|
8=FIX.4.4|9=0067|35=A|34=1|49=EXC|56=010|52=20190529-00:39:45.470|98=0|108=30|141=Y|10=013|
8=FIX.4.4|9=0049|35=0|34=2|49=EXC|56=010|52=20190529-00:40:15.000|10=161|
8=FIX.4.4|9=59|35=0|34=2|49=010|50=010BWN|52=20190529-00:40:16.039|56=EXC|10=106|
8=FIX.4.4|9=110|35=A|34=1|49=010|50=010BWN|52=20190529-00:47:49.081|56=EXC|43=Y|98=0|108=30|141=Y|553=010FCE003|554=010FCE003|10=135|
8=FIX.4.4|9=0067|35=A|34=1|49=EXC|56=010|52=20190529-00:47:48.497|98=0|108=30|141=Y|10=024|
8=FIX.4.4|9=0049|35=0|34=2|49=EXC|56=010|52=20190529-00:48:18.000|10=172|
8=FIX.4.4|9=59|35=0|34=2|49=010|50=010BWN|52=20190529-00:48:20.071|56=EXC|10=105|
8=FIX.4.4|9=0049|35=0|34=3|49=EXC|56=010|52=20190529-00:48:48.000|10=176|
8=FIX.4.4|9=59|35=0|34=3|49=010|50=010BWN|52=20190529-00:48:50.071|56=EXC|10=109|
8=FIX.4.4|9=0049|35=0|34=4|49=EXC|56=010|52=20190529-00:49:18.000|10=175|
8=FIX.4.4|9=59|35=0|34=4|49=010|50=010BWN|52=20190529-00:49:20.071|56=EXC|10=108|
8=FIX.4.4|9=0049|35=0|34=5|49=EXC|56=010|52=20190529-00:49:48.000|10=179|
8=FIX.4.4|9=59|35=0|34=5|49=010|50=010BWN|52=20190529-00:49:50.071|56=EXC|10=112|
8=FIX.4.4|9=110|35=A|34=1|49=010|50=010BWN|52=20190529-00:56:22.239|56=EXC|43=Y|98=0|108=30|141=Y|553=010FCE003|554=010FCE003|10=131|
8=FIX.4.4|9=0067|35=A|34=1|49=EXC|56=010|52=20190529-00:56:21.905|98=0|108=30|141=Y|10=009|
8=FIX.4.4|9=110|35=A|34=1|49=010|50=010BWN|52=20190529-01:03:31.771|56=EXC|43=Y|98=0|108=30|141=Y|553=010FCE003|554=010FCE003|10=125|
8=FIX.4.4|9=0067|35=A|34=1|49=EXC|56=010|52=20190529-01:03:31.434|98=0|108=30|141=Y|10=000|
8=FIX.4.4|9=110|35=A|34=1|49=010|50=010BWN|52=20190529-01:11:49.752|56=EXC|43=Y|98=0|108=30|141=Y|553=010FCE003|554=010FCE003|10=132|
8=FIX.4.4|9=0067|35=A|34=1|49=EXC|56=010|52=20190529-01:11:49.441|98=0|108=30|141=Y|10=006|
8=FIX.4.4|9=0049|35=0|34=2|49=EXC|56=010|52=20190529-01:12:19.000|10=165|
8=FIX.4.4|9=59|35=0|34=2|49=010|50=010BWN|52=20190529-01:12:19.747|56=EXC|10=115|
8=FIX.4.4|9=0049|35=0|34=3|49=EXC|56=010|52=20190529-01:12:49.000|10=169|
8=FIX.4.4|9=59|35=0|34=3|49=010|50=010BWN|52=20190529-01:12:49.750|56=EXC|10=113|
8=FIX.4.4|9=0049|35=0|34=4|49=EXC|56=010|52=20190529-01:13:19.000|10=168|
8=FIX.4.4|9=59|35=0|34=4|49=010|50=010BWN|52=20190529-01:13:19.749|56=EXC|10=120|
8=FIX.4.4|9=110|35=A|34=1|49=010|50=010BWN|52=20190529-01:25:40.599|56=EXC|43=Y|98=0|108=30|141=Y|553=010FCE003|554=010FCE003|10=137|
8=FIX.4.4|9=0067|35=A|34=1|49=EXC|56=010|52=20190529-01:25:40.265|98=0|108=30|141=Y|10=006|
8=FIX.4.4|9=0049|35=0|34=2|49=EXC|56=010|52=20190529-01:26:10.000|10=161|
8=FIX.4.4|9=59|35=0|34=2|49=010|50=010BWN|52=20190529-01:26:10.604|56=EXC|10=103|
8=FIX.4.4|9=110|35=A|34=1|49=010|50=010BWN|52=20190529-01:30:09.965|56=EXC|43=Y|98=0|108=30|141=Y|553=010FCE003|554=010FCE003|10=135|
8=FIX.4.4|9=0067|35=A|34=1|49=EXC|56=010|52=20190529-01:30:09.649|98=0|108=30|141=Y|10=013|
8=FIX.4.4|9=0049|35=0|34=2|49=EXC|56=010|52=20190529-01:30:39.000|10=167|
8=FIX.4.4|9=59|35=0|34=2|49=010|50=010BWN|52=20190529-01:30:39.961|56=EXC|10=115|
8=FIX.4.4|9=110|35=A|34=1|49=010|50=010BWN|52=20190529-12:21:50.097|56=EXC|43=Y|98=0|108=30|141=Y|553=010FCE003|554=010FCE003|10=129|
8=FIX.4.4|9=0067|35=A|34=1|49=EXC|56=010|52=20190529-12:21:50.642|98=0|108=30|141=Y|10=004|
8=FIX.4.4|9=110|35=A|34=1|49=010|50=010BWN|52=20190529-12:27:22.315|56=EXC|43=Y|98=0|108=30|141=Y|553=010FCE003|554=010FCE003|10=127|
8=FIX.4.4|9=0067|35=A|34=1|49=EXC|56=010|52=20190529-12:27:22.388|98=0|108=30|141=Y|10=016|
8=FIX.4.4|9=110|35=A|34=1|49=010|50=010BWN|52=20190529-12:31:25.054|56=EXC|43=Y|98=0|108=30|141=Y|553=010FCE003|554=010FCE003|10=125|
8=FIX.4.4|9=0067|35=A|34=1|49=EXC|56=010|52=20190529-12:31:25.104|98=0|108=30|141=Y|10=000|
8=FIX.4.4|9=110|35=A|34=1|49=010|50=010BWN|52=20190529-12:48:24.811|56=EXC|43=Y|98=0|108=30|141=Y|553=010FCE003|554=010FCE003|10=133|
8=FIX.4.4|9=0067|35=A|34=1|49=EXC|56=010|52=20190529-12:48:24.861|98=0|108=30|141=Y|10=017|
8=FIX.4.4|9=110|35=A|34=1|49=010|50=010BWN|52=20190529-12:50:53.481|56=EXC|43=Y|98=0|108=30|141=Y|553=010FCE003|554=010FCE003|10=131|
8=FIX.4.4|9=0067|35=A|34=1|49=EXC|56=010|52=20190529-12:50:53.531|98=0|108=30|141=Y|10=006|
8=FIX.4.4|9=110|35=A|34=1|49=010|50=010BWN|52=20190529-12:55:50.922|56=EXC|43=Y|98=0|108=30|141=Y|553=010FCE003|554=010FCE003|10=133|
8=FIX.4.4|9=0067|35=A|34=1|49=EXC|56=010|52=20190529-12:55:50.978|98=0|108=30|141=Y|10=023|
8=FIX.4.4|9=110|35=A|34=1|49=010|50=010BWN|52=20190529-12:57:08.554|56=EXC|43=Y|98=0|108=30|141=Y|553=010FCE003|554=010FCE003|10=139|
8=FIX.4.4|9=0067|35=A|34=1|49=EXC|56=010|52=20190529-12:57:08.603|98=0|108=30|141=Y|10=013|
8=FIX.4.4|9=110|35=A|34=1|49=010|50=010BWN|52=20190529-13:10:55.547|56=EXC|43=Y|98=0|108=30|141=Y|553=010FCE003|554=010FCE003|10=133|
8=FIX.4.4|9=0067|35=A|34=1|49=EXC|56=010|52=20190529-13:10:55.601|98=0|108=30|141=Y|10=003|
8=FIX.4.4|9=110|35=A|34=1|49=010|50=010BWN|52=20190529-13:47:13.232|56=EXC|43=Y|98=0|108=30|141=Y|553=010FCE003|554=010FCE003|10=128|
8=FIX.4.4|9=0067|35=A|34=1|49=EXC|56=010|52=20190529-13:47:12.972|98=0|108=30|141=Y|10=017|
8=FIX.4.4|9=110|35=A|34=1|49=010|50=010BWN|52=20190529-13:51:04.796|56=EXC|43=Y|98=0|108=30|141=Y|553=010FCE003|554=010FCE003|10=138|
8=FIX.4.4|9=0067|35=A|34=1|49=EXC|56=010|52=20190529-13:51:04.522|98=0|108=30|141=Y|10=004|
8=FIX.4.4|9=110|35=A|34=1|49=010|50=010BWN|52=20190529-13:58:02.496|56=EXC|43=Y|98=0|108=30|141=Y|553=010FCE003|554=010FCE003|10=140|
8=FIX.4.4|9=0067|35=A|34=1|49=EXC|56=010|52=20190529-13:58:02.215|98=0|108=30|141=Y|10=008|
8=FIX.4.4|9=0049|35=0|34=2|49=EXC|56=010|52=20190529-13:58:32.000|10=173|
8=FIX.4.4|9=59|35=0|34=2|49=010|50=010BWN|52=20190529-13:58:33.485|56=EXC|10=123|
8=FIX.4.4|9=0049|35=0|34=3|49=EXC|56=010|52=20190529-13:59:02.000|10=172|
8=FIX.4.4|9=59|35=0|34=3|49=010|50=010BWN|52=20190529-13:59:03.483|56=EXC|10=120|
8=FIX.4.4|9=110|35=A|34=1|49=010|50=010BWN|52=20190529-13:59:42.704|56=EXC|43=Y|98=0|108=30|141=Y|553=010FCE003|554=010FCE003|10=137|
8=FIX.4.4|9=0067|35=A|34=1|49=EXC|56=010|52=20190529-13:59:42.414|98=0|108=30|141=Y|10=014|
8=FIX.4.4|9=0049|35=0|34=2|49=EXC|56=010|52=20190529-14:00:12.000|10=159|
8=FIX.4.4|9=59|35=0|34=2|49=010|50=010BWN|52=20190529-14:00:13.620|56=EXC|10=100|
8=FIX.4.4|9=0049|35=0|34=3|49=EXC|56=010|52=20190529-14:00:42.000|10=163|
8=FIX.4.4|9=59|35=0|34=3|49=010|50=010BWN|52=20190529-14:00:43.629|56=EXC|10=113|
8=FIX.4.4|9=0049|35=0|34=4|49=EXC|56=010|52=20190529-14:01:12.000|10=162|
8=FIX.4.4|9=59|35=0|34=4|49=010|50=010BWN|52=20190529-14:01:13.627|56=EXC|10=110|
8=FIX.4.4|9=0049|35=0|34=5|49=EXC|56=010|52=20190529-14:01:42.000|10=166|
8=FIX.4.4|9=59|35=0|34=5|49=010|50=010BWN|52=20190529-14:01:43.619|56=EXC|10=115|
8=FIX.4.4|9=0049|35=0|34=6|49=EXC|56=010|52=20190529-14:02:12.000|10=165|
8=FIX.4.4|9=59|35=0|34=6|49=010|50=010BWN|52=20190529-14:02:13.619|56=EXC|10=114|
8=FIX.4.4|9=0049|35=0|34=7|49=EXC|56=010|52=20190529-14:02:42.000|10=169|
8=FIX.4.4|9=59|35=0|34=7|49=010|50=010BWN|52=20190529-14:02:43.620|56=EXC|10=110|
8=FIX.4.4|9=0049|35=0|34=8|49=EXC|56=010|52=20190529-14:03:12.000|10=168|
8=FIX.4.4|9=59|35=0|34=8|49=010|50=010BWN|52=20190529-14:03:13.622|56=EXC|10=111|
8=FIX.4.4|9=110|35=A|34=1|49=010|50=010BWN|52=20190529-14:04:08.545|56=EXC|43=Y|98=0|108=30|141=Y|553=010FCE003|554=010FCE003|10=133|
8=FIX.4.4|9=0067|35=A|34=1|49=EXC|56=010|52=20190529-14:04:08.265|98=0|108=30|141=Y|10=011|
8=FIX.4.4|9=0049|35=0|34=2|49=EXC|56=010|52=20190529-14:04:38.000|10=171|
8=FIX.4.4|9=59|35=0|34=2|49=010|50=010BWN|52=20190529-14:04:38.552|56=EXC|10=115|
8=FIX.4.4|9=110|35=A|34=1|49=010|50=010BWN|52=20190529-14:20:38.709|56=EXC|43=Y|98=0|108=30|141=Y|553=010FCE003|554=010FCE003|10=136|
8=FIX.4.4|9=0067|35=A|34=1|49=EXC|56=010|52=20190529-14:20:38.741|98=0|108=30|141=Y|10=011|
8=FIX.4.4|9=110|35=A|34=1|49=010|50=010BWN|52=20190529-14:25:56.790|56=EXC|43=Y|98=0|108=30|141=Y|553=010FCE003|554=010FCE003|10=141|
8=FIX.4.4|9=0067|35=A|34=1|49=EXC|56=010|52=20190529-14:25:56.800|98=0|108=30|141=Y|10=012|
8=FIX.4.4|9=110|35=A|34=1|49=010|50=010BWN|52=20190529-14:27:38.082|56=EXC|43=Y|98=0|108=30|141=Y|553=010FCE003|554=010FCE003|10=137|
8=FIX.4.4|9=0067|35=A|34=1|49=EXC|56=010|52=20190529-14:27:38.093|98=0|108=30|141=Y|10=018|
8=FIX.4.4|9=110|35=A|34=1|49=010|50=010BWN|52=20190529-19:08:47.320|56=EXC|43=Y|98=0|108=30|141=Y|553=010FCE003|554=010FCE003|10=136|
8=FIX.4.4|9=0067|35=A|34=1|49=EXC|56=010|52=20190529-19:08:47.294|98=0|108=30|141=Y|10=025|
