8=FIX.4.4|9=105|35=A|34=1|49=001|50=001B27|52=20190612-16:29:19.790|56=EXC|98=0|108=30|141=Y|553=001FCM001|554=001FCM001|10=097|
8=FIX.4.4|9=0067|35=A|34=1|49=EXC|56=001|52=20190612-16:29:19.838|98=0|108=30|141=Y|10=021|
8=FIX.4.4|9=185|35=R|34=2|49=001|50=001B27|52=20190612-16:29:27.254|56=EXC|131=20190612112917_R|146=1|55=TFIC13280425|22=M|762=RFQF|54=1|38=500000000|453=2|448=002B35|447=C|452=37|448=DCV|447=C|452=10|10=022|
8=FIX.4.4|9=0267|35=AI|34=2|49=EXC|56=001|57=001B27|52=20190612-16:29:27.241|131=20190612112917_R|453=5|448=DCV|447=C|452=10|448=001B27|447=C|452=12|448=001|447=C|452=1|448=001FCM001|447=C|452=36|448=002B35|447=C|452=37|55=TFIC13280425|762=RFQF|48=20626|22=M|54=1|38=500000000|297=10|10=173|
8=FIX.4.4|9=0315|35=S|34=3|49=EXC|56=001|57=001B27|52=20190612-16:29:38.157|131=20190612112917_R|117=20190612-000000000048.00|55=TFIC13280425|762=RFQF|48=20626|22=M|453=5|448=DCV|447=C|452=10|448=001B27|447=C|452=12|448=001|447=C|452=1|448=001FCM001|447=C|452=36|448=002B35|447=C|452=37|634=4.000|135=500000000|62=20190617-22:00:00|10=211|
8=FIX.4.4|9=147|35=AJ|34=3|49=001|50=001B27|52=20190612-16:29:48.744|56=EXC|54=1|55=TFIC13280425|117=20190612-000000000048.00|693=20190612112917_AJ|694=1|762=RFQF|10=043|
8=FIX.4.4|9=0515|35=8|34=4|49=EXC|56=001|57=001B27|52=20190612-16:29:48.732|11=20190612112917_AJ|17=9|37=0|150=F|1080=20190612-000000000048.00|1081=5|453=6|448=001B27|447=C|452=12|448=001|447=C|452=1|448=002B35|447=C|452=37|448=002|447=C|452=17|448=001FCM001|447=C|452=36|448=DCV|447=C|452=10|55=TFIC13280425|762=RFQF|48=20626|22=M|6=79.414|14=500000000|31=79.414|32=500000000|38=500000000|39=2|20102=79.414|54=1|60=20190612-16:29:48.732|75=20190612|63=1|64=20190612|151=0|1623=4.000|381=397072500.000|880=201906120000000066|828=99|10=116|
8=FIX.4.4|9=0049|35=0|34=5|49=EXC|56=001|52=20190612-16:30:18.000|10=166|
8=FIX.4.4|9=59|35=0|34=4|49=001|50=001B27|52=20190612-16:30:19.714|56=EXC|10=050|
8=FIX.4.4|9=105|35=A|34=1|49=001|50=001B27|52=20190612-16:44:39.832|56=EXC|98=0|108=30|141=Y|553=001FCM001|554=001FCM001|10=093|
8=FIX.4.4|9=0067|35=A|34=1|49=EXC|56=001|52=20190612-16:44:39.874|98=0|108=30|141=Y|10=020|
8=FIX.4.4|9=185|35=R|34=2|49=001|50=001B27|52=20190612-16:44:47.301|56=EXC|131=20190612114437_R|146=1|55=TFIC13280425|22=M|762=RFQF|54=1|38=500000000|453=2|448=002B35|447=C|452=37|448=DCV|447=C|452=10|10=013|
8=FIX.4.4|9=0267|35=AI|34=2|49=EXC|56=001|57=001B27|52=20190612-16:44:47.294|131=20190612114437_R|453=5|448=DCV|447=C|452=10|448=001B27|447=C|452=12|448=001|447=C|452=1|448=001FCM001|447=C|452=36|448=002B35|447=C|452=37|55=TFIC13280425|762=RFQF|48=20626|22=M|54=1|38=500000000|297=10|10=179|
8=FIX.4.4|9=0315|35=S|34=3|49=EXC|56=001|57=001B27|52=20190612-16:45:02.981|131=20190612114437_R|117=20190612-000000000055.00|55=TFIC13280425|762=RFQF|48=20626|22=M|453=5|448=DCV|447=C|452=10|448=001B27|447=C|452=12|448=001|447=C|452=1|448=001FCM001|447=C|452=36|448=002B35|447=C|452=37|634=4.000|135=500000000|62=20190617-22:00:00|10=202|
8=FIX.4.4|9=147|35=AJ|34=3|49=001|50=001B27|52=20190612-16:45:13.652|56=EXC|54=1|55=TFIC13280425|117=20190612-000000000055.00|693=20190612114437_AJ|694=1|762=RFQF|10=028|
8=FIX.4.4|9=0516|35=8|34=4|49=EXC|56=001|57=001B27|52=20190612-16:45:13.645|11=20190612114437_AJ|17=10|37=0|150=F|1080=20190612-000000000055.00|1081=5|453=6|448=001B27|447=C|452=12|448=001|447=C|452=1|448=002B35|447=C|452=37|448=002|447=C|452=17|448=001FCM001|447=C|452=36|448=DCV|447=C|452=10|55=TFIC13280425|762=RFQF|48=20626|22=M|6=79.414|14=500000000|31=79.414|32=500000000|38=500000000|39=2|20102=79.414|54=1|60=20190612-16:45:13.645|75=20190612|63=1|64=20190612|151=0|1623=4.000|381=397072500.000|880=201906120000000070|828=99|10=135|
8=FIX.4.4|9=105|35=A|34=1|49=001|50=001B27|52=20190612-16:55:03.219|56=EXC|98=0|108=30|141=Y|553=001FCM001|554=001FCM001|10=085|
8=FIX.4.4|9=0067|35=A|34=1|49=EXC|56=001|52=20190612-16:55:03.278|98=0|108=30|141=Y|10=011|
8=FIX.4.4|9=185|35=R|34=2|49=001|50=001B27|52=20190612-16:55:10.605|56=EXC|131=20190612115500_R|146=1|55=TFIC13280425|22=M|762=RFQF|54=1|38=500000000|453=2|448=002B35|447=C|452=37|448=DCV|447=C|452=10|10=004|
8=FIX.4.4|9=0267|35=AI|34=2|49=EXC|56=001|57=001B27|52=20190612-16:55:10.599|131=20190612115500_R|453=5|448=DCV|447=C|452=10|448=001B27|447=C|452=12|448=001|447=C|452=1|448=001FCM001|447=C|452=36|448=002B35|447=C|452=37|55=TFIC13280425|762=RFQF|48=20626|22=M|54=1|38=500000000|297=10|10=171|
8=FIX.4.4|9=105|35=A|34=1|49=001|50=001B27|52=20190612-16:56:24.034|56=EXC|98=0|108=30|141=Y|553=001FCM001|554=001FCM001|10=084|
8=FIX.4.4|9=0067|35=A|34=1|49=EXC|56=001|52=20190612-16:56:24.084|98=0|108=30|141=Y|10=010|
8=FIX.4.4|9=185|35=R|34=2|49=001|50=001B27|52=20190612-16:56:31.383|56=EXC|131=20190612115621_R|146=1|55=TFIC13280425|22=M|762=RFQF|54=1|38=500000000|453=2|448=002B35|447=C|452=37|448=DCV|447=C|452=10|10=015|
8=FIX.4.4|9=0267|35=AI|34=2|49=EXC|56=001|57=001B27|52=20190612-16:56:31.378|131=20190612115621_R|453=5|448=DCV|447=C|452=10|448=001B27|447=C|452=12|448=001|447=C|452=1|448=001FCM001|447=C|452=36|448=002B35|447=C|452=37|55=TFIC13280425|762=RFQF|48=20626|22=M|54=1|38=500000000|297=10|10=174|
8=FIX.4.4|9=0315|35=S|34=3|49=EXC|56=001|57=001B27|52=20190612-16:56:47.160|131=20190612115621_R|117=20190612-000000000057.00|55=TFIC13280425|762=RFQF|48=20626|22=M|453=5|448=DCV|447=C|452=10|448=001B27|447=C|452=12|448=001|447=C|452=1|448=001FCM001|447=C|452=36|448=002B35|447=C|452=37|634=4.000|135=500000000|62=20190617-22:00:00|10=200|
8=FIX.4.4|9=59|35=0|34=3|49=001|50=001B27|52=20190612-16:57:01.963|56=EXC|10=055|
8=FIX.4.4|9=147|35=AJ|34=4|49=001|50=001B27|52=20190612-16:57:02.584|56=EXC|54=1|55=TFIC13280425|117=20190612-000000000057.00|693=20190612115621_AJ|694=1|762=RFQF|10=032|
8=FIX.4.4|9=0516|35=8|34=4|49=EXC|56=001|57=001B27|52=20190612-16:57:02.577|11=20190612115621_AJ|17=11|37=0|150=F|1080=20190612-000000000057.00|1081=5|453=6|448=001B27|447=C|452=12|448=001|447=C|452=1|448=002B35|447=C|452=37|448=002|447=C|452=17|448=001FCM001|447=C|452=36|448=DCV|447=C|452=10|55=TFIC13280425|762=RFQF|48=20626|22=M|6=79.414|14=500000000|31=79.414|32=500000000|38=500000000|39=2|20102=79.414|54=1|60=20190612-16:57:02.577|75=20190612|63=1|64=20190612|151=0|1623=4.000|381=397072500.000|880=201906120000000079|828=99|10=153|
8=FIX.4.4|9=105|35=A|34=1|49=001|50=001B27|52=20190612-19:36:17.008|56=EXC|98=0|108=30|141=Y|553=001FCM001|554=001FCM001|10=088|
8=FIX.4.4|9=0067|35=A|34=1|49=EXC|56=001|52=20190612-19:36:17.070|98=0|108=30|141=Y|10=008|
8=FIX.4.4|9=186|35=R|34=2|49=001|50=001B27|52=20190612-19:36:24.352|56=EXC|131=20190612143614_R|146=1|55=TFIT16280428|22=M|762=RFQF|54=1|38=1000000000|453=2|448=002B35|447=C|452=37|448=DCV|447=C|452=10|10=085|
8=FIX.4.4|9=0268|35=AI|34=2|49=EXC|56=001|57=001B27|52=20190612-19:36:24.383|131=20190612143614_R|453=5|448=DCV|447=C|452=10|448=001B27|447=C|452=12|448=001|447=C|452=1|448=001FCM001|447=C|452=36|448=002B35|447=C|452=37|55=TFIT16280428|762=RFQF|48=20399|22=M|54=1|38=1000000000|297=10|10=251|
8=FIX.4.4|9=0316|35=S|34=3|49=EXC|56=001|57=001B27|52=20190612-19:36:40.031|131=20190612143614_R|117=20190612-000000000067.00|55=TFIT16280428|762=RFQF|48=20399|22=M|453=5|448=DCV|447=C|452=10|448=001B27|447=C|452=12|448=001|447=C|452=1|448=001FCM001|447=C|452=36|448=002B35|447=C|452=37|634=3.000|135=1000000000|62=20190617-22:00:00|10=013|
8=FIX.4.4|9=59|35=0|34=3|49=001|50=001B27|52=20190612-19:36:54.967|56=EXC|10=067|
8=FIX.4.4|9=0094|35=Z|34=4|49=EXC|56=001|57=001B27|52=20190612-19:36:55.500|117=20190612-000000000067.00|298=5|10=078|
8=FIX.4.4|9=105|35=A|34=1|49=001|50=001B27|52=20190612-19:56:51.674|56=EXC|98=0|108=30|141=Y|553=001FCM001|554=001FCM001|10=097|
8=FIX.4.4|9=0067|35=A|34=1|49=EXC|56=001|52=20190612-19:56:51.718|98=0|108=30|141=Y|10=017|
8=FIX.4.4|9=186|35=R|34=2|49=001|50=001B27|52=20190612-19:56:59.035|56=EXC|131=201906121456491_R|146=1|55=TFIC13280425|22=M|762=RFQF|54=1|38=500000000|453=2|448=002B35|447=C|452=37|448=DCV|447=C|452=10|10=085|
8=FIX.4.4|9=0268|35=AI|34=2|49=EXC|56=001|57=001B27|52=20190612-19:56:59.046|131=201906121456491_R|453=5|448=DCV|447=C|452=10|448=001B27|447=C|452=12|448=001|447=C|452=1|448=001FCM001|447=C|452=36|448=002B35|447=C|452=37|55=TFIC13280425|762=RFQF|48=20626|22=M|54=1|38=500000000|297=10|10=242|
8=FIX.4.4|9=0316|35=S|34=3|49=EXC|56=001|57=001B27|52=20190612-19:57:14.698|131=201906121456491_R|117=20190612-000000000068.00|55=TFIC13280425|762=RFQF|48=20626|22=M|453=5|448=DCV|447=C|452=10|448=001B27|447=C|452=12|448=001|447=C|452=1|448=001FCM001|447=C|452=36|448=002B35|447=C|452=37|634=4.000|135=500000000|62=20190617-22:00:00|10=023|
8=FIX.4.4|9=59|35=0|34=3|49=001|50=001B27|52=20190612-19:57:29.648|56=EXC|10=068|
8=FIX.4.4|9=148|35=AJ|34=4|49=001|50=001B27|52=20190612-19:57:30.031|56=EXC|54=1|55=TFIC13280425|117=20190612-000000000068.00|693=201906121456491_AJ|694=1|762=RFQF|10=088|
8=FIX.4.4|9=0517|35=8|34=4|49=EXC|56=001|57=001B27|52=20190612-19:57:30.042|11=201906121456491_AJ|17=12|37=0|150=F|1080=20190612-000000000068.00|1081=5|453=6|448=001B27|447=C|452=12|448=001|447=C|452=1|448=002B35|447=C|452=37|448=002|447=C|452=17|448=001FCM001|447=C|452=36|448=DCV|447=C|452=10|55=TFIC13280425|762=RFQF|48=20626|22=M|6=79.414|14=500000000|31=79.414|32=500000000|38=500000000|39=2|20102=79.414|54=1|60=20190612-19:57:30.042|75=20190612|63=1|64=20190612|151=0|1623=4.000|381=397072500.000|880=201906120000000093|828=99|10=197|
8=FIX.4.4|9=105|35=A|34=1|49=001|50=001B27|52=20190612-19:58:08.984|56=EXC|98=0|108=30|141=Y|553=001FCM001|554=001FCM001|10=105|
8=FIX.4.4|9=0067|35=A|34=1|49=EXC|56=001|52=20190612-19:58:09.027|98=0|108=30|141=Y|10=015|
8=FIX.4.4|9=187|35=R|34=2|49=001|50=001B27|52=20190612-19:58:16.276|56=EXC|131=201906121458062_R|146=1|55=TFIT16280428|22=M|762=RFQF|54=1|38=1000000000|453=2|448=002B35|447=C|452=37|448=DCV|447=C|452=10|10=151|
8=FIX.4.4|9=0269|35=AI|34=2|49=EXC|56=001|57=001B27|52=20190612-19:58:16.287|131=201906121458062_R|453=5|448=DCV|447=C|452=10|448=001B27|447=C|452=12|448=001|447=C|452=1|448=001FCM001|447=C|452=36|448=002B35|447=C|452=37|55=TFIT16280428|762=RFQF|48=20399|22=M|54=1|38=1000000000|297=10|10=059|
8=FIX.4.4|9=0317|35=S|34=3|49=EXC|56=001|57=001B27|52=20190612-19:58:31.938|131=201906121458062_R|117=20190612-000000000069.00|55=TFIT16280428|762=RFQF|48=20399|22=M|453=5|448=DCV|447=C|452=10|448=001B27|447=C|452=12|448=001|447=C|452=1|448=001FCM001|447=C|452=36|448=002B35|447=C|452=37|634=3.000|135=1000000000|62=20190617-22:00:00|10=091|
8=FIX.4.4|9=59|35=0|34=3|49=001|50=001B27|52=20190612-19:58:46.944|56=EXC|10=067|
8=FIX.4.4|9=0049|35=0|34=4|49=EXC|56=001|52=20190612-19:59:01.000|10=171|
8=FIX.4.4|9=105|35=A|34=1|49=001|50=001B27|52=20190612-20:04:55.391|56=EXC|98=0|108=30|141=Y|553=001FCM001|554=001FCM001|10=082|
8=FIX.4.4|9=0067|35=A|34=1|49=EXC|56=001|52=20190612-20:04:55.455|98=0|108=30|141=Y|10=004|
8=FIX.4.4|9=187|35=R|34=2|49=001|50=001B27|52=20190612-20:05:02.764|56=EXC|131=201906121504532_R|146=1|55=TFIT16280428|22=M|762=RFQF|54=1|38=1000000000|453=2|448=002B35|447=C|452=37|448=DCV|447=C|452=10|10=126|
8=FIX.4.4|9=0269|35=AI|34=2|49=EXC|56=001|57=001B27|52=20190612-20:05:02.774|131=201906121504532_R|453=5|448=DCV|447=C|452=10|448=001B27|447=C|452=12|448=001|447=C|452=1|448=001FCM001|447=C|452=36|448=002B35|447=C|452=37|55=TFIT16280428|762=RFQF|48=20399|22=M|54=1|38=1000000000|297=10|10=033|
8=FIX.4.4|9=0317|35=S|34=3|49=EXC|56=001|57=001B27|52=20190612-20:05:18.647|131=201906121504532_R|117=20190612-000000000070.00|55=TFIT16280428|762=RFQF|48=20399|22=M|453=5|448=DCV|447=C|452=10|448=001B27|447=C|452=12|448=001|447=C|452=1|448=001FCM001|447=C|452=36|448=002B35|447=C|452=37|634=3.000|135=1000000000|62=20190617-22:00:00|10=063|
8=FIX.4.4|9=59|35=0|34=3|49=001|50=001B27|52=20190612-20:05:33.352|56=EXC|10=040|
8=FIX.4.4|9=0094|35=Z|34=4|49=EXC|56=001|57=001B27|52=20190612-20:05:34.065|117=20190612-000000000070.00|298=5|10=063|
8=FIX.4.4|9=186|35=R|34=4|49=001|50=001B27|52=20190612-20:05:49.441|56=EXC|131=201906121504533_R|146=1|55=TFIT16300632|22=M|762=RFQF|54=1|38=500000000|453=2|448=002B35|447=C|452=37|448=DCV|447=C|452=10|10=077|
8=FIX.4.4|9=0268|35=AI|34=5|49=EXC|56=001|57=001B27|52=20190612-20:05:49.453|131=201906121504533_R|453=5|448=DCV|447=C|452=10|448=001B27|447=C|452=12|448=001|447=C|452=1|448=001FCM001|447=C|452=36|448=002B35|447=C|452=37|55=TFIT16300632|762=RFQF|48=20406|22=M|54=1|38=500000000|297=10|10=232|
