8=FIX.4.4|9=105|35=A|34=1|49=001|50=001B27|52=20190613-23:20:40.018|56=EXC|98=0|108=30|141=Y|553=001FCM001|554=001FCM001|10=074|
8=FIX.4.4|9=0067|35=A|34=1|49=EXC|56=001|52=20190613-23:20:39.661|98=0|108=30|141=Y|10=007|
8=FIX.4.4|9=161|35=R|34=2|49=001|50=001B27|52=20190613-23:20:47.574|56=EXC|131=201906131820374_R|146=1|55=TFIT19PEDRO|22=M|762=RFQF|54=1|38=500000000|453=1|448=DCV|447=C|452=10|10=032|
8=FIX.4.4|9=0154|35=AG|34=2|49=EXC|56=001|57=001B27|52=20190613-23:20:47.161|131=201906131820374_R|658=1|146=1|55=TFIT19PEDRO|762=RFQF|22=M|58=(1479): Simbolo desconocido|10=237|
8=FIX.4.4|9=118|35=3|34=3|49=001|50=001B27|52=20190613-23:20:47.612|56=EXC|45=2|58=Required tag missing, field=38|371=38|372=AG|373=1|10=065|
8=FIX.4.4|9=105|35=A|34=1|49=001|50=001B27|52=20190613-23:32:29.792|56=EXC|98=0|108=30|141=Y|553=001FCM001|554=001FCM001|10=093|
8=FIX.4.4|9=0067|35=A|34=1|49=EXC|56=001|52=20190613-23:32:29.106|98=0|108=30|141=Y|10=003|
8=FIX.4.4|9=162|35=R|34=2|49=001|50=001B27|52=20190613-23:32:37.460|56=EXC|131=201906131832274_R|146=1|55=TFIT06211118|22=M|762=RFQF|54=1|38=500000000|453=1|448=DCV|447=C|452=10|10=207|
8=FIX.4.4|9=0155|35=AG|34=2|49=EXC|56=001|57=001B27|52=20190613-23:32:36.740|131=201906131832274_R|658=1|146=1|55=TFIT06211118|762=RFQF|22=M|58=(1479): Simbolo desconocido|10=164|
8=FIX.4.4|9=118|35=3|34=3|49=001|50=001B27|52=20190613-23:32:37.487|56=EXC|45=2|58=Required tag missing, field=38|371=38|372=AG|373=1|10=077|
8=FIX.4.4|9=0049|35=0|34=3|49=EXC|56=001|52=20190613-23:33:06.000|10=163|
8=FIX.4.4|9=59|35=0|34=4|49=001|50=001B27|52=20190613-23:33:07.743|56=EXC|10=051|
8=FIX.4.4|9=105|35=A|34=1|49=001|50=001B27|52=20190613-23:41:59.514|56=EXC|98=0|108=30|141=Y|553=001FCM001|554=001FCM001|10=088|
8=FIX.4.4|9=0067|35=A|34=1|49=EXC|56=001|52=20190613-23:41:58.850|98=0|108=30|141=Y|10=011|
8=FIX.4.4|9=162|35=R|34=2|49=001|50=001B27|52=20190613-23:42:07.071|56=EXC|131=201906131841574_R|146=1|55=TFIT06211118|22=M|762=RFQF|54=1|38=500000000|453=1|448=DCV|447=C|452=10|10=206|
8=FIX.4.4|9=0155|35=AG|34=2|49=EXC|56=001|57=001B27|52=20190613-23:42:06.379|131=201906131841574_R|658=1|146=1|55=TFIT06211118|762=RFQF|22=M|58=(1479): Simbolo desconocido|10=173|
8=FIX.4.4|9=118|35=3|34=3|49=001|50=001B27|52=20190613-23:42:07.187|56=EXC|45=2|58=Required tag missing, field=38|371=38|372=AG|373=1|10=072|
8=FIX.4.4|9=105|35=A|34=1|49=001|50=001B27|52=20190613-23:44:32.537|56=EXC|98=0|108=30|141=Y|553=001FCM001|554=001FCM001|10=087|
8=FIX.4.4|9=0067|35=A|34=1|49=EXC|56=001|52=20190613-23:44:31.884|98=0|108=30|141=Y|10=012|
8=FIX.4.4|9=162|35=R|34=2|49=001|50=001B27|52=20190613-23:44:40.036|56=EXC|131=201906131844304_R|146=1|55=TFIT06211118|22=M|762=RFQF|54=1|38=500000000|453=1|448=DCV|447=C|452=10|10=200|
8=FIX.4.4|9=0155|35=AG|34=2|49=EXC|56=001|57=001B27|52=20190613-23:44:39.335|131=201906131844304_R|658=1|146=1|55=TFIT06211118|762=RFQF|22=M|58=(1479): Simbolo desconocido|10=167|
8=FIX.4.4|9=0049|35=0|34=3|49=EXC|56=001|52=20190613-23:45:09.000|10=169|
8=FIX.4.4|9=59|35=0|34=3|49=001|50=001B27|52=20190613-23:45:10.497|56=EXC|10=053|
8=FIX.4.4|9=105|35=A|34=1|49=001|50=001B27|52=20190614-12:59:00.443|56=EXC|98=0|108=30|141=Y|553=001FCM001|554=001FCM001|10=083|
8=FIX.4.4|9=0067|35=A|34=1|49=EXC|56=001|52=20190614-12:59:00.875|98=0|108=30|141=Y|10=013|
8=FIX.4.4|9=161|35=R|34=2|49=001|50=001B27|52=20190614-12:59:08.105|56=EXC|131=20190614758574_R|146=1|55=TFIT06211118|22=M|762=RFQF|54=1|38=500000000|453=1|448=DCV|447=C|452=10|10=170|
8=FIX.4.4|9=0154|35=AG|34=2|49=EXC|56=001|57=001B27|52=20190614-12:59:08.469|131=20190614758574_R|658=1|146=1|55=TFIT06211118|762=RFQF|22=M|58=(1479): Simbolo desconocido|10=140|
8=FIX.4.4|9=105|35=A|34=1|49=001|50=001B27|52=20190614-13:07:53.933|56=EXC|98=0|108=30|141=Y|553=001FCM001|554=001FCM001|10=089|
8=FIX.4.4|9=0067|35=A|34=1|49=EXC|56=001|52=20190614-13:07:53.369|98=0|108=30|141=Y|10=013|
8=FIX.4.4|9=161|35=R|34=2|49=001|50=001B27|52=20190614-13:08:01.509|56=EXC|131=20190614807514_R|146=1|55=TFIT06211118|22=M|762=RFQF|54=1|38=500000000|453=1|448=DCV|447=C|452=10|10=155|
8=FIX.4.4|9=0154|35=AG|34=2|49=EXC|56=001|57=001B27|52=20190614-13:08:00.903|131=20190614807514_R|658=1|146=1|55=TFIT06211118|762=RFQF|22=M|58=(1479): Simbolo desconocido|10=109|
8=FIX.4.4|9=105|35=A|34=1|49=001|50=001B27|52=20190614-13:13:22.083|56=EXC|98=0|108=30|141=Y|553=001FCM001|554=001FCM001|10=078|
8=FIX.4.4|9=0067|35=A|34=1|49=EXC|56=001|52=20190614-13:13:22.076|98=0|108=30|141=Y|10=001|
8=FIX.4.4|9=161|35=R|34=2|49=001|50=001B27|52=20190614-13:13:29.555|56=EXC|131=20190614813194_R|146=1|55=TFIT06211118|22=M|762=RFQF|54=1|38=500000000|453=1|448=DCV|447=C|452=10|10=163|
8=FIX.4.4|9=0154|35=AG|34=2|49=EXC|56=001|57=001B27|52=20190614-13:13:29.535|131=20190614813194_R|658=1|146=1|55=TFIT06211118|762=RFQF|22=M|58=(1479): Simbolo desconocido|10=118|
8=FIX.4.4|9=105|35=A|34=1|49=001|50=001B27|52=20190614-13:15:42.982|56=EXC|98=0|108=30|141=Y|553=001FCM001|554=001FCM001|10=090|
8=FIX.4.4|9=0067|35=A|34=1|49=EXC|56=001|52=20190614-13:15:43.167|98=0|108=30|141=Y|10=007|
8=FIX.4.4|9=161|35=R|34=2|49=001|50=001B27|52=20190614-13:15:50.508|56=EXC|131=20190614815404_R|146=1|55=TFIT06211118|22=M|762=RFQF|54=1|38=500000000|453=1|448=DCV|447=C|452=10|10=153|
8=FIX.4.4|9=0154|35=AG|34=2|49=EXC|56=001|57=001B27|52=20190614-13:15:50.663|131=20190614815404_R|658=1|146=1|55=TFIT06211118|762=RFQF|22=M|58=(1479): Simbolo desconocido|10=112|
8=FIX.4.4|9=105|35=A|34=1|49=001|50=001B27|52=20190614-13:23:21.431|56=EXC|98=0|108=30|141=Y|553=001FCM001|554=001FCM001|10=075|
8=FIX.4.4|9=0067|35=A|34=1|49=EXC|56=001|52=20190614-13:23:21.744|98=0|108=30|141=Y|10=003|
8=FIX.4.4|9=161|35=R|34=2|49=001|50=001B27|52=20190614-13:23:28.978|56=EXC|131=20190614823194_R|146=1|55=TFIT06211118|22=M|762=RFQF|54=1|38=500000000|453=1|448=DCV|447=C|452=10|10=173|
8=FIX.4.4|9=0154|35=AG|34=2|49=EXC|56=001|57=001B27|52=20190614-13:23:29.246|131=20190614823194_R|658=1|146=1|55=TFIT06211118|762=RFQF|22=M|58=(1479): Simbolo desconocido|10=119|
8=FIX.4.4|9=105|35=A|34=1|49=001|50=001B27|52=20190614-13:24:35.019|56=EXC|98=0|108=30|141=Y|553=001FCM001|554=001FCM001|10=083|
8=FIX.4.4|9=0067|35=A|34=1|49=EXC|56=001|52=20190614-13:24:35.048|98=0|108=30|141=Y|10=006|
8=FIX.4.4|9=161|35=R|34=2|49=001|50=001B27|52=20190614-13:24:42.588|56=EXC|131=20190614824324_R|146=1|55=TFIT06211118|22=M|762=RFQF|54=1|38=500000000|453=1|448=DCV|447=C|452=10|10=163|
8=FIX.4.4|9=0154|35=AG|34=2|49=EXC|56=001|57=001B27|52=20190614-13:24:42.571|131=20190614824324_R|658=1|146=1|55=TFIT06211118|762=RFQF|22=M|58=(1479): Simbolo desconocido|10=112|
8=FIX.4.4|9=105|35=A|34=1|49=001|50=001B27|52=20190614-13:30:39.940|56=EXC|98=0|108=30|141=Y|553=001FCM001|554=001FCM001|10=087|
8=FIX.4.4|9=0067|35=A|34=1|49=EXC|56=001|52=20190614-13:30:40.046|98=0|108=30|141=Y|10=253|
8=FIX.4.4|9=161|35=R|34=2|49=001|50=001B27|52=20190614-13:30:47.404|56=EXC|131=20190614830374_R|146=1|55=TFIT06211118|22=M|762=RFQF|54=1|38=500000000|453=1|448=DCV|447=C|452=10|10=154|
8=FIX.4.4|9=0154|35=AG|34=2|49=EXC|56=001|57=001B27|52=20190614-13:30:47.482|131=20190614830374_R|658=1|146=1|55=TFIT06211118|762=RFQF|22=M|58=(1479): Simbolo desconocido|10=117|
8=FIX.4.4|9=0049|35=0|34=3|49=EXC|56=001|52=20190614-13:31:17.000|10=163|
8=FIX.4.4|9=59|35=0|34=3|49=001|50=001B27|52=20190614-13:31:17.886|56=EXC|10=057|
8=FIX.4.4|9=0049|35=0|34=4|49=EXC|56=001|52=20190614-13:31:47.000|10=167|
8=FIX.4.4|9=59|35=0|34=4|49=001|50=001B27|52=20190614-13:31:47.886|56=EXC|10=061|
8=FIX.4.4|9=105|35=A|34=1|49=001|50=001B27|52=20190614-13:39:25.817|56=EXC|98=0|108=30|141=Y|553=001FCM001|554=001FCM001|10=094|
8=FIX.4.4|9=0067|35=A|34=1|49=EXC|56=001|52=20190614-13:39:26.067|98=0|108=30|141=Y|10=013|
8=FIX.4.4|9=161|35=R|34=2|49=001|50=001B27|52=20190614-13:39:33.327|56=EXC|131=20190614839234_R|146=1|55=TFIT06211118|22=M|762=RFQF|54=1|38=500000000|453=1|448=DCV|447=C|452=10|10=166|
8=FIX.4.4|9=0154|35=AG|34=2|49=EXC|56=001|57=001B27|52=20190614-13:39:33.542|131=20190614839234_R|658=1|146=1|55=TFIT06211118|762=RFQF|22=M|58=(1479): Simbolo desconocido|10=122|
8=FIX.4.4|9=105|35=A|34=1|49=001|50=001B27|52=20190614-13:40:46.925|56=EXC|98=0|108=30|141=Y|553=001FCM001|554=001FCM001|10=089|
8=FIX.4.4|9=0067|35=A|34=1|49=EXC|56=001|52=20190614-13:40:47.192|98=0|108=30|141=Y|10=007|
8=FIX.4.4|9=161|35=R|34=2|49=001|50=001B27|52=20190614-13:40:54.387|56=EXC|131=20190614840444_R|146=1|55=TFIT06211118|22=M|762=RFQF|54=1|38=500000000|453=1|448=DCV|447=C|452=10|10=162|
8=FIX.4.4|9=0154|35=AG|34=2|49=EXC|56=001|57=001B27|52=20190614-13:40:54.626|131=20190614840444_R|658=1|146=1|55=TFIT06211118|762=RFQF|22=M|58=(1479): Simbolo desconocido|10=115|
8=FIX.4.4|9=105|35=A|34=1|49=001|50=001B27|52=20190614-13:50:36.278|56=EXC|98=0|108=30|141=Y|553=001FCM001|554=001FCM001|10=090|
8=FIX.4.4|9=0067|35=A|34=1|49=EXC|56=001|52=20190614-13:50:36.744|98=0|108=30|141=Y|10=009|
8=FIX.4.4|9=161|35=R|34=2|49=001|50=001B27|52=20190614-13:50:43.730|56=EXC|131=20190614850344_R|146=1|55=TFIT06211118|22=M|762=RFQF|54=1|38=500000000|453=1|448=DCV|447=C|452=10|10=153|
8=FIX.4.4|9=0154|35=AG|34=2|49=EXC|56=001|57=001B27|52=20190614-13:50:44.128|131=20190614850344_R|658=1|146=1|55=TFIT06211118|762=RFQF|22=M|58=(1479): Simbolo desconocido|10=112|
8=FIX.4.4|9=105|35=A|34=1|49=001|50=001B27|52=20190614-13:53:29.880|56=EXC|98=0|108=30|141=Y|553=001FCM001|554=001FCM001|10=094|
8=FIX.4.4|9=0067|35=A|34=1|49=EXC|56=001|52=20190614-13:53:30.355|98=0|108=30|141=Y|10=004|
8=FIX.4.4|9=161|35=R|34=2|49=001|50=001B27|52=20190614-13:53:37.360|56=EXC|131=20190614853274_R|146=1|55=TFIT06211118|22=M|762=RFQF|54=1|38=500000000|453=1|448=DCV|447=C|452=10|10=163|
8=FIX.4.4|9=0154|35=AG|34=2|49=EXC|56=001|57=001B27|52=20190614-13:53:37.803|131=20190614853274_R|658=1|146=1|55=TFIT06211118|762=RFQF|22=M|58=(1479): Simbolo desconocido|10=122|
8=FIX.4.4|9=0049|35=0|34=3|49=EXC|56=001|52=20190614-13:54:07.000|10=167|
8=FIX.4.4|9=59|35=0|34=3|49=001|50=001B27|52=20190614-13:54:07.838|56=EXC|10=058|
8=FIX.4.4|9=0049|35=0|34=4|49=EXC|56=001|52=20190614-13:54:37.000|10=171|
8=FIX.4.4|9=59|35=0|34=4|49=001|50=001B27|52=20190614-13:54:37.838|56=EXC|10=062|
8=FIX.4.4|9=0049|35=0|34=5|49=EXC|56=001|52=20190614-13:55:07.000|10=170|
8=FIX.4.4|9=59|35=0|34=5|49=001|50=001B27|52=20190614-13:55:07.840|56=EXC|10=054|
8=FIX.4.4|9=0049|35=0|34=6|49=EXC|56=001|52=20190614-13:55:37.000|10=174|
8=FIX.4.4|9=59|35=0|34=6|49=001|50=001B27|52=20190614-13:55:37.839|56=EXC|10=066|
8=FIX.4.4|9=0049|35=0|34=7|49=EXC|56=001|52=20190614-13:56:07.000|10=173|
8=FIX.4.4|9=59|35=0|34=7|49=001|50=001B27|52=20190614-13:56:07.840|56=EXC|10=057|
8=FIX.4.4|9=0049|35=0|34=8|49=EXC|56=001|52=20190614-13:56:37.000|10=177|
8=FIX.4.4|9=59|35=0|34=8|49=001|50=001B27|52=20190614-13:56:37.838|56=EXC|10=068|
8=FIX.4.4|9=0049|35=0|34=9|49=EXC|56=001|52=20190614-13:57:07.000|10=176|
8=FIX.4.4|9=59|35=0|34=9|49=001|50=001B27|52=20190614-13:57:07.838|56=EXC|10=067|
8=FIX.4.4|9=0050|35=0|34=10|49=EXC|56=001|52=20190614-13:57:37.000|10=211|
8=FIX.4.4|9=60|35=0|34=10|49=001|50=001B27|52=20190614-13:57:37.838|56=EXC|10=102|
8=FIX.4.4|9=0050|35=0|34=11|49=EXC|56=001|52=20190614-13:58:07.000|10=210|
8=FIX.4.4|9=60|35=0|34=11|49=001|50=001B27|52=20190614-13:58:07.838|56=EXC|10=101|
8=FIX.4.4|9=0050|35=0|34=12|49=EXC|56=001|52=20190614-13:58:37.000|10=214|
8=FIX.4.4|9=60|35=0|34=12|49=001|50=001B27|52=20190614-13:58:37.839|56=EXC|10=106|
8=FIX.4.4|9=0050|35=0|34=13|49=EXC|56=001|52=20190614-13:59:07.000|10=213|
8=FIX.4.4|9=60|35=0|34=13|49=001|50=001B27|52=20190614-13:59:07.838|56=EXC|10=104|
8=FIX.4.4|9=0050|35=0|34=14|49=EXC|56=001|52=20190614-13:59:37.000|10=217|
8=FIX.4.4|9=60|35=0|34=14|49=001|50=001B27|52=20190614-13:59:37.839|56=EXC|10=109|
8=FIX.4.4|9=0050|35=0|34=15|49=EXC|56=001|52=20190614-14:00:07.000|10=202|
8=FIX.4.4|9=60|35=0|34=15|49=001|50=001B27|52=20190614-14:00:07.838|56=EXC|10=093|
8=FIX.4.4|9=0050|35=0|34=16|49=EXC|56=001|52=20190614-14:00:37.000|10=206|
8=FIX.4.4|9=60|35=0|34=16|49=001|50=001B27|52=20190614-14:00:37.839|56=EXC|10=098|
8=FIX.4.4|9=105|35=A|34=1|49=001|50=001B27|52=20190614-14:01:16.343|56=EXC|98=0|108=30|141=Y|553=001FCM001|554=001FCM001|10=078|
8=FIX.4.4|9=0067|35=A|34=1|49=EXC|56=001|52=20190614-14:01:16.964|98=0|108=30|141=Y|10=008|
8=FIX.4.4|9=161|35=R|34=2|49=001|50=001B27|52=20190614-14:01:24.016|56=EXC|131=20190614901144_R|146=1|55=TFIT06211118|22=M|762=RFQF|54=1|38=500000000|453=1|448=DCV|447=C|452=10|10=141|
8=FIX.4.4|9=0154|35=AG|34=2|49=EXC|56=001|57=001B27|52=20190614-14:01:24.581|131=20190614901144_R|658=1|146=1|55=TFIT06211118|762=RFQF|22=M|58=(1479): Simbolo desconocido|10=105|
8=FIX.4.4|9=186|35=R|34=3|49=001|50=001B27|52=20190614-14:01:37.602|56=EXC|131=20190614901145_R|146=1|55=TFIT06110919|22=M|762=RFQF|54=1|38=1000000000|453=2|448=002B35|447=C|452=37|448=DCV|447=C|452=10|10=076|
8=FIX.4.4|9=0268|35=AI|34=3|49=EXC|56=001|57=001B27|52=20190614-14:01:38.169|131=20190614901145_R|453=5|448=DCV|447=C|452=10|448=001B27|447=C|452=12|448=001|447=C|452=1|448=001FCM001|447=C|452=36|448=002B35|447=C|452=37|55=TFIT06110919|762=RFQF|48=20320|22=M|54=1|38=1000000000|297=10|10=231|
8=FIX.4.4|9=105|35=A|34=1|49=001|50=001B27|52=20190614-14:34:22.472|56=EXC|98=0|108=30|141=Y|553=001FCM001|554=001FCM001|10=084|
8=FIX.4.4|9=0067|35=A|34=1|49=EXC|56=001|52=20190614-14:34:22.795|98=0|108=30|141=Y|10=013|
8=FIX.4.4|9=140|35=R|34=2|49=001|50=001B27|52=20190614-14:34:29.754|56=EXC|131=20190614934208_R|146=1|55=TFIT16180930|22=M|762=RFQF|54=1|38=500000000|453=0|10=151|
8=FIX.4.4|9=0160|35=AG|34=2|49=EXC|56=001|57=001B27|52=20190614-14:34:30.010|131=20190614934208_R|658=99|146=1|55=TFIT16180930|762=RFQF|22=M|58=(962): Deposito no fue ingresada|10=107|
8=FIX.4.4|9=0049|35=0|34=3|49=EXC|56=001|52=20190614-14:35:00.000|10=160|
8=FIX.4.4|9=59|35=0|34=3|49=001|50=001B27|52=20190614-14:34:59.756|56=EXC|10=063|
8=FIX.4.4|9=105|35=A|34=1|49=001|50=001B27|52=20190614-14:35:27.876|56=EXC|98=0|108=30|141=Y|553=001FCM001|554=001FCM001|10=098|
8=FIX.4.4|9=0067|35=A|34=1|49=EXC|56=001|52=20190614-14:35:28.179|98=0|108=30|141=Y|10=016|
8=FIX.4.4|9=185|35=R|34=2|49=001|50=001B27|52=20190614-14:35:35.233|56=EXC|131=20190614935251_R|146=1|55=TFIC13280425|22=M|762=RFQF|54=1|38=500000000|453=2|448=002B35|447=C|452=37|448=DCV|447=C|452=10|10=021|
8=FIX.4.4|9=0267|35=AI|34=2|49=EXC|56=001|57=001B27|52=20190614-14:35:35.505|131=20190614935251_R|453=5|448=DCV|447=C|452=10|448=001B27|447=C|452=12|448=001|447=C|452=1|448=001FCM001|447=C|452=36|448=002B35|447=C|452=37|55=TFIC13280425|762=RFQF|48=20626|22=M|54=1|38=500000000|297=10|10=178|
8=FIX.4.4|9=105|35=A|34=1|49=001|50=001B27|52=20190614-14:36:04.962|56=EXC|98=0|108=30|141=Y|553=001FCM001|554=001FCM001|10=090|
8=FIX.4.4|9=0067|35=A|34=1|49=EXC|56=001|52=20190614-14:36:05.275|98=0|108=30|141=Y|10=009|
8=FIX.4.4|9=140|35=R|34=2|49=001|50=001B27|52=20190614-14:36:12.237|56=EXC|131=20190614936028_R|146=1|55=TFIT16180930|22=M|762=RFQF|54=1|38=500000000|453=0|10=143|
8=FIX.4.4|9=0160|35=AG|34=2|49=EXC|56=001|57=001B27|52=20190614-14:36:12.518|131=20190614936028_R|658=99|146=1|55=TFIT16180930|762=RFQF|22=M|58=(962): Deposito no fue ingresada|10=124|
8=FIX.4.4|9=105|35=A|34=1|49=001|50=001B27|52=20190614-14:39:40.028|56=EXC|98=0|108=30|141=Y|553=001FCM001|554=001FCM001|10=086|
8=FIX.4.4|9=0067|35=A|34=1|49=EXC|56=001|52=20190614-14:39:40.415|98=0|108=30|141=Y|10=007|
8=FIX.4.4|9=180|35=R|34=2|49=001|50=001B27|52=20190614-14:39:47.315|56=EXC|131=20190614939371_R|146=1|55=TFIC13280425|762=RFQF|54=1|38=500000000|453=2|448=002B35|447=C|452=37|448=DCV|447=C|452=10|10=048|
8=FIX.4.4|9=0267|35=AI|34=2|49=EXC|56=001|57=001B27|52=20190614-14:39:47.655|131=20190614939371_R|453=5|448=DCV|447=C|452=10|448=001B27|447=C|452=12|448=001|447=C|452=1|448=001FCM001|447=C|452=36|448=002B35|447=C|452=37|55=TFIC13280425|762=RFQF|48=20626|22=M|54=1|38=500000000|297=10|10=198|
8=FIX.4.4|9=0315|35=S|34=3|49=EXC|56=001|57=001B27|52=20190614-14:40:03.789|131=20190614939371_R|117=20190614-000000000003.00|55=TFIC13280425|762=RFQF|48=20626|22=M|453=5|448=DCV|447=C|452=10|448=001B27|447=C|452=12|448=001|447=C|452=1|448=001FCM001|447=C|452=36|448=002B35|447=C|452=37|634=4.000|135=500000000|62=20190617-22:00:00|10=213|
8=FIX.4.4|9=105|35=A|34=1|49=001|50=001B27|52=20190614-14:41:46.919|56=EXC|98=0|108=30|141=Y|553=001FCM001|554=001FCM001|10=094|
8=FIX.4.4|9=0067|35=A|34=1|49=EXC|56=001|52=20190614-14:41:47.343|98=0|108=30|141=Y|10=007|
8=FIX.4.4|9=180|35=R|34=2|49=001|50=001B27|52=20190614-14:41:54.283|56=EXC|131=20190614941441_R|146=1|55=TFIC13280425|22=M|762=RFQF|38=500000000|453=2|448=002B35|447=C|452=37|448=DCV|447=C|452=10|10=057|
8=FIX.4.4|9=0262|35=AI|34=2|49=EXC|56=001|57=001B27|52=20190614-14:41:54.659|131=20190614941441_R|453=5|448=DCV|447=C|452=10|448=001B27|447=C|452=12|448=001|447=C|452=1|448=001FCM001|447=C|452=36|448=002B35|447=C|452=37|55=TFIC13280425|762=RFQF|48=20626|22=M|38=500000000|297=10|10=219|
8=FIX.4.4|9=105|35=A|34=1|49=001|50=001B27|52=20190614-14:42:23.664|56=EXC|98=0|108=30|141=Y|553=001FCM001|554=001FCM001|10=087|
8=FIX.4.4|9=0067|35=A|34=1|49=EXC|56=001|52=20190614-14:42:24.087|98=0|108=30|141=Y|10=008|
8=FIX.4.4|9=172|35=R|34=2|49=001|50=001B27|52=20190614-14:42:31.021|56=EXC|131=20190614942211_R|146=1|55=TFIC13280425|22=M|762=RFQF|54=1|453=2|448=002B35|447=C|452=37|448=DCV|447=C|452=10|10=162|
8=FIX.4.4|9=0125|35=3|34=2|49=EXC|56=001|52=20190614-14:42:31.407|45=2|371=38|372=R|373=1|58=(1463): Hace falta campo requerido OrderQty(#38)|10=021|
8=FIX.4.4|9=105|35=A|34=1|49=001|50=001B27|52=20190614-14:47:56.537|56=EXC|98=0|108=30|141=Y|553=001FCM001|554=001FCM001|10=097|
8=FIX.4.4|9=0067|35=A|34=1|49=EXC|56=001|52=20190614-14:47:56.739|98=0|108=30|141=Y|10=022|
8=FIX.4.4|9=172|35=R|34=2|49=001|50=001B27|52=20190614-14:48:03.930|56=EXC|131=20190614947531_R|146=1|55=TFIC13280425|22=M|762=RFQF|54=1|453=2|448=002B35|447=C|452=37|448=DCV|447=C|452=10|10=186|
8=FIX.4.4|9=0125|35=3|34=2|49=EXC|56=001|52=20190614-14:48:04.095|45=2|371=38|372=R|373=1|58=(1463): Hace falta campo requerido OrderQty(#38)|10=030|
8=FIX.4.4|9=105|35=A|34=1|49=001|50=001B27|52=20190614-14:49:37.288|56=EXC|98=0|108=30|141=Y|553=001FCM001|554=001FCM001|10=101|
8=FIX.4.4|9=0067|35=A|34=1|49=EXC|56=001|52=20190614-14:49:37.510|98=0|108=30|141=Y|10=010|
8=FIX.4.4|9=172|35=R|34=2|49=001|50=001B27|52=20190614-14:49:44.677|56=EXC|131=20190614949341_R|146=1|55=TFIC13280425|22=M|762=RFQF|54=1|453=2|448=002B35|447=C|452=37|448=DCV|447=C|452=10|10=201|
8=FIX.4.4|9=0125|35=3|34=2|49=EXC|56=001|52=20190614-14:49:44.868|45=2|371=38|372=R|373=1|58=(1463): Hace falta campo requerido OrderQty(#38)|10=043|
8=FIX.4.4|9=172|35=R|34=3|49=001|50=001B27|52=20190614-14:49:55.119|56=EXC|131=20190614949342_R|146=1|55=TFIT16280428|22=M|762=RFQF|54=1|453=2|448=002B35|447=C|452=37|448=DCV|447=C|452=10|10=219|
8=FIX.4.4|9=0125|35=3|34=3|49=EXC|56=001|52=20190614-14:49:55.313|45=3|371=38|372=R|373=1|58=(1463): Hace falta campo requerido OrderQty(#38)|10=032|
8=FIX.4.4|9=105|35=A|34=1|49=001|50=001B27|52=20190614-15:26:35.715|56=EXC|98=0|108=30|141=Y|553=001FCM001|554=001FCM001|10=090|
8=FIX.4.4|9=0067|35=A|34=1|49=EXC|56=001|52=20190614-15:26:35.599|98=0|108=30|141=Y|10=021|
8=FIX.4.4|9=162|35=R|34=2|49=001|50=001B27|52=20190614-15:26:43.235|56=EXC|131=201906141026334_R|146=1|55=TFIT06211118|22=M|762=RFQF|54=1|38=500000000|453=1|448=DCV|447=C|452=10|10=202|
8=FIX.4.4|9=0155|35=AG|34=2|49=EXC|56=001|57=001B27|52=20190614-15:26:43.041|131=201906141026334_R|658=1|146=1|55=TFIT06211118|762=RFQF|22=M|58=(1479): Simbolo desconocido|10=154|
8=FIX.4.4|9=187|35=R|34=3|49=001|50=001B27|52=20190614-15:26:56.809|56=EXC|131=201906141026335_R|146=1|55=TFIT06110919|22=M|762=RFQF|54=1|38=1000000000|453=2|448=002B35|447=C|452=37|448=DCV|447=C|452=10|10=143|
8=FIX.4.4|9=0269|35=AI|34=3|49=EXC|56=001|57=001B27|52=20190614-15:26:56.617|131=201906141026335_R|453=5|448=DCV|447=C|452=10|448=001B27|447=C|452=12|448=001|447=C|452=1|448=001FCM001|447=C|452=36|448=002B35|447=C|452=37|55=TFIT06110919|762=RFQF|48=20320|22=M|54=1|38=1000000000|297=10|10=030|
8=FIX.4.4|9=105|35=A|34=1|49=001|50=001B27|52=20190614-16:53:44.235|56=EXC|98=0|108=30|141=Y|553=001FCM001|554=001FCM001|10=088|
8=FIX.4.4|9=0067|35=A|34=1|49=EXC|56=001|52=20190614-16:53:44.102|98=0|108=30|141=Y|10=002|
8=FIX.4.4|9=186|35=R|34=2|49=001|50=001B27|52=20190614-16:53:51.587|56=EXC|131=201906141153421_R|146=1|55=TFIC13280425|22=M|762=RFQF|54=1|38=500000000|453=2|448=002B35|447=C|452=37|448=DCV|447=C|452=10|10=074|
8=FIX.4.4|9=0268|35=AI|34=2|49=EXC|56=001|57=001B27|52=20190614-16:53:51.407|131=201906141153421_R|453=5|448=DCV|447=C|452=10|448=001B27|447=C|452=12|448=001|447=C|452=1|448=001FCM001|447=C|452=36|448=002B35|447=C|452=37|55=TFIC13280425|762=RFQF|48=20626|22=M|54=1|38=500000000|297=10|10=220|
8=FIX.4.4|9=0316|35=S|34=3|49=EXC|56=001|57=001B27|52=20190614-16:54:08.009|131=201906141153421_R|117=20190614-000000000006.00|55=TFIC13280425|762=RFQF|48=20626|22=M|453=5|448=DCV|447=C|452=10|448=001B27|447=C|452=12|448=001|447=C|452=1|448=001FCM001|447=C|452=36|448=002B35|447=C|452=37|634=4.000|135=500000000|62=20190617-22:00:00|10=247|
8=FIX.4.4|9=59|35=0|34=3|49=001|50=001B27|52=20190614-16:54:22.191|56=EXC|10=050|
8=FIX.4.4|9=148|35=AJ|34=4|49=001|50=001B27|52=20190614-16:54:27.169|56=EXC|54=1|55=TFIC13280425|117=20190614-000000000006.00|693=201906141153421_AJ|694=1|762=RFQF|10=085|
8=FIX.4.4|9=0516|35=8|34=4|49=EXC|56=001|57=001B27|52=20190614-16:54:26.995|11=201906141153421_AJ|17=1|37=0|150=F|1080=20190614-000000000006.00|1081=5|453=6|448=001B27|447=C|452=12|448=001|447=C|452=1|448=002B35|447=C|452=37|448=002|447=C|452=17|448=001FCM001|447=C|452=36|448=DCV|447=C|452=10|55=TFIC13280425|762=RFQF|48=20626|22=M|6=79.431|14=500000000|31=79.431|32=500000000|38=500000000|39=2|20102=79.431|54=1|60=20190614-16:54:26.995|75=20190614|63=1|64=20190614|151=0|1623=4.000|381=397158000.000|880=201906140000000083|828=99|10=167|
8=FIX.4.4|9=126|35=j|34=5|49=001|50=001B27|52=20190614-16:54:37.517|56=EXC|45=4|58=Conditionally Required Field Missing, field=56|372=8|380=5|10=247|
8=FIX.4.4|9=0109|35=j|34=5|49=EXC|56=001|57=001B27|52=20190614-16:54:37.345|45=5|372=j|380=3|58=(1468): MsgType(#35) invalido|10=072|
8=FIX.4.4|9=105|35=A|34=1|49=001|50=001B27|52=20190614-17:03:19.804|56=EXC|98=0|108=30|141=Y|553=001FCM001|554=001FCM001|10=088|
8=FIX.4.4|9=0067|35=A|34=1|49=EXC|56=001|52=20190614-17:03:19.807|98=0|108=30|141=Y|10=012|
8=FIX.4.4|9=186|35=R|34=2|49=001|50=001B27|52=20190614-17:03:27.152|56=EXC|131=201906141203171_R|146=1|55=TFIC13280425|22=M|762=RFQF|54=1|38=500000000|453=2|448=002B35|447=C|452=37|448=DCV|447=C|452=10|10=059|
8=FIX.4.4|9=0268|35=AI|34=2|49=EXC|56=001|57=001B27|52=20190614-17:03:27.104|131=201906141203171_R|453=5|448=DCV|447=C|452=10|448=001B27|447=C|452=12|448=001|447=C|452=1|448=001FCM001|447=C|452=36|448=002B35|447=C|452=37|55=TFIC13280425|762=RFQF|48=20626|22=M|54=1|38=500000000|297=10|10=211|
8=FIX.4.4|9=0316|35=S|34=3|49=EXC|56=001|57=001B27|52=20190614-17:03:43.179|131=201906141203171_R|117=20190614-000000000007.00|55=TFIC13280425|762=RFQF|48=20626|22=M|453=5|448=DCV|447=C|452=10|448=001B27|447=C|452=12|448=001|447=C|452=1|448=001FCM001|447=C|452=36|448=002B35|447=C|452=37|634=4.000|135=500000000|62=20190617-22:00:00|10=248|
8=FIX.4.4|9=59|35=0|34=3|49=001|50=001B27|52=20190614-17:03:57.776|56=EXC|10=062|
8=FIX.4.4|9=148|35=AJ|34=4|49=001|50=001B27|52=20190614-17:04:02.055|56=EXC|54=1|55=TFIC13280425|117=20190614-000000000007.00|693=201906141203171_AJ|694=1|762=RFQF|10=067|
8=FIX.4.4|9=0516|35=8|34=4|49=EXC|56=001|57=001B27|52=20190614-17:04:02.015|11=201906141203171_AJ|17=2|37=0|150=F|1080=20190614-000000000007.00|1081=5|453=6|448=001B27|447=C|452=12|448=001|447=C|452=1|448=002B35|447=C|452=37|448=002|447=C|452=17|448=001FCM001|447=C|452=36|448=DCV|447=C|452=10|55=TFIC13280425|762=RFQF|48=20626|22=M|6=79.431|14=500000000|31=79.431|32=500000000|38=500000000|39=2|20102=79.431|54=1|60=20190614-17:04:02.015|75=20190614|63=1|64=20190614|151=0|1623=4.000|381=397158000.000|880=201906140000000084|828=99|10=114|
8=FIX.4.4|9=186|35=R|34=5|49=001|50=001B27|52=20190614-17:04:23.371|56=EXC|131=201906141203172_R|146=1|55=TFIT16280428|22=M|762=RFQF|54=1|38=500000000|453=2|448=002B35|447=C|452=37|448=DCV|447=C|452=10|10=086|
8=FIX.4.4|9=0268|35=AI|34=5|49=EXC|56=001|57=001B27|52=20190614-17:04:23.008|131=201906141203172_R|453=5|448=DCV|447=C|452=10|448=001B27|447=C|452=12|448=001|447=C|452=1|448=001FCM001|447=C|452=36|448=002B35|447=C|452=37|55=TFIT16280428|762=RFQF|48=20399|22=M|54=1|38=500000000|297=10|10=245|
8=FIX.4.4|9=105|35=A|34=1|49=001|50=001B27|52=20190614-17:05:55.535|56=EXC|98=0|108=30|141=Y|553=001FCM001|554=001FCM001|10=091|
8=FIX.4.4|9=0067|35=A|34=1|49=EXC|56=001|52=20190614-17:05:55.247|98=0|108=30|141=Y|10=012|
8=FIX.4.4|9=186|35=R|34=2|49=001|50=001B27|52=20190614-17:06:02.883|56=EXC|131=201906141205531_R|146=1|55=TFIC13280425|22=M|762=RFQF|54=1|38=500000000|453=2|448=002B35|447=C|452=37|448=DCV|447=C|452=10|10=068|
8=FIX.4.4|9=0268|35=AI|34=2|49=EXC|56=001|57=001B27|52=20190614-17:06:02.544|131=201906141205531_R|453=5|448=DCV|447=C|452=10|448=001B27|447=C|452=12|448=001|447=C|452=1|448=001FCM001|447=C|452=36|448=002B35|447=C|452=37|55=TFIC13280425|762=RFQF|48=20626|22=M|54=1|38=500000000|297=10|10=217|
8=FIX.4.4|9=0316|35=S|34=3|49=EXC|56=001|57=001B27|52=20190614-17:06:18.746|131=201906141205531_R|117=20190614-000000000009.00|55=TFIC13280425|762=RFQF|48=20626|22=M|453=5|448=DCV|447=C|452=10|448=001B27|447=C|452=12|448=001|447=C|452=1|448=001FCM001|447=C|452=36|448=002B35|447=C|452=37|634=4.000|135=500000000|62=20190617-22:00:00|10=001|
8=FIX.4.4|9=59|35=0|34=3|49=001|50=001B27|52=20190614-17:06:33.514|56=EXC|10=049|
8=FIX.4.4|9=148|35=AJ|34=4|49=001|50=001B27|52=20190614-17:06:38.080|56=EXC|54=1|55=TFIC13280425|117=20190614-000000000009.00|693=201906141205531_AJ|694=1|762=RFQF|10=080|
8=FIX.4.4|9=0516|35=8|34=4|49=EXC|56=001|57=001B27|52=20190614-17:06:37.750|11=201906141205531_AJ|17=3|37=0|150=F|1080=20190614-000000000009.00|1081=5|453=6|448=001B27|447=C|452=12|448=001|447=C|452=1|448=002B35|447=C|452=37|448=002|447=C|452=17|448=001FCM001|447=C|452=36|448=DCV|447=C|452=10|55=TFIC13280425|762=RFQF|48=20626|22=M|6=79.431|14=500000000|31=79.431|32=500000000|38=500000000|39=2|20102=79.431|54=1|60=20190614-17:06:37.750|75=20190614|63=1|64=20190614|151=0|1623=4.000|381=397158000.000|880=201906140000000085|828=99|10=152|
8=FIX.4.4|9=126|35=j|34=5|49=001|50=001B27|52=20190614-17:06:48.202|56=EXC|45=4|58=Conditionally Required Field Missing, field=56|372=8|380=5|10=238|
8=FIX.4.4|9=0109|35=j|34=5|49=EXC|56=001|57=001B27|52=20190614-17:06:47.874|45=5|372=j|380=3|58=(1468): MsgType(#35) invalido|10=078|
8=FIX.4.4|9=105|35=A|34=1|49=001|50=001B27|52=20190614-18:35:54.115|56=EXC|98=0|108=30|141=Y|553=001FCM001|554=001FCM001|10=088|
8=FIX.4.4|9=0067|35=A|34=1|49=EXC|56=001|52=20190614-18:35:54.160|98=0|108=30|141=Y|10=009|
8=FIX.4.4|9=186|35=R|34=2|49=001|50=001B27|52=20190614-18:36:01.635|56=EXC|131=201906141335511_R|146=1|55=TFIC13280425|22=M|762=RFQF|54=1|38=500000000|453=2|448=002B35|447=C|452=37|448=DCV|447=C|452=10|10=068|
8=FIX.4.4|9=0268|35=AI|34=2|49=EXC|56=001|57=001B27|52=20190614-18:36:01.622|131=201906141335511_R|453=5|448=DCV|447=C|452=10|448=001B27|447=C|452=12|448=001|447=C|452=1|448=001FCM001|447=C|452=36|448=002B35|447=C|452=37|55=TFIC13280425|762=RFQF|48=20626|22=M|54=1|38=500000000|297=10|10=219|
8=FIX.4.4|9=0316|35=S|34=3|49=EXC|56=001|57=001B27|52=20190614-18:36:17.788|131=201906141335511_R|117=20190614-000000000010.00|55=TFIC13280425|762=RFQF|48=20626|22=M|453=5|448=DCV|447=C|452=10|448=001B27|447=C|452=12|448=001|447=C|452=1|448=001FCM001|447=C|452=36|448=002B35|447=C|452=37|634=4.000|135=500000000|62=20190617-22:00:00|10=004|
8=FIX.4.4|9=59|35=0|34=3|49=001|50=001B27|52=20190614-18:36:32.096|56=EXC|10=057|
8=FIX.4.4|9=148|35=AJ|34=4|49=001|50=001B27|52=20190614-18:36:36.628|56=EXC|54=1|55=TFIC13280425|117=20190614-000000000010.00|693=201906141335511_AJ|694=1|762=RFQF|10=084|
8=FIX.4.4|9=0516|35=8|34=4|49=EXC|56=001|57=001B27|52=20190614-18:36:36.624|11=201906141335511_AJ|17=4|37=0|150=F|1080=20190614-000000000010.00|1081=5|453=6|448=001B27|447=C|452=12|448=001|447=C|452=1|448=002B35|447=C|452=37|448=002|447=C|452=17|448=001FCM001|447=C|452=36|448=DCV|447=C|452=10|55=TFIC13280425|762=RFQF|48=20626|22=M|6=79.431|14=500000000|31=79.431|32=500000000|38=500000000|39=2|20102=79.431|54=1|60=20190614-18:36:36.624|75=20190614|63=1|64=20190614|151=0|1623=4.000|381=397158000.000|880=201906140000000086|828=99|10=154|
8=FIX.4.4|9=126|35=j|34=5|49=001|50=001B27|52=20190614-18:36:46.735|56=EXC|45=4|58=Conditionally Required Field Missing, field=56|372=8|380=5|10=251|
8=FIX.4.4|9=0109|35=j|34=5|49=EXC|56=001|57=001B27|52=20190614-18:36:46.734|45=5|372=j|380=3|58=(1468): MsgType(#35) invalido|10=076|
8=FIX.4.4|9=105|35=A|34=1|49=001|50=001B27|52=20190614-18:37:58.060|56=EXC|98=0|108=30|141=Y|553=001FCM001|554=001FCM001|10=093|
8=FIX.4.4|9=0067|35=A|34=1|49=EXC|56=001|52=20190614-18:37:58.110|98=0|108=30|141=Y|10=010|
8=FIX.4.4|9=186|35=R|34=2|49=001|50=001B27|52=20190614-18:38:05.415|56=EXC|131=201906141337551_R|146=1|55=TFIC13280425|22=M|762=RFQF|54=1|38=500000000|453=2|448=002B35|447=C|452=37|448=DCV|447=C|452=10|10=076|
8=FIX.4.4|9=0268|35=AI|34=2|49=EXC|56=001|57=001B27|52=20190614-18:38:05.435|131=201906141337551_R|453=5|448=DCV|447=C|452=10|448=001B27|447=C|452=12|448=001|447=C|452=1|448=001FCM001|447=C|452=36|448=002B35|447=C|452=37|55=TFIC13280425|762=RFQF|48=20626|22=M|54=1|38=500000000|297=10|10=233|
8=FIX.4.4|9=0316|35=S|34=3|49=EXC|56=001|57=001B27|52=20190614-18:38:21.414|131=201906141337551_R|117=20190614-000000000011.00|55=TFIC13280425|762=RFQF|48=20626|22=M|453=5|448=DCV|447=C|452=10|448=001B27|447=C|452=12|448=001|447=C|452=1|448=001FCM001|447=C|452=36|448=002B35|447=C|452=37|634=4.000|135=500000000|62=20190617-22:00:00|10=250|
8=FIX.4.4|9=59|35=0|34=3|49=001|50=001B27|52=20190614-18:38:36.037|56=EXC|10=058|
8=FIX.4.4|9=148|35=AJ|34=4|49=001|50=001B27|52=20190614-18:38:40.222|56=EXC|54=1|55=TFIC13280425|117=20190614-000000000011.00|693=201906141337551_AJ|694=1|762=RFQF|10=078|
8=FIX.4.4|9=0516|35=8|34=4|49=EXC|56=001|57=001B27|52=20190614-18:38:40.250|11=201906141337551_AJ|17=5|37=0|150=F|1080=20190614-000000000011.00|1081=5|453=6|448=001B27|447=C|452=12|448=001|447=C|452=1|448=002B35|447=C|452=37|448=002|447=C|452=17|448=001FCM001|447=C|452=36|448=DCV|447=C|452=10|55=TFIC13280425|762=RFQF|48=20626|22=M|6=79.431|14=500000000|31=79.431|32=500000000|38=500000000|39=2|20102=79.431|54=1|60=20190614-18:38:40.250|75=20190614|63=1|64=20190614|151=0|1623=4.000|381=397158000.000|880=201906140000000088|828=99|10=148|
8=FIX.4.4|9=126|35=j|34=5|49=001|50=001B27|52=20190614-18:38:50.321|56=EXC|45=4|58=Conditionally Required Field Missing, field=56|372=8|380=5|10=239|
8=FIX.4.4|9=0109|35=j|34=5|49=EXC|56=001|57=001B27|52=20190614-18:38:50.353|45=5|372=j|380=3|58=(1468): MsgType(#35) invalido|10=070|
8=FIX.4.4|9=0049|35=0|34=6|49=EXC|56=001|52=20190614-18:39:20.000|10=173|
8=FIX.4.4|9=59|35=0|34=6|49=001|50=001B27|52=20190614-18:39:21.037|56=EXC|10=056|
8=FIX.4.4|9=0049|35=0|34=7|49=EXC|56=001|52=20190614-18:39:50.000|10=177|
8=FIX.4.4|9=59|35=0|34=7|49=001|50=001B27|52=20190614-18:39:51.036|56=EXC|10=059|
8=FIX.4.4|9=0049|35=0|34=8|49=EXC|56=001|52=20190614-18:40:20.000|10=167|
8=FIX.4.4|9=59|35=0|34=8|49=001|50=001B27|52=20190614-18:40:21.036|56=EXC|10=049|
8=FIX.4.4|9=0049|35=0|34=9|49=EXC|56=001|52=20190614-18:40:50.000|10=171|
8=FIX.4.4|9=59|35=0|34=9|49=001|50=001B27|52=20190614-18:40:51.036|56=EXC|10=053|
8=FIX.4.4|9=105|35=A|34=1|49=001|50=001B27|52=20190614-18:43:05.660|56=EXC|98=0|108=30|141=Y|553=001FCM001|554=001FCM001|10=088|
8=FIX.4.4|9=0067|35=A|34=1|49=EXC|56=001|52=20190614-18:43:05.830|98=0|108=30|141=Y|10=008|
8=FIX.4.4|9=186|35=R|34=2|49=001|50=001B27|52=20190614-18:43:13.010|56=EXC|131=201906141343031_R|146=1|55=TFIC13280425|22=M|762=RFQF|54=1|38=500000000|453=2|448=002B35|447=C|452=37|448=DCV|447=C|452=10|10=052|
8=FIX.4.4|9=0268|35=AI|34=2|49=EXC|56=001|57=001B27|52=20190614-18:43:13.113|131=201906141343031_R|453=5|448=DCV|447=C|452=10|448=001B27|447=C|452=12|448=001|447=C|452=1|448=001FCM001|447=C|452=36|448=002B35|447=C|452=37|55=TFIC13280425|762=RFQF|48=20626|22=M|54=1|38=500000000|297=10|10=211|
8=FIX.4.4|9=0316|35=S|34=3|49=EXC|56=001|57=001B27|52=20190614-18:43:28.882|131=201906141343031_R|117=20190614-000000000012.00|55=TFIC13280425|762=RFQF|48=20626|22=M|453=5|448=DCV|447=C|452=10|448=001B27|447=C|452=12|448=001|447=C|452=1|448=001FCM001|447=C|452=36|448=002B35|447=C|452=37|634=4.000|135=500000000|62=20190617-22:00:00|10=253|
8=FIX.4.4|9=59|35=0|34=3|49=001|50=001B27|52=20190614-18:43:43.622|56=EXC|10=052|
8=FIX.4.4|9=148|35=AJ|34=4|49=001|50=001B27|52=20190614-18:43:47.643|56=EXC|54=1|55=TFIC13280425|117=20190614-000000000012.00|693=201906141343031_AJ|694=1|762=RFQF|10=079|
8=FIX.4.4|9=0516|35=8|34=4|49=EXC|56=001|57=001B27|52=20190614-18:43:47.755|11=201906141343031_AJ|17=6|37=0|150=F|1080=20190614-000000000012.00|1081=5|453=6|448=001B27|447=C|452=12|448=001|447=C|452=1|448=002B35|447=C|452=37|448=002|447=C|452=17|448=001FCM001|447=C|452=36|448=DCV|447=C|452=10|55=TFIC13280425|762=RFQF|48=20626|22=M|6=79.431|14=500000000|31=79.431|32=500000000|38=500000000|39=2|20102=79.431|54=1|60=20190614-18:43:47.755|75=20190614|63=1|64=20190614|151=0|1623=4.000|381=397158000.000|880=201906140000000091|828=99|10=160|
8=FIX.4.4|9=126|35=j|34=5|49=001|50=001B27|52=20190614-18:43:57.733|56=EXC|45=4|58=Conditionally Required Field Missing, field=56|372=8|380=5|10=249|
8=FIX.4.4|9=0109|35=j|34=5|49=EXC|56=001|57=001B27|52=20190614-18:43:57.848|45=5|372=j|380=3|58=(1468): MsgType(#35) invalido|10=082|
8=FIX.4.4|9=105|35=A|34=1|49=001|50=001B27|52=20190614-19:03:34.804|56=EXC|98=0|108=30|141=Y|553=001FCM001|554=001FCM001|10=087|
8=FIX.4.4|9=0067|35=A|34=1|49=EXC|56=001|52=20190614-19:03:34.887|98=0|108=30|141=Y|10=019|
8=FIX.4.4|9=186|35=R|34=2|49=001|50=001B27|52=20190614-19:03:42.209|56=EXC|131=201906141403321_R|146=1|55=TFIC13280425|22=M|762=RFQF|54=1|38=500000000|453=2|448=002B35|447=C|452=37|448=DCV|447=C|452=10|10=060|
8=FIX.4.4|9=0268|35=AI|34=2|49=EXC|56=001|57=001B27|52=20190614-19:03:42.257|131=201906141403321_R|453=5|448=DCV|447=C|452=10|448=001B27|447=C|452=12|448=001|447=C|452=1|448=001FCM001|447=C|452=36|448=002B35|447=C|452=37|55=TFIC13280425|762=RFQF|48=20626|22=M|54=1|38=500000000|297=10|10=218|
8=FIX.4.4|9=0316|35=S|34=3|49=EXC|56=001|57=001B27|52=20190614-19:03:58.237|131=201906141403321_R|117=20190614-000000000013.00|55=TFIC13280425|762=RFQF|48=20626|22=M|453=5|448=DCV|447=C|452=10|448=001B27|447=C|452=12|448=001|447=C|452=1|448=001FCM001|447=C|452=36|448=002B35|447=C|452=37|634=4.000|135=500000000|62=20190617-22:00:00|10=247|
8=FIX.4.4|9=59|35=0|34=3|49=001|50=001B27|52=20190614-19:04:12.782|56=EXC|10=053|
8=FIX.4.4|9=148|35=AJ|34=4|49=001|50=001B27|52=20190614-19:04:16.967|56=EXC|54=1|55=TFIC13280425|117=20190614-000000000013.00|693=201906141403321_AJ|694=1|762=RFQF|10=082|
8=FIX.4.4|9=0516|35=8|34=4|49=EXC|56=001|57=001B27|52=20190614-19:04:17.024|11=201906141403321_AJ|17=7|37=0|150=F|1080=20190614-000000000013.00|1081=5|453=6|448=001B27|447=C|452=12|448=001|447=C|452=1|448=002B35|447=C|452=37|448=002|447=C|452=17|448=001FCM001|447=C|452=36|448=DCV|447=C|452=10|55=TFIC13280425|762=RFQF|48=20626|22=M|6=79.431|14=500000000|31=79.431|32=500000000|38=500000000|39=2|20102=79.431|54=1|60=20190614-19:04:17.024|75=20190614|63=1|64=20190614|151=0|1623=4.000|381=397158000.000|880=201906140000000098|828=99|10=136|
8=FIX.4.4|9=186|35=R|34=5|49=001|50=001B27|52=20190614-19:04:38.577|56=EXC|131=201906141403322_R|146=1|55=TFIT16280428|22=M|762=RFQF|54=1|38=500000000|453=2|448=002B35|447=C|452=37|448=DCV|447=C|452=10|10=101|
8=FIX.4.4|9=0268|35=AI|34=5|49=EXC|56=001|57=001B27|52=20190614-19:04:38.638|131=201906141403322_R|453=5|448=DCV|447=C|452=10|448=001B27|447=C|452=12|448=001|447=C|452=1|448=001FCM001|447=C|452=36|448=002B35|447=C|452=37|55=TFIT16280428|762=RFQF|48=20399|22=M|54=1|38=500000000|297=10|10=005|
8=FIX.4.4|9=105|35=A|34=1|49=001|50=001B27|52=20190614-19:08:27.935|56=EXC|98=0|108=30|141=Y|553=001FCM001|554=001FCM001|10=099|
8=FIX.4.4|9=0067|35=A|34=1|49=EXC|56=001|52=20190614-19:08:28.097|98=0|108=30|141=Y|10=020|
8=FIX.4.4|9=186|35=R|34=2|49=001|50=001B27|52=20190614-19:08:35.334|56=EXC|131=201906141408251_R|146=1|55=TFIC13280425|22=M|762=RFQF|54=1|38=500000000|453=2|448=002B35|447=C|452=37|448=DCV|447=C|452=10|10=073|
8=FIX.4.4|9=0268|35=AI|34=2|49=EXC|56=001|57=001B27|52=20190614-19:08:35.450|131=201906141408251_R|453=5|448=DCV|447=C|452=10|448=001B27|447=C|452=12|448=001|447=C|452=1|448=001FCM001|447=C|452=36|448=002B35|447=C|452=37|55=TFIC13280425|762=RFQF|48=20626|22=M|54=1|38=500000000|297=10|10=227|
8=FIX.4.4|9=0316|35=S|34=3|49=EXC|56=001|57=001B27|52=20190614-19:08:51.343|131=201906141408251_R|117=20190614-000000000015.00|55=TFIC13280425|762=RFQF|48=20626|22=M|453=5|448=DCV|447=C|452=10|448=001B27|447=C|452=12|448=001|447=C|452=1|448=001FCM001|447=C|452=36|448=002B35|447=C|452=37|634=4.000|135=500000000|62=20190617-22:00:00|10=252|
8=FIX.4.4|9=59|35=0|34=3|49=001|50=001B27|52=20190614-19:09:05.907|56=EXC|10=059|
8=FIX.4.4|9=148|35=AJ|34=4|49=001|50=001B27|52=20190614-19:09:10.004|56=EXC|54=1|55=TFIC13280425|117=20190614-000000000015.00|693=201906141408251_AJ|694=1|762=RFQF|10=072|
8=FIX.4.4|9=0516|35=8|34=4|49=EXC|56=001|57=001B27|52=20190614-19:09:10.125|11=201906141408251_AJ|17=8|37=0|150=F|1080=20190614-000000000015.00|1081=5|453=6|448=001B27|447=C|452=12|448=001|447=C|452=1|448=002B35|447=C|452=37|448=002|447=C|452=17|448=001FCM001|447=C|452=36|448=DCV|447=C|452=10|55=TFIC13280425|762=RFQF|48=20626|22=M|6=79.431|14=500000000|31=79.431|32=500000000|38=500000000|39=2|20102=79.431|54=1|60=20190614-19:09:10.125|75=20190614|63=1|64=20190614|151=0|1623=4.000|381=397158000.000|880=201906140000000103|828=99|10=133|
8=FIX.4.4|9=186|35=R|34=5|49=001|50=001B27|52=20190614-19:09:31.530|56=EXC|131=201906141408252_R|146=1|55=TFIT16280428|22=M|762=RFQF|54=1|38=500000000|453=2|448=002B35|447=C|452=37|448=DCV|447=C|452=10|10=095|
8=FIX.4.4|9=0268|35=AI|34=5|49=EXC|56=001|57=001B27|52=20190614-19:09:31.657|131=201906141408252_R|453=5|448=DCV|447=C|452=10|448=001B27|447=C|452=12|448=001|447=C|452=1|448=001FCM001|447=C|452=36|448=002B35|447=C|452=37|55=TFIT16280428|762=RFQF|48=20399|22=M|54=1|38=500000000|297=10|10=011|
8=FIX.4.4|9=105|35=A|34=1|49=001|50=001B27|52=20190614-19:24:54.191|56=EXC|98=0|108=30|141=Y|553=001FCM001|554=001FCM001|10=091|
8=FIX.4.4|9=0067|35=A|34=1|49=EXC|56=001|52=20190614-19:24:54.241|98=0|108=30|141=Y|10=008|
8=FIX.4.4|9=186|35=R|34=2|49=001|50=001B27|52=20190614-19:25:01.674|56=EXC|131=201906141424511_R|146=1|55=TFIC13280425|22=M|762=RFQF|54=1|38=500000000|453=2|448=002B35|447=C|452=37|448=DCV|447=C|452=10|10=069|
8=FIX.4.4|9=0268|35=AI|34=2|49=EXC|56=001|57=001B27|52=20190614-19:25:01.674|131=201906141424511_R|453=5|448=DCV|447=C|452=10|448=001B27|447=C|452=12|448=001|447=C|452=1|448=001FCM001|447=C|452=36|448=002B35|447=C|452=37|55=TFIC13280425|762=RFQF|48=20626|22=M|54=1|38=500000000|297=10|10=224|
8=FIX.4.4|9=0316|35=S|34=3|49=EXC|56=001|57=001B27|52=20190614-19:25:17.482|131=201906141424511_R|117=20190614-000000000017.00|55=TFIC13280425|762=RFQF|48=20626|22=M|453=5|448=DCV|447=C|452=10|448=001B27|447=C|452=12|448=001|447=C|452=1|448=001FCM001|447=C|452=36|448=002B35|447=C|452=37|634=4.000|135=500000000|62=20190617-22:00:00|10=000|
8=FIX.4.4|9=59|35=0|34=3|49=001|50=001B27|52=20190614-19:25:32.168|56=EXC|10=056|
8=FIX.4.4|9=148|35=AJ|34=4|49=001|50=001B27|52=20190614-19:25:36.192|56=EXC|54=1|55=TFIC13280425|117=20190614-000000000017.00|693=201906141424511_AJ|694=1|762=RFQF|10=085|
8=FIX.4.4|9=0516|35=8|34=4|49=EXC|56=001|57=001B27|52=20190614-19:25:36.199|11=201906141424511_AJ|17=9|37=0|150=F|1080=20190614-000000000017.00|1081=5|453=6|448=001B27|447=C|452=12|448=001|447=C|452=1|448=002B35|447=C|452=37|448=002|447=C|452=17|448=001FCM001|447=C|452=36|448=DCV|447=C|452=10|55=TFIC13280425|762=RFQF|48=20626|22=M|6=79.431|14=500000000|31=79.431|32=500000000|38=500000000|39=2|20102=79.431|54=1|60=20190614-19:25:36.199|75=20190614|63=1|64=20190614|151=0|1623=4.000|381=397158000.000|880=201906140000000111|828=99|10=166|
8=FIX.4.4|9=186|35=R|34=5|49=001|50=001B27|52=20190614-19:25:57.610|56=EXC|131=201906141424512_R|146=1|55=TFIT16280428|22=M|762=RFQF|54=1|38=500000000|453=2|448=002B35|447=C|452=37|448=DCV|447=C|452=10|10=097|
8=FIX.4.4|9=0268|35=AI|34=5|49=EXC|56=001|57=001B27|52=20190614-19:25:57.622|131=201906141424512_R|453=5|448=DCV|447=C|452=10|448=001B27|447=C|452=12|448=001|447=C|452=1|448=001FCM001|447=C|452=36|448=002B35|447=C|452=37|55=TFIT16280428|762=RFQF|48=20399|22=M|54=1|38=500000000|297=10|10=006|
8=FIX.4.4|9=105|35=A|34=1|49=001|50=001B27|52=20190614-19:26:40.847|56=EXC|98=0|108=30|141=Y|553=001FCM001|554=001FCM001|10=096|
8=FIX.4.4|9=0067|35=A|34=1|49=EXC|56=001|52=20190614-19:26:40.912|98=0|108=30|141=Y|10=010|
8=FIX.4.4|9=186|35=R|34=2|49=001|50=001B27|52=20190614-19:26:48.199|56=EXC|131=201906141426381_R|146=1|55=TFIC13280425|22=M|762=RFQF|54=1|38=500000000|453=2|448=002B35|447=C|452=37|448=DCV|447=C|452=10|10=090|
8=FIX.4.4|9=0268|35=AI|34=2|49=EXC|56=001|57=001B27|52=20190614-19:26:48.222|131=201906141426381_R|453=5|448=DCV|447=C|452=10|448=001B27|447=C|452=12|448=001|447=C|452=1|448=001FCM001|447=C|452=36|448=002B35|447=C|452=37|55=TFIC13280425|762=RFQF|48=20626|22=M|54=1|38=500000000|297=10|10=232|
8=FIX.4.4|9=0316|35=S|34=3|49=EXC|56=001|57=001B27|52=20190614-19:27:04.543|131=201906141426381_R|117=20190614-000000000019.00|55=TFIC13280425|762=RFQF|48=20626|22=M|453=5|448=DCV|447=C|452=10|448=001B27|447=C|452=12|448=001|447=C|452=1|448=001FCM001|447=C|452=36|448=002B35|447=C|452=37|634=4.000|135=500000000|62=20190617-22:00:00|10=005|
8=FIX.4.4|9=59|35=0|34=3|49=001|50=001B27|52=20190614-19:27:18.823|56=EXC|10=060|
8=FIX.4.4|9=148|35=AJ|34=4|49=001|50=001B27|52=20190614-19:27:23.313|56=EXC|54=1|55=TFIC13280425|117=20190614-000000000019.00|693=201906141426381_AJ|694=1|762=RFQF|10=087|
8=FIX.4.4|9=0517|35=8|34=4|49=EXC|56=001|57=001B27|52=20190614-19:27:23.342|11=201906141426381_AJ|17=10|37=0|150=F|1080=20190614-000000000019.00|1081=5|453=6|448=001B27|447=C|452=12|448=001|447=C|452=1|448=002B35|447=C|452=37|448=002|447=C|452=17|448=001FCM001|447=C|452=36|448=DCV|447=C|452=10|55=TFIC13280425|762=RFQF|48=20626|22=M|6=79.431|14=500000000|31=79.431|32=500000000|38=500000000|39=2|20102=79.431|54=1|60=20190614-19:27:23.342|75=20190614|63=1|64=20190614|151=0|1623=4.000|381=397158000.000|880=201906140000000112|828=99|10=193|
8=FIX.4.4|9=105|35=A|34=1|49=001|50=001B27|52=20190614-19:36:19.721|56=EXC|98=0|108=30|141=Y|553=001FCM001|554=001FCM001|10=094|
8=FIX.4.4|9=0067|35=A|34=1|49=EXC|56=001|52=20190614-19:36:19.915|98=0|108=30|141=Y|10=020|
8=FIX.4.4|9=186|35=R|34=2|49=001|50=001B27|52=20190614-19:36:27.083|56=EXC|131=201906141436171_R|146=1|55=TFIC13280425|22=M|762=RFQF|54=1|38=500000000|453=2|448=002B35|447=C|452=37|448=DCV|447=C|452=10|10=078|
8=FIX.4.4|9=0268|35=AI|34=2|49=EXC|56=001|57=001B27|52=20190614-19:36:27.226|131=201906141436171_R|453=5|448=DCV|447=C|452=10|448=001B27|447=C|452=12|448=001|447=C|452=1|448=001FCM001|447=C|452=36|448=002B35|447=C|452=37|55=TFIC13280425|762=RFQF|48=20626|22=M|54=1|38=500000000|297=10|10=232|
8=FIX.4.4|9=0316|35=S|34=3|49=EXC|56=001|57=001B27|52=20190614-19:36:43.647|131=201906141436171_R|117=20190614-000000000020.00|55=TFIC13280425|762=RFQF|48=20626|22=M|453=5|448=DCV|447=C|452=10|448=001B27|447=C|452=12|448=001|447=C|452=1|448=001FCM001|447=C|452=36|448=002B35|447=C|452=37|634=4.000|135=500000000|62=20190617-22:00:00|10=003|
8=FIX.4.4|9=59|35=0|34=3|49=001|50=001B27|52=20190614-19:36:57.683|56=EXC|10=067|
8=FIX.4.4|9=148|35=AJ|34=4|49=001|50=001B27|52=20190614-19:37:02.219|56=EXC|54=1|55=TFIC13280425|117=20190614-000000000020.00|693=201906141436171_AJ|694=1|762=RFQF|10=080|
8=FIX.4.4|9=0517|35=8|34=4|49=EXC|56=001|57=001B27|52=20190614-19:37:02.368|11=201906141436171_AJ|17=11|37=0|150=F|1080=20190614-000000000020.00|1081=5|453=6|448=001B27|447=C|452=12|448=001|447=C|452=1|448=002B35|447=C|452=37|448=002|447=C|452=17|448=001FCM001|447=C|452=36|448=DCV|447=C|452=10|55=TFIC13280425|762=RFQF|48=20626|22=M|6=79.431|14=500000000|31=79.431|32=500000000|38=500000000|39=2|20102=79.431|54=1|60=20190614-19:37:02.368|75=20190614|63=1|64=20190614|151=0|1623=4.000|381=397158000.000|880=201906140000000116|828=99|10=200|
8=FIX.4.4|9=126|35=j|34=5|49=001|50=001B27|52=20190614-19:37:12.331|56=EXC|45=4|58=Conditionally Required Field Missing, field=56|372=8|380=5|10=238|
8=FIX.4.4|9=0109|35=j|34=5|49=EXC|56=001|57=001B27|52=20190614-19:37:12.482|45=5|372=j|380=3|58=(1468): MsgType(#35) invalido|10=071|
8=FIX.4.4|9=105|35=A|34=1|49=001|50=001B27|52=20190614-19:37:48.309|56=EXC|98=0|108=30|141=Y|553=001FCM001|554=001FCM001|10=099|
8=FIX.4.4|9=0067|35=A|34=1|49=EXC|56=001|52=20190614-19:37:48.528|98=0|108=30|141=Y|10=023|
8=FIX.4.4|9=186|35=R|34=2|49=001|50=001B27|52=20190614-19:37:55.678|56=EXC|131=201906141437451_R|146=1|55=TFIC13280425|22=M|762=RFQF|54=1|38=500000000|453=2|448=002B35|447=C|452=37|448=DCV|447=C|452=10|10=092|
8=FIX.4.4|9=0268|35=AI|34=2|49=EXC|56=001|57=001B27|52=20190614-19:37:55.838|131=201906141437451_R|453=5|448=DCV|447=C|452=10|448=001B27|447=C|452=12|448=001|447=C|452=1|448=001FCM001|447=C|452=36|448=002B35|447=C|452=37|55=TFIC13280425|762=RFQF|48=20626|22=M|54=1|38=500000000|297=10|10=245|
8=FIX.4.4|9=0316|35=S|34=3|49=EXC|56=001|57=001B27|52=20190614-19:38:11.708|131=201906141437451_R|117=20190614-000000000021.00|55=TFIC13280425|762=RFQF|48=20626|22=M|453=5|448=DCV|447=C|452=10|448=001B27|447=C|452=12|448=001|447=C|452=1|448=001FCM001|447=C|452=36|448=002B35|447=C|452=37|634=4.000|135=500000000|62=20190617-22:00:00|10=001|
8=FIX.4.4|9=59|35=0|34=3|49=001|50=001B27|52=20190614-19:38:26.271|56=EXC|10=058|
8=FIX.4.4|9=148|35=AJ|34=4|49=001|50=001B27|52=20190614-19:38:30.335|56=EXC|54=1|55=TFIC13280425|117=20190614-000000000021.00|693=201906141437451_AJ|694=1|762=RFQF|10=084|
8=FIX.4.4|9=0517|35=8|34=4|49=EXC|56=001|57=001B27|52=20190614-19:38:30.502|11=201906141437451_AJ|17=12|37=0|150=F|1080=20190614-000000000021.00|1081=5|453=6|448=001B27|447=C|452=12|448=001|447=C|452=1|448=002B35|447=C|452=37|448=002|447=C|452=17|448=001FCM001|447=C|452=36|448=DCV|447=C|452=10|55=TFIC13280425|762=RFQF|48=20626|22=M|6=79.431|14=500000000|31=79.431|32=500000000|38=500000000|39=2|20102=79.431|54=1|60=20190614-19:38:30.502|75=20190614|63=1|64=20190614|151=0|1623=4.000|381=397158000.000|880=201906140000000117|828=99|10=189|
8=FIX.4.4|9=126|35=j|34=5|49=001|50=001B27|52=20190614-19:38:40.456|56=EXC|45=4|58=Conditionally Required Field Missing, field=56|372=8|380=5|10=248|
8=FIX.4.4|9=0109|35=j|34=5|49=EXC|56=001|57=001B27|52=20190614-19:38:40.625|45=5|372=j|380=3|58=(1468): MsgType(#35) invalido|10=072|
8=FIX.4.4|9=105|35=A|34=1|49=001|50=001B27|52=20190614-19:40:02.465|56=EXC|98=0|108=30|141=Y|553=001FCM001|554=001FCM001|10=086|
8=FIX.4.4|9=0067|35=A|34=1|49=EXC|56=001|52=20190614-19:40:02.720|98=0|108=30|141=Y|10=001|
8=FIX.4.4|9=186|35=R|34=2|49=001|50=001B27|52=20190614-19:40:09.816|56=EXC|131=201906141440001_R|146=1|55=TFIC13280425|22=M|762=RFQF|54=1|38=500000000|453=2|448=002B35|447=C|452=37|448=DCV|447=C|452=10|10=064|
8=FIX.4.4|9=0268|35=AI|34=2|49=EXC|56=001|57=001B27|52=20190614-19:40:10.004|131=201906141440001_R|453=5|448=DCV|447=C|452=10|448=001B27|447=C|452=12|448=001|447=C|452=1|448=001FCM001|447=C|452=36|448=002B35|447=C|452=37|55=TFIC13280425|762=RFQF|48=20626|22=M|54=1|38=500000000|297=10|10=200|
8=FIX.4.4|9=0316|35=S|34=3|49=EXC|56=001|57=001B27|52=20190614-19:40:26.462|131=201906141440001_R|117=20190614-000000000022.00|55=TFIC13280425|762=RFQF|48=20626|22=M|453=5|448=DCV|447=C|452=10|448=001B27|447=C|452=12|448=001|447=C|452=1|448=001FCM001|447=C|452=36|448=002B35|447=C|452=37|634=4.000|135=500000000|62=20190617-22:00:00|10=239|
8=FIX.4.4|9=59|35=0|34=3|49=001|50=001B27|52=20190614-19:40:40.436|56=EXC|10=050|
8=FIX.4.4|9=148|35=AJ|34=4|49=001|50=001B27|52=20190614-19:40:44.983|56=EXC|54=1|55=TFIC13280425|117=20190614-000000000022.00|693=201906141440001_AJ|694=1|762=RFQF|10=077|
8=FIX.4.4|9=0517|35=8|34=4|49=EXC|56=001|57=001B27|52=20190614-19:40:45.178|11=201906141440001_AJ|17=13|37=0|150=F|1080=20190614-000000000022.00|1081=5|453=6|448=001B27|447=C|452=12|448=001|447=C|452=1|448=002B35|447=C|452=37|448=002|447=C|452=17|448=001FCM001|447=C|452=36|448=DCV|447=C|452=10|55=TFIC13280425|762=RFQF|48=20626|22=M|6=79.431|14=500000000|31=79.431|32=500000000|38=500000000|39=2|20102=79.431|54=1|60=20190614-19:40:45.178|75=20190614|63=1|64=20190614|151=0|1623=4.000|381=397158000.000|880=201906140000000118|828=99|10=193|
8=FIX.4.4|9=126|35=j|34=5|49=001|50=001B27|52=20190614-19:40:55.218|56=EXC|45=4|58=Conditionally Required Field Missing, field=56|372=8|380=5|10=243|
8=FIX.4.4|9=0109|35=j|34=5|49=EXC|56=001|57=001B27|52=20190614-19:40:55.415|45=5|372=j|380=3|58=(1468): MsgType(#35) invalido|10=068|
8=FIX.4.4|9=105|35=A|34=1|49=001|50=001B27|52=20190614-19:44:43.476|56=EXC|98=0|108=30|141=Y|553=001FCM001|554=001FCM001|10=097|
8=FIX.4.4|9=0067|35=A|34=1|49=EXC|56=001|52=20190614-19:44:43.769|98=0|108=30|141=Y|10=023|
8=FIX.4.4|9=186|35=R|34=2|49=001|50=001B27|52=20190614-19:44:50.863|56=EXC|131=201906141444411_R|146=1|55=TFIC13280425|22=M|762=RFQF|54=1|38=500000000|453=2|448=002B35|447=C|452=37|448=DCV|447=C|452=10|10=075|
8=FIX.4.4|9=0268|35=AI|34=2|49=EXC|56=001|57=001B27|52=20190614-19:44:51.110|131=201906141444411_R|453=5|448=DCV|447=C|452=10|448=001B27|447=C|452=12|448=001|447=C|452=1|448=001FCM001|447=C|452=36|448=002B35|447=C|452=37|55=TFIC13280425|762=RFQF|48=20626|22=M|54=1|38=500000000|297=10|10=216|
8=FIX.4.4|9=0316|35=S|34=3|49=EXC|56=001|57=001B27|52=20190614-19:45:07.405|131=201906141444411_R|117=20190614-000000000023.00|55=TFIC13280425|762=RFQF|48=20626|22=M|453=5|448=DCV|447=C|452=10|448=001B27|447=C|452=12|448=001|447=C|452=1|448=001FCM001|447=C|452=36|448=002B35|447=C|452=37|634=4.000|135=500000000|62=20190617-22:00:00|10=250|
8=FIX.4.4|9=59|35=0|34=3|49=001|50=001B27|52=20190614-19:45:21.435|56=EXC|10=053|
8=FIX.4.4|9=148|35=AJ|34=4|49=001|50=001B27|52=20190614-19:45:26.005|56=EXC|54=1|55=TFIC13280425|117=20190614-000000000023.00|693=201906141444411_AJ|694=1|762=RFQF|10=077|
8=FIX.4.4|9=0517|35=8|34=4|49=EXC|56=001|57=001B27|52=20190614-19:45:26.260|11=201906141444411_AJ|17=14|37=0|150=F|1080=20190614-000000000023.00|1081=5|453=6|448=001B27|447=C|452=12|448=001|447=C|452=1|448=002B35|447=C|452=37|448=002|447=C|452=17|448=001FCM001|447=C|452=36|448=DCV|447=C|452=10|55=TFIC13280425|762=RFQF|48=20626|22=M|6=79.431|14=500000000|31=79.431|32=500000000|38=500000000|39=2|20102=79.431|54=1|60=20190614-19:45:26.260|75=20190614|63=1|64=20190614|151=0|1623=4.000|381=397158000.000|880=201906140000000119|828=99|10=197|
8=FIX.4.4|9=105|35=A|34=1|49=001|50=001B27|52=20190614-19:46:56.370|56=EXC|98=0|108=30|141=Y|553=001FCM001|554=001FCM001|10=096|
8=FIX.4.4|9=0067|35=A|34=1|49=EXC|56=001|52=20190614-19:46:56.702|98=0|108=30|141=Y|10=016|
8=FIX.4.4|9=186|35=R|34=2|49=001|50=001B27|52=20190614-19:47:03.709|56=EXC|131=201906141446531_R|146=1|55=TFIC13280425|22=M|762=RFQF|54=1|38=500000000|453=2|448=002B35|447=C|452=37|448=DCV|447=C|452=10|10=080|
8=FIX.4.4|9=0268|35=AI|34=2|49=EXC|56=001|57=001B27|52=20190614-19:47:03.986|131=201906141446531_R|453=5|448=DCV|447=C|452=10|448=001B27|447=C|452=12|448=001|447=C|452=1|448=001FCM001|447=C|452=36|448=002B35|447=C|452=37|55=TFIC13280425|762=RFQF|48=20626|22=M|54=1|38=500000000|297=10|10=242|
8=FIX.4.4|9=0316|35=S|34=3|49=EXC|56=001|57=001B27|52=20190614-19:47:20.235|131=201906141446531_R|117=20190614-000000000024.00|55=TFIC13280425|762=RFQF|48=20626|22=M|453=5|448=DCV|447=C|452=10|448=001B27|447=C|452=12|448=001|447=C|452=1|448=001FCM001|447=C|452=36|448=002B35|447=C|452=37|634=4.000|135=500000000|62=20190617-22:00:00|10=254|
8=FIX.4.4|9=59|35=0|34=3|49=001|50=001B27|52=20190614-19:47:34.340|56=EXC|10=054|
8=FIX.4.4|9=148|35=AJ|34=4|49=001|50=001B27|52=20190614-19:47:38.894|56=EXC|54=1|55=TFIC13280425|117=20190614-000000000024.00|693=201906141446531_AJ|694=1|762=RFQF|10=104|
8=FIX.4.4|9=0517|35=8|34=4|49=EXC|56=001|57=001B27|52=20190614-19:47:39.178|11=201906141446531_AJ|17=15|37=0|150=F|1080=20190614-000000000024.00|1081=5|453=6|448=001B27|447=C|452=12|448=001|447=C|452=1|448=002B35|447=C|452=37|448=002|447=C|452=17|448=001FCM001|447=C|452=36|448=DCV|447=C|452=10|55=TFIC13280425|762=RFQF|48=20626|22=M|6=79.431|14=500000000|31=79.431|32=500000000|38=500000000|39=2|20102=79.431|54=1|60=20190614-19:47:39.178|75=20190614|63=1|64=20190614|151=0|1623=4.000|381=397158000.000|880=201906140000000120|828=99|10=224|
8=FIX.4.4|9=126|35=j|34=5|49=001|50=001B27|52=20190614-19:47:49.202|56=EXC|45=4|58=Conditionally Required Field Missing, field=56|372=8|380=5|10=246|
8=FIX.4.4|9=0109|35=j|34=5|49=EXC|56=001|57=001B27|52=20190614-19:47:49.488|45=5|372=j|380=3|58=(1468): MsgType(#35) invalido|10=088|
8=FIX.4.4|9=105|35=A|34=1|49=001|50=001B27|52=20190614-19:49:02.169|56=EXC|98=0|108=30|141=Y|553=001FCM001|554=001FCM001|10=096|
8=FIX.4.4|9=0067|35=A|34=1|49=EXC|56=001|52=20190614-19:49:02.525|98=0|108=30|141=Y|10=013|
8=FIX.4.4|9=186|35=R|34=2|49=001|50=001B27|52=20190614-19:49:09.560|56=EXC|131=201906141448591_R|146=1|55=TFIC13280425|22=M|762=RFQF|54=1|38=500000000|453=2|448=002B35|447=C|452=37|448=DCV|447=C|452=10|10=091|
8=FIX.4.4|9=0268|35=AI|34=2|49=EXC|56=001|57=001B27|52=20190614-19:49:09.864|131=201906141448591_R|453=5|448=DCV|447=C|452=10|448=001B27|447=C|452=12|448=001|447=C|452=1|448=001FCM001|447=C|452=36|448=002B35|447=C|452=37|55=TFIC13280425|762=RFQF|48=20626|22=M|54=1|38=500000000|297=10|10=253|
8=FIX.4.4|9=0316|35=S|34=3|49=EXC|56=001|57=001B27|52=20190614-19:49:26.253|131=201906141448591_R|117=20190614-000000000025.00|55=TFIC13280425|762=RFQF|48=20626|22=M|453=5|448=DCV|447=C|452=10|448=001B27|447=C|452=12|448=001|447=C|452=1|448=001FCM001|447=C|452=36|448=002B35|447=C|452=37|634=4.000|135=500000000|62=20190617-22:00:00|10=015|
8=FIX.4.4|9=59|35=0|34=3|49=001|50=001B27|52=20190614-19:49:40.142|56=EXC|10=053|
8=FIX.4.4|9=148|35=AJ|34=4|49=001|50=001B27|52=20190614-19:49:44.823|56=EXC|54=1|55=TFIC13280425|117=20190614-000000000025.00|693=201906141448591_AJ|694=1|762=RFQF|10=104|
8=FIX.4.4|9=0517|35=8|34=4|49=EXC|56=001|57=001B27|52=20190614-19:49:45.136|11=201906141448591_AJ|17=16|37=0|150=F|1080=20190614-000000000025.00|1081=5|453=6|448=001B27|447=C|452=12|448=001|447=C|452=1|448=002B35|447=C|452=37|448=002|447=C|452=17|448=001FCM001|447=C|452=36|448=DCV|447=C|452=10|55=TFIC13280425|762=RFQF|48=20626|22=M|6=79.431|14=500000000|31=79.431|32=500000000|38=500000000|39=2|20102=79.431|54=1|60=20190614-19:49:45.136|75=20190614|63=1|64=20190614|151=0|1623=4.000|381=397158000.000|880=201906140000000121|828=99|10=221|
8=FIX.4.4|9=105|35=A|34=1|49=001|50=001B27|52=20190614-19:51:28.129|56=EXC|98=0|108=30|141=Y|553=001FCM001|554=001FCM001|10=093|
8=FIX.4.4|9=0067|35=A|34=1|49=EXC|56=001|52=20190614-19:51:28.510|98=0|108=30|141=Y|10=008|
8=FIX.4.4|9=186|35=R|34=2|49=001|50=001B27|52=20190614-19:51:35.430|56=EXC|131=201906141451251_R|146=1|55=TFIC13280425|22=M|762=RFQF|54=1|38=500000000|453=2|448=002B35|447=C|452=37|448=DCV|447=C|452=10|10=066|
8=FIX.4.4|9=0268|35=AI|34=2|49=EXC|56=001|57=001B27|52=20190614-19:51:35.767|131=201906141451251_R|453=5|448=DCV|447=C|452=10|448=001B27|447=C|452=12|448=001|447=C|452=1|448=001FCM001|447=C|452=36|448=002B35|447=C|452=37|55=TFIC13280425|762=RFQF|48=20626|22=M|54=1|38=500000000|297=10|10=234|
8=FIX.4.4|9=0316|35=S|34=3|49=EXC|56=001|57=001B27|52=20190614-19:51:52.562|131=201906141451251_R|117=20190614-000000000026.00|55=TFIC13280425|762=RFQF|48=20626|22=M|453=5|448=DCV|447=C|452=10|448=001B27|447=C|452=12|448=001|447=C|452=1|448=001FCM001|447=C|452=36|448=002B35|447=C|452=37|634=4.000|135=500000000|62=20190617-22:00:00|10=254|
8=FIX.4.4|9=59|35=0|34=3|49=001|50=001B27|52=20190614-19:52:06.085|56=EXC|10=055|
8=FIX.4.4|9=148|35=AJ|34=4|49=001|50=001B27|52=20190614-19:52:11.065|56=EXC|54=1|55=TFIC13280425|117=20190614-000000000026.00|693=201906141451251_AJ|694=1|762=RFQF|10=078|
8=FIX.4.4|9=0517|35=8|34=4|49=EXC|56=001|57=001B27|52=20190614-19:52:11.409|11=201906141451251_AJ|17=17|37=0|150=F|1080=20190614-000000000026.00|1081=5|453=6|448=001B27|447=C|452=12|448=001|447=C|452=1|448=002B35|447=C|452=37|448=002|447=C|452=17|448=001FCM001|447=C|452=36|448=DCV|447=C|452=10|55=TFIC13280425|762=RFQF|48=20626|22=M|6=79.431|14=500000000|31=79.431|32=500000000|38=500000000|39=2|20102=79.431|54=1|60=20190614-19:52:11.409|75=20190614|63=1|64=20190614|151=0|1623=4.000|381=397158000.000|880=201906140000000122|828=99|10=191|
8=FIX.4.4|9=105|35=A|34=1|49=001|50=001B27|52=20190614-19:54:33.425|56=EXC|98=0|108=30|141=Y|553=001FCM001|554=001FCM001|10=091|
8=FIX.4.4|9=0067|35=A|34=1|49=EXC|56=001|52=20190614-19:54:33.857|98=0|108=30|141=Y|10=021|
8=FIX.4.4|9=186|35=R|34=2|49=001|50=001B27|52=20190614-19:54:40.734|56=EXC|131=201906141454311_R|146=1|55=TFIC13280425|22=M|762=RFQF|54=1|38=500000000|453=2|448=002B35|447=C|452=37|448=DCV|447=C|452=10|10=072|
8=FIX.4.4|9=0268|35=AI|34=2|49=EXC|56=001|57=001B27|52=20190614-19:54:41.113|131=201906141454311_R|453=5|448=DCV|447=C|452=10|448=001B27|447=C|452=12|448=001|447=C|452=1|448=001FCM001|447=C|452=36|448=002B35|447=C|452=37|55=TFIC13280425|762=RFQF|48=20626|22=M|54=1|38=500000000|297=10|10=219|
8=FIX.4.4|9=0316|35=S|34=3|49=EXC|56=001|57=001B27|52=20190614-19:54:57.486|131=201906141454311_R|117=20190614-000000000027.00|55=TFIC13280425|762=RFQF|48=20626|22=M|453=5|448=DCV|447=C|452=10|448=001B27|447=C|452=12|448=001|447=C|452=1|448=001FCM001|447=C|452=36|448=002B35|447=C|452=37|634=4.000|135=500000000|62=20190617-22:00:00|10=012|
8=FIX.4.4|9=59|35=0|34=3|49=001|50=001B27|52=20190614-19:55:11.403|56=EXC|10=048|
8=FIX.4.4|9=148|35=AJ|34=4|49=001|50=001B27|52=20190614-19:55:15.938|56=EXC|54=1|55=TFIC13280425|117=20190614-000000000027.00|693=201906141454311_AJ|694=1|762=RFQF|10=095|
8=FIX.4.4|9=0517|35=8|34=4|49=EXC|56=001|57=001B27|52=20190614-19:55:16.324|11=201906141454311_AJ|17=18|37=0|150=F|1080=20190614-000000000027.00|1081=5|453=6|448=001B27|447=C|452=12|448=001|447=C|452=1|448=002B35|447=C|452=37|448=002|447=C|452=17|448=001FCM001|447=C|452=36|448=DCV|447=C|452=10|55=TFIC13280425|762=RFQF|48=20626|22=M|6=79.431|14=500000000|31=79.431|32=500000000|38=500000000|39=2|20102=79.431|54=1|60=20190614-19:55:16.324|75=20190614|63=1|64=20190614|151=0|1623=4.000|381=397158000.000|880=201906140000000128|828=99|10=207|
8=FIX.4.4|9=186|35=R|34=5|49=001|50=001B27|52=20190614-19:55:37.467|56=EXC|131=201906141454312_R|146=1|55=TFIT16280428|22=M|762=RFQF|54=1|38=500000000|453=2|448=002B35|447=C|452=37|448=DCV|447=C|452=10|10=109|
8=FIX.4.4|9=0268|35=AI|34=5|49=EXC|56=001|57=001B27|52=20190614-19:55:37.859|131=201906141454312_R|453=5|448=DCV|447=C|452=10|448=001B27|447=C|452=12|448=001|447=C|452=1|448=001FCM001|447=C|452=36|448=002B35|447=C|452=37|55=TFIT16280428|762=RFQF|48=20399|22=M|54=1|38=500000000|297=10|10=020|
8=FIX.4.4|9=105|35=A|34=1|49=001|50=001B27|52=20190614-20:01:11.357|56=EXC|98=0|108=30|141=Y|553=001FCM001|554=001FCM001|10=075|
8=FIX.4.4|9=0067|35=A|34=1|49=EXC|56=001|52=20190614-20:01:11.876|98=0|108=30|141=Y|10=002|
8=FIX.4.4|9=186|35=R|34=2|49=001|50=001B27|52=20190614-20:01:18.742|56=EXC|131=201906141501091_R|146=1|55=TFIC13280425|22=M|762=RFQF|54=1|38=500000000|453=2|448=002B35|447=C|452=37|448=DCV|447=C|452=10|10=058|
8=FIX.4.4|9=0268|35=AI|34=2|49=EXC|56=001|57=001B27|52=20190614-20:01:19.210|131=201906141501091_R|453=5|448=DCV|447=C|452=10|448=001B27|447=C|452=12|448=001|447=C|452=1|448=001FCM001|447=C|452=36|448=002B35|447=C|452=37|55=TFIC13280425|762=RFQF|48=20626|22=M|54=1|38=500000000|297=10|10=204|
8=FIX.4.4|9=0316|35=S|34=3|49=EXC|56=001|57=001B27|52=20190614-20:01:35.704|131=201906141501091_R|117=20190614-000000000029.00|55=TFIC13280425|762=RFQF|48=20626|22=M|453=5|448=DCV|447=C|452=10|448=001B27|447=C|452=12|448=001|447=C|452=1|448=001FCM001|447=C|452=36|448=002B35|447=C|452=37|634=4.000|135=500000000|62=20190617-22:00:00|10=241|
8=FIX.4.4|9=59|35=0|34=3|49=001|50=001B27|52=20190614-20:01:49.314|56=EXC|10=043|
8=FIX.4.4|9=148|35=AJ|34=4|49=001|50=001B27|52=20190614-20:01:54.065|56=EXC|54=1|55=TFIC13280425|117=20190614-000000000029.00|693=201906141501091_AJ|694=1|762=RFQF|10=072|
8=FIX.4.4|9=0517|35=8|34=4|49=EXC|56=001|57=001B27|52=20190614-20:01:54.541|11=201906141501091_AJ|17=19|37=0|150=F|1080=20190614-000000000029.00|1081=5|453=6|448=001B27|447=C|452=12|448=001|447=C|452=1|448=002B35|447=C|452=37|448=002|447=C|452=17|448=001FCM001|447=C|452=36|448=DCV|447=C|452=10|55=TFIC13280425|762=RFQF|48=20626|22=M|6=79.431|14=500000000|31=79.431|32=500000000|38=500000000|39=2|20102=79.431|54=1|60=20190614-20:01:54.541|75=20190614|63=1|64=20190614|151=0|1623=4.000|381=397158000.000|880=201906140000000136|828=99|10=179|
8=FIX.4.4|9=105|35=A|34=1|49=001|50=001B27|52=20190614-20:07:39.940|56=EXC|98=0|108=30|141=Y|553=001FCM001|554=001FCM001|10=089|
8=FIX.4.4|9=0067|35=A|34=1|49=EXC|56=001|52=20190614-20:07:40.538|98=0|108=30|141=Y|10=005|
8=FIX.4.4|9=186|35=R|34=2|49=001|50=001B27|52=20190614-20:07:47.245|56=EXC|131=201906141507371_R|146=1|55=TFIC13280425|22=M|762=RFQF|54=1|38=500000000|453=2|448=002B35|447=C|452=37|448=DCV|447=C|452=10|10=071|
8=FIX.4.4|9=0268|35=AI|34=2|49=EXC|56=001|57=001B27|52=20190614-20:07:47.801|131=201906141507371_R|453=5|448=DCV|447=C|452=10|448=001B27|447=C|452=12|448=001|447=C|452=1|448=001FCM001|447=C|452=36|448=002B35|447=C|452=37|55=TFIC13280425|762=RFQF|48=20626|22=M|54=1|38=500000000|297=10|10=224|
8=FIX.4.4|9=0316|35=S|34=3|49=EXC|56=001|57=001B27|52=20190614-20:08:04.049|131=201906141507371_R|117=20190614-000000000030.00|55=TFIC13280425|762=RFQF|48=20626|22=M|453=5|448=DCV|447=C|452=10|448=001B27|447=C|452=12|448=001|447=C|452=1|448=001FCM001|447=C|452=36|448=002B35|447=C|452=37|634=4.000|135=500000000|62=20190617-22:00:00|10=245|
8=FIX.4.4|9=59|35=0|34=3|49=001|50=001B27|52=20190614-20:08:17.915|56=EXC|10=052|
8=FIX.4.4|9=148|35=AJ|34=4|49=001|50=001B27|52=20190614-20:08:22.290|56=EXC|54=1|55=TFIC13280425|117=20190614-000000000030.00|693=201906141507371_AJ|694=1|762=RFQF|10=073|
8=FIX.4.4|9=0517|35=8|34=4|49=EXC|56=001|57=001B27|52=20190614-20:08:22.853|11=201906141507371_AJ|17=20|37=0|150=F|1080=20190614-000000000030.00|1081=5|453=6|448=001B27|447=C|452=12|448=001|447=C|452=1|448=002B35|447=C|452=37|448=002|447=C|452=17|448=001FCM001|447=C|452=36|448=DCV|447=C|452=10|55=TFIC13280425|762=RFQF|48=20626|22=M|6=79.431|14=500000000|31=79.431|32=500000000|38=500000000|39=2|20102=79.431|54=1|60=20190614-20:08:22.853|75=20190614|63=1|64=20190614|151=0|1623=4.000|381=397158000.000|880=201906140000000139|828=99|10=189|
8=FIX.4.4|9=186|35=R|34=5|49=001|50=001B27|52=20190614-20:08:43.584|56=EXC|131=201906141507372_R|146=1|55=TFIT16280428|22=M|762=RFQF|54=1|38=500000000|453=2|448=002B35|447=C|452=37|448=DCV|447=C|452=10|10=101|
8=FIX.4.4|9=0268|35=AI|34=5|49=EXC|56=001|57=001B27|52=20190614-20:08:44.152|131=201906141507372_R|453=5|448=DCV|447=C|452=10|448=001B27|447=C|452=12|448=001|447=C|452=1|448=001FCM001|447=C|452=36|448=002B35|447=C|452=37|55=TFIT16280428|762=RFQF|48=20399|22=M|54=1|38=500000000|297=10|10=255|
8=FIX.4.4|9=105|35=A|34=1|49=001|50=001B27|52=20190614-21:42:55.974|56=EXC|98=0|108=30|141=Y|553=001FCM001|554=001FCM001|10=094|
8=FIX.4.4|9=0067|35=A|34=1|49=EXC|56=001|52=20190614-21:42:56.235|98=0|108=30|141=Y|10=006|
8=FIX.4.4|9=186|35=R|34=2|49=001|50=001B27|52=20190614-21:43:03.429|56=EXC|131=201906141642531_R|146=1|55=TFIC13280425|22=M|762=RFQF|54=1|38=500000000|453=2|448=002B35|447=C|452=37|448=DCV|447=C|452=10|10=066|
8=FIX.4.4|9=0268|35=AI|34=2|49=EXC|56=001|57=001B27|52=20190614-21:43:03.627|131=201906141642531_R|453=5|448=DCV|447=C|452=10|448=001B27|447=C|452=12|448=001|447=C|452=1|448=001FCM001|447=C|452=36|448=002B35|447=C|452=37|55=TFIC13280425|762=RFQF|48=20626|22=M|54=1|38=500000000|297=10|10=221|
8=FIX.4.4|9=0316|35=S|34=3|49=EXC|56=001|57=001B27|52=20190614-21:43:20.338|131=201906141642531_R|117=20190614-000000000032.00|55=TFIC13280425|762=RFQF|48=20626|22=M|453=5|448=DCV|447=C|452=10|448=001B27|447=C|452=12|448=001|447=C|452=1|448=001FCM001|447=C|452=36|448=002B35|447=C|452=37|634=4.000|135=500000000|62=20190617-22:00:00|10=244|
8=FIX.4.4|9=59|35=0|34=3|49=001|50=001B27|52=20190614-21:43:33.928|56=EXC|10=054|
8=FIX.4.4|9=148|35=AJ|34=4|49=001|50=001B27|52=20190614-21:43:39.094|56=EXC|54=1|55=TFIC13280425|117=20190614-000000000032.00|693=201906141642531_AJ|694=1|762=RFQF|10=083|
8=FIX.4.4|9=0517|35=8|34=4|49=EXC|56=001|57=001B27|52=20190614-21:43:39.301|11=201906141642531_AJ|17=21|37=0|150=F|1080=20190614-000000000032.00|1081=5|453=6|448=001B27|447=C|452=12|448=001|447=C|452=1|448=002B35|447=C|452=37|448=002|447=C|452=17|448=001FCM001|447=C|452=36|448=DCV|447=C|452=10|55=TFIC13280425|762=RFQF|48=20626|22=M|6=79.431|14=500000000|31=79.431|32=500000000|38=500000000|39=2|20102=79.431|54=1|60=20190614-21:43:39.301|75=20190614|63=1|64=20190614|151=0|1623=4.000|381=397158000.000|880=201906140000000143|828=99|10=177|
8=FIX.4.4|9=77|35=A|34=1|49=001|50=001B27|52=20190614-22:06:36.715|56=EXC|98=0|108=30|141=Y|10=136|
8=FIX.4.4|9=77|35=A|34=1|49=001|50=001B27|52=20190614-22:07:38.660|56=EXC|98=0|108=30|141=Y|10=138|
8=FIX.4.4|9=105|35=A|34=1|49=001|50=001B27|52=20190614-22:07:58.532|56=EXC|98=0|108=30|141=Y|553=001FCM001|554=001FCM001|10=089|
8=FIX.4.4|9=0067|35=A|34=1|49=EXC|56=001|52=20190614-22:07:58.630|98=0|108=30|141=Y|10=009|
8=FIX.4.4|9=186|35=R|34=2|49=001|50=001B27|52=20190614-22:08:05.941|56=EXC|131=201906141707561_R|146=1|55=TFIC13280425|22=M|762=RFQF|54=1|38=500000000|453=2|448=002B35|447=C|452=37|448=DCV|447=C|452=10|10=074|
8=FIX.4.4|9=0268|35=AI|34=2|49=EXC|56=001|57=001B27|52=20190614-22:08:06.004|131=201906141707561_R|453=5|448=DCV|447=C|452=10|448=001B27|447=C|452=12|448=001|447=C|452=1|448=001FCM001|447=C|452=36|448=002B35|447=C|452=37|55=TFIC13280425|762=RFQF|48=20626|22=M|54=1|38=500000000|297=10|10=220|
8=FIX.4.4|9=105|35=A|34=1|49=001|50=001B27|52=20190614-22:13:24.828|56=EXC|98=0|108=30|141=Y|553=001FCM001|554=001FCM001|10=087|
8=FIX.4.4|9=0067|35=A|34=1|49=EXC|56=001|52=20190614-22:13:24.910|98=0|108=30|141=Y|10=000|
8=FIX.4.4|9=105|35=A|34=1|49=001|50=001B27|52=20190614-22:16:34.101|56=EXC|98=0|108=30|141=Y|553=001FCM001|554=001FCM001|10=075|
8=FIX.4.4|9=0067|35=A|34=1|49=EXC|56=001|52=20190614-22:16:34.243|98=0|108=30|141=Y|10=003|
8=FIX.4.4|9=186|35=R|34=2|49=001|50=001B27|52=20190614-22:16:41.719|56=EXC|131=201906141716311_R|146=1|55=TFIC13280425|22=M|762=RFQF|54=1|38=500000000|453=2|448=002B35|447=C|452=37|448=DCV|447=C|452=10|10=069|
8=FIX.4.4|9=0268|35=AI|34=2|49=EXC|56=001|57=001B27|52=20190614-22:16:41.808|131=201906141716311_R|453=5|448=DCV|447=C|452=10|448=001B27|447=C|452=12|448=001|447=C|452=1|448=001FCM001|447=C|452=36|448=002B35|447=C|452=37|55=TFIC13280425|762=RFQF|48=20626|22=M|54=1|38=500000000|297=10|10=223|
8=FIX.4.4|9=105|35=A|34=1|49=001|50=001B27|52=20190617-18:59:39.733|56=EXC|98=0|108=30|141=Y|553=001FCM001|554=001FCM001|10=106|
8=FIX.4.4|9=0067|35=A|34=1|49=EXC|56=001|52=20190617-18:59:39.454|98=0|108=30|141=Y|10=027|
8=FIX.4.4|9=186|35=R|34=2|49=001|50=001B27|52=20190617-18:59:47.332|56=EXC|131=201906171359361_R|146=1|55=TFIC13280425|22=M|762=RFQF|54=1|38=500000000|453=2|448=002B35|447=C|452=37|448=DCV|447=C|452=10|10=092|
8=FIX.4.4|9=0268|35=AI|34=2|49=EXC|56=001|57=001B27|52=20190617-18:59:46.916|131=201906171359361_R|453=5|448=DCV|447=C|452=10|448=001B27|447=C|452=12|448=001|447=C|452=1|448=001FCM001|447=C|452=36|448=002B35|447=C|452=37|55=TFIC13280425|762=RFQF|48=20626|22=M|54=1|38=500000000|297=10|10=254|
8=FIX.4.4|9=0316|35=S|34=3|49=EXC|56=001|57=001B27|52=20190617-19:00:02.681|131=201906171359361_R|117=20190617-000000000001.00|55=TFIC13280425|762=RFQF|48=20626|22=M|453=5|448=DCV|447=C|452=10|448=001B27|447=C|452=12|448=001|447=C|452=1|448=001FCM001|447=C|452=36|448=002B35|447=C|452=37|634=4.000|135=500000000|62=20190617-22:00:00|10=000|
8=FIX.4.4|9=59|35=0|34=3|49=001|50=001B27|52=20190617-19:00:17.680|56=EXC|10=054|
8=FIX.4.4|9=148|35=AJ|34=4|49=001|50=001B27|52=20190617-19:00:22.274|56=EXC|54=1|55=TFIC13280425|117=20190617-000000000001.00|693=201906171359361_AJ|694=1|762=RFQF|10=086|
8=FIX.4.4|9=0516|35=8|34=4|49=EXC|56=001|57=001B27|52=20190617-19:00:21.826|11=201906171359361_AJ|17=1|37=0|150=F|1080=20190617-000000000001.00|1081=5|453=6|448=001B27|447=C|452=12|448=001|447=C|452=1|448=002B35|447=C|452=37|448=002|447=C|452=17|448=001FCM001|447=C|452=36|448=DCV|447=C|452=10|55=TFIC13280425|762=RFQF|48=20626|22=M|6=79.457|14=500000000|31=79.457|32=500000000|38=500000000|39=2|20102=79.457|54=1|60=20190617-19:00:21.826|75=20190617|63=1|64=20190617|151=0|1623=4.000|381=397286000.000|880=201906170000000007|828=99|10=180|
8=FIX.4.4|9=186|35=R|34=5|49=001|50=001B27|52=20190617-19:00:43.921|56=EXC|131=201906171359362_R|146=1|55=TFIT16280428|22=M|762=RFQF|54=1|38=500000000|453=2|448=002B35|447=C|452=37|448=DCV|447=C|452=10|10=106|
8=FIX.4.4|9=0268|35=AI|34=5|49=EXC|56=001|57=001B27|52=20190617-19:00:43.454|131=201906171359362_R|453=5|448=DCV|447=C|452=10|448=001B27|447=C|452=12|448=001|447=C|452=1|448=001FCM001|447=C|452=36|448=002B35|447=C|452=37|55=TFIT16280428|762=RFQF|48=20399|22=M|54=1|38=500000000|297=10|10=013|
8=FIX.4.4|9=105|35=A|34=1|49=001|50=001B27|52=20190617-19:07:51.099|56=EXC|98=0|108=30|141=Y|553=001FCM001|554=001FCM001|10=099|
8=FIX.4.4|9=0067|35=A|34=1|49=EXC|56=001|52=20190617-19:07:50.504|98=0|108=30|141=Y|10=010|
8=FIX.4.4|9=162|35=R|34=2|49=001|50=001B27|52=20190617-19:08:03.816|56=EXC|131=201906171407481_R|146=1|55=TFIC13280425|22=M|762=RFQF|54=1|38=500000000|453=1|448=DCV|447=C|452=10|10=207|
8=FIX.4.4|9=0244|35=AI|34=2|49=EXC|56=001|57=001B27|52=20190617-19:08:03.173|131=201906171407481_R|453=4|448=DCV|447=C|452=10|448=001B27|447=C|452=12|448=001|447=C|452=1|448=001FCM001|447=C|452=36|55=TFIC13280425|762=RFQF|48=20626|22=M|54=1|38=500000000|297=10|10=102|
8=FIX.4.4|9=0191|35=R|34=3|49=EXC|56=001|52=20190617-19:08:03.173|131=20190617-000000000003.00|146=1|55=TFIC13280425|762=RFQF|48=20626|22=M|54=1|38=500000000|453=2|448=001B27|447=C|452=12|448=001|447=C|452=1|10=168|
8=FIX.4.4|9=0049|35=0|34=4|49=EXC|56=001|52=20190617-19:08:33.000|10=175|
8=FIX.4.4|9=59|35=0|34=3|49=001|50=001B27|52=20190617-19:08:34.041|56=EXC|10=052|
8=FIX.4.4|9=105|35=A|34=1|49=001|50=001B27|52=20190617-19:10:01.903|56=EXC|98=0|108=30|141=Y|553=001FCM001|554=001FCM001|10=082|
8=FIX.4.4|9=0067|35=A|34=1|49=EXC|56=001|52=20190617-19:10:01.310|98=0|108=30|141=Y|10=251|
8=FIX.4.4|9=186|35=R|34=2|49=001|50=001B27|52=20190617-19:10:09.222|56=EXC|131=201906171409591_R|146=1|55=TFIC13280425|22=M|762=RFQF|54=1|38=500000000|453=2|448=002B35|447=C|452=37|448=DCV|447=C|452=10|10=077|
8=FIX.4.4|9=0268|35=AI|34=2|49=EXC|56=001|57=001B27|52=20190617-19:10:08.578|131=201906171409591_R|453=5|448=DCV|447=C|452=10|448=001B27|447=C|452=12|448=001|447=C|452=1|448=001FCM001|447=C|452=36|448=002B35|447=C|452=37|55=TFIC13280425|762=RFQF|48=20626|22=M|54=1|38=500000000|297=10|10=245|
8=FIX.4.4|9=0316|35=S|34=3|49=EXC|56=001|57=001B27|52=20190617-19:10:24.619|131=201906171409591_R|117=20190617-000000000004.00|55=TFIC13280425|762=RFQF|48=20626|22=M|453=5|448=DCV|447=C|452=10|448=001B27|447=C|452=12|448=001|447=C|452=1|448=001FCM001|447=C|452=36|448=002B35|447=C|452=37|634=4.000|135=500000000|62=20190617-22:00:00|10=010|
8=FIX.4.4|9=105|35=A|34=1|49=001|50=001B27|52=20190617-19:11:54.100|56=EXC|98=0|108=30|141=Y|553=001FCM001|554=001FCM001|10=080|
8=FIX.4.4|9=0067|35=A|34=1|49=EXC|56=001|52=20190617-19:11:53.525|98=0|108=30|141=Y|10=011|
8=FIX.4.4|9=186|35=R|34=2|49=001|50=001B27|52=20190617-19:12:01.605|56=EXC|131=201906171411511_R|146=1|55=TFIC13280425|22=M|762=RFQF|54=1|38=500000000|453=2|448=002B35|447=C|452=37|448=DCV|447=C|452=10|10=061|
8=FIX.4.4|9=0268|35=AI|34=2|49=EXC|56=001|57=001B27|52=20190617-19:12:00.964|131=201906171411511_R|453=5|448=DCV|447=C|452=10|448=001B27|447=C|452=12|448=001|447=C|452=1|448=001FCM001|447=C|452=36|448=002B35|447=C|452=37|55=TFIC13280425|762=RFQF|48=20626|22=M|54=1|38=500000000|297=10|10=223|
8=FIX.4.4|9=0316|35=S|34=3|49=EXC|56=001|57=001B27|52=20190617-19:12:17.344|131=201906171411511_R|117=20190617-000000000006.00|55=TFIC13280425|762=RFQF|48=20626|22=M|453=5|448=DCV|447=C|452=10|448=001B27|447=C|452=12|448=001|447=C|452=1|448=001FCM001|447=C|452=36|448=002B35|447=C|452=37|634=4.000|135=500000000|62=20190617-22:00:00|10=252|
8=FIX.4.4|9=105|35=A|34=1|49=001|50=001B27|52=20190617-19:15:24.889|56=EXC|98=0|108=30|141=Y|553=001FCM001|554=001FCM001|10=105|
8=FIX.4.4|9=0067|35=A|34=1|49=EXC|56=001|52=20190617-19:15:24.518|98=0|108=30|141=Y|10=015|
8=FIX.4.4|9=186|35=R|34=2|49=001|50=001B27|52=20190617-19:15:32.269|56=EXC|131=201906171415221_R|146=1|55=TFIC13280425|22=M|762=RFQF|54=1|38=500000000|453=2|448=002B35|447=C|452=37|448=DCV|447=C|452=10|10=076|
8=FIX.4.4|9=0268|35=AI|34=2|49=EXC|56=001|57=001B27|52=20190617-19:15:31.823|131=201906171415221_R|453=5|448=DCV|447=C|452=10|448=001B27|447=C|452=12|448=001|447=C|452=1|448=001FCM001|447=C|452=36|448=002B35|447=C|452=37|55=TFIC13280425|762=RFQF|48=20626|22=M|54=1|38=500000000|297=10|10=226|
8=FIX.4.4|9=0316|35=S|34=3|49=EXC|56=001|57=001B27|52=20190617-19:15:47.678|131=201906171415221_R|117=20190617-000000000008.00|55=TFIC13280425|762=RFQF|48=20626|22=M|453=5|448=DCV|447=C|452=10|448=001B27|447=C|452=12|448=001|447=C|452=1|448=001FCM001|447=C|452=36|448=002B35|447=C|452=37|634=4.000|135=500000000|62=20190617-22:00:00|10=016|
8=FIX.4.4|9=59|35=0|34=3|49=001|50=001B27|52=20190617-19:16:02.834|56=EXC|10=056|
8=FIX.4.4|9=148|35=AJ|34=4|49=001|50=001B27|52=20190617-19:16:06.955|56=EXC|54=1|55=TFIC13280425|117=20190617-000000000008.00|693=201906171415221_AJ|694=1|762=RFQF|10=096|
8=FIX.4.4|9=0516|35=8|34=4|49=EXC|56=001|57=001B27|52=20190617-19:16:06.507|11=201906171415221_AJ|17=2|37=0|150=F|1080=20190617-000000000008.00|1081=5|453=6|448=001B27|447=C|452=12|448=001|447=C|452=1|448=002B35|447=C|452=37|448=002|447=C|452=17|448=001FCM001|447=C|452=36|448=DCV|447=C|452=10|55=TFIC13280425|762=RFQF|48=20626|22=M|6=79.457|14=500000000|31=79.457|32=500000000|38=500000000|39=2|20102=79.457|54=1|60=20190617-19:16:06.507|75=20190617|63=1|64=20190617|151=0|1623=4.000|381=397286000.000|880=201906170000000008|828=99|10=189|
8=FIX.4.4|9=105|35=A|34=1|49=001|50=001B27|52=20190617-19:20:20.201|56=EXC|98=0|108=30|141=Y|553=001FCM001|554=001FCM001|10=075|
8=FIX.4.4|9=0067|35=A|34=1|49=EXC|56=001|52=20190617-19:20:19.783|98=0|108=30|141=Y|10=019|
8=FIX.4.4|9=186|35=R|34=2|49=001|50=001B27|52=20190617-19:20:27.525|56=EXC|131=201906171420171_R|146=1|55=TFIC13280425|22=M|762=RFQF|54=1|38=500000000|453=2|448=002B35|447=C|452=37|448=DCV|447=C|452=10|10=071|
8=FIX.4.4|9=0268|35=AI|34=2|49=EXC|56=001|57=001B27|52=20190617-19:20:27.076|131=201906171420171_R|453=5|448=DCV|447=C|452=10|448=001B27|447=C|452=12|448=001|447=C|452=1|448=001FCM001|447=C|452=36|448=002B35|447=C|452=37|55=TFIC13280425|762=RFQF|48=20626|22=M|54=1|38=500000000|297=10|10=227|
8=FIX.4.4|9=0316|35=S|34=3|49=EXC|56=001|57=001B27|52=20190617-19:20:42.890|131=201906171420171_R|117=20190617-000000000009.00|55=TFIC13280425|762=RFQF|48=20626|22=M|453=5|448=DCV|447=C|452=10|448=001B27|447=C|452=12|448=001|447=C|452=1|448=001FCM001|447=C|452=36|448=002B35|447=C|452=37|634=4.000|135=500000000|62=20190617-22:00:00|10=004|
8=FIX.4.4|9=59|35=0|34=3|49=001|50=001B27|52=20190617-19:20:58.165|56=EXC|10=059|
8=FIX.4.4|9=148|35=AJ|34=4|49=001|50=001B27|52=20190617-19:21:02.050|56=EXC|54=1|55=TFIC13280425|117=20190617-000000000009.00|693=201906171420171_AJ|694=1|762=RFQF|10=075|
8=FIX.4.4|9=0516|35=8|34=4|49=EXC|56=001|57=001B27|52=20190617-19:21:01.600|11=201906171420171_AJ|17=3|37=0|150=F|1080=20190617-000000000009.00|1081=5|453=6|448=001B27|447=C|452=12|448=001|447=C|452=1|448=002B35|447=C|452=37|448=002|447=C|452=17|448=001FCM001|447=C|452=36|448=DCV|447=C|452=10|55=TFIC13280425|762=RFQF|48=20626|22=M|6=79.457|14=500000000|31=79.457|32=500000000|38=500000000|39=2|20102=79.457|54=1|60=20190617-19:21:01.600|75=20190617|63=1|64=20190617|151=0|1623=4.000|381=397286000.000|880=201906170000000009|828=99|10=162|
8=FIX.4.4|9=186|35=R|34=5|49=001|50=001B27|52=20190617-19:21:24.260|56=EXC|131=201906171420172_R|146=1|55=TFIT16280428|22=M|762=RFQF|54=1|38=500000000|453=2|448=002B35|447=C|452=37|448=DCV|447=C|452=10|10=092|
8=FIX.4.4|9=0268|35=AI|34=5|49=EXC|56=001|57=001B27|52=20190617-19:21:23.810|131=201906171420172_R|453=5|448=DCV|447=C|452=10|448=001B27|447=C|452=12|448=001|447=C|452=1|448=001FCM001|447=C|452=36|448=002B35|447=C|452=37|55=TFIT16280428|762=RFQF|48=20399|22=M|54=1|38=500000000|297=10|10=254|
8=FIX.4.4|9=105|35=A|34=1|49=001|50=001B27|52=20190617-19:23:57.019|56=EXC|98=0|108=30|141=Y|553=001FCM001|554=001FCM001|10=095|
8=FIX.4.4|9=0067|35=A|34=1|49=EXC|56=001|52=20190617-19:23:56.616|98=0|108=30|141=Y|10=018|
8=FIX.4.4|9=186|35=R|34=2|49=001|50=001B27|52=20190617-19:24:04.407|56=EXC|131=201906171423541_R|146=1|55=TFIC13280425|22=M|762=RFQF|54=1|38=500000000|453=2|448=002B35|447=C|452=37|448=DCV|447=C|452=10|10=073|
8=FIX.4.4|9=0268|35=AI|34=2|49=EXC|56=001|57=001B27|52=20190617-19:24:03.956|131=201906171423541_R|453=5|448=DCV|447=C|452=10|448=001B27|447=C|452=12|448=001|447=C|452=1|448=001FCM001|447=C|452=36|448=002B35|447=C|452=37|55=TFIC13280425|762=RFQF|48=20626|22=M|54=1|38=500000000|297=10|10=236|
8=FIX.4.4|9=0316|35=S|34=3|49=EXC|56=001|57=001B27|52=20190617-19:24:19.847|131=201906171423541_R|117=20190617-000000000011.00|55=TFIC13280425|762=RFQF|48=20626|22=M|453=5|448=DCV|447=C|452=10|448=001B27|447=C|452=12|448=001|447=C|452=1|448=001FCM001|447=C|452=36|448=002B35|447=C|452=37|634=4.000|135=500000000|62=20190617-22:00:00|10=011|
8=FIX.4.4|9=105|35=A|34=1|49=001|50=001B27|52=20190617-19:24:56.030|56=EXC|98=0|108=30|141=Y|553=001FCM001|554=001FCM001|10=088|
8=FIX.4.4|9=0067|35=A|34=1|49=EXC|56=001|52=20190617-19:24:55.646|98=0|108=30|141=Y|10=021|
8=FIX.4.4|9=186|35=R|34=2|49=001|50=001B27|52=20190617-19:25:03.339|56=EXC|131=201906171424531_R|146=1|55=TFIC13280425|22=M|762=RFQF|54=1|38=500000000|453=2|448=002B35|447=C|452=37|448=DCV|447=C|452=10|10=077|
8=FIX.4.4|9=0268|35=AI|34=2|49=EXC|56=001|57=001B27|52=20190617-19:25:02.887|131=201906171424531_R|453=5|448=DCV|447=C|452=10|448=001B27|447=C|452=12|448=001|447=C|452=1|448=001FCM001|447=C|452=36|448=002B35|447=C|452=37|55=TFIC13280425|762=RFQF|48=20626|22=M|54=1|38=500000000|297=10|10=239|
8=FIX.4.4|9=105|35=A|34=1|49=001|50=001B27|52=20190617-19:25:49.431|56=EXC|98=0|108=30|141=Y|553=001FCM001|554=001FCM001|10=096|
8=FIX.4.4|9=0067|35=A|34=1|49=EXC|56=001|52=20190617-19:25:49.010|98=0|108=30|141=Y|10=010|
8=FIX.4.4|9=186|35=R|34=2|49=001|50=001B27|52=20190617-19:25:56.809|56=EXC|131=201906171425471_R|146=1|55=TFIC13280425|22=M|762=RFQF|54=1|38=500000000|453=2|448=002B35|447=C|452=37|448=DCV|447=C|452=10|10=091|
8=FIX.4.4|9=0268|35=AI|34=2|49=EXC|56=001|57=001B27|52=20190617-19:25:56.358|131=201906171425471_R|453=5|448=DCV|447=C|452=10|448=001B27|447=C|452=12|448=001|447=C|452=1|448=001FCM001|447=C|452=36|448=002B35|447=C|452=37|55=TFIC13280425|762=RFQF|48=20626|22=M|54=1|38=500000000|297=10|10=245|
8=FIX.4.4|9=0316|35=S|34=3|49=EXC|56=001|57=001B27|52=20190617-19:26:12.157|131=201906171425471_R|117=20190617-000000000014.00|55=TFIC13280425|762=RFQF|48=20626|22=M|453=5|448=DCV|447=C|452=10|448=001B27|447=C|452=12|448=001|447=C|452=1|448=001FCM001|447=C|452=36|448=002B35|447=C|452=37|634=4.000|135=500000000|62=20190617-22:00:00|10=007|
8=FIX.4.4|9=59|35=0|34=3|49=001|50=001B27|52=20190617-19:26:27.406|56=EXC|10=059|
8=FIX.4.4|9=148|35=AJ|34=4|49=001|50=001B27|52=20190617-19:26:31.382|56=EXC|54=1|55=TFIC13280425|117=20190617-000000000014.00|693=201906171425471_AJ|694=1|762=RFQF|10=094|
8=FIX.4.4|9=0516|35=8|34=4|49=EXC|56=001|57=001B27|52=20190617-19:26:30.930|11=201906171425471_AJ|17=4|37=0|150=F|1080=20190617-000000000014.00|1081=5|453=6|448=001B27|447=C|452=12|448=001|447=C|452=1|448=002B35|447=C|452=37|448=002|447=C|452=17|448=001FCM001|447=C|452=36|448=DCV|447=C|452=10|55=TFIC13280425|762=RFQF|48=20626|22=M|6=79.457|14=500000000|31=79.457|32=500000000|38=500000000|39=2|20102=79.457|54=1|60=20190617-19:26:30.930|75=20190617|63=1|64=20190617|151=0|1623=4.000|381=397286000.000|880=201906170000000010|828=99|10=185|
8=FIX.4.4|9=186|35=R|34=5|49=001|50=001B27|52=20190617-19:26:53.718|56=EXC|131=201906171425472_R|146=1|55=TFIT16280428|22=M|762=RFQF|54=1|38=500000000|453=2|448=002B35|447=C|452=37|448=DCV|447=C|452=10|10=115|
8=FIX.4.4|9=0268|35=AI|34=5|49=EXC|56=001|57=001B27|52=20190617-19:26:53.267|131=201906171425472_R|453=5|448=DCV|447=C|452=10|448=001B27|447=C|452=12|448=001|447=C|452=1|448=001FCM001|447=C|452=36|448=002B35|447=C|452=37|55=TFIT16280428|762=RFQF|48=20399|22=M|54=1|38=500000000|297=10|10=020|
8=FIX.4.4|9=105|35=A|34=1|49=001|50=001B27|52=20190617-19:33:42.754|56=EXC|98=0|108=30|141=Y|553=001FCM001|554=001FCM001|10=096|
8=FIX.4.4|9=0067|35=A|34=1|49=EXC|56=001|52=20190617-19:33:42.626|98=0|108=30|141=Y|10=015|
8=FIX.4.4|9=0049|35=0|34=2|49=EXC|56=001|52=20190617-19:34:12.000|10=169|
8=FIX.4.4|9=59|35=0|34=2|49=001|50=001B27|52=20190617-19:34:13.726|56=EXC|10=057|
8=FIX.4.4|9=105|35=A|34=1|49=001|50=001B27|52=20190617-19:34:43.782|56=EXC|98=0|108=30|141=Y|553=001FCM001|554=001FCM001|10=099|
8=FIX.4.4|9=0067|35=A|34=1|49=EXC|56=001|52=20190617-19:34:43.639|98=0|108=30|141=Y|10=021|
8=FIX.4.4|9=105|35=A|34=1|49=001|50=001B27|52=20190617-19:38:30.416|56=EXC|98=0|108=30|141=Y|553=001FCM001|554=001FCM001|10=093|
8=FIX.4.4|9=0067|35=A|34=1|49=EXC|56=001|52=20190617-19:38:30.287|98=0|108=30|141=Y|10=020|
8=FIX.4.4|9=105|35=A|34=1|49=001|50=001B27|52=20190617-19:39:07.654|56=EXC|98=0|108=30|141=Y|553=001FCM001|554=001FCM001|10=102|
8=FIX.4.4|9=0067|35=A|34=1|49=EXC|56=001|52=20190617-19:39:07.509|98=0|108=30|141=Y|10=022|
8=FIX.4.4|9=186|35=R|34=2|49=001|50=001B27|52=20190617-19:39:14.985|56=EXC|131=201906171439051_R|146=1|55=TFIC13280425|22=M|762=RFQF|54=1|38=500000000|453=2|448=002B35|447=C|452=37|448=DCV|447=C|452=10|10=094|
8=FIX.4.4|9=0268|35=AI|34=2|49=EXC|56=001|57=001B27|52=20190617-19:39:14.810|131=201906171439051_R|453=5|448=DCV|447=C|452=10|448=001B27|447=C|452=12|448=001|447=C|452=1|448=001FCM001|447=C|452=36|448=002B35|447=C|452=37|55=TFIC13280425|762=RFQF|48=20626|22=M|54=1|38=500000000|297=10|10=236|
8=FIX.4.4|9=0316|35=S|34=3|49=EXC|56=001|57=001B27|52=20190617-19:39:30.808|131=201906171439051_R|117=20190617-000000000018.00|55=TFIC13280425|762=RFQF|48=20626|22=M|453=5|448=DCV|447=C|452=10|448=001B27|447=C|452=12|448=001|447=C|452=1|448=001FCM001|447=C|452=36|448=002B35|447=C|452=37|634=4.000|135=500000000|62=20190617-22:00:00|10=017|
8=FIX.4.4|9=59|35=0|34=3|49=001|50=001B27|52=20190617-19:39:45.624|56=EXC|10=065|
8=FIX.4.4|9=0049|35=0|34=4|49=EXC|56=001|52=20190617-19:40:00.000|10=165|
8=FIX.4.4|9=59|35=0|34=4|49=001|50=001B27|52=20190617-19:40:15.632|56=EXC|10=054|
8=FIX.4.4|9=105|35=A|34=1|49=001|50=001B27|52=20190617-19:44:36.918|56=EXC|98=0|108=30|141=Y|553=001FCM001|554=001FCM001|10=103|
8=FIX.4.4|9=0067|35=A|34=1|49=EXC|56=001|52=20190617-19:44:36.781|98=0|108=30|141=Y|10=022|
8=FIX.4.4|9=0049|35=0|34=2|49=EXC|56=001|52=20190617-19:45:06.000|10=174|
8=FIX.4.4|9=59|35=0|34=2|49=001|50=001B27|52=20190617-19:45:07.883|56=EXC|10=066|
8=FIX.4.4|9=105|35=A|34=1|49=001|50=001B27|52=20190617-19:45:34.811|56=EXC|98=0|108=30|141=Y|553=001FCM001|554=001FCM001|10=094|
8=FIX.4.4|9=0067|35=A|34=1|49=EXC|56=001|52=20190617-19:45:34.665|98=0|108=30|141=Y|10=022|
8=FIX.4.4|9=105|35=A|34=1|49=001|50=001B27|52=20190617-19:48:16.333|56=EXC|98=0|108=30|141=Y|553=001FCM001|554=001FCM001|10=096|
8=FIX.4.4|9=0067|35=A|34=1|49=EXC|56=001|52=20190617-19:48:16.227|98=0|108=30|141=Y|10=019|
8=FIX.4.4|9=0049|35=0|34=2|49=EXC|56=001|52=20190617-19:48:46.000|10=181|
8=FIX.4.4|9=59|35=0|34=2|49=001|50=001B27|52=20190617-19:48:47.305|56=EXC|10=062|
8=FIX.4.4|9=105|35=A|34=1|49=001|50=001B27|52=20190617-19:48:58.557|56=EXC|98=0|108=30|141=Y|553=001FCM001|554=001FCM001|10=110|
8=FIX.4.4|9=0067|35=A|34=1|49=EXC|56=001|52=20190617-19:48:58.409|98=0|108=30|141=Y|10=027|
8=FIX.4.4|9=186|35=R|34=2|49=001|50=001B27|52=20190617-19:49:05.924|56=EXC|131=201906171448561_R|146=1|55=TFIC13280425|22=M|762=RFQF|54=1|38=500000000|453=2|448=002B35|447=C|452=37|448=DCV|447=C|452=10|10=094|
8=FIX.4.4|9=0268|35=AI|34=2|49=EXC|56=001|57=001B27|52=20190617-19:49:05.745|131=201906171448561_R|453=5|448=DCV|447=C|452=10|448=001B27|447=C|452=12|448=001|447=C|452=1|448=001FCM001|447=C|452=36|448=002B35|447=C|452=37|55=TFIC13280425|762=RFQF|48=20626|22=M|54=1|38=500000000|297=10|10=250|
8=FIX.4.4|9=0316|35=S|34=3|49=EXC|56=001|57=001B27|52=20190617-19:49:21.690|131=201906171448561_R|117=20190617-000000000021.00|55=TFIC13280425|762=RFQF|48=20626|22=M|453=5|448=DCV|447=C|452=10|448=001B27|447=C|452=12|448=001|447=C|452=1|448=001FCM001|447=C|452=36|448=002B35|447=C|452=37|634=4.000|135=500000000|62=20190617-22:00:00|10=017|
8=FIX.4.4|9=59|35=0|34=3|49=001|50=001B27|52=20190617-19:49:36.530|56=EXC|10=062|
8=FIX.4.4|9=148|35=AJ|34=4|49=001|50=001B27|52=20190617-19:49:40.635|56=EXC|54=1|55=TFIC13280425|117=20190617-000000000021.00|693=201906171448561_AJ|694=1|762=RFQF|10=103|
8=FIX.4.4|9=0516|35=8|34=4|49=EXC|56=001|57=001B27|52=20190617-19:49:40.629|11=201906171448561_AJ|17=8|37=0|150=F|1080=20190617-000000000021.00|1081=5|453=6|448=001B27|447=C|452=12|448=001|447=C|452=1|448=002B35|447=C|452=37|448=002|447=C|452=17|448=001FCM001|447=C|452=36|448=DCV|447=C|452=10|55=TFIC13280425|762=RFQF|48=20626|22=M|6=79.457|14=500000000|31=79.457|32=500000000|38=500000000|39=2|20102=79.457|54=1|60=20190617-19:49:40.629|75=20190617|63=1|64=20190617|151=0|1623=4.000|381=397286000.000|880=201906170000000014|828=99|10=218|
8=FIX.4.4|9=186|35=R|34=5|49=001|50=001B27|52=20190617-19:50:02.197|56=EXC|131=201906171448562_R|146=1|55=TFIT16280428|22=M|762=RFQF|54=1|38=500000000|453=2|448=002B35|447=C|452=37|448=DCV|447=C|452=10|10=112|
8=FIX.4.4|9=0268|35=AI|34=5|49=EXC|56=001|57=001B27|52=20190617-19:50:02.195|131=201906171448562_R|453=5|448=DCV|447=C|452=10|448=001B27|447=C|452=12|448=001|447=C|452=1|448=001FCM001|447=C|452=36|448=002B35|447=C|452=37|55=TFIT16280428|762=RFQF|48=20399|22=M|54=1|38=500000000|297=10|10=016|
8=FIX.4.4|9=105|35=A|34=1|49=001|50=001B27|52=20190617-19:58:29.917|56=EXC|98=0|108=30|141=Y|553=001FCM001|554=001FCM001|10=109|
8=FIX.4.4|9=0067|35=A|34=1|49=EXC|56=001|52=20190617-19:58:30.046|98=0|108=30|141=Y|10=015|
8=FIX.4.4|9=186|35=R|34=2|49=001|50=001B27|52=20190617-19:58:37.312|56=EXC|131=201906171458271_R|146=1|55=TFIC13280425|22=M|762=RFQF|54=1|38=500000000|453=2|448=002B35|447=C|452=37|448=DCV|447=C|452=10|10=089|
8=FIX.4.4|9=0268|35=AI|34=2|49=EXC|56=001|57=001B27|52=20190617-19:58:37.385|131=201906171458271_R|453=5|448=DCV|447=C|452=10|448=001B27|447=C|452=12|448=001|447=C|452=1|448=001FCM001|447=C|452=36|448=002B35|447=C|452=37|55=TFIC13280425|762=RFQF|48=20626|22=M|54=1|38=500000000|297=10|10=254|
8=FIX.4.4|9=105|35=A|34=1|49=001|50=001B27|52=20190617-19:59:09.749|56=EXC|98=0|108=30|141=Y|553=001FCM001|554=001FCM001|10=111|
8=FIX.4.4|9=0067|35=A|34=1|49=EXC|56=001|52=20190617-19:59:09.870|98=0|108=30|141=Y|10=027|
8=FIX.4.4|9=186|35=R|34=2|49=001|50=001B27|52=20190617-19:59:17.094|56=EXC|131=201906171459071_R|146=1|55=TFIC13280425|22=M|762=RFQF|54=1|38=500000000|453=2|448=002B35|447=C|452=37|448=DCV|447=C|452=10|10=094|
8=FIX.4.4|9=0268|35=AI|34=2|49=EXC|56=001|57=001B27|52=20190617-19:59:17.172|131=201906171459071_R|453=5|448=DCV|447=C|452=10|448=001B27|447=C|452=12|448=001|447=C|452=1|448=001FCM001|447=C|452=36|448=002B35|447=C|452=37|55=TFIC13280425|762=RFQF|48=20626|22=M|54=1|38=500000000|297=10|10=246|
8=FIX.4.4|9=0316|35=S|34=3|49=EXC|56=001|57=001B27|52=20190617-19:59:33.061|131=201906171459071_R|117=20190617-000000000026.00|55=TFIC13280425|762=RFQF|48=20626|22=M|453=5|448=DCV|447=C|452=10|448=001B27|447=C|452=12|448=001|447=C|452=1|448=001FCM001|447=C|452=36|448=002B35|447=C|452=37|634=4.000|135=500000000|62=20190617-22:00:00|10=016|
8=FIX.4.4|9=59|35=0|34=3|49=001|50=001B27|52=20190617-19:59:47.722|56=EXC|10=068|
8=FIX.4.4|9=148|35=AJ|34=4|49=001|50=001B27|52=20190617-19:59:51.714|56=EXC|54=1|55=TFIC13280425|117=20190617-000000000026.00|693=201906171459071_AJ|694=1|762=RFQF|10=107|
8=FIX.4.4|9=0517|35=8|34=4|49=EXC|56=001|57=001B27|52=20190617-19:59:51.797|11=201906171459071_AJ|17=10|37=0|150=F|1080=20190617-000000000026.00|1081=5|453=6|448=001B27|447=C|452=12|448=001|447=C|452=1|448=002B35|447=C|452=37|448=002|447=C|452=17|448=001FCM001|447=C|452=36|448=DCV|447=C|452=10|55=TFIC13280425|762=RFQF|48=20626|22=M|6=79.457|14=500000000|31=79.457|32=500000000|38=500000000|39=2|20102=79.457|54=1|60=20190617-19:59:51.797|75=20190617|63=1|64=20190617|151=0|1623=4.000|381=397286000.000|880=201906170000000016|828=99|10=027|
8=FIX.4.4|9=0049|35=0|34=5|49=EXC|56=001|52=20190617-20:00:21.000|10=157|
8=FIX.4.4|9=59|35=0|34=5|49=001|50=001B27|52=20190617-20:00:21.722|56=EXC|10=040|
8=FIX.4.4|9=0049|35=0|34=6|49=EXC|56=001|52=20190617-20:00:51.000|10=161|
8=FIX.4.4|9=59|35=0|34=6|49=001|50=001B27|52=20190617-20:00:51.723|56=EXC|10=045|
8=FIX.4.4|9=105|35=A|34=1|49=001|50=001B27|52=20190617-20:01:41.591|56=EXC|98=0|108=30|141=Y|553=001FCM001|554=001FCM001|10=081|
8=FIX.4.4|9=0067|35=A|34=1|49=EXC|56=001|52=20190617-20:01:41.737|98=0|108=30|141=Y|10=004|
8=FIX.4.4|9=186|35=R|34=2|49=001|50=001B27|52=20190617-20:01:48.953|56=EXC|131=201906171501391_R|146=1|55=TFIC13280425|22=M|762=RFQF|54=1|38=500000000|453=2|448=002B35|447=C|452=37|448=DCV|447=C|452=10|10=074|
8=FIX.4.4|9=0268|35=AI|34=2|49=EXC|56=001|57=001B27|52=20190617-20:01:49.054|131=201906171501391_R|453=5|448=DCV|447=C|452=10|448=001B27|447=C|452=12|448=001|447=C|452=1|448=001FCM001|447=C|452=36|448=002B35|447=C|452=37|55=TFIC13280425|762=RFQF|48=20626|22=M|54=1|38=500000000|297=10|10=222|
8=FIX.4.4|9=0316|35=S|34=3|49=EXC|56=001|57=001B27|52=20190617-20:02:04.862|131=201906171501391_R|117=20190617-000000000027.00|55=TFIC13280425|762=RFQF|48=20626|22=M|453=5|448=DCV|447=C|452=10|448=001B27|447=C|452=12|448=001|447=C|452=1|448=001FCM001|447=C|452=36|448=002B35|447=C|452=37|634=4.000|135=500000000|62=20190617-22:00:00|10=253|
8=FIX.4.4|9=59|35=0|34=3|49=001|50=001B27|52=20190617-20:02:19.551|56=EXC|10=047|
8=FIX.4.4|9=148|35=AJ|34=4|49=001|50=001B27|52=20190617-20:02:23.592|56=EXC|54=1|55=TFIC13280425|117=20190617-000000000027.00|693=201906171501391_AJ|694=1|762=RFQF|10=084|
8=FIX.4.4|9=0517|35=8|34=4|49=EXC|56=001|57=001B27|52=20190617-20:02:23.698|11=201906171501391_AJ|17=11|37=0|150=F|1080=20190617-000000000027.00|1081=5|453=6|448=001B27|447=C|452=12|448=001|447=C|452=1|448=002B35|447=C|452=37|448=002|447=C|452=17|448=001FCM001|447=C|452=36|448=DCV|447=C|452=10|55=TFIC13280425|762=RFQF|48=20626|22=M|6=79.457|14=500000000|31=79.457|32=500000000|38=500000000|39=2|20102=79.457|54=1|60=20190617-20:02:23.698|75=20190617|63=1|64=20190617|151=0|1623=4.000|381=397286000.000|880=201906170000000017|828=99|10=237|
8=FIX.4.4|9=186|35=R|34=5|49=001|50=001B27|52=20190617-20:02:45.357|56=EXC|131=201906171501392_R|146=1|55=TFIT16280428|22=M|762=RFQF|54=1|38=500000000|453=2|448=002B35|447=C|452=37|448=DCV|447=C|452=10|10=097|
8=FIX.4.4|9=0268|35=AI|34=5|49=EXC|56=001|57=001B27|52=20190617-20:02:45.466|131=201906171501392_R|453=5|448=DCV|447=C|452=10|448=001B27|447=C|452=12|448=001|447=C|452=1|448=001FCM001|447=C|452=36|448=002B35|447=C|452=37|55=TFIT16280428|762=RFQF|48=20399|22=M|54=1|38=500000000|297=10|10=004|
8=FIX.4.4|9=0316|35=S|34=6|49=EXC|56=001|57=001B27|52=20190617-20:03:06.280|131=201906171501392_R|117=20190617-000000000028.00|55=TFIT16280428|762=RFQF|48=20399|22=M|453=5|448=DCV|447=C|452=10|448=001B27|447=C|452=12|448=001|447=C|452=1|448=001FCM001|447=C|452=36|448=002B35|447=C|452=37|634=3.000|135=500000000|62=20190617-22:00:00|10=028|
8=FIX.4.4|9=59|35=0|34=6|49=001|50=001B27|52=20190617-20:03:15.551|56=EXC|10=047|
8=FIX.4.4|9=0094|35=Z|34=7|49=EXC|56=001|57=001B27|52=20190617-20:03:24.984|117=20190617-000000000028.00|298=5|10=086|
8=FIX.4.4|9=186|35=R|34=7|49=001|50=001B27|52=20190617-20:03:43.652|56=EXC|131=201906171501393_R|146=1|55=TFIT16300632|22=M|762=RFQF|54=1|38=500000000|453=2|448=002B35|447=C|452=37|448=DCV|447=C|452=10|10=087|
8=FIX.4.4|9=0268|35=AI|34=8|49=EXC|56=001|57=001B27|52=20190617-20:03:43.770|131=201906171501393_R|453=5|448=DCV|447=C|452=10|448=001B27|447=C|452=12|448=001|447=C|452=1|448=001FCM001|447=C|452=36|448=002B35|447=C|452=37|55=TFIT16300632|762=RFQF|48=20406|22=M|54=1|38=500000000|297=10|10=240|
8=FIX.4.4|9=178|35=R|34=8|49=001|50=001B27|52=20190617-20:04:04.381|56=EXC|131=201906171501393_R|146=1|55=TFIT16300632|22=M|762=RFQF|54=1|38=0|453=2|448=002B35|447=C|452=37|448=DCV|447=C|452=10|10=209|
8=FIX.4.4|9=0268|35=AI|34=9|49=EXC|56=001|57=001B27|52=20190617-20:04:04.501|131=201906171501393_R|453=5|448=DCV|447=C|452=10|448=001B27|447=C|452=12|448=001|447=C|452=1|448=001FCM001|447=C|452=36|448=002B35|447=C|452=37|55=TFIT16300632|762=RFQF|48=20406|22=M|54=1|38=500000000|297=17|10=238|
8=FIX.4.4|9=162|35=R|34=9|49=001|50=001B27|52=20190617-20:04:25.216|56=EXC|131=201906171501394_R|146=1|55=TFIT06211118|22=M|762=RFQF|54=1|38=500000000|453=1|448=DCV|447=C|452=10|10=210|
8=FIX.4.4|9=0156|35=AG|34=10|49=EXC|56=001|57=001B27|52=20190617-20:04:25.339|131=201906171501394_R|658=1|146=1|55=TFIT06211118|762=RFQF|22=M|58=(1479): Simbolo desconocido|10=214|
8=FIX.4.4|9=188|35=R|34=10|49=001|50=001B27|52=20190617-20:04:38.827|56=EXC|131=201906171501395_R|146=1|55=TFIT06110919|22=M|762=RFQF|54=1|38=1000000000|453=2|448=002B35|447=C|452=37|448=DCV|447=C|452=10|10=192|
8=FIX.4.4|9=0270|35=AI|34=11|49=EXC|56=001|57=001B27|52=20190617-20:04:38.953|131=201906171501395_R|453=5|448=DCV|447=C|452=10|448=001B27|447=C|452=12|448=001|447=C|452=1|448=001FCM001|447=C|452=36|448=002B35|447=C|452=37|55=TFIT06110919|762=RFQF|48=20320|22=M|54=1|38=1000000000|297=10|10=074|
8=FIX.4.4|9=0050|35=0|34=12|49=EXC|56=001|52=20190617-20:05:08.000|10=205|
8=FIX.4.4|9=60|35=0|34=11|49=001|50=001B27|52=20190617-20:05:09.550|56=EXC|10=087|
8=FIX.4.4|9=0050|35=0|34=13|49=EXC|56=001|52=20190617-20:05:38.000|10=209|
8=FIX.4.4|9=60|35=0|34=12|49=001|50=001B27|52=20190617-20:05:39.550|56=EXC|10=091|
8=FIX.4.4|9=0050|35=0|34=14|49=EXC|56=001|52=20190617-20:06:08.000|10=208|
8=FIX.4.4|9=60|35=0|34=13|49=001|50=001B27|52=20190617-20:06:09.550|56=EXC|10=090|
8=FIX.4.4|9=0050|35=0|34=15|49=EXC|56=001|52=20190617-20:06:38.000|10=212|
8=FIX.4.4|9=60|35=0|34=14|49=001|50=001B27|52=20190617-20:06:39.551|56=EXC|10=095|
8=FIX.4.4|9=0050|35=0|34=16|49=EXC|56=001|52=20190617-20:07:08.000|10=211|
8=FIX.4.4|9=60|35=0|34=15|49=001|50=001B27|52=20190617-20:07:09.551|56=EXC|10=094|
8=FIX.4.4|9=105|35=A|34=1|49=001|50=001B27|52=20190617-20:07:41.293|56=EXC|98=0|108=30|141=Y|553=001FCM001|554=001FCM001|10=086|
8=FIX.4.4|9=0067|35=A|34=1|49=EXC|56=001|52=20190617-20:07:41.499|98=0|108=30|141=Y|10=015|
8=FIX.4.4|9=187|35=R|34=2|49=001|50=001B27|52=20190617-20:07:48.668|56=EXC|131=201906171507395_R|146=1|55=TFIT06110919|22=M|762=RFQF|54=1|38=1000000000|453=2|448=002B35|447=C|452=37|448=DCV|447=C|452=10|10=157|
8=FIX.4.4|9=0269|35=AI|34=2|49=EXC|56=001|57=001B27|52=20190617-20:07:48.820|131=201906171507395_R|453=5|448=DCV|447=C|452=10|448=001B27|447=C|452=12|448=001|447=C|452=1|448=001FCM001|447=C|452=36|448=002B35|447=C|452=37|55=TFIT06110919|762=RFQF|48=20320|22=M|54=1|38=1000000000|297=10|10=037|
8=FIX.4.4|9=105|35=A|34=1|49=001|50=001B27|52=20190617-20:08:53.972|56=EXC|98=0|108=30|141=Y|553=001FCM001|554=001FCM001|10=094|
8=FIX.4.4|9=0067|35=A|34=1|49=EXC|56=001|52=20190617-20:08:54.166|98=0|108=30|141=Y|10=011|
8=FIX.4.4|9=187|35=R|34=2|49=001|50=001B27|52=20190617-20:09:01.347|56=EXC|131=201906171508515_R|146=1|55=TFIT06110919|22=M|762=RFQF|54=1|38=1000000000|453=2|448=002B35|447=C|452=37|448=DCV|447=C|452=10|10=137|
8=FIX.4.4|9=0269|35=AI|34=2|49=EXC|56=001|57=001B27|52=20190617-20:09:01.511|131=201906171508515_R|453=5|448=DCV|447=C|452=10|448=001B27|447=C|452=12|448=001|447=C|452=1|448=001FCM001|447=C|452=36|448=002B35|447=C|452=37|55=TFIT06110919|762=RFQF|48=20320|22=M|54=1|38=1000000000|297=10|10=020|
8=FIX.4.4|9=105|35=A|34=1|49=001|50=001B27|52=20190617-20:10:08.341|56=EXC|98=0|108=30|141=Y|553=001FCM001|554=001FCM001|10=077|
8=FIX.4.4|9=0067|35=A|34=1|49=EXC|56=001|52=20190617-20:10:08.767|98=0|108=30|141=Y|10=010|
8=FIX.4.4|9=0192|35=R|34=2|49=EXC|56=001|52=20190617-20:10:16.026|131=20190617-000000000033.00|146=1|55=TFIT15260826|762=RFQF|48=20348|22=M|54=1|38=1500000000|453=2|448=007B26|447=C|452=12|448=007|447=C|452=1|10=240|
8=FIX.4.4|9=59|35=0|34=2|49=001|50=001B27|52=20190617-20:10:39.323|56=EXC|10=044|
8=FIX.4.4|9=0183|35=R|34=3|49=EXC|56=001|52=20190617-20:10:40.862|131=20190617-000000000033.00|146=1|55=TFIT15260826|762=RFQF|48=20348|22=M|54=1|38=0|453=2|448=007B26|447=C|452=12|448=007|447=C|452=1|10=064|
8=FIX.4.4|9=59|35=0|34=3|49=001|50=001B27|52=20190617-20:11:09.322|56=EXC|10=042|
8=FIX.4.4|9=0049|35=0|34=4|49=EXC|56=001|52=20190617-20:11:10.000|10=156|
8=FIX.4.4|9=162|35=R|34=4|49=001|50=001B27|52=20190617-20:11:32.479|56=EXC|131=201906171510067_R|146=1|55=TFIC14280426|22=M|762=RFQF|54=1|38=500000000|453=1|448=DCV|447=C|452=10|10=199|
8=FIX.4.4|9=0244|35=AI|34=5|49=EXC|56=001|57=001B27|52=20190617-20:11:32.665|131=201906171510067_R|453=4|448=DCV|447=C|452=10|448=001B27|447=C|452=12|448=001|447=C|452=1|448=001FCM001|447=C|452=36|55=TFIC14280426|762=RFQF|48=20602|22=M|54=1|38=500000000|297=10|10=090|
8=FIX.4.4|9=0191|35=R|34=6|49=EXC|56=001|52=20190617-20:11:32.665|131=20190617-000000000034.00|146=1|55=TFIC14280426|762=RFQF|48=20602|22=M|54=1|38=500000000|453=2|448=001B27|447=C|452=12|448=001|447=C|452=1|10=165|
8=FIX.4.4|9=141|35=R|34=5|49=001|50=001B27|52=20190617-20:11:56.743|56=EXC|131=201906171510068_R|146=1|55=TFIT16180930|22=M|762=RFQF|54=1|38=500000000|453=0|10=194|
8=FIX.4.4|9=0161|35=AG|34=7|49=EXC|56=001|57=001B27|52=20190617-20:11:56.932|131=201906171510068_R|658=99|146=1|55=TFIT16180930|762=RFQF|22=M|58=(962): Deposito no fue ingresada|10=175|
8=FIX.4.4|9=0049|35=0|34=8|49=EXC|56=001|52=20190617-20:12:26.000|10=168|
8=FIX.4.4|9=59|35=0|34=6|49=001|50=001B27|52=20190617-20:12:27.322|56=EXC|10=046|
8=FIX.4.4|9=105|35=A|34=1|49=001|50=001B27|52=20190617-20:24:12.324|56=EXC|98=0|108=30|141=Y|553=001FCM001|554=001FCM001|10=078|
8=FIX.4.4|9=0067|35=A|34=1|49=EXC|56=001|52=20190617-20:24:12.298|98=0|108=30|141=Y|10=009|
8=FIX.4.4|9=187|35=R|34=2|49=001|50=001B27|52=20190617-20:24:19.843|56=EXC|131=201906171524095_R|146=1|55=TFIT06110919|22=M|762=RFQF|54=1|38=1000000000|453=2|448=002B35|447=C|452=37|448=DCV|447=C|452=10|10=145|
8=FIX.4.4|9=0269|35=AI|34=2|49=EXC|56=001|57=001B27|52=20190617-20:24:19.405|131=201906171524095_R|453=5|448=DCV|447=C|452=10|448=001B27|447=C|452=12|448=001|447=C|452=1|448=001FCM001|447=C|452=36|448=002B35|447=C|452=37|55=TFIT06110919|762=RFQF|48=20320|22=M|54=1|38=1000000000|297=10|10=029|
8=FIX.4.4|9=105|35=A|34=1|49=001|50=001B27|52=20190617-20:40:00.294|56=EXC|98=0|108=30|141=Y|553=001FCM001|554=001FCM001|10=079|
8=FIX.4.4|9=0067|35=A|34=1|49=EXC|56=001|52=20190617-20:40:00.025|98=0|108=30|141=Y|10=248|
8=FIX.4.4|9=105|35=A|34=1|49=001|50=001B27|52=20190617-20:41:47.094|56=EXC|98=0|108=30|141=Y|553=001FCM001|554=001FCM001|10=089|
8=FIX.4.4|9=0067|35=A|34=1|49=EXC|56=001|52=20190617-20:41:46.977|98=0|108=30|141=Y|10=019|
8=FIX.4.4|9=105|35=A|34=1|49=001|50=001B27|52=20190617-20:42:59.909|56=EXC|98=0|108=30|141=Y|553=001FCM001|554=001FCM001|10=098|
8=FIX.4.4|9=0067|35=A|34=1|49=EXC|56=001|52=20190617-20:42:59.841|98=0|108=30|141=Y|10=014|
