8=FIX.4.4|9=107|35=A|34=1|49=|50=001B27|52=20190508-18:54:26.919|56=EXC|43=Y|98=0|108=30|141=Y|553=001FCM001|554=001FCM001|10=213|
8=FIX.4.4|9=107|35=A|34=1|49=|50=001B27|52=20190508-18:55:26.862|56=EXC|43=Y|98=0|108=30|141=Y|553=001FCM001|554=001FCM001|10=211|
8=FIX.4.4|9=107|35=A|34=1|49=|50=001B27|52=20190508-18:56:26.845|56=EXC|43=Y|98=0|108=30|141=Y|553=001FCM001|554=001FCM001|10=213|
8=FIX.4.4|9=107|35=A|34=1|49=|50=001B27|52=20190508-18:57:26.853|56=EXC|43=Y|98=0|108=30|141=Y|553=001FCM001|554=001FCM001|10=213|
8=FIX.4.4|9=107|35=A|34=1|49=|50=001B27|52=20190508-18:58:24.065|56=EXC|43=Y|98=0|108=30|141=Y|553=001FCM001|554=001FCM001|10=207|
8=FIX.4.4|9=107|35=A|34=1|49=|50=001B27|52=20190508-18:59:23.999|56=EXC|43=Y|98=0|108=30|141=Y|553=001FCM001|554=001FCM001|10=223|
8=FIX.4.4|9=107|35=A|34=1|49=|50=001B27|52=20190508-19:00:24.004|56=EXC|43=Y|98=0|108=30|141=Y|553=001FCM001|554=001FCM001|10=188|
8=FIX.4.4|9=107|35=A|34=1|49=|50=001B27|52=20190508-19:01:24.004|56=EXC|43=Y|98=0|108=30|141=Y|553=001FCM001|554=001FCM001|10=189|
8=FIX.4.4|9=107|35=A|34=1|49=|50=001B27|52=20190508-19:02:23.993|56=EXC|43=Y|98=0|108=30|141=Y|553=001FCM001|554=001FCM001|10=206|
8=FIX.4.4|9=107|35=A|34=1|49=|50=001B27|52=20190508-19:05:42.928|56=EXC|43=Y|98=0|108=30|141=Y|553=001FCM001|554=001FCM001|10=208|
8=FIX.4.4|9=107|35=A|34=1|49=|50=001B27|52=20190508-19:06:42.864|56=EXC|43=Y|98=0|108=30|141=Y|553=001FCM001|554=001FCM001|10=208|
8=FIX.4.4|9=107|35=A|34=1|49=|50=001B27|52=20190508-19:07:42.868|56=EXC|43=Y|98=0|108=30|141=Y|553=001FCM001|554=001FCM001|10=213|
8=FIX.4.4|9=107|35=A|34=1|49=|50=001B27|52=20190508-19:08:42.859|56=EXC|43=Y|98=0|108=30|141=Y|553=001FCM001|554=001FCM001|10=214|
8=FIX.4.4|9=107|35=A|34=1|49=|50=001B27|52=20190508-19:09:42.865|56=EXC|43=Y|98=0|108=30|141=Y|553=001FCM001|554=001FCM001|10=212|
8=FIX.4.4|9=107|35=A|34=1|49=|50=001B27|52=20190508-19:10:42.862|56=EXC|43=Y|98=0|108=30|141=Y|553=001FCM001|554=001FCM001|10=201|
8=FIX.4.4|9=101|35=A|34=2|49=|50=001B27|52=20190508-19:11:23.517|56=EXC|43=Y|98=0|108=30|553=001FCM001|554=001FCM001|10=148|
8=FIX.4.4|9=107|35=A|34=1|49=|50=001B27|52=20190508-19:11:48.489|56=EXC|43=Y|98=0|108=30|141=Y|553=001FCM001|554=001FCM001|10=213|
8=FIX.4.4|9=107|35=A|34=1|49=|50=001B27|52=20190508-19:12:48.483|56=EXC|43=Y|98=0|108=30|141=Y|553=001FCM001|554=001FCM001|10=208|
8=FIX.4.4|9=107|35=A|34=1|49=|50=001B27|52=20190508-19:14:41.449|56=EXC|43=Y|98=0|108=30|141=Y|553=001FCM001|554=001FCM001|10=205|
8=FIX.4.4|9=107|35=A|34=1|49=|50=001B27|52=20190508-19:15:47.574|56=EXC|43=Y|98=0|108=30|141=Y|553=001FCM001|554=001FCM001|10=211|
8=FIX.4.4|9=107|35=A|34=1|49=|50=001B27|52=20190508-19:16:47.557|56=EXC|43=Y|98=0|108=30|141=Y|553=001FCM001|554=001FCM001|10=213|
8=FIX.4.4|9=107|35=A|34=1|49=|50=001B27|52=20190509-13:22:08.714|56=EXC|43=Y|98=0|108=30|141=Y|553=001FCM001|554=001FCM001|10=197|
