8=FIX.4.4|9=105|35=A|34=1|49=013|50=013B17|52=20190613-23:20:40.275|56=EXC|98=0|108=30|141=Y|553=013FCM001|554=013FCM001|10=090|
8=FIX.4.4|9=0067|35=A|34=1|49=EXC|56=013|52=20190613-23:20:39.888|98=0|108=30|141=Y|10=021|
8=FIX.4.4|9=0049|35=0|34=2|49=EXC|56=013|52=20190613-23:21:09.000|10=165|
8=FIX.4.4|9=105|35=A|34=1|49=013|50=013B17|52=20190613-23:32:29.995|56=EXC|98=0|108=30|141=Y|553=013FCM001|554=013FCM001|10=109|
8=FIX.4.4|9=0067|35=A|34=1|49=EXC|56=013|52=20190613-23:32:29.303|98=0|108=30|141=Y|10=005|
8=FIX.4.4|9=0049|35=0|34=2|49=EXC|56=013|52=20190613-23:32:59.000|10=172|
8=FIX.4.4|9=59|35=0|34=2|49=013|50=013B17|52=20190613-23:33:00.875|56=EXC|10=053|
8=FIX.4.4|9=105|35=A|34=1|49=013|50=013B17|52=20190613-23:41:59.676|56=EXC|98=0|108=30|141=Y|553=013FCM001|554=013FCM001|10=108|
8=FIX.4.4|9=0067|35=A|34=1|49=EXC|56=013|52=20190613-23:41:59.004|98=0|108=30|141=Y|10=006|
8=FIX.4.4|9=105|35=A|34=1|49=013|50=013B17|52=20190613-23:44:32.690|56=EXC|98=0|108=30|141=Y|553=013FCM001|554=013FCM001|10=098|
8=FIX.4.4|9=0067|35=A|34=1|49=EXC|56=013|52=20190613-23:44:32.019|98=0|108=30|141=Y|10=006|
8=FIX.4.4|9=0049|35=0|34=2|49=EXC|56=013|52=20190613-23:45:02.000|10=164|
8=FIX.4.4|9=59|35=0|34=2|49=013|50=013B17|52=20190613-23:45:02.722|56=EXC|10=049|
8=FIX.4.4|9=105|35=A|34=1|49=013|50=013B17|52=20190614-12:59:00.662|56=EXC|98=0|108=30|141=Y|553=013FCM001|554=013FCM001|10=097|
8=FIX.4.4|9=0067|35=A|34=1|49=EXC|56=013|52=20190614-12:59:01.054|98=0|108=30|141=Y|10=006|
8=FIX.4.4|9=105|35=A|34=1|49=013|50=013B17|52=20190614-13:07:54.109|56=EXC|98=0|108=30|141=Y|553=013FCM001|554=013FCM001|10=096|
8=FIX.4.4|9=0067|35=A|34=1|49=EXC|56=013|52=20190614-13:07:53.547|98=0|108=30|141=Y|10=014|
8=FIX.4.4|9=105|35=A|34=1|49=013|50=013B17|52=20190614-13:13:22.227|56=EXC|98=0|108=30|141=Y|553=013FCM001|554=013FCM001|10=089|
8=FIX.4.4|9=0067|35=A|34=1|49=EXC|56=013|52=20190614-13:13:22.215|98=0|108=30|141=Y|10=255|
8=FIX.4.4|9=105|35=A|34=1|49=013|50=013B17|52=20190614-13:15:43.121|56=EXC|98=0|108=30|141=Y|553=013FCM001|554=013FCM001|10=087|
8=FIX.4.4|9=0067|35=A|34=1|49=EXC|56=013|52=20190614-13:15:43.298|98=0|108=30|141=Y|10=015|
8=FIX.4.4|9=105|35=A|34=1|49=013|50=013B17|52=20190614-13:23:21.584|56=EXC|98=0|108=30|141=Y|553=013FCM001|554=013FCM001|10=095|
8=FIX.4.4|9=0067|35=A|34=1|49=EXC|56=013|52=20190614-13:23:21.880|98=0|108=30|141=Y|10=007|
8=FIX.4.4|9=105|35=A|34=1|49=013|50=013B17|52=20190614-13:24:35.158|56=EXC|98=0|108=30|141=Y|553=013FCM001|554=013FCM001|10=098|
8=FIX.4.4|9=0067|35=A|34=1|49=EXC|56=013|52=20190614-13:24:35.230|98=0|108=30|141=Y|10=002|
8=FIX.4.4|9=105|35=A|34=1|49=013|50=013B17|52=20190614-13:30:40.081|56=EXC|98=0|108=30|141=Y|553=013FCM001|554=013FCM001|10=086|
8=FIX.4.4|9=0067|35=A|34=1|49=EXC|56=013|52=20190614-13:30:40.181|98=0|108=30|141=Y|10=000|
8=FIX.4.4|9=0049|35=0|34=2|49=EXC|56=013|52=20190614-13:31:10.000|10=158|
8=FIX.4.4|9=59|35=0|34=2|49=013|50=013B17|52=20190614-13:31:11.011|56=EXC|10=035|
8=FIX.4.4|9=0049|35=0|34=3|49=EXC|56=013|52=20190614-13:31:40.000|10=162|
8=FIX.4.4|9=59|35=0|34=3|49=013|50=013B17|52=20190614-13:31:41.011|56=EXC|10=039|
8=FIX.4.4|9=105|35=A|34=1|49=013|50=013B17|52=20190614-13:39:25.984|56=EXC|98=0|108=30|141=Y|553=013FCM001|554=013FCM001|10=110|
8=FIX.4.4|9=0067|35=A|34=1|49=EXC|56=013|52=20190614-13:39:26.225|98=0|108=30|141=Y|10=012|
8=FIX.4.4|9=105|35=A|34=1|49=013|50=013B17|52=20190614-13:40:47.060|56=EXC|98=0|108=30|141=Y|553=013FCM001|554=013FCM001|10=091|
8=FIX.4.4|9=0067|35=A|34=1|49=EXC|56=013|52=20190614-13:40:47.326|98=0|108=30|141=Y|10=009|
8=FIX.4.4|9=105|35=A|34=1|49=013|50=013B17|52=20190614-13:50:36.459|56=EXC|98=0|108=30|141=Y|553=013FCM001|554=013FCM001|10=102|
8=FIX.4.4|9=0067|35=A|34=1|49=EXC|56=013|52=20190614-13:50:36.882|98=0|108=30|141=Y|10=015|
8=FIX.4.4|9=105|35=A|34=1|49=013|50=013B17|52=20190614-13:53:30.028|56=EXC|98=0|108=30|141=Y|553=013FCM001|554=013FCM001|10=091|
8=FIX.4.4|9=0067|35=A|34=1|49=EXC|56=013|52=20190614-13:53:30.496|98=0|108=30|141=Y|10=013|
8=FIX.4.4|9=0049|35=0|34=2|49=EXC|56=013|52=20190614-13:54:00.000|10=162|
8=FIX.4.4|9=59|35=0|34=2|49=013|50=013B17|52=20190614-13:54:00.977|56=EXC|10=059|
8=FIX.4.4|9=0049|35=0|34=3|49=EXC|56=013|52=20190614-13:54:30.000|10=166|
8=FIX.4.4|9=59|35=0|34=3|49=013|50=013B17|52=20190614-13:54:30.977|56=EXC|10=063|
8=FIX.4.4|9=0049|35=0|34=4|49=EXC|56=013|52=20190614-13:55:00.000|10=165|
8=FIX.4.4|9=59|35=0|34=4|49=013|50=013B17|52=20190614-13:55:00.978|56=EXC|10=063|
8=FIX.4.4|9=0049|35=0|34=5|49=EXC|56=013|52=20190614-13:55:30.000|10=169|
8=FIX.4.4|9=59|35=0|34=5|49=013|50=013B17|52=20190614-13:55:30.977|56=EXC|10=066|
8=FIX.4.4|9=0049|35=0|34=6|49=EXC|56=013|52=20190614-13:56:00.000|10=168|
8=FIX.4.4|9=59|35=0|34=6|49=013|50=013B17|52=20190614-13:56:00.977|56=EXC|10=065|
8=FIX.4.4|9=0049|35=0|34=7|49=EXC|56=013|52=20190614-13:56:30.000|10=172|
8=FIX.4.4|9=59|35=0|34=7|49=013|50=013B17|52=20190614-13:56:30.978|56=EXC|10=070|
8=FIX.4.4|9=0049|35=0|34=8|49=EXC|56=013|52=20190614-13:57:00.000|10=171|
8=FIX.4.4|9=59|35=0|34=8|49=013|50=013B17|52=20190614-13:57:00.977|56=EXC|10=068|
8=FIX.4.4|9=0049|35=0|34=9|49=EXC|56=013|52=20190614-13:57:30.000|10=175|
8=FIX.4.4|9=59|35=0|34=9|49=013|50=013B17|52=20190614-13:57:30.977|56=EXC|10=072|
8=FIX.4.4|9=0050|35=0|34=10|49=EXC|56=013|52=20190614-13:58:00.000|10=205|
8=FIX.4.4|9=60|35=0|34=10|49=013|50=013B17|52=20190614-13:58:00.977|56=EXC|10=102|
8=FIX.4.4|9=0050|35=0|34=11|49=EXC|56=013|52=20190614-13:58:30.000|10=209|
8=FIX.4.4|9=60|35=0|34=11|49=013|50=013B17|52=20190614-13:58:30.977|56=EXC|10=106|
8=FIX.4.4|9=0050|35=0|34=12|49=EXC|56=013|52=20190614-13:59:00.000|10=208|
8=FIX.4.4|9=60|35=0|34=12|49=013|50=013B17|52=20190614-13:59:00.978|56=EXC|10=106|
8=FIX.4.4|9=0050|35=0|34=13|49=EXC|56=013|52=20190614-13:59:30.000|10=212|
8=FIX.4.4|9=60|35=0|34=13|49=013|50=013B17|52=20190614-13:59:30.977|56=EXC|10=109|
8=FIX.4.4|9=0050|35=0|34=14|49=EXC|56=013|52=20190614-14:00:00.000|10=197|
8=FIX.4.4|9=60|35=0|34=14|49=013|50=013B17|52=20190614-14:00:00.977|56=EXC|10=094|
8=FIX.4.4|9=0050|35=0|34=15|49=EXC|56=013|52=20190614-14:00:30.000|10=201|
8=FIX.4.4|9=60|35=0|34=15|49=013|50=013B17|52=20190614-14:00:30.977|56=EXC|10=098|
8=FIX.4.4|9=0050|35=0|34=16|49=EXC|56=013|52=20190614-14:01:00.000|10=200|
8=FIX.4.4|9=60|35=0|34=16|49=013|50=013B17|52=20190614-14:01:00.978|56=EXC|10=098|
8=FIX.4.4|9=105|35=A|34=1|49=013|50=013B17|52=20190614-14:01:16.549|56=EXC|98=0|108=30|141=Y|553=013FCM001|554=013FCM001|10=097|
8=FIX.4.4|9=0067|35=A|34=1|49=EXC|56=013|52=20190614-14:01:17.142|98=0|108=30|141=Y|10=000|
8=FIX.4.4|9=0049|35=0|34=2|49=EXC|56=013|52=20190614-14:01:47.000|10=166|
8=FIX.4.4|9=59|35=0|34=2|49=013|50=013B17|52=20190614-14:01:47.493|56=EXC|10=056|
8=FIX.4.4|9=105|35=A|34=1|49=013|50=013B17|52=20190614-14:34:22.658|56=EXC|98=0|108=30|141=Y|553=013FCM001|554=013FCM001|10=101|
8=FIX.4.4|9=0067|35=A|34=1|49=EXC|56=013|52=20190614-14:34:22.944|98=0|108=30|141=Y|10=012|
8=FIX.4.4|9=0049|35=0|34=2|49=EXC|56=013|52=20190614-14:34:52.000|10=168|
8=FIX.4.4|9=59|35=0|34=2|49=013|50=013B17|52=20190614-14:34:53.560|56=EXC|10=054|
8=FIX.4.4|9=105|35=A|34=1|49=013|50=013B17|52=20190614-14:35:28.051|56=EXC|98=0|108=30|141=Y|553=013FCM001|554=013FCM001|10=095|
8=FIX.4.4|9=0067|35=A|34=1|49=EXC|56=013|52=20190614-14:35:28.348|98=0|108=30|141=Y|10=017|
8=FIX.4.4|9=105|35=A|34=1|49=013|50=013B17|52=20190614-14:36:05.102|56=EXC|98=0|108=30|141=Y|553=013FCM001|554=013FCM001|10=088|
8=FIX.4.4|9=0067|35=A|34=1|49=EXC|56=013|52=20190614-14:36:05.408|98=0|108=30|141=Y|10=010|
8=FIX.4.4|9=105|35=A|34=1|49=013|50=013B17|52=20190614-14:39:40.332|56=EXC|98=0|108=30|141=Y|553=013FCM001|554=013FCM001|10=095|
8=FIX.4.4|9=0067|35=A|34=1|49=EXC|56=013|52=20190614-14:39:40.705|98=0|108=30|141=Y|10=012|
8=FIX.4.4|9=0049|35=0|34=2|49=EXC|56=013|52=20190614-14:40:10.000|10=159|
8=FIX.4.4|9=59|35=0|34=2|49=013|50=013B17|52=20190614-14:40:11.081|56=EXC|10=043|
8=FIX.4.4|9=105|35=A|34=1|49=013|50=013B17|52=20190614-14:41:47.128|56=EXC|98=0|108=30|141=Y|553=013FCM001|554=013FCM001|10=098|
8=FIX.4.4|9=0067|35=A|34=1|49=EXC|56=013|52=20190614-14:41:47.533|98=0|108=30|141=Y|10=011|
8=FIX.4.4|9=105|35=A|34=1|49=013|50=013B17|52=20190614-14:42:23.845|56=EXC|98=0|108=30|141=Y|553=013FCM001|554=013FCM001|10=099|
8=FIX.4.4|9=0067|35=A|34=1|49=EXC|56=013|52=20190614-14:42:24.261|98=0|108=30|141=Y|10=005|
8=FIX.4.4|9=0049|35=0|34=2|49=EXC|56=013|52=20190614-14:42:54.000|10=169|
8=FIX.4.4|9=59|35=0|34=2|49=013|50=013B17|52=20190614-14:42:54.780|56=EXC|10=058|
8=FIX.4.4|9=105|35=A|34=1|49=013|50=013B17|52=20190614-14:47:56.684|56=EXC|98=0|108=30|141=Y|553=013FCM001|554=013FCM001|10=111|
8=FIX.4.4|9=0067|35=A|34=1|49=EXC|56=013|52=20190614-14:47:56.879|98=0|108=30|141=Y|10=030|
8=FIX.4.4|9=105|35=A|34=1|49=013|50=013B17|52=20190614-14:49:37.469|56=EXC|98=0|108=30|141=Y|553=013FCM001|554=013FCM001|10=113|
8=FIX.4.4|9=0067|35=A|34=1|49=EXC|56=013|52=20190614-14:49:37.687|98=0|108=30|141=Y|10=028|
8=FIX.4.4|9=105|35=A|34=1|49=013|50=013B17|52=20190614-15:26:35.959|56=EXC|98=0|108=30|141=Y|553=013FCM001|554=013FCM001|10=111|
8=FIX.4.4|9=0067|35=A|34=1|49=EXC|56=013|52=20190614-15:26:35.815|98=0|108=30|141=Y|10=015|
8=FIX.4.4|9=105|35=A|34=1|49=013|50=013B17|52=20190614-16:53:44.404|56=EXC|98=0|108=30|141=Y|553=013FCM001|554=013FCM001|10=097|
8=FIX.4.4|9=0067|35=A|34=1|49=EXC|56=013|52=20190614-16:53:44.254|98=0|108=30|141=Y|10=013|
8=FIX.4.4|9=0049|35=0|34=2|49=EXC|56=013|52=20190614-16:54:14.000|10=170|
8=FIX.4.4|9=59|35=0|34=2|49=013|50=013B17|52=20190614-16:54:15.314|56=EXC|10=053|
8=FIX.4.4|9=0049|35=0|34=3|49=EXC|56=013|52=20190614-16:54:44.000|10=174|
8=FIX.4.4|9=59|35=0|34=3|49=013|50=013B17|52=20190614-16:54:45.313|56=EXC|10=056|
8=FIX.4.4|9=105|35=A|34=1|49=013|50=013B17|52=20190614-17:03:19.966|56=EXC|98=0|108=30|141=Y|553=013FCM001|554=013FCM001|10=108|
8=FIX.4.4|9=0067|35=A|34=1|49=EXC|56=013|52=20190614-17:03:19.942|98=0|108=30|141=Y|10=015|
8=FIX.4.4|9=0049|35=0|34=2|49=EXC|56=013|52=20190614-17:03:49.000|10=173|
8=FIX.4.4|9=59|35=0|34=2|49=013|50=013B17|52=20190614-17:03:50.916|56=EXC|10=055|
8=FIX.4.4|9=0049|35=0|34=3|49=EXC|56=013|52=20190614-17:04:19.000|10=172|
8=FIX.4.4|9=59|35=0|34=3|49=013|50=013B17|52=20190614-17:04:20.915|56=EXC|10=053|
8=FIX.4.4|9=105|35=A|34=1|49=013|50=013B17|52=20190614-17:05:55.706|56=EXC|98=0|108=30|141=Y|553=013FCM001|554=013FCM001|10=102|
8=FIX.4.4|9=0067|35=A|34=1|49=EXC|56=013|52=20190614-17:05:55.394|98=0|108=30|141=Y|10=018|
8=FIX.4.4|9=0049|35=0|34=2|49=EXC|56=013|52=20190614-17:06:25.000|10=170|
8=FIX.4.4|9=59|35=0|34=2|49=013|50=013B17|52=20190614-17:06:26.658|56=EXC|10=064|
8=FIX.4.4|9=0049|35=0|34=3|49=EXC|56=013|52=20190614-17:06:55.000|10=174|
8=FIX.4.4|9=59|35=0|34=3|49=013|50=013B17|52=20190614-17:06:56.658|56=EXC|10=068|
8=FIX.4.4|9=105|35=A|34=1|49=013|50=013B17|52=20190614-18:35:54.331|56=EXC|98=0|108=30|141=Y|553=013FCM001|554=013FCM001|10=099|
8=FIX.4.4|9=0067|35=A|34=1|49=EXC|56=013|52=20190614-18:35:54.369|98=0|108=30|141=Y|10=023|
8=FIX.4.4|9=0049|35=0|34=2|49=EXC|56=013|52=20190614-18:36:24.000|10=173|
8=FIX.4.4|9=59|35=0|34=2|49=013|50=013B17|52=20190614-18:36:25.293|56=EXC|10=062|
8=FIX.4.4|9=0049|35=0|34=3|49=EXC|56=013|52=20190614-18:36:54.000|10=177|
8=FIX.4.4|9=59|35=0|34=3|49=013|50=013B17|52=20190614-18:36:55.292|56=EXC|10=065|
8=FIX.4.4|9=105|35=A|34=1|49=013|50=013B17|52=20190614-18:37:58.208|56=EXC|98=0|108=30|141=Y|553=013FCM001|554=013FCM001|10=108|
8=FIX.4.4|9=0067|35=A|34=1|49=EXC|56=013|52=20190614-18:37:58.260|98=0|108=30|141=Y|10=019|
8=FIX.4.4|9=0049|35=0|34=2|49=EXC|56=013|52=20190614-18:38:28.000|10=179|
8=FIX.4.4|9=59|35=0|34=2|49=013|50=013B17|52=20190614-18:38:29.153|56=EXC|10=063|
8=FIX.4.4|9=0049|35=0|34=3|49=EXC|56=013|52=20190614-18:38:58.000|10=183|
8=FIX.4.4|9=59|35=0|34=3|49=013|50=013B17|52=20190614-18:38:59.154|56=EXC|10=068|
8=FIX.4.4|9=0049|35=0|34=4|49=EXC|56=013|52=20190614-18:39:28.000|10=182|
8=FIX.4.4|9=59|35=0|34=4|49=013|50=013B17|52=20190614-18:39:29.153|56=EXC|10=066|
8=FIX.4.4|9=0049|35=0|34=5|49=EXC|56=013|52=20190614-18:39:58.000|10=186|
8=FIX.4.4|9=59|35=0|34=5|49=013|50=013B17|52=20190614-18:39:59.153|56=EXC|10=070|
8=FIX.4.4|9=0049|35=0|34=6|49=EXC|56=013|52=20190614-18:40:28.000|10=176|
8=FIX.4.4|9=59|35=0|34=6|49=013|50=013B17|52=20190614-18:40:29.153|56=EXC|10=060|
8=FIX.4.4|9=0049|35=0|34=7|49=EXC|56=013|52=20190614-18:40:58.000|10=180|
8=FIX.4.4|9=59|35=0|34=7|49=013|50=013B17|52=20190614-18:40:59.154|56=EXC|10=065|
8=FIX.4.4|9=105|35=A|34=1|49=013|50=013B17|52=20190614-18:43:05.850|56=EXC|98=0|108=30|141=Y|553=013FCM001|554=013FCM001|10=100|
8=FIX.4.4|9=0067|35=A|34=1|49=EXC|56=013|52=20190614-18:43:05.978|98=0|108=30|141=Y|10=024|
8=FIX.4.4|9=0049|35=0|34=2|49=EXC|56=013|52=20190614-18:43:35.000|10=173|
8=FIX.4.4|9=59|35=0|34=2|49=013|50=013B17|52=20190614-18:43:36.740|56=EXC|10=059|
8=FIX.4.4|9=0049|35=0|34=3|49=EXC|56=013|52=20190614-18:44:05.000|10=172|
8=FIX.4.4|9=105|35=A|34=1|49=013|50=013B17|52=20190614-19:03:34.990|56=EXC|98=0|108=30|141=Y|553=013FCM001|554=013FCM001|10=104|
8=FIX.4.4|9=0067|35=A|34=1|49=EXC|56=013|52=20190614-19:03:35.072|98=0|108=30|141=Y|10=009|
8=FIX.4.4|9=0049|35=0|34=2|49=EXC|56=013|52=20190614-19:04:05.000|10=168|
8=FIX.4.4|9=59|35=0|34=2|49=013|50=013B17|52=20190614-19:04:05.936|56=EXC|10=060|
8=FIX.4.4|9=0049|35=0|34=3|49=EXC|56=013|52=20190614-19:04:35.000|10=172|
8=FIX.4.4|9=59|35=0|34=3|49=013|50=013B17|52=20190614-19:04:35.936|56=EXC|10=064|
8=FIX.4.4|9=105|35=A|34=1|49=013|50=013B17|52=20190614-19:08:28.102|56=EXC|98=0|108=30|141=Y|553=013FCM001|554=013FCM001|10=097|
8=FIX.4.4|9=0067|35=A|34=1|49=EXC|56=013|52=20190614-19:08:28.240|98=0|108=30|141=Y|10=013|
8=FIX.4.4|9=0049|35=0|34=2|49=EXC|56=013|52=20190614-19:08:58.000|10=180|
8=FIX.4.4|9=59|35=0|34=2|49=013|50=013B17|52=20190614-19:08:59.042|56=EXC|10=061|
8=FIX.4.4|9=0049|35=0|34=3|49=EXC|56=013|52=20190614-19:09:28.000|10=179|
8=FIX.4.4|9=59|35=0|34=3|49=013|50=013B17|52=20190614-19:09:29.042|56=EXC|10=060|
8=FIX.4.4|9=105|35=A|34=1|49=013|50=013B17|52=20190614-19:24:54.350|56=EXC|98=0|108=30|141=Y|553=013FCM001|554=013FCM001|10=099|
8=FIX.4.4|9=0067|35=A|34=1|49=EXC|56=013|52=20190614-19:24:54.375|98=0|108=30|141=Y|10=019|
8=FIX.4.4|9=0049|35=0|34=2|49=EXC|56=013|52=20190614-19:25:24.000|10=172|
8=FIX.4.4|9=59|35=0|34=2|49=013|50=013B17|52=20190614-19:25:25.293|56=EXC|10=061|
8=FIX.4.4|9=0049|35=0|34=3|49=EXC|56=013|52=20190614-19:25:54.000|10=176|
8=FIX.4.4|9=59|35=0|34=3|49=013|50=013B17|52=20190614-19:25:55.294|56=EXC|10=066|
8=FIX.4.4|9=105|35=A|34=1|49=013|50=013B17|52=20190614-19:26:40.999|56=EXC|98=0|108=30|141=Y|553=013FCM001|554=013FCM001|10=115|
8=FIX.4.4|9=0067|35=A|34=1|49=EXC|56=013|52=20190614-19:26:41.047|98=0|108=30|141=Y|10=013|
8=FIX.4.4|9=0049|35=0|34=2|49=EXC|56=013|52=20190614-19:27:11.000|10=170|
8=FIX.4.4|9=59|35=0|34=2|49=013|50=013B17|52=20190614-19:27:10.992|56=EXC|10=063|
8=FIX.4.4|9=0049|35=0|34=3|49=EXC|56=013|52=20190614-19:27:41.000|10=174|
8=FIX.4.4|9=59|35=0|34=3|49=013|50=013B17|52=20190614-19:27:40.985|56=EXC|10=069|
8=FIX.4.4|9=105|35=A|34=1|49=013|50=013B17|52=20190614-19:36:19.896|56=EXC|98=0|108=30|141=Y|553=013FCM001|554=013FCM001|10=118|
8=FIX.4.4|9=0067|35=A|34=1|49=EXC|56=013|52=20190614-19:36:20.063|98=0|108=30|141=Y|10=009|
8=FIX.4.4|9=0049|35=0|34=2|49=EXC|56=013|52=20190614-19:36:50.000|10=173|
8=FIX.4.4|9=59|35=0|34=2|49=013|50=013B17|52=20190614-19:36:50.813|56=EXC|10=059|
8=FIX.4.4|9=0049|35=0|34=3|49=EXC|56=013|52=20190614-19:37:20.000|10=172|
8=FIX.4.4|9=59|35=0|34=3|49=013|50=013B17|52=20190614-19:37:20.813|56=EXC|10=058|
8=FIX.4.4|9=105|35=A|34=1|49=013|50=013B17|52=20190614-19:37:48.496|56=EXC|98=0|108=30|141=Y|553=013FCM001|554=013FCM001|10=117|
8=FIX.4.4|9=0067|35=A|34=1|49=EXC|56=013|52=20190614-19:37:48.684|98=0|108=30|141=Y|10=029|
8=FIX.4.4|9=0049|35=0|34=2|49=EXC|56=013|52=20190614-19:38:18.000|10=179|
8=FIX.4.4|9=59|35=0|34=2|49=013|50=013B17|52=20190614-19:38:19.418|56=EXC|10=067|
8=FIX.4.4|9=0049|35=0|34=3|49=EXC|56=013|52=20190614-19:38:48.000|10=183|
8=FIX.4.4|9=59|35=0|34=3|49=013|50=013B17|52=20190614-19:38:49.418|56=EXC|10=071|
8=FIX.4.4|9=105|35=A|34=1|49=013|50=013B17|52=20190614-19:40:02.635|56=EXC|98=0|108=30|141=Y|553=013FCM001|554=013FCM001|10=096|
8=FIX.4.4|9=0067|35=A|34=1|49=EXC|56=013|52=20190614-19:40:02.865|98=0|108=30|141=Y|10=014|
8=FIX.4.4|9=0049|35=0|34=2|49=EXC|56=013|52=20190614-19:40:32.000|10=168|
8=FIX.4.4|9=59|35=0|34=2|49=013|50=013B17|52=20190614-19:40:33.566|56=EXC|10=060|
8=FIX.4.4|9=0049|35=0|34=3|49=EXC|56=013|52=20190614-19:41:02.000|10=167|
8=FIX.4.4|9=59|35=0|34=3|49=013|50=013B17|52=20190614-19:41:03.567|56=EXC|10=060|
8=FIX.4.4|9=105|35=A|34=1|49=013|50=013B17|52=20190614-19:44:43.631|56=EXC|98=0|108=30|141=Y|553=013FCM001|554=013FCM001|10=101|
8=FIX.4.4|9=0067|35=A|34=1|49=EXC|56=013|52=20190614-19:44:43.903|98=0|108=30|141=Y|10=016|
8=FIX.4.4|9=0049|35=0|34=2|49=EXC|56=013|52=20190614-19:45:13.000|10=172|
8=FIX.4.4|9=59|35=0|34=2|49=013|50=013B17|52=20190614-19:45:14.556|56=EXC|10=063|
8=FIX.4.4|9=0049|35=0|34=3|49=EXC|56=013|52=20190614-19:45:43.000|10=176|
8=FIX.4.4|9=59|35=0|34=3|49=013|50=013B17|52=20190614-19:45:44.558|56=EXC|10=069|
8=FIX.4.4|9=105|35=A|34=1|49=013|50=013B17|52=20190614-19:46:56.537|56=EXC|98=0|108=30|141=Y|553=013FCM001|554=013FCM001|10=112|
8=FIX.4.4|9=0067|35=A|34=1|49=EXC|56=013|52=20190614-19:46:56.841|98=0|108=30|141=Y|10=023|
8=FIX.4.4|9=0049|35=0|34=2|49=EXC|56=013|52=20190614-19:47:26.000|10=178|
8=FIX.4.4|9=59|35=0|34=2|49=013|50=013B17|52=20190614-19:47:27.497|56=EXC|10=073|
8=FIX.4.4|9=0049|35=0|34=3|49=EXC|56=013|52=20190614-19:47:56.000|10=182|
8=FIX.4.4|9=59|35=0|34=3|49=013|50=013B17|52=20190614-19:47:57.496|56=EXC|10=076|
8=FIX.4.4|9=105|35=A|34=1|49=013|50=013B17|52=20190614-19:49:02.350|56=EXC|98=0|108=30|141=Y|553=013FCM001|554=013FCM001|10=099|
8=FIX.4.4|9=0067|35=A|34=1|49=EXC|56=013|52=20190614-19:49:02.678|98=0|108=30|141=Y|10=025|
8=FIX.4.4|9=0049|35=0|34=2|49=EXC|56=013|52=20190614-19:49:32.000|10=177|
8=FIX.4.4|9=59|35=0|34=2|49=013|50=013B17|52=20190614-19:49:33.309|56=EXC|10=064|
8=FIX.4.4|9=0049|35=0|34=3|49=EXC|56=013|52=20190614-19:50:02.000|10=167|
8=FIX.4.4|9=59|35=0|34=3|49=013|50=013B17|52=20190614-19:50:03.309|56=EXC|10=054|
8=FIX.4.4|9=105|35=A|34=1|49=013|50=013B17|52=20190614-19:51:28.288|56=EXC|98=0|108=30|141=Y|553=013FCM001|554=013FCM001|10=110|
8=FIX.4.4|9=0067|35=A|34=1|49=EXC|56=013|52=20190614-19:51:28.653|98=0|108=30|141=Y|10=019|
8=FIX.4.4|9=0049|35=0|34=2|49=EXC|56=013|52=20190614-19:51:58.000|10=178|
8=FIX.4.4|9=59|35=0|34=2|49=013|50=013B17|52=20190614-19:51:59.213|56=EXC|10=059|
8=FIX.4.4|9=0049|35=0|34=3|49=EXC|56=013|52=20190614-19:52:28.000|10=177|
8=FIX.4.4|9=59|35=0|34=3|49=013|50=013B17|52=20190614-19:52:29.214|56=EXC|10=059|
8=FIX.4.4|9=105|35=A|34=1|49=013|50=013B17|52=20190614-19:54:33.625|56=EXC|98=0|108=30|141=Y|553=013FCM001|554=013FCM001|10=104|
8=FIX.4.4|9=0067|35=A|34=1|49=EXC|56=013|52=20190614-19:54:34.028|98=0|108=30|141=Y|10=015|
8=FIX.4.4|9=0049|35=0|34=2|49=EXC|56=013|52=20190614-19:55:04.000|10=173|
8=FIX.4.4|9=59|35=0|34=2|49=013|50=013B17|52=20190614-19:55:03.634|56=EXC|10=059|
8=FIX.4.4|9=0049|35=0|34=3|49=EXC|56=013|52=20190614-19:55:34.000|10=177|
8=FIX.4.4|9=59|35=0|34=3|49=013|50=013B17|52=20190614-19:55:33.626|56=EXC|10=064|
8=FIX.4.4|9=105|35=A|34=1|49=013|50=013B17|52=20190614-20:01:11.522|56=EXC|98=0|108=30|141=Y|553=013FCM001|554=013FCM001|10=080|
8=FIX.4.4|9=0067|35=A|34=1|49=EXC|56=013|52=20190614-20:01:12.014|98=0|108=30|141=Y|10=246|
8=FIX.4.4|9=0049|35=0|34=2|49=EXC|56=013|52=20190614-20:01:42.000|10=158|
8=FIX.4.4|9=59|35=0|34=2|49=013|50=013B17|52=20190614-20:01:41.546|56=EXC|10=046|
8=FIX.4.4|9=0049|35=0|34=3|49=EXC|56=013|52=20190614-20:02:12.000|10=157|
8=FIX.4.4|9=59|35=0|34=3|49=013|50=013B17|52=20190614-20:02:11.538|56=EXC|10=046|
8=FIX.4.4|9=105|35=A|34=1|49=013|50=013B17|52=20190614-20:07:40.102|56=EXC|98=0|108=30|141=Y|553=013FCM001|554=013FCM001|10=082|
8=FIX.4.4|9=0067|35=A|34=1|49=EXC|56=013|52=20190614-20:07:40.684|98=0|108=30|141=Y|10=010|
8=FIX.4.4|9=0049|35=0|34=2|49=EXC|56=013|52=20190614-20:08:10.000|10=160|
8=FIX.4.4|9=59|35=0|34=2|49=013|50=013B17|52=20190614-20:08:11.039|56=EXC|10=047|
8=FIX.4.4|9=0049|35=0|34=3|49=EXC|56=013|52=20190614-20:08:40.000|10=164|
8=FIX.4.4|9=59|35=0|34=3|49=013|50=013B17|52=20190614-20:08:41.039|56=EXC|10=051|
8=FIX.4.4|9=105|35=A|34=1|49=013|50=013B17|52=20190614-21:42:56.166|56=EXC|98=0|108=30|141=Y|553=013FCM001|554=013FCM001|10=099|
8=FIX.4.4|9=0067|35=A|34=1|49=EXC|56=013|52=20190614-21:42:56.397|98=0|108=30|141=Y|10=018|
8=FIX.4.4|9=0049|35=0|34=2|49=EXC|56=013|52=20190614-21:43:26.000|10=167|
8=FIX.4.4|9=59|35=0|34=2|49=013|50=013B17|52=20190614-21:43:27.066|56=EXC|10=054|
8=FIX.4.4|9=77|35=A|34=1|49=013|50=013B17|52=20190614-22:06:36.937|56=EXC|98=0|108=30|141=Y|10=147|
8=FIX.4.4|9=77|35=A|34=1|49=013|50=013B17|52=20190614-22:07:38.851|56=EXC|98=0|108=30|141=Y|10=145|
8=FIX.4.4|9=105|35=A|34=1|49=013|50=013B17|52=20190614-22:07:58.695|56=EXC|98=0|108=30|141=Y|553=013FCM001|554=013FCM001|10=110|
8=FIX.4.4|9=0067|35=A|34=1|49=EXC|56=013|52=20190614-22:07:58.784|98=0|108=30|141=Y|10=022|
8=FIX.4.4|9=105|35=A|34=1|49=013|50=013B17|52=20190614-22:13:24.974|56=EXC|98=0|108=30|141=Y|553=013FCM001|554=013FCM001|10=100|
8=FIX.4.4|9=0067|35=A|34=1|49=EXC|56=013|52=20190614-22:13:25.042|98=0|108=30|141=Y|10=000|
8=FIX.4.4|9=105|35=A|34=1|49=013|50=013B17|52=20190614-22:16:34.302|56=EXC|98=0|108=30|141=Y|553=013FCM001|554=013FCM001|10=089|
8=FIX.4.4|9=0067|35=A|34=1|49=EXC|56=013|52=20190614-22:16:34.444|98=0|108=30|141=Y|10=009|
