8=FIX.4.4|9=110|35=A|34=1|49=037|50=037B18|52=20190718-18:54:54.831|56=EXC|43=N|98=0|108=30|141=Y|553=037FCM001|554=037FCM001|10=118|
8=FIX.4.4|9=0067|35=A|34=1|49=EXC|56=037|52=20190718-18:55:39.039|98=0|108=30|141=Y|10=033|
8=FIX.4.4|9=0049|35=0|34=2|49=EXC|56=037|52=20190718-18:56:09.000|10=189|
8=FIX.4.4|9=59|35=0|34=2|49=037|50=037B18|52=20190718-18:55:24.828|56=EXC|10=084|
8=FIX.4.4|9=0049|35=0|34=3|49=EXC|56=037|52=20190718-18:56:39.000|10=193|
8=FIX.4.4|9=59|35=0|34=3|49=037|50=037B18|52=20190718-18:55:54.827|56=EXC|10=087|
8=FIX.4.4|9=110|35=A|34=1|49=037|50=037B18|52=20190718-19:01:01.759|56=EXC|43=N|98=0|108=30|141=Y|553=037FCM001|554=037FCM001|10=112|
8=FIX.4.4|9=0067|35=A|34=1|49=EXC|56=037|52=20190718-19:01:45.971|98=0|108=30|141=Y|10=027|
8=FIX.4.4|9=163|35=R|34=2|49=037|50=037B18|52=20190718-19:01:08.907|56=EXC|131=2019071814005811_R|146=1|55=T24U19F|22=M|762=AFIR|54=1|38=140|1=RT001|453=1|448=029B17|447=C|452=37|10=250|
8=FIX.4.4|9=0245|35=AI|34=2|49=EXC|56=037|57=037B18|52=20190718-19:01:53.102|131=2019071814005811_R|453=4|448=037B18|447=C|452=12|448=037|447=C|452=1|448=037FCM001|447=C|452=36|448=029B17|447=C|452=37|55=T24U19F|762=AFIR|48=27227|22=M|54=1|1=RT001|38=140|297=10|10=167|
8=FIX.4.4|9=0049|35=0|34=3|49=EXC|56=037|52=20190718-19:02:23.000|10=178|
8=FIX.4.4|9=59|35=0|34=3|49=037|50=037B18|52=20190718-19:01:39.667|56=EXC|10=084|
8=FIX.4.4|9=110|35=A|34=1|49=037|50=037B18|52=20190718-19:04:31.672|56=EXC|43=N|98=0|108=30|141=Y|553=037FCM001|554=037FCM001|10=112|
8=FIX.4.4|9=0067|35=A|34=1|49=EXC|56=037|52=20190718-19:05:15.882|98=0|108=30|141=Y|10=029|
8=FIX.4.4|9=0049|35=0|34=2|49=EXC|56=037|52=20190718-19:05:45.000|10=184|
8=FIX.4.4|9=59|35=0|34=2|49=037|50=037B18|52=20190718-19:05:02.462|56=EXC|10=070|
8=FIX.4.4|9=110|35=A|34=1|49=037|50=037B18|52=20190718-19:41:04.039|56=EXC|43=N|98=0|108=30|141=Y|553=037FCM001|554=037FCM001|10=110|
8=FIX.4.4|9=0067|35=A|34=1|49=EXC|56=037|52=20190718-19:41:38.116|98=0|108=30|141=Y|10=024|
8=FIX.4.4|9=0214|35=R|34=2|49=EXC|56=037|57=037B18|52=20190718-19:41:45.370|131=20190718-000000000001.00|146=1|55=T24U19F|762=AFIR|48=27227|22=M|54=1|38=100|453=3|448=029B17|447=C|452=12|448=029|447=C|452=1|448=037B18|447=C|452=37|10=012|
8=FIX.4.4|9=180|35=S|34=2|49=037|50=037B18|52=20190718-19:41:31.736|56=EXC|1=RT001|55=T24U19F|62=20190830-22:00:00.000|117=201907181441001_S|131=20190718-000000000001.00|133=1000|135=100|762=AFIR|10=079|
8=FIX.4.4|9=0281|35=AI|34=3|49=EXC|56=037|57=037B18|52=20190718-19:42:05.797|131=20190718-000000000001.00|117=201907181441001_S|453=3|448=029B17|447=C|452=12|448=029|447=C|452=1|448=037B18|447=C|452=37|55=T24U19F|762=AFIR|48=27227|22=M|54=1|1=RT001|133=1000.000|135=100|62=20190830-22:00:00|297=16|10=058|
8=FIX.4.4|9=0462|35=8|34=4|49=EXC|56=037|57=037B18|52=20190718-19:42:25.871|11=201907181441001_S|17=1|37=0|150=F|1080=20190718-000000000001.00|1081=6|453=5|448=037B18|447=C|452=12|448=037|447=C|452=1|448=029B17|447=C|452=37|448=029|447=C|452=17|448=037FCM001|447=C|452=36|55=T24U19F|762=AFIR|48=27227|22=M|6=1000.000|14=100|31=1000.000|32=100|38=100|39=2|54=2|60=20190718-19:42:25.871|75=20190718|63=1|64=20190718|151=0|1=RT001|381=250000000000.000|880=201907180000000001|828=99|10=108|
8=FIX.4.4|9=59|35=0|34=3|49=037|50=037B18|52=20190718-19:42:02.040|56=EXC|10=064|
8=FIX.4.4|9=0049|35=0|34=5|49=EXC|56=037|52=20190718-19:42:55.000|10=189|
8=FIX.4.4|9=59|35=5|34=4|49=037|50=037B18|52=20190718-19:42:22.031|56=EXC|10=072|
8=FIX.4.4|9=0055|35=5|34=6|49=EXC|56=037|52=20190718-19:42:56.086|369=4|10=227|
8=FIX.4.4|9=110|35=A|34=1|49=037|50=037B18|52=20190719-14:44:06.822|56=EXC|43=N|98=0|108=30|141=Y|553=037FCM001|554=037FCM001|10=111|
8=FIX.4.4|9=0067|35=A|34=1|49=EXC|56=037|52=20190719-14:44:41.784|98=0|108=30|141=Y|10=028|
8=FIX.4.4|9=0214|35=R|34=2|49=EXC|56=037|57=037B18|52=20190719-14:44:47.707|131=20190719-000000000040.00|146=1|55=T24U19F|762=AFIR|48=27227|22=M|54=1|38=100|453=3|448=029B17|447=C|452=12|448=029|447=C|452=1|448=037B18|447=C|452=37|10=021|
8=FIX.4.4|9=110|35=A|34=1|49=037|50=037B18|52=20190719-14:56:25.864|56=EXC|43=N|98=0|108=30|141=Y|553=037FCM001|554=037FCM001|10=121|
8=FIX.4.4|9=0067|35=A|34=1|49=EXC|56=037|52=20190719-14:57:00.831|98=0|108=30|141=Y|10=020|
8=FIX.4.4|9=0214|35=R|34=2|49=EXC|56=037|57=037B18|52=20190719-14:57:06.669|131=20190719-000000000041.00|146=1|55=T24U19F|762=AFIR|48=27227|22=M|54=1|38=100|453=3|448=029B17|447=C|452=12|448=029|447=C|452=1|448=037B18|447=C|452=37|10=028|
8=FIX.4.4|9=179|35=S|34=2|49=037|50=037B18|52=20190719-14:56:51.885|56=EXC|1=RT001|55=T24U19F|62=20190830-22:00:00.000|117=20190719956211_S|131=20190719-000000000041.00|133=1000|135=100|762=AFIR|10=067|
8=FIX.4.4|9=0217|35=AI|34=3|49=EXC|56=037|57=037B18|52=20190719-14:57:26.824|117=20190719956211_S|55=T24U19F|762=AFIR|1=RT001|133=1000|135=100|62=20190830-22:00:00.000|297=9|300=99|58=(1584): Precio/tasa de venta está fuera del rango|10=040|
8=FIX.4.4|9=110|35=A|34=1|49=037|50=037B18|52=20190719-15:37:21.356|56=EXC|43=N|98=0|108=30|141=Y|553=037FCM001|554=037FCM001|10=113|
8=FIX.4.4|9=0067|35=A|34=1|49=EXC|56=037|52=20190719-15:37:56.341|98=0|108=30|141=Y|10=026|
8=FIX.4.4|9=0214|35=R|34=2|49=EXC|56=037|57=037B18|52=20190719-15:38:02.206|131=20190719-000000000002.00|146=1|55=T24U19F|762=AFIR|48=27227|22=M|54=1|38=100|453=3|448=029B17|447=C|452=12|448=029|447=C|452=1|448=037B18|447=C|452=37|10=008|
8=FIX.4.4|9=180|35=S|34=2|49=037|50=037B18|52=20190719-15:37:47.355|56=EXC|1=RT001|55=T24U19F|62=20190830-22:00:00.000|117=201907191037161_S|131=20190719-000000000002.00|133=1000|135=100|762=AFIR|10=096|
8=FIX.4.4|9=0218|35=AI|34=3|49=EXC|56=037|57=037B18|52=20190719-15:38:22.326|117=201907191037161_S|55=T24U19F|762=AFIR|1=RT001|133=1000|135=100|62=20190830-22:00:00.000|297=9|300=99|58=(1584): Precio/tasa de venta está fuera del rango|10=077|
8=FIX.4.4|9=0214|35=R|34=4|49=EXC|56=037|57=037B18|52=20190719-15:38:42.408|131=20190719-000000000003.00|146=1|55=T24U19F|762=AFIR|48=27227|22=M|54=2|38=100|453=3|448=029B17|447=C|452=12|448=029|447=C|452=1|448=037B18|447=C|452=37|10=020|
8=FIX.4.4|9=59|35=0|34=3|49=037|50=037B18|52=20190719-15:38:17.880|56=EXC|10=084|
8=FIX.4.4|9=186|35=S|34=4|49=037|50=037B18|52=20190719-15:38:32.499|56=EXC|1=RT001|55=T24U19F|62=20190830-22:00:00.000|117=201907191037162_S|131=20190719-000000000003.00|133=1500|134=100|135=0|762=AFIR|10=121|
8=FIX.4.4|9=0249|35=AI|34=5|49=EXC|56=037|57=037B18|52=20190719-15:39:07.468|117=201907191037162_S|55=T24U19F|762=AFIR|1=RT001|133=1500|134=100|135=0|62=20190830-22:00:00.000|297=9|300=99|58=(1160): Regla de negocio - La cantidad de la orden debe ser por lo menos 1|10=100|
8=FIX.4.4|9=0214|35=R|34=6|49=EXC|56=037|57=037B18|52=20190719-15:39:27.505|131=20190719-000000000004.00|146=1|55=T24U19F|762=AFIR|48=27227|22=M|54=1|38=150|453=3|448=029B17|447=C|452=12|448=029|447=C|452=1|448=037B18|447=C|452=37|10=029|
8=FIX.4.4|9=59|35=0|34=5|49=037|50=037B18|52=20190719-15:39:02.870|56=EXC|10=080|
8=FIX.4.4|9=180|35=S|34=6|49=037|50=037B18|52=20190719-15:39:17.602|56=EXC|1=RT001|55=T24U19F|62=20190830-22:00:00.000|117=201907191037163_S|131=20190719-000000000004.00|133=1230|135=150|762=AFIR|10=108|
8=FIX.4.4|9=0218|35=AI|34=7|49=EXC|56=037|57=037B18|52=20190719-15:39:52.570|117=201907191037163_S|55=T24U19F|762=AFIR|1=RT001|133=1230|135=150|62=20190830-22:00:00.000|297=9|300=99|58=(1584): Precio/tasa de venta está fuera del rango|10=098|
8=FIX.4.4|9=0049|35=0|34=8|49=EXC|56=037|52=20190719-15:40:22.000|10=181|
8=FIX.4.4|9=59|35=0|34=7|49=037|50=037B18|52=20190719-15:39:47.875|56=EXC|10=096|
8=FIX.4.4|9=0049|35=0|34=9|49=EXC|56=037|52=20190719-15:40:52.000|10=185|
8=FIX.4.4|9=59|35=0|34=8|49=037|50=037B18|52=20190719-15:40:18.874|56=EXC|10=086|
8=FIX.4.4|9=0050|35=0|34=10|49=EXC|56=037|52=20190719-15:41:22.000|10=215|
8=FIX.4.4|9=59|35=0|34=9|49=037|50=037B18|52=20190719-15:40:48.874|56=EXC|10=090|
8=FIX.4.4|9=0050|35=0|34=11|49=EXC|56=037|52=20190719-15:41:52.000|10=219|
8=FIX.4.4|9=0213|35=R|34=12|49=EXC|56=037|57=037B18|52=20190719-15:41:52.970|131=20190719-000000000006.00|146=1|55=I06H99F|762=AFIR|48=27166|22=M|54=1|38=7|453=3|448=029B17|447=C|452=12|448=029|447=C|452=1|448=037B18|447=C|452=37|10=219|
8=FIX.4.4|9=60|35=0|34=10|49=037|50=037B18|52=20190719-15:41:18.878|56=EXC|10=124|
8=FIX.4.4|9=0213|35=R|34=13|49=EXC|56=037|57=037B18|52=20190719-15:42:18.060|131=20190719-000000000006.00|146=1|55=I06H99F|762=AFIR|48=27166|22=M|54=1|38=0|453=3|448=029B17|447=C|452=12|448=029|447=C|452=1|448=037B18|447=C|452=37|10=206|
8=FIX.4.4|9=60|35=0|34=11|49=037|50=037B18|52=20190719-15:41:48.882|56=EXC|10=123|
8=FIX.4.4|9=0214|35=R|34=14|49=EXC|56=037|57=037B18|52=20190719-15:42:38.161|131=20190719-000000000007.01|146=1|55=T24U19F|762=AFIR|48=27227|22=M|54=1|38=15|453=3|448=045B17|447=C|452=12|448=045|447=C|452=1|448=037B18|447=C|452=37|10=022|
8=FIX.4.4|9=60|35=0|34=12|49=037|50=037B18|52=20190719-15:42:18.881|56=EXC|10=121|
8=FIX.4.4|9=0213|35=R|34=15|49=EXC|56=037|57=037B18|52=20190719-15:42:58.246|131=20190719-000000000007.01|146=1|55=T24U19F|762=AFIR|48=27227|22=M|54=1|38=0|453=3|448=045B17|447=C|452=12|448=045|447=C|452=1|448=037B18|447=C|452=37|10=230|
8=FIX.4.4|9=60|35=0|34=13|49=037|50=037B18|52=20190719-15:42:48.879|56=EXC|10=132|
8=FIX.4.4|9=0050|35=0|34=16|49=EXC|56=037|52=20190719-15:43:28.000|10=229|
8=FIX.4.4|9=60|35=5|34=14|49=037|50=037B18|52=20190719-15:42:53.455|56=EXC|10=124|
8=FIX.4.4|9=0057|35=5|34=17|49=EXC|56=037|52=20190719-15:43:28.433|369=14|10=065|
8=FIX.4.4|9=110|35=A|34=1|49=037|50=037B18|52=20190723-15:08:14.805|56=EXC|43=N|98=0|108=30|141=Y|553=037FCM001|554=037FCM001|10=107|
8=FIX.4.4|9=0067|35=A|34=1|49=EXC|56=037|52=20190723-15:08:54.142|98=0|108=30|141=Y|10=016|
8=FIX.4.4|9=0214|35=R|34=2|49=EXC|56=037|57=037B18|52=20190723-15:09:00.098|131=20190723-000000000006.00|146=1|55=T24U19F|762=AFIR|48=27227|22=M|54=1|38=100|453=3|448=029B17|447=C|452=12|448=029|447=C|452=1|448=037B18|447=C|452=37|10=007|
8=FIX.4.4|9=180|35=S|34=2|49=037|50=037B18|52=20190723-15:08:40.999|56=EXC|1=RT001|55=T24U19F|62=20190830-22:00:00.000|117=201907231008101_S|131=20190723-000000000006.00|133=1000|135=100|762=AFIR|10=082|
8=FIX.4.4|9=0218|35=AI|34=3|49=EXC|56=037|57=037B18|52=20190723-15:09:20.320|117=201907231008101_S|55=T24U19F|762=AFIR|1=RT001|133=1000|135=100|62=20190830-22:00:00.000|297=9|300=99|58=(1584): Precio/tasa de venta está fuera del rango|10=049|
8=FIX.4.4|9=0214|35=R|34=4|49=EXC|56=037|57=037B18|52=20190723-15:09:40.374|131=20190723-000000000007.00|146=1|55=T24U19F|762=AFIR|48=27227|22=M|54=2|38=100|453=3|448=029B17|447=C|452=12|448=029|447=C|452=1|448=037B18|447=C|452=37|10=012|
8=FIX.4.4|9=59|35=0|34=3|49=037|50=037B18|52=20190723-15:09:11.485|56=EXC|10=072|
8=FIX.4.4|9=186|35=S|34=4|49=037|50=037B18|52=20190723-15:09:26.143|56=EXC|1=RT001|55=T24U19F|62=20190830-22:00:00.000|117=201907231008102_S|131=20190723-000000000007.00|133=1500|134=100|135=0|762=AFIR|10=089|
8=FIX.4.4|9=0249|35=AI|34=5|49=EXC|56=037|57=037B18|52=20190723-15:10:05.464|117=201907231008102_S|55=T24U19F|762=AFIR|1=RT001|133=1500|134=100|135=0|62=20190830-22:00:00.000|297=9|300=99|58=(1160): Regla de negocio - La cantidad de la orden debe ser por lo menos 1|10=065|
8=FIX.4.4|9=59|35=5|34=5|49=037|50=037B18|52=20190723-15:09:51.264|56=EXC|10=078|
8=FIX.4.4|9=0055|35=5|34=6|49=EXC|56=037|52=20190723-15:10:30.582|369=5|10=208|
8=FIX.4.4|9=110|35=A|34=1|49=037|50=037B18|52=20190723-15:34:01.869|56=EXC|43=N|98=0|108=30|141=Y|553=037FCM001|554=037FCM001|10=112|
8=FIX.4.4|9=0067|35=A|34=1|49=EXC|56=037|52=20190723-15:34:41.221|98=0|108=30|141=Y|10=009|
8=FIX.4.4|9=0214|35=R|34=2|49=EXC|56=037|57=037B18|52=20190723-15:34:46.950|131=20190723-000000000008.00|146=1|55=T24U19F|762=AFIR|48=27227|22=M|54=1|38=100|453=3|448=029B17|447=C|452=12|448=029|447=C|452=1|448=037B18|447=C|452=37|10=014|
8=FIX.4.4|9=180|35=S|34=2|49=037|50=037B18|52=20190723-15:34:27.718|56=EXC|1=RT001|55=T24U19F|62=20190830-22:00:00.000|117=201907231033571_S|131=20190723-000000000008.00|133=1000|135=100|762=AFIR|10=086|
8=FIX.4.4|9=0218|35=AI|34=3|49=EXC|56=037|57=037B18|52=20190723-15:35:07.054|117=201907231033571_S|55=T24U19F|762=AFIR|1=RT001|133=1000|135=100|62=20190830-22:00:00.000|297=9|300=99|58=(1584): Precio/tasa de venta está fuera del rango|10=066|
8=FIX.4.4|9=59|35=5|34=3|49=037|50=037B18|52=20190723-15:34:52.855|56=EXC|10=081|
8=FIX.4.4|9=0055|35=5|34=4|49=EXC|56=037|52=20190723-15:35:32.187|369=3|10=214|
8=FIX.4.4|9=110|35=A|34=1|49=037|50=037B18|52=20190723-15:41:24.646|56=EXC|43=N|98=0|108=30|141=Y|553=037FCM001|554=037FCM001|10=108|
8=FIX.4.4|9=0067|35=A|34=1|49=EXC|56=037|52=20190723-15:42:04.002|98=0|108=30|141=Y|10=004|
8=FIX.4.4|9=0214|35=R|34=2|49=EXC|56=037|57=037B18|52=20190723-15:42:09.865|131=20190723-000000000009.00|146=1|55=T24U19F|762=AFIR|48=27227|22=M|54=1|38=100|453=3|448=029B17|447=C|452=12|448=029|447=C|452=1|448=037B18|447=C|452=37|10=018|
8=FIX.4.4|9=180|35=S|34=2|49=037|50=037B18|52=20190723-15:41:50.659|56=EXC|1=RT001|55=T24U19F|62=20190830-22:00:00.000|117=201907231041201_S|131=20190723-000000000009.00|133=1000|135=100|762=AFIR|10=074|
8=FIX.4.4|9=0218|35=AI|34=3|49=EXC|56=037|57=037B18|52=20190723-15:42:29.994|117=201907231041201_S|55=T24U19F|762=AFIR|1=RT001|133=1000|135=100|62=20190830-22:00:00.000|297=9|300=99|58=(1584): Precio/tasa de venta está fuera del rango|10=070|
8=FIX.4.4|9=0214|35=R|34=4|49=EXC|56=037|57=037B18|52=20190723-15:42:50.039|131=20190723-000000000010.00|146=1|55=T24U19F|762=AFIR|48=27227|22=M|54=2|38=100|453=3|448=029B17|447=C|452=12|448=029|447=C|452=1|448=037B18|447=C|452=37|10=002|
8=FIX.4.4|9=59|35=0|34=3|49=037|50=037B18|52=20190723-15:42:21.379|56=EXC|10=072|
8=FIX.4.4|9=186|35=S|34=4|49=037|50=037B18|52=20190723-15:42:35.756|56=EXC|1=RT001|55=T24U19F|62=20190830-22:00:00.000|117=201907231041202_S|131=20190723-000000000010.00|133=1500|134=100|135=0|762=AFIR|10=088|
8=FIX.4.4|9=0249|35=AI|34=5|49=EXC|56=037|57=037B18|52=20190723-15:43:15.103|117=201907231041202_S|55=T24U19F|762=AFIR|1=RT001|133=1500|134=100|135=0|62=20190830-22:00:00.000|297=9|300=99|58=(1160): Regla de negocio - La cantidad de la orden debe ser por lo menos 1|10=060|
8=FIX.4.4|9=59|35=5|34=5|49=037|50=037B18|52=20190723-15:43:00.902|56=EXC|10=069|
8=FIX.4.4|9=0055|35=5|34=6|49=EXC|56=037|52=20190723-15:43:40.247|369=5|10=213|
8=FIX.4.4|9=110|35=A|34=1|49=037|50=037B18|52=20190723-16:03:27.374|56=EXC|43=N|98=0|108=30|141=Y|553=037FCM001|554=037FCM001|10=108|
8=FIX.4.4|9=0067|35=A|34=1|49=EXC|56=037|52=20190723-16:04:06.764|98=0|108=30|141=Y|10=020|
8=FIX.4.4|9=0214|35=R|34=2|49=EXC|56=037|57=037B18|52=20190723-16:04:12.741|131=20190723-000000000011.00|146=1|55=T24U19F|762=AFIR|48=27227|22=M|54=1|38=100|453=3|448=029B17|447=C|452=12|448=029|447=C|452=1|448=037B18|447=C|452=37|10=253|
8=FIX.4.4|9=180|35=S|34=2|49=037|50=037B18|52=20190723-16:03:53.654|56=EXC|1=RT001|55=T24U19F|62=20190830-22:00:00.000|117=201907231103221_S|131=20190723-000000000011.00|133=1000|135=100|762=AFIR|10=065|
8=FIX.4.4|9=0218|35=AI|34=3|49=EXC|56=037|57=037B18|52=20190723-16:04:33.012|117=201907231103221_S|55=T24U19F|762=AFIR|1=RT001|133=1000|135=100|62=20190830-22:00:00.000|297=9|300=99|58=(1584): Precio/tasa de venta está fuera del rango|10=046|
8=FIX.4.4|9=0214|35=R|34=4|49=EXC|56=037|57=037B18|52=20190723-16:04:53.072|131=20190723-000000000012.00|146=1|55=T24U19F|762=AFIR|48=27227|22=M|54=2|38=100|453=3|448=029B17|447=C|452=12|448=029|447=C|452=1|448=037B18|447=C|452=37|10=003|
8=FIX.4.4|9=59|35=0|34=3|49=037|50=037B18|52=20190723-16:04:24.118|56=EXC|10=065|
8=FIX.4.4|9=186|35=S|34=4|49=037|50=037B18|52=20190723-16:04:38.774|56=EXC|1=RT001|55=T24U19F|62=20190830-22:00:00.000|117=201907231103222_S|131=20190723-000000000012.00|133=1500|134=100|135=0|762=AFIR|10=093|
8=FIX.4.4|9=0249|35=AI|34=5|49=EXC|56=037|57=037B18|52=20190723-16:05:18.143|117=201907231103222_S|55=T24U19F|762=AFIR|1=RT001|133=1500|134=100|135=0|62=20190830-22:00:00.000|297=9|300=99|58=(1160): Regla de negocio - La cantidad de la orden debe ser por lo menos 1|10=067|
8=FIX.4.4|9=59|35=5|34=5|49=037|50=037B18|52=20190723-16:05:03.904|56=EXC|10=073|
8=FIX.4.4|9=0055|35=5|34=6|49=EXC|56=037|52=20190723-16:05:43.266|369=5|10=216|
8=FIX.4.4|9=110|35=A|34=1|49=037|50=037B18|52=20190723-16:12:06.398|56=EXC|43=N|98=0|108=30|141=Y|553=037FCM001|554=037FCM001|10=111|
8=FIX.4.4|9=0067|35=A|34=1|49=EXC|56=037|52=20190723-16:12:45.827|98=0|108=30|141=Y|10=022|
8=FIX.4.4|9=0214|35=R|34=2|49=EXC|56=037|57=037B18|52=20190723-16:12:51.596|131=20190723-000000000013.00|146=1|55=T24U19F|762=AFIR|48=27227|22=M|54=1|38=100|453=3|448=029B17|447=C|452=12|448=029|447=C|452=1|448=037B18|447=C|452=37|10=009|
8=FIX.4.4|9=180|35=S|34=2|49=037|50=037B18|52=20190723-16:12:32.322|56=EXC|1=RT001|55=T24U19F|62=20190830-22:00:00.000|117=201907231112021_S|131=20190723-000000000013.00|133=1000|135=100|762=AFIR|10=054|
8=FIX.4.4|9=0218|35=AI|34=3|49=EXC|56=037|57=037B18|52=20190723-16:13:11.693|117=201907231112021_S|55=T24U19F|762=AFIR|1=RT001|133=1000|135=100|62=20190830-22:00:00.000|297=9|300=99|58=(1584): Precio/tasa de venta está fuera del rango|10=055|
8=FIX.4.4|9=0214|35=R|34=4|49=EXC|56=037|57=037B18|52=20190723-16:13:31.760|131=20190723-000000000014.00|146=1|55=T24U19F|762=AFIR|48=27227|22=M|54=2|38=100|453=3|448=029B17|447=C|452=12|448=029|447=C|452=1|448=037B18|447=C|452=37|10=005|
8=FIX.4.4|9=59|35=0|34=3|49=037|50=037B18|52=20190723-16:13:02.958|56=EXC|10=073|
8=FIX.4.4|9=186|35=S|34=4|49=037|50=037B18|52=20190723-16:13:17.451|56=EXC|1=RT001|55=T24U19F|62=20190830-22:00:00.000|117=201907231112022_S|131=20190723-000000000014.00|133=1500|134=100|135=0|762=AFIR|10=082|
8=FIX.4.4|9=0249|35=AI|34=5|49=EXC|56=037|57=037B18|52=20190723-16:13:56.822|117=201907231112022_S|55=T24U19F|762=AFIR|1=RT001|133=1500|134=100|135=0|62=20190830-22:00:00.000|297=9|300=99|58=(1160): Regla de negocio - La cantidad de la orden debe ser por lo menos 1|10=070|
8=FIX.4.4|9=59|35=5|34=5|49=037|50=037B18|52=20190723-16:13:42.572|56=EXC|10=076|
8=FIX.4.4|9=0055|35=5|34=6|49=EXC|56=037|52=20190723-16:14:21.935|369=5|10=215|
8=FIX.4.4|9=110|35=A|34=1|49=037|50=037B18|52=20190723-16:16:11.308|56=EXC|43=N|98=0|108=30|141=Y|553=037FCM001|554=037FCM001|10=102|
8=FIX.4.4|9=0067|35=A|34=1|49=EXC|56=037|52=20190723-16:16:50.695|98=0|108=30|141=Y|10=025|
8=FIX.4.4|9=0214|35=R|34=2|49=EXC|56=037|57=037B18|52=20190723-16:16:56.591|131=20190723-000000000015.00|146=1|55=T24U19F|762=AFIR|48=27227|22=M|54=1|38=100|453=3|448=029B17|447=C|452=12|448=029|447=C|452=1|448=037B18|447=C|452=37|10=015|
8=FIX.4.4|9=180|35=S|34=2|49=037|50=037B18|52=20190723-16:16:37.323|56=EXC|1=RT001|55=T24U19F|62=20190830-22:00:00.000|117=201907231116061_S|131=20190723-000000000015.00|133=1000|135=100|762=AFIR|10=074|
8=FIX.4.4|9=0218|35=AI|34=3|49=EXC|56=037|57=037B18|52=20190723-16:17:16.700|117=201907231116061_S|55=T24U19F|762=AFIR|1=RT001|133=1000|135=100|62=20190830-22:00:00.000|297=9|300=99|58=(1584): Precio/tasa de venta está fuera del rango|10=061|
8=FIX.4.4|9=59|35=5|34=3|49=037|50=037B18|52=20190723-16:17:02.466|56=EXC|10=076|
8=FIX.4.4|9=0055|35=5|34=4|49=EXC|56=037|52=20190723-16:17:41.839|369=3|10=219|
8=FIX.4.4|9=110|35=A|34=1|49=037|50=037B18|52=20190723-16:26:56.887|56=EXC|43=N|98=0|108=30|141=Y|553=037FCM001|554=037FCM001|10=124|
8=FIX.4.4|9=0067|35=A|34=1|49=EXC|56=037|52=20190723-16:27:36.291|98=0|108=30|141=Y|10=023|
8=FIX.4.4|9=0214|35=R|34=2|49=EXC|56=037|57=037B18|52=20190723-16:27:42.198|131=20190723-000000000016.00|146=1|55=T24U19F|762=AFIR|48=27227|22=M|54=1|38=100|453=3|448=029B17|447=C|452=12|448=029|447=C|452=1|448=037B18|447=C|452=37|10=016|
8=FIX.4.4|9=180|35=S|34=2|49=037|50=037B18|52=20190723-16:27:22.933|56=EXC|1=RT001|55=T24U19F|62=20190830-22:00:00.000|117=201907231126521_S|131=20190723-000000000016.00|133=1000|135=100|762=AFIR|10=080|
8=FIX.4.4|9=0218|35=AI|34=3|49=EXC|56=037|57=037B18|52=20190723-16:28:02.318|117=201907231126521_S|55=T24U19F|762=AFIR|1=RT001|133=1000|135=100|62=20190830-22:00:00.000|297=9|300=99|58=(1584): Precio/tasa de venta está fuera del rango|10=065|
8=FIX.4.4|9=0214|35=R|34=4|49=EXC|56=037|57=037B18|52=20190723-16:28:22.348|131=20190723-000000000017.00|146=1|55=T24U19F|762=AFIR|48=27227|22=M|54=2|38=100|453=3|448=029B17|447=C|452=12|448=029|447=C|452=1|448=037B18|447=C|452=37|10=016|
8=FIX.4.4|9=59|35=0|34=3|49=037|50=037B18|52=20190723-16:27:53.621|56=EXC|10=071|
8=FIX.4.4|9=186|35=S|34=4|49=037|50=037B18|52=20190723-16:28:08.066|56=EXC|1=RT001|55=T24U19F|62=20190830-22:00:00.000|117=201907231126522_S|131=20190723-000000000017.00|133=1500|134=100|135=0|762=AFIR|10=103|
8=FIX.4.4|9=0249|35=AI|34=5|49=EXC|56=037|57=037B18|52=20190723-16:28:47.439|117=201907231126522_S|55=T24U19F|762=AFIR|1=RT001|133=1500|134=100|135=0|62=20190830-22:00:00.000|297=9|300=99|58=(1160): Regla de negocio - La cantidad de la orden debe ser por lo menos 1|10=090|
8=FIX.4.4|9=59|35=5|34=5|49=037|50=037B18|52=20190723-16:28:33.188|56=EXC|10=085|
8=FIX.4.4|9=0055|35=5|34=6|49=EXC|56=037|52=20190723-16:29:12.572|369=5|10=218|
8=FIX.4.4|9=110|35=A|34=1|49=037|50=037B18|52=20190723-16:31:06.550|56=EXC|43=N|98=0|108=30|141=Y|553=037FCM001|554=037FCM001|10=102|
8=FIX.4.4|9=0067|35=A|34=1|49=EXC|56=037|52=20190723-16:31:45.956|98=0|108=30|141=Y|10=026|
8=FIX.4.4|9=0214|35=R|34=2|49=EXC|56=037|57=037B18|52=20190723-16:31:51.837|131=20190723-000000000018.00|146=1|55=T24U19F|762=AFIR|48=27227|22=M|54=1|38=100|453=3|448=029B17|447=C|452=12|448=029|447=C|452=1|448=037B18|447=C|452=37|10=013|
8=FIX.4.4|9=180|35=S|34=2|49=037|50=037B18|52=20190723-16:31:32.584|56=EXC|1=RT001|55=T24U19F|62=20190830-22:00:00.000|117=201907231131021_S|131=20190723-000000000018.00|133=1000|135=100|762=AFIR|10=071|
8=FIX.4.4|9=0218|35=AI|34=3|49=EXC|56=037|57=037B18|52=20190723-16:32:11.959|117=201907231131021_S|55=T24U19F|762=AFIR|1=RT001|133=1000|135=100|62=20190830-22:00:00.000|297=9|300=99|58=(1584): Precio/tasa de venta está fuera del rango|10=062|
8=FIX.4.4|9=0214|35=R|34=4|49=EXC|56=037|57=037B18|52=20190723-16:32:32.026|131=20190723-000000000019.00|146=1|55=T24U19F|762=AFIR|48=27227|22=M|54=2|38=100|453=3|448=029B17|447=C|452=12|448=029|447=C|452=1|448=037B18|447=C|452=37|10=007|
8=FIX.4.4|9=59|35=0|34=3|49=037|50=037B18|52=20190723-16:32:03.196|56=EXC|10=069|
8=FIX.4.4|9=186|35=S|34=4|49=037|50=037B18|52=20190723-16:32:17.713|56=EXC|1=RT001|55=T24U19F|62=20190830-22:00:00.000|117=201907231131022_S|131=20190723-000000000019.00|133=1500|134=100|135=0|762=AFIR|10=090|
8=FIX.4.4|9=0249|35=AI|34=5|49=EXC|56=037|57=037B18|52=20190723-16:32:57.090|117=201907231131022_S|55=T24U19F|762=AFIR|1=RT001|133=1500|134=100|135=0|62=20190830-22:00:00.000|297=9|300=99|58=(1160): Regla de negocio - La cantidad de la orden debe ser por lo menos 1|10=070|
8=FIX.4.4|9=59|35=5|34=5|49=037|50=037B18|52=20190723-16:32:42.824|56=EXC|10=077|
8=FIX.4.4|9=0055|35=5|34=6|49=EXC|56=037|52=20190723-16:33:22.212|369=5|10=205|
8=FIX.4.4|9=110|35=A|34=1|49=037|50=037B18|52=20190723-16:37:00.503|56=EXC|43=N|98=0|108=30|141=Y|553=037FCM001|554=037FCM001|10=100|
8=FIX.4.4|9=0067|35=A|34=1|49=EXC|56=037|52=20190723-16:37:39.912|98=0|108=30|141=Y|10=027|
8=FIX.4.4|9=0214|35=R|34=2|49=EXC|56=037|57=037B18|52=20190723-16:37:45.679|131=20190723-000000000020.00|146=1|55=T24U19F|762=AFIR|48=27227|22=M|54=1|38=100|453=3|448=029B17|447=C|452=12|448=029|447=C|452=1|448=037B18|447=C|452=37|10=019|
8=FIX.4.4|9=180|35=S|34=2|49=037|50=037B18|52=20190723-16:37:26.409|56=EXC|1=RT001|55=T24U19F|62=20190830-22:00:00.000|117=201907231136551_S|131=20190723-000000000020.00|133=1000|135=100|762=AFIR|10=082|
8=FIX.4.4|9=0218|35=AI|34=3|49=EXC|56=037|57=037B18|52=20190723-16:38:05.794|117=201907231136551_S|55=T24U19F|762=AFIR|1=RT001|133=1000|135=100|62=20190830-22:00:00.000|297=9|300=99|58=(1584): Precio/tasa de venta está fuera del rango|10=081|
8=FIX.4.4|9=0049|35=0|34=4|49=EXC|56=037|52=20190723-16:38:35.000|10=184|
8=FIX.4.4|9=59|35=0|34=3|49=037|50=037B18|52=20190723-16:37:57.005|56=EXC|10=072|
8=FIX.4.4|9=110|35=A|34=1|49=037|50=037B18|52=20190723-16:41:28.324|56=EXC|43=N|98=0|108=30|141=Y|553=037FCM001|554=037FCM001|10=106|
8=FIX.4.4|9=0067|35=A|34=1|49=EXC|56=037|52=20190723-16:42:07.747|98=0|108=30|141=Y|10=024|
8=FIX.4.4|9=0214|35=R|34=2|49=EXC|56=037|57=037B18|52=20190723-16:42:13.627|131=20190723-000000000021.00|146=1|55=T24U19F|762=AFIR|48=27227|22=M|54=1|38=100|453=3|448=029B17|447=C|452=12|448=029|447=C|452=1|448=037B18|447=C|452=37|10=004|
8=FIX.4.4|9=180|35=S|34=2|49=037|50=037B18|52=20190723-16:41:54.359|56=EXC|1=RT001|55=T24U19F|62=20190830-22:00:00.000|117=201907231141231_S|131=20190723-000000000021.00|133=1000|135=100|762=AFIR|10=074|
8=FIX.4.4|9=0218|35=AI|34=3|49=EXC|56=037|57=037B18|52=20190723-16:42:33.743|117=201907231141231_S|55=T24U19F|762=AFIR|1=RT001|133=1000|135=100|62=20190830-22:00:00.000|297=9|300=99|58=(1584): Precio/tasa de venta está fuera del rango|10=062|
8=FIX.4.4|9=59|35=5|34=3|49=037|50=037B18|52=20190723-16:42:19.762|56=EXC|10=081|
8=FIX.4.4|9=0055|35=5|34=4|49=EXC|56=037|52=20190723-16:42:59.151|369=3|10=213|
8=FIX.4.4|9=110|35=A|34=1|49=037|50=037B18|52=20190723-16:48:30.887|56=EXC|43=N|98=0|108=30|141=Y|553=037FCM001|554=037FCM001|10=120|
8=FIX.4.4|9=0067|35=A|34=1|49=EXC|56=037|52=20190723-16:49:10.323|98=0|108=30|141=Y|10=015|
8=FIX.4.4|9=0214|35=R|34=2|49=EXC|56=037|57=037B18|52=20190723-16:49:16.046|131=20190723-000000000022.00|146=1|55=T24U19F|762=AFIR|48=27227|22=M|54=1|38=100|453=3|448=029B17|447=C|452=12|448=029|447=C|452=1|448=037B18|447=C|452=37|10=010|
8=FIX.4.4|9=180|35=S|34=2|49=037|50=037B18|52=20190723-16:48:56.766|56=EXC|1=RT001|55=T24U19F|62=20190830-22:00:00.000|117=201907231148261_S|131=20190723-000000000022.00|133=1000|135=100|762=AFIR|10=096|
8=FIX.4.4|9=0218|35=AI|34=3|49=EXC|56=037|57=037B18|52=20190723-16:49:36.169|117=201907231148261_S|55=T24U19F|762=AFIR|1=RT001|133=1000|135=100|62=20190830-22:00:00.000|297=9|300=99|58=(1584): Precio/tasa de venta está fuera del rango|10=084|
8=FIX.4.4|9=59|35=5|34=3|49=037|50=037B18|52=20190723-16:49:21.908|56=EXC|10=083|
8=FIX.4.4|9=0055|35=5|34=4|49=EXC|56=037|52=20190723-16:50:01.305|369=3|10=200|
8=FIX.4.4|9=110|35=A|34=1|49=037|50=037B18|52=20190723-16:52:26.794|56=EXC|43=N|98=0|108=30|141=Y|553=037FCM001|554=037FCM001|10=117|
8=FIX.4.4|9=0067|35=A|34=1|49=EXC|56=037|52=20190723-16:53:06.213|98=0|108=30|141=Y|10=013|
8=FIX.4.4|9=0214|35=R|34=2|49=EXC|56=037|57=037B18|52=20190723-16:53:12.144|131=20190723-000000000023.00|146=1|55=T24U19F|762=AFIR|48=27227|22=M|54=1|38=100|453=3|448=029B17|447=C|452=12|448=029|447=C|452=1|448=037B18|447=C|452=37|10=001|
8=FIX.4.4|9=180|35=S|34=2|49=037|50=037B18|52=20190723-16:52:52.897|56=EXC|1=RT001|55=T24U19F|62=20190830-22:00:00.000|117=201907231152221_S|131=20190723-000000000023.00|133=1000|135=100|762=AFIR|10=084|
8=FIX.4.4|9=0218|35=AI|34=3|49=EXC|56=037|57=037B18|52=20190723-16:53:32.292|117=201907231152221_S|55=T24U19F|762=AFIR|1=RT001|133=1000|135=100|62=20190830-22:00:00.000|297=9|300=99|58=(1584): Precio/tasa de venta está fuera del rango|10=063|
8=FIX.4.4|9=59|35=5|34=3|49=037|50=037B18|52=20190723-16:53:18.016|56=EXC|10=074|
8=FIX.4.4|9=0055|35=5|34=4|49=EXC|56=037|52=20190723-16:53:57.413|369=3|10=214|
8=FIX.4.4|9=110|35=A|34=1|49=037|50=037B18|52=20190723-18:39:51.675|56=EXC|43=N|98=0|108=30|141=Y|553=037FCM001|554=037FCM001|10=120|
8=FIX.4.4|9=0067|35=A|34=1|49=EXC|56=037|52=20190723-18:40:31.172|98=0|108=30|141=Y|10=013|
8=FIX.4.4|9=0214|35=R|34=2|49=EXC|56=037|57=037B18|52=20190723-18:40:37.047|131=20190723-000000000016.00|146=1|55=T24U19F|762=AFIR|48=27227|22=M|54=1|38=100|453=3|448=029B17|447=C|452=12|448=029|447=C|452=1|448=037B18|447=C|452=37|10=010|
8=FIX.4.4|9=180|35=S|34=2|49=037|50=037B18|52=20190723-18:40:17.663|56=EXC|1=RT001|55=T24U19F|62=20190830-22:00:00.000|117=201907231339471_S|131=20190723-000000000016.00|133=1000|135=100|762=AFIR|10=091|
8=FIX.4.4|9=0281|35=AI|34=3|49=EXC|56=037|57=037B18|52=20190723-18:40:57.138|131=20190723-000000000016.00|117=201907231339471_S|453=3|448=029B17|447=C|452=12|448=029|447=C|452=1|448=037B18|447=C|452=37|55=T24U19F|762=AFIR|48=27227|22=M|54=1|1=RT001|133=1000.000|135=100|62=20190830-22:00:00|297=16|10=062|
8=FIX.4.4|9=0462|35=8|34=4|49=EXC|56=037|57=037B18|52=20190723-18:41:17.218|11=201907231339471_S|17=1|37=0|150=F|1080=20190723-000000000016.00|1081=6|453=5|448=037B18|447=C|452=12|448=037|447=C|452=1|448=029B17|447=C|452=37|448=029|447=C|452=17|448=037FCM001|447=C|452=36|55=T24U19F|762=AFIR|48=27227|22=M|6=1000.000|14=100|31=1000.000|32=100|38=100|39=2|54=2|60=20190723-18:41:17.218|75=20190723|63=1|64=20190723|151=0|1=RT001|381=250000000000.000|880=201907230000000001|828=99|10=091|
8=FIX.4.4|9=59|35=0|34=3|49=037|50=037B18|52=20190723-18:40:48.414|56=EXC|10=072|
8=FIX.4.4|9=0049|35=0|34=5|49=EXC|56=037|52=20190723-18:41:47.000|10=184|
8=FIX.4.4|9=59|35=5|34=4|49=037|50=037B18|52=20190723-18:41:08.403|56=EXC|10=073|
8=FIX.4.4|9=0055|35=5|34=6|49=EXC|56=037|52=20190723-18:41:47.874|369=4|10=226|
8=FIX.4.4|9=59|35=5|34=5|49=037|50=037B18|52=20190723-18:41:08.403|56=EXC|10=074|
8=FIX.4.4|9=110|35=A|34=1|49=037|50=037B18|52=20190723-18:51:17.565|56=EXC|43=N|98=0|108=30|141=Y|553=037FCM001|554=037FCM001|10=114|
8=FIX.4.4|9=0067|35=A|34=1|49=EXC|56=037|52=20190723-18:51:57.077|98=0|108=30|141=Y|10=027|
8=FIX.4.4|9=0214|35=R|34=2|49=EXC|56=037|57=037B18|52=20190723-18:52:02.906|131=20190723-000000000017.00|146=1|55=T24U19F|762=AFIR|48=27227|22=M|54=1|38=100|453=3|448=029B17|447=C|452=12|448=029|447=C|452=1|448=037B18|447=C|452=37|10=010|
8=FIX.4.4|9=180|35=S|34=2|49=037|50=037B18|52=20190723-18:51:43.530|56=EXC|1=RT001|55=T24U19F|62=20190830-22:00:00.000|117=201907231351131_S|131=20190723-000000000017.00|133=1000|135=100|762=AFIR|10=073|
8=FIX.4.4|9=0281|35=AI|34=3|49=EXC|56=037|57=037B18|52=20190723-18:52:23.025|131=20190723-000000000017.00|117=201907231351131_S|453=3|448=029B17|447=C|452=12|448=029|447=C|452=1|448=037B18|447=C|452=37|55=T24U19F|762=AFIR|48=27227|22=M|54=1|1=RT001|133=1000.000|135=100|62=20190830-22:00:00|297=16|10=041|
8=FIX.4.4|9=0462|35=8|34=4|49=EXC|56=037|57=037B18|52=20190723-18:52:43.090|11=201907231351131_S|17=2|37=0|150=F|1080=20190723-000000000017.00|1081=6|453=5|448=037B18|447=C|452=12|448=037|447=C|452=1|448=029B17|447=C|452=37|448=029|447=C|452=17|448=037FCM001|447=C|452=36|55=T24U19F|762=AFIR|48=27227|22=M|6=1000.000|14=100|31=1000.000|32=100|38=100|39=2|54=2|60=20190723-18:52:43.090|75=20190723|63=1|64=20190723|151=0|1=RT001|381=250000000000.000|880=201907230000000002|828=99|10=079|
8=FIX.4.4|9=59|35=0|34=3|49=037|50=037B18|52=20190723-18:52:14.136|56=EXC|10=069|
8=FIX.4.4|9=0049|35=0|34=5|49=EXC|56=037|52=20190723-18:53:13.000|10=180|
8=FIX.4.4|9=59|35=5|34=4|49=037|50=037B18|52=20190723-18:52:33.774|56=EXC|10=084|
8=FIX.4.4|9=0055|35=5|34=6|49=EXC|56=037|52=20190723-18:53:13.266|369=4|10=217|
8=FIX.4.4|9=110|35=A|34=1|49=037|50=037B18|52=20190723-20:20:39.698|56=EXC|43=N|98=0|108=30|141=Y|553=037FCM001|554=037FCM001|10=114|
8=FIX.4.4|9=0067|35=A|34=1|49=EXC|56=037|52=20190723-15:03:34.306|98=0|108=30|141=Y|10=011|
8=FIX.4.4|9=0214|35=R|34=2|49=EXC|56=037|57=037B18|52=20190723-15:03:40.192|131=20190723-000000000003.00|146=1|55=T24U19F|762=AFIR|48=27227|22=M|54=1|38=100|453=3|448=029B17|447=C|452=12|448=029|447=C|452=1|448=037B18|447=C|452=37|10=253|
8=FIX.4.4|9=59|35=0|34=2|49=037|50=037B18|52=20190723-20:21:10.413|56=EXC|10=051|
8=FIX.4.4|9=0049|35=0|34=3|49=EXC|56=037|52=20190723-15:04:10.000|10=168|
8=FIX.4.4|9=110|35=A|34=1|49=037|50=037B18|52=20190723-20:21:42.720|56=EXC|43=N|98=0|108=30|141=Y|553=037FCM001|554=037FCM001|10=095|
8=FIX.4.4|9=110|35=A|34=1|49=037|50=037B18|52=20190723-20:49:27.844|56=EXC|43=N|98=0|108=30|141=Y|553=037FCM001|554=037FCM001|10=115|
8=FIX.4.4|9=0067|35=A|34=1|49=EXC|56=037|52=20190723-15:25:54.456|98=0|108=30|141=Y|10=023|
8=FIX.4.4|9=0214|35=R|34=2|49=EXC|56=037|57=037B18|52=20190723-15:26:00.266|131=20190723-000000000023.00|146=1|55=T24U19F|762=AFIR|48=27227|22=M|54=1|38=100|453=3|448=029B17|447=C|452=12|448=029|447=C|452=1|448=037B18|447=C|452=37|10=002|
8=FIX.4.4|9=179|35=S|34=2|49=037|50=037B18|52=20190723-20:49:53.811|56=EXC|1=RT001|55=T24U19F|62=20190830-22:00:00.000|117=201907231549231_S|131=20190723-000000000023.00|133=100|135=100|762=AFIR|10=043|
8=FIX.4.4|9=0217|35=AI|34=3|49=EXC|56=037|57=037B18|52=20190723-15:26:20.398|117=201907231549231_S|55=T24U19F|762=AFIR|1=RT001|133=100|135=100|62=20190830-22:00:00.000|297=9|300=99|58=(1584): Precio/tasa de venta está fuera del rango|10=028|
8=FIX.4.4|9=0214|35=R|34=4|49=EXC|56=037|57=037B18|52=20190723-15:26:40.443|131=20190723-000000000024.00|146=1|55=T24U19F|762=AFIR|48=27227|22=M|54=2|38=100|453=3|448=029B17|447=C|452=12|448=029|447=C|452=1|448=037B18|447=C|452=37|10=007|
8=FIX.4.4|9=59|35=0|34=3|49=037|50=037B18|52=20190723-20:50:24.510|56=EXC|10=057|
8=FIX.4.4|9=185|35=S|34=4|49=037|50=037B18|52=20190723-20:50:38.911|56=EXC|1=RT001|55=T24U19F|62=20190830-22:00:00.000|117=201907231549232_S|131=20190723-000000000024.00|132=120|134=100|135=0|762=AFIR|10=047|
8=FIX.4.4|9=0280|35=AI|34=5|49=EXC|56=037|57=037B18|52=20190723-15:27:05.496|131=20190723-000000000024.00|117=201907231549232_S|453=3|448=029B17|447=C|452=12|448=029|447=C|452=1|448=037B18|447=C|452=37|55=T24U19F|762=AFIR|48=27227|22=M|54=2|1=RT001|132=120.000|134=100|62=20190830-22:00:00|297=16|10=015|
8=FIX.4.4|9=0459|35=8|34=6|49=EXC|56=037|57=037B18|52=20190723-15:27:25.556|11=201907231549232_S|17=6|37=0|150=F|1080=20190723-000000000024.00|1081=6|453=5|448=037B18|447=C|452=12|448=037|447=C|452=1|448=029B17|447=C|452=37|448=029|447=C|452=17|448=037FCM001|447=C|452=36|55=T24U19F|762=AFIR|48=27227|22=M|6=120.000|14=100|31=120.000|32=100|38=100|39=2|54=1|60=20190723-15:27:25.556|75=20190723|63=1|64=20190723|151=0|1=RT001|381=30000000000.000|880=201907230000000006|828=99|10=227|
8=FIX.4.4|9=59|35=0|34=5|49=037|50=037B18|52=20190723-20:51:09.494|56=EXC|10=074|
8=FIX.4.4|9=0214|35=R|34=7|49=EXC|56=037|57=037B18|52=20190723-15:27:50.681|131=20190723-000000000025.00|146=1|55=T24U19F|762=AFIR|48=27227|22=M|54=1|38=150|453=3|448=029B17|447=C|452=12|448=029|447=C|452=1|448=037B18|447=C|452=37|10=021|
8=FIX.4.4|9=59|35=0|34=6|49=037|50=037B18|52=20190723-20:51:39.501|56=EXC|10=067|
8=FIX.4.4|9=179|35=S|34=7|49=037|50=037B18|52=20190723-20:51:49.135|56=EXC|1=RT001|55=T24U19F|62=20190830-22:00:00.000|117=201907231549233_S|131=20190723-000000000025.00|133=123|135=150|762=AFIR|10=059|
8=FIX.4.4|9=0280|35=AI|34=8|49=EXC|56=037|57=037B18|52=20190723-15:28:15.715|131=20190723-000000000025.00|117=201907231549233_S|453=3|448=029B17|447=C|452=12|448=029|447=C|452=1|448=037B18|447=C|452=37|55=T24U19F|762=AFIR|48=27227|22=M|54=1|1=RT001|133=123.000|135=150|62=20190830-22:00:00|297=16|10=025|
8=FIX.4.4|9=0459|35=8|34=9|49=EXC|56=037|57=037B18|52=20190723-15:28:35.760|11=201907231549233_S|17=7|37=0|150=F|1080=20190723-000000000025.00|1081=6|453=5|448=037B18|447=C|452=12|448=037|447=C|452=1|448=029B17|447=C|452=37|448=029|447=C|452=17|448=037FCM001|447=C|452=36|55=T24U19F|762=AFIR|48=27227|22=M|6=123.000|14=150|31=123.000|32=150|38=150|39=2|54=2|60=20190723-15:28:35.760|75=20190723|63=1|64=20190723|151=0|1=RT001|381=46125000000.000|880=201907230000000007|828=99|10=013|
8=FIX.4.4|9=59|35=0|34=8|49=037|50=037B18|52=20190723-20:52:19.509|56=EXC|10=076|
8=FIX.4.4|9=0050|35=0|34=10|49=EXC|56=037|52=20190723-15:29:05.000|10=217|
8=FIX.4.4|9=59|35=0|34=9|49=037|50=037B18|52=20190723-20:52:49.500|56=EXC|10=071|
8=FIX.4.4|9=0050|35=0|34=11|49=EXC|56=037|52=20190723-15:29:35.000|10=221|
8=FIX.4.4|9=60|35=0|34=10|49=037|50=037B18|52=20190723-20:53:19.499|56=EXC|10=118|
8=FIX.4.4|9=0050|35=0|34=12|49=EXC|56=037|52=20190723-15:30:05.000|10=211|
8=FIX.4.4|9=60|35=0|34=11|49=037|50=037B18|52=20190723-20:53:49.505|56=EXC|10=110|
8=FIX.4.4|9=0050|35=0|34=13|49=EXC|56=037|52=20190723-15:30:35.000|10=215|
8=FIX.4.4|9=60|35=0|34=12|49=037|50=037B18|52=20190723-20:54:19.509|56=EXC|10=113|
8=FIX.4.4|9=0213|35=R|34=14|49=EXC|56=037|57=037B18|52=20190723-15:30:46.126|131=20190723-000000000027.00|146=1|55=I06H99F|762=AFIR|48=27166|22=M|54=1|38=7|453=3|448=029B17|447=C|452=12|448=029|447=C|452=1|448=037B18|447=C|452=37|10=208|
8=FIX.4.4|9=0213|35=R|34=15|49=EXC|56=037|57=037B18|52=20190723-15:31:11.182|131=20190723-000000000027.00|146=1|55=I06H99F|762=AFIR|48=27166|22=M|54=1|38=0|453=3|448=029B17|447=C|452=12|448=029|447=C|452=1|448=037B18|447=C|452=37|10=197|
8=FIX.4.4|9=60|35=0|34=13|49=037|50=037B18|52=20190723-20:54:49.508|56=EXC|10=116|
8=FIX.4.4|9=0214|35=R|34=16|49=EXC|56=037|57=037B18|52=20190723-15:31:31.276|131=20190723-000000000028.01|146=1|55=T24U19F|762=AFIR|48=27227|22=M|54=1|38=15|453=3|448=045B17|447=C|452=12|448=045|447=C|452=1|448=037B18|447=C|452=37|10=015|
8=FIX.4.4|9=60|35=0|34=14|49=037|50=037B18|52=20190723-20:55:19.507|56=EXC|10=114|
8=FIX.4.4|9=0213|35=R|34=17|49=EXC|56=037|57=037B18|52=20190723-15:31:56.290|131=20190723-000000000028.01|146=1|55=T24U19F|762=AFIR|48=27227|22=M|54=1|38=0|453=3|448=045B17|447=C|452=12|448=045|447=C|452=1|448=037B18|447=C|452=37|10=220|
8=FIX.4.4|9=60|35=0|34=15|49=037|50=037B18|52=20190723-20:55:49.507|56=EXC|10=118|
8=FIX.4.4|9=0050|35=0|34=18|49=EXC|56=037|52=20190723-15:32:26.000|10=222|
8=FIX.4.4|9=60|35=5|34=16|49=037|50=037B18|52=20190723-20:55:59.991|56=EXC|10=132|
8=FIX.4.4|9=0057|35=5|34=19|49=EXC|56=037|52=20190723-15:32:26.575|369=16|10=067|
8=FIX.4.4|9=110|35=A|34=1|49=037|50=037B18|52=20190724-14:43:51.933|56=EXC|43=N|98=0|108=30|141=Y|553=037FCM001|554=037FCM001|10=109|
8=FIX.4.4|9=0067|35=A|34=1|49=EXC|56=037|52=20190724-14:44:32.341|98=0|108=30|141=Y|10=013|
8=FIX.4.4|9=0214|35=R|34=2|49=EXC|56=037|57=037B18|52=20190724-14:44:38.271|131=20190724-000000000001.00|146=1|55=T24U19F|762=AFIR|48=27227|22=M|54=1|38=100|453=3|448=029B17|447=C|452=12|448=029|447=C|452=1|448=037B18|447=C|452=37|10=006|
8=FIX.4.4|9=178|35=S|34=2|49=037|50=037B18|52=20190724-14:44:18.108|56=EXC|1=RT001|55=T24U19F|62=20190830-22:00:00.000|117=20190724943471_S|131=20190724-000000000001.00|133=100|135=100|762=AFIR|10=250|
8=FIX.4.4|9=0216|35=AI|34=3|49=EXC|56=037|57=037B18|52=20190724-14:44:58.516|117=20190724943471_S|55=T24U19F|762=AFIR|1=RT001|133=100|135=100|62=20190830-22:00:00.000|297=9|300=99|58=(1584): Precio/tasa de venta está fuera del rango|10=242|
8=FIX.4.4|9=59|35=5|34=3|49=037|50=037B18|52=20190724-14:44:43.293|56=EXC|10=078|
8=FIX.4.4|9=0055|35=5|34=4|49=EXC|56=037|52=20190724-14:45:23.709|369=3|10=215|
8=FIX.4.4|9=110|35=A|34=1|49=037|50=037B18|52=20190724-14:56:26.347|56=EXC|43=N|98=0|108=30|141=Y|553=037FCM001|554=037FCM001|10=114|
8=FIX.4.4|9=0067|35=A|34=1|49=EXC|56=037|52=20190724-14:57:06.782|98=0|108=30|141=Y|10=027|
8=FIX.4.4|9=0214|35=R|34=2|49=EXC|56=037|57=037B18|52=20190724-14:57:12.784|131=20190724-000000000002.00|146=1|55=T24U19F|762=AFIR|48=27227|22=M|54=1|38=100|453=3|448=029B17|447=C|452=12|448=029|447=C|452=1|448=037B18|447=C|452=37|10=012|
8=FIX.4.4|9=178|35=S|34=2|49=037|50=037B18|52=20190724-14:56:52.483|56=EXC|1=RT001|55=T24U19F|62=20190830-22:00:00.000|117=20190724956211_S|131=20190724-000000000002.00|133=100|135=100|762=AFIR|10=254|
8=FIX.4.4|9=0216|35=AI|34=3|49=EXC|56=037|57=037B18|52=20190724-14:57:32.897|117=20190724956211_S|55=T24U19F|762=AFIR|1=RT001|133=100|135=100|62=20190830-22:00:00.000|297=9|300=99|58=(1584): Precio/tasa de venta está fuera del rango|10=246|
8=FIX.4.4|9=59|35=5|34=3|49=037|50=037B18|52=20190724-14:57:17.651|56=EXC|10=081|
8=FIX.4.4|9=0055|35=5|34=4|49=EXC|56=037|52=20190724-14:57:58.076|369=3|10=223|
8=FIX.4.4|9=110|35=A|34=1|49=037|50=037B18|52=20190724-15:16:13.646|56=EXC|43=N|98=0|108=30|141=Y|553=037FCM001|554=037FCM001|10=109|
8=FIX.4.4|9=0067|35=A|34=1|49=EXC|56=037|52=20190724-15:16:54.106|98=0|108=30|141=Y|10=016|
8=FIX.4.4|9=0214|35=R|34=2|49=EXC|56=037|57=037B18|52=20190724-15:16:59.995|131=20190724-000000000003.00|146=1|55=T24U19F|762=AFIR|48=27227|22=M|54=1|38=100|453=3|448=029B17|447=C|452=12|448=029|447=C|452=1|448=037B18|447=C|452=37|10=024|
8=FIX.4.4|9=179|35=S|34=2|49=037|50=037B18|52=20190724-15:16:39.665|56=EXC|1=RT001|55=T24U19F|62=20190830-22:00:00.000|117=201907241016091_S|131=20190724-000000000003.00|133=100|135=100|762=AFIR|10=046|
8=FIX.4.4|9=0217|35=AI|34=3|49=EXC|56=037|57=037B18|52=20190724-15:17:20.089|117=201907241016091_S|55=T24U19F|762=AFIR|1=RT001|133=100|135=100|62=20190830-22:00:00.000|297=9|300=99|58=(1584): Precio/tasa de venta está fuera del rango|10=020|
8=FIX.4.4|9=59|35=5|34=3|49=037|50=037B18|52=20190724-15:17:04.801|56=EXC|10=071|
8=FIX.4.4|9=0055|35=5|34=4|49=EXC|56=037|52=20190724-15:17:45.227|369=3|10=214|
8=FIX.4.4|9=110|35=A|34=1|49=037|50=037B18|52=20190724-16:08:06.360|56=EXC|43=N|98=0|108=30|141=Y|553=037FCM001|554=037FCM001|10=106|
8=FIX.4.4|9=0067|35=A|34=1|49=EXC|56=037|52=20190724-16:08:46.861|98=0|108=30|141=Y|10=027|
8=FIX.4.4|9=0214|35=R|34=2|49=EXC|56=037|57=037B18|52=20190724-16:08:52.538|131=20190724-000000000004.00|146=1|55=T24U19F|762=AFIR|48=27227|22=M|54=1|38=100|453=3|448=029B17|447=C|452=12|448=029|447=C|452=1|448=037B18|447=C|452=37|10=013|
8=FIX.4.4|9=179|35=S|34=2|49=037|50=037B18|52=20190724-16:08:32.151|56=EXC|1=RT001|55=T24U19F|62=20190830-22:00:00.000|117=201907241107591_S|131=20190724-000000000004.00|133=100|135=100|762=AFIR|10=038|
8=FIX.4.4|9=0217|35=AI|34=3|49=EXC|56=037|57=037B18|52=20190724-16:09:12.629|117=201907241107591_S|55=T24U19F|762=AFIR|1=RT001|133=100|135=100|62=20190830-22:00:00.000|297=9|300=99|58=(1584): Precio/tasa de venta está fuera del rango|10=029|
8=FIX.4.4|9=59|35=5|34=3|49=037|50=037B18|52=20190724-16:08:57.346|56=EXC|10=084|
8=FIX.4.4|9=0055|35=5|34=4|49=EXC|56=037|52=20190724-16:09:37.845|369=3|10=223|
8=FIX.4.4|9=110|35=A|34=1|49=037|50=037B18|52=20190724-16:11:27.175|56=EXC|43=N|98=0|108=30|141=Y|553=037FCM001|554=037FCM001|10=107|
8=FIX.4.4|9=0067|35=A|34=1|49=EXC|56=037|52=20190724-16:12:07.706|98=0|108=30|141=Y|10=017|
8=FIX.4.4|9=0214|35=R|34=2|49=EXC|56=037|57=037B18|52=20190724-16:12:13.419|131=20190724-000000000005.00|146=1|55=T24U19F|762=AFIR|48=27227|22=M|54=1|38=100|453=3|448=029B17|447=C|452=12|448=029|447=C|452=1|448=037B18|447=C|452=37|10=004|
8=FIX.4.4|9=179|35=S|34=2|49=037|50=037B18|52=20190724-16:11:53.197|56=EXC|1=RT001|55=T24U19F|62=20190830-22:00:00.000|117=201907241111221_S|131=20190724-000000000005.00|133=100|135=100|762=AFIR|10=031|
8=FIX.4.4|9=0217|35=AI|34=3|49=EXC|56=037|57=037B18|52=20190724-16:12:33.677|117=201907241111221_S|55=T24U19F|762=AFIR|1=RT001|133=100|135=100|62=20190830-22:00:00.000|297=9|300=99|58=(1584): Precio/tasa de venta está fuera del rango|10=014|
8=FIX.4.4|9=0214|35=R|34=4|49=EXC|56=037|57=037B18|52=20190724-16:12:53.750|131=20190724-000000000006.00|146=1|55=T24U19F|762=AFIR|48=27227|22=M|54=2|38=100|453=3|448=029B17|447=C|452=12|448=029|447=C|452=1|448=037B18|447=C|452=37|10=010|
8=FIX.4.4|9=59|35=0|34=3|49=037|50=037B18|52=20190724-16:12:23.703|56=EXC|10=064|
8=FIX.4.4|9=185|35=S|34=4|49=037|50=037B18|52=20190724-16:12:38.343|56=EXC|1=RT001|55=T24U19F|62=20190830-22:00:00.000|117=201907241111222_S|131=20190724-000000000006.00|132=120|134=100|135=0|762=AFIR|10=036|
8=FIX.4.4|9=0280|35=AI|34=5|49=EXC|56=037|57=037B18|52=20190724-16:13:18.821|131=20190724-000000000006.00|117=201907241111222_S|453=3|448=029B17|447=C|452=12|448=029|447=C|452=1|448=037B18|447=C|452=37|55=T24U19F|762=AFIR|48=27227|22=M|54=2|1=RT001|132=120.000|134=100|62=20190830-22:00:00|297=16|10=250|
8=FIX.4.4|9=0459|35=8|34=6|49=EXC|56=037|57=037B18|52=20190724-16:13:38.888|11=201907241111222_S|17=1|37=0|150=F|1080=20190724-000000000006.00|1081=6|453=5|448=037B18|447=C|452=12|448=037|447=C|452=1|448=029B17|447=C|452=37|448=029|447=C|452=17|448=037FCM001|447=C|452=36|55=T24U19F|762=AFIR|48=27227|22=M|6=120.000|14=100|31=120.000|32=100|38=100|39=2|54=1|60=20190724-16:13:38.888|75=20190724|63=1|64=20190724|151=0|1=RT001|381=30000000000.000|880=201907240000000001|828=99|10=224|
8=FIX.4.4|9=59|35=0|34=5|49=037|50=037B18|52=20190724-16:13:08.703|56=EXC|10=070|
8=FIX.4.4|9=0214|35=R|34=7|49=EXC|56=037|57=037B18|52=20190724-16:14:04.014|131=20190724-000000000007.00|146=1|55=T24U19F|762=AFIR|48=27227|22=M|54=1|38=150|453=3|448=029B17|447=C|452=12|448=029|447=C|452=1|448=037B18|447=C|452=37|10=009|
8=FIX.4.4|9=59|35=0|34=6|49=037|50=037B18|52=20190724-16:13:38.721|56=EXC|10=074|
8=FIX.4.4|9=179|35=S|34=7|49=037|50=037B18|52=20190724-16:13:43.615|56=EXC|1=RT001|55=T24U19F|62=20190830-22:00:00.000|117=201907241111223_S|131=20190724-000000000007.00|133=123|135=150|762=AFIR|10=046|
8=FIX.4.4|9=0280|35=AI|34=8|49=EXC|56=037|57=037B18|52=20190724-16:14:24.094|131=20190724-000000000007.00|117=201907241111223_S|453=3|448=029B17|447=C|452=12|448=029|447=C|452=1|448=037B18|447=C|452=37|55=T24U19F|762=AFIR|48=27227|22=M|54=1|1=RT001|133=123.000|135=150|62=20190830-22:00:00|297=16|10=008|
8=FIX.4.4|9=0459|35=8|34=9|49=EXC|56=037|57=037B18|52=20190724-16:14:44.146|11=201907241111223_S|17=2|37=0|150=F|1080=20190724-000000000007.00|1081=6|453=5|448=037B18|447=C|452=12|448=037|447=C|452=1|448=029B17|447=C|452=37|448=029|447=C|452=17|448=037FCM001|447=C|452=36|55=T24U19F|762=AFIR|48=27227|22=M|6=123.000|14=150|31=123.000|32=150|38=150|39=2|54=2|60=20190724-16:14:44.146|75=20190724|63=1|64=20190724|151=0|1=RT001|381=46125000000.000|880=201907240000000002|828=99|10=238|
8=FIX.4.4|9=59|35=0|34=8|49=037|50=037B18|52=20190724-16:14:13.749|56=EXC|10=080|
8=FIX.4.4|9=0050|35=0|34=10|49=EXC|56=037|52=20190724-16:15:14.000|10=214|
8=FIX.4.4|9=59|35=0|34=9|49=037|50=037B18|52=20190724-16:14:44.709|56=EXC|10=081|
8=FIX.4.4|9=0050|35=0|34=11|49=EXC|56=037|52=20190724-16:15:44.000|10=218|
8=FIX.4.4|9=60|35=0|34=10|49=037|50=037B18|52=20190724-16:15:15.696|56=EXC|10=117|
8=FIX.4.4|9=0050|35=0|34=12|49=EXC|56=037|52=20190724-16:16:14.000|10=217|
8=FIX.4.4|9=60|35=0|34=11|49=037|50=037B18|52=20190724-16:15:45.704|56=EXC|10=111|
8=FIX.4.4|9=0050|35=0|34=13|49=EXC|56=037|52=20190724-16:16:44.000|10=221|
8=FIX.4.4|9=0213|35=R|34=14|49=EXC|56=037|57=037B18|52=20190724-16:16:55.014|131=20190724-000000000009.00|146=1|55=I06H99F|762=AFIR|48=27166|22=M|54=1|38=7|453=3|448=029B17|447=C|452=12|448=029|447=C|452=1|448=037B18|447=C|452=37|10=211|
8=FIX.4.4|9=60|35=0|34=12|49=037|50=037B18|52=20190724-16:16:15.698|56=EXC|10=122|
8=FIX.4.4|9=0213|35=R|34=15|49=EXC|56=037|57=037B18|52=20190724-16:17:20.065|131=20190724-000000000009.00|146=1|55=I06H99F|762=AFIR|48=27166|22=M|54=1|38=0|453=3|448=029B17|447=C|452=12|448=029|447=C|452=1|448=037B18|447=C|452=37|10=204|
8=FIX.4.4|9=60|35=0|34=13|49=037|50=037B18|52=20190724-16:16:45.705|56=EXC|10=115|
8=FIX.4.4|9=0214|35=R|34=16|49=EXC|56=037|57=037B18|52=20190724-16:17:40.145|131=20190724-000000000010.01|146=1|55=T24U19F|762=AFIR|48=27227|22=M|54=1|38=15|453=3|448=045B17|447=C|452=12|448=045|447=C|452=1|448=037B18|447=C|452=37|10=008|
8=FIX.4.4|9=60|35=0|34=14|49=037|50=037B18|52=20190724-16:17:15.706|56=EXC|10=115|
8=FIX.4.4|9=0213|35=R|34=17|49=EXC|56=037|57=037B18|52=20190724-16:18:00.393|131=20190724-000000000010.01|146=1|55=T24U19F|762=AFIR|48=27227|22=M|54=1|38=0|453=3|448=045B17|447=C|452=12|448=045|447=C|452=1|448=037B18|447=C|452=37|10=212|
8=FIX.4.4|9=60|35=0|34=15|49=037|50=037B18|52=20190724-16:17:45.705|56=EXC|10=118|
8=FIX.4.4|9=0050|35=0|34=18|49=EXC|56=037|52=20190724-16:18:30.000|10=223|
8=FIX.4.4|9=60|35=5|34=16|49=037|50=037B18|52=20190724-16:17:50.248|56=EXC|10=122|
8=FIX.4.4|9=0057|35=5|34=19|49=EXC|56=037|52=20190724-16:18:30.727|369=16|10=067|
8=FIX.4.4|9=110|35=A|34=1|49=037|50=037B18|52=20190724-16:28:05.377|56=EXC|43=N|98=0|108=30|141=Y|553=037FCM001|554=037FCM001|10=115|
8=FIX.4.4|9=0067|35=A|34=1|49=EXC|56=037|52=20190724-16:28:45.888|98=0|108=30|141=Y|10=037|
8=FIX.4.4|9=0214|35=R|34=2|49=EXC|56=037|57=037B18|52=20190724-16:28:51.695|131=20190724-000000000011.00|146=1|55=T24U19F|762=AFIR|48=27227|22=M|54=1|38=100|453=3|448=029B17|447=C|452=12|448=029|447=C|452=1|448=037B18|447=C|452=37|10=016|
8=FIX.4.4|9=179|35=S|34=2|49=037|50=037B18|52=20190724-16:28:31.472|56=EXC|1=RT001|55=T24U19F|62=20190830-22:00:00.000|117=201907241128011_S|131=20190724-000000000011.00|133=100|135=100|762=AFIR|10=033|
8=FIX.4.4|9=0217|35=AI|34=3|49=EXC|56=037|57=037B18|52=20190724-16:29:11.960|117=201907241128011_S|55=T24U19F|762=AFIR|1=RT001|133=100|135=100|62=20190830-22:00:00.000|297=9|300=99|58=(1584): Precio/tasa de venta está fuera del rango|10=018|
8=FIX.4.4|9=0214|35=R|34=4|49=EXC|56=037|57=037B18|52=20190724-16:29:32.016|131=20190724-000000000012.00|146=1|55=T24U19F|762=AFIR|48=27227|22=M|54=2|38=100|453=3|448=029B17|447=C|452=12|448=029|447=C|452=1|448=037B18|447=C|452=37|10=007|
8=FIX.4.4|9=59|35=0|34=3|49=037|50=037B18|52=20190724-16:29:02.043|56=EXC|10=066|
8=FIX.4.4|9=185|35=S|34=4|49=037|50=037B18|52=20190724-16:29:16.604|56=EXC|1=RT001|55=T24U19F|62=20190830-22:00:00.000|117=201907241128012_S|131=20190724-000000000012.00|132=120|134=100|135=0|762=AFIR|10=042|
8=FIX.4.4|9=0280|35=AI|34=5|49=EXC|56=037|57=037B18|52=20190724-16:29:57.089|131=20190724-000000000012.00|117=201907241128012_S|453=3|448=029B17|447=C|452=12|448=029|447=C|452=1|448=037B18|447=C|452=37|55=T24U19F|762=AFIR|48=27227|22=M|54=2|1=RT001|132=120.000|134=100|62=20190830-22:00:00|297=16|10=012|
8=FIX.4.4|9=0459|35=8|34=6|49=EXC|56=037|57=037B18|52=20190724-16:30:17.156|11=201907241128012_S|17=3|37=0|150=F|1080=20190724-000000000012.00|1081=6|453=5|448=037B18|447=C|452=12|448=037|447=C|452=1|448=029B17|447=C|452=37|448=029|447=C|452=17|448=037FCM001|447=C|452=36|55=T24U19F|762=AFIR|48=27227|22=M|6=120.000|14=100|31=120.000|32=100|38=100|39=2|54=1|60=20190724-16:30:17.156|75=20190724|63=1|64=20190724|151=0|1=RT001|381=30000000000.000|880=201907240000000003|828=99|10=198|
8=FIX.4.4|9=59|35=0|34=5|49=037|50=037B18|52=20190724-16:29:47.053|56=EXC|10=078|
8=FIX.4.4|9=0214|35=R|34=7|49=EXC|56=037|57=037B18|52=20190724-16:30:42.271|131=20190724-000000000013.00|146=1|55=T24U19F|762=AFIR|48=27227|22=M|54=1|38=150|453=3|448=029B17|447=C|452=12|448=029|447=C|452=1|448=037B18|447=C|452=37|10=011|
8=FIX.4.4|9=59|35=0|34=6|49=037|50=037B18|52=20190724-16:30:17.045|56=EXC|10=069|
8=FIX.4.4|9=179|35=S|34=7|49=037|50=037B18|52=20190724-16:30:26.841|56=EXC|1=RT001|55=T24U19F|62=20190830-22:00:00.000|117=201907241128013_S|131=20190724-000000000013.00|133=123|135=150|762=AFIR|10=049|
8=FIX.4.4|9=0280|35=AI|34=8|49=EXC|56=037|57=037B18|52=20190724-16:31:07.331|131=20190724-000000000013.00|117=201907241128013_S|453=3|448=029B17|447=C|452=12|448=029|447=C|452=1|448=037B18|447=C|452=37|55=T24U19F|762=AFIR|48=27227|22=M|54=1|1=RT001|133=123.000|135=150|62=20190830-22:00:00|297=16|10=004|
8=FIX.4.4|9=0459|35=8|34=9|49=EXC|56=037|57=037B18|52=20190724-16:31:27.385|11=201907241128013_S|17=4|37=0|150=F|1080=20190724-000000000013.00|1081=6|453=5|448=037B18|447=C|452=12|448=037|447=C|452=1|448=029B17|447=C|452=37|448=029|447=C|452=17|448=037FCM001|447=C|452=36|55=T24U19F|762=AFIR|48=27227|22=M|6=123.000|14=150|31=123.000|32=150|38=150|39=2|54=2|60=20190724-16:31:27.385|75=20190724|63=1|64=20190724|151=0|1=RT001|381=46125000000.000|880=201907240000000004|828=99|10=254|
8=FIX.4.4|9=59|35=0|34=8|49=037|50=037B18|52=20190724-16:30:57.044|56=EXC|10=074|
8=FIX.4.4|9=0050|35=0|34=10|49=EXC|56=037|52=20190724-16:31:57.000|10=219|
8=FIX.4.4|9=59|35=0|34=9|49=037|50=037B18|52=20190724-16:31:27.040|56=EXC|10=069|
8=FIX.4.4|9=0050|35=0|34=11|49=EXC|56=037|52=20190724-16:32:27.000|10=218|
8=FIX.4.4|9=60|35=0|34=10|49=037|50=037B18|52=20190724-16:31:57.046|56=EXC|10=110|
8=FIX.4.4|9=0050|35=0|34=12|49=EXC|56=037|52=20190724-16:32:57.000|10=222|
8=FIX.4.4|9=60|35=0|34=11|49=037|50=037B18|52=20190724-16:32:27.055|56=EXC|10=109|
8=FIX.4.4|9=0050|35=0|34=13|49=EXC|56=037|52=20190724-16:33:27.000|10=221|
8=FIX.4.4|9=60|35=0|34=12|49=037|50=037B18|52=20190724-16:32:57.051|56=EXC|10=109|
8=FIX.4.4|9=0213|35=R|34=14|49=EXC|56=037|57=037B18|52=20190724-16:33:37.937|131=20190724-000000000015.00|146=1|55=I06H99F|762=AFIR|48=27166|22=M|54=1|38=7|453=3|448=029B17|447=C|452=12|448=029|447=C|452=1|448=037B18|447=C|452=37|10=221|
8=FIX.4.4|9=0213|35=R|34=15|49=EXC|56=037|57=037B18|52=20190724-16:34:02.997|131=20190724-000000000015.00|146=1|55=I06H99F|762=AFIR|48=27166|22=M|54=1|38=0|453=3|448=029B17|447=C|452=12|448=029|447=C|452=1|448=037B18|447=C|452=37|10=214|
8=FIX.4.4|9=60|35=0|34=13|49=037|50=037B18|52=20190724-16:33:27.050|56=EXC|10=107|
8=FIX.4.4|9=0214|35=R|34=16|49=EXC|56=037|57=037B18|52=20190724-16:34:23.098|131=20190724-000000000016.01|146=1|55=T24U19F|762=AFIR|48=27227|22=M|54=1|38=15|453=3|448=045B17|447=C|452=12|448=045|447=C|452=1|448=037B18|447=C|452=37|10=021|
8=FIX.4.4|9=60|35=0|34=14|49=037|50=037B18|52=20190724-16:33:57.054|56=EXC|10=115|
8=FIX.4.4|9=0213|35=R|34=17|49=EXC|56=037|57=037B18|52=20190724-16:34:43.163|131=20190724-000000000016.01|146=1|55=T24U19F|762=AFIR|48=27227|22=M|54=1|38=0|453=3|448=045B17|447=C|452=12|448=045|447=C|452=1|448=037B18|447=C|452=37|10=218|
8=FIX.4.4|9=60|35=0|34=15|49=037|50=037B18|52=20190724-16:34:27.047|56=EXC|10=116|
8=FIX.4.4|9=0050|35=0|34=18|49=EXC|56=037|52=20190724-16:35:13.000|10=223|
8=FIX.4.4|9=60|35=5|34=16|49=037|50=037B18|52=20190724-16:34:32.927|56=EXC|10=125|
8=FIX.4.4|9=0057|35=5|34=19|49=EXC|56=037|52=20190724-16:35:13.425|369=16|10=062|
