8=FIX.4.4|9=110|35=A|34=1|49=001|50=001B27|52=20190604-16:47:41.461|56=EXC|43=Y|98=0|108=30|141=Y|553=001FCM001|554=001FCM001|10=082|
8=FIX.4.4|9=0067|35=A|34=1|49=EXC|56=001|52=20190604-16:47:24.641|98=0|108=30|141=Y|10=010|
8=FIX.4.4|9=177|35=R|34=2|49=001|50=001B27|52=20190604-16:47:53.863|56=EXC|131=74531360|146=1|55=TFIC13280425|22=M|762=RFQF|54=1|38=500000000|453=2|448=002B35|447=C|452=37|448=DCV|447=C|452=10|10=063|
8=FIX.4.4|9=0259|35=AI|34=2|49=EXC|56=001|57=001B27|52=20190604-16:47:36.996|131=74531360|453=5|448=DCV|447=C|452=10|448=001B27|447=C|452=12|448=001|447=C|452=1|448=001FCM001|447=C|452=36|448=002B35|447=C|452=37|55=TFIC13280425|762=RFQF|48=20626|22=M|54=1|38=500000000|297=10|10=226|
8=FIX.4.4|9=0307|35=S|34=3|49=EXC|56=001|57=001B27|52=20190604-16:48:03.054|131=74531360|117=20190604-000000000017.00|55=TFIC13280425|762=RFQF|48=20626|22=M|453=5|448=DCV|447=C|452=10|448=001B27|447=C|452=12|448=001|447=C|452=1|448=001FCM001|447=C|452=36|448=002B35|447=C|452=37|634=4.000|135=500000000|62=20190617-22:00:00|10=233|
8=FIX.4.4|9=59|35=0|34=3|49=001|50=001B27|52=20190604-16:48:24.413|56=EXC|10=051|
8=FIX.4.4|9=0049|35=0|34=4|49=EXC|56=001|52=20190604-16:48:33.000|10=172|
8=FIX.4.4|9=59|35=0|34=4|49=001|50=001B27|52=20190604-16:48:54.406|56=EXC|10=057|
8=FIX.4.4|9=68|35=1|34=5|49=001|50=001B27|52=20190604-16:49:05.407|56=EXC|112=TEST|10=075|
8=FIX.4.4|9=0058|35=0|34=5|49=EXC|56=001|52=20190604-16:48:48.525|112=TEST|10=209|
8=FIX.4.4|9=138|35=AJ|34=6|49=001|50=001B27|52=20190604-16:49:06.241|56=EXC|54=1|55=TFIC13280425|117=20190604-000000000017.00|693=55619454|694=1|762=RFQF|10=019|
8=FIX.4.4|9=0507|35=8|34=6|49=EXC|56=001|57=001B27|52=20190604-16:48:49.362|11=55619454|17=15|37=0|150=F|1080=20190604-000000000017.00|1081=5|453=6|448=001B27|447=C|452=12|448=001|447=C|452=1|448=002B35|447=C|452=37|448=002|447=C|452=17|448=001FCM001|447=C|452=36|448=DCV|447=C|452=10|55=TFIC13280425|762=RFQF|48=20626|22=M|6=79.346|14=500000000|31=79.346|32=500000000|38=500000000|39=2|20102=79.346|54=1|60=20190604-16:48:49.362|75=20190604|63=1|64=20190604|151=0|1623=4.000|381=396731500.000|880=201906040000000015|828=99|10=162|
8=FIX.4.4|9=145|35=3|34=7|49=001|50=001B27|52=20190604-16:49:11.250|56=EXC|45=6|58=Value is incorrect (out of range) for this tag, field=828|371=828|372=8|373=5|10=030|
8=FIX.4.4|9=0049|35=0|34=7|49=EXC|56=001|52=20190604-16:49:19.000|10=180|
8=FIX.4.4|9=59|35=0|34=8|49=001|50=001B27|52=20190604-16:49:41.408|56=EXC|10=060|
8=FIX.4.4|9=0049|35=0|34=8|49=EXC|56=001|52=20190604-16:49:49.000|10=184|
8=FIX.4.4|9=59|35=0|34=9|49=001|50=001B27|52=20190604-16:50:11.406|56=EXC|10=048|
8=FIX.4.4|9=0049|35=0|34=9|49=EXC|56=001|52=20190604-16:50:19.000|10=174|
8=FIX.4.4|9=60|35=0|34=10|49=001|50=001B27|52=20190604-16:50:41.408|56=EXC|10=085|
8=FIX.4.4|9=110|35=A|34=1|49=001|50=001B27|52=20190604-18:43:06.713|56=EXC|43=Y|98=0|108=30|141=Y|553=001FCM001|554=001FCM001|10=081|
8=FIX.4.4|9=0067|35=A|34=1|49=EXC|56=001|52=20190604-18:42:49.567|98=0|108=30|141=Y|10=021|
8=FIX.4.4|9=177|35=R|34=2|49=001|50=001B27|52=20190604-18:43:20.800|56=EXC|131=39867392|146=1|55=TFIC13280425|22=M|762=RFQF|54=1|38=500000000|453=2|448=002B35|447=C|452=37|448=DCV|447=C|452=10|10=064|
8=FIX.4.4|9=0259|35=AI|34=2|49=EXC|56=001|57=001B27|52=20190604-18:43:03.344|131=39867392|453=5|448=DCV|447=C|452=10|448=001B27|447=C|452=12|448=001|447=C|452=1|448=001FCM001|447=C|452=36|448=002B35|447=C|452=37|55=TFIC13280425|762=RFQF|48=20626|22=M|54=1|38=500000000|297=10|10=223|
8=FIX.4.4|9=0307|35=S|34=3|49=EXC|56=001|57=001B27|52=20190604-18:43:30.796|131=39867392|117=20190604-000000000019.00|55=TFIC13280425|762=RFQF|48=20626|22=M|453=5|448=DCV|447=C|452=10|448=001B27|447=C|452=12|448=001|447=C|452=1|448=001FCM001|447=C|452=36|448=002B35|447=C|452=37|634=4.000|135=500000000|62=20190617-22:00:00|10=007|
8=FIX.4.4|9=59|35=0|34=3|49=001|50=001B27|52=20190604-18:43:51.637|56=EXC|10=056|
8=FIX.4.4|9=0049|35=0|34=4|49=EXC|56=001|52=20190604-18:44:00.000|10=164|
8=FIX.4.4|9=59|35=0|34=4|49=001|50=001B27|52=20190604-18:44:21.649|56=EXC|10=058|
8=FIX.4.4|9=68|35=1|34=5|49=001|50=001B27|52=20190604-18:44:33.635|56=EXC|112=TEST|10=076|
8=FIX.4.4|9=0058|35=0|34=5|49=EXC|56=001|52=20190604-18:44:16.183|112=TEST|10=202|
8=FIX.4.4|9=138|35=AJ|34=6|49=001|50=001B27|52=20190604-18:44:36.191|56=EXC|54=1|55=TFIC13280425|117=20190604-000000000019.00|693=66086464|694=1|762=RFQF|10=026|
8=FIX.4.4|9=0507|35=8|34=6|49=EXC|56=001|57=001B27|52=20190604-18:44:18.732|11=66086464|17=17|37=0|150=F|1080=20190604-000000000019.00|1081=5|453=6|448=001B27|447=C|452=12|448=001|447=C|452=1|448=002B35|447=C|452=37|448=002|447=C|452=17|448=001FCM001|447=C|452=36|448=DCV|447=C|452=10|55=TFIC13280425|762=RFQF|48=20626|22=M|6=79.346|14=500000000|31=79.346|32=500000000|38=500000000|39=2|20102=79.346|54=1|60=20190604-18:44:18.732|75=20190604|63=1|64=20190604|151=0|1623=4.000|381=396731500.000|880=201906040000000017|828=99|10=159|
8=FIX.4.4|9=145|35=3|34=7|49=001|50=001B27|52=20190604-18:44:41.204|56=EXC|45=6|58=Value is incorrect (out of range) for this tag, field=828|371=828|372=8|373=5|10=029|
8=FIX.4.4|9=0049|35=0|34=7|49=EXC|56=001|52=20190604-18:44:48.000|10=179|
8=FIX.4.4|9=110|35=A|34=1|49=001|50=001B27|52=20190604-18:46:58.781|56=EXC|43=Y|98=0|108=30|141=Y|553=001FCM001|554=001FCM001|10=096|
8=FIX.4.4|9=0067|35=A|34=1|49=EXC|56=001|52=20190604-18:46:41.925|98=0|108=30|141=Y|10=015|
8=FIX.4.4|9=177|35=R|34=2|49=001|50=001B27|52=20190604-18:47:15.103|56=EXC|131=29381403|146=1|55=TFIC13280425|22=M|762=RFQF|54=1|38=500000000|453=2|448=002B35|447=C|452=37|448=DCV|447=C|452=10|10=051|
8=FIX.4.4|9=0259|35=AI|34=2|49=EXC|56=001|57=001B27|52=20190604-18:46:57.657|131=29381403|453=5|448=DCV|447=C|452=10|448=001B27|447=C|452=12|448=001|447=C|452=1|448=001FCM001|447=C|452=36|448=002B35|447=C|452=37|55=TFIC13280425|762=RFQF|48=20626|22=M|54=1|38=500000000|297=10|10=225|
8=FIX.4.4|9=0307|35=S|34=3|49=EXC|56=001|57=001B27|52=20190604-18:47:26.141|131=29381403|117=20190604-000000000021.00|55=TFIC13280425|762=RFQF|48=20626|22=M|453=5|448=DCV|447=C|452=10|448=001B27|447=C|452=12|448=001|447=C|452=1|448=001FCM001|447=C|452=36|448=002B35|447=C|452=37|634=4.000|135=500000000|62=20190617-22:00:00|10=232|
8=FIX.4.4|9=59|35=0|34=3|49=001|50=001B27|52=20190604-18:47:45.713|56=EXC|10=058|
8=FIX.4.4|9=0049|35=0|34=4|49=EXC|56=001|52=20190604-18:47:56.000|10=178|
8=FIX.4.4|9=59|35=0|34=4|49=001|50=001B27|52=20190604-18:48:15.713|56=EXC|10=057|
8=FIX.4.4|9=68|35=1|34=5|49=001|50=001B27|52=20190604-18:48:28.726|56=EXC|112=TEST|10=085|
8=FIX.4.4|9=0058|35=0|34=5|49=EXC|56=001|52=20190604-18:48:11.267|112=TEST|10=204|
8=FIX.4.4|9=138|35=AJ|34=6|49=001|50=001B27|52=20190604-18:48:32.430|56=EXC|54=1|55=TFIC13280425|117=20190604-000000000021.00|693=23348752|694=1|762=RFQF|10=009|
8=FIX.4.4|9=0507|35=8|34=6|49=EXC|56=001|57=001B27|52=20190604-18:48:14.977|11=23348752|17=19|37=0|150=F|1080=20190604-000000000021.00|1081=5|453=6|448=001B27|447=C|452=12|448=001|447=C|452=1|448=002B35|447=C|452=37|448=002|447=C|452=17|448=001FCM001|447=C|452=36|448=DCV|447=C|452=10|55=TFIC13280425|762=RFQF|48=20626|22=M|6=79.346|14=500000000|31=79.346|32=500000000|38=500000000|39=2|20102=79.346|54=1|60=20190604-18:48:14.977|75=20190604|63=1|64=20190604|151=0|1623=4.000|381=396731500.000|880=201906040000000019|828=99|10=172|
8=FIX.4.4|9=145|35=3|34=7|49=001|50=001B27|52=20190604-18:48:37.434|56=EXC|45=6|58=Value is incorrect (out of range) for this tag, field=828|371=828|372=8|373=5|10=043|
8=FIX.4.4|9=0049|35=0|34=7|49=EXC|56=001|52=20190604-18:48:44.000|10=179|
8=FIX.4.4|9=110|35=A|34=1|49=001|50=001B27|52=20190604-18:51:10.918|56=EXC|43=Y|98=0|108=30|141=Y|553=001FCM001|554=001FCM001|10=082|
8=FIX.4.4|9=0067|35=A|34=1|49=EXC|56=001|52=20190604-18:50:53.823|98=0|108=30|141=Y|10=010|
8=FIX.4.4|9=177|35=R|34=2|49=001|50=001B27|52=20190604-18:51:17.324|56=EXC|131=34313636|146=1|55=TFIC13280425|22=M|762=RFQF|54=1|38=500000000|453=2|448=002B35|447=C|452=37|448=DCV|447=C|452=10|10=052|
8=FIX.4.4|9=0259|35=AI|34=2|49=EXC|56=001|57=001B27|52=20190604-18:50:59.880|131=34313636|453=5|448=DCV|447=C|452=10|448=001B27|447=C|452=12|448=001|447=C|452=1|448=001FCM001|447=C|452=36|448=002B35|447=C|452=37|55=TFIC13280425|762=RFQF|48=20626|22=M|54=1|38=500000000|297=10|10=219|
8=FIX.4.4|9=0307|35=S|34=3|49=EXC|56=001|57=001B27|52=20190604-18:51:10.573|131=34313636|117=20190604-000000000022.00|55=TFIC13280425|762=RFQF|48=20626|22=M|453=5|448=DCV|447=C|452=10|448=001B27|447=C|452=12|448=001|447=C|452=1|448=001FCM001|447=C|452=36|448=002B35|447=C|452=37|634=4.000|135=500000000|62=20190617-22:00:00|10=229|
8=FIX.4.4|9=138|35=AJ|34=3|49=001|50=001B27|52=20190604-18:51:36.390|56=EXC|54=1|55=TFIC13280425|117=20190604-000000000022.00|693=34010066|694=1|762=RFQF|10=252|
8=FIX.4.4|9=0507|35=8|34=4|49=EXC|56=001|57=001B27|52=20190604-18:51:18.940|11=34010066|17=20|37=0|150=F|1080=20190604-000000000022.00|1081=5|453=6|448=001B27|447=C|452=12|448=001|447=C|452=1|448=002B35|447=C|452=37|448=002|447=C|452=17|448=001FCM001|447=C|452=36|448=DCV|447=C|452=10|55=TFIC13280425|762=RFQF|48=20626|22=M|6=79.346|14=500000000|31=79.346|32=500000000|38=500000000|39=2|20102=79.346|54=1|60=20190604-18:51:18.940|75=20190604|63=1|64=20190604|151=0|1623=4.000|381=396731500.000|880=201906040000000020|828=99|10=117|
8=FIX.4.4|9=145|35=3|34=4|49=001|50=001B27|52=20190604-18:51:36.506|56=EXC|45=4|58=Value is incorrect (out of range) for this tag, field=828|371=828|372=8|373=5|10=031|
8=FIX.4.4|9=0049|35=0|34=5|49=EXC|56=001|52=20190604-18:51:48.000|10=175|
8=FIX.4.4|9=59|35=0|34=5|49=001|50=001B27|52=20190604-18:52:06.866|56=EXC|10=062|
8=FIX.4.4|9=0049|35=0|34=6|49=EXC|56=001|52=20190604-18:52:18.000|10=174|
8=FIX.4.4|9=59|35=0|34=6|49=001|50=001B27|52=20190604-18:52:36.861|56=EXC|10=061|
8=FIX.4.4|9=110|35=A|34=1|49=001|50=001B27|52=20190604-19:15:33.642|56=EXC|43=Y|98=0|108=30|141=Y|553=001FCM001|554=001FCM001|10=082|
8=FIX.4.4|9=0067|35=A|34=1|49=EXC|56=001|52=20190604-19:15:16.378|98=0|108=30|141=Y|10=016|
8=FIX.4.4|9=177|35=R|34=2|49=001|50=001B27|52=20190604-19:15:36.976|56=EXC|131=12714759|146=1|55=TFIC13280425|22=M|762=RFQF|54=1|38=500000000|453=2|448=002B35|447=C|452=37|448=DCV|447=C|452=10|10=074|
8=FIX.4.4|9=0259|35=AI|34=2|49=EXC|56=001|57=001B27|52=20190604-19:15:19.511|131=12714759|453=5|448=DCV|447=C|452=10|448=001B27|447=C|452=12|448=001|447=C|452=1|448=001FCM001|447=C|452=36|448=002B35|447=C|452=37|55=TFIC13280425|762=RFQF|48=20626|22=M|54=1|38=500000000|297=10|10=215|
8=FIX.4.4|9=0307|35=S|34=3|49=EXC|56=001|57=001B27|52=20190604-19:15:32.492|131=12714759|117=20190604-000000000023.00|55=TFIC13280425|762=RFQF|48=20626|22=M|453=5|448=DCV|447=C|452=10|448=001B27|447=C|452=12|448=001|447=C|452=1|448=001FCM001|447=C|452=36|448=002B35|447=C|452=37|634=4.000|135=500000000|62=20190617-22:00:00|10=242|
8=FIX.4.4|9=138|35=AJ|34=3|49=001|50=001B27|52=20190604-19:15:56.780|56=EXC|54=1|55=TFIC13280425|117=20190604-000000000023.00|693=79888922|694=1|762=RFQF|10=036|
8=FIX.4.4|9=0507|35=8|34=4|49=EXC|56=001|57=001B27|52=20190604-19:15:39.319|11=79888922|17=21|37=0|150=F|1080=20190604-000000000023.00|1081=5|453=6|448=001B27|447=C|452=12|448=001|447=C|452=1|448=002B35|447=C|452=37|448=002|447=C|452=17|448=001FCM001|447=C|452=36|448=DCV|447=C|452=10|55=TFIC13280425|762=RFQF|48=20626|22=M|6=79.346|14=500000000|31=79.346|32=500000000|38=500000000|39=2|20102=79.346|54=1|60=20190604-19:15:39.319|75=20190604|63=1|64=20190604|151=0|1623=4.000|381=396731500.000|880=201906040000000021|828=99|10=161|
8=FIX.4.4|9=145|35=3|34=4|49=001|50=001B27|52=20190604-19:15:56.947|56=EXC|45=4|58=Value is incorrect (out of range) for this tag, field=828|371=828|372=8|373=5|10=043|
8=FIX.4.4|9=0049|35=0|34=5|49=EXC|56=001|52=20190604-19:16:09.000|10=174|
8=FIX.4.4|9=59|35=0|34=5|49=001|50=001B27|52=20190604-19:16:27.613|56=EXC|10=056|
8=FIX.4.4|9=0049|35=0|34=6|49=EXC|56=001|52=20190604-19:16:39.000|10=178|
8=FIX.4.4|9=59|35=0|34=6|49=001|50=001B27|52=20190604-19:16:57.612|56=EXC|10=059|
8=FIX.4.4|9=0049|35=0|34=7|49=EXC|56=001|52=20190604-19:17:09.000|10=177|
8=FIX.4.4|9=59|35=0|34=7|49=001|50=001B27|52=20190604-19:17:27.612|56=EXC|10=058|
8=FIX.4.4|9=0049|35=0|34=8|49=EXC|56=001|52=20190604-19:17:39.000|10=181|
8=FIX.4.4|9=59|35=0|34=8|49=001|50=001B27|52=20190604-19:17:57.612|56=EXC|10=062|
8=FIX.4.4|9=0049|35=0|34=9|49=EXC|56=001|52=20190604-19:18:09.000|10=180|
8=FIX.4.4|9=59|35=0|34=9|49=001|50=001B27|52=20190604-19:18:27.612|56=EXC|10=061|
8=FIX.4.4|9=0050|35=0|34=10|49=EXC|56=001|52=20190604-19:18:39.000|10=215|
8=FIX.4.4|9=60|35=0|34=10|49=001|50=001B27|52=20190604-19:18:57.613|56=EXC|10=097|
8=FIX.4.4|9=0050|35=0|34=11|49=EXC|56=001|52=20190604-19:19:09.000|10=214|
8=FIX.4.4|9=60|35=0|34=11|49=001|50=001B27|52=20190604-19:19:27.612|56=EXC|10=095|
8=FIX.4.4|9=110|35=A|34=1|49=001|50=001B27|52=20190605-18:44:29.761|56=EXC|43=Y|98=0|108=30|141=Y|553=001FCM001|554=001FCM001|10=091|
8=FIX.4.4|9=0067|35=A|34=1|49=EXC|56=001|52=20190605-18:44:29.809|98=0|108=30|141=Y|10=021|
8=FIX.4.4|9=177|35=R|34=2|49=001|50=001B27|52=20190605-18:44:32.004|56=EXC|131=46749858|146=1|55=TFIC13280425|22=M|762=RFQF|54=1|38=500000000|453=2|448=002B35|447=C|452=37|448=DCV|447=C|452=10|10=069|
8=FIX.4.4|9=0259|35=AI|34=2|49=EXC|56=001|57=001B27|52=20190605-18:44:32.028|131=46749858|453=5|448=DCV|447=C|452=10|448=001B27|447=C|452=12|448=001|447=C|452=1|448=001FCM001|447=C|452=36|448=002B35|447=C|452=37|55=TFIC13280425|762=RFQF|48=20626|22=M|54=1|38=500000000|297=10|10=230|
8=FIX.4.4|9=0307|35=S|34=3|49=EXC|56=001|57=001B27|52=20190605-18:44:37.922|131=46749858|117=20190605-000000000040.00|55=TFIC13280425|762=RFQF|48=20626|22=M|453=5|448=DCV|447=C|452=10|448=001B27|447=C|452=12|448=001|447=C|452=1|448=001FCM001|447=C|452=36|448=002B35|447=C|452=37|634=4.000|135=500000000|62=20190617-22:00:00|10=006|
8=FIX.4.4|9=138|35=AJ|34=3|49=001|50=001B27|52=20190605-18:44:43.624|56=EXC|54=1|55=TFIC13280425|117=20190605-000000000040.00|693=68813752|694=1|762=RFQF|10=018|
8=FIX.4.4|9=0507|35=8|34=4|49=EXC|56=001|57=001B27|52=20190605-18:44:43.637|11=68813752|17=24|37=0|150=F|1080=20190605-000000000040.00|1081=5|453=6|448=001B27|447=C|452=12|448=001|447=C|452=1|448=002B35|447=C|452=37|448=002|447=C|452=17|448=001FCM001|447=C|452=36|448=DCV|447=C|452=10|55=TFIC13280425|762=RFQF|48=20626|22=M|6=79.354|14=500000000|31=79.354|32=500000000|38=500000000|39=2|20102=79.354|54=1|60=20190605-18:44:43.637|75=20190605|63=1|64=20190605|151=0|1623=4.000|381=396774000.000|880=201906050000000024|828=99|10=156|
8=FIX.4.4|9=110|35=A|34=1|49=001|50=001B27|52=20190605-19:08:36.665|56=EXC|43=Y|98=0|108=30|141=Y|553=001FCM001|554=001FCM001|10=093|
8=FIX.4.4|9=0067|35=A|34=1|49=EXC|56=001|52=20190605-19:08:36.418|98=0|108=30|141=Y|10=016|
8=FIX.4.4|9=177|35=R|34=2|49=001|50=001B27|52=20190605-19:08:38.891|56=EXC|131=18324619|146=1|55=TFIC13280425|22=M|762=RFQF|54=1|38=500000000|453=2|448=002B35|447=C|452=37|448=DCV|447=C|452=10|10=073|
8=FIX.4.4|9=0259|35=AI|34=2|49=EXC|56=001|57=001B27|52=20190605-19:08:38.603|131=18324619|453=5|448=DCV|447=C|452=10|448=001B27|447=C|452=12|448=001|447=C|452=1|448=001FCM001|447=C|452=36|448=002B35|447=C|452=37|55=TFIC13280425|762=RFQF|48=20626|22=M|54=1|38=500000000|297=10|10=219|
8=FIX.4.4|9=0307|35=S|34=3|49=EXC|56=001|57=001B27|52=20190605-19:08:44.636|131=18324619|117=20190605-000000000042.00|55=TFIC13280425|762=RFQF|48=20626|22=M|453=5|448=DCV|447=C|452=10|448=001B27|447=C|452=12|448=001|447=C|452=1|448=001FCM001|447=C|452=36|448=002B35|447=C|452=37|634=4.000|135=500000000|62=20190617-22:00:00|10=248|
8=FIX.4.4|9=110|35=A|34=1|49=001|50=001B27|52=20190605-19:16:00.597|56=EXC|43=Y|98=0|108=30|141=Y|553=001FCM001|554=001FCM001|10=087|
8=FIX.4.4|9=0067|35=A|34=1|49=EXC|56=001|52=20190605-19:16:00.360|98=0|108=30|141=Y|10=002|
8=FIX.4.4|9=177|35=R|34=2|49=001|50=001B27|52=20190605-19:16:02.854|56=EXC|131=27887749|146=1|55=TFIC13280425|22=M|762=RFQF|54=1|38=500000000|453=2|448=002B35|447=C|452=37|448=DCV|447=C|452=10|10=080|
8=FIX.4.4|9=0259|35=AI|34=2|49=EXC|56=001|57=001B27|52=20190605-19:16:02.551|131=27887749|453=5|448=DCV|447=C|452=10|448=001B27|447=C|452=12|448=001|447=C|452=1|448=001FCM001|447=C|452=36|448=002B35|447=C|452=37|55=TFIC13280425|762=RFQF|48=20626|22=M|54=1|38=500000000|297=10|10=229|
8=FIX.4.4|9=0307|35=S|34=3|49=EXC|56=001|57=001B27|52=20190605-19:16:08.700|131=27887749|117=20190605-000000000044.00|55=TFIC13280425|762=RFQF|48=20626|22=M|453=5|448=DCV|447=C|452=10|448=001B27|447=C|452=12|448=001|447=C|452=1|448=001FCM001|447=C|452=36|448=002B35|447=C|452=37|634=4.000|135=500000000|62=20190617-22:00:00|10=003|
8=FIX.4.4|9=137|35=AJ|34=3|49=001|50=001B27|52=20190605-19:16:14.636|56=EXC|54=1|55=TFIC13280425|117=20190605-000000000044.00|693=1748929|694=1|762=RFQF|10=230|
8=FIX.4.4|9=0506|35=8|34=4|49=EXC|56=001|57=001B27|52=20190605-19:16:14.335|11=1748929|17=27|37=0|150=F|1080=20190605-000000000044.00|1081=5|453=6|448=001B27|447=C|452=12|448=001|447=C|452=1|448=002B35|447=C|452=37|448=002|447=C|452=17|448=001FCM001|447=C|452=36|448=DCV|447=C|452=10|55=TFIC13280425|762=RFQF|48=20626|22=M|6=79.354|14=500000000|31=79.354|32=500000000|38=500000000|39=2|20102=79.354|54=1|60=20190605-19:16:14.335|75=20190605|63=1|64=20190605|151=0|1623=4.000|381=396774000.000|880=201906050000000027|828=99|10=103|
8=FIX.4.4|9=110|35=A|34=1|49=001|50=001B27|52=20190605-19:17:00.160|56=EXC|43=Y|98=0|108=30|141=Y|553=001FCM001|554=001FCM001|10=074|
8=FIX.4.4|9=0067|35=A|34=1|49=EXC|56=001|52=20190605-19:16:59.999|98=0|108=30|141=Y|10=034|
8=FIX.4.4|9=176|35=R|34=2|49=001|50=001B27|52=20190605-19:17:03.778|56=EXC|131=6051711|146=1|55=TFIC13280425|22=M|762=RFQF|54=1|38=500000000|453=2|448=002B35|447=C|452=37|448=DCV|447=C|452=10|10=007|
8=FIX.4.4|9=0258|35=AI|34=2|49=EXC|56=001|57=001B27|52=20190605-19:17:03.484|131=6051711|453=5|448=DCV|447=C|452=10|448=001B27|447=C|452=12|448=001|447=C|452=1|448=001FCM001|447=C|452=36|448=002B35|447=C|452=37|55=TFIC13280425|762=RFQF|48=20626|22=M|54=1|38=500000000|297=10|10=156|
8=FIX.4.4|9=0306|35=S|34=3|49=EXC|56=001|57=001B27|52=20190605-19:17:10.621|131=6051711|117=20190605-000000000045.00|55=TFIC13280425|762=RFQF|48=20626|22=M|453=5|448=DCV|447=C|452=10|448=001B27|447=C|452=12|448=001|447=C|452=1|448=001FCM001|447=C|452=36|448=002B35|447=C|452=37|634=4.000|135=500000000|62=20190617-22:00:00|10=176|
8=FIX.4.4|9=138|35=AJ|34=3|49=001|50=001B27|52=20190605-19:17:16.677|56=EXC|54=1|55=TFIC13280425|117=20190605-000000000045.00|693=27638947|694=1|762=RFQF|10=038|
8=FIX.4.4|9=0507|35=8|34=4|49=EXC|56=001|57=001B27|52=20190605-19:17:16.373|11=27638947|17=28|37=0|150=F|1080=20190605-000000000045.00|1081=5|453=6|448=001B27|447=C|452=12|448=001|447=C|452=1|448=002B35|447=C|452=37|448=002|447=C|452=17|448=001FCM001|447=C|452=36|448=DCV|447=C|452=10|55=TFIC13280425|762=RFQF|48=20626|22=M|6=79.354|14=500000000|31=79.354|32=500000000|38=500000000|39=2|20102=79.354|54=1|60=20190605-19:17:16.373|75=20190605|63=1|64=20190605|151=0|1623=4.000|381=396774000.000|880=201906050000000028|828=99|10=171|
8=FIX.4.4|9=110|35=A|34=1|49=001|50=001B27|52=20190605-19:17:44.606|56=EXC|43=Y|98=0|108=30|141=Y|553=001FCM001|554=001FCM001|10=087|
8=FIX.4.4|9=0067|35=A|34=1|49=EXC|56=001|52=20190605-19:17:44.405|98=0|108=30|141=Y|10=011|
8=FIX.4.4|9=177|35=R|34=2|49=001|50=001B27|52=20190605-19:17:46.955|56=EXC|131=16795921|146=1|55=TFIC13280425|22=M|762=RFQF|54=1|38=500000000|453=2|448=002B35|447=C|452=37|448=DCV|447=C|452=10|10=079|
8=FIX.4.4|9=0259|35=AI|34=2|49=EXC|56=001|57=001B27|52=20190605-19:17:46.660|131=16795921|453=5|448=DCV|447=C|452=10|448=001B27|447=C|452=12|448=001|447=C|452=1|448=001FCM001|447=C|452=36|448=002B35|447=C|452=37|55=TFIC13280425|762=RFQF|48=20626|22=M|54=1|38=500000000|297=10|10=227|
8=FIX.4.4|9=0307|35=S|34=3|49=EXC|56=001|57=001B27|52=20190605-19:17:53.018|131=16795921|117=20190605-000000000046.00|55=TFIC13280425|762=RFQF|48=20626|22=M|453=5|448=DCV|447=C|452=10|448=001B27|447=C|452=12|448=001|447=C|452=1|448=001FCM001|447=C|452=36|448=002B35|447=C|452=37|634=4.000|135=500000000|62=20190617-22:00:00|10=252|
8=FIX.4.4|9=138|35=AJ|34=3|49=001|50=001B27|52=20190605-19:17:58.913|56=EXC|54=1|55=TFIC13280425|117=20190605-000000000046.00|693=48666392|694=1|762=RFQF|10=036|
8=FIX.4.4|9=0507|35=8|34=4|49=EXC|56=001|57=001B27|52=20190605-19:17:58.619|11=48666392|17=29|37=0|150=F|1080=20190605-000000000046.00|1081=5|453=6|448=001B27|447=C|452=12|448=001|447=C|452=1|448=002B35|447=C|452=37|448=002|447=C|452=17|448=001FCM001|447=C|452=36|448=DCV|447=C|452=10|55=TFIC13280425|762=RFQF|48=20626|22=M|6=79.354|14=500000000|31=79.354|32=500000000|38=500000000|39=2|20102=79.354|54=1|60=20190605-19:17:58.619|75=20190605|63=1|64=20190605|151=0|1623=4.000|381=396774000.000|880=201906050000000029|828=99|10=190|
8=FIX.4.4|9=0049|35=0|34=5|49=EXC|56=001|52=20190605-19:18:28.000|10=178|
8=FIX.4.4|9=59|35=0|34=4|49=001|50=001B27|52=20190605-19:18:29.564|56=EXC|10=065|
8=FIX.4.4|9=110|35=A|34=1|49=001|50=001B27|52=20190605-19:33:41.878|56=EXC|43=Y|98=0|108=30|141=Y|553=001FCM001|554=001FCM001|10=093|
8=FIX.4.4|9=0067|35=A|34=1|49=EXC|56=001|52=20190605-19:33:41.656|98=0|108=30|141=Y|10=014|
8=FIX.4.4|9=177|35=R|34=2|49=001|50=001B27|52=20190605-19:33:44.384|56=EXC|131=56939535|146=1|55=TFIC13280425|22=M|762=RFQF|54=1|38=500000000|453=2|448=002B35|447=C|452=37|448=DCV|447=C|452=10|10=076|
8=FIX.4.4|9=0259|35=AI|34=2|49=EXC|56=001|57=001B27|52=20190605-19:33:44.067|131=56939535|453=5|448=DCV|447=C|452=10|448=001B27|447=C|452=12|448=001|447=C|452=1|448=001FCM001|447=C|452=36|448=002B35|447=C|452=37|55=TFIC13280425|762=RFQF|48=20626|22=M|54=1|38=500000000|297=10|10=229|
8=FIX.4.4|9=0307|35=S|34=3|49=EXC|56=001|57=001B27|52=20190605-19:33:50.097|131=56939535|117=20190605-000000000049.00|55=TFIC13280425|762=RFQF|48=20626|22=M|453=5|448=DCV|447=C|452=10|448=001B27|447=C|452=12|448=001|447=C|452=1|448=001FCM001|447=C|452=36|448=002B35|447=C|452=37|634=4.000|135=500000000|62=20190617-22:00:00|10=006|
8=FIX.4.4|9=138|35=AJ|34=3|49=001|50=001B27|52=20190605-19:33:56.065|56=EXC|54=1|55=TFIC13280425|117=20190605-000000000049.00|693=14487344|694=1|762=RFQF|10=024|
8=FIX.4.4|9=0507|35=8|34=4|49=EXC|56=001|57=001B27|52=20190605-19:33:55.746|11=14487344|17=32|37=0|150=F|1080=20190605-000000000049.00|1081=5|453=6|448=001B27|447=C|452=12|448=001|447=C|452=1|448=002B35|447=C|452=37|448=002|447=C|452=17|448=001FCM001|447=C|452=36|448=DCV|447=C|452=10|55=TFIC13280425|762=RFQF|48=20626|22=M|6=79.354|14=500000000|31=79.354|32=500000000|38=500000000|39=2|20102=79.354|54=1|60=20190605-19:33:55.746|75=20190605|63=1|64=20190605|151=0|1623=4.000|381=396774000.000|880=201906050000000032|828=99|10=164|
8=FIX.4.4|9=110|35=A|34=1|49=001|50=001B27|52=20190605-19:36:17.851|56=EXC|43=Y|98=0|108=30|141=Y|553=001FCM001|554=001FCM001|10=090|
8=FIX.4.4|9=0067|35=A|34=1|49=EXC|56=001|52=20190605-19:36:17.940|98=0|108=30|141=Y|10=016|
8=FIX.4.4|9=110|35=A|34=1|49=001|50=001B27|52=20190605-19:37:49.332|56=EXC|43=Y|98=0|108=30|141=Y|553=001FCM001|554=001FCM001|10=090|
8=FIX.4.4|9=0067|35=A|34=1|49=EXC|56=001|52=20190605-19:37:49.422|98=0|108=30|141=Y|10=017|
8=FIX.4.4|9=177|35=R|34=2|49=001|50=001B27|52=20190605-19:37:51.768|56=EXC|131=18829839|146=1|55=TFIC13280425|22=M|762=RFQF|54=1|38=500000000|453=2|448=002B35|447=C|452=37|448=DCV|447=C|452=10|10=087|
8=FIX.4.4|9=0259|35=AI|34=2|49=EXC|56=001|57=001B27|52=20190605-19:37:51.766|131=18829839|453=5|448=DCV|447=C|452=10|448=001B27|447=C|452=12|448=001|447=C|452=1|448=001FCM001|447=C|452=36|448=002B35|447=C|452=37|55=TFIC13280425|762=RFQF|48=20626|22=M|54=1|38=500000000|297=10|10=240|
8=FIX.4.4|9=0307|35=S|34=3|49=EXC|56=001|57=001B27|52=20190605-19:37:57.941|131=18829839|117=20190605-000000000051.00|55=TFIC13280425|762=RFQF|48=20626|22=M|453=5|448=DCV|447=C|452=10|448=001B27|447=C|452=12|448=001|447=C|452=1|448=001FCM001|447=C|452=36|448=002B35|447=C|452=37|634=4.000|135=500000000|62=20190617-22:00:00|10=011|
8=FIX.4.4|9=137|35=AJ|34=3|49=001|50=001B27|52=20190605-19:38:03.906|56=EXC|54=1|55=TFIC13280425|117=20190605-000000000051.00|693=7280090|694=1|762=RFQF|10=216|
8=FIX.4.4|9=0506|35=8|34=4|49=EXC|56=001|57=001B27|52=20190605-19:38:03.898|11=7280090|17=34|37=0|150=F|1080=20190605-000000000051.00|1081=5|453=6|448=001B27|447=C|452=12|448=001|447=C|452=1|448=002B35|447=C|452=37|448=002|447=C|452=17|448=001FCM001|447=C|452=36|448=DCV|447=C|452=10|55=TFIC13280425|762=RFQF|48=20626|22=M|6=79.354|14=500000000|31=79.354|32=500000000|38=500000000|39=2|20102=79.354|54=1|60=20190605-19:38:03.898|75=20190605|63=1|64=20190605|151=0|1623=4.000|381=396774000.000|880=201906050000000034|828=99|10=115|
8=FIX.4.4|9=110|35=A|34=1|49=001|50=001B27|52=20190605-19:41:52.127|56=EXC|43=Y|98=0|108=30|141=Y|553=001FCM001|554=001FCM001|10=081|
8=FIX.4.4|9=0067|35=A|34=1|49=EXC|56=001|52=20190605-19:41:52.220|98=0|108=30|141=Y|10=002|
8=FIX.4.4|9=177|35=R|34=2|49=001|50=001B27|52=20190605-19:41:54.553|56=EXC|131=45255280|146=1|55=TFIC13280425|22=M|762=RFQF|54=1|38=500000000|453=2|448=002B35|447=C|452=37|448=DCV|447=C|452=10|10=060|
8=FIX.4.4|9=0259|35=AI|34=2|49=EXC|56=001|57=001B27|52=20190605-19:41:54.546|131=45255280|453=5|448=DCV|447=C|452=10|448=001B27|447=C|452=12|448=001|447=C|452=1|448=001FCM001|447=C|452=36|448=002B35|447=C|452=37|55=TFIC13280425|762=RFQF|48=20626|22=M|54=1|38=500000000|297=10|10=217|
8=FIX.4.4|9=0307|35=S|34=3|49=EXC|56=001|57=001B27|52=20190605-19:42:00.529|131=45255280|117=20190605-000000000053.00|55=TFIC13280425|762=RFQF|48=20626|22=M|453=5|448=DCV|447=C|452=10|448=001B27|447=C|452=12|448=001|447=C|452=1|448=001FCM001|447=C|452=36|448=002B35|447=C|452=37|634=4.000|135=500000000|62=20190617-22:00:00|10=238|
8=FIX.4.4|9=138|35=AJ|34=3|49=001|50=001B27|52=20190605-19:42:14.768|56=EXC|54=1|55=TFIC13280425|117=20190605-000000000053.00|693=29827264|694=1|762=RFQF|10=028|
8=FIX.4.4|9=0507|35=8|34=4|49=EXC|56=001|57=001B27|52=20190605-19:42:14.770|11=29827264|17=36|37=0|150=F|1080=20190605-000000000053.00|1081=5|453=6|448=001B27|447=C|452=12|448=001|447=C|452=1|448=002B35|447=C|452=37|448=002|447=C|452=17|448=001FCM001|447=C|452=36|448=DCV|447=C|452=10|55=TFIC13280425|762=RFQF|48=20626|22=M|6=79.354|14=500000000|31=79.354|32=500000000|38=500000000|39=2|20102=79.354|54=1|60=20190605-19:42:14.770|75=20190605|63=1|64=20190605|151=0|1623=4.000|381=396774000.000|880=201906050000000036|828=99|10=156|
8=FIX.4.4|9=110|35=A|34=1|49=001|50=001B27|52=20190605-19:43:35.825|56=EXC|43=Y|98=0|108=30|141=Y|553=001FCM001|554=001FCM001|10=089|
8=FIX.4.4|9=0067|35=A|34=1|49=EXC|56=001|52=20190605-19:43:36.262|98=0|108=30|141=Y|10=012|
8=FIX.4.4|9=176|35=R|34=2|49=001|50=001B27|52=20190605-19:43:38.740|56=EXC|131=6497974|146=1|55=TFIC13280425|22=M|762=RFQF|54=1|38=500000000|453=2|448=002B35|447=C|452=37|448=DCV|447=C|452=10|10=028|
8=FIX.4.4|9=0258|35=AI|34=2|49=EXC|56=001|57=001B27|52=20190605-19:43:38.728|131=6497974|453=5|448=DCV|447=C|452=10|448=001B27|447=C|452=12|448=001|447=C|452=1|448=001FCM001|447=C|452=36|448=002B35|447=C|452=37|55=TFIC13280425|762=RFQF|48=20626|22=M|54=1|38=500000000|297=10|10=189|
8=FIX.4.4|9=0306|35=S|34=3|49=EXC|56=001|57=001B27|52=20190605-19:43:44.766|131=6497974|117=20190605-000000000054.00|55=TFIC13280425|762=RFQF|48=20626|22=M|453=5|448=DCV|447=C|452=10|448=001B27|447=C|452=12|448=001|447=C|452=1|448=001FCM001|447=C|452=36|448=002B35|447=C|452=37|634=4.000|135=500000000|62=20190617-22:00:00|10=217|
8=FIX.4.4|9=138|35=AJ|34=3|49=001|50=001B27|52=20190605-19:43:58.925|56=EXC|54=1|55=TFIC13280425|117=20190605-000000000054.00|693=25729998|694=1|762=RFQF|10=044|
8=FIX.4.4|9=0507|35=8|34=4|49=EXC|56=001|57=001B27|52=20190605-19:43:58.914|11=25729998|17=37|37=0|150=F|1080=20190605-000000000054.00|1081=5|453=6|448=001B27|447=C|452=12|448=001|447=C|452=1|448=002B35|447=C|452=37|448=002|447=C|452=17|448=001FCM001|447=C|452=36|448=DCV|447=C|452=10|55=TFIC13280425|762=RFQF|48=20626|22=M|6=79.354|14=500000000|31=79.354|32=500000000|38=500000000|39=2|20102=79.354|54=1|60=20190605-19:43:58.914|75=20190605|63=1|64=20190605|151=0|1623=4.000|381=396774000.000|880=201906050000000037|828=99|10=188|
8=FIX.4.4|9=110|35=A|34=1|49=001|50=001B27|52=20190605-19:44:21.621|56=EXC|43=Y|98=0|108=30|141=Y|553=001FCM001|554=001FCM001|10=079|
8=FIX.4.4|9=0067|35=A|34=1|49=EXC|56=001|52=20190605-19:44:21.714|98=0|108=30|141=Y|10=009|
8=FIX.4.4|9=177|35=R|34=2|49=001|50=001B27|52=20190605-19:44:24.790|56=EXC|131=48673831|146=1|55=TFIC13280425|22=M|762=RFQF|54=1|38=500000000|453=2|448=002B35|447=C|452=37|448=DCV|447=C|452=10|10=072|
8=FIX.4.4|9=0259|35=AI|34=2|49=EXC|56=001|57=001B27|52=20190605-19:44:24.786|131=48673831|453=5|448=DCV|447=C|452=10|448=001B27|447=C|452=12|448=001|447=C|452=1|448=001FCM001|447=C|452=36|448=002B35|447=C|452=37|55=TFIC13280425|762=RFQF|48=20626|22=M|54=1|38=500000000|297=10|10=232|
8=FIX.4.4|9=0307|35=S|34=3|49=EXC|56=001|57=001B27|52=20190605-19:44:31.281|131=48673831|117=20190605-000000000055.00|55=TFIC13280425|762=RFQF|48=20626|22=M|453=5|448=DCV|447=C|452=10|448=001B27|447=C|452=12|448=001|447=C|452=1|448=001FCM001|447=C|452=36|448=002B35|447=C|452=37|634=4.000|135=500000000|62=20190617-22:00:00|10=250|
8=FIX.4.4|9=138|35=AJ|34=3|49=001|50=001B27|52=20190605-19:44:39.733|56=EXC|54=1|55=TFIC13280425|117=20190605-000000000055.00|693=71319577|694=1|762=RFQF|10=031|
8=FIX.4.4|9=0507|35=8|34=4|49=EXC|56=001|57=001B27|52=20190605-19:44:39.722|11=71319577|17=38|37=0|150=F|1080=20190605-000000000055.00|1081=5|453=6|448=001B27|447=C|452=12|448=001|447=C|452=1|448=002B35|447=C|452=37|448=002|447=C|452=17|448=001FCM001|447=C|452=36|448=DCV|447=C|452=10|55=TFIC13280425|762=RFQF|48=20626|22=M|6=79.354|14=500000000|31=79.354|32=500000000|38=500000000|39=2|20102=79.354|54=1|60=20190605-19:44:39.722|75=20190605|63=1|64=20190605|151=0|1623=4.000|381=396774000.000|880=201906050000000038|828=99|10=174|
8=FIX.4.4|9=110|35=A|34=1|49=001|50=001B27|52=20190605-19:46:17.686|56=EXC|43=Y|98=0|108=30|141=Y|553=001FCM001|554=001FCM001|10=097|
8=FIX.4.4|9=0067|35=A|34=1|49=EXC|56=001|52=20190605-19:46:17.740|98=0|108=30|141=Y|10=015|
8=FIX.4.4|9=177|35=R|34=2|49=001|50=001B27|52=20190605-19:46:20.021|56=EXC|131=25793554|146=1|55=TFIC13280425|22=M|762=RFQF|54=1|38=500000000|453=2|448=002B35|447=C|452=37|448=DCV|447=C|452=10|10=057|
8=FIX.4.4|9=0259|35=AI|34=2|49=EXC|56=001|57=001B27|52=20190605-19:46:20.022|131=25793554|453=5|448=DCV|447=C|452=10|448=001B27|447=C|452=12|448=001|447=C|452=1|448=001FCM001|447=C|452=36|448=002B35|447=C|452=37|55=TFIC13280425|762=RFQF|48=20626|22=M|54=1|38=500000000|297=10|10=213|
8=FIX.4.4|9=0307|35=S|34=3|49=EXC|56=001|57=001B27|52=20190605-19:46:26.890|131=25793554|117=20190605-000000000056.00|55=TFIC13280425|762=RFQF|48=20626|22=M|453=5|448=DCV|447=C|452=10|448=001B27|447=C|452=12|448=001|447=C|452=1|448=001FCM001|447=C|452=36|448=002B35|447=C|452=37|634=4.000|135=500000000|62=20190617-22:00:00|10=007|
8=FIX.4.4|9=138|35=AJ|34=3|49=001|50=001B27|52=20190605-19:46:32.706|56=EXC|54=1|55=TFIC13280425|117=20190605-000000000056.00|693=36604338|694=1|762=RFQF|10=020|
8=FIX.4.4|9=0507|35=8|34=4|49=EXC|56=001|57=001B27|52=20190605-19:46:32.693|11=36604338|17=39|37=0|150=F|1080=20190605-000000000056.00|1081=5|453=6|448=001B27|447=C|452=12|448=001|447=C|452=1|448=002B35|447=C|452=37|448=002|447=C|452=17|448=001FCM001|447=C|452=36|448=DCV|447=C|452=10|55=TFIC13280425|762=RFQF|48=20626|22=M|6=79.354|14=500000000|31=79.354|32=500000000|38=500000000|39=2|20102=79.354|54=1|60=20190605-19:46:32.693|75=20190605|63=1|64=20190605|151=0|1623=4.000|381=396774000.000|880=201906050000000039|828=99|10=174|
8=FIX.4.4|9=110|35=A|34=1|49=001|50=001B27|52=20190605-19:47:45.708|56=EXC|43=Y|98=0|108=30|141=Y|553=001FCM001|554=001FCM001|10=094|
8=FIX.4.4|9=0067|35=A|34=1|49=EXC|56=001|52=20190605-19:47:45.764|98=0|108=30|141=Y|10=023|
8=FIX.4.4|9=177|35=R|34=2|49=001|50=001B27|52=20190605-19:47:48.523|56=EXC|131=45237089|146=1|55=TFIC13280425|22=M|762=RFQF|54=1|38=500000000|453=2|448=002B35|447=C|452=37|448=DCV|447=C|452=10|10=073|
8=FIX.4.4|9=0259|35=AI|34=2|49=EXC|56=001|57=001B27|52=20190605-19:47:48.509|131=45237089|453=5|448=DCV|447=C|452=10|448=001B27|447=C|452=12|448=001|447=C|452=1|448=001FCM001|447=C|452=36|448=002B35|447=C|452=37|55=TFIC13280425|762=RFQF|48=20626|22=M|54=1|38=500000000|297=10|10=232|
8=FIX.4.4|9=0307|35=S|34=3|49=EXC|56=001|57=001B27|52=20190605-19:47:54.544|131=45237089|117=20190605-000000000057.00|55=TFIC13280425|762=RFQF|48=20626|22=M|453=5|448=DCV|447=C|452=10|448=001B27|447=C|452=12|448=001|447=C|452=1|448=001FCM001|447=C|452=36|448=002B35|447=C|452=37|634=4.000|135=500000000|62=20190617-22:00:00|10=004|
8=FIX.4.4|9=137|35=AJ|34=3|49=001|50=001B27|52=20190605-19:48:10.172|56=EXC|54=1|55=TFIC13280425|117=20190605-000000000057.00|693=2839605|694=1|762=RFQF|10=223|
8=FIX.4.4|9=0506|35=8|34=4|49=EXC|56=001|57=001B27|52=20190605-19:48:10.174|11=2839605|17=40|37=0|150=F|1080=20190605-000000000057.00|1081=5|453=6|448=001B27|447=C|452=12|448=001|447=C|452=1|448=002B35|447=C|452=37|448=002|447=C|452=17|448=001FCM001|447=C|452=36|448=DCV|447=C|452=10|55=TFIC13280425|762=RFQF|48=20626|22=M|6=79.354|14=500000000|31=79.354|32=500000000|38=500000000|39=2|20102=79.354|54=1|60=20190605-19:48:10.174|75=20190605|63=1|64=20190605|151=0|1623=4.000|381=396774000.000|880=201906050000000040|828=99|10=094|
8=FIX.4.4|9=0049|35=0|34=5|49=EXC|56=001|52=20190605-19:48:40.000|10=175|
8=FIX.4.4|9=59|35=0|34=4|49=001|50=001B27|52=20190605-19:48:40.648|56=EXC|10=064|
8=FIX.4.4|9=0049|35=0|34=6|49=EXC|56=001|52=20190605-19:49:10.000|10=174|
8=FIX.4.4|9=59|35=0|34=5|49=001|50=001B27|52=20190605-19:49:10.656|56=EXC|10=062|
8=FIX.4.4|9=110|35=A|34=1|49=001|50=001B27|52=20190605-19:53:09.015|56=EXC|43=Y|98=0|108=30|141=Y|553=001FCM001|554=001FCM001|10=082|
8=FIX.4.4|9=0067|35=A|34=1|49=EXC|56=001|52=20190605-19:53:09.105|98=0|108=30|141=Y|10=009|
8=FIX.4.4|9=177|35=R|34=2|49=001|50=001B27|52=20190605-19:53:11.385|56=EXC|131=67785289|146=1|55=TFIC13280425|22=M|762=RFQF|54=1|38=500000000|453=2|448=002B35|447=C|452=37|448=DCV|447=C|452=10|10=080|
8=FIX.4.4|9=0259|35=AI|34=2|49=EXC|56=001|57=001B27|52=20190605-19:53:11.369|131=67785289|453=5|448=DCV|447=C|452=10|448=001B27|447=C|452=12|448=001|447=C|452=1|448=001FCM001|447=C|452=36|448=002B35|447=C|452=37|55=TFIC13280425|762=RFQF|48=20626|22=M|54=1|38=500000000|297=10|10=237|
8=FIX.4.4|9=0307|35=S|34=3|49=EXC|56=001|57=001B27|52=20190605-19:53:18.794|131=67785289|117=20190605-000000000059.00|55=TFIC13280425|762=RFQF|48=20626|22=M|453=5|448=DCV|447=C|452=10|448=001B27|447=C|452=12|448=001|447=C|452=1|448=001FCM001|447=C|452=36|448=002B35|447=C|452=37|634=4.000|135=500000000|62=20190617-22:00:00|10=024|
8=FIX.4.4|9=138|35=AJ|34=3|49=001|50=001B27|52=20190605-19:53:36.666|56=EXC|54=1|55=TFIC13280425|117=20190605-000000000059.00|693=42615994|694=1|762=RFQF|10=037|
8=FIX.4.4|9=0507|35=8|34=4|49=EXC|56=001|57=001B27|52=20190605-19:53:36.647|11=42615994|17=42|37=0|150=F|1080=20190605-000000000059.00|1081=5|453=6|448=001B27|447=C|452=12|448=001|447=C|452=1|448=002B35|447=C|452=37|448=002|447=C|452=17|448=001FCM001|447=C|452=36|448=DCV|447=C|452=10|55=TFIC13280425|762=RFQF|48=20626|22=M|6=79.354|14=500000000|31=79.354|32=500000000|38=500000000|39=2|20102=79.354|54=1|60=20190605-19:53:36.647|75=20190605|63=1|64=20190605|151=0|1623=4.000|381=396774000.000|880=201906050000000042|828=99|10=174|
8=FIX.4.4|9=0049|35=0|34=5|49=EXC|56=001|52=20190605-19:54:06.000|10=174|
8=FIX.4.4|9=59|35=0|34=4|49=001|50=001B27|52=20190605-19:54:06.956|56=EXC|10=065|
8=FIX.4.4|9=110|35=A|34=1|49=001|50=001B27|52=20190605-20:00:23.620|56=EXC|43=Y|98=0|108=30|141=Y|553=001FCM001|554=001FCM001|10=064|
8=FIX.4.4|9=0067|35=A|34=1|49=EXC|56=001|52=20190605-20:00:23.693|98=0|108=30|141=Y|10=001|
8=FIX.4.4|9=177|35=R|34=2|49=001|50=001B27|52=20190605-20:00:25.946|56=EXC|131=42694167|146=1|55=TFIC13280425|22=M|762=RFQF|54=1|38=500000000|453=2|448=002B35|447=C|452=37|448=DCV|447=C|452=10|10=059|
8=FIX.4.4|9=0259|35=AI|34=2|49=EXC|56=001|57=001B27|52=20190605-20:00:25.922|131=42694167|453=5|448=DCV|447=C|452=10|448=001B27|447=C|452=12|448=001|447=C|452=1|448=001FCM001|447=C|452=36|448=002B35|447=C|452=37|55=TFIC13280425|762=RFQF|48=20626|22=M|54=1|38=500000000|297=10|10=208|
8=FIX.4.4|9=0307|35=S|34=3|49=EXC|56=001|57=001B27|52=20190605-20:00:31.995|131=42694167|117=20190605-000000000060.00|55=TFIC13280425|762=RFQF|48=20626|22=M|453=5|448=DCV|447=C|452=10|448=001B27|447=C|452=12|448=001|447=C|452=1|448=001FCM001|447=C|452=36|448=002B35|447=C|452=37|634=4.000|135=500000000|62=20190617-22:00:00|10=241|
8=FIX.4.4|9=138|35=AJ|34=3|49=001|50=001B27|52=20190605-20:00:37.784|56=EXC|54=1|55=TFIC13280425|117=20190605-000000000060.00|693=35184771|694=1|762=RFQF|10=011|
8=FIX.4.4|9=0507|35=8|34=4|49=EXC|56=001|57=001B27|52=20190605-20:00:37.759|11=35184771|17=43|37=0|150=F|1080=20190605-000000000060.00|1081=5|453=6|448=001B27|447=C|452=12|448=001|447=C|452=1|448=002B35|447=C|452=37|448=002|447=C|452=17|448=001FCM001|447=C|452=36|448=DCV|447=C|452=10|55=TFIC13280425|762=RFQF|48=20626|22=M|6=79.354|14=500000000|31=79.354|32=500000000|38=500000000|39=2|20102=79.354|54=1|60=20190605-20:00:37.759|75=20190605|63=1|64=20190605|151=0|1623=4.000|381=396774000.000|880=201906050000000043|828=99|10=142|
8=FIX.4.4|9=0049|35=0|34=5|49=EXC|56=001|52=20190605-20:01:07.000|10=159|
8=FIX.4.4|9=59|35=0|34=4|49=001|50=001B27|52=20190605-20:01:08.561|56=EXC|10=043|
8=FIX.4.4|9=110|35=A|34=1|49=001|50=001B27|52=20190605-20:06:09.562|56=EXC|43=Y|98=0|108=30|141=Y|553=001FCM001|554=001FCM001|10=079|
8=FIX.4.4|9=0067|35=A|34=1|49=EXC|56=001|52=20190605-20:06:09.866|98=0|108=30|141=Y|10=013|
8=FIX.4.4|9=0049|35=0|34=2|49=EXC|56=001|52=20190605-20:06:39.000|10=166|
8=FIX.4.4|9=59|35=0|34=2|49=001|50=001B27|52=20190605-20:06:40.499|56=EXC|10=052|
8=FIX.4.4|9=110|35=A|34=1|49=001|50=001B27|52=20190605-20:11:54.529|56=EXC|43=Y|98=0|108=30|141=Y|553=001FCM001|554=001FCM001|10=078|
8=FIX.4.4|9=0067|35=A|34=1|49=EXC|56=001|52=20190605-20:11:54.716|98=0|108=30|141=Y|10=003|
8=FIX.4.4|9=177|35=R|34=2|49=001|50=001B27|52=20190605-20:12:04.578|56=EXC|131=28813322|146=1|55=TFIC13280425|22=M|762=RFQF|54=1|38=500000000|453=2|448=002B35|447=C|452=37|448=DCV|447=C|452=10|10=050|
8=FIX.4.4|9=0259|35=AI|34=2|49=EXC|56=001|57=001B27|52=20190605-20:12:04.551|131=28813322|453=5|448=DCV|447=C|452=10|448=001B27|447=C|452=12|448=001|447=C|452=1|448=001FCM001|447=C|452=36|448=002B35|447=C|452=37|55=TFIC13280425|762=RFQF|48=20626|22=M|54=1|38=500000000|297=10|10=196|
8=FIX.4.4|9=0307|35=S|34=3|49=EXC|56=001|57=001B27|52=20190605-20:12:16.820|131=28813322|117=20190605-000000000061.00|55=TFIC13280425|762=RFQF|48=20626|22=M|453=5|448=DCV|447=C|452=10|448=001B27|447=C|452=12|448=001|447=C|452=1|448=001FCM001|447=C|452=36|448=002B35|447=C|452=37|634=4.000|135=500000000|62=20190617-22:00:00|10=225|
8=FIX.4.4|9=138|35=AJ|34=3|49=001|50=001B27|52=20190605-20:12:24.241|56=EXC|54=1|55=TFIC13280425|117=20190605-000000000061.00|693=35857698|694=1|762=RFQF|10=014|
8=FIX.4.4|9=0507|35=8|34=4|49=EXC|56=001|57=001B27|52=20190605-20:12:24.210|11=35857698|17=44|37=0|150=F|1080=20190605-000000000061.00|1081=5|453=6|448=001B27|447=C|452=12|448=001|447=C|452=1|448=002B35|447=C|452=37|448=002|447=C|452=17|448=001FCM001|447=C|452=36|448=DCV|447=C|452=10|55=TFIC13280425|762=RFQF|48=20626|22=M|6=79.354|14=500000000|31=79.354|32=500000000|38=500000000|39=2|20102=79.354|54=1|60=20190605-20:12:24.210|75=20190605|63=1|64=20190605|151=0|1623=4.000|381=396774000.000|880=201906050000000044|828=99|10=122|
8=FIX.4.4|9=110|35=A|34=1|49=001|50=001B27|52=20190605-20:34:59.470|56=EXC|43=Y|98=0|108=30|141=Y|553=001FCM001|554=001FCM001|10=083|
8=FIX.4.4|9=0067|35=A|34=1|49=EXC|56=001|52=20190605-20:34:59.550|98=0|108=30|141=Y|10=009|
8=FIX.4.4|9=177|35=R|34=2|49=001|50=001B27|52=20190605-20:35:02.853|56=EXC|131=45942664|146=1|55=TFIC13280425|22=M|762=RFQF|54=1|38=500000000|453=2|448=002B35|447=C|452=37|448=DCV|447=C|452=10|10=060|
8=FIX.4.4|9=0259|35=AI|34=2|49=EXC|56=001|57=001B27|52=20190605-20:35:02.517|131=45942664|453=5|448=DCV|447=C|452=10|448=001B27|447=C|452=12|448=001|447=C|452=1|448=001FCM001|447=C|452=36|448=002B35|447=C|452=37|55=TFIC13280425|762=RFQF|48=20626|22=M|54=1|38=500000000|297=10|10=212|
8=FIX.4.4|9=0307|35=S|34=3|49=EXC|56=001|57=001B27|52=20190605-20:35:10.039|131=45942664|117=20190605-000000000063.00|55=TFIC13280425|762=RFQF|48=20626|22=M|453=5|448=DCV|447=C|452=10|448=001B27|447=C|452=12|448=001|447=C|452=1|448=001FCM001|447=C|452=36|448=002B35|447=C|452=37|634=4.000|135=500000000|62=20190617-22:00:00|10=239|
8=FIX.4.4|9=138|35=AJ|34=3|49=001|50=001B27|52=20190605-20:35:17.136|56=EXC|54=1|55=TFIC13280425|117=20190605-000000000063.00|693=48336952|694=1|762=RFQF|10=015|
8=FIX.4.4|9=0507|35=8|34=4|49=EXC|56=001|57=001B27|52=20190605-20:35:16.799|11=48336952|17=46|37=0|150=F|1080=20190605-000000000063.00|1081=5|453=6|448=001B27|447=C|452=12|448=001|447=C|452=1|448=002B35|447=C|452=37|448=002|447=C|452=17|448=001FCM001|447=C|452=36|448=DCV|447=C|452=10|55=TFIC13280425|762=RFQF|48=20626|22=M|6=79.354|14=500000000|31=79.354|32=500000000|38=500000000|39=2|20102=79.354|54=1|60=20190605-20:35:16.799|75=20190605|63=1|64=20190605|151=0|1623=4.000|381=396774000.000|880=201906050000000046|828=99|10=173|
8=FIX.4.4|9=0049|35=0|34=5|49=EXC|56=001|52=20190605-20:35:46.000|10=169|
8=FIX.4.4|9=59|35=0|34=4|49=001|50=001B27|52=20190605-20:35:47.413|56=EXC|10=049|
8=FIX.4.4|9=110|35=A|34=1|49=001|50=001B27|52=20190605-20:37:06.480|56=EXC|43=Y|98=0|108=30|141=Y|553=001FCM001|554=001FCM001|10=079|
8=FIX.4.4|9=0067|35=A|34=1|49=EXC|56=001|52=20190605-20:37:05.925|98=0|108=30|141=Y|10=009|
8=FIX.4.4|9=177|35=R|34=2|49=001|50=001B27|52=20190605-20:37:09.882|56=EXC|131=43761815|146=1|55=TFIC13280425|22=M|762=RFQF|54=1|38=500000000|453=2|448=002B35|447=C|452=37|448=DCV|447=C|452=10|10=066|
8=FIX.4.4|9=0259|35=AI|34=2|49=EXC|56=001|57=001B27|52=20190605-20:37:09.194|131=43761815|453=5|448=DCV|447=C|452=10|448=001B27|447=C|452=12|448=001|447=C|452=1|448=001FCM001|447=C|452=36|448=002B35|447=C|452=37|55=TFIC13280425|762=RFQF|48=20626|22=M|54=1|38=500000000|297=10|10=217|
8=FIX.4.4|9=0307|35=S|34=3|49=EXC|56=001|57=001B27|52=20190605-20:37:17.507|131=43761815|117=20190605-000000000070.00|55=TFIC13280425|762=RFQF|48=20626|22=M|453=5|448=DCV|447=C|452=10|448=001B27|447=C|452=12|448=001|447=C|452=1|448=001FCM001|447=C|452=36|448=002B35|447=C|452=37|634=4.000|135=500000000|62=20190617-22:00:00|10=241|
8=FIX.4.4|9=137|35=AJ|34=3|49=001|50=001B27|52=20190605-20:37:26.834|56=EXC|54=1|55=TFIC13280425|117=20190605-000000000070.00|693=7608116|694=1|762=RFQF|10=216|
8=FIX.4.4|9=0506|35=8|34=4|49=EXC|56=001|57=001B27|52=20190605-20:37:26.149|11=7608116|17=47|37=0|150=F|1080=20190605-000000000070.00|1081=5|453=6|448=001B27|447=C|452=12|448=001|447=C|452=1|448=002B35|447=C|452=37|448=002|447=C|452=17|448=001FCM001|447=C|452=36|448=DCV|447=C|452=10|55=TFIC13280425|762=RFQF|48=20626|22=M|6=79.354|14=500000000|31=79.354|32=500000000|38=500000000|39=2|20102=79.354|54=1|60=20190605-20:37:26.149|75=20190605|63=1|64=20190605|151=0|1623=4.000|381=396774000.000|880=201906050000000047|828=99|10=097|
8=FIX.4.4|9=0049|35=0|34=5|49=EXC|56=001|52=20190605-20:37:56.000|10=172|
8=FIX.4.4|9=59|35=0|34=4|49=001|50=001B27|52=20190605-20:37:56.934|56=EXC|10=059|
