8=FIX.4.4|9=105|35=A|34=1|49=002|50=002B35|52=20190625-14:00:42.184|56=EXC|98=0|108=30|141=Y|553=002FCM001|554=002FCM001|10=084|
8=FIX.4.4|9=0067|35=A|34=1|49=EXC|56=002|52=20190627-14:00:42.195|98=0|108=30|141=Y|10=007|
8=FIX.4.4|9=0225|35=R|34=2|49=EXC|56=002|57=002B35|52=20190627-14:00:49.471|131=20190627-000000000005.00|146=1|55=TFIC13280425|762=RFQF|48=20626|22=M|54=1|38=500000000|453=3|448=001B27|447=C|452=12|448=001|447=C|452=1|448=002B35|447=C|452=37|10=012|
8=FIX.4.4|9=218|35=S|34=2|49=002|50=002B35|52=20190625-14:01:10.220|56=EXC|55=TFIC13280425|62=20190830-22:00:00.000|117=20190625900391_S|131=20190627-000000000005.00|134=0|135=500000000|632=0|634=3|762=RFQF|453=1|448=DCV|447=C|452=10|10=050|
8=FIX.4.4|9=0301|35=AI|34=3|49=EXC|56=002|57=002B35|52=20190627-14:01:10.214|131=20190627-000000000005.00|117=20190625900391_S|453=4|448=DCV|447=C|452=10|448=001B27|447=C|452=12|448=001|447=C|452=1|448=002B35|447=C|452=37|55=TFIC13280425|762=RFQF|48=20626|22=M|54=1|634=3.000|135=500000000|62=20190830-22:00:00|297=16|10=215|
8=FIX.4.4|9=0514|35=8|34=4|49=EXC|56=002|57=002B35|52=20190627-14:01:29.451|11=20190625900391_S|17=2|37=0|150=F|1080=20190627-000000000005.00|1081=6|453=6|448=002B35|447=C|452=12|448=002|447=C|452=1|448=001B27|447=C|452=37|448=001|447=C|452=17|448=002FCM001|447=C|452=36|448=DCV|447=C|452=10|55=TFIC13280425|762=RFQF|48=20626|22=M|6=84.156|14=500000000|31=84.156|32=500000000|38=500000000|39=2|20102=84.156|54=2|60=20190627-14:01:29.451|75=20190627|63=1|64=20190627|151=0|1623=3.000|381=420781500.000|880=201906270000000002|828=99|10=040|
8=FIX.4.4|9=59|35=0|34=3|49=002|50=002B35|52=20190625-14:01:41.173|56=EXC|10=044|
8=FIX.4.4|9=0225|35=R|34=5|49=EXC|56=002|57=002B35|52=20190627-14:01:56.257|131=20190627-000000000006.00|146=1|55=TFIT16280428|762=RFQF|48=20399|22=M|54=1|38=500000000|453=3|448=001B27|447=C|452=12|448=001|447=C|452=1|448=002B35|447=C|452=37|10=047|
8=FIX.4.4|9=59|35=0|34=4|49=002|50=002B35|52=20190625-14:02:11.174|56=EXC|10=044|
8=FIX.4.4|9=218|35=S|34=5|49=002|50=002B35|52=20190625-14:02:21.915|56=EXC|55=TFIT16280428|62=20190830-22:00:00.000|117=20190625900392_S|131=20190627-000000000006.00|134=0|135=500000000|632=0|634=3|762=RFQF|453=1|448=DCV|447=C|452=10|10=092|
8=FIX.4.4|9=0301|35=AI|34=6|49=EXC|56=002|57=002B35|52=20190627-14:02:21.900|131=20190627-000000000006.00|117=20190625900392_S|453=4|448=DCV|447=C|452=10|448=001B27|447=C|452=12|448=001|447=C|452=1|448=002B35|447=C|452=37|55=TFIT16280428|762=RFQF|48=20399|22=M|54=1|634=3.000|135=500000000|62=20190830-22:00:00|297=16|10=255|
8=FIX.4.4|9=86|35=Z|34=6|49=002|50=002B35|52=20190625-14:02:41.059|56=EXC|117=20190625900392_S|298=5|10=204|
8=FIX.4.4|9=0286|35=AI|34=7|49=EXC|56=002|57=002B35|52=20190627-14:02:41.046|131=20190627-000000000006.00|117=20190625900392_S|298=5|453=4|448=DCV|447=C|452=10|448=001B27|447=C|452=12|448=001|447=C|452=1|448=002B35|447=C|452=37|55=TFIT16280428|762=RFQF|48=20399|22=M|54=1|634=3.000|135=500000000|297=17|10=036|
8=FIX.4.4|9=105|35=A|34=1|49=002|50=002B35|52=20190625-14:04:52.595|56=EXC|98=0|108=30|141=Y|553=002FCM001|554=002FCM001|10=095|
8=FIX.4.4|9=0067|35=A|34=1|49=EXC|56=002|52=20190627-14:04:52.610|98=0|108=30|141=Y|10=004|
8=FIX.4.4|9=0225|35=R|34=2|49=EXC|56=002|57=002B35|52=20190627-14:04:59.784|131=20190627-000000000007.00|146=1|55=TFIC13280425|762=RFQF|48=20626|22=M|54=1|38=500000000|453=3|448=001B27|447=C|452=12|448=001|447=C|452=1|448=002B35|447=C|452=37|10=026|
8=FIX.4.4|9=218|35=S|34=2|49=002|50=002B35|52=20190625-14:05:20.461|56=EXC|55=TFIC13280425|62=20190830-22:00:00.000|117=20190625904501_S|131=20190627-000000000007.00|134=0|135=500000000|632=0|634=3|762=RFQF|453=1|448=DCV|447=C|452=10|10=061|
8=FIX.4.4|9=0301|35=AI|34=3|49=EXC|56=002|57=002B35|52=20190627-14:05:20.446|131=20190627-000000000007.00|117=20190625904501_S|453=4|448=DCV|447=C|452=10|448=001B27|447=C|452=12|448=001|447=C|452=1|448=002B35|447=C|452=37|55=TFIC13280425|762=RFQF|48=20626|22=M|54=1|634=3.000|135=500000000|62=20190830-22:00:00|297=16|10=226|
8=FIX.4.4|9=0514|35=8|34=4|49=EXC|56=002|57=002B35|52=20190627-14:05:39.578|11=20190625904501_S|17=3|37=0|150=F|1080=20190627-000000000007.00|1081=6|453=6|448=002B35|447=C|452=12|448=002|447=C|452=1|448=001B27|447=C|452=37|448=001|447=C|452=17|448=002FCM001|447=C|452=36|448=DCV|447=C|452=10|55=TFIC13280425|762=RFQF|48=20626|22=M|6=84.156|14=500000000|31=84.156|32=500000000|38=500000000|39=2|20102=84.156|54=2|60=20190627-14:05:39.578|75=20190627|63=1|64=20190627|151=0|1623=3.000|381=420781500.000|880=201906270000000003|828=99|10=071|
8=FIX.4.4|9=59|35=0|34=3|49=002|50=002B35|52=20190625-14:05:50.520|56=EXC|10=044|
8=FIX.4.4|9=0225|35=R|34=5|49=EXC|56=002|57=002B35|52=20190627-14:06:06.518|131=20190627-000000000008.00|146=1|55=TFIT16280428|762=RFQF|48=20399|22=M|54=1|38=500000000|453=3|448=001B27|447=C|452=12|448=001|447=C|452=1|448=002B35|447=C|452=37|10=049|
8=FIX.4.4|9=59|35=0|34=4|49=002|50=002B35|52=20190625-14:06:20.520|56=EXC|10=043|
8=FIX.4.4|9=218|35=S|34=5|49=002|50=002B35|52=20190625-14:06:32.271|56=EXC|55=TFIT16280428|62=20190830-22:00:00.000|117=20190625904502_S|131=20190627-000000000008.00|134=0|135=500000000|632=0|634=3|762=RFQF|453=1|448=DCV|447=C|452=10|10=092|
8=FIX.4.4|9=0301|35=AI|34=6|49=EXC|56=002|57=002B35|52=20190627-14:06:32.256|131=20190627-000000000008.00|117=20190625904502_S|453=4|448=DCV|447=C|452=10|448=001B27|447=C|452=12|448=001|447=C|452=1|448=002B35|447=C|452=37|55=TFIT16280428|762=RFQF|48=20399|22=M|54=1|634=3.000|135=500000000|62=20190830-22:00:00|297=16|10=008|
8=FIX.4.4|9=86|35=Z|34=6|49=002|50=002B35|52=20190625-14:06:51.600|56=EXC|117=20190625904502_S|298=5|10=198|
8=FIX.4.4|9=0286|35=AI|34=7|49=EXC|56=002|57=002B35|52=20190627-14:06:51.587|131=20190627-000000000008.00|117=20190625904502_S|298=5|453=4|448=DCV|447=C|452=10|448=001B27|447=C|452=12|448=001|447=C|452=1|448=002B35|447=C|452=37|55=TFIT16280428|762=RFQF|48=20399|22=M|54=1|634=3.000|135=500000000|297=17|10=050|
8=FIX.4.4|9=0225|35=R|34=8|49=EXC|56=002|57=002B35|52=20190627-14:07:10.248|131=20190627-000000000009.00|146=1|55=TFIT16300632|762=RFQF|48=20406|22=M|54=1|38=500000000|453=3|448=001B27|447=C|452=12|448=001|447=C|452=1|448=002B35|447=C|452=37|10=028|
8=FIX.4.4|9=59|35=0|34=7|49=002|50=002B35|52=20190625-14:07:22.520|56=EXC|10=049|
8=FIX.4.4|9=0217|35=R|34=9|49=EXC|56=002|57=002B35|52=20190627-14:07:35.843|131=20190627-000000000009.00|146=1|55=TFIT16300632|762=RFQF|48=20406|22=M|54=1|38=0|453=3|448=001B27|447=C|452=12|448=001|447=C|452=1|448=002B35|447=C|452=37|10=161|
8=FIX.4.4|9=59|35=0|34=8|49=002|50=002B35|52=20190625-14:07:52.519|56=EXC|10=061|
8=FIX.4.4|9=0050|35=0|34=10|49=EXC|56=002|52=20190627-14:08:05.000|10=208|
8=FIX.4.4|9=0227|35=R|34=11|49=EXC|56=002|57=002B35|52=20190627-14:08:11.994|131=20190627-000000000010.00|146=1|55=TFIT06110919|762=RFQF|48=20320|22=M|54=2|38=1000000000|453=3|448=001B27|447=C|452=12|448=001|447=C|452=1|448=002B35|447=C|452=37|10=120|
8=FIX.4.4|9=59|35=0|34=9|49=002|50=002B35|52=20190625-14:08:22.519|56=EXC|10=060|
8=FIX.4.4|9=220|35=S|34=10|49=002|50=002B35|52=20190625-14:08:35.666|56=EXC|55=TFIT06110919|62=20190830-22:00:00.000|117=20190625904505_S|131=20190627-000000000010.00|134=1000000000|135=0|632=2|634=0|762=RFQF|453=1|448=DCV|447=C|452=10|10=177|
8=FIX.4.4|9=0303|35=AI|34=12|49=EXC|56=002|57=002B35|52=20190627-14:08:35.652|131=20190627-000000000010.00|117=20190625904505_S|453=4|448=DCV|447=C|452=10|448=001B27|447=C|452=12|448=001|447=C|452=1|448=002B35|447=C|452=37|55=TFIT06110919|762=RFQF|48=20320|22=M|54=2|632=2.000|134=1000000000|62=20190830-22:00:00|297=16|10=077|
8=FIX.4.4|9=0050|35=0|34=13|49=EXC|56=002|52=20190627-14:09:05.000|10=212|
8=FIX.4.4|9=60|35=0|34=11|49=002|50=002B35|52=20190625-14:09:06.520|56=EXC|10=088|
8=FIX.4.4|9=0050|35=0|34=14|49=EXC|56=002|52=20190627-14:09:35.000|10=216|
8=FIX.4.4|9=60|35=0|34=12|49=002|50=002B35|52=20190625-14:09:36.520|56=EXC|10=092|
8=FIX.4.4|9=105|35=A|34=1|49=002|50=002B35|52=20190625-14:38:02.955|56=EXC|98=0|108=30|141=Y|553=002FCM001|554=002FCM001|10=097|
8=FIX.4.4|9=0067|35=A|34=1|49=EXC|56=002|52=20190627-14:38:02.992|98=0|108=30|141=Y|10=019|
8=FIX.4.4|9=0226|35=R|34=2|49=EXC|56=002|57=002B35|52=20190627-14:38:10.355|131=20190627-000000000011.00|146=1|55=TFIT06110919|762=RFQF|48=20320|22=M|54=2|38=1000000000|453=3|448=001B27|447=C|452=12|448=001|447=C|452=1|448=002B35|447=C|452=37|10=065|
8=FIX.4.4|9=219|35=S|34=2|49=002|50=002B35|52=20190625-14:38:31.574|56=EXC|55=TFIT06110919|62=20190830-22:00:00.000|117=20190625938005_S|131=20190627-000000000011.00|134=1000000000|135=0|632=2|634=0|762=RFQF|453=1|448=DCV|447=C|452=10|10=138|
8=FIX.4.4|9=0302|35=AI|34=3|49=EXC|56=002|57=002B35|52=20190627-14:38:31.581|131=20190627-000000000011.00|117=20190625938005_S|453=4|448=DCV|447=C|452=10|448=001B27|447=C|452=12|448=001|447=C|452=1|448=002B35|447=C|452=37|55=TFIT06110919|762=RFQF|48=20320|22=M|54=2|632=2.000|134=1000000000|62=20190830-22:00:00|297=16|10=031|
8=FIX.4.4|9=0521|35=8|34=4|49=EXC|56=002|57=002B35|52=20190627-14:38:50.850|11=20190625938005_S|17=4|37=0|150=F|1080=20190627-000000000011.00|1081=6|453=6|448=002B35|447=C|452=12|448=002|447=C|452=1|448=001B27|447=C|452=37|448=001|447=C|452=17|448=002FCM001|447=C|452=36|448=DCV|447=C|452=10|55=TFIT06110919|762=RFQF|48=20320|22=M|6=101.016|14=1000000000|31=101.016|32=1000000000|38=1000000000|39=2|20102=106.558|54=1|60=20190627-14:38:50.850|75=20190627|63=1|64=20190627|151=0|1623=2.000|381=1065585000.000|880=201906270000000004|828=99|10=106|
8=FIX.4.4|9=59|35=0|34=3|49=002|50=002B35|52=20190625-14:39:01.914|56=EXC|10=054|
8=FIX.4.4|9=0049|35=0|34=5|49=EXC|56=002|52=20190627-14:39:20.000|10=173|
8=FIX.4.4|9=59|35=5|34=4|49=002|50=002B35|52=20190625-14:39:23.089|56=EXC|10=067|
8=FIX.4.4|9=0049|35=5|34=6|49=EXC|56=002|52=20190627-14:39:23.095|10=196|
8=FIX.4.4|9=105|35=A|34=1|49=002|50=002B35|52=20190625-15:23:40.480|56=EXC|98=0|108=30|141=Y|553=002FCM001|554=002FCM001|10=087|
8=FIX.4.4|9=0067|35=A|34=1|49=EXC|56=002|52=20190627-15:23:40.509|98=0|108=30|141=Y|10=010|
8=FIX.4.4|9=0225|35=R|34=2|49=EXC|56=002|57=002B35|52=20190627-15:23:47.744|131=20190627-000000000012.00|146=1|55=TFIC13280425|762=RFQF|48=20626|22=M|54=1|38=500000000|453=3|448=001B27|447=C|452=12|448=001|447=C|452=1|448=002B35|447=C|452=37|10=017|
8=FIX.4.4|9=219|35=S|34=2|49=002|50=002B35|52=20190625-15:24:08.440|56=EXC|55=TFIC13280425|62=20190830-22:00:00.000|117=201906251023381_S|131=20190627-000000000012.00|134=0|135=500000000|632=0|634=3|762=RFQF|453=1|448=DCV|447=C|452=10|10=110|
8=FIX.4.4|9=0302|35=AI|34=3|49=EXC|56=002|57=002B35|52=20190627-15:24:08.439|131=20190627-000000000012.00|117=201906251023381_S|453=4|448=DCV|447=C|452=10|448=001B27|447=C|452=12|448=001|447=C|452=1|448=002B35|447=C|452=37|55=TFIC13280425|762=RFQF|48=20626|22=M|54=1|634=3.000|135=500000000|62=20190830-22:00:00|297=16|10=024|
8=FIX.4.4|9=0515|35=8|34=4|49=EXC|56=002|57=002B35|52=20190627-15:24:27.834|11=201906251023381_S|17=5|37=0|150=F|1080=20190627-000000000012.00|1081=6|453=6|448=002B35|447=C|452=12|448=002|447=C|452=1|448=001B27|447=C|452=37|448=001|447=C|452=17|448=002FCM001|447=C|452=36|448=DCV|447=C|452=10|55=TFIC13280425|762=RFQF|48=20626|22=M|6=84.156|14=500000000|31=84.156|32=500000000|38=500000000|39=2|20102=84.156|54=2|60=20190627-15:24:27.834|75=20190627|63=1|64=20190627|151=0|1623=3.000|381=420781500.000|880=201906270000000005|828=99|10=107|
8=FIX.4.4|9=59|35=0|34=3|49=002|50=002B35|52=20190625-15:24:38.431|56=EXC|10=053|
8=FIX.4.4|9=0225|35=R|34=5|49=EXC|56=002|57=002B35|52=20190627-15:24:54.751|131=20190627-000000000013.00|146=1|55=TFIT16280428|762=RFQF|48=20399|22=M|54=1|38=500000000|453=3|448=001B27|447=C|452=12|448=001|447=C|452=1|448=002B35|447=C|452=37|10=048|
8=FIX.4.4|9=59|35=0|34=4|49=002|50=002B35|52=20190625-15:25:08.429|56=EXC|10=059|
8=FIX.4.4|9=219|35=S|34=5|49=002|50=002B35|52=20190625-15:25:20.424|56=EXC|55=TFIT16280428|62=20190830-22:00:00.000|117=201906251023382_S|131=20190627-000000000013.00|134=0|135=500000000|632=0|634=3|762=RFQF|453=1|448=DCV|447=C|452=10|10=135|
8=FIX.4.4|9=0302|35=AI|34=6|49=EXC|56=002|57=002B35|52=20190627-15:25:20.423|131=20190627-000000000013.00|117=201906251023382_S|453=4|448=DCV|447=C|452=10|448=001B27|447=C|452=12|448=001|447=C|452=1|448=002B35|447=C|452=37|55=TFIT16280428|762=RFQF|48=20399|22=M|54=1|634=3.000|135=500000000|62=20190830-22:00:00|297=16|10=047|
8=FIX.4.4|9=87|35=Z|34=6|49=002|50=002B35|52=20190625-15:25:39.586|56=EXC|117=201906251023382_S|298=5|10=011|
8=FIX.4.4|9=0287|35=AI|34=7|49=EXC|56=002|57=002B35|52=20190627-15:25:39.585|131=20190627-000000000013.00|117=201906251023382_S|298=5|453=4|448=DCV|447=C|452=10|448=001B27|447=C|452=12|448=001|447=C|452=1|448=002B35|447=C|452=37|55=TFIT16280428|762=RFQF|48=20399|22=M|54=1|634=3.000|135=500000000|297=17|10=100|
8=FIX.4.4|9=0225|35=R|34=8|49=EXC|56=002|57=002B35|52=20190627-15:25:58.265|131=20190627-000000000014.00|146=1|55=TFIT16300632|762=RFQF|48=20406|22=M|54=1|38=500000000|453=3|448=001B27|447=C|452=12|448=001|447=C|452=1|448=002B35|447=C|452=37|10=036|
8=FIX.4.4|9=59|35=0|34=7|49=002|50=002B35|52=20190625-15:26:10.429|56=EXC|10=056|
8=FIX.4.4|9=0217|35=R|34=9|49=EXC|56=002|57=002B35|52=20190627-15:26:23.932|131=20190627-000000000014.00|146=1|55=TFIT16300632|762=RFQF|48=20406|22=M|54=1|38=0|453=3|448=001B27|447=C|452=12|448=001|447=C|452=1|448=002B35|447=C|452=37|10=155|
8=FIX.4.4|9=59|35=0|34=8|49=002|50=002B35|52=20190625-15:26:40.429|56=EXC|10=060|
8=FIX.4.4|9=0050|35=0|34=10|49=EXC|56=002|52=20190627-15:26:53.000|10=212|
8=FIX.4.4|9=0227|35=R|34=11|49=EXC|56=002|57=002B35|52=20190627-15:27:02.999|131=20190627-000000000015.00|146=1|55=TFIT06110919|762=RFQF|48=20320|22=M|54=2|38=1000000000|453=3|448=001B27|447=C|452=12|448=001|447=C|452=1|448=002B35|447=C|452=37|10=132|
8=FIX.4.4|9=59|35=0|34=9|49=002|50=002B35|52=20190625-15:27:10.429|56=EXC|10=059|
8=FIX.4.4|9=221|35=S|34=10|49=002|50=002B35|52=20190625-15:27:24.011|56=EXC|55=TFIT06110919|62=20190830-22:00:00.000|117=201906251023385_S|131=20190627-000000000015.00|134=1000000000|135=0|632=2|634=0|762=RFQF|453=1|448=DCV|447=C|452=10|10=214|
8=FIX.4.4|9=0304|35=AI|34=12|49=EXC|56=002|57=002B35|52=20190627-15:27:24.009|131=20190627-000000000015.00|117=201906251023385_S|453=4|448=DCV|447=C|452=10|448=001B27|447=C|452=12|448=001|447=C|452=1|448=002B35|447=C|452=37|55=TFIT06110919|762=RFQF|48=20320|22=M|54=2|632=2.000|134=1000000000|62=20190830-22:00:00|297=16|10=126|
8=FIX.4.4|9=0523|35=8|34=13|49=EXC|56=002|57=002B35|52=20190627-15:27:43.068|11=201906251023385_S|17=6|37=0|150=F|1080=20190627-000000000015.00|1081=6|453=6|448=002B35|447=C|452=12|448=002|447=C|452=1|448=001B27|447=C|452=37|448=001|447=C|452=17|448=002FCM001|447=C|452=36|448=DCV|447=C|452=10|55=TFIT06110919|762=RFQF|48=20320|22=M|6=101.016|14=1000000000|31=101.016|32=1000000000|38=1000000000|39=2|20102=106.558|54=1|60=20190627-15:27:43.068|75=20190627|63=1|64=20190627|151=0|1623=2.000|381=1065585000.000|880=201906270000000006|828=99|10=213|
8=FIX.4.4|9=60|35=0|34=11|49=002|50=002B35|52=20190625-15:27:54.431|56=EXC|10=093|
8=FIX.4.4|9=0193|35=R|34=14|49=EXC|56=002|52=20190627-15:28:10.176|131=20190627-000000000016.00|146=1|55=TFIT15260826|762=RFQF|48=20348|22=M|54=1|38=1500000000|453=2|448=007B26|447=C|452=12|448=007|447=C|452=1|10=053|
8=FIX.4.4|9=60|35=0|34=12|49=002|50=002B35|52=20190625-15:28:24.430|56=EXC|10=091|
8=FIX.4.4|9=221|35=S|34=13|49=002|50=002B35|52=20190625-15:28:39.465|56=EXC|55=TFIT15260826|62=20190830-22:00:00.000|117=201906251023386_S|131=20190627-000000000016.00|134=0|135=1500000000|632=0|634=6|762=RFQF|453=1|448=DCV|447=C|452=10|10=251|
8=FIX.4.4|9=0304|35=AI|34=15|49=EXC|56=002|57=002B35|52=20190627-15:28:39.463|131=20190627-000000000016.00|117=201906251023386_S|453=4|448=DCV|447=C|452=10|448=007B26|447=C|452=12|448=007|447=C|452=1|448=002B35|447=C|452=37|55=TFIT15260826|762=RFQF|48=20348|22=M|54=1|634=6.000|135=1500000000|62=20190830-22:00:00|297=16|10=177|
8=FIX.4.4|9=0050|35=0|34=16|49=EXC|56=002|52=20190627-15:29:09.000|10=222|
8=FIX.4.4|9=60|35=0|34=14|49=002|50=002B35|52=20190625-15:29:10.429|56=EXC|10=097|
8=FIX.4.4|9=0523|35=8|34=17|49=EXC|56=002|57=002B35|52=20190627-15:29:18.514|11=201906251023386_S|17=7|37=0|150=F|1080=20190627-000000000016.00|1081=6|453=6|448=002B35|447=C|452=12|448=002|447=C|452=1|448=007B26|447=C|452=37|448=007|447=C|452=17|448=002FCM001|447=C|452=36|448=DCV|447=C|452=10|55=TFIT15260826|762=RFQF|48=20348|22=M|6=108.500|14=1500000000|31=108.500|32=1500000000|38=1500000000|39=2|20102=114.767|54=2|60=20190627-15:29:18.514|75=20190627|63=1|64=20190627|151=0|1623=6.000|381=1721506500.000|880=201906270000000007|828=99|10=017|
8=FIX.4.4|9=60|35=0|34=15|49=002|50=002B35|52=20190625-15:29:40.428|56=EXC|10=100|
8=FIX.4.4|9=0192|35=R|34=18|49=EXC|56=002|52=20190627-15:29:46.344|131=20190627-000000000017.00|146=1|55=TFIC14280426|762=RFQF|48=20602|22=M|54=1|38=500000000|453=2|448=001B27|447=C|452=12|448=001|447=C|452=1|10=233|
8=FIX.4.4|9=60|35=0|34=16|49=002|50=002B35|52=20190625-15:30:10.429|56=EXC|10=091|
8=FIX.4.4|9=0226|35=R|34=19|49=EXC|56=002|57=002B35|52=20190627-15:30:15.378|131=20190627-000000000018.00|146=1|55=TFIT16180930|762=RFQF|48=20355|22=M|54=1|38=500000000|453=3|448=001B27|447=C|452=12|448=001|447=C|452=1|448=002B35|447=C|452=37|10=095|
8=FIX.4.4|9=60|35=0|34=17|49=002|50=002B35|52=20190625-15:30:40.429|56=EXC|10=095|
8=FIX.4.4|9=0050|35=0|34=20|49=EXC|56=002|52=20190627-15:30:45.000|10=209|
8=FIX.4.4|9=0226|35=R|34=21|49=EXC|56=002|57=002B35|52=20190627-15:30:49.727|131=20190627-000000000019.00|146=1|55=TFIT16240724|762=RFQF|48=20392|22=M|54=2|38=500000000|453=3|448=007B26|447=C|452=12|448=007|447=C|452=1|448=002B35|447=C|452=37|10=105|
8=FIX.4.4|9=60|35=0|34=18|49=002|50=002B35|52=20190625-15:31:10.430|56=EXC|10=086|
8=FIX.4.4|9=216|35=S|34=19|49=002|50=002B35|52=20190625-15:31:10.962|56=EXC|55=TFIT16240724|62=20190830-22:00:00.000|117=2019062510233810_S|131=20190627-000000000019.00|134=1000|135=0|632=0|634=0|762=RFQF|453=1|448=DCV|447=C|452=10|10=245|
8=FIX.4.4|9=0275|35=AI|34=22|49=EXC|56=002|57=002B35|52=20190627-15:31:10.960|117=2019062510233810_S|453=1|448=DCV|447=C|452=10|55=TFIT16240724|762=RFQF|134=1000|135=0|62=20190830-22:00:00.000|297=9|300=99|58=(1160): Regla de negocio - La cantidad de la orden debe ser por lo menos 500000000|10=074|
8=FIX.4.4|9=60|35=5|34=20|49=002|50=002B35|52=20190625-15:31:35.429|56=EXC|10=099|
8=FIX.4.4|9=0050|35=5|34=23|49=EXC|56=002|52=20190627-15:31:35.427|10=230|
8=FIX.4.4|9=105|35=A|34=1|49=002|50=002B35|52=20190625-15:58:17.312|56=EXC|98=0|108=30|141=Y|553=002FCM001|554=002FCM001|10=093|
8=FIX.4.4|9=0067|35=A|34=1|49=EXC|56=002|52=20190627-15:58:17.333|98=0|108=30|141=Y|10=017|
8=FIX.4.4|9=0225|35=R|34=2|49=EXC|56=002|57=002B35|52=20190627-15:58:24.600|131=20190627-000000000020.00|146=1|55=TFIC13280425|762=RFQF|48=20626|22=M|54=1|38=500000000|453=3|448=001B27|447=C|452=12|448=001|447=C|452=1|448=002B35|447=C|452=37|10=010|
8=FIX.4.4|9=219|35=S|34=2|49=002|50=002B35|52=20190625-15:58:45.377|56=EXC|55=TFIC13280425|62=20190830-22:00:00.000|117=201906251058141_S|131=20190627-000000000020.00|134=0|135=500000000|632=0|634=3|762=RFQF|453=1|448=DCV|447=C|452=10|10=128|
8=FIX.4.4|9=0302|35=AI|34=3|49=EXC|56=002|57=002B35|52=20190627-15:58:45.371|131=20190627-000000000020.00|117=201906251058141_S|453=4|448=DCV|447=C|452=10|448=001B27|447=C|452=12|448=001|447=C|452=1|448=002B35|447=C|452=37|55=TFIC13280425|762=RFQF|48=20626|22=M|54=1|634=3.000|135=500000000|62=20190830-22:00:00|297=16|10=028|
8=FIX.4.4|9=0515|35=8|34=4|49=EXC|56=002|57=002B35|52=20190627-15:59:04.628|11=201906251058141_S|17=8|37=0|150=F|1080=20190627-000000000020.00|1081=6|453=6|448=002B35|447=C|452=12|448=002|447=C|452=1|448=001B27|447=C|452=37|448=001|447=C|452=17|448=002FCM001|447=C|452=36|448=DCV|447=C|452=10|55=TFIC13280425|762=RFQF|48=20626|22=M|6=84.156|14=500000000|31=84.156|32=500000000|38=500000000|39=2|20102=84.156|54=2|60=20190627-15:59:04.628|75=20190627|63=1|64=20190627|151=0|1623=3.000|381=420781500.000|880=201906270000000008|828=99|10=122|
8=FIX.4.4|9=59|35=0|34=3|49=002|50=002B35|52=20190625-15:59:16.255|56=EXC|10=061|
8=FIX.4.4|9=0225|35=R|34=5|49=EXC|56=002|57=002B35|52=20190627-15:59:31.411|131=20190627-000000000021.00|146=1|55=TFIT16280428|762=RFQF|48=20399|22=M|54=1|38=500000000|453=3|448=001B27|447=C|452=12|448=001|447=C|452=1|448=002B35|447=C|452=37|10=043|
8=FIX.4.4|9=59|35=0|34=4|49=002|50=002B35|52=20190625-15:59:46.256|56=EXC|10=066|
8=FIX.4.4|9=219|35=S|34=5|49=002|50=002B35|52=20190625-15:59:57.029|56=EXC|55=TFIT16280428|62=20190830-22:00:00.000|117=201906251058142_S|131=20190627-000000000021.00|134=0|135=500000000|632=0|634=3|762=RFQF|453=1|448=DCV|447=C|452=10|10=154|
8=FIX.4.4|9=0302|35=AI|34=6|49=EXC|56=002|57=002B35|52=20190627-15:59:57.024|131=20190627-000000000021.00|117=201906251058142_S|453=4|448=DCV|447=C|452=10|448=001B27|447=C|452=12|448=001|447=C|452=1|448=002B35|447=C|452=37|55=TFIT16280428|762=RFQF|48=20399|22=M|54=1|634=3.000|135=500000000|62=20190830-22:00:00|297=16|10=062|
8=FIX.4.4|9=87|35=Z|34=6|49=002|50=002B35|52=20190625-16:00:16.526|56=EXC|117=201906251058142_S|298=5|10=252|
8=FIX.4.4|9=0287|35=AI|34=7|49=EXC|56=002|57=002B35|52=20190627-16:00:16.520|131=20190627-000000000021.00|117=201906251058142_S|298=5|453=4|448=DCV|447=C|452=10|448=001B27|447=C|452=12|448=001|447=C|452=1|448=002B35|447=C|452=37|55=TFIT16280428|762=RFQF|48=20399|22=M|54=1|634=3.000|135=500000000|297=17|10=079|
8=FIX.4.4|9=0225|35=R|34=8|49=EXC|56=002|57=002B35|52=20190627-16:00:35.263|131=20190627-000000000022.00|146=1|55=TFIT16300632|762=RFQF|48=20406|22=M|54=1|38=500000000|453=3|448=001B27|447=C|452=12|448=001|447=C|452=1|448=002B35|447=C|452=37|10=022|
8=FIX.4.4|9=59|35=0|34=7|49=002|50=002B35|52=20190625-16:00:47.255|56=EXC|10=056|
8=FIX.4.4|9=0217|35=R|34=9|49=EXC|56=002|57=002B35|52=20190627-16:01:00.912|131=20190627-000000000022.00|146=1|55=TFIT16300632|762=RFQF|48=20406|22=M|54=1|38=0|453=3|448=001B27|447=C|452=12|448=001|447=C|452=1|448=002B35|447=C|452=37|10=141|
8=FIX.4.4|9=59|35=0|34=8|49=002|50=002B35|52=20190625-16:01:17.256|56=EXC|10=056|
8=FIX.4.4|9=0050|35=0|34=10|49=EXC|56=002|52=20190627-16:01:30.000|10=201|
8=FIX.4.4|9=0227|35=R|34=11|49=EXC|56=002|57=002B35|52=20190627-16:01:40.242|131=20190627-000000000023.00|146=1|55=TFIT06110919|762=RFQF|48=20320|22=M|54=2|38=1000000000|453=3|448=001B27|447=C|452=12|448=001|447=C|452=1|448=002B35|447=C|452=37|10=107|
8=FIX.4.4|9=59|35=0|34=9|49=002|50=002B35|52=20190625-16:01:47.256|56=EXC|10=060|
8=FIX.4.4|9=221|35=S|34=10|49=002|50=002B35|52=20190625-16:02:01.397|56=EXC|55=TFIT06110919|62=20190830-22:00:00.000|117=201906251058145_S|131=20190627-000000000023.00|134=1000000000|135=0|632=2|634=0|762=RFQF|453=1|448=DCV|447=C|452=10|10=221|
8=FIX.4.4|9=0304|35=AI|34=12|49=EXC|56=002|57=002B35|52=20190627-16:02:01.391|131=20190627-000000000023.00|117=201906251058145_S|453=4|448=DCV|447=C|452=10|448=001B27|447=C|452=12|448=001|447=C|452=1|448=002B35|447=C|452=37|55=TFIT06110919|762=RFQF|48=20320|22=M|54=2|632=2.000|134=1000000000|62=20190830-22:00:00|297=16|10=120|
8=FIX.4.4|9=0523|35=8|34=13|49=EXC|56=002|57=002B35|52=20190627-16:02:20.054|11=201906251058145_S|17=9|37=0|150=F|1080=20190627-000000000023.00|1081=6|453=6|448=002B35|447=C|452=12|448=002|447=C|452=1|448=001B27|447=C|452=37|448=001|447=C|452=17|448=002FCM001|447=C|452=36|448=DCV|447=C|452=10|55=TFIT06110919|762=RFQF|48=20320|22=M|6=101.016|14=1000000000|31=101.016|32=1000000000|38=1000000000|39=2|20102=106.558|54=1|60=20190627-16:02:20.054|75=20190627|63=1|64=20190627|151=0|1623=2.000|381=1065585000.000|880=201906270000000009|828=99|10=188|
8=FIX.4.4|9=60|35=0|34=11|49=002|50=002B35|52=20190625-16:02:32.255|56=EXC|10=087|
8=FIX.4.4|9=0193|35=R|34=14|49=EXC|56=002|52=20190627-16:02:47.006|131=20190627-000000000024.00|146=1|55=TFIT15260826|762=RFQF|48=20348|22=M|54=1|38=1500000000|453=2|448=007B26|447=C|452=12|448=007|447=C|452=1|10=047|
8=FIX.4.4|9=60|35=0|34=12|49=002|50=002B35|52=20190625-16:03:02.255|56=EXC|10=086|
8=FIX.4.4|9=221|35=S|34=13|49=002|50=002B35|52=20190625-16:03:16.423|56=EXC|55=TFIT15260826|62=20190830-22:00:00.000|117=201906251058146_S|131=20190627-000000000024.00|134=0|135=1500000000|632=0|634=6|762=RFQF|453=1|448=DCV|447=C|452=10|10=235|
8=FIX.4.4|9=0304|35=AI|34=15|49=EXC|56=002|57=002B35|52=20190627-16:03:16.418|131=20190627-000000000024.00|117=201906251058146_S|453=4|448=DCV|447=C|452=10|448=007B26|447=C|452=12|448=007|447=C|452=1|448=002B35|447=C|452=37|55=TFIT15260826|762=RFQF|48=20348|22=M|54=1|634=6.000|135=1500000000|62=20190830-22:00:00|297=16|10=167|
8=FIX.4.4|9=0050|35=0|34=16|49=EXC|56=002|52=20190627-16:03:46.000|10=216|
8=FIX.4.4|9=60|35=0|34=14|49=002|50=002B35|52=20190625-16:03:47.255|56=EXC|10=097|
8=FIX.4.4|9=0524|35=8|34=17|49=EXC|56=002|57=002B35|52=20190627-16:03:55.449|11=201906251058146_S|17=10|37=0|150=F|1080=20190627-000000000024.00|1081=6|453=6|448=002B35|447=C|452=12|448=002|447=C|452=1|448=007B26|447=C|452=37|448=007|447=C|452=17|448=002FCM001|447=C|452=36|448=DCV|447=C|452=10|55=TFIT15260826|762=RFQF|48=20348|22=M|6=108.500|14=1500000000|31=108.500|32=1500000000|38=1500000000|39=2|20102=114.767|54=2|60=20190627-16:03:55.449|75=20190627|63=1|64=20190627|151=0|1623=6.000|381=1721506500.000|880=201906270000000010|828=99|10=057|
8=FIX.4.4|9=60|35=0|34=15|49=002|50=002B35|52=20190625-16:04:17.255|56=EXC|10=096|
8=FIX.4.4|9=0192|35=R|34=18|49=EXC|56=002|52=20190627-16:04:22.310|131=20190627-000000000025.00|146=1|55=TFIC14280426|762=RFQF|48=20602|22=M|54=1|38=500000000|453=2|448=001B27|447=C|452=12|448=001|447=C|452=1|10=213|
8=FIX.4.4|9=60|35=0|34=16|49=002|50=002B35|52=20190625-16:04:47.255|56=EXC|10=100|
8=FIX.4.4|9=0226|35=R|34=19|49=EXC|56=002|57=002B35|52=20190627-16:04:51.625|131=20190627-000000000026.00|146=1|55=TFIT16180930|762=RFQF|48=20355|22=M|54=1|38=500000000|453=3|448=001B27|447=C|452=12|448=001|447=C|452=1|448=002B35|447=C|452=37|10=091|
8=FIX.4.4|9=60|35=0|34=17|49=002|50=002B35|52=20190625-16:05:17.255|56=EXC|10=099|
8=FIX.4.4|9=0050|35=0|34=20|49=EXC|56=002|52=20190627-16:05:21.000|10=206|
8=FIX.4.4|9=0226|35=R|34=21|49=EXC|56=002|57=002B35|52=20190627-16:05:26.295|131=20190627-000000000027.00|146=1|55=TFIT16240724|762=RFQF|48=20392|22=M|54=2|38=500000000|453=3|448=007B26|447=C|452=12|448=007|447=C|452=1|448=002B35|447=C|452=37|10=102|
8=FIX.4.4|9=60|35=0|34=18|49=002|50=002B35|52=20190625-16:05:47.255|56=EXC|10=103|
8=FIX.4.4|9=216|35=S|34=19|49=002|50=002B35|52=20190625-16:05:47.478|56=EXC|55=TFIT16240724|62=20190830-22:00:00.000|117=2019062510581410_S|131=20190627-000000000027.00|134=1000|135=0|632=0|634=0|762=RFQF|453=1|448=DCV|447=C|452=10|10=004|
8=FIX.4.4|9=0275|35=AI|34=22|49=EXC|56=002|57=002B35|52=20190627-16:05:47.471|117=2019062510581410_S|453=1|448=DCV|447=C|452=10|55=TFIT16240724|762=RFQF|134=1000|135=0|62=20190830-22:00:00.000|297=9|300=99|58=(1160): Regla de negocio - La cantidad de la orden debe ser por lo menos 500000000|10=085|
8=FIX.4.4|9=60|35=5|34=20|49=002|50=002B35|52=20190625-16:06:06.255|56=EXC|10=097|
8=FIX.4.4|9=0050|35=5|34=23|49=EXC|56=002|52=20190627-16:06:06.248|10=232|
