<<<<<<< HEAD
8=FIX.4.4|9=110|35=A|34=1|49=010|50=010BWN|52=20190607-14:13:05.089|56=EXC|43=Y|98=0|108=30|141=Y|553=010FCE003|554=010FCE003|10=130|
8=FIX.4.4|9=0067|35=A|34=1|49=EXC|56=010|52=20190607-14:13:05.160|98=0|108=30|141=Y|10=255|
8=FIX.4.4|9=0192|35=R|34=2|49=EXC|56=010|52=20190607-14:13:07.262|131=20190607-000000000012.00|146=1|55=TFIT15260826|762=RFQF|48=20348|22=M|54=1|38=1500000000|453=2|448=001B27|447=C|452=12|448=001|447=C|452=1|10=232|
8=FIX.4.4|9=110|35=A|34=1|49=010|50=010BWN|52=20190607-15:35:43.298|56=EXC|43=Y|98=0|108=30|141=Y|553=010FCE003|554=010FCE003|10=139|
8=FIX.4.4|9=0067|35=A|34=1|49=EXC|56=010|52=20190607-15:35:43.381|98=0|108=30|141=Y|10=011|
8=FIX.4.4|9=110|35=A|34=1|49=010|50=010BWN|52=20190607-16:16:18.389|56=EXC|43=Y|98=0|108=30|141=Y|553=010FCE003|554=010FCE003|10=142|
8=FIX.4.4|9=0067|35=A|34=1|49=EXC|56=010|52=20190607-16:16:18.437|98=0|108=30|141=Y|10=015|
8=FIX.4.4|9=110|35=A|34=1|49=010|50=010BWN|52=20190607-16:39:55.220|56=EXC|43=Y|98=0|108=30|141=Y|553=010FCE003|554=010FCE003|10=132|
8=FIX.4.4|9=0067|35=A|34=1|49=EXC|56=010|52=20190607-16:39:55.280|98=0|108=30|141=Y|10=017|
8=FIX.4.4|9=110|35=A|34=1|49=010|50=010BWN|52=20190607-16:43:05.180|56=EXC|43=Y|98=0|108=30|141=Y|553=010FCE003|554=010FCE003|10=127|
8=FIX.4.4|9=0067|35=A|34=1|49=EXC|56=010|52=20190607-16:43:05.218|98=0|108=30|141=Y|10=008|
8=FIX.4.4|9=110|35=A|34=1|49=010|50=010BWN|52=20190607-16:44:16.363|56=EXC|43=Y|98=0|108=30|141=Y|553=010FCE003|554=010FCE003|10=133|
8=FIX.4.4|9=0067|35=A|34=1|49=EXC|56=010|52=20190607-16:44:16.381|98=0|108=30|141=Y|10=012|
8=FIX.4.4|9=110|35=A|34=1|49=010|50=010BWN|52=20190607-16:47:05.297|56=EXC|43=Y|98=0|108=30|141=Y|553=010FCE003|554=010FCE003|10=140|
8=FIX.4.4|9=0067|35=A|34=1|49=EXC|56=010|52=20190607-16:47:05.328|98=0|108=30|141=Y|10=014|
8=FIX.4.4|9=0192|35=R|34=2|49=EXC|56=010|52=20190607-16:47:07.473|131=20190607-000000000033.00|146=1|55=TFIT15260826|762=RFQF|48=20348|22=M|54=1|38=1500000000|453=2|448=007B26|447=C|452=12|448=007|447=C|452=1|10=003|
8=FIX.4.4|9=110|35=A|34=1|49=010|50=010BWN|52=20190607-16:53:12.367|56=EXC|43=Y|98=0|108=30|141=Y|553=010FCE003|554=010FCE003|10=133|
8=FIX.4.4|9=0067|35=A|34=1|49=EXC|56=010|52=20190607-16:53:12.382|98=0|108=30|141=Y|10=009|
8=FIX.4.4|9=110|35=A|34=1|49=010|50=010BWN|52=20190607-17:01:26.216|56=EXC|43=Y|98=0|108=30|141=Y|553=010FCE003|554=010FCE003|10=125|
8=FIX.4.4|9=0067|35=A|34=1|49=EXC|56=010|52=20190607-17:01:26.246|98=0|108=30|141=Y|10=007|
8=FIX.4.4|9=0192|35=R|34=2|49=EXC|56=010|52=20190607-17:01:28.235|131=20190607-000000000037.00|146=1|55=TFIT15260826|762=RFQF|48=20348|22=M|54=1|38=1500000000|453=2|448=007B26|447=C|452=12|448=007|447=C|452=1|10=253|
8=FIX.4.4|9=110|35=A|34=1|49=010|50=010BWN|52=20190607-17:05:59.361|56=EXC|43=Y|98=0|108=30|141=Y|553=010FCE003|554=010FCE003|10=136|
8=FIX.4.4|9=0067|35=A|34=1|49=EXC|56=010|52=20190607-17:05:59.392|98=0|108=30|141=Y|10=019|
=======
8=FIX.4.4|9=110|35=A|34=1|49=010|50=010BWN|52=20190607-12:29:13.426|56=EXC|43=Y|98=0|108=30|141=Y|553=010FCE003|554=010FCE003|10=129|
8=FIX.4.4|9=0067|35=A|34=1|49=EXC|56=010|52=20190607-12:29:14.891|98=0|108=30|141=Y|10=015|
8=FIX.4.4|9=110|35=A|34=1|49=010|50=010BWN|52=20190607-12:31:01.334|56=EXC|43=Y|98=0|108=30|141=Y|553=010FCE003|554=010FCE003|10=117|
8=FIX.4.4|9=0067|35=A|34=1|49=EXC|56=010|52=20190607-12:31:02.520|98=0|108=30|141=Y|10=250|
8=FIX.4.4|9=110|35=A|34=1|49=010|50=010BWN|52=20190607-12:37:18.534|56=EXC|43=Y|98=0|108=30|141=Y|553=010FCE003|554=010FCE003|10=133|
8=FIX.4.4|9=0067|35=A|34=1|49=EXC|56=010|52=20190607-12:37:18.952|98=0|108=30|141=Y|10=016|
8=FIX.4.4|9=0192|35=R|34=2|49=EXC|56=010|52=20190607-12:37:21.174|131=20190607-000000000001.00|146=1|55=TFIT15260826|762=RFQF|48=20348|22=M|54=1|38=1500000000|453=2|448=001B27|447=C|452=12|448=001|447=C|452=1|10=232|
8=FIX.4.4|9=110|35=A|34=1|49=010|50=010BWN|52=20190607-13:06:53.022|56=EXC|43=Y|98=0|108=30|141=Y|553=010FCE003|554=010FCE003|10=121|
8=FIX.4.4|9=0067|35=A|34=1|49=EXC|56=010|52=20190607-13:06:52.542|98=0|108=30|141=Y|10=006|
8=FIX.4.4|9=0192|35=R|34=2|49=EXC|56=010|52=20190607-13:06:54.725|131=20190607-000000000002.00|146=1|55=TFIT15260826|762=RFQF|48=20348|22=M|54=1|38=1500000000|453=2|448=001B27|447=C|452=12|448=001|447=C|452=1|10=238|
8=FIX.4.4|9=110|35=A|34=1|49=010|50=010BWN|52=20190607-13:41:37.982|56=EXC|43=Y|98=0|108=30|141=Y|553=010FCE003|554=010FCE003|10=137|
8=FIX.4.4|9=0067|35=A|34=1|49=EXC|56=010|52=20190607-13:41:37.544|98=0|108=30|141=Y|10=010|
8=FIX.4.4|9=110|35=A|34=1|49=010|50=010BWN|52=20190607-13:44:49.843|56=EXC|43=Y|98=0|108=30|141=Y|553=010FCE003|554=010FCE003|10=139|
8=FIX.4.4|9=0067|35=A|34=1|49=EXC|56=010|52=20190607-13:44:49.385|98=0|108=30|141=Y|10=019|
8=FIX.4.4|9=0192|35=R|34=2|49=EXC|56=010|52=20190607-13:44:51.624|131=20190607-000000000004.00|146=1|55=TFIT15260826|762=RFQF|48=20348|22=M|54=1|38=1500000000|453=2|448=001B27|447=C|452=12|448=001|447=C|452=1|10=237|
8=FIX.4.4|9=0192|35=R|34=3|49=EXC|56=010|52=20190607-13:44:52.353|131=20190607-000000000005.00|146=1|55=TFIT15260826|762=RFQF|48=20348|22=M|54=1|38=1500000000|453=2|448=001B27|447=C|452=12|448=001|447=C|452=1|10=239|
8=FIX.4.4|9=68|35=2|34=2|49=010|50=010BWN|52=20190607-13:44:52.867|56=EXC|7=2|16=0|10=246|
8=FIX.4.4|9=0223|35=R|34=2|43=Y|52=20190607-13:44:52.376|49=EXC|56=010|122=20190607-13:44:51.624|131=20190607-000000000004.00|146=1|55=TFIT15260826|762=RFQF|48=20348|22=M|54=1|38=1500000000|453=2|448=001B27|447=C|452=12|448=001|447=C|452=1|10=244|
8=FIX.4.4|9=0223|35=R|34=3|43=Y|52=20190607-13:44:52.376|49=EXC|56=010|122=20190607-13:44:52.353|131=20190607-000000000005.00|146=1|55=TFIT15260826|762=RFQF|48=20348|22=M|54=1|38=1500000000|453=2|448=001B27|447=C|452=12|448=001|447=C|452=1|10=246|
8=FIX.4.4|9=0054|35=4|34=4|49=EXC|56=010|52=20190607-13:44:52.376|36=5|10=149|
8=FIX.4.4|9=68|35=2|34=3|49=010|50=010BWN|52=20190607-13:44:52.949|56=EXC|7=2|16=0|10=248|
8=FIX.4.4|9=0223|35=R|34=2|43=Y|52=20190607-13:44:52.459|49=EXC|56=010|122=20190607-13:44:51.624|131=20190607-000000000004.00|146=1|55=TFIT15260826|762=RFQF|48=20348|22=M|54=1|38=1500000000|453=2|448=001B27|447=C|452=12|448=001|447=C|452=1|10=246|
8=FIX.4.4|9=0223|35=R|34=3|43=Y|52=20190607-13:44:52.459|49=EXC|56=010|122=20190607-13:44:52.353|131=20190607-000000000005.00|146=1|55=TFIT15260826|762=RFQF|48=20348|22=M|54=1|38=1500000000|453=2|448=001B27|447=C|452=12|448=001|447=C|452=1|10=248|
8=FIX.4.4|9=0065|35=4|34=4|43=Y|49=EXC|56=010|52=20190607-13:44:52.459|123=Y|36=5|10=196|
8=FIX.4.4|9=0054|35=4|34=5|49=EXC|56=010|52=20190607-13:44:52.460|36=6|10=145|
8=FIX.4.4|9=110|35=A|34=1|49=010|50=010BWN|52=20190607-14:07:59.762|56=EXC|43=Y|98=0|108=30|141=Y|553=010FCE003|554=010FCE003|10=140|
8=FIX.4.4|9=0067|35=A|34=1|49=EXC|56=010|52=20190607-14:07:59.477|98=0|108=30|141=Y|10=022|
8=FIX.4.4|9=0192|35=R|34=2|49=EXC|56=010|52=20190607-14:08:01.717|131=20190607-000000000007.00|146=1|55=TFIT15260826|762=RFQF|48=20348|22=M|54=1|38=1500000000|453=2|448=001B27|447=C|452=12|448=001|447=C|452=1|10=239|
8=FIX.4.4|9=0192|35=R|34=3|49=EXC|56=010|52=20190607-14:08:02.586|131=20190607-000000000008.00|146=1|55=TFIT15260826|762=RFQF|48=20348|22=M|54=1|38=1500000000|453=2|448=001B27|447=C|452=12|448=001|447=C|452=1|10=246|
8=FIX.4.4|9=68|35=2|34=2|49=010|50=010BWN|52=20190607-14:08:02.927|56=EXC|7=2|16=0|10=239|
8=FIX.4.4|9=0223|35=R|34=2|43=Y|52=20190607-14:08:02.612|49=EXC|56=010|122=20190607-14:08:01.717|131=20190607-000000000007.00|146=1|55=TFIT15260826|762=RFQF|48=20348|22=M|54=1|38=1500000000|453=2|448=001B27|447=C|452=12|448=001|447=C|452=1|10=235|
8=FIX.4.4|9=0223|35=R|34=3|43=Y|52=20190607-14:08:02.612|49=EXC|56=010|122=20190607-14:08:02.586|131=20190607-000000000008.00|146=1|55=TFIT15260826|762=RFQF|48=20348|22=M|54=1|38=1500000000|453=2|448=001B27|447=C|452=12|448=001|447=C|452=1|10=242|
8=FIX.4.4|9=0054|35=4|34=4|49=EXC|56=010|52=20190607-14:08:02.612|36=5|10=138|
8=FIX.4.4|9=68|35=2|34=3|49=010|50=010BWN|52=20190607-14:08:02.971|56=EXC|7=2|16=0|10=239|
8=FIX.4.4|9=0223|35=R|34=2|43=Y|52=20190607-14:08:02.655|49=EXC|56=010|122=20190607-14:08:01.717|131=20190607-000000000007.00|146=1|55=TFIT15260826|762=RFQF|48=20348|22=M|54=1|38=1500000000|453=2|448=001B27|447=C|452=12|448=001|447=C|452=1|10=242|
8=FIX.4.4|9=0223|35=R|34=3|43=Y|52=20190607-14:08:02.655|49=EXC|56=010|122=20190607-14:08:02.586|131=20190607-000000000008.00|146=1|55=TFIT15260826|762=RFQF|48=20348|22=M|54=1|38=1500000000|453=2|448=001B27|447=C|452=12|448=001|447=C|452=1|10=249|
8=FIX.4.4|9=0065|35=4|34=4|43=Y|49=EXC|56=010|52=20190607-14:08:02.655|123=Y|36=5|10=190|
8=FIX.4.4|9=0054|35=4|34=5|49=EXC|56=010|52=20190607-14:08:02.655|36=6|10=147|
8=FIX.4.4|9=0049|35=0|34=6|49=EXC|56=010|52=20190607-14:08:32.000|10=170|
8=FIX.4.4|9=59|35=0|34=4|49=010|50=010BWN|52=20190607-14:08:33.742|56=EXC|10=114|
8=FIX.4.4|9=0049|35=0|34=7|49=EXC|56=010|52=20190607-14:09:02.000|10=169|
8=FIX.4.4|9=59|35=0|34=5|49=010|50=010BWN|52=20190607-14:09:04.709|56=EXC|10=117|
8=FIX.4.4|9=0049|35=0|34=8|49=EXC|56=010|52=20190607-14:09:32.000|10=173|
8=FIX.4.4|9=59|35=0|34=6|49=010|50=010BWN|52=20190607-14:09:35.673|56=EXC|10=122|
8=FIX.4.4|9=0049|35=0|34=9|49=EXC|56=010|52=20190607-14:10:02.000|10=163|
8=FIX.4.4|9=59|35=0|34=7|49=010|50=010BWN|52=20190607-14:10:06.641|56=EXC|10=108|
8=FIX.4.4|9=110|35=A|34=1|49=010|50=010BWN|52=20190607-14:10:41.266|56=EXC|43=Y|98=0|108=30|141=Y|553=010FCE003|554=010FCE003|10=124|
8=FIX.4.4|9=0067|35=A|34=1|49=EXC|56=010|52=20190607-14:10:41.131|98=0|108=30|141=Y|10=250|
8=FIX.4.4|9=0192|35=R|34=2|49=EXC|56=010|52=20190607-14:10:43.320|131=20190607-000000000009.00|146=1|55=TFIT15260826|762=RFQF|48=20348|22=M|54=1|38=1500000000|453=2|448=001B27|447=C|452=12|448=001|447=C|452=1|10=230|
8=FIX.4.4|9=0192|35=R|34=3|49=EXC|56=010|52=20190607-14:10:44.022|131=20190607-000000000010.00|146=1|55=TFIT15260826|762=RFQF|48=20348|22=M|54=1|38=1500000000|453=2|448=001B27|447=C|452=12|448=001|447=C|452=1|10=223|
8=FIX.4.4|9=68|35=2|34=2|49=010|50=010BWN|52=20190607-14:10:44.205|56=EXC|7=2|16=0|10=227|
8=FIX.4.4|9=0223|35=R|34=2|43=Y|52=20190607-14:10:44.045|49=EXC|56=010|122=20190607-14:10:43.320|131=20190607-000000000009.00|146=1|55=TFIT15260826|762=RFQF|48=20348|22=M|54=1|38=1500000000|453=2|448=001B27|447=C|452=12|448=001|447=C|452=1|10=225|
8=FIX.4.4|9=0223|35=R|34=3|43=Y|52=20190607-14:10:44.045|49=EXC|56=010|122=20190607-14:10:44.022|131=20190607-000000000010.00|146=1|55=TFIT15260826|762=RFQF|48=20348|22=M|54=1|38=1500000000|453=2|448=001B27|447=C|452=12|448=001|447=C|452=1|10=218|
8=FIX.4.4|9=0054|35=4|34=4|49=EXC|56=010|52=20190607-14:10:44.045|36=5|10=137|
8=FIX.4.4|9=68|35=2|34=3|49=010|50=010BWN|52=20190607-14:10:44.275|56=EXC|7=2|16=0|10=235|
8=FIX.4.4|9=0223|35=R|34=2|43=Y|52=20190607-14:10:44.113|49=EXC|56=010|122=20190607-14:10:43.320|131=20190607-000000000009.00|146=1|55=TFIT15260826|762=RFQF|48=20348|22=M|54=1|38=1500000000|453=2|448=001B27|447=C|452=12|448=001|447=C|452=1|10=221|
8=FIX.4.4|9=0223|35=R|34=3|43=Y|52=20190607-14:10:44.113|49=EXC|56=010|122=20190607-14:10:44.022|131=20190607-000000000010.00|146=1|55=TFIT15260826|762=RFQF|48=20348|22=M|54=1|38=1500000000|453=2|448=001B27|447=C|452=12|448=001|447=C|452=1|10=214|
8=FIX.4.4|9=0065|35=4|34=4|43=Y|49=EXC|56=010|52=20190607-14:10:44.113|123=Y|36=5|10=178|
8=FIX.4.4|9=0054|35=4|34=5|49=EXC|56=010|52=20190607-14:10:44.114|36=6|10=136|
8=FIX.4.4|9=0049|35=0|34=6|49=EXC|56=010|52=20190607-14:11:14.000|10=164|
8=FIX.4.4|9=59|35=0|34=4|49=010|50=010BWN|52=20190607-14:11:15.214|56=EXC|10=102|
8=FIX.4.4|9=110|35=A|34=1|49=010|50=010BWN|52=20190607-14:22:14.187|56=EXC|43=Y|98=0|108=30|141=Y|553=010FCE003|554=010FCE003|10=129|
8=FIX.4.4|9=0067|35=A|34=1|49=EXC|56=010|52=20190607-14:22:14.468|98=0|108=30|141=Y|10=010|
8=FIX.4.4|9=0049|35=0|34=2|49=EXC|56=010|52=20190607-14:22:44.000|10=165|
8=FIX.4.4|9=59|35=0|34=2|49=010|50=010BWN|52=20190607-14:22:45.122|56=EXC|10=103|
8=FIX.4.4|9=110|35=A|34=1|49=010|50=010BWN|52=20190607-14:23:02.473|56=EXC|43=Y|98=0|108=30|141=Y|553=010FCE003|554=010FCE003|10=125|
8=FIX.4.4|9=0067|35=A|34=1|49=EXC|56=010|52=20190607-14:23:02.758|98=0|108=30|141=Y|10=010|
8=FIX.4.4|9=110|35=A|34=1|49=010|50=010BWN|52=20190607-14:23:31.631|56=EXC|43=Y|98=0|108=30|141=Y|553=010FCE003|554=010FCE003|10=123|
8=FIX.4.4|9=0067|35=A|34=1|49=EXC|56=010|52=20190607-14:23:31.950|98=0|108=30|141=Y|10=006|
8=FIX.4.4|9=0192|35=R|34=2|49=EXC|56=010|52=20190607-14:23:34.063|131=20190607-000000000016.00|146=1|55=TFIT15260826|762=RFQF|48=20348|22=M|54=1|38=1500000000|453=2|448=001B27|447=C|452=12|448=001|447=C|452=1|10=236|
8=FIX.4.4|9=59|35=0|34=2|49=010|50=010BWN|52=20190607-14:24:02.611|56=EXC|10=101|
8=FIX.4.4|9=0049|35=0|34=3|49=EXC|56=010|52=20190607-14:24:04.000|10=164|
8=FIX.4.4|9=68|35=2|34=3|49=010|50=010BWN|52=20190607-14:24:03.821|56=EXC|7=2|16=0|10=232|
8=FIX.4.4|9=0223|35=R|34=2|43=Y|52=20190607-14:24:04.051|49=EXC|56=010|122=20190607-14:23:34.063|131=20190607-000000000016.00|146=1|55=TFIT15260826|762=RFQF|48=20348|22=M|54=1|38=1500000000|453=2|448=001B27|447=C|452=12|448=001|447=C|452=1|10=229|
8=FIX.4.4|9=0065|35=4|34=3|43=Y|49=EXC|56=010|52=20190607-14:24:04.051|123=Y|36=4|10=178|
8=FIX.4.4|9=0054|35=4|34=4|49=EXC|56=010|52=20190607-14:24:04.051|36=5|10=135|
8=FIX.4.4|9=68|35=2|34=4|49=010|50=010BWN|52=20190607-14:24:08.856|56=EXC|7=2|16=0|10=246|
8=FIX.4.4|9=0223|35=R|34=2|43=Y|52=20190607-14:24:09.084|49=EXC|56=010|122=20190607-14:23:34.063|131=20190607-000000000016.00|146=1|55=TFIT15260826|762=RFQF|48=20348|22=M|54=1|38=1500000000|453=2|448=001B27|447=C|452=12|448=001|447=C|452=1|10=240|
8=FIX.4.4|9=0065|35=4|34=3|43=Y|49=EXC|56=010|52=20190607-14:24:09.084|123=Y|36=5|10=190|
8=FIX.4.4|9=0054|35=4|34=5|49=EXC|56=010|52=20190607-14:24:09.084|36=6|10=148|
8=FIX.4.4|9=0049|35=0|34=6|49=EXC|56=010|52=20190607-14:24:39.000|10=175|
8=FIX.4.4|9=59|35=0|34=5|49=010|50=010BWN|52=20190607-14:24:39.635|56=EXC|10=120|
8=FIX.4.4|9=110|35=A|34=1|49=010|50=010BWN|52=20190607-14:42:14.991|56=EXC|43=Y|98=0|108=30|141=Y|553=010FCE003|554=010FCE003|10=134|
8=FIX.4.4|9=0067|35=A|34=1|49=EXC|56=010|52=20190607-14:42:15.053|98=0|108=30|141=Y|10=003|
8=FIX.4.4|9=0192|35=R|34=2|49=EXC|56=010|52=20190607-14:42:17.288|131=20190607-000000000017.00|146=1|55=TFIT15260826|762=RFQF|48=20348|22=M|54=1|38=1500000000|453=2|448=001B27|447=C|452=12|448=001|447=C|452=1|10=248|
8=FIX.4.4|9=110|35=A|34=1|49=010|50=010BWN|52=20190607-14:45:47.468|56=EXC|43=Y|98=0|108=30|141=Y|553=010FCE003|554=010FCE003|10=142|
8=FIX.4.4|9=0067|35=A|34=1|49=EXC|56=010|52=20190607-14:45:47.532|98=0|108=30|141=Y|10=013|
8=FIX.4.4|9=0192|35=R|34=2|49=EXC|56=010|52=20190607-14:45:49.663|131=20190607-000000000018.00|146=1|55=TFIT15260826|762=RFQF|48=20348|22=M|54=1|38=1500000000|453=2|448=001B27|447=C|452=12|448=001|447=C|452=1|10=254|
8=FIX.4.4|9=59|35=0|34=2|49=010|50=010BWN|52=20190607-14:46:18.450|56=EXC|10=113|
8=FIX.4.4|9=0049|35=0|34=3|49=EXC|56=010|52=20190607-14:46:19.000|10=174|
8=FIX.4.4|9=68|35=2|34=3|49=010|50=010BWN|52=20190607-14:46:18.990|56=EXC|7=2|16=0|10=249|
8=FIX.4.4|9=0223|35=R|34=2|43=Y|52=20190607-14:46:19.021|49=EXC|56=010|122=20190607-14:45:49.663|131=20190607-000000000018.00|146=1|55=TFIT15260826|762=RFQF|48=20348|22=M|54=1|38=1500000000|453=2|448=001B27|447=C|452=12|448=001|447=C|452=1|10=254|
8=FIX.4.4|9=0065|35=4|34=3|43=Y|49=EXC|56=010|52=20190607-14:46:19.021|123=Y|36=4|10=185|
8=FIX.4.4|9=0054|35=4|34=4|49=EXC|56=010|52=20190607-14:46:19.021|36=5|10=142|
8=FIX.4.4|9=68|35=2|34=4|49=010|50=010BWN|52=20190607-14:46:24.068|56=EXC|7=2|16=0|10=243|
8=FIX.4.4|9=0223|35=R|34=2|43=Y|52=20190607-14:46:24.098|49=EXC|56=010|122=20190607-14:45:49.663|131=20190607-000000000018.00|146=1|55=TFIT15260826|762=RFQF|48=20348|22=M|54=1|38=1500000000|453=2|448=001B27|447=C|452=12|448=001|447=C|452=1|10=008|
8=FIX.4.4|9=0065|35=4|34=3|43=Y|49=EXC|56=010|52=20190607-14:46:24.098|123=Y|36=5|10=196|
8=FIX.4.4|9=0054|35=4|34=5|49=EXC|56=010|52=20190607-14:46:24.098|36=6|10=154|
8=FIX.4.4|9=0049|35=0|34=6|49=EXC|56=010|52=20190607-14:46:54.000|10=176|
8=FIX.4.4|9=59|35=0|34=5|49=010|50=010BWN|52=20190607-14:46:54.454|56=EXC|10=120|
8=FIX.4.4|9=110|35=A|34=1|49=010|50=010BWN|52=20190607-14:51:26.081|56=EXC|43=Y|98=0|108=30|141=Y|553=010FCE003|554=010FCE003|10=127|
8=FIX.4.4|9=0067|35=A|34=1|49=EXC|56=010|52=20190607-14:51:26.140|98=0|108=30|141=Y|10=002|
8=FIX.4.4|9=110|35=A|34=1|49=010|50=010BWN|52=20190607-14:54:10.039|56=EXC|43=Y|98=0|108=30|141=Y|553=010FCE003|554=010FCE003|10=126|
8=FIX.4.4|9=0067|35=A|34=1|49=EXC|56=010|52=20190607-14:54:10.099|98=0|108=30|141=Y|10=011|
8=FIX.4.4|9=0192|35=R|34=2|49=EXC|56=010|52=20190607-14:54:12.262|131=20190607-000000000020.00|146=1|55=TFIT15260826|762=RFQF|48=20348|22=M|54=1|38=1500000000|453=2|448=001B27|447=C|452=12|448=001|447=C|452=1|10=232|
8=FIX.4.4|9=110|35=A|34=1|49=010|50=010BWN|52=20190607-14:55:37.665|56=EXC|43=Y|98=0|108=30|141=Y|553=010FCE003|554=010FCE003|10=141|
8=FIX.4.4|9=0067|35=A|34=1|49=EXC|56=010|52=20190607-14:55:37.728|98=0|108=30|141=Y|10=020|
8=FIX.4.4|9=0049|35=0|34=2|49=EXC|56=010|52=20190607-14:56:07.000|10=171|
8=FIX.4.4|9=59|35=0|34=2|49=010|50=010BWN|52=20190607-14:56:07.660|56=EXC|10=115|
8=FIX.4.4|9=110|35=A|34=1|49=010|50=010BWN|52=20190607-14:57:52.649|56=EXC|43=Y|98=0|108=30|141=Y|553=010FCE003|554=010FCE003|10=142|
8=FIX.4.4|9=0067|35=A|34=1|49=EXC|56=010|52=20190607-14:57:52.708|98=0|108=30|141=Y|10=017|
8=FIX.4.4|9=0192|35=R|34=2|49=EXC|56=010|52=20190607-14:57:54.873|131=20190607-000000000022.00|146=1|55=TFIT15260826|762=RFQF|48=20348|22=M|54=1|38=1500000000|453=2|448=001B27|447=C|452=12|448=001|447=C|452=1|10=251|
8=FIX.4.4|9=59|35=0|34=2|49=010|50=010BWN|52=20190607-14:58:23.635|56=EXC|10=117|
8=FIX.4.4|9=0049|35=0|34=3|49=EXC|56=010|52=20190607-14:58:24.000|10=173|
8=FIX.4.4|9=68|35=2|34=3|49=010|50=010BWN|52=20190607-14:58:23.991|56=EXC|7=2|16=0|10=249|
8=FIX.4.4|9=0223|35=R|34=2|43=Y|52=20190607-14:58:24.019|49=EXC|56=010|122=20190607-14:57:54.873|131=20190607-000000000022.00|146=1|55=TFIT15260826|762=RFQF|48=20348|22=M|54=1|38=1500000000|453=2|448=001B27|447=C|452=12|448=001|447=C|452=1|10=001|
8=FIX.4.4|9=0065|35=4|34=3|43=Y|49=EXC|56=010|52=20190607-14:58:24.019|123=Y|36=4|10=191|
8=FIX.4.4|9=0054|35=4|34=4|49=EXC|56=010|52=20190607-14:58:24.019|36=5|10=148|
8=FIX.4.4|9=68|35=2|34=4|49=010|50=010BWN|52=20190607-14:58:29.069|56=EXC|7=2|16=0|10=252|
8=FIX.4.4|9=0223|35=R|34=2|43=Y|52=20190607-14:58:29.098|49=EXC|56=010|122=20190607-14:57:54.873|131=20190607-000000000022.00|146=1|55=TFIT15260826|762=RFQF|48=20348|22=M|54=1|38=1500000000|453=2|448=001B27|447=C|452=12|448=001|447=C|452=1|10=013|
8=FIX.4.4|9=0065|35=4|34=3|43=Y|49=EXC|56=010|52=20190607-14:58:29.098|123=Y|36=5|10=204|
8=FIX.4.4|9=0054|35=4|34=5|49=EXC|56=010|52=20190607-14:58:29.098|36=6|10=162|
8=FIX.4.4|9=0049|35=0|34=6|49=EXC|56=010|52=20190607-14:58:59.000|10=184|
8=FIX.4.4|9=59|35=0|34=5|49=010|50=010BWN|52=20190607-14:58:59.635|56=EXC|10=129|
8=FIX.4.4|9=0049|35=0|34=7|49=EXC|56=010|52=20190607-14:59:29.000|10=183|
8=FIX.4.4|9=59|35=0|34=6|49=010|50=010BWN|52=20190607-14:59:29.633|56=EXC|10=126|
8=FIX.4.4|9=0049|35=0|34=8|49=EXC|56=010|52=20190607-14:59:59.000|10=187|
8=FIX.4.4|9=59|35=0|34=7|49=010|50=010BWN|52=20190607-14:59:59.636|56=EXC|10=133|
8=FIX.4.4|9=0049|35=0|34=9|49=EXC|56=010|52=20190607-15:00:29.000|10=172|
8=FIX.4.4|9=59|35=0|34=8|49=010|50=010BWN|52=20190607-15:00:29.634|56=EXC|10=116|
8=FIX.4.4|9=0050|35=0|34=10|49=EXC|56=010|52=20190607-15:00:59.000|10=207|
8=FIX.4.4|9=59|35=0|34=9|49=010|50=010BWN|52=20190607-15:00:59.635|56=EXC|10=121|
8=FIX.4.4|9=0050|35=0|34=11|49=EXC|56=010|52=20190607-15:01:29.000|10=206|
8=FIX.4.4|9=60|35=0|34=10|49=010|50=010BWN|52=20190607-15:01:29.636|56=EXC|10=152|
8=FIX.4.4|9=0050|35=0|34=12|49=EXC|56=010|52=20190607-15:01:59.000|10=210|
8=FIX.4.4|9=60|35=0|34=11|49=010|50=010BWN|52=20190607-15:01:59.635|56=EXC|10=155|
8=FIX.4.4|9=0050|35=0|34=13|49=EXC|56=010|52=20190607-15:02:29.000|10=209|
8=FIX.4.4|9=60|35=0|34=12|49=010|50=010BWN|52=20190607-15:02:29.635|56=EXC|10=154|
8=FIX.4.4|9=0050|35=0|34=14|49=EXC|56=010|52=20190607-15:02:59.000|10=213|
8=FIX.4.4|9=60|35=0|34=13|49=010|50=010BWN|52=20190607-15:02:59.636|56=EXC|10=159|
8=FIX.4.4|9=0050|35=0|34=15|49=EXC|56=010|52=20190607-15:03:29.000|10=212|
8=FIX.4.4|9=60|35=0|34=14|49=010|50=010BWN|52=20190607-15:03:29.635|56=EXC|10=157|
8=FIX.4.4|9=0050|35=0|34=16|49=EXC|56=010|52=20190607-15:03:59.000|10=216|
8=FIX.4.4|9=60|35=0|34=15|49=010|50=010BWN|52=20190607-15:03:59.635|56=EXC|10=161|
>>>>>>> 069492ed1c47821f77e483ed6a9d34242fbb67bb
8=FIX.4.4|9=110|35=A|34=1|49=010|50=010BWN|52=20190607-19:00:29.630|56=EXC|43=Y|98=0|108=30|141=Y|553=010FCE003|554=010FCE003|10=129|
8=FIX.4.4|9=0067|35=A|34=1|49=EXC|56=010|52=20190607-19:00:29.671|98=0|108=30|141=Y|10=013|
8=FIX.4.4|9=0049|35=0|34=2|49=EXC|56=010|52=20190607-19:00:59.000|10=172|
8=FIX.4.4|9=59|35=0|34=2|49=010|50=010BWN|52=20190607-19:01:00.536|56=EXC|10=105|
8=FIX.4.4|9=0049|35=0|34=3|49=EXC|56=010|52=20190607-19:01:29.000|10=171|
8=FIX.4.4|9=59|35=0|34=3|49=010|50=010BWN|52=20190607-19:01:30.539|56=EXC|10=112|
8=FIX.4.4|9=110|35=A|34=1|49=010|50=010BWN|52=20190607-19:04:04.158|56=EXC|43=Y|98=0|108=30|141=Y|553=010FCE003|554=010FCE003|10=131|
8=FIX.4.4|9=0067|35=A|34=1|49=EXC|56=010|52=20190607-19:04:04.239|98=0|108=30|141=Y|10=010|
8=FIX.4.4|9=0192|35=R|34=2|49=EXC|56=010|52=20190607-19:04:06.230|131=20190607-000000000040.00|146=1|55=TFIT15260826|762=RFQF|48=20348|22=M|54=1|38=1500000000|453=2|448=007B26|447=C|452=12|448=007|447=C|452=1|10=243|
8=FIX.4.4|9=59|35=0|34=2|49=010|50=010BWN|52=20190607-19:04:34.930|56=EXC|10=113|
8=FIX.4.4|9=0049|35=0|34=3|49=EXC|56=010|52=20190607-19:04:36.000|10=172|
8=FIX.4.4|9=68|35=2|34=3|49=010|50=010BWN|52=20190607-19:04:36.042|56=EXC|7=2|16=0|10=236|
8=FIX.4.4|9=0223|35=R|34=2|43=Y|52=20190607-19:04:36.043|49=EXC|56=010|122=20190607-19:04:06.230|131=20190607-000000000040.00|146=1|55=TFIT15260826|762=RFQF|48=20348|22=M|54=1|38=1500000000|453=2|448=007B26|447=C|452=12|448=007|447=C|452=1|10=245|
8=FIX.4.4|9=0065|35=4|34=3|43=Y|49=EXC|56=010|52=20190607-19:04:36.043|123=Y|36=4|10=187|
8=FIX.4.4|9=0054|35=4|34=4|49=EXC|56=010|52=20190607-19:04:36.043|36=5|10=144|
8=FIX.4.4|9=68|35=2|34=4|49=010|50=010BWN|52=20190607-19:04:41.293|56=EXC|7=2|16=0|10=241|
8=FIX.4.4|9=0223|35=R|34=2|43=Y|52=20190607-19:04:41.281|49=EXC|56=010|122=20190607-19:04:06.230|131=20190607-000000000040.00|146=1|55=TFIT15260826|762=RFQF|48=20348|22=M|54=1|38=1500000000|453=2|448=007B26|447=C|452=12|448=007|447=C|452=1|10=245|
8=FIX.4.4|9=0065|35=4|34=3|43=Y|49=EXC|56=010|52=20190607-19:04:41.281|123=Y|36=5|10=188|
8=FIX.4.4|9=0054|35=4|34=5|49=EXC|56=010|52=20190607-19:04:41.281|36=6|10=146|
8=FIX.4.4|9=110|35=A|34=1|49=010|50=010BWN|52=20190607-19:05:53.442|56=EXC|43=Y|98=0|108=30|141=Y|553=010FCE003|554=010FCE003|10=132|
8=FIX.4.4|9=0067|35=A|34=1|49=EXC|56=010|52=20190607-19:05:53.547|98=0|108=30|141=Y|10=017|
8=FIX.4.4|9=0192|35=R|34=2|49=EXC|56=010|52=20190607-19:05:55.555|131=20190607-000000000041.00|146=1|55=TFIT15260826|762=RFQF|48=20348|22=M|54=1|38=1500000000|453=2|448=007B26|447=C|452=12|448=007|447=C|452=1|10=003|
8=FIX.4.4|9=110|35=A|34=1|49=010|50=010BWN|52=20190607-19:13:31.876|56=EXC|43=Y|98=0|108=30|141=Y|553=010FCE003|554=010FCE003|10=138|
8=FIX.4.4|9=0067|35=A|34=1|49=EXC|56=010|52=20190607-19:13:31.935|98=0|108=30|141=Y|10=013|
8=FIX.4.4|9=0192|35=R|34=2|49=EXC|56=010|52=20190607-19:13:34.145|131=20190607-000000000042.00|146=1|55=TFIT15260826|762=RFQF|48=20348|22=M|54=1|38=1500000000|453=2|448=007B26|447=C|452=12|448=007|447=C|452=1|10=251|
8=FIX.4.4|9=110|35=A|34=1|49=010|50=010BWN|52=20190607-19:21:05.947|56=EXC|43=Y|98=0|108=30|141=Y|553=010FCE003|554=010FCE003|10=137|
8=FIX.4.4|9=0067|35=A|34=1|49=EXC|56=010|52=20190607-19:21:06.016|98=0|108=30|141=Y|10=004|
8=FIX.4.4|9=0192|35=R|34=2|49=EXC|56=010|52=20190607-19:21:08.256|131=20190607-000000000043.00|146=1|55=TFIT15260826|762=RFQF|48=20348|22=M|54=1|38=1500000000|453=2|448=007B26|447=C|452=12|448=007|447=C|452=1|10=255|
8=FIX.4.4|9=110|35=A|34=1|49=010|50=010BWN|52=20190607-19:21:31.193|56=EXC|43=Y|98=0|108=30|141=Y|553=010FCE003|554=010FCE003|10=129|
8=FIX.4.4|9=0067|35=A|34=1|49=EXC|56=010|52=20190607-19:21:31.267|98=0|108=30|141=Y|10=010|
8=FIX.4.4|9=0192|35=R|34=2|49=EXC|56=010|52=20190607-19:21:32.086|131=20190607-000000000044.00|146=1|55=TFIT15260826|762=RFQF|48=20348|22=M|54=1|38=1500000000|453=2|448=007B26|447=C|452=12|448=007|447=C|452=1|10=254|
8=FIX.4.4|9=110|35=A|34=1|49=010|50=010BWN|52=20190607-19:27:53.766|56=EXC|43=Y|98=0|108=30|141=Y|553=010FCE003|554=010FCE003|10=145|
8=FIX.4.4|9=0067|35=A|34=1|49=EXC|56=010|52=20190607-19:27:55.095|98=0|108=30|141=Y|10=021|
8=FIX.4.4|9=0192|35=R|34=2|49=EXC|56=010|52=20190607-19:27:55.378|131=20190607-000000000047.00|146=1|55=TFIT15260826|762=RFQF|48=20348|22=M|54=1|38=1500000000|453=2|448=007B26|447=C|452=12|448=007|447=C|452=1|10=016|
8=FIX.4.4|9=110|35=A|34=1|49=010|50=010BWN|52=20190607-19:28:55.608|56=EXC|43=Y|98=0|108=30|141=Y|553=010FCE003|554=010FCE003|10=143|
8=FIX.4.4|9=0067|35=A|34=1|49=EXC|56=010|52=20190607-19:28:56.398|98=0|108=30|141=Y|10=029|
8=FIX.4.4|9=0192|35=R|34=2|49=EXC|56=010|52=20190607-19:28:58.241|131=20190607-000000000048.00|146=1|55=TFIT15260826|762=RFQF|48=20348|22=M|54=1|38=1500000000|453=2|448=007B26|447=C|452=12|448=007|447=C|452=1|10=010|
8=FIX.4.4|9=110|35=A|34=1|49=010|50=010BWN|52=20190607-19:29:59.936|56=EXC|43=Y|98=0|108=30|141=Y|553=010FCE003|554=010FCE003|10=152|
8=FIX.4.4|9=0067|35=A|34=1|49=EXC|56=010|52=20190607-19:29:59.991|98=0|108=30|141=Y|10=032|
8=FIX.4.4|9=0192|35=R|34=2|49=EXC|56=010|52=20190607-19:30:02.019|131=20190607-000000000049.00|146=1|55=TFIT15260826|762=RFQF|48=20348|22=M|54=1|38=1500000000|453=2|448=007B26|447=C|452=12|448=007|447=C|452=1|10=252|
8=FIX.4.4|9=59|35=0|34=2|49=010|50=010BWN|52=20190607-19:30:30.608|56=EXC|10=110|
8=FIX.4.4|9=0049|35=0|34=3|49=EXC|56=010|52=20190607-19:30:32.000|10=167|
8=FIX.4.4|9=68|35=2|34=3|49=010|50=010BWN|52=20190607-19:30:36.439|56=EXC|7=2|16=0|10=245|
8=FIX.4.4|9=0223|35=R|34=2|43=Y|52=20190607-19:30:36.420|49=EXC|56=010|122=20190607-19:30:02.019|131=20190607-000000000049.00|146=1|55=TFIT15260826|762=RFQF|48=20348|22=M|54=1|38=1500000000|453=2|448=007B26|447=C|452=12|448=007|447=C|452=1|10=252|
8=FIX.4.4|9=0065|35=4|34=3|43=Y|49=EXC|56=010|52=20190607-19:30:36.420|123=Y|36=4|10=185|
8=FIX.4.4|9=0054|35=4|34=4|49=EXC|56=010|52=20190607-19:30:36.420|36=5|10=142|
8=FIX.4.4|9=0049|35=0|34=5|49=EXC|56=010|52=20190607-19:31:06.000|10=171|
8=FIX.4.4|9=59|35=0|34=4|49=010|50=010BWN|52=20190607-19:31:06.621|56=EXC|10=111|
8=FIX.4.4|9=110|35=A|34=1|49=010|50=010BWN|52=20190607-19:33:18.803|56=EXC|43=Y|98=0|108=30|141=Y|553=010FCE003|554=010FCE003|10=135|
8=FIX.4.4|9=0067|35=A|34=1|49=EXC|56=010|52=20190607-19:33:19.243|98=0|108=30|141=Y|10=013|
8=FIX.4.4|9=0192|35=R|34=2|49=EXC|56=010|52=20190607-19:33:21.739|131=20190607-000000000050.00|146=1|55=TFIT15260826|762=RFQF|48=20348|22=M|54=1|38=1500000000|453=2|448=007B26|447=C|452=12|448=007|447=C|452=1|10=001|
8=FIX.4.4|9=59|35=0|34=2|49=010|50=010BWN|52=20190607-19:33:49.207|56=EXC|10=118|
8=FIX.4.4|9=0049|35=0|34=3|49=EXC|56=010|52=20190607-19:33:51.000|10=171|
8=FIX.4.4|9=68|35=2|34=3|49=010|50=010BWN|52=20190607-19:33:51.154|56=EXC|7=2|16=0|10=239|
8=FIX.4.4|9=0223|35=R|34=2|43=Y|52=20190607-19:33:51.135|49=EXC|56=010|122=20190607-19:33:21.739|131=20190607-000000000050.00|146=1|55=TFIT15260826|762=RFQF|48=20348|22=M|54=1|38=1500000000|453=2|448=007B26|447=C|452=12|448=007|447=C|452=1|10=004|
8=FIX.4.4|9=0065|35=4|34=3|43=Y|49=EXC|56=010|52=20190607-19:33:51.135|123=Y|36=4|10=188|
8=FIX.4.4|9=0054|35=4|34=4|49=EXC|56=010|52=20190607-19:33:51.135|36=5|10=145|
8=FIX.4.4|9=68|35=2|34=4|49=010|50=010BWN|52=20190607-19:33:56.287|56=EXC|7=2|16=0|10=252|
8=FIX.4.4|9=0223|35=R|34=2|43=Y|52=20190607-19:33:56.262|49=EXC|56=010|122=20190607-19:33:21.739|131=20190607-000000000050.00|146=1|55=TFIT15260826|762=RFQF|48=20348|22=M|54=1|38=1500000000|453=2|448=007B26|447=C|452=12|448=007|447=C|452=1|10=010|
8=FIX.4.4|9=0065|35=4|34=3|43=Y|49=EXC|56=010|52=20190607-19:33:56.262|123=Y|36=5|10=195|
8=FIX.4.4|9=0054|35=4|34=5|49=EXC|56=010|52=20190607-19:33:56.262|36=6|10=153|
8=FIX.4.4|9=110|35=A|34=1|49=010|50=010BWN|52=20190607-19:44:06.094|56=EXC|43=Y|98=0|108=30|141=Y|553=010FCE003|554=010FCE003|10=136|
8=FIX.4.4|9=0067|35=A|34=1|49=EXC|56=010|52=20190607-19:44:06.259|98=0|108=30|141=Y|10=018|
8=FIX.4.4|9=0192|35=R|34=2|49=EXC|56=010|52=20190607-19:44:08.040|131=20190607-000000000052.00|146=1|55=TFIT15260826|762=RFQF|48=20348|22=M|54=1|38=1500000000|453=2|448=007B26|447=C|452=12|448=007|447=C|452=1|10=251|
8=FIX.4.4|9=110|35=A|34=1|49=010|50=010BWN|52=20190607-19:45:08.225|56=EXC|43=Y|98=0|108=30|141=Y|553=010FCE003|554=010FCE003|10=135|
8=FIX.4.4|9=0067|35=A|34=1|49=EXC|56=010|52=20190607-19:45:08.328|98=0|108=30|141=Y|10=018|
8=FIX.4.4|9=0192|35=R|34=2|49=EXC|56=010|52=20190607-19:45:10.437|131=20190607-000000000054.00|146=1|55=TFIT15260826|762=RFQF|48=20348|22=M|54=1|38=1500000000|453=2|448=007B26|447=C|452=12|448=007|447=C|452=1|10=001|
8=FIX.4.4|9=110|35=A|34=1|49=010|50=010BWN|52=20190607-19:54:07.137|56=EXC|43=Y|98=0|108=30|141=Y|553=010FCE003|554=010FCE003|10=136|
8=FIX.4.4|9=0067|35=A|34=1|49=EXC|56=010|52=20190607-19:54:07.152|98=0|108=30|141=Y|10=012|
8=FIX.4.4|9=0192|35=R|34=2|49=EXC|56=010|52=20190607-19:54:09.196|131=20190607-000000000056.00|146=1|55=TFIT15260826|762=RFQF|48=20348|22=M|54=1|38=1500000000|453=2|448=007B26|447=C|452=12|448=007|447=C|452=1|10=013|
8=FIX.4.4|9=110|35=A|34=1|49=010|50=010BWN|52=20190607-20:00:37.108|56=EXC|43=Y|98=0|108=30|141=Y|553=010FCE003|554=010FCE003|10=120|
8=FIX.4.4|9=0067|35=A|34=1|49=EXC|56=010|52=20190607-20:00:37.117|98=0|108=30|141=Y|10=255|
8=FIX.4.4|9=0192|35=R|34=2|49=EXC|56=010|52=20190607-20:00:39.139|131=20190607-000000000058.00|146=1|55=TFIT15260826|762=RFQF|48=20348|22=M|54=1|38=1500000000|453=2|448=007B26|447=C|452=12|448=007|447=C|452=1|10=254|
8=FIX.4.4|9=59|35=0|34=2|49=010|50=010BWN|52=20190607-20:01:07.908|56=EXC|10=107|
8=FIX.4.4|9=0049|35=0|34=3|49=EXC|56=010|52=20190607-20:01:09.000|10=161|
8=FIX.4.4|9=68|35=2|34=3|49=010|50=010BWN|52=20190607-20:01:09.063|56=EXC|7=2|16=0|10=228|
8=FIX.4.4|9=0223|35=R|34=2|43=Y|52=20190607-20:01:09.023|49=EXC|56=010|122=20190607-20:00:39.139|131=20190607-000000000058.00|146=1|55=TFIT15260826|762=RFQF|48=20348|22=M|54=1|38=1500000000|453=2|448=007B26|447=C|452=12|448=007|447=C|452=1|10=243|
8=FIX.4.4|9=0065|35=4|34=3|43=Y|49=EXC|56=010|52=20190607-20:01:09.023|123=Y|36=4|10=174|
8=FIX.4.4|9=0054|35=4|34=4|49=EXC|56=010|52=20190607-20:01:09.024|36=5|10=132|
8=FIX.4.4|9=68|35=2|34=4|49=010|50=010BWN|52=20190607-20:01:14.119|56=EXC|7=2|16=0|10=227|
8=FIX.4.4|9=0223|35=R|34=2|43=Y|52=20190607-20:01:14.083|49=EXC|56=010|122=20190607-20:00:39.139|131=20190607-000000000058.00|146=1|55=TFIT15260826|762=RFQF|48=20348|22=M|54=1|38=1500000000|453=2|448=007B26|447=C|452=12|448=007|447=C|452=1|10=245|
8=FIX.4.4|9=0065|35=4|34=3|43=Y|49=EXC|56=010|52=20190607-20:01:14.083|123=Y|36=5|10=177|
8=FIX.4.4|9=0054|35=4|34=5|49=EXC|56=010|52=20190607-20:01:14.083|36=6|10=135|
8=FIX.4.4|9=110|35=A|34=1|49=010|50=010BWN|52=20190607-20:04:04.728|56=EXC|43=Y|98=0|108=30|141=Y|553=010FCE003|554=010FCE003|10=126|
8=FIX.4.4|9=0067|35=A|34=1|49=EXC|56=010|52=20190607-20:04:04.856|98=0|108=30|141=Y|10=007|
8=FIX.4.4|9=0192|35=R|34=2|49=EXC|56=010|52=20190607-20:04:06.698|131=20190607-000000000060.00|146=1|55=TFIT15260826|762=RFQF|48=20348|22=M|54=1|38=1500000000|453=2|448=007B26|447=C|452=12|448=007|447=C|452=1|10=255|
8=FIX.4.4|9=59|35=0|34=2|49=010|50=010BWN|52=20190607-20:04:35.308|56=EXC|10=105|
8=FIX.4.4|9=0049|35=0|34=3|49=EXC|56=010|52=20190607-20:04:36.000|10=164|
8=FIX.4.4|9=68|35=2|34=3|49=010|50=010BWN|52=20190607-20:04:36.132|56=EXC|7=2|16=0|10=228|
8=FIX.4.4|9=0223|35=R|34=2|43=Y|52=20190607-20:04:36.101|49=EXC|56=010|122=20190607-20:04:06.698|131=20190607-000000000060.00|146=1|55=TFIT15260826|762=RFQF|48=20348|22=M|54=1|38=1500000000|453=2|448=007B26|447=C|452=12|448=007|447=C|452=1|10=244|
8=FIX.4.4|9=0065|35=4|34=3|43=Y|49=EXC|56=010|52=20190607-20:04:36.101|123=Y|36=4|10=174|
8=FIX.4.4|9=0054|35=4|34=4|49=EXC|56=010|52=20190607-20:04:36.101|36=5|10=131|
8=FIX.4.4|9=68|35=2|34=4|49=010|50=010BWN|52=20190607-20:04:41.371|56=EXC|7=2|16=0|10=230|
8=FIX.4.4|9=0223|35=R|34=2|43=Y|52=20190607-20:04:41.329|49=EXC|56=010|122=20190607-20:04:06.698|131=20190607-000000000060.00|146=1|55=TFIT15260826|762=RFQF|48=20348|22=M|54=1|38=1500000000|453=2|448=007B26|447=C|452=12|448=007|447=C|452=1|10=252|
8=FIX.4.4|9=0065|35=4|34=3|43=Y|49=EXC|56=010|52=20190607-20:04:41.329|123=Y|36=5|10=183|
8=FIX.4.4|9=0054|35=4|34=5|49=EXC|56=010|52=20190607-20:04:41.330|36=6|10=133|
8=FIX.4.4|9=110|35=A|34=1|49=010|50=010BWN|52=20190607-20:05:23.072|56=EXC|43=Y|98=0|108=30|141=Y|553=010FCE003|554=010FCE003|10=120|
8=FIX.4.4|9=0067|35=A|34=1|49=EXC|56=010|52=20190607-20:05:24.208|98=0|108=30|141=Y|10=001|
8=FIX.4.4|9=0192|35=R|34=2|49=EXC|56=010|52=20190607-20:05:25.785|131=20190607-000000000061.00|146=1|55=TFIT15260826|762=RFQF|48=20348|22=M|54=1|38=1500000000|453=2|448=007B26|447=C|452=12|448=007|447=C|452=1|10=255|
8=FIX.4.4|9=110|35=A|34=1|49=010|50=010BWN|52=20190607-20:41:08.018|56=EXC|43=Y|98=0|108=30|141=Y|553=010FCE003|554=010FCE003|10=123|
8=FIX.4.4|9=0067|35=A|34=1|49=EXC|56=010|52=20190607-20:41:07.952|98=0|108=30|141=Y|10=008|
8=FIX.4.4|9=110|35=A|34=1|49=010|50=010BWN|52=20190607-20:42:22.685|56=EXC|43=Y|98=0|108=30|141=Y|553=010FCE003|554=010FCE003|10=130|
8=FIX.4.4|9=0067|35=A|34=1|49=EXC|56=010|52=20190607-20:42:22.622|98=0|108=30|141=Y|10=000|
8=FIX.4.4|9=110|35=A|34=1|49=010|50=010BWN|52=20190607-20:42:52.305|56=EXC|43=Y|98=0|108=30|141=Y|553=010FCE003|554=010FCE003|10=122|
8=FIX.4.4|9=0067|35=A|34=1|49=EXC|56=010|52=20190607-20:42:52.244|98=0|108=30|141=Y|10=003|
8=FIX.4.4|9=0192|35=R|34=2|49=EXC|56=010|52=20190607-20:42:54.506|131=20190607-000000000062.00|146=1|55=TFIT15260826|762=RFQF|48=20348|22=M|54=1|38=1500000000|453=2|448=007B26|447=C|452=12|448=007|447=C|452=1|10=250|
8=FIX.4.4|9=110|35=A|34=1|49=010|50=010BWN|52=20190607-20:44:20.392|56=EXC|43=Y|98=0|108=30|141=Y|553=010FCE003|554=010FCE003|10=125|
8=FIX.4.4|9=0067|35=A|34=1|49=EXC|56=010|52=20190607-20:44:20.313|98=0|108=30|141=Y|10=253|
8=FIX.4.4|9=0192|35=R|34=2|49=EXC|56=010|52=20190607-20:44:22.503|131=20190607-000000000064.00|146=1|55=TFIT15260826|762=RFQF|48=20348|22=M|54=1|38=1500000000|453=2|448=007B26|447=C|452=12|448=007|447=C|452=1|10=246|
8=FIX.4.4|9=110|35=A|34=1|49=010|50=010BWN|52=20190607-20:54:11.991|56=EXC|43=Y|98=0|108=30|141=Y|553=010FCE003|554=010FCE003|10=131|
8=FIX.4.4|9=0067|35=A|34=1|49=EXC|56=010|52=20190607-20:54:11.948|98=0|108=30|141=Y|10=012|
8=FIX.4.4|9=0192|35=R|34=2|49=EXC|56=010|52=20190607-20:54:13.947|131=20190607-000000000065.00|146=1|55=TFIT15260826|762=RFQF|48=20348|22=M|54=1|38=1500000000|453=2|448=007B26|447=C|452=12|448=007|447=C|452=1|10=004|
8=FIX.4.4|9=59|35=0|34=2|49=010|50=010BWN|52=20190607-20:54:42.751|56=EXC|10=110|
8=FIX.4.4|9=0049|35=0|34=3|49=EXC|56=010|52=20190607-20:54:43.000|10=167|
8=FIX.4.4|9=68|35=2|34=3|49=010|50=010BWN|52=20190607-20:54:43.139|56=EXC|7=2|16=0|10=238|
8=FIX.4.4|9=0223|35=R|34=2|43=Y|52=20190607-20:54:43.031|49=EXC|56=010|122=20190607-20:54:13.947|131=20190607-000000000065.00|146=1|55=TFIT15260826|762=RFQF|48=20348|22=M|54=1|38=1500000000|453=2|448=007B26|447=C|452=12|448=007|447=C|452=1|10=254|
8=FIX.4.4|9=0065|35=4|34=3|43=Y|49=EXC|56=010|52=20190607-20:54:43.031|123=Y|36=4|10=179|
8=FIX.4.4|9=0054|35=4|34=4|49=EXC|56=010|52=20190607-20:54:43.032|36=5|10=137|
8=FIX.4.4|9=110|35=A|34=1|49=010|50=010BWN|52=20190607-20:55:20.218|56=EXC|43=Y|98=0|108=30|141=Y|553=010FCE003|554=010FCE003|10=124|
8=FIX.4.4|9=0067|35=A|34=1|49=EXC|56=010|52=20190607-20:55:20.148|98=0|108=30|141=Y|10=005|
8=FIX.4.4|9=0192|35=R|34=2|49=EXC|56=010|52=20190607-20:55:22.248|131=20190607-000000000066.00|146=1|55=TFIT15260826|762=RFQF|48=20348|22=M|54=1|38=1500000000|453=2|448=007B26|447=C|452=12|448=007|447=C|452=1|10=000|
8=FIX.4.4|9=59|35=0|34=2|49=010|50=010BWN|52=20190607-20:55:51.091|56=EXC|10=108|
8=FIX.4.4|9=0049|35=0|34=3|49=EXC|56=010|52=20190607-20:55:52.000|10=168|
8=FIX.4.4|9=68|35=2|34=3|49=010|50=010BWN|52=20190607-20:55:52.132|56=EXC|7=2|16=0|10=232|
8=FIX.4.4|9=0223|35=R|34=2|43=Y|52=20190607-20:55:52.023|49=EXC|56=010|122=20190607-20:55:22.248|131=20190607-000000000066.00|146=1|55=TFIT15260826|762=RFQF|48=20348|22=M|54=1|38=1500000000|453=2|448=007B26|447=C|452=12|448=007|447=C|452=1|10=252|
8=FIX.4.4|9=0065|35=4|34=3|43=Y|49=EXC|56=010|52=20190607-20:55:52.023|123=Y|36=4|10=181|
8=FIX.4.4|9=0054|35=4|34=4|49=EXC|56=010|52=20190607-20:55:52.023|36=5|10=138|
8=FIX.4.4|9=110|35=A|34=1|49=010|50=010BWN|52=20190607-20:59:16.820|56=EXC|43=Y|98=0|108=30|141=Y|553=010FCE003|554=010FCE003|10=132|
8=FIX.4.4|9=110|35=A|34=1|49=010|50=010BWN|52=20190607-21:31:59.842|56=EXC|43=Y|98=0|108=30|141=Y|553=010FCE003|554=010FCE003|10=134|
8=FIX.4.4|9=0067|35=A|34=1|49=EXC|56=010|52=20190607-21:31:59.766|98=0|108=30|141=Y|10=018|
8=FIX.4.4|9=110|35=A|34=1|49=010|50=010BWN|52=20190607-21:32:39.058|56=EXC|43=Y|98=0|108=30|141=Y|553=010FCE003|554=010FCE003|10=132|
8=FIX.4.4|9=0067|35=A|34=1|49=EXC|56=010|52=20190607-21:32:38.972|98=0|108=30|141=Y|10=015|
8=FIX.4.4|9=110|35=A|34=1|49=010|50=010BWN|52=20190607-21:33:02.975|56=EXC|43=Y|98=0|108=30|141=Y|553=010FCE003|554=010FCE003|10=131|
8=FIX.4.4|9=0067|35=A|34=1|49=EXC|56=010|52=20190607-21:33:02.880|98=0|108=30|141=Y|10=005|
8=FIX.4.4|9=0049|35=0|34=2|49=EXC|56=010|52=20190607-21:33:32.000|10=162|
8=FIX.4.4|9=59|35=0|34=2|49=010|50=010BWN|52=20190607-21:33:33.853|56=EXC|10=111|
8=FIX.4.4|9=110|35=A|34=1|49=010|50=010BWN|52=20190607-21:34:44.502|56=EXC|43=Y|98=0|108=30|141=Y|553=010FCE003|554=010FCE003|10=124|
8=FIX.4.4|9=0067|35=A|34=1|49=EXC|56=010|52=20190607-21:34:44.429|98=0|108=30|141=Y|10=011|
8=FIX.4.4|9=0049|35=0|34=2|49=EXC|56=010|52=20190607-21:35:14.000|10=164|
8=FIX.4.4|9=59|35=0|34=2|49=010|50=010BWN|52=20190607-21:35:15.414|56=EXC|10=106|
8=FIX.4.4|9=104|35=A|34=3|49=010|50=010BWN|52=20190607-21:35:37.726|56=EXC|43=Y|98=0|108=30|553=010FCE003|554=010FCE003|10=095|
8=FIX.4.4|9=0061|35=A|34=3|49=EXC|56=010|52=20190607-21:35:37.638|98=0|108=30|10=223|
8=FIX.4.4|9=110|35=A|34=1|49=010|50=010BWN|52=20190607-21:36:19.039|56=EXC|43=Y|98=0|108=30|141=Y|553=010FCE003|554=010FCE003|10=133|
8=FIX.4.4|9=0067|35=A|34=1|49=EXC|56=010|52=20190607-21:36:19.005|98=0|108=30|141=Y|10=005|
8=FIX.4.4|9=110|35=A|34=1|49=010|50=010BWN|52=20190607-21:37:18.878|56=EXC|43=Y|98=0|108=30|141=Y|553=010FCE003|554=010FCE003|10=144|
8=FIX.4.4|9=0067|35=A|34=1|49=EXC|56=010|52=20190607-21:37:18.782|98=0|108=30|141=Y|10=017|
8=FIX.4.4|9=110|35=A|34=1|49=010|50=010BWN|52=20190607-21:41:52.249|56=EXC|43=Y|98=0|108=30|141=Y|553=010FCE003|554=010FCE003|10=129|
8=FIX.4.4|9=0067|35=A|34=1|49=EXC|56=010|52=20190607-21:41:52.271|98=0|108=30|141=Y|10=003|
8=FIX.4.4|9=110|35=A|34=1|49=010|50=010BWN|52=20190607-21:44:11.587|56=EXC|43=Y|98=0|108=30|141=Y|553=010FCE003|554=010FCE003|10=132|
8=FIX.4.4|9=0067|35=A|34=1|49=EXC|56=010|52=20190607-21:44:11.526|98=0|108=30|141=Y|10=004|
8=FIX.4.4|9=0049|35=0|34=2|49=EXC|56=010|52=20190607-21:44:41.000|10=164|
8=FIX.4.4|9=59|35=0|34=2|49=010|50=010BWN|52=20190607-21:44:42.507|56=EXC|10=109|
8=FIX.4.4|9=0049|35=0|34=3|49=EXC|56=010|52=20190607-21:45:11.000|10=163|
8=FIX.4.4|9=59|35=0|34=3|49=010|50=010BWN|52=20190607-21:45:12.507|56=EXC|10=108|
8=FIX.4.4|9=0049|35=0|34=4|49=EXC|56=010|52=20190607-21:45:41.000|10=167|
8=FIX.4.4|9=59|35=0|34=4|49=010|50=010BWN|52=20190607-21:45:42.506|56=EXC|10=111|
8=FIX.4.4|9=110|35=A|34=1|49=010|50=010BWN|52=20190607-21:51:29.087|56=EXC|43=Y|98=0|108=30|141=Y|553=010FCE003|554=010FCE003|10=134|
8=FIX.4.4|9=0067|35=A|34=1|49=EXC|56=010|52=20190607-21:51:29.109|98=0|108=30|141=Y|10=008|
8=FIX.4.4|9=104|35=A|34=2|49=010|50=010BWN|52=20190607-21:51:50.971|56=EXC|43=Y|98=0|108=30|553=010FCE003|554=010FCE003|10=089|
8=FIX.4.4|9=0061|35=A|34=2|49=EXC|56=010|52=20190607-21:51:50.881|98=0|108=30|10=215|
8=FIX.4.4|9=110|35=A|34=1|49=010|50=010BWN|52=20190607-21:52:14.942|56=EXC|43=Y|98=0|108=30|141=Y|553=010FCE003|554=010FCE003|10=129|
8=FIX.4.4|9=0067|35=A|34=1|49=EXC|56=010|52=20190607-21:52:14.932|98=0|108=30|141=Y|10=007|
8=FIX.4.4|9=110|35=A|34=1|49=010|50=010BWN|52=20190607-21:52:49.846|56=EXC|43=Y|98=0|108=30|141=Y|553=010FCE003|554=010FCE003|10=140|
8=FIX.4.4|9=0067|35=A|34=1|49=EXC|56=010|52=20190607-21:52:49.820|98=0|108=30|141=Y|10=011|
