8=FIX.4.4|9=110|35=A|34=1|49=013|50=013B17|52=20190607-21:41:30.480|56=EXC|43=Y|98=0|108=30|141=Y|553=013FCM001|554=013FCM001|10=085|
8=FIX.4.4|9=0067|35=A|34=1|49=EXC|56=013|52=20190607-21:41:30.435|98=0|108=30|141=Y|10=004|
8=FIX.4.4|9=0192|35=R|34=2|49=EXC|56=013|52=20190607-21:41:32.688|131=20190607-000000000071.00|146=1|55=TFIT15260826|762=RFQF|48=20348|22=M|54=1|38=1500000000|453=2|448=007B26|447=C|452=12|448=007|447=C|452=1|10=004|
8=FIX.4.4|9=110|35=A|34=1|49=013|50=013B17|52=20190607-21:52:30.071|56=EXC|43=Y|98=0|108=30|141=Y|553=013FCM001|554=013FCM001|10=083|
8=FIX.4.4|9=0067|35=A|34=1|49=EXC|56=013|52=20190607-21:52:30.018|98=0|108=30|141=Y|10=003|
8=FIX.4.4|9=0191|35=R|34=2|49=EXC|56=013|52=20190607-21:52:32.256|131=20190607-000000000073.00|146=1|55=TFIT16300632|762=RFQF|48=20406|22=M|54=1|38=500000000|453=2|448=001B27|447=C|452=12|448=001|447=C|452=1|10=180|
8=FIX.4.4|9=110|35=A|34=1|49=013|50=013B17|52=20190607-21:53:04.116|56=EXC|43=Y|98=0|108=30|141=Y|553=013FCM001|554=013FCM001|10=085|
8=FIX.4.4|9=0067|35=A|34=1|49=EXC|56=013|52=20190607-21:53:04.067|98=0|108=30|141=Y|10=009|
8=FIX.4.4|9=0049|35=0|34=2|49=EXC|56=013|52=20190607-21:53:34.000|10=169|
8=FIX.4.4|9=59|35=0|34=2|49=013|50=013B17|52=20190607-21:53:35.079|56=EXC|10=060|
8=FIX.4.4|9=0049|35=0|34=3|49=EXC|56=013|52=20190607-21:54:04.000|10=168|
8=FIX.4.4|9=59|35=0|34=3|49=013|50=013B17|52=20190607-21:54:05.079|56=EXC|10=059|
8=FIX.4.4|9=110|35=A|34=1|49=013|50=013B17|52=20190607-21:54:23.177|56=EXC|43=Y|98=0|108=30|141=Y|553=013FCM001|554=013FCM001|10=094|
8=FIX.4.4|9=0067|35=A|34=1|49=EXC|56=013|52=20190607-21:54:23.127|98=0|108=30|141=Y|10=008|
