8=FIX.4.4|9=105|35=A|34=1|49=007|50=007B26|52=20190620-14:50:57.314|56=EXC|98=0|108=30|141=Y|553=007FCE001|554=007FCE001|10=089|
8=FIX.4.4|9=0067|35=A|34=1|49=EXC|56=007|52=20190620-14:50:57.309|98=0|108=30|141=Y|10=013|
8=FIX.4.4|9=0049|35=0|34=2|49=EXC|56=007|52=20190620-14:51:27.000|10=169|
8=FIX.4.4|9=59|35=0|34=2|49=007|50=007B26|52=20190620-14:51:28.200|56=EXC|10=049|
8=FIX.4.4|9=105|35=A|34=1|49=007|50=007B26|52=20190620-16:55:23.118|56=EXC|98=0|108=30|141=Y|553=007FCE001|554=007FCE001|10=091|
8=FIX.4.4|9=0067|35=A|34=1|49=EXC|56=007|52=20190620-16:55:23.113|98=0|108=30|141=Y|10=006|
8=FIX.4.4|9=105|35=A|34=1|49=007|50=007B26|52=20190620-19:11:55.147|56=EXC|98=0|108=30|141=Y|553=007FCE001|554=007FCE001|10=093|
8=FIX.4.4|9=0067|35=A|34=1|49=EXC|56=007|52=20190620-19:11:54.189|98=0|108=30|141=Y|10=018|
8=FIX.4.4|9=0049|35=0|34=2|49=EXC|56=007|52=20190620-19:12:24.000|10=168|
8=FIX.4.4|9=59|35=0|34=2|49=007|50=007B26|52=20190620-19:12:25.948|56=EXC|10=067|
8=FIX.4.4|9=105|35=A|34=1|49=007|50=007B26|52=20190620-19:19:41.125|56=EXC|98=0|108=30|141=Y|553=007FCE001|554=007FCE001|10=092|
8=FIX.4.4|9=0067|35=A|34=1|49=EXC|56=007|52=20190620-19:19:40.201|98=0|108=30|141=Y|10=006|
8=FIX.4.4|9=0049|35=0|34=2|49=EXC|56=007|52=20190620-19:20:10.000|10=162|
8=FIX.4.4|9=59|35=0|34=2|49=007|50=007B26|52=20190620-19:20:12.069|56=EXC|10=056|
8=FIX.4.4|9=105|35=A|34=1|49=007|50=007B26|52=20190620-19:21:14.886|56=EXC|98=0|108=30|141=Y|553=007FCE001|554=007FCE001|10=099|
8=FIX.4.4|9=0067|35=A|34=1|49=EXC|56=007|52=20190620-19:21:13.972|98=0|108=30|141=Y|10=014|
8=FIX.4.4|9=0049|35=0|34=2|49=EXC|56=007|52=20190620-19:21:43.000|10=169|
8=FIX.4.4|9=59|35=0|34=2|49=007|50=007B26|52=20190620-19:21:45.802|56=EXC|10=058|
8=FIX.4.4|9=0049|35=0|34=3|49=EXC|56=007|52=20190620-19:22:13.000|10=168|
8=FIX.4.4|9=59|35=0|34=3|49=007|50=007B26|52=20190620-19:22:15.804|56=EXC|10=059|
8=FIX.4.4|9=0049|35=0|34=4|49=EXC|56=007|52=20190620-19:22:43.000|10=172|
8=FIX.4.4|9=59|35=0|34=4|49=007|50=007B26|52=20190620-19:22:46.785|56=EXC|10=072|
8=FIX.4.4|9=0049|35=0|34=5|49=EXC|56=007|52=20190620-19:23:13.000|10=171|
8=FIX.4.4|9=59|35=0|34=5|49=007|50=007B26|52=20190620-19:23:17.725|56=EXC|10=066|
8=FIX.4.4|9=105|35=A|34=1|49=007|50=007B26|52=20190620-19:24:53.046|56=EXC|98=0|108=30|141=Y|553=007FCE001|554=007FCE001|10=093|
8=FIX.4.4|9=0067|35=A|34=1|49=EXC|56=007|52=20190620-19:24:52.402|98=0|108=30|141=Y|10=008|
8=FIX.4.4|9=0049|35=0|34=2|49=EXC|56=007|52=20190620-19:25:22.000|10=170|
8=FIX.4.4|9=59|35=0|34=2|49=007|50=007B26|52=20190620-19:25:23.930|56=EXC|10=060|
8=FIX.4.4|9=0049|35=0|34=3|49=EXC|56=007|52=20190620-19:25:52.000|10=174|
8=FIX.4.4|9=59|35=0|34=3|49=007|50=007B26|52=20190620-19:25:54.872|56=EXC|10=070|
8=FIX.4.4|9=0049|35=0|34=4|49=EXC|56=007|52=20190620-19:26:22.000|10=173|
8=FIX.4.4|9=59|35=0|34=4|49=007|50=007B26|52=20190620-19:26:25.813|56=EXC|10=065|
8=FIX.4.4|9=0049|35=0|34=5|49=EXC|56=007|52=20190620-19:26:52.000|10=177|
8=FIX.4.4|9=59|35=0|34=5|49=007|50=007B26|52=20190620-19:26:56.755|56=EXC|10=075|
8=FIX.4.4|9=0049|35=0|34=6|49=EXC|56=007|52=20190620-19:27:22.000|10=176|
8=FIX.4.4|9=59|35=0|34=6|49=007|50=007B26|52=20190620-19:27:27.697|56=EXC|10=080|
8=FIX.4.4|9=105|35=A|34=1|49=007|50=007B26|52=20190620-19:27:51.467|56=EXC|98=0|108=30|141=Y|553=007FCE001|554=007FCE001|10=101|
8=FIX.4.4|9=0067|35=A|34=1|49=EXC|56=007|52=20190620-19:27:51.145|98=0|108=30|141=Y|10=014|
8=FIX.4.4|9=0049|35=0|34=2|49=EXC|56=007|52=20190620-19:28:21.000|10=172|
8=FIX.4.4|9=59|35=0|34=2|49=007|50=007B26|52=20190620-19:28:22.432|56=EXC|10=059|
8=FIX.4.4|9=105|35=A|34=1|49=007|50=007B26|52=20190620-19:59:00.673|56=EXC|98=0|108=30|141=Y|553=007FCE001|554=007FCE001|10=099|
8=FIX.4.4|9=0067|35=A|34=1|49=EXC|56=007|52=20190620-19:59:00.300|98=0|108=30|141=Y|10=006|
8=FIX.4.4|9=0049|35=0|34=2|49=EXC|56=007|52=20190620-19:59:30.000|10=176|
8=FIX.4.4|9=59|35=0|34=2|49=007|50=007B26|52=20190620-19:59:31.596|56=EXC|10=074|
8=FIX.4.4|9=0049|35=0|34=3|49=EXC|56=007|52=20190620-20:00:00.000|10=152|
8=FIX.4.4|9=59|35=0|34=3|49=007|50=007B26|52=20190620-20:00:01.596|56=EXC|10=050|
8=FIX.4.4|9=105|35=A|34=1|49=007|50=007B26|52=20190620-20:18:46.208|56=EXC|98=0|108=30|141=Y|553=007FCE001|554=007FCE001|10=090|
8=FIX.4.4|9=0067|35=A|34=1|49=EXC|56=007|52=20190620-20:18:46.187|98=0|108=30|141=Y|10=016|
8=FIX.4.4|9=0049|35=0|34=2|49=EXC|56=007|52=20190620-20:19:16.000|10=168|
8=FIX.4.4|9=59|35=0|34=2|49=007|50=007B26|52=20190620-20:19:17.175|56=EXC|10=059|
8=FIX.4.4|9=105|35=A|34=1|49=007|50=007B26|52=20190621-13:23:41.549|56=EXC|98=0|108=30|141=Y|553=007FCE001|554=007FCE001|10=092|
8=FIX.4.4|9=0067|35=A|34=1|49=EXC|56=007|52=20190621-13:23:41.587|98=0|108=30|141=Y|10=014|
8=FIX.4.4|9=59|35=5|34=2|49=007|50=007B26|52=20190621-13:24:08.500|56=EXC|10=055|
8=FIX.4.4|9=0049|35=5|34=2|49=EXC|56=007|52=20190621-13:24:08.511|10=180|
8=FIX.4.4|9=105|35=A|34=1|49=007|50=007B26|52=20190621-13:59:37.831|56=EXC|98=0|108=30|141=Y|553=007FCE001|554=007FCE001|10=100|
8=FIX.4.4|9=0067|35=A|34=1|49=EXC|56=007|52=20190621-13:59:37.844|98=0|108=30|141=Y|10=024|
8=FIX.4.4|9=209|35=R|34=2|49=007|50=007B26|52=20190621-13:59:45.060|56=EXC|131=201906218593510_R|146=1|55=TFIT16240724|22=M|762=RFQF|54=2|38=500000000|453=3|448=007B26|447=C|452=12|448=007|447=C|452=1|448=010BWN|447=C|452=37|10=168|
8=FIX.4.4|9=0049|35=0|34=2|49=EXC|56=007|52=20190621-14:00:07.000|10=162|
8=FIX.4.4|9=59|35=0|34=3|49=007|50=007B26|52=20190621-14:00:15.801|56=EXC|10=048|
8=FIX.4.4|9=0049|35=0|34=3|49=EXC|56=007|52=20190621-14:00:37.000|10=166|
8=FIX.4.4|9=59|35=0|34=4|49=007|50=007B26|52=20190621-14:00:45.802|56=EXC|10=053|
8=FIX.4.4|9=105|35=A|34=1|49=007|50=007B26|52=20190621-14:19:17.967|56=EXC|98=0|108=30|141=Y|553=007FCE001|554=007FCE001|10=105|
8=FIX.4.4|9=0067|35=A|34=1|49=EXC|56=007|52=20190621-14:19:17.979|98=0|108=30|141=Y|10=028|
8=FIX.4.4|9=210|35=R|34=2|49=007|50=007B26|52=20190621-14:19:25.334|56=EXC|131=201906219191510_R|146=1|55=TFIT16240724|22=M|762=RFQF|54=2|38=500000000|453=3|448=002B35|447=C|452=37|448=DCV|447=C|452=10|448=010BWN|447=C|452=37|10=018|
8=FIX.4.4|9=0292|35=AI|34=2|49=EXC|56=007|57=007B26|52=20190621-14:19:25.320|131=201906219191510_R|453=6|448=DCV|447=C|452=10|448=007B26|447=C|452=12|448=007|447=C|452=1|448=007FCE001|447=C|452=36|448=002B35|447=C|452=37|448=010BWN|447=C|452=37|55=TFIT16240724|762=RFQF|48=20392|22=M|54=2|38=500000000|297=10|10=186|
8=FIX.4.4|9=0049|35=0|34=3|49=EXC|56=007|52=20190621-14:19:55.000|10=176|
8=FIX.4.4|9=59|35=0|34=3|49=007|50=007B26|52=20190621-14:19:55.924|56=EXC|10=068|
8=FIX.4.4|9=59|35=5|34=4|49=007|50=007B26|52=20190621-14:20:09.925|56=EXC|10=066|
8=FIX.4.4|9=0049|35=5|34=4|49=EXC|56=007|52=20190621-14:20:09.910|10=183|
8=FIX.4.4|9=105|35=A|34=1|49=007|50=007B26|52=20190621-14:20:46.147|56=EXC|98=0|108=30|141=Y|553=007FCE001|554=007FCE001|10=089|
8=FIX.4.4|9=0067|35=A|34=1|49=EXC|56=007|52=20190621-14:20:46.163|98=0|108=30|141=Y|10=007|
8=FIX.4.4|9=0049|35=0|34=2|49=EXC|56=007|52=20190621-14:21:16.000|10=165|
8=FIX.4.4|9=59|35=0|34=2|49=007|50=007B26|52=20190621-14:21:17.111|56=EXC|10=046|
8=FIX.4.4|9=0049|35=0|34=3|49=EXC|56=007|52=20190621-14:21:46.000|10=169|
8=FIX.4.4|9=59|35=0|34=3|49=007|50=007B26|52=20190621-14:21:47.111|56=EXC|10=050|
8=FIX.4.4|9=0049|35=0|34=4|49=EXC|56=007|52=20190621-14:22:16.000|10=168|
8=FIX.4.4|9=59|35=0|34=4|49=007|50=007B26|52=20190621-14:22:17.110|56=EXC|10=048|
8=FIX.4.4|9=0049|35=0|34=5|49=EXC|56=007|52=20190621-14:22:46.000|10=172|
8=FIX.4.4|9=59|35=0|34=5|49=007|50=007B26|52=20190621-14:22:47.110|56=EXC|10=052|
8=FIX.4.4|9=0049|35=0|34=6|49=EXC|56=007|52=20190621-14:23:16.000|10=171|
8=FIX.4.4|9=59|35=0|34=6|49=007|50=007B26|52=20190621-14:23:17.117|56=EXC|10=058|
8=FIX.4.4|9=0049|35=0|34=7|49=EXC|56=007|52=20190621-14:23:46.000|10=175|
8=FIX.4.4|9=59|35=0|34=7|49=007|50=007B26|52=20190621-14:23:47.111|56=EXC|10=056|
8=FIX.4.4|9=0049|35=0|34=8|49=EXC|56=007|52=20190621-14:24:16.000|10=174|
8=FIX.4.4|9=59|35=0|34=8|49=007|50=007B26|52=20190621-14:24:17.110|56=EXC|10=054|
8=FIX.4.4|9=0049|35=0|34=9|49=EXC|56=007|52=20190621-14:24:46.000|10=178|
8=FIX.4.4|9=59|35=0|34=9|49=007|50=007B26|52=20190621-14:24:47.111|56=EXC|10=059|
8=FIX.4.4|9=163|35=R|34=10|49=007|50=007B26|52=20190621-14:25:10.148|56=EXC|131=20190621920436_R|146=1|55=TFIT15260826|22=M|762=RFQF|54=1|38=1500000000|453=1|448=DCV|447=C|452=10|10=012|
8=FIX.4.4|9=0245|35=AI|34=10|49=EXC|56=007|57=007B26|52=20190621-14:25:10.133|131=20190621920436_R|453=4|448=DCV|447=C|452=10|448=007B26|447=C|452=12|448=007|447=C|452=1|448=007FCE001|447=C|452=36|55=TFIT15260826|762=RFQF|48=20348|22=M|54=1|38=1500000000|297=10|10=171|
8=FIX.4.4|9=0193|35=R|34=11|49=EXC|56=007|52=20190621-14:25:10.133|131=20190621-000000000006.00|146=1|55=TFIT15260826|762=RFQF|48=20348|22=M|54=1|38=1500000000|453=2|448=007B26|447=C|452=12|448=007|447=C|452=1|10=031|
8=FIX.4.4|9=0184|35=R|34=12|49=EXC|56=007|52=20190621-14:25:39.340|131=20190621-000000000006.00|146=1|55=TFIT15260826|762=RFQF|48=20348|22=M|54=1|38=0|453=2|448=007B26|447=C|452=12|448=007|447=C|452=1|10=117|
8=FIX.4.4|9=0317|35=S|34=13|49=EXC|56=007|57=007B26|52=20190621-14:25:39.340|131=20190621920436_R|117=20190621-000000000006.00|55=TFIT15260826|762=RFQF|48=20348|22=M|453=5|448=DCV|447=C|452=10|448=007B26|447=C|452=12|448=007|447=C|452=1|448=007FCE001|447=C|452=36|448=002B35|447=C|452=37|634=6.000|135=1500000000|62=20190830-22:00:00|10=083|
8=FIX.4.4|9=60|35=0|34=11|49=007|50=007B26|52=20190621-14:25:41.110|56=EXC|10=086|
8=FIX.4.4|9=0050|35=0|34=14|49=EXC|56=007|52=20190621-14:26:09.000|10=215|
8=FIX.4.4|9=60|35=0|34=12|49=007|50=007B26|52=20190621-14:26:11.111|56=EXC|10=086|
8=FIX.4.4|9=148|35=AJ|34=13|49=007|50=007B26|52=20190621-14:26:18.321|56=EXC|54=1|55=TFIT15260826|117=20190621-000000000006.00|693=20190621920436_AJ|694=1|762=RFQF|10=106|
8=FIX.4.4|9=0523|35=8|34=15|49=EXC|56=007|57=007B26|52=20190621-14:26:18.306|11=20190621920436_AJ|17=1|37=0|150=F|1080=20190621-000000000006.00|1081=5|453=6|448=007B26|447=C|452=12|448=007|447=C|452=1|448=002B35|447=C|452=37|448=002|447=C|452=17|448=007FCE001|447=C|452=36|448=DCV|447=C|452=10|55=TFIT15260826|762=RFQF|48=20348|22=M|6=108.515|14=1500000000|31=108.515|32=1500000000|38=1500000000|39=2|20102=114.658|54=1|60=20190621-14:26:18.306|75=20190621|63=1|64=20190621|151=0|1623=6.000|381=1719882000.000|880=201906210000000003|828=99|10=244|
8=FIX.4.4|9=0192|35=R|34=16|49=EXC|56=007|52=20190621-14:26:45.124|131=20190621-000000000007.00|146=1|55=TFIC14280426|762=RFQF|48=20602|22=M|54=1|38=500000000|453=2|448=001B27|447=C|452=12|448=001|447=C|452=1|10=214|
8=FIX.4.4|9=60|35=0|34=14|49=007|50=007B26|52=20190621-14:26:49.111|56=EXC|10=099|
8=FIX.4.4|9=0050|35=0|34=17|49=EXC|56=007|52=20190621-14:27:15.000|10=216|
8=FIX.4.4|9=60|35=0|34=15|49=007|50=007B26|52=20190621-14:27:19.110|56=EXC|10=097|
8=FIX.4.4|9=178|35=R|34=16|49=007|50=007B26|52=20190621-14:27:36.200|56=EXC|131=20190621920439_R|146=1|55=TFIT16280428|22=M|762=RFQF|54=1|38=0|453=2|448=DCV|447=C|452=10|448=010BWN|447=C|452=37|10=031|
8=FIX.4.4|9=0161|35=AG|34=18|49=EXC|56=007|57=007B26|52=20190621-14:27:36.183|131=20190621920439_R|658=99|146=1|55=TFIT16280428|762=RFQF|22=M|58=(333): ID de cotización inválida|10=124|
8=FIX.4.4|9=211|35=R|34=17|49=007|50=007B26|52=20190621-14:27:49.665|56=EXC|131=201906219204310_R|146=1|55=TFIT16240724|22=M|762=RFQF|54=2|38=500000000|453=3|448=002B35|447=C|452=37|448=DCV|447=C|452=10|448=010BWN|447=C|452=37|10=078|
8=FIX.4.4|9=0293|35=AI|34=19|49=EXC|56=007|57=007B26|52=20190621-14:27:49.649|131=201906219204310_R|453=6|448=DCV|447=C|452=10|448=007B26|447=C|452=12|448=007|447=C|452=1|448=007FCE001|447=C|452=36|448=002B35|447=C|452=37|448=010BWN|447=C|452=37|55=TFIT16240724|762=RFQF|48=20392|22=M|54=2|38=500000000|297=10|10=255|
8=FIX.4.4|9=0050|35=0|34=20|49=EXC|56=007|52=20190621-14:28:19.000|10=215|
8=FIX.4.4|9=60|35=0|34=18|49=007|50=007B26|52=20190621-14:28:20.111|56=EXC|10=094|
8=FIX.4.4|9=211|35=R|34=19|49=007|50=007B26|52=20190621-14:28:29.284|56=EXC|131=201906219204311_R|146=1|55=TFIC14280426|22=M|762=RFQF|54=2|38=1000000000|453=3|448=007B26|447=C|452=12|448=007|447=C|452=1|448=002B37|447=C|452=37|10=183|
8=FIX.4.4|9=0050|35=0|34=21|49=EXC|56=007|52=20190621-14:28:49.000|10=219|
8=FIX.4.4|9=60|35=0|34=20|49=007|50=007B26|52=20190621-14:29:00.110|56=EXC|10=085|
8=FIX.4.4|9=0050|35=0|34=22|49=EXC|56=007|52=20190621-14:29:19.000|10=218|
8=FIX.4.4|9=60|35=0|34=21|49=007|50=007B26|52=20190621-14:29:30.110|56=EXC|10=089|
