8=FIX.4.4|9=105|35=A|34=1|49=013|50=013B17|52=20190625-14:00:42.295|56=EXC|98=0|108=30|141=Y|553=013FCM001|554=013FCM001|10=095|
8=FIX.4.4|9=0067|35=A|34=1|49=EXC|56=013|52=20190627-14:00:42.308|98=0|108=30|141=Y|10=005|
8=FIX.4.4|9=0049|35=0|34=2|49=EXC|56=013|52=20190627-14:01:12.000|10=162|
8=FIX.4.4|9=59|35=0|34=2|49=013|50=013B17|52=20190625-14:01:13.234|56=EXC|10=044|
8=FIX.4.4|9=0049|35=0|34=3|49=EXC|56=013|52=20190627-14:01:42.000|10=166|
8=FIX.4.4|9=59|35=0|34=3|49=013|50=013B17|52=20190625-14:01:43.234|56=EXC|10=048|
8=FIX.4.4|9=0049|35=0|34=4|49=EXC|56=013|52=20190627-14:02:12.000|10=165|
8=FIX.4.4|9=59|35=0|34=4|49=013|50=013B17|52=20190625-14:02:13.235|56=EXC|10=048|
8=FIX.4.4|9=0049|35=0|34=5|49=EXC|56=013|52=20190627-14:02:42.000|10=169|
8=FIX.4.4|9=59|35=0|34=5|49=013|50=013B17|52=20190625-14:02:43.234|56=EXC|10=051|
8=FIX.4.4|9=105|35=A|34=1|49=013|50=013B17|52=20190625-14:04:52.709|56=EXC|98=0|108=30|141=Y|553=013FCM001|554=013FCM001|10=100|
8=FIX.4.4|9=0067|35=A|34=1|49=EXC|56=013|52=20190627-14:04:52.721|98=0|108=30|141=Y|10=009|
8=FIX.4.4|9=0049|35=0|34=2|49=EXC|56=013|52=20190627-14:05:22.000|10=167|
8=FIX.4.4|9=59|35=0|34=2|49=013|50=013B17|52=20190625-14:05:23.587|56=EXC|10=060|
8=FIX.4.4|9=0049|35=0|34=3|49=EXC|56=013|52=20190627-14:05:52.000|10=171|
8=FIX.4.4|9=59|35=0|34=3|49=013|50=013B17|52=20190625-14:05:53.587|56=EXC|10=064|
8=FIX.4.4|9=0049|35=0|34=4|49=EXC|56=013|52=20190627-14:06:22.000|10=170|
8=FIX.4.4|9=59|35=0|34=4|49=013|50=013B17|52=20190625-14:06:23.587|56=EXC|10=063|
8=FIX.4.4|9=0049|35=0|34=5|49=EXC|56=013|52=20190627-14:06:52.000|10=174|
8=FIX.4.4|9=59|35=0|34=5|49=013|50=013B17|52=20190625-14:06:53.586|56=EXC|10=066|
8=FIX.4.4|9=0049|35=0|34=6|49=EXC|56=013|52=20190627-14:07:22.000|10=173|
8=FIX.4.4|9=59|35=0|34=6|49=013|50=013B17|52=20190625-14:07:23.586|56=EXC|10=065|
8=FIX.4.4|9=0049|35=0|34=7|49=EXC|56=013|52=20190627-14:07:52.000|10=177|
8=FIX.4.4|9=59|35=0|34=7|49=013|50=013B17|52=20190625-14:07:53.587|56=EXC|10=070|
8=FIX.4.4|9=0049|35=0|34=8|49=EXC|56=013|52=20190627-14:08:22.000|10=176|
8=FIX.4.4|9=59|35=0|34=8|49=013|50=013B17|52=20190625-14:08:23.586|56=EXC|10=068|
8=FIX.4.4|9=0049|35=0|34=9|49=EXC|56=013|52=20190627-14:08:52.000|10=180|
8=FIX.4.4|9=59|35=0|34=9|49=013|50=013B17|52=20190625-14:08:53.586|56=EXC|10=072|
8=FIX.4.4|9=0050|35=0|34=10|49=EXC|56=013|52=20190627-14:09:22.000|10=210|
8=FIX.4.4|9=60|35=0|34=10|49=013|50=013B17|52=20190625-14:09:23.586|56=EXC|10=102|
8=FIX.4.4|9=0050|35=0|34=11|49=EXC|56=013|52=20190627-14:09:52.000|10=214|
8=FIX.4.4|9=60|35=0|34=11|49=013|50=013B17|52=20190625-14:09:53.586|56=EXC|10=106|
8=FIX.4.4|9=105|35=A|34=1|49=013|50=013B17|52=20190625-14:38:03.102|56=EXC|98=0|108=30|141=Y|553=013FCM001|554=013FCM001|10=090|
8=FIX.4.4|9=0067|35=A|34=1|49=EXC|56=013|52=20190627-14:38:03.137|98=0|108=30|141=Y|10=013|
8=FIX.4.4|9=0049|35=0|34=2|49=EXC|56=013|52=20190627-14:38:33.000|10=175|
8=FIX.4.4|9=59|35=0|34=2|49=013|50=013B17|52=20190625-14:38:34.073|56=EXC|10=058|
8=FIX.4.4|9=0049|35=0|34=3|49=EXC|56=013|52=20190627-14:39:03.000|10=174|
8=FIX.4.4|9=59|35=0|34=3|49=013|50=013B17|52=20190625-14:39:04.073|56=EXC|10=057|
8=FIX.4.4|9=59|35=5|34=4|49=013|50=013B17|52=20190625-14:39:24.080|56=EXC|10=063|
8=FIX.4.4|9=0049|35=5|34=4|49=EXC|56=013|52=20190627-14:39:24.086|10=197|
8=FIX.4.4|9=105|35=A|34=1|49=013|50=013B17|52=20190625-15:23:40.599|56=EXC|98=0|108=30|141=Y|553=013FCM001|554=013FCM001|10=106|
8=FIX.4.4|9=0067|35=A|34=1|49=EXC|56=013|52=20190627-15:23:40.627|98=0|108=30|141=Y|10=013|
8=FIX.4.4|9=0049|35=0|34=2|49=EXC|56=013|52=20190627-15:24:10.000|10=166|
8=FIX.4.4|9=59|35=0|34=2|49=013|50=013B17|52=20190625-15:24:11.537|56=EXC|10=054|
8=FIX.4.4|9=0049|35=0|34=3|49=EXC|56=013|52=20190627-15:24:40.000|10=170|
8=FIX.4.4|9=59|35=0|34=3|49=013|50=013B17|52=20190625-15:24:41.537|56=EXC|10=058|
8=FIX.4.4|9=0049|35=0|34=4|49=EXC|56=013|52=20190627-15:25:10.000|10=169|
8=FIX.4.4|9=59|35=0|34=4|49=013|50=013B17|52=20190625-15:25:11.537|56=EXC|10=057|
8=FIX.4.4|9=0049|35=0|34=5|49=EXC|56=013|52=20190627-15:25:40.000|10=173|
8=FIX.4.4|9=59|35=0|34=5|49=013|50=013B17|52=20190625-15:25:41.537|56=EXC|10=061|
8=FIX.4.4|9=0049|35=0|34=6|49=EXC|56=013|52=20190627-15:26:10.000|10=172|
8=FIX.4.4|9=59|35=0|34=6|49=013|50=013B17|52=20190625-15:26:11.537|56=EXC|10=060|
8=FIX.4.4|9=0049|35=0|34=7|49=EXC|56=013|52=20190627-15:26:40.000|10=176|
8=FIX.4.4|9=59|35=0|34=7|49=013|50=013B17|52=20190625-15:26:41.537|56=EXC|10=064|
8=FIX.4.4|9=0049|35=0|34=8|49=EXC|56=013|52=20190627-15:27:10.000|10=175|
8=FIX.4.4|9=59|35=0|34=8|49=013|50=013B17|52=20190625-15:27:11.537|56=EXC|10=063|
8=FIX.4.4|9=0049|35=0|34=9|49=EXC|56=013|52=20190627-15:27:40.000|10=179|
8=FIX.4.4|9=59|35=0|34=9|49=013|50=013B17|52=20190625-15:27:41.537|56=EXC|10=067|
8=FIX.4.4|9=0050|35=0|34=10|49=EXC|56=013|52=20190627-15:28:10.000|10=209|
8=FIX.4.4|9=0193|35=R|34=11|49=EXC|56=013|52=20190627-15:28:10.176|131=20190627-000000000016.00|146=1|55=TFIT15260826|762=RFQF|48=20348|22=M|54=1|38=1500000000|453=2|448=007B26|447=C|452=12|448=007|447=C|452=1|10=052|
8=FIX.4.4|9=60|35=0|34=10|49=013|50=013B17|52=20190625-15:28:11.537|56=EXC|10=097|
8=FIX.4.4|9=0184|35=R|34=12|49=EXC|56=013|52=20190627-15:28:39.463|131=20190627-000000000016.00|146=1|55=TFIT15260826|762=RFQF|48=20348|22=M|54=1|38=0|453=2|448=007B26|447=C|452=12|448=007|447=C|452=1|10=137|
8=FIX.4.4|9=60|35=0|34=11|49=013|50=013B17|52=20190625-15:28:41.537|56=EXC|10=101|
8=FIX.4.4|9=0050|35=0|34=13|49=EXC|56=013|52=20190627-15:29:09.000|10=221|
8=FIX.4.4|9=60|35=0|34=12|49=013|50=013B17|52=20190625-15:29:11.537|56=EXC|10=100|
8=FIX.4.4|9=0050|35=0|34=14|49=EXC|56=013|52=20190627-15:29:39.000|10=225|
8=FIX.4.4|9=60|35=0|34=13|49=013|50=013B17|52=20190625-15:29:41.538|56=EXC|10=105|
8=FIX.4.4|9=0192|35=R|34=15|49=EXC|56=013|52=20190627-15:29:46.344|131=20190627-000000000017.00|146=1|55=TFIC14280426|762=RFQF|48=20602|22=M|54=1|38=500000000|453=2|448=001B27|447=C|452=12|448=001|447=C|452=1|10=232|
8=FIX.4.4|9=60|35=0|34=14|49=013|50=013B17|52=20190625-15:30:11.537|56=EXC|10=094|
8=FIX.4.4|9=0050|35=0|34=16|49=EXC|56=013|52=20190627-15:30:16.000|10=214|
8=FIX.4.4|9=60|35=0|34=15|49=013|50=013B17|52=20190625-15:30:41.537|56=EXC|10=098|
8=FIX.4.4|9=0050|35=0|34=17|49=EXC|56=013|52=20190627-15:30:46.000|10=218|
8=FIX.4.4|9=60|35=0|34=16|49=013|50=013B17|52=20190625-15:31:11.537|56=EXC|10=097|
8=FIX.4.4|9=0050|35=0|34=18|49=EXC|56=013|52=20190627-15:31:16.000|10=217|
8=FIX.4.4|9=60|35=5|34=17|49=013|50=013B17|52=20190625-15:31:35.536|56=EXC|10=108|
8=FIX.4.4|9=0050|35=5|34=19|49=EXC|56=013|52=20190627-15:31:35.534|10=236|
8=FIX.4.4|9=105|35=A|34=1|49=013|50=013B17|52=20190625-15:58:17.429|56=EXC|98=0|108=30|141=Y|553=013FCM001|554=013FCM001|10=110|
8=FIX.4.4|9=0067|35=A|34=1|49=EXC|56=013|52=20190627-15:58:17.452|98=0|108=30|141=Y|10=021|
8=FIX.4.4|9=0049|35=0|34=2|49=EXC|56=013|52=20190627-15:58:47.000|10=183|
8=FIX.4.4|9=59|35=0|34=2|49=013|50=013B17|52=20190625-15:58:48.328|56=EXC|10=069|
8=FIX.4.4|9=0049|35=0|34=3|49=EXC|56=013|52=20190627-15:59:17.000|10=182|
8=FIX.4.4|9=59|35=0|34=3|49=013|50=013B17|52=20190625-15:59:18.329|56=EXC|10=069|
8=FIX.4.4|9=0049|35=0|34=4|49=EXC|56=013|52=20190627-15:59:47.000|10=186|
8=FIX.4.4|9=59|35=0|34=4|49=013|50=013B17|52=20190625-15:59:48.328|56=EXC|10=072|
8=FIX.4.4|9=0049|35=0|34=5|49=EXC|56=013|52=20190627-16:00:17.000|10=171|
8=FIX.4.4|9=59|35=0|34=5|49=013|50=013B17|52=20190625-16:00:18.328|56=EXC|10=057|
8=FIX.4.4|9=0049|35=0|34=6|49=EXC|56=013|52=20190627-16:00:47.000|10=175|
8=FIX.4.4|9=59|35=0|34=6|49=013|50=013B17|52=20190625-16:00:48.328|56=EXC|10=061|
8=FIX.4.4|9=0049|35=0|34=7|49=EXC|56=013|52=20190627-16:01:17.000|10=174|
8=FIX.4.4|9=59|35=0|34=7|49=013|50=013B17|52=20190625-16:01:18.329|56=EXC|10=061|
8=FIX.4.4|9=0049|35=0|34=8|49=EXC|56=013|52=20190627-16:01:47.000|10=178|
8=FIX.4.4|9=59|35=0|34=8|49=013|50=013B17|52=20190625-16:01:48.329|56=EXC|10=065|
8=FIX.4.4|9=0049|35=0|34=9|49=EXC|56=013|52=20190627-16:02:17.000|10=177|
8=FIX.4.4|9=59|35=0|34=9|49=013|50=013B17|52=20190625-16:02:18.328|56=EXC|10=063|
8=FIX.4.4|9=0050|35=0|34=10|49=EXC|56=013|52=20190627-16:02:47.000|10=212|
8=FIX.4.4|9=0193|35=R|34=11|49=EXC|56=013|52=20190627-16:02:47.006|131=20190627-000000000024.00|146=1|55=TFIT15260826|762=RFQF|48=20348|22=M|54=1|38=1500000000|453=2|448=007B26|447=C|452=12|448=007|447=C|452=1|10=046|
8=FIX.4.4|9=60|35=0|34=10|49=013|50=013B17|52=20190625-16:02:48.329|56=EXC|10=099|
8=FIX.4.4|9=0184|35=R|34=12|49=EXC|56=013|52=20190627-16:03:16.418|131=20190627-000000000024.00|146=1|55=TFIT15260826|762=RFQF|48=20348|22=M|54=1|38=0|453=2|448=007B26|447=C|452=12|448=007|447=C|452=1|10=125|
8=FIX.4.4|9=60|35=0|34=11|49=013|50=013B17|52=20190625-16:03:18.328|56=EXC|10=097|
8=FIX.4.4|9=0050|35=0|34=13|49=EXC|56=013|52=20190627-16:03:46.000|10=215|
8=FIX.4.4|9=60|35=0|34=12|49=013|50=013B17|52=20190625-16:03:48.328|56=EXC|10=101|
8=FIX.4.4|9=0050|35=0|34=14|49=EXC|56=013|52=20190627-16:04:16.000|10=214|
8=FIX.4.4|9=60|35=0|34=13|49=013|50=013B17|52=20190625-16:04:18.329|56=EXC|10=101|
8=FIX.4.4|9=0192|35=R|34=15|49=EXC|56=013|52=20190627-16:04:22.310|131=20190627-000000000025.00|146=1|55=TFIC14280426|762=RFQF|48=20602|22=M|54=1|38=500000000|453=2|448=001B27|447=C|452=12|448=001|447=C|452=1|10=212|
8=FIX.4.4|9=60|35=0|34=14|49=013|50=013B17|52=20190625-16:04:48.328|56=EXC|10=104|
8=FIX.4.4|9=0050|35=0|34=16|49=EXC|56=013|52=20190627-16:04:52.000|10=216|
8=FIX.4.4|9=60|35=0|34=15|49=013|50=013B17|52=20190625-16:05:18.328|56=EXC|10=103|
8=FIX.4.4|9=0050|35=0|34=17|49=EXC|56=013|52=20190627-16:05:22.000|10=215|
8=FIX.4.4|9=60|35=0|34=16|49=013|50=013B17|52=20190625-16:05:48.328|56=EXC|10=107|
8=FIX.4.4|9=0050|35=0|34=18|49=EXC|56=013|52=20190627-16:05:52.000|10=219|
8=FIX.4.4|9=60|35=5|34=17|49=013|50=013B17|52=20190625-16:06:06.329|56=EXC|10=109|
8=FIX.4.4|9=0050|35=5|34=19|49=EXC|56=013|52=20190627-16:06:06.322|10=232|
