8=FIX.4.4|9=105|35=A|34=1|49=002|50=002B35|52=20190612-16:29:19.866|56=EXC|98=0|108=30|141=Y|553=002FCM001|554=002FCM001|10=104|
8=FIX.4.4|9=0067|35=A|34=1|49=EXC|56=002|52=20190612-16:29:19.888|98=0|108=30|141=Y|10=027|
8=FIX.4.4|9=0225|35=R|34=2|49=EXC|56=002|57=002B35|52=20190612-16:29:27.241|131=20190612-000000000048.00|146=1|55=TFIC13280425|762=RFQF|48=20626|22=M|54=1|38=500000000|453=3|448=001B27|447=C|452=12|448=001|447=C|452=1|448=002B35|447=C|452=37|10=011|
8=FIX.4.4|9=206|35=S|34=2|49=002|50=002B35|52=20190612-16:29:38.164|56=EXC|55=TFIC13280425|62=20190617-22:00:00.000|117=20190612112917_S|131=20190612-000000000048.00|135=500000000|634=4|762=RFQF|453=1|448=DCV|447=C|452=10|10=057|
8=FIX.4.4|9=0301|35=AI|34=3|49=EXC|56=002|57=002B35|52=20190612-16:29:38.157|131=20190612-000000000048.00|117=20190612112917_S|453=4|448=DCV|447=C|452=10|448=001B27|447=C|452=12|448=001|447=C|452=1|448=002B35|447=C|452=37|55=TFIC13280425|762=RFQF|48=20626|22=M|54=1|634=4.000|135=500000000|62=20190617-22:00:00|297=16|10=237|
8=FIX.4.4|9=0515|35=8|34=4|49=EXC|56=002|57=002B35|52=20190612-16:29:48.732|11=20190612112917_S|17=15|37=0|150=F|1080=20190612-000000000048.00|1081=6|453=6|448=002B35|447=C|452=12|448=002|447=C|452=1|448=001B27|447=C|452=37|448=001|447=C|452=17|448=002FCM001|447=C|452=36|448=DCV|447=C|452=10|55=TFIC13280425|762=RFQF|48=20626|22=M|6=79.414|14=500000000|31=79.414|32=500000000|38=500000000|39=2|20102=79.414|54=2|60=20190612-16:29:48.732|75=20190612|63=1|64=20190612|151=0|1623=4.000|381=397072500.000|880=201906120000000066|828=99|10=109|
8=FIX.4.4|9=68|35=2|34=3|49=002|50=002B35|52=20190612-16:29:48.839|56=EXC|7=3|16=0|10=195|
8=FIX.4.4|9=0332|35=AI|34=3|43=Y|52=20190612-16:29:48.825|49=EXC|56=002|57=002B35|122=20190612-16:29:38.157|131=20190612-000000000048.00|117=20190612112917_S|453=4|448=DCV|447=C|452=10|448=001B27|447=C|452=12|448=001|447=C|452=1|448=002B35|447=C|452=37|55=TFIC13280425|762=RFQF|48=20626|22=M|54=1|634=4.000|135=500000000|62=20190617-22:00:00|297=16|10=003|
8=FIX.4.4|9=0546|35=8|34=4|43=Y|52=20190612-16:29:48.825|49=EXC|56=002|57=002B35|122=20190612-16:29:48.732|11=20190612112917_S|17=15|37=0|150=F|1080=20190612-000000000048.00|1081=6|453=6|448=002B35|447=C|452=12|448=002|447=C|452=1|448=001B27|447=C|452=37|448=001|447=C|452=17|448=002FCM001|447=C|452=36|448=DCV|447=C|452=10|55=TFIC13280425|762=RFQF|48=20626|22=M|6=79.414|14=500000000|31=79.414|32=500000000|38=500000000|39=2|20102=79.414|54=2|60=20190612-16:29:48.732|75=20190612|63=1|64=20190612|151=0|1623=4.000|381=397072500.000|880=201906120000000066|828=99|10=131|
8=FIX.4.4|9=0054|35=4|34=5|49=EXC|56=002|52=20190612-16:29:48.825|36=6|10=158|
8=FIX.4.4|9=0049|35=0|34=6|49=EXC|56=002|52=20190612-16:30:18.000|10=168|
8=FIX.4.4|9=59|35=0|34=4|49=002|50=002B35|52=20190612-16:30:19.825|56=EXC|10=054|
8=FIX.4.4|9=105|35=A|34=1|49=002|50=002B35|52=20190612-16:44:39.887|56=EXC|98=0|108=30|141=Y|553=002FCM001|554=002FCM001|10=106|
8=FIX.4.4|9=0067|35=A|34=1|49=EXC|56=002|52=20190612-16:44:39.936|98=0|108=30|141=Y|10=020|
8=FIX.4.4|9=0225|35=R|34=2|49=EXC|56=002|57=002B35|52=20190612-16:44:47.294|131=20190612-000000000055.00|146=1|55=TFIC13280425|762=RFQF|48=20626|22=M|54=1|38=500000000|453=3|448=001B27|447=C|452=12|448=001|447=C|452=1|448=002B35|447=C|452=37|10=016|
8=FIX.4.4|9=206|35=S|34=2|49=002|50=002B35|52=20190612-16:45:02.988|56=EXC|55=TFIC13280425|62=20190617-22:00:00.000|117=20190612114437_S|131=20190612-000000000055.00|135=500000000|634=4|762=RFQF|453=1|448=DCV|447=C|452=10|10=057|
8=FIX.4.4|9=0301|35=AI|34=3|49=EXC|56=002|57=002B35|52=20190612-16:45:02.981|131=20190612-000000000055.00|117=20190612114437_S|453=4|448=DCV|447=C|452=10|448=001B27|447=C|452=12|448=001|447=C|452=1|448=002B35|447=C|452=37|55=TFIC13280425|762=RFQF|48=20626|22=M|54=1|634=4.000|135=500000000|62=20190617-22:00:00|297=16|10=228|
8=FIX.4.4|9=0515|35=8|34=4|49=EXC|56=002|57=002B35|52=20190612-16:45:13.645|11=20190612114437_S|17=16|37=0|150=F|1080=20190612-000000000055.00|1081=6|453=6|448=002B35|447=C|452=12|448=002|447=C|452=1|448=001B27|447=C|452=37|448=001|447=C|452=17|448=002FCM001|447=C|452=36|448=DCV|447=C|452=10|55=TFIC13280425|762=RFQF|48=20626|22=M|6=79.414|14=500000000|31=79.414|32=500000000|38=500000000|39=2|20102=79.414|54=2|60=20190612-16:45:13.645|75=20190612|63=1|64=20190612|151=0|1623=4.000|381=397072500.000|880=201906120000000070|828=99|10=088|
8=FIX.4.4|9=68|35=2|34=3|49=002|50=002B35|52=20190612-16:45:13.746|56=EXC|7=3|16=0|10=182|
8=FIX.4.4|9=0332|35=AI|34=3|43=Y|52=20190612-16:45:13.738|49=EXC|56=002|57=002B35|122=20190612-16:45:02.981|131=20190612-000000000055.00|117=20190612114437_S|453=4|448=DCV|447=C|452=10|448=001B27|447=C|452=12|448=001|447=C|452=1|448=002B35|447=C|452=37|55=TFIC13280425|762=RFQF|48=20626|22=M|54=1|634=4.000|135=500000000|62=20190617-22:00:00|297=16|10=243|
8=FIX.4.4|9=0546|35=8|34=4|43=Y|52=20190612-16:45:13.738|49=EXC|56=002|57=002B35|122=20190612-16:45:13.645|11=20190612114437_S|17=16|37=0|150=F|1080=20190612-000000000055.00|1081=6|453=6|448=002B35|447=C|452=12|448=002|447=C|452=1|448=001B27|447=C|452=37|448=001|447=C|452=17|448=002FCM001|447=C|452=36|448=DCV|447=C|452=10|55=TFIC13280425|762=RFQF|48=20626|22=M|6=79.414|14=500000000|31=79.414|32=500000000|38=500000000|39=2|20102=79.414|54=2|60=20190612-16:45:13.645|75=20190612|63=1|64=20190612|151=0|1623=4.000|381=397072500.000|880=201906120000000070|828=99|10=103|
8=FIX.4.4|9=0054|35=4|34=5|49=EXC|56=002|52=20190612-16:45:13.738|36=6|10=151|
8=FIX.4.4|9=105|35=A|34=1|49=002|50=002B35|52=20190612-16:55:03.280|56=EXC|98=0|108=30|141=Y|553=002FCM001|554=002FCM001|10=086|
8=FIX.4.4|9=0067|35=A|34=1|49=EXC|56=002|52=20190612-16:55:03.310|98=0|108=30|141=Y|10=255|
8=FIX.4.4|9=0225|35=R|34=2|49=EXC|56=002|57=002B35|52=20190612-16:55:10.599|131=20190612-000000000056.00|146=1|55=TFIC13280425|762=RFQF|48=20626|22=M|54=1|38=500000000|453=3|448=001B27|447=C|452=12|448=001|447=C|452=1|448=002B35|447=C|452=37|10=017|
8=FIX.4.4|9=105|35=A|34=1|49=002|50=002B35|52=20190612-16:56:24.097|56=EXC|98=0|108=30|141=Y|553=002FCM001|554=002FCM001|10=096|
8=FIX.4.4|9=0067|35=A|34=1|49=EXC|56=002|52=20190612-16:56:24.130|98=0|108=30|141=Y|10=003|
8=FIX.4.4|9=0225|35=R|34=2|49=EXC|56=002|57=002B35|52=20190612-16:56:31.378|131=20190612-000000000057.00|146=1|55=TFIC13280425|762=RFQF|48=20626|22=M|54=1|38=500000000|453=3|448=001B27|447=C|452=12|448=001|447=C|452=1|448=002B35|447=C|452=37|10=017|
8=FIX.4.4|9=206|35=S|34=2|49=002|50=002B35|52=20190612-16:56:47.166|56=EXC|55=TFIC13280425|62=20190617-22:00:00.000|117=20190612115621_S|131=20190612-000000000057.00|135=500000000|634=4|762=RFQF|453=1|448=DCV|447=C|452=10|10=054|
8=FIX.4.4|9=0301|35=AI|34=3|49=EXC|56=002|57=002B35|52=20190612-16:56:47.160|131=20190612-000000000057.00|117=20190612115621_S|453=4|448=DCV|447=C|452=10|448=001B27|447=C|452=12|448=001|447=C|452=1|448=002B35|447=C|452=37|55=TFIC13280425|762=RFQF|48=20626|22=M|54=1|634=4.000|135=500000000|62=20190617-22:00:00|297=16|10=226|
8=FIX.4.4|9=0515|35=8|34=4|49=EXC|56=002|57=002B35|52=20190612-16:57:02.577|11=20190612115621_S|17=17|37=0|150=F|1080=20190612-000000000057.00|1081=6|453=6|448=002B35|447=C|452=12|448=002|447=C|452=1|448=001B27|447=C|452=37|448=001|447=C|452=17|448=002FCM001|447=C|452=36|448=DCV|447=C|452=10|55=TFIC13280425|762=RFQF|48=20626|22=M|6=79.414|14=500000000|31=79.414|32=500000000|38=500000000|39=2|20102=79.414|54=2|60=20190612-16:57:02.577|75=20190612|63=1|64=20190612|151=0|1623=4.000|381=397072500.000|880=201906120000000079|828=99|10=106|
8=FIX.4.4|9=59|35=0|34=3|49=002|50=002B35|52=20190612-16:57:18.005|56=EXC|10=051|
8=FIX.4.4|9=105|35=A|34=1|49=002|50=002B35|52=20190612-19:36:17.066|56=EXC|98=0|108=30|141=Y|553=002FCM001|554=002FCM001|10=095|
8=FIX.4.4|9=0067|35=A|34=1|49=EXC|56=002|52=20190612-19:36:17.117|98=0|108=30|141=Y|10=011|
8=FIX.4.4|9=0226|35=R|34=2|49=EXC|56=002|57=002B35|52=20190612-19:36:24.383|131=20190612-000000000067.00|146=1|55=TFIT16280428|762=RFQF|48=20399|22=M|54=1|38=1000000000|453=3|448=001B27|447=C|452=12|448=001|447=C|452=1|448=002B35|447=C|452=37|10=092|
8=FIX.4.4|9=207|35=S|34=2|49=002|50=002B35|52=20190612-19:36:40.017|56=EXC|55=TFIT16280428|62=20190617-22:00:00.000|117=20190612143614_S|131=20190612-000000000067.00|135=1000000000|634=3|762=RFQF|453=1|448=DCV|447=C|452=10|10=114|
8=FIX.4.4|9=0302|35=AI|34=3|49=EXC|56=002|57=002B35|52=20190612-19:36:40.031|131=20190612-000000000067.00|117=20190612143614_S|453=4|448=DCV|447=C|452=10|448=001B27|447=C|452=12|448=001|447=C|452=1|448=002B35|447=C|452=37|55=TFIT16280428|762=RFQF|48=20399|22=M|54=1|634=3.000|135=1000000000|62=20190617-22:00:00|297=16|10=039|
8=FIX.4.4|9=86|35=Z|34=3|49=002|50=002B35|52=20190612-19:36:55.486|56=EXC|117=20190612143614_S|298=5|10=210|
8=FIX.4.4|9=0287|35=AI|34=4|49=EXC|56=002|57=002B35|52=20190612-19:36:55.500|131=20190612-000000000067.00|117=20190612143614_S|298=5|453=4|448=DCV|447=C|452=10|448=001B27|447=C|452=12|448=001|447=C|452=1|448=002B35|447=C|452=37|55=TFIT16280428|762=RFQF|48=20399|22=M|54=1|634=3.000|135=1000000000|297=17|10=077|
8=FIX.4.4|9=105|35=A|34=1|49=002|50=002B35|52=20190612-19:56:51.714|56=EXC|98=0|108=30|141=Y|553=002FCM001|554=002FCM001|10=095|
8=FIX.4.4|9=0067|35=A|34=1|49=EXC|56=002|52=20190612-19:56:51.751|98=0|108=30|141=Y|10=015|
8=FIX.4.4|9=0225|35=R|34=2|49=EXC|56=002|57=002B35|52=20190612-19:56:59.046|131=20190612-000000000068.00|146=1|55=TFIC13280425|762=RFQF|48=20626|22=M|54=1|38=500000000|453=3|448=001B27|447=C|452=12|448=001|447=C|452=1|448=002B35|447=C|452=37|10=024|
8=FIX.4.4|9=207|35=S|34=2|49=002|50=002B35|52=20190612-19:57:14.686|56=EXC|55=TFIC13280425|62=20190617-22:00:00.000|117=201906121456491_S|131=20190612-000000000068.00|135=500000000|634=4|762=RFQF|453=1|448=DCV|447=C|452=10|10=124|
8=FIX.4.4|9=0302|35=AI|34=3|49=EXC|56=002|57=002B35|52=20190612-19:57:14.698|131=20190612-000000000068.00|117=201906121456491_S|453=4|448=DCV|447=C|452=10|448=001B27|447=C|452=12|448=001|447=C|452=1|448=002B35|447=C|452=37|55=TFIC13280425|762=RFQF|48=20626|22=M|54=1|634=4.000|135=500000000|62=20190617-22:00:00|297=16|10=049|
8=FIX.4.4|9=0516|35=8|34=4|49=EXC|56=002|57=002B35|52=20190612-19:57:30.042|11=201906121456491_S|17=18|37=0|150=F|1080=20190612-000000000068.00|1081=6|453=6|448=002B35|447=C|452=12|448=002|447=C|452=1|448=001B27|447=C|452=37|448=001|447=C|452=17|448=002FCM001|447=C|452=36|448=DCV|447=C|452=10|55=TFIC13280425|762=RFQF|48=20626|22=M|6=79.414|14=500000000|31=79.414|32=500000000|38=500000000|39=2|20102=79.414|54=2|60=20190612-19:57:30.042|75=20190612|63=1|64=20190612|151=0|1623=4.000|381=397072500.000|880=201906120000000093|828=99|10=150|
8=FIX.4.4|9=59|35=0|34=3|49=002|50=002B35|52=20190612-19:57:45.641|56=EXC|10=060|
8=FIX.4.4|9=105|35=A|34=1|49=002|50=002B35|52=20190612-19:58:09.022|56=EXC|98=0|108=30|141=Y|553=002FCM001|554=002FCM001|10=092|
8=FIX.4.4|9=0067|35=A|34=1|49=EXC|56=002|52=20190612-19:58:09.058|98=0|108=30|141=Y|10=020|
8=FIX.4.4|9=0226|35=R|34=2|49=EXC|56=002|57=002B35|52=20190612-19:58:16.287|131=20190612-000000000069.00|146=1|55=TFIT16280428|762=RFQF|48=20399|22=M|54=1|38=1000000000|453=3|448=001B27|447=C|452=12|448=001|447=C|452=1|448=002B35|447=C|452=37|10=102|
8=FIX.4.4|9=208|35=S|34=2|49=002|50=002B35|52=20190612-19:58:31.927|56=EXC|55=TFIT16280428|62=20190617-22:00:00.000|117=201906121458062_S|131=20190612-000000000069.00|135=1000000000|634=3|762=RFQF|453=1|448=DCV|447=C|452=10|10=186|
8=FIX.4.4|9=0303|35=AI|34=3|49=EXC|56=002|57=002B35|52=20190612-19:58:31.938|131=20190612-000000000069.00|117=201906121458062_S|453=4|448=DCV|447=C|452=10|448=001B27|447=C|452=12|448=001|447=C|452=1|448=002B35|447=C|452=37|55=TFIT16280428|762=RFQF|48=20399|22=M|54=1|634=3.000|135=1000000000|62=20190617-22:00:00|297=16|10=117|
8=FIX.4.4|9=86|35=Z|34=3|49=002|50=002B35|52=20190612-19:58:47.326|56=EXC|117=20190612145808_S|298=5|10=215|
8=FIX.4.4|9=0147|35=AI|34=4|49=EXC|56=002|57=002B35|52=20190612-19:58:47.337|117=20190612145808_S|298=5|55=Unknown|297=9|300=99|58=(333): ID de cotización inválida|10=135|
8=FIX.4.4|9=105|35=A|34=1|49=002|50=002B35|52=20190612-20:04:55.454|56=EXC|98=0|108=30|141=Y|553=002FCM001|554=002FCM001|10=085|
8=FIX.4.4|9=0067|35=A|34=1|49=EXC|56=002|52=20190612-20:04:55.495|98=0|108=30|141=Y|10=009|
8=FIX.4.4|9=0226|35=R|34=2|49=EXC|56=002|57=002B35|52=20190612-20:05:02.774|131=20190612-000000000070.00|146=1|55=TFIT16280428|762=RFQF|48=20399|22=M|54=1|38=1000000000|453=3|448=001B27|447=C|452=12|448=001|447=C|452=1|448=002B35|447=C|452=37|10=074|
8=FIX.4.4|9=208|35=S|34=2|49=002|50=002B35|52=20190612-20:05:18.637|56=EXC|55=TFIT16280428|62=20190617-22:00:00.000|117=201906121504532_S|131=20190612-000000000070.00|135=1000000000|634=3|762=RFQF|453=1|448=DCV|447=C|452=10|10=159|
8=FIX.4.4|9=0303|35=AI|34=3|49=EXC|56=002|57=002B35|52=20190612-20:05:18.647|131=20190612-000000000070.00|117=201906121504532_S|453=4|448=DCV|447=C|452=10|448=001B27|447=C|452=12|448=001|447=C|452=1|448=002B35|447=C|452=37|55=TFIT16280428|762=RFQF|48=20399|22=M|54=1|634=3.000|135=1000000000|62=20190617-22:00:00|297=16|10=089|
8=FIX.4.4|9=87|35=Z|34=3|49=002|50=002B35|52=20190612-20:05:34.054|56=EXC|117=201906121504532_S|298=5|10=236|
8=FIX.4.4|9=0288|35=AI|34=4|49=EXC|56=002|57=002B35|52=20190612-20:05:34.065|131=20190612-000000000070.00|117=201906121504532_S|298=5|453=4|448=DCV|447=C|452=10|448=001B27|447=C|452=12|448=001|447=C|452=1|448=002B35|447=C|452=37|55=TFIT16280428|762=RFQF|48=20399|22=M|54=1|634=3.000|135=1000000000|297=17|10=112|
8=FIX.4.4|9=0225|35=R|34=5|49=EXC|56=002|57=002B35|52=20190612-20:05:49.453|131=20190612-000000000071.00|146=1|55=TFIT16300632|762=RFQF|48=20406|22=M|54=1|38=500000000|453=3|448=001B27|447=C|452=12|448=001|447=C|452=1|448=002B35|447=C|452=37|10=017|
8=FIX.4.4|9=105|35=A|34=1|49=002|50=002B35|52=20190612-20:08:47.273|56=EXC|98=0|108=30|141=Y|553=002FCM001|554=002FCM001|10=089|
8=FIX.4.4|9=0067|35=A|34=1|49=EXC|56=002|52=20190612-20:08:47.312|98=0|108=30|141=Y|10=002|
8=FIX.4.4|9=0225|35=R|34=2|49=EXC|56=002|57=002B35|52=20190612-20:08:54.651|131=20190612-000000000072.00|146=1|55=TFIT16300632|762=RFQF|48=20406|22=M|54=1|38=500000000|453=3|448=001B27|447=C|452=12|448=001|447=C|452=1|448=002B35|447=C|452=37|10=014|
8=FIX.4.4|9=0217|35=R|34=3|49=EXC|56=002|57=002B35|52=20190612-20:09:10.239|131=20190612-000000000072.00|146=1|55=TFIT16300632|762=RFQF|48=20406|22=M|54=1|38=0|453=3|448=001B27|447=C|452=12|448=001|447=C|452=1|448=002B35|447=C|452=37|10=134|
8=FIX.4.4|9=59|35=0|34=2|49=002|50=002B35|52=20190612-20:09:18.237|56=EXC|10=049|
8=FIX.4.4|9=105|35=A|34=1|49=002|50=002B35|52=20190612-21:05:06.670|56=EXC|98=0|108=30|141=Y|553=002FCM001|554=002FCM001|10=083|
8=FIX.4.4|9=0067|35=A|34=1|49=EXC|56=002|52=20190612-21:05:06.701|98=0|108=30|141=Y|10=253|
8=FIX.4.4|9=0225|35=R|34=2|49=EXC|56=002|57=002B35|52=20190612-21:05:14.004|131=20190612-000000000079.00|146=1|55=TFIC13280425|762=RFQF|48=20626|22=M|54=1|38=500000000|453=3|448=001B27|447=C|452=12|448=001|447=C|452=1|448=002B35|447=C|452=37|10=254|
8=FIX.4.4|9=207|35=S|34=2|49=002|50=002B35|52=20190612-21:05:29.627|56=EXC|55=TFIC13280425|62=20190617-22:00:00.000|117=201906121605041_S|131=20190612-000000000079.00|135=500000000|634=4|762=RFQF|453=1|448=DCV|447=C|452=10|10=100|
8=FIX.4.4|9=0302|35=AI|34=3|49=EXC|56=002|57=002B35|52=20190612-21:05:29.624|131=20190612-000000000079.00|117=201906121605041_S|453=4|448=DCV|447=C|452=10|448=001B27|447=C|452=12|448=001|447=C|452=1|448=002B35|447=C|452=37|55=TFIC13280425|762=RFQF|48=20626|22=M|54=1|634=4.000|135=500000000|62=20190617-22:00:00|297=16|10=019|
8=FIX.4.4|9=0516|35=8|34=4|49=EXC|56=002|57=002B35|52=20190612-21:05:45.120|11=201906121605041_S|17=19|37=0|150=F|1080=20190612-000000000079.00|1081=6|453=6|448=002B35|447=C|452=12|448=002|447=C|452=1|448=001B27|447=C|452=37|448=001|447=C|452=17|448=002FCM001|447=C|452=36|448=DCV|447=C|452=10|55=TFIC13280425|762=RFQF|48=20626|22=M|6=79.414|14=500000000|31=79.414|32=500000000|38=500000000|39=2|20102=79.414|54=2|60=20190612-21:05:45.120|75=20190612|63=1|64=20190612|151=0|1623=4.000|381=397072500.000|880=201906120000000129|828=99|10=118|
8=FIX.4.4|9=59|35=0|34=3|49=002|50=002B35|52=20190612-21:05:59.619|56=EXC|10=056|
8=FIX.4.4|9=0049|35=0|34=5|49=EXC|56=002|52=20190612-21:06:15.000|10=163|
8=FIX.4.4|9=59|35=0|34=4|49=002|50=002B35|52=20190612-21:06:29.619|56=EXC|10=055|
8=FIX.4.4|9=0049|35=0|34=6|49=EXC|56=002|52=20190612-21:06:45.000|10=167|
8=FIX.4.4|9=59|35=0|34=5|49=002|50=002B35|52=20190612-21:06:59.619|56=EXC|10=059|
8=FIX.4.4|9=0049|35=0|34=7|49=EXC|56=002|52=20190612-21:07:15.000|10=166|
8=FIX.4.4|9=59|35=0|34=6|49=002|50=002B35|52=20190612-21:07:29.619|56=EXC|10=058|
8=FIX.4.4|9=0049|35=0|34=8|49=EXC|56=002|52=20190612-21:07:45.000|10=170|
8=FIX.4.4|9=59|35=0|34=7|49=002|50=002B35|52=20190612-21:07:59.618|56=EXC|10=061|
8=FIX.4.4|9=0049|35=0|34=9|49=EXC|56=002|52=20190612-21:08:15.000|10=169|
8=FIX.4.4|9=59|35=0|34=8|49=002|50=002B35|52=20190612-21:08:29.617|56=EXC|10=059|
8=FIX.4.4|9=0050|35=0|34=10|49=EXC|56=002|52=20190612-21:08:45.000|10=204|
8=FIX.4.4|9=59|35=0|34=9|49=002|50=002B35|52=20190612-21:08:59.619|56=EXC|10=065|
8=FIX.4.4|9=0050|35=0|34=11|49=EXC|56=002|52=20190612-21:09:15.000|10=203|
8=FIX.4.4|9=60|35=0|34=10|49=002|50=002B35|52=20190612-21:09:29.619|56=EXC|10=095|
8=FIX.4.4|9=0050|35=0|34=12|49=EXC|56=002|52=20190612-21:09:45.000|10=207|
8=FIX.4.4|9=60|35=0|34=11|49=002|50=002B35|52=20190612-21:09:59.617|56=EXC|10=097|
8=FIX.4.4|9=0050|35=0|34=13|49=EXC|56=002|52=20190612-21:10:15.000|10=197|
8=FIX.4.4|9=60|35=0|34=12|49=002|50=002B35|52=20190612-21:10:29.618|56=EXC|10=088|
8=FIX.4.4|9=0050|35=0|34=14|49=EXC|56=002|52=20190612-21:10:45.000|10=201|
8=FIX.4.4|9=105|35=A|34=1|49=002|50=002B35|52=20190612-21:13:21.016|56=EXC|98=0|108=30|141=Y|553=002FCM001|554=002FCM001|10=073|
8=FIX.4.4|9=0067|35=A|34=1|49=EXC|56=002|52=20190612-21:13:21.041|98=0|108=30|141=Y|10=246|
8=FIX.4.4|9=0225|35=R|34=2|49=EXC|56=002|57=002B35|52=20190612-21:13:28.276|131=20190612-000000000080.00|146=1|55=TFIC13280425|762=RFQF|48=20626|22=M|54=1|38=500000000|453=3|448=001B27|447=C|452=12|448=001|447=C|452=1|448=002B35|447=C|452=37|10=005|
8=FIX.4.4|9=207|35=S|34=2|49=002|50=002B35|52=20190612-21:13:43.972|56=EXC|55=TFIC13280425|62=20190617-22:00:00.000|117=201906121613181_S|131=20190612-000000000080.00|135=500000000|634=4|762=RFQF|453=1|448=DCV|447=C|452=10|10=094|
8=FIX.4.4|9=0302|35=AI|34=3|49=EXC|56=002|57=002B35|52=20190612-21:13:43.969|131=20190612-000000000080.00|117=201906121613181_S|453=4|448=DCV|447=C|452=10|448=001B27|447=C|452=12|448=001|447=C|452=1|448=002B35|447=C|452=37|55=TFIC13280425|762=RFQF|48=20626|22=M|54=1|634=4.000|135=500000000|62=20190617-22:00:00|297=16|10=022|
8=FIX.4.4|9=0516|35=8|34=4|49=EXC|56=002|57=002B35|52=20190612-21:13:59.499|11=201906121613181_S|17=20|37=0|150=F|1080=20190612-000000000080.00|1081=6|453=6|448=002B35|447=C|452=12|448=002|447=C|452=1|448=001B27|447=C|452=37|448=001|447=C|452=17|448=002FCM001|447=C|452=36|448=DCV|447=C|452=10|55=TFIC13280425|762=RFQF|48=20626|22=M|6=79.414|14=500000000|31=79.414|32=500000000|38=500000000|39=2|20102=79.414|54=2|60=20190612-21:13:59.499|75=20190612|63=1|64=20190612|151=0|1623=4.000|381=397072500.000|880=201906120000000139|828=99|10=153|
8=FIX.4.4|9=59|35=0|34=3|49=002|50=002B35|52=20190612-21:14:13.971|56=EXC|10=047|
8=FIX.4.4|9=0049|35=0|34=5|49=EXC|56=002|52=20190612-21:14:29.000|10=167|
8=FIX.4.4|9=59|35=0|34=4|49=002|50=002B35|52=20190612-21:14:43.971|56=EXC|10=051|
8=FIX.4.4|9=105|35=A|34=1|49=002|50=002B35|52=20190612-21:17:38.540|56=EXC|98=0|108=30|141=Y|553=002FCM001|554=002FCM001|10=087|
8=FIX.4.4|9=0067|35=A|34=1|49=EXC|56=002|52=20190612-21:17:38.562|98=0|108=30|141=Y|10=010|
8=FIX.4.4|9=0049|35=0|34=2|49=EXC|56=002|52=20190612-21:18:08.000|10=165|
8=FIX.4.4|9=59|35=0|34=2|49=002|50=002B35|52=20190612-21:18:09.476|56=EXC|10=055|
8=FIX.4.4|9=105|35=A|34=1|49=002|50=002B35|52=20190612-21:42:39.498|56=EXC|98=0|108=30|141=Y|553=002FCM001|554=002FCM001|10=098|
8=FIX.4.4|9=0067|35=A|34=1|49=EXC|56=002|52=20190612-21:42:39.453|98=0|108=30|141=Y|10=008|
8=FIX.4.4|9=105|35=A|34=1|49=002|50=002B35|52=20190612-21:50:53.642|56=EXC|98=0|108=30|141=Y|553=002FCM001|554=002FCM001|10=084|
8=FIX.4.4|9=0067|35=A|34=1|49=EXC|56=002|52=20190612-21:50:53.632|98=0|108=30|141=Y|10=002|
8=FIX.4.4|9=0225|35=R|34=2|49=EXC|56=002|57=002B35|52=20190612-21:51:00.896|131=20190612-000000000081.00|146=1|55=TFIC13280425|762=RFQF|48=20626|22=M|54=1|38=500000000|453=3|448=001B27|447=C|452=12|448=001|447=C|452=1|448=002B35|447=C|452=37|10=006|
8=FIX.4.4|9=207|35=S|34=2|49=002|50=002B35|52=20190612-21:51:16.654|56=EXC|55=TFIC13280425|62=20190617-22:00:00.000|117=201906121650511_S|131=20190612-000000000081.00|135=500000000|634=4|762=RFQF|453=1|448=DCV|447=C|452=10|10=092|
8=FIX.4.4|9=0302|35=AI|34=3|49=EXC|56=002|57=002B35|52=20190612-21:51:16.618|131=20190612-000000000081.00|117=201906121650511_S|453=4|448=DCV|447=C|452=10|448=001B27|447=C|452=12|448=001|447=C|452=1|448=002B35|447=C|452=37|55=TFIC13280425|762=RFQF|48=20626|22=M|54=1|634=4.000|135=500000000|62=20190617-22:00:00|297=16|10=014|
8=FIX.4.4|9=0516|35=8|34=4|49=EXC|56=002|57=002B35|52=20190612-21:51:32.138|11=201906121650511_S|17=21|37=0|150=F|1080=20190612-000000000081.00|1081=6|453=6|448=002B35|447=C|452=12|448=002|447=C|452=1|448=001B27|447=C|452=37|448=001|447=C|452=17|448=002FCM001|447=C|452=36|448=DCV|447=C|452=10|55=TFIC13280425|762=RFQF|48=20626|22=M|6=79.414|14=500000000|31=79.414|32=500000000|38=500000000|39=2|20102=79.414|54=2|60=20190612-21:51:32.138|75=20190612|63=1|64=20190612|151=0|1623=4.000|381=397072500.000|880=201906120000000167|828=99|10=120|
8=FIX.4.4|9=59|35=0|34=3|49=002|50=002B35|52=20190612-21:51:47.542|56=EXC|10=049|
8=FIX.4.4|9=0225|35=R|34=5|49=EXC|56=002|57=002B35|52=20190612-21:51:53.034|131=20190612-000000000082.00|146=1|55=TFIT16280428|762=RFQF|48=20399|22=M|54=1|38=500000000|453=3|448=001B27|447=C|452=12|448=001|447=C|452=1|448=002B35|447=C|452=37|10=032|
8=FIX.4.4|9=207|35=S|34=4|49=002|50=002B35|52=20190612-21:52:13.767|56=EXC|55=TFIT16280428|62=20190617-22:00:00.000|117=201906121650512_S|131=20190612-000000000082.00|135=500000000|634=3|762=RFQF|453=1|448=DCV|447=C|452=10|10=121|
8=FIX.4.4|9=0302|35=AI|34=6|49=EXC|56=002|57=002B35|52=20190612-21:52:13.739|131=20190612-000000000082.00|117=201906121650512_S|453=4|448=DCV|447=C|452=10|448=001B27|447=C|452=12|448=001|447=C|452=1|448=002B35|447=C|452=37|55=TFIT16280428|762=RFQF|48=20399|22=M|54=1|634=3.000|135=500000000|62=20190617-22:00:00|297=16|10=050|
8=FIX.4.4|9=87|35=Z|34=5|49=002|50=002B35|52=20190612-21:52:29.152|56=EXC|117=201906121650512_S|298=5|10=244|
8=FIX.4.4|9=0287|35=AI|34=7|49=EXC|56=002|57=002B35|52=20190612-21:52:29.125|131=20190612-000000000082.00|117=201906121650512_S|298=5|453=4|448=DCV|447=C|452=10|448=001B27|447=C|452=12|448=001|447=C|452=1|448=002B35|447=C|452=37|55=TFIT16280428|762=RFQF|48=20399|22=M|54=1|634=3.000|135=500000000|297=17|10=077|
8=FIX.4.4|9=0225|35=R|34=8|49=EXC|56=002|57=002B35|52=20190612-21:52:44.494|131=20190612-000000000083.00|146=1|55=TFIT16300632|762=RFQF|48=20406|22=M|54=1|38=500000000|453=3|448=001B27|447=C|452=12|448=001|447=C|452=1|448=002B35|447=C|452=37|10=026|
8=FIX.4.4|9=68|35=2|34=6|49=002|50=002B35|52=20190612-21:52:49.589|56=EXC|7=7|16=0|10=197|
8=FIX.4.4|9=0318|35=AI|34=7|43=Y|52=20190612-21:52:49.563|49=EXC|56=002|57=002B35|122=20190612-21:52:29.125|131=20190612-000000000082.00|117=201906121650512_S|298=5|453=4|448=DCV|447=C|452=10|448=001B27|447=C|452=12|448=001|447=C|452=1|448=002B35|447=C|452=37|55=TFIT16280428|762=RFQF|48=20399|22=M|54=1|634=3.000|135=500000000|297=17|10=082|
8=FIX.4.4|9=0256|35=R|34=8|43=Y|52=20190612-21:52:49.563|49=EXC|56=002|57=002B35|122=20190612-21:52:44.494|131=20190612-000000000083.00|146=1|55=TFIT16300632|762=RFQF|48=20406|22=M|54=1|38=500000000|453=3|448=001B27|447=C|452=12|448=001|447=C|452=1|448=002B35|447=C|452=37|10=040|
8=FIX.4.4|9=0055|35=4|34=9|49=EXC|56=002|52=20190612-21:52:49.563|36=10|10=198|
8=FIX.4.4|9=0218|35=R|34=10|49=EXC|56=002|57=002B35|52=20190612-21:53:00.100|131=20190612-000000000083.00|146=1|55=TFIT16300632|762=RFQF|48=20406|22=M|54=1|38=0|453=3|448=001B27|447=C|452=12|448=001|447=C|452=1|448=002B35|447=C|452=37|10=169|
8=FIX.4.4|9=59|35=0|34=7|49=002|50=002B35|52=20190612-21:53:20.536|56=EXC|10=049|
8=FIX.4.4|9=0050|35=0|34=11|49=EXC|56=002|52=20190612-21:53:30.000|10=199|
8=FIX.4.4|9=59|35=0|34=8|49=002|50=002B35|52=20190612-21:53:50.533|56=EXC|10=050|
8=FIX.4.4|9=0050|35=0|34=12|49=EXC|56=002|52=20190612-21:54:00.000|10=198|
8=FIX.4.4|9=59|35=0|34=9|49=002|50=002B35|52=20190612-21:54:20.532|56=EXC|10=048|
8=FIX.4.4|9=0050|35=0|34=13|49=EXC|56=002|52=20190612-21:54:30.000|10=202|
8=FIX.4.4|9=60|35=0|34=10|49=002|50=002B35|52=20190612-21:54:50.529|56=EXC|10=089|
8=FIX.4.4|9=0050|35=0|34=14|49=EXC|56=002|52=20190612-21:55:00.000|10=201|
8=FIX.4.4|9=60|35=0|34=11|49=002|50=002B35|52=20190612-21:55:20.529|56=EXC|10=088|
8=FIX.4.4|9=0050|35=0|34=15|49=EXC|56=002|52=20190612-21:55:30.000|10=205|
8=FIX.4.4|9=105|35=A|34=1|49=002|50=002B35|52=20190613-16:47:33.165|56=EXC|98=0|108=30|141=Y|553=002FCM001|554=002FCM001|10=093|
8=FIX.4.4|9=0067|35=A|34=1|49=EXC|56=002|52=20190613-16:47:33.541|98=0|108=30|141=Y|10=010|
8=FIX.4.4|9=0225|35=R|34=2|49=EXC|56=002|57=002B35|52=20190613-16:47:40.948|131=20190613-000000000001.00|146=1|55=TFIC13280425|762=RFQF|48=20626|22=M|54=1|38=500000000|453=3|448=001B27|447=C|452=12|448=001|447=C|452=1|448=002B35|447=C|452=37|10=011|
8=FIX.4.4|9=59|35=0|34=2|49=002|50=002B35|52=20190613-16:48:04.141|56=EXC|10=047|
8=FIX.4.4|9=0049|35=0|34=3|49=EXC|56=002|52=20190613-16:48:10.000|10=167|
8=FIX.4.4|9=105|35=A|34=1|49=002|50=002B35|52=20190613-16:49:32.485|56=EXC|98=0|108=30|141=Y|553=002FCM001|554=002FCM001|10=099|
8=FIX.4.4|9=0067|35=A|34=1|49=EXC|56=002|52=20190613-16:49:32.882|98=0|108=30|141=Y|10=019|
8=FIX.4.4|9=0225|35=R|34=2|49=EXC|56=002|57=002B35|52=20190613-16:49:40.196|131=20190613-000000000002.00|146=1|55=TFIC13280425|762=RFQF|48=20626|22=M|54=1|38=500000000|453=3|448=001B27|447=C|452=12|448=001|447=C|452=1|448=002B35|447=C|452=37|10=009|
8=FIX.4.4|9=207|35=S|34=2|49=002|50=002B35|52=20190613-16:49:55.678|56=EXC|55=TFIC13280425|62=20190617-22:00:00.000|117=201906131149301_S|131=20190613-000000000002.00|135=500000000|634=4|762=RFQF|453=1|448=DCV|447=C|452=10|10=108|
8=FIX.4.4|9=0302|35=AI|34=3|49=EXC|56=002|57=002B35|52=20190613-16:49:56.055|131=20190613-000000000002.00|117=201906131149301_S|453=4|448=DCV|447=C|452=10|448=001B27|447=C|452=12|448=001|447=C|452=1|448=002B35|447=C|452=37|55=TFIC13280425|762=RFQF|48=20626|22=M|54=1|634=4.000|135=500000000|62=20190617-22:00:00|297=16|10=020|
8=FIX.4.4|9=0515|35=8|34=4|49=EXC|56=002|57=002B35|52=20190613-16:50:11.793|11=201906131149301_S|17=1|37=0|150=F|1080=20190613-000000000002.00|1081=6|453=6|448=002B35|447=C|452=12|448=002|447=C|452=1|448=001B27|447=C|452=37|448=001|447=C|452=17|448=002FCM001|447=C|452=36|448=DCV|447=C|452=10|55=TFIC13280425|762=RFQF|48=20626|22=M|6=79.423|14=500000000|31=79.423|32=500000000|38=500000000|39=2|20102=79.423|54=2|60=20190613-16:50:11.793|75=20190613|63=1|64=20190613|151=0|1623=4.000|381=397115500.000|880=201906130000000116|828=99|10=075|
8=FIX.4.4|9=59|35=0|34=3|49=002|50=002B35|52=20190613-16:50:26.417|56=EXC|10=051|
