8=FIX.4.4|9=110|35=A|34=1|49=001|50=001B27|52=20190611-15:51:59.791|56=EXC|43=Y|98=0|108=30|141=Y|553=001FCM001|554=001FCM001|10=089|
8=FIX.4.4|9=0067|35=A|34=1|49=EXC|56=001|52=20190611-15:51:59.792|98=0|108=30|141=Y|10=017|
8=FIX.4.4|9=178|35=R|34=2|49=001|50=001B27|52=20190611-15:52:02.108|56=EXC|131=68432363|146=1|55=TFIT16280428|22=M|762=RFQF|54=1|38=1000000000|453=2|448=002B35|447=C|452=37|448=DCV|447=C|452=10|10=116|
8=FIX.4.4|9=0260|35=AI|34=2|49=EXC|56=001|57=001B27|52=20190611-15:52:02.087|131=68432363|453=5|448=DCV|447=C|452=10|448=001B27|447=C|452=12|448=001|447=C|452=1|448=001FCM001|447=C|452=36|448=002B35|447=C|452=37|55=TFIT16280428|762=RFQF|48=20399|22=M|54=1|38=1000000000|297=10|10=019|
8=FIX.4.4|9=0049|35=0|34=3|49=EXC|56=001|52=20190611-15:52:32.000|10=162|
8=FIX.4.4|9=68|35=2|34=3|49=001|50=001B27|52=20190611-15:52:32.064|56=EXC|7=2|16=0|10=170|
8=FIX.4.4|9=0291|35=AI|34=2|43=Y|52=20190611-15:52:32.034|49=EXC|56=001|57=001B27|122=20190611-15:52:02.087|131=68432363|453=5|448=DCV|447=C|452=10|448=001B27|447=C|452=12|448=001|447=C|452=1|448=001FCM001|447=C|452=36|448=002B35|447=C|452=37|55=TFIT16280428|762=RFQF|48=20399|22=M|54=1|38=1000000000|297=10|10=020|
8=FIX.4.4|9=0065|35=4|34=3|43=Y|49=EXC|56=001|52=20190611-15:52:32.034|123=Y|36=4|10=177|
8=FIX.4.4|9=0054|35=4|34=4|49=EXC|56=001|52=20190611-15:52:32.034|36=5|10=134|
8=FIX.4.4|9=153|35=R|34=4|49=001|50=001B27|52=20190611-15:52:49.917|56=EXC|131=26412611|146=1|55=TFIT16300632|22=M|762=RFQF|54=1|38=500000000|453=1|448=DCV|447=C|452=10|10=194|
8=FIX.4.4|9=0235|35=AI|34=5|49=EXC|56=001|57=001B27|52=20190611-15:52:49.887|131=26412611|453=4|448=DCV|447=C|452=10|448=001B27|447=C|452=12|448=001|447=C|452=1|448=001FCM001|447=C|452=36|55=TFIT16300632|762=RFQF|48=20406|22=M|54=1|38=500000000|297=10|10=096|
8=FIX.4.4|9=0191|35=R|34=6|49=EXC|56=001|52=20190611-15:52:49.887|131=20190611-000000000042.00|146=1|55=TFIT16300632|762=RFQF|48=20406|22=M|54=1|38=500000000|453=2|448=001B27|447=C|452=12|448=001|447=C|452=1|10=188|
8=FIX.4.4|9=110|35=A|34=1|49=001|50=001B27|52=20190611-18:56:21.923|56=EXC|43=Y|98=0|108=30|141=Y|553=001FCM001|554=001FCM001|10=083|
8=FIX.4.4|9=0067|35=A|34=1|49=EXC|56=001|52=20190611-18:56:21.808|98=0|108=30|141=Y|10=012|
8=FIX.4.4|9=178|35=R|34=2|49=001|50=001B27|52=20190611-18:56:24.550|56=EXC|131=30382707|146=1|55=TFIT16280428|22=M|762=RFQF|54=1|38=1000000000|453=2|448=002B35|447=C|452=37|448=DCV|447=C|452=10|10=123|
8=FIX.4.4|9=0260|35=AI|34=2|49=EXC|56=001|57=001B27|52=20190611-18:56:24.367|131=30382707|453=5|448=DCV|447=C|452=10|448=001B27|447=C|452=12|448=001|447=C|452=1|448=001FCM001|447=C|452=36|448=002B35|447=C|452=37|55=TFIT16280428|762=RFQF|48=20399|22=M|54=1|38=1000000000|297=10|10=026|
8=FIX.4.4|9=110|35=A|34=1|49=001|50=001B27|52=20190611-19:22:22.977|56=EXC|43=Y|98=0|108=30|141=Y|553=001FCM001|554=001FCM001|10=087|
8=FIX.4.4|9=0067|35=A|34=1|49=EXC|56=001|52=20190611-19:22:23.024|98=0|108=30|141=Y|10=254|
8=FIX.4.4|9=178|35=R|34=2|49=001|50=001B27|52=20190611-19:22:25.398|56=EXC|131=63486983|146=1|55=TFIT16280428|22=M|762=RFQF|54=1|38=1000000000|453=2|448=002B35|447=C|452=37|448=DCV|447=C|452=10|10=145|
8=FIX.4.4|9=0260|35=AI|34=2|49=EXC|56=001|57=001B27|52=20190611-19:22:25.398|131=63486983|453=5|448=DCV|447=C|452=10|448=001B27|447=C|452=12|448=001|447=C|452=1|448=001FCM001|447=C|452=36|448=002B35|447=C|452=37|55=TFIT16280428|762=RFQF|48=20399|22=M|54=1|38=1000000000|297=10|10=042|
8=FIX.4.4|9=110|35=A|34=1|49=001|50=001B27|52=20190611-19:23:57.920|56=EXC|43=Y|98=0|108=30|141=Y|553=001FCM001|554=001FCM001|10=084|
8=FIX.4.4|9=0067|35=A|34=1|49=EXC|56=001|52=20190611-19:23:57.964|98=0|108=30|141=Y|10=019|
8=FIX.4.4|9=178|35=R|34=2|49=001|50=001B27|52=20190611-19:24:00.527|56=EXC|131=13829810|146=1|55=TFIT16280428|22=M|762=RFQF|54=1|38=1000000000|453=2|448=002B35|447=C|452=37|448=DCV|447=C|452=10|10=119|
8=FIX.4.4|9=0260|35=AI|34=2|49=EXC|56=001|57=001B27|52=20190611-19:24:00.528|131=13829810|453=5|448=DCV|447=C|452=10|448=001B27|447=C|452=12|448=001|447=C|452=1|448=001FCM001|447=C|452=36|448=002B35|447=C|452=37|55=TFIT16280428|762=RFQF|48=20399|22=M|54=1|38=1000000000|297=10|10=017|
8=FIX.4.4|9=110|35=A|34=1|49=001|50=001B27|52=20190611-19:26:32.264|56=EXC|43=Y|98=0|108=30|141=Y|553=001FCM001|554=001FCM001|10=081|
8=FIX.4.4|9=0067|35=A|34=1|49=EXC|56=001|52=20190611-19:26:32.324|98=0|108=30|141=Y|10=005|
8=FIX.4.4|9=178|35=R|34=2|49=001|50=001B27|52=20190611-19:26:34.647|56=EXC|131=13591507|146=1|55=TFIT16280428|22=M|762=RFQF|54=1|38=1000000000|453=2|448=002B35|447=C|452=37|448=DCV|447=C|452=10|10=130|
8=FIX.4.4|9=0260|35=AI|34=2|49=EXC|56=001|57=001B27|52=20190611-19:26:34.647|131=13591507|453=5|448=DCV|447=C|452=10|448=001B27|447=C|452=12|448=001|447=C|452=1|448=001FCM001|447=C|452=36|448=002B35|447=C|452=37|55=TFIT16280428|762=RFQF|48=20399|22=M|54=1|38=1000000000|297=10|10=027|
8=FIX.4.4|9=110|35=A|34=1|49=001|50=001B27|52=20190611-19:33:12.911|56=EXC|43=Y|98=0|108=30|141=Y|553=001FCM001|554=001FCM001|10=076|
8=FIX.4.4|9=0067|35=A|34=1|49=EXC|56=001|52=20190611-19:33:13.015|98=0|108=30|141=Y|10=255|
8=FIX.4.4|9=178|35=R|34=2|49=001|50=001B27|52=20190611-19:33:15.542|56=EXC|131=43732210|146=1|55=TFIT16280428|22=M|762=RFQF|54=1|38=1000000000|453=2|448=002B35|447=C|452=37|448=DCV|447=C|452=10|10=112|
8=FIX.4.4|9=0260|35=AI|34=2|49=EXC|56=001|57=001B27|52=20190611-19:33:15.546|131=43732210|453=5|448=DCV|447=C|452=10|448=001B27|447=C|452=12|448=001|447=C|452=1|448=001FCM001|447=C|452=36|448=002B35|447=C|452=37|55=TFIT16280428|762=RFQF|48=20399|22=M|54=1|38=1000000000|297=10|10=013|
8=FIX.4.4|9=110|35=A|34=1|49=001|50=001B27|52=20190611-19:39:31.477|56=EXC|43=Y|98=0|108=30|141=Y|553=001FCM001|554=001FCM001|10=090|
8=FIX.4.4|9=0067|35=A|34=1|49=EXC|56=001|52=20190611-19:39:31.557|98=0|108=30|141=Y|10=016|
8=FIX.4.4|9=178|35=R|34=2|49=001|50=001B27|52=20190611-19:39:33.945|56=EXC|131=72244724|146=1|55=TFIT16280428|22=M|762=RFQF|54=1|38=1000000000|453=2|448=002B35|447=C|452=37|448=DCV|447=C|452=10|10=135|
8=FIX.4.4|9=0260|35=AI|34=2|49=EXC|56=001|57=001B27|52=20190611-19:39:33.945|131=72244724|453=5|448=DCV|447=C|452=10|448=001B27|447=C|452=12|448=001|447=C|452=1|448=001FCM001|447=C|452=36|448=002B35|447=C|452=37|55=TFIT16280428|762=RFQF|48=20399|22=M|54=1|38=1000000000|297=10|10=032|
8=FIX.4.4|9=0308|35=S|34=3|49=EXC|56=001|57=001B27|52=20190611-19:39:49.791|131=72244724|117=20190611-000000000063.00|55=TFIT16280428|762=RFQF|48=20399|22=M|453=5|448=DCV|447=C|452=10|448=001B27|447=C|452=12|448=001|447=C|452=1|448=001FCM001|447=C|452=36|448=002B35|447=C|452=37|634=3.000|135=1000000000|62=20190617-22:00:00|10=072|
8=FIX.4.4|9=68|35=2|34=3|49=001|50=001B27|52=20190611-19:39:49.823|56=EXC|7=2|16=0|10=190|
8=FIX.4.4|9=0291|35=AI|34=2|43=Y|52=20190611-19:39:49.824|49=EXC|56=001|57=001B27|122=20190611-19:39:33.945|131=72244724|453=5|448=DCV|447=C|452=10|448=001B27|447=C|452=12|448=001|447=C|452=1|448=001FCM001|447=C|452=36|448=002B35|447=C|452=37|55=TFIT16280428|762=RFQF|48=20399|22=M|54=1|38=1000000000|297=10|10=057|
8=FIX.4.4|9=0339|35=S|34=3|43=Y|52=20190611-19:39:49.824|49=EXC|56=001|57=001B27|122=20190611-19:39:49.791|131=72244724|117=20190611-000000000063.00|55=TFIT16280428|762=RFQF|48=20399|22=M|453=5|448=DCV|447=C|452=10|448=001B27|447=C|452=12|448=001|447=C|452=1|448=001FCM001|447=C|452=36|448=002B35|447=C|452=37|634=3.000|135=1000000000|62=20190617-22:00:00|10=097|
8=FIX.4.4|9=0054|35=4|34=4|49=EXC|56=001|52=20190611-19:39:49.824|36=5|10=158|
8=FIX.4.4|9=110|35=A|34=1|49=001|50=001B27|52=20190611-19:44:55.723|56=EXC|43=Y|98=0|108=30|141=Y|553=001FCM001|554=001FCM001|10=086|
8=FIX.4.4|9=0067|35=A|34=1|49=EXC|56=001|52=20190611-19:44:56.165|98=0|108=30|141=Y|10=014|
8=FIX.4.4|9=178|35=R|34=2|49=001|50=001B27|52=20190611-19:45:03.272|56=EXC|131=38596742|146=1|55=TFIT16280428|22=M|762=RFQF|54=1|38=1000000000|453=2|448=002B35|447=C|452=37|448=DCV|447=C|452=10|10=134|
8=FIX.4.4|9=0260|35=AI|34=2|49=EXC|56=001|57=001B27|52=20190611-19:45:03.282|131=38596742|453=5|448=DCV|447=C|452=10|448=001B27|447=C|452=12|448=001|447=C|452=1|448=001FCM001|447=C|452=36|448=002B35|447=C|452=37|55=TFIT16280428|762=RFQF|48=20399|22=M|54=1|38=1000000000|297=10|10=032|
8=FIX.4.4|9=0308|35=S|34=3|49=EXC|56=001|57=001B27|52=20190611-19:45:23.570|131=38596742|117=20190611-000000000067.00|55=TFIT16280428|762=RFQF|48=20399|22=M|453=5|448=DCV|447=C|452=10|448=001B27|447=C|452=12|448=001|447=C|452=1|448=001FCM001|447=C|452=36|448=002B35|447=C|452=37|634=3.000|135=1000000000|62=20190617-22:00:00|10=072|
8=FIX.4.4|9=68|35=2|34=3|49=001|50=001B27|52=20190611-19:45:23.675|56=EXC|7=2|16=0|10=184|
8=FIX.4.4|9=0291|35=AI|34=2|43=Y|52=20190611-19:45:23.671|49=EXC|56=001|57=001B27|122=20190611-19:45:03.282|131=38596742|453=5|448=DCV|447=C|452=10|448=001B27|447=C|452=12|448=001|447=C|452=1|448=001FCM001|447=C|452=36|448=002B35|447=C|452=37|55=TFIT16280428|762=RFQF|48=20399|22=M|54=1|38=1000000000|297=10|10=046|
8=FIX.4.4|9=0339|35=S|34=3|43=Y|52=20190611-19:45:23.671|49=EXC|56=001|57=001B27|122=20190611-19:45:23.570|131=38596742|117=20190611-000000000067.00|55=TFIT16280428|762=RFQF|48=20399|22=M|453=5|448=DCV|447=C|452=10|448=001B27|447=C|452=12|448=001|447=C|452=1|448=001FCM001|447=C|452=36|448=002B35|447=C|452=37|634=3.000|135=1000000000|62=20190617-22:00:00|10=086|
8=FIX.4.4|9=110|35=A|34=1|49=001|50=001B27|52=20190611-19:50:18.117|56=EXC|43=Y|98=0|108=30|141=Y|553=001FCM001|554=001FCM001|10=079|
8=FIX.4.4|9=0067|35=A|34=1|49=EXC|56=001|52=20190611-19:50:18.189|98=0|108=30|141=Y|10=015|
8=FIX.4.4|9=178|35=R|34=2|49=001|50=001B27|52=20190611-19:50:20.633|56=EXC|131=30640612|146=1|55=TFIT16280428|22=M|762=RFQF|54=1|38=1000000000|453=2|448=002B35|447=C|452=37|448=DCV|447=C|452=10|10=108|
8=FIX.4.4|9=0260|35=AI|34=2|49=EXC|56=001|57=001B27|52=20190611-19:50:20.632|131=30640612|453=5|448=DCV|447=C|452=10|448=001B27|447=C|452=12|448=001|447=C|452=1|448=001FCM001|447=C|452=36|448=002B35|447=C|452=37|55=TFIT16280428|762=RFQF|48=20399|22=M|54=1|38=1000000000|297=10|10=004|
8=FIX.4.4|9=0308|35=S|34=3|49=EXC|56=001|57=001B27|52=20190611-19:50:36.722|131=30640612|117=20190611-000000000069.00|55=TFIT16280428|762=RFQF|48=20399|22=M|453=5|448=DCV|447=C|452=10|448=001B27|447=C|452=12|448=001|447=C|452=1|448=001FCM001|447=C|452=36|448=002B35|447=C|452=37|634=3.000|135=1000000000|62=20190617-22:00:00|10=051|
8=FIX.4.4|9=68|35=2|34=3|49=001|50=001B27|52=20190611-19:50:36.752|56=EXC|7=2|16=0|10=180|
8=FIX.4.4|9=0291|35=AI|34=2|43=Y|52=20190611-19:50:36.746|49=EXC|56=001|57=001B27|122=20190611-19:50:20.632|131=30640612|453=5|448=DCV|447=C|452=10|448=001B27|447=C|452=12|448=001|447=C|452=1|448=001FCM001|447=C|452=36|448=002B35|447=C|452=37|55=TFIT16280428|762=RFQF|48=20399|22=M|54=1|38=1000000000|297=10|10=021|
8=FIX.4.4|9=0339|35=S|34=3|43=Y|52=20190611-19:50:36.746|49=EXC|56=001|57=001B27|122=20190611-19:50:36.722|131=30640612|117=20190611-000000000069.00|55=TFIT16280428|762=RFQF|48=20399|22=M|453=5|448=DCV|447=C|452=10|448=001B27|447=C|452=12|448=001|447=C|452=1|448=001FCM001|447=C|452=36|448=002B35|447=C|452=37|634=3.000|135=1000000000|62=20190617-22:00:00|10=068|
8=FIX.4.4|9=0054|35=4|34=4|49=EXC|56=001|52=20190611-19:50:36.746|36=5|10=150|
8=FIX.4.4|9=110|35=A|34=1|49=001|50=001B27|52=20190611-19:52:18.704|56=EXC|43=Y|98=0|108=30|141=Y|553=001FCM001|554=001FCM001|10=083|
8=FIX.4.4|9=0067|35=A|34=1|49=EXC|56=001|52=20190611-19:52:18.795|98=0|108=30|141=Y|10=020|
8=FIX.4.4|9=178|35=R|34=2|49=001|50=001B27|52=20190611-19:52:21.072|56=EXC|131=33248291|146=1|55=TFIT16280428|22=M|762=RFQF|54=1|38=1000000000|453=2|448=002B35|447=C|452=37|448=DCV|447=C|452=10|10=118|
8=FIX.4.4|9=0260|35=AI|34=2|49=EXC|56=001|57=001B27|52=20190611-19:52:21.069|131=33248291|453=5|448=DCV|447=C|452=10|448=001B27|447=C|452=12|448=001|447=C|452=1|448=001FCM001|447=C|452=36|448=002B35|447=C|452=37|55=TFIT16280428|762=RFQF|48=20399|22=M|54=1|38=1000000000|297=10|10=021|
8=FIX.4.4|9=0308|35=S|34=3|49=EXC|56=001|57=001B27|52=20190611-19:52:37.285|131=33248291|117=20190611-000000000070.00|55=TFIT16280428|762=RFQF|48=20399|22=M|453=5|448=DCV|447=C|452=10|448=001B27|447=C|452=12|448=001|447=C|452=1|448=001FCM001|447=C|452=36|448=002B35|447=C|452=37|634=3.000|135=1000000000|62=20190617-22:00:00|10=060|
8=FIX.4.4|9=68|35=2|34=3|49=001|50=001B27|52=20190611-19:52:37.328|56=EXC|7=2|16=0|10=182|
8=FIX.4.4|9=0291|35=AI|34=2|43=Y|52=20190611-19:52:37.329|49=EXC|56=001|57=001B27|122=20190611-19:52:21.069|131=33248291|453=5|448=DCV|447=C|452=10|448=001B27|447=C|452=12|448=001|447=C|452=1|448=001FCM001|447=C|452=36|448=002B35|447=C|452=37|55=TFIT16280428|762=RFQF|48=20399|22=M|54=1|38=1000000000|297=10|10=038|
8=FIX.4.4|9=0339|35=S|34=3|43=Y|52=20190611-19:52:37.329|49=EXC|56=001|57=001B27|122=20190611-19:52:37.285|131=33248291|117=20190611-000000000070.00|55=TFIT16280428|762=RFQF|48=20399|22=M|453=5|448=DCV|447=C|452=10|448=001B27|447=C|452=12|448=001|447=C|452=1|448=001FCM001|447=C|452=36|448=002B35|447=C|452=37|634=3.000|135=1000000000|62=20190617-22:00:00|10=077|
8=FIX.4.4|9=0054|35=4|34=4|49=EXC|56=001|52=20190611-19:52:37.329|36=5|10=150|
8=FIX.4.4|9=110|35=A|34=1|49=001|50=001B27|52=20190611-19:57:54.015|56=EXC|43=Y|98=0|108=30|141=Y|553=001FCM001|554=001FCM001|10=083|
8=FIX.4.4|9=0067|35=A|34=1|49=EXC|56=001|52=20190611-19:57:54.099|98=0|108=30|141=Y|10=022|
8=FIX.4.4|9=178|35=R|34=2|49=001|50=001B27|52=20190611-19:57:56.404|56=EXC|131=61539727|146=1|55=TFIT16280428|22=M|762=RFQF|54=1|38=1000000000|453=2|448=002B35|447=C|452=37|448=DCV|447=C|452=10|10=138|
8=FIX.4.4|9=0260|35=AI|34=2|49=EXC|56=001|57=001B27|52=20190611-19:57:56.398|131=61539727|453=5|448=DCV|447=C|452=10|448=001B27|447=C|452=12|448=001|447=C|452=1|448=001FCM001|447=C|452=36|448=002B35|447=C|452=37|55=TFIT16280428|762=RFQF|48=20399|22=M|54=1|38=1000000000|297=10|10=047|
8=FIX.4.4|9=0308|35=S|34=3|49=EXC|56=001|57=001B27|52=20190611-19:58:12.965|131=61539727|117=20190611-000000000072.00|55=TFIT16280428|762=RFQF|48=20399|22=M|453=5|448=DCV|447=C|452=10|448=001B27|447=C|452=12|448=001|447=C|452=1|448=001FCM001|447=C|452=36|448=002B35|447=C|452=37|634=3.000|135=1000000000|62=20190617-22:00:00|10=074|
8=FIX.4.4|9=68|35=2|34=3|49=001|50=001B27|52=20190611-19:58:13.001|56=EXC|7=2|16=0|10=170|
8=FIX.4.4|9=0291|35=AI|34=2|43=Y|52=20190611-19:58:12.993|49=EXC|56=001|57=001B27|122=20190611-19:57:56.398|131=61539727|453=5|448=DCV|447=C|452=10|448=001B27|447=C|452=12|448=001|447=C|452=1|448=001FCM001|447=C|452=36|448=002B35|447=C|452=37|55=TFIT16280428|762=RFQF|48=20399|22=M|54=1|38=1000000000|297=10|10=070|
8=FIX.4.4|9=0339|35=S|34=3|43=Y|52=20190611-19:58:12.993|49=EXC|56=001|57=001B27|122=20190611-19:58:12.965|131=61539727|117=20190611-000000000072.00|55=TFIT16280428|762=RFQF|48=20399|22=M|453=5|448=DCV|447=C|452=10|448=001B27|447=C|452=12|448=001|447=C|452=1|448=001FCM001|447=C|452=36|448=002B35|447=C|452=37|634=3.000|135=1000000000|62=20190617-22:00:00|10=097|
8=FIX.4.4|9=0054|35=4|34=4|49=EXC|56=001|52=20190611-19:58:12.993|36=5|10=156|
8=FIX.4.4|9=110|35=A|34=1|49=001|50=001B27|52=20190611-20:17:57.674|56=EXC|43=Y|98=0|108=30|141=Y|553=001FCM001|554=001FCM001|10=085|
8=FIX.4.4|9=0067|35=A|34=1|49=EXC|56=001|52=20190611-20:17:57.709|98=0|108=30|141=Y|10=011|
8=FIX.4.4|9=178|35=R|34=2|49=001|50=001B27|52=20190611-20:18:00.135|56=EXC|131=44693733|146=1|55=TFIT16280428|22=M|762=RFQF|54=1|38=1000000000|453=2|448=002B35|447=C|452=37|448=DCV|447=C|452=10|10=116|
8=FIX.4.4|9=0260|35=AI|34=2|49=EXC|56=001|57=001B27|52=20190611-20:18:00.122|131=44693733|453=5|448=DCV|447=C|452=10|448=001B27|447=C|452=12|448=001|447=C|452=1|448=001FCM001|447=C|452=36|448=002B35|447=C|452=37|55=TFIT16280428|762=RFQF|48=20399|22=M|54=1|38=1000000000|297=10|10=009|
8=FIX.4.4|9=0308|35=S|34=3|49=EXC|56=001|57=001B27|52=20190611-20:18:16.483|131=44693733|117=20190611-000000000075.00|55=TFIT16280428|762=RFQF|48=20399|22=M|453=5|448=DCV|447=C|452=10|448=001B27|447=C|452=12|448=001|447=C|452=1|448=001FCM001|447=C|452=36|448=002B35|447=C|452=37|634=3.000|135=1000000000|62=20190617-22:00:00|10=063|
8=FIX.4.4|9=68|35=2|34=3|49=001|50=001B27|52=20190611-20:18:16.534|56=EXC|7=2|16=0|10=172|
8=FIX.4.4|9=0291|35=AI|34=2|43=Y|52=20190611-20:18:16.522|49=EXC|56=001|57=001B27|122=20190611-20:18:00.122|131=44693733|453=5|448=DCV|447=C|452=10|448=001B27|447=C|452=12|448=001|447=C|452=1|448=001FCM001|447=C|452=36|448=002B35|447=C|452=37|55=TFIT16280428|762=RFQF|48=20399|22=M|54=1|38=1000000000|297=10|10=012|
8=FIX.4.4|9=0339|35=S|34=3|43=Y|52=20190611-20:18:16.522|49=EXC|56=001|57=001B27|122=20190611-20:18:16.483|131=44693733|117=20190611-000000000075.00|55=TFIT16280428|762=RFQF|48=20399|22=M|453=5|448=DCV|447=C|452=10|448=001B27|447=C|452=12|448=001|447=C|452=1|448=001FCM001|447=C|452=36|448=002B35|447=C|452=37|634=3.000|135=1000000000|62=20190617-22:00:00|10=066|
8=FIX.4.4|9=0054|35=4|34=4|49=EXC|56=001|52=20190611-20:18:16.522|36=5|10=136|
8=FIX.4.4|9=110|35=A|34=1|49=001|50=001B27|52=20190611-20:21:26.752|56=EXC|43=Y|98=0|108=30|141=Y|553=001FCM001|554=001FCM001|10=073|
8=FIX.4.4|9=0067|35=A|34=1|49=EXC|56=001|52=20190611-20:21:26.828|98=0|108=30|141=Y|10=004|
8=FIX.4.4|9=177|35=R|34=2|49=001|50=001B27|52=20190611-20:21:29.154|56=EXC|131=9655896|146=1|55=TFIT16280428|22=M|762=RFQF|54=1|38=1000000000|453=2|448=002B35|447=C|452=37|448=DCV|447=C|452=10|10=082|
8=FIX.4.4|9=0259|35=AI|34=2|49=EXC|56=001|57=001B27|52=20190611-20:21:29.140|131=9655896|453=5|448=DCV|447=C|452=10|448=001B27|447=C|452=12|448=001|447=C|452=1|448=001FCM001|447=C|452=36|448=002B35|447=C|452=37|55=TFIT16280428|762=RFQF|48=20399|22=M|54=1|38=1000000000|297=10|10=239|
8=FIX.4.4|9=0307|35=S|34=3|49=EXC|56=001|57=001B27|52=20190611-20:21:45.308|131=9655896|117=20190611-000000000076.00|55=TFIT16280428|762=RFQF|48=20399|22=M|453=5|448=DCV|447=C|452=10|448=001B27|447=C|452=12|448=001|447=C|452=1|448=001FCM001|447=C|452=36|448=002B35|447=C|452=37|634=3.000|135=1000000000|62=20190617-22:00:00|10=016|
8=FIX.4.4|9=68|35=2|34=3|49=001|50=001B27|52=20190611-20:21:45.351|56=EXC|7=2|16=0|10=165|
8=FIX.4.4|9=0290|35=AI|34=2|43=Y|52=20190611-20:21:45.343|49=EXC|56=001|57=001B27|122=20190611-20:21:29.140|131=9655896|453=5|448=DCV|447=C|452=10|448=001B27|447=C|452=12|448=001|447=C|452=1|448=001FCM001|447=C|452=36|448=002B35|447=C|452=37|55=TFIT16280428|762=RFQF|48=20399|22=M|54=1|38=1000000000|297=10|10=230|
8=FIX.4.4|9=0338|35=S|34=3|43=Y|52=20190611-20:21:45.343|49=EXC|56=001|57=001B27|122=20190611-20:21:45.308|131=9655896|117=20190611-000000000076.00|55=TFIT16280428|762=RFQF|48=20399|22=M|453=5|448=DCV|447=C|452=10|448=001B27|447=C|452=12|448=001|447=C|452=1|448=001FCM001|447=C|452=36|448=002B35|447=C|452=37|634=3.000|135=1000000000|62=20190617-22:00:00|10=016|
8=FIX.4.4|9=0054|35=4|34=4|49=EXC|56=001|52=20190611-20:21:45.343|36=5|10=133|
8=FIX.4.4|9=68|35=2|34=4|49=001|50=001B27|52=20190611-20:21:56.155|56=EXC|7=2|16=0|10=170|
8=FIX.4.4|9=0290|35=AI|34=2|43=Y|52=20190611-20:21:56.139|49=EXC|56=001|57=001B27|122=20190611-20:21:29.140|131=9655896|453=5|448=DCV|447=C|452=10|448=001B27|447=C|452=12|448=001|447=C|452=1|448=001FCM001|447=C|452=36|448=002B35|447=C|452=37|55=TFIT16280428|762=RFQF|48=20399|22=M|54=1|38=1000000000|297=10|10=235|
8=FIX.4.4|9=0338|35=S|34=3|43=Y|52=20190611-20:21:56.139|49=EXC|56=001|57=001B27|122=20190611-20:21:45.308|131=9655896|117=20190611-000000000076.00|55=TFIT16280428|762=RFQF|48=20399|22=M|453=5|448=DCV|447=C|452=10|448=001B27|447=C|452=12|448=001|447=C|452=1|448=001FCM001|447=C|452=36|448=002B35|447=C|452=37|634=3.000|135=1000000000|62=20190617-22:00:00|10=021|
8=FIX.4.4|9=0065|35=4|34=4|43=Y|49=EXC|56=001|52=20190611-20:21:56.139|123=Y|36=5|10=183|
8=FIX.4.4|9=0054|35=4|34=5|49=EXC|56=001|52=20190611-20:21:56.139|36=6|10=140|
8=FIX.4.4|9=0094|35=Z|34=6|49=EXC|56=001|57=001B27|52=20190611-20:22:06.742|117=20190611-000000000076.00|298=5|10=069|
8=FIX.4.4|9=59|35=0|34=5|49=001|50=001B27|52=20190611-20:22:26.684|56=EXC|10=050|
8=FIX.4.4|9=110|35=A|34=1|49=001|50=001B27|52=20190611-20:39:27.602|56=EXC|43=Y|98=0|108=30|141=Y|553=001FCM001|554=001FCM001|10=077|
8=FIX.4.4|9=0067|35=A|34=1|49=EXC|56=001|52=20190611-20:39:31.072|98=0|108=30|141=Y|10=000|
8=FIX.4.4|9=178|35=R|34=2|49=001|50=001B27|52=20190611-20:39:34.227|56=EXC|131=35959156|146=1|55=TFIT16280428|22=M|762=RFQF|54=1|38=1000000000|453=2|448=002B35|447=C|452=37|448=DCV|447=C|452=10|10=132|
8=FIX.4.4|9=0260|35=AI|34=2|49=EXC|56=001|57=001B27|52=20190611-20:39:34.208|131=35959156|453=5|448=DCV|447=C|452=10|448=001B27|447=C|452=12|448=001|447=C|452=1|448=001FCM001|447=C|452=36|448=002B35|447=C|452=37|55=TFIT16280428|762=RFQF|48=20399|22=M|54=1|38=1000000000|297=10|10=028|
8=FIX.4.4|9=59|35=0|34=3|49=001|50=001B27|52=20190611-20:40:04.991|56=EXC|10=045|
8=FIX.4.4|9=0049|35=0|34=3|49=EXC|56=001|52=20190611-20:40:04.000|10=154|
8=FIX.4.4|9=68|35=1|34=4|49=001|50=001B27|52=20190611-20:40:20.990|56=EXC|112=TEST|10=062|
8=FIX.4.4|9=0058|35=0|34=4|49=EXC|56=001|52=20190611-20:40:20.975|112=TEST|10=192|
8=FIX.4.4|9=68|35=2|34=5|49=001|50=001B27|52=20190611-20:40:33.018|56=EXC|7=2|16=0|10=165|
8=FIX.4.4|9=0291|35=AI|34=2|43=Y|52=20190611-20:40:33.017|49=EXC|56=001|57=001B27|122=20190611-20:39:34.208|131=35959156|453=5|448=DCV|447=C|452=10|448=001B27|447=C|452=12|448=001|447=C|452=1|448=001FCM001|447=C|452=36|448=002B35|447=C|452=37|55=TFIT16280428|762=RFQF|48=20399|22=M|54=1|38=1000000000|297=10|10=024|
8=FIX.4.4|9=0065|35=4|34=3|43=Y|49=EXC|56=001|52=20190611-20:40:33.017|123=Y|36=5|10=173|
8=FIX.4.4|9=0054|35=4|34=5|49=EXC|56=001|52=20190611-20:40:33.017|36=6|10=131|
8=FIX.4.4|9=68|35=2|34=6|49=001|50=001B27|52=20190611-20:40:43.148|56=EXC|7=2|16=0|10=171|
8=FIX.4.4|9=0291|35=AI|34=2|43=Y|52=20190611-20:40:43.127|49=EXC|56=001|57=001B27|122=20190611-20:39:34.208|131=35959156|453=5|448=DCV|447=C|452=10|448=001B27|447=C|452=12|448=001|447=C|452=1|448=001FCM001|447=C|452=36|448=002B35|447=C|452=37|55=TFIT16280428|762=RFQF|48=20399|22=M|54=1|38=1000000000|297=10|10=027|
8=FIX.4.4|9=0065|35=4|34=3|43=Y|49=EXC|56=001|52=20190611-20:40:43.127|123=Y|36=6|10=177|
8=FIX.4.4|9=0054|35=4|34=6|49=EXC|56=001|52=20190611-20:40:43.127|36=7|10=136|
8=FIX.4.4|9=0308|35=S|34=7|49=EXC|56=001|57=001B27|52=20190611-20:40:46.283|131=35959156|117=20190611-000000000078.00|55=TFIT16280428|762=RFQF|48=20399|22=M|453=5|448=DCV|447=C|452=10|448=001B27|447=C|452=12|448=001|447=C|452=1|448=001FCM001|447=C|452=36|448=002B35|447=C|452=37|634=3.000|135=1000000000|62=20190617-22:00:00|10=070|
8=FIX.4.4|9=110|35=A|34=1|49=001|50=001B27|52=20190611-20:50:00.852|56=EXC|43=Y|98=0|108=30|141=Y|553=001FCM001|554=001FCM001|10=068|
8=FIX.4.4|9=0067|35=A|34=1|49=EXC|56=001|52=20190611-20:50:00.873|98=0|108=30|141=Y|10=254|
8=FIX.4.4|9=178|35=R|34=2|49=001|50=001B27|52=20190611-20:50:03.268|56=EXC|131=35610984|146=1|55=TFIT16280428|22=M|762=RFQF|54=1|38=1000000000|453=2|448=002B35|447=C|452=37|448=DCV|447=C|452=10|10=119|
8=FIX.4.4|9=0260|35=AI|34=2|49=EXC|56=001|57=001B27|52=20190611-20:50:03.243|131=35610984|453=5|448=DCV|447=C|452=10|448=001B27|447=C|452=12|448=001|447=C|452=1|448=001FCM001|447=C|452=36|448=002B35|447=C|452=37|55=TFIT16280428|762=RFQF|48=20399|22=M|54=1|38=1000000000|297=10|10=009|
8=FIX.4.4|9=0308|35=S|34=3|49=EXC|56=001|57=001B27|52=20190611-20:50:19.333|131=35610984|117=20190611-000000000079.00|55=TFIT16280428|762=RFQF|48=20399|22=M|453=5|448=DCV|447=C|452=10|448=001B27|447=C|452=12|448=001|447=C|452=1|448=001FCM001|447=C|452=36|448=002B35|447=C|452=37|634=3.000|135=1000000000|62=20190617-22:00:00|10=057|
8=FIX.4.4|9=68|35=2|34=3|49=001|50=001B27|52=20190611-20:50:19.389|56=EXC|7=2|16=0|10=179|
8=FIX.4.4|9=0291|35=AI|34=2|43=Y|52=20190611-20:50:19.364|49=EXC|56=001|57=001B27|122=20190611-20:50:03.243|131=35610984|453=5|448=DCV|447=C|452=10|448=001B27|447=C|452=12|448=001|447=C|452=1|448=001FCM001|447=C|452=36|448=002B35|447=C|452=37|55=TFIT16280428|762=RFQF|48=20399|22=M|54=1|38=1000000000|297=10|10=015|
8=FIX.4.4|9=0339|35=S|34=3|43=Y|52=20190611-20:50:19.364|49=EXC|56=001|57=001B27|122=20190611-20:50:19.333|131=35610984|117=20190611-000000000079.00|55=TFIT16280428|762=RFQF|48=20399|22=M|453=5|448=DCV|447=C|452=10|448=001B27|447=C|452=12|448=001|447=C|452=1|448=001FCM001|447=C|452=36|448=002B35|447=C|452=37|634=3.000|135=1000000000|62=20190617-22:00:00|10=063|
8=FIX.4.4|9=0054|35=4|34=4|49=EXC|56=001|52=20190611-20:50:19.365|36=5|10=140|
8=FIX.4.4|9=68|35=2|34=4|49=001|50=001B27|52=20190611-20:50:29.920|56=EXC|7=2|16=0|10=172|
8=FIX.4.4|9=0291|35=AI|34=2|43=Y|52=20190611-20:50:29.894|49=EXC|56=001|57=001B27|122=20190611-20:50:03.243|131=35610984|453=5|448=DCV|447=C|452=10|448=001B27|447=C|452=12|448=001|447=C|452=1|448=001FCM001|447=C|452=36|448=002B35|447=C|452=37|55=TFIT16280428|762=RFQF|48=20399|22=M|54=1|38=1000000000|297=10|10=024|
8=FIX.4.4|9=0339|35=S|34=3|43=Y|52=20190611-20:50:29.894|49=EXC|56=001|57=001B27|122=20190611-20:50:19.333|131=35610984|117=20190611-000000000079.00|55=TFIT16280428|762=RFQF|48=20399|22=M|453=5|448=DCV|447=C|452=10|448=001B27|447=C|452=12|448=001|447=C|452=1|448=001FCM001|447=C|452=36|448=002B35|447=C|452=37|634=3.000|135=1000000000|62=20190617-22:00:00|10=072|
8=FIX.4.4|9=0065|35=4|34=4|43=Y|49=EXC|56=001|52=20190611-20:50:29.894|123=Y|36=5|10=193|
8=FIX.4.4|9=0054|35=4|34=5|49=EXC|56=001|52=20190611-20:50:29.895|36=6|10=151|
8=FIX.4.4|9=0094|35=Z|34=6|49=EXC|56=001|57=001B27|52=20190611-20:50:40.209|117=20190611-000000000079.00|298=5|10=069|
8=FIX.4.4|9=110|35=A|34=1|49=001|50=001B27|52=20190611-20:54:28.379|56=EXC|43=Y|98=0|108=30|141=Y|553=001FCM001|554=001FCM001|10=086|
8=FIX.4.4|9=0067|35=A|34=1|49=EXC|56=001|52=20190611-20:54:28.584|98=0|108=30|141=Y|10=011|
8=FIX.4.4|9=178|35=R|34=2|49=001|50=001B27|52=20190611-20:54:30.754|56=EXC|131=79521461|146=1|55=TFIT16280428|22=M|762=RFQF|54=1|38=1000000000|453=2|448=002B35|447=C|452=37|448=DCV|447=C|452=10|10=122|
8=FIX.4.4|9=0260|35=AI|34=2|49=EXC|56=001|57=001B27|52=20190611-20:54:30.728|131=79521461|453=5|448=DCV|447=C|452=10|448=001B27|447=C|452=12|448=001|447=C|452=1|448=001FCM001|447=C|452=36|448=002B35|447=C|452=37|55=TFIT16280428|762=RFQF|48=20399|22=M|54=1|38=1000000000|297=10|10=020|
8=FIX.4.4|9=0308|35=S|34=3|49=EXC|56=001|57=001B27|52=20190611-20:54:51.967|131=79521461|117=20190611-000000000080.00|55=TFIT16280428|762=RFQF|48=20399|22=M|453=5|448=DCV|447=C|452=10|448=001B27|447=C|452=12|448=001|447=C|452=1|448=001FCM001|447=C|452=36|448=002B35|447=C|452=37|634=3.000|135=1000000000|62=20190617-22:00:00|10=061|
8=FIX.4.4|9=68|35=2|34=3|49=001|50=001B27|52=20190611-20:54:52.044|56=EXC|7=2|16=0|10=168|
8=FIX.4.4|9=0291|35=AI|34=2|43=Y|52=20190611-20:54:52.021|49=EXC|56=001|57=001B27|122=20190611-20:54:30.728|131=79521461|453=5|448=DCV|447=C|452=10|448=001B27|447=C|452=12|448=001|447=C|452=1|448=001FCM001|447=C|452=36|448=002B35|447=C|452=37|55=TFIT16280428|762=RFQF|48=20399|22=M|54=1|38=1000000000|297=10|10=017|
8=FIX.4.4|9=0339|35=S|34=3|43=Y|52=20190611-20:54:52.021|49=EXC|56=001|57=001B27|122=20190611-20:54:51.967|131=79521461|117=20190611-000000000080.00|55=TFIT16280428|762=RFQF|48=20399|22=M|453=5|448=DCV|447=C|452=10|448=001B27|447=C|452=12|448=001|447=C|452=1|448=001FCM001|447=C|452=36|448=002B35|447=C|452=37|634=3.000|135=1000000000|62=20190617-22:00:00|10=058|
8=FIX.4.4|9=0054|35=4|34=4|49=EXC|56=001|52=20190611-20:54:52.021|36=5|10=130|
8=FIX.4.4|9=68|35=2|34=4|49=001|50=001B27|52=20190611-20:55:02.803|56=EXC|7=2|16=0|10=168|
8=FIX.4.4|9=0291|35=AI|34=2|43=Y|52=20190611-20:55:02.776|49=EXC|56=001|57=001B27|122=20190611-20:54:30.728|131=79521461|453=5|448=DCV|447=C|452=10|448=001B27|447=C|452=12|448=001|447=C|452=1|448=001FCM001|447=C|452=36|448=002B35|447=C|452=37|55=TFIT16280428|762=RFQF|48=20399|22=M|54=1|38=1000000000|297=10|10=030|
8=FIX.4.4|9=0339|35=S|34=3|43=Y|52=20190611-20:55:02.776|49=EXC|56=001|57=001B27|122=20190611-20:54:51.967|131=79521461|117=20190611-000000000080.00|55=TFIT16280428|762=RFQF|48=20399|22=M|453=5|448=DCV|447=C|452=10|448=001B27|447=C|452=12|448=001|447=C|452=1|448=001FCM001|447=C|452=36|448=002B35|447=C|452=37|634=3.000|135=1000000000|62=20190617-22:00:00|10=071|
8=FIX.4.4|9=0065|35=4|34=4|43=Y|49=EXC|56=001|52=20190611-20:55:02.776|123=Y|36=5|10=188|
8=FIX.4.4|9=0054|35=4|34=5|49=EXC|56=001|52=20190611-20:55:02.777|36=6|10=146|
8=FIX.4.4|9=0094|35=Z|34=6|49=EXC|56=001|57=001B27|52=20190611-20:55:12.911|117=20190611-000000000080.00|298=5|10=065|
8=FIX.4.4|9=177|35=R|34=5|49=001|50=001B27|52=20190611-20:55:23.802|56=EXC|131=21834345|146=1|55=TFIT16300632|22=M|762=RFQF|54=1|38=500000000|453=2|448=002B35|447=C|452=37|448=DCV|447=C|452=10|10=062|
8=FIX.4.4|9=0259|35=AI|34=7|49=EXC|56=001|57=001B27|52=20190611-20:55:23.775|131=21834345|453=5|448=DCV|447=C|452=10|448=001B27|447=C|452=12|448=001|447=C|452=1|448=001FCM001|447=C|452=36|448=002B35|447=C|452=37|55=TFIT16300632|762=RFQF|48=20406|22=M|54=1|38=500000000|297=10|10=224|
8=FIX.4.4|9=110|35=A|34=1|49=001|50=001B27|52=20190611-20:56:56.963|56=EXC|43=Y|98=0|108=30|141=Y|553=001FCM001|554=001FCM001|10=088|
8=FIX.4.4|9=0067|35=A|34=1|49=EXC|56=001|52=20190611-20:56:58.084|98=0|108=30|141=Y|10=011|
8=FIX.4.4|9=178|35=R|34=2|49=001|50=001B27|52=20190611-20:57:00.177|56=EXC|131=79586223|146=1|55=TFIT16280428|22=M|762=RFQF|54=1|38=1000000000|453=2|448=002B35|447=C|452=37|448=DCV|447=C|452=10|10=128|
8=FIX.4.4|9=0260|35=AI|34=2|49=EXC|56=001|57=001B27|52=20190611-20:57:00.171|131=79586223|453=5|448=DCV|447=C|452=10|448=001B27|447=C|452=12|448=001|447=C|452=1|448=001FCM001|447=C|452=36|448=002B35|447=C|452=37|55=TFIT16280428|762=RFQF|48=20399|22=M|54=1|38=1000000000|297=10|10=019|
8=FIX.4.4|9=0308|35=S|34=3|49=EXC|56=001|57=001B27|52=20190611-20:57:16.499|131=79586223|117=20190611-000000000082.00|55=TFIT16280428|762=RFQF|48=20399|22=M|453=5|448=DCV|447=C|452=10|448=001B27|447=C|452=12|448=001|447=C|452=1|448=001FCM001|447=C|452=36|448=002B35|447=C|452=37|634=3.000|135=1000000000|62=20190617-22:00:00|10=074|
8=FIX.4.4|9=68|35=2|34=3|49=001|50=001B27|52=20190611-20:57:16.556|56=EXC|7=2|16=0|10=179|
8=FIX.4.4|9=0291|35=AI|34=2|43=Y|52=20190611-20:57:16.532|49=EXC|56=001|57=001B27|122=20190611-20:57:00.171|131=79586223|453=5|448=DCV|447=C|452=10|448=001B27|447=C|452=12|448=001|447=C|452=1|448=001FCM001|447=C|452=36|448=002B35|447=C|452=37|55=TFIT16280428|762=RFQF|48=20399|22=M|54=1|38=1000000000|297=10|10=026|
8=FIX.4.4|9=0339|35=S|34=3|43=Y|52=20190611-20:57:16.532|49=EXC|56=001|57=001B27|122=20190611-20:57:16.499|131=79586223|117=20190611-000000000082.00|55=TFIT16280428|762=RFQF|48=20399|22=M|453=5|448=DCV|447=C|452=10|448=001B27|447=C|452=12|448=001|447=C|452=1|448=001FCM001|447=C|452=36|448=002B35|447=C|452=37|634=3.000|135=1000000000|62=20190617-22:00:00|10=081|
8=FIX.4.4|9=0054|35=4|34=4|49=EXC|56=001|52=20190611-20:57:16.532|36=5|10=140|
8=FIX.4.4|9=68|35=2|34=4|49=001|50=001B27|52=20190611-20:57:27.037|56=EXC|7=2|16=0|10=176|
8=FIX.4.4|9=0291|35=AI|34=2|43=Y|52=20190611-20:57:27.011|49=EXC|56=001|57=001B27|122=20190611-20:57:00.171|131=79586223|453=5|448=DCV|447=C|452=10|448=001B27|447=C|452=12|448=001|447=C|452=1|448=001FCM001|447=C|452=36|448=002B35|447=C|452=37|55=TFIT16280428|762=RFQF|48=20399|22=M|54=1|38=1000000000|297=10|10=020|
8=FIX.4.4|9=0339|35=S|34=3|43=Y|52=20190611-20:57:27.011|49=EXC|56=001|57=001B27|122=20190611-20:57:16.499|131=79586223|117=20190611-000000000082.00|55=TFIT16280428|762=RFQF|48=20399|22=M|453=5|448=DCV|447=C|452=10|448=001B27|447=C|452=12|448=001|447=C|452=1|448=001FCM001|447=C|452=36|448=002B35|447=C|452=37|634=3.000|135=1000000000|62=20190617-22:00:00|10=075|
8=FIX.4.4|9=0065|35=4|34=4|43=Y|49=EXC|56=001|52=20190611-20:57:27.011|123=Y|36=5|10=179|
8=FIX.4.4|9=0054|35=4|34=5|49=EXC|56=001|52=20190611-20:57:27.011|36=6|10=136|
8=FIX.4.4|9=0094|35=Z|34=6|49=EXC|56=001|57=001B27|52=20190611-20:57:37.948|117=20190611-000000000082.00|298=5|10=086|
8=FIX.4.4|9=177|35=R|34=5|49=001|50=001B27|52=20190611-20:57:49.375|56=EXC|131=25343247|146=1|55=TFIT16300632|22=M|762=RFQF|54=1|38=500000000|453=2|448=002B35|447=C|452=37|448=DCV|447=C|452=10|10=077|
8=FIX.4.4|9=0259|35=AI|34=7|49=EXC|56=001|57=001B27|52=20190611-20:57:49.362|131=25343247|453=5|448=DCV|447=C|452=10|448=001B27|447=C|452=12|448=001|447=C|452=1|448=001FCM001|447=C|452=36|448=002B35|447=C|452=37|55=TFIT16300632|762=RFQF|48=20406|22=M|54=1|38=500000000|297=10|10=226|
8=FIX.4.4|9=110|35=A|34=1|49=001|50=001B27|52=20190611-20:59:27.380|56=EXC|43=Y|98=0|108=30|141=Y|553=001FCM001|554=001FCM001|10=082|
8=FIX.4.4|9=0067|35=A|34=1|49=EXC|56=001|52=20190611-20:59:27.441|98=0|108=30|141=Y|10=007|
8=FIX.4.4|9=177|35=R|34=2|49=001|50=001B27|52=20190611-20:59:29.905|56=EXC|131=1596079|146=1|55=TFIT16280428|22=M|762=RFQF|54=1|38=1000000000|453=2|448=002B35|447=C|452=37|448=DCV|447=C|452=10|10=086|
8=FIX.4.4|9=0259|35=AI|34=2|49=EXC|56=001|57=001B27|52=20190611-20:59:29.879|131=1596079|453=5|448=DCV|447=C|452=10|448=001B27|447=C|452=12|448=001|447=C|452=1|448=001FCM001|447=C|452=36|448=002B35|447=C|452=37|55=TFIT16280428|762=RFQF|48=20399|22=M|54=1|38=1000000000|297=10|10=002|
8=FIX.4.4|9=0307|35=S|34=3|49=EXC|56=001|57=001B27|52=20190611-20:59:46.518|131=1596079|117=20190611-000000000085.00|55=TFIT16280428|762=RFQF|48=20399|22=M|453=5|448=DCV|447=C|452=10|448=001B27|447=C|452=12|448=001|447=C|452=1|448=001FCM001|447=C|452=36|448=002B35|447=C|452=37|634=3.000|135=1000000000|62=20190617-22:00:00|10=020|
8=FIX.4.4|9=68|35=2|34=3|49=001|50=001B27|52=20190611-20:59:46.657|56=EXC|7=2|16=0|10=186|
8=FIX.4.4|9=0290|35=AI|34=2|43=Y|52=20190611-20:59:46.629|49=EXC|56=001|57=001B27|122=20190611-20:59:29.879|131=1596079|453=5|448=DCV|447=C|452=10|448=001B27|447=C|452=12|448=001|447=C|452=1|448=001FCM001|447=C|452=36|448=002B35|447=C|452=37|55=TFIT16280428|762=RFQF|48=20399|22=M|54=1|38=1000000000|297=10|10=012|
8=FIX.4.4|9=0338|35=S|34=3|43=Y|52=20190611-20:59:46.629|49=EXC|56=001|57=001B27|122=20190611-20:59:46.518|131=1596079|117=20190611-000000000085.00|55=TFIT16280428|762=RFQF|48=20399|22=M|453=5|448=DCV|447=C|452=10|448=001B27|447=C|452=12|448=001|447=C|452=1|448=001FCM001|447=C|452=36|448=002B35|447=C|452=37|634=3.000|135=1000000000|62=20190617-22:00:00|10=039|
8=FIX.4.4|9=0054|35=4|34=4|49=EXC|56=001|52=20190611-20:59:46.630|36=5|10=144|
8=FIX.4.4|9=68|35=2|34=4|49=001|50=001B27|52=20190611-20:59:57.630|56=EXC|7=2|16=0|10=180|
8=FIX.4.4|9=0290|35=AI|34=2|43=Y|52=20190611-20:59:57.606|49=EXC|56=001|57=001B27|122=20190611-20:59:29.879|131=1596079|453=5|448=DCV|447=C|452=10|448=001B27|447=C|452=12|448=001|447=C|452=1|448=001FCM001|447=C|452=36|448=002B35|447=C|452=37|55=TFIT16280428|762=RFQF|48=20399|22=M|54=1|38=1000000000|297=10|10=009|
8=FIX.4.4|9=0338|35=S|34=3|43=Y|52=20190611-20:59:57.606|49=EXC|56=001|57=001B27|122=20190611-20:59:46.518|131=1596079|117=20190611-000000000085.00|55=TFIT16280428|762=RFQF|48=20399|22=M|453=5|448=DCV|447=C|452=10|448=001B27|447=C|452=12|448=001|447=C|452=1|448=001FCM001|447=C|452=36|448=002B35|447=C|452=37|634=3.000|135=1000000000|62=20190617-22:00:00|10=036|
8=FIX.4.4|9=0065|35=4|34=4|43=Y|49=EXC|56=001|52=20190611-20:59:57.606|123=Y|36=5|10=194|
8=FIX.4.4|9=0054|35=4|34=5|49=EXC|56=001|52=20190611-20:59:57.606|36=6|10=151|
8=FIX.4.4|9=0094|35=Z|34=6|49=EXC|56=001|57=001B27|52=20190611-21:00:08.563|117=20190611-000000000085.00|298=5|10=069|
8=FIX.4.4|9=177|35=R|34=5|49=001|50=001B27|52=20190611-21:00:20.322|56=EXC|131=29660624|146=1|55=TFIT16300632|22=M|762=RFQF|54=1|38=500000000|453=2|448=002B35|447=C|452=37|448=DCV|447=C|452=10|10=052|
8=FIX.4.4|9=0259|35=AI|34=7|49=EXC|56=001|57=001B27|52=20190611-21:00:20.293|131=29660624|453=5|448=DCV|447=C|452=10|448=001B27|447=C|452=12|448=001|447=C|452=1|448=001FCM001|447=C|452=36|448=002B35|447=C|452=37|55=TFIT16300632|762=RFQF|48=20406|22=M|54=1|38=500000000|297=10|10=212|
8=FIX.4.4|9=169|35=R|34=6|49=001|50=001B27|52=20190611-21:00:32.173|56=EXC|131=50530181|146=1|55=TFIT16300632|22=M|762=RFQF|54=1|38=0|453=2|448=002B35|447=C|452=37|448=DCV|447=C|452=10|10=172|
8=FIX.4.4|9=0152|35=AG|34=8|49=EXC|56=001|57=001B27|52=20190611-21:00:32.147|131=50530181|658=99|146=1|55=TFIT16300632|762=RFQF|22=M|58=(333): ID de cotización inválida|10=060|
8=FIX.4.4|9=118|35=3|34=7|49=001|50=001B27|52=20190611-21:00:32.894|56=EXC|45=8|58=Required tag missing, field=38|371=38|372=AG|373=1|10=075|
8=FIX.4.4|9=110|35=A|34=1|49=001|50=001B27|52=20190611-21:02:11.036|56=EXC|43=Y|98=0|108=30|141=Y|553=001FCM001|554=001FCM001|10=062|
8=FIX.4.4|9=0067|35=A|34=1|49=EXC|56=001|52=20190611-21:02:11.171|98=0|108=30|141=Y|10=245|
8=FIX.4.4|9=178|35=R|34=2|49=001|50=001B27|52=20190611-21:02:13.946|56=EXC|131=59003889|146=1|55=TFIT16280428|22=M|762=RFQF|54=1|38=1000000000|453=2|448=002B35|447=C|452=37|448=DCV|447=C|452=10|10=127|
8=FIX.4.4|9=0260|35=AI|34=2|49=EXC|56=001|57=001B27|52=20190611-21:02:13.918|131=59003889|453=5|448=DCV|447=C|452=10|448=001B27|447=C|452=12|448=001|447=C|452=1|448=001FCM001|447=C|452=36|448=002B35|447=C|452=37|55=TFIT16280428|762=RFQF|48=20399|22=M|54=1|38=1000000000|297=10|10=023|
8=FIX.4.4|9=0308|35=S|34=3|49=EXC|56=001|57=001B27|52=20190611-21:02:30.691|131=59003889|117=20190611-000000000087.00|55=TFIT16280428|762=RFQF|48=20399|22=M|453=5|448=DCV|447=C|452=10|448=001B27|447=C|452=12|448=001|447=C|452=1|448=001FCM001|447=C|452=36|448=002B35|447=C|452=37|634=3.000|135=1000000000|62=20190617-22:00:00|10=060|
8=FIX.4.4|9=68|35=2|34=3|49=001|50=001B27|52=20190611-21:02:30.758|56=EXC|7=2|16=0|10=170|
8=FIX.4.4|9=0291|35=AI|34=2|43=Y|52=20190611-21:02:30.729|49=EXC|56=001|57=001B27|122=20190611-21:02:13.918|131=59003889|453=5|448=DCV|447=C|452=10|448=001B27|447=C|452=12|448=001|447=C|452=1|448=001FCM001|447=C|452=36|448=002B35|447=C|452=37|55=TFIT16280428|762=RFQF|48=20399|22=M|54=1|38=1000000000|297=10|10=025|
8=FIX.4.4|9=0339|35=S|34=3|43=Y|52=20190611-21:02:30.729|49=EXC|56=001|57=001B27|122=20190611-21:02:30.691|131=59003889|117=20190611-000000000087.00|55=TFIT16280428|762=RFQF|48=20399|22=M|453=5|448=DCV|447=C|452=10|448=001B27|447=C|452=12|448=001|447=C|452=1|448=001FCM001|447=C|452=36|448=002B35|447=C|452=37|634=3.000|135=1000000000|62=20190617-22:00:00|10=062|
8=FIX.4.4|9=0054|35=4|34=4|49=EXC|56=001|52=20190611-21:02:30.730|36=5|10=127|
8=FIX.4.4|9=68|35=2|34=4|49=001|50=001B27|52=20190611-21:02:41.444|56=EXC|7=2|16=0|10=165|
8=FIX.4.4|9=0291|35=AI|34=2|43=Y|52=20190611-21:02:41.417|49=EXC|56=001|57=001B27|122=20190611-21:02:13.918|131=59003889|453=5|448=DCV|447=C|452=10|448=001B27|447=C|452=12|448=001|447=C|452=1|448=001FCM001|447=C|452=36|448=002B35|447=C|452=37|55=TFIT16280428|762=RFQF|48=20399|22=M|54=1|38=1000000000|297=10|10=021|
8=FIX.4.4|9=0339|35=S|34=3|43=Y|52=20190611-21:02:41.417|49=EXC|56=001|57=001B27|122=20190611-21:02:30.691|131=59003889|117=20190611-000000000087.00|55=TFIT16280428|762=RFQF|48=20399|22=M|453=5|448=DCV|447=C|452=10|448=001B27|447=C|452=12|448=001|447=C|452=1|448=001FCM001|447=C|452=36|448=002B35|447=C|452=37|634=3.000|135=1000000000|62=20190617-22:00:00|10=058|
8=FIX.4.4|9=0065|35=4|34=4|43=Y|49=EXC|56=001|52=20190611-21:02:41.417|123=Y|36=5|10=176|
8=FIX.4.4|9=0054|35=4|34=5|49=EXC|56=001|52=20190611-21:02:41.417|36=6|10=133|
8=FIX.4.4|9=0094|35=Z|34=6|49=EXC|56=001|57=001B27|52=20190611-21:02:51.782|117=20190611-000000000087.00|298=5|10=074|
8=FIX.4.4|9=110|35=A|34=1|49=001|50=001B27|52=20190611-21:18:19.689|56=EXC|43=Y|98=0|108=30|141=Y|553=001FCM001|554=001FCM001|10=091|
8=FIX.4.4|9=0067|35=A|34=1|49=EXC|56=001|52=20190611-21:18:19.652|98=0|108=30|141=Y|10=008|
8=FIX.4.4|9=178|35=R|34=2|49=001|50=001B27|52=20190611-21:18:22.075|56=EXC|131=49037694|146=1|55=TFIT16280428|22=M|762=RFQF|54=1|38=1000000000|453=2|448=002B35|447=C|452=37|448=DCV|447=C|452=10|10=127|
8=FIX.4.4|9=0260|35=AI|34=2|49=EXC|56=001|57=001B27|52=20190611-21:18:21.992|131=49037694|453=5|448=DCV|447=C|452=10|448=001B27|447=C|452=12|448=001|447=C|452=1|448=001FCM001|447=C|452=36|448=002B35|447=C|452=37|55=TFIT16280428|762=RFQF|48=20399|22=M|54=1|38=1000000000|297=10|10=031|
8=FIX.4.4|9=0308|35=S|34=3|49=EXC|56=001|57=001B27|52=20190611-21:18:37.988|131=49037694|117=20190611-000000000093.00|55=TFIT16280428|762=RFQF|48=20399|22=M|453=5|448=DCV|447=C|452=10|448=001B27|447=C|452=12|448=001|447=C|452=1|448=001FCM001|447=C|452=36|448=002B35|447=C|452=37|634=3.000|135=1000000000|62=20190617-22:00:00|10=080|
8=FIX.4.4|9=68|35=2|34=3|49=001|50=001B27|52=20190611-21:18:38.098|56=EXC|7=2|16=0|10=182|
8=FIX.4.4|9=0291|35=AI|34=2|43=Y|52=20190611-21:18:38.012|49=EXC|56=001|57=001B27|122=20190611-21:18:21.992|131=49037694|453=5|448=DCV|447=C|452=10|448=001B27|447=C|452=12|448=001|447=C|452=1|448=001FCM001|447=C|452=36|448=002B35|447=C|452=37|55=TFIT16280428|762=RFQF|48=20399|22=M|54=1|38=1000000000|297=10|10=033|
8=FIX.4.4|9=0339|35=S|34=3|43=Y|52=20190611-21:18:38.012|49=EXC|56=001|57=001B27|122=20190611-21:18:37.988|131=49037694|117=20190611-000000000093.00|55=TFIT16280428|762=RFQF|48=20399|22=M|453=5|448=DCV|447=C|452=10|448=001B27|447=C|452=12|448=001|447=C|452=1|448=001FCM001|447=C|452=36|448=002B35|447=C|452=37|634=3.000|135=1000000000|62=20190617-22:00:00|10=082|
8=FIX.4.4|9=0054|35=4|34=4|49=EXC|56=001|52=20190611-21:18:38.013|36=5|10=136|
8=FIX.4.4|9=68|35=2|34=4|49=001|50=001B27|52=20190611-21:18:48.546|56=EXC|7=2|16=0|10=182|
8=FIX.4.4|9=0291|35=AI|34=2|43=Y|52=20190611-21:18:48.462|49=EXC|56=001|57=001B27|122=20190611-21:18:21.992|131=49037694|453=5|448=DCV|447=C|452=10|448=001B27|447=C|452=12|448=001|447=C|452=1|448=001FCM001|447=C|452=36|448=002B35|447=C|452=37|55=TFIT16280428|762=RFQF|48=20399|22=M|54=1|38=1000000000|297=10|10=043|
8=FIX.4.4|9=0339|35=S|34=3|43=Y|52=20190611-21:18:48.462|49=EXC|56=001|57=001B27|122=20190611-21:18:37.988|131=49037694|117=20190611-000000000093.00|55=TFIT16280428|762=RFQF|48=20399|22=M|453=5|448=DCV|447=C|452=10|448=001B27|447=C|452=12|448=001|447=C|452=1|448=001FCM001|447=C|452=36|448=002B35|447=C|452=37|634=3.000|135=1000000000|62=20190617-22:00:00|10=092|
8=FIX.4.4|9=0065|35=4|34=4|43=Y|49=EXC|56=001|52=20190611-21:18:48.462|123=Y|36=5|10=190|
8=FIX.4.4|9=0054|35=4|34=5|49=EXC|56=001|52=20190611-21:18:48.462|36=6|10=147|
8=FIX.4.4|9=0094|35=Z|34=6|49=EXC|56=001|57=001B27|52=20190611-21:18:58.772|117=20190611-000000000093.00|298=5|10=084|
8=FIX.4.4|9=177|35=R|34=5|49=001|50=001B27|52=20190611-21:19:09.405|56=EXC|131=28902252|146=1|55=TFIT16300632|22=M|762=RFQF|54=1|38=500000000|453=2|448=002B35|447=C|452=37|448=DCV|447=C|452=10|10=066|
8=FIX.4.4|9=0259|35=AI|34=7|49=EXC|56=001|57=001B27|52=20190611-21:19:09.319|131=28902252|453=5|448=DCV|447=C|452=10|448=001B27|447=C|452=12|448=001|447=C|452=1|448=001FCM001|447=C|452=36|448=002B35|447=C|452=37|55=TFIT16300632|762=RFQF|48=20406|22=M|54=1|38=500000000|297=10|10=223|
8=FIX.4.4|9=110|35=A|34=1|49=001|50=001B27|52=20190611-21:20:19.966|56=EXC|43=Y|98=0|108=30|141=Y|553=001FCM001|554=001FCM001|10=082|
8=FIX.4.4|9=0067|35=A|34=1|49=EXC|56=001|52=20190611-21:20:19.911|98=0|108=30|141=Y|10=255|
8=FIX.4.4|9=178|35=R|34=2|49=001|50=001B27|52=20190611-21:20:22.316|56=EXC|131=37744019|146=1|55=TFIT16280428|22=M|762=RFQF|54=1|38=1000000000|453=2|448=002B35|447=C|452=37|448=DCV|447=C|452=10|10=111|
8=FIX.4.4|9=0260|35=AI|34=2|49=EXC|56=001|57=001B27|52=20190611-21:20:22.229|131=37744019|453=5|448=DCV|447=C|452=10|448=001B27|447=C|452=12|448=001|447=C|452=1|448=001FCM001|447=C|452=36|448=002B35|447=C|452=37|55=TFIT16280428|762=RFQF|48=20399|22=M|54=1|38=1000000000|297=10|10=011|
8=FIX.4.4|9=0308|35=S|34=3|49=EXC|56=001|57=001B27|52=20190611-21:20:38.235|131=37744019|117=20190611-000000000095.00|55=TFIT16280428|762=RFQF|48=20399|22=M|453=5|448=DCV|447=C|452=10|448=001B27|447=C|452=12|448=001|447=C|452=1|448=001FCM001|447=C|452=36|448=002B35|447=C|452=37|634=3.000|135=1000000000|62=20190617-22:00:00|10=054|
8=FIX.4.4|9=68|35=2|34=3|49=001|50=001B27|52=20190611-21:20:38.347|56=EXC|7=2|16=0|10=172|
8=FIX.4.4|9=0291|35=AI|34=2|43=Y|52=20190611-21:20:38.258|49=EXC|56=001|57=001B27|122=20190611-21:20:22.229|131=37744019|453=5|448=DCV|447=C|452=10|448=001B27|447=C|452=12|448=001|447=C|452=1|448=001FCM001|447=C|452=36|448=002B35|447=C|452=37|55=TFIT16280428|762=RFQF|48=20399|22=M|54=1|38=1000000000|297=10|10=018|
8=FIX.4.4|9=0339|35=S|34=3|43=Y|52=20190611-21:20:38.258|49=EXC|56=001|57=001B27|122=20190611-21:20:38.235|131=37744019|117=20190611-000000000095.00|55=TFIT16280428|762=RFQF|48=20399|22=M|453=5|448=DCV|447=C|452=10|448=001B27|447=C|452=12|448=001|447=C|452=1|448=001FCM001|447=C|452=36|448=002B35|447=C|452=37|634=3.000|135=1000000000|62=20190617-22:00:00|10=061|
8=FIX.4.4|9=0054|35=4|34=4|49=EXC|56=001|52=20190611-21:20:38.259|36=5|10=141|
8=FIX.4.4|9=68|35=2|34=4|49=001|50=001B27|52=20190611-21:20:48.878|56=EXC|7=2|16=0|10=183|
8=FIX.4.4|9=0291|35=AI|34=2|43=Y|52=20190611-21:20:48.792|49=EXC|56=001|57=001B27|122=20190611-21:20:22.229|131=37744019|453=5|448=DCV|447=C|452=10|448=001B27|447=C|452=12|448=001|447=C|452=1|448=001FCM001|447=C|452=36|448=002B35|447=C|452=37|55=TFIT16280428|762=RFQF|48=20399|22=M|54=1|38=1000000000|297=10|10=022|
8=FIX.4.4|9=0339|35=S|34=3|43=Y|52=20190611-21:20:48.792|49=EXC|56=001|57=001B27|122=20190611-21:20:38.235|131=37744019|117=20190611-000000000095.00|55=TFIT16280428|762=RFQF|48=20399|22=M|453=5|448=DCV|447=C|452=10|448=001B27|447=C|452=12|448=001|447=C|452=1|448=001FCM001|447=C|452=36|448=002B35|447=C|452=37|634=3.000|135=1000000000|62=20190617-22:00:00|10=065|
8=FIX.4.4|9=0065|35=4|34=4|43=Y|49=EXC|56=001|52=20190611-21:20:48.792|123=Y|36=5|10=189|
8=FIX.4.4|9=0054|35=4|34=5|49=EXC|56=001|52=20190611-21:20:48.792|36=6|10=146|
8=FIX.4.4|9=0094|35=Z|34=6|49=EXC|56=001|57=001B27|52=20190611-21:20:59.220|117=20190611-000000000095.00|298=5|10=068|
8=FIX.4.4|9=177|35=R|34=5|49=001|50=001B27|52=20190611-21:21:09.860|56=EXC|131=51833348|146=1|55=TFIT16300632|22=M|762=RFQF|54=1|38=500000000|453=2|448=002B35|447=C|452=37|448=DCV|447=C|452=10|10=069|
8=FIX.4.4|9=0259|35=AI|34=7|49=EXC|56=001|57=001B27|52=20190611-21:21:09.770|131=51833348|453=5|448=DCV|447=C|452=10|448=001B27|447=C|452=12|448=001|447=C|452=1|448=001FCM001|447=C|452=36|448=002B35|447=C|452=37|55=TFIT16300632|762=RFQF|48=20406|22=M|54=1|38=500000000|297=10|10=222|
8=FIX.4.4|9=110|35=A|34=1|49=001|50=001B27|52=20190611-21:21:34.611|56=EXC|43=Y|98=0|108=30|141=Y|553=001FCM001|554=001FCM001|10=067|
8=FIX.4.4|9=0067|35=A|34=1|49=EXC|56=001|52=20190611-21:21:34.561|98=0|108=30|141=Y|10=254|
8=FIX.4.4|9=177|35=R|34=2|49=001|50=001B27|52=20190611-21:21:37.003|56=EXC|131=13415752|146=1|55=TFIC13280425|22=M|762=RFQF|54=1|38=500000000|453=2|448=002B35|447=C|452=37|448=DCV|447=C|452=10|10=036|
8=FIX.4.4|9=0259|35=AI|34=2|49=EXC|56=001|57=001B27|52=20190611-21:21:36.932|131=13415752|453=5|448=DCV|447=C|452=10|448=001B27|447=C|452=12|448=001|447=C|452=1|448=001FCM001|447=C|452=36|448=002B35|447=C|452=37|55=TFIC13280425|762=RFQF|48=20626|22=M|54=1|38=500000000|297=10|10=201|
8=FIX.4.4|9=0307|35=S|34=3|49=EXC|56=001|57=001B27|52=20190611-21:21:52.999|131=13415752|117=20190611-000000000097.00|55=TFIC13280425|762=RFQF|48=20626|22=M|453=5|448=DCV|447=C|452=10|448=001B27|447=C|452=12|448=001|447=C|452=1|448=001FCM001|447=C|452=36|448=002B35|447=C|452=37|634=4.000|135=500000000|62=20190617-22:00:00|10=245|
8=FIX.4.4|9=68|35=2|34=3|49=001|50=001B27|52=20190611-21:21:53.142|56=EXC|7=2|16=0|10=163|
8=FIX.4.4|9=0290|35=AI|34=2|43=Y|52=20190611-21:21:53.053|49=EXC|56=001|57=001B27|122=20190611-21:21:36.932|131=13415752|453=5|448=DCV|447=C|452=10|448=001B27|447=C|452=12|448=001|447=C|452=1|448=001FCM001|447=C|452=36|448=002B35|447=C|452=37|55=TFIC13280425|762=RFQF|48=20626|22=M|54=1|38=500000000|297=10|10=190|
8=FIX.4.4|9=0338|35=S|34=3|43=Y|52=20190611-21:21:53.053|49=EXC|56=001|57=001B27|122=20190611-21:21:52.999|131=13415752|117=20190611-000000000097.00|55=TFIC13280425|762=RFQF|48=20626|22=M|453=5|448=DCV|447=C|452=10|448=001B27|447=C|452=12|448=001|447=C|452=1|448=001FCM001|447=C|452=36|448=002B35|447=C|452=37|634=4.000|135=500000000|62=20190617-22:00:00|10=243|
8=FIX.4.4|9=0054|35=4|34=4|49=EXC|56=001|52=20190611-21:21:53.053|36=5|10=131|
8=FIX.4.4|9=68|35=2|34=4|49=001|50=001B27|52=20190611-21:22:03.592|56=EXC|7=2|16=0|10=169|
8=FIX.4.4|9=0290|35=AI|34=2|43=Y|52=20190611-21:22:03.505|49=EXC|56=001|57=001B27|122=20190611-21:21:36.932|131=13415752|453=5|448=DCV|447=C|452=10|448=001B27|447=C|452=12|448=001|447=C|452=1|448=001FCM001|447=C|452=36|448=002B35|447=C|452=37|55=TFIC13280425|762=RFQF|48=20626|22=M|54=1|38=500000000|297=10|10=188|
8=FIX.4.4|9=0338|35=S|34=3|43=Y|52=20190611-21:22:03.505|49=EXC|56=001|57=001B27|122=20190611-21:21:52.999|131=13415752|117=20190611-000000000097.00|55=TFIC13280425|762=RFQF|48=20626|22=M|453=5|448=DCV|447=C|452=10|448=001B27|447=C|452=12|448=001|447=C|452=1|448=001FCM001|447=C|452=36|448=002B35|447=C|452=37|634=4.000|135=500000000|62=20190617-22:00:00|10=241|
8=FIX.4.4|9=0065|35=4|34=4|43=Y|49=EXC|56=001|52=20190611-21:22:03.505|123=Y|36=5|10=174|
8=FIX.4.4|9=0054|35=4|34=5|49=EXC|56=001|52=20190611-21:22:03.505|36=6|10=131|
8=FIX.4.4|9=110|35=A|34=1|49=001|50=001B27|52=20190611-21:40:48.646|56=EXC|43=Y|98=0|108=30|141=Y|553=001FCM001|554=001FCM001|10=081|
8=FIX.4.4|9=0067|35=A|34=1|49=EXC|56=001|52=20190611-21:40:48.765|98=0|108=30|141=Y|10=010|
8=FIX.4.4|9=178|35=R|34=2|49=001|50=001B27|52=20190611-21:40:51.047|56=EXC|131=72219641|146=1|55=TFIT16280428|22=M|762=RFQF|54=1|38=1000000000|453=2|448=002B35|447=C|452=37|448=DCV|447=C|452=10|10=113|
8=FIX.4.4|9=0260|35=AI|34=2|49=EXC|56=001|57=001B27|52=20190611-21:40:51.047|131=72219641|453=5|448=DCV|447=C|452=10|448=001B27|447=C|452=12|448=001|447=C|452=1|448=001FCM001|447=C|452=36|448=002B35|447=C|452=37|55=TFIT16280428|762=RFQF|48=20399|22=M|54=1|38=1000000000|297=10|10=010|
8=FIX.4.4|9=0308|35=S|34=3|49=EXC|56=001|57=001B27|52=20190611-21:41:06.951|131=72219641|117=20190611-000000000003.00|55=TFIT16280428|762=RFQF|48=20399|22=M|453=5|448=DCV|447=C|452=10|448=001B27|447=C|452=12|448=001|447=C|452=1|448=001FCM001|447=C|452=36|448=002B35|447=C|452=37|634=3.000|135=1000000000|62=20190617-22:00:00|10=043|
8=FIX.4.4|9=68|35=2|34=3|49=001|50=001B27|52=20190611-21:41:06.984|56=EXC|7=2|16=0|10=177|
8=FIX.4.4|9=0291|35=AI|34=2|43=Y|52=20190611-21:41:06.982|49=EXC|56=001|57=001B27|122=20190611-21:40:51.047|131=72219641|453=5|448=DCV|447=C|452=10|448=001B27|447=C|452=12|448=001|447=C|452=1|448=001FCM001|447=C|452=36|448=002B35|447=C|452=37|55=TFIT16280428|762=RFQF|48=20399|22=M|54=1|38=1000000000|297=10|10=019|
8=FIX.4.4|9=0339|35=S|34=3|43=Y|52=20190611-21:41:06.982|49=EXC|56=001|57=001B27|122=20190611-21:41:06.951|131=72219641|117=20190611-000000000003.00|55=TFIT16280428|762=RFQF|48=20399|22=M|453=5|448=DCV|447=C|452=10|448=001B27|447=C|452=12|448=001|447=C|452=1|448=001FCM001|447=C|452=36|448=002B35|447=C|452=37|634=3.000|135=1000000000|62=20190617-22:00:00|10=052|
8=FIX.4.4|9=0054|35=4|34=4|49=EXC|56=001|52=20190611-21:41:06.982|36=5|10=142|
8=FIX.4.4|9=68|35=2|34=4|49=001|50=001B27|52=20190611-21:41:17.758|56=EXC|7=2|16=0|10=179|
8=FIX.4.4|9=0291|35=AI|34=2|43=Y|52=20190611-21:41:17.756|49=EXC|56=001|57=001B27|122=20190611-21:40:51.047|131=72219641|453=5|448=DCV|447=C|452=10|448=001B27|447=C|452=12|448=001|447=C|452=1|448=001FCM001|447=C|452=36|448=002B35|447=C|452=37|55=TFIT16280428|762=RFQF|48=20399|22=M|54=1|38=1000000000|297=10|10=020|
8=FIX.4.4|9=0339|35=S|34=3|43=Y|52=20190611-21:41:17.756|49=EXC|56=001|57=001B27|122=20190611-21:41:06.951|131=72219641|117=20190611-000000000003.00|55=TFIT16280428|762=RFQF|48=20399|22=M|453=5|448=DCV|447=C|452=10|448=001B27|447=C|452=12|448=001|447=C|452=1|448=001FCM001|447=C|452=36|448=002B35|447=C|452=37|634=3.000|135=1000000000|62=20190617-22:00:00|10=053|
8=FIX.4.4|9=0065|35=4|34=4|43=Y|49=EXC|56=001|52=20190611-21:41:17.756|123=Y|36=5|10=188|
8=FIX.4.4|9=0054|35=4|34=5|49=EXC|56=001|52=20190611-21:41:17.756|36=6|10=145|
8=FIX.4.4|9=0094|35=Z|34=6|49=EXC|56=001|57=001B27|52=20190611-21:41:28.502|117=20190611-000000000003.00|298=5|10=059|
8=FIX.4.4|9=177|35=R|34=5|49=001|50=001B27|52=20190611-21:41:39.039|56=EXC|131=10625299|146=1|55=TFIT16300632|22=M|762=RFQF|54=1|38=500000000|453=2|448=002B35|447=C|452=37|448=DCV|447=C|452=10|10=071|
8=FIX.4.4|9=0259|35=AI|34=7|49=EXC|56=001|57=001B27|52=20190611-21:41:39.042|131=10625299|453=5|448=DCV|447=C|452=10|448=001B27|447=C|452=12|448=001|447=C|452=1|448=001FCM001|447=C|452=36|448=002B35|447=C|452=37|55=TFIT16300632|762=RFQF|48=20406|22=M|54=1|38=500000000|297=10|10=218|
8=FIX.4.4|9=110|35=A|34=1|49=001|50=001B27|52=20190611-21:42:47.151|56=EXC|43=Y|98=0|108=30|141=Y|553=001FCM001|554=001FCM001|10=073|
8=FIX.4.4|9=0067|35=A|34=1|49=EXC|56=001|52=20190611-21:42:47.200|98=0|108=30|141=Y|10=251|
8=FIX.4.4|9=177|35=R|34=2|49=001|50=001B27|52=20190611-21:42:49.616|56=EXC|131=72388958|146=1|55=TFIT16300632|22=M|762=RFQF|54=1|38=500000000|453=2|448=002B35|447=C|452=37|448=DCV|447=C|452=10|10=087|
8=FIX.4.4|9=0259|35=AI|34=2|49=EXC|56=001|57=001B27|52=20190611-21:42:49.613|131=72388958|453=5|448=DCV|447=C|452=10|448=001B27|447=C|452=12|448=001|447=C|452=1|448=001FCM001|447=C|452=36|448=002B35|447=C|452=37|55=TFIT16300632|762=RFQF|48=20406|22=M|54=1|38=500000000|297=10|10=235|
8=FIX.4.4|9=168|35=R|34=3|49=001|50=001B27|52=20190611-21:43:06.016|56=EXC|131=2699669|146=1|55=TFIT16300632|22=M|762=RFQF|54=1|38=0|453=2|448=002B35|447=C|452=37|448=DCV|447=C|452=10|10=148|
8=FIX.4.4|9=0151|35=AG|34=3|49=EXC|56=001|57=001B27|52=20190611-21:43:06.012|131=2699669|658=99|146=1|55=TFIT16300632|762=RFQF|22=M|58=(333): ID de cotización inválida|10=029|
8=FIX.4.4|9=118|35=3|34=4|49=001|50=001B27|52=20190611-21:43:06.050|56=EXC|45=3|58=Required tag missing, field=38|371=38|372=AG|373=1|10=059|
8=FIX.4.4|9=110|35=A|34=1|49=001|50=001B27|52=20190611-22:00:16.441|56=EXC|43=Y|98=0|108=30|141=Y|553=001FCM001|554=001FCM001|10=066|
8=FIX.4.4|9=0067|35=A|34=1|49=EXC|56=001|52=20190611-22:00:16.483|98=0|108=30|141=Y|10=255|
8=FIX.4.4|9=177|35=R|34=2|49=001|50=001B27|52=20190611-22:00:19.524|56=EXC|131=15484368|146=1|55=TFIC13280425|22=M|762=RFQF|54=1|38=500000000|453=2|448=002B35|447=C|452=37|448=DCV|447=C|452=10|10=053|
8=FIX.4.4|9=0259|35=AI|34=2|49=EXC|56=001|57=001B27|52=20190611-22:00:19.514|131=15484368|453=5|448=DCV|447=C|452=10|448=001B27|447=C|452=12|448=001|447=C|452=1|448=001FCM001|447=C|452=36|448=002B35|447=C|452=37|55=TFIC13280425|762=RFQF|48=20626|22=M|54=1|38=500000000|297=10|10=207|
8=FIX.4.4|9=0307|35=S|34=3|49=EXC|56=001|57=001B27|52=20190611-22:00:36.844|131=15484368|117=20190611-000000000007.00|55=TFIC13280425|762=RFQF|48=20626|22=M|453=5|448=DCV|447=C|452=10|448=001B27|447=C|452=12|448=001|447=C|452=1|448=001FCM001|447=C|452=36|448=002B35|447=C|452=37|634=4.000|135=500000000|62=20190617-22:00:00|10=236|
8=FIX.4.4|9=68|35=2|34=3|49=001|50=001B27|52=20190611-22:00:36.891|56=EXC|7=2|16=0|10=173|
8=FIX.4.4|9=0290|35=AI|34=2|43=Y|52=20190611-22:00:36.880|49=EXC|56=001|57=001B27|122=20190611-22:00:19.514|131=15484368|453=5|448=DCV|447=C|452=10|448=001B27|447=C|452=12|448=001|447=C|452=1|448=001FCM001|447=C|452=36|448=002B35|447=C|452=37|55=TFIC13280425|762=RFQF|48=20626|22=M|54=1|38=500000000|297=10|10=203|
8=FIX.4.4|9=0338|35=S|34=3|43=Y|52=20190611-22:00:36.880|49=EXC|56=001|57=001B27|122=20190611-22:00:36.844|131=15484368|117=20190611-000000000007.00|55=TFIC13280425|762=RFQF|48=20626|22=M|453=5|448=DCV|447=C|452=10|448=001B27|447=C|452=12|448=001|447=C|452=1|448=001FCM001|447=C|452=36|448=002B35|447=C|452=37|634=4.000|135=500000000|62=20190617-22:00:00|10=241|
8=FIX.4.4|9=0054|35=4|34=4|49=EXC|56=001|52=20190611-22:00:36.880|36=5|10=138|
8=FIX.4.4|9=68|35=2|34=4|49=001|50=001B27|52=20190611-22:00:47.502|56=EXC|7=2|16=0|10=165|
8=FIX.4.4|9=0290|35=AI|34=2|43=Y|52=20190611-22:00:47.491|49=EXC|56=001|57=001B27|122=20190611-22:00:19.514|131=15484368|453=5|448=DCV|447=C|452=10|448=001B27|447=C|452=12|448=001|447=C|452=1|448=001FCM001|447=C|452=36|448=002B35|447=C|452=37|55=TFIC13280425|762=RFQF|48=20626|22=M|54=1|38=500000000|297=10|10=203|
8=FIX.4.4|9=0338|35=S|34=3|43=Y|52=20190611-22:00:47.491|49=EXC|56=001|57=001B27|122=20190611-22:00:36.844|131=15484368|117=20190611-000000000007.00|55=TFIC13280425|762=RFQF|48=20626|22=M|453=5|448=DCV|447=C|452=10|448=001B27|447=C|452=12|448=001|447=C|452=1|448=001FCM001|447=C|452=36|448=002B35|447=C|452=37|634=4.000|135=500000000|62=20190617-22:00:00|10=241|
8=FIX.4.4|9=0065|35=4|34=4|43=Y|49=EXC|56=001|52=20190611-22:00:47.491|123=Y|36=5|10=183|
8=FIX.4.4|9=0054|35=4|34=5|49=EXC|56=001|52=20190611-22:00:47.491|36=6|10=140|
8=FIX.4.4|9=0049|35=0|34=6|49=EXC|56=001|52=20190611-22:01:17.000|10=160|
8=FIX.4.4|9=59|35=0|34=5|49=001|50=001B27|52=20190611-22:01:18.382|56=EXC|10=045|
8=FIX.4.4|9=110|35=A|34=1|49=001|50=001B27|52=20190611-22:03:47.664|56=EXC|43=Y|98=0|108=30|141=Y|553=001FCM001|554=001FCM001|10=080|
8=FIX.4.4|9=0067|35=A|34=1|49=EXC|56=001|52=20190611-22:03:47.706|98=0|108=30|141=Y|10=004|
8=FIX.4.4|9=177|35=R|34=2|49=001|50=001B27|52=20190611-22:03:50.217|56=EXC|131=48087332|146=1|55=TFIC13280425|22=M|762=RFQF|54=1|38=500000000|453=2|448=002B35|447=C|452=37|448=DCV|447=C|452=10|10=046|
8=FIX.4.4|9=0259|35=AI|34=2|49=EXC|56=001|57=001B27|52=20190611-22:03:50.210|131=48087332|453=5|448=DCV|447=C|452=10|448=001B27|447=C|452=12|448=001|447=C|452=1|448=001FCM001|447=C|452=36|448=002B35|447=C|452=37|55=TFIC13280425|762=RFQF|48=20626|22=M|54=1|38=500000000|297=10|10=194|
8=FIX.4.4|9=0307|35=S|34=3|49=EXC|56=001|57=001B27|52=20190611-22:04:06.983|131=48087332|117=20190611-000000000010.00|55=TFIC13280425|762=RFQF|48=20626|22=M|453=5|448=DCV|447=C|452=10|448=001B27|447=C|452=12|448=001|447=C|452=1|448=001FCM001|447=C|452=36|448=002B35|447=C|452=37|634=4.000|135=500000000|62=20190617-22:00:00|10=231|
8=FIX.4.4|9=68|35=2|34=3|49=001|50=001B27|52=20190611-22:04:07.037|56=EXC|7=2|16=0|10=167|
8=FIX.4.4|9=0290|35=AI|34=2|43=Y|52=20190611-22:04:07.024|49=EXC|56=001|57=001B27|122=20190611-22:03:50.210|131=48087332|453=5|448=DCV|447=C|452=10|448=001B27|447=C|452=12|448=001|447=C|452=1|448=001FCM001|447=C|452=36|448=002B35|447=C|452=37|55=TFIC13280425|762=RFQF|48=20626|22=M|54=1|38=500000000|297=10|10=182|
8=FIX.4.4|9=0338|35=S|34=3|43=Y|52=20190611-22:04:07.024|49=EXC|56=001|57=001B27|122=20190611-22:04:06.983|131=48087332|117=20190611-000000000010.00|55=TFIC13280425|762=RFQF|48=20626|22=M|453=5|448=DCV|447=C|452=10|448=001B27|447=C|452=12|448=001|447=C|452=1|448=001FCM001|447=C|452=36|448=002B35|447=C|452=37|634=4.000|135=500000000|62=20190617-22:00:00|10=228|
8=FIX.4.4|9=0054|35=4|34=4|49=EXC|56=001|52=20190611-22:04:07.025|36=5|10=131|
8=FIX.4.4|9=68|35=2|34=4|49=001|50=001B27|52=20190611-22:04:17.527|56=EXC|7=2|16=0|10=173|
8=FIX.4.4|9=0290|35=AI|34=2|43=Y|52=20190611-22:04:17.516|49=EXC|56=001|57=001B27|122=20190611-22:03:50.210|131=48087332|453=5|448=DCV|447=C|452=10|448=001B27|447=C|452=12|448=001|447=C|452=1|448=001FCM001|447=C|452=36|448=002B35|447=C|452=37|55=TFIC13280425|762=RFQF|48=20626|22=M|54=1|38=500000000|297=10|10=189|
8=FIX.4.4|9=0338|35=S|34=3|43=Y|52=20190611-22:04:17.516|49=EXC|56=001|57=001B27|122=20190611-22:04:06.983|131=48087332|117=20190611-000000000010.00|55=TFIC13280425|762=RFQF|48=20626|22=M|453=5|448=DCV|447=C|452=10|448=001B27|447=C|452=12|448=001|447=C|452=1|448=001FCM001|447=C|452=36|448=002B35|447=C|452=37|634=4.000|135=500000000|62=20190617-22:00:00|10=235|
8=FIX.4.4|9=0065|35=4|34=4|43=Y|49=EXC|56=001|52=20190611-22:04:17.516|123=Y|36=5|10=182|
8=FIX.4.4|9=0054|35=4|34=5|49=EXC|56=001|52=20190611-22:04:17.516|36=6|10=139|
