8=FIX.4.4|9=105|35=A|34=1|49=001|50=001B27|52=20190611-22:57:17.703|56=EXC|98=0|108=30|141=Y|553=001FCM001|554=001FCM001|10=086|
8=FIX.4.4|9=0067|35=A|34=1|49=EXC|56=001|52=20190611-22:57:17.710|98=0|108=30|141=Y|10=005|
8=FIX.4.4|9=0192|35=R|34=2|49=EXC|56=001|52=20190611-22:57:20.236|131=20190611-000000000020.00|146=1|55=TFIT15260826|762=RFQF|48=20348|22=M|54=1|38=1500000000|453=2|448=007B26|447=C|452=12|448=007|447=C|452=1|10=235|
8=FIX.4.4|9=0183|35=R|34=3|49=EXC|56=001|52=20190611-22:57:36.663|131=20190611-000000000020.00|146=1|55=TFIT15260826|762=RFQF|48=20348|22=M|54=1|38=0|453=2|448=007B26|447=C|452=12|448=007|447=C|452=1|10=065|
8=FIX.4.4|9=59|35=0|34=2|49=001|50=001B27|52=20190611-22:57:48.669|56=EXC|10=064|
8=FIX.4.4|9=0049|35=0|34=4|49=EXC|56=001|52=20190611-22:58:06.000|10=168|
8=FIX.4.4|9=59|35=0|34=3|49=001|50=001B27|52=20190611-22:58:18.663|56=EXC|10=057|
8=FIX.4.4|9=0049|35=0|34=5|49=EXC|56=001|52=20190611-22:58:36.000|10=172|
8=FIX.4.4|9=59|35=0|34=4|49=001|50=001B27|52=20190611-22:58:48.662|56=EXC|10=060|
8=FIX.4.4|9=0049|35=0|34=6|49=EXC|56=001|52=20190611-22:59:06.000|10=171|
8=FIX.4.4|9=59|35=0|34=5|49=001|50=001B27|52=20190611-22:59:18.673|56=EXC|10=061|
8=FIX.4.4|9=0049|35=0|34=7|49=EXC|56=001|52=20190611-22:59:36.000|10=175|
8=FIX.4.4|9=59|35=0|34=6|49=001|50=001B27|52=20190611-22:59:48.668|56=EXC|10=069|
8=FIX.4.4|9=0049|35=0|34=8|49=EXC|56=001|52=20190611-23:00:06.000|10=160|
8=FIX.4.4|9=59|35=0|34=7|49=001|50=001B27|52=20190611-23:00:18.667|56=EXC|10=053|
8=FIX.4.4|9=105|35=A|34=1|49=001|50=001B27|52=20190611-23:00:57.074|56=EXC|98=0|108=30|141=Y|553=001FCM001|554=001FCM001|10=080|
8=FIX.4.4|9=0067|35=A|34=1|49=EXC|56=001|52=20190611-23:00:57.081|98=0|108=30|141=Y|10=255|
8=FIX.4.4|9=0192|35=R|34=2|49=EXC|56=001|52=20190611-23:00:59.613|131=20190611-000000000021.00|146=1|55=TFIT15260826|762=RFQF|48=20348|22=M|54=1|38=1500000000|453=2|448=007B26|447=C|452=12|448=007|447=C|452=1|10=236|
8=FIX.4.4|9=0183|35=R|34=3|49=EXC|56=001|52=20190611-23:01:15.604|131=20190611-000000000021.00|146=1|55=TFIT15260826|762=RFQF|48=20348|22=M|54=1|38=0|453=2|448=007B26|447=C|452=12|448=007|447=C|452=1|10=048|
8=FIX.4.4|9=59|35=0|34=2|49=001|50=001B27|52=20190611-23:01:28.044|56=EXC|10=039|
8=FIX.4.4|9=105|35=A|34=1|49=001|50=001B27|52=20190611-23:03:31.168|56=EXC|98=0|108=30|141=Y|553=001FCM001|554=001FCM001|10=079|
8=FIX.4.4|9=0067|35=A|34=1|49=EXC|56=001|52=20190611-23:03:31.178|98=0|108=30|141=Y|10=001|
8=FIX.4.4|9=0192|35=R|34=2|49=EXC|56=001|52=20190611-23:03:33.644|131=20190611-000000000022.00|146=1|55=TFIT15260826|762=RFQF|48=20348|22=M|54=1|38=1500000000|453=2|448=007B26|447=C|452=12|448=007|447=C|452=1|10=236|
8=FIX.4.4|9=59|35=0|34=2|49=001|50=001B27|52=20190611-23:04:02.131|56=EXC|10=031|
8=FIX.4.4|9=0049|35=0|34=3|49=EXC|56=001|52=20190611-23:04:03.000|10=156|
8=FIX.4.4|9=68|35=1|34=3|49=001|50=001B27|52=20190611-23:04:19.131|56=EXC|112=TEST|10=059|
8=FIX.4.4|9=0058|35=0|34=4|49=EXC|56=001|52=20190611-23:04:19.091|112=TEST|10=192|
8=FIX.4.4|9=0049|35=0|34=5|49=EXC|56=001|52=20190611-23:04:49.000|10=168|
8=FIX.4.4|9=59|35=0|34=4|49=001|50=001B27|52=20190611-23:04:49.126|56=EXC|10=048|
8=FIX.4.4|9=0049|35=0|34=6|49=EXC|56=001|52=20190611-23:05:19.000|10=167|
8=FIX.4.4|9=59|35=0|34=5|49=001|50=001B27|52=20190611-23:05:19.124|56=EXC|10=045|
8=FIX.4.4|9=0049|35=0|34=7|49=EXC|56=001|52=20190611-23:05:49.000|10=171|
8=FIX.4.4|9=59|35=0|34=6|49=001|50=001B27|52=20190611-23:05:49.120|56=EXC|10=045|
8=FIX.4.4|9=0049|35=0|34=8|49=EXC|56=001|52=20190611-23:06:19.000|10=170|
8=FIX.4.4|9=59|35=0|34=7|49=001|50=001B27|52=20190611-23:06:19.125|56=EXC|10=049|
8=FIX.4.4|9=105|35=A|34=1|49=001|50=001B27|52=20190611-23:33:37.023|56=EXC|98=0|108=30|141=Y|553=001FCM001|554=001FCM001|10=078|
8=FIX.4.4|9=0067|35=A|34=1|49=EXC|56=001|52=20190611-23:33:37.026|98=0|108=30|141=Y|10=002|
8=FIX.4.4|9=0192|35=R|34=2|49=EXC|56=001|52=20190611-23:33:39.653|131=20190611-000000000023.00|146=1|55=TFIT15260826|762=RFQF|48=20348|22=M|54=1|38=1500000000|453=2|448=007B26|447=C|452=12|448=007|447=C|452=1|10=246|
8=FIX.4.4|9=59|35=0|34=2|49=001|50=001B27|52=20190611-23:34:07.969|56=EXC|10=058|
8=FIX.4.4|9=0049|35=0|34=3|49=EXC|56=001|52=20190611-23:34:09.000|10=165|
8=FIX.4.4|9=105|35=A|34=1|49=001|50=001B27|52=20190611-23:36:25.422|56=EXC|98=0|108=30|141=Y|553=001FCM001|554=001FCM001|10=081|
8=FIX.4.4|9=0067|35=A|34=1|49=EXC|56=001|52=20190611-23:36:25.423|98=0|108=30|141=Y|10=003|
8=FIX.4.4|9=0192|35=R|34=2|49=EXC|56=001|52=20190611-23:36:27.933|131=20190611-000000000024.00|146=1|55=TFIT15260826|762=RFQF|48=20348|22=M|54=1|38=1500000000|453=2|448=007B26|447=C|452=12|448=007|447=C|452=1|10=248|
8=FIX.4.4|9=59|35=0|34=2|49=001|50=001B27|52=20190611-23:36:56.377|56=EXC|10=057|
8=FIX.4.4|9=0049|35=0|34=3|49=EXC|56=001|52=20190611-23:36:57.000|10=170|
8=FIX.4.4|9=59|35=0|34=3|49=001|50=001B27|52=20190611-23:37:26.389|56=EXC|10=059|
8=FIX.4.4|9=0049|35=0|34=4|49=EXC|56=001|52=20190611-23:37:27.000|10=169|
8=FIX.4.4|9=105|35=A|34=1|49=001|50=001B27|52=20190612-13:11:13.658|56=EXC|98=0|108=30|141=Y|553=001FCM001|554=001FCM001|10=082|
8=FIX.4.4|9=0067|35=A|34=1|49=EXC|56=001|52=20190612-13:11:13.749|98=0|108=30|141=Y|10=004|
8=FIX.4.4|9=0192|35=R|34=2|49=EXC|56=001|52=20190612-13:11:16.411|131=20190612-000000000001.00|146=1|55=TFIT15260826|762=RFQF|48=20348|22=M|54=1|38=1500000000|453=2|448=007B26|447=C|452=12|448=007|447=C|452=1|10=226|
8=FIX.4.4|9=105|35=A|34=1|49=001|50=001B27|52=20190612-13:23:09.927|56=EXC|98=0|108=30|141=Y|553=001FCM001|554=001FCM001|10=089|
8=FIX.4.4|9=0067|35=A|34=1|49=EXC|56=001|52=20190612-13:23:10.003|98=0|108=30|141=Y|10=243|
8=FIX.4.4|9=0192|35=R|34=2|49=EXC|56=001|52=20190612-13:23:12.449|131=20190612-000000000002.00|146=1|55=TFIT15260826|762=RFQF|48=20348|22=M|54=1|38=1500000000|453=2|448=007B26|447=C|452=12|448=007|447=C|452=1|10=237|
8=FIX.4.4|9=59|35=0|34=2|49=001|50=001B27|52=20190612-13:23:40.882|56=EXC|10=047|
8=FIX.4.4|9=0049|35=0|34=3|49=EXC|56=001|52=20190612-13:23:42.000|10=160|
8=FIX.4.4|9=59|35=0|34=3|49=001|50=001B27|52=20190612-13:24:10.882|56=EXC|10=046|
8=FIX.4.4|9=0049|35=0|34=4|49=EXC|56=001|52=20190612-13:24:12.000|10=159|
8=FIX.4.4|9=59|35=0|34=4|49=001|50=001B27|52=20190612-13:24:40.884|56=EXC|10=052|
8=FIX.4.4|9=0049|35=0|34=5|49=EXC|56=001|52=20190612-13:24:42.000|10=163|
8=FIX.4.4|9=105|35=A|34=1|49=001|50=001B27|52=20190612-13:26:34.974|56=EXC|98=0|108=30|141=Y|553=001FCM001|554=001FCM001|10=092|
8=FIX.4.4|9=0067|35=A|34=1|49=EXC|56=001|52=20190612-13:26:35.030|98=0|108=30|141=Y|10=253|
8=FIX.4.4|9=0192|35=R|34=2|49=EXC|56=001|52=20190612-13:26:37.548|131=20190612-000000000003.00|146=1|55=TFIT15260826|762=RFQF|48=20348|22=M|54=1|38=1500000000|453=2|448=007B26|447=C|452=12|448=007|447=C|452=1|10=248|
8=FIX.4.4|9=59|35=0|34=2|49=001|50=001B27|52=20190612-13:27:05.946|56=EXC|10=053|
8=FIX.4.4|9=0049|35=0|34=3|49=EXC|56=001|52=20190612-13:27:07.000|10=165|
8=FIX.4.4|9=105|35=A|34=1|49=001|50=001B27|52=20190612-13:28:07.142|56=EXC|98=0|108=30|141=Y|553=001FCM001|554=001FCM001|10=081|
8=FIX.4.4|9=0067|35=A|34=1|49=EXC|56=001|52=20190612-13:28:07.251|98=0|108=30|141=Y|10=003|
8=FIX.4.4|9=0192|35=R|34=2|49=EXC|56=001|52=20190612-13:28:09.737|131=20190612-000000000004.00|146=1|55=TFIT15260826|762=RFQF|48=20348|22=M|54=1|38=1500000000|453=2|448=007B26|447=C|452=12|448=007|447=C|452=1|10=250|
8=FIX.4.4|9=59|35=0|34=2|49=001|50=001B27|52=20190612-13:28:38.067|56=EXC|10=054|
8=FIX.4.4|9=0049|35=0|34=3|49=EXC|56=001|52=20190612-13:28:39.000|10=171|
8=FIX.4.4|9=105|35=A|34=1|49=001|50=001B27|52=20190612-13:36:22.595|56=EXC|98=0|108=30|141=Y|553=001FCM001|554=001FCM001|10=089|
8=FIX.4.4|9=0067|35=A|34=1|49=EXC|56=001|52=20190612-13:36:22.650|98=0|108=30|141=Y|10=002|
8=FIX.4.4|9=0192|35=R|34=2|49=EXC|56=001|52=20190612-13:36:25.229|131=20190612-000000000005.00|146=1|55=TFIT15260826|762=RFQF|48=20348|22=M|54=1|38=1500000000|453=2|448=007B26|447=C|452=12|448=007|447=C|452=1|10=244|
8=FIX.4.4|9=0183|35=R|34=3|49=EXC|56=001|52=20190612-13:36:41.461|131=20190612-000000000005.00|146=1|55=TFIT15260826|762=RFQF|48=20348|22=M|54=1|38=0|453=2|448=007B26|447=C|452=12|448=007|447=C|452=1|10=059|
8=FIX.4.4|9=59|35=0|34=2|49=001|50=001B27|52=20190612-13:36:53.533|56=EXC|10=048|
8=FIX.4.4|9=0049|35=0|34=4|49=EXC|56=001|52=20190612-13:37:11.000|10=162|
8=FIX.4.4|9=59|35=0|34=3|49=001|50=001B27|52=20190612-13:37:23.531|56=EXC|10=045|
8=FIX.4.4|9=0049|35=0|34=5|49=EXC|56=001|52=20190612-13:37:41.000|10=166|
8=FIX.4.4|9=59|35=0|34=4|49=001|50=001B27|52=20190612-13:37:53.528|56=EXC|10=055|
8=FIX.4.4|9=0049|35=0|34=6|49=EXC|56=001|52=20190612-13:38:11.000|10=165|
8=FIX.4.4|9=105|35=A|34=1|49=001|50=001B27|52=20190612-13:39:01.441|56=EXC|98=0|108=30|141=Y|553=001FCM001|554=001FCM001|10=079|
8=FIX.4.4|9=0067|35=A|34=1|49=EXC|56=001|52=20190612-13:39:01.495|98=0|108=30|141=Y|10=009|
8=FIX.4.4|9=0192|35=R|34=2|49=EXC|56=001|52=20190612-13:39:03.964|131=20190612-000000000006.00|146=1|55=TFIT15260826|762=RFQF|48=20348|22=M|54=1|38=1500000000|453=2|448=007B26|447=C|452=12|448=007|447=C|452=1|10=250|
8=FIX.4.4|9=0183|35=R|34=3|49=EXC|56=001|52=20190612-13:39:20.172|131=20190612-000000000006.00|146=1|55=TFIT15260826|762=RFQF|48=20348|22=M|54=1|38=0|453=2|448=007B26|447=C|452=12|448=007|447=C|452=1|10=059|
8=FIX.4.4|9=59|35=0|34=2|49=001|50=001B27|52=20190612-13:39:31.548|56=EXC|10=053|
8=FIX.4.4|9=0049|35=0|34=4|49=EXC|56=001|52=20190612-13:39:50.000|10=167|
8=FIX.4.4|9=59|35=0|34=3|49=001|50=001B27|52=20190612-13:40:02.379|56=EXC|10=046|
8=FIX.4.4|9=0049|35=0|34=5|49=EXC|56=001|52=20190612-13:40:20.000|10=157|
8=FIX.4.4|9=59|35=0|34=4|49=001|50=001B27|52=20190612-13:40:32.382|56=EXC|10=044|
8=FIX.4.4|9=105|35=A|34=1|49=001|50=001B27|52=20190612-13:42:48.644|56=EXC|98=0|108=30|141=Y|553=001FCM001|554=001FCM001|10=089|
8=FIX.4.4|9=0067|35=A|34=1|49=EXC|56=001|52=20190612-13:42:48.727|98=0|108=30|141=Y|10=012|
8=FIX.4.4|9=0192|35=R|34=2|49=EXC|56=001|52=20190612-13:42:51.239|131=20190612-000000000007.00|146=1|55=TFIT15260826|762=RFQF|48=20348|22=M|54=1|38=1500000000|453=2|448=007B26|447=C|452=12|448=007|447=C|452=1|10=243|
8=FIX.4.4|9=0183|35=R|34=3|49=EXC|56=001|52=20190612-13:43:07.346|131=20190612-000000000007.00|146=1|55=TFIT15260826|762=RFQF|48=20348|22=M|54=1|38=0|453=2|448=007B26|447=C|452=12|448=007|447=C|452=1|10=063|
8=FIX.4.4|9=59|35=0|34=2|49=001|50=001B27|52=20190612-13:43:18.716|56=EXC|10=050|
8=FIX.4.4|9=0049|35=0|34=4|49=EXC|56=001|52=20190612-13:43:37.000|10=167|
8=FIX.4.4|9=160|35=R|34=3|49=001|50=001B27|52=20190612-13:43:39.857|56=EXC|131=2019061284245_R|146=1|55=TFIC14280426|22=M|762=RFQF|54=1|38=500000000|453=1|448=DCV|447=C|452=10|10=107|
8=FIX.4.4|9=0242|35=AI|34=5|49=EXC|56=001|57=001B27|52=20190612-13:43:39.859|131=2019061284245_R|453=4|448=DCV|447=C|452=10|448=001B27|447=C|452=12|448=001|447=C|452=1|448=001FCM001|447=C|452=36|55=TFIC14280426|762=RFQF|48=20602|22=M|54=1|38=500000000|297=10|10=004|
8=FIX.4.4|9=0191|35=R|34=6|49=EXC|56=001|52=20190612-13:43:39.859|131=20190612-000000000008.00|146=1|55=TFIC14280426|762=RFQF|48=20602|22=M|54=1|38=500000000|453=2|448=001B27|447=C|452=12|448=001|447=C|452=1|10=175|
8=FIX.4.4|9=105|35=A|34=1|49=001|50=001B27|52=20190612-13:44:28.218|56=EXC|98=0|108=30|141=Y|553=001FCM001|554=001FCM001|10=086|
8=FIX.4.4|9=0067|35=A|34=1|49=EXC|56=001|52=20190612-13:44:28.285|98=0|108=30|141=Y|10=011|
8=FIX.4.4|9=184|35=R|34=2|49=001|50=001B27|52=20190612-13:44:30.609|56=EXC|131=2019061284425_R|146=1|55=TFIT16300632|22=M|762=RFQF|54=1|38=500000000|453=2|448=002B35|447=C|452=37|448=DCV|447=C|452=10|10=236|
8=FIX.4.4|9=0266|35=AI|34=2|49=EXC|56=001|57=001B27|52=20190612-13:44:30.611|131=2019061284425_R|453=5|448=DCV|447=C|452=10|448=001B27|447=C|452=12|448=001|447=C|452=1|448=001FCM001|447=C|452=36|448=002B35|447=C|452=37|55=TFIT16300632|762=RFQF|48=20406|22=M|54=1|38=500000000|297=10|10=124|
8=FIX.4.4|9=176|35=R|34=3|49=001|50=001B27|52=20190612-13:44:41.179|56=EXC|131=2019061284425_R|146=1|55=TFIT16300632|22=M|762=RFQF|54=1|38=0|453=2|448=002B35|447=C|452=37|448=DCV|447=C|452=10|10=109|
8=FIX.4.4|9=0266|35=AI|34=3|49=EXC|56=001|57=001B27|52=20190612-13:44:41.181|131=2019061284425_R|453=5|448=DCV|447=C|452=10|448=001B27|447=C|452=12|448=001|447=C|452=1|448=001FCM001|447=C|452=36|448=002B35|447=C|452=37|55=TFIT16300632|762=RFQF|48=20406|22=M|54=1|38=500000000|297=17|10=136|
