8=FIX.4.4|9=110|35=A|34=1|49=010|50=010BWN|52=20190607-12:29:13.426|56=EXC|43=Y|98=0|108=30|141=Y|553=010FCE003|554=010FCE003|10=129|
8=FIX.4.4|9=0067|35=A|34=1|49=EXC|56=010|52=20190607-12:29:14.891|98=0|108=30|141=Y|10=015|
8=FIX.4.4|9=110|35=A|34=1|49=010|50=010BWN|52=20190607-12:31:01.334|56=EXC|43=Y|98=0|108=30|141=Y|553=010FCE003|554=010FCE003|10=117|
8=FIX.4.4|9=0067|35=A|34=1|49=EXC|56=010|52=20190607-12:31:02.520|98=0|108=30|141=Y|10=250|
8=FIX.4.4|9=110|35=A|34=1|49=010|50=010BWN|52=20190607-12:37:18.534|56=EXC|43=Y|98=0|108=30|141=Y|553=010FCE003|554=010FCE003|10=133|
8=FIX.4.4|9=0067|35=A|34=1|49=EXC|56=010|52=20190607-12:37:18.952|98=0|108=30|141=Y|10=016|
8=FIX.4.4|9=0192|35=R|34=2|49=EXC|56=010|52=20190607-12:37:21.174|131=20190607-000000000001.00|146=1|55=TFIT15260826|762=RFQF|48=20348|22=M|54=1|38=1500000000|453=2|448=001B27|447=C|452=12|448=001|447=C|452=1|10=232|
8=FIX.4.4|9=110|35=A|34=1|49=010|50=010BWN|52=20190607-13:06:53.022|56=EXC|43=Y|98=0|108=30|141=Y|553=010FCE003|554=010FCE003|10=121|
8=FIX.4.4|9=0067|35=A|34=1|49=EXC|56=010|52=20190607-13:06:52.542|98=0|108=30|141=Y|10=006|
8=FIX.4.4|9=0192|35=R|34=2|49=EXC|56=010|52=20190607-13:06:54.725|131=20190607-000000000002.00|146=1|55=TFIT15260826|762=RFQF|48=20348|22=M|54=1|38=1500000000|453=2|448=001B27|447=C|452=12|448=001|447=C|452=1|10=238|
8=FIX.4.4|9=110|35=A|34=1|49=010|50=010BWN|52=20190607-13:41:37.982|56=EXC|43=Y|98=0|108=30|141=Y|553=010FCE003|554=010FCE003|10=137|
8=FIX.4.4|9=0067|35=A|34=1|49=EXC|56=010|52=20190607-13:41:37.544|98=0|108=30|141=Y|10=010|
8=FIX.4.4|9=110|35=A|34=1|49=010|50=010BWN|52=20190607-13:44:49.843|56=EXC|43=Y|98=0|108=30|141=Y|553=010FCE003|554=010FCE003|10=139|
8=FIX.4.4|9=0067|35=A|34=1|49=EXC|56=010|52=20190607-13:44:49.385|98=0|108=30|141=Y|10=019|
8=FIX.4.4|9=0192|35=R|34=2|49=EXC|56=010|52=20190607-13:44:51.624|131=20190607-000000000004.00|146=1|55=TFIT15260826|762=RFQF|48=20348|22=M|54=1|38=1500000000|453=2|448=001B27|447=C|452=12|448=001|447=C|452=1|10=237|
8=FIX.4.4|9=0192|35=R|34=3|49=EXC|56=010|52=20190607-13:44:52.353|131=20190607-000000000005.00|146=1|55=TFIT15260826|762=RFQF|48=20348|22=M|54=1|38=1500000000|453=2|448=001B27|447=C|452=12|448=001|447=C|452=1|10=239|
8=FIX.4.4|9=68|35=2|34=2|49=010|50=010BWN|52=20190607-13:44:52.867|56=EXC|7=2|16=0|10=246|
8=FIX.4.4|9=0223|35=R|34=2|43=Y|52=20190607-13:44:52.376|49=EXC|56=010|122=20190607-13:44:51.624|131=20190607-000000000004.00|146=1|55=TFIT15260826|762=RFQF|48=20348|22=M|54=1|38=1500000000|453=2|448=001B27|447=C|452=12|448=001|447=C|452=1|10=244|
8=FIX.4.4|9=0223|35=R|34=3|43=Y|52=20190607-13:44:52.376|49=EXC|56=010|122=20190607-13:44:52.353|131=20190607-000000000005.00|146=1|55=TFIT15260826|762=RFQF|48=20348|22=M|54=1|38=1500000000|453=2|448=001B27|447=C|452=12|448=001|447=C|452=1|10=246|
8=FIX.4.4|9=0054|35=4|34=4|49=EXC|56=010|52=20190607-13:44:52.376|36=5|10=149|
8=FIX.4.4|9=68|35=2|34=3|49=010|50=010BWN|52=20190607-13:44:52.949|56=EXC|7=2|16=0|10=248|
8=FIX.4.4|9=0223|35=R|34=2|43=Y|52=20190607-13:44:52.459|49=EXC|56=010|122=20190607-13:44:51.624|131=20190607-000000000004.00|146=1|55=TFIT15260826|762=RFQF|48=20348|22=M|54=1|38=1500000000|453=2|448=001B27|447=C|452=12|448=001|447=C|452=1|10=246|
8=FIX.4.4|9=0223|35=R|34=3|43=Y|52=20190607-13:44:52.459|49=EXC|56=010|122=20190607-13:44:52.353|131=20190607-000000000005.00|146=1|55=TFIT15260826|762=RFQF|48=20348|22=M|54=1|38=1500000000|453=2|448=001B27|447=C|452=12|448=001|447=C|452=1|10=248|
8=FIX.4.4|9=0065|35=4|34=4|43=Y|49=EXC|56=010|52=20190607-13:44:52.459|123=Y|36=5|10=196|
8=FIX.4.4|9=0054|35=4|34=5|49=EXC|56=010|52=20190607-13:44:52.460|36=6|10=145|
8=FIX.4.4|9=110|35=A|34=1|49=010|50=010BWN|52=20190607-14:07:59.762|56=EXC|43=Y|98=0|108=30|141=Y|553=010FCE003|554=010FCE003|10=140|
8=FIX.4.4|9=0067|35=A|34=1|49=EXC|56=010|52=20190607-14:07:59.477|98=0|108=30|141=Y|10=022|
8=FIX.4.4|9=0192|35=R|34=2|49=EXC|56=010|52=20190607-14:08:01.717|131=20190607-000000000007.00|146=1|55=TFIT15260826|762=RFQF|48=20348|22=M|54=1|38=1500000000|453=2|448=001B27|447=C|452=12|448=001|447=C|452=1|10=239|
8=FIX.4.4|9=0192|35=R|34=3|49=EXC|56=010|52=20190607-14:08:02.586|131=20190607-000000000008.00|146=1|55=TFIT15260826|762=RFQF|48=20348|22=M|54=1|38=1500000000|453=2|448=001B27|447=C|452=12|448=001|447=C|452=1|10=246|
8=FIX.4.4|9=68|35=2|34=2|49=010|50=010BWN|52=20190607-14:08:02.927|56=EXC|7=2|16=0|10=239|
8=FIX.4.4|9=0223|35=R|34=2|43=Y|52=20190607-14:08:02.612|49=EXC|56=010|122=20190607-14:08:01.717|131=20190607-000000000007.00|146=1|55=TFIT15260826|762=RFQF|48=20348|22=M|54=1|38=1500000000|453=2|448=001B27|447=C|452=12|448=001|447=C|452=1|10=235|
8=FIX.4.4|9=0223|35=R|34=3|43=Y|52=20190607-14:08:02.612|49=EXC|56=010|122=20190607-14:08:02.586|131=20190607-000000000008.00|146=1|55=TFIT15260826|762=RFQF|48=20348|22=M|54=1|38=1500000000|453=2|448=001B27|447=C|452=12|448=001|447=C|452=1|10=242|
8=FIX.4.4|9=0054|35=4|34=4|49=EXC|56=010|52=20190607-14:08:02.612|36=5|10=138|
8=FIX.4.4|9=68|35=2|34=3|49=010|50=010BWN|52=20190607-14:08:02.971|56=EXC|7=2|16=0|10=239|
8=FIX.4.4|9=0223|35=R|34=2|43=Y|52=20190607-14:08:02.655|49=EXC|56=010|122=20190607-14:08:01.717|131=20190607-000000000007.00|146=1|55=TFIT15260826|762=RFQF|48=20348|22=M|54=1|38=1500000000|453=2|448=001B27|447=C|452=12|448=001|447=C|452=1|10=242|
8=FIX.4.4|9=0223|35=R|34=3|43=Y|52=20190607-14:08:02.655|49=EXC|56=010|122=20190607-14:08:02.586|131=20190607-000000000008.00|146=1|55=TFIT15260826|762=RFQF|48=20348|22=M|54=1|38=1500000000|453=2|448=001B27|447=C|452=12|448=001|447=C|452=1|10=249|
8=FIX.4.4|9=0065|35=4|34=4|43=Y|49=EXC|56=010|52=20190607-14:08:02.655|123=Y|36=5|10=190|
8=FIX.4.4|9=0054|35=4|34=5|49=EXC|56=010|52=20190607-14:08:02.655|36=6|10=147|
8=FIX.4.4|9=0049|35=0|34=6|49=EXC|56=010|52=20190607-14:08:32.000|10=170|
8=FIX.4.4|9=59|35=0|34=4|49=010|50=010BWN|52=20190607-14:08:33.742|56=EXC|10=114|
8=FIX.4.4|9=0049|35=0|34=7|49=EXC|56=010|52=20190607-14:09:02.000|10=169|
8=FIX.4.4|9=59|35=0|34=5|49=010|50=010BWN|52=20190607-14:09:04.709|56=EXC|10=117|
8=FIX.4.4|9=0049|35=0|34=8|49=EXC|56=010|52=20190607-14:09:32.000|10=173|
8=FIX.4.4|9=59|35=0|34=6|49=010|50=010BWN|52=20190607-14:09:35.673|56=EXC|10=122|
8=FIX.4.4|9=0049|35=0|34=9|49=EXC|56=010|52=20190607-14:10:02.000|10=163|
8=FIX.4.4|9=59|35=0|34=7|49=010|50=010BWN|52=20190607-14:10:06.641|56=EXC|10=108|
8=FIX.4.4|9=110|35=A|34=1|49=010|50=010BWN|52=20190607-14:10:41.266|56=EXC|43=Y|98=0|108=30|141=Y|553=010FCE003|554=010FCE003|10=124|
8=FIX.4.4|9=0067|35=A|34=1|49=EXC|56=010|52=20190607-14:10:41.131|98=0|108=30|141=Y|10=250|
8=FIX.4.4|9=0192|35=R|34=2|49=EXC|56=010|52=20190607-14:10:43.320|131=20190607-000000000009.00|146=1|55=TFIT15260826|762=RFQF|48=20348|22=M|54=1|38=1500000000|453=2|448=001B27|447=C|452=12|448=001|447=C|452=1|10=230|
8=FIX.4.4|9=0192|35=R|34=3|49=EXC|56=010|52=20190607-14:10:44.022|131=20190607-000000000010.00|146=1|55=TFIT15260826|762=RFQF|48=20348|22=M|54=1|38=1500000000|453=2|448=001B27|447=C|452=12|448=001|447=C|452=1|10=223|
8=FIX.4.4|9=68|35=2|34=2|49=010|50=010BWN|52=20190607-14:10:44.205|56=EXC|7=2|16=0|10=227|
8=FIX.4.4|9=0223|35=R|34=2|43=Y|52=20190607-14:10:44.045|49=EXC|56=010|122=20190607-14:10:43.320|131=20190607-000000000009.00|146=1|55=TFIT15260826|762=RFQF|48=20348|22=M|54=1|38=1500000000|453=2|448=001B27|447=C|452=12|448=001|447=C|452=1|10=225|
8=FIX.4.4|9=0223|35=R|34=3|43=Y|52=20190607-14:10:44.045|49=EXC|56=010|122=20190607-14:10:44.022|131=20190607-000000000010.00|146=1|55=TFIT15260826|762=RFQF|48=20348|22=M|54=1|38=1500000000|453=2|448=001B27|447=C|452=12|448=001|447=C|452=1|10=218|
8=FIX.4.4|9=0054|35=4|34=4|49=EXC|56=010|52=20190607-14:10:44.045|36=5|10=137|
8=FIX.4.4|9=68|35=2|34=3|49=010|50=010BWN|52=20190607-14:10:44.275|56=EXC|7=2|16=0|10=235|
8=FIX.4.4|9=0223|35=R|34=2|43=Y|52=20190607-14:10:44.113|49=EXC|56=010|122=20190607-14:10:43.320|131=20190607-000000000009.00|146=1|55=TFIT15260826|762=RFQF|48=20348|22=M|54=1|38=1500000000|453=2|448=001B27|447=C|452=12|448=001|447=C|452=1|10=221|
8=FIX.4.4|9=0223|35=R|34=3|43=Y|52=20190607-14:10:44.113|49=EXC|56=010|122=20190607-14:10:44.022|131=20190607-000000000010.00|146=1|55=TFIT15260826|762=RFQF|48=20348|22=M|54=1|38=1500000000|453=2|448=001B27|447=C|452=12|448=001|447=C|452=1|10=214|
8=FIX.4.4|9=0065|35=4|34=4|43=Y|49=EXC|56=010|52=20190607-14:10:44.113|123=Y|36=5|10=178|
8=FIX.4.4|9=0054|35=4|34=5|49=EXC|56=010|52=20190607-14:10:44.114|36=6|10=136|
8=FIX.4.4|9=0049|35=0|34=6|49=EXC|56=010|52=20190607-14:11:14.000|10=164|
8=FIX.4.4|9=59|35=0|34=4|49=010|50=010BWN|52=20190607-14:11:15.214|56=EXC|10=102|
8=FIX.4.4|9=110|35=A|34=1|49=010|50=010BWN|52=20190607-14:22:14.187|56=EXC|43=Y|98=0|108=30|141=Y|553=010FCE003|554=010FCE003|10=129|
8=FIX.4.4|9=0067|35=A|34=1|49=EXC|56=010|52=20190607-14:22:14.468|98=0|108=30|141=Y|10=010|
8=FIX.4.4|9=0049|35=0|34=2|49=EXC|56=010|52=20190607-14:22:44.000|10=165|
8=FIX.4.4|9=59|35=0|34=2|49=010|50=010BWN|52=20190607-14:22:45.122|56=EXC|10=103|
8=FIX.4.4|9=110|35=A|34=1|49=010|50=010BWN|52=20190607-14:23:02.473|56=EXC|43=Y|98=0|108=30|141=Y|553=010FCE003|554=010FCE003|10=125|
8=FIX.4.4|9=0067|35=A|34=1|49=EXC|56=010|52=20190607-14:23:02.758|98=0|108=30|141=Y|10=010|
8=FIX.4.4|9=110|35=A|34=1|49=010|50=010BWN|52=20190607-14:23:31.631|56=EXC|43=Y|98=0|108=30|141=Y|553=010FCE003|554=010FCE003|10=123|
8=FIX.4.4|9=0067|35=A|34=1|49=EXC|56=010|52=20190607-14:23:31.950|98=0|108=30|141=Y|10=006|
8=FIX.4.4|9=0192|35=R|34=2|49=EXC|56=010|52=20190607-14:23:34.063|131=20190607-000000000016.00|146=1|55=TFIT15260826|762=RFQF|48=20348|22=M|54=1|38=1500000000|453=2|448=001B27|447=C|452=12|448=001|447=C|452=1|10=236|
8=FIX.4.4|9=59|35=0|34=2|49=010|50=010BWN|52=20190607-14:24:02.611|56=EXC|10=101|
8=FIX.4.4|9=0049|35=0|34=3|49=EXC|56=010|52=20190607-14:24:04.000|10=164|
8=FIX.4.4|9=68|35=2|34=3|49=010|50=010BWN|52=20190607-14:24:03.821|56=EXC|7=2|16=0|10=232|
8=FIX.4.4|9=0223|35=R|34=2|43=Y|52=20190607-14:24:04.051|49=EXC|56=010|122=20190607-14:23:34.063|131=20190607-000000000016.00|146=1|55=TFIT15260826|762=RFQF|48=20348|22=M|54=1|38=1500000000|453=2|448=001B27|447=C|452=12|448=001|447=C|452=1|10=229|
8=FIX.4.4|9=0065|35=4|34=3|43=Y|49=EXC|56=010|52=20190607-14:24:04.051|123=Y|36=4|10=178|
8=FIX.4.4|9=0054|35=4|34=4|49=EXC|56=010|52=20190607-14:24:04.051|36=5|10=135|
8=FIX.4.4|9=68|35=2|34=4|49=010|50=010BWN|52=20190607-14:24:08.856|56=EXC|7=2|16=0|10=246|
8=FIX.4.4|9=0223|35=R|34=2|43=Y|52=20190607-14:24:09.084|49=EXC|56=010|122=20190607-14:23:34.063|131=20190607-000000000016.00|146=1|55=TFIT15260826|762=RFQF|48=20348|22=M|54=1|38=1500000000|453=2|448=001B27|447=C|452=12|448=001|447=C|452=1|10=240|
8=FIX.4.4|9=0065|35=4|34=3|43=Y|49=EXC|56=010|52=20190607-14:24:09.084|123=Y|36=5|10=190|
8=FIX.4.4|9=0054|35=4|34=5|49=EXC|56=010|52=20190607-14:24:09.084|36=6|10=148|
8=FIX.4.4|9=0049|35=0|34=6|49=EXC|56=010|52=20190607-14:24:39.000|10=175|
8=FIX.4.4|9=59|35=0|34=5|49=010|50=010BWN|52=20190607-14:24:39.635|56=EXC|10=120|
8=FIX.4.4|9=110|35=A|34=1|49=010|50=010BWN|52=20190607-14:42:14.991|56=EXC|43=Y|98=0|108=30|141=Y|553=010FCE003|554=010FCE003|10=134|
8=FIX.4.4|9=0067|35=A|34=1|49=EXC|56=010|52=20190607-14:42:15.053|98=0|108=30|141=Y|10=003|
8=FIX.4.4|9=0192|35=R|34=2|49=EXC|56=010|52=20190607-14:42:17.288|131=20190607-000000000017.00|146=1|55=TFIT15260826|762=RFQF|48=20348|22=M|54=1|38=1500000000|453=2|448=001B27|447=C|452=12|448=001|447=C|452=1|10=248|
8=FIX.4.4|9=110|35=A|34=1|49=010|50=010BWN|52=20190607-14:45:47.468|56=EXC|43=Y|98=0|108=30|141=Y|553=010FCE003|554=010FCE003|10=142|
8=FIX.4.4|9=0067|35=A|34=1|49=EXC|56=010|52=20190607-14:45:47.532|98=0|108=30|141=Y|10=013|
8=FIX.4.4|9=0192|35=R|34=2|49=EXC|56=010|52=20190607-14:45:49.663|131=20190607-000000000018.00|146=1|55=TFIT15260826|762=RFQF|48=20348|22=M|54=1|38=1500000000|453=2|448=001B27|447=C|452=12|448=001|447=C|452=1|10=254|
8=FIX.4.4|9=59|35=0|34=2|49=010|50=010BWN|52=20190607-14:46:18.450|56=EXC|10=113|
8=FIX.4.4|9=0049|35=0|34=3|49=EXC|56=010|52=20190607-14:46:19.000|10=174|
8=FIX.4.4|9=68|35=2|34=3|49=010|50=010BWN|52=20190607-14:46:18.990|56=EXC|7=2|16=0|10=249|
8=FIX.4.4|9=0223|35=R|34=2|43=Y|52=20190607-14:46:19.021|49=EXC|56=010|122=20190607-14:45:49.663|131=20190607-000000000018.00|146=1|55=TFIT15260826|762=RFQF|48=20348|22=M|54=1|38=1500000000|453=2|448=001B27|447=C|452=12|448=001|447=C|452=1|10=254|
8=FIX.4.4|9=0065|35=4|34=3|43=Y|49=EXC|56=010|52=20190607-14:46:19.021|123=Y|36=4|10=185|
8=FIX.4.4|9=0054|35=4|34=4|49=EXC|56=010|52=20190607-14:46:19.021|36=5|10=142|
8=FIX.4.4|9=68|35=2|34=4|49=010|50=010BWN|52=20190607-14:46:24.068|56=EXC|7=2|16=0|10=243|
8=FIX.4.4|9=0223|35=R|34=2|43=Y|52=20190607-14:46:24.098|49=EXC|56=010|122=20190607-14:45:49.663|131=20190607-000000000018.00|146=1|55=TFIT15260826|762=RFQF|48=20348|22=M|54=1|38=1500000000|453=2|448=001B27|447=C|452=12|448=001|447=C|452=1|10=008|
8=FIX.4.4|9=0065|35=4|34=3|43=Y|49=EXC|56=010|52=20190607-14:46:24.098|123=Y|36=5|10=196|
8=FIX.4.4|9=0054|35=4|34=5|49=EXC|56=010|52=20190607-14:46:24.098|36=6|10=154|
8=FIX.4.4|9=0049|35=0|34=6|49=EXC|56=010|52=20190607-14:46:54.000|10=176|
8=FIX.4.4|9=59|35=0|34=5|49=010|50=010BWN|52=20190607-14:46:54.454|56=EXC|10=120|
8=FIX.4.4|9=110|35=A|34=1|49=010|50=010BWN|52=20190607-14:51:26.081|56=EXC|43=Y|98=0|108=30|141=Y|553=010FCE003|554=010FCE003|10=127|
8=FIX.4.4|9=0067|35=A|34=1|49=EXC|56=010|52=20190607-14:51:26.140|98=0|108=30|141=Y|10=002|
8=FIX.4.4|9=110|35=A|34=1|49=010|50=010BWN|52=20190607-14:54:10.039|56=EXC|43=Y|98=0|108=30|141=Y|553=010FCE003|554=010FCE003|10=126|
8=FIX.4.4|9=0067|35=A|34=1|49=EXC|56=010|52=20190607-14:54:10.099|98=0|108=30|141=Y|10=011|
8=FIX.4.4|9=0192|35=R|34=2|49=EXC|56=010|52=20190607-14:54:12.262|131=20190607-000000000020.00|146=1|55=TFIT15260826|762=RFQF|48=20348|22=M|54=1|38=1500000000|453=2|448=001B27|447=C|452=12|448=001|447=C|452=1|10=232|
8=FIX.4.4|9=110|35=A|34=1|49=010|50=010BWN|52=20190607-14:55:37.665|56=EXC|43=Y|98=0|108=30|141=Y|553=010FCE003|554=010FCE003|10=141|
8=FIX.4.4|9=0067|35=A|34=1|49=EXC|56=010|52=20190607-14:55:37.728|98=0|108=30|141=Y|10=020|
8=FIX.4.4|9=0049|35=0|34=2|49=EXC|56=010|52=20190607-14:56:07.000|10=171|
8=FIX.4.4|9=59|35=0|34=2|49=010|50=010BWN|52=20190607-14:56:07.660|56=EXC|10=115|
8=FIX.4.4|9=110|35=A|34=1|49=010|50=010BWN|52=20190607-14:57:52.649|56=EXC|43=Y|98=0|108=30|141=Y|553=010FCE003|554=010FCE003|10=142|
8=FIX.4.4|9=0067|35=A|34=1|49=EXC|56=010|52=20190607-14:57:52.708|98=0|108=30|141=Y|10=017|
8=FIX.4.4|9=0192|35=R|34=2|49=EXC|56=010|52=20190607-14:57:54.873|131=20190607-000000000022.00|146=1|55=TFIT15260826|762=RFQF|48=20348|22=M|54=1|38=1500000000|453=2|448=001B27|447=C|452=12|448=001|447=C|452=1|10=251|
8=FIX.4.4|9=59|35=0|34=2|49=010|50=010BWN|52=20190607-14:58:23.635|56=EXC|10=117|
8=FIX.4.4|9=0049|35=0|34=3|49=EXC|56=010|52=20190607-14:58:24.000|10=173|
8=FIX.4.4|9=68|35=2|34=3|49=010|50=010BWN|52=20190607-14:58:23.991|56=EXC|7=2|16=0|10=249|
8=FIX.4.4|9=0223|35=R|34=2|43=Y|52=20190607-14:58:24.019|49=EXC|56=010|122=20190607-14:57:54.873|131=20190607-000000000022.00|146=1|55=TFIT15260826|762=RFQF|48=20348|22=M|54=1|38=1500000000|453=2|448=001B27|447=C|452=12|448=001|447=C|452=1|10=001|
8=FIX.4.4|9=0065|35=4|34=3|43=Y|49=EXC|56=010|52=20190607-14:58:24.019|123=Y|36=4|10=191|
8=FIX.4.4|9=0054|35=4|34=4|49=EXC|56=010|52=20190607-14:58:24.019|36=5|10=148|
8=FIX.4.4|9=68|35=2|34=4|49=010|50=010BWN|52=20190607-14:58:29.069|56=EXC|7=2|16=0|10=252|
8=FIX.4.4|9=0223|35=R|34=2|43=Y|52=20190607-14:58:29.098|49=EXC|56=010|122=20190607-14:57:54.873|131=20190607-000000000022.00|146=1|55=TFIT15260826|762=RFQF|48=20348|22=M|54=1|38=1500000000|453=2|448=001B27|447=C|452=12|448=001|447=C|452=1|10=013|
8=FIX.4.4|9=0065|35=4|34=3|43=Y|49=EXC|56=010|52=20190607-14:58:29.098|123=Y|36=5|10=204|
8=FIX.4.4|9=0054|35=4|34=5|49=EXC|56=010|52=20190607-14:58:29.098|36=6|10=162|
8=FIX.4.4|9=0049|35=0|34=6|49=EXC|56=010|52=20190607-14:58:59.000|10=184|
8=FIX.4.4|9=59|35=0|34=5|49=010|50=010BWN|52=20190607-14:58:59.635|56=EXC|10=129|
8=FIX.4.4|9=0049|35=0|34=7|49=EXC|56=010|52=20190607-14:59:29.000|10=183|
8=FIX.4.4|9=59|35=0|34=6|49=010|50=010BWN|52=20190607-14:59:29.633|56=EXC|10=126|
8=FIX.4.4|9=0049|35=0|34=8|49=EXC|56=010|52=20190607-14:59:59.000|10=187|
8=FIX.4.4|9=59|35=0|34=7|49=010|50=010BWN|52=20190607-14:59:59.636|56=EXC|10=133|
8=FIX.4.4|9=0049|35=0|34=9|49=EXC|56=010|52=20190607-15:00:29.000|10=172|
8=FIX.4.4|9=59|35=0|34=8|49=010|50=010BWN|52=20190607-15:00:29.634|56=EXC|10=116|
8=FIX.4.4|9=0050|35=0|34=10|49=EXC|56=010|52=20190607-15:00:59.000|10=207|
8=FIX.4.4|9=59|35=0|34=9|49=010|50=010BWN|52=20190607-15:00:59.635|56=EXC|10=121|
8=FIX.4.4|9=0050|35=0|34=11|49=EXC|56=010|52=20190607-15:01:29.000|10=206|
8=FIX.4.4|9=60|35=0|34=10|49=010|50=010BWN|52=20190607-15:01:29.636|56=EXC|10=152|
8=FIX.4.4|9=0050|35=0|34=12|49=EXC|56=010|52=20190607-15:01:59.000|10=210|
8=FIX.4.4|9=60|35=0|34=11|49=010|50=010BWN|52=20190607-15:01:59.635|56=EXC|10=155|
8=FIX.4.4|9=0050|35=0|34=13|49=EXC|56=010|52=20190607-15:02:29.000|10=209|
8=FIX.4.4|9=60|35=0|34=12|49=010|50=010BWN|52=20190607-15:02:29.635|56=EXC|10=154|
8=FIX.4.4|9=0050|35=0|34=14|49=EXC|56=010|52=20190607-15:02:59.000|10=213|
8=FIX.4.4|9=60|35=0|34=13|49=010|50=010BWN|52=20190607-15:02:59.636|56=EXC|10=159|
8=FIX.4.4|9=0050|35=0|34=15|49=EXC|56=010|52=20190607-15:03:29.000|10=212|
8=FIX.4.4|9=60|35=0|34=14|49=010|50=010BWN|52=20190607-15:03:29.635|56=EXC|10=157|
8=FIX.4.4|9=0050|35=0|34=16|49=EXC|56=010|52=20190607-15:03:59.000|10=216|
8=FIX.4.4|9=60|35=0|34=15|49=010|50=010BWN|52=20190607-15:03:59.635|56=EXC|10=161|
8=FIX.4.4|9=110|35=A|34=1|49=010|50=010BWN|52=20190607-15:15:32.948|56=EXC|43=Y|98=0|108=30|141=Y|553=010FCE003|554=010FCE003|10=137|
8=FIX.4.4|9=0067|35=A|34=1|49=EXC|56=010|52=20190607-15:15:33.021|98=0|108=30|141=Y|10=255|
8=FIX.4.4|9=0192|35=R|34=2|49=EXC|56=010|52=20190607-15:15:35.199|131=20190607-000000000023.00|146=1|55=TFIT15260826|762=RFQF|48=20348|22=M|54=1|38=1500000000|453=2|448=007B26|447=C|452=12|448=007|447=C|452=1|10=002|
8=FIX.4.4|9=110|35=A|34=1|49=010|50=010BWN|52=20190607-15:18:17.271|56=EXC|43=Y|98=0|108=30|141=Y|553=010FCE003|554=010FCE003|10=132|
8=FIX.4.4|9=0067|35=A|34=1|49=EXC|56=010|52=20190607-15:18:17.337|98=0|108=30|141=Y|10=014|
8=FIX.4.4|9=0192|35=R|34=2|49=EXC|56=010|52=20190607-15:18:19.500|131=20190607-000000000024.00|146=1|55=TFIT15260826|762=RFQF|48=20348|22=M|54=1|38=1500000000|453=2|448=007B26|447=C|452=12|448=007|447=C|452=1|10=250|
8=FIX.4.4|9=59|35=0|34=2|49=010|50=010BWN|52=20190607-15:18:48.259|56=EXC|10=123|
8=FIX.4.4|9=0049|35=0|34=3|49=EXC|56=010|52=20190607-15:18:49.000|10=177|
8=FIX.4.4|9=68|35=2|34=3|49=010|50=010BWN|52=20190607-15:18:48.986|56=EXC|7=2|16=0|10=001|
8=FIX.4.4|9=0223|35=R|34=2|43=Y|52=20190607-15:18:49.022|49=EXC|56=010|122=20190607-15:18:19.500|131=20190607-000000000024.00|146=1|55=TFIT15260826|762=RFQF|48=20348|22=M|54=1|38=1500000000|453=2|448=007B26|447=C|452=12|448=007|447=C|452=1|10=254|
8=FIX.4.4|9=0065|35=4|34=3|43=Y|49=EXC|56=010|52=20190607-15:18:49.022|123=Y|36=4|10=189|
8=FIX.4.4|9=0054|35=4|34=4|49=EXC|56=010|52=20190607-15:18:49.022|36=5|10=146|
8=FIX.4.4|9=68|35=2|34=4|49=010|50=010BWN|52=20190607-15:18:54.091|56=EXC|7=2|16=0|10=242|
8=FIX.4.4|9=0223|35=R|34=2|43=Y|52=20190607-15:18:54.128|49=EXC|56=010|122=20190607-15:18:19.500|131=20190607-000000000024.00|146=1|55=TFIT15260826|762=RFQF|48=20348|22=M|54=1|38=1500000000|453=2|448=007B26|447=C|452=12|448=007|447=C|452=1|10=001|
8=FIX.4.4|9=0065|35=4|34=3|43=Y|49=EXC|56=010|52=20190607-15:18:54.128|123=Y|36=5|10=193|
8=FIX.4.4|9=0054|35=4|34=5|49=EXC|56=010|52=20190607-15:18:54.128|36=6|10=151|
8=FIX.4.4|9=110|35=A|34=1|49=010|50=010BWN|52=20190607-15:21:43.857|56=EXC|43=Y|98=0|108=30|141=Y|553=010FCE003|554=010FCE003|10=135|
8=FIX.4.4|9=0067|35=A|34=1|49=EXC|56=010|52=20190607-15:21:43.931|98=0|108=30|141=Y|10=007|
8=FIX.4.4|9=0192|35=R|34=2|49=EXC|56=010|52=20190607-15:21:46.114|131=20190607-000000000025.00|146=1|55=TFIT15260826|762=RFQF|48=20348|22=M|54=1|38=1500000000|453=2|448=007B26|447=C|452=12|448=007|447=C|452=1|10=246|
8=FIX.4.4|9=59|35=0|34=2|49=010|50=010BWN|52=20190607-15:22:14.802|56=EXC|10=105|
8=FIX.4.4|9=0049|35=0|34=3|49=EXC|56=010|52=20190607-15:22:16.000|10=166|
8=FIX.4.4|9=68|35=2|34=3|49=010|50=010BWN|52=20190607-15:22:15.984|56=EXC|7=2|16=0|10=244|
8=FIX.4.4|9=0223|35=R|34=2|43=Y|52=20190607-15:22:16.021|49=EXC|56=010|122=20190607-15:21:46.114|131=20190607-000000000025.00|146=1|55=TFIT15260826|762=RFQF|48=20348|22=M|54=1|38=1500000000|453=2|448=007B26|447=C|452=12|448=007|447=C|452=1|10=238|
8=FIX.4.4|9=0065|35=4|34=3|43=Y|49=EXC|56=010|52=20190607-15:22:16.021|123=Y|36=4|10=177|
8=FIX.4.4|9=0054|35=4|34=4|49=EXC|56=010|52=20190607-15:22:16.022|36=5|10=135|
8=FIX.4.4|9=68|35=2|34=4|49=010|50=010BWN|52=20190607-15:22:21.112|56=EXC|7=2|16=0|10=225|
8=FIX.4.4|9=0223|35=R|34=2|43=Y|52=20190607-15:22:21.149|49=EXC|56=010|122=20190607-15:21:46.114|131=20190607-000000000025.00|146=1|55=TFIT15260826|762=RFQF|48=20348|22=M|54=1|38=1500000000|453=2|448=007B26|447=C|452=12|448=007|447=C|452=1|10=245|
8=FIX.4.4|9=0065|35=4|34=3|43=Y|49=EXC|56=010|52=20190607-15:22:21.149|123=Y|36=5|10=185|
8=FIX.4.4|9=0054|35=4|34=5|49=EXC|56=010|52=20190607-15:22:21.149|36=6|10=143|
8=FIX.4.4|9=0049|35=0|34=6|49=EXC|56=010|52=20190607-15:22:51.000|10=168|
8=FIX.4.4|9=59|35=0|34=5|49=010|50=010BWN|52=20190607-15:22:51.801|56=EXC|10=108|
8=FIX.4.4|9=0049|35=0|34=7|49=EXC|56=010|52=20190607-15:23:21.000|10=167|
8=FIX.4.4|9=59|35=0|34=6|49=010|50=010BWN|52=20190607-15:23:21.800|56=EXC|10=106|
8=FIX.4.4|9=110|35=A|34=1|49=010|50=010BWN|52=20190607-16:29:58.956|56=EXC|43=Y|98=0|108=30|141=Y|553=010FCE003|554=010FCE003|10=150|
8=FIX.4.4|9=0067|35=A|34=1|49=EXC|56=010|52=20190607-16:29:59.016|98=0|108=30|141=Y|10=017|
8=FIX.4.4|9=0192|35=R|34=2|49=EXC|56=010|52=20190607-16:30:01.258|131=20190607-000000000028.00|146=1|55=TFIT15260826|762=RFQF|48=20348|22=M|54=1|38=1500000000|453=2|448=007B26|447=C|452=12|448=007|447=C|452=1|10=250|
8=FIX.4.4|9=59|35=0|34=2|49=010|50=010BWN|52=20190607-16:30:29.831|56=EXC|10=113|
8=FIX.4.4|9=0049|35=0|34=3|49=EXC|56=010|52=20190607-16:30:31.000|10=163|
8=FIX.4.4|9=68|35=1|34=3|49=010|50=010BWN|52=20190607-16:30:46.833|56=EXC|112=TEST|10=134|
8=FIX.4.4|9=0058|35=0|34=4|49=EXC|56=010|52=20190607-16:30:46.858|112=TEST|10=209|
8=FIX.4.4|9=110|35=A|34=1|49=010|50=010BWN|52=20190607-16:31:14.841|56=EXC|43=Y|98=0|108=30|141=Y|553=010FCE003|554=010FCE003|10=128|
8=FIX.4.4|9=0067|35=A|34=1|49=EXC|56=010|52=20190607-16:31:14.899|98=0|108=30|141=Y|10=020|
8=FIX.4.4|9=110|35=A|34=1|49=010|50=010BWN|52=20190607-16:31:49.310|56=EXC|43=Y|98=0|108=30|141=Y|553=010FCE003|554=010FCE003|10=127|
8=FIX.4.4|9=0067|35=A|34=1|49=EXC|56=010|52=20190607-16:31:49.374|98=0|108=30|141=Y|10=016|
8=FIX.4.4|9=0192|35=R|34=2|49=EXC|56=010|52=20190607-16:31:51.609|131=20190607-000000000029.00|146=1|55=TFIT15260826|762=RFQF|48=20348|22=M|54=1|38=1500000000|453=2|448=007B26|447=C|452=12|448=007|447=C|452=1|10=001|
8=FIX.4.4|9=59|35=0|34=2|49=010|50=010BWN|52=20190607-16:32:20.292|56=EXC|10=107|
8=FIX.4.4|9=0049|35=0|34=3|49=EXC|56=010|52=20190607-16:32:21.000|10=164|
8=FIX.4.4|9=68|35=1|34=3|49=010|50=010BWN|52=20190607-16:32:37.291|56=EXC|112=TEST|10=134|
8=FIX.4.4|9=0058|35=0|34=4|49=EXC|56=010|52=20190607-16:32:37.318|112=TEST|10=202|
8=FIX.4.4|9=110|35=A|34=1|49=010|50=010BWN|52=20190607-16:51:46.034|56=EXC|43=Y|98=0|108=30|141=Y|553=010FCE003|554=010FCE003|10=129|
8=FIX.4.4|9=0067|35=A|34=1|49=EXC|56=010|52=20190607-16:51:46.083|98=0|108=30|141=Y|10=012|
8=FIX.4.4|9=0192|35=R|34=2|49=EXC|56=010|52=20190607-16:51:48.366|131=20190607-000000000034.00|146=1|55=TFIT15260826|762=RFQF|48=20348|22=M|54=1|38=1500000000|453=2|448=007B26|447=C|452=12|448=007|447=C|452=1|10=005|
8=FIX.4.4|9=110|35=A|34=1|49=010|50=010BWN|52=20190607-17:00:19.893|56=EXC|43=Y|98=0|108=30|141=Y|553=010FCE003|554=010FCE003|10=137|
8=FIX.4.4|9=0067|35=A|34=1|49=EXC|56=010|52=20190607-17:00:19.940|98=0|108=30|141=Y|10=009|
8=FIX.4.4|9=0192|35=R|34=2|49=EXC|56=010|52=20190607-17:00:22.134|131=20190607-000000000036.00|146=1|55=TFIT15260826|762=RFQF|48=20348|22=M|54=1|38=1500000000|453=2|448=007B26|447=C|452=12|448=007|447=C|452=1|10=243|
8=FIX.4.4|9=59|35=0|34=2|49=010|50=010BWN|52=20190607-17:00:50.869|56=EXC|10=116|
8=FIX.4.4|9=0049|35=0|34=3|49=EXC|56=010|52=20190607-17:00:52.000|10=164|
8=FIX.4.4|9=68|35=2|34=3|49=010|50=010BWN|52=20190607-17:00:52.011|56=EXC|7=2|16=0|10=224|
8=FIX.4.4|9=0223|35=R|34=2|43=Y|52=20190607-17:00:52.028|49=EXC|56=010|122=20190607-17:00:22.134|131=20190607-000000000036.00|146=1|55=TFIT15260826|762=RFQF|48=20348|22=M|54=1|38=1500000000|453=2|448=007B26|447=C|452=12|448=007|447=C|452=1|10=240|
8=FIX.4.4|9=0065|35=4|34=3|43=Y|49=EXC|56=010|52=20190607-17:00:52.028|123=Y|36=4|10=182|
8=FIX.4.4|9=0054|35=4|34=4|49=EXC|56=010|52=20190607-17:00:52.028|36=5|10=139|
