8=FIX.4.4|9=105|35=A|34=1|49=013|50=013B17|52=20190613-22:13:48.015|56=EXC|98=0|108=30|141=Y|553=013FCM001|554=013FCM001|10=091|
8=FIX.4.4|9=0067|35=A|34=1|49=EXC|56=013|52=20190613-22:13:47.152|98=0|108=30|141=Y|10=005|
8=FIX.4.4|9=105|35=A|34=1|49=013|50=013B17|52=20190613-22:17:15.734|56=EXC|98=0|108=30|141=Y|553=013FCM001|554=013FCM001|10=097|
8=FIX.4.4|9=0067|35=A|34=1|49=EXC|56=013|52=20190613-22:17:14.868|98=0|108=30|141=Y|10=017|
8=FIX.4.4|9=105|35=A|34=1|49=013|50=013B17|52=20190613-22:20:15.775|56=EXC|98=0|108=30|141=Y|553=013FCM001|554=013FCM001|10=096|
8=FIX.4.4|9=0067|35=A|34=1|49=EXC|56=013|52=20190613-22:20:14.906|98=0|108=30|141=Y|10=004|
8=FIX.4.4|9=0049|35=0|34=2|49=EXC|56=013|52=20190613-22:20:44.000|10=162|
8=FIX.4.4|9=59|35=0|34=2|49=013|50=013B17|52=20190613-22:20:46.721|56=EXC|10=048|
8=FIX.4.4|9=0049|35=0|34=3|49=EXC|56=013|52=20190613-22:21:14.000|10=161|
8=FIX.4.4|9=59|35=0|34=3|49=013|50=013B17|52=20190613-22:21:16.730|56=EXC|10=047|
8=FIX.4.4|9=105|35=A|34=1|49=013|50=013B17|52=20190613-22:26:15.212|56=EXC|98=0|108=30|141=Y|553=013FCM001|554=013FCM001|10=088|
8=FIX.4.4|9=0067|35=A|34=1|49=EXC|56=013|52=20190613-22:26:13.997|98=0|108=30|141=Y|10=019|
8=FIX.4.4|9=105|35=A|34=1|49=013|50=013B17|52=20190613-22:28:49.406|56=EXC|98=0|108=30|141=Y|553=013FCM001|554=013FCM001|10=102|
8=FIX.4.4|9=0067|35=A|34=1|49=EXC|56=013|52=20190613-22:28:48.183|98=0|108=30|141=Y|10=016|
