8=FIX.4.4|9=110|35=A|34=1|49=002|50=002B35|52=20190529-15:45:10.676|56=EXC|43=Y|98=0|108=30|141=Y|553=002FCM001|554=002FCM001|10=092|
8=FIX.4.4|9=0067|35=A|34=1|49=EXC|56=002|52=20190529-15:45:07.247|98=0|108=30|141=Y|10=017|
8=FIX.4.4|9=0225|35=R|34=2|49=EXC|56=002|57=002B35|52=20190529-15:45:12.484|131=20190529-000000000019.00|146=1|55=TFIC13280425|762=RFQF|48=20626|22=M|54=1|38=500000000|453=3|448=001B27|447=C|452=12|448=001|447=C|452=1|448=002B35|447=C|452=37|10=023|
8=FIX.4.4|9=59|35=0|34=2|49=002|50=002B35|52=20190529-15:45:41.636|56=EXC|10=059|
8=FIX.4.4|9=110|35=A|34=1|49=002|50=002B35|52=20190529-15:49:00.816|56=EXC|43=Y|98=0|108=30|141=Y|553=002FCM001|554=002FCM001|10=091|
8=FIX.4.4|9=0067|35=A|34=1|49=EXC|56=002|52=20190529-15:48:57.361|98=0|108=30|141=Y|10=022|
8=FIX.4.4|9=0225|35=R|34=2|49=EXC|56=002|57=002B35|52=20190529-15:49:02.639|131=20190529-000000000020.00|146=1|55=TFIC13280425|762=RFQF|48=20626|22=M|54=1|38=500000000|453=3|448=001B27|447=C|452=12|448=001|447=C|452=1|448=002B35|447=C|452=37|10=020|
8=FIX.4.4|9=59|35=0|34=2|49=002|50=002B35|52=20190529-15:49:31.777|56=EXC|10=068|
8=FIX.4.4|9=110|35=A|34=1|49=002|50=002B35|52=20190529-15:53:18.829|56=EXC|43=Y|98=0|108=30|141=Y|553=002FCM001|554=002FCM001|10=099|
8=FIX.4.4|9=0067|35=A|34=1|49=EXC|56=002|52=20190529-15:53:15.392|98=0|108=30|141=Y|10=016|
8=FIX.4.4|9=0225|35=R|34=2|49=EXC|56=002|57=002B35|52=20190529-15:53:20.590|131=20190529-000000000021.00|146=1|55=TFIC13280425|762=RFQF|48=20626|22=M|54=1|38=500000000|453=3|448=001B27|447=C|452=12|448=001|447=C|452=1|448=002B35|447=C|452=37|10=012|
8=FIX.4.4|9=59|35=0|34=2|49=002|50=002B35|52=20190529-15:53:49.776|56=EXC|10=071|
8=FIX.4.4|9=0049|35=0|34=3|49=EXC|56=002|52=20190529-15:53:50.000|10=172|
8=FIX.4.4|9=110|35=A|34=1|49=002|50=002B35|52=20190529-15:54:29.825|56=EXC|43=Y|98=0|108=30|141=Y|553=002FCM001|554=002FCM001|10=098|
8=FIX.4.4|9=0067|35=A|34=1|49=EXC|56=002|52=20190529-15:54:26.486|98=0|108=30|141=Y|10=023|
8=FIX.4.4|9=0225|35=R|34=2|49=EXC|56=002|57=002B35|52=20190529-15:54:31.602|131=20190529-000000000022.00|146=1|55=TFIC13280425|762=RFQF|48=20626|22=M|54=1|38=500000000|453=3|448=001B27|447=C|452=12|448=001|447=C|452=1|448=002B35|447=C|452=37|10=010|
8=FIX.4.4|9=59|35=0|34=2|49=002|50=002B35|52=20190529-15:55:00.626|56=EXC|10=054|
8=FIX.4.4|9=0049|35=0|34=3|49=EXC|56=002|52=20190529-15:55:01.000|10=170|
