8=FIX.4.4|9=110|35=A|34=1|49=002|50=002B35|52=20190606-19:24:56.369|56=EXC|43=Y|98=0|108=30|141=Y|553=002FCM001|554=002FCM001|10=098|
8=FIX.4.4|9=0067|35=A|34=1|49=EXC|56=002|52=20190606-19:24:56.405|98=0|108=30|141=Y|10=014|
8=FIX.4.4|9=0192|35=R|34=2|49=EXC|56=002|52=20190606-19:24:58.722|131=20190606-000000000009.00|146=1|55=TFIT15260826|762=RFQF|48=20348|22=M|54=1|38=1500000000|453=2|448=001B27|447=C|452=12|448=001|447=C|452=1|10=251|
8=FIX.4.4|9=199|35=S|34=2|49=002|50=002B35|52=20190606-19:25:04.912|56=EXC|55=TFIT15260826|62=20190617-22:00:00.000|117=25661395|131=20190606-000000000009.00|135=1500000000|634=6|762=RFQF|453=1|448=DCV|447=C|452=10|10=178|
8=FIX.4.4|9=0294|35=AI|34=3|49=EXC|56=002|57=002B35|52=20190606-19:25:04.916|131=20190606-000000000009.00|117=25661395|453=4|448=DCV|447=C|452=10|448=001B27|447=C|452=12|448=001|447=C|452=1|448=002B35|447=C|452=37|55=TFIT15260826|762=RFQF|48=20348|22=M|54=1|634=6.000|135=1500000000|62=20190617-22:00:00|297=16|10=105|
8=FIX.4.4|9=68|35=2|34=3|49=002|50=002B35|52=20190606-19:25:04.934|56=EXC|7=2|16=0|10=184|
8=FIX.4.4|9=0223|35=R|34=2|43=Y|52=20190606-19:25:04.940|49=EXC|56=002|122=20190606-19:24:58.722|131=20190606-000000000009.00|146=1|55=TFIT15260826|762=RFQF|48=20348|22=M|54=1|38=1500000000|453=2|448=001B27|447=C|452=12|448=001|447=C|452=1|10=000|
8=FIX.4.4|9=0325|35=AI|34=3|43=Y|52=20190606-19:25:04.940|49=EXC|56=002|57=002B35|122=20190606-19:25:04.916|131=20190606-000000000009.00|117=25661395|453=4|448=DCV|447=C|452=10|448=001B27|447=C|452=12|448=001|447=C|452=1|448=002B35|447=C|452=37|55=TFIT15260826|762=RFQF|48=20348|22=M|54=1|634=6.000|135=1500000000|62=20190617-22:00:00|297=16|10=110|
8=FIX.4.4|9=0054|35=4|34=4|49=EXC|56=002|52=20190606-19:25:04.940|36=5|10=148|
8=FIX.4.4|9=110|35=A|34=1|49=002|50=002B35|52=20190606-19:37:19.760|56=EXC|43=Y|98=0|108=30|141=Y|553=002FCM001|554=002FCM001|10=096|
8=FIX.4.4|9=0067|35=A|34=1|49=EXC|56=002|52=20190606-19:37:19.790|98=0|108=30|141=Y|10=024|
8=FIX.4.4|9=0225|35=R|34=2|49=EXC|56=002|57=002B35|52=20190606-19:37:22.203|131=20190606-000000000010.00|146=1|55=TFIC13280425|762=RFQF|48=20626|22=M|54=1|38=500000000|453=3|448=001B27|447=C|452=12|448=001|447=C|452=1|448=002B35|447=C|452=37|10=001|
8=FIX.4.4|9=198|35=S|34=2|49=002|50=002B35|52=20190606-19:37:27.885|56=EXC|55=TFIC13280425|62=20190617-22:00:00.000|117=76319827|131=20190606-000000000010.00|135=500000000|634=4|762=RFQF|453=1|448=DCV|447=C|452=10|10=119|
8=FIX.4.4|9=0293|35=AI|34=3|49=EXC|56=002|57=002B35|52=20190606-19:37:27.887|131=20190606-000000000010.00|117=76319827|453=4|448=DCV|447=C|452=10|448=001B27|447=C|452=12|448=001|447=C|452=1|448=002B35|447=C|452=37|55=TFIC13280425|762=RFQF|48=20626|22=M|54=1|634=4.000|135=500000000|62=20190617-22:00:00|297=16|10=043|
8=FIX.4.4|9=0506|35=8|34=4|49=EXC|56=002|57=002B35|52=20190606-19:37:33.341|11=76319827|17=3|37=0|150=F|1080=20190606-000000000010.00|1081=6|453=6|448=002B35|447=C|452=12|448=002|447=C|452=1|448=001B27|447=C|452=37|448=001|447=C|452=17|448=002FCM001|447=C|452=36|448=DCV|447=C|452=10|55=TFIC13280425|762=RFQF|48=20626|22=M|6=79.363|14=500000000|31=79.363|32=500000000|38=500000000|39=2|20102=79.363|54=2|60=20190606-19:37:33.341|75=20190606|63=1|64=20190606|151=0|1623=4.000|381=396816500.000|880=201906060000000003|828=99|10=101|
8=FIX.4.4|9=110|35=A|34=1|49=002|50=002B35|52=20190606-19:38:52.177|56=EXC|43=Y|98=0|108=30|141=Y|553=002FCM001|554=002FCM001|10=096|
8=FIX.4.4|9=0067|35=A|34=1|49=EXC|56=002|52=20190606-19:38:52.207|98=0|108=30|141=Y|10=015|
8=FIX.4.4|9=0192|35=R|34=2|49=EXC|56=002|52=20190606-19:38:54.656|131=20190606-000000000011.00|146=1|55=TFIT15260826|762=RFQF|48=20348|22=M|54=1|38=1500000000|453=2|448=001B27|447=C|452=12|448=001|447=C|452=1|10=251|
8=FIX.4.4|9=199|35=S|34=2|49=002|50=002B35|52=20190606-19:39:00.392|56=EXC|55=TFIT15260826|62=20190617-22:00:00.000|117=40268598|131=20190606-000000000011.00|135=1500000000|634=6|762=RFQF|453=1|448=DCV|447=C|452=10|10=179|
8=FIX.4.4|9=0294|35=AI|34=3|49=EXC|56=002|57=002B35|52=20190606-19:39:00.393|131=20190606-000000000011.00|117=40268598|453=4|448=DCV|447=C|452=10|448=001B27|447=C|452=12|448=001|447=C|452=1|448=002B35|447=C|452=37|55=TFIT15260826|762=RFQF|48=20348|22=M|54=1|634=6.000|135=1500000000|62=20190617-22:00:00|297=16|10=103|
8=FIX.4.4|9=68|35=2|34=3|49=002|50=002B35|52=20190606-19:39:00.413|56=EXC|7=2|16=0|10=177|
8=FIX.4.4|9=0223|35=R|34=2|43=Y|52=20190606-19:39:00.416|49=EXC|56=002|122=20190606-19:38:54.656|131=20190606-000000000011.00|146=1|55=TFIT15260826|762=RFQF|48=20348|22=M|54=1|38=1500000000|453=2|448=001B27|447=C|452=12|448=001|447=C|452=1|10=255|
8=FIX.4.4|9=0325|35=AI|34=3|43=Y|52=20190606-19:39:00.416|49=EXC|56=002|57=002B35|122=20190606-19:39:00.393|131=20190606-000000000011.00|117=40268598|453=4|448=DCV|447=C|452=10|448=001B27|447=C|452=12|448=001|447=C|452=1|448=002B35|447=C|452=37|55=TFIT15260826|762=RFQF|48=20348|22=M|54=1|634=6.000|135=1500000000|62=20190617-22:00:00|297=16|10=107|
8=FIX.4.4|9=0054|35=4|34=4|49=EXC|56=002|52=20190606-19:39:00.417|36=5|10=148|
8=FIX.4.4|9=68|35=2|34=4|49=002|50=002B35|52=20190606-19:39:05.983|56=EXC|7=2|16=0|10=195|
8=FIX.4.4|9=0223|35=R|34=2|43=Y|52=20190606-19:39:05.986|49=EXC|56=002|122=20190606-19:38:54.656|131=20190606-000000000011.00|146=1|55=TFIT15260826|762=RFQF|48=20348|22=M|54=1|38=1500000000|453=2|448=001B27|447=C|452=12|448=001|447=C|452=1|10=016|
8=FIX.4.4|9=0325|35=AI|34=3|43=Y|52=20190606-19:39:05.986|49=EXC|56=002|57=002B35|122=20190606-19:39:00.393|131=20190606-000000000011.00|117=40268598|453=4|448=DCV|447=C|452=10|448=001B27|447=C|452=12|448=001|447=C|452=1|448=002B35|447=C|452=37|55=TFIT15260826|762=RFQF|48=20348|22=M|54=1|634=6.000|135=1500000000|62=20190617-22:00:00|297=16|10=124|
8=FIX.4.4|9=0065|35=4|34=4|43=Y|49=EXC|56=002|52=20190606-19:39:05.986|123=Y|36=5|10=209|
8=FIX.4.4|9=0054|35=4|34=5|49=EXC|56=002|52=20190606-19:39:05.986|36=6|10=166|
8=FIX.4.4|9=110|35=A|34=1|49=002|50=002B35|52=20190606-20:14:15.397|56=EXC|43=Y|98=0|108=30|141=Y|553=002FCM001|554=002FCM001|10=085|
8=FIX.4.4|9=0067|35=A|34=1|49=EXC|56=002|52=20190606-20:14:15.439|98=0|108=30|141=Y|10=007|
8=FIX.4.4|9=0049|35=0|34=2|49=EXC|56=002|52=20190606-20:14:45.000|10=164|
8=FIX.4.4|9=59|35=0|34=2|49=002|50=002B35|52=20190606-20:14:46.140|56=EXC|10=042|
8=FIX.4.4|9=110|35=A|34=1|49=002|50=002B35|52=20190606-20:19:00.659|56=EXC|43=Y|98=0|108=30|141=Y|553=002FCM001|554=002FCM001|10=085|
8=FIX.4.4|9=0067|35=A|34=1|49=EXC|56=002|52=20190606-20:19:00.693|98=0|108=30|141=Y|10=008|
8=FIX.4.4|9=110|35=A|34=1|49=002|50=002B35|52=20190606-20:22:18.998|56=EXC|43=Y|98=0|108=30|141=Y|553=002FCM001|554=002FCM001|10=094|
8=FIX.4.4|9=0067|35=A|34=1|49=EXC|56=002|52=20190606-20:22:19.066|98=0|108=30|141=Y|10=006|
8=FIX.4.4|9=110|35=A|34=1|49=002|50=002B35|52=20190606-20:25:08.202|56=EXC|43=Y|98=0|108=30|141=Y|553=002FCM001|554=002FCM001|10=074|
8=FIX.4.4|9=0067|35=A|34=1|49=EXC|56=002|52=20190606-20:25:08.232|98=0|108=30|141=Y|10=002|
8=FIX.4.4|9=0049|35=0|34=2|49=EXC|56=002|52=20190606-20:25:38.000|10=168|
8=FIX.4.4|9=59|35=0|34=2|49=002|50=002B35|52=20190606-20:25:39.169|56=EXC|10=057|
8=FIX.4.4|9=110|35=A|34=1|49=002|50=002B35|52=20190606-20:27:29.226|56=EXC|43=Y|98=0|108=30|141=Y|553=002FCM001|554=002FCM001|10=085|
8=FIX.4.4|9=0067|35=A|34=1|49=EXC|56=002|52=20190606-20:27:29.929|98=0|108=30|141=Y|10=020|
8=FIX.4.4|9=0191|35=R|34=2|49=EXC|56=002|52=20190606-20:27:32.618|131=20190606-000000000012.00|146=1|55=TFIC14280426|762=RFQF|48=20602|22=M|54=1|38=500000000|453=2|448=001B27|447=C|452=12|448=001|447=C|452=1|10=159|
8=FIX.4.4|9=0191|35=R|34=3|49=EXC|56=002|52=20190606-20:27:34.029|131=20190606-000000000013.00|146=1|55=TFIC14280426|762=RFQF|48=20602|22=M|54=1|38=500000000|453=2|448=001B27|447=C|452=12|448=001|447=C|452=1|10=159|
8=FIX.4.4|9=68|35=2|34=2|49=002|50=002B35|52=20190606-20:27:37.733|56=EXC|7=2|16=0|10=180|
8=FIX.4.4|9=0222|35=R|34=2|43=Y|52=20190606-20:27:37.726|49=EXC|56=002|122=20190606-20:27:32.618|131=20190606-000000000012.00|146=1|55=TFIC14280426|762=RFQF|48=20602|22=M|54=1|38=500000000|453=2|448=001B27|447=C|452=12|448=001|447=C|452=1|10=166|
8=FIX.4.4|9=0222|35=R|34=3|43=Y|52=20190606-20:27:37.726|49=EXC|56=002|122=20190606-20:27:34.029|131=20190606-000000000013.00|146=1|55=TFIC14280426|762=RFQF|48=20602|22=M|54=1|38=500000000|453=2|448=001B27|447=C|452=12|448=001|447=C|452=1|10=166|
8=FIX.4.4|9=0054|35=4|34=4|49=EXC|56=002|52=20190606-20:27:37.726|36=5|10=150|
8=FIX.4.4|9=68|35=2|34=3|49=002|50=002B35|52=20190606-20:27:42.836|56=EXC|7=2|16=0|10=181|
8=FIX.4.4|9=0222|35=R|34=2|43=Y|52=20190606-20:27:42.823|49=EXC|56=002|122=20190606-20:27:32.618|131=20190606-000000000012.00|146=1|55=TFIC14280426|762=RFQF|48=20602|22=M|54=1|38=500000000|453=2|448=001B27|447=C|452=12|448=001|447=C|452=1|10=160|
8=FIX.4.4|9=0222|35=R|34=3|43=Y|52=20190606-20:27:42.823|49=EXC|56=002|122=20190606-20:27:34.029|131=20190606-000000000013.00|146=1|55=TFIC14280426|762=RFQF|48=20602|22=M|54=1|38=500000000|453=2|448=001B27|447=C|452=12|448=001|447=C|452=1|10=160|
8=FIX.4.4|9=0065|35=4|34=4|43=Y|49=EXC|56=002|52=20190606-20:27:42.823|123=Y|36=5|10=189|
8=FIX.4.4|9=0054|35=4|34=5|49=EXC|56=002|52=20190606-20:27:42.824|36=6|10=147|
8=FIX.4.4|9=110|35=A|34=1|49=002|50=002B35|52=20190606-20:52:00.408|56=EXC|43=Y|98=0|108=30|141=Y|553=002FCM001|554=002FCM001|10=074|
8=FIX.4.4|9=0067|35=A|34=1|49=EXC|56=002|52=20190606-20:52:00.436|98=0|108=30|141=Y|10=000|
