8=FIX.4.4|9=105|35=A|34=1|49=007|50=007B26|52=20190625-14:00:42.219|56=EXC|98=0|108=30|141=Y|553=007FCE001|554=007FCE001|10=087|
8=FIX.4.4|9=0067|35=A|34=1|49=EXC|56=007|52=20190627-14:00:42.235|98=0|108=30|141=Y|10=007|
8=FIX.4.4|9=0049|35=0|34=2|49=EXC|56=007|52=20190627-14:01:12.000|10=165|
8=FIX.4.4|9=59|35=0|34=2|49=007|50=007B26|52=20190625-14:01:13.191|56=EXC|10=052|
8=FIX.4.4|9=0049|35=0|34=3|49=EXC|56=007|52=20190627-14:01:42.000|10=169|
8=FIX.4.4|9=59|35=0|34=3|49=007|50=007B26|52=20190625-14:01:43.191|56=EXC|10=056|
8=FIX.4.4|9=0049|35=0|34=4|49=EXC|56=007|52=20190627-14:02:12.000|10=168|
8=FIX.4.4|9=59|35=0|34=4|49=007|50=007B26|52=20190625-14:02:13.191|56=EXC|10=055|
8=FIX.4.4|9=0049|35=0|34=5|49=EXC|56=007|52=20190627-14:02:42.000|10=172|
8=FIX.4.4|9=59|35=0|34=5|49=007|50=007B26|52=20190625-14:02:43.190|56=EXC|10=058|
8=FIX.4.4|9=105|35=A|34=1|49=007|50=007B26|52=20190625-14:04:52.634|56=EXC|98=0|108=30|141=Y|553=007FCE001|554=007FCE001|10=093|
8=FIX.4.4|9=0067|35=A|34=1|49=EXC|56=007|52=20190627-14:04:52.649|98=0|108=30|141=Y|10=021|
8=FIX.4.4|9=0049|35=0|34=2|49=EXC|56=007|52=20190627-14:05:22.000|10=170|
8=FIX.4.4|9=59|35=0|34=2|49=007|50=007B26|52=20190625-14:05:23.545|56=EXC|10=060|
8=FIX.4.4|9=0049|35=0|34=3|49=EXC|56=007|52=20190627-14:05:52.000|10=174|
8=FIX.4.4|9=59|35=0|34=3|49=007|50=007B26|52=20190625-14:05:53.544|56=EXC|10=063|
8=FIX.4.4|9=0049|35=0|34=4|49=EXC|56=007|52=20190627-14:06:22.000|10=173|
8=FIX.4.4|9=59|35=0|34=4|49=007|50=007B26|52=20190625-14:06:23.545|56=EXC|10=063|
8=FIX.4.4|9=0049|35=0|34=5|49=EXC|56=007|52=20190627-14:06:52.000|10=177|
8=FIX.4.4|9=59|35=0|34=5|49=007|50=007B26|52=20190625-14:06:53.544|56=EXC|10=066|
8=FIX.4.4|9=0049|35=0|34=6|49=EXC|56=007|52=20190627-14:07:22.000|10=176|
8=FIX.4.4|9=59|35=0|34=6|49=007|50=007B26|52=20190625-14:07:23.545|56=EXC|10=066|
8=FIX.4.4|9=0049|35=0|34=7|49=EXC|56=007|52=20190627-14:07:52.000|10=180|
8=FIX.4.4|9=59|35=0|34=7|49=007|50=007B26|52=20190625-14:07:53.544|56=EXC|10=069|
8=FIX.4.4|9=0049|35=0|34=8|49=EXC|56=007|52=20190627-14:08:22.000|10=179|
8=FIX.4.4|9=59|35=0|34=8|49=007|50=007B26|52=20190625-14:08:23.544|56=EXC|10=068|
8=FIX.4.4|9=0049|35=0|34=9|49=EXC|56=007|52=20190627-14:08:52.000|10=183|
8=FIX.4.4|9=59|35=0|34=9|49=007|50=007B26|52=20190625-14:08:53.544|56=EXC|10=072|
8=FIX.4.4|9=0050|35=0|34=10|49=EXC|56=007|52=20190627-14:09:22.000|10=213|
8=FIX.4.4|9=60|35=0|34=10|49=007|50=007B26|52=20190625-14:09:23.545|56=EXC|10=103|
8=FIX.4.4|9=0050|35=0|34=11|49=EXC|56=007|52=20190627-14:09:52.000|10=217|
8=FIX.4.4|9=60|35=0|34=11|49=007|50=007B26|52=20190625-14:09:53.545|56=EXC|10=107|
8=FIX.4.4|9=105|35=A|34=1|49=007|50=007B26|52=20190625-14:38:03.012|56=EXC|98=0|108=30|141=Y|553=007FCE001|554=007FCE001|10=086|
8=FIX.4.4|9=0067|35=A|34=1|49=EXC|56=007|52=20190627-14:38:03.050|98=0|108=30|141=Y|10=010|
8=FIX.4.4|9=0049|35=0|34=2|49=EXC|56=007|52=20190627-14:38:33.000|10=178|
8=FIX.4.4|9=59|35=0|34=2|49=007|50=007B26|52=20190625-14:38:33.016|56=EXC|10=060|
8=FIX.4.4|9=0049|35=0|34=3|49=EXC|56=007|52=20190627-14:39:03.000|10=177|
8=FIX.4.4|9=59|35=0|34=3|49=007|50=007B26|52=20190625-14:39:03.011|56=EXC|10=054|
8=FIX.4.4|9=59|35=5|34=4|49=007|50=007B26|52=20190625-14:39:24.001|56=EXC|10=062|
8=FIX.4.4|9=0049|35=5|34=4|49=EXC|56=007|52=20190627-14:39:24.008|10=194|
8=FIX.4.4|9=105|35=A|34=1|49=007|50=007B26|52=20190625-15:23:40.523|56=EXC|98=0|108=30|141=Y|553=007FCE001|554=007FCE001|10=089|
8=FIX.4.4|9=0067|35=A|34=1|49=EXC|56=007|52=20190627-15:23:40.551|98=0|108=30|141=Y|10=012|
8=FIX.4.4|9=0049|35=0|34=2|49=EXC|56=007|52=20190627-15:24:10.000|10=169|
8=FIX.4.4|9=59|35=0|34=2|49=007|50=007B26|52=20190625-15:24:11.488|56=EXC|10=065|
8=FIX.4.4|9=0049|35=0|34=3|49=EXC|56=007|52=20190627-15:24:40.000|10=173|
8=FIX.4.4|9=59|35=0|34=3|49=007|50=007B26|52=20190625-15:24:41.488|56=EXC|10=069|
8=FIX.4.4|9=0049|35=0|34=4|49=EXC|56=007|52=20190627-15:25:10.000|10=172|
8=FIX.4.4|9=59|35=0|34=4|49=007|50=007B26|52=20190625-15:25:11.488|56=EXC|10=068|
8=FIX.4.4|9=0049|35=0|34=5|49=EXC|56=007|52=20190627-15:25:40.000|10=176|
8=FIX.4.4|9=59|35=0|34=5|49=007|50=007B26|52=20190625-15:25:41.489|56=EXC|10=073|
8=FIX.4.4|9=0049|35=0|34=6|49=EXC|56=007|52=20190627-15:26:10.000|10=175|
8=FIX.4.4|9=59|35=0|34=6|49=007|50=007B26|52=20190625-15:26:11.489|56=EXC|10=072|
8=FIX.4.4|9=0049|35=0|34=7|49=EXC|56=007|52=20190627-15:26:40.000|10=179|
8=FIX.4.4|9=59|35=0|34=7|49=007|50=007B26|52=20190625-15:26:41.489|56=EXC|10=076|
8=FIX.4.4|9=0049|35=0|34=8|49=EXC|56=007|52=20190627-15:27:10.000|10=178|
8=FIX.4.4|9=59|35=0|34=8|49=007|50=007B26|52=20190625-15:27:11.489|56=EXC|10=075|
8=FIX.4.4|9=0049|35=0|34=9|49=EXC|56=007|52=20190627-15:27:40.000|10=182|
8=FIX.4.4|9=59|35=0|34=9|49=007|50=007B26|52=20190625-15:27:41.488|56=EXC|10=078|
8=FIX.4.4|9=0050|35=0|34=10|49=EXC|56=007|52=20190627-15:28:10.000|10=212|
8=FIX.4.4|9=164|35=R|34=10|49=007|50=007B26|52=20190625-15:28:10.177|56=EXC|131=201906251023386_R|146=1|55=TFIT15260826|22=M|762=RFQF|54=1|38=1500000000|453=1|448=DCV|447=C|452=10|10=074|
8=FIX.4.4|9=0246|35=AI|34=11|49=EXC|56=007|57=007B26|52=20190627-15:28:10.176|131=201906251023386_R|453=4|448=DCV|447=C|452=10|448=007B26|447=C|452=12|448=007|447=C|452=1|448=007FCE001|447=C|452=36|55=TFIT15260826|762=RFQF|48=20348|22=M|54=1|38=1500000000|297=10|10=241|
8=FIX.4.4|9=0193|35=R|34=12|49=EXC|56=007|52=20190627-15:28:10.176|131=20190627-000000000016.00|146=1|55=TFIT15260826|762=RFQF|48=20348|22=M|54=1|38=1500000000|453=2|448=007B26|447=C|452=12|448=007|447=C|452=1|10=056|
8=FIX.4.4|9=0184|35=R|34=13|49=EXC|56=007|52=20190627-15:28:39.463|131=20190627-000000000016.00|146=1|55=TFIT15260826|762=RFQF|48=20348|22=M|54=1|38=0|453=2|448=007B26|447=C|452=12|448=007|447=C|452=1|10=141|
8=FIX.4.4|9=0318|35=S|34=14|49=EXC|56=007|57=007B26|52=20190627-15:28:39.463|131=201906251023386_R|117=20190627-000000000016.00|55=TFIT15260826|762=RFQF|48=20348|22=M|453=5|448=DCV|447=C|452=10|448=007B26|447=C|452=12|448=007|447=C|452=1|448=007FCE001|447=C|452=36|448=002B35|447=C|452=37|634=6.000|135=1500000000|62=20190830-22:00:00|10=159|
8=FIX.4.4|9=60|35=0|34=11|49=007|50=007B26|52=20190625-15:28:40.490|56=EXC|10=104|
8=FIX.4.4|9=0050|35=0|34=15|49=EXC|56=007|52=20190627-15:29:09.000|10=226|
8=FIX.4.4|9=60|35=0|34=12|49=007|50=007B26|52=20190625-15:29:10.488|56=EXC|10=110|
8=FIX.4.4|9=149|35=AJ|34=13|49=007|50=007B26|52=20190625-15:29:18.516|56=EXC|54=1|55=TFIT15260826|117=20190627-000000000016.00|693=201906251023386_AJ|694=1|762=RFQF|10=179|
8=FIX.4.4|9=0524|35=8|34=16|49=EXC|56=007|57=007B26|52=20190627-15:29:18.514|11=201906251023386_AJ|17=1|37=0|150=F|1080=20190627-000000000016.00|1081=5|453=6|448=007B26|447=C|452=12|448=007|447=C|452=1|448=002B35|447=C|452=37|448=002|447=C|452=17|448=007FCE001|447=C|452=36|448=DCV|447=C|452=10|55=TFIT15260826|762=RFQF|48=20348|22=M|6=108.500|14=1500000000|31=108.500|32=1500000000|38=1500000000|39=2|20102=114.767|54=1|60=20190627-15:29:18.514|75=20190627|63=1|64=20190627|151=0|1623=6.000|381=1721506500.000|880=201906270000000007|828=99|10=072|
8=FIX.4.4|9=0192|35=R|34=17|49=EXC|56=007|52=20190627-15:29:46.344|131=20190627-000000000017.00|146=1|55=TFIC14280426|762=RFQF|48=20602|22=M|54=1|38=500000000|453=2|448=001B27|447=C|452=12|448=001|447=C|452=1|10=237|
8=FIX.4.4|9=60|35=0|34=14|49=007|50=007B26|52=20190625-15:29:49.488|56=EXC|10=124|
8=FIX.4.4|9=0050|35=0|34=18|49=EXC|56=007|52=20190627-15:30:16.000|10=219|
8=FIX.4.4|9=60|35=0|34=15|49=007|50=007B26|52=20190625-15:30:19.489|56=EXC|10=115|
8=FIX.4.4|9=179|35=R|34=16|49=007|50=007B26|52=20190625-15:30:36.288|56=EXC|131=201906251023389_R|146=1|55=TFIT16280428|22=M|762=RFQF|54=1|38=0|453=2|448=DCV|447=C|452=10|448=010BWN|447=C|452=37|10=098|
8=FIX.4.4|9=0162|35=AG|34=19|49=EXC|56=007|57=007B26|52=20190627-15:30:36.286|131=201906251023389_R|658=99|146=1|55=TFIT16280428|762=RFQF|22=M|58=(333): ID de cotización inválida|10=182|
8=FIX.4.4|9=212|35=R|34=17|49=007|50=007B26|52=20190625-15:30:49.730|56=EXC|131=2019062510233810_R|146=1|55=TFIT16240724|22=M|762=RFQF|54=2|38=500000000|453=3|448=002B35|447=C|452=37|448=DCV|447=C|452=10|448=010BWN|447=C|452=37|10=122|
8=FIX.4.4|9=0294|35=AI|34=20|49=EXC|56=007|57=007B26|52=20190627-15:30:49.727|131=2019062510233810_R|453=6|448=DCV|447=C|452=10|448=007B26|447=C|452=12|448=007|447=C|452=1|448=007FCE001|447=C|452=36|448=002B35|447=C|452=37|448=010BWN|447=C|452=37|55=TFIT16240724|762=RFQF|48=20392|22=M|54=2|38=500000000|297=10|10=041|
8=FIX.4.4|9=0050|35=0|34=21|49=EXC|56=007|52=20190627-15:31:19.000|10=217|
8=FIX.4.4|9=60|35=0|34=18|49=007|50=007B26|52=20190625-15:31:20.489|56=EXC|10=111|
8=FIX.4.4|9=60|35=5|34=19|49=007|50=007B26|52=20190625-15:31:35.489|56=EXC|10=123|
8=FIX.4.4|9=0050|35=5|34=22|49=EXC|56=007|52=20190627-15:31:35.486|10=239|
8=FIX.4.4|9=105|35=A|34=1|49=007|50=007B26|52=20190625-15:58:17.346|56=EXC|98=0|108=30|141=Y|553=007FCE001|554=007FCE001|10=104|
8=FIX.4.4|9=0067|35=A|34=1|49=EXC|56=007|52=20190627-15:58:17.374|98=0|108=30|141=Y|10=027|
8=FIX.4.4|9=0049|35=0|34=2|49=EXC|56=007|52=20190627-15:58:47.000|10=186|
8=FIX.4.4|9=59|35=0|34=2|49=007|50=007B26|52=20190625-15:58:48.275|56=EXC|10=076|
8=FIX.4.4|9=0049|35=0|34=3|49=EXC|56=007|52=20190627-15:59:17.000|10=185|
8=FIX.4.4|9=59|35=0|34=3|49=007|50=007B26|52=20190625-15:59:18.275|56=EXC|10=075|
8=FIX.4.4|9=0049|35=0|34=4|49=EXC|56=007|52=20190627-15:59:47.000|10=189|
8=FIX.4.4|9=59|35=0|34=4|49=007|50=007B26|52=20190625-15:59:48.275|56=EXC|10=079|
8=FIX.4.4|9=0049|35=0|34=5|49=EXC|56=007|52=20190627-16:00:17.000|10=174|
8=FIX.4.4|9=59|35=0|34=5|49=007|50=007B26|52=20190625-16:00:18.275|56=EXC|10=064|
8=FIX.4.4|9=0049|35=0|34=6|49=EXC|56=007|52=20190627-16:00:47.000|10=178|
8=FIX.4.4|9=59|35=0|34=6|49=007|50=007B26|52=20190625-16:00:48.275|56=EXC|10=068|
8=FIX.4.4|9=0049|35=0|34=7|49=EXC|56=007|52=20190627-16:01:17.000|10=177|
8=FIX.4.4|9=59|35=0|34=7|49=007|50=007B26|52=20190625-16:01:18.276|56=EXC|10=068|
8=FIX.4.4|9=0049|35=0|34=8|49=EXC|56=007|52=20190627-16:01:47.000|10=181|
8=FIX.4.4|9=59|35=0|34=8|49=007|50=007B26|52=20190625-16:01:48.274|56=EXC|10=070|
8=FIX.4.4|9=0049|35=0|34=9|49=EXC|56=007|52=20190627-16:02:17.000|10=180|
8=FIX.4.4|9=59|35=0|34=9|49=007|50=007B26|52=20190625-16:02:18.277|56=EXC|10=072|
8=FIX.4.4|9=164|35=R|34=10|49=007|50=007B26|52=20190625-16:02:47.012|56=EXC|131=201906251058146_R|146=1|55=TFIT15260826|22=M|762=RFQF|54=1|38=1500000000|453=1|448=DCV|447=C|452=10|10=067|
8=FIX.4.4|9=0050|35=0|34=10|49=EXC|56=007|52=20190627-16:02:47.000|10=215|
8=FIX.4.4|9=0246|35=AI|34=11|49=EXC|56=007|57=007B26|52=20190627-16:02:47.006|131=201906251058146_R|453=4|448=DCV|447=C|452=10|448=007B26|447=C|452=12|448=007|447=C|452=1|448=007FCE001|447=C|452=36|55=TFIT15260826|762=RFQF|48=20348|22=M|54=1|38=1500000000|297=10|10=238|
8=FIX.4.4|9=0193|35=R|34=12|49=EXC|56=007|52=20190627-16:02:47.006|131=20190627-000000000024.00|146=1|55=TFIT15260826|762=RFQF|48=20348|22=M|54=1|38=1500000000|453=2|448=007B26|447=C|452=12|448=007|447=C|452=1|10=050|
8=FIX.4.4|9=0184|35=R|34=13|49=EXC|56=007|52=20190627-16:03:16.418|131=20190627-000000000024.00|146=1|55=TFIT15260826|762=RFQF|48=20348|22=M|54=1|38=0|453=2|448=007B26|447=C|452=12|448=007|447=C|452=1|10=129|
8=FIX.4.4|9=0318|35=S|34=14|49=EXC|56=007|57=007B26|52=20190627-16:03:16.418|131=201906251058146_R|117=20190627-000000000024.00|55=TFIT15260826|762=RFQF|48=20348|22=M|453=5|448=DCV|447=C|452=10|448=007B26|447=C|452=12|448=007|447=C|452=1|448=007FCE001|447=C|452=36|448=002B35|447=C|452=37|634=6.000|135=1500000000|62=20190830-22:00:00|10=149|
8=FIX.4.4|9=60|35=0|34=11|49=007|50=007B26|52=20190625-16:03:17.275|56=EXC|10=103|
8=FIX.4.4|9=0050|35=0|34=15|49=EXC|56=007|52=20190627-16:03:46.000|10=220|
8=FIX.4.4|9=60|35=0|34=12|49=007|50=007B26|52=20190625-16:03:47.275|56=EXC|10=107|
8=FIX.4.4|9=149|35=AJ|34=13|49=007|50=007B26|52=20190625-16:03:55.455|56=EXC|54=1|55=TFIT15260826|117=20190627-000000000024.00|693=201906251058146_AJ|694=1|762=RFQF|10=176|
8=FIX.4.4|9=0524|35=8|34=16|49=EXC|56=007|57=007B26|52=20190627-16:03:55.449|11=201906251058146_AJ|17=2|37=0|150=F|1080=20190627-000000000024.00|1081=5|453=6|448=007B26|447=C|452=12|448=007|447=C|452=1|448=002B35|447=C|452=37|448=002|447=C|452=17|448=007FCE001|447=C|452=36|448=DCV|447=C|452=10|55=TFIT15260826|762=RFQF|48=20348|22=M|6=108.500|14=1500000000|31=108.500|32=1500000000|38=1500000000|39=2|20102=114.767|54=1|60=20190627-16:03:55.449|75=20190627|63=1|64=20190627|151=0|1623=6.000|381=1721506500.000|880=201906270000000010|828=99|10=070|
8=FIX.4.4|9=0192|35=R|34=17|49=EXC|56=007|52=20190627-16:04:22.310|131=20190627-000000000025.00|146=1|55=TFIC14280426|762=RFQF|48=20602|22=M|54=1|38=500000000|453=2|448=001B27|447=C|452=12|448=001|447=C|452=1|10=217|
8=FIX.4.4|9=60|35=0|34=14|49=007|50=007B26|52=20190625-16:04:26.275|56=EXC|10=107|
8=FIX.4.4|9=0050|35=0|34=18|49=EXC|56=007|52=20190627-16:04:52.000|10=221|
8=FIX.4.4|9=60|35=0|34=15|49=007|50=007B26|52=20190625-16:04:56.275|56=EXC|10=111|
8=FIX.4.4|9=179|35=R|34=16|49=007|50=007B26|52=20190625-16:05:12.870|56=EXC|131=201906251058149_R|146=1|55=TFIT16280428|22=M|762=RFQF|54=1|38=0|453=2|448=DCV|447=C|452=10|448=010BWN|447=C|452=37|10=094|
8=FIX.4.4|9=0162|35=AG|34=19|49=EXC|56=007|57=007B26|52=20190627-16:05:12.862|131=201906251058149_R|658=99|146=1|55=TFIT16280428|762=RFQF|22=M|58=(333): ID de cotización inválida|10=181|
8=FIX.4.4|9=212|35=R|34=17|49=007|50=007B26|52=20190625-16:05:26.301|56=EXC|131=2019062510581410_R|146=1|55=TFIT16240724|22=M|762=RFQF|54=2|38=500000000|453=3|448=002B35|447=C|452=37|448=DCV|447=C|452=10|448=010BWN|447=C|452=37|10=116|
8=FIX.4.4|9=0294|35=AI|34=20|49=EXC|56=007|57=007B26|52=20190627-16:05:26.295|131=2019062510581410_R|453=6|448=DCV|447=C|452=10|448=007B26|447=C|452=12|448=007|447=C|452=1|448=007FCE001|447=C|452=36|448=002B35|447=C|452=37|448=010BWN|447=C|452=37|55=TFIT16240724|762=RFQF|48=20392|22=M|54=2|38=500000000|297=10|10=041|
8=FIX.4.4|9=0050|35=0|34=21|49=EXC|56=007|52=20190627-16:05:56.000|10=220|
8=FIX.4.4|9=60|35=0|34=18|49=007|50=007B26|52=20190625-16:05:57.274|56=EXC|10=115|
8=FIX.4.4|9=60|35=5|34=19|49=007|50=007B26|52=20190625-16:06:06.275|56=EXC|10=117|
8=FIX.4.4|9=0050|35=5|34=22|49=EXC|56=007|52=20190627-16:06:06.269|10=239|
