<<<<<<< HEAD
<<<<<<< HEAD
8=FIX.4.4|9=110|35=A|34=1|49=007|50=007B26|52=20190607-14:13:04.998|56=EXC|43=Y|98=0|108=30|141=Y|553=007FCE001|554=007FCE001|10=097|
8=FIX.4.4|9=0067|35=A|34=1|49=EXC|56=007|52=20190607-14:13:05.061|98=0|108=30|141=Y|10=005|
8=FIX.4.4|9=0192|35=R|34=2|49=EXC|56=007|52=20190607-14:13:07.262|131=20190607-000000000012.00|146=1|55=TFIT15260826|762=RFQF|48=20348|22=M|54=1|38=1500000000|453=2|448=001B27|447=C|452=12|448=001|447=C|452=1|10=238|
8=FIX.4.4|9=110|35=A|34=1|49=007|50=007B26|52=20190607-15:35:43.267|56=EXC|43=Y|98=0|108=30|141=Y|553=007FCE001|554=007FCE001|10=094|
8=FIX.4.4|9=0067|35=A|34=1|49=EXC|56=007|52=20190607-15:35:43.321|98=0|108=30|141=Y|10=011|
8=FIX.4.4|9=110|35=A|34=1|49=007|50=007B26|52=20190607-16:16:18.279|56=EXC|43=Y|98=0|108=30|141=Y|553=007FCE001|554=007FCE001|10=099|
8=FIX.4.4|9=0067|35=A|34=1|49=EXC|56=007|52=20190607-16:16:18.378|98=0|108=30|141=Y|10=025|
8=FIX.4.4|9=110|35=A|34=1|49=007|50=007B26|52=20190607-16:39:55.160|56=EXC|43=Y|98=0|108=30|141=Y|553=007FCE001|554=007FCE001|10=094|
8=FIX.4.4|9=0067|35=A|34=1|49=EXC|56=007|52=20190607-16:39:55.205|98=0|108=30|141=Y|10=020|
8=FIX.4.4|9=110|35=A|34=1|49=007|50=007B26|52=20190607-16:43:05.110|56=EXC|43=Y|98=0|108=30|141=Y|553=007FCE001|554=007FCE001|10=079|
8=FIX.4.4|9=0067|35=A|34=1|49=EXC|56=007|52=20190607-16:43:05.175|98=0|108=30|141=Y|10=016|
8=FIX.4.4|9=110|35=A|34=1|49=007|50=007B26|52=20190607-16:44:16.310|56=EXC|43=Y|98=0|108=30|141=Y|553=007FCE001|554=007FCE001|10=084|
8=FIX.4.4|9=0067|35=A|34=1|49=EXC|56=007|52=20190607-16:44:16.342|98=0|108=30|141=Y|10=015|
8=FIX.4.4|9=110|35=A|34=1|49=007|50=007B26|52=20190607-16:47:05.190|56=EXC|43=Y|98=0|108=30|141=Y|553=007FCE001|554=007FCE001|10=091|
8=FIX.4.4|9=0067|35=A|34=1|49=EXC|56=007|52=20190607-16:47:05.246|98=0|108=30|141=Y|10=019|
8=FIX.4.4|9=154|35=R|34=2|49=007|50=007B26|52=20190607-16:47:07.489|56=EXC|131=61947059|146=1|55=TFIT15260826|22=M|762=RFQF|54=1|38=1500000000|453=1|448=DCV|447=C|452=10|10=032|
8=FIX.4.4|9=0236|35=AI|34=2|49=EXC|56=007|57=007B26|52=20190607-16:47:07.473|131=61947059|453=4|448=DCV|447=C|452=10|448=007B26|447=C|452=12|448=007|447=C|452=1|448=007FCE001|447=C|452=36|55=TFIT15260826|762=RFQF|48=20348|22=M|54=1|38=1500000000|297=10|10=190|
8=FIX.4.4|9=0192|35=R|34=3|49=EXC|56=007|52=20190607-16:47:07.473|131=20190607-000000000033.00|146=1|55=TFIT15260826|762=RFQF|48=20348|22=M|54=1|38=1500000000|453=2|448=007B26|447=C|452=12|448=007|447=C|452=1|10=010|
8=FIX.4.4|9=110|35=A|34=1|49=007|50=007B26|52=20190607-16:53:12.249|56=EXC|43=Y|98=0|108=30|141=Y|553=007FCE001|554=007FCE001|10=091|
8=FIX.4.4|9=0067|35=A|34=1|49=EXC|56=007|52=20190607-16:53:12.306|98=0|108=30|141=Y|10=011|
8=FIX.4.4|9=110|35=A|34=1|49=007|50=007B26|52=20190607-17:01:26.136|56=EXC|43=Y|98=0|108=30|141=Y|553=007FCE001|554=007FCE001|10=085|
8=FIX.4.4|9=0067|35=A|34=1|49=EXC|56=007|52=20190607-17:01:26.167|98=0|108=30|141=Y|10=015|
8=FIX.4.4|9=154|35=R|34=2|49=007|50=007B26|52=20190607-17:01:28.266|56=EXC|131=44232973|146=1|55=TFIT15260826|22=M|762=RFQF|54=1|38=1500000000|453=1|448=DCV|447=C|452=10|10=012|
8=FIX.4.4|9=0236|35=AI|34=2|49=EXC|56=007|57=007B26|52=20190607-17:01:28.235|131=44232973|453=4|448=DCV|447=C|452=10|448=007B26|447=C|452=12|448=007|447=C|452=1|448=007FCE001|447=C|452=36|55=TFIT15260826|762=RFQF|48=20348|22=M|54=1|38=1500000000|297=10|10=173|
8=FIX.4.4|9=0192|35=R|34=3|49=EXC|56=007|52=20190607-17:01:28.235|131=20190607-000000000037.00|146=1|55=TFIT15260826|762=RFQF|48=20348|22=M|54=1|38=1500000000|453=2|448=007B26|447=C|452=12|448=007|447=C|452=1|10=004|
8=FIX.4.4|9=110|35=A|34=1|49=007|50=007B26|52=20190607-17:05:59.253|56=EXC|43=Y|98=0|108=30|141=Y|553=007FCE001|554=007FCE001|10=095|
8=FIX.4.4|9=0067|35=A|34=1|49=EXC|56=007|52=20190607-17:05:59.295|98=0|108=30|141=Y|10=027|
=======
8=FIX.4.4|9=110|35=A|34=1|49=007|50=007B26|52=20190607-12:29:13.379|56=EXC|43=Y|98=0|108=30|141=Y|553=007FCE001|554=007FCE001|10=095|
8=FIX.4.4|9=0067|35=A|34=1|49=EXC|56=007|52=20190607-12:29:14.845|98=0|108=30|141=Y|10=020|
8=FIX.4.4|9=110|35=A|34=1|49=007|50=007B26|52=20190607-12:31:01.288|56=EXC|43=Y|98=0|108=30|141=Y|553=007FCE001|554=007FCE001|10=084|
8=FIX.4.4|9=0067|35=A|34=1|49=EXC|56=007|52=20190607-12:31:02.481|98=0|108=30|141=Y|10=006|
8=FIX.4.4|9=110|35=A|34=1|49=007|50=007B26|52=20190607-12:37:18.472|56=EXC|43=Y|98=0|108=30|141=Y|553=007FCE001|554=007FCE001|10=093|
8=FIX.4.4|9=0067|35=A|34=1|49=EXC|56=007|52=20190607-12:37:18.883|98=0|108=30|141=Y|10=025|
8=FIX.4.4|9=0192|35=R|34=2|49=EXC|56=007|52=20190607-12:37:21.174|131=20190607-000000000001.00|146=1|55=TFIT15260826|762=RFQF|48=20348|22=M|54=1|38=1500000000|453=2|448=001B27|447=C|452=12|448=001|447=C|452=1|10=238|
8=FIX.4.4|9=110|35=A|34=1|49=007|50=007B26|52=20190607-13:06:52.975|56=EXC|43=Y|98=0|108=30|141=Y|553=007FCE001|554=007FCE001|10=096|
8=FIX.4.4|9=0067|35=A|34=1|49=EXC|56=007|52=20190607-13:06:52.489|98=0|108=30|141=Y|10=022|
8=FIX.4.4|9=0192|35=R|34=2|49=EXC|56=007|52=20190607-13:06:54.725|131=20190607-000000000002.00|146=1|55=TFIT15260826|762=RFQF|48=20348|22=M|54=1|38=1500000000|453=2|448=001B27|447=C|452=12|448=001|447=C|452=1|10=244|
8=FIX.4.4|9=110|35=A|34=1|49=007|50=007B26|52=20190607-13:41:37.902|56=EXC|43=Y|98=0|108=30|141=Y|553=007FCE001|554=007FCE001|10=088|
8=FIX.4.4|9=0067|35=A|34=1|49=EXC|56=007|52=20190607-13:41:37.472|98=0|108=30|141=Y|10=016|
8=FIX.4.4|9=110|35=A|34=1|49=007|50=007B26|52=20190607-13:44:49.791|56=EXC|43=Y|98=0|108=30|141=Y|553=007FCE001|554=007FCE001|10=100|
8=FIX.4.4|9=0067|35=A|34=1|49=EXC|56=007|52=20190607-13:44:49.329|98=0|108=30|141=Y|10=023|
8=FIX.4.4|9=0192|35=R|34=2|49=EXC|56=007|52=20190607-13:44:51.624|131=20190607-000000000004.00|146=1|55=TFIT15260826|762=RFQF|48=20348|22=M|54=1|38=1500000000|453=2|448=001B27|447=C|452=12|448=001|447=C|452=1|10=243|
8=FIX.4.4|9=0192|35=R|34=3|49=EXC|56=007|52=20190607-13:44:52.353|131=20190607-000000000005.00|146=1|55=TFIT15260826|762=RFQF|48=20348|22=M|54=1|38=1500000000|453=2|448=001B27|447=C|452=12|448=001|447=C|452=1|10=245|
8=FIX.4.4|9=110|35=A|34=1|49=007|50=007B26|52=20190607-14:07:59.722|56=EXC|43=Y|98=0|108=30|141=Y|553=007FCE001|554=007FCE001|10=095|
8=FIX.4.4|9=0067|35=A|34=1|49=EXC|56=007|52=20190607-14:07:59.437|98=0|108=30|141=Y|10=024|
8=FIX.4.4|9=0192|35=R|34=2|49=EXC|56=007|52=20190607-14:08:01.717|131=20190607-000000000007.00|146=1|55=TFIT15260826|762=RFQF|48=20348|22=M|54=1|38=1500000000|453=2|448=001B27|447=C|452=12|448=001|447=C|452=1|10=245|
8=FIX.4.4|9=0192|35=R|34=3|49=EXC|56=007|52=20190607-14:08:02.586|131=20190607-000000000008.00|146=1|55=TFIT15260826|762=RFQF|48=20348|22=M|54=1|38=1500000000|453=2|448=001B27|447=C|452=12|448=001|447=C|452=1|10=252|
8=FIX.4.4|9=59|35=0|34=2|49=007|50=007B26|52=20190607-14:08:30.623|56=EXC|10=058|
8=FIX.4.4|9=0049|35=0|34=4|49=EXC|56=007|52=20190607-14:08:32.000|10=174|
8=FIX.4.4|9=68|35=2|34=3|49=007|50=007B26|52=20190607-14:08:32.325|56=EXC|7=3|16=0|10=187|
8=FIX.4.4|9=0223|35=R|34=3|43=Y|52=20190607-14:08:32.019|49=EXC|56=007|122=20190607-14:08:02.586|131=20190607-000000000008.00|146=1|55=TFIT15260826|762=RFQF|48=20348|22=M|54=1|38=1500000000|453=2|448=001B27|447=C|452=12|448=001|447=C|452=1|10=252|
8=FIX.4.4|9=0065|35=4|34=4|43=Y|49=EXC|56=007|52=20190607-14:08:32.019|123=Y|36=5|10=193|
8=FIX.4.4|9=0054|35=4|34=5|49=EXC|56=007|52=20190607-14:08:32.019|36=6|10=150|
8=FIX.4.4|9=68|35=2|34=4|49=007|50=007B26|52=20190607-14:08:32.361|56=EXC|7=3|16=0|10=188|
8=FIX.4.4|9=0223|35=R|34=3|43=Y|52=20190607-14:08:32.058|49=EXC|56=007|122=20190607-14:08:02.586|131=20190607-000000000008.00|146=1|55=TFIT15260826|762=RFQF|48=20348|22=M|54=1|38=1500000000|453=2|448=001B27|447=C|452=12|448=001|447=C|452=1|10=255|
8=FIX.4.4|9=0065|35=4|34=4|43=Y|49=EXC|56=007|52=20190607-14:08:32.058|123=Y|36=6|10=197|
8=FIX.4.4|9=0054|35=4|34=6|49=EXC|56=007|52=20190607-14:08:32.058|36=7|10=155|
8=FIX.4.4|9=0049|35=0|34=7|49=EXC|56=007|52=20190607-14:09:02.000|10=175|
8=FIX.4.4|9=59|35=0|34=5|49=007|50=007B26|52=20190607-14:09:02.588|56=EXC|10=071|
8=FIX.4.4|9=0049|35=0|34=8|49=EXC|56=007|52=20190607-14:09:32.000|10=179|
8=FIX.4.4|9=59|35=0|34=6|49=007|50=007B26|52=20190607-14:09:33.553|56=EXC|10=068|
8=FIX.4.4|9=0049|35=0|34=9|49=EXC|56=007|52=20190607-14:10:02.000|10=169|
8=FIX.4.4|9=59|35=0|34=7|49=007|50=007B26|52=20190607-14:10:04.521|56=EXC|10=054|
8=FIX.4.4|9=110|35=A|34=1|49=007|50=007B26|52=20190607-14:10:41.222|56=EXC|43=Y|98=0|108=30|141=Y|553=007FCE001|554=007FCE001|10=075|
8=FIX.4.4|9=0067|35=A|34=1|49=EXC|56=007|52=20190607-14:10:41.091|98=0|108=30|141=Y|10=005|
8=FIX.4.4|9=0192|35=R|34=2|49=EXC|56=007|52=20190607-14:10:43.320|131=20190607-000000000009.00|146=1|55=TFIT15260826|762=RFQF|48=20348|22=M|54=1|38=1500000000|453=2|448=001B27|447=C|452=12|448=001|447=C|452=1|10=236|
8=FIX.4.4|9=0192|35=R|34=3|49=EXC|56=007|52=20190607-14:10:44.022|131=20190607-000000000010.00|146=1|55=TFIT15260826|762=RFQF|48=20348|22=M|54=1|38=1500000000|453=2|448=001B27|447=C|452=12|448=001|447=C|452=1|10=229|
8=FIX.4.4|9=59|35=0|34=2|49=007|50=007B26|52=20190607-14:11:12.133|56=EXC|10=048|
8=FIX.4.4|9=0049|35=0|34=4|49=EXC|56=007|52=20190607-14:11:14.000|10=168|
8=FIX.4.4|9=68|35=2|34=3|49=007|50=007B26|52=20190607-14:11:14.149|56=EXC|7=3|16=0|10=185|
8=FIX.4.4|9=0223|35=R|34=3|43=Y|52=20190607-14:11:14.018|49=EXC|56=007|122=20190607-14:10:44.022|131=20190607-000000000010.00|146=1|55=TFIT15260826|762=RFQF|48=20348|22=M|54=1|38=1500000000|453=2|448=001B27|447=C|452=12|448=001|447=C|452=1|10=222|
8=FIX.4.4|9=0065|35=4|34=4|43=Y|49=EXC|56=007|52=20190607-14:11:14.018|123=Y|36=5|10=186|
8=FIX.4.4|9=0054|35=4|34=5|49=EXC|56=007|52=20190607-14:11:14.019|36=6|10=144|
8=FIX.4.4|9=68|35=2|34=4|49=007|50=007B26|52=20190607-14:11:14.187|56=EXC|7=3|16=0|10=188|
8=FIX.4.4|9=0223|35=R|34=3|43=Y|52=20190607-14:11:14.059|49=EXC|56=007|122=20190607-14:10:44.022|131=20190607-000000000010.00|146=1|55=TFIT15260826|762=RFQF|48=20348|22=M|54=1|38=1500000000|453=2|448=001B27|447=C|452=12|448=001|447=C|452=1|10=227|
8=FIX.4.4|9=0065|35=4|34=4|43=Y|49=EXC|56=007|52=20190607-14:11:14.059|123=Y|36=6|10=192|
8=FIX.4.4|9=0054|35=4|34=6|49=EXC|56=007|52=20190607-14:11:14.059|36=7|10=150|
8=FIX.4.4|9=110|35=A|34=1|49=007|50=007B26|52=20190607-14:22:14.143|56=EXC|43=Y|98=0|108=30|141=Y|553=007FCE001|554=007FCE001|10=080|
8=FIX.4.4|9=0067|35=A|34=1|49=EXC|56=007|52=20190607-14:22:14.429|98=0|108=30|141=Y|10=013|
8=FIX.4.4|9=0049|35=0|34=2|49=EXC|56=007|52=20190607-14:22:44.000|10=171|
8=FIX.4.4|9=59|35=0|34=2|49=007|50=007B26|52=20190607-14:22:45.022|56=EXC|10=053|
8=FIX.4.4|9=110|35=A|34=1|49=007|50=007B26|52=20190607-14:23:02.421|56=EXC|43=Y|98=0|108=30|141=Y|553=007FCE001|554=007FCE001|10=077|
8=FIX.4.4|9=0067|35=A|34=1|49=EXC|56=007|52=20190607-14:23:02.710|98=0|108=30|141=Y|10=004|
8=FIX.4.4|9=110|35=A|34=1|49=007|50=007B26|52=20190607-14:23:31.591|56=EXC|43=Y|98=0|108=30|141=Y|553=007FCE001|554=007FCE001|10=087|
8=FIX.4.4|9=0067|35=A|34=1|49=EXC|56=007|52=20190607-14:23:31.876|98=0|108=30|141=Y|10=019|
8=FIX.4.4|9=0192|35=R|34=2|49=EXC|56=007|52=20190607-14:23:34.063|131=20190607-000000000016.00|146=1|55=TFIT15260826|762=RFQF|48=20348|22=M|54=1|38=1500000000|453=2|448=001B27|447=C|452=12|448=001|447=C|452=1|10=242|
8=FIX.4.4|9=59|35=0|34=2|49=007|50=007B26|52=20190607-14:24:02.514|56=EXC|10=054|
8=FIX.4.4|9=0049|35=0|34=3|49=EXC|56=007|52=20190607-14:24:04.000|10=170|
8=FIX.4.4|9=59|35=0|34=3|49=007|50=007B26|52=20190607-14:24:32.521|56=EXC|10=056|
8=FIX.4.4|9=0049|35=0|34=4|49=EXC|56=007|52=20190607-14:24:34.000|10=174|
8=FIX.4.4|9=59|35=0|34=4|49=007|50=007B26|52=20190607-14:25:02.545|56=EXC|10=061|
8=FIX.4.4|9=110|35=A|34=1|49=007|50=007B26|52=20190607-14:42:14.923|56=EXC|43=Y|98=0|108=30|141=Y|553=007FCE001|554=007FCE001|10=088|
8=FIX.4.4|9=0067|35=A|34=1|49=EXC|56=007|52=20190607-14:42:14.985|98=0|108=30|141=Y|10=022|
8=FIX.4.4|9=0192|35=R|34=2|49=EXC|56=007|52=20190607-14:42:17.288|131=20190607-000000000017.00|146=1|55=TFIT15260826|762=RFQF|48=20348|22=M|54=1|38=1500000000|453=2|448=001B27|447=C|452=12|448=001|447=C|452=1|10=254|
8=FIX.4.4|9=110|35=A|34=1|49=007|50=007B26|52=20190607-14:45:47.420|56=EXC|43=Y|98=0|108=30|141=Y|553=007FCE001|554=007FCE001|10=089|
8=FIX.4.4|9=0067|35=A|34=1|49=EXC|56=007|52=20190607-14:45:47.483|98=0|108=30|141=Y|10=024|
8=FIX.4.4|9=0192|35=R|34=2|49=EXC|56=007|52=20190607-14:45:49.663|131=20190607-000000000018.00|146=1|55=TFIT15260826|762=RFQF|48=20348|22=M|54=1|38=1500000000|453=2|448=001B27|447=C|452=12|448=001|447=C|452=1|10=004|
8=FIX.4.4|9=59|35=0|34=2|49=007|50=007B26|52=20190607-14:46:18.338|56=EXC|10=069|
8=FIX.4.4|9=0049|35=0|34=3|49=EXC|56=007|52=20190607-14:46:19.000|10=180|
8=FIX.4.4|9=59|35=0|34=3|49=007|50=007B26|52=20190607-14:46:48.339|56=EXC|10=074|
8=FIX.4.4|9=0049|35=0|34=4|49=EXC|56=007|52=20190607-14:46:49.000|10=184|
8=FIX.4.4|9=110|35=A|34=1|49=007|50=007B26|52=20190607-14:51:26.041|56=EXC|43=Y|98=0|108=30|141=Y|553=007FCE001|554=007FCE001|10=082|
8=FIX.4.4|9=0067|35=A|34=1|49=EXC|56=007|52=20190607-14:51:26.101|98=0|108=30|141=Y|10=005|
8=FIX.4.4|9=110|35=A|34=1|49=007|50=007B26|52=20190607-14:54:09.995|56=EXC|43=Y|98=0|108=30|141=Y|553=007FCE001|554=007FCE001|10=104|
8=FIX.4.4|9=0067|35=A|34=1|49=EXC|56=007|52=20190607-14:54:10.055|98=0|108=30|141=Y|10=009|
8=FIX.4.4|9=0192|35=R|34=2|49=EXC|56=007|52=20190607-14:54:12.262|131=20190607-000000000020.00|146=1|55=TFIT15260826|762=RFQF|48=20348|22=M|54=1|38=1500000000|453=2|448=001B27|447=C|452=12|448=001|447=C|452=1|10=238|
8=FIX.4.4|9=110|35=A|34=1|49=007|50=007B26|52=20190607-14:55:37.589|56=EXC|43=Y|98=0|108=30|141=Y|553=007FCE001|554=007FCE001|10=105|
8=FIX.4.4|9=0067|35=A|34=1|49=EXC|56=007|52=20190607-14:55:37.653|98=0|108=30|141=Y|10=023|
8=FIX.4.4|9=0049|35=0|34=2|49=EXC|56=007|52=20190607-14:56:07.000|10=177|
8=FIX.4.4|9=59|35=0|34=2|49=007|50=007B26|52=20190607-14:56:08.551|56=EXC|10=066|
8=FIX.4.4|9=110|35=A|34=1|49=007|50=007B26|52=20190607-14:57:52.597|56=EXC|43=Y|98=0|108=30|141=Y|553=007FCE001|554=007FCE001|10=103|
8=FIX.4.4|9=0067|35=A|34=1|49=EXC|56=007|52=20190607-14:57:52.656|98=0|108=30|141=Y|10=025|
8=FIX.4.4|9=0192|35=R|34=2|49=EXC|56=007|52=20190607-14:57:54.873|131=20190607-000000000022.00|146=1|55=TFIT15260826|762=RFQF|48=20348|22=M|54=1|38=1500000000|453=2|448=001B27|447=C|452=12|448=001|447=C|452=1|10=001|
8=FIX.4.4|9=59|35=0|34=2|49=007|50=007B26|52=20190607-14:58:23.543|56=EXC|10=066|
8=FIX.4.4|9=0049|35=0|34=3|49=EXC|56=007|52=20190607-14:58:24.000|10=179|
8=FIX.4.4|9=59|35=0|34=3|49=007|50=007B26|52=20190607-14:58:53.545|56=EXC|10=072|
8=FIX.4.4|9=0049|35=0|34=4|49=EXC|56=007|52=20190607-14:58:54.000|10=183|
8=FIX.4.4|9=59|35=0|34=4|49=007|50=007B26|52=20190607-14:59:23.544|56=EXC|10=070|
8=FIX.4.4|9=0049|35=0|34=5|49=EXC|56=007|52=20190607-14:59:24.000|10=182|
8=FIX.4.4|9=59|35=0|34=5|49=007|50=007B26|52=20190607-14:59:53.543|56=EXC|10=073|
8=FIX.4.4|9=0049|35=0|34=6|49=EXC|56=007|52=20190607-14:59:54.000|10=186|
8=FIX.4.4|9=59|35=0|34=6|49=007|50=007B26|52=20190607-15:00:23.543|56=EXC|10=058|
8=FIX.4.4|9=0049|35=0|34=7|49=EXC|56=007|52=20190607-15:00:24.000|10=171|
8=FIX.4.4|9=59|35=0|34=7|49=007|50=007B26|52=20190607-15:00:53.544|56=EXC|10=063|
8=FIX.4.4|9=0049|35=0|34=8|49=EXC|56=007|52=20190607-15:00:54.000|10=175|
8=FIX.4.4|9=59|35=0|34=8|49=007|50=007B26|52=20190607-15:01:23.544|56=EXC|10=062|
8=FIX.4.4|9=0049|35=0|34=9|49=EXC|56=007|52=20190607-15:01:24.000|10=174|
8=FIX.4.4|9=59|35=0|34=9|49=007|50=007B26|52=20190607-15:01:53.544|56=EXC|10=066|
8=FIX.4.4|9=0050|35=0|34=10|49=EXC|56=007|52=20190607-15:01:54.000|10=209|
8=FIX.4.4|9=60|35=0|34=10|49=007|50=007B26|52=20190607-15:02:23.542|56=EXC|10=094|
8=FIX.4.4|9=0050|35=0|34=11|49=EXC|56=007|52=20190607-15:02:24.000|10=208|
8=FIX.4.4|9=60|35=0|34=11|49=007|50=007B26|52=20190607-15:02:53.543|56=EXC|10=099|
8=FIX.4.4|9=0050|35=0|34=12|49=EXC|56=007|52=20190607-15:02:54.000|10=212|
8=FIX.4.4|9=60|35=0|34=12|49=007|50=007B26|52=20190607-15:03:23.545|56=EXC|10=100|
8=FIX.4.4|9=0050|35=0|34=13|49=EXC|56=007|52=20190607-15:03:24.000|10=211|
8=FIX.4.4|9=60|35=0|34=13|49=007|50=007B26|52=20190607-15:03:53.545|56=EXC|10=104|
8=FIX.4.4|9=0050|35=0|34=14|49=EXC|56=007|52=20190607-15:03:54.000|10=215|
>>>>>>> 069492ed1c47821f77e483ed6a9d34242fbb67bb
8=FIX.4.4|9=110|35=A|34=1|49=007|50=007B26|52=20190607-19:00:29.581|56=EXC|43=Y|98=0|108=30|141=Y|553=007FCE001|554=007FCE001|10=093|
8=FIX.4.4|9=0067|35=A|34=1|49=EXC|56=007|52=20190607-19:00:29.609|98=0|108=30|141=Y|10=020|
8=FIX.4.4|9=0049|35=0|34=2|49=EXC|56=007|52=20190607-19:00:59.000|10=178|
8=FIX.4.4|9=59|35=0|34=2|49=007|50=007B26|52=20190607-19:01:00.486|56=EXC|10=060|
8=FIX.4.4|9=0049|35=0|34=3|49=EXC|56=007|52=20190607-19:01:29.000|10=177|
8=FIX.4.4|9=59|35=0|34=3|49=007|50=007B26|52=20190607-19:01:31.476|56=EXC|10=064|
8=FIX.4.4|9=110|35=A|34=1|49=007|50=007B26|52=20190607-19:04:04.055|56=EXC|43=Y|98=0|108=30|141=Y|553=007FCE001|554=007FCE001|10=086|
8=FIX.4.4|9=0067|35=A|34=1|49=EXC|56=007|52=20190607-19:04:04.129|98=0|108=30|141=Y|10=014|
8=FIX.4.4|9=154|35=R|34=2|49=007|50=007B26|52=20190607-19:04:06.242|56=EXC|131=59491970|146=1|55=TFIT15260826|22=M|762=RFQF|54=1|38=1500000000|453=1|448=DCV|447=C|452=10|10=017|
8=FIX.4.4|9=0236|35=AI|34=2|49=EXC|56=007|57=007B26|52=20190607-19:04:06.230|131=59491970|453=4|448=DCV|447=C|452=10|448=007B26|447=C|452=12|448=007|447=C|452=1|448=007FCE001|447=C|452=36|55=TFIT15260826|762=RFQF|48=20348|22=M|54=1|38=1500000000|297=10|10=179|
8=FIX.4.4|9=0192|35=R|34=3|49=EXC|56=007|52=20190607-19:04:06.230|131=20190607-000000000040.00|146=1|55=TFIT15260826|762=RFQF|48=20348|22=M|54=1|38=1500000000|453=2|448=007B26|447=C|452=12|448=007|447=C|452=1|10=250|
8=FIX.4.4|9=0049|35=0|34=4|49=EXC|56=007|52=20190607-19:04:36.000|10=179|
8=FIX.4.4|9=59|35=0|34=3|49=007|50=007B26|52=20190607-19:04:36.896|56=EXC|10=078|
8=FIX.4.4|9=110|35=A|34=1|49=007|50=007B26|52=20190607-19:05:53.374|56=EXC|43=Y|98=0|108=30|141=Y|553=007FCE001|554=007FCE001|10=095|
8=FIX.4.4|9=0067|35=A|34=1|49=EXC|56=007|52=20190607-19:05:53.484|98=0|108=30|141=Y|10=023|
8=FIX.4.4|9=154|35=R|34=2|49=007|50=007B26|52=20190607-19:05:55.568|56=EXC|131=70154506|146=1|55=TFIT15260826|22=M|762=RFQF|54=1|38=1500000000|453=1|448=DCV|447=C|452=10|10=017|
8=FIX.4.4|9=0236|35=AI|34=2|49=EXC|56=007|57=007B26|52=20190607-19:05:55.555|131=70154506|453=4|448=DCV|447=C|452=10|448=007B26|447=C|452=12|448=007|447=C|452=1|448=007FCE001|447=C|452=36|55=TFIT15260826|762=RFQF|48=20348|22=M|54=1|38=1500000000|297=10|10=178|
8=FIX.4.4|9=0192|35=R|34=3|49=EXC|56=007|52=20190607-19:05:55.555|131=20190607-000000000041.00|146=1|55=TFIT15260826|762=RFQF|48=20348|22=M|54=1|38=1500000000|453=2|448=007B26|447=C|452=12|448=007|447=C|452=1|10=010|
8=FIX.4.4|9=110|35=A|34=1|49=007|50=007B26|52=20190607-19:13:31.717|56=EXC|43=Y|98=0|108=30|141=Y|553=007FCE001|554=007FCE001|10=091|
8=FIX.4.4|9=0067|35=A|34=1|49=EXC|56=007|52=20190607-19:13:31.835|98=0|108=30|141=Y|10=018|
8=FIX.4.4|9=154|35=R|34=2|49=007|50=007B26|52=20190607-19:13:34.155|56=EXC|131=34146870|146=1|55=TFIT15260826|22=M|762=RFQF|54=1|38=1500000000|453=1|448=DCV|447=C|452=10|10=010|
8=FIX.4.4|9=0236|35=AI|34=2|49=EXC|56=007|57=007B26|52=20190607-19:13:34.145|131=34146870|453=4|448=DCV|447=C|452=10|448=007B26|447=C|452=12|448=007|447=C|452=1|448=007FCE001|447=C|452=36|55=TFIT15260826|762=RFQF|48=20348|22=M|54=1|38=1500000000|297=10|10=174|
8=FIX.4.4|9=0192|35=R|34=3|49=EXC|56=007|52=20190607-19:13:34.145|131=20190607-000000000042.00|146=1|55=TFIT15260826|762=RFQF|48=20348|22=M|54=1|38=1500000000|453=2|448=007B26|447=C|452=12|448=007|447=C|452=1|10=002|
8=FIX.4.4|9=110|35=A|34=1|49=007|50=007B26|52=20190607-19:21:05.814|56=EXC|43=Y|98=0|108=30|141=Y|553=007FCE001|554=007FCE001|10=089|
8=FIX.4.4|9=0067|35=A|34=1|49=EXC|56=007|52=20190607-19:21:05.891|98=0|108=30|141=Y|10=020|
8=FIX.4.4|9=154|35=R|34=2|49=007|50=007B26|52=20190607-19:21:08.276|56=EXC|131=14464062|146=1|55=TFIT15260826|22=M|762=RFQF|54=1|38=1500000000|453=1|448=DCV|447=C|452=10|10=008|
8=FIX.4.4|9=0236|35=AI|34=2|49=EXC|56=007|57=007B26|52=20190607-19:21:08.256|131=14464062|453=4|448=DCV|447=C|452=10|448=007B26|447=C|452=12|448=007|447=C|452=1|448=007FCE001|447=C|452=36|55=TFIT15260826|762=RFQF|48=20348|22=M|54=1|38=1500000000|297=10|10=171|
8=FIX.4.4|9=0192|35=R|34=3|49=EXC|56=007|52=20190607-19:21:08.256|131=20190607-000000000043.00|146=1|55=TFIT15260826|762=RFQF|48=20348|22=M|54=1|38=1500000000|453=2|448=007B26|447=C|452=12|448=007|447=C|452=1|10=006|
8=FIX.4.4|9=110|35=A|34=1|49=007|50=007B26|52=20190607-19:21:31.076|56=EXC|43=Y|98=0|108=30|141=Y|553=007FCE001|554=007FCE001|10=088|
8=FIX.4.4|9=0067|35=A|34=1|49=EXC|56=007|52=20190607-19:21:31.144|98=0|108=30|141=Y|10=010|
8=FIX.4.4|9=154|35=R|34=2|49=007|50=007B26|52=20190607-19:21:32.106|56=EXC|131=70859808|146=1|55=TFIT15260826|22=M|762=RFQF|54=1|38=1500000000|453=1|448=DCV|447=C|452=10|10=015|
8=FIX.4.4|9=0236|35=AI|34=2|49=EXC|56=007|57=007B26|52=20190607-19:21:32.086|131=70859808|453=4|448=DCV|447=C|452=10|448=007B26|447=C|452=12|448=007|447=C|452=1|448=007FCE001|447=C|452=36|55=TFIT15260826|762=RFQF|48=20348|22=M|54=1|38=1500000000|297=10|10=187|
8=FIX.4.4|9=0192|35=R|34=3|49=EXC|56=007|52=20190607-19:21:32.086|131=20190607-000000000044.00|146=1|55=TFIT15260826|762=RFQF|48=20348|22=M|54=1|38=1500000000|453=2|448=007B26|447=C|452=12|448=007|447=C|452=1|10=005|
8=FIX.4.4|9=110|35=A|34=1|49=007|50=007B26|52=20190607-19:27:53.610|56=EXC|43=Y|98=0|108=30|141=Y|553=007FCE001|554=007FCE001|10=092|
8=FIX.4.4|9=0067|35=A|34=1|49=EXC|56=007|52=20190607-19:27:53.730|98=0|108=30|141=Y|10=021|
8=FIX.4.4|9=154|35=R|34=2|49=007|50=007B26|52=20190607-19:27:55.398|56=EXC|131=39240960|146=1|55=TFIT15260826|22=M|762=RFQF|54=1|38=1500000000|453=1|448=DCV|447=C|452=10|10=027|
8=FIX.4.4|9=0236|35=AI|34=2|49=EXC|56=007|57=007B26|52=20190607-19:27:55.378|131=39240960|453=4|448=DCV|447=C|452=10|448=007B26|447=C|452=12|448=007|447=C|452=1|448=007FCE001|447=C|452=36|55=TFIT15260826|762=RFQF|48=20348|22=M|54=1|38=1500000000|297=10|10=190|
8=FIX.4.4|9=0192|35=R|34=3|49=EXC|56=007|52=20190607-19:27:55.378|131=20190607-000000000047.00|146=1|55=TFIT15260826|762=RFQF|48=20348|22=M|54=1|38=1500000000|453=2|448=007B26|447=C|452=12|448=007|447=C|452=1|10=023|
8=FIX.4.4|9=110|35=A|34=1|49=007|50=007B26|52=20190607-19:28:55.441|56=EXC|43=Y|98=0|108=30|141=Y|553=007FCE001|554=007FCE001|10=097|
8=FIX.4.4|9=0067|35=A|34=1|49=EXC|56=007|52=20190607-19:28:55.616|98=0|108=30|141=Y|10=027|
8=FIX.4.4|9=154|35=R|34=2|49=007|50=007B26|52=20190607-19:28:58.261|56=EXC|131=58030575|146=1|55=TFIT15260826|22=M|762=RFQF|54=1|38=1500000000|453=1|448=DCV|447=C|452=10|10=020|
8=FIX.4.4|9=0236|35=AI|34=2|49=EXC|56=007|57=007B26|52=20190607-19:28:58.241|131=58030575|453=4|448=DCV|447=C|452=10|448=007B26|447=C|452=12|448=007|447=C|452=1|448=007FCE001|447=C|452=36|55=TFIT15260826|762=RFQF|48=20348|22=M|54=1|38=1500000000|297=10|10=183|
8=FIX.4.4|9=0192|35=R|34=3|49=EXC|56=007|52=20190607-19:28:58.241|131=20190607-000000000048.00|146=1|55=TFIT15260826|762=RFQF|48=20348|22=M|54=1|38=1500000000|453=2|448=007B26|447=C|452=12|448=007|447=C|452=1|10=017|
8=FIX.4.4|9=110|35=A|34=1|49=007|50=007B26|52=20190607-19:29:59.838|56=EXC|43=Y|98=0|108=30|141=Y|553=007FCE001|554=007FCE001|10=112|
8=FIX.4.4|9=0067|35=A|34=1|49=EXC|56=007|52=20190607-19:29:59.892|98=0|108=30|141=Y|10=038|
8=FIX.4.4|9=154|35=R|34=2|49=007|50=007B26|52=20190607-19:30:02.034|56=EXC|131=71141225|146=1|55=TFIT15260826|22=M|762=RFQF|54=1|38=1500000000|453=1|448=DCV|447=C|452=10|10=246|
8=FIX.4.4|9=0236|35=AI|34=2|49=EXC|56=007|57=007B26|52=20190607-19:30:02.019|131=71141225|453=4|448=DCV|447=C|452=10|448=007B26|447=C|452=12|448=007|447=C|452=1|448=007FCE001|447=C|452=36|55=TFIT15260826|762=RFQF|48=20348|22=M|54=1|38=1500000000|297=10|10=158|
8=FIX.4.4|9=0192|35=R|34=3|49=EXC|56=007|52=20190607-19:30:02.019|131=20190607-000000000049.00|146=1|55=TFIT15260826|762=RFQF|48=20348|22=M|54=1|38=1500000000|453=2|448=007B26|447=C|452=12|448=007|447=C|452=1|10=003|
8=FIX.4.4|9=59|35=0|34=3|49=007|50=007B26|52=20190607-19:30:32.552|56=EXC|10=062|
8=FIX.4.4|9=0049|35=0|34=4|49=EXC|56=007|52=20190607-19:30:32.000|10=174|
8=FIX.4.4|9=68|35=1|34=4|49=007|50=007B26|52=20190607-19:30:47.559|56=EXC|112=TEST|10=095|
8=FIX.4.4|9=0058|35=0|34=5|49=EXC|56=007|52=20190607-19:30:47.536|112=TEST|10=213|
8=FIX.4.4|9=110|35=A|34=1|49=007|50=007B26|52=20190607-19:33:18.600|56=EXC|43=Y|98=0|108=30|141=Y|553=007FCE001|554=007FCE001|10=089|
8=FIX.4.4|9=0067|35=A|34=1|49=EXC|56=007|52=20190607-19:33:18.763|98=0|108=30|141=Y|10=025|
8=FIX.4.4|9=153|35=R|34=2|49=007|50=007B26|52=20190607-19:33:21.732|56=EXC|131=5160983|146=1|55=TFIT15260826|22=M|762=RFQF|54=1|38=1500000000|453=1|448=DCV|447=C|452=10|10=215|
8=FIX.4.4|9=0235|35=AI|34=2|49=EXC|56=007|57=007B26|52=20190607-19:33:21.739|131=5160983|453=4|448=DCV|447=C|452=10|448=007B26|447=C|452=12|448=007|447=C|452=1|448=007FCE001|447=C|452=36|55=TFIT15260826|762=RFQF|48=20348|22=M|54=1|38=1500000000|297=10|10=131|
8=FIX.4.4|9=0192|35=R|34=3|49=EXC|56=007|52=20190607-19:33:21.739|131=20190607-000000000050.00|146=1|55=TFIT15260826|762=RFQF|48=20348|22=M|54=1|38=1500000000|453=2|448=007B26|447=C|452=12|448=007|447=C|452=1|10=008|
8=FIX.4.4|9=0049|35=0|34=4|49=EXC|56=007|52=20190607-19:33:51.000|10=178|
8=FIX.4.4|9=59|35=0|34=3|49=007|50=007B26|52=20190607-19:33:52.167|56=EXC|10=069|
8=FIX.4.4|9=110|35=A|34=1|49=007|50=007B26|52=20190607-19:44:05.898|56=EXC|43=Y|98=0|108=30|141=Y|553=007FCE001|554=007FCE001|10=106|
8=FIX.4.4|9=0067|35=A|34=1|49=EXC|56=007|52=20190607-19:44:06.053|98=0|108=30|141=Y|10=016|
8=FIX.4.4|9=154|35=R|34=2|49=007|50=007B26|52=20190607-19:44:08.067|56=EXC|131=59954356|146=1|55=TFIT15260826|22=M|762=RFQF|54=1|38=1500000000|453=1|448=DCV|447=C|452=10|10=030|
8=FIX.4.4|9=0236|35=AI|34=2|49=EXC|56=007|57=007B26|52=20190607-19:44:08.040|131=59954356|453=4|448=DCV|447=C|452=10|448=007B26|447=C|452=12|448=007|447=C|452=1|448=007FCE001|447=C|452=36|55=TFIT15260826|762=RFQF|48=20348|22=M|54=1|38=1500000000|297=10|10=186|
8=FIX.4.4|9=0192|35=R|34=3|49=EXC|56=007|52=20190607-19:44:08.040|131=20190607-000000000052.00|146=1|55=TFIT15260826|762=RFQF|48=20348|22=M|54=1|38=1500000000|453=2|448=007B26|447=C|452=12|448=007|447=C|452=1|10=002|
8=FIX.4.4|9=110|35=A|34=1|49=007|50=007B26|52=20190607-19:45:08.146|56=EXC|43=Y|98=0|108=30|141=Y|553=007FCE001|554=007FCE001|10=096|
8=FIX.4.4|9=0067|35=A|34=1|49=EXC|56=007|52=20190607-19:45:08.185|98=0|108=30|141=Y|10=025|
8=FIX.4.4|9=154|35=R|34=2|49=007|50=007B26|52=20190607-19:45:10.465|56=EXC|131=54040615|146=1|55=TFIT15260826|22=M|762=RFQF|54=1|38=1500000000|453=1|448=DCV|447=C|452=10|10=005|
8=FIX.4.4|9=0236|35=AI|34=2|49=EXC|56=007|57=007B26|52=20190607-19:45:10.437|131=54040615|453=4|448=DCV|447=C|452=10|448=007B26|447=C|452=12|448=007|447=C|452=1|448=007FCE001|447=C|452=36|55=TFIT15260826|762=RFQF|48=20348|22=M|54=1|38=1500000000|297=10|10=169|
8=FIX.4.4|9=0192|35=R|34=3|49=EXC|56=007|52=20190607-19:45:10.437|131=20190607-000000000054.00|146=1|55=TFIT15260826|762=RFQF|48=20348|22=M|54=1|38=1500000000|453=2|448=007B26|447=C|452=12|448=007|447=C|452=1|10=008|
8=FIX.4.4|9=110|35=A|34=1|49=007|50=007B26|52=20190607-19:54:07.083|56=EXC|43=Y|98=0|108=30|141=Y|553=007FCE001|554=007FCE001|10=095|
8=FIX.4.4|9=0067|35=A|34=1|49=EXC|56=007|52=20190607-19:54:07.079|98=0|108=30|141=Y|10=026|
8=FIX.4.4|9=153|35=R|34=2|49=007|50=007B26|52=20190607-19:54:09.229|56=EXC|131=7458880|146=1|55=TFIT15260826|22=M|762=RFQF|54=1|38=1500000000|453=1|448=DCV|447=C|452=10|10=233|
8=FIX.4.4|9=0235|35=AI|34=2|49=EXC|56=007|57=007B26|52=20190607-19:54:09.196|131=7458880|453=4|448=DCV|447=C|452=10|448=007B26|447=C|452=12|448=007|447=C|452=1|448=007FCE001|447=C|452=36|55=TFIT15260826|762=RFQF|48=20348|22=M|54=1|38=1500000000|297=10|10=145|
8=FIX.4.4|9=0192|35=R|34=3|49=EXC|56=007|52=20190607-19:54:09.196|131=20190607-000000000056.00|146=1|55=TFIT15260826|762=RFQF|48=20348|22=M|54=1|38=1500000000|453=2|448=007B26|447=C|452=12|448=007|447=C|452=1|10=020|
8=FIX.4.4|9=110|35=A|34=1|49=007|50=007B26|52=20190607-20:00:37.040|56=EXC|43=Y|98=0|108=30|141=Y|553=007FCE001|554=007FCE001|10=074|
8=FIX.4.4|9=0067|35=A|34=1|49=EXC|56=007|52=20190607-20:00:37.078|98=0|108=30|141=Y|10=011|
8=FIX.4.4|9=154|35=R|34=2|49=007|50=007B26|52=20190607-20:00:39.179|56=EXC|131=57102903|146=1|55=TFIT15260826|22=M|762=RFQF|54=1|38=1500000000|453=1|448=DCV|447=C|452=10|10=003|
8=FIX.4.4|9=0236|35=AI|34=2|49=EXC|56=007|57=007B26|52=20190607-20:00:39.139|131=57102903|453=4|448=DCV|447=C|452=10|448=007B26|447=C|452=12|448=007|447=C|452=1|448=007FCE001|447=C|452=36|55=TFIT15260826|762=RFQF|48=20348|22=M|54=1|38=1500000000|297=10|10=164|
8=FIX.4.4|9=0192|35=R|34=3|49=EXC|56=007|52=20190607-20:00:39.139|131=20190607-000000000058.00|146=1|55=TFIT15260826|762=RFQF|48=20348|22=M|54=1|38=1500000000|453=2|448=007B26|447=C|452=12|448=007|447=C|452=1|10=005|
8=FIX.4.4|9=0049|35=0|34=4|49=EXC|56=007|52=20190607-20:01:09.000|10=168|
8=FIX.4.4|9=68|35=2|34=3|49=007|50=007B26|52=20190607-20:01:09.063|56=EXC|7=3|16=0|10=180|
8=FIX.4.4|9=0223|35=R|34=3|43=Y|52=20190607-20:01:09.025|49=EXC|56=007|122=20190607-20:00:39.139|131=20190607-000000000058.00|146=1|55=TFIT15260826|762=RFQF|48=20348|22=M|54=1|38=1500000000|453=2|448=007B26|447=C|452=12|448=007|447=C|452=1|10=252|
8=FIX.4.4|9=0065|35=4|34=4|43=Y|49=EXC|56=007|52=20190607-20:01:09.025|123=Y|36=5|10=184|
8=FIX.4.4|9=0054|35=4|34=5|49=EXC|56=007|52=20190607-20:01:09.025|36=6|10=141|
8=FIX.4.4|9=68|35=2|34=4|49=007|50=007B26|52=20190607-20:01:14.179|56=EXC|7=3|16=0|10=185|
8=FIX.4.4|9=0223|35=R|34=3|43=Y|52=20190607-20:01:14.139|49=EXC|56=007|122=20190607-20:00:39.139|131=20190607-000000000058.00|146=1|55=TFIT15260826|762=RFQF|48=20348|22=M|54=1|38=1500000000|453=2|448=007B26|447=C|452=12|448=007|447=C|452=1|10=254|
8=FIX.4.4|9=0065|35=4|34=4|43=Y|49=EXC|56=007|52=20190607-20:01:14.139|123=Y|36=6|10=187|
8=FIX.4.4|9=0054|35=4|34=6|49=EXC|56=007|52=20190607-20:01:14.140|36=7|10=137|
8=FIX.4.4|9=110|35=A|34=1|49=007|50=007B26|52=20190607-20:04:04.548|56=EXC|43=Y|98=0|108=30|141=Y|553=007FCE001|554=007FCE001|10=085|
8=FIX.4.4|9=0067|35=A|34=1|49=EXC|56=007|52=20190607-20:04:04.696|98=0|108=30|141=Y|10=015|
8=FIX.4.4|9=154|35=R|34=2|49=007|50=007B26|52=20190607-20:04:06.724|56=EXC|131=79342661|146=1|55=TFIT15260826|22=M|762=RFQF|54=1|38=1500000000|453=1|448=DCV|447=C|452=10|10=008|
8=FIX.4.4|9=0236|35=AI|34=2|49=EXC|56=007|57=007B26|52=20190607-20:04:06.698|131=79342661|453=4|448=DCV|447=C|452=10|448=007B26|447=C|452=12|448=007|447=C|452=1|448=007FCE001|447=C|452=36|55=TFIT15260826|762=RFQF|48=20348|22=M|54=1|38=1500000000|297=10|10=183|
8=FIX.4.4|9=0192|35=R|34=3|49=EXC|56=007|52=20190607-20:04:06.698|131=20190607-000000000060.00|146=1|55=TFIT15260826|762=RFQF|48=20348|22=M|54=1|38=1500000000|453=2|448=007B26|447=C|452=12|448=007|447=C|452=1|10=006|
8=FIX.4.4|9=0049|35=0|34=4|49=EXC|56=007|52=20190607-20:04:36.000|10=171|
8=FIX.4.4|9=68|35=2|34=3|49=007|50=007B26|52=20190607-20:04:36.132|56=EXC|7=3|16=0|10=180|
8=FIX.4.4|9=0223|35=R|34=3|43=Y|52=20190607-20:04:36.097|49=EXC|56=007|122=20190607-20:04:06.698|131=20190607-000000000060.00|146=1|55=TFIT15260826|762=RFQF|48=20348|22=M|54=1|38=1500000000|453=2|448=007B26|447=C|452=12|448=007|447=C|452=1|10=009|
8=FIX.4.4|9=0065|35=4|34=4|43=Y|49=EXC|56=007|52=20190607-20:04:36.097|123=Y|36=5|10=196|
8=FIX.4.4|9=0054|35=4|34=5|49=EXC|56=007|52=20190607-20:04:36.097|36=6|10=153|
8=FIX.4.4|9=68|35=2|34=4|49=007|50=007B26|52=20190607-20:04:41.308|56=EXC|7=3|16=0|10=182|
8=FIX.4.4|9=0223|35=R|34=3|43=Y|52=20190607-20:04:41.274|49=EXC|56=007|122=20190607-20:04:06.698|131=20190607-000000000060.00|146=1|55=TFIT15260826|762=RFQF|48=20348|22=M|54=1|38=1500000000|453=2|448=007B26|447=C|452=12|448=007|447=C|452=1|10=002|
8=FIX.4.4|9=0065|35=4|34=4|43=Y|49=EXC|56=007|52=20190607-20:04:41.274|123=Y|36=6|10=190|
8=FIX.4.4|9=0054|35=4|34=6|49=EXC|56=007|52=20190607-20:04:41.275|36=7|10=149|
8=FIX.4.4|9=110|35=A|34=1|49=007|50=007B26|52=20190607-20:05:21.195|56=EXC|43=Y|98=0|108=30|141=Y|553=007FCE001|554=007FCE001|10=083|
8=FIX.4.4|9=0067|35=A|34=1|49=EXC|56=007|52=20190607-20:05:23.060|98=0|108=30|141=Y|10=002|
8=FIX.4.4|9=153|35=R|34=2|49=007|50=007B26|52=20190607-20:05:25.818|56=EXC|131=8409680|146=1|55=TFIT15260826|22=M|762=RFQF|54=1|38=1500000000|453=1|448=DCV|447=C|452=10|10=218|
8=FIX.4.4|9=0235|35=AI|34=2|49=EXC|56=007|57=007B26|52=20190607-20:05:25.785|131=8409680|453=4|448=DCV|447=C|452=10|448=007B26|447=C|452=12|448=007|447=C|452=1|448=007FCE001|447=C|452=36|55=TFIT15260826|762=RFQF|48=20348|22=M|54=1|38=1500000000|297=10|10=130|
8=FIX.4.4|9=0192|35=R|34=3|49=EXC|56=007|52=20190607-20:05:25.785|131=20190607-000000000061.00|146=1|55=TFIT15260826|762=RFQF|48=20348|22=M|54=1|38=1500000000|453=2|448=007B26|447=C|452=12|448=007|447=C|452=1|10=006|
8=FIX.4.4|9=110|35=A|34=1|49=007|50=007B26|52=20190607-20:41:07.975|56=EXC|43=Y|98=0|108=30|141=Y|553=007FCE001|554=007FCE001|10=093|
8=FIX.4.4|9=0067|35=A|34=1|49=EXC|56=007|52=20190607-20:41:07.912|98=0|108=30|141=Y|10=010|
8=FIX.4.4|9=110|35=A|34=1|49=007|50=007B26|52=20190607-20:42:22.655|56=EXC|43=Y|98=0|108=30|141=Y|553=007FCE001|554=007FCE001|10=086|
8=FIX.4.4|9=0067|35=A|34=1|49=EXC|56=007|52=20190607-20:42:22.582|98=0|108=30|141=Y|10=011|
8=FIX.4.4|9=110|35=A|34=1|49=007|50=007B26|52=20190607-20:42:52.265|56=EXC|43=Y|98=0|108=30|141=Y|553=007FCE001|554=007FCE001|10=086|
8=FIX.4.4|9=0067|35=A|34=1|49=EXC|56=007|52=20190607-20:42:52.201|98=0|108=30|141=Y|10=002|
8=FIX.4.4|9=154|35=R|34=2|49=007|50=007B26|52=20190607-20:42:54.612|56=EXC|131=64306349|146=1|55=TFIT15260826|22=M|762=RFQF|54=1|38=1500000000|453=1|448=DCV|447=C|452=10|10=006|
8=FIX.4.4|9=0236|35=AI|34=2|49=EXC|56=007|57=007B26|52=20190607-20:42:54.506|131=64306349|453=4|448=DCV|447=C|452=10|448=007B26|447=C|452=12|448=007|447=C|452=1|448=007FCE001|447=C|452=36|55=TFIT15260826|762=RFQF|48=20348|22=M|54=1|38=1500000000|297=10|10=173|
8=FIX.4.4|9=0192|35=R|34=3|49=EXC|56=007|52=20190607-20:42:54.506|131=20190607-000000000062.00|146=1|55=TFIT15260826|762=RFQF|48=20348|22=M|54=1|38=1500000000|453=2|448=007B26|447=C|452=12|448=007|447=C|452=1|10=001|
8=FIX.4.4|9=110|35=A|34=1|49=007|50=007B26|52=20190607-20:44:20.357|56=EXC|43=Y|98=0|108=30|141=Y|553=007FCE001|554=007FCE001|10=085|
8=FIX.4.4|9=0067|35=A|34=1|49=EXC|56=007|52=20190607-20:44:20.274|98=0|108=30|141=Y|10=009|
8=FIX.4.4|9=154|35=R|34=2|49=007|50=007B26|52=20190607-20:44:22.614|56=EXC|131=48353640|146=1|55=TFIT15260826|22=M|762=RFQF|54=1|38=1500000000|453=1|448=DCV|447=C|452=10|10=003|
8=FIX.4.4|9=0236|35=AI|34=2|49=EXC|56=007|57=007B26|52=20190607-20:44:22.503|131=48353640|453=4|448=DCV|447=C|452=10|448=007B26|447=C|452=12|448=007|447=C|452=1|448=007FCE001|447=C|452=36|55=TFIT15260826|762=RFQF|48=20348|22=M|54=1|38=1500000000|297=10|10=165|
8=FIX.4.4|9=0192|35=R|34=3|49=EXC|56=007|52=20190607-20:44:22.503|131=20190607-000000000064.00|146=1|55=TFIT15260826|762=RFQF|48=20348|22=M|54=1|38=1500000000|453=2|448=007B26|447=C|452=12|448=007|447=C|452=1|10=253|
8=FIX.4.4|9=110|35=A|34=1|49=007|50=007B26|52=20190607-20:54:11.926|56=EXC|43=Y|98=0|108=30|141=Y|553=007FCE001|554=007FCE001|10=088|
8=FIX.4.4|9=0067|35=A|34=1|49=EXC|56=007|52=20190607-20:54:11.884|98=0|108=30|141=Y|10=017|
8=FIX.4.4|9=154|35=R|34=2|49=007|50=007B26|52=20190607-20:54:14.052|56=EXC|131=32422749|146=1|55=TFIT15260826|22=M|762=RFQF|54=1|38=1500000000|453=1|448=DCV|447=C|452=10|10=001|
8=FIX.4.4|9=0236|35=AI|34=2|49=EXC|56=007|57=007B26|52=20190607-20:54:13.947|131=32422749|453=4|448=DCV|447=C|452=10|448=007B26|447=C|452=12|448=007|447=C|452=1|448=007FCE001|447=C|452=36|55=TFIT15260826|762=RFQF|48=20348|22=M|54=1|38=1500000000|297=10|10=178|
8=FIX.4.4|9=0192|35=R|34=3|49=EXC|56=007|52=20190607-20:54:13.947|131=20190607-000000000065.00|146=1|55=TFIT15260826|762=RFQF|48=20348|22=M|54=1|38=1500000000|453=2|448=007B26|447=C|452=12|448=007|447=C|452=1|10=011|
8=FIX.4.4|9=0049|35=0|34=4|49=EXC|56=007|52=20190607-20:54:43.000|10=174|
8=FIX.4.4|9=59|35=0|34=3|49=007|50=007B26|52=20190607-20:54:44.722|56=EXC|10=062|
8=FIX.4.4|9=110|35=A|34=1|49=007|50=007B26|52=20190607-20:55:20.164|56=EXC|43=Y|98=0|108=30|141=Y|553=007FCE001|554=007FCE001|10=083|
8=FIX.4.4|9=0067|35=A|34=1|49=EXC|56=007|52=20190607-20:55:20.099|98=0|108=30|141=Y|10=016|
8=FIX.4.4|9=154|35=R|34=2|49=007|50=007B26|52=20190607-20:55:22.352|56=EXC|131=33561848|146=1|55=TFIT15260826|22=M|762=RFQF|54=1|38=1500000000|453=1|448=DCV|447=C|452=10|10=009|
8=FIX.4.4|9=0236|35=AI|34=2|49=EXC|56=007|57=007B26|52=20190607-20:55:22.248|131=33561848|453=4|448=DCV|447=C|452=10|448=007B26|447=C|452=12|448=007|447=C|452=1|448=007FCE001|447=C|452=36|55=TFIT15260826|762=RFQF|48=20348|22=M|54=1|38=1500000000|297=10|10=178|
8=FIX.4.4|9=0192|35=R|34=3|49=EXC|56=007|52=20190607-20:55:22.248|131=20190607-000000000066.00|146=1|55=TFIT15260826|762=RFQF|48=20348|22=M|54=1|38=1500000000|453=2|448=007B26|447=C|452=12|448=007|447=C|452=1|10=007|
8=FIX.4.4|9=0049|35=0|34=4|49=EXC|56=007|52=20190607-20:55:52.000|10=175|
8=FIX.4.4|9=59|35=0|34=3|49=007|50=007B26|52=20190607-20:55:53.071|56=EXC|10=060|
8=FIX.4.4|9=110|35=A|34=1|49=007|50=007B26|52=20190607-20:59:15.450|56=EXC|43=Y|98=0|108=30|141=Y|553=007FCE001|554=007FCE001|10=089|
8=FIX.4.4|9=0067|35=A|34=1|49=EXC|56=007|52=20190607-20:59:17.022|98=0|108=30|141=Y|10=012|
8=FIX.4.4|9=110|35=A|34=1|49=007|50=007B26|52=20190607-21:31:59.805|56=EXC|43=Y|98=0|108=30|141=Y|553=007FCE001|554=007FCE001|10=092|
8=FIX.4.4|9=0067|35=A|34=1|49=EXC|56=007|52=20190607-21:31:59.711|98=0|108=30|141=Y|10=014|
8=FIX.4.4|9=110|35=A|34=1|49=007|50=007B26|52=20190607-21:32:39.012|56=EXC|43=Y|98=0|108=30|141=Y|553=007FCE001|554=007FCE001|10=081|
8=FIX.4.4|9=0067|35=A|34=1|49=EXC|56=007|52=20190607-21:32:38.931|98=0|108=30|141=Y|10=016|
8=FIX.4.4|9=110|35=A|34=1|49=007|50=007B26|52=20190607-21:33:02.908|56=EXC|43=Y|98=0|108=30|141=Y|553=007FCE001|554=007FCE001|10=086|
8=FIX.4.4|9=0067|35=A|34=1|49=EXC|56=007|52=20190607-21:33:02.834|98=0|108=30|141=Y|10=010|
8=FIX.4.4|9=0049|35=0|34=2|49=EXC|56=007|52=20190607-21:33:32.000|10=168|
8=FIX.4.4|9=59|35=0|34=2|49=007|50=007B26|52=20190607-21:33:33.817|56=EXC|10=062|
8=FIX.4.4|9=110|35=A|34=1|49=007|50=007B26|52=20190607-21:34:44.468|56=EXC|43=Y|98=0|108=30|141=Y|553=007FCE001|554=007FCE001|10=094|
8=FIX.4.4|9=0067|35=A|34=1|49=EXC|56=007|52=20190607-21:34:44.371|98=0|108=30|141=Y|10=013|
8=FIX.4.4|9=0049|35=0|34=2|49=EXC|56=007|52=20190607-21:35:14.000|10=170|
8=FIX.4.4|9=59|35=0|34=2|49=007|50=007B26|52=20190607-21:35:15.389|56=EXC|10=068|
8=FIX.4.4|9=104|35=A|34=3|49=007|50=007B26|52=20190607-21:35:37.654|56=EXC|43=Y|98=0|108=30|553=007FCE001|554=007FCE001|10=054|
8=FIX.4.4|9=0061|35=A|34=3|49=EXC|56=007|52=20190607-21:35:37.589|98=0|108=30|10=234|
8=FIX.4.4|9=110|35=A|34=1|49=007|50=007B26|52=20190607-21:36:18.960|56=EXC|43=Y|98=0|108=30|141=Y|553=007FCE001|554=007FCE001|10=094|
8=FIX.4.4|9=0067|35=A|34=1|49=EXC|56=007|52=20190607-21:36:18.911|98=0|108=30|141=Y|10=016|
8=FIX.4.4|9=110|35=A|34=1|49=007|50=007B26|52=20190607-21:37:18.844|56=EXC|43=Y|98=0|108=30|141=Y|553=007FCE001|554=007FCE001|10=096|
8=FIX.4.4|9=0067|35=A|34=1|49=EXC|56=007|52=20190607-21:37:18.747|98=0|108=30|141=Y|10=024|
8=FIX.4.4|9=110|35=A|34=1|49=007|50=007B26|52=20190607-21:41:52.190|56=EXC|43=Y|98=0|108=30|141=Y|553=007FCE001|554=007FCE001|10=083|
8=FIX.4.4|9=0067|35=A|34=1|49=EXC|56=007|52=20190607-21:41:52.120|98=0|108=30|141=Y|10=002|
8=FIX.4.4|9=110|35=A|34=1|49=007|50=007B26|52=20190607-21:44:11.547|56=EXC|43=Y|98=0|108=30|141=Y|553=007FCE001|554=007FCE001|10=087|
8=FIX.4.4|9=0067|35=A|34=1|49=EXC|56=007|52=20190607-21:44:11.455|98=0|108=30|141=Y|10=011|
8=FIX.4.4|9=0049|35=0|34=2|49=EXC|56=007|52=20190607-21:44:41.000|10=170|
8=FIX.4.4|9=59|35=0|34=2|49=007|50=007B26|52=20190607-21:44:42.487|56=EXC|10=067|
8=FIX.4.4|9=0049|35=0|34=3|49=EXC|56=007|52=20190607-21:45:11.000|10=169|
8=FIX.4.4|9=59|35=0|34=3|49=007|50=007B26|52=20190607-21:45:12.486|56=EXC|10=065|
8=FIX.4.4|9=0049|35=0|34=4|49=EXC|56=007|52=20190607-21:45:41.000|10=173|
8=FIX.4.4|9=59|35=0|34=4|49=007|50=007B26|52=20190607-21:45:42.487|56=EXC|10=070|
8=FIX.4.4|9=110|35=A|34=1|49=007|50=007B26|52=20190607-21:51:28.935|56=EXC|43=Y|98=0|108=30|141=Y|553=007FCE001|554=007FCE001|10=094|
8=FIX.4.4|9=0067|35=A|34=1|49=EXC|56=007|52=20190607-21:51:28.967|98=0|108=30|141=Y|10=025|
8=FIX.4.4|9=104|35=A|34=2|49=007|50=007B26|52=20190607-21:51:50.930|56=EXC|43=Y|98=0|108=30|553=007FCE001|554=007FCE001|10=043|
8=FIX.4.4|9=0061|35=A|34=2|49=EXC|56=007|52=20190607-21:51:50.826|98=0|108=30|10=220|
8=FIX.4.4|9=110|35=A|34=1|49=007|50=007B26|52=20190607-21:52:14.791|56=EXC|43=Y|98=0|108=30|141=Y|553=007FCE001|554=007FCE001|10=090|
8=FIX.4.4|9=0067|35=A|34=1|49=EXC|56=007|52=20190607-21:52:14.810|98=0|108=30|141=Y|10=008|
8=FIX.4.4|9=110|35=A|34=1|49=007|50=007B26|52=20190607-21:52:49.672|56=EXC|43=Y|98=0|108=30|141=Y|553=007FCE001|554=007FCE001|10=096|
8=FIX.4.4|9=0067|35=A|34=1|49=EXC|56=007|52=20190607-21:52:49.707|98=0|108=30|141=Y|10=021|
=======
8=FIX.4.4|9=110|35=A|34=1|49=007|50=007B26|52=20190607-21:41:30.389|56=EXC|43=Y|98=0|108=30|141=Y|553=007FCE001|554=007FCE001|10=089|
8=FIX.4.4|9=0067|35=A|34=1|49=EXC|56=007|52=20190607-21:41:30.336|98=0|108=30|141=Y|10=007|
8=FIX.4.4|9=153|35=R|34=2|49=007|50=007B26|52=20190607-21:41:32.772|56=EXC|131=2733629|146=1|55=TFIT15260826|22=M|762=RFQF|54=1|38=1500000000|453=1|448=DCV|447=C|452=10|10=213|
8=FIX.4.4|9=0235|35=AI|34=2|49=EXC|56=007|57=007B26|52=20190607-21:41:32.688|131=2733629|453=4|448=DCV|447=C|452=10|448=007B26|447=C|452=12|448=007|447=C|452=1|448=007FCE001|447=C|452=36|55=TFIT15260826|762=RFQF|48=20348|22=M|54=1|38=1500000000|297=10|10=128|
8=FIX.4.4|9=0192|35=R|34=3|49=EXC|56=007|52=20190607-21:41:32.688|131=20190607-000000000071.00|146=1|55=TFIT15260826|762=RFQF|48=20348|22=M|54=1|38=1500000000|453=2|448=007B26|447=C|452=12|448=007|447=C|452=1|10=008|
8=FIX.4.4|9=110|35=A|34=1|49=007|50=007B26|52=20190607-21:52:29.990|56=EXC|43=Y|98=0|108=30|141=Y|553=007FCE001|554=007FCE001|10=097|
8=FIX.4.4|9=0067|35=A|34=1|49=EXC|56=007|52=20190607-21:52:29.943|98=0|108=30|141=Y|10=021|
8=FIX.4.4|9=0191|35=R|34=2|49=EXC|56=007|52=20190607-21:52:32.256|131=20190607-000000000073.00|146=1|55=TFIT16300632|762=RFQF|48=20406|22=M|54=1|38=500000000|453=2|448=001B27|447=C|452=12|448=001|447=C|452=1|10=183|
8=FIX.4.4|9=110|35=A|34=1|49=007|50=007B26|52=20190607-21:53:04.037|56=EXC|43=Y|98=0|108=30|141=Y|553=007FCE001|554=007FCE001|10=083|
8=FIX.4.4|9=0067|35=A|34=1|49=EXC|56=007|52=20190607-21:53:03.988|98=0|108=30|141=Y|10=023|
8=FIX.4.4|9=0049|35=0|34=2|49=EXC|56=007|52=20190607-21:53:33.000|10=171|
8=FIX.4.4|9=59|35=0|34=2|49=007|50=007B26|52=20190607-21:53:35.026|56=EXC|10=058|
8=FIX.4.4|9=0049|35=0|34=3|49=EXC|56=007|52=20190607-21:54:03.000|10=170|
8=FIX.4.4|9=59|35=0|34=3|49=007|50=007B26|52=20190607-21:54:05.026|56=EXC|10=057|
8=FIX.4.4|9=110|35=A|34=1|49=007|50=007B26|52=20190607-21:54:23.091|56=EXC|43=Y|98=0|108=30|141=Y|553=007FCE001|554=007FCE001|10=085|
8=FIX.4.4|9=0067|35=A|34=1|49=EXC|56=007|52=20190607-21:54:23.041|98=0|108=30|141=Y|10=006|
>>>>>>> ca8b6fd13021438c8902d768218507fa06f95332
