8=FIX.4.4|9=105|35=A|34=1|49=010|50=010BWN|52=20190611-22:57:17.858|56=EXC|98=0|108=30|141=Y|553=010FCE003|554=010FCE003|10=145|
8=FIX.4.4|9=0067|35=A|34=1|49=EXC|56=010|52=20190611-22:57:17.864|98=0|108=30|141=Y|10=015|
8=FIX.4.4|9=0192|35=R|34=2|49=EXC|56=010|52=20190611-22:57:20.236|131=20190611-000000000020.00|146=1|55=TFIT15260826|762=RFQF|48=20348|22=M|54=1|38=1500000000|453=2|448=007B26|447=C|452=12|448=007|447=C|452=1|10=235|
8=FIX.4.4|9=0183|35=R|34=3|49=EXC|56=010|52=20190611-22:57:36.663|131=20190611-000000000020.00|146=1|55=TFIT15260826|762=RFQF|48=20348|22=M|54=1|38=0|453=2|448=007B26|447=C|452=12|448=007|447=C|452=1|10=065|
8=FIX.4.4|9=59|35=0|34=2|49=010|50=010BWN|52=20190611-22:57:48.826|56=EXC|10=119|
8=FIX.4.4|9=0049|35=0|34=4|49=EXC|56=010|52=20190611-22:58:06.000|10=168|
8=FIX.4.4|9=59|35=0|34=3|49=010|50=010BWN|52=20190611-22:58:18.820|56=EXC|10=112|
8=FIX.4.4|9=0049|35=0|34=5|49=EXC|56=010|52=20190611-22:58:36.000|10=172|
8=FIX.4.4|9=59|35=0|34=4|49=010|50=010BWN|52=20190611-22:58:48.818|56=EXC|10=123|
8=FIX.4.4|9=0049|35=0|34=6|49=EXC|56=010|52=20190611-22:59:06.000|10=171|
8=FIX.4.4|9=59|35=0|34=5|49=010|50=010BWN|52=20190611-22:59:18.829|56=EXC|10=124|
8=FIX.4.4|9=0049|35=0|34=7|49=EXC|56=010|52=20190611-22:59:36.000|10=175|
8=FIX.4.4|9=59|35=0|34=6|49=010|50=010BWN|52=20190611-22:59:48.824|56=EXC|10=123|
8=FIX.4.4|9=0049|35=0|34=8|49=EXC|56=010|52=20190611-23:00:06.000|10=160|
8=FIX.4.4|9=59|35=0|34=7|49=010|50=010BWN|52=20190611-23:00:18.824|56=EXC|10=108|
8=FIX.4.4|9=105|35=A|34=1|49=010|50=010BWN|52=20190611-23:00:57.230|56=EXC|98=0|108=30|141=Y|553=010FCE003|554=010FCE003|10=122|
8=FIX.4.4|9=0067|35=A|34=1|49=EXC|56=010|52=20190611-23:00:57.220|98=0|108=30|141=Y|10=250|
8=FIX.4.4|9=0192|35=R|34=2|49=EXC|56=010|52=20190611-23:00:59.613|131=20190611-000000000021.00|146=1|55=TFIT15260826|762=RFQF|48=20348|22=M|54=1|38=1500000000|453=2|448=007B26|447=C|452=12|448=007|447=C|452=1|10=236|
8=FIX.4.4|9=0183|35=R|34=3|49=EXC|56=010|52=20190611-23:01:15.604|131=20190611-000000000021.00|146=1|55=TFIT15260826|762=RFQF|48=20348|22=M|54=1|38=0|453=2|448=007B26|447=C|452=12|448=007|447=C|452=1|10=048|
8=FIX.4.4|9=59|35=0|34=2|49=010|50=010BWN|52=20190611-23:01:28.184|56=EXC|10=104|
8=FIX.4.4|9=105|35=A|34=1|49=010|50=010BWN|52=20190611-23:03:31.319|56=EXC|98=0|108=30|141=Y|553=010FCE003|554=010FCE003|10=125|
8=FIX.4.4|9=0067|35=A|34=1|49=EXC|56=010|52=20190611-23:03:31.316|98=0|108=30|141=Y|10=251|
8=FIX.4.4|9=0192|35=R|34=2|49=EXC|56=010|52=20190611-23:03:33.644|131=20190611-000000000022.00|146=1|55=TFIT15260826|762=RFQF|48=20348|22=M|54=1|38=1500000000|453=2|448=007B26|447=C|452=12|448=007|447=C|452=1|10=236|
8=FIX.4.4|9=59|35=0|34=2|49=010|50=010BWN|52=20190611-23:04:02.238|56=EXC|10=099|
8=FIX.4.4|9=0049|35=0|34=3|49=EXC|56=010|52=20190611-23:04:03.000|10=156|
8=FIX.4.4|9=68|35=1|34=3|49=010|50=010BWN|52=20190611-23:04:19.243|56=EXC|112=TEST|10=123|
8=FIX.4.4|9=0058|35=0|34=4|49=EXC|56=010|52=20190611-23:04:19.200|112=TEST|10=184|
8=FIX.4.4|9=105|35=A|34=1|49=010|50=010BWN|52=20190611-23:04:47.325|56=EXC|98=0|108=30|141=Y|553=010FCE003|554=010FCE003|10=130|
8=FIX.4.4|9=0067|35=A|34=1|49=EXC|56=010|52=20190611-23:04:47.316|98=0|108=30|141=Y|10=003|
8=FIX.4.4|9=105|35=A|34=1|49=010|50=010BWN|52=20190611-23:05:48.258|56=EXC|98=0|108=30|141=Y|553=010FCE003|554=010FCE003|10=137|
8=FIX.4.4|9=0067|35=A|34=1|49=EXC|56=010|52=20190611-23:05:48.261|98=0|108=30|141=Y|10=004|
8=FIX.4.4|9=0049|35=0|34=2|49=EXC|56=010|52=20190611-23:06:18.000|10=163|
8=FIX.4.4|9=59|35=0|34=2|49=010|50=010BWN|52=20190611-23:06:19.236|56=EXC|10=107|
