8=FIX.4.4|9=110|35=A|34=1|49=007|50=007B26|52=20190527-21:24:06.975|56=EXC|43=Y|98=0|108=30|141=Y|553=002FCM002|554=002FCM002|10=103|
8=FIX.4.4|9=110|35=A|34=1|49=007|50=007B26|52=20190527-21:28:00.368|56=EXC|43=Y|98=0|108=30|141=Y|553=002FCM002|554=002FCM002|10=097|
8=FIX.4.4|9=110|35=A|34=1|49=007|50=007B26|52=20190527-21:29:23.506|56=EXC|43=Y|98=0|108=30|141=Y|553=007FCE001|554=007FCE001|10=089|
8=FIX.4.4|9=0067|35=A|34=1|49=EXC|56=007|52=20190527-21:29:23.504|98=0|108=30|141=Y|10=013|
8=FIX.4.4|9=110|35=A|34=1|49=007|50=007B26|52=20190528-12:36:49.676|56=EXC|43=Y|98=0|108=30|141=Y|553=007FCE001|554=007FCE001|10=104|
8=FIX.4.4|9=0067|35=A|34=1|49=EXC|56=007|52=20190528-12:36:50.467|98=0|108=30|141=Y|10=020|
8=FIX.4.4|9=0049|35=0|34=2|49=EXC|56=007|52=20190528-12:37:20.000|10=171|
8=FIX.4.4|9=59|35=0|34=2|49=007|50=007B26|52=20190528-12:37:20.570|56=EXC|10=060|
8=FIX.4.4|9=110|35=A|34=1|49=007|50=007B26|52=20190528-12:43:36.278|56=EXC|43=Y|98=0|108=30|141=Y|553=007FCE001|554=007FCE001|10=096|
8=FIX.4.4|9=0067|35=A|34=1|49=EXC|56=007|52=20190528-12:43:36.600|98=0|108=30|141=Y|10=011|
8=FIX.4.4|9=110|35=A|34=1|49=007|50=007B26|52=20190528-12:57:43.588|56=EXC|43=Y|98=0|108=30|141=Y|553=007FCE001|554=007FCE001|10=103|
8=FIX.4.4|9=0067|35=A|34=1|49=EXC|56=007|52=20190528-12:57:44.130|98=0|108=30|141=Y|10=013|
8=FIX.4.4|9=110|35=A|34=1|49=007|50=007B26|52=20190528-12:59:56.658|56=EXC|43=Y|98=0|108=30|141=Y|553=007FCE001|554=007FCE001|10=107|
8=FIX.4.4|9=0067|35=A|34=1|49=EXC|56=007|52=20190528-12:59:57.234|98=0|108=30|141=Y|10=024|
8=FIX.4.4|9=0049|35=0|34=2|49=EXC|56=007|52=20190528-13:00:27.000|10=169|
8=FIX.4.4|9=59|35=0|34=2|49=007|50=007B26|52=20190528-13:00:27.499|56=EXC|10=068|
8=FIX.4.4|9=110|35=A|34=1|49=007|50=007B26|52=20190528-13:26:08.615|56=EXC|43=Y|98=0|108=30|141=Y|553=007FCE001|554=007FCE001|10=092|
8=FIX.4.4|9=0067|35=A|34=1|49=EXC|56=007|52=20190528-13:26:08.671|98=0|108=30|141=Y|10=020|
8=FIX.4.4|9=110|35=A|34=1|49=007|50=007B26|52=20190528-15:22:28.766|56=EXC|43=Y|98=0|108=30|141=Y|553=007FCE001|554=007FCE001|10=099|
8=FIX.4.4|9=0067|35=A|34=1|49=EXC|56=007|52=20190528-15:22:28.841|98=0|108=30|141=Y|10=019|
8=FIX.4.4|9=110|35=A|34=1|49=007|50=007B26|52=20190528-15:24:02.496|56=EXC|43=Y|98=0|108=30|141=Y|553=007FCE001|554=007FCE001|10=093|
8=FIX.4.4|9=0067|35=A|34=1|49=EXC|56=007|52=20190528-15:24:02.571|98=0|108=30|141=Y|10=013|
8=FIX.4.4|9=110|35=A|34=1|49=007|50=007B26|52=20190528-20:13:38.039|56=EXC|43=Y|98=0|108=30|141=Y|553=007FCE001|554=007FCE001|10=089|
8=FIX.4.4|9=0067|35=A|34=1|49=EXC|56=007|52=20190528-20:13:38.108|98=0|108=30|141=Y|10=012|
8=FIX.4.4|9=110|35=A|34=1|49=007|50=007B26|52=20190528-20:18:12.372|56=EXC|43=Y|98=0|108=30|141=Y|553=007FCE001|554=007FCE001|10=086|
8=FIX.4.4|9=0067|35=A|34=1|49=EXC|56=007|52=20190528-20:18:12.409|98=0|108=30|141=Y|10=013|
8=FIX.4.4|9=110|35=A|34=1|49=007|50=007B26|52=20190528-20:54:13.178|56=EXC|43=Y|98=0|108=30|141=Y|553=007FCE001|554=007FCE001|10=091|
8=FIX.4.4|9=0067|35=A|34=1|49=EXC|56=007|52=20190528-20:54:13.256|98=0|108=30|141=Y|10=014|
8=FIX.4.4|9=110|35=A|34=1|49=007|50=007B26|52=20190528-23:51:53.651|56=EXC|43=Y|98=0|108=30|141=Y|553=007FCE001|554=007FCE001|10=091|
8=FIX.4.4|9=0067|35=A|34=1|49=EXC|56=007|52=20190528-23:51:53.381|98=0|108=30|141=Y|10=017|
8=FIX.4.4|9=0049|35=0|34=2|49=EXC|56=007|52=20190528-23:52:23.000|10=173|
8=FIX.4.4|9=59|35=0|34=2|49=007|50=007B26|52=20190528-23:52:24.641|56=EXC|10=062|
8=FIX.4.4|9=110|35=A|34=1|49=007|50=007B26|52=20190529-00:03:20.403|56=EXC|43=Y|98=0|108=30|141=Y|553=007FCE001|554=007FCE001|10=073|
8=FIX.4.4|9=0067|35=A|34=1|49=EXC|56=007|52=20190529-00:03:20.134|98=0|108=30|141=Y|10=000|
8=FIX.4.4|9=0049|35=0|34=2|49=EXC|56=007|52=20190529-00:03:50.000|10=165|
8=FIX.4.4|9=59|35=0|34=2|49=007|50=007B26|52=20190529-00:03:51.296|56=EXC|10=060|
8=FIX.4.4|9=0049|35=0|34=3|49=EXC|56=007|52=20190529-00:04:20.000|10=164|
8=FIX.4.4|9=59|35=0|34=3|49=007|50=007B26|52=20190529-00:04:21.296|56=EXC|10=059|
8=FIX.4.4|9=110|35=A|34=1|49=007|50=007B26|52=20190529-00:09:25.895|56=EXC|43=Y|98=0|108=30|141=Y|553=007FCE001|554=007FCE001|10=099|
8=FIX.4.4|9=0067|35=A|34=1|49=EXC|56=007|52=20190529-00:09:25.608|98=0|108=30|141=Y|10=017|
8=FIX.4.4|9=0049|35=0|34=2|49=EXC|56=007|52=20190529-00:09:55.000|10=176|
8=FIX.4.4|9=59|35=0|34=2|49=007|50=007B26|52=20190529-00:09:56.857|56=EXC|10=074|
8=FIX.4.4|9=0049|35=0|34=3|49=EXC|56=007|52=20190529-00:10:25.000|10=166|
8=FIX.4.4|9=59|35=0|34=3|49=007|50=007B26|52=20190529-00:10:26.858|56=EXC|10=065|
8=FIX.4.4|9=110|35=A|34=1|49=007|50=007B26|52=20190529-00:10:49.111|56=EXC|43=Y|98=0|108=30|141=Y|553=007FCE001|554=007FCE001|10=078|
8=FIX.4.4|9=0067|35=A|34=1|49=EXC|56=007|52=20190529-00:10:48.820|98=0|108=30|141=Y|10=010|
8=FIX.4.4|9=0049|35=0|34=2|49=EXC|56=007|52=20190529-00:11:18.000|10=168|
8=FIX.4.4|9=59|35=0|34=2|49=007|50=007B26|52=20190529-00:11:19.102|56=EXC|10=049|
8=FIX.4.4|9=0049|35=0|34=3|49=EXC|56=007|52=20190529-00:11:48.000|10=172|
8=FIX.4.4|9=59|35=0|34=3|49=007|50=007B26|52=20190529-00:11:49.101|56=EXC|10=052|
8=FIX.4.4|9=0049|35=0|34=4|49=EXC|56=007|52=20190529-00:12:18.000|10=171|
8=FIX.4.4|9=59|35=0|34=4|49=007|50=007B26|52=20190529-00:12:19.101|56=EXC|10=051|
8=FIX.4.4|9=0049|35=0|34=5|49=EXC|56=007|52=20190529-00:12:48.000|10=175|
8=FIX.4.4|9=59|35=0|34=5|49=007|50=007B26|52=20190529-00:12:49.101|56=EXC|10=055|
8=FIX.4.4|9=110|35=A|34=1|49=007|50=007B26|52=20190529-00:14:06.709|56=EXC|43=Y|98=0|108=30|141=Y|553=007FCE001|554=007FCE001|10=088|
8=FIX.4.4|9=0067|35=A|34=1|49=EXC|56=007|52=20190529-00:14:06.415|98=0|108=30|141=Y|10=008|
8=FIX.4.4|9=0049|35=0|34=2|49=EXC|56=007|52=20190529-00:14:36.000|10=171|
8=FIX.4.4|9=59|35=0|34=2|49=007|50=007B26|52=20190529-00:14:37.672|56=EXC|10=064|
8=FIX.4.4|9=0049|35=0|34=3|49=EXC|56=007|52=20190529-00:15:06.000|10=170|
8=FIX.4.4|9=59|35=0|34=3|49=007|50=007B26|52=20190529-00:15:07.671|56=EXC|10=062|
8=FIX.4.4|9=110|35=A|34=1|49=007|50=007B26|52=20190529-00:16:05.275|56=EXC|43=Y|98=0|108=30|141=Y|553=007FCE001|554=007FCE001|10=087|
8=FIX.4.4|9=0067|35=A|34=1|49=EXC|56=007|52=20190529-00:16:04.721|98=0|108=30|141=Y|10=008|
8=FIX.4.4|9=0049|35=0|34=2|49=EXC|56=007|52=20190529-00:16:34.000|10=171|
8=FIX.4.4|9=59|35=0|34=2|49=007|50=007B26|52=20190529-00:16:36.259|56=EXC|10=066|
8=FIX.4.4|9=0049|35=0|34=3|49=EXC|56=007|52=20190529-00:17:04.000|10=170|
8=FIX.4.4|9=59|35=0|34=3|49=007|50=007B26|52=20190529-00:17:06.258|56=EXC|10=064|
8=FIX.4.4|9=0049|35=0|34=4|49=EXC|56=007|52=20190529-00:17:34.000|10=174|
8=FIX.4.4|9=59|35=0|34=4|49=007|50=007B26|52=20190529-00:17:36.260|56=EXC|10=061|
8=FIX.4.4|9=0049|35=0|34=5|49=EXC|56=007|52=20190529-00:18:04.000|10=173|
8=FIX.4.4|9=59|35=0|34=5|49=007|50=007B26|52=20190529-00:18:06.258|56=EXC|10=067|
8=FIX.4.4|9=0049|35=0|34=6|49=EXC|56=007|52=20190529-00:18:34.000|10=177|
8=FIX.4.4|9=59|35=0|34=6|49=007|50=007B26|52=20190529-00:18:36.258|56=EXC|10=071|
8=FIX.4.4|9=0049|35=0|34=7|49=EXC|56=007|52=20190529-00:19:04.000|10=176|
8=FIX.4.4|9=59|35=0|34=7|49=007|50=007B26|52=20190529-00:19:06.258|56=EXC|10=070|
8=FIX.4.4|9=110|35=A|34=1|49=007|50=007B26|52=20190529-00:19:57.236|56=EXC|43=Y|98=0|108=30|141=Y|553=007FCE001|554=007FCE001|10=094|
8=FIX.4.4|9=0067|35=A|34=1|49=EXC|56=007|52=20190529-00:19:56.676|98=0|108=30|141=Y|10=027|
8=FIX.4.4|9=0049|35=0|34=2|49=EXC|56=007|52=20190529-00:20:26.000|10=167|
8=FIX.4.4|9=59|35=0|34=2|49=007|50=007B26|52=20190529-00:20:28.227|56=EXC|10=057|
8=FIX.4.4|9=0049|35=0|34=3|49=EXC|56=007|52=20190529-00:20:56.000|10=171|
8=FIX.4.4|9=59|35=0|34=3|49=007|50=007B26|52=20190529-00:20:58.227|56=EXC|10=061|
8=FIX.4.4|9=110|35=A|34=1|49=007|50=007B26|52=20190529-00:22:19.612|56=EXC|43=Y|98=0|108=30|141=Y|553=007FCE001|554=007FCE001|10=084|
8=FIX.4.4|9=0067|35=A|34=1|49=EXC|56=007|52=20190529-00:22:19.054|98=0|108=30|141=Y|10=010|
8=FIX.4.4|9=110|35=A|34=1|49=007|50=007B26|52=20190529-00:23:37.101|56=EXC|43=Y|98=0|108=30|141=Y|553=007FCE001|554=007FCE001|10=078|
8=FIX.4.4|9=0067|35=A|34=1|49=EXC|56=007|52=20190529-00:23:36.542|98=0|108=30|141=Y|10=012|
8=FIX.4.4|9=0049|35=0|34=2|49=EXC|56=007|52=20190529-00:24:06.000|10=169|
8=FIX.4.4|9=59|35=0|34=2|49=007|50=007B26|52=20190529-00:24:08.047|56=EXC|10=059|
8=FIX.4.4|9=0049|35=0|34=3|49=EXC|56=007|52=20190529-00:24:36.000|10=173|
8=FIX.4.4|9=59|35=0|34=3|49=007|50=007B26|52=20190529-00:24:38.047|56=EXC|10=063|
8=FIX.4.4|9=0049|35=0|34=4|49=EXC|56=007|52=20190529-00:25:06.000|10=172|
8=FIX.4.4|9=59|35=0|34=4|49=007|50=007B26|52=20190529-00:25:08.048|56=EXC|10=063|
8=FIX.4.4|9=110|35=A|34=1|49=007|50=007B26|52=20190529-00:25:31.709|56=EXC|43=Y|98=0|108=30|141=Y|553=007FCE001|554=007FCE001|10=088|
8=FIX.4.4|9=0067|35=A|34=1|49=EXC|56=007|52=20190529-00:25:31.147|98=0|108=30|141=Y|10=010|
8=FIX.4.4|9=110|35=A|34=1|49=007|50=007B26|52=20190529-00:31:10.078|56=EXC|43=Y|98=0|108=30|141=Y|553=007FCE001|554=007FCE001|10=081|
8=FIX.4.4|9=0067|35=A|34=1|49=EXC|56=007|52=20190529-00:31:09.510|98=0|108=30|141=Y|10=006|
8=FIX.4.4|9=110|35=A|34=1|49=007|50=007B26|52=20190529-00:34:01.746|56=EXC|43=Y|98=0|108=30|141=Y|553=007FCE001|554=007FCE001|10=086|
8=FIX.4.4|9=0067|35=A|34=1|49=EXC|56=007|52=20190529-00:34:01.182|98=0|108=30|141=Y|10=006|
8=FIX.4.4|9=0049|35=0|34=2|49=EXC|56=007|52=20190529-00:34:31.000|10=168|
8=FIX.4.4|9=59|35=0|34=2|49=007|50=007B26|52=20190529-00:34:32.668|56=EXC|10=066|
8=FIX.4.4|9=0049|35=0|34=3|49=EXC|56=007|52=20190529-00:35:01.000|10=167|
8=FIX.4.4|9=59|35=0|34=3|49=007|50=007B26|52=20190529-00:35:02.667|56=EXC|10=064|
8=FIX.4.4|9=110|35=A|34=1|49=007|50=007B26|52=20190529-00:35:21.142|56=EXC|43=Y|98=0|108=30|141=Y|553=007FCE001|554=007FCE001|10=079|
8=FIX.4.4|9=0067|35=A|34=1|49=EXC|56=007|52=20190529-00:35:20.571|98=0|108=30|141=Y|10=010|
8=FIX.4.4|9=110|35=A|34=1|49=007|50=007B26|52=20190529-00:35:58.883|56=EXC|43=Y|98=0|108=30|141=Y|553=007FCE001|554=007FCE001|10=101|
8=FIX.4.4|9=0067|35=A|34=1|49=EXC|56=007|52=20190529-00:35:58.312|98=0|108=30|141=Y|10=014|
8=FIX.4.4|9=0049|35=0|34=2|49=EXC|56=007|52=20190529-00:36:28.000|10=176|
8=FIX.4.4|9=59|35=0|34=2|49=007|50=007B26|52=20190529-00:36:29.838|56=EXC|10=073|
8=FIX.4.4|9=110|35=A|34=1|49=007|50=007B26|52=20190529-00:37:56.469|56=EXC|43=Y|98=0|108=30|141=Y|553=007FCE001|554=007FCE001|10=101|
8=FIX.4.4|9=0067|35=A|34=1|49=EXC|56=007|52=20190529-00:37:55.896|98=0|108=30|141=Y|10=030|
8=FIX.4.4|9=0049|35=0|34=2|49=EXC|56=007|52=20190529-00:38:25.000|10=175|
8=FIX.4.4|9=59|35=0|34=2|49=007|50=007B26|52=20190529-00:38:27.408|56=EXC|10=066|
8=FIX.4.4|9=0049|35=0|34=3|49=EXC|56=007|52=20190529-00:38:55.000|10=179|
8=FIX.4.4|9=59|35=0|34=3|49=007|50=007B26|52=20190529-00:38:57.409|56=EXC|10=071|
8=FIX.4.4|9=0049|35=0|34=4|49=EXC|56=007|52=20190529-00:39:25.000|10=178|
8=FIX.4.4|9=59|35=0|34=4|49=007|50=007B26|52=20190529-00:39:27.408|56=EXC|10=069|
8=FIX.4.4|9=110|35=A|34=1|49=007|50=007B26|52=20190529-00:39:45.985|56=EXC|43=Y|98=0|108=30|141=Y|553=007FCE001|554=007FCE001|10=104|
8=FIX.4.4|9=0067|35=A|34=1|49=EXC|56=007|52=20190529-00:39:45.410|98=0|108=30|141=Y|10=013|
8=FIX.4.4|9=0049|35=0|34=2|49=EXC|56=007|52=20190529-00:40:15.000|10=167|
8=FIX.4.4|9=59|35=0|34=2|49=007|50=007B26|52=20190529-00:40:16.948|56=EXC|10=066|
8=FIX.4.4|9=110|35=A|34=1|49=007|50=007B26|52=20190529-00:47:49.023|56=EXC|43=Y|98=0|108=30|141=Y|553=007FCE001|554=007FCE001|10=090|
8=FIX.4.4|9=0067|35=A|34=1|49=EXC|56=007|52=20190529-00:47:48.441|98=0|108=30|141=Y|10=019|
8=FIX.4.4|9=0049|35=0|34=2|49=EXC|56=007|52=20190529-00:48:18.000|10=178|
8=FIX.4.4|9=59|35=0|34=2|49=007|50=007B26|52=20190529-00:48:19.979|56=EXC|10=081|
8=FIX.4.4|9=0049|35=0|34=3|49=EXC|56=007|52=20190529-00:48:48.000|10=182|
8=FIX.4.4|9=59|35=0|34=3|49=007|50=007B26|52=20190529-00:48:49.978|56=EXC|10=084|
8=FIX.4.4|9=0049|35=0|34=4|49=EXC|56=007|52=20190529-00:49:18.000|10=181|
8=FIX.4.4|9=59|35=0|34=4|49=007|50=007B26|52=20190529-00:49:19.979|56=EXC|10=084|
8=FIX.4.4|9=0049|35=0|34=5|49=EXC|56=007|52=20190529-00:49:48.000|10=185|
8=FIX.4.4|9=59|35=0|34=5|49=007|50=007B26|52=20190529-00:49:49.980|56=EXC|10=080|
8=FIX.4.4|9=110|35=A|34=1|49=007|50=007B26|52=20190529-00:56:22.111|56=EXC|43=Y|98=0|108=30|141=Y|553=007FCE001|554=007FCE001|10=079|
8=FIX.4.4|9=0067|35=A|34=1|49=EXC|56=007|52=20190529-00:56:21.789|98=0|108=30|141=Y|10=025|
8=FIX.4.4|9=110|35=A|34=1|49=007|50=007B26|52=20190529-01:03:31.715|56=EXC|43=Y|98=0|108=30|141=Y|553=007FCE001|554=007FCE001|10=082|
8=FIX.4.4|9=0067|35=A|34=1|49=EXC|56=007|52=20190529-01:03:31.381|98=0|108=30|141=Y|10=007|
8=FIX.4.4|9=110|35=A|34=1|49=007|50=007B26|52=20190529-01:11:49.720|56=EXC|43=Y|98=0|108=30|141=Y|553=007FCE001|554=007FCE001|10=086|
8=FIX.4.4|9=0067|35=A|34=1|49=EXC|56=007|52=20190529-01:11:49.403|98=0|108=30|141=Y|10=010|
8=FIX.4.4|9=0049|35=0|34=2|49=EXC|56=007|52=20190529-01:12:19.000|10=171|
8=FIX.4.4|9=59|35=0|34=2|49=007|50=007B26|52=20190529-01:12:20.649|56=EXC|10=059|
8=FIX.4.4|9=0049|35=0|34=3|49=EXC|56=007|52=20190529-01:12:49.000|10=175|
8=FIX.4.4|9=59|35=0|34=3|49=007|50=007B26|52=20190529-01:12:50.650|56=EXC|10=055|
8=FIX.4.4|9=0049|35=0|34=4|49=EXC|56=007|52=20190529-01:13:19.000|10=174|
8=FIX.4.4|9=59|35=0|34=4|49=007|50=007B26|52=20190529-01:13:20.651|56=EXC|10=055|
8=FIX.4.4|9=110|35=A|34=1|49=007|50=007B26|52=20190529-01:25:40.529|56=EXC|43=Y|98=0|108=30|141=Y|553=007FCE001|554=007FCE001|10=089|
8=FIX.4.4|9=0067|35=A|34=1|49=EXC|56=007|52=20190529-01:25:40.198|98=0|108=30|141=Y|10=017|
8=FIX.4.4|9=0049|35=0|34=2|49=EXC|56=007|52=20190529-01:26:10.000|10=167|
8=FIX.4.4|9=59|35=0|34=2|49=007|50=007B26|52=20190529-01:26:11.486|56=EXC|10=063|
8=FIX.4.4|9=110|35=A|34=1|49=007|50=007B26|52=20190529-01:30:09.911|56=EXC|43=Y|98=0|108=30|141=Y|553=007FCE001|554=007FCE001|10=085|
8=FIX.4.4|9=0067|35=A|34=1|49=EXC|56=007|52=20190529-01:30:09.580|98=0|108=30|141=Y|10=013|
8=FIX.4.4|9=0049|35=0|34=2|49=EXC|56=007|52=20190529-01:30:39.000|10=173|
8=FIX.4.4|9=59|35=0|34=2|49=007|50=007B26|52=20190529-01:30:40.867|56=EXC|10=063|
8=FIX.4.4|9=110|35=A|34=1|49=007|50=007B26|52=20190529-12:21:50.034|56=EXC|43=Y|98=0|108=30|141=Y|553=007FCE001|554=007FCE001|10=079|
8=FIX.4.4|9=0067|35=A|34=1|49=EXC|56=007|52=20190529-12:21:50.569|98=0|108=30|141=Y|10=018|
8=FIX.4.4|9=110|35=A|34=1|49=007|50=007B26|52=20190529-12:27:22.283|56=EXC|43=Y|98=0|108=30|141=Y|553=007FCE001|554=007FCE001|10=090|
8=FIX.4.4|9=0067|35=A|34=1|49=EXC|56=007|52=20190529-12:27:22.357|98=0|108=30|141=Y|10=018|
8=FIX.4.4|9=110|35=A|34=1|49=007|50=007B26|52=20190529-12:31:25.001|56=EXC|43=Y|98=0|108=30|141=Y|553=007FCE001|554=007FCE001|10=076|
8=FIX.4.4|9=0067|35=A|34=1|49=EXC|56=007|52=20190529-12:31:25.057|98=0|108=30|141=Y|10=013|
8=FIX.4.4|9=110|35=A|34=1|49=007|50=007B26|52=20190529-12:48:24.765|56=EXC|43=Y|98=0|108=30|141=Y|553=007FCE001|554=007FCE001|10=100|
8=FIX.4.4|9=0067|35=A|34=1|49=EXC|56=007|52=20190529-12:48:24.815|98=0|108=30|141=Y|10=022|
8=FIX.4.4|9=110|35=A|34=1|49=007|50=007B26|52=20190529-12:50:53.447|56=EXC|43=Y|98=0|108=30|141=Y|553=007FCE001|554=007FCE001|10=092|
8=FIX.4.4|9=0067|35=A|34=1|49=EXC|56=007|52=20190529-12:50:53.484|98=0|108=30|141=Y|10=019|
8=FIX.4.4|9=110|35=A|34=1|49=007|50=007B26|52=20190529-12:55:50.860|56=EXC|43=Y|98=0|108=30|141=Y|553=007FCE001|554=007FCE001|10=093|
8=FIX.4.4|9=0067|35=A|34=1|49=EXC|56=007|52=20190529-12:55:50.909|98=0|108=30|141=Y|10=023|
8=FIX.4.4|9=110|35=A|34=1|49=007|50=007B26|52=20190529-12:57:08.510|56=EXC|43=Y|98=0|108=30|141=Y|553=007FCE001|554=007FCE001|10=090|
8=FIX.4.4|9=0067|35=A|34=1|49=EXC|56=007|52=20190529-12:57:08.556|98=0|108=30|141=Y|10=026|
8=FIX.4.4|9=110|35=A|34=1|49=007|50=007B26|52=20190529-13:10:55.485|56=EXC|43=Y|98=0|108=30|141=Y|553=007FCE001|554=007FCE001|10=093|
8=FIX.4.4|9=0067|35=A|34=1|49=EXC|56=007|52=20190529-13:10:55.532|98=0|108=30|141=Y|10=012|
8=FIX.4.4|9=110|35=A|34=1|49=007|50=007B26|52=20190529-13:47:13.169|56=EXC|43=Y|98=0|108=30|141=Y|553=007FCE001|554=007FCE001|10=096|
8=FIX.4.4|9=0067|35=A|34=1|49=EXC|56=007|52=20190529-13:47:12.902|98=0|108=30|141=Y|10=016|
8=FIX.4.4|9=110|35=A|34=1|49=007|50=007B26|52=20190529-13:51:04.749|56=EXC|43=Y|98=0|108=30|141=Y|553=007FCE001|554=007FCE001|10=095|
8=FIX.4.4|9=0067|35=A|34=1|49=EXC|56=007|52=20190529-13:51:04.476|98=0|108=30|141=Y|10=018|
8=FIX.4.4|9=110|35=A|34=1|49=007|50=007B26|52=20190529-13:58:02.458|56=EXC|43=Y|98=0|108=30|141=Y|553=007FCE001|554=007FCE001|10=097|
8=FIX.4.4|9=0067|35=A|34=1|49=EXC|56=007|52=20190529-13:58:02.168|98=0|108=30|141=Y|10=021|
8=FIX.4.4|9=0049|35=0|34=2|49=EXC|56=007|52=20190529-13:58:32.000|10=179|
8=FIX.4.4|9=59|35=0|34=2|49=007|50=007B26|52=20190529-13:58:33.402|56=EXC|10=063|
8=FIX.4.4|9=0049|35=0|34=3|49=EXC|56=007|52=20190529-13:59:02.000|10=178|
8=FIX.4.4|9=59|35=0|34=3|49=007|50=007B26|52=20190529-13:59:03.402|56=EXC|10=062|
8=FIX.4.4|9=110|35=A|34=1|49=007|50=007B26|52=20190529-13:59:42.588|56=EXC|43=Y|98=0|108=30|141=Y|553=007FCE001|554=007FCE001|10=106|
8=FIX.4.4|9=0067|35=A|34=1|49=EXC|56=007|52=20190529-13:59:42.374|98=0|108=30|141=Y|10=025|
8=FIX.4.4|9=0049|35=0|34=2|49=EXC|56=007|52=20190529-14:00:12.000|10=165|
8=FIX.4.4|9=59|35=0|34=2|49=007|50=007B26|52=20190529-14:00:13.520|56=EXC|10=050|
8=FIX.4.4|9=0049|35=0|34=3|49=EXC|56=007|52=20190529-14:00:42.000|10=169|
8=FIX.4.4|9=59|35=0|34=3|49=007|50=007B26|52=20190529-14:00:43.516|56=EXC|10=059|
8=FIX.4.4|9=0049|35=0|34=4|49=EXC|56=007|52=20190529-14:01:12.000|10=168|
8=FIX.4.4|9=59|35=0|34=4|49=007|50=007B26|52=20190529-14:01:13.530|56=EXC|10=054|
8=FIX.4.4|9=0049|35=0|34=5|49=EXC|56=007|52=20190529-14:01:42.000|10=172|
8=FIX.4.4|9=59|35=0|34=5|49=007|50=007B26|52=20190529-14:01:43.522|56=EXC|10=059|
8=FIX.4.4|9=0049|35=0|34=6|49=EXC|56=007|52=20190529-14:02:12.000|10=171|
8=FIX.4.4|9=59|35=0|34=6|49=007|50=007B26|52=20190529-14:02:13.522|56=EXC|10=058|
8=FIX.4.4|9=0049|35=0|34=7|49=EXC|56=007|52=20190529-14:02:42.000|10=175|
8=FIX.4.4|9=59|35=0|34=7|49=007|50=007B26|52=20190529-14:02:43.523|56=EXC|10=063|
8=FIX.4.4|9=0049|35=0|34=8|49=EXC|56=007|52=20190529-14:03:12.000|10=174|
8=FIX.4.4|9=59|35=0|34=8|49=007|50=007B26|52=20190529-14:03:13.524|56=EXC|10=063|
8=FIX.4.4|9=110|35=A|34=1|49=007|50=007B26|52=20190529-14:04:08.498|56=EXC|43=Y|98=0|108=30|141=Y|553=007FCE001|554=007FCE001|10=099|
8=FIX.4.4|9=0067|35=A|34=1|49=EXC|56=007|52=20190529-14:04:08.227|98=0|108=30|141=Y|10=015|
8=FIX.4.4|9=0049|35=0|34=2|49=EXC|56=007|52=20190529-14:04:38.000|10=177|
8=FIX.4.4|9=59|35=0|34=2|49=007|50=007B26|52=20190529-14:04:39.472|56=EXC|10=068|
8=FIX.4.4|9=110|35=A|34=1|49=007|50=007B26|52=20190529-14:20:38.662|56=EXC|43=Y|98=0|108=30|141=Y|553=007FCE001|554=007FCE001|10=093|
8=FIX.4.4|9=0067|35=A|34=1|49=EXC|56=007|52=20190529-14:20:38.703|98=0|108=30|141=Y|10=015|
8=FIX.4.4|9=110|35=A|34=1|49=007|50=007B26|52=20190529-14:25:56.745|56=EXC|43=Y|98=0|108=30|141=Y|553=007FCE001|554=007FCE001|10=100|
8=FIX.4.4|9=0067|35=A|34=1|49=EXC|56=007|52=20190529-14:25:56.761|98=0|108=30|141=Y|10=024|
8=FIX.4.4|9=110|35=A|34=1|49=007|50=007B26|52=20190529-14:27:38.031|56=EXC|43=Y|98=0|108=30|141=Y|553=007FCE001|554=007FCE001|10=090|
8=FIX.4.4|9=0067|35=A|34=1|49=EXC|56=007|52=20190529-14:27:38.045|98=0|108=30|141=Y|10=021|
8=FIX.4.4|9=110|35=A|34=1|49=007|50=007B26|52=20190529-22:53:12.218|56=EXC|43=Y|98=0|108=30|141=Y|553=007FCE001|554=007FCE001|10=087|
8=FIX.4.4|9=0067|35=A|34=1|49=EXC|56=007|52=20190529-22:53:08.540|98=0|108=30|141=Y|10=016|
8=FIX.4.4|9=110|35=A|34=1|49=007|50=007B26|52=20190529-22:55:38.407|56=EXC|43=Y|98=0|108=30|141=Y|553=007FCE001|554=007FCE001|10=097|
8=FIX.4.4|9=0067|35=A|34=1|49=EXC|56=007|52=20190529-22:55:34.732|98=0|108=30|141=Y|10=020|
8=FIX.4.4|9=59|35=0|34=2|49=007|50=007B26|52=20190529-22:56:09.099|56=EXC|10=076|
8=FIX.4.4|9=0049|35=0|34=2|49=EXC|56=007|52=20190529-22:56:04.000|10=176|
8=FIX.4.4|9=0049|35=0|34=3|49=EXC|56=007|52=20190529-22:56:34.000|10=180|
8=FIX.4.4|9=59|35=0|34=3|49=007|50=007B26|52=20190529-22:56:39.102|56=EXC|10=065|
8=FIX.4.4|9=59|35=0|34=4|49=007|50=007B26|52=20190529-22:57:09.099|56=EXC|10=079|
8=FIX.4.4|9=0049|35=0|34=4|49=EXC|56=007|52=20190529-22:57:04.000|10=179|
8=FIX.4.4|9=59|35=0|34=5|49=007|50=007B26|52=20190529-22:57:39.100|56=EXC|10=066|
8=FIX.4.4|9=0049|35=0|34=5|49=EXC|56=007|52=20190529-22:57:34.000|10=183|
8=FIX.4.4|9=110|35=A|34=1|49=007|50=007B26|52=20190530-13:56:27.408|56=EXC|43=Y|98=0|108=30|141=Y|553=007FCE001|554=007FCE001|10=089|
8=FIX.4.4|9=0067|35=A|34=1|49=EXC|56=007|52=20190530-13:56:27.728|98=0|108=30|141=Y|10=020|
8=FIX.4.4|9=110|35=A|34=1|49=007|50=007B26|52=20190530-14:12:32.982|56=EXC|43=Y|98=0|108=30|141=Y|553=007FCE001|554=007FCE001|10=085|
8=FIX.4.4|9=0067|35=A|34=1|49=EXC|56=007|52=20190530-14:12:33.306|98=0|108=30|141=Y|10=002|
8=FIX.4.4|9=110|35=A|34=1|49=007|50=007B26|52=20190530-14:16:00.127|56=EXC|43=Y|98=0|108=30|141=Y|553=007FCE001|554=007FCE001|10=075|
8=FIX.4.4|9=0067|35=A|34=1|49=EXC|56=007|52=20190530-14:16:00.502|98=0|108=30|141=Y|10=254|
8=FIX.4.4|9=0049|35=0|34=2|49=EXC|56=007|52=20190530-14:16:30.000|10=164|
8=FIX.4.4|9=59|35=0|34=2|49=007|50=007B26|52=20190530-14:16:31.065|56=EXC|10=053|
8=FIX.4.4|9=0049|35=0|34=3|49=EXC|56=007|52=20190530-14:17:00.000|10=163|
8=FIX.4.4|9=59|35=0|34=3|49=007|50=007B26|52=20190530-14:17:01.069|56=EXC|10=056|
8=FIX.4.4|9=0049|35=0|34=4|49=EXC|56=007|52=20190530-14:17:30.000|10=167|
8=FIX.4.4|9=59|35=0|34=4|49=007|50=007B26|52=20190530-14:17:31.069|56=EXC|10=060|
8=FIX.4.4|9=0049|35=0|34=5|49=EXC|56=007|52=20190530-14:18:00.000|10=166|
8=FIX.4.4|9=59|35=0|34=5|49=007|50=007B26|52=20190530-14:18:02.060|56=EXC|10=051|
8=FIX.4.4|9=0049|35=0|34=6|49=EXC|56=007|52=20190530-14:18:30.000|10=170|
8=FIX.4.4|9=59|35=0|34=6|49=007|50=007B26|52=20190530-14:18:32.067|56=EXC|10=062|
8=FIX.4.4|9=0049|35=0|34=7|49=EXC|56=007|52=20190530-14:19:00.000|10=169|
8=FIX.4.4|9=59|35=0|34=7|49=007|50=007B26|52=20190530-14:19:03.058|56=EXC|10=062|
8=FIX.4.4|9=0049|35=0|34=8|49=EXC|56=007|52=20190530-14:19:30.000|10=173|
8=FIX.4.4|9=59|35=0|34=8|49=007|50=007B26|52=20190530-14:19:33.063|56=EXC|10=062|
8=FIX.4.4|9=0049|35=0|34=9|49=EXC|56=007|52=20190530-14:20:00.000|10=163|
8=FIX.4.4|9=59|35=0|34=9|49=007|50=007B26|52=20190530-14:20:03.055|56=EXC|10=053|
8=FIX.4.4|9=0050|35=0|34=10|49=EXC|56=007|52=20190530-14:20:30.000|10=198|
8=FIX.4.4|9=60|35=0|34=10|49=007|50=007B26|52=20190530-14:20:33.060|56=EXC|10=084|
8=FIX.4.4|9=0050|35=0|34=11|49=EXC|56=007|52=20190530-14:21:00.000|10=197|
8=FIX.4.4|9=60|35=0|34=11|49=007|50=007B26|52=20190530-14:21:03.063|56=EXC|10=086|
8=FIX.4.4|9=0050|35=0|34=12|49=EXC|56=007|52=20190530-14:21:30.000|10=201|
8=FIX.4.4|9=60|35=0|34=12|49=007|50=007B26|52=20190530-14:21:33.070|56=EXC|10=088|
8=FIX.4.4|9=0050|35=0|34=13|49=EXC|56=007|52=20190530-14:22:00.000|10=200|
8=FIX.4.4|9=60|35=0|34=13|49=007|50=007B26|52=20190530-14:22:04.060|56=EXC|10=087|
8=FIX.4.4|9=0050|35=0|34=14|49=EXC|56=007|52=20190530-14:22:30.000|10=204|
8=FIX.4.4|9=60|35=0|34=14|49=007|50=007B26|52=20190530-14:22:34.063|56=EXC|10=094|
8=FIX.4.4|9=0050|35=0|34=15|49=EXC|56=007|52=20190530-14:23:00.000|10=203|
8=FIX.4.4|9=60|35=0|34=15|49=007|50=007B26|52=20190530-14:23:04.067|56=EXC|10=097|
8=FIX.4.4|9=0050|35=0|34=16|49=EXC|56=007|52=20190530-14:23:30.000|10=207|
8=FIX.4.4|9=60|35=0|34=16|49=007|50=007B26|52=20190530-14:23:35.067|56=EXC|10=102|
8=FIX.4.4|9=0050|35=0|34=17|49=EXC|56=007|52=20190530-14:24:00.000|10=206|
8=FIX.4.4|9=60|35=0|34=17|49=007|50=007B26|52=20190530-14:24:05.058|56=EXC|10=101|
8=FIX.4.4|9=0050|35=0|34=18|49=EXC|56=007|52=20190530-14:24:30.000|10=210|
8=FIX.4.4|9=60|35=0|34=18|49=007|50=007B26|52=20190530-14:24:35.072|56=EXC|10=101|
8=FIX.4.4|9=0050|35=0|34=19|49=EXC|56=007|52=20190530-14:25:00.000|10=209|
8=FIX.4.4|9=60|35=0|34=19|49=007|50=007B26|52=20190530-14:25:06.067|56=EXC|10=105|
8=FIX.4.4|9=0050|35=0|34=20|49=EXC|56=007|52=20190530-14:25:30.000|10=204|
8=FIX.4.4|9=60|35=0|34=20|49=007|50=007B26|52=20190530-14:25:37.057|56=EXC|10=100|
8=FIX.4.4|9=0050|35=0|34=21|49=EXC|56=007|52=20190530-14:26:00.000|10=203|
8=FIX.4.4|9=60|35=0|34=21|49=007|50=007B26|52=20190530-14:26:07.063|56=EXC|10=096|
8=FIX.4.4|9=0050|35=0|34=22|49=EXC|56=007|52=20190530-14:26:30.000|10=207|
8=FIX.4.4|9=60|35=0|34=22|49=007|50=007B26|52=20190530-14:26:37.065|56=EXC|10=102|
8=FIX.4.4|9=110|35=A|34=1|49=007|50=007B26|52=20190530-14:34:22.637|56=EXC|43=Y|98=0|108=30|141=Y|553=007FCE001|554=007FCE001|10=085|
8=FIX.4.4|9=0067|35=A|34=1|49=EXC|56=007|52=20190530-14:34:23.012|98=0|108=30|141=Y|10=255|
8=FIX.4.4|9=0049|35=0|34=2|49=EXC|56=007|52=20190530-14:34:53.000|10=169|
8=FIX.4.4|9=59|35=0|34=2|49=007|50=007B26|52=20190530-14:34:52.745|56=EXC|10=061|
8=FIX.4.4|9=0049|35=0|34=3|49=EXC|56=007|52=20190530-14:35:23.000|10=168|
8=FIX.4.4|9=59|35=0|34=3|49=007|50=007B26|52=20190530-14:35:23.334|56=EXC|10=055|
8=FIX.4.4|9=0049|35=0|34=4|49=EXC|56=007|52=20190530-14:35:53.000|10=172|
8=FIX.4.4|9=59|35=0|34=4|49=007|50=007B26|52=20190530-14:35:53.401|56=EXC|10=054|
8=FIX.4.4|9=0049|35=0|34=5|49=EXC|56=007|52=20190530-14:36:23.000|10=171|
8=FIX.4.4|9=59|35=0|34=5|49=007|50=007B26|52=20190530-14:36:23.559|56=EXC|10=067|
8=FIX.4.4|9=0049|35=0|34=6|49=EXC|56=007|52=20190530-14:36:53.000|10=175|
8=FIX.4.4|9=59|35=0|34=6|49=007|50=007B26|52=20190530-14:36:53.555|56=EXC|10=067|
8=FIX.4.4|9=0049|35=0|34=7|49=EXC|56=007|52=20190530-14:37:23.000|10=174|
8=FIX.4.4|9=59|35=0|34=7|49=007|50=007B26|52=20190530-14:37:23.560|56=EXC|10=062|
8=FIX.4.4|9=0049|35=0|34=8|49=EXC|56=007|52=20190530-14:37:53.000|10=178|
8=FIX.4.4|9=59|35=0|34=8|49=007|50=007B26|52=20190530-14:37:53.557|56=EXC|10=072|
8=FIX.4.4|9=0049|35=0|34=9|49=EXC|56=007|52=20190530-14:38:23.000|10=177|
8=FIX.4.4|9=59|35=0|34=9|49=007|50=007B26|52=20190530-14:38:23.563|56=EXC|10=068|
8=FIX.4.4|9=0050|35=0|34=10|49=EXC|56=007|52=20190530-14:38:53.000|10=212|
8=FIX.4.4|9=60|35=0|34=10|49=007|50=007B26|52=20190530-14:38:53.573|56=EXC|10=104|
8=FIX.4.4|9=0050|35=0|34=11|49=EXC|56=007|52=20190530-14:39:23.000|10=211|
8=FIX.4.4|9=60|35=0|34=11|49=007|50=007B26|52=20190530-14:39:23.569|56=EXC|10=108|
8=FIX.4.4|9=0050|35=0|34=12|49=EXC|56=007|52=20190530-14:39:53.000|10=215|
8=FIX.4.4|9=60|35=0|34=12|49=007|50=007B26|52=20190530-14:39:53.560|56=EXC|10=103|
8=FIX.4.4|9=0050|35=0|34=13|49=EXC|56=007|52=20190530-14:40:23.000|10=205|
8=FIX.4.4|9=60|35=0|34=13|49=007|50=007B26|52=20190530-14:40:23.565|56=EXC|10=098|
8=FIX.4.4|9=0050|35=0|34=14|49=EXC|56=007|52=20190530-14:40:53.000|10=209|
8=FIX.4.4|9=60|35=0|34=14|49=007|50=007B26|52=20190530-14:40:53.564|56=EXC|10=101|
8=FIX.4.4|9=0050|35=0|34=15|49=EXC|56=007|52=20190530-14:41:23.000|10=208|
8=FIX.4.4|9=60|35=0|34=15|49=007|50=007B26|52=20190530-14:41:23.567|56=EXC|10=103|
8=FIX.4.4|9=0050|35=0|34=16|49=EXC|56=007|52=20190530-14:41:53.000|10=212|
8=FIX.4.4|9=60|35=0|34=16|49=007|50=007B26|52=20190530-14:41:53.562|56=EXC|10=102|
8=FIX.4.4|9=0050|35=0|34=17|49=EXC|56=007|52=20190530-14:42:23.000|10=211|
8=FIX.4.4|9=60|35=0|34=17|49=007|50=007B26|52=20190530-14:42:23.558|56=EXC|10=106|
8=FIX.4.4|9=0050|35=0|34=18|49=EXC|56=007|52=20190530-14:42:53.000|10=215|
8=FIX.4.4|9=60|35=0|34=18|49=007|50=007B26|52=20190530-14:42:53.557|56=EXC|10=109|
8=FIX.4.4|9=0050|35=0|34=19|49=EXC|56=007|52=20190530-14:43:23.000|10=214|
8=FIX.4.4|9=60|35=0|34=19|49=007|50=007B26|52=20190530-14:43:23.564|56=EXC|10=106|
8=FIX.4.4|9=0050|35=0|34=20|49=EXC|56=007|52=20190530-14:43:53.000|10=209|
8=FIX.4.4|9=60|35=0|34=20|49=007|50=007B26|52=20190530-14:43:53.559|56=EXC|10=105|
8=FIX.4.4|9=0050|35=0|34=21|49=EXC|56=007|52=20190530-14:44:23.000|10=208|
8=FIX.4.4|9=60|35=0|34=21|49=007|50=007B26|52=20190530-14:44:23.557|56=EXC|10=102|
8=FIX.4.4|9=0050|35=0|34=22|49=EXC|56=007|52=20190530-14:44:53.000|10=212|
8=FIX.4.4|9=60|35=0|34=22|49=007|50=007B26|52=20190530-14:44:53.558|56=EXC|10=107|
8=FIX.4.4|9=0050|35=0|34=23|49=EXC|56=007|52=20190530-14:45:23.000|10=211|
8=FIX.4.4|9=60|35=0|34=23|49=007|50=007B26|52=20190530-14:45:23.573|56=EXC|10=103|
8=FIX.4.4|9=0050|35=0|34=24|49=EXC|56=007|52=20190530-14:45:53.000|10=215|
8=FIX.4.4|9=60|35=0|34=24|49=007|50=007B26|52=20190530-14:45:53.567|56=EXC|10=110|
8=FIX.4.4|9=0050|35=0|34=25|49=EXC|56=007|52=20190530-14:46:23.000|10=214|
8=FIX.4.4|9=60|35=0|34=25|49=007|50=007B26|52=20190530-14:46:23.577|56=EXC|10=110|
8=FIX.4.4|9=0050|35=0|34=26|49=EXC|56=007|52=20190530-14:46:53.000|10=218|
8=FIX.4.4|9=60|35=0|34=26|49=007|50=007B26|52=20190530-14:46:54.570|56=EXC|10=108|
8=FIX.4.4|9=0050|35=0|34=27|49=EXC|56=007|52=20190530-14:47:23.000|10=217|
8=FIX.4.4|9=60|35=0|34=27|49=007|50=007B26|52=20190530-14:47:24.561|56=EXC|10=107|
8=FIX.4.4|9=0050|35=0|34=28|49=EXC|56=007|52=20190530-14:47:53.000|10=221|
8=FIX.4.4|9=60|35=0|34=28|49=007|50=007B26|52=20190530-14:47:54.570|56=EXC|10=111|
8=FIX.4.4|9=0050|35=0|34=29|49=EXC|56=007|52=20190530-14:48:23.000|10=220|
8=FIX.4.4|9=60|35=0|34=29|49=007|50=007B26|52=20190530-14:48:24.564|56=EXC|10=113|
8=FIX.4.4|9=0050|35=0|34=30|49=EXC|56=007|52=20190530-14:48:53.000|10=215|
8=FIX.4.4|9=60|35=0|34=30|49=007|50=007B26|52=20190530-14:48:54.556|56=EXC|10=109|
8=FIX.4.4|9=0050|35=0|34=31|49=EXC|56=007|52=20190530-14:49:23.000|10=214|
8=FIX.4.4|9=60|35=0|34=31|49=007|50=007B26|52=20190530-14:49:24.555|56=EXC|10=107|
8=FIX.4.4|9=0050|35=0|34=32|49=EXC|56=007|52=20190530-14:49:53.000|10=218|
8=FIX.4.4|9=60|35=0|34=32|49=007|50=007B26|52=20190530-14:49:54.562|56=EXC|10=109|
8=FIX.4.4|9=0050|35=0|34=33|49=EXC|56=007|52=20190530-14:50:23.000|10=208|
8=FIX.4.4|9=60|35=0|34=33|49=007|50=007B26|52=20190530-14:50:24.563|56=EXC|10=100|
8=FIX.4.4|9=0050|35=0|34=34|49=EXC|56=007|52=20190530-14:50:53.000|10=212|
8=FIX.4.4|9=60|35=0|34=34|49=007|50=007B26|52=20190530-14:50:54.557|56=EXC|10=107|
8=FIX.4.4|9=0050|35=0|34=35|49=EXC|56=007|52=20190530-14:51:23.000|10=211|
8=FIX.4.4|9=60|35=0|34=35|49=007|50=007B26|52=20190530-14:51:24.558|56=EXC|10=107|
8=FIX.4.4|9=0050|35=0|34=36|49=EXC|56=007|52=20190530-14:51:53.000|10=215|
8=FIX.4.4|9=60|35=0|34=36|49=007|50=007B26|52=20190530-14:51:54.560|56=EXC|10=104|
8=FIX.4.4|9=0050|35=0|34=37|49=EXC|56=007|52=20190530-14:52:23.000|10=214|
8=FIX.4.4|9=60|35=0|34=37|49=007|50=007B26|52=20190530-14:52:24.568|56=EXC|10=111|
8=FIX.4.4|9=0050|35=0|34=38|49=EXC|56=007|52=20190530-14:52:53.000|10=218|
8=FIX.4.4|9=60|35=0|34=38|49=007|50=007B26|52=20190530-14:52:54.559|56=EXC|10=115|
8=FIX.4.4|9=0050|35=0|34=39|49=EXC|56=007|52=20190530-14:53:23.000|10=217|
8=FIX.4.4|9=60|35=0|34=39|49=007|50=007B26|52=20190530-14:53:24.558|56=EXC|10=113|
8=FIX.4.4|9=0050|35=0|34=40|49=EXC|56=007|52=20190530-14:53:53.000|10=212|
8=FIX.4.4|9=60|35=0|34=40|49=007|50=007B26|52=20190530-14:53:54.561|56=EXC|10=102|
8=FIX.4.4|9=0050|35=0|34=41|49=EXC|56=007|52=20190530-14:54:23.000|10=211|
8=FIX.4.4|9=60|35=0|34=41|49=007|50=007B26|52=20190530-14:54:24.568|56=EXC|10=108|
8=FIX.4.4|9=0050|35=0|34=42|49=EXC|56=007|52=20190530-14:54:53.000|10=215|
8=FIX.4.4|9=60|35=0|34=42|49=007|50=007B26|52=20190530-14:54:54.567|56=EXC|10=111|
8=FIX.4.4|9=0050|35=0|34=43|49=EXC|56=007|52=20190530-14:55:23.000|10=214|
8=FIX.4.4|9=60|35=0|34=43|49=007|50=007B26|52=20190530-14:55:24.562|56=EXC|10=105|
8=FIX.4.4|9=0050|35=0|34=44|49=EXC|56=007|52=20190530-14:55:53.000|10=218|
8=FIX.4.4|9=60|35=0|34=44|49=007|50=007B26|52=20190530-14:55:54.566|56=EXC|10=113|
8=FIX.4.4|9=0050|35=0|34=45|49=EXC|56=007|52=20190530-14:56:23.000|10=217|
8=FIX.4.4|9=60|35=0|34=45|49=007|50=007B26|52=20190530-14:56:24.568|56=EXC|10=114|
8=FIX.4.4|9=0050|35=0|34=46|49=EXC|56=007|52=20190530-14:56:53.000|10=221|
8=FIX.4.4|9=60|35=0|34=46|49=007|50=007B26|52=20190530-14:56:54.574|56=EXC|10=115|
8=FIX.4.4|9=0050|35=0|34=47|49=EXC|56=007|52=20190530-14:57:23.000|10=220|
8=FIX.4.4|9=60|35=0|34=47|49=007|50=007B26|52=20190530-14:57:24.566|56=EXC|10=115|
8=FIX.4.4|9=0050|35=0|34=48|49=EXC|56=007|52=20190530-14:57:53.000|10=224|
8=FIX.4.4|9=60|35=0|34=48|49=007|50=007B26|52=20190530-14:57:54.557|56=EXC|10=119|
8=FIX.4.4|9=0050|35=0|34=49|49=EXC|56=007|52=20190530-14:58:23.000|10=223|
8=FIX.4.4|9=60|35=0|34=49|49=007|50=007B26|52=20190530-14:58:24.570|56=EXC|10=113|
8=FIX.4.4|9=0050|35=0|34=50|49=EXC|56=007|52=20190530-14:58:53.000|10=218|
8=FIX.4.4|9=60|35=0|34=50|49=007|50=007B26|52=20190530-14:58:55.568|56=EXC|10=116|
8=FIX.4.4|9=0050|35=0|34=51|49=EXC|56=007|52=20190530-14:59:23.000|10=217|
8=FIX.4.4|9=60|35=0|34=51|49=007|50=007B26|52=20190530-14:59:25.559|56=EXC|10=115|
8=FIX.4.4|9=0050|35=0|34=52|49=EXC|56=007|52=20190530-14:59:53.000|10=221|
8=FIX.4.4|9=60|35=0|34=52|49=007|50=007B26|52=20190530-14:59:55.568|56=EXC|10=119|
8=FIX.4.4|9=0050|35=0|34=53|49=EXC|56=007|52=20190530-15:00:23.000|10=206|
8=FIX.4.4|9=60|35=0|34=53|49=007|50=007B26|52=20190530-15:00:25.561|56=EXC|10=097|
8=FIX.4.4|9=0050|35=0|34=54|49=EXC|56=007|52=20190530-15:00:53.000|10=210|
8=FIX.4.4|9=60|35=0|34=54|49=007|50=007B26|52=20190530-15:00:55.561|56=EXC|10=101|
8=FIX.4.4|9=0050|35=0|34=55|49=EXC|56=007|52=20190530-15:01:23.000|10=209|
8=FIX.4.4|9=60|35=0|34=55|49=007|50=007B26|52=20190530-15:01:25.564|56=EXC|10=103|
8=FIX.4.4|9=0050|35=0|34=56|49=EXC|56=007|52=20190530-15:01:53.000|10=213|
8=FIX.4.4|9=60|35=0|34=56|49=007|50=007B26|52=20190530-15:01:55.555|56=EXC|10=107|
8=FIX.4.4|9=0050|35=0|34=57|49=EXC|56=007|52=20190530-15:02:23.000|10=212|
8=FIX.4.4|9=60|35=0|34=57|49=007|50=007B26|52=20190530-15:02:25.555|56=EXC|10=106|
8=FIX.4.4|9=0050|35=0|34=58|49=EXC|56=007|52=20190530-15:02:53.000|10=216|
8=FIX.4.4|9=60|35=0|34=58|49=007|50=007B26|52=20190530-15:02:55.561|56=EXC|10=107|
8=FIX.4.4|9=0050|35=0|34=59|49=EXC|56=007|52=20190530-15:03:23.000|10=215|
8=FIX.4.4|9=60|35=0|34=59|49=007|50=007B26|52=20190530-15:03:25.567|56=EXC|10=112|
8=FIX.4.4|9=0050|35=0|34=60|49=EXC|56=007|52=20190530-15:03:53.000|10=210|
8=FIX.4.4|9=60|35=0|34=60|49=007|50=007B26|52=20190530-15:03:55.569|56=EXC|10=109|
8=FIX.4.4|9=0050|35=0|34=61|49=EXC|56=007|52=20190530-15:04:23.000|10=209|
8=FIX.4.4|9=60|35=0|34=61|49=007|50=007B26|52=20190530-15:04:25.560|56=EXC|10=099|
8=FIX.4.4|9=0050|35=0|34=62|49=EXC|56=007|52=20190530-15:04:53.000|10=213|
8=FIX.4.4|9=60|35=0|34=62|49=007|50=007B26|52=20190530-15:04:55.555|56=EXC|10=107|
8=FIX.4.4|9=0050|35=0|34=63|49=EXC|56=007|52=20190530-15:05:23.000|10=212|
8=FIX.4.4|9=60|35=0|34=63|49=007|50=007B26|52=20190530-15:05:25.564|56=EXC|10=106|
8=FIX.4.4|9=0050|35=0|34=64|49=EXC|56=007|52=20190530-15:05:53.000|10=216|
8=FIX.4.4|9=60|35=0|34=64|49=007|50=007B26|52=20190530-15:05:55.567|56=EXC|10=113|
8=FIX.4.4|9=0050|35=0|34=65|49=EXC|56=007|52=20190530-15:06:23.000|10=215|
8=FIX.4.4|9=60|35=0|34=65|49=007|50=007B26|52=20190530-15:06:26.559|56=EXC|10=114|
8=FIX.4.4|9=0050|35=0|34=66|49=EXC|56=007|52=20190530-15:06:53.000|10=219|
8=FIX.4.4|9=60|35=0|34=66|49=007|50=007B26|52=20190530-15:06:56.555|56=EXC|10=114|
8=FIX.4.4|9=0050|35=0|34=67|49=EXC|56=007|52=20190530-15:07:23.000|10=218|
8=FIX.4.4|9=60|35=0|34=67|49=007|50=007B26|52=20190530-15:07:26.555|56=EXC|10=113|
8=FIX.4.4|9=0050|35=0|34=68|49=EXC|56=007|52=20190530-15:07:53.000|10=222|
8=FIX.4.4|9=60|35=0|34=68|49=007|50=007B26|52=20190530-15:07:56.555|56=EXC|10=117|
8=FIX.4.4|9=0050|35=0|34=69|49=EXC|56=007|52=20190530-15:08:23.000|10=221|
8=FIX.4.4|9=60|35=0|34=69|49=007|50=007B26|52=20190530-15:08:26.553|56=EXC|10=114|
8=FIX.4.4|9=0050|35=0|34=70|49=EXC|56=007|52=20190530-15:08:53.000|10=216|
8=FIX.4.4|9=60|35=0|34=70|49=007|50=007B26|52=20190530-15:08:56.561|56=EXC|10=108|
8=FIX.4.4|9=0050|35=0|34=71|49=EXC|56=007|52=20190530-15:09:23.000|10=215|
8=FIX.4.4|9=60|35=0|34=71|49=007|50=007B26|52=20190530-15:09:26.558|56=EXC|10=113|
8=FIX.4.4|9=0050|35=0|34=72|49=EXC|56=007|52=20190530-15:09:53.000|10=219|
8=FIX.4.4|9=60|35=0|34=72|49=007|50=007B26|52=20190530-15:09:56.552|56=EXC|10=111|
8=FIX.4.4|9=0050|35=0|34=73|49=EXC|56=007|52=20190530-15:10:23.000|10=209|
8=FIX.4.4|9=60|35=0|34=73|49=007|50=007B26|52=20190530-15:10:26.563|56=EXC|10=103|
8=FIX.4.4|9=0050|35=0|34=74|49=EXC|56=007|52=20190530-15:10:53.000|10=213|
8=FIX.4.4|9=60|35=0|34=74|49=007|50=007B26|52=20190530-15:10:56.571|56=EXC|10=106|
8=FIX.4.4|9=0050|35=0|34=75|49=EXC|56=007|52=20190530-15:11:23.000|10=212|
8=FIX.4.4|9=60|35=0|34=75|49=007|50=007B26|52=20190530-15:11:27.554|56=EXC|10=107|
8=FIX.4.4|9=0050|35=0|34=76|49=EXC|56=007|52=20190530-15:11:53.000|10=216|
8=FIX.4.4|9=60|35=0|34=76|49=007|50=007B26|52=20190530-15:11:57.551|56=EXC|10=108|
8=FIX.4.4|9=0050|35=0|34=77|49=EXC|56=007|52=20190530-15:12:23.000|10=215|
8=FIX.4.4|9=60|35=0|34=77|49=007|50=007B26|52=20190530-15:12:27.557|56=EXC|10=113|
8=FIX.4.4|9=0050|35=0|34=78|49=EXC|56=007|52=20190530-15:12:53.000|10=219|
8=FIX.4.4|9=60|35=0|34=78|49=007|50=007B26|52=20190530-15:12:57.553|56=EXC|10=113|
8=FIX.4.4|9=0050|35=0|34=79|49=EXC|56=007|52=20190530-15:13:23.000|10=218|
8=FIX.4.4|9=60|35=0|34=79|49=007|50=007B26|52=20190530-15:13:27.572|56=EXC|10=113|
8=FIX.4.4|9=0050|35=0|34=80|49=EXC|56=007|52=20190530-15:13:53.000|10=213|
8=FIX.4.4|9=60|35=0|34=80|49=007|50=007B26|52=20190530-15:13:57.568|56=EXC|10=113|
8=FIX.4.4|9=0050|35=0|34=81|49=EXC|56=007|52=20190530-15:14:23.000|10=212|
8=FIX.4.4|9=60|35=0|34=81|49=007|50=007B26|52=20190530-15:14:27.562|56=EXC|10=106|
8=FIX.4.4|9=0050|35=0|34=82|49=EXC|56=007|52=20190530-15:14:53.000|10=216|
8=FIX.4.4|9=60|35=0|34=82|49=007|50=007B26|52=20190530-15:14:58.552|56=EXC|10=110|
8=FIX.4.4|9=0050|35=0|34=83|49=EXC|56=007|52=20190530-15:15:23.000|10=215|
8=FIX.4.4|9=60|35=0|34=83|49=007|50=007B26|52=20190530-15:15:28.551|56=EXC|10=108|
8=FIX.4.4|9=0050|35=0|34=84|49=EXC|56=007|52=20190530-15:15:53.000|10=219|
8=FIX.4.4|9=60|35=0|34=84|49=007|50=007B26|52=20190530-15:15:58.559|56=EXC|10=120|
8=FIX.4.4|9=0050|35=0|34=85|49=EXC|56=007|52=20190530-15:16:23.000|10=218|
8=FIX.4.4|9=60|35=0|34=85|49=007|50=007B26|52=20190530-15:16:28.555|56=EXC|10=115|
8=FIX.4.4|9=0050|35=0|34=86|49=EXC|56=007|52=20190530-15:16:53.000|10=222|
8=FIX.4.4|9=60|35=0|34=86|49=007|50=007B26|52=20190530-15:16:58.557|56=EXC|10=121|
8=FIX.4.4|9=0050|35=0|34=87|49=EXC|56=007|52=20190530-15:17:23.000|10=221|
8=FIX.4.4|9=60|35=0|34=87|49=007|50=007B26|52=20190530-15:17:28.560|56=EXC|10=114|
8=FIX.4.4|9=0050|35=0|34=88|49=EXC|56=007|52=20190530-15:17:53.000|10=225|
8=FIX.4.4|9=60|35=0|34=88|49=007|50=007B26|52=20190530-15:17:58.561|56=EXC|10=119|
8=FIX.4.4|9=0050|35=0|34=89|49=EXC|56=007|52=20190530-15:18:23.000|10=224|
8=FIX.4.4|9=60|35=0|34=89|49=007|50=007B26|52=20190530-15:18:28.552|56=EXC|10=118|
8=FIX.4.4|9=0050|35=0|34=90|49=EXC|56=007|52=20190530-15:18:53.000|10=219|
8=FIX.4.4|9=60|35=0|34=90|49=007|50=007B26|52=20190530-15:18:58.553|56=EXC|10=114|
8=FIX.4.4|9=0050|35=0|34=91|49=EXC|56=007|52=20190530-15:19:23.000|10=218|
8=FIX.4.4|9=60|35=0|34=91|49=007|50=007B26|52=20190530-15:19:28.563|56=EXC|10=114|
8=FIX.4.4|9=0050|35=0|34=92|49=EXC|56=007|52=20190530-15:19:53.000|10=222|
8=FIX.4.4|9=60|35=0|34=92|49=007|50=007B26|52=20190530-15:19:58.555|56=EXC|10=119|
8=FIX.4.4|9=0050|35=0|34=93|49=EXC|56=007|52=20190530-15:20:23.000|10=212|
8=FIX.4.4|9=60|35=0|34=93|49=007|50=007B26|52=20190530-15:20:28.563|56=EXC|10=108|
8=FIX.4.4|9=0050|35=0|34=94|49=EXC|56=007|52=20190530-15:20:53.000|10=216|
8=FIX.4.4|9=60|35=0|34=94|49=007|50=007B26|52=20190530-15:20:58.555|56=EXC|10=113|
8=FIX.4.4|9=0050|35=0|34=95|49=EXC|56=007|52=20190530-15:21:23.000|10=215|
8=FIX.4.4|9=60|35=0|34=95|49=007|50=007B26|52=20190530-15:21:28.551|56=EXC|10=108|
8=FIX.4.4|9=0050|35=0|34=96|49=EXC|56=007|52=20190530-15:21:53.000|10=219|
8=FIX.4.4|9=60|35=0|34=96|49=007|50=007B26|52=20190530-15:21:58.559|56=EXC|10=120|
8=FIX.4.4|9=0050|35=0|34=97|49=EXC|56=007|52=20190530-15:22:23.000|10=218|
8=FIX.4.4|9=60|35=0|34=97|49=007|50=007B26|52=20190530-15:22:28.563|56=EXC|10=114|
8=FIX.4.4|9=0050|35=0|34=98|49=EXC|56=007|52=20190530-15:22:53.000|10=222|
8=FIX.4.4|9=60|35=0|34=98|49=007|50=007B26|52=20190530-15:22:58.566|56=EXC|10=121|
8=FIX.4.4|9=0050|35=0|34=99|49=EXC|56=007|52=20190530-15:23:23.000|10=221|
8=FIX.4.4|9=60|35=0|34=99|49=007|50=007B26|52=20190530-15:23:28.560|56=EXC|10=114|
8=FIX.4.4|9=0051|35=0|34=100|49=EXC|56=007|52=20190530-15:23:53.000|10=000|
8=FIX.4.4|9=61|35=0|34=100|49=007|50=007B26|52=20190530-15:23:58.556|56=EXC|10=154|
8=FIX.4.4|9=0051|35=0|34=101|49=EXC|56=007|52=20190530-15:24:23.000|10=255|
8=FIX.4.4|9=61|35=0|34=101|49=007|50=007B26|52=20190530-15:24:28.550|56=EXC|10=147|
8=FIX.4.4|9=0051|35=0|34=102|49=EXC|56=007|52=20190530-15:24:53.000|10=003|
8=FIX.4.4|9=61|35=0|34=102|49=007|50=007B26|52=20190530-15:24:58.558|56=EXC|10=159|
8=FIX.4.4|9=0051|35=0|34=103|49=EXC|56=007|52=20190530-15:25:23.000|10=002|
8=FIX.4.4|9=61|35=0|34=103|49=007|50=007B26|52=20190530-15:25:28.553|56=EXC|10=153|
8=FIX.4.4|9=0051|35=0|34=104|49=EXC|56=007|52=20190530-15:25:53.000|10=006|
8=FIX.4.4|9=61|35=0|34=104|49=007|50=007B26|52=20190530-15:25:58.564|56=EXC|10=159|
8=FIX.4.4|9=0051|35=0|34=105|49=EXC|56=007|52=20190530-15:26:23.000|10=005|
8=FIX.4.4|9=61|35=0|34=105|49=007|50=007B26|52=20190530-15:26:28.561|56=EXC|10=155|
8=FIX.4.4|9=0051|35=0|34=106|49=EXC|56=007|52=20190530-15:26:53.000|10=009|
8=FIX.4.4|9=61|35=0|34=106|49=007|50=007B26|52=20190530-15:26:59.551|56=EXC|10=159|
8=FIX.4.4|9=0051|35=0|34=107|49=EXC|56=007|52=20190530-15:27:23.000|10=008|
8=FIX.4.4|9=61|35=0|34=107|49=007|50=007B26|52=20190530-15:27:29.561|56=EXC|10=159|
8=FIX.4.4|9=0051|35=0|34=108|49=EXC|56=007|52=20190530-15:27:53.000|10=012|
8=FIX.4.4|9=61|35=0|34=108|49=007|50=007B26|52=20190530-15:28:00.551|56=EXC|10=149|
8=FIX.4.4|9=0051|35=0|34=109|49=EXC|56=007|52=20190530-15:28:23.000|10=011|
8=FIX.4.4|9=61|35=0|34=109|49=007|50=007B26|52=20190530-15:28:30.561|56=EXC|10=154|
8=FIX.4.4|9=0051|35=0|34=110|49=EXC|56=007|52=20190530-15:28:53.000|10=006|
8=FIX.4.4|9=61|35=0|34=110|49=007|50=007B26|52=20190530-15:29:00.564|56=EXC|10=147|
8=FIX.4.4|9=0051|35=0|34=111|49=EXC|56=007|52=20190530-15:29:23.000|10=005|
8=FIX.4.4|9=61|35=0|34=111|49=007|50=007B26|52=20190530-15:29:30.560|56=EXC|10=147|
8=FIX.4.4|9=0051|35=0|34=112|49=EXC|56=007|52=20190530-15:29:53.000|10=009|
8=FIX.4.4|9=61|35=0|34=112|49=007|50=007B26|52=20190530-15:30:00.558|56=EXC|10=144|
8=FIX.4.4|9=0051|35=0|34=113|49=EXC|56=007|52=20190530-15:30:23.000|10=255|
8=FIX.4.4|9=61|35=0|34=113|49=007|50=007B26|52=20190530-15:30:30.558|56=EXC|10=148|
8=FIX.4.4|9=0051|35=0|34=114|49=EXC|56=007|52=20190530-15:30:53.000|10=003|
8=FIX.4.4|9=61|35=0|34=114|49=007|50=007B26|52=20190530-15:31:00.553|56=EXC|10=142|
8=FIX.4.4|9=0051|35=0|34=115|49=EXC|56=007|52=20190530-15:31:23.000|10=002|
8=FIX.4.4|9=61|35=0|34=115|49=007|50=007B26|52=20190530-15:31:30.563|56=EXC|10=147|
8=FIX.4.4|9=0051|35=0|34=116|49=EXC|56=007|52=20190530-15:31:53.000|10=006|
8=FIX.4.4|9=61|35=0|34=116|49=007|50=007B26|52=20190530-15:32:00.564|56=EXC|10=147|
8=FIX.4.4|9=0051|35=0|34=117|49=EXC|56=007|52=20190530-15:32:23.000|10=005|
8=FIX.4.4|9=61|35=0|34=117|49=007|50=007B26|52=20190530-15:32:30.570|56=EXC|10=148|
8=FIX.4.4|9=0051|35=0|34=118|49=EXC|56=007|52=20190530-15:32:53.000|10=009|
8=FIX.4.4|9=61|35=0|34=118|49=007|50=007B26|52=20190530-15:33:01.562|56=EXC|10=149|
8=FIX.4.4|9=0051|35=0|34=119|49=EXC|56=007|52=20190530-15:33:23.000|10=008|
8=FIX.4.4|9=61|35=0|34=119|49=007|50=007B26|52=20190530-15:33:31.564|56=EXC|10=155|
8=FIX.4.4|9=0051|35=0|34=120|49=EXC|56=007|52=20190530-15:33:53.000|10=003|
8=FIX.4.4|9=61|35=0|34=120|49=007|50=007B26|52=20190530-15:34:02.556|56=EXC|10=147|
8=FIX.4.4|9=0051|35=0|34=121|49=EXC|56=007|52=20190530-15:34:23.000|10=002|
8=FIX.4.4|9=61|35=0|34=121|49=007|50=007B26|52=20190530-15:34:32.555|56=EXC|10=150|
8=FIX.4.4|9=0051|35=0|34=122|49=EXC|56=007|52=20190530-15:34:53.000|10=006|
8=FIX.4.4|9=61|35=0|34=122|49=007|50=007B26|52=20190530-15:35:02.551|56=EXC|10=145|
8=FIX.4.4|9=0051|35=0|34=123|49=EXC|56=007|52=20190530-15:35:23.000|10=005|
8=FIX.4.4|9=61|35=0|34=123|49=007|50=007B26|52=20190530-15:35:32.558|56=EXC|10=156|
8=FIX.4.4|9=0051|35=0|34=124|49=EXC|56=007|52=20190530-15:35:53.000|10=009|
8=FIX.4.4|9=61|35=0|34=124|49=007|50=007B26|52=20190530-15:36:02.565|56=EXC|10=153|
8=FIX.4.4|9=0051|35=0|34=125|49=EXC|56=007|52=20190530-15:36:23.000|10=008|
8=FIX.4.4|9=61|35=0|34=125|49=007|50=007B26|52=20190530-15:36:33.556|56=EXC|10=158|
8=FIX.4.4|9=0051|35=0|34=126|49=EXC|56=007|52=20190530-15:36:53.000|10=012|
8=FIX.4.4|9=61|35=0|34=126|49=007|50=007B26|52=20190530-15:37:03.553|56=EXC|10=154|
8=FIX.4.4|9=0051|35=0|34=127|49=EXC|56=007|52=20190530-15:37:23.000|10=011|
8=FIX.4.4|9=61|35=0|34=127|49=007|50=007B26|52=20190530-15:37:33.556|56=EXC|10=161|
8=FIX.4.4|9=0051|35=0|34=128|49=EXC|56=007|52=20190530-15:37:53.000|10=015|
8=FIX.4.4|9=61|35=0|34=128|49=007|50=007B26|52=20190530-15:38:03.563|56=EXC|10=158|
8=FIX.4.4|9=0051|35=0|34=129|49=EXC|56=007|52=20190530-15:38:23.000|10=014|
8=FIX.4.4|9=61|35=0|34=129|49=007|50=007B26|52=20190530-15:38:33.560|56=EXC|10=159|
8=FIX.4.4|9=0051|35=0|34=130|49=EXC|56=007|52=20190530-15:38:53.000|10=009|
8=FIX.4.4|9=61|35=0|34=130|49=007|50=007B26|52=20190530-15:39:03.565|56=EXC|10=154|
8=FIX.4.4|9=0051|35=0|34=131|49=EXC|56=007|52=20190530-15:39:23.000|10=008|
8=FIX.4.4|9=61|35=0|34=131|49=007|50=007B26|52=20190530-15:39:34.552|56=EXC|10=155|
8=FIX.4.4|9=0051|35=0|34=132|49=EXC|56=007|52=20190530-15:39:53.000|10=012|
8=FIX.4.4|9=61|35=0|34=132|49=007|50=007B26|52=20190530-15:40:04.566|56=EXC|10=150|
8=FIX.4.4|9=0051|35=0|34=133|49=EXC|56=007|52=20190530-15:40:23.000|10=002|
8=FIX.4.4|9=61|35=0|34=133|49=007|50=007B26|52=20190530-15:40:34.566|56=EXC|10=154|
8=FIX.4.4|9=0051|35=0|34=134|49=EXC|56=007|52=20190530-15:40:53.000|10=006|
8=FIX.4.4|9=61|35=0|34=134|49=007|50=007B26|52=20190530-15:41:05.569|56=EXC|10=157|
8=FIX.4.4|9=0051|35=0|34=135|49=EXC|56=007|52=20190530-15:41:23.000|10=005|
8=FIX.4.4|9=61|35=0|34=135|49=007|50=007B26|52=20190530-15:41:35.561|56=EXC|10=153|
8=FIX.4.4|9=0051|35=0|34=136|49=EXC|56=007|52=20190530-15:41:53.000|10=009|
8=FIX.4.4|9=61|35=0|34=136|49=007|50=007B26|52=20190530-15:42:05.564|56=EXC|10=155|
8=FIX.4.4|9=0051|35=0|34=137|49=EXC|56=007|52=20190530-15:42:23.000|10=008|
8=FIX.4.4|9=61|35=0|34=137|49=007|50=007B26|52=20190530-15:42:35.563|56=EXC|10=158|
8=FIX.4.4|9=0051|35=0|34=138|49=EXC|56=007|52=20190530-15:42:53.000|10=012|
8=FIX.4.4|9=61|35=0|34=138|49=007|50=007B26|52=20190530-15:43:05.565|56=EXC|10=159|
8=FIX.4.4|9=0051|35=0|34=139|49=EXC|56=007|52=20190530-15:43:23.000|10=011|
8=FIX.4.4|9=61|35=0|34=139|49=007|50=007B26|52=20190530-15:43:35.557|56=EXC|10=164|
8=FIX.4.4|9=0051|35=0|34=140|49=EXC|56=007|52=20190530-15:43:53.000|10=006|
8=FIX.4.4|9=61|35=0|34=140|49=007|50=007B26|52=20190530-15:44:05.559|56=EXC|10=156|
8=FIX.4.4|9=0051|35=0|34=141|49=EXC|56=007|52=20190530-15:44:23.000|10=005|
8=FIX.4.4|9=61|35=0|34=141|49=007|50=007B26|52=20190530-15:44:35.559|56=EXC|10=160|
8=FIX.4.4|9=0051|35=0|34=142|49=EXC|56=007|52=20190530-15:44:53.000|10=009|
8=FIX.4.4|9=61|35=0|34=142|49=007|50=007B26|52=20190530-15:45:05.551|56=EXC|10=151|
8=FIX.4.4|9=0051|35=0|34=143|49=EXC|56=007|52=20190530-15:45:23.000|10=008|
8=FIX.4.4|9=61|35=0|34=143|49=007|50=007B26|52=20190530-15:45:35.555|56=EXC|10=159|
8=FIX.4.4|9=0051|35=0|34=144|49=EXC|56=007|52=20190530-15:45:53.000|10=012|
8=FIX.4.4|9=61|35=0|34=144|49=007|50=007B26|52=20190530-15:46:05.558|56=EXC|10=161|
8=FIX.4.4|9=0051|35=0|34=145|49=EXC|56=007|52=20190530-15:46:23.000|10=011|
8=FIX.4.4|9=61|35=0|34=145|49=007|50=007B26|52=20190530-15:46:35.557|56=EXC|10=164|
8=FIX.4.4|9=0051|35=0|34=146|49=EXC|56=007|52=20190530-15:46:53.000|10=015|
8=FIX.4.4|9=61|35=0|34=146|49=007|50=007B26|52=20190530-15:47:05.554|56=EXC|10=160|
8=FIX.4.4|9=0051|35=0|34=147|49=EXC|56=007|52=20190530-15:47:23.000|10=014|
8=FIX.4.4|9=61|35=0|34=147|49=007|50=007B26|52=20190530-15:47:35.558|56=EXC|10=168|
8=FIX.4.4|9=0051|35=0|34=148|49=EXC|56=007|52=20190530-15:47:53.000|10=018|
8=FIX.4.4|9=61|35=0|34=148|49=007|50=007B26|52=20190530-15:48:05.563|56=EXC|10=163|
8=FIX.4.4|9=0051|35=0|34=149|49=EXC|56=007|52=20190530-15:48:23.000|10=017|
8=FIX.4.4|9=61|35=0|34=149|49=007|50=007B26|52=20190530-15:48:35.556|56=EXC|10=169|
8=FIX.4.4|9=0051|35=0|34=150|49=EXC|56=007|52=20190530-15:48:53.000|10=012|
8=FIX.4.4|9=61|35=0|34=150|49=007|50=007B26|52=20190530-15:49:05.565|56=EXC|10=159|
8=FIX.4.4|9=0051|35=0|34=151|49=EXC|56=007|52=20190530-15:49:23.000|10=011|
8=FIX.4.4|9=61|35=0|34=151|49=007|50=007B26|52=20190530-15:49:36.565|56=EXC|10=164|
8=FIX.4.4|9=0051|35=0|34=152|49=EXC|56=007|52=20190530-15:49:53.000|10=015|
8=FIX.4.4|9=61|35=0|34=152|49=007|50=007B26|52=20190530-15:50:06.564|56=EXC|10=153|
8=FIX.4.4|9=0051|35=0|34=153|49=EXC|56=007|52=20190530-15:50:23.000|10=005|
8=FIX.4.4|9=61|35=0|34=153|49=007|50=007B26|52=20190530-15:50:36.563|56=EXC|10=156|
8=FIX.4.4|9=0051|35=0|34=154|49=EXC|56=007|52=20190530-15:50:53.000|10=009|
8=FIX.4.4|9=61|35=0|34=154|49=007|50=007B26|52=20190530-15:51:07.554|56=EXC|10=156|
8=FIX.4.4|9=0051|35=0|34=155|49=EXC|56=007|52=20190530-15:51:23.000|10=008|
8=FIX.4.4|9=61|35=0|34=155|49=007|50=007B26|52=20190530-15:51:37.555|56=EXC|10=161|
8=FIX.4.4|9=0051|35=0|34=156|49=EXC|56=007|52=20190530-15:51:53.000|10=012|
8=FIX.4.4|9=61|35=0|34=156|49=007|50=007B26|52=20190530-15:52:07.551|56=EXC|10=156|
8=FIX.4.4|9=0051|35=0|34=157|49=EXC|56=007|52=20190530-15:52:23.000|10=011|
8=FIX.4.4|9=61|35=0|34=157|49=007|50=007B26|52=20190530-15:52:37.555|56=EXC|10=164|
8=FIX.4.4|9=0051|35=0|34=158|49=EXC|56=007|52=20190530-15:52:53.000|10=015|
8=FIX.4.4|9=61|35=0|34=158|49=007|50=007B26|52=20190530-15:53:07.571|56=EXC|10=161|
8=FIX.4.4|9=0051|35=0|34=159|49=EXC|56=007|52=20190530-15:53:23.000|10=014|
8=FIX.4.4|9=61|35=0|34=159|49=007|50=007B26|52=20190530-15:53:38.560|56=EXC|10=164|
8=FIX.4.4|9=0051|35=0|34=160|49=EXC|56=007|52=20190530-15:53:53.000|10=009|
8=FIX.4.4|9=61|35=0|34=160|49=007|50=007B26|52=20190530-15:54:08.562|56=EXC|10=156|
8=FIX.4.4|9=0051|35=0|34=161|49=EXC|56=007|52=20190530-15:54:23.000|10=008|
8=FIX.4.4|9=61|35=0|34=161|49=007|50=007B26|52=20190530-15:54:39.554|56=EXC|10=162|
8=FIX.4.4|9=0051|35=0|34=162|49=EXC|56=007|52=20190530-15:54:53.000|10=012|
8=FIX.4.4|9=61|35=0|34=162|49=007|50=007B26|52=20190530-15:55:09.564|56=EXC|10=162|
8=FIX.4.4|9=0051|35=0|34=163|49=EXC|56=007|52=20190530-15:55:23.000|10=011|
8=FIX.4.4|9=61|35=0|34=163|49=007|50=007B26|52=20190530-15:55:39.564|56=EXC|10=166|
8=FIX.4.4|9=0051|35=0|34=164|49=EXC|56=007|52=20190530-15:55:53.000|10=015|
8=FIX.4.4|9=110|35=A|34=1|49=007|50=007B26|52=20190530-16:43:53.816|56=EXC|43=Y|98=0|108=30|141=Y|553=007FCE001|554=007FCE001|10=090|
8=FIX.4.4|9=0067|35=A|34=1|49=EXC|56=007|52=20190530-16:43:55.086|98=0|108=30|141=Y|10=017|
8=FIX.4.4|9=0049|35=0|34=2|49=EXC|56=007|52=20190530-16:44:25.000|10=171|
8=FIX.4.4|9=59|35=0|34=2|49=007|50=007B26|52=20190530-16:44:24.779|56=EXC|10=070|
8=FIX.4.4|9=0049|35=0|34=3|49=EXC|56=007|52=20190530-16:44:55.000|10=175|
8=FIX.4.4|9=59|35=0|34=3|49=007|50=007B26|52=20190530-16:44:54.772|56=EXC|10=067|
8=FIX.4.4|9=0049|35=0|34=4|49=EXC|56=007|52=20190530-16:45:25.000|10=174|
8=FIX.4.4|9=59|35=0|34=4|49=007|50=007B26|52=20190530-16:45:24.780|56=EXC|10=065|
8=FIX.4.4|9=110|35=A|34=1|49=007|50=007B26|52=20190530-16:45:26.781|56=EXC|43=Y|98=0|108=30|141=Y|553=007FCE001|554=007FCE001|10=093|
8=FIX.4.4|9=110|35=A|34=1|49=007|50=007B26|52=20190530-17:01:32.982|56=EXC|43=Y|98=0|108=30|141=Y|553=007FCE001|554=007FCE001|10=086|
8=FIX.4.4|9=0067|35=A|34=1|49=EXC|56=007|52=20190530-17:01:33.341|98=0|108=30|141=Y|10=002|
8=FIX.4.4|9=0049|35=0|34=2|49=EXC|56=007|52=20190530-17:02:03.000|10=162|
8=FIX.4.4|9=59|35=0|34=2|49=007|50=007B26|52=20190530-17:02:03.943|56=EXC|10=055|
8=FIX.4.4|9=0049|35=0|34=3|49=EXC|56=007|52=20190530-17:02:33.000|10=166|
8=FIX.4.4|9=59|35=0|34=3|49=007|50=007B26|52=20190530-17:02:34.935|56=EXC|10=061|
8=FIX.4.4|9=0049|35=0|34=4|49=EXC|56=007|52=20190530-17:03:03.000|10=165|
8=FIX.4.4|9=59|35=0|34=4|49=007|50=007B26|52=20190530-17:03:04.936|56=EXC|10=061|
8=FIX.4.4|9=0049|35=0|34=5|49=EXC|56=007|52=20190530-17:03:33.000|10=169|
8=FIX.4.4|9=59|35=0|34=5|49=007|50=007B26|52=20190530-17:03:34.942|56=EXC|10=062|
8=FIX.4.4|9=0049|35=0|34=6|49=EXC|56=007|52=20190530-17:04:03.000|10=168|
8=FIX.4.4|9=59|35=0|34=6|49=007|50=007B26|52=20190530-17:04:05.929|56=EXC|10=067|
8=FIX.4.4|9=0049|35=0|34=7|49=EXC|56=007|52=20190530-17:04:33.000|10=172|
8=FIX.4.4|9=59|35=0|34=7|49=007|50=007B26|52=20190530-17:04:35.935|56=EXC|10=068|
8=FIX.4.4|9=0049|35=0|34=8|49=EXC|56=007|52=20190530-17:05:03.000|10=171|
8=FIX.4.4|9=59|35=0|34=8|49=007|50=007B26|52=20190530-17:05:05.934|56=EXC|10=066|
8=FIX.4.4|9=0049|35=0|34=9|49=EXC|56=007|52=20190530-17:05:33.000|10=175|
8=FIX.4.4|9=59|35=0|34=9|49=007|50=007B26|52=20190530-17:05:35.926|56=EXC|10=071|
8=FIX.4.4|9=0050|35=0|34=10|49=EXC|56=007|52=20190530-17:06:03.000|10=205|
8=FIX.4.4|9=60|35=0|34=10|49=007|50=007B26|52=20190530-17:06:05.927|56=EXC|10=102|
8=FIX.4.4|9=0050|35=0|34=11|49=EXC|56=007|52=20190530-17:06:33.000|10=209|
8=FIX.4.4|9=60|35=0|34=11|49=007|50=007B26|52=20190530-17:06:35.931|56=EXC|10=101|
8=FIX.4.4|9=0050|35=0|34=12|49=EXC|56=007|52=20190530-17:07:03.000|10=208|
8=FIX.4.4|9=60|35=0|34=12|49=007|50=007B26|52=20190530-17:07:05.927|56=EXC|10=105|
8=FIX.4.4|9=0050|35=0|34=13|49=EXC|56=007|52=20190530-17:07:33.000|10=212|
8=FIX.4.4|9=60|35=0|34=13|49=007|50=007B26|52=20190530-17:07:35.935|56=EXC|10=108|
8=FIX.4.4|9=0050|35=0|34=14|49=EXC|56=007|52=20190530-17:08:03.000|10=211|
8=FIX.4.4|9=60|35=0|34=14|49=007|50=007B26|52=20190530-17:08:05.929|56=EXC|10=110|
8=FIX.4.4|9=0050|35=0|34=15|49=EXC|56=007|52=20190530-17:08:33.000|10=215|
8=FIX.4.4|9=60|35=0|34=15|49=007|50=007B26|52=20190530-17:08:35.941|56=EXC|10=108|
8=FIX.4.4|9=0050|35=0|34=16|49=EXC|56=007|52=20190530-17:09:03.000|10=214|
8=FIX.4.4|9=60|35=0|34=16|49=007|50=007B26|52=20190530-17:09:05.933|56=EXC|10=108|
8=FIX.4.4|9=0050|35=0|34=17|49=EXC|56=007|52=20190530-17:09:33.000|10=218|
8=FIX.4.4|9=60|35=0|34=17|49=007|50=007B26|52=20190530-17:09:35.941|56=EXC|10=111|
8=FIX.4.4|9=0050|35=0|34=18|49=EXC|56=007|52=20190530-17:10:03.000|10=208|
8=FIX.4.4|9=60|35=0|34=18|49=007|50=007B26|52=20190530-17:10:06.933|56=EXC|10=103|
8=FIX.4.4|9=0050|35=0|34=19|49=EXC|56=007|52=20190530-17:10:33.000|10=212|
8=FIX.4.4|9=60|35=0|34=19|49=007|50=007B26|52=20190530-17:10:36.926|56=EXC|10=109|
8=FIX.4.4|9=0050|35=0|34=20|49=EXC|56=007|52=20190530-17:11:03.000|10=202|
8=FIX.4.4|9=60|35=0|34=20|49=007|50=007B26|52=20190530-17:11:06.943|56=EXC|10=098|
8=FIX.4.4|9=110|35=A|34=1|49=007|50=007B26|52=20190530-17:13:02.430|56=EXC|43=Y|98=0|108=30|141=Y|553=007FCE001|554=007FCE001|10=074|
8=FIX.4.4|9=0067|35=A|34=1|49=EXC|56=007|52=20190530-17:13:02.527|98=0|108=30|141=Y|10=007|
8=FIX.4.4|9=110|35=A|34=1|49=007|50=007B26|52=20190530-17:27:42.233|56=EXC|43=Y|98=0|108=30|141=Y|553=007FCE001|554=007FCE001|10=084|
8=FIX.4.4|9=0067|35=A|34=1|49=EXC|56=007|52=20190530-17:27:42.019|98=0|108=30|141=Y|10=012|
8=FIX.4.4|9=0049|35=0|34=2|49=EXC|56=007|52=20190530-17:28:12.000|10=170|
8=FIX.4.4|9=59|35=0|34=2|49=007|50=007B26|52=20190530-17:28:12.299|56=EXC|10=067|
8=FIX.4.4|9=0049|35=0|34=3|49=EXC|56=007|52=20190530-17:28:42.000|10=174|
8=FIX.4.4|9=59|35=0|34=3|49=007|50=007B26|52=20190530-17:28:43.138|56=EXC|10=064|
8=FIX.4.4|9=110|35=A|34=1|49=007|50=007B26|52=20190530-21:57:11.070|56=EXC|43=Y|98=0|108=30|141=Y|553=007FCE001|554=007FCE001|10=077|
8=FIX.4.4|9=0067|35=A|34=1|49=EXC|56=007|52=20190530-21:57:11.322|98=0|108=30|141=Y|10=003|
8=FIX.4.4|9=0049|35=0|34=2|49=EXC|56=007|52=20190530-21:57:41.000|10=169|
8=FIX.4.4|9=59|35=0|34=2|49=007|50=007B26|52=20190530-21:57:41.822|56=EXC|10=058|
8=FIX.4.4|9=0049|35=0|34=3|49=EXC|56=007|52=20190530-21:58:11.000|10=168|
8=FIX.4.4|9=59|35=0|34=3|49=007|50=007B26|52=20190530-21:58:11.814|56=EXC|10=058|
8=FIX.4.4|9=110|35=A|34=1|49=007|50=007B26|52=20190530-22:09:04.507|56=EXC|43=Y|98=0|108=30|141=Y|553=007FCE001|554=007FCE001|10=082|
8=FIX.4.4|9=0067|35=A|34=1|49=EXC|56=007|52=20190530-22:09:04.841|98=0|108=30|141=Y|10=009|
8=FIX.4.4|9=0049|35=0|34=2|49=EXC|56=007|52=20190530-22:09:34.000|10=169|
8=FIX.4.4|9=59|35=0|34=2|49=007|50=007B26|52=20190530-22:09:35.390|56=EXC|10=059|
8=FIX.4.4|9=0049|35=0|34=3|49=EXC|56=007|52=20190530-22:10:04.000|10=159|
8=FIX.4.4|9=59|35=0|34=3|49=007|50=007B26|52=20190530-22:10:06.380|56=EXC|10=049|
8=FIX.4.4|9=0049|35=0|34=4|49=EXC|56=007|52=20190530-22:10:34.000|10=163|
8=FIX.4.4|9=59|35=0|34=4|49=007|50=007B26|52=20190530-22:10:36.380|56=EXC|10=053|
8=FIX.4.4|9=0049|35=0|34=5|49=EXC|56=007|52=20190530-22:11:04.000|10=162|
8=FIX.4.4|9=59|35=0|34=5|49=007|50=007B26|52=20190530-22:11:06.386|56=EXC|10=058|
8=FIX.4.4|9=0049|35=0|34=6|49=EXC|56=007|52=20190530-22:11:34.000|10=166|
8=FIX.4.4|9=59|35=0|34=6|49=007|50=007B26|52=20190530-22:11:36.384|56=EXC|10=060|
8=FIX.4.4|9=0049|35=0|34=7|49=EXC|56=007|52=20190530-22:12:04.000|10=165|
8=FIX.4.4|9=59|35=0|34=7|49=007|50=007B26|52=20190530-22:12:06.393|56=EXC|10=059|
8=FIX.4.4|9=0049|35=0|34=8|49=EXC|56=007|52=20190530-22:12:34.000|10=169|
8=FIX.4.4|9=59|35=0|34=8|49=007|50=007B26|52=20190530-22:12:37.379|56=EXC|10=068|
8=FIX.4.4|9=0049|35=0|34=9|49=EXC|56=007|52=20190530-22:13:04.000|10=168|
8=FIX.4.4|9=59|35=0|34=9|49=007|50=007B26|52=20190530-22:13:07.380|56=EXC|10=059|
8=FIX.4.4|9=110|35=A|34=1|49=007|50=007B26|52=20190606-14:29:01.515|56=EXC|43=Y|98=0|108=30|141=Y|553=007FCE001|554=007FCE001|10=085|
8=FIX.4.4|9=0067|35=A|34=1|49=EXC|56=007|52=20190606-14:29:01.572|98=0|108=30|141=Y|10=014|
