8=FIX.4.4|9=110|35=A|34=1|49=013|50=013B17|52=20190528-15:22:28.867|56=EXC|43=Y|98=0|108=30|141=Y|553=018FCM001|554=018FCM001|10=115|
8=FIX.4.4|9=110|35=A|34=1|49=013|50=013B17|52=20190528-15:24:02.581|56=EXC|43=Y|98=0|108=30|141=Y|553=013FCM001|554=013FCM001|10=092|
8=FIX.4.4|9=0067|35=A|34=1|49=EXC|56=013|52=20190528-15:24:02.655|98=0|108=30|141=Y|10=013|
8=FIX.4.4|9=110|35=A|34=1|49=013|50=013B17|52=20190528-20:13:38.186|56=EXC|43=Y|98=0|108=30|141=Y|553=013FCM001|554=013FCM001|10=096|
8=FIX.4.4|9=0067|35=A|34=1|49=EXC|56=013|52=20190528-20:13:38.231|98=0|108=30|141=Y|10=006|
8=FIX.4.4|9=110|35=A|34=1|49=013|50=013B17|52=20190528-20:18:12.441|56=EXC|43=Y|98=0|108=30|141=Y|553=013FCM001|554=013FCM001|10=087|
8=FIX.4.4|9=0067|35=A|34=1|49=EXC|56=013|52=20190528-20:18:12.494|98=0|108=30|141=Y|10=014|
8=FIX.4.4|9=110|35=A|34=1|49=013|50=013B17|52=20190528-20:54:13.294|56=EXC|43=Y|98=0|108=30|141=Y|553=013FCM001|554=013FCM001|10=094|
8=FIX.4.4|9=0067|35=A|34=1|49=EXC|56=013|52=20190528-20:54:13.386|98=0|108=30|141=Y|10=015|
