8=FIX.4.4|9=105|35=A|34=1|49=002|50=002B35|52=20190620-14:50:57.238|56=EXC|98=0|108=30|141=Y|553=002FCM001|554=002FCM001|10=090|
8=FIX.4.4|9=0067|35=A|34=1|49=EXC|56=002|52=20190620-14:50:57.241|98=0|108=30|141=Y|10=003|
8=FIX.4.4|9=0049|35=0|34=2|49=EXC|56=002|52=20190620-14:51:27.000|10=164|
8=FIX.4.4|9=59|35=0|34=2|49=002|50=002B35|52=20190620-14:51:28.162|56=EXC|10=046|
8=FIX.4.4|9=105|35=A|34=1|49=002|50=002B35|52=20190620-16:55:23.055|56=EXC|98=0|108=30|141=Y|553=002FCM001|554=002FCM001|10=087|
8=FIX.4.4|9=0067|35=A|34=1|49=EXC|56=002|52=20190620-16:55:23.056|98=0|108=30|141=Y|10=007|
8=FIX.4.4|9=105|35=A|34=1|49=002|50=002B35|52=20190620-19:11:55.090|56=EXC|98=0|108=30|141=Y|553=002FCM001|554=002FCM001|10=086|
8=FIX.4.4|9=0067|35=A|34=1|49=EXC|56=002|52=20190620-19:11:54.140|98=0|108=30|141=Y|10=000|
8=FIX.4.4|9=0049|35=0|34=2|49=EXC|56=002|52=20190620-19:12:24.000|10=163|
8=FIX.4.4|9=59|35=0|34=2|49=002|50=002B35|52=20190620-19:12:25.910|56=EXC|10=046|
8=FIX.4.4|9=105|35=A|34=1|49=002|50=002B35|52=20190620-19:19:41.081|56=EXC|98=0|108=30|141=Y|553=002FCM001|554=002FCM001|10=089|
8=FIX.4.4|9=0067|35=A|34=1|49=EXC|56=002|52=20190620-19:19:40.149|98=0|108=30|141=Y|10=012|
8=FIX.4.4|9=0049|35=0|34=2|49=EXC|56=002|52=20190620-19:20:10.000|10=157|
8=FIX.4.4|9=59|35=0|34=2|49=002|50=002B35|52=20190620-19:20:12.042|56=EXC|10=037|
8=FIX.4.4|9=105|35=A|34=1|49=002|50=002B35|52=20190620-19:21:14.838|56=EXC|98=0|108=30|141=Y|553=002FCM001|554=002FCM001|10=092|
8=FIX.4.4|9=0067|35=A|34=1|49=EXC|56=002|52=20190620-19:21:13.918|98=0|108=30|141=Y|10=009|
8=FIX.4.4|9=0049|35=0|34=2|49=EXC|56=002|52=20190620-19:21:43.000|10=164|
8=FIX.4.4|9=59|35=0|34=2|49=002|50=002B35|52=20190620-19:21:45.781|56=EXC|10=054|
8=FIX.4.4|9=0049|35=0|34=3|49=EXC|56=002|52=20190620-19:22:13.000|10=163|
8=FIX.4.4|9=59|35=0|34=3|49=002|50=002B35|52=20190620-19:22:15.781|56=EXC|10=053|
8=FIX.4.4|9=0049|35=0|34=4|49=EXC|56=002|52=20190620-19:22:43.000|10=167|
8=FIX.4.4|9=59|35=0|34=4|49=002|50=002B35|52=20190620-19:22:46.762|56=EXC|10=057|
8=FIX.4.4|9=0049|35=0|34=5|49=EXC|56=002|52=20190620-19:23:13.000|10=166|
8=FIX.4.4|9=59|35=0|34=5|49=002|50=002B35|52=20190620-19:23:17.706|56=EXC|10=055|
8=FIX.4.4|9=105|35=A|34=1|49=002|50=002B35|52=20190620-19:24:53.003|56=EXC|98=0|108=30|141=Y|553=002FCM001|554=002FCM001|10=082|
8=FIX.4.4|9=0067|35=A|34=1|49=EXC|56=002|52=20190620-19:24:52.355|98=0|108=30|141=Y|10=010|
8=FIX.4.4|9=0049|35=0|34=2|49=EXC|56=002|52=20190620-19:25:22.000|10=165|
8=FIX.4.4|9=59|35=0|34=2|49=002|50=002B35|52=20190620-19:25:23.911|56=EXC|10=049|
8=FIX.4.4|9=0049|35=0|34=3|49=EXC|56=002|52=20190620-19:25:52.000|10=169|
8=FIX.4.4|9=59|35=0|34=3|49=002|50=002B35|52=20190620-19:25:54.850|56=EXC|10=056|
8=FIX.4.4|9=0049|35=0|34=4|49=EXC|56=002|52=20190620-19:26:22.000|10=168|
8=FIX.4.4|9=59|35=0|34=4|49=002|50=002B35|52=20190620-19:26:25.792|56=EXC|10=061|
8=FIX.4.4|9=0049|35=0|34=5|49=EXC|56=002|52=20190620-19:26:52.000|10=172|
8=FIX.4.4|9=59|35=0|34=5|49=002|50=002B35|52=20190620-19:26:56.736|56=EXC|10=064|
8=FIX.4.4|9=0049|35=0|34=6|49=EXC|56=002|52=20190620-19:27:22.000|10=171|
8=FIX.4.4|9=59|35=0|34=6|49=002|50=002B35|52=20190620-19:27:27.675|56=EXC|10=066|
8=FIX.4.4|9=105|35=A|34=1|49=002|50=002B35|52=20190620-19:27:51.415|56=EXC|98=0|108=30|141=Y|553=002FCM001|554=002FCM001|10=090|
8=FIX.4.4|9=0067|35=A|34=1|49=EXC|56=002|52=20190620-19:27:51.095|98=0|108=30|141=Y|10=013|
8=FIX.4.4|9=0049|35=0|34=2|49=EXC|56=002|52=20190620-19:28:21.000|10=167|
8=FIX.4.4|9=59|35=0|34=2|49=002|50=002B35|52=20190620-19:28:22.403|56=EXC|10=047|
8=FIX.4.4|9=105|35=A|34=1|49=002|50=002B35|52=20190620-19:59:00.629|56=EXC|98=0|108=30|141=Y|553=002FCM001|554=002FCM001|10=096|
8=FIX.4.4|9=0067|35=A|34=1|49=EXC|56=002|52=20190620-19:59:00.255|98=0|108=30|141=Y|10=010|
8=FIX.4.4|9=0049|35=0|34=2|49=EXC|56=002|52=20190620-19:59:30.000|10=171|
8=FIX.4.4|9=59|35=0|34=2|49=002|50=002B35|52=20190620-19:59:31.575|56=EXC|10=061|
8=FIX.4.4|9=0049|35=0|34=3|49=EXC|56=002|52=20190620-20:00:00.000|10=147|
8=FIX.4.4|9=59|35=0|34=3|49=002|50=002B35|52=20190620-20:00:01.574|56=EXC|10=036|
8=FIX.4.4|9=105|35=A|34=1|49=002|50=002B35|52=20190620-20:18:46.169|56=EXC|98=0|108=30|141=Y|553=002FCM001|554=002FCM001|10=092|
8=FIX.4.4|9=0067|35=A|34=1|49=EXC|56=002|52=20190620-20:18:46.150|98=0|108=30|141=Y|10=001|
8=FIX.4.4|9=0049|35=0|34=2|49=EXC|56=002|52=20190620-20:19:16.000|10=163|
8=FIX.4.4|9=59|35=0|34=2|49=002|50=002B35|52=20190620-20:19:16.160|56=EXC|10=042|
8=FIX.4.4|9=105|35=A|34=1|49=002|50=002B35|52=20190621-13:23:41.510|56=EXC|98=0|108=30|141=Y|553=002FCM001|554=002FCM001|10=076|
8=FIX.4.4|9=0067|35=A|34=1|49=EXC|56=002|52=20190621-13:23:41.551|98=0|108=30|141=Y|10=000|
8=FIX.4.4|9=59|35=5|34=2|49=002|50=002B35|52=20190621-13:24:08.468|56=EXC|10=058|
8=FIX.4.4|9=0049|35=5|34=2|49=EXC|56=002|52=20190621-13:24:08.480|10=180|
8=FIX.4.4|9=105|35=A|34=1|49=002|50=002B35|52=20190621-13:59:37.795|56=EXC|98=0|108=30|141=Y|553=002FCM001|554=002FCM001|10=105|
8=FIX.4.4|9=0067|35=A|34=1|49=EXC|56=002|52=20190621-13:59:37.806|98=0|108=30|141=Y|10=017|
8=FIX.4.4|9=0049|35=0|34=2|49=EXC|56=002|52=20190621-14:00:07.000|10=157|
8=FIX.4.4|9=59|35=0|34=2|49=002|50=002B35|52=20190621-14:00:08.785|56=EXC|10=050|
8=FIX.4.4|9=0049|35=0|34=3|49=EXC|56=002|52=20190621-14:00:37.000|10=161|
8=FIX.4.4|9=59|35=0|34=3|49=002|50=002B35|52=20190621-14:00:38.785|56=EXC|10=054|
8=FIX.4.4|9=105|35=A|34=1|49=002|50=002B35|52=20190621-14:19:17.926|56=EXC|98=0|108=30|141=Y|553=002FCM001|554=002FCM001|10=096|
8=FIX.4.4|9=0067|35=A|34=1|49=EXC|56=002|52=20190621-14:19:17.941|98=0|108=30|141=Y|10=012|
8=FIX.4.4|9=0225|35=R|34=2|49=EXC|56=002|57=002B35|52=20190621-14:19:25.320|131=20190621-000000000001.00|146=1|55=TFIT16240724|762=RFQF|48=20392|22=M|54=2|38=500000000|453=3|448=007B26|447=C|452=12|448=007|447=C|452=1|448=002B35|447=C|452=37|10=023|
8=FIX.4.4|9=199|35=S|34=2|49=002|50=002B35|52=20190621-14:19:46.586|56=EXC|55=TFIT16240724|62=20190830-22:00:00.000|117=201906219191510_S|131=20190621-000000000001.00|135=0|634=0|762=RFQF|453=1|448=DCV|447=C|452=10|10=248|
8=FIX.4.4|9=0264|35=AI|34=3|49=EXC|56=002|57=002B35|52=20190621-14:19:46.571|117=201906219191510_S|453=1|448=DCV|447=C|452=10|55=TFIT16240724|762=RFQF|135=0|62=20190830-22:00:00.000|297=9|300=99|58=(1160): Regla de negocio - La cantidad de la orden debe ser por lo menos 500000000|10=090|
8=FIX.4.4|9=59|35=5|34=3|49=002|50=002B35|52=20190621-14:20:10.863|56=EXC|10=048|
8=FIX.4.4|9=0049|35=5|34=4|49=EXC|56=002|52=20190621-14:20:10.849|10=181|
8=FIX.4.4|9=105|35=A|34=1|49=002|50=002B35|52=20190621-14:20:46.105|56=EXC|98=0|108=30|141=Y|553=002FCM001|554=002FCM001|10=079|
8=FIX.4.4|9=0067|35=A|34=1|49=EXC|56=002|52=20190621-14:20:46.119|98=0|108=30|141=Y|10=003|
8=FIX.4.4|9=0225|35=R|34=2|49=EXC|56=002|57=002B35|52=20190621-14:20:53.357|131=20190621-000000000002.00|146=1|55=TFIC13280425|762=RFQF|48=20626|22=M|54=1|38=500000000|453=3|448=001B27|447=C|452=12|448=001|447=C|452=1|448=002B35|447=C|452=37|10=253|
8=FIX.4.4|9=206|35=S|34=2|49=002|50=002B35|52=20190621-14:21:13.997|56=EXC|55=TFIC13280425|62=20190830-22:00:00.000|117=20190621920431_S|131=20190621-000000000002.00|135=500000000|634=3|762=RFQF|453=1|448=DCV|447=C|452=10|10=038|
8=FIX.4.4|9=0301|35=AI|34=3|49=EXC|56=002|57=002B35|52=20190621-14:21:13.983|131=20190621-000000000002.00|117=20190621920431_S|453=4|448=DCV|447=C|452=10|448=001B27|447=C|452=12|448=001|447=C|452=1|448=002B35|447=C|452=37|55=TFIC13280425|762=RFQF|48=20626|22=M|54=1|634=3.000|135=500000000|62=20190830-22:00:00|297=16|10=211|
8=FIX.4.4|9=0514|35=8|34=4|49=EXC|56=002|57=002B35|52=20190621-14:21:33.108|11=20190621920431_S|17=1|37=0|150=F|1080=20190621-000000000002.00|1081=6|453=6|448=002B35|447=C|452=12|448=002|447=C|452=1|448=001B27|447=C|452=37|448=001|447=C|452=17|448=002FCM001|447=C|452=36|448=DCV|447=C|452=10|55=TFIC13280425|762=RFQF|48=20626|22=M|6=84.115|14=500000000|31=84.115|32=500000000|38=500000000|39=2|20102=84.115|54=2|60=20190621-14:21:33.108|75=20190621|63=1|64=20190621|151=0|1623=3.000|381=420577500.000|880=201906210000000001|828=99|10=228|
8=FIX.4.4|9=59|35=0|34=3|49=002|50=002B35|52=20190621-14:21:44.047|56=EXC|10=045|
8=FIX.4.4|9=0225|35=R|34=5|49=EXC|56=002|57=002B35|52=20190621-14:22:00.071|131=20190621-000000000003.00|146=1|55=TFIT16280428|762=RFQF|48=20399|22=M|54=1|38=500000000|453=3|448=001B27|447=C|452=12|448=001|447=C|452=1|448=002B35|447=C|452=37|10=018|
8=FIX.4.4|9=59|35=0|34=4|49=002|50=002B35|52=20190621-14:22:14.047|56=EXC|10=044|
8=FIX.4.4|9=206|35=S|34=5|49=002|50=002B35|52=20190621-14:22:20.634|56=EXC|55=TFIT16280428|62=20190830-22:00:00.000|117=20190621920432_S|131=20190621-000000000003.00|135=500000000|634=3|762=RFQF|453=1|448=DCV|447=C|452=10|10=053|
8=FIX.4.4|9=0301|35=AI|34=6|49=EXC|56=002|57=002B35|52=20190621-14:22:20.619|131=20190621-000000000003.00|117=20190621920432_S|453=4|448=DCV|447=C|452=10|448=001B27|447=C|452=12|448=001|447=C|452=1|448=002B35|447=C|452=37|55=TFIT16280428|762=RFQF|48=20399|22=M|54=1|634=3.000|135=500000000|62=20190830-22:00:00|297=16|10=241|
8=FIX.4.4|9=86|35=Z|34=6|49=002|50=002B35|52=20190621-14:22:39.736|56=EXC|117=20190621920432_S|298=5|10=204|
8=FIX.4.4|9=0286|35=AI|34=7|49=EXC|56=002|57=002B35|52=20190621-14:22:39.720|131=20190621-000000000003.00|117=20190621920432_S|298=5|453=4|448=DCV|447=C|452=10|448=001B27|447=C|452=12|448=001|447=C|452=1|448=002B35|447=C|452=37|55=TFIT16280428|762=RFQF|48=20399|22=M|54=1|634=3.000|135=500000000|297=17|10=022|
8=FIX.4.4|9=0225|35=R|34=8|49=EXC|56=002|57=002B35|52=20190621-14:22:58.390|131=20190621-000000000004.00|146=1|55=TFIT16300632|762=RFQF|48=20406|22=M|54=1|38=500000000|453=3|448=001B27|447=C|452=12|448=001|447=C|452=1|448=002B35|447=C|452=37|10=018|
8=FIX.4.4|9=59|35=0|34=7|49=002|50=002B35|52=20190621-14:23:10.048|56=EXC|10=045|
8=FIX.4.4|9=0217|35=R|34=9|49=EXC|56=002|57=002B35|52=20190621-14:23:24.081|131=20190621-000000000004.00|146=1|55=TFIT16300632|762=RFQF|48=20406|22=M|54=1|38=0|453=3|448=001B27|447=C|452=12|448=001|447=C|452=1|448=002B35|447=C|452=37|10=134|
8=FIX.4.4|9=59|35=0|34=8|49=002|50=002B35|52=20190621-14:23:40.048|56=EXC|10=049|
8=FIX.4.4|9=0050|35=0|34=10|49=EXC|56=002|52=20190621-14:23:54.000|10=203|
8=FIX.4.4|9=0227|35=R|34=11|49=EXC|56=002|57=002B35|52=20190621-14:24:03.190|131=20190621-000000000005.00|146=1|55=TFIT06110919|762=RFQF|48=20320|22=M|54=1|38=1000000000|453=3|448=001B27|447=C|452=12|448=001|447=C|452=1|448=002B35|447=C|452=37|10=098|
8=FIX.4.4|9=59|35=0|34=9|49=002|50=002B35|52=20190621-14:24:10.047|56=EXC|10=047|
8=FIX.4.4|9=208|35=S|34=10|49=002|50=002B35|52=20190621-14:24:24.180|56=EXC|55=TFIT06110919|62=20190830-22:00:00.000|117=20190621920435_S|131=20190621-000000000005.00|135=1000000000|634=2|762=RFQF|453=1|448=DCV|447=C|452=10|10=145|
8=FIX.4.4|9=0303|35=AI|34=12|49=EXC|56=002|57=002B35|52=20190621-14:24:24.164|131=20190621-000000000005.00|117=20190621920435_S|453=4|448=DCV|447=C|452=10|448=001B27|447=C|452=12|448=001|447=C|452=1|448=002B35|447=C|452=37|55=TFIT06110919|762=RFQF|48=20320|22=M|54=1|634=2.000|135=1000000000|62=20190830-22:00:00|297=16|10=061|
8=FIX.4.4|9=0522|35=8|34=13|49=EXC|56=002|57=002B35|52=20190621-14:24:43.429|11=20190621920435_S|17=2|37=0|150=F|1080=20190621-000000000005.00|1081=6|453=6|448=002B35|447=C|452=12|448=002|447=C|452=1|448=001B27|447=C|452=37|448=001|447=C|452=17|448=002FCM001|447=C|452=36|448=DCV|447=C|452=10|55=TFIT06110919|762=RFQF|48=20320|22=M|6=101.097|14=1000000000|31=101.097|32=1000000000|38=1000000000|39=2|20102=106.524|54=2|60=20190621-14:24:43.429|75=20190621|63=1|64=20190621|151=0|1623=2.000|381=1065244000.000|880=201906210000000002|828=99|10=114|
8=FIX.4.4|9=60|35=0|34=11|49=002|50=002B35|52=20190621-14:24:55.047|56=EXC|10=089|
8=FIX.4.4|9=0193|35=R|34=14|49=EXC|56=002|52=20190621-14:25:10.133|131=20190621-000000000006.00|146=1|55=TFIT15260826|762=RFQF|48=20348|22=M|54=1|38=1500000000|453=2|448=007B26|447=C|452=12|448=007|447=C|452=1|10=029|
8=FIX.4.4|9=60|35=0|34=12|49=002|50=002B35|52=20190621-14:25:25.047|56=EXC|10=088|
8=FIX.4.4|9=208|35=S|34=13|49=002|50=002B35|52=20190621-14:25:39.356|56=EXC|55=TFIT15260826|62=20190830-22:00:00.000|117=20190621920436_S|131=20190621-000000000006.00|135=1500000000|634=6|762=RFQF|453=1|448=DCV|447=C|452=10|10=174|
8=FIX.4.4|9=0303|35=AI|34=15|49=EXC|56=002|57=002B35|52=20190621-14:25:39.340|131=20190621-000000000006.00|117=20190621920436_S|453=4|448=DCV|447=C|452=10|448=007B26|447=C|452=12|448=007|447=C|452=1|448=002B35|447=C|452=37|55=TFIT15260826|762=RFQF|48=20348|22=M|54=1|634=6.000|135=1500000000|62=20190830-22:00:00|297=16|10=102|
8=FIX.4.4|9=0050|35=0|34=16|49=EXC|56=002|52=20190621-14:26:09.000|10=212|
8=FIX.4.4|9=60|35=0|34=14|49=002|50=002B35|52=20190621-14:26:10.046|56=EXC|10=084|
8=FIX.4.4|9=0522|35=8|34=17|49=EXC|56=002|57=002B35|52=20190621-14:26:18.306|11=20190621920436_S|17=3|37=0|150=F|1080=20190621-000000000006.00|1081=6|453=6|448=002B35|447=C|452=12|448=002|447=C|452=1|448=007B26|447=C|452=37|448=007|447=C|452=17|448=002FCM001|447=C|452=36|448=DCV|447=C|452=10|55=TFIT15260826|762=RFQF|48=20348|22=M|6=108.515|14=1500000000|31=108.515|32=1500000000|38=1500000000|39=2|20102=114.658|54=2|60=20190621-14:26:18.306|75=20190621|63=1|64=20190621|151=0|1623=6.000|381=1719882000.000|880=201906210000000003|828=99|10=186|
8=FIX.4.4|9=60|35=0|34=15|49=002|50=002B35|52=20190621-14:26:40.048|56=EXC|10=090|
8=FIX.4.4|9=0192|35=R|34=18|49=EXC|56=002|52=20190621-14:26:45.124|131=20190621-000000000007.00|146=1|55=TFIC14280426|762=RFQF|48=20602|22=M|54=1|38=500000000|453=2|448=001B27|447=C|452=12|448=001|447=C|452=1|10=211|
8=FIX.4.4|9=60|35=0|34=16|49=002|50=002B35|52=20190621-14:27:10.047|56=EXC|10=088|
8=FIX.4.4|9=0050|35=0|34=19|49=EXC|56=002|52=20190621-14:27:15.000|10=213|
8=FIX.4.4|9=0226|35=R|34=20|49=EXC|56=002|57=002B35|52=20190621-14:27:15.082|131=20190621-000000000008.00|146=1|55=TFIT16180930|762=RFQF|48=20355|22=M|54=1|38=500000000|453=3|448=001B27|447=C|452=12|448=001|447=C|452=1|448=002B35|447=C|452=37|10=071|
8=FIX.4.4|9=60|35=0|34=17|49=002|50=002B35|52=20190621-14:27:40.047|56=EXC|10=092|
8=FIX.4.4|9=0050|35=0|34=21|49=EXC|56=002|52=20190621-14:27:45.000|10=209|
8=FIX.4.4|9=0226|35=R|34=22|49=EXC|56=002|57=002B35|52=20190621-14:27:49.649|131=20190621-000000000009.00|146=1|55=TFIT16240724|762=RFQF|48=20392|22=M|54=2|38=500000000|453=3|448=007B26|447=C|452=12|448=007|447=C|452=1|448=002B35|447=C|452=37|10=101|
8=FIX.4.4|9=60|35=0|34=18|49=002|50=002B35|52=20190621-14:28:10.047|56=EXC|10=091|
8=FIX.4.4|9=200|35=S|34=19|49=002|50=002B35|52=20190621-14:28:10.945|56=EXC|55=TFIT16240724|62=20190830-22:00:00.000|117=201906219204310_S|131=20190621-000000000009.00|135=0|634=0|762=RFQF|453=1|448=DCV|447=C|452=10|10=022|
8=FIX.4.4|9=0265|35=AI|34=23|49=EXC|56=002|57=002B35|52=20190621-14:28:10.929|117=201906219204310_S|453=1|448=DCV|447=C|452=10|55=TFIT16240724|762=RFQF|135=0|62=20190830-22:00:00.000|297=9|300=99|58=(1160): Regla de negocio - La cantidad de la orden debe ser por lo menos 500000000|10=132|
8=FIX.4.4|9=0050|35=0|34=24|49=EXC|56=002|52=20190621-14:28:40.000|10=208|
8=FIX.4.4|9=60|35=0|34=20|49=002|50=002B35|52=20190621-14:28:41.047|56=EXC|10=088|
8=FIX.4.4|9=0050|35=0|34=25|49=EXC|56=002|52=20190621-14:29:10.000|10=207|
8=FIX.4.4|9=60|35=0|34=21|49=002|50=002B35|52=20190621-14:29:11.047|56=EXC|10=087|
8=FIX.4.4|9=0050|35=0|34=26|49=EXC|56=002|52=20190621-14:29:40.000|10=211|
8=FIX.4.4|9=60|35=0|34=22|49=002|50=002B35|52=20190621-14:29:41.047|56=EXC|10=091|
