8=FIX.4.4|9=105|35=A|34=1|49=007|50=007B26|52=20190626-15:03:04.548|56=EXC|98=0|108=30|141=Y|553=007FCE001|554=007FCE001|10=095|
8=FIX.4.4|9=0067|35=A|34=1|49=EXC|56=007|52=20190628-15:03:04.591|98=0|108=30|141=Y|10=015|
8=FIX.4.4|9=0049|35=0|34=2|49=EXC|56=007|52=20190628-15:03:34.000|10=173|
8=FIX.4.4|9=59|35=0|34=2|49=007|50=007B26|52=20190626-15:03:35.518|56=EXC|10=063|
8=FIX.4.4|9=0049|35=0|34=3|49=EXC|56=007|52=20190628-15:04:04.000|10=172|
8=FIX.4.4|9=59|35=0|34=3|49=007|50=007B26|52=20190626-15:04:05.519|56=EXC|10=063|
8=FIX.4.4|9=0049|35=0|34=4|49=EXC|56=007|52=20190628-15:04:34.000|10=176|
8=FIX.4.4|9=59|35=0|34=4|49=007|50=007B26|52=20190626-15:04:35.518|56=EXC|10=066|
8=FIX.4.4|9=0049|35=0|34=5|49=EXC|56=007|52=20190628-15:05:04.000|10=175|
8=FIX.4.4|9=59|35=0|34=5|49=007|50=007B26|52=20190626-15:05:05.517|56=EXC|10=064|
8=FIX.4.4|9=0049|35=0|34=6|49=EXC|56=007|52=20190628-15:05:34.000|10=179|
8=FIX.4.4|9=59|35=0|34=6|49=007|50=007B26|52=20190626-15:05:35.517|56=EXC|10=068|
8=FIX.4.4|9=0049|35=0|34=7|49=EXC|56=007|52=20190628-15:06:04.000|10=178|
8=FIX.4.4|9=59|35=0|34=7|49=007|50=007B26|52=20190626-15:06:05.516|56=EXC|10=066|
8=FIX.4.4|9=0049|35=0|34=8|49=EXC|56=007|52=20190628-15:06:34.000|10=182|
8=FIX.4.4|9=59|35=0|34=8|49=007|50=007B26|52=20190626-15:06:35.515|56=EXC|10=069|
8=FIX.4.4|9=0049|35=0|34=9|49=EXC|56=007|52=20190628-15:07:04.000|10=181|
8=FIX.4.4|9=59|35=0|34=9|49=007|50=007B26|52=20190626-15:07:05.518|56=EXC|10=071|
8=FIX.4.4|9=164|35=R|34=10|49=007|50=007B26|52=20190626-15:07:27.991|56=EXC|131=201906261003016_R|146=1|55=TFIT15260826|22=M|762=RFQF|54=1|38=1500000000|453=1|448=DCV|447=C|452=10|10=073|
8=FIX.4.4|9=0246|35=AI|34=10|49=EXC|56=007|57=007B26|52=20190628-15:07:28.006|131=201906261003016_R|453=4|448=DCV|447=C|452=10|448=007B26|447=C|452=12|448=007|447=C|452=1|448=007FCE001|447=C|452=36|55=TFIT15260826|762=RFQF|48=20348|22=M|54=1|38=1500000000|297=10|10=228|
8=FIX.4.4|9=0193|35=R|34=11|49=EXC|56=007|52=20190628-15:07:28.006|131=20190628-000000000014.00|146=1|55=TFIT15260826|762=RFQF|48=20348|22=M|54=1|38=1500000000|453=2|448=007B26|447=C|452=12|448=007|447=C|452=1|10=053|
8=FIX.4.4|9=0184|35=R|34=12|49=EXC|56=007|52=20190628-15:07:57.394|131=20190628-000000000014.00|146=1|55=TFIT15260826|762=RFQF|48=20348|22=M|54=1|38=0|453=2|448=007B26|447=C|452=12|448=007|447=C|452=1|10=140|
8=FIX.4.4|9=0318|35=S|34=13|49=EXC|56=007|57=007B26|52=20190628-15:07:57.394|131=201906261003016_R|117=20190628-000000000014.00|55=TFIT15260826|762=RFQF|48=20348|22=M|453=5|448=DCV|447=C|452=10|448=007B26|447=C|452=12|448=007|447=C|452=1|448=007FCE001|447=C|452=36|448=002B35|447=C|452=37|634=6.000|135=1500000000|62=20190830-22:00:00|10=147|
8=FIX.4.4|9=60|35=0|34=11|49=007|50=007B26|52=20190626-15:07:58.515|56=EXC|10=109|
8=FIX.4.4|9=0050|35=0|34=14|49=EXC|56=007|52=20190628-15:08:27.000|10=223|
8=FIX.4.4|9=60|35=0|34=12|49=007|50=007B26|52=20190626-15:08:28.515|56=EXC|10=108|
8=FIX.4.4|9=149|35=AJ|34=13|49=007|50=007B26|52=20190626-15:08:36.397|56=EXC|54=1|55=TFIT15260826|117=20190628-000000000014.00|693=201906261003016_AJ|694=1|762=RFQF|10=172|
8=FIX.4.4|9=0524|35=8|34=15|49=EXC|56=007|57=007B26|52=20190628-15:08:36.413|11=201906261003016_AJ|17=1|37=0|150=F|1080=20190628-000000000014.00|1081=5|453=6|448=007B26|447=C|452=12|448=007|447=C|452=1|448=002B35|447=C|452=37|448=002|447=C|452=17|448=007FCE001|447=C|452=36|448=DCV|447=C|452=10|55=TFIT15260826|762=RFQF|48=20348|22=M|6=108.499|14=1500000000|31=108.499|32=1500000000|38=1500000000|39=2|20102=114.786|54=1|60=20190628-15:08:36.413|75=20190628|63=1|64=20190628|151=0|1623=6.000|381=1721800500.000|880=201906280000000005|828=99|10=084|
8=FIX.4.4|9=0192|35=R|34=16|49=EXC|56=007|52=20190628-15:09:03.418|131=20190628-000000000015.00|146=1|55=TFIC14280426|762=RFQF|48=20602|22=M|54=1|38=500000000|453=2|448=001B27|447=C|452=12|448=001|447=C|452=1|10=229|
8=FIX.4.4|9=60|35=0|34=14|49=007|50=007B26|52=20190626-15:09:06.514|56=EXC|10=106|
8=FIX.4.4|9=0050|35=0|34=17|49=EXC|56=007|52=20190628-15:09:33.000|10=224|
8=FIX.4.4|9=60|35=0|34=15|49=007|50=007B26|52=20190626-15:09:36.516|56=EXC|10=112|
8=FIX.4.4|9=179|35=R|34=16|49=007|50=007B26|52=20190626-15:09:53.710|56=EXC|131=201906261003019_R|146=1|55=TFIT16280428|22=M|762=RFQF|54=1|38=0|453=2|448=DCV|447=C|452=10|448=010BWN|447=C|452=37|10=083|
8=FIX.4.4|9=0162|35=AG|34=18|49=EXC|56=007|57=007B26|52=20190628-15:09:53.725|131=201906261003019_R|658=99|146=1|55=TFIT16280428|762=RFQF|22=M|58=(333): ID de cotización inválida|10=174|
8=FIX.4.4|9=212|35=R|34=17|49=007|50=007B26|52=20190626-15:10:07.140|56=EXC|131=2019062610030110_R|146=1|55=TFIT16240724|22=M|762=RFQF|54=2|38=500000000|453=3|448=002B35|447=C|452=37|448=DCV|447=C|452=10|448=010BWN|447=C|452=37|10=099|
8=FIX.4.4|9=0294|35=AI|34=19|49=EXC|56=007|57=007B26|52=20190628-15:10:07.157|131=2019062610030110_R|453=6|448=DCV|447=C|452=10|448=007B26|447=C|452=12|448=007|447=C|452=1|448=007FCE001|447=C|452=36|448=002B35|447=C|452=37|448=010BWN|447=C|452=37|55=TFIT16240724|762=RFQF|48=20392|22=M|54=2|38=500000000|297=10|10=028|
8=FIX.4.4|9=0050|35=0|34=20|49=EXC|56=007|52=20190628-15:10:37.000|10=214|
8=FIX.4.4|9=60|35=0|34=18|49=007|50=007B26|52=20190626-15:10:37.514|56=EXC|10=106|
8=FIX.4.4|9=213|35=R|34=19|49=007|50=007B26|52=20190626-15:10:46.628|56=EXC|131=2019062610030111_R|146=1|55=TFIC14280426|22=M|762=RFQF|54=2|38=1000000000|453=3|448=010BWN|447=C|452=37|448=DCV|447=C|452=10|448=002B37|447=C|452=37|10=147|
8=FIX.4.4|9=0295|35=AI|34=21|49=EXC|56=007|57=007B26|52=20190628-15:10:46.644|131=2019062610030111_R|453=6|448=DCV|447=C|452=10|448=007B26|447=C|452=12|448=007|447=C|452=1|448=007FCE001|447=C|452=36|448=010BWN|447=C|452=37|448=002B37|447=C|452=37|55=TFIC14280426|762=RFQF|48=20602|22=M|54=2|38=1000000000|297=10|10=051|
8=FIX.4.4|9=0319|35=S|34=22|49=EXC|56=007|57=007B26|52=20190628-15:11:07.265|131=2019062610030111_R|117=20190628-000000000018.00|55=TFIC14280426|762=RFQF|48=20602|22=M|453=5|448=DCV|447=C|452=10|448=007B26|447=C|452=12|448=007|447=C|452=1|448=007FCE001|447=C|452=36|448=010BWN|447=C|452=37|632=4.000|134=1000000000|62=20190830-22:00:00|10=206|
8=FIX.4.4|9=60|35=0|34=20|49=007|50=007B26|52=20190626-15:11:17.515|56=EXC|10=099|
8=FIX.4.4|9=150|35=AJ|34=21|49=007|50=007B26|52=20190626-15:11:26.235|56=EXC|54=2|55=TFIC14280426|117=20190628-000000000018.00|693=2019062610030111_AJ|694=6|762=RFQF|10=181|
8=FIX.4.4|9=0095|35=Z|34=23|49=EXC|56=007|57=007B26|52=20190628-15:11:26.251|117=20190628-000000000018.00|298=5|10=139|
8=FIX.4.4|9=0050|35=0|34=24|49=EXC|56=007|52=20190628-15:11:56.000|10=220|
8=FIX.4.4|9=60|35=0|34=22|49=007|50=007B26|52=20190626-15:11:56.514|56=EXC|10=103|
8=FIX.4.4|9=180|35=R|34=23|49=007|50=007B26|52=20190626-15:12:03.496|56=EXC|131=2019062610030113_R|146=1|55=TFIC13280425|22=M|762=RFQF|54=2|38=0|453=2|448=010BWN|447=C|452=37|448=DCV|447=C|452=10|10=094|
8=FIX.4.4|9=0163|35=AG|34=25|49=EXC|56=007|57=007B26|52=20190628-15:12:03.514|131=2019062610030113_R|658=99|146=1|55=TFIC13280425|762=RFQF|22=M|58=(333): ID de cotización inválida|10=178|
8=FIX.4.4|9=0050|35=0|34=26|49=EXC|56=007|52=20190628-15:12:33.000|10=218|
8=FIX.4.4|9=60|35=0|34=24|49=007|50=007B26|52=20190626-15:12:33.514|56=EXC|10=101|
8=FIX.4.4|9=60|35=5|34=25|49=007|50=007B26|52=20190626-15:12:49.515|56=EXC|10=115|
8=FIX.4.4|9=0050|35=5|34=27|49=EXC|56=007|52=20190628-15:12:49.532|10=241|
8=FIX.4.4|9=105|35=A|34=1|49=007|50=007B26|52=20190627-13:38:25.785|56=EXC|98=0|108=30|141=Y|553=007FCE001|554=007FCE001|10=108|
8=FIX.4.4|9=0067|35=A|34=1|49=EXC|56=007|52=20190627-13:38:25.820|98=0|108=30|141=Y|10=018|
8=FIX.4.4|9=0049|35=0|34=2|49=EXC|56=007|52=20190627-13:38:55.000|10=181|
8=FIX.4.4|9=59|35=0|34=2|49=007|50=007B26|52=20190627-13:38:56.724|56=EXC|10=072|
8=FIX.4.4|9=0049|35=0|34=3|49=EXC|56=007|52=20190627-13:39:25.000|10=180|
8=FIX.4.4|9=59|35=0|34=3|49=007|50=007B26|52=20190627-13:39:26.724|56=EXC|10=071|
8=FIX.4.4|9=0049|35=0|34=4|49=EXC|56=007|52=20190627-13:39:55.000|10=184|
8=FIX.4.4|9=59|35=0|34=4|49=007|50=007B26|52=20190627-13:39:56.724|56=EXC|10=075|
8=FIX.4.4|9=0049|35=0|34=5|49=EXC|56=007|52=20190627-13:40:25.000|10=174|
8=FIX.4.4|9=59|35=0|34=5|49=007|50=007B26|52=20190627-13:40:26.725|56=EXC|10=066|
8=FIX.4.4|9=0049|35=0|34=6|49=EXC|56=007|52=20190627-13:40:55.000|10=178|
8=FIX.4.4|9=59|35=0|34=6|49=007|50=007B26|52=20190627-13:40:56.724|56=EXC|10=069|
8=FIX.4.4|9=0049|35=0|34=7|49=EXC|56=007|52=20190627-13:41:25.000|10=177|
8=FIX.4.4|9=59|35=0|34=7|49=007|50=007B26|52=20190627-13:41:26.721|56=EXC|10=065|
8=FIX.4.4|9=0049|35=0|34=8|49=EXC|56=007|52=20190627-13:41:55.000|10=181|
8=FIX.4.4|9=59|35=0|34=8|49=007|50=007B26|52=20190627-13:41:56.732|56=EXC|10=071|
8=FIX.4.4|9=0049|35=0|34=9|49=EXC|56=007|52=20190627-13:42:25.000|10=180|
8=FIX.4.4|9=59|35=0|34=9|49=007|50=007B26|52=20190627-13:42:27.719|56=EXC|10=076|
8=FIX.4.4|9=0050|35=0|34=10|49=EXC|56=007|52=20190627-13:42:55.000|10=215|
8=FIX.4.4|9=60|35=0|34=10|49=007|50=007B26|52=20190627-13:42:57.719|56=EXC|10=111|
8=FIX.4.4|9=163|35=R|34=11|49=007|50=007B26|52=20190627-13:43:06.081|56=EXC|131=20190627838226_R|146=1|55=TFIT15260826|22=M|762=RFQF|54=1|38=1500000000|453=1|448=DCV|447=C|452=10|10=030|
8=FIX.4.4|9=0245|35=AI|34=11|49=EXC|56=007|57=007B26|52=20190627-13:43:06.078|131=20190627838226_R|453=4|448=DCV|447=C|452=10|448=007B26|447=C|452=12|448=007|447=C|452=1|448=007FCE001|447=C|452=36|55=TFIT15260826|762=RFQF|48=20348|22=M|54=1|38=1500000000|297=10|10=201|
8=FIX.4.4|9=0193|35=R|34=12|49=EXC|56=007|52=20190627-13:43:06.078|131=20190627-000000000016.00|146=1|55=TFIT15260826|762=RFQF|48=20348|22=M|54=1|38=1500000000|453=2|448=007B26|447=C|452=12|448=007|447=C|452=1|10=057|
8=FIX.4.4|9=0050|35=0|34=13|49=EXC|56=007|52=20190627-13:43:36.000|10=218|
8=FIX.4.4|9=60|35=0|34=12|49=007|50=007B26|52=20190627-13:43:36.716|56=EXC|10=108|
8=FIX.4.4|9=0184|35=R|34=14|49=EXC|56=007|52=20190627-13:43:37.547|131=20190627-000000000016.00|146=1|55=TFIT15260826|762=RFQF|48=20348|22=M|54=1|38=0|453=2|448=007B26|447=C|452=12|448=007|447=C|452=1|10=138|
8=FIX.4.4|9=0317|35=S|34=15|49=EXC|56=007|57=007B26|52=20190627-13:43:37.547|131=20190627838226_R|117=20190627-000000000016.00|55=TFIT15260826|762=RFQF|48=20348|22=M|453=5|448=DCV|447=C|452=10|448=007B26|447=C|452=12|448=007|447=C|452=1|448=007FCE001|447=C|452=36|448=002B35|447=C|452=37|634=6.000|135=1500000000|62=20190830-22:00:00|10=115|
8=FIX.4.4|9=60|35=0|34=13|49=007|50=007B26|52=20190627-13:44:06.713|56=EXC|10=104|
8=FIX.4.4|9=0050|35=0|34=16|49=EXC|56=007|52=20190627-13:44:07.000|10=220|
8=FIX.4.4|9=148|35=AJ|34=14|49=007|50=007B26|52=20190627-13:44:18.667|56=EXC|54=1|55=TFIT15260826|117=20190627-000000000016.00|693=20190627838226_AJ|694=1|762=RFQF|10=143|
8=FIX.4.4|9=0523|35=8|34=17|49=EXC|56=007|57=007B26|52=20190627-13:44:18.667|11=20190627838226_AJ|17=1|37=0|150=F|1080=20190627-000000000016.00|1081=5|453=6|448=007B26|447=C|452=12|448=007|447=C|452=1|448=002B35|447=C|452=37|448=002|447=C|452=17|448=007FCE001|447=C|452=36|448=DCV|447=C|452=10|55=TFIT15260826|762=RFQF|48=20348|22=M|6=108.500|14=1500000000|31=108.500|32=1500000000|38=1500000000|39=2|20102=114.767|54=1|60=20190627-13:44:18.667|75=20190627|63=1|64=20190627|151=0|1623=6.000|381=1721506500.000|880=201906270000000007|828=99|10=040|
8=FIX.4.4|9=0050|35=0|34=18|49=EXC|56=007|52=20190627-13:44:48.000|10=227|
8=FIX.4.4|9=60|35=0|34=15|49=007|50=007B26|52=20190627-13:44:48.715|56=EXC|10=114|
8=FIX.4.4|9=60|35=5|34=16|49=007|50=007B26|52=20190627-13:44:50.654|56=EXC|10=115|
8=FIX.4.4|9=0050|35=5|34=19|49=EXC|56=007|52=20190627-13:44:50.655|10=242|
8=FIX.4.4|9=110|35=A|34=1|49=007|50=007B26|52=20190627-15:02:34.053|56=EXC|43=Y|98=0|108=30|141=Y|553=007FCE001|554=007FCE001|10=083|
8=FIX.4.4|9=0067|35=A|34=1|49=EXC|56=007|52=20190627-15:02:34.082|98=0|108=30|141=Y|10=011|
8=FIX.4.4|9=0049|35=0|34=2|49=EXC|56=007|52=20190627-15:03:04.000|10=169|
8=FIX.4.4|9=59|35=0|34=2|49=007|50=007B26|52=20190627-15:03:04.994|56=EXC|10=068|
8=FIX.4.4|9=0049|35=0|34=3|49=EXC|56=007|52=20190627-15:03:34.000|10=173|
8=FIX.4.4|9=59|35=0|34=3|49=007|50=007B26|52=20190627-15:03:34.994|56=EXC|10=072|
8=FIX.4.4|9=0049|35=0|34=4|49=EXC|56=007|52=20190627-15:04:04.000|10=172|
8=FIX.4.4|9=59|35=0|34=4|49=007|50=007B26|52=20190627-15:04:04.994|56=EXC|10=071|
8=FIX.4.4|9=0049|35=0|34=5|49=EXC|56=007|52=20190627-15:04:34.000|10=176|
8=FIX.4.4|9=59|35=0|34=5|49=007|50=007B26|52=20190627-15:04:34.994|56=EXC|10=075|
8=FIX.4.4|9=0049|35=0|34=6|49=EXC|56=007|52=20190627-15:05:04.000|10=175|
8=FIX.4.4|9=59|35=0|34=6|49=007|50=007B26|52=20190627-15:05:04.993|56=EXC|10=073|
8=FIX.4.4|9=0049|35=0|34=7|49=EXC|56=007|52=20190627-15:05:34.000|10=179|
8=FIX.4.4|9=59|35=0|34=7|49=007|50=007B26|52=20190627-15:05:34.995|56=EXC|10=079|
8=FIX.4.4|9=0049|35=0|34=8|49=EXC|56=007|52=20190627-15:06:04.000|10=178|
8=FIX.4.4|9=59|35=0|34=8|49=007|50=007B26|52=20190627-15:06:04.994|56=EXC|10=077|
8=FIX.4.4|9=0049|35=0|34=9|49=EXC|56=007|52=20190627-15:06:34.000|10=182|
8=FIX.4.4|9=59|35=0|34=9|49=007|50=007B26|52=20190627-15:06:34.994|56=EXC|10=081|
8=FIX.4.4|9=0050|35=0|34=10|49=EXC|56=007|52=20190627-15:07:04.000|10=212|
8=FIX.4.4|9=60|35=0|34=10|49=007|50=007B26|52=20190627-15:07:04.995|56=EXC|10=112|
8=FIX.4.4|9=164|35=R|34=11|49=007|50=007B26|52=20190627-15:07:18.659|56=EXC|131=201906271002316_R|146=1|55=TFIT15260826|22=M|762=RFQF|54=1|38=1500000000|453=1|448=DCV|447=C|452=10|10=079|
8=FIX.4.4|9=0246|35=AI|34=11|49=EXC|56=007|57=007B26|52=20190627-15:07:18.660|131=201906271002316_R|453=4|448=DCV|447=C|452=10|448=007B26|447=C|452=12|448=007|447=C|452=1|448=007FCE001|447=C|452=36|55=TFIT15260826|762=RFQF|48=20348|22=M|54=1|38=1500000000|297=10|10=236|
8=FIX.4.4|9=0193|35=R|34=12|49=EXC|56=007|52=20190627-15:07:18.660|131=20190627-000000000037.00|146=1|55=TFIT15260826|762=RFQF|48=20348|22=M|54=1|38=1500000000|453=2|448=007B26|447=C|452=12|448=007|447=C|452=1|10=062|
8=FIX.4.4|9=0050|35=0|34=13|49=EXC|56=007|52=20190627-15:07:48.000|10=223|
8=FIX.4.4|9=60|35=0|34=12|49=007|50=007B26|52=20190627-15:07:48.994|56=EXC|10=121|
8=FIX.4.4|9=0184|35=R|34=14|49=EXC|56=007|52=20190627-15:07:49.938|131=20190627-000000000037.00|146=1|55=TFIT15260826|762=RFQF|48=20348|22=M|54=1|38=0|453=2|448=007B26|447=C|452=12|448=007|447=C|452=1|10=150|
8=FIX.4.4|9=0318|35=S|34=15|49=EXC|56=007|57=007B26|52=20190627-15:07:49.938|131=201906271002316_R|117=20190627-000000000037.00|55=TFIT15260826|762=RFQF|48=20348|22=M|453=5|448=DCV|447=C|452=10|448=007B26|447=C|452=12|448=007|447=C|452=1|448=007FCE001|447=C|452=36|448=002B35|447=C|452=37|634=6.000|135=1500000000|62=20190830-22:00:00|10=160|
8=FIX.4.4|9=60|35=0|34=13|49=007|50=007B26|52=20190627-15:08:18.994|56=EXC|10=120|
8=FIX.4.4|9=0050|35=0|34=16|49=EXC|56=007|52=20190627-15:08:19.000|10=225|
8=FIX.4.4|9=149|35=AJ|34=14|49=007|50=007B26|52=20190627-15:08:30.967|56=EXC|54=1|55=TFIT15260826|117=20190627-000000000037.00|693=201906271002316_AJ|694=1|762=RFQF|10=178|
8=FIX.4.4|9=0524|35=8|34=17|49=EXC|56=007|57=007B26|52=20190627-15:08:30.968|11=201906271002316_AJ|17=3|37=0|150=F|1080=20190627-000000000037.00|1081=5|453=6|448=007B26|447=C|452=12|448=007|447=C|452=1|448=002B35|447=C|452=37|448=002|447=C|452=17|448=007FCE001|447=C|452=36|448=DCV|447=C|452=10|55=TFIT15260826|762=RFQF|48=20348|22=M|6=108.500|14=1500000000|31=108.500|32=1500000000|38=1500000000|39=2|20102=114.767|54=1|60=20190627-15:08:30.968|75=20190627|63=1|64=20190627|151=0|1623=6.000|381=1721506500.000|880=201906270000000016|828=99|10=078|
8=FIX.4.4|9=0050|35=0|34=18|49=EXC|56=007|52=20190627-15:09:00.000|10=218|
8=FIX.4.4|9=60|35=0|34=15|49=007|50=007B26|52=20190627-15:09:00.994|56=EXC|10=114|
8=FIX.4.4|9=60|35=5|34=16|49=007|50=007B26|52=20190627-15:09:02.787|56=EXC|10=122|
8=FIX.4.4|9=0050|35=5|34=19|49=EXC|56=007|52=20190627-15:09:02.788|10=249|
8=FIX.4.4|9=110|35=A|34=1|49=007|50=007B26|52=20190628-13:19:10.667|56=EXC|43=Y|98=0|108=30|141=Y|553=007FCE001|554=007FCE001|10=095|
8=FIX.4.4|9=0067|35=A|34=1|49=EXC|56=007|52=20190628-13:19:10.711|98=0|108=30|141=Y|10=011|
8=FIX.4.4|9=0049|35=0|34=2|49=EXC|56=007|52=20190628-13:19:40.000|10=175|
8=FIX.4.4|9=59|35=0|34=2|49=007|50=007B26|52=20190628-13:19:41.487|56=EXC|10=072|
8=FIX.4.4|9=0049|35=0|34=3|49=EXC|56=007|52=20190628-13:20:10.000|10=165|
8=FIX.4.4|9=59|35=0|34=3|49=007|50=007B26|52=20190628-13:20:11.487|56=EXC|10=062|
8=FIX.4.4|9=110|35=A|34=1|49=007|50=007B26|52=20190628-13:21:40.003|56=EXC|43=Y|98=0|108=30|141=Y|553=007FCE001|554=007FCE001|10=075|
8=FIX.4.4|9=0067|35=A|34=1|49=EXC|56=007|52=20190628-13:21:40.050|98=0|108=30|141=Y|10=003|
8=FIX.4.4|9=110|35=A|34=1|49=007|50=007B26|52=20190628-14:44:48.696|56=EXC|43=Y|98=0|108=30|141=Y|553=007FCE001|554=007FCE001|10=107|
8=FIX.4.4|9=0067|35=A|34=1|49=EXC|56=007|52=20190628-14:44:48.738|98=0|108=30|141=Y|10=030|
