8=FIX.4.4|9=105|35=A|34=1|49=002|50=002B35|52=20190611-22:57:17.759|56=EXC|98=0|108=30|141=Y|553=002FCM001|554=002FCM001|10=100|
8=FIX.4.4|9=0067|35=A|34=1|49=EXC|56=002|52=20190611-22:57:17.771|98=0|108=30|141=Y|10=013|
8=FIX.4.4|9=0192|35=R|34=2|49=EXC|56=002|52=20190611-22:57:20.236|131=20190611-000000000020.00|146=1|55=TFIT15260826|762=RFQF|48=20348|22=M|54=1|38=1500000000|453=2|448=007B26|447=C|452=12|448=007|447=C|452=1|10=236|
8=FIX.4.4|9=207|35=S|34=2|49=002|50=002B35|52=20190611-22:57:36.697|56=EXC|55=TFIT15260826|62=20190617-22:00:00.000|117=20190611175715_S|131=20190611-000000000020.00|135=1500000000|634=6|762=RFQF|453=1|448=DCV|447=C|452=10|10=130|
8=FIX.4.4|9=0302|35=AI|34=3|49=EXC|56=002|57=002B35|52=20190611-22:57:36.663|131=20190611-000000000020.00|117=20190611175715_S|453=4|448=DCV|447=C|452=10|448=007B26|447=C|452=12|448=007|447=C|452=1|448=002B35|447=C|452=37|55=TFIT15260826|762=RFQF|48=20348|22=M|54=1|634=6.000|135=1500000000|62=20190617-22:00:00|297=16|10=057|
8=FIX.4.4|9=0521|35=8|34=4|49=EXC|56=002|57=002B35|52=20190611-22:57:57.333|11=20190611175715_S|17=4|37=0|150=F|1080=20190611-000000000020.00|1081=6|453=6|448=002B35|447=C|452=12|448=002|447=C|452=1|448=007B26|447=C|452=37|448=007|447=C|452=17|448=002FCM001|447=C|452=36|448=DCV|447=C|452=10|55=TFIT15260826|762=RFQF|48=20348|22=M|6=108.537|14=1500000000|31=108.537|32=1500000000|38=1500000000|39=2|20102=114.475|54=2|60=20190611-22:57:57.333|75=20190611|63=1|64=20190611|151=0|1623=6.000|381=1717131000.000|880=201906110000000004|828=99|10=128|
8=FIX.4.4|9=59|35=0|34=3|49=002|50=002B35|52=20190611-22:58:06.714|56=EXC|10=052|
8=FIX.4.4|9=0049|35=0|34=5|49=EXC|56=002|52=20190611-22:58:27.000|10=173|
8=FIX.4.4|9=59|35=0|34=4|49=002|50=002B35|52=20190611-22:58:36.712|56=EXC|10=054|
8=FIX.4.4|9=0049|35=0|34=6|49=EXC|56=002|52=20190611-22:58:57.000|10=177|
8=FIX.4.4|9=59|35=0|34=5|49=002|50=002B35|52=20190611-22:59:06.721|56=EXC|10=053|
8=FIX.4.4|9=0049|35=0|34=7|49=EXC|56=002|52=20190611-22:59:27.000|10=176|
8=FIX.4.4|9=59|35=0|34=6|49=002|50=002B35|52=20190611-22:59:37.709|56=EXC|10=064|
8=FIX.4.4|9=0049|35=0|34=8|49=EXC|56=002|52=20190611-22:59:57.000|10=180|
8=FIX.4.4|9=59|35=0|34=7|49=002|50=002B35|52=20190611-23:00:07.722|56=EXC|10=044|
8=FIX.4.4|9=0049|35=0|34=9|49=EXC|56=002|52=20190611-23:00:27.000|10=165|
8=FIX.4.4|9=105|35=A|34=1|49=002|50=002B35|52=20190611-23:00:57.128|56=EXC|98=0|108=30|141=Y|553=002FCM001|554=002FCM001|10=083|
8=FIX.4.4|9=0067|35=A|34=1|49=EXC|56=002|52=20190611-23:00:57.127|98=0|108=30|141=Y|10=001|
8=FIX.4.4|9=0192|35=R|34=2|49=EXC|56=002|52=20190611-23:00:59.613|131=20190611-000000000021.00|146=1|55=TFIT15260826|762=RFQF|48=20348|22=M|54=1|38=1500000000|453=2|448=007B26|447=C|452=12|448=007|447=C|452=1|10=237|
8=FIX.4.4|9=207|35=S|34=2|49=002|50=002B35|52=20190611-23:01:15.647|56=EXC|55=TFIT15260826|62=20190617-22:00:00.000|117=20190611180054_S|131=20190611-000000000021.00|135=1500000000|634=6|762=RFQF|453=1|448=DCV|447=C|452=10|10=105|
8=FIX.4.4|9=0302|35=AI|34=3|49=EXC|56=002|57=002B35|52=20190611-23:01:15.604|131=20190611-000000000021.00|117=20190611180054_S|453=4|448=DCV|447=C|452=10|448=007B26|447=C|452=12|448=007|447=C|452=1|448=002B35|447=C|452=37|55=TFIT15260826|762=RFQF|48=20348|22=M|54=1|634=6.000|135=1500000000|62=20190617-22:00:00|297=16|10=032|
8=FIX.4.4|9=105|35=A|34=1|49=002|50=002B35|52=20190611-23:03:31.221|56=EXC|98=0|108=30|141=Y|553=002FCM001|554=002FCM001|10=072|
8=FIX.4.4|9=0067|35=A|34=1|49=EXC|56=002|52=20190611-23:03:31.226|98=0|108=30|141=Y|10=252|
8=FIX.4.4|9=0192|35=R|34=2|49=EXC|56=002|52=20190611-23:03:33.644|131=20190611-000000000022.00|146=1|55=TFIT15260826|762=RFQF|48=20348|22=M|54=1|38=1500000000|453=2|448=007B26|447=C|452=12|448=007|447=C|452=1|10=237|
8=FIX.4.4|9=59|35=0|34=2|49=002|50=002B35|52=20190611-23:04:02.177|56=EXC|10=042|
8=FIX.4.4|9=0049|35=0|34=3|49=EXC|56=002|52=20190611-23:04:03.000|10=157|
8=FIX.4.4|9=68|35=1|34=3|49=002|50=002B35|52=20190611-23:04:19.182|56=EXC|112=TEST|10=066|
8=FIX.4.4|9=0058|35=0|34=4|49=EXC|56=002|52=20190611-23:04:19.138|112=TEST|10=195|
8=FIX.4.4|9=105|35=A|34=1|49=002|50=002B35|52=20190611-23:04:47.189|56=EXC|98=0|108=30|141=Y|553=002FCM001|554=002FCM001|10=093|
8=FIX.4.4|9=0067|35=A|34=1|49=EXC|56=002|52=20190611-23:04:47.255|98=0|108=30|141=Y|10=006|
8=FIX.4.4|9=105|35=A|34=1|49=002|50=002B35|52=20190611-23:05:48.207|56=EXC|98=0|108=30|141=Y|553=002FCM001|554=002FCM001|10=086|
8=FIX.4.4|9=0067|35=A|34=1|49=EXC|56=002|52=20190611-23:05:48.212|98=0|108=30|141=Y|10=001|
8=FIX.4.4|9=0049|35=0|34=2|49=EXC|56=002|52=20190611-23:06:18.000|10=164|
8=FIX.4.4|9=59|35=0|34=2|49=002|50=002B35|52=20190611-23:06:19.174|56=EXC|10=049|
8=FIX.4.4|9=105|35=A|34=1|49=002|50=002B35|52=20190611-23:33:37.081|56=EXC|98=0|108=30|141=Y|553=002FCM001|554=002FCM001|10=085|
8=FIX.4.4|9=0067|35=A|34=1|49=EXC|56=002|52=20190611-23:33:37.072|98=0|108=30|141=Y|10=004|
8=FIX.4.4|9=0192|35=R|34=2|49=EXC|56=002|52=20190611-23:33:39.653|131=20190611-000000000023.00|146=1|55=TFIT15260826|762=RFQF|48=20348|22=M|54=1|38=1500000000|453=2|448=007B26|447=C|452=12|448=007|447=C|452=1|10=247|
8=FIX.4.4|9=59|35=0|34=2|49=002|50=002B35|52=20190611-23:34:08.002|56=EXC|10=038|
8=FIX.4.4|9=0049|35=0|34=3|49=EXC|56=002|52=20190611-23:34:09.000|10=166|
8=FIX.4.4|9=105|35=A|34=1|49=002|50=002B35|52=20190611-23:36:25.503|56=EXC|98=0|108=30|141=Y|553=002FCM001|554=002FCM001|10=084|
8=FIX.4.4|9=0067|35=A|34=1|49=EXC|56=002|52=20190611-23:36:25.500|98=0|108=30|141=Y|10=000|
8=FIX.4.4|9=0192|35=R|34=2|49=EXC|56=002|52=20190611-23:36:27.933|131=20190611-000000000024.00|146=1|55=TFIT15260826|762=RFQF|48=20348|22=M|54=1|38=1500000000|453=2|448=007B26|447=C|452=12|448=007|447=C|452=1|10=249|
8=FIX.4.4|9=180|35=S|34=2|49=002|50=002B35|52=20190611-23:36:44.274|56=EXC|55=TFIT15260826|62=20190617-22:00:00.000|117=20190611183622_S|131=20190611-000000000024.00|135=1500000000|634=6|762=RFQF|10=086|
8=FIX.4.4|9=0195|35=AI|34=3|49=EXC|56=002|57=002B35|52=20190611-23:36:44.227|117=20190611183622_S|55=TFIT15260826|762=RFQF|135=1500000000|62=20190617-22:00:00.000|297=9|300=99|58=(962): Deposito no fue ingresada|10=021|
8=FIX.4.4|9=0049|35=0|34=4|49=EXC|56=002|52=20190611-23:37:14.000|10=166|
8=FIX.4.4|9=59|35=0|34=3|49=002|50=002B35|52=20190611-23:37:14.501|56=EXC|10=043|
8=FIX.4.4|9=105|35=A|34=1|49=002|50=002B35|52=20190612-13:11:13.756|56=EXC|98=0|108=30|141=Y|553=002FCM001|554=002FCM001|10=084|
8=FIX.4.4|9=0067|35=A|34=1|49=EXC|56=002|52=20190612-13:11:13.801|98=0|108=30|141=Y|10=250|
8=FIX.4.4|9=0192|35=R|34=2|49=EXC|56=002|52=20190612-13:11:16.411|131=20190612-000000000001.00|146=1|55=TFIT15260826|762=RFQF|48=20348|22=M|54=1|38=1500000000|453=2|448=007B26|447=C|452=12|448=007|447=C|452=1|10=227|
8=FIX.4.4|9=179|35=S|34=2|49=002|50=002B35|52=20190612-13:11:32.746|56=EXC|55=TFIT15260826|62=20190617-22:00:00.000|117=2019061281110_S|131=20190612-000000000001.00|135=1500000000|634=6|762=RFQF|10=026|
8=FIX.4.4|9=0194|35=AI|34=3|49=EXC|56=002|57=002B35|52=20190612-13:11:32.753|117=2019061281110_S|55=TFIT15260826|762=RFQF|135=1500000000|62=20190617-22:00:00.000|297=9|300=99|58=(962): Deposito no fue ingresada|10=212|
8=FIX.4.4|9=105|35=A|34=1|49=002|50=002B35|52=20190612-13:23:09.999|56=EXC|98=0|108=30|141=Y|553=002FCM001|554=002FCM001|10=101|
8=FIX.4.4|9=0067|35=A|34=1|49=EXC|56=002|52=20190612-13:23:10.049|98=0|108=30|141=Y|10=254|
8=FIX.4.4|9=0192|35=R|34=2|49=EXC|56=002|52=20190612-13:23:12.449|131=20190612-000000000002.00|146=1|55=TFIT15260826|762=RFQF|48=20348|22=M|54=1|38=1500000000|453=2|448=007B26|447=C|452=12|448=007|447=C|452=1|10=238|
8=FIX.4.4|9=179|35=S|34=2|49=002|50=002B35|52=20190612-13:23:28.674|56=EXC|55=TFIT15260826|62=20190617-22:00:00.000|117=2019061282307_S|131=20190612-000000000002.00|135=1500000000|634=6|762=RFQF|10=044|
8=FIX.4.4|9=0194|35=AI|34=3|49=EXC|56=002|57=002B35|52=20190612-13:23:28.680|117=2019061282307_S|55=TFIT15260826|762=RFQF|135=1500000000|62=20190617-22:00:00.000|297=9|300=99|58=(962): Deposito no fue ingresada|10=228|
8=FIX.4.4|9=0049|35=0|34=4|49=EXC|56=002|52=20190612-13:23:58.000|10=169|
8=FIX.4.4|9=59|35=0|34=3|49=002|50=002B35|52=20190612-13:23:58.922|56=EXC|10=053|
8=FIX.4.4|9=0049|35=0|34=5|49=EXC|56=002|52=20190612-13:24:28.000|10=168|
8=FIX.4.4|9=59|35=0|34=4|49=002|50=002B35|52=20190612-13:24:28.921|56=EXC|10=051|
8=FIX.4.4|9=105|35=A|34=1|49=002|50=002B35|52=20190612-13:26:35.034|56=EXC|98=0|108=30|141=Y|553=002FCM001|554=002FCM001|10=083|
8=FIX.4.4|9=0067|35=A|34=1|49=EXC|56=002|52=20190612-13:26:35.076|98=0|108=30|141=Y|10=008|
8=FIX.4.4|9=0192|35=R|34=2|49=EXC|56=002|52=20190612-13:26:37.548|131=20190612-000000000003.00|146=1|55=TFIT15260826|762=RFQF|48=20348|22=M|54=1|38=1500000000|453=2|448=007B26|447=C|452=12|448=007|447=C|452=1|10=249|
8=FIX.4.4|9=179|35=S|34=2|49=002|50=002B35|52=20190612-13:26:53.884|56=EXC|55=TFIT15260826|62=20190617-22:00:00.000|117=2019061282632_S|131=20190612-000000000003.00|135=1500000000|634=6|762=RFQF|10=050|
8=FIX.4.4|9=0194|35=AI|34=3|49=EXC|56=002|57=002B35|52=20190612-13:26:53.892|117=2019061282632_S|55=TFIT15260826|762=RFQF|135=1500000000|62=20190617-22:00:00.000|297=9|300=99|58=(962): Deposito no fue ingresada|10=235|
8=FIX.4.4|9=105|35=A|34=1|49=002|50=002B35|52=20190612-13:28:07.277|56=EXC|98=0|108=30|141=Y|553=002FCM001|554=002FCM001|10=093|
8=FIX.4.4|9=0067|35=A|34=1|49=EXC|56=002|52=20190612-13:28:07.327|98=0|108=30|141=Y|10=008|
8=FIX.4.4|9=0192|35=R|34=2|49=EXC|56=002|52=20190612-13:28:09.737|131=20190612-000000000004.00|146=1|55=TFIT15260826|762=RFQF|48=20348|22=M|54=1|38=1500000000|453=2|448=007B26|447=C|452=12|448=007|447=C|452=1|10=251|
8=FIX.4.4|9=179|35=S|34=2|49=002|50=002B35|52=20190612-13:28:25.846|56=EXC|55=TFIT15260826|62=20190617-22:00:00.000|117=2019061282804_S|131=20190612-000000000004.00|135=1500000000|634=6|762=RFQF|10=051|
8=FIX.4.4|9=0194|35=AI|34=3|49=EXC|56=002|57=002B35|52=20190612-13:28:25.852|117=2019061282804_S|55=TFIT15260826|762=RFQF|135=1500000000|62=20190617-22:00:00.000|297=9|300=99|58=(962): Deposito no fue ingresada|10=233|
8=FIX.4.4|9=0049|35=0|34=4|49=EXC|56=002|52=20190612-13:28:55.000|10=171|
8=FIX.4.4|9=59|35=0|34=3|49=002|50=002B35|52=20190612-13:28:56.111|56=EXC|10=046|
8=FIX.4.4|9=105|35=A|34=1|49=002|50=002B35|52=20190612-13:36:22.660|56=EXC|98=0|108=30|141=Y|553=002FCM001|554=002FCM001|10=085|
8=FIX.4.4|9=0067|35=A|34=1|49=EXC|56=002|52=20190612-13:36:22.711|98=0|108=30|141=Y|10=001|
8=FIX.4.4|9=0192|35=R|34=2|49=EXC|56=002|52=20190612-13:36:25.229|131=20190612-000000000005.00|146=1|55=TFIT15260826|762=RFQF|48=20348|22=M|54=1|38=1500000000|453=2|448=007B26|447=C|452=12|448=007|447=C|452=1|10=245|
8=FIX.4.4|9=206|35=S|34=2|49=002|50=002B35|52=20190612-13:36:41.457|56=EXC|55=TFIT15260826|62=20190617-22:00:00.000|117=2019061283620_S|131=20190612-000000000005.00|135=1500000000|634=6|762=RFQF|453=1|448=DCV|447=C|452=10|10=067|
8=FIX.4.4|9=0301|35=AI|34=3|49=EXC|56=002|57=002B35|52=20190612-13:36:41.461|131=20190612-000000000005.00|117=2019061283620_S|453=4|448=DCV|447=C|452=10|448=007B26|447=C|452=12|448=007|447=C|452=1|448=002B35|447=C|452=37|55=TFIT15260826|762=RFQF|48=20348|22=M|54=1|634=6.000|135=1500000000|62=20190617-22:00:00|297=16|10=252|
8=FIX.4.4|9=0520|35=8|34=4|49=EXC|56=002|57=002B35|52=20190612-13:37:02.543|11=2019061283620_S|17=1|37=0|150=F|1080=20190612-000000000005.00|1081=6|453=6|448=002B35|447=C|452=12|448=002|447=C|452=1|448=007B26|447=C|452=37|448=007|447=C|452=17|448=002FCM001|447=C|452=36|448=DCV|447=C|452=10|55=TFIT15260826|762=RFQF|48=20348|22=M|6=108.535|14=1500000000|31=108.535|32=1500000000|38=1500000000|39=2|20102=114.493|54=2|60=20190612-13:37:02.543|75=20190612|63=1|64=20190612|151=0|1623=6.000|381=1717408500.000|880=201906120000000001|828=99|10=066|
8=FIX.4.4|9=59|35=0|34=3|49=002|50=002B35|52=20190612-13:37:11.571|56=EXC|10=047|
8=FIX.4.4|9=0049|35=0|34=5|49=EXC|56=002|52=20190612-13:37:32.000|10=167|
8=FIX.4.4|9=59|35=0|34=4|49=002|50=002B35|52=20190612-13:37:41.574|56=EXC|10=054|
8=FIX.4.4|9=0049|35=0|34=6|49=EXC|56=002|52=20190612-13:38:02.000|10=166|
8=FIX.4.4|9=59|35=0|34=5|49=002|50=002B35|52=20190612-13:38:11.570|56=EXC|10=049|
8=FIX.4.4|9=105|35=A|34=1|49=002|50=002B35|52=20190612-13:39:01.540|56=EXC|98=0|108=30|141=Y|553=002FCM001|554=002FCM001|10=082|
8=FIX.4.4|9=0067|35=A|34=1|49=EXC|56=002|52=20190612-13:39:01.587|98=0|108=30|141=Y|10=012|
8=FIX.4.4|9=0192|35=R|34=2|49=EXC|56=002|52=20190612-13:39:03.964|131=20190612-000000000006.00|146=1|55=TFIT15260826|762=RFQF|48=20348|22=M|54=1|38=1500000000|453=2|448=007B26|447=C|452=12|448=007|447=C|452=1|10=251|
8=FIX.4.4|9=206|35=S|34=2|49=002|50=002B35|52=20190612-13:39:20.169|56=EXC|55=TFIT15260826|62=20190617-22:00:00.000|117=2019061283858_S|131=20190612-000000000006.00|135=1500000000|634=6|762=RFQF|453=1|448=DCV|447=C|452=10|10=081|
8=FIX.4.4|9=0301|35=AI|34=3|49=EXC|56=002|57=002B35|52=20190612-13:39:20.172|131=20190612-000000000006.00|117=2019061283858_S|453=4|448=DCV|447=C|452=10|448=007B26|447=C|452=12|448=007|447=C|452=1|448=002B35|447=C|452=37|55=TFIT15260826|762=RFQF|48=20348|22=M|54=1|634=6.000|135=1500000000|62=20190617-22:00:00|297=16|10=009|
8=FIX.4.4|9=0520|35=8|34=4|49=EXC|56=002|57=002B35|52=20190612-13:39:41.344|11=2019061283858_S|17=2|37=0|150=F|1080=20190612-000000000006.00|1081=6|453=6|448=002B35|447=C|452=12|448=002|447=C|452=1|448=007B26|447=C|452=37|448=007|447=C|452=17|448=002FCM001|447=C|452=36|448=DCV|447=C|452=10|55=TFIT15260826|762=RFQF|48=20348|22=M|6=108.535|14=1500000000|31=108.535|32=1500000000|38=1500000000|39=2|20102=114.493|54=2|60=20190612-13:39:41.344|75=20190612|63=1|64=20190612|151=0|1623=6.000|381=1717408500.000|880=201906120000000002|828=99|10=090|
8=FIX.4.4|9=59|35=0|34=3|49=002|50=002B35|52=20190612-13:39:50.512|56=EXC|10=047|
8=FIX.4.4|9=0049|35=0|34=5|49=EXC|56=002|52=20190612-13:40:11.000|10=158|
8=FIX.4.4|9=59|35=0|34=4|49=002|50=002B35|52=20190612-13:40:20.526|56=EXC|10=042|
8=FIX.4.4|9=105|35=A|34=1|49=002|50=002B35|52=20190612-13:42:48.726|56=EXC|98=0|108=30|141=Y|553=002FCM001|554=002FCM001|10=093|
8=FIX.4.4|9=0067|35=A|34=1|49=EXC|56=002|52=20190612-13:42:48.765|98=0|108=30|141=Y|10=015|
8=FIX.4.4|9=0192|35=R|34=2|49=EXC|56=002|52=20190612-13:42:51.239|131=20190612-000000000007.00|146=1|55=TFIT15260826|762=RFQF|48=20348|22=M|54=1|38=1500000000|453=2|448=007B26|447=C|452=12|448=007|447=C|452=1|10=244|
8=FIX.4.4|9=206|35=S|34=2|49=002|50=002B35|52=20190612-13:43:07.343|56=EXC|55=TFIT15260826|62=20190617-22:00:00.000|117=2019061284245_S|131=20190612-000000000007.00|135=1500000000|634=6|762=RFQF|453=1|448=DCV|447=C|452=10|10=067|
8=FIX.4.4|9=0301|35=AI|34=3|49=EXC|56=002|57=002B35|52=20190612-13:43:07.346|131=20190612-000000000007.00|117=2019061284245_S|453=4|448=DCV|447=C|452=10|448=007B26|447=C|452=12|448=007|447=C|452=1|448=002B35|447=C|452=37|55=TFIT15260826|762=RFQF|48=20348|22=M|54=1|634=6.000|135=1500000000|62=20190617-22:00:00|297=16|10=004|
8=FIX.4.4|9=0520|35=8|34=4|49=EXC|56=002|57=002B35|52=20190612-13:43:28.948|11=2019061284245_S|17=3|37=0|150=F|1080=20190612-000000000007.00|1081=6|453=6|448=002B35|447=C|452=12|448=002|447=C|452=1|448=007B26|447=C|452=37|448=007|447=C|452=17|448=002FCM001|447=C|452=36|448=DCV|447=C|452=10|55=TFIT15260826|762=RFQF|48=20348|22=M|6=108.535|14=1500000000|31=108.535|32=1500000000|38=1500000000|39=2|20102=114.493|54=2|60=20190612-13:43:28.948|75=20190612|63=1|64=20190612|151=0|1623=6.000|381=1717408500.000|880=201906120000000003|828=99|10=104|
8=FIX.4.4|9=59|35=0|34=3|49=002|50=002B35|52=20190612-13:43:37.626|56=EXC|10=053|
8=FIX.4.4|9=0191|35=R|34=5|49=EXC|56=002|52=20190612-13:43:39.859|131=20190612-000000000008.00|146=1|55=TFIC14280426|762=RFQF|48=20602|22=M|54=1|38=500000000|453=2|448=001B27|447=C|452=12|448=001|447=C|452=1|10=175|
8=FIX.4.4|9=105|35=A|34=1|49=002|50=002B35|52=20190612-13:44:28.276|56=EXC|98=0|108=30|141=Y|553=002FCM001|554=002FCM001|10=093|
8=FIX.4.4|9=0067|35=A|34=1|49=EXC|56=002|52=20190612-13:44:28.317|98=0|108=30|141=Y|10=008|
8=FIX.4.4|9=0225|35=R|34=2|49=EXC|56=002|57=002B35|52=20190612-13:44:30.611|131=20190612-000000000009.00|146=1|55=TFIT16300632|762=RFQF|48=20406|22=M|54=1|38=500000000|453=3|448=001B27|447=C|452=12|448=001|447=C|452=1|448=002B35|447=C|452=37|10=006|
8=FIX.4.4|9=0217|35=R|34=3|49=EXC|56=002|57=002B35|52=20190612-13:44:41.181|131=20190612-000000000009.00|146=1|55=TFIT16300632|762=RFQF|48=20406|22=M|54=1|38=0|453=3|448=001B27|447=C|452=12|448=001|447=C|452=1|448=002B35|447=C|452=37|10=135|
8=FIX.4.4|9=59|35=0|34=2|49=002|50=002B35|52=20190612-13:44:59.217|56=EXC|10=053|
