8=FIX.4.4|9=110|35=A|34=1|49=002|50=002B35|52=20190607-14:13:04.905|56=EXC|43=Y|98=0|108=30|141=Y|553=002FCM001|554=002FCM001|10=081|
8=FIX.4.4|9=0067|35=A|34=1|49=EXC|56=002|52=20190607-14:13:04.997|98=0|108=30|141=Y|10=017|
8=FIX.4.4|9=0192|35=R|34=2|49=EXC|56=002|52=20190607-14:13:07.262|131=20190607-000000000012.00|146=1|55=TFIT15260826|762=RFQF|48=20348|22=M|54=1|38=1500000000|453=2|448=001B27|447=C|452=12|448=001|447=C|452=1|10=233|
8=FIX.4.4|9=110|35=A|34=1|49=002|50=002B35|52=20190607-15:35:43.208|56=EXC|43=Y|98=0|108=30|141=Y|553=002FCM001|554=002FCM001|10=085|
8=FIX.4.4|9=0067|35=A|34=1|49=EXC|56=002|52=20190607-15:35:43.280|98=0|108=30|141=Y|10=010|
8=FIX.4.4|9=110|35=A|34=1|49=002|50=002B35|52=20190607-16:16:18.199|56=EXC|43=Y|98=0|108=30|141=Y|553=002FCM001|554=002FCM001|10=096|
8=FIX.4.4|9=0067|35=A|34=1|49=EXC|56=002|52=20190607-16:16:18.277|98=0|108=30|141=Y|10=018|
8=FIX.4.4|9=0225|35=R|34=2|49=EXC|56=002|57=002B35|52=20190607-16:16:20.632|131=20190607-000000000027.00|146=1|55=TFIC13280425|762=RFQF|48=20626|22=M|54=1|38=500000000|453=3|448=001B27|447=C|452=12|448=001|447=C|452=1|448=002B35|447=C|452=37|10=009|
8=FIX.4.4|9=198|35=S|34=2|49=002|50=002B35|52=20190607-16:16:27.540|56=EXC|55=TFIC13280425|62=20190617-22:00:00.000|117=67293135|131=20190607-000000000027.00|135=500000000|634=4|762=RFQF|453=1|448=DCV|447=C|452=10|10=104|
8=FIX.4.4|9=0293|35=AI|34=3|49=EXC|56=002|57=002B35|52=20190607-16:16:27.549|131=20190607-000000000027.00|117=67293135|453=4|448=DCV|447=C|452=10|448=001B27|447=C|452=12|448=001|447=C|452=1|448=002B35|447=C|452=37|55=TFIC13280425|762=RFQF|48=20626|22=M|54=1|634=4.000|135=500000000|62=20190617-22:00:00|297=16|10=035|
8=FIX.4.4|9=110|35=A|34=1|49=002|50=002B35|52=20190607-16:39:55.110|56=EXC|43=Y|98=0|108=30|141=Y|553=002FCM001|554=002FCM001|10=085|
8=FIX.4.4|9=0067|35=A|34=1|49=EXC|56=002|52=20190607-16:39:55.159|98=0|108=30|141=Y|10=023|
8=FIX.4.4|9=0225|35=R|34=2|49=EXC|56=002|57=002B35|52=20190607-16:39:57.405|131=20190607-000000000030.00|146=1|55=TFIC13280425|762=RFQF|48=20626|22=M|54=1|38=500000000|453=3|448=001B27|447=C|452=12|448=001|447=C|452=1|448=002B35|447=C|452=37|10=016|
8=FIX.4.4|9=198|35=S|34=2|49=002|50=002B35|52=20190607-16:40:03.760|56=EXC|55=TFIC13280425|62=20190617-22:00:00.000|117=34600926|131=20190607-000000000030.00|135=500000000|634=4|762=RFQF|453=1|448=DCV|447=C|452=10|10=087|
8=FIX.4.4|9=0293|35=AI|34=3|49=EXC|56=002|57=002B35|52=20190607-16:40:03.747|131=20190607-000000000030.00|117=34600926|453=4|448=DCV|447=C|452=10|448=001B27|447=C|452=12|448=001|447=C|452=1|448=002B35|447=C|452=37|55=TFIC13280425|762=RFQF|48=20626|22=M|54=1|634=4.000|135=500000000|62=20190617-22:00:00|297=16|10=014|
8=FIX.4.4|9=110|35=A|34=1|49=002|50=002B35|52=20190607-16:43:05.070|56=EXC|43=Y|98=0|108=30|141=Y|553=002FCM001|554=002FCM001|10=080|
8=FIX.4.4|9=0067|35=A|34=1|49=EXC|56=002|52=20190607-16:43:05.093|98=0|108=30|141=Y|10=010|
8=FIX.4.4|9=0225|35=R|34=2|49=EXC|56=002|57=002B35|52=20190607-16:43:07.422|131=20190607-000000000031.00|146=1|55=TFIC13280425|762=RFQF|48=20626|22=M|54=1|38=500000000|453=3|448=001B27|447=C|452=12|448=001|447=C|452=1|448=002B35|447=C|452=37|10=006|
8=FIX.4.4|9=198|35=S|34=2|49=002|50=002B35|52=20190607-16:43:15.811|56=EXC|55=TFIC13280425|62=20190617-22:00:00.000|117=17134930|131=20190607-000000000031.00|135=500000000|634=4|762=RFQF|453=1|448=DCV|447=C|452=10|10=089|
8=FIX.4.4|9=0293|35=AI|34=3|49=EXC|56=002|57=002B35|52=20190607-16:43:15.797|131=20190607-000000000031.00|117=17134930|453=4|448=DCV|447=C|452=10|448=001B27|447=C|452=12|448=001|447=C|452=1|448=002B35|447=C|452=37|55=TFIC13280425|762=RFQF|48=20626|22=M|54=1|634=4.000|135=500000000|62=20190617-22:00:00|297=16|10=024|
8=FIX.4.4|9=110|35=A|34=1|49=002|50=002B35|52=20190607-16:44:16.278|56=EXC|43=Y|98=0|108=30|141=Y|553=002FCM001|554=002FCM001|10=093|
8=FIX.4.4|9=0067|35=A|34=1|49=EXC|56=002|52=20190607-16:44:16.301|98=0|108=30|141=Y|10=005|
8=FIX.4.4|9=0225|35=R|34=2|49=EXC|56=002|57=002B35|52=20190607-16:44:18.539|131=20190607-000000000032.00|146=1|55=TFIC13280425|762=RFQF|48=20626|22=M|54=1|38=500000000|453=3|448=001B27|447=C|452=12|448=001|447=C|452=1|448=002B35|447=C|452=37|10=019|
8=FIX.4.4|9=198|35=S|34=2|49=002|50=002B35|52=20190607-16:44:24.553|56=EXC|55=TFIC13280425|62=20190617-22:00:00.000|117=54146971|131=20190607-000000000032.00|135=500000000|634=4|762=RFQF|453=1|448=DCV|447=C|452=10|10=103|
8=FIX.4.4|9=0293|35=AI|34=3|49=EXC|56=002|57=002B35|52=20190607-16:44:24.541|131=20190607-000000000032.00|117=54146971|453=4|448=DCV|447=C|452=10|448=001B27|447=C|452=12|448=001|447=C|452=1|448=002B35|447=C|452=37|55=TFIC13280425|762=RFQF|48=20626|22=M|54=1|634=4.000|135=500000000|62=20190617-22:00:00|297=16|10=022|
8=FIX.4.4|9=0506|35=8|34=4|49=EXC|56=002|57=002B35|52=20190607-16:44:30.078|11=54146971|17=1|37=0|150=F|1080=20190607-000000000032.00|1081=6|453=6|448=002B35|447=C|452=12|448=002|447=C|452=1|448=001B27|447=C|452=37|448=001|447=C|452=17|448=002FCM001|447=C|452=36|448=DCV|447=C|452=10|55=TFIC13280425|762=RFQF|48=20626|22=M|6=79.371|14=500000000|31=79.371|32=500000000|38=500000000|39=2|20102=79.371|54=2|60=20190607-16:44:30.078|75=20190607|63=1|64=20190607|151=0|1623=4.000|381=396859500.000|880=201906070000000001|828=99|10=103|
8=FIX.4.4|9=110|35=A|34=1|49=002|50=002B35|52=20190607-16:47:05.076|56=EXC|43=Y|98=0|108=30|141=Y|553=002FCM001|554=002FCM001|10=090|
8=FIX.4.4|9=0067|35=A|34=1|49=EXC|56=002|52=20190607-16:47:05.139|98=0|108=30|141=Y|10=015|
8=FIX.4.4|9=0192|35=R|34=2|49=EXC|56=002|52=20190607-16:47:07.473|131=20190607-000000000033.00|146=1|55=TFIT15260826|762=RFQF|48=20348|22=M|54=1|38=1500000000|453=2|448=007B26|447=C|452=12|448=007|447=C|452=1|10=004|
8=FIX.4.4|9=110|35=A|34=1|49=002|50=002B35|52=20190607-16:53:12.184|56=EXC|43=Y|98=0|108=30|141=Y|553=002FCM001|554=002FCM001|10=085|
8=FIX.4.4|9=0067|35=A|34=1|49=EXC|56=002|52=20190607-16:53:12.206|98=0|108=30|141=Y|10=005|
8=FIX.4.4|9=0225|35=R|34=2|49=EXC|56=002|57=002B35|52=20190607-16:53:14.774|131=20190607-000000000035.00|146=1|55=TFIC13280425|762=RFQF|48=20626|22=M|54=1|38=500000000|453=3|448=001B27|447=C|452=12|448=001|447=C|452=1|448=002B35|447=C|452=37|10=019|
8=FIX.4.4|9=197|35=S|34=2|49=002|50=002B35|52=20190607-16:53:21.463|56=EXC|55=TFIC13280425|62=20190617-22:00:00.000|117=7547103|131=20190607-000000000035.00|135=500000000|634=4|762=RFQF|453=1|448=DCV|447=C|452=10|10=044|
8=FIX.4.4|9=0292|35=AI|34=3|49=EXC|56=002|57=002B35|52=20190607-16:53:21.444|131=20190607-000000000035.00|117=7547103|453=4|448=DCV|447=C|452=10|448=001B27|447=C|452=12|448=001|447=C|452=1|448=002B35|447=C|452=37|55=TFIC13280425|762=RFQF|48=20626|22=M|54=1|634=4.000|135=500000000|62=20190617-22:00:00|297=16|10=221|
8=FIX.4.4|9=0505|35=8|34=4|49=EXC|56=002|57=002B35|52=20190607-16:53:27.078|11=7547103|17=2|37=0|150=F|1080=20190607-000000000035.00|1081=6|453=6|448=002B35|447=C|452=12|448=002|447=C|452=1|448=001B27|447=C|452=37|448=001|447=C|452=17|448=002FCM001|447=C|452=36|448=DCV|447=C|452=10|55=TFIC13280425|762=RFQF|48=20626|22=M|6=79.371|14=500000000|31=79.371|32=500000000|38=500000000|39=2|20102=79.371|54=2|60=20190607-16:53:27.078|75=20190607|63=1|64=20190607|151=0|1623=4.000|381=396859500.000|880=201906070000000002|828=99|10=061|
8=FIX.4.4|9=110|35=A|34=1|49=002|50=002B35|52=20190607-17:01:26.071|56=EXC|43=Y|98=0|108=30|141=Y|553=002FCM001|554=002FCM001|10=079|
8=FIX.4.4|9=0067|35=A|34=1|49=EXC|56=002|52=20190607-17:01:26.085|98=0|108=30|141=Y|10=009|
8=FIX.4.4|9=0192|35=R|34=2|49=EXC|56=002|52=20190607-17:01:28.235|131=20190607-000000000037.00|146=1|55=TFIT15260826|762=RFQF|48=20348|22=M|54=1|38=1500000000|453=2|448=007B26|447=C|452=12|448=007|447=C|452=1|10=254|
8=FIX.4.4|9=110|35=A|34=1|49=002|50=002B35|52=20190607-17:05:59.163|56=EXC|43=Y|98=0|108=30|141=Y|553=002FCM001|554=002FCM001|10=091|
8=FIX.4.4|9=0067|35=A|34=1|49=EXC|56=002|52=20190607-17:05:59.211|98=0|108=30|141=Y|10=010|
8=FIX.4.4|9=0225|35=R|34=2|49=EXC|56=002|57=002B35|52=20190607-17:06:01.551|131=20190607-000000000038.00|146=1|55=TFIC13280425|762=RFQF|48=20626|22=M|54=1|38=500000000|453=3|448=001B27|447=C|452=12|448=001|447=C|452=1|448=002B35|447=C|452=37|10=010|
8=FIX.4.4|9=198|35=S|34=2|49=002|50=002B35|52=20190607-17:06:07.623|56=EXC|55=TFIC13280425|62=20190617-22:00:00.000|117=62754114|131=20190607-000000000038.00|135=500000000|634=4|762=RFQF|453=1|448=DCV|447=C|452=10|10=100|
8=FIX.4.4|9=0293|35=AI|34=3|49=EXC|56=002|57=002B35|52=20190607-17:06:07.587|131=20190607-000000000038.00|117=62754114|453=4|448=DCV|447=C|452=10|448=001B27|447=C|452=12|448=001|447=C|452=1|448=002B35|447=C|452=37|55=TFIC13280425|762=RFQF|48=20626|22=M|54=1|634=4.000|135=500000000|62=20190617-22:00:00|297=16|10=031|
8=FIX.4.4|9=0506|35=8|34=4|49=EXC|56=002|57=002B35|52=20190607-17:06:13.345|11=62754114|17=3|37=0|150=F|1080=20190607-000000000038.00|1081=6|453=6|448=002B35|447=C|452=12|448=002|447=C|452=1|448=001B27|447=C|452=37|448=001|447=C|452=17|448=002FCM001|447=C|452=36|448=DCV|447=C|452=10|55=TFIC13280425|762=RFQF|48=20626|22=M|6=79.371|14=500000000|31=79.371|32=500000000|38=500000000|39=2|20102=79.371|54=2|60=20190607-17:06:13.345|75=20190607|63=1|64=20190607|151=0|1623=4.000|381=396859500.000|880=201906070000000003|828=99|10=100|
