8=FIX.4.4|9=110|35=A|34=1|49=051|50=051B17|52=20190806-20:00:10.400|56=EXC|43=N|98=0|108=30|141=Y|553=051FCM001|554=051FCM001|10=067|
8=FIX.4.4|9=0067|35=A|34=1|49=EXC|56=051|52=20190806-20:01:03.705|98=0|108=30|141=Y|10=002|
8=FIX.4.4|9=110|35=A|34=1|49=051|50=051B17|52=20190806-20:06:52.223|56=EXC|43=N|98=0|108=30|141=Y|553=051FCM001|554=051FCM001|10=082|
8=FIX.4.4|9=0067|35=A|34=1|49=EXC|56=051|52=20190806-20:07:45.523|98=0|108=30|141=Y|10=012|
8=FIX.4.4|9=110|35=A|34=1|49=051|50=051B17|52=20190806-20:12:53.170|56=EXC|43=N|98=0|108=30|141=Y|553=051FCM001|554=051FCM001|10=081|
8=FIX.4.4|9=0067|35=A|34=1|49=EXC|56=051|52=20190806-20:13:46.476|98=0|108=30|141=Y|10=017|
8=FIX.4.4|9=110|35=A|34=1|49=051|50=051B17|52=20190806-21:41:14.930|56=EXC|43=N|98=0|108=30|141=Y|553=051FCM001|554=051FCM001|10=085|
8=FIX.4.4|9=0067|35=A|34=1|49=EXC|56=051|52=20190806-16:08:56.321|98=0|108=30|141=Y|10=016|
8=FIX.4.4|9=110|35=A|34=1|49=051|50=051B17|52=20190808-15:51:12.652|56=EXC|43=N|98=0|108=30|141=Y|553=051FCM001|554=051FCM001|10=090|
8=FIX.4.4|9=0067|35=A|34=1|49=EXC|56=051|52=20190809-15:52:07.644|98=0|108=30|141=Y|10=021|
8=FIX.4.4|9=110|35=A|34=1|49=051|50=051B17|52=20190808-15:52:05.608|56=EXC|43=N|98=0|108=30|141=Y|553=051FCM001|554=051FCM001|10=094|
8=FIX.4.4|9=0067|35=A|34=1|49=EXC|56=051|52=20190809-15:53:00.620|98=0|108=30|141=Y|10=009|
8=FIX.4.4|9=110|35=A|34=1|49=051|50=051B17|52=20190808-15:53:41.013|56=EXC|43=N|98=0|108=30|141=Y|553=051FCM001|554=051FCM001|10=085|
8=FIX.4.4|9=0067|35=A|34=1|49=EXC|56=051|52=20190809-15:54:36.020|98=0|108=30|141=Y|10=013|
8=FIX.4.4|9=110|35=A|34=1|49=051|50=051B17|52=20190808-15:57:35.634|56=EXC|43=N|98=0|108=30|141=Y|553=051FCM001|554=051FCM001|10=101|
8=FIX.4.4|9=0067|35=A|34=1|49=EXC|56=051|52=20190809-15:58:30.627|98=0|108=30|141=Y|10=024|
8=FIX.4.4|9=0049|35=0|34=2|49=EXC|56=051|52=20190809-15:59:00.000|10=177|
8=FIX.4.4|9=59|35=0|34=2|49=051|50=051B17|52=20190808-15:58:06.362|56=EXC|10=068|
8=FIX.4.4|9=0049|35=0|34=3|49=EXC|56=051|52=20190809-15:59:30.000|10=181|
8=FIX.4.4|9=59|35=0|34=3|49=051|50=051B17|52=20190808-15:58:36.425|56=EXC|10=072|
8=FIX.4.4|9=0049|35=0|34=4|49=EXC|56=051|52=20190809-16:00:00.000|10=166|
8=FIX.4.4|9=59|35=0|34=4|49=051|50=051B17|52=20190808-15:59:07.366|56=EXC|10=076|
8=FIX.4.4|9=0049|35=0|34=5|49=EXC|56=051|52=20190809-16:00:30.000|10=170|
8=FIX.4.4|9=59|35=0|34=5|49=051|50=051B17|52=20190808-15:59:37.364|56=EXC|10=078|
8=FIX.4.4|9=0049|35=0|34=6|49=EXC|56=051|52=20190809-16:01:00.000|10=169|
8=FIX.4.4|9=59|35=0|34=6|49=051|50=051B17|52=20190808-16:00:07.360|56=EXC|10=059|
8=FIX.4.4|9=0049|35=0|34=7|49=EXC|56=051|52=20190809-16:01:30.000|10=173|
8=FIX.4.4|9=59|35=0|34=7|49=051|50=051B17|52=20190808-16:00:38.014|56=EXC|10=060|
8=FIX.4.4|9=0049|35=0|34=8|49=EXC|56=051|52=20190809-16:02:00.000|10=172|
8=FIX.4.4|9=59|35=0|34=8|49=051|50=051B17|52=20190808-16:01:08.361|56=EXC|10=064|
8=FIX.4.4|9=0049|35=0|34=9|49=EXC|56=051|52=20190809-16:02:30.000|10=176|
8=FIX.4.4|9=59|35=0|34=9|49=051|50=051B17|52=20190808-16:01:38.789|56=EXC|10=082|
8=FIX.4.4|9=0050|35=0|34=10|49=EXC|56=051|52=20190809-16:03:00.000|10=206|
8=FIX.4.4|9=60|35=0|34=10|49=051|50=051B17|52=20190808-16:02:09.362|56=EXC|10=100|
8=FIX.4.4|9=0050|35=0|34=11|49=EXC|56=051|52=20190809-16:03:30.000|10=210|
8=FIX.4.4|9=60|35=0|34=11|49=051|50=051B17|52=20190808-16:02:39.577|56=EXC|10=112|
8=FIX.4.4|9=0050|35=0|34=12|49=EXC|56=051|52=20190809-16:04:00.000|10=209|
8=FIX.4.4|9=60|35=0|34=12|49=051|50=051B17|52=20190808-16:03:10.368|56=EXC|10=101|
8=FIX.4.4|9=0050|35=0|34=13|49=EXC|56=051|52=20190809-16:04:30.000|10=213|
8=FIX.4.4|9=60|35=0|34=13|49=051|50=051B17|52=20190808-16:03:40.401|56=EXC|10=093|
8=FIX.4.4|9=0050|35=0|34=14|49=EXC|56=051|52=20190809-16:05:00.000|10=212|
8=FIX.4.4|9=60|35=0|34=14|49=051|50=051B17|52=20190808-16:04:11.361|56=EXC|10=098|
8=FIX.4.4|9=0050|35=0|34=15|49=EXC|56=051|52=20190809-16:05:30.000|10=216|
8=FIX.4.4|9=60|35=0|34=15|49=051|50=051B17|52=20190808-16:04:41.365|56=EXC|10=106|
8=FIX.4.4|9=0050|35=0|34=16|49=EXC|56=051|52=20190809-16:06:00.000|10=215|
8=FIX.4.4|9=60|35=0|34=16|49=051|50=051B17|52=20190808-16:05:11.363|56=EXC|10=103|
8=FIX.4.4|9=0050|35=0|34=17|49=EXC|56=051|52=20190809-16:06:30.000|10=219|
8=FIX.4.4|9=60|35=0|34=17|49=051|50=051B17|52=20190808-16:05:41.994|56=EXC|10=117|
8=FIX.4.4|9=0050|35=0|34=18|49=EXC|56=051|52=20190809-16:07:00.000|10=218|
8=FIX.4.4|9=60|35=0|34=18|49=051|50=051B17|52=20190808-16:06:12.356|56=EXC|10=109|
8=FIX.4.4|9=0050|35=0|34=19|49=EXC|56=051|52=20190809-16:07:30.000|10=222|
8=FIX.4.4|9=60|35=0|34=19|49=051|50=051B17|52=20190808-16:06:42.826|56=EXC|10=115|
8=FIX.4.4|9=0050|35=0|34=20|49=EXC|56=051|52=20190809-16:08:00.000|10=212|
8=FIX.4.4|9=60|35=0|34=20|49=051|50=051B17|52=20190808-16:07:13.356|56=EXC|10=104|
8=FIX.4.4|9=0050|35=0|34=21|49=EXC|56=051|52=20190809-16:08:30.000|10=216|
8=FIX.4.4|9=60|35=0|34=21|49=051|50=051B17|52=20190808-16:07:43.475|56=EXC|10=110|
8=FIX.4.4|9=0050|35=0|34=22|49=EXC|56=051|52=20190809-16:09:00.000|10=215|
8=FIX.4.4|9=60|35=0|34=22|49=051|50=051B17|52=20190808-16:08:14.357|56=EXC|10=109|
8=FIX.4.4|9=0050|35=0|34=23|49=EXC|56=051|52=20190809-16:09:30.000|10=219|
8=FIX.4.4|9=60|35=0|34=23|49=051|50=051B17|52=20190808-16:08:44.353|56=EXC|10=109|
8=FIX.4.4|9=0050|35=0|34=24|49=EXC|56=051|52=20190809-16:10:00.000|10=209|
8=FIX.4.4|9=60|35=0|34=24|49=051|50=051B17|52=20190808-16:09:14.367|56=EXC|10=113|
8=FIX.4.4|9=0050|35=0|34=25|49=EXC|56=051|52=20190809-16:10:30.000|10=213|
8=FIX.4.4|9=60|35=0|34=25|49=051|50=051B17|52=20190808-16:09:44.815|56=EXC|10=115|
8=FIX.4.4|9=0050|35=0|34=26|49=EXC|56=051|52=20190809-16:11:00.000|10=212|
8=FIX.4.4|9=60|35=0|34=26|49=051|50=051B17|52=20190808-16:10:15.365|56=EXC|10=106|
8=FIX.4.4|9=0050|35=0|34=27|49=EXC|56=051|52=20190809-16:11:30.000|10=216|
8=FIX.4.4|9=60|35=0|34=27|49=051|50=051B17|52=20190808-16:10:45.563|56=EXC|10=110|
8=FIX.4.4|9=0050|35=0|34=28|49=EXC|56=051|52=20190809-16:12:00.000|10=215|
8=FIX.4.4|9=60|35=0|34=28|49=051|50=051B17|52=20190808-16:11:16.365|56=EXC|10=110|
8=FIX.4.4|9=0050|35=0|34=29|49=EXC|56=051|52=20190809-16:12:30.000|10=219|
8=FIX.4.4|9=60|35=0|34=29|49=051|50=051B17|52=20190808-16:11:46.356|56=EXC|10=114|
8=FIX.4.4|9=0050|35=0|34=30|49=EXC|56=051|52=20190809-16:13:00.000|10=209|
8=FIX.4.4|9=60|35=0|34=30|49=051|50=051B17|52=20190808-16:12:16.367|56=EXC|10=106|
8=FIX.4.4|9=0050|35=0|34=31|49=EXC|56=051|52=20190809-16:13:30.000|10=213|
8=FIX.4.4|9=60|35=0|34=31|49=051|50=051B17|52=20190808-16:12:47.048|56=EXC|10=107|
8=FIX.4.4|9=0050|35=0|34=32|49=EXC|56=051|52=20190809-16:14:00.000|10=212|
8=FIX.4.4|9=60|35=0|34=32|49=051|50=051B17|52=20190808-16:13:17.364|56=EXC|10=107|
8=FIX.4.4|9=0050|35=0|34=33|49=EXC|56=051|52=20190809-16:14:30.000|10=216|
8=FIX.4.4|9=60|35=0|34=33|49=051|50=051B17|52=20190808-16:13:47.884|56=EXC|10=118|
8=FIX.4.4|9=0050|35=0|34=34|49=EXC|56=051|52=20190809-16:15:00.000|10=215|
8=FIX.4.4|9=60|35=0|34=34|49=051|50=051B17|52=20190808-16:14:18.366|56=EXC|10=113|
8=FIX.4.4|9=0050|35=0|34=35|49=EXC|56=051|52=20190809-16:15:30.000|10=219|
8=FIX.4.4|9=60|35=0|34=35|49=051|50=051B17|52=20190808-16:14:48.659|56=EXC|10=122|
8=FIX.4.4|9=0050|35=0|34=36|49=EXC|56=051|52=20190809-16:16:00.000|10=218|
8=FIX.4.4|9=60|35=0|34=36|49=051|50=051B17|52=20190808-16:15:19.361|56=EXC|10=112|
8=FIX.4.4|9=0050|35=0|34=37|49=EXC|56=051|52=20190809-16:16:30.000|10=222|
8=FIX.4.4|9=60|35=0|34=37|49=051|50=051B17|52=20190808-16:15:49.451|56=EXC|10=116|
8=FIX.4.4|9=0050|35=0|34=38|49=EXC|56=051|52=20190809-16:17:00.000|10=221|
8=FIX.4.4|9=60|35=0|34=38|49=051|50=051B17|52=20190808-16:16:20.361|56=EXC|10=107|
8=FIX.4.4|9=0050|35=0|34=39|49=EXC|56=051|52=20190809-16:17:30.000|10=225|
8=FIX.4.4|9=60|35=0|34=39|49=051|50=051B17|52=20190808-16:16:50.362|56=EXC|10=112|
8=FIX.4.4|9=0050|35=0|34=40|49=EXC|56=051|52=20190809-16:18:00.000|10=215|
8=FIX.4.4|9=60|35=0|34=40|49=051|50=051B17|52=20190808-16:17:20.359|56=EXC|10=108|
8=FIX.4.4|9=0050|35=0|34=41|49=EXC|56=051|52=20190809-16:18:30.000|10=219|
8=FIX.4.4|9=60|35=0|34=41|49=051|50=051B17|52=20190808-16:17:51.173|56=EXC|10=107|
8=FIX.4.4|9=0050|35=0|34=42|49=EXC|56=051|52=20190809-16:19:00.000|10=218|
8=FIX.4.4|9=60|35=0|34=42|49=051|50=051B17|52=20190808-16:18:21.358|56=EXC|10=111|
8=FIX.4.4|9=0050|35=0|34=43|49=EXC|56=051|52=20190809-16:19:30.000|10=222|
8=FIX.4.4|9=60|35=0|34=43|49=051|50=051B17|52=20190808-16:18:51.796|56=EXC|10=121|
8=FIX.4.4|9=0050|35=0|34=44|49=EXC|56=051|52=20190809-16:20:00.000|10=212|
8=FIX.4.4|9=60|35=0|34=44|49=051|50=051B17|52=20190808-16:19:22.358|56=EXC|10=115|
8=FIX.4.4|9=0050|35=0|34=45|49=EXC|56=051|52=20190809-16:20:30.000|10=216|
8=FIX.4.4|9=60|35=0|34=45|49=051|50=051B17|52=20190808-16:19:52.541|56=EXC|10=113|
8=FIX.4.4|9=0050|35=0|34=46|49=EXC|56=051|52=20190809-16:21:00.000|10=215|
8=FIX.4.4|9=60|35=0|34=46|49=051|50=051B17|52=20190808-16:20:23.359|56=EXC|10=111|
8=FIX.4.4|9=0050|35=0|34=47|49=EXC|56=051|52=20190809-16:21:30.000|10=219|
8=FIX.4.4|9=60|35=0|34=47|49=051|50=051B17|52=20190808-16:20:53.370|56=EXC|10=108|
8=FIX.4.4|9=0050|35=0|34=48|49=EXC|56=051|52=20190809-16:22:00.000|10=218|
8=FIX.4.4|9=60|35=0|34=48|49=051|50=051B17|52=20190808-16:21:24.359|56=EXC|10=115|
8=FIX.4.4|9=0050|35=0|34=49|49=EXC|56=051|52=20190809-16:22:30.000|10=222|
8=FIX.4.4|9=60|35=0|34=49|49=051|50=051B17|52=20190808-16:21:54.357|56=EXC|10=117|
8=FIX.4.4|9=0050|35=0|34=50|49=EXC|56=051|52=20190809-16:23:00.000|10=212|
8=FIX.4.4|9=60|35=0|34=50|49=051|50=051B17|52=20190808-16:22:24.354|56=EXC|10=104|
8=FIX.4.4|9=0050|35=0|34=51|49=EXC|56=051|52=20190809-16:23:30.000|10=216|
8=FIX.4.4|9=60|35=0|34=51|49=051|50=051B17|52=20190808-16:22:54.976|56=EXC|10=118|
8=FIX.4.4|9=0050|35=0|34=52|49=EXC|56=051|52=20190809-16:24:00.000|10=215|
8=FIX.4.4|9=60|35=0|34=52|49=051|50=051B17|52=20190808-16:23:25.360|56=EXC|10=105|
8=FIX.4.4|9=0050|35=0|34=53|49=EXC|56=051|52=20190809-16:24:30.000|10=219|
8=FIX.4.4|9=60|35=0|34=53|49=051|50=051B17|52=20190808-16:23:55.746|56=EXC|10=117|
8=FIX.4.4|9=0050|35=0|34=54|49=EXC|56=051|52=20190809-16:25:00.000|10=218|
8=FIX.4.4|9=60|35=0|34=54|49=051|50=051B17|52=20190808-16:24:26.354|56=EXC|10=112|
8=FIX.4.4|9=0050|35=0|34=55|49=EXC|56=051|52=20190809-16:25:30.000|10=222|
8=FIX.4.4|9=60|35=0|34=55|49=051|50=051B17|52=20190808-16:24:56.604|56=EXC|10=114|
8=FIX.4.4|9=0050|35=0|34=56|49=EXC|56=051|52=20190809-16:26:00.000|10=221|
8=FIX.4.4|9=60|35=0|34=56|49=051|50=051B17|52=20190808-16:25:27.353|56=EXC|10=115|
8=FIX.4.4|9=0050|35=0|34=57|49=EXC|56=051|52=20190809-16:26:30.000|10=225|
8=FIX.4.4|9=60|35=0|34=57|49=051|50=051B17|52=20190808-16:25:57.354|56=EXC|10=120|
8=FIX.4.4|9=0050|35=0|34=58|49=EXC|56=051|52=20190809-16:27:00.000|10=224|
8=FIX.4.4|9=60|35=0|34=58|49=051|50=051B17|52=20190808-16:26:27.368|56=EXC|10=124|
8=FIX.4.4|9=0050|35=0|34=59|49=EXC|56=051|52=20190809-16:27:30.000|10=228|
8=FIX.4.4|9=60|35=0|34=59|49=051|50=051B17|52=20190808-16:26:58.099|56=EXC|10=130|
8=FIX.4.4|9=0050|35=0|34=60|49=EXC|56=051|52=20190809-16:28:00.000|10=218|
8=FIX.4.4|9=60|35=0|34=60|49=051|50=051B17|52=20190808-16:27:28.368|56=EXC|10=119|
8=FIX.4.4|9=0050|35=0|34=61|49=EXC|56=051|52=20190809-16:28:30.000|10=222|
8=FIX.4.4|9=60|35=0|34=61|49=051|50=051B17|52=20190808-16:27:58.758|56=EXC|10=126|
8=FIX.4.4|9=0050|35=0|34=62|49=EXC|56=051|52=20190809-16:29:00.000|10=221|
8=FIX.4.4|9=60|35=0|34=62|49=051|50=051B17|52=20190808-16:28:29.355|56=EXC|10=119|
8=FIX.4.4|9=0050|35=0|34=63|49=EXC|56=051|52=20190809-16:29:30.000|10=225|
8=FIX.4.4|9=60|35=0|34=63|49=051|50=051B17|52=20190808-16:28:59.529|56=EXC|10=126|
8=FIX.4.4|9=0050|35=0|34=64|49=EXC|56=051|52=20190809-16:30:00.000|10=215|
8=FIX.4.4|9=60|35=0|34=64|49=051|50=051B17|52=20190808-16:29:30.359|56=EXC|10=118|
8=FIX.4.4|9=0050|35=0|34=65|49=EXC|56=051|52=20190809-16:30:30.000|10=219|
8=FIX.4.4|9=60|35=0|34=65|49=051|50=051B17|52=20190808-16:30:00.356|56=EXC|10=105|
8=FIX.4.4|9=0050|35=0|34=66|49=EXC|56=051|52=20190809-16:31:00.000|10=218|
8=FIX.4.4|9=60|35=0|34=66|49=051|50=051B17|52=20190808-16:30:30.366|56=EXC|10=110|
8=FIX.4.4|9=0050|35=0|34=67|49=EXC|56=051|52=20190809-16:31:30.000|10=222|
8=FIX.4.4|9=60|35=0|34=67|49=051|50=051B17|52=20190808-16:31:01.176|56=EXC|10=109|
8=FIX.4.4|9=0050|35=0|34=68|49=EXC|56=051|52=20190809-16:32:00.000|10=221|
8=FIX.4.4|9=60|35=0|34=68|49=051|50=051B17|52=20190808-16:31:31.367|56=EXC|10=115|
8=FIX.4.4|9=0050|35=0|34=69|49=EXC|56=051|52=20190809-16:32:30.000|10=225|
8=FIX.4.4|9=60|35=0|34=69|49=051|50=051B17|52=20190808-16:32:02.000|56=EXC|10=099|
8=FIX.4.4|9=0050|35=0|34=70|49=EXC|56=051|52=20190809-16:33:00.000|10=215|
8=FIX.4.4|9=60|35=0|34=70|49=051|50=051B17|52=20190808-16:32:32.363|56=EXC|10=106|
8=FIX.4.4|9=0050|35=0|34=71|49=EXC|56=051|52=20190809-16:33:30.000|10=219|
8=FIX.4.4|9=60|35=0|34=71|49=051|50=051B17|52=20190808-16:33:02.816|56=EXC|10=108|
8=FIX.4.4|9=0050|35=0|34=72|49=EXC|56=051|52=20190809-16:34:00.000|10=218|
8=FIX.4.4|9=60|35=0|34=72|49=051|50=051B17|52=20190808-16:33:33.354|56=EXC|10=110|
8=FIX.4.4|9=0050|35=0|34=73|49=EXC|56=051|52=20190809-16:34:30.000|10=222|
8=FIX.4.4|9=60|35=0|34=73|49=051|50=051B17|52=20190808-16:34:03.652|56=EXC|10=110|
8=FIX.4.4|9=0050|35=0|34=74|49=EXC|56=051|52=20190809-16:35:00.000|10=221|
8=FIX.4.4|9=60|35=0|34=74|49=051|50=051B17|52=20190808-16:34:34.360|56=EXC|10=111|
8=FIX.4.4|9=0050|35=0|34=75|49=EXC|56=051|52=20190809-16:35:30.000|10=225|
8=FIX.4.4|9=60|35=0|34=75|49=051|50=051B17|52=20190808-16:35:04.473|56=EXC|10=115|
8=FIX.4.4|9=0050|35=0|34=76|49=EXC|56=051|52=20190809-16:36:00.000|10=224|
8=FIX.4.4|9=0050|35=0|34=77|49=EXC|56=051|52=20190809-16:36:30.000|10=228|
8=FIX.4.4|9=60|35=0|34=76|49=051|50=051B17|52=20190808-16:35:35.006|56=EXC|10=112|
8=FIX.4.4|9=0050|35=0|34=78|49=EXC|56=051|52=20190809-16:37:00.000|10=227|
8=FIX.4.4|9=60|35=0|34=77|49=051|50=051B17|52=20190808-16:36:05.003|56=EXC|10=108|
8=FIX.4.4|9=0050|35=0|34=79|49=EXC|56=051|52=20190809-16:37:30.000|10=231|
8=FIX.4.4|9=60|35=0|34=78|49=051|50=051B17|52=20190808-16:36:34.999|56=EXC|10=135|
8=FIX.4.4|9=0050|35=0|34=80|49=EXC|56=051|52=20190809-16:38:00.000|10=221|
8=FIX.4.4|9=60|35=0|34=79|49=051|50=051B17|52=20190808-16:37:05.004|56=EXC|10=112|
8=FIX.4.4|9=0050|35=0|34=81|49=EXC|56=051|52=20190809-16:38:30.000|10=225|
8=FIX.4.4|9=60|35=0|34=80|49=051|50=051B17|52=20190808-16:37:35.006|56=EXC|10=109|
8=FIX.4.4|9=0050|35=0|34=82|49=EXC|56=051|52=20190809-16:39:00.000|10=224|
8=FIX.4.4|9=60|35=0|34=81|49=051|50=051B17|52=20190808-16:38:05.854|56=EXC|10=119|
8=FIX.4.4|9=0050|35=0|34=83|49=EXC|56=051|52=20190809-16:39:30.000|10=228|
8=FIX.4.4|9=60|35=0|34=82|49=051|50=051B17|52=20190808-16:38:36.358|56=EXC|10=123|
8=FIX.4.4|9=0050|35=0|34=84|49=EXC|56=051|52=20190809-16:40:00.000|10=218|
8=FIX.4.4|9=60|35=0|34=83|49=051|50=051B17|52=20190808-16:39:06.665|56=EXC|10=123|
8=FIX.4.4|9=0050|35=0|34=85|49=EXC|56=051|52=20190809-16:40:30.000|10=222|
8=FIX.4.4|9=60|35=0|34=84|49=051|50=051B17|52=20190808-16:39:37.356|56=EXC|10=125|
8=FIX.4.4|9=0050|35=0|34=86|49=EXC|56=051|52=20190809-16:41:00.000|10=221|
8=FIX.4.4|9=60|35=0|34=85|49=051|50=051B17|52=20190808-16:40:07.352|56=EXC|10=111|
8=FIX.4.4|9=0050|35=0|34=87|49=EXC|56=051|52=20190809-16:41:30.000|10=225|
8=FIX.4.4|9=60|35=0|34=86|49=051|50=051B17|52=20190808-16:40:37.367|56=EXC|10=121|
8=FIX.4.4|9=0050|35=0|34=88|49=EXC|56=051|52=20190809-16:42:00.000|10=224|
8=FIX.4.4|9=60|35=0|34=87|49=051|50=051B17|52=20190808-16:41:08.198|56=EXC|10=123|
8=FIX.4.4|9=0050|35=0|34=89|49=EXC|56=051|52=20190809-16:42:30.000|10=228|
8=FIX.4.4|9=60|35=0|34=88|49=051|50=051B17|52=20190808-16:41:38.354|56=EXC|10=121|
8=FIX.4.4|9=0050|35=0|34=90|49=EXC|56=051|52=20190809-16:43:00.000|10=218|
8=FIX.4.4|9=60|35=0|34=89|49=051|50=051B17|52=20190808-16:42:09.013|56=EXC|10=113|
8=FIX.4.4|9=0050|35=0|34=91|49=EXC|56=051|52=20190809-16:43:30.000|10=222|
8=FIX.4.4|9=60|35=0|34=90|49=051|50=051B17|52=20190808-16:42:39.358|56=EXC|10=120|
8=FIX.4.4|9=110|35=A|34=1|49=051|50=051B17|52=20190808-16:43:01.430|56=EXC|43=N|98=0|108=30|141=Y|553=051FCM001|554=051FCM001|10=084|
8=FIX.4.4|9=110|35=A|34=1|49=051|50=051B17|52=20190808-16:44:02.413|56=EXC|43=N|98=0|108=30|141=Y|553=051FCM001|554=051FCM001|10=087|
8=FIX.4.4|9=0067|35=A|34=1|49=EXC|56=051|52=20190809-16:44:57.441|98=0|108=30|141=Y|10=023|
8=FIX.4.4|9=0049|35=0|34=2|49=EXC|56=051|52=20190809-16:45:27.000|10=182|
8=FIX.4.4|9=59|35=0|34=2|49=051|50=051B17|52=20190808-16:44:33.357|56=EXC|10=068|
8=FIX.4.4|9=0049|35=0|34=3|49=EXC|56=051|52=20190809-16:45:57.000|10=186|
8=FIX.4.4|9=110|35=A|34=1|49=051|50=051B17|52=20190808-16:45:03.407|56=EXC|43=N|98=0|108=30|141=Y|553=051FCM001|554=051FCM001|10=092|
8=FIX.4.4|9=110|35=A|34=1|49=051|50=051B17|52=20190808-16:46:04.406|56=EXC|43=N|98=0|108=30|141=Y|553=051FCM001|554=051FCM001|10=093|
8=FIX.4.4|9=0067|35=A|34=1|49=EXC|56=051|52=20190809-16:46:59.439|98=0|108=30|141=Y|10=034|
8=FIX.4.4|9=0049|35=0|34=2|49=EXC|56=051|52=20190809-16:47:29.000|10=186|
8=FIX.4.4|9=59|35=0|34=2|49=051|50=051B17|52=20190808-16:46:35.361|56=EXC|10=067|
8=FIX.4.4|9=0049|35=0|34=3|49=EXC|56=051|52=20190809-16:47:59.000|10=190|
8=FIX.4.4|9=59|35=0|34=3|49=051|50=051B17|52=20190808-16:47:05.367|56=EXC|10=072|
8=FIX.4.4|9=110|35=A|34=1|49=051|50=051B17|52=20190808-16:47:07.516|56=EXC|43=N|98=0|108=30|141=Y|553=051FCM001|554=051FCM001|10=099|
8=FIX.4.4|9=110|35=A|34=1|49=051|50=051B17|52=20190808-16:48:08.424|56=EXC|43=N|98=0|108=30|141=Y|553=051FCM001|554=051FCM001|10=099|
8=FIX.4.4|9=0067|35=A|34=1|49=EXC|56=051|52=20190809-16:49:03.464|98=0|108=30|141=Y|10=024|
8=FIX.4.4|9=0049|35=0|34=2|49=EXC|56=051|52=20190809-16:49:33.000|10=183|
8=FIX.4.4|9=59|35=0|34=2|49=051|50=051B17|52=20190808-16:48:39.367|56=EXC|10=079|
8=FIX.4.4|9=0049|35=0|34=3|49=EXC|56=051|52=20190809-16:50:03.000|10=173|
8=FIX.4.4|9=59|35=0|34=3|49=051|50=051B17|52=20190808-16:49:09.364|56=EXC|10=075|
8=FIX.4.4|9=110|35=A|34=1|49=051|50=051B17|52=20190808-16:49:11.468|56=EXC|43=N|98=0|108=30|141=Y|553=051FCM001|554=051FCM001|10=102|
8=FIX.4.4|9=110|35=A|34=1|49=051|50=051B17|52=20190808-16:50:12.403|56=EXC|43=N|98=0|108=30|141=Y|553=051FCM001|554=051FCM001|10=084|
8=FIX.4.4|9=0067|35=A|34=1|49=EXC|56=051|52=20190809-16:51:07.454|98=0|108=30|141=Y|10=020|
8=FIX.4.4|9=0049|35=0|34=2|49=EXC|56=051|52=20190809-16:51:37.000|10=180|
8=FIX.4.4|9=59|35=0|34=2|49=051|50=051B17|52=20190808-16:50:43.364|56=EXC|10=064|
8=FIX.4.4|9=0049|35=0|34=3|49=EXC|56=051|52=20190809-16:52:07.000|10=179|
8=FIX.4.4|9=59|35=0|34=3|49=051|50=051B17|52=20190808-16:51:13.364|56=EXC|10=063|
8=FIX.4.4|9=110|35=A|34=1|49=051|50=051B17|52=20190808-16:51:15.458|56=EXC|43=N|98=0|108=30|141=Y|553=051FCM001|554=051FCM001|10=098|
8=FIX.4.4|9=110|35=A|34=1|49=051|50=051B17|52=20190808-16:52:16.424|56=EXC|43=N|98=0|108=30|141=Y|553=051FCM001|554=051FCM001|10=093|
8=FIX.4.4|9=0067|35=A|34=1|49=EXC|56=051|52=20190809-16:53:11.463|98=0|108=30|141=Y|10=017|
8=FIX.4.4|9=0049|35=0|34=2|49=EXC|56=051|52=20190809-16:53:41.000|10=177|
8=FIX.4.4|9=59|35=0|34=2|49=051|50=051B17|52=20190808-16:52:47.364|56=EXC|10=070|
8=FIX.4.4|9=0049|35=0|34=3|49=EXC|56=051|52=20190809-16:54:11.000|10=176|
8=FIX.4.4|9=110|35=A|34=1|49=051|50=051B17|52=20190808-16:53:19.498|56=EXC|43=N|98=0|108=30|141=Y|553=051FCM001|554=051FCM001|10=108|
8=FIX.4.4|9=110|35=A|34=1|49=051|50=051B17|52=20190808-16:54:19.628|56=EXC|43=N|98=0|108=30|141=Y|553=051FCM001|554=051FCM001|10=104|
8=FIX.4.4|9=0067|35=A|34=1|49=EXC|56=051|52=20190809-16:55:14.670|98=0|108=30|141=Y|10=022|
8=FIX.4.4|9=0049|35=0|34=2|49=EXC|56=051|52=20190809-16:55:44.000|10=182|
8=FIX.4.4|9=59|35=0|34=2|49=051|50=051B17|52=20190808-16:54:50.363|56=EXC|10=065|
8=FIX.4.4|9=0049|35=0|34=3|49=EXC|56=051|52=20190809-16:56:14.000|10=181|
8=FIX.4.4|9=59|35=0|34=3|49=051|50=051B17|52=20190808-16:55:20.414|56=EXC|10=061|
8=FIX.4.4|9=0049|35=0|34=4|49=EXC|56=051|52=20190809-16:56:44.000|10=185|
8=FIX.4.4|9=59|35=0|34=4|49=051|50=051B17|52=20190808-16:55:51.361|56=EXC|10=067|
8=FIX.4.4|9=0049|35=0|34=5|49=EXC|56=051|52=20190809-16:57:14.000|10=184|
8=FIX.4.4|9=59|35=0|34=5|49=051|50=051B17|52=20190808-16:56:21.359|56=EXC|10=073|
8=FIX.4.4|9=0049|35=0|34=6|49=EXC|56=051|52=20190809-16:57:44.000|10=188|
8=FIX.4.4|9=59|35=0|34=6|49=051|50=051B17|52=20190808-16:56:51.358|56=EXC|10=076|
8=FIX.4.4|9=0049|35=0|34=7|49=EXC|56=051|52=20190809-16:58:14.000|10=187|
8=FIX.4.4|9=59|35=0|34=7|49=051|50=051B17|52=20190808-16:57:21.955|56=EXC|10=078|
8=FIX.4.4|9=0049|35=0|34=8|49=EXC|56=051|52=20190809-16:58:44.000|10=191|
8=FIX.4.4|9=59|35=0|34=8|49=051|50=051B17|52=20190808-16:57:52.357|56=EXC|10=079|
8=FIX.4.4|9=0049|35=0|34=9|49=EXC|56=051|52=20190809-16:59:14.000|10=190|
8=FIX.4.4|9=59|35=0|34=9|49=051|50=051B17|52=20190808-16:58:22.824|56=EXC|10=077|
8=FIX.4.4|9=0050|35=0|34=10|49=EXC|56=051|52=20190809-16:59:44.000|10=225|
8=FIX.4.4|9=60|35=0|34=10|49=051|50=051B17|52=20190808-16:58:53.357|56=EXC|10=114|
8=FIX.4.4|9=0050|35=0|34=11|49=EXC|56=051|52=20190809-17:00:14.000|10=210|
8=FIX.4.4|9=60|35=0|34=11|49=051|50=051B17|52=20190808-16:59:23.686|56=EXC|10=118|
8=FIX.4.4|9=0050|35=0|34=12|49=EXC|56=051|52=20190809-17:00:44.000|10=214|
8=FIX.4.4|9=60|35=0|34=12|49=051|50=051B17|52=20190808-16:59:54.358|56=EXC|10=119|
8=FIX.4.4|9=0050|35=0|34=13|49=EXC|56=051|52=20190809-17:01:14.000|10=213|
8=FIX.4.4|9=60|35=0|34=13|49=051|50=051B17|52=20190808-17:00:24.413|56=EXC|10=096|
8=FIX.4.4|9=0050|35=0|34=14|49=EXC|56=051|52=20190809-17:01:44.000|10=217|
8=FIX.4.4|9=60|35=0|34=14|49=051|50=051B17|52=20190808-17:00:55.355|56=EXC|10=106|
8=FIX.4.4|9=0050|35=0|34=15|49=EXC|56=051|52=20190809-17:02:14.000|10=216|
8=FIX.4.4|9=60|35=0|34=15|49=051|50=051B17|52=20190808-17:01:25.358|56=EXC|10=108|
8=FIX.4.4|9=0050|35=0|34=16|49=EXC|56=051|52=20190809-17:02:44.000|10=220|
8=FIX.4.4|9=60|35=0|34=16|49=051|50=051B17|52=20190808-17:01:55.353|56=EXC|10=107|
8=FIX.4.4|9=110|35=A|34=1|49=051|50=051B17|52=20190808-17:02:16.417|56=EXC|43=N|98=0|108=30|141=Y|553=051FCM001|554=051FCM001|10=091|
8=FIX.4.4|9=110|35=A|34=1|49=051|50=051B17|52=20190808-17:03:17.412|56=EXC|43=N|98=0|108=30|141=Y|553=051FCM001|554=051FCM001|10=088|
8=FIX.4.4|9=0067|35=A|34=1|49=EXC|56=051|52=20190809-17:04:12.464|98=0|108=30|141=Y|10=016|
8=FIX.4.4|9=0049|35=0|34=2|49=EXC|56=051|52=20190809-17:04:42.000|10=175|
8=FIX.4.4|9=59|35=0|34=2|49=051|50=051B17|52=20190808-17:03:48.367|56=EXC|10=071|
8=FIX.4.4|9=0049|35=0|34=3|49=EXC|56=051|52=20190809-17:05:12.000|10=174|
8=FIX.4.4|9=59|35=0|34=3|49=051|50=051B17|52=20190808-17:04:18.368|56=EXC|10=071|
8=FIX.4.4|9=0049|35=0|34=4|49=EXC|56=051|52=20190809-17:05:42.000|10=178|
8=FIX.4.4|9=59|35=0|34=4|49=051|50=051B17|52=20190808-17:04:48.368|56=EXC|10=075|
8=FIX.4.4|9=0049|35=0|34=5|49=EXC|56=051|52=20190809-17:06:12.000|10=177|
8=FIX.4.4|9=59|35=0|34=5|49=051|50=051B17|52=20190808-17:05:18.367|56=EXC|10=073|
8=FIX.4.4|9=0049|35=0|34=6|49=EXC|56=051|52=20190809-17:06:42.000|10=181|
8=FIX.4.4|9=59|35=0|34=6|49=051|50=051B17|52=20190808-17:05:49.357|56=EXC|10=077|
8=FIX.4.4|9=0049|35=0|34=7|49=EXC|56=051|52=20190809-17:07:12.000|10=180|
8=FIX.4.4|9=59|35=0|34=7|49=051|50=051B17|52=20190808-17:06:19.359|56=EXC|10=078|
8=FIX.4.4|9=0049|35=0|34=8|49=EXC|56=051|52=20190809-17:07:42.000|10=184|
8=FIX.4.4|9=59|35=0|34=8|49=051|50=051B17|52=20190808-17:06:49.358|56=EXC|10=081|
8=FIX.4.4|9=0049|35=0|34=9|49=EXC|56=051|52=20190809-17:08:12.000|10=183|
8=FIX.4.4|9=59|35=0|34=9|49=051|50=051B17|52=20190808-17:07:19.366|56=EXC|10=079|
8=FIX.4.4|9=0050|35=0|34=10|49=EXC|56=051|52=20190809-17:08:42.000|10=218|
8=FIX.4.4|9=60|35=0|34=10|49=051|50=051B17|52=20190808-17:07:49.365|56=EXC|10=113|
8=FIX.4.4|9=0050|35=0|34=11|49=EXC|56=051|52=20190809-17:09:12.000|10=217|
8=FIX.4.4|9=60|35=0|34=11|49=051|50=051B17|52=20190808-17:08:19.365|56=EXC|10=112|
8=FIX.4.4|9=0050|35=0|34=12|49=EXC|56=051|52=20190809-17:09:42.000|10=221|
8=FIX.4.4|9=60|35=0|34=12|49=051|50=051B17|52=20190808-17:08:49.363|56=EXC|10=114|
8=FIX.4.4|9=0050|35=0|34=13|49=EXC|56=051|52=20190809-17:10:12.000|10=211|
8=FIX.4.4|9=60|35=0|34=13|49=051|50=051B17|52=20190808-17:09:19.363|56=EXC|10=113|
8=FIX.4.4|9=0050|35=0|34=14|49=EXC|56=051|52=20190809-17:10:42.000|10=215|
8=FIX.4.4|9=60|35=0|34=14|49=051|50=051B17|52=20190808-17:09:49.363|56=EXC|10=117|
8=FIX.4.4|9=0050|35=0|34=15|49=EXC|56=051|52=20190809-17:11:12.000|10=214|
8=FIX.4.4|9=60|35=0|34=15|49=051|50=051B17|52=20190808-17:10:19.362|56=EXC|10=106|
8=FIX.4.4|9=0050|35=0|34=16|49=EXC|56=051|52=20190809-17:11:42.000|10=218|
8=FIX.4.4|9=60|35=0|34=16|49=051|50=051B17|52=20190808-17:10:49.361|56=EXC|10=109|
8=FIX.4.4|9=0050|35=0|34=17|49=EXC|56=051|52=20190809-17:12:12.000|10=217|
8=FIX.4.4|9=60|35=0|34=17|49=051|50=051B17|52=20190808-17:11:19.363|56=EXC|10=110|
8=FIX.4.4|9=0050|35=0|34=18|49=EXC|56=051|52=20190809-17:12:42.000|10=221|
8=FIX.4.4|9=60|35=0|34=18|49=051|50=051B17|52=20190808-17:11:49.362|56=EXC|10=113|
8=FIX.4.4|9=0050|35=0|34=19|49=EXC|56=051|52=20190809-17:13:12.000|10=220|
8=FIX.4.4|9=60|35=0|34=19|49=051|50=051B17|52=20190808-17:12:19.354|56=EXC|10=113|
8=FIX.4.4|9=0050|35=0|34=20|49=EXC|56=051|52=20190809-17:13:42.000|10=215|
8=FIX.4.4|9=60|35=0|34=20|49=051|50=051B17|52=20190808-17:12:49.366|56=EXC|10=111|
8=FIX.4.4|9=0050|35=0|34=21|49=EXC|56=051|52=20190809-17:14:12.000|10=214|
8=FIX.4.4|9=60|35=0|34=21|49=051|50=051B17|52=20190808-17:13:19.359|56=EXC|10=112|
8=FIX.4.4|9=0050|35=0|34=22|49=EXC|56=051|52=20190809-17:14:42.000|10=218|
8=FIX.4.4|9=60|35=0|34=22|49=051|50=051B17|52=20190808-17:13:49.359|56=EXC|10=116|
8=FIX.4.4|9=0050|35=0|34=23|49=EXC|56=051|52=20190809-17:15:12.000|10=217|
8=FIX.4.4|9=60|35=0|34=23|49=051|50=051B17|52=20190808-17:14:19.358|56=EXC|10=114|
8=FIX.4.4|9=0050|35=0|34=24|49=EXC|56=051|52=20190809-17:15:42.000|10=221|
8=FIX.4.4|9=60|35=0|34=24|49=051|50=051B17|52=20190808-17:14:49.359|56=EXC|10=119|
8=FIX.4.4|9=0050|35=0|34=25|49=EXC|56=051|52=20190809-17:16:12.000|10=220|
8=FIX.4.4|9=60|35=0|34=25|49=051|50=051B17|52=20190808-17:15:19.357|56=EXC|10=116|
8=FIX.4.4|9=0050|35=0|34=26|49=EXC|56=051|52=20190809-17:16:42.000|10=224|
8=FIX.4.4|9=60|35=0|34=26|49=051|50=051B17|52=20190808-17:15:49.357|56=EXC|10=120|
8=FIX.4.4|9=0050|35=0|34=27|49=EXC|56=051|52=20190809-17:17:12.000|10=223|
8=FIX.4.4|9=60|35=0|34=27|49=051|50=051B17|52=20190808-17:16:19.357|56=EXC|10=119|
8=FIX.4.4|9=0050|35=0|34=28|49=EXC|56=051|52=20190809-17:17:42.000|10=227|
8=FIX.4.4|9=60|35=0|34=28|49=051|50=051B17|52=20190808-17:16:49.357|56=EXC|10=123|
8=FIX.4.4|9=0050|35=0|34=29|49=EXC|56=051|52=20190809-17:18:12.000|10=226|
8=FIX.4.4|9=60|35=0|34=29|49=051|50=051B17|52=20190808-17:17:19.357|56=EXC|10=122|
8=FIX.4.4|9=0050|35=0|34=30|49=EXC|56=051|52=20190809-17:18:42.000|10=221|
8=FIX.4.4|9=60|35=0|34=30|49=051|50=051B17|52=20190808-17:17:49.359|56=EXC|10=119|
8=FIX.4.4|9=0050|35=0|34=31|49=EXC|56=051|52=20190809-17:19:12.000|10=220|
8=FIX.4.4|9=60|35=0|34=31|49=051|50=051B17|52=20190808-17:18:19.355|56=EXC|10=114|
8=FIX.4.4|9=0050|35=0|34=32|49=EXC|56=051|52=20190809-17:19:42.000|10=224|
8=FIX.4.4|9=60|35=0|34=32|49=051|50=051B17|52=20190808-17:18:49.355|56=EXC|10=118|
8=FIX.4.4|9=0050|35=0|34=33|49=EXC|56=051|52=20190809-17:20:12.000|10=214|
8=FIX.4.4|9=60|35=0|34=33|49=051|50=051B17|52=20190808-17:19:19.354|56=EXC|10=116|
8=FIX.4.4|9=0050|35=0|34=34|49=EXC|56=051|52=20190809-17:20:42.000|10=218|
8=FIX.4.4|9=60|35=0|34=34|49=051|50=051B17|52=20190808-17:19:49.363|56=EXC|10=120|
8=FIX.4.4|9=0050|35=0|34=35|49=EXC|56=051|52=20190809-17:21:12.000|10=217|
8=FIX.4.4|9=60|35=0|34=35|49=051|50=051B17|52=20190808-17:20:19.354|56=EXC|10=110|
8=FIX.4.4|9=0050|35=0|34=36|49=EXC|56=051|52=20190809-17:21:42.000|10=221|
8=FIX.4.4|9=60|35=0|34=36|49=051|50=051B17|52=20190808-17:20:49.354|56=EXC|10=114|
8=FIX.4.4|9=0050|35=0|34=37|49=EXC|56=051|52=20190809-17:22:12.000|10=220|
8=FIX.4.4|9=60|35=0|34=37|49=051|50=051B17|52=20190808-17:21:19.354|56=EXC|10=113|
8=FIX.4.4|9=0050|35=0|34=38|49=EXC|56=051|52=20190809-17:22:42.000|10=224|
8=FIX.4.4|9=60|35=0|34=38|49=051|50=051B17|52=20190808-17:21:49.368|56=EXC|10=122|
8=FIX.4.4|9=0050|35=0|34=39|49=EXC|56=051|52=20190809-17:23:12.000|10=223|
8=FIX.4.4|9=60|35=0|34=39|49=051|50=051B17|52=20190808-17:22:19.367|56=EXC|10=120|
8=FIX.4.4|9=0050|35=0|34=40|49=EXC|56=051|52=20190809-17:23:42.000|10=218|
8=FIX.4.4|9=60|35=0|34=40|49=051|50=051B17|52=20190808-17:22:49.368|56=EXC|10=116|
8=FIX.4.4|9=0050|35=0|34=41|49=EXC|56=051|52=20190809-17:24:12.000|10=217|
8=FIX.4.4|9=60|35=0|34=41|49=051|50=051B17|52=20190808-17:23:19.367|56=EXC|10=114|
8=FIX.4.4|9=0050|35=0|34=42|49=EXC|56=051|52=20190809-17:24:42.000|10=221|
8=FIX.4.4|9=60|35=0|34=42|49=051|50=051B17|52=20190808-17:23:50.356|56=EXC|10=108|
8=FIX.4.4|9=0050|35=0|34=43|49=EXC|56=051|52=20190809-17:25:12.000|10=220|
8=FIX.4.4|9=60|35=0|34=43|49=051|50=051B17|52=20190808-17:24:20.353|56=EXC|10=104|
8=FIX.4.4|9=0050|35=0|34=44|49=EXC|56=051|52=20190809-17:25:42.000|10=224|
8=FIX.4.4|9=60|35=0|34=44|49=051|50=051B17|52=20190808-17:24:50.366|56=EXC|10=112|
8=FIX.4.4|9=0050|35=0|34=45|49=EXC|56=051|52=20190809-17:26:12.000|10=223|
8=FIX.4.4|9=60|35=0|34=45|49=051|50=051B17|52=20190808-17:25:21.354|56=EXC|10=109|
8=FIX.4.4|9=0050|35=0|34=46|49=EXC|56=051|52=20190809-17:26:42.000|10=227|
8=FIX.4.4|9=60|35=0|34=46|49=051|50=051B17|52=20190808-17:25:51.353|56=EXC|10=112|
8=FIX.4.4|9=0050|35=0|34=47|49=EXC|56=051|52=20190809-17:27:12.000|10=226|
8=FIX.4.4|9=60|35=0|34=47|49=051|50=051B17|52=20190808-17:26:21.361|56=EXC|10=110|
8=FIX.4.4|9=0050|35=0|34=48|49=EXC|56=051|52=20190809-17:27:42.000|10=230|
8=FIX.4.4|9=60|35=0|34=48|49=051|50=051B17|52=20190808-17:26:51.367|56=EXC|10=120|
8=FIX.4.4|9=0050|35=0|34=49|49=EXC|56=051|52=20190809-17:28:12.000|10=229|
8=FIX.4.4|9=60|35=0|34=49|49=051|50=051B17|52=20190808-17:27:21.364|56=EXC|10=116|
8=FIX.4.4|9=0050|35=0|34=50|49=EXC|56=051|52=20190809-17:28:42.000|10=224|
8=FIX.4.4|9=60|35=0|34=50|49=051|50=051B17|52=20190808-17:27:51.364|56=EXC|10=111|
8=FIX.4.4|9=0050|35=0|34=51|49=EXC|56=051|52=20190809-17:29:12.000|10=223|
8=FIX.4.4|9=60|35=0|34=51|49=051|50=051B17|52=20190808-17:28:21.363|56=EXC|10=109|
8=FIX.4.4|9=0050|35=0|34=52|49=EXC|56=051|52=20190809-17:29:42.000|10=227|
8=FIX.4.4|9=60|35=0|34=52|49=051|50=051B17|52=20190808-17:28:51.362|56=EXC|10=112|
8=FIX.4.4|9=0050|35=0|34=53|49=EXC|56=051|52=20190809-17:30:12.000|10=217|
8=FIX.4.4|9=60|35=0|34=53|49=051|50=051B17|52=20190808-17:29:21.362|56=EXC|10=111|
8=FIX.4.4|9=0050|35=0|34=54|49=EXC|56=051|52=20190809-17:30:42.000|10=221|
8=FIX.4.4|9=60|35=0|34=54|49=051|50=051B17|52=20190808-17:29:51.366|56=EXC|10=119|
8=FIX.4.4|9=0050|35=0|34=55|49=EXC|56=051|52=20190809-17:31:12.000|10=220|
8=FIX.4.4|9=60|35=0|34=55|49=051|50=051B17|52=20190808-17:30:21.362|56=EXC|10=105|
8=FIX.4.4|9=0050|35=0|34=56|49=EXC|56=051|52=20190809-17:31:42.000|10=224|
8=FIX.4.4|9=60|35=0|34=56|49=051|50=051B17|52=20190808-17:30:51.364|56=EXC|10=111|
8=FIX.4.4|9=0050|35=0|34=57|49=EXC|56=051|52=20190809-17:32:12.000|10=223|
8=FIX.4.4|9=60|35=0|34=57|49=051|50=051B17|52=20190808-17:31:21.359|56=EXC|10=114|
8=FIX.4.4|9=0050|35=0|34=58|49=EXC|56=051|52=20190809-17:32:42.000|10=227|
8=FIX.4.4|9=60|35=0|34=58|49=051|50=051B17|52=20190808-17:31:51.353|56=EXC|10=112|
8=FIX.4.4|9=0050|35=0|34=59|49=EXC|56=051|52=20190809-17:33:12.000|10=226|
8=FIX.4.4|9=60|35=0|34=59|49=051|50=051B17|52=20190808-17:32:21.368|56=EXC|10=117|
8=FIX.4.4|9=0050|35=0|34=60|49=EXC|56=051|52=20190809-17:33:42.000|10=221|
8=FIX.4.4|9=60|35=0|34=60|49=051|50=051B17|52=20190808-17:32:51.359|56=EXC|10=112|
8=FIX.4.4|9=0050|35=0|34=61|49=EXC|56=051|52=20190809-17:34:12.000|10=220|
8=FIX.4.4|9=60|35=0|34=61|49=051|50=051B17|52=20190808-17:33:21.363|56=EXC|10=106|
8=FIX.4.4|9=0050|35=0|34=62|49=EXC|56=051|52=20190809-17:34:42.000|10=224|
8=FIX.4.4|9=60|35=0|34=62|49=051|50=051B17|52=20190808-17:33:51.360|56=EXC|10=107|
8=FIX.4.4|9=0050|35=0|34=63|49=EXC|56=051|52=20190809-17:35:12.000|10=223|
8=FIX.4.4|9=60|35=0|34=63|49=051|50=051B17|52=20190808-17:34:21.358|56=EXC|10=113|
8=FIX.4.4|9=0050|35=0|34=64|49=EXC|56=051|52=20190809-17:35:42.000|10=227|
8=FIX.4.4|9=60|35=0|34=64|49=051|50=051B17|52=20190808-17:34:51.362|56=EXC|10=112|
8=FIX.4.4|9=0050|35=0|34=65|49=EXC|56=051|52=20190809-17:36:12.000|10=226|
8=FIX.4.4|9=60|35=0|34=65|49=051|50=051B17|52=20190808-17:35:21.360|56=EXC|10=109|
8=FIX.4.4|9=0050|35=0|34=66|49=EXC|56=051|52=20190809-17:36:42.000|10=230|
8=FIX.4.4|9=60|35=0|34=66|49=051|50=051B17|52=20190808-17:35:51.360|56=EXC|10=113|
8=FIX.4.4|9=0050|35=0|34=67|49=EXC|56=051|52=20190809-17:37:12.000|10=229|
8=FIX.4.4|9=60|35=0|34=67|49=051|50=051B17|52=20190808-17:36:21.355|56=EXC|10=116|
8=FIX.4.4|9=0050|35=0|34=68|49=EXC|56=051|52=20190809-17:37:42.000|10=233|
8=FIX.4.4|9=60|35=0|34=68|49=051|50=051B17|52=20190808-17:36:51.476|56=EXC|10=124|
8=FIX.4.4|9=0050|35=0|34=69|49=EXC|56=051|52=20190809-17:38:12.000|10=232|
8=FIX.4.4|9=60|35=0|34=69|49=051|50=051B17|52=20190808-17:37:22.353|56=EXC|10=118|
8=FIX.4.4|9=0050|35=0|34=70|49=EXC|56=051|52=20190809-17:38:42.000|10=227|
8=FIX.4.4|9=60|35=0|34=70|49=051|50=051B17|52=20190808-17:37:52.359|56=EXC|10=119|
8=FIX.4.4|9=0050|35=0|34=71|49=EXC|56=051|52=20190809-17:39:12.000|10=226|
8=FIX.4.4|9=60|35=0|34=71|49=051|50=051B17|52=20190808-17:38:22.368|56=EXC|10=118|
8=FIX.4.4|9=0050|35=0|34=72|49=EXC|56=051|52=20190809-17:39:42.000|10=230|
8=FIX.4.4|9=60|35=0|34=72|49=051|50=051B17|52=20190808-17:38:53.177|56=EXC|10=121|
8=FIX.4.4|9=0050|35=0|34=73|49=EXC|56=051|52=20190809-17:40:12.000|10=220|
8=FIX.4.4|9=60|35=0|34=73|49=051|50=051B17|52=20190808-17:39:23.367|56=EXC|10=121|
8=FIX.4.4|9=0050|35=0|34=74|49=EXC|56=051|52=20190809-17:40:42.000|10=224|
8=FIX.4.4|9=60|35=0|34=74|49=051|50=051B17|52=20190808-17:39:53.883|56=EXC|10=128|
8=FIX.4.4|9=0050|35=0|34=75|49=EXC|56=051|52=20190809-17:41:12.000|10=223|
8=FIX.4.4|9=60|35=0|34=75|49=051|50=051B17|52=20190808-17:40:24.366|56=EXC|10=115|
8=FIX.4.4|9=0050|35=0|34=76|49=EXC|56=051|52=20190809-17:41:42.000|10=227|
8=FIX.4.4|9=60|35=0|34=76|49=051|50=051B17|52=20190808-17:40:54.631|56=EXC|10=114|
8=FIX.4.4|9=0050|35=0|34=77|49=EXC|56=051|52=20190809-17:42:12.000|10=226|
8=FIX.4.4|9=60|35=0|34=77|49=051|50=051B17|52=20190808-17:41:25.364|56=EXC|10=117|
8=FIX.4.4|9=0050|35=0|34=78|49=EXC|56=051|52=20190809-17:42:42.000|10=230|
8=FIX.4.4|9=60|35=0|34=78|49=051|50=051B17|52=20190808-17:41:55.409|56=EXC|10=121|
8=FIX.4.4|9=0050|35=0|34=79|49=EXC|56=051|52=20190809-17:43:12.000|10=229|
8=FIX.4.4|9=60|35=0|34=79|49=051|50=051B17|52=20190808-17:42:26.363|56=EXC|10=120|
8=FIX.4.4|9=0050|35=0|34=80|49=EXC|56=051|52=20190809-17:43:42.000|10=224|
8=FIX.4.4|9=60|35=0|34=80|49=051|50=051B17|52=20190808-17:42:56.368|56=EXC|10=120|
8=FIX.4.4|9=0050|35=0|34=81|49=EXC|56=051|52=20190809-17:44:12.000|10=223|
8=FIX.4.4|9=60|35=0|34=81|49=051|50=051B17|52=20190808-17:43:26.360|56=EXC|10=111|
8=FIX.4.4|9=0050|35=0|34=82|49=EXC|56=051|52=20190809-17:44:42.000|10=227|
8=FIX.4.4|9=60|35=0|34=82|49=051|50=051B17|52=20190808-17:43:56.969|56=EXC|10=130|
8=FIX.4.4|9=0050|35=0|34=83|49=EXC|56=051|52=20190809-17:45:12.000|10=226|
8=FIX.4.4|9=60|35=0|34=83|49=051|50=051B17|52=20190808-17:44:27.362|56=EXC|10=117|
8=FIX.4.4|9=0050|35=0|34=84|49=EXC|56=051|52=20190809-17:45:42.000|10=230|
8=FIX.4.4|9=60|35=0|34=84|49=051|50=051B17|52=20190808-17:44:57.753|56=EXC|10=125|
8=FIX.4.4|9=0050|35=0|34=85|49=EXC|56=051|52=20190809-17:46:12.000|10=229|
8=FIX.4.4|9=60|35=0|34=85|49=051|50=051B17|52=20190808-17:45:28.360|56=EXC|10=119|
8=FIX.4.4|9=0050|35=0|34=86|49=EXC|56=051|52=20190809-17:46:42.000|10=233|
8=FIX.4.4|9=60|35=0|34=86|49=051|50=051B17|52=20190808-17:45:58.564|56=EXC|10=129|
8=FIX.4.4|9=0050|35=0|34=87|49=EXC|56=051|52=20190809-17:47:12.000|10=232|
8=FIX.4.4|9=60|35=0|34=87|49=051|50=051B17|52=20190808-17:46:29.360|56=EXC|10=123|
8=FIX.4.4|9=0050|35=0|34=88|49=EXC|56=051|52=20190809-17:47:42.000|10=236|
8=FIX.4.4|9=60|35=0|34=88|49=051|50=051B17|52=20190808-17:46:59.396|56=EXC|10=136|
8=FIX.4.4|9=0050|35=0|34=89|49=EXC|56=051|52=20190809-17:48:12.000|10=235|
8=FIX.4.4|9=60|35=0|34=89|49=051|50=051B17|52=20190808-17:47:30.353|56=EXC|10=120|
8=FIX.4.4|9=0050|35=0|34=90|49=EXC|56=051|52=20190809-17:48:42.000|10=230|
8=FIX.4.4|9=60|35=0|34=90|49=051|50=051B17|52=20190808-17:48:00.354|56=EXC|10=111|
8=FIX.4.4|9=0050|35=0|34=91|49=EXC|56=051|52=20190809-17:49:12.000|10=229|
8=FIX.4.4|9=60|35=0|34=91|49=051|50=051B17|52=20190808-17:48:30.357|56=EXC|10=118|
8=FIX.4.4|9=0050|35=0|34=92|49=EXC|56=051|52=20190809-17:49:42.000|10=233|
8=FIX.4.4|9=60|35=0|34=92|49=051|50=051B17|52=20190808-17:49:00.944|56=EXC|10=119|
8=FIX.4.4|9=0050|35=0|34=93|49=EXC|56=051|52=20190809-17:50:12.000|10=223|
8=FIX.4.4|9=60|35=0|34=93|49=051|50=051B17|52=20190808-17:49:31.365|56=EXC|10=121|
8=FIX.4.4|9=0050|35=0|34=94|49=EXC|56=051|52=20190809-17:50:42.000|10=227|
8=FIX.4.4|9=60|35=0|34=94|49=051|50=051B17|52=20190808-17:50:01.721|56=EXC|10=107|
8=FIX.4.4|9=0050|35=0|34=95|49=EXC|56=051|52=20190809-17:51:12.000|10=226|
8=FIX.4.4|9=60|35=0|34=95|49=051|50=051B17|52=20190808-17:50:32.364|56=EXC|10=115|
8=FIX.4.4|9=0050|35=0|34=96|49=EXC|56=051|52=20190809-17:51:42.000|10=230|
8=FIX.4.4|9=60|35=0|34=96|49=051|50=051B17|52=20190808-17:51:02.439|56=EXC|10=117|
8=FIX.4.4|9=0050|35=0|34=97|49=EXC|56=051|52=20190809-17:52:12.000|10=229|
8=FIX.4.4|9=60|35=0|34=97|49=051|50=051B17|52=20190808-17:51:33.359|56=EXC|10=123|
8=FIX.4.4|9=0050|35=0|34=98|49=EXC|56=051|52=20190809-17:52:42.000|10=233|
8=FIX.4.4|9=60|35=0|34=98|49=051|50=051B17|52=20190808-17:52:03.362|56=EXC|10=116|
8=FIX.4.4|9=0050|35=0|34=99|49=EXC|56=051|52=20190809-17:53:12.000|10=232|
8=FIX.4.4|9=60|35=0|34=99|49=051|50=051B17|52=20190808-17:52:33.363|56=EXC|10=121|
8=FIX.4.4|9=0051|35=0|34=100|49=EXC|56=051|52=20190809-17:53:42.000|10=011|
8=FIX.4.4|9=61|35=0|34=100|49=051|50=051B17|52=20190808-17:53:03.924|56=EXC|10=154|
8=FIX.4.4|9=0051|35=0|34=101|49=EXC|56=051|52=20190809-17:54:12.000|10=010|
8=FIX.4.4|9=61|35=0|34=101|49=051|50=051B17|52=20190808-17:53:34.361|56=EXC|10=154|
8=FIX.4.4|9=0051|35=0|34=102|49=EXC|56=051|52=20190809-17:54:42.000|10=014|
8=FIX.4.4|9=61|35=0|34=102|49=051|50=051B17|52=20190808-17:54:04.651|56=EXC|10=155|
8=FIX.4.4|9=0051|35=0|34=103|49=EXC|56=051|52=20190809-17:55:12.000|10=013|
8=FIX.4.4|9=61|35=0|34=103|49=051|50=051B17|52=20190808-17:54:35.361|56=EXC|10=158|
8=FIX.4.4|9=0051|35=0|34=104|49=EXC|56=051|52=20190809-17:55:42.000|10=017|
8=FIX.4.4|9=61|35=0|34=104|49=051|50=051B17|52=20190808-17:55:05.388|56=EXC|10=166|
8=FIX.4.4|9=0051|35=0|34=105|49=EXC|56=051|52=20190809-17:56:12.000|10=016|
8=FIX.4.4|9=61|35=0|34=105|49=051|50=051B17|52=20190808-17:55:36.359|56=EXC|10=169|
8=FIX.4.4|9=0051|35=0|34=106|49=EXC|56=051|52=20190809-17:56:42.000|10=020|
8=FIX.4.4|9=61|35=0|34=106|49=051|50=051B17|52=20190808-17:56:06.358|56=EXC|10=167|
8=FIX.4.4|9=0051|35=0|34=107|49=EXC|56=051|52=20190809-17:57:12.000|10=019|
8=FIX.4.4|9=61|35=0|34=107|49=051|50=051B17|52=20190808-17:56:36.357|56=EXC|10=170|
8=FIX.4.4|9=0051|35=0|34=108|49=EXC|56=051|52=20190809-17:57:42.000|10=023|
8=FIX.4.4|9=61|35=0|34=108|49=051|50=051B17|52=20190808-17:57:06.872|56=EXC|10=171|
8=FIX.4.4|9=0051|35=0|34=109|49=EXC|56=051|52=20190809-17:58:12.000|10=022|
8=FIX.4.4|9=61|35=0|34=109|49=051|50=051B17|52=20190808-17:57:37.357|56=EXC|10=174|
8=FIX.4.4|9=0051|35=0|34=110|49=EXC|56=051|52=20190809-17:58:42.000|10=017|
8=FIX.4.4|9=61|35=0|34=110|49=051|50=051B17|52=20190808-17:58:07.654|56=EXC|10=164|
8=FIX.4.4|9=0051|35=0|34=111|49=EXC|56=051|52=20190809-17:59:12.000|10=016|
8=FIX.4.4|9=61|35=0|34=111|49=051|50=051B17|52=20190808-17:58:38.357|56=EXC|10=169|
8=FIX.4.4|9=0051|35=0|34=112|49=EXC|56=051|52=20190809-17:59:42.000|10=020|
8=FIX.4.4|9=61|35=0|34=112|49=051|50=051B17|52=20190808-17:59:08.434|56=EXC|10=164|
8=FIX.4.4|9=0051|35=0|34=113|49=EXC|56=051|52=20190809-18:00:12.000|10=005|
8=FIX.4.4|9=61|35=0|34=113|49=051|50=051B17|52=20190808-17:59:39.356|56=EXC|10=172|
8=FIX.4.4|9=0051|35=0|34=114|49=EXC|56=051|52=20190809-18:00:42.000|10=009|
8=FIX.4.4|9=61|35=0|34=114|49=051|50=051B17|52=20190808-18:00:09.358|56=EXC|10=159|
8=FIX.4.4|9=0051|35=0|34=115|49=EXC|56=051|52=20190809-18:01:12.000|10=008|
8=FIX.4.4|9=61|35=0|34=115|49=051|50=051B17|52=20190808-18:00:39.358|56=EXC|10=163|
8=FIX.4.4|9=0051|35=0|34=116|49=EXC|56=051|52=20190809-18:01:42.000|10=012|
8=FIX.4.4|9=61|35=0|34=116|49=051|50=051B17|52=20190808-18:01:10.007|56=EXC|10=145|
8=FIX.4.4|9=0051|35=0|34=117|49=EXC|56=051|52=20190809-18:02:12.000|10=011|
8=FIX.4.4|9=61|35=0|34=117|49=051|50=051B17|52=20190808-18:01:40.354|56=EXC|10=154|
8=FIX.4.4|9=0051|35=0|34=118|49=EXC|56=051|52=20190809-18:02:42.000|10=015|
8=FIX.4.4|9=61|35=0|34=118|49=051|50=051B17|52=20190808-18:02:10.744|56=EXC|10=156|
8=FIX.4.4|9=0051|35=0|34=119|49=EXC|56=051|52=20190809-18:03:12.000|10=014|
8=FIX.4.4|9=61|35=0|34=119|49=051|50=051B17|52=20190808-18:02:41.353|56=EXC|10=157|
8=FIX.4.4|9=0051|35=0|34=120|49=EXC|56=051|52=20190809-18:03:42.000|10=009|
8=FIX.4.4|9=61|35=0|34=120|49=051|50=051B17|52=20190808-18:03:11.443|56=EXC|10=147|
8=FIX.4.4|9=0051|35=0|34=121|49=EXC|56=051|52=20190809-18:04:12.000|10=008|
8=FIX.4.4|9=61|35=0|34=121|49=051|50=051B17|52=20190808-18:03:42.368|56=EXC|10=158|
8=FIX.4.4|9=0051|35=0|34=122|49=EXC|56=051|52=20190809-18:04:42.000|10=012|
8=FIX.4.4|9=61|35=0|34=122|49=051|50=051B17|52=20190808-18:04:13.354|56=EXC|10=153|
8=FIX.4.4|9=0051|35=0|34=123|49=EXC|56=051|52=20190809-18:05:12.000|10=011|
8=FIX.4.4|9=61|35=0|34=123|49=051|50=051B17|52=20190808-18:04:43.366|56=EXC|10=160|
8=FIX.4.4|9=0051|35=0|34=124|49=EXC|56=051|52=20190809-18:05:42.000|10=015|
8=FIX.4.4|9=61|35=0|34=124|49=051|50=051B17|52=20190808-18:05:14.354|56=EXC|10=157|
8=FIX.4.4|9=0051|35=0|34=125|49=EXC|56=051|52=20190809-18:06:12.000|10=014|
8=FIX.4.4|9=61|35=0|34=125|49=051|50=051B17|52=20190808-18:05:44.365|56=EXC|10=163|
8=FIX.4.4|9=0051|35=0|34=126|49=EXC|56=051|52=20190809-18:06:42.000|10=018|
8=FIX.4.4|9=61|35=0|34=126|49=051|50=051B17|52=20190808-18:06:14.359|56=EXC|10=165|
8=FIX.4.4|9=0051|35=0|34=127|49=EXC|56=051|52=20190809-18:07:12.000|10=017|
8=FIX.4.4|9=61|35=0|34=127|49=051|50=051B17|52=20190808-18:06:44.365|56=EXC|10=166|
8=FIX.4.4|9=0051|35=0|34=128|49=EXC|56=051|52=20190809-18:07:42.000|10=021|
8=FIX.4.4|9=61|35=0|34=128|49=051|50=051B17|52=20190808-18:07:14.533|56=EXC|10=162|
8=FIX.4.4|9=0051|35=0|34=129|49=EXC|56=051|52=20190809-18:08:12.000|10=020|
8=FIX.4.4|9=61|35=0|34=129|49=051|50=051B17|52=20190808-18:07:45.364|56=EXC|10=169|
8=FIX.4.4|9=0051|35=0|34=130|49=EXC|56=051|52=20190809-18:08:42.000|10=015|
8=FIX.4.4|9=61|35=0|34=130|49=051|50=051B17|52=20190808-18:08:15.376|56=EXC|10=162|
8=FIX.4.4|9=0051|35=0|34=131|49=EXC|56=051|52=20190809-18:09:12.000|10=014|
8=FIX.4.4|9=61|35=0|34=131|49=051|50=051B17|52=20190808-18:08:46.364|56=EXC|10=164|
8=FIX.4.4|9=0051|35=0|34=132|49=EXC|56=051|52=20190809-18:09:42.000|10=018|
8=FIX.4.4|9=0051|35=0|34=133|49=EXC|56=051|52=20190809-18:10:12.000|10=008|
8=FIX.4.4|9=61|35=0|34=132|49=051|50=051B17|52=20190808-18:09:16.901|56=EXC|10=160|
8=FIX.4.4|9=0051|35=0|34=134|49=EXC|56=051|52=20190809-18:10:42.000|10=012|
8=FIX.4.4|9=61|35=0|34=133|49=051|50=051B17|52=20190808-18:09:46.904|56=EXC|10=167|
8=FIX.4.4|9=0051|35=0|34=135|49=EXC|56=051|52=20190809-18:11:12.000|10=011|
8=FIX.4.4|9=61|35=0|34=134|49=051|50=051B17|52=20190808-18:10:16.953|56=EXC|10=161|
8=FIX.4.4|9=0051|35=0|34=136|49=EXC|56=051|52=20190809-18:11:42.000|10=015|
8=FIX.4.4|9=61|35=0|34=135|49=051|50=051B17|52=20190808-18:10:47.360|56=EXC|10=158|
8=FIX.4.4|9=0051|35=0|34=137|49=EXC|56=051|52=20190809-18:12:12.000|10=014|
8=FIX.4.4|9=61|35=0|34=136|49=051|50=051B17|52=20190808-18:11:17.687|56=EXC|10=169|
8=FIX.4.4|9=0051|35=0|34=138|49=EXC|56=051|52=20190809-18:12:42.000|10=018|
8=FIX.4.4|9=61|35=0|34=137|49=051|50=051B17|52=20190808-18:11:48.359|56=EXC|10=170|
8=FIX.4.4|9=0051|35=0|34=139|49=EXC|56=051|52=20190809-18:13:12.000|10=017|
8=FIX.4.4|9=61|35=0|34=138|49=051|50=051B17|52=20190808-18:12:18.420|56=EXC|10=158|
8=FIX.4.4|9=0051|35=0|34=140|49=EXC|56=051|52=20190809-18:13:42.000|10=012|
8=FIX.4.4|9=61|35=0|34=139|49=051|50=051B17|52=20190808-18:12:49.363|56=EXC|10=169|
8=FIX.4.4|9=0051|35=0|34=141|49=EXC|56=051|52=20190809-18:14:12.000|10=011|
8=FIX.4.4|9=61|35=0|34=140|49=051|50=051B17|52=20190808-18:13:19.361|56=EXC|10=157|
8=FIX.4.4|9=0051|35=0|34=142|49=EXC|56=051|52=20190809-18:14:42.000|10=015|
8=FIX.4.4|9=61|35=0|34=141|49=051|50=051B17|52=20190808-18:13:49.358|56=EXC|10=167|
8=FIX.4.4|9=0051|35=0|34=143|49=EXC|56=051|52=20190809-18:15:12.000|10=014|
8=FIX.4.4|9=61|35=0|34=142|49=051|50=051B17|52=20190808-18:14:20.040|56=EXC|10=146|
8=FIX.4.4|9=0051|35=0|34=144|49=EXC|56=051|52=20190809-18:15:42.000|10=018|
8=FIX.4.4|9=61|35=0|34=143|49=051|50=051B17|52=20190808-18:14:50.359|56=EXC|10=163|
8=FIX.4.4|9=0051|35=0|34=145|49=EXC|56=051|52=20190809-18:16:12.000|10=017|
8=FIX.4.4|9=61|35=0|34=144|49=051|50=051B17|52=20190808-18:15:20.793|56=EXC|10=164|
8=FIX.4.4|9=0051|35=0|34=146|49=EXC|56=051|52=20190809-18:16:42.000|10=021|
8=FIX.4.4|9=61|35=0|34=145|49=051|50=051B17|52=20190808-18:15:51.358|56=EXC|10=166|
8=FIX.4.4|9=0051|35=0|34=147|49=EXC|56=051|52=20190809-18:17:12.000|10=020|
8=FIX.4.4|9=61|35=0|34=146|49=051|50=051B17|52=20190808-18:16:21.620|56=EXC|10=157|
8=FIX.4.4|9=0051|35=0|34=148|49=EXC|56=051|52=20190809-18:17:42.000|10=024|
8=FIX.4.4|9=61|35=0|34=147|49=051|50=051B17|52=20190808-18:16:52.357|56=EXC|10=169|
8=FIX.4.4|9=0051|35=0|34=149|49=EXC|56=051|52=20190809-18:18:12.000|10=023|
8=FIX.4.4|9=61|35=0|34=148|49=051|50=051B17|52=20190808-18:17:22.359|56=EXC|10=170|
8=FIX.4.4|9=0051|35=0|34=150|49=EXC|56=051|52=20190809-18:18:42.000|10=018|
8=FIX.4.4|9=61|35=0|34=149|49=051|50=051B17|52=20190808-18:17:52.356|56=EXC|10=171|
8=FIX.4.4|9=0051|35=0|34=151|49=EXC|56=051|52=20190809-18:19:12.000|10=017|
8=FIX.4.4|9=61|35=0|34=150|49=051|50=051B17|52=20190808-18:18:23.087|56=EXC|10=163|
8=FIX.4.4|9=0051|35=0|34=152|49=EXC|56=051|52=20190809-18:19:42.000|10=021|
8=FIX.4.4|9=61|35=0|34=151|49=051|50=051B17|52=20190808-18:18:53.356|56=EXC|10=166|
8=FIX.4.4|9=0051|35=0|34=153|49=EXC|56=051|52=20190809-18:20:12.000|10=011|
8=FIX.4.4|9=61|35=0|34=152|49=051|50=051B17|52=20190808-18:19:23.855|56=EXC|10=169|
8=FIX.4.4|9=0051|35=0|34=154|49=EXC|56=051|52=20190809-18:20:42.000|10=015|
8=FIX.4.4|9=61|35=0|34=153|49=051|50=051B17|52=20190808-18:19:54.360|56=EXC|10=165|
8=FIX.4.4|9=0051|35=0|34=155|49=EXC|56=051|52=20190809-18:21:12.000|10=014|
8=FIX.4.4|9=61|35=0|34=154|49=051|50=051B17|52=20190808-18:20:24.538|56=EXC|10=162|
8=FIX.4.4|9=0051|35=0|34=156|49=EXC|56=051|52=20190809-18:21:42.000|10=018|
8=FIX.4.4|9=61|35=0|34=155|49=051|50=051B17|52=20190808-18:20:55.354|56=EXC|10=163|
8=FIX.4.4|9=0051|35=0|34=157|49=EXC|56=051|52=20190809-18:22:12.000|10=017|
8=FIX.4.4|9=61|35=0|34=156|49=051|50=051B17|52=20190808-18:21:25.356|56=EXC|10=164|
8=FIX.4.4|9=0051|35=0|34=158|49=EXC|56=051|52=20190809-18:22:42.000|10=021|
8=FIX.4.4|9=61|35=0|34=157|49=051|50=051B17|52=20190808-18:21:55.353|56=EXC|10=165|
8=FIX.4.4|9=0051|35=0|34=159|49=EXC|56=051|52=20190809-18:23:12.000|10=020|
8=FIX.4.4|9=61|35=0|34=158|49=051|50=051B17|52=20190808-18:22:26.075|56=EXC|10=166|
8=FIX.4.4|9=0051|35=0|34=160|49=EXC|56=051|52=20190809-18:23:42.000|10=015|
8=FIX.4.4|9=61|35=0|34=159|49=051|50=051B17|52=20190808-18:22:56.357|56=EXC|10=173|
8=FIX.4.4|9=0051|35=0|34=161|49=EXC|56=051|52=20190809-18:24:12.000|10=014|
8=FIX.4.4|9=61|35=0|34=160|49=051|50=051B17|52=20190808-18:23:26.865|56=EXC|10=167|
8=FIX.4.4|9=0051|35=0|34=162|49=EXC|56=051|52=20190809-18:24:42.000|10=018|
8=FIX.4.4|9=61|35=0|34=161|49=051|50=051B17|52=20190808-18:23:57.367|56=EXC|10=169|
8=FIX.4.4|9=0051|35=0|34=163|49=EXC|56=051|52=20190809-18:25:12.000|10=017|
8=FIX.4.4|9=61|35=0|34=162|49=051|50=051B17|52=20190808-18:24:27.523|56=EXC|10=162|
8=FIX.4.4|9=0051|35=0|34=164|49=EXC|56=051|52=20190809-18:25:42.000|10=021|
8=FIX.4.4|9=61|35=0|34=163|49=051|50=051B17|52=20190808-18:24:58.354|56=EXC|10=169|
8=FIX.4.4|9=0051|35=0|34=165|49=EXC|56=051|52=20190809-18:26:12.000|10=020|
8=FIX.4.4|9=61|35=0|34=164|49=051|50=051B17|52=20190808-18:25:28.367|56=EXC|10=172|
8=FIX.4.4|9=0051|35=0|34=166|49=EXC|56=051|52=20190809-18:26:42.000|10=024|
8=FIX.4.4|9=61|35=0|34=165|49=051|50=051B17|52=20190808-18:25:58.365|56=EXC|10=174|
8=FIX.4.4|9=0051|35=0|34=167|49=EXC|56=051|52=20190809-18:27:12.000|10=023|
8=FIX.4.4|9=61|35=0|34=166|49=051|50=051B17|52=20190808-18:26:29.080|56=EXC|10=168|
8=FIX.4.4|9=0051|35=0|34=168|49=EXC|56=051|52=20190809-18:27:42.000|10=027|
8=FIX.4.4|9=61|35=0|34=167|49=051|50=051B17|52=20190808-18:26:59.364|56=EXC|10=177|
8=FIX.4.4|9=0051|35=0|34=169|49=EXC|56=051|52=20190809-18:28:12.000|10=026|
8=FIX.4.4|9=61|35=0|34=168|49=051|50=051B17|52=20190808-18:27:29.829|56=EXC|10=182|
8=FIX.4.4|9=0051|35=0|34=170|49=EXC|56=051|52=20190809-18:28:42.000|10=021|
8=FIX.4.4|9=61|35=0|34=169|49=051|50=051B17|52=20190808-18:28:00.363|56=EXC|10=166|
8=FIX.4.4|9=0051|35=0|34=171|49=EXC|56=051|52=20190809-18:29:12.000|10=020|
8=FIX.4.4|9=61|35=0|34=170|49=051|50=051B17|52=20190808-18:28:30.677|56=EXC|10=169|
8=FIX.4.4|9=0051|35=0|34=172|49=EXC|56=051|52=20190809-18:29:42.000|10=024|
8=FIX.4.4|9=61|35=0|34=171|49=051|50=051B17|52=20190808-18:29:01.362|56=EXC|10=160|
8=FIX.4.4|9=0051|35=0|34=173|49=EXC|56=051|52=20190809-18:30:12.000|10=014|
8=FIX.4.4|9=61|35=0|34=172|49=051|50=051B17|52=20190808-18:29:31.440|56=EXC|10=161|
8=FIX.4.4|9=0051|35=0|34=174|49=EXC|56=051|52=20190809-18:30:42.000|10=018|
8=FIX.4.4|9=61|35=0|34=173|49=051|50=051B17|52=20190808-18:30:02.361|56=EXC|10=154|
8=FIX.4.4|9=0051|35=0|34=175|49=EXC|56=051|52=20190809-18:31:12.000|10=017|
8=FIX.4.4|9=61|35=0|34=174|49=051|50=051B17|52=20190808-18:30:32.363|56=EXC|10=160|
8=FIX.4.4|9=0051|35=0|34=176|49=EXC|56=051|52=20190809-18:31:42.000|10=021|
8=FIX.4.4|9=61|35=0|34=175|49=051|50=051B17|52=20190808-18:31:02.361|56=EXC|10=157|
8=FIX.4.4|9=0051|35=0|34=177|49=EXC|56=051|52=20190809-18:32:12.000|10=020|
8=FIX.4.4|9=61|35=0|34=176|49=051|50=051B17|52=20190808-18:31:32.795|56=EXC|10=172|
8=FIX.4.4|9=0051|35=0|34=178|49=EXC|56=051|52=20190809-18:32:42.000|10=024|
8=FIX.4.4|9=61|35=0|34=177|49=051|50=051B17|52=20190808-18:32:03.360|56=EXC|10=160|
8=FIX.4.4|9=0051|35=0|34=179|49=EXC|56=051|52=20190809-18:33:12.000|10=023|
8=FIX.4.4|9=61|35=0|34=178|49=051|50=051B17|52=20190808-18:32:33.558|56=EXC|10=173|
8=FIX.4.4|9=0051|35=0|34=180|49=EXC|56=051|52=20190809-18:33:42.000|10=018|
8=FIX.4.4|9=61|35=0|34=179|49=051|50=051B17|52=20190808-18:33:04.359|56=EXC|10=172|
8=FIX.4.4|9=0051|35=0|34=181|49=EXC|56=051|52=20190809-18:34:12.000|10=017|
8=FIX.4.4|9=61|35=0|34=180|49=051|50=051B17|52=20190808-18:33:34.361|56=EXC|10=160|
8=FIX.4.4|9=0051|35=0|34=182|49=EXC|56=051|52=20190809-18:34:42.000|10=021|
8=FIX.4.4|9=61|35=0|34=181|49=051|50=051B17|52=20190808-18:34:04.360|56=EXC|10=158|
8=FIX.4.4|9=0051|35=0|34=183|49=EXC|56=051|52=20190809-18:35:12.000|10=020|
8=FIX.4.4|9=61|35=0|34=182|49=051|50=051B17|52=20190808-18:34:35.186|56=EXC|10=169|
8=FIX.4.4|9=0051|35=0|34=184|49=EXC|56=051|52=20190809-18:35:42.000|10=024|
8=FIX.4.4|9=61|35=0|34=183|49=051|50=051B17|52=20190808-18:35:05.357|56=EXC|10=168|
8=FIX.4.4|9=0051|35=0|34=185|49=EXC|56=051|52=20190809-18:36:12.000|10=023|
8=FIX.4.4|9=61|35=0|34=184|49=051|50=051B17|52=20190808-18:35:35.900|56=EXC|10=166|
8=FIX.4.4|9=0051|35=0|34=186|49=EXC|56=051|52=20190809-18:36:42.000|10=027|
8=FIX.4.4|9=61|35=0|34=185|49=051|50=051B17|52=20190808-18:36:06.355|56=EXC|10=170|
8=FIX.4.4|9=0051|35=0|34=187|49=EXC|56=051|52=20190809-18:37:12.000|10=026|
8=FIX.4.4|9=61|35=0|34=186|49=051|50=051B17|52=20190808-18:36:36.696|56=EXC|10=182|
8=FIX.4.4|9=0051|35=0|34=188|49=EXC|56=051|52=20190809-18:37:42.000|10=030|
8=FIX.4.4|9=61|35=0|34=187|49=051|50=051B17|52=20190808-18:37:07.355|56=EXC|10=174|
8=FIX.4.4|9=0051|35=0|34=189|49=EXC|56=051|52=20190809-18:38:12.000|10=029|
8=FIX.4.4|9=61|35=0|34=188|49=051|50=051B17|52=20190808-18:37:37.430|56=EXC|10=172|
8=FIX.4.4|9=0051|35=0|34=190|49=EXC|56=051|52=20190809-18:38:42.000|10=024|
8=FIX.4.4|9=61|35=0|34=189|49=051|50=051B17|52=20190808-18:38:08.355|56=EXC|10=178|
8=FIX.4.4|9=0051|35=0|34=191|49=EXC|56=051|52=20190809-18:39:12.000|10=023|
8=FIX.4.4|9=61|35=0|34=190|49=051|50=051B17|52=20190808-18:38:38.356|56=EXC|10=174|
8=FIX.4.4|9=0051|35=0|34=192|49=EXC|56=051|52=20190809-18:39:42.000|10=027|
8=FIX.4.4|9=61|35=0|34=191|49=051|50=051B17|52=20190808-18:39:08.353|56=EXC|10=170|
8=FIX.4.4|9=0051|35=0|34=193|49=EXC|56=051|52=20190809-18:40:12.000|10=017|
8=FIX.4.4|9=61|35=0|34=192|49=051|50=051B17|52=20190808-18:39:38.975|56=EXC|10=184|
8=FIX.4.4|9=0051|35=0|34=194|49=EXC|56=051|52=20190809-18:40:42.000|10=021|
8=FIX.4.4|9=61|35=0|34=193|49=051|50=051B17|52=20190808-18:40:09.368|56=EXC|10=171|
8=FIX.4.4|9=0051|35=0|34=195|49=EXC|56=051|52=20190809-18:41:12.000|10=020|
8=FIX.4.4|9=61|35=0|34=194|49=051|50=051B17|52=20190808-18:40:39.708|56=EXC|10=173|
8=FIX.4.4|9=0051|35=0|34=196|49=EXC|56=051|52=20190809-18:41:42.000|10=024|
8=FIX.4.4|9=61|35=0|34=195|49=051|50=051B17|52=20190808-18:41:10.365|56=EXC|10=163|
8=FIX.4.4|9=0051|35=0|34=197|49=EXC|56=051|52=20190809-18:42:12.000|10=023|
8=FIX.4.4|9=61|35=0|34=196|49=051|50=051B17|52=20190808-18:41:40.505|56=EXC|10=163|
8=FIX.4.4|9=0051|35=0|34=198|49=EXC|56=051|52=20190809-18:42:42.000|10=027|
8=FIX.4.4|9=61|35=0|34=197|49=051|50=051B17|52=20190808-18:42:11.358|56=EXC|10=169|
8=FIX.4.4|9=0051|35=0|34=199|49=EXC|56=051|52=20190809-18:43:12.000|10=026|
8=FIX.4.4|9=61|35=0|34=198|49=051|50=051B17|52=20190808-18:42:41.355|56=EXC|10=170|
8=FIX.4.4|9=0051|35=0|34=200|49=EXC|56=051|52=20190809-18:43:42.000|10=012|
8=FIX.4.4|9=61|35=0|34=199|49=051|50=051B17|52=20190808-18:43:11.367|56=EXC|10=172|
8=FIX.4.4|9=0051|35=0|34=201|49=EXC|56=051|52=20190809-18:44:12.000|10=011|
8=FIX.4.4|9=61|35=0|34=200|49=051|50=051B17|52=20190808-18:43:42.128|56=EXC|10=154|
8=FIX.4.4|9=0051|35=0|34=202|49=EXC|56=051|52=20190809-18:44:42.000|10=015|
8=FIX.4.4|9=61|35=0|34=201|49=051|50=051B17|52=20190808-18:44:12.365|56=EXC|10=156|
8=FIX.4.4|9=0051|35=0|34=203|49=EXC|56=051|52=20190809-18:45:12.000|10=014|
8=FIX.4.4|9=61|35=0|34=202|49=051|50=051B17|52=20190808-18:44:42.971|56=EXC|10=163|
8=FIX.4.4|9=0051|35=0|34=204|49=EXC|56=051|52=20190809-18:45:42.000|10=018|
8=FIX.4.4|9=61|35=0|34=203|49=051|50=051B17|52=20190808-18:45:13.365|56=EXC|10=160|
8=FIX.4.4|9=0051|35=0|34=205|49=EXC|56=051|52=20190809-18:46:12.000|10=017|
8=FIX.4.4|9=61|35=0|34=204|49=051|50=051B17|52=20190808-18:45:43.631|56=EXC|10=160|
8=FIX.4.4|9=0051|35=0|34=206|49=EXC|56=051|52=20190809-18:46:42.000|10=021|
8=FIX.4.4|9=61|35=0|34=205|49=051|50=051B17|52=20190808-18:46:14.364|56=EXC|10=163|
8=FIX.4.4|9=0051|35=0|34=207|49=EXC|56=051|52=20190809-18:47:12.000|10=020|
8=FIX.4.4|9=61|35=0|34=206|49=051|50=051B17|52=20190808-18:46:44.376|56=EXC|10=170|
8=FIX.4.4|9=0051|35=0|34=208|49=EXC|56=051|52=20190809-18:47:42.000|10=024|
8=FIX.4.4|9=61|35=0|34=207|49=051|50=051B17|52=20190808-18:47:15.357|56=EXC|10=169|
8=FIX.4.4|9=0051|35=0|34=209|49=EXC|56=051|52=20190809-18:48:12.000|10=023|
8=FIX.4.4|9=61|35=0|34=208|49=051|50=051B17|52=20190808-18:47:45.360|56=EXC|10=167|
8=FIX.4.4|9=0051|35=0|34=210|49=EXC|56=051|52=20190809-18:48:42.000|10=018|
8=FIX.4.4|9=61|35=0|34=209|49=051|50=051B17|52=20190808-18:48:15.356|56=EXC|10=171|
8=FIX.4.4|9=0051|35=0|34=211|49=EXC|56=051|52=20190809-18:49:12.000|10=017|
8=FIX.4.4|9=61|35=0|34=210|49=051|50=051B17|52=20190808-18:48:45.961|56=EXC|10=168|
8=FIX.4.4|9=0051|35=0|34=212|49=EXC|56=051|52=20190809-18:49:42.000|10=021|
8=FIX.4.4|9=61|35=0|34=211|49=051|50=051B17|52=20190808-18:49:16.363|56=EXC|10=164|
8=FIX.4.4|9=0051|35=0|34=213|49=EXC|56=051|52=20190809-18:50:12.000|10=011|
8=FIX.4.4|9=61|35=0|34=212|49=051|50=051B17|52=20190808-18:49:46.615|56=EXC|10=168|
8=FIX.4.4|9=0051|35=0|34=214|49=EXC|56=051|52=20190809-18:50:42.000|10=015|
8=FIX.4.4|9=0051|35=0|34=215|49=EXC|56=051|52=20190809-18:51:12.000|10=014|
8=FIX.4.4|9=61|35=0|34=213|49=051|50=051B17|52=20190808-18:50:16.857|56=EXC|10=166|
8=FIX.4.4|9=0051|35=0|34=216|49=EXC|56=051|52=20190809-18:51:42.000|10=018|
8=FIX.4.4|9=61|35=0|34=214|49=051|50=051B17|52=20190808-18:50:46.854|56=EXC|10=167|
8=FIX.4.4|9=0051|35=0|34=217|49=EXC|56=051|52=20190809-18:52:12.000|10=017|
8=FIX.4.4|9=61|35=0|34=215|49=051|50=051B17|52=20190808-18:51:16.853|56=EXC|10=165|
8=FIX.4.4|9=0051|35=0|34=218|49=EXC|56=051|52=20190809-18:52:42.000|10=021|
8=FIX.4.4|9=61|35=0|34=216|49=051|50=051B17|52=20190808-18:51:46.855|56=EXC|10=171|
8=FIX.4.4|9=0051|35=0|34=219|49=EXC|56=051|52=20190809-18:53:12.000|10=020|
8=FIX.4.4|9=61|35=0|34=217|49=051|50=051B17|52=20190808-18:52:16.854|56=EXC|10=169|
8=FIX.4.4|9=0051|35=0|34=220|49=EXC|56=051|52=20190809-18:53:42.000|10=015|
8=FIX.4.4|9=61|35=0|34=218|49=051|50=051B17|52=20190808-18:52:46.854|56=EXC|10=173|
8=FIX.4.4|9=0051|35=0|34=221|49=EXC|56=051|52=20190809-18:54:12.000|10=014|
8=FIX.4.4|9=61|35=0|34=219|49=051|50=051B17|52=20190808-18:53:16.860|56=EXC|10=169|
8=FIX.4.4|9=0051|35=0|34=222|49=EXC|56=051|52=20190809-18:54:42.000|10=018|
8=FIX.4.4|9=61|35=0|34=220|49=051|50=051B17|52=20190808-18:53:46.852|56=EXC|10=165|
8=FIX.4.4|9=0051|35=0|34=223|49=EXC|56=051|52=20190809-18:55:12.000|10=017|
8=FIX.4.4|9=61|35=0|34=221|49=051|50=051B17|52=20190808-18:54:16.854|56=EXC|10=166|
8=FIX.4.4|9=0051|35=0|34=224|49=EXC|56=051|52=20190809-18:55:42.000|10=021|
8=FIX.4.4|9=61|35=0|34=222|49=051|50=051B17|52=20190808-18:54:46.851|56=EXC|10=167|
8=FIX.4.4|9=0051|35=0|34=225|49=EXC|56=051|52=20190809-18:56:12.000|10=020|
8=FIX.4.4|9=61|35=0|34=223|49=051|50=051B17|52=20190808-18:55:16.854|56=EXC|10=169|
8=FIX.4.4|9=0051|35=0|34=226|49=EXC|56=051|52=20190809-18:56:42.000|10=024|
8=FIX.4.4|9=61|35=0|34=224|49=051|50=051B17|52=20190808-18:55:46.851|56=EXC|10=170|
8=FIX.4.4|9=0051|35=0|34=227|49=EXC|56=051|52=20190809-18:57:12.000|10=023|
8=FIX.4.4|9=61|35=0|34=225|49=051|50=051B17|52=20190808-18:56:16.852|56=EXC|10=170|
8=FIX.4.4|9=0051|35=0|34=228|49=EXC|56=051|52=20190809-18:57:42.000|10=027|
8=FIX.4.4|9=61|35=0|34=226|49=051|50=051B17|52=20190808-18:56:46.854|56=EXC|10=176|
8=FIX.4.4|9=0051|35=0|34=229|49=EXC|56=051|52=20190809-18:58:12.000|10=026|
8=FIX.4.4|9=61|35=0|34=227|49=051|50=051B17|52=20190808-18:57:16.851|56=EXC|10=172|
8=FIX.4.4|9=0051|35=0|34=230|49=EXC|56=051|52=20190809-18:58:42.000|10=021|
8=FIX.4.4|9=61|35=0|34=228|49=051|50=051B17|52=20190808-18:57:46.856|56=EXC|10=181|
8=FIX.4.4|9=0051|35=0|34=231|49=EXC|56=051|52=20190809-18:59:12.000|10=020|
8=FIX.4.4|9=61|35=0|34=229|49=051|50=051B17|52=20190808-18:58:16.852|56=EXC|10=176|
8=FIX.4.4|9=0051|35=0|34=232|49=EXC|56=051|52=20190809-18:59:42.000|10=024|
8=FIX.4.4|9=61|35=0|34=230|49=051|50=051B17|52=20190808-18:58:46.843|56=EXC|10=171|
8=FIX.4.4|9=0051|35=0|34=233|49=EXC|56=051|52=20190809-19:00:12.000|10=009|
8=FIX.4.4|9=61|35=0|34=231|49=051|50=051B17|52=20190808-18:59:16.851|56=EXC|10=169|
8=FIX.4.4|9=0051|35=0|34=234|49=EXC|56=051|52=20190809-19:00:42.000|10=013|
8=FIX.4.4|9=61|35=0|34=232|49=051|50=051B17|52=20190808-18:59:46.848|56=EXC|10=179|
8=FIX.4.4|9=0051|35=0|34=235|49=EXC|56=051|52=20190809-19:01:12.000|10=012|
8=FIX.4.4|9=61|35=0|34=233|49=051|50=051B17|52=20190808-19:00:16.847|56=EXC|10=163|
8=FIX.4.4|9=0051|35=0|34=236|49=EXC|56=051|52=20190809-19:01:42.000|10=016|
8=FIX.4.4|9=61|35=0|34=234|49=051|50=051B17|52=20190808-19:00:46.848|56=EXC|10=168|
8=FIX.4.4|9=0051|35=0|34=237|49=EXC|56=051|52=20190809-19:02:12.000|10=015|
8=FIX.4.4|9=61|35=0|34=235|49=051|50=051B17|52=20190808-19:01:16.879|56=EXC|10=171|
8=FIX.4.4|9=0051|35=0|34=238|49=EXC|56=051|52=20190809-19:02:42.000|10=019|
8=FIX.4.4|9=61|35=0|34=236|49=051|50=051B17|52=20190808-19:01:47.358|56=EXC|10=168|
8=FIX.4.4|9=0051|35=0|34=239|49=EXC|56=051|52=20190809-19:03:12.000|10=018|
8=FIX.4.4|9=61|35=0|34=237|49=051|50=051B17|52=20190808-19:02:17.357|56=EXC|10=166|
8=FIX.4.4|9=0051|35=0|34=240|49=EXC|56=051|52=20190809-19:03:42.000|10=013|
8=FIX.4.4|9=61|35=0|34=238|49=051|50=051B17|52=20190808-19:02:47.357|56=EXC|10=170|
8=FIX.4.4|9=0051|35=0|34=241|49=EXC|56=051|52=20190809-19:04:12.000|10=012|
8=FIX.4.4|9=61|35=0|34=239|49=051|50=051B17|52=20190808-19:03:17.356|56=EXC|10=168|
8=FIX.4.4|9=0051|35=0|34=242|49=EXC|56=051|52=20190809-19:04:42.000|10=016|
8=FIX.4.4|9=61|35=0|34=240|49=051|50=051B17|52=20190808-19:03:47.356|56=EXC|10=163|
8=FIX.4.4|9=0051|35=0|34=243|49=EXC|56=051|52=20190809-19:05:12.000|10=015|
8=FIX.4.4|9=61|35=0|34=241|49=051|50=051B17|52=20190808-19:04:17.356|56=EXC|10=162|
8=FIX.4.4|9=0051|35=0|34=244|49=EXC|56=051|52=20190809-19:05:42.000|10=019|
8=FIX.4.4|9=61|35=0|34=242|49=051|50=051B17|52=20190808-19:04:47.356|56=EXC|10=166|
8=FIX.4.4|9=0051|35=0|34=245|49=EXC|56=051|52=20190809-19:06:12.000|10=018|
8=FIX.4.4|9=61|35=0|34=243|49=051|50=051B17|52=20190808-19:05:17.356|56=EXC|10=165|
8=FIX.4.4|9=0051|35=0|34=246|49=EXC|56=051|52=20190809-19:06:42.000|10=022|
8=FIX.4.4|9=61|35=0|34=244|49=051|50=051B17|52=20190808-19:05:47.355|56=EXC|10=168|
8=FIX.4.4|9=0051|35=0|34=247|49=EXC|56=051|52=20190809-19:07:12.000|10=021|
8=FIX.4.4|9=61|35=0|34=245|49=051|50=051B17|52=20190808-19:06:17.354|56=EXC|10=166|
8=FIX.4.4|9=0051|35=0|34=248|49=EXC|56=051|52=20190809-19:07:42.000|10=025|
8=FIX.4.4|9=61|35=0|34=246|49=051|50=051B17|52=20190808-19:06:47.354|56=EXC|10=170|
8=FIX.4.4|9=0051|35=0|34=249|49=EXC|56=051|52=20190809-19:08:12.000|10=024|
8=FIX.4.4|9=61|35=0|34=247|49=051|50=051B17|52=20190808-19:07:17.355|56=EXC|10=170|
8=FIX.4.4|9=0051|35=0|34=250|49=EXC|56=051|52=20190809-19:08:42.000|10=019|
8=FIX.4.4|9=61|35=0|34=248|49=051|50=051B17|52=20190808-19:07:47.354|56=EXC|10=173|
8=FIX.4.4|9=0051|35=0|34=251|49=EXC|56=051|52=20190809-19:09:12.000|10=018|
8=FIX.4.4|9=61|35=0|34=249|49=051|50=051B17|52=20190808-19:08:17.353|56=EXC|10=171|
8=FIX.4.4|9=0051|35=0|34=252|49=EXC|56=051|52=20190809-19:09:42.000|10=022|
8=FIX.4.4|9=61|35=0|34=250|49=051|50=051B17|52=20190808-19:08:47.353|56=EXC|10=166|
8=FIX.4.4|9=0051|35=0|34=253|49=EXC|56=051|52=20190809-19:10:12.000|10=012|
8=FIX.4.4|9=61|35=0|34=251|49=051|50=051B17|52=20190808-19:09:17.353|56=EXC|10=165|
8=FIX.4.4|9=0051|35=0|34=254|49=EXC|56=051|52=20190809-19:10:42.000|10=016|
8=FIX.4.4|9=61|35=0|34=252|49=051|50=051B17|52=20190808-19:09:47.368|56=EXC|10=175|
8=FIX.4.4|9=0051|35=0|34=255|49=EXC|56=051|52=20190809-19:11:12.000|10=015|
8=FIX.4.4|9=61|35=0|34=253|49=051|50=051B17|52=20190808-19:10:18.356|56=EXC|10=163|
8=FIX.4.4|9=0051|35=0|34=256|49=EXC|56=051|52=20190809-19:11:42.000|10=019|
8=FIX.4.4|9=61|35=0|34=254|49=051|50=051B17|52=20190808-19:10:48.354|56=EXC|10=165|
8=FIX.4.4|9=0051|35=0|34=257|49=EXC|56=051|52=20190809-19:12:12.000|10=018|
8=FIX.4.4|9=61|35=0|34=255|49=051|50=051B17|52=20190808-19:11:18.354|56=EXC|10=164|
8=FIX.4.4|9=0051|35=0|34=258|49=EXC|56=051|52=20190809-19:12:42.000|10=022|
8=FIX.4.4|9=61|35=0|34=256|49=051|50=051B17|52=20190808-19:11:48.353|56=EXC|10=167|
8=FIX.4.4|9=0051|35=0|34=259|49=EXC|56=051|52=20190809-19:13:12.000|10=021|
8=FIX.4.4|9=61|35=0|34=257|49=051|50=051B17|52=20190808-19:12:18.354|56=EXC|10=167|
8=FIX.4.4|9=0051|35=0|34=260|49=EXC|56=051|52=20190809-19:13:42.000|10=016|
8=FIX.4.4|9=61|35=0|34=258|49=051|50=051B17|52=20190808-19:12:48.354|56=EXC|10=171|
8=FIX.4.4|9=0051|35=0|34=261|49=EXC|56=051|52=20190809-19:14:12.000|10=015|
8=FIX.4.4|9=61|35=0|34=259|49=051|50=051B17|52=20190808-19:13:18.368|56=EXC|10=175|
8=FIX.4.4|9=0051|35=0|34=262|49=EXC|56=051|52=20190809-19:14:42.000|10=019|
8=FIX.4.4|9=61|35=0|34=260|49=051|50=051B17|52=20190808-19:13:49.353|56=EXC|10=165|
8=FIX.4.4|9=0051|35=0|34=263|49=EXC|56=051|52=20190809-19:15:12.000|10=018|
8=FIX.4.4|9=61|35=0|34=261|49=051|50=051B17|52=20190808-19:14:19.367|56=EXC|10=169|
8=FIX.4.4|9=0051|35=0|34=264|49=EXC|56=051|52=20190809-19:15:42.000|10=022|
8=FIX.4.4|9=61|35=0|34=262|49=051|50=051B17|52=20190808-19:14:49.366|56=EXC|10=172|
8=FIX.4.4|9=0051|35=0|34=265|49=EXC|56=051|52=20190809-19:16:12.000|10=021|
8=FIX.4.4|9=61|35=0|34=263|49=051|50=051B17|52=20190808-19:15:20.353|56=EXC|10=159|
8=FIX.4.4|9=0051|35=0|34=266|49=EXC|56=051|52=20190809-19:16:42.000|10=025|
8=FIX.4.4|9=61|35=0|34=264|49=051|50=051B17|52=20190808-19:15:50.367|56=EXC|10=168|
8=FIX.4.4|9=0051|35=0|34=267|49=EXC|56=051|52=20190809-19:17:12.000|10=024|
8=FIX.4.4|9=61|35=0|34=265|49=051|50=051B17|52=20190808-19:16:20.362|56=EXC|10=162|
8=FIX.4.4|9=0051|35=0|34=268|49=EXC|56=051|52=20190809-19:17:42.000|10=028|
8=FIX.4.4|9=61|35=0|34=266|49=051|50=051B17|52=20190808-19:16:50.365|56=EXC|10=169|
8=FIX.4.4|9=0051|35=0|34=269|49=EXC|56=051|52=20190809-19:18:12.000|10=027|
8=FIX.4.4|9=61|35=0|34=267|49=051|50=051B17|52=20190808-19:17:20.366|56=EXC|10=169|
8=FIX.4.4|9=0051|35=0|34=270|49=EXC|56=051|52=20190809-19:18:42.000|10=022|
8=FIX.4.4|9=61|35=0|34=268|49=051|50=051B17|52=20190808-19:17:50.366|56=EXC|10=173|
8=FIX.4.4|9=77|35=A|34=1|49=051|50=051B17|52=20190808-19:18:06.246|56=EXC|98=0|108=30|141=Y|10=155|
8=FIX.4.4|9=77|35=A|34=1|49=051|50=051B17|52=20190808-19:19:06.243|56=EXC|98=0|108=30|141=Y|10=153|
8=FIX.4.4|9=77|35=A|34=1|49=051|50=051B17|52=20190808-19:20:07.286|56=EXC|98=0|108=30|141=Y|10=153|
8=FIX.4.4|9=77|35=A|34=1|49=051|50=051B17|52=20190808-19:21:07.331|56=EXC|98=0|108=30|141=Y|10=145|
8=FIX.4.4|9=77|35=A|34=1|49=051|50=051B17|52=20190808-19:22:07.378|56=EXC|98=0|108=30|141=Y|10=157|
8=FIX.4.4|9=77|35=A|34=1|49=051|50=051B17|52=20190808-19:23:07.404|56=EXC|98=0|108=30|141=Y|10=148|
8=FIX.4.4|9=77|35=A|34=1|49=051|50=051B17|52=20190808-19:24:07.419|56=EXC|98=0|108=30|141=Y|10=155|
8=FIX.4.4|9=77|35=A|34=1|49=051|50=051B17|52=20190808-19:25:07.752|56=EXC|98=0|108=30|141=Y|10=156|
8=FIX.4.4|9=77|35=A|34=1|49=051|50=051B17|52=20190808-19:26:07.979|56=EXC|98=0|108=30|141=Y|10=168|
8=FIX.4.4|9=77|35=A|34=1|49=051|50=051B17|52=20190808-19:27:08.005|56=EXC|98=0|108=30|141=Y|10=150|
8=FIX.4.4|9=77|35=A|34=1|49=051|50=051B17|52=20190808-19:28:08.821|56=EXC|98=0|108=30|141=Y|10=157|
8=FIX.4.4|9=77|35=A|34=1|49=051|50=051B17|52=20190808-19:29:08.854|56=EXC|98=0|108=30|141=Y|10=164|
8=FIX.4.4|9=77|35=A|34=1|49=051|50=051B17|52=20190808-19:30:09.709|56=EXC|98=0|108=30|141=Y|10=156|
8=FIX.4.4|9=77|35=A|34=1|49=051|50=051B17|52=20190808-19:31:10.706|56=EXC|98=0|108=30|141=Y|10=146|
8=FIX.4.4|9=77|35=A|34=1|49=051|50=051B17|52=20190808-19:32:11.529|56=EXC|98=0|108=30|141=Y|10=151|
8=FIX.4.4|9=77|35=A|34=1|49=051|50=051B17|52=20190808-19:33:12.418|56=EXC|98=0|108=30|141=Y|10=150|
8=FIX.4.4|9=77|35=A|34=1|49=051|50=051B17|52=20190808-19:34:13.383|56=EXC|98=0|108=30|141=Y|10=153|
