8=FIX.4.4|9=105|35=A|34=1|49=010|50=010BWN|52=20190612-16:29:19.954|56=EXC|98=0|108=30|141=Y|553=010FCE003|554=010FCE003|10=147|
8=FIX.4.4|9=0067|35=A|34=1|49=EXC|56=010|52=20190612-16:29:19.984|98=0|108=30|141=Y|10=023|
8=FIX.4.4|9=0049|35=0|34=2|49=EXC|56=010|52=20190612-16:29:49.000|10=175|
8=FIX.4.4|9=59|35=0|34=2|49=010|50=010BWN|52=20190612-16:29:50.860|56=EXC|10=113|
8=FIX.4.4|9=0049|35=0|34=3|49=EXC|56=010|52=20190612-16:30:19.000|10=165|
8=FIX.4.4|9=59|35=0|34=3|49=010|50=010BWN|52=20190612-16:30:20.872|56=EXC|10=106|
8=FIX.4.4|9=105|35=A|34=1|49=010|50=010BWN|52=20190612-16:44:40.000|56=EXC|98=0|108=30|141=Y|553=010FCE003|554=010FCE003|10=120|
8=FIX.4.4|9=0067|35=A|34=1|49=EXC|56=010|52=20190612-16:44:40.059|98=0|108=30|141=Y|10=007|
8=FIX.4.4|9=0049|35=0|34=2|49=EXC|56=010|52=20190612-16:45:10.000|10=161|
8=FIX.4.4|9=59|35=0|34=2|49=010|50=010BWN|52=20190612-16:45:10.028|56=EXC|10=103|
8=FIX.4.4|9=105|35=A|34=1|49=010|50=010BWN|52=20190612-16:55:03.372|56=EXC|98=0|108=30|141=Y|553=010FCE003|554=010FCE003|10=133|
8=FIX.4.4|9=0067|35=A|34=1|49=EXC|56=010|52=20190612-16:55:03.402|98=0|108=30|141=Y|10=000|
8=FIX.4.4|9=105|35=A|34=1|49=010|50=010BWN|52=20190612-16:56:24.195|56=EXC|98=0|108=30|141=Y|553=010FCE003|554=010FCE003|10=140|
8=FIX.4.4|9=0067|35=A|34=1|49=EXC|56=010|52=20190612-16:56:24.222|98=0|108=30|141=Y|10=004|
8=FIX.4.4|9=0049|35=0|34=2|49=EXC|56=010|52=20190612-16:56:54.000|10=171|
8=FIX.4.4|9=59|35=0|34=2|49=010|50=010BWN|52=20190612-16:56:55.106|56=EXC|10=111|
8=FIX.4.4|9=0049|35=0|34=3|49=EXC|56=010|52=20190612-16:57:24.000|10=170|
8=FIX.4.4|9=59|35=0|34=3|49=010|50=010BWN|52=20190612-16:57:25.109|56=EXC|10=113|
8=FIX.4.4|9=105|35=A|34=1|49=010|50=010BWN|52=20190612-19:36:17.149|56=EXC|98=0|108=30|141=Y|553=010FCE003|554=010FCE003|10=142|
8=FIX.4.4|9=0067|35=A|34=1|49=EXC|56=010|52=20190612-19:36:17.189|98=0|108=30|141=Y|10=019|
8=FIX.4.4|9=0049|35=0|34=2|49=EXC|56=010|52=20190612-19:36:47.000|10=174|
8=FIX.4.4|9=59|35=0|34=2|49=010|50=010BWN|52=20190612-19:36:48.081|56=EXC|10=116|
8=FIX.4.4|9=105|35=A|34=1|49=010|50=010BWN|52=20190612-19:56:51.786|56=EXC|98=0|108=30|141=Y|553=010FCE003|554=010FCE003|10=149|
8=FIX.4.4|9=0067|35=A|34=1|49=EXC|56=010|52=20190612-19:56:51.828|98=0|108=30|141=Y|10=019|
8=FIX.4.4|9=0049|35=0|34=2|49=EXC|56=010|52=20190612-19:57:21.000|10=169|
8=FIX.4.4|9=59|35=0|34=2|49=010|50=010BWN|52=20190612-19:57:22.756|56=EXC|10=120|
8=FIX.4.4|9=0049|35=0|34=3|49=EXC|56=010|52=20190612-19:57:51.000|10=173|
8=FIX.4.4|9=59|35=0|34=3|49=010|50=010BWN|52=20190612-19:57:52.755|56=EXC|10=123|
8=FIX.4.4|9=105|35=A|34=1|49=010|50=010BWN|52=20190612-19:58:09.086|56=EXC|98=0|108=30|141=Y|553=010FCE003|554=010FCE003|10=147|
8=FIX.4.4|9=0067|35=A|34=1|49=EXC|56=010|52=20190612-19:58:09.123|98=0|108=30|141=Y|10=012|
8=FIX.4.4|9=0049|35=0|34=2|49=EXC|56=010|52=20190612-19:58:39.000|10=179|
8=FIX.4.4|9=59|35=0|34=2|49=010|50=010BWN|52=20190612-19:58:40.047|56=EXC|10=114|
8=FIX.4.4|9=0049|35=0|34=3|49=EXC|56=010|52=20190612-19:59:09.000|10=178|
8=FIX.4.4|9=59|35=0|34=3|49=010|50=010BWN|52=20190612-19:59:10.048|56=EXC|10=114|
8=FIX.4.4|9=105|35=A|34=1|49=010|50=010BWN|52=20190612-20:04:55.533|56=EXC|98=0|108=30|141=Y|553=010FCE003|554=010FCE003|10=128|
8=FIX.4.4|9=0067|35=A|34=1|49=EXC|56=010|52=20190612-20:04:55.570|98=0|108=30|141=Y|10=002|
8=FIX.4.4|9=0049|35=0|34=2|49=EXC|56=010|52=20190612-20:05:25.000|10=158|
8=FIX.4.4|9=59|35=0|34=2|49=010|50=010BWN|52=20190612-20:05:26.468|56=EXC|10=109|
8=FIX.4.4|9=0049|35=0|34=3|49=EXC|56=010|52=20190612-20:05:55.000|10=162|
8=FIX.4.4|9=59|35=0|34=3|49=010|50=010BWN|52=20190612-20:05:56.469|56=EXC|10=114|
