8=FIX.4.4|9=110|35=A|34=1|49=002|50=002B35|52=20190507-19:32:56.912|56=EXC|43=Y|98=0|108=30|141=Y|553=002FCM001|554=002FCM001|10=091|
8=FIX.4.4|9=0067|35=A|34=1|49=EXC|56=002|52=20190507-19:32:56.919|98=0|108=30|141=Y|10=023|
8=FIX.4.4|9=104|35=A|34=2|49=002|50=002B35|52=20190507-19:33:02.964|56=EXC|43=Y|98=0|108=30|553=002FCM001|554=002FCM001|10=049|
8=FIX.4.4|9=0061|35=A|34=2|49=EXC|56=002|52=20190507-19:33:02.965|98=0|108=30|10=222|
8=FIX.4.4|9=0225|35=R|34=3|49=EXC|56=002|57=002B35|52=20190507-19:33:11.105|131=20190507-000000000013.00|146=1|55=TFIT16240724|762=RFQF|48=20392|22=M|54=1|38=500000000|453=3|448=001B27|447=C|452=12|448=001|447=C|452=1|448=002B35|447=C|452=37|10=018|
8=FIX.4.4|9=134|35=3|34=3|49=002|50=002B35|52=20190507-19:33:11.130|56=EXC|45=3|58=Out of order repeating group members, field=48|371=48|372=R|373=15|10=040|
8=FIX.4.4|9=0049|35=0|34=4|49=EXC|56=002|52=20190507-19:33:41.000|10=171|
8=FIX.4.4|9=59|35=0|34=4|49=002|50=002B35|52=20190507-19:33:41.956|56=EXC|10=063|
8=FIX.4.4|9=104|35=A|34=5|49=002|50=002B35|52=20190507-19:33:57.883|56=EXC|43=Y|98=0|108=30|553=002FCM001|554=002FCM001|10=062|
8=FIX.4.4|9=0061|35=A|34=5|49=EXC|56=002|52=20190507-19:33:57.884|98=0|108=30|10=235|
8=FIX.4.4|9=104|35=A|34=6|49=002|50=002B35|52=20190507-19:34:03.976|56=EXC|43=Y|98=0|108=30|553=002FCM001|554=002FCM001|10=058|
8=FIX.4.4|9=0061|35=A|34=6|49=EXC|56=002|52=20190507-19:34:03.977|98=0|108=30|10=231|
8=FIX.4.4|9=0049|35=0|34=7|49=EXC|56=002|52=20190507-19:34:33.000|10=176|
8=FIX.4.4|9=59|35=0|34=7|49=002|50=002B35|52=20190507-19:34:34.956|56=EXC|10=069|
8=FIX.4.4|9=110|35=A|34=1|49=002|50=002B35|52=20190507-19:35:15.095|56=EXC|43=Y|98=0|108=30|141=Y|553=002FCM001|554=002FCM001|10=091|
8=FIX.4.4|9=0067|35=A|34=1|49=EXC|56=002|52=20190507-19:35:15.102|98=0|108=30|141=Y|10=005|
8=FIX.4.4|9=104|35=A|34=2|49=002|50=002B35|52=20190507-19:35:21.586|56=EXC|43=Y|98=0|108=30|553=002FCM001|554=002FCM001|10=052|
8=FIX.4.4|9=0061|35=A|34=2|49=EXC|56=002|52=20190507-19:35:21.586|98=0|108=30|10=224|
8=FIX.4.4|9=110|35=A|34=1|49=002|50=002B35|52=20190507-19:37:09.860|56=EXC|43=Y|98=0|108=30|141=Y|553=002FCM001|554=002FCM001|10=096|
8=FIX.4.4|9=0067|35=A|34=1|49=EXC|56=002|52=20190507-19:37:09.865|98=0|108=30|141=Y|10=026|
8=FIX.4.4|9=0225|35=R|34=2|49=EXC|56=002|57=002B35|52=20190507-19:37:17.905|131=20190507-000000000015.00|146=1|55=TFIT16240724|762=RFQF|48=20392|22=M|54=1|38=500000000|453=3|448=001B27|447=C|452=12|448=001|447=C|452=1|448=002B35|447=C|452=37|10=037|
8=FIX.4.4|9=134|35=3|34=2|49=002|50=002B35|52=20190507-19:37:17.932|56=EXC|45=2|58=Out of order repeating group members, field=48|371=48|372=R|373=15|10=058|
8=FIX.4.4|9=110|35=A|34=1|49=002|50=002B35|52=20190507-19:44:36.946|56=EXC|43=Y|98=0|108=30|141=Y|553=002FCM001|554=002FCM001|10=099|
8=FIX.4.4|9=0067|35=A|34=1|49=EXC|56=002|52=20190507-19:44:36.955|98=0|108=30|141=Y|10=024|
8=FIX.4.4|9=0225|35=R|34=2|49=EXC|56=002|57=002B35|52=20190507-19:44:44.962|131=20190507-000000000017.00|146=1|55=TFIT16240724|762=RFQF|48=20392|22=M|54=1|38=500000000|453=3|448=001B27|447=C|452=12|448=001|447=C|452=1|448=002B35|447=C|452=37|10=040|
8=FIX.4.4|9=134|35=3|34=2|49=002|50=002B35|52=20190507-19:44:44.991|56=EXC|45=2|58=Out of order repeating group members, field=48|371=48|372=R|373=15|10=061|
8=FIX.4.4|9=0049|35=0|34=3|49=EXC|56=002|52=20190507-19:45:14.000|10=173|
8=FIX.4.4|9=59|35=0|34=3|49=002|50=002B35|52=20190507-19:45:15.853|56=EXC|10=062|
8=FIX.4.4|9=0049|35=0|34=4|49=EXC|56=002|52=20190507-19:45:44.000|10=177|
8=FIX.4.4|9=59|35=0|34=4|49=002|50=002B35|52=20190507-19:45:45.853|56=EXC|10=066|
8=FIX.4.4|9=0049|35=0|34=5|49=EXC|56=002|52=20190507-19:46:14.000|10=176|
8=FIX.4.4|9=59|35=0|34=5|49=002|50=002B35|52=20190507-19:46:15.853|56=EXC|10=065|
8=FIX.4.4|9=0049|35=0|34=6|49=EXC|56=002|52=20190507-19:46:44.000|10=180|
8=FIX.4.4|9=59|35=0|34=6|49=002|50=002B35|52=20190507-19:46:45.852|56=EXC|10=068|
8=FIX.4.4|9=0049|35=0|34=7|49=EXC|56=002|52=20190507-19:47:14.000|10=179|
8=FIX.4.4|9=59|35=0|34=7|49=002|50=002B35|52=20190507-19:47:15.853|56=EXC|10=068|
8=FIX.4.4|9=0049|35=0|34=8|49=EXC|56=002|52=20190507-19:47:44.000|10=183|
8=FIX.4.4|9=59|35=0|34=8|49=002|50=002B35|52=20190507-19:47:45.853|56=EXC|10=072|
8=FIX.4.4|9=0049|35=0|34=9|49=EXC|56=002|52=20190507-19:48:14.000|10=182|
8=FIX.4.4|9=59|35=0|34=9|49=002|50=002B35|52=20190507-19:48:15.853|56=EXC|10=071|
8=FIX.4.4|9=0050|35=0|34=10|49=EXC|56=002|52=20190507-19:48:44.000|10=217|
8=FIX.4.4|9=60|35=0|34=10|49=002|50=002B35|52=20190507-19:48:45.852|56=EXC|10=105|
8=FIX.4.4|9=0050|35=0|34=11|49=EXC|56=002|52=20190507-19:49:14.000|10=216|
8=FIX.4.4|9=60|35=0|34=11|49=002|50=002B35|52=20190507-19:49:15.853|56=EXC|10=105|
8=FIX.4.4|9=0050|35=0|34=12|49=EXC|56=002|52=20190507-19:49:44.000|10=220|
8=FIX.4.4|9=60|35=0|34=12|49=002|50=002B35|52=20190507-19:49:45.854|56=EXC|10=110|
8=FIX.4.4|9=0050|35=0|34=13|49=EXC|56=002|52=20190507-19:50:14.000|10=210|
8=FIX.4.4|9=60|35=0|34=13|49=002|50=002B35|52=20190507-19:50:15.852|56=EXC|10=098|
8=FIX.4.4|9=0050|35=0|34=14|49=EXC|56=002|52=20190507-19:50:44.000|10=214|
8=FIX.4.4|9=60|35=0|34=14|49=002|50=002B35|52=20190507-19:50:45.852|56=EXC|10=102|
8=FIX.4.4|9=0050|35=0|34=15|49=EXC|56=002|52=20190507-19:51:14.000|10=213|
8=FIX.4.4|9=60|35=0|34=15|49=002|50=002B35|52=20190507-19:51:15.854|56=EXC|10=103|
8=FIX.4.4|9=0050|35=0|34=16|49=EXC|56=002|52=20190507-19:51:44.000|10=217|
8=FIX.4.4|9=60|35=0|34=16|49=002|50=002B35|52=20190507-19:51:45.853|56=EXC|10=106|
8=FIX.4.4|9=0050|35=0|34=17|49=EXC|56=002|52=20190507-19:52:14.000|10=216|
8=FIX.4.4|9=60|35=0|34=17|49=002|50=002B35|52=20190507-19:52:15.853|56=EXC|10=105|
8=FIX.4.4|9=0050|35=0|34=18|49=EXC|56=002|52=20190507-19:52:44.000|10=220|
8=FIX.4.4|9=60|35=0|34=18|49=002|50=002B35|52=20190507-19:52:45.852|56=EXC|10=108|
8=FIX.4.4|9=0050|35=0|34=19|49=EXC|56=002|52=20190507-19:53:14.000|10=219|
8=FIX.4.4|9=60|35=0|34=19|49=002|50=002B35|52=20190507-19:53:15.853|56=EXC|10=108|
8=FIX.4.4|9=0050|35=0|34=20|49=EXC|56=002|52=20190507-19:53:44.000|10=214|
8=FIX.4.4|9=60|35=0|34=20|49=002|50=002B35|52=20190507-19:53:45.853|56=EXC|10=103|
8=FIX.4.4|9=0050|35=0|34=21|49=EXC|56=002|52=20190507-19:54:14.000|10=213|
8=FIX.4.4|9=60|35=0|34=21|49=002|50=002B35|52=20190507-19:54:15.853|56=EXC|10=102|
8=FIX.4.4|9=0050|35=0|34=22|49=EXC|56=002|52=20190507-19:54:44.000|10=217|
8=FIX.4.4|9=60|35=0|34=22|49=002|50=002B35|52=20190507-19:54:45.854|56=EXC|10=107|
8=FIX.4.4|9=0050|35=0|34=23|49=EXC|56=002|52=20190507-19:55:14.000|10=216|
8=FIX.4.4|9=60|35=0|34=23|49=002|50=002B35|52=20190507-19:55:15.853|56=EXC|10=105|
8=FIX.4.4|9=0050|35=0|34=24|49=EXC|56=002|52=20190507-19:55:44.000|10=220|
8=FIX.4.4|9=60|35=0|34=24|49=002|50=002B35|52=20190507-19:55:45.853|56=EXC|10=109|
8=FIX.4.4|9=0050|35=0|34=25|49=EXC|56=002|52=20190507-19:56:14.000|10=219|
8=FIX.4.4|9=60|35=0|34=25|49=002|50=002B35|52=20190507-19:56:15.852|56=EXC|10=107|
8=FIX.4.4|9=0050|35=0|34=26|49=EXC|56=002|52=20190507-19:56:44.000|10=223|
8=FIX.4.4|9=60|35=0|34=26|49=002|50=002B35|52=20190507-19:56:45.853|56=EXC|10=112|
8=FIX.4.4|9=0050|35=0|34=27|49=EXC|56=002|52=20190507-19:57:14.000|10=222|
8=FIX.4.4|9=60|35=0|34=27|49=002|50=002B35|52=20190507-19:57:15.853|56=EXC|10=111|
8=FIX.4.4|9=0050|35=0|34=28|49=EXC|56=002|52=20190507-19:57:44.000|10=226|
8=FIX.4.4|9=60|35=0|34=28|49=002|50=002B35|52=20190507-19:57:45.853|56=EXC|10=115|
8=FIX.4.4|9=0050|35=0|34=29|49=EXC|56=002|52=20190507-19:58:14.000|10=225|
8=FIX.4.4|9=60|35=0|34=29|49=002|50=002B35|52=20190507-19:58:15.852|56=EXC|10=113|
8=FIX.4.4|9=0050|35=0|34=30|49=EXC|56=002|52=20190507-19:58:44.000|10=220|
8=FIX.4.4|9=60|35=0|34=30|49=002|50=002B35|52=20190507-19:58:45.853|56=EXC|10=109|
8=FIX.4.4|9=0050|35=0|34=31|49=EXC|56=002|52=20190507-19:59:14.000|10=219|
8=FIX.4.4|9=60|35=0|34=31|49=002|50=002B35|52=20190507-19:59:15.853|56=EXC|10=108|
8=FIX.4.4|9=0050|35=0|34=32|49=EXC|56=002|52=20190507-19:59:44.000|10=223|
8=FIX.4.4|9=60|35=0|34=32|49=002|50=002B35|52=20190507-19:59:45.852|56=EXC|10=111|
8=FIX.4.4|9=0050|35=0|34=33|49=EXC|56=002|52=20190507-20:00:14.000|10=199|
8=FIX.4.4|9=60|35=0|34=33|49=002|50=002B35|52=20190507-20:00:15.854|56=EXC|10=089|
8=FIX.4.4|9=0050|35=0|34=34|49=EXC|56=002|52=20190507-20:00:44.000|10=203|
8=FIX.4.4|9=60|35=0|34=34|49=002|50=002B35|52=20190507-20:00:45.852|56=EXC|10=091|
8=FIX.4.4|9=0050|35=0|34=35|49=EXC|56=002|52=20190507-20:01:14.000|10=202|
8=FIX.4.4|9=60|35=0|34=35|49=002|50=002B35|52=20190507-20:01:15.852|56=EXC|10=090|
8=FIX.4.4|9=0050|35=0|34=36|49=EXC|56=002|52=20190507-20:01:44.000|10=206|
8=FIX.4.4|9=60|35=0|34=36|49=002|50=002B35|52=20190507-20:01:45.852|56=EXC|10=094|
8=FIX.4.4|9=0050|35=0|34=37|49=EXC|56=002|52=20190507-20:02:14.000|10=205|
8=FIX.4.4|9=60|35=0|34=37|49=002|50=002B35|52=20190507-20:02:15.853|56=EXC|10=094|
8=FIX.4.4|9=0050|35=0|34=38|49=EXC|56=002|52=20190507-20:02:44.000|10=209|
8=FIX.4.4|9=60|35=0|34=38|49=002|50=002B35|52=20190507-20:02:45.852|56=EXC|10=097|
8=FIX.4.4|9=0050|35=0|34=39|49=EXC|56=002|52=20190507-20:03:14.000|10=208|
8=FIX.4.4|9=60|35=0|34=39|49=002|50=002B35|52=20190507-20:03:15.853|56=EXC|10=097|
8=FIX.4.4|9=0050|35=0|34=40|49=EXC|56=002|52=20190507-20:03:44.000|10=203|
8=FIX.4.4|9=60|35=0|34=40|49=002|50=002B35|52=20190507-20:03:45.852|56=EXC|10=091|
8=FIX.4.4|9=0050|35=0|34=41|49=EXC|56=002|52=20190507-20:04:14.000|10=202|
8=FIX.4.4|9=60|35=0|34=41|49=002|50=002B35|52=20190507-20:04:15.853|56=EXC|10=091|
8=FIX.4.4|9=0050|35=0|34=42|49=EXC|56=002|52=20190507-20:04:44.000|10=206|
8=FIX.4.4|9=60|35=0|34=42|49=002|50=002B35|52=20190507-20:04:45.854|56=EXC|10=096|
8=FIX.4.4|9=0050|35=0|34=43|49=EXC|56=002|52=20190507-20:05:14.000|10=205|
8=FIX.4.4|9=60|35=0|34=43|49=002|50=002B35|52=20190507-20:05:15.853|56=EXC|10=094|
8=FIX.4.4|9=0050|35=0|34=44|49=EXC|56=002|52=20190507-20:05:44.000|10=209|
8=FIX.4.4|9=60|35=0|34=44|49=002|50=002B35|52=20190507-20:05:45.853|56=EXC|10=098|
8=FIX.4.4|9=0050|35=0|34=45|49=EXC|56=002|52=20190507-20:06:14.000|10=208|
8=FIX.4.4|9=60|35=0|34=45|49=002|50=002B35|52=20190507-20:06:15.853|56=EXC|10=097|
8=FIX.4.4|9=0050|35=0|34=46|49=EXC|56=002|52=20190507-20:06:44.000|10=212|
8=FIX.4.4|9=60|35=0|34=46|49=002|50=002B35|52=20190507-20:06:45.852|56=EXC|10=100|
8=FIX.4.4|9=0050|35=0|34=47|49=EXC|56=002|52=20190507-20:07:14.000|10=211|
8=FIX.4.4|9=60|35=0|34=47|49=002|50=002B35|52=20190507-20:07:15.854|56=EXC|10=101|
8=FIX.4.4|9=0050|35=0|34=48|49=EXC|56=002|52=20190507-20:07:44.000|10=215|
8=FIX.4.4|9=60|35=0|34=48|49=002|50=002B35|52=20190507-20:07:45.852|56=EXC|10=103|
8=FIX.4.4|9=0050|35=0|34=49|49=EXC|56=002|52=20190507-20:08:14.000|10=214|
8=FIX.4.4|9=60|35=0|34=49|49=002|50=002B35|52=20190507-20:08:15.852|56=EXC|10=102|
8=FIX.4.4|9=0050|35=0|34=50|49=EXC|56=002|52=20190507-20:08:44.000|10=209|
8=FIX.4.4|9=60|35=0|34=50|49=002|50=002B35|52=20190507-20:08:45.853|56=EXC|10=098|
8=FIX.4.4|9=0050|35=0|34=51|49=EXC|56=002|52=20190507-20:09:14.000|10=208|
8=FIX.4.4|9=60|35=0|34=51|49=002|50=002B35|52=20190507-20:09:15.852|56=EXC|10=096|
8=FIX.4.4|9=0050|35=0|34=52|49=EXC|56=002|52=20190507-20:09:44.000|10=212|
8=FIX.4.4|9=60|35=0|34=52|49=002|50=002B35|52=20190507-20:09:45.852|56=EXC|10=100|
8=FIX.4.4|9=0050|35=0|34=53|49=EXC|56=002|52=20190507-20:10:14.000|10=202|
8=FIX.4.4|9=60|35=0|34=53|49=002|50=002B35|52=20190507-20:10:15.853|56=EXC|10=091|
8=FIX.4.4|9=0050|35=0|34=54|49=EXC|56=002|52=20190507-20:10:44.000|10=206|
8=FIX.4.4|9=60|35=0|34=54|49=002|50=002B35|52=20190507-20:10:45.852|56=EXC|10=094|
8=FIX.4.4|9=0050|35=0|34=55|49=EXC|56=002|52=20190507-20:11:14.000|10=205|
8=FIX.4.4|9=60|35=0|34=55|49=002|50=002B35|52=20190507-20:11:15.852|56=EXC|10=093|
8=FIX.4.4|9=0050|35=0|34=56|49=EXC|56=002|52=20190507-20:11:44.000|10=209|
8=FIX.4.4|9=60|35=0|34=56|49=002|50=002B35|52=20190507-20:11:45.853|56=EXC|10=098|
8=FIX.4.4|9=0050|35=0|34=57|49=EXC|56=002|52=20190507-20:12:14.000|10=208|
8=FIX.4.4|9=60|35=0|34=57|49=002|50=002B35|52=20190507-20:12:15.854|56=EXC|10=098|
8=FIX.4.4|9=0050|35=0|34=58|49=EXC|56=002|52=20190507-20:12:44.000|10=212|
8=FIX.4.4|9=60|35=0|34=58|49=002|50=002B35|52=20190507-20:12:45.853|56=EXC|10=101|
8=FIX.4.4|9=0050|35=0|34=59|49=EXC|56=002|52=20190507-20:13:14.000|10=211|
8=FIX.4.4|9=60|35=0|34=59|49=002|50=002B35|52=20190507-20:13:15.853|56=EXC|10=100|
8=FIX.4.4|9=0050|35=0|34=60|49=EXC|56=002|52=20190507-20:13:44.000|10=206|
8=FIX.4.4|9=60|35=0|34=60|49=002|50=002B35|52=20190507-20:13:45.852|56=EXC|10=094|
8=FIX.4.4|9=0050|35=0|34=61|49=EXC|56=002|52=20190507-20:14:14.000|10=205|
8=FIX.4.4|9=60|35=0|34=61|49=002|50=002B35|52=20190507-20:14:15.853|56=EXC|10=094|
8=FIX.4.4|9=0050|35=0|34=62|49=EXC|56=002|52=20190507-20:14:44.000|10=209|
8=FIX.4.4|9=60|35=0|34=62|49=002|50=002B35|52=20190507-20:14:45.853|56=EXC|10=098|
8=FIX.4.4|9=0050|35=0|34=63|49=EXC|56=002|52=20190507-20:15:14.000|10=208|
8=FIX.4.4|9=60|35=0|34=63|49=002|50=002B35|52=20190507-20:15:15.852|56=EXC|10=096|
8=FIX.4.4|9=0050|35=0|34=64|49=EXC|56=002|52=20190507-20:15:44.000|10=212|
8=FIX.4.4|9=60|35=0|34=64|49=002|50=002B35|52=20190507-20:15:45.856|56=EXC|10=104|
8=FIX.4.4|9=0050|35=0|34=65|49=EXC|56=002|52=20190507-20:16:14.000|10=211|
8=FIX.4.4|9=60|35=0|34=65|49=002|50=002B35|52=20190507-20:16:15.861|56=EXC|10=099|
8=FIX.4.4|9=0050|35=0|34=66|49=EXC|56=002|52=20190507-20:16:44.000|10=215|
8=FIX.4.4|9=60|35=0|34=66|49=002|50=002B35|52=20190507-20:16:45.866|56=EXC|10=108|
8=FIX.4.4|9=0050|35=0|34=67|49=EXC|56=002|52=20190507-20:17:14.000|10=214|
8=FIX.4.4|9=60|35=0|34=67|49=002|50=002B35|52=20190507-20:17:15.869|56=EXC|10=110|
8=FIX.4.4|9=0050|35=0|34=68|49=EXC|56=002|52=20190507-20:17:44.000|10=218|
8=FIX.4.4|9=60|35=0|34=68|49=002|50=002B35|52=20190507-20:17:45.875|56=EXC|10=111|
8=FIX.4.4|9=0050|35=0|34=69|49=EXC|56=002|52=20190507-20:18:14.000|10=217|
8=FIX.4.4|9=60|35=0|34=69|49=002|50=002B35|52=20190507-20:18:15.878|56=EXC|10=113|
8=FIX.4.4|9=0050|35=0|34=70|49=EXC|56=002|52=20190507-20:18:44.000|10=212|
8=FIX.4.4|9=60|35=0|34=70|49=002|50=002B35|52=20190507-20:18:45.884|56=EXC|10=105|
8=FIX.4.4|9=0050|35=0|34=71|49=EXC|56=002|52=20190507-20:19:14.000|10=211|
8=FIX.4.4|9=60|35=0|34=71|49=002|50=002B35|52=20190507-20:19:15.889|56=EXC|10=109|
8=FIX.4.4|9=0050|35=0|34=72|49=EXC|56=002|52=20190507-20:19:44.000|10=215|
8=FIX.4.4|9=60|35=0|34=72|49=002|50=002B35|52=20190507-20:19:45.893|56=EXC|10=108|
8=FIX.4.4|9=0050|35=0|34=73|49=EXC|56=002|52=20190507-20:20:14.000|10=205|
8=FIX.4.4|9=60|35=0|34=73|49=002|50=002B35|52=20190507-20:20:15.896|56=EXC|10=101|
8=FIX.4.4|9=0050|35=0|34=74|49=EXC|56=002|52=20190507-20:20:44.000|10=209|
8=FIX.4.4|9=60|35=0|34=74|49=002|50=002B35|52=20190507-20:20:45.900|56=EXC|10=091|
8=FIX.4.4|9=0050|35=0|34=75|49=EXC|56=002|52=20190507-20:21:14.000|10=208|
8=FIX.4.4|9=60|35=0|34=75|49=002|50=002B35|52=20190507-20:21:15.902|56=EXC|10=092|
8=FIX.4.4|9=0050|35=0|34=76|49=EXC|56=002|52=20190507-20:21:44.000|10=212|
8=FIX.4.4|9=60|35=0|34=76|49=002|50=002B35|52=20190507-20:21:45.905|56=EXC|10=099|
8=FIX.4.4|9=0050|35=0|34=77|49=EXC|56=002|52=20190507-20:22:14.000|10=211|
8=FIX.4.4|9=60|35=0|34=77|49=002|50=002B35|52=20190507-20:22:15.905|56=EXC|10=098|
8=FIX.4.4|9=0050|35=0|34=78|49=EXC|56=002|52=20190507-20:22:44.000|10=215|
8=FIX.4.4|9=60|35=0|34=78|49=002|50=002B35|52=20190507-20:22:45.907|56=EXC|10=104|
8=FIX.4.4|9=0050|35=0|34=79|49=EXC|56=002|52=20190507-20:23:14.000|10=214|
8=FIX.4.4|9=60|35=0|34=79|49=002|50=002B35|52=20190507-20:23:15.911|56=EXC|10=098|
8=FIX.4.4|9=0050|35=0|34=80|49=EXC|56=002|52=20190507-20:23:44.000|10=209|
8=FIX.4.4|9=60|35=0|34=80|49=002|50=002B35|52=20190507-20:23:45.912|56=EXC|10=094|
8=FIX.4.4|9=0050|35=0|34=81|49=EXC|56=002|52=20190507-20:24:14.000|10=208|
8=FIX.4.4|9=60|35=0|34=81|49=002|50=002B35|52=20190507-20:24:15.913|56=EXC|10=094|
8=FIX.4.4|9=0050|35=0|34=82|49=EXC|56=002|52=20190507-20:24:44.000|10=212|
8=FIX.4.4|9=60|35=0|34=82|49=002|50=002B35|52=20190507-20:24:45.915|56=EXC|10=100|
8=FIX.4.4|9=0050|35=0|34=83|49=EXC|56=002|52=20190507-20:25:14.000|10=211|
8=FIX.4.4|9=60|35=0|34=83|49=002|50=002B35|52=20190507-20:25:15.917|56=EXC|10=101|
8=FIX.4.4|9=0050|35=0|34=84|49=EXC|56=002|52=20190507-20:25:44.000|10=215|
8=FIX.4.4|9=60|35=0|34=84|49=002|50=002B35|52=20190507-20:25:45.918|56=EXC|10=106|
8=FIX.4.4|9=0050|35=0|34=85|49=EXC|56=002|52=20190507-20:26:14.000|10=214|
8=FIX.4.4|9=60|35=0|34=85|49=002|50=002B35|52=20190507-20:26:15.919|56=EXC|10=106|
8=FIX.4.4|9=0050|35=0|34=86|49=EXC|56=002|52=20190507-20:26:44.000|10=218|
8=FIX.4.4|9=60|35=0|34=86|49=002|50=002B35|52=20190507-20:26:45.921|56=EXC|10=103|
8=FIX.4.4|9=0050|35=0|34=87|49=EXC|56=002|52=20190507-20:27:14.000|10=217|
8=FIX.4.4|9=60|35=0|34=87|49=002|50=002B35|52=20190507-20:27:15.921|56=EXC|10=102|
8=FIX.4.4|9=0050|35=0|34=88|49=EXC|56=002|52=20190507-20:27:44.000|10=221|
8=FIX.4.4|9=60|35=0|34=88|49=002|50=002B35|52=20190507-20:27:45.923|56=EXC|10=108|
8=FIX.4.4|9=0050|35=0|34=89|49=EXC|56=002|52=20190507-20:28:14.000|10=220|
8=FIX.4.4|9=60|35=0|34=89|49=002|50=002B35|52=20190507-20:28:15.924|56=EXC|10=108|
8=FIX.4.4|9=0050|35=0|34=90|49=EXC|56=002|52=20190507-20:28:44.000|10=215|
8=FIX.4.4|9=60|35=0|34=90|49=002|50=002B35|52=20190507-20:28:45.925|56=EXC|10=104|
8=FIX.4.4|9=0050|35=0|34=91|49=EXC|56=002|52=20190507-20:29:14.000|10=214|
8=FIX.4.4|9=60|35=0|34=91|49=002|50=002B35|52=20190507-20:29:15.926|56=EXC|10=104|
8=FIX.4.4|9=0050|35=0|34=92|49=EXC|56=002|52=20190507-20:29:44.000|10=218|
8=FIX.4.4|9=60|35=0|34=92|49=002|50=002B35|52=20190507-20:29:45.925|56=EXC|10=107|
8=FIX.4.4|9=0050|35=0|34=93|49=EXC|56=002|52=20190507-20:30:14.000|10=208|
8=FIX.4.4|9=60|35=0|34=93|49=002|50=002B35|52=20190507-20:30:15.926|56=EXC|10=098|
8=FIX.4.4|9=0050|35=0|34=94|49=EXC|56=002|52=20190507-20:30:44.000|10=212|
8=FIX.4.4|9=60|35=0|34=94|49=002|50=002B35|52=20190507-20:30:45.928|56=EXC|10=104|
8=FIX.4.4|9=0050|35=0|34=95|49=EXC|56=002|52=20190507-20:31:14.000|10=211|
8=FIX.4.4|9=60|35=0|34=95|49=002|50=002B35|52=20190507-20:31:15.928|56=EXC|10=103|
8=FIX.4.4|9=0050|35=0|34=96|49=EXC|56=002|52=20190507-20:31:44.000|10=215|
8=FIX.4.4|9=60|35=0|34=96|49=002|50=002B35|52=20190507-20:31:45.927|56=EXC|10=106|
8=FIX.4.4|9=0050|35=0|34=97|49=EXC|56=002|52=20190507-20:32:14.000|10=214|
8=FIX.4.4|9=60|35=0|34=97|49=002|50=002B35|52=20190507-20:32:15.928|56=EXC|10=106|
8=FIX.4.4|9=0050|35=0|34=98|49=EXC|56=002|52=20190507-20:32:44.000|10=218|
8=FIX.4.4|9=60|35=0|34=98|49=002|50=002B35|52=20190507-20:32:45.922|56=EXC|10=104|
8=FIX.4.4|9=0050|35=0|34=99|49=EXC|56=002|52=20190507-20:33:14.000|10=217|
8=FIX.4.4|9=60|35=0|34=99|49=002|50=002B35|52=20190507-20:33:15.917|56=EXC|10=107|
8=FIX.4.4|9=0051|35=0|34=100|49=EXC|56=002|52=20190507-20:33:44.000|10=252|
8=FIX.4.4|9=61|35=0|34=100|49=002|50=002B35|52=20190507-20:33:45.912|56=EXC|10=137|
8=FIX.4.4|9=0051|35=0|34=101|49=EXC|56=002|52=20190507-20:34:14.000|10=251|
8=FIX.4.4|9=61|35=0|34=101|49=002|50=002B35|52=20190507-20:34:15.907|56=EXC|10=140|
8=FIX.4.4|9=0051|35=0|34=102|49=EXC|56=002|52=20190507-20:34:44.000|10=255|
8=FIX.4.4|9=61|35=0|34=102|49=002|50=002B35|52=20190507-20:34:45.902|56=EXC|10=139|
8=FIX.4.4|9=0051|35=0|34=103|49=EXC|56=002|52=20190507-20:35:14.000|10=254|
8=FIX.4.4|9=61|35=0|34=103|49=002|50=002B35|52=20190507-20:35:15.896|56=EXC|10=150|
8=FIX.4.4|9=0051|35=0|34=104|49=EXC|56=002|52=20190507-20:35:44.000|10=002|
8=FIX.4.4|9=61|35=0|34=104|49=002|50=002B35|52=20190507-20:35:45.893|56=EXC|10=151|
8=FIX.4.4|9=0051|35=0|34=105|49=EXC|56=002|52=20190507-20:36:14.000|10=001|
8=FIX.4.4|9=61|35=0|34=105|49=002|50=002B35|52=20190507-20:36:15.886|56=EXC|10=152|
8=FIX.4.4|9=0051|35=0|34=106|49=EXC|56=002|52=20190507-20:36:44.000|10=005|
8=FIX.4.4|9=61|35=0|34=106|49=002|50=002B35|52=20190507-20:36:45.882|56=EXC|10=152|
8=FIX.4.4|9=0051|35=0|34=107|49=EXC|56=002|52=20190507-20:37:14.000|10=004|
8=FIX.4.4|9=61|35=0|34=107|49=002|50=002B35|52=20190507-20:37:15.876|56=EXC|10=154|
8=FIX.4.4|9=0051|35=0|34=108|49=EXC|56=002|52=20190507-20:37:44.000|10=008|
8=FIX.4.4|9=61|35=0|34=108|49=002|50=002B35|52=20190507-20:37:45.874|56=EXC|10=156|
8=FIX.4.4|9=0051|35=0|34=109|49=EXC|56=002|52=20190507-20:38:14.000|10=007|
8=FIX.4.4|9=61|35=0|34=109|49=002|50=002B35|52=20190507-20:38:15.872|56=EXC|10=153|
8=FIX.4.4|9=0051|35=0|34=110|49=EXC|56=002|52=20190507-20:38:44.000|10=002|
8=FIX.4.4|9=61|35=0|34=110|49=002|50=002B35|52=20190507-20:38:45.868|56=EXC|10=153|
8=FIX.4.4|9=0051|35=0|34=111|49=EXC|56=002|52=20190507-20:39:14.000|10=001|
8=FIX.4.4|9=61|35=0|34=111|49=002|50=002B35|52=20190507-20:39:15.867|56=EXC|10=151|
8=FIX.4.4|9=0051|35=0|34=112|49=EXC|56=002|52=20190507-20:39:44.000|10=005|
8=FIX.4.4|9=61|35=0|34=112|49=002|50=002B35|52=20190507-20:39:45.865|56=EXC|10=153|
8=FIX.4.4|9=0051|35=0|34=113|49=EXC|56=002|52=20190507-20:40:14.000|10=251|
8=FIX.4.4|9=61|35=0|34=113|49=002|50=002B35|52=20190507-20:40:15.863|56=EXC|10=141|
8=FIX.4.4|9=0051|35=0|34=114|49=EXC|56=002|52=20190507-20:40:44.000|10=255|
8=FIX.4.4|9=61|35=0|34=114|49=002|50=002B35|52=20190507-20:40:45.860|56=EXC|10=142|
8=FIX.4.4|9=0051|35=0|34=115|49=EXC|56=002|52=20190507-20:41:14.000|10=254|
8=FIX.4.4|9=61|35=0|34=115|49=002|50=002B35|52=20190507-20:41:15.858|56=EXC|10=148|
8=FIX.4.4|9=0051|35=0|34=116|49=EXC|56=002|52=20190507-20:41:44.000|10=002|
8=FIX.4.4|9=61|35=0|34=116|49=002|50=002B35|52=20190507-20:41:45.856|56=EXC|10=150|
8=FIX.4.4|9=0051|35=0|34=117|49=EXC|56=002|52=20190507-20:42:14.000|10=001|
8=FIX.4.4|9=61|35=0|34=117|49=002|50=002B35|52=20190507-20:42:15.854|56=EXC|10=147|
8=FIX.4.4|9=0051|35=0|34=118|49=EXC|56=002|52=20190507-20:42:44.000|10=005|
8=FIX.4.4|9=61|35=0|34=118|49=002|50=002B35|52=20190507-20:42:45.853|56=EXC|10=150|
8=FIX.4.4|9=0051|35=0|34=119|49=EXC|56=002|52=20190507-20:43:14.000|10=004|
8=FIX.4.4|9=61|35=0|34=119|49=002|50=002B35|52=20190507-20:43:15.853|56=EXC|10=149|
8=FIX.4.4|9=106|35=A|34=120|49=002|50=002B35|52=20190507-20:43:22.324|56=EXC|43=Y|98=0|108=30|553=002FCM001|554=002FCM001|10=133|
8=FIX.4.4|9=0063|35=A|34=120|49=EXC|56=002|52=20190507-20:43:22.309|98=0|108=30|10=052|
8=FIX.4.4|9=106|35=A|34=121|49=002|50=002B35|52=20190507-20:43:23.864|56=EXC|43=Y|98=0|108=30|553=002FCM001|554=002FCM001|10=144|
8=FIX.4.4|9=0063|35=A|34=121|49=EXC|56=002|52=20190507-20:43:23.847|98=0|108=30|10=061|
8=FIX.4.4|9=110|35=A|34=1|49=002|50=002B35|52=20190507-20:43:36.334|56=EXC|43=Y|98=0|108=30|141=Y|553=002FCM001|554=002FCM001|10=081|
8=FIX.4.4|9=0067|35=A|34=1|49=EXC|56=002|52=20190507-20:43:36.324|98=0|108=30|141=Y|10=005|
8=FIX.4.4|9=0225|35=R|34=2|49=EXC|56=002|57=002B35|52=20190507-20:43:44.376|131=20190507-000000000018.00|146=1|55=TFIT16240724|762=RFQF|48=20392|22=M|54=1|38=500000000|453=3|448=001B27|447=C|452=12|448=001|447=C|452=1|448=002B35|447=C|452=37|10=031|
8=FIX.4.4|9=134|35=3|34=2|49=002|50=002B35|52=20190507-20:43:44.419|56=EXC|45=2|58=Out of order repeating group members, field=48|371=48|372=R|373=15|10=047|
8=FIX.4.4|9=0049|35=0|34=3|49=EXC|56=002|52=20190507-20:44:14.000|10=164|
8=FIX.4.4|9=59|35=0|34=3|49=002|50=002B35|52=20190507-20:44:15.269|56=EXC|10=054|
8=FIX.4.4|9=0049|35=0|34=4|49=EXC|56=002|52=20190507-20:44:44.000|10=168|
8=FIX.4.4|9=59|35=0|34=4|49=002|50=002B35|52=20190507-20:44:45.268|56=EXC|10=057|
8=FIX.4.4|9=0049|35=0|34=5|49=EXC|56=002|52=20190507-20:45:14.000|10=167|
8=FIX.4.4|9=59|35=0|34=5|49=002|50=002B35|52=20190507-20:45:15.266|56=EXC|10=054|
8=FIX.4.4|9=0049|35=0|34=6|49=EXC|56=002|52=20190507-20:45:44.000|10=171|
8=FIX.4.4|9=59|35=0|34=6|49=002|50=002B35|52=20190507-20:45:45.265|56=EXC|10=057|
8=FIX.4.4|9=110|35=A|34=1|49=002|50=002B35|52=20190507-20:46:12.578|56=EXC|43=Y|98=0|108=30|141=Y|553=002FCM001|554=002FCM001|10=088|
8=FIX.4.4|9=0067|35=A|34=1|49=EXC|56=002|52=20190507-20:46:12.574|98=0|108=30|141=Y|10=009|
8=FIX.4.4|9=0225|35=R|34=2|49=EXC|56=002|57=002B35|52=20190507-20:46:20.607|131=20190507-000000000019.00|146=1|55=TFIT16240724|762=RFQF|48=20392|22=M|54=1|38=500000000|453=3|448=001B27|447=C|452=12|448=001|447=C|452=1|448=002B35|447=C|452=37|10=026|
8=FIX.4.4|9=134|35=3|34=2|49=002|50=002B35|52=20190507-20:46:20.646|56=EXC|45=2|58=Out of order repeating group members, field=48|371=48|372=R|373=15|10=046|
8=FIX.4.4|9=0049|35=0|34=3|49=EXC|56=002|52=20190507-20:46:50.000|10=166|
8=FIX.4.4|9=59|35=0|34=3|49=002|50=002B35|52=20190507-20:46:51.491|56=EXC|10=053|
8=FIX.4.4|9=0049|35=0|34=4|49=EXC|56=002|52=20190507-20:47:20.000|10=165|
8=FIX.4.4|9=59|35=0|34=4|49=002|50=002B35|52=20190507-20:47:21.489|56=EXC|10=059|
8=FIX.4.4|9=0049|35=0|34=5|49=EXC|56=002|52=20190507-20:47:50.000|10=169|
8=FIX.4.4|9=59|35=0|34=5|49=002|50=002B35|52=20190507-20:47:51.490|56=EXC|10=055|
8=FIX.4.4|9=0049|35=0|34=6|49=EXC|56=002|52=20190507-20:48:20.000|10=168|
8=FIX.4.4|9=59|35=0|34=6|49=002|50=002B35|52=20190507-20:48:21.490|56=EXC|10=054|
8=FIX.4.4|9=0049|35=0|34=7|49=EXC|56=002|52=20190507-20:48:50.000|10=172|
8=FIX.4.4|9=59|35=0|34=7|49=002|50=002B35|52=20190507-20:48:51.488|56=EXC|10=065|
8=FIX.4.4|9=0049|35=0|34=8|49=EXC|56=002|52=20190507-20:49:20.000|10=171|
8=FIX.4.4|9=59|35=0|34=8|49=002|50=002B35|52=20190507-20:49:21.489|56=EXC|10=065|
8=FIX.4.4|9=0049|35=0|34=9|49=EXC|56=002|52=20190507-20:49:50.000|10=175|
8=FIX.4.4|9=59|35=0|34=9|49=002|50=002B35|52=20190507-20:49:51.488|56=EXC|10=068|
8=FIX.4.4|9=0050|35=0|34=10|49=EXC|56=002|52=20190507-20:50:20.000|10=196|
8=FIX.4.4|9=60|35=0|34=10|49=002|50=002B35|52=20190507-20:50:21.488|56=EXC|10=089|
8=FIX.4.4|9=0050|35=0|34=11|49=EXC|56=002|52=20190507-20:50:50.000|10=200|
8=FIX.4.4|9=60|35=0|34=11|49=002|50=002B35|52=20190507-20:50:51.487|56=EXC|10=092|
8=FIX.4.4|9=0050|35=0|34=12|49=EXC|56=002|52=20190507-20:51:20.000|10=199|
8=FIX.4.4|9=60|35=0|34=12|49=002|50=002B35|52=20190507-20:51:21.487|56=EXC|10=091|
8=FIX.4.4|9=0050|35=0|34=13|49=EXC|56=002|52=20190507-20:51:50.000|10=203|
8=FIX.4.4|9=60|35=0|34=13|49=002|50=002B35|52=20190507-20:51:51.486|56=EXC|10=094|
8=FIX.4.4|9=0050|35=0|34=14|49=EXC|56=002|52=20190507-20:52:20.000|10=202|
8=FIX.4.4|9=60|35=0|34=14|49=002|50=002B35|52=20190507-20:52:21.485|56=EXC|10=092|
8=FIX.4.4|9=0050|35=0|34=15|49=EXC|56=002|52=20190507-20:52:50.000|10=206|
8=FIX.4.4|9=60|35=0|34=15|49=002|50=002B35|52=20190507-20:52:51.486|56=EXC|10=097|
8=FIX.4.4|9=0050|35=0|34=16|49=EXC|56=002|52=20190507-20:53:20.000|10=205|
8=FIX.4.4|9=60|35=0|34=16|49=002|50=002B35|52=20190507-20:53:21.485|56=EXC|10=095|
8=FIX.4.4|9=110|35=A|34=1|49=002|50=002B35|52=20190507-20:53:30.107|56=EXC|43=Y|98=0|108=30|141=Y|553=002FCM001|554=002FCM001|10=074|
8=FIX.4.4|9=0067|35=A|34=1|49=EXC|56=002|52=20190507-20:53:30.108|98=0|108=30|141=Y|10=000|
8=FIX.4.4|9=0225|35=R|34=2|49=EXC|56=002|57=002B35|52=20190507-20:53:38.192|131=20190507-000000000020.00|146=1|55=TFIT16240724|762=RFQF|48=20392|22=M|54=1|38=500000000|453=3|448=001B27|447=C|452=12|448=001|447=C|452=1|448=002B35|447=C|452=37|10=024|
8=FIX.4.4|9=134|35=3|34=2|49=002|50=002B35|52=20190507-20:53:38.223|56=EXC|45=2|58=Out of order repeating group members, field=48|371=48|372=R|373=15|10=044|
8=FIX.4.4|9=0049|35=0|34=3|49=EXC|56=002|52=20190507-20:54:08.000|10=168|
8=FIX.4.4|9=59|35=0|34=3|49=002|50=002B35|52=20190507-20:54:09.015|56=EXC|10=047|
8=FIX.4.4|9=0049|35=0|34=4|49=EXC|56=002|52=20190507-20:54:38.001|10=173|
8=FIX.4.4|9=59|35=0|34=4|49=002|50=002B35|52=20190507-20:54:39.013|56=EXC|10=049|
8=FIX.4.4|9=110|35=A|34=1|49=002|50=002B35|52=20190507-20:55:13.505|56=EXC|43=Y|98=0|108=30|141=Y|553=002FCM001|554=002FCM001|10=079|
8=FIX.4.4|9=0067|35=A|34=1|49=EXC|56=002|52=20190507-20:55:13.508|98=0|108=30|141=Y|10=007|
8=FIX.4.4|9=0225|35=R|34=2|49=EXC|56=002|57=002B35|52=20190507-20:55:21.564|131=20190507-000000000021.00|146=1|55=TFIT16240724|762=RFQF|48=20392|22=M|54=1|38=500000000|453=3|448=001B27|447=C|452=12|448=001|447=C|452=1|448=002B35|447=C|452=37|10=022|
8=FIX.4.4|9=134|35=3|34=2|49=002|50=002B35|52=20190507-20:55:21.596|56=EXC|45=2|58=Out of order repeating group members, field=48|371=48|372=R|373=15|10=051|
8=FIX.4.4|9=110|35=A|34=1|49=002|50=002B35|52=20190507-20:56:51.407|56=EXC|43=Y|98=0|108=30|141=Y|553=002FCM001|554=002FCM001|10=083|
8=FIX.4.4|9=0067|35=A|34=1|49=EXC|56=002|52=20190507-20:56:51.408|98=0|108=30|141=Y|10=009|
8=FIX.4.4|9=0225|35=R|34=2|49=EXC|56=002|57=002B35|52=20190507-20:56:59.438|131=20190507-000000000022.00|146=1|55=TFIT16240724|762=RFQF|48=20392|22=M|54=1|38=500000000|453=3|448=001B27|447=C|452=12|448=001|447=C|452=1|448=002B35|447=C|452=37|10=035|
8=FIX.4.4|9=134|35=3|34=2|49=002|50=002B35|52=20190507-20:56:59.469|56=EXC|45=2|58=Out of order repeating group members, field=48|371=48|372=R|373=15|10=062|
8=FIX.4.4|9=0049|35=0|34=3|49=EXC|56=002|52=20190507-20:57:29.000|10=174|
8=FIX.4.4|9=59|35=0|34=3|49=002|50=002B35|52=20190507-20:57:30.333|56=EXC|10=047|
8=FIX.4.4|9=0049|35=0|34=4|49=EXC|56=002|52=20190507-20:57:59.000|10=178|
8=FIX.4.4|9=59|35=0|34=4|49=002|50=002B35|52=20190507-20:58:00.334|56=EXC|10=047|
8=FIX.4.4|9=0049|35=0|34=5|49=EXC|56=002|52=20190507-20:58:29.000|10=177|
8=FIX.4.4|9=59|35=0|34=5|49=002|50=002B35|52=20190507-20:58:30.333|56=EXC|10=050|
8=FIX.4.4|9=0049|35=0|34=6|49=EXC|56=002|52=20190507-20:58:59.000|10=181|
8=FIX.4.4|9=59|35=0|34=6|49=002|50=002B35|52=20190507-20:59:00.332|56=EXC|10=048|
8=FIX.4.4|9=0049|35=0|34=7|49=EXC|56=002|52=20190507-20:59:29.000|10=180|
8=FIX.4.4|9=59|35=0|34=7|49=002|50=002B35|52=20190507-20:59:30.333|56=EXC|10=053|
8=FIX.4.4|9=0049|35=0|34=8|49=EXC|56=002|52=20190507-20:59:59.000|10=184|
8=FIX.4.4|9=59|35=0|34=8|49=002|50=002B35|52=20190507-21:00:00.333|56=EXC|10=038|
8=FIX.4.4|9=0049|35=0|34=9|49=EXC|56=002|52=20190507-21:00:29.000|10=169|
8=FIX.4.4|9=59|35=0|34=9|49=002|50=002B35|52=20190507-21:00:30.332|56=EXC|10=041|
8=FIX.4.4|9=0050|35=0|34=10|49=EXC|56=002|52=20190507-21:00:59.000|10=204|
8=FIX.4.4|9=60|35=0|34=10|49=002|50=002B35|52=20190507-21:01:00.333|56=EXC|10=072|
8=FIX.4.4|9=110|35=A|34=1|49=002|50=002B35|52=20190507-21:01:34.856|56=EXC|43=Y|98=0|108=30|141=Y|553=002FCM001|554=002FCM001|10=083|
8=FIX.4.4|9=0067|35=A|34=1|49=EXC|56=002|52=20190507-21:01:34.857|98=0|108=30|141=Y|10=009|
8=FIX.4.4|9=0225|35=R|34=2|49=EXC|56=002|57=002B35|52=20190507-21:01:42.918|131=20190507-000000000023.00|146=1|55=TFIT16240724|762=RFQF|48=20392|22=M|54=1|38=500000000|453=3|448=001B27|447=C|452=12|448=001|447=C|452=1|448=002B35|447=C|452=37|10=022|
8=FIX.4.4|9=134|35=3|34=2|49=002|50=002B35|52=20190507-21:01:42.950|56=EXC|45=2|58=Out of order repeating group members, field=48|371=48|372=R|373=15|10=040|
8=FIX.4.4|9=0049|35=0|34=3|49=EXC|56=002|52=20190507-21:02:12.000|10=157|
8=FIX.4.4|9=59|35=0|34=3|49=002|50=002B35|52=20190507-21:02:13.792|56=EXC|10=048|
8=FIX.4.4|9=0049|35=0|34=4|49=EXC|56=002|52=20190507-21:02:42.000|10=161|
8=FIX.4.4|9=59|35=0|34=4|49=002|50=002B35|52=20190507-21:02:43.791|56=EXC|10=051|
8=FIX.4.4|9=0049|35=0|34=5|49=EXC|56=002|52=20190507-21:03:12.000|10=160|
8=FIX.4.4|9=59|35=0|34=5|49=002|50=002B35|52=20190507-21:03:13.792|56=EXC|10=051|
8=FIX.4.4|9=0049|35=0|34=6|49=EXC|56=002|52=20190507-21:03:42.000|10=164|
8=FIX.4.4|9=59|35=0|34=6|49=002|50=002B35|52=20190507-21:03:43.791|56=EXC|10=054|
8=FIX.4.4|9=0049|35=0|34=7|49=EXC|56=002|52=20190507-21:04:12.000|10=163|
8=FIX.4.4|9=59|35=0|34=7|49=002|50=002B35|52=20190507-21:04:13.791|56=EXC|10=053|
8=FIX.4.4|9=0049|35=0|34=8|49=EXC|56=002|52=20190507-21:04:42.000|10=167|
8=FIX.4.4|9=59|35=0|34=8|49=002|50=002B35|52=20190507-21:04:43.792|56=EXC|10=058|
8=FIX.4.4|9=0049|35=0|34=9|49=EXC|56=002|52=20190507-21:05:12.000|10=166|
8=FIX.4.4|9=59|35=0|34=9|49=002|50=002B35|52=20190507-21:05:13.791|56=EXC|10=056|
8=FIX.4.4|9=0050|35=0|34=10|49=EXC|56=002|52=20190507-21:05:42.000|10=201|
8=FIX.4.4|9=60|35=0|34=10|49=002|50=002B35|52=20190507-21:05:43.792|56=EXC|10=092|
8=FIX.4.4|9=0050|35=0|34=11|49=EXC|56=002|52=20190507-21:06:12.000|10=200|
8=FIX.4.4|9=60|35=0|34=11|49=002|50=002B35|52=20190507-21:06:13.792|56=EXC|10=091|
8=FIX.4.4|9=0050|35=0|34=12|49=EXC|56=002|52=20190507-21:06:42.000|10=204|
8=FIX.4.4|9=60|35=0|34=12|49=002|50=002B35|52=20190507-21:06:43.792|56=EXC|10=095|
8=FIX.4.4|9=0050|35=0|34=13|49=EXC|56=002|52=20190507-21:07:12.000|10=203|
8=FIX.4.4|9=60|35=0|34=13|49=002|50=002B35|52=20190507-21:07:13.791|56=EXC|10=093|
8=FIX.4.4|9=0050|35=0|34=14|49=EXC|56=002|52=20190507-21:07:42.000|10=207|
8=FIX.4.4|9=60|35=0|34=14|49=002|50=002B35|52=20190507-21:07:43.791|56=EXC|10=097|
8=FIX.4.4|9=0050|35=0|34=15|49=EXC|56=002|52=20190507-21:08:12.000|10=206|
8=FIX.4.4|9=60|35=0|34=15|49=002|50=002B35|52=20190507-21:08:13.792|56=EXC|10=097|
8=FIX.4.4|9=0050|35=0|34=16|49=EXC|56=002|52=20190507-21:08:42.000|10=210|
8=FIX.4.4|9=60|35=0|34=16|49=002|50=002B35|52=20190507-21:08:43.791|56=EXC|10=100|
8=FIX.4.4|9=0050|35=0|34=17|49=EXC|56=002|52=20190507-21:09:12.000|10=209|
8=FIX.4.4|9=60|35=0|34=17|49=002|50=002B35|52=20190507-21:09:13.792|56=EXC|10=100|
8=FIX.4.4|9=0050|35=0|34=18|49=EXC|56=002|52=20190507-21:09:42.000|10=213|
8=FIX.4.4|9=60|35=0|34=18|49=002|50=002B35|52=20190507-21:09:43.792|56=EXC|10=104|
8=FIX.4.4|9=0050|35=0|34=19|49=EXC|56=002|52=20190507-21:10:12.000|10=203|
8=FIX.4.4|9=60|35=0|34=19|49=002|50=002B35|52=20190507-21:10:13.792|56=EXC|10=094|
8=FIX.4.4|9=0050|35=0|34=20|49=EXC|56=002|52=20190507-21:10:42.000|10=198|
8=FIX.4.4|9=60|35=0|34=20|49=002|50=002B35|52=20190507-21:10:43.793|56=EXC|10=090|
8=FIX.4.4|9=0050|35=0|34=21|49=EXC|56=002|52=20190507-21:11:12.000|10=197|
8=FIX.4.4|9=60|35=0|34=21|49=002|50=002B35|52=20190507-21:11:13.791|56=EXC|10=087|
8=FIX.4.4|9=0050|35=0|34=22|49=EXC|56=002|52=20190507-21:11:42.000|10=201|
8=FIX.4.4|9=60|35=0|34=22|49=002|50=002B35|52=20190507-21:11:43.792|56=EXC|10=092|
8=FIX.4.4|9=0050|35=0|34=23|49=EXC|56=002|52=20190507-21:12:12.000|10=200|
8=FIX.4.4|9=60|35=0|34=23|49=002|50=002B35|52=20190507-21:12:13.791|56=EXC|10=090|
8=FIX.4.4|9=0050|35=0|34=24|49=EXC|56=002|52=20190507-21:12:42.000|10=204|
8=FIX.4.4|9=60|35=0|34=24|49=002|50=002B35|52=20190507-21:12:43.792|56=EXC|10=095|
8=FIX.4.4|9=0050|35=0|34=25|49=EXC|56=002|52=20190507-21:13:12.000|10=203|
8=FIX.4.4|9=60|35=0|34=25|49=002|50=002B35|52=20190507-21:13:13.792|56=EXC|10=094|
8=FIX.4.4|9=0050|35=0|34=26|49=EXC|56=002|52=20190507-21:13:42.000|10=207|
8=FIX.4.4|9=60|35=0|34=26|49=002|50=002B35|52=20190507-21:13:43.792|56=EXC|10=098|
8=FIX.4.4|9=0050|35=0|34=27|49=EXC|56=002|52=20190507-21:14:12.000|10=206|
8=FIX.4.4|9=60|35=0|34=27|49=002|50=002B35|52=20190507-21:14:13.791|56=EXC|10=096|
8=FIX.4.4|9=0050|35=0|34=28|49=EXC|56=002|52=20190507-21:14:42.000|10=210|
8=FIX.4.4|9=60|35=0|34=28|49=002|50=002B35|52=20190507-21:14:43.793|56=EXC|10=102|
8=FIX.4.4|9=0050|35=0|34=29|49=EXC|56=002|52=20190507-21:15:12.000|10=209|
8=FIX.4.4|9=60|35=0|34=29|49=002|50=002B35|52=20190507-21:15:13.792|56=EXC|10=100|
8=FIX.4.4|9=0050|35=0|34=30|49=EXC|56=002|52=20190507-21:15:42.000|10=204|
8=FIX.4.4|9=60|35=0|34=30|49=002|50=002B35|52=20190507-21:15:43.792|56=EXC|10=095|
8=FIX.4.4|9=110|35=A|34=1|49=002|50=002B35|52=20190507-21:15:52.643|56=EXC|43=Y|98=0|108=30|141=Y|553=002FCM001|554=002FCM001|10=082|
8=FIX.4.4|9=0067|35=A|34=1|49=EXC|56=002|52=20190507-21:15:52.334|98=0|108=30|141=Y|10=004|
8=FIX.4.4|9=0225|35=R|34=2|49=EXC|56=002|57=002B35|52=20190507-21:16:00.374|131=20190507-000000000024.00|146=1|55=TFIT16240724|762=RFQF|48=20392|22=M|54=1|38=500000000|453=3|448=001B27|447=C|452=12|448=001|447=C|452=1|448=002B35|447=C|452=37|10=019|
8=FIX.4.4|9=134|35=3|34=2|49=002|50=002B35|52=20190507-21:16:00.764|56=EXC|45=2|58=Out of order repeating group members, field=48|371=48|372=R|373=15|10=043|
8=FIX.4.4|9=0049|35=0|34=3|49=EXC|56=002|52=20190507-21:16:30.000|10=162|
8=FIX.4.4|9=59|35=0|34=3|49=002|50=002B35|52=20190507-21:16:31.553|56=EXC|10=048|
8=FIX.4.4|9=0049|35=0|34=4|49=EXC|56=002|52=20190507-21:17:00.000|10=161|
8=FIX.4.4|9=59|35=0|34=4|49=002|50=002B35|52=20190507-21:17:01.552|56=EXC|10=046|
8=FIX.4.4|9=0049|35=0|34=5|49=EXC|56=002|52=20190507-21:17:30.000|10=165|
8=FIX.4.4|9=59|35=0|34=5|49=002|50=002B35|52=20190507-21:17:31.551|56=EXC|10=049|
8=FIX.4.4|9=0049|35=0|34=6|49=EXC|56=002|52=20190507-21:18:00.000|10=164|
8=FIX.4.4|9=59|35=0|34=6|49=002|50=002B35|52=20190507-21:18:01.551|56=EXC|10=048|
8=FIX.4.4|9=0049|35=0|34=7|49=EXC|56=002|52=20190507-21:18:30.000|10=168|
8=FIX.4.4|9=59|35=0|34=7|49=002|50=002B35|52=20190507-21:18:31.551|56=EXC|10=052|
8=FIX.4.4|9=0049|35=0|34=8|49=EXC|56=002|52=20190507-21:19:00.000|10=167|
8=FIX.4.4|9=59|35=0|34=8|49=002|50=002B35|52=20190507-21:19:01.553|56=EXC|10=053|
8=FIX.4.4|9=0049|35=0|34=9|49=EXC|56=002|52=20190507-21:19:30.000|10=171|
8=FIX.4.4|9=59|35=0|34=9|49=002|50=002B35|52=20190507-21:19:31.552|56=EXC|10=056|
8=FIX.4.4|9=0050|35=0|34=10|49=EXC|56=002|52=20190507-21:20:00.000|10=192|
8=FIX.4.4|9=60|35=0|34=10|49=002|50=002B35|52=20190507-21:20:01.551|56=EXC|10=076|
8=FIX.4.4|9=0050|35=0|34=11|49=EXC|56=002|52=20190507-21:20:30.000|10=196|
8=FIX.4.4|9=60|35=0|34=11|49=002|50=002B35|52=20190507-21:20:31.552|56=EXC|10=081|
8=FIX.4.4|9=0050|35=0|34=12|49=EXC|56=002|52=20190507-21:21:00.000|10=195|
8=FIX.4.4|9=60|35=0|34=12|49=002|50=002B35|52=20190507-21:21:01.552|56=EXC|10=080|
8=FIX.4.4|9=110|35=A|34=1|49=002|50=002B35|52=20190507-21:21:19.609|56=EXC|43=Y|98=0|108=30|141=Y|553=002FCM001|554=002FCM001|10=084|
8=FIX.4.4|9=0067|35=A|34=1|49=EXC|56=002|52=20190507-21:21:19.298|98=0|108=30|141=Y|10=013|
8=FIX.4.4|9=0225|35=R|34=2|49=EXC|56=002|57=002B35|52=20190507-21:21:27.323|131=20190507-000000000025.00|146=1|55=TFIT16240724|762=RFQF|48=20392|22=M|54=1|38=500000000|453=3|448=001B27|447=C|452=12|448=001|447=C|452=1|448=002B35|447=C|452=37|10=019|
8=FIX.4.4|9=134|35=3|34=2|49=002|50=002B35|52=20190507-21:21:27.668|56=EXC|45=2|58=Out of order repeating group members, field=48|371=48|372=R|373=15|10=051|
8=FIX.4.4|9=110|35=A|34=1|49=002|50=002B35|52=20190507-21:21:58.325|56=EXC|43=Y|98=0|108=30|141=Y|553=002FCM001|554=002FCM001|10=082|
8=FIX.4.4|9=0067|35=A|34=1|49=EXC|56=002|52=20190507-21:21:58.013|98=0|108=30|141=Y|10=001|
8=FIX.4.4|9=0225|35=R|34=2|49=EXC|56=002|57=002B35|52=20190507-21:22:06.052|131=20190507-000000000026.00|146=1|55=TFIT16240724|762=RFQF|48=20392|22=M|54=1|38=500000000|453=3|448=001B27|447=C|452=12|448=001|447=C|452=1|448=002B35|447=C|452=37|10=017|
8=FIX.4.4|9=134|35=3|34=2|49=002|50=002B35|52=20190507-21:22:06.396|56=EXC|45=2|58=Out of order repeating group members, field=48|371=48|372=R|373=15|10=047|
8=FIX.4.4|9=0049|35=0|34=3|49=EXC|56=002|52=20190507-21:22:36.000|10=165|
8=FIX.4.4|9=59|35=0|34=3|49=002|50=002B35|52=20190507-21:22:36.391|56=EXC|10=050|
8=FIX.4.4|9=0049|35=0|34=4|49=EXC|56=002|52=20190507-21:23:06.000|10=164|
8=FIX.4.4|9=59|35=0|34=4|49=002|50=002B35|52=20190507-21:23:07.253|56=EXC|10=047|
8=FIX.4.4|9=0049|35=0|34=5|49=EXC|56=002|52=20190507-21:23:36.000|10=168|
8=FIX.4.4|9=59|35=0|34=5|49=002|50=002B35|52=20190507-21:23:37.252|56=EXC|10=050|
8=FIX.4.4|9=0049|35=0|34=6|49=EXC|56=002|52=20190507-21:24:06.000|10=167|
8=FIX.4.4|9=59|35=0|34=6|49=002|50=002B35|52=20190507-21:24:07.253|56=EXC|10=050|
8=FIX.4.4|9=0049|35=0|34=7|49=EXC|56=002|52=20190507-21:24:36.000|10=171|
8=FIX.4.4|9=59|35=0|34=7|49=002|50=002B35|52=20190507-21:24:37.253|56=EXC|10=054|
8=FIX.4.4|9=0049|35=0|34=8|49=EXC|56=002|52=20190507-21:25:06.000|10=170|
8=FIX.4.4|9=59|35=0|34=8|49=002|50=002B35|52=20190507-21:25:07.252|56=EXC|10=052|
8=FIX.4.4|9=0049|35=0|34=9|49=EXC|56=002|52=20190507-21:25:36.000|10=174|
8=FIX.4.4|9=59|35=0|34=9|49=002|50=002B35|52=20190507-21:25:37.252|56=EXC|10=056|
8=FIX.4.4|9=0050|35=0|34=10|49=EXC|56=002|52=20190507-21:26:06.000|10=204|
8=FIX.4.4|9=60|35=0|34=10|49=002|50=002B35|52=20190507-21:26:07.252|56=EXC|10=086|
8=FIX.4.4|9=0050|35=0|34=11|49=EXC|56=002|52=20190507-21:26:36.000|10=208|
8=FIX.4.4|9=60|35=0|34=11|49=002|50=002B35|52=20190507-21:26:37.252|56=EXC|10=090|
8=FIX.4.4|9=0050|35=0|34=12|49=EXC|56=002|52=20190507-21:27:06.000|10=207|
8=FIX.4.4|9=60|35=0|34=12|49=002|50=002B35|52=20190507-21:27:07.251|56=EXC|10=088|
8=FIX.4.4|9=0050|35=0|34=13|49=EXC|56=002|52=20190507-21:27:36.000|10=211|
8=FIX.4.4|9=60|35=0|34=13|49=002|50=002B35|52=20190507-21:27:37.253|56=EXC|10=094|
8=FIX.4.4|9=0050|35=0|34=14|49=EXC|56=002|52=20190507-21:28:06.000|10=210|
8=FIX.4.4|9=60|35=0|34=14|49=002|50=002B35|52=20190507-21:28:07.252|56=EXC|10=092|
8=FIX.4.4|9=0050|35=0|34=15|49=EXC|56=002|52=20190507-21:28:36.000|10=214|
8=FIX.4.4|9=60|35=0|34=15|49=002|50=002B35|52=20190507-21:28:37.253|56=EXC|10=097|
8=FIX.4.4|9=0050|35=0|34=16|49=EXC|56=002|52=20190507-21:29:06.000|10=213|
8=FIX.4.4|9=60|35=0|34=16|49=002|50=002B35|52=20190507-21:29:07.251|56=EXC|10=094|
8=FIX.4.4|9=0050|35=0|34=17|49=EXC|56=002|52=20190507-21:29:36.000|10=217|
8=FIX.4.4|9=60|35=0|34=17|49=002|50=002B35|52=20190507-21:29:37.251|56=EXC|10=098|
8=FIX.4.4|9=0050|35=0|34=18|49=EXC|56=002|52=20190507-21:30:06.000|10=207|
8=FIX.4.4|9=60|35=0|34=18|49=002|50=002B35|52=20190507-21:30:07.251|56=EXC|10=088|
8=FIX.4.4|9=0050|35=0|34=19|49=EXC|56=002|52=20190507-21:30:36.000|10=211|
8=FIX.4.4|9=60|35=0|34=19|49=002|50=002B35|52=20190507-21:30:37.252|56=EXC|10=093|
8=FIX.4.4|9=0050|35=0|34=20|49=EXC|56=002|52=20190507-21:31:06.000|10=201|
8=FIX.4.4|9=60|35=0|34=20|49=002|50=002B35|52=20190507-21:31:07.253|56=EXC|10=084|
8=FIX.4.4|9=0050|35=0|34=21|49=EXC|56=002|52=20190507-21:31:36.000|10=205|
8=FIX.4.4|9=60|35=0|34=21|49=002|50=002B35|52=20190507-21:31:37.251|56=EXC|10=086|
8=FIX.4.4|9=0050|35=0|34=22|49=EXC|56=002|52=20190507-21:32:06.000|10=204|
8=FIX.4.4|9=60|35=0|34=22|49=002|50=002B35|52=20190507-21:32:07.252|56=EXC|10=086|
8=FIX.4.4|9=0050|35=0|34=23|49=EXC|56=002|52=20190507-21:32:36.000|10=208|
8=FIX.4.4|9=60|35=0|34=23|49=002|50=002B35|52=20190507-21:32:37.252|56=EXC|10=090|
8=FIX.4.4|9=0050|35=0|34=24|49=EXC|56=002|52=20190507-21:33:06.000|10=207|
8=FIX.4.4|9=60|35=0|34=24|49=002|50=002B35|52=20190507-21:33:07.252|56=EXC|10=089|
8=FIX.4.4|9=0050|35=0|34=25|49=EXC|56=002|52=20190507-21:33:36.000|10=211|
8=FIX.4.4|9=60|35=0|34=25|49=002|50=002B35|52=20190507-21:33:37.251|56=EXC|10=092|
8=FIX.4.4|9=0050|35=0|34=26|49=EXC|56=002|52=20190507-21:34:06.000|10=210|
8=FIX.4.4|9=60|35=0|34=26|49=002|50=002B35|52=20190507-21:34:07.252|56=EXC|10=092|
8=FIX.4.4|9=0050|35=0|34=27|49=EXC|56=002|52=20190507-21:34:36.000|10=214|
8=FIX.4.4|9=60|35=0|34=27|49=002|50=002B35|52=20190507-21:34:37.253|56=EXC|10=097|
8=FIX.4.4|9=0050|35=0|34=28|49=EXC|56=002|52=20190507-21:35:06.000|10=213|
8=FIX.4.4|9=60|35=0|34=28|49=002|50=002B35|52=20190507-21:35:07.252|56=EXC|10=095|
8=FIX.4.4|9=0050|35=0|34=29|49=EXC|56=002|52=20190507-21:35:36.000|10=217|
8=FIX.4.4|9=60|35=0|34=29|49=002|50=002B35|52=20190507-21:35:37.252|56=EXC|10=099|
8=FIX.4.4|9=0050|35=0|34=30|49=EXC|56=002|52=20190507-21:36:06.000|10=207|
8=FIX.4.4|9=60|35=0|34=30|49=002|50=002B35|52=20190507-21:36:07.253|56=EXC|10=090|
8=FIX.4.4|9=0050|35=0|34=31|49=EXC|56=002|52=20190507-21:36:36.000|10=211|
8=FIX.4.4|9=60|35=0|34=31|49=002|50=002B35|52=20190507-21:36:37.252|56=EXC|10=093|
8=FIX.4.4|9=0050|35=0|34=32|49=EXC|56=002|52=20190507-21:37:06.000|10=210|
8=FIX.4.4|9=60|35=0|34=32|49=002|50=002B35|52=20190507-21:37:07.252|56=EXC|10=092|
8=FIX.4.4|9=0050|35=0|34=33|49=EXC|56=002|52=20190507-21:37:36.000|10=214|
8=FIX.4.4|9=60|35=0|34=33|49=002|50=002B35|52=20190507-21:37:37.251|56=EXC|10=095|
8=FIX.4.4|9=0050|35=0|34=34|49=EXC|56=002|52=20190507-21:38:06.000|10=213|
8=FIX.4.4|9=60|35=0|34=34|49=002|50=002B35|52=20190507-21:38:07.253|56=EXC|10=096|
8=FIX.4.4|9=0050|35=0|34=35|49=EXC|56=002|52=20190507-21:38:36.000|10=217|
8=FIX.4.4|9=60|35=0|34=35|49=002|50=002B35|52=20190507-21:38:37.253|56=EXC|10=100|
8=FIX.4.4|9=0050|35=0|34=36|49=EXC|56=002|52=20190507-21:39:06.000|10=216|
8=FIX.4.4|9=60|35=0|34=36|49=002|50=002B35|52=20190507-21:39:07.253|56=EXC|10=099|
8=FIX.4.4|9=0050|35=0|34=37|49=EXC|56=002|52=20190507-21:39:36.000|10=220|
8=FIX.4.4|9=60|35=0|34=37|49=002|50=002B35|52=20190507-21:39:37.252|56=EXC|10=102|
8=FIX.4.4|9=0050|35=0|34=38|49=EXC|56=002|52=20190507-21:40:06.000|10=210|
8=FIX.4.4|9=60|35=0|34=38|49=002|50=002B35|52=20190507-21:40:07.253|56=EXC|10=093|
8=FIX.4.4|9=0050|35=0|34=39|49=EXC|56=002|52=20190507-21:40:36.000|10=214|
8=FIX.4.4|9=60|35=0|34=39|49=002|50=002B35|52=20190507-21:40:37.252|56=EXC|10=096|
8=FIX.4.4|9=0050|35=0|34=40|49=EXC|56=002|52=20190507-21:41:06.000|10=204|
8=FIX.4.4|9=60|35=0|34=40|49=002|50=002B35|52=20190507-21:41:07.252|56=EXC|10=086|
8=FIX.4.4|9=0050|35=0|34=41|49=EXC|56=002|52=20190507-21:41:36.000|10=208|
8=FIX.4.4|9=60|35=0|34=41|49=002|50=002B35|52=20190507-21:41:37.253|56=EXC|10=091|
8=FIX.4.4|9=0050|35=0|34=42|49=EXC|56=002|52=20190507-21:42:06.000|10=207|
8=FIX.4.4|9=60|35=0|34=42|49=002|50=002B35|52=20190507-21:42:07.253|56=EXC|10=090|
8=FIX.4.4|9=0050|35=0|34=43|49=EXC|56=002|52=20190507-21:42:36.000|10=211|
8=FIX.4.4|9=60|35=0|34=43|49=002|50=002B35|52=20190507-21:42:37.252|56=EXC|10=093|
8=FIX.4.4|9=0050|35=0|34=44|49=EXC|56=002|52=20190507-21:43:06.000|10=210|
8=FIX.4.4|9=60|35=0|34=44|49=002|50=002B35|52=20190507-21:43:07.253|56=EXC|10=093|
8=FIX.4.4|9=0050|35=0|34=45|49=EXC|56=002|52=20190507-21:43:36.000|10=214|
8=FIX.4.4|9=60|35=0|34=45|49=002|50=002B35|52=20190507-21:43:37.252|56=EXC|10=096|
8=FIX.4.4|9=0050|35=0|34=46|49=EXC|56=002|52=20190507-21:44:06.000|10=213|
8=FIX.4.4|9=60|35=0|34=46|49=002|50=002B35|52=20190507-21:44:07.253|56=EXC|10=096|
8=FIX.4.4|9=0050|35=0|34=47|49=EXC|56=002|52=20190507-21:44:36.000|10=217|
8=FIX.4.4|9=60|35=0|34=47|49=002|50=002B35|52=20190507-21:44:37.252|56=EXC|10=099|
8=FIX.4.4|9=0050|35=0|34=48|49=EXC|56=002|52=20190507-21:45:06.000|10=216|
8=FIX.4.4|9=60|35=0|34=48|49=002|50=002B35|52=20190507-21:45:07.253|56=EXC|10=099|
8=FIX.4.4|9=0050|35=0|34=49|49=EXC|56=002|52=20190507-21:45:36.000|10=220|
8=FIX.4.4|9=60|35=0|34=49|49=002|50=002B35|52=20190507-21:45:37.253|56=EXC|10=103|
8=FIX.4.4|9=0050|35=0|34=50|49=EXC|56=002|52=20190507-21:46:06.000|10=210|
8=FIX.4.4|9=60|35=0|34=50|49=002|50=002B35|52=20190507-21:46:07.252|56=EXC|10=092|
8=FIX.4.4|9=0050|35=0|34=51|49=EXC|56=002|52=20190507-21:46:36.000|10=214|
8=FIX.4.4|9=60|35=0|34=51|49=002|50=002B35|52=20190507-21:46:37.254|56=EXC|10=098|
8=FIX.4.4|9=0050|35=0|34=52|49=EXC|56=002|52=20190507-21:47:06.000|10=213|
8=FIX.4.4|9=60|35=0|34=52|49=002|50=002B35|52=20190507-21:47:07.252|56=EXC|10=095|
8=FIX.4.4|9=0050|35=0|34=53|49=EXC|56=002|52=20190507-21:47:36.000|10=217|
8=FIX.4.4|9=60|35=0|34=53|49=002|50=002B35|52=20190507-21:47:37.253|56=EXC|10=100|
8=FIX.4.4|9=0050|35=0|34=54|49=EXC|56=002|52=20190507-21:48:06.000|10=216|
8=FIX.4.4|9=60|35=0|34=54|49=002|50=002B35|52=20190507-21:48:07.252|56=EXC|10=098|
8=FIX.4.4|9=0050|35=0|34=55|49=EXC|56=002|52=20190507-21:48:36.000|10=220|
8=FIX.4.4|9=60|35=0|34=55|49=002|50=002B35|52=20190507-21:48:37.253|56=EXC|10=103|
8=FIX.4.4|9=0050|35=0|34=56|49=EXC|56=002|52=20190507-21:49:06.000|10=219|
8=FIX.4.4|9=60|35=0|34=56|49=002|50=002B35|52=20190507-21:49:07.252|56=EXC|10=101|
8=FIX.4.4|9=0050|35=0|34=57|49=EXC|56=002|52=20190507-21:49:36.000|10=223|
8=FIX.4.4|9=60|35=0|34=57|49=002|50=002B35|52=20190507-21:49:37.253|56=EXC|10=106|
8=FIX.4.4|9=0050|35=0|34=58|49=EXC|56=002|52=20190507-21:50:06.000|10=213|
8=FIX.4.4|9=60|35=0|34=58|49=002|50=002B35|52=20190507-21:50:07.253|56=EXC|10=096|
8=FIX.4.4|9=0050|35=0|34=59|49=EXC|56=002|52=20190507-21:50:36.000|10=217|
8=FIX.4.4|9=60|35=0|34=59|49=002|50=002B35|52=20190507-21:50:37.252|56=EXC|10=099|
8=FIX.4.4|9=0050|35=0|34=60|49=EXC|56=002|52=20190507-21:51:06.000|10=207|
8=FIX.4.4|9=60|35=0|34=60|49=002|50=002B35|52=20190507-21:51:07.253|56=EXC|10=090|
8=FIX.4.4|9=0050|35=0|34=61|49=EXC|56=002|52=20190507-21:51:36.000|10=211|
8=FIX.4.4|9=60|35=0|34=61|49=002|50=002B35|52=20190507-21:51:37.252|56=EXC|10=093|
8=FIX.4.4|9=0050|35=0|34=62|49=EXC|56=002|52=20190507-21:52:06.000|10=210|
8=FIX.4.4|9=60|35=0|34=62|49=002|50=002B35|52=20190507-21:52:07.253|56=EXC|10=093|
8=FIX.4.4|9=0050|35=0|34=63|49=EXC|56=002|52=20190507-21:52:36.000|10=214|
8=FIX.4.4|9=60|35=0|34=63|49=002|50=002B35|52=20190507-21:52:37.252|56=EXC|10=096|
8=FIX.4.4|9=0050|35=0|34=64|49=EXC|56=002|52=20190507-21:53:06.000|10=213|
8=FIX.4.4|9=60|35=0|34=64|49=002|50=002B35|52=20190507-21:53:07.253|56=EXC|10=096|
8=FIX.4.4|9=0050|35=0|34=65|49=EXC|56=002|52=20190507-21:53:36.000|10=217|
8=FIX.4.4|9=60|35=0|34=65|49=002|50=002B35|52=20190507-21:53:37.253|56=EXC|10=100|
8=FIX.4.4|9=0050|35=0|34=66|49=EXC|56=002|52=20190507-21:54:06.000|10=216|
8=FIX.4.4|9=60|35=0|34=66|49=002|50=002B35|52=20190507-21:54:07.253|56=EXC|10=099|
8=FIX.4.4|9=0050|35=0|34=67|49=EXC|56=002|52=20190507-21:54:36.000|10=220|
8=FIX.4.4|9=60|35=0|34=67|49=002|50=002B35|52=20190507-21:54:37.253|56=EXC|10=103|
8=FIX.4.4|9=0050|35=0|34=68|49=EXC|56=002|52=20190507-21:55:06.000|10=219|
8=FIX.4.4|9=60|35=0|34=68|49=002|50=002B35|52=20190507-21:55:07.253|56=EXC|10=102|
8=FIX.4.4|9=0050|35=0|34=69|49=EXC|56=002|52=20190507-21:55:36.000|10=223|
8=FIX.4.4|9=60|35=0|34=69|49=002|50=002B35|52=20190507-21:55:37.253|56=EXC|10=106|
8=FIX.4.4|9=0050|35=0|34=70|49=EXC|56=002|52=20190507-21:56:06.000|10=213|
8=FIX.4.4|9=60|35=0|34=70|49=002|50=002B35|52=20190507-21:56:07.254|56=EXC|10=097|
8=FIX.4.4|9=0050|35=0|34=71|49=EXC|56=002|52=20190507-21:56:36.000|10=217|
8=FIX.4.4|9=60|35=0|34=71|49=002|50=002B35|52=20190507-21:56:37.252|56=EXC|10=099|
8=FIX.4.4|9=0050|35=0|34=72|49=EXC|56=002|52=20190507-21:57:06.000|10=216|
8=FIX.4.4|9=60|35=0|34=72|49=002|50=002B35|52=20190507-21:57:07.253|56=EXC|10=099|
8=FIX.4.4|9=0050|35=0|34=73|49=EXC|56=002|52=20190507-21:57:36.000|10=220|
8=FIX.4.4|9=60|35=0|34=73|49=002|50=002B35|52=20190507-21:57:37.253|56=EXC|10=103|
8=FIX.4.4|9=0050|35=0|34=74|49=EXC|56=002|52=20190507-21:58:06.000|10=219|
8=FIX.4.4|9=60|35=0|34=74|49=002|50=002B35|52=20190507-21:58:07.252|56=EXC|10=101|
8=FIX.4.4|9=0050|35=0|34=75|49=EXC|56=002|52=20190507-21:58:36.000|10=223|
8=FIX.4.4|9=60|35=0|34=75|49=002|50=002B35|52=20190507-21:58:37.252|56=EXC|10=105|
8=FIX.4.4|9=0050|35=0|34=76|49=EXC|56=002|52=20190507-21:59:06.000|10=222|
8=FIX.4.4|9=60|35=0|34=76|49=002|50=002B35|52=20190507-21:59:07.252|56=EXC|10=104|
8=FIX.4.4|9=0050|35=0|34=77|49=EXC|56=002|52=20190507-21:59:36.000|10=226|
8=FIX.4.4|9=60|35=0|34=77|49=002|50=002B35|52=20190507-21:59:37.254|56=EXC|10=110|
8=FIX.4.4|9=0050|35=0|34=78|49=EXC|56=002|52=20190507-22:00:06.000|10=211|
8=FIX.4.4|9=60|35=0|34=78|49=002|50=002B35|52=20190507-22:00:07.252|56=EXC|10=093|
8=FIX.4.4|9=0050|35=0|34=79|49=EXC|56=002|52=20190507-22:00:36.000|10=215|
8=FIX.4.4|9=60|35=0|34=79|49=002|50=002B35|52=20190507-22:00:37.253|56=EXC|10=098|
8=FIX.4.4|9=0050|35=0|34=80|49=EXC|56=002|52=20190507-22:01:06.000|10=205|
8=FIX.4.4|9=60|35=0|34=80|49=002|50=002B35|52=20190507-22:01:07.253|56=EXC|10=088|
8=FIX.4.4|9=0050|35=0|34=81|49=EXC|56=002|52=20190507-22:01:36.000|10=209|
8=FIX.4.4|9=60|35=0|34=81|49=002|50=002B35|52=20190507-22:01:37.253|56=EXC|10=092|
8=FIX.4.4|9=0050|35=0|34=82|49=EXC|56=002|52=20190507-22:02:06.000|10=208|
8=FIX.4.4|9=60|35=0|34=82|49=002|50=002B35|52=20190507-22:02:07.253|56=EXC|10=091|
8=FIX.4.4|9=0050|35=0|34=83|49=EXC|56=002|52=20190507-22:02:36.000|10=212|
8=FIX.4.4|9=60|35=0|34=83|49=002|50=002B35|52=20190507-22:02:37.253|56=EXC|10=095|
8=FIX.4.4|9=0050|35=0|34=84|49=EXC|56=002|52=20190507-22:03:06.000|10=211|
8=FIX.4.4|9=60|35=0|34=84|49=002|50=002B35|52=20190507-22:03:07.253|56=EXC|10=094|
8=FIX.4.4|9=0050|35=0|34=85|49=EXC|56=002|52=20190507-22:03:36.000|10=215|
8=FIX.4.4|9=60|35=0|34=85|49=002|50=002B35|52=20190507-22:03:37.252|56=EXC|10=097|
8=FIX.4.4|9=0050|35=0|34=86|49=EXC|56=002|52=20190507-22:04:06.000|10=214|
8=FIX.4.4|9=60|35=0|34=86|49=002|50=002B35|52=20190507-22:04:07.252|56=EXC|10=096|
8=FIX.4.4|9=0050|35=0|34=87|49=EXC|56=002|52=20190507-22:04:36.000|10=218|
8=FIX.4.4|9=60|35=0|34=87|49=002|50=002B35|52=20190507-22:04:37.251|56=EXC|10=099|
8=FIX.4.4|9=0050|35=0|34=88|49=EXC|56=002|52=20190507-22:05:06.000|10=217|
8=FIX.4.4|9=60|35=0|34=88|49=002|50=002B35|52=20190507-22:05:07.251|56=EXC|10=098|
8=FIX.4.4|9=0050|35=0|34=89|49=EXC|56=002|52=20190507-22:05:36.000|10=221|
8=FIX.4.4|9=60|35=0|34=89|49=002|50=002B35|52=20190507-22:05:37.251|56=EXC|10=102|
8=FIX.4.4|9=0050|35=0|34=90|49=EXC|56=002|52=20190507-22:06:06.000|10=211|
8=FIX.4.4|9=60|35=0|34=90|49=002|50=002B35|52=20190507-22:06:07.250|56=EXC|10=091|
8=FIX.4.4|9=0050|35=0|34=91|49=EXC|56=002|52=20190507-22:06:36.000|10=215|
8=FIX.4.4|9=60|35=0|34=91|49=002|50=002B35|52=20190507-22:06:37.250|56=EXC|10=095|
8=FIX.4.4|9=0050|35=0|34=92|49=EXC|56=002|52=20190507-22:07:06.000|10=214|
8=FIX.4.4|9=60|35=0|34=92|49=002|50=002B35|52=20190507-22:07:07.250|56=EXC|10=094|
8=FIX.4.4|9=0050|35=0|34=93|49=EXC|56=002|52=20190507-22:07:36.000|10=218|
8=FIX.4.4|9=60|35=0|34=93|49=002|50=002B35|52=20190507-22:07:37.250|56=EXC|10=098|
8=FIX.4.4|9=0050|35=0|34=94|49=EXC|56=002|52=20190507-22:08:06.000|10=217|
8=FIX.4.4|9=60|35=0|34=94|49=002|50=002B35|52=20190507-22:08:07.249|56=EXC|10=105|
8=FIX.4.4|9=0050|35=0|34=95|49=EXC|56=002|52=20190507-22:08:36.000|10=221|
8=FIX.4.4|9=60|35=0|34=95|49=002|50=002B35|52=20190507-22:08:37.249|56=EXC|10=109|
8=FIX.4.4|9=0050|35=0|34=96|49=EXC|56=002|52=20190507-22:09:06.000|10=220|
8=FIX.4.4|9=60|35=0|34=96|49=002|50=002B35|52=20190507-22:09:07.249|56=EXC|10=108|
8=FIX.4.4|9=0050|35=0|34=97|49=EXC|56=002|52=20190507-22:09:36.000|10=224|
8=FIX.4.4|9=60|35=0|34=97|49=002|50=002B35|52=20190507-22:09:37.248|56=EXC|10=111|
8=FIX.4.4|9=0050|35=0|34=98|49=EXC|56=002|52=20190507-22:10:06.000|10=214|
8=FIX.4.4|9=60|35=0|34=98|49=002|50=002B35|52=20190507-22:10:07.248|56=EXC|10=101|
8=FIX.4.4|9=0050|35=0|34=99|49=EXC|56=002|52=20190507-22:10:36.000|10=218|
8=FIX.4.4|9=60|35=0|34=99|49=002|50=002B35|52=20190507-22:10:37.249|56=EXC|10=106|
8=FIX.4.4|9=0051|35=0|34=100|49=EXC|56=002|52=20190507-22:11:06.000|10=248|
8=FIX.4.4|9=61|35=0|34=100|49=002|50=002B35|52=20190507-22:11:07.248|56=EXC|10=135|
8=FIX.4.4|9=0051|35=0|34=101|49=EXC|56=002|52=20190507-22:11:36.000|10=252|
8=FIX.4.4|9=61|35=0|34=101|49=002|50=002B35|52=20190507-22:11:37.247|56=EXC|10=138|
8=FIX.4.4|9=0051|35=0|34=102|49=EXC|56=002|52=20190507-22:12:06.000|10=251|
8=FIX.4.4|9=61|35=0|34=102|49=002|50=002B35|52=20190507-22:12:07.247|56=EXC|10=137|
8=FIX.4.4|9=0051|35=0|34=103|49=EXC|56=002|52=20190507-22:12:36.000|10=255|
8=FIX.4.4|9=61|35=0|34=103|49=002|50=002B35|52=20190507-22:12:37.246|56=EXC|10=140|
8=FIX.4.4|9=0051|35=0|34=104|49=EXC|56=002|52=20190507-22:13:06.000|10=254|
8=FIX.4.4|9=61|35=0|34=104|49=002|50=002B35|52=20190507-22:13:07.248|56=EXC|10=141|
8=FIX.4.4|9=0051|35=0|34=105|49=EXC|56=002|52=20190507-22:13:36.000|10=002|
8=FIX.4.4|9=61|35=0|34=105|49=002|50=002B35|52=20190507-22:13:37.246|56=EXC|10=143|
8=FIX.4.4|9=0051|35=0|34=106|49=EXC|56=002|52=20190507-22:14:06.000|10=001|
8=FIX.4.4|9=61|35=0|34=106|49=002|50=002B35|52=20190507-22:14:07.247|56=EXC|10=143|
8=FIX.4.4|9=0051|35=0|34=107|49=EXC|56=002|52=20190507-22:14:36.000|10=005|
8=FIX.4.4|9=61|35=0|34=107|49=002|50=002B35|52=20190507-22:14:37.247|56=EXC|10=147|
8=FIX.4.4|9=0051|35=0|34=108|49=EXC|56=002|52=20190507-22:15:06.000|10=004|
8=FIX.4.4|9=61|35=0|34=108|49=002|50=002B35|52=20190507-22:15:07.247|56=EXC|10=146|
8=FIX.4.4|9=0051|35=0|34=109|49=EXC|56=002|52=20190507-22:15:36.000|10=008|
8=FIX.4.4|9=61|35=0|34=109|49=002|50=002B35|52=20190507-22:15:37.246|56=EXC|10=149|
8=FIX.4.4|9=0051|35=0|34=110|49=EXC|56=002|52=20190507-22:16:06.000|10=254|
8=FIX.4.4|9=61|35=0|34=110|49=002|50=002B35|52=20190507-22:16:07.246|56=EXC|10=139|
8=FIX.4.4|9=0051|35=0|34=111|49=EXC|56=002|52=20190507-22:16:36.000|10=002|
8=FIX.4.4|9=61|35=0|34=111|49=002|50=002B35|52=20190507-22:16:37.245|56=EXC|10=142|
8=FIX.4.4|9=0051|35=0|34=112|49=EXC|56=002|52=20190507-22:17:06.000|10=001|
8=FIX.4.4|9=61|35=0|34=112|49=002|50=002B35|52=20190507-22:17:07.246|56=EXC|10=142|
8=FIX.4.4|9=0051|35=0|34=113|49=EXC|56=002|52=20190507-22:17:36.000|10=005|
8=FIX.4.4|9=61|35=0|34=113|49=002|50=002B35|52=20190507-22:17:37.246|56=EXC|10=146|
8=FIX.4.4|9=0051|35=0|34=114|49=EXC|56=002|52=20190507-22:18:06.000|10=004|
8=FIX.4.4|9=61|35=0|34=114|49=002|50=002B35|52=20190507-22:18:07.245|56=EXC|10=144|
8=FIX.4.4|9=0051|35=0|34=115|49=EXC|56=002|52=20190507-22:18:36.000|10=008|
8=FIX.4.4|9=61|35=0|34=115|49=002|50=002B35|52=20190507-22:18:37.245|56=EXC|10=148|
8=FIX.4.4|9=0051|35=0|34=116|49=EXC|56=002|52=20190507-22:19:06.000|10=007|
8=FIX.4.4|9=61|35=0|34=116|49=002|50=002B35|52=20190507-22:19:07.244|56=EXC|10=146|
8=FIX.4.4|9=0051|35=0|34=117|49=EXC|56=002|52=20190507-22:19:36.000|10=011|
8=FIX.4.4|9=61|35=0|34=117|49=002|50=002B35|52=20190507-22:19:37.246|56=EXC|10=152|
8=FIX.4.4|9=0051|35=0|34=118|49=EXC|56=002|52=20190507-22:20:06.000|10=001|
8=FIX.4.4|9=61|35=0|34=118|49=002|50=002B35|52=20190507-22:20:07.245|56=EXC|10=141|
8=FIX.4.4|9=0051|35=0|34=119|49=EXC|56=002|52=20190507-22:20:36.000|10=005|
8=FIX.4.4|9=61|35=0|34=119|49=002|50=002B35|52=20190507-22:20:37.244|56=EXC|10=144|
8=FIX.4.4|9=0051|35=0|34=120|49=EXC|56=002|52=20190507-22:21:06.000|10=251|
8=FIX.4.4|9=61|35=0|34=120|49=002|50=002B35|52=20190507-22:21:07.245|56=EXC|10=135|
8=FIX.4.4|9=0051|35=0|34=121|49=EXC|56=002|52=20190507-22:21:36.000|10=255|
8=FIX.4.4|9=61|35=0|34=121|49=002|50=002B35|52=20190507-22:21:37.245|56=EXC|10=139|
8=FIX.4.4|9=0051|35=0|34=122|49=EXC|56=002|52=20190507-22:22:06.000|10=254|
8=FIX.4.4|9=61|35=0|34=122|49=002|50=002B35|52=20190507-22:22:07.245|56=EXC|10=138|
8=FIX.4.4|9=0051|35=0|34=123|49=EXC|56=002|52=20190507-22:22:36.000|10=002|
8=FIX.4.4|9=61|35=0|34=123|49=002|50=002B35|52=20190507-22:22:37.244|56=EXC|10=141|
8=FIX.4.4|9=0051|35=0|34=124|49=EXC|56=002|52=20190507-22:23:06.000|10=001|
8=FIX.4.4|9=61|35=0|34=124|49=002|50=002B35|52=20190507-22:23:07.245|56=EXC|10=141|
8=FIX.4.4|9=0051|35=0|34=125|49=EXC|56=002|52=20190507-22:23:36.000|10=005|
8=FIX.4.4|9=61|35=0|34=125|49=002|50=002B35|52=20190507-22:23:37.243|56=EXC|10=143|
8=FIX.4.4|9=0051|35=0|34=126|49=EXC|56=002|52=20190507-22:24:06.000|10=004|
8=FIX.4.4|9=61|35=0|34=126|49=002|50=002B35|52=20190507-22:24:07.245|56=EXC|10=144|
8=FIX.4.4|9=0051|35=0|34=127|49=EXC|56=002|52=20190507-22:24:36.000|10=008|
8=FIX.4.4|9=61|35=0|34=127|49=002|50=002B35|52=20190507-22:24:37.245|56=EXC|10=148|
8=FIX.4.4|9=0051|35=0|34=128|49=EXC|56=002|52=20190507-22:25:06.000|10=007|
8=FIX.4.4|9=61|35=0|34=128|49=002|50=002B35|52=20190507-22:25:07.244|56=EXC|10=146|
8=FIX.4.4|9=0051|35=0|34=129|49=EXC|56=002|52=20190507-22:25:36.000|10=011|
8=FIX.4.4|9=61|35=0|34=129|49=002|50=002B35|52=20190507-22:25:37.244|56=EXC|10=150|
8=FIX.4.4|9=0051|35=0|34=130|49=EXC|56=002|52=20190507-22:26:06.000|10=001|
8=FIX.4.4|9=61|35=0|34=130|49=002|50=002B35|52=20190507-22:26:07.243|56=EXC|10=139|
8=FIX.4.4|9=0051|35=0|34=131|49=EXC|56=002|52=20190507-22:26:36.000|10=005|
8=FIX.4.4|9=61|35=0|34=131|49=002|50=002B35|52=20190507-22:26:37.244|56=EXC|10=144|
8=FIX.4.4|9=0051|35=0|34=132|49=EXC|56=002|52=20190507-22:27:06.000|10=004|
8=FIX.4.4|9=61|35=0|34=132|49=002|50=002B35|52=20190507-22:27:07.244|56=EXC|10=143|
8=FIX.4.4|9=0051|35=0|34=133|49=EXC|56=002|52=20190507-22:27:36.000|10=008|
8=FIX.4.4|9=61|35=0|34=133|49=002|50=002B35|52=20190507-22:27:37.245|56=EXC|10=148|
8=FIX.4.4|9=0051|35=0|34=134|49=EXC|56=002|52=20190507-22:28:06.001|10=008|
8=FIX.4.4|9=61|35=0|34=134|49=002|50=002B35|52=20190507-22:28:07.243|56=EXC|10=145|
8=FIX.4.4|9=0051|35=0|34=135|49=EXC|56=002|52=20190507-22:28:36.000|10=011|
8=FIX.4.4|9=61|35=0|34=135|49=002|50=002B35|52=20190507-22:28:37.244|56=EXC|10=150|
8=FIX.4.4|9=0051|35=0|34=136|49=EXC|56=002|52=20190507-22:29:06.000|10=010|
8=FIX.4.4|9=61|35=0|34=136|49=002|50=002B35|52=20190507-22:29:07.243|56=EXC|10=148|
8=FIX.4.4|9=0051|35=0|34=137|49=EXC|56=002|52=20190507-22:29:36.000|10=014|
8=FIX.4.4|9=61|35=0|34=137|49=002|50=002B35|52=20190507-22:29:37.244|56=EXC|10=153|
8=FIX.4.4|9=0051|35=0|34=138|49=EXC|56=002|52=20190507-22:30:06.000|10=004|
8=FIX.4.4|9=61|35=0|34=138|49=002|50=002B35|52=20190507-22:30:07.245|56=EXC|10=144|
8=FIX.4.4|9=0051|35=0|34=139|49=EXC|56=002|52=20190507-22:30:36.000|10=008|
8=FIX.4.4|9=61|35=0|34=139|49=002|50=002B35|52=20190507-22:30:37.244|56=EXC|10=147|
8=FIX.4.4|9=0051|35=0|34=140|49=EXC|56=002|52=20190507-22:31:06.000|10=254|
8=FIX.4.4|9=61|35=0|34=140|49=002|50=002B35|52=20190507-22:31:07.243|56=EXC|10=136|
8=FIX.4.4|9=0051|35=0|34=141|49=EXC|56=002|52=20190507-22:31:36.000|10=002|
8=FIX.4.4|9=61|35=0|34=141|49=002|50=002B35|52=20190507-22:31:37.243|56=EXC|10=140|
8=FIX.4.4|9=0051|35=0|34=142|49=EXC|56=002|52=20190507-22:32:06.000|10=001|
8=FIX.4.4|9=61|35=0|34=142|49=002|50=002B35|52=20190507-22:32:07.243|56=EXC|10=139|
8=FIX.4.4|9=0051|35=0|34=143|49=EXC|56=002|52=20190507-22:32:36.000|10=005|
8=FIX.4.4|9=61|35=0|34=143|49=002|50=002B35|52=20190507-22:32:37.243|56=EXC|10=143|
8=FIX.4.4|9=0051|35=0|34=144|49=EXC|56=002|52=20190507-22:33:06.000|10=004|
8=FIX.4.4|9=61|35=0|34=144|49=002|50=002B35|52=20190507-22:33:07.244|56=EXC|10=143|
8=FIX.4.4|9=0051|35=0|34=145|49=EXC|56=002|52=20190507-22:33:36.000|10=008|
8=FIX.4.4|9=61|35=0|34=145|49=002|50=002B35|52=20190507-22:33:37.244|56=EXC|10=147|
8=FIX.4.4|9=0051|35=0|34=146|49=EXC|56=002|52=20190507-22:34:06.000|10=007|
8=FIX.4.4|9=61|35=0|34=146|49=002|50=002B35|52=20190507-22:34:07.243|56=EXC|10=145|
8=FIX.4.4|9=0051|35=0|34=147|49=EXC|56=002|52=20190507-22:34:36.000|10=011|
8=FIX.4.4|9=61|35=0|34=147|49=002|50=002B35|52=20190507-22:34:37.243|56=EXC|10=149|
8=FIX.4.4|9=0051|35=0|34=148|49=EXC|56=002|52=20190507-22:35:06.000|10=010|
8=FIX.4.4|9=61|35=0|34=148|49=002|50=002B35|52=20190507-22:35:07.244|56=EXC|10=149|
8=FIX.4.4|9=0051|35=0|34=149|49=EXC|56=002|52=20190507-22:35:36.000|10=014|
8=FIX.4.4|9=61|35=0|34=149|49=002|50=002B35|52=20190507-22:35:37.242|56=EXC|10=151|
8=FIX.4.4|9=0051|35=0|34=150|49=EXC|56=002|52=20190507-22:36:06.000|10=004|
8=FIX.4.4|9=61|35=0|34=150|49=002|50=002B35|52=20190507-22:36:07.243|56=EXC|10=142|
8=FIX.4.4|9=0051|35=0|34=151|49=EXC|56=002|52=20190507-22:36:36.000|10=008|
8=FIX.4.4|9=61|35=0|34=151|49=002|50=002B35|52=20190507-22:36:37.242|56=EXC|10=145|
8=FIX.4.4|9=0051|35=0|34=152|49=EXC|56=002|52=20190507-22:37:06.000|10=007|
8=FIX.4.4|9=61|35=0|34=152|49=002|50=002B35|52=20190507-22:37:07.243|56=EXC|10=145|
8=FIX.4.4|9=0051|35=0|34=153|49=EXC|56=002|52=20190507-22:37:36.000|10=011|
8=FIX.4.4|9=61|35=0|34=153|49=002|50=002B35|52=20190507-22:37:37.243|56=EXC|10=149|
8=FIX.4.4|9=0051|35=0|34=154|49=EXC|56=002|52=20190507-22:38:06.000|10=010|
8=FIX.4.4|9=61|35=0|34=154|49=002|50=002B35|52=20190507-22:38:07.244|56=EXC|10=149|
8=FIX.4.4|9=0051|35=0|34=155|49=EXC|56=002|52=20190507-22:38:36.000|10=014|
8=FIX.4.4|9=61|35=0|34=155|49=002|50=002B35|52=20190507-22:38:37.243|56=EXC|10=152|
8=FIX.4.4|9=0051|35=0|34=156|49=EXC|56=002|52=20190507-22:39:06.000|10=013|
8=FIX.4.4|9=61|35=0|34=156|49=002|50=002B35|52=20190507-22:39:07.242|56=EXC|10=150|
8=FIX.4.4|9=0051|35=0|34=157|49=EXC|56=002|52=20190507-22:39:36.000|10=017|
8=FIX.4.4|9=61|35=0|34=157|49=002|50=002B35|52=20190507-22:39:37.243|56=EXC|10=155|
8=FIX.4.4|9=0051|35=0|34=158|49=EXC|56=002|52=20190507-22:40:06.000|10=007|
8=FIX.4.4|9=61|35=0|34=158|49=002|50=002B35|52=20190507-22:40:07.242|56=EXC|10=144|
8=FIX.4.4|9=0051|35=0|34=159|49=EXC|56=002|52=20190507-22:40:36.000|10=011|
8=FIX.4.4|9=61|35=0|34=159|49=002|50=002B35|52=20190507-22:40:37.243|56=EXC|10=149|
8=FIX.4.4|9=0051|35=0|34=160|49=EXC|56=002|52=20190507-22:41:06.000|10=001|
8=FIX.4.4|9=61|35=0|34=160|49=002|50=002B35|52=20190507-22:41:07.243|56=EXC|10=139|
8=FIX.4.4|9=0051|35=0|34=161|49=EXC|56=002|52=20190507-22:41:36.000|10=005|
8=FIX.4.4|9=61|35=0|34=161|49=002|50=002B35|52=20190507-22:41:37.243|56=EXC|10=143|
8=FIX.4.4|9=0051|35=0|34=162|49=EXC|56=002|52=20190507-22:42:06.000|10=004|
8=FIX.4.4|9=61|35=0|34=162|49=002|50=002B35|52=20190507-22:42:07.243|56=EXC|10=142|
8=FIX.4.4|9=0051|35=0|34=163|49=EXC|56=002|52=20190507-22:42:36.000|10=008|
8=FIX.4.4|9=61|35=0|34=163|49=002|50=002B35|52=20190507-22:42:37.242|56=EXC|10=145|
8=FIX.4.4|9=0051|35=0|34=164|49=EXC|56=002|52=20190507-22:43:06.000|10=007|
8=FIX.4.4|9=61|35=0|34=164|49=002|50=002B35|52=20190507-22:43:07.243|56=EXC|10=145|
8=FIX.4.4|9=0051|35=0|34=165|49=EXC|56=002|52=20190507-22:43:36.000|10=011|
8=FIX.4.4|9=61|35=0|34=165|49=002|50=002B35|52=20190507-22:43:37.243|56=EXC|10=149|
8=FIX.4.4|9=0051|35=0|34=166|49=EXC|56=002|52=20190507-22:44:06.000|10=010|
8=FIX.4.4|9=61|35=0|34=166|49=002|50=002B35|52=20190507-22:44:07.241|56=EXC|10=146|
8=FIX.4.4|9=0051|35=0|34=167|49=EXC|56=002|52=20190507-22:44:36.000|10=014|
8=FIX.4.4|9=61|35=0|34=167|49=002|50=002B35|52=20190507-22:44:37.241|56=EXC|10=150|
8=FIX.4.4|9=0051|35=0|34=168|49=EXC|56=002|52=20190507-22:45:06.000|10=013|
8=FIX.4.4|9=61|35=0|34=168|49=002|50=002B35|52=20190507-22:45:07.241|56=EXC|10=149|
8=FIX.4.4|9=0051|35=0|34=169|49=EXC|56=002|52=20190507-22:45:36.000|10=017|
8=FIX.4.4|9=61|35=0|34=169|49=002|50=002B35|52=20190507-22:45:37.240|56=EXC|10=152|
8=FIX.4.4|9=0051|35=0|34=170|49=EXC|56=002|52=20190507-22:46:06.000|10=007|
8=FIX.4.4|9=61|35=0|34=170|49=002|50=002B35|52=20190507-22:46:07.240|56=EXC|10=142|
8=FIX.4.4|9=0051|35=0|34=171|49=EXC|56=002|52=20190507-22:46:36.000|10=011|
8=FIX.4.4|9=61|35=0|34=171|49=002|50=002B35|52=20190507-22:46:37.240|56=EXC|10=146|
8=FIX.4.4|9=0051|35=0|34=172|49=EXC|56=002|52=20190507-22:47:06.000|10=010|
8=FIX.4.4|9=61|35=0|34=172|49=002|50=002B35|52=20190507-22:47:07.240|56=EXC|10=145|
8=FIX.4.4|9=0051|35=0|34=173|49=EXC|56=002|52=20190507-22:47:36.000|10=014|
8=FIX.4.4|9=61|35=0|34=173|49=002|50=002B35|52=20190507-22:47:37.239|56=EXC|10=157|
8=FIX.4.4|9=0051|35=0|34=174|49=EXC|56=002|52=20190507-22:48:06.000|10=013|
8=FIX.4.4|9=61|35=0|34=174|49=002|50=002B35|52=20190507-22:48:07.239|56=EXC|10=156|
8=FIX.4.4|9=0051|35=0|34=175|49=EXC|56=002|52=20190507-22:48:36.000|10=017|
8=FIX.4.4|9=61|35=0|34=175|49=002|50=002B35|52=20190507-22:48:37.238|56=EXC|10=159|
8=FIX.4.4|9=0051|35=0|34=176|49=EXC|56=002|52=20190507-22:49:06.000|10=016|
8=FIX.4.4|9=61|35=0|34=176|49=002|50=002B35|52=20190507-22:49:07.239|56=EXC|10=159|
8=FIX.4.4|9=0051|35=0|34=177|49=EXC|56=002|52=20190507-22:49:36.000|10=020|
8=FIX.4.4|9=61|35=0|34=177|49=002|50=002B35|52=20190507-22:49:37.239|56=EXC|10=163|
8=FIX.4.4|9=0051|35=0|34=178|49=EXC|56=002|52=20190507-22:50:06.000|10=010|
8=FIX.4.4|9=61|35=0|34=178|49=002|50=002B35|52=20190507-22:50:07.237|56=EXC|10=151|
8=FIX.4.4|9=0051|35=0|34=179|49=EXC|56=002|52=20190507-22:50:36.000|10=014|
8=FIX.4.4|9=61|35=0|34=179|49=002|50=002B35|52=20190507-22:50:37.238|56=EXC|10=156|
8=FIX.4.4|9=0051|35=0|34=180|49=EXC|56=002|52=20190507-22:51:06.000|10=004|
8=FIX.4.4|9=61|35=0|34=180|49=002|50=002B35|52=20190507-22:51:07.238|56=EXC|10=146|
8=FIX.4.4|9=0051|35=0|34=181|49=EXC|56=002|52=20190507-22:51:36.000|10=008|
8=FIX.4.4|9=61|35=0|34=181|49=002|50=002B35|52=20190507-22:51:37.238|56=EXC|10=150|
8=FIX.4.4|9=0051|35=0|34=182|49=EXC|56=002|52=20190507-22:52:06.000|10=007|
8=FIX.4.4|9=61|35=0|34=182|49=002|50=002B35|52=20190507-22:52:07.238|56=EXC|10=149|
8=FIX.4.4|9=0051|35=0|34=183|49=EXC|56=002|52=20190507-22:52:36.000|10=011|
8=FIX.4.4|9=61|35=0|34=183|49=002|50=002B35|52=20190507-22:52:37.236|56=EXC|10=151|
8=FIX.4.4|9=0051|35=0|34=184|49=EXC|56=002|52=20190507-22:53:06.000|10=010|
8=FIX.4.4|9=61|35=0|34=184|49=002|50=002B35|52=20190507-22:53:07.237|56=EXC|10=151|
8=FIX.4.4|9=0051|35=0|34=185|49=EXC|56=002|52=20190507-22:53:36.000|10=014|
8=FIX.4.4|9=61|35=0|34=185|49=002|50=002B35|52=20190507-22:53:37.237|56=EXC|10=155|
8=FIX.4.4|9=0051|35=0|34=186|49=EXC|56=002|52=20190507-22:54:06.000|10=013|
8=FIX.4.4|9=61|35=0|34=186|49=002|50=002B35|52=20190507-22:54:07.237|56=EXC|10=154|
8=FIX.4.4|9=0051|35=0|34=187|49=EXC|56=002|52=20190507-22:54:36.000|10=017|
8=FIX.4.4|9=61|35=0|34=187|49=002|50=002B35|52=20190507-22:54:37.236|56=EXC|10=157|
8=FIX.4.4|9=0051|35=0|34=188|49=EXC|56=002|52=20190507-22:55:06.000|10=016|
8=FIX.4.4|9=61|35=0|34=188|49=002|50=002B35|52=20190507-22:55:07.236|56=EXC|10=156|
8=FIX.4.4|9=110|35=A|34=1|49=002|50=002B35|52=20190507-23:03:55.947|56=EXC|43=Y|98=0|108=30|141=Y|553=002FCM001|554=002FCM001|10=091|
8=FIX.4.4|9=0067|35=A|34=1|49=EXC|56=002|52=20190507-23:03:55.948|98=0|108=30|141=Y|10=017|
8=FIX.4.4|9=0049|35=0|34=2|49=EXC|56=002|52=20190507-23:04:25.000|10=164|
8=FIX.4.4|9=59|35=0|34=2|49=002|50=002B35|52=20190507-23:04:26.868|56=EXC|10=059|
8=FIX.4.4|9=0049|35=0|34=3|49=EXC|56=002|52=20190507-23:04:55.000|10=168|
8=FIX.4.4|9=59|35=0|34=3|49=002|50=002B35|52=20190507-23:04:56.868|56=EXC|10=063|
8=FIX.4.4|9=0049|35=0|34=4|49=EXC|56=002|52=20190507-23:05:25.000|10=167|
8=FIX.4.4|9=59|35=0|34=4|49=002|50=002B35|52=20190507-23:05:26.870|56=EXC|10=055|
8=FIX.4.4|9=0049|35=0|34=5|49=EXC|56=002|52=20190507-23:05:55.000|10=171|
8=FIX.4.4|9=59|35=0|34=5|49=002|50=002B35|52=20190507-23:05:56.868|56=EXC|10=066|
8=FIX.4.4|9=0049|35=0|34=6|49=EXC|56=002|52=20190507-23:06:25.000|10=170|
8=FIX.4.4|9=59|35=0|34=6|49=002|50=002B35|52=20190507-23:06:26.868|56=EXC|10=065|
8=FIX.4.4|9=0049|35=0|34=7|49=EXC|56=002|52=20190507-23:06:55.000|10=174|
8=FIX.4.4|9=59|35=0|34=7|49=002|50=002B35|52=20190507-23:06:56.868|56=EXC|10=069|
8=FIX.4.4|9=0049|35=0|34=8|49=EXC|56=002|52=20190507-23:07:25.000|10=173|
8=FIX.4.4|9=59|35=0|34=8|49=002|50=002B35|52=20190507-23:07:26.867|56=EXC|10=067|
8=FIX.4.4|9=0049|35=0|34=9|49=EXC|56=002|52=20190507-23:07:55.000|10=177|
8=FIX.4.4|9=59|35=0|34=9|49=002|50=002B35|52=20190507-23:07:56.869|56=EXC|10=073|
8=FIX.4.4|9=0050|35=0|34=10|49=EXC|56=002|52=20190507-23:08:25.000|10=207|
8=FIX.4.4|9=60|35=0|34=10|49=002|50=002B35|52=20190507-23:08:26.869|56=EXC|10=103|
8=FIX.4.4|9=0050|35=0|34=11|49=EXC|56=002|52=20190507-23:08:55.000|10=211|
8=FIX.4.4|9=60|35=0|34=11|49=002|50=002B35|52=20190507-23:08:56.868|56=EXC|10=106|
8=FIX.4.4|9=0050|35=0|34=12|49=EXC|56=002|52=20190507-23:09:25.000|10=210|
8=FIX.4.4|9=60|35=0|34=12|49=002|50=002B35|52=20190507-23:09:26.867|56=EXC|10=104|
8=FIX.4.4|9=110|35=A|34=1|49=002|50=002B35|52=20190507-23:09:40.870|56=EXC|43=Y|98=0|108=30|141=Y|553=002FCM001|554=002FCM001|10=086|
8=FIX.4.4|9=0067|35=A|34=1|49=EXC|56=002|52=20190507-23:09:40.868|98=0|108=30|141=Y|10=018|
8=FIX.4.4|9=0049|35=0|34=2|49=EXC|56=002|52=20190507-23:10:10.000|10=155|
8=FIX.4.4|9=59|35=0|34=2|49=002|50=002B35|52=20190507-23:10:11.789|56=EXC|10=052|
8=FIX.4.4|9=0049|35=0|34=3|49=EXC|56=002|52=20190507-23:10:40.000|10=159|
8=FIX.4.4|9=59|35=0|34=3|49=002|50=002B35|52=20190507-23:10:41.788|56=EXC|10=055|
8=FIX.4.4|9=0049|35=0|34=4|49=EXC|56=002|52=20190507-23:11:10.000|10=158|
8=FIX.4.4|9=59|35=0|34=4|49=002|50=002B35|52=20190507-23:11:11.789|56=EXC|10=055|
8=FIX.4.4|9=0049|35=0|34=5|49=EXC|56=002|52=20190507-23:11:40.000|10=162|
8=FIX.4.4|9=59|35=0|34=5|49=002|50=002B35|52=20190507-23:11:41.789|56=EXC|10=059|
8=FIX.4.4|9=0049|35=0|34=6|49=EXC|56=002|52=20190507-23:12:10.000|10=161|
8=FIX.4.4|9=59|35=0|34=6|49=002|50=002B35|52=20190507-23:12:11.788|56=EXC|10=057|
8=FIX.4.4|9=0049|35=0|34=7|49=EXC|56=002|52=20190507-23:12:40.000|10=165|
8=FIX.4.4|9=59|35=0|34=7|49=002|50=002B35|52=20190507-23:12:41.789|56=EXC|10=062|
8=FIX.4.4|9=0049|35=0|34=8|49=EXC|56=002|52=20190507-23:13:10.000|10=164|
8=FIX.4.4|9=59|35=0|34=8|49=002|50=002B35|52=20190507-23:13:11.788|56=EXC|10=060|
8=FIX.4.4|9=104|35=A|34=9|49=002|50=002B35|52=20190507-23:13:33.438|56=EXC|43=Y|98=0|108=30|553=002FCM001|554=002FCM001|10=049|
8=FIX.4.4|9=0061|35=A|34=9|49=EXC|56=002|52=20190507-23:13:33.430|98=0|108=30|10=213|
8=FIX.4.4|9=105|35=A|34=10|49=002|50=002B35|52=20190507-23:13:34.797|56=EXC|43=Y|98=0|108=30|553=002FCM001|554=002FCM001|10=099|
8=FIX.4.4|9=0062|35=A|34=10|49=EXC|56=002|52=20190507-23:13:34.788|98=0|108=30|10=015|
8=FIX.4.4|9=0050|35=0|34=11|49=EXC|56=002|52=20190507-23:14:04.000|10=202|
8=FIX.4.4|9=60|35=0|34=11|49=002|50=002B35|52=20190507-23:14:04.788|56=EXC|10=097|
8=FIX.4.4|9=110|35=A|34=1|49=002|50=002B35|52=20190507-23:23:36.754|56=EXC|43=Y|98=0|108=30|141=Y|553=002FCM001|554=002FCM001|10=088|
8=FIX.4.4|9=0067|35=A|34=1|49=EXC|56=002|52=20190507-23:23:36.751|98=0|108=30|141=Y|10=010|
8=FIX.4.4|9=0049|35=0|34=2|49=EXC|56=002|52=20190507-23:24:06.000|10=165|
8=FIX.4.4|9=59|35=0|34=2|49=002|50=002B35|52=20190507-23:24:07.666|56=EXC|10=056|
8=FIX.4.4|9=0049|35=0|34=3|49=EXC|56=002|52=20190507-23:24:36.000|10=169|
8=FIX.4.4|9=59|35=0|34=3|49=002|50=002B35|52=20190507-23:24:37.666|56=EXC|10=060|
8=FIX.4.4|9=0049|35=0|34=4|49=EXC|56=002|52=20190507-23:25:06.000|10=168|
8=FIX.4.4|9=59|35=0|34=4|49=002|50=002B35|52=20190507-23:25:07.665|56=EXC|10=058|
8=FIX.4.4|9=0049|35=0|34=5|49=EXC|56=002|52=20190507-23:25:36.000|10=172|
8=FIX.4.4|9=59|35=0|34=5|49=002|50=002B35|52=20190507-23:25:37.666|56=EXC|10=063|
8=FIX.4.4|9=0049|35=0|34=6|49=EXC|56=002|52=20190507-23:26:06.000|10=171|
8=FIX.4.4|9=59|35=0|34=6|49=002|50=002B35|52=20190507-23:26:07.666|56=EXC|10=062|
8=FIX.4.4|9=0049|35=0|34=7|49=EXC|56=002|52=20190507-23:26:36.000|10=175|
8=FIX.4.4|9=59|35=0|34=7|49=002|50=002B35|52=20190507-23:26:37.666|56=EXC|10=066|
8=FIX.4.4|9=0049|35=0|34=8|49=EXC|56=002|52=20190507-23:27:06.000|10=174|
8=FIX.4.4|9=59|35=0|34=8|49=002|50=002B35|52=20190507-23:27:07.665|56=EXC|10=064|
8=FIX.4.4|9=0049|35=0|34=9|49=EXC|56=002|52=20190507-23:27:36.000|10=178|
8=FIX.4.4|9=59|35=0|34=9|49=002|50=002B35|52=20190507-23:27:37.664|56=EXC|10=067|
8=FIX.4.4|9=0050|35=0|34=10|49=EXC|56=002|52=20190507-23:28:06.000|10=208|
8=FIX.4.4|9=60|35=0|34=10|49=002|50=002B35|52=20190507-23:28:07.665|56=EXC|10=098|
8=FIX.4.4|9=0050|35=0|34=11|49=EXC|56=002|52=20190507-23:28:36.000|10=212|
8=FIX.4.4|9=60|35=0|34=11|49=002|50=002B35|52=20190507-23:28:37.665|56=EXC|10=102|
8=FIX.4.4|9=0050|35=0|34=12|49=EXC|56=002|52=20190507-23:29:06.000|10=211|
8=FIX.4.4|9=60|35=0|34=12|49=002|50=002B35|52=20190507-23:29:07.666|56=EXC|10=102|
8=FIX.4.4|9=0050|35=0|34=13|49=EXC|56=002|52=20190507-23:29:36.000|10=215|
8=FIX.4.4|9=60|35=0|34=13|49=002|50=002B35|52=20190507-23:29:37.665|56=EXC|10=105|
8=FIX.4.4|9=0184|35=R|34=14|49=EXC|56=002|52=20190507-23:30:00.000|131=20190507-000000000001.00|146=1|55=TFIT16240724|762=RFQF|48=20392|22=M|54=1|38=0|453=2|448=001B27|447=C|452=12|448=001|447=C|452=1|10=076|
8=FIX.4.4|9=136|35=3|34=14|49=002|50=002B35|52=20190507-23:30:00.065|56=EXC|45=14|58=Out of order repeating group members, field=48|371=48|372=R|373=15|10=139|
8=FIX.4.4|9=0184|35=R|34=15|49=EXC|56=002|52=20190507-23:30:00.000|131=20190507-000000000002.00|146=1|55=TFIT16240724|762=RFQF|48=20392|22=M|54=1|38=0|453=2|448=001B27|447=C|452=12|448=001|447=C|452=1|10=078|
8=FIX.4.4|9=136|35=3|34=15|49=002|50=002B35|52=20190507-23:30:00.084|56=EXC|45=15|58=Out of order repeating group members, field=48|371=48|372=R|373=15|10=142|
8=FIX.4.4|9=0184|35=R|34=16|49=EXC|56=002|52=20190507-23:30:00.000|131=20190507-000000000003.00|146=1|55=TFIT16240724|762=RFQF|48=20392|22=M|54=1|38=0|453=2|448=001B27|447=C|452=12|448=001|447=C|452=1|10=080|
8=FIX.4.4|9=0218|35=R|34=17|49=EXC|56=002|57=002B35|52=20190507-23:30:00.000|131=20190507-000000000004.00|146=1|55=TFIT16240724|762=RFQF|48=20392|22=M|54=1|38=0|453=3|448=001B27|447=C|452=12|448=001|447=C|452=1|448=002B35|447=C|452=37|10=180|
8=FIX.4.4|9=0218|35=R|34=18|49=EXC|56=002|57=002B35|52=20190507-23:30:00.000|131=20190507-000000000005.00|146=1|55=TFIT16240724|762=RFQF|48=20392|22=M|54=1|38=0|453=3|448=001B27|447=C|452=12|448=001|447=C|452=1|448=002B35|447=C|452=37|10=182|
8=FIX.4.4|9=136|35=3|34=16|49=002|50=002B35|52=20190507-23:30:00.086|56=EXC|45=16|58=Out of order repeating group members, field=48|371=48|372=R|373=15|10=146|
8=FIX.4.4|9=0218|35=R|34=19|49=EXC|56=002|57=002B35|52=20190507-23:30:00.000|131=20190507-000000000006.00|146=1|55=TFIT16240724|762=RFQF|48=20392|22=M|54=1|38=0|453=3|448=001B27|447=C|452=12|448=001|447=C|452=1|448=002B35|447=C|452=37|10=184|
8=FIX.4.4|9=0218|35=R|34=20|49=EXC|56=002|57=002B35|52=20190507-23:30:00.000|131=20190507-000000000007.00|146=1|55=TFIT16240724|762=RFQF|48=20392|22=M|54=1|38=0|453=3|448=001B27|447=C|452=12|448=001|447=C|452=1|448=002B35|447=C|452=37|10=177|
8=FIX.4.4|9=0218|35=R|34=21|49=EXC|56=002|57=002B35|52=20190507-23:30:00.000|131=20190507-000000000008.00|146=1|55=TFIT16240724|762=RFQF|48=20392|22=M|54=1|38=0|453=3|448=001B27|447=C|452=12|448=001|447=C|452=1|448=002B35|447=C|452=37|10=179|
8=FIX.4.4|9=0218|35=R|34=22|49=EXC|56=002|57=002B35|52=20190507-23:30:00.000|131=20190507-000000000009.00|146=1|55=TFIT16240724|762=RFQF|48=20392|22=M|54=1|38=0|453=3|448=001B27|447=C|452=12|448=001|447=C|452=1|448=002B35|447=C|452=37|10=181|
8=FIX.4.4|9=136|35=3|34=17|49=002|50=002B35|52=20190507-23:30:00.087|56=EXC|45=17|58=Out of order repeating group members, field=48|371=48|372=R|373=15|10=149|
8=FIX.4.4|9=0218|35=R|34=23|49=EXC|56=002|57=002B35|52=20190507-23:30:00.000|131=20190507-000000000010.00|146=1|55=TFIT16240724|762=RFQF|48=20392|22=M|54=1|38=0|453=3|448=001B27|447=C|452=12|448=001|447=C|452=1|448=002B35|447=C|452=37|10=174|
8=FIX.4.4|9=0218|35=R|34=24|49=EXC|56=002|57=002B35|52=20190507-23:30:00.000|131=20190507-000000000011.00|146=1|55=TFIT16240724|762=RFQF|48=20392|22=M|54=1|38=0|453=3|448=001B27|447=C|452=12|448=001|447=C|452=1|448=002B35|447=C|452=37|10=176|
8=FIX.4.4|9=0218|35=R|34=25|49=EXC|56=002|57=002B35|52=20190507-23:30:00.000|131=20190507-000000000012.00|146=1|55=TFIT16240724|762=RFQF|48=20392|22=M|54=1|38=0|453=3|448=001B27|447=C|452=12|448=001|447=C|452=1|448=002B35|447=C|452=37|10=178|
8=FIX.4.4|9=0218|35=R|34=26|49=EXC|56=002|57=002B35|52=20190507-23:30:00.000|131=20190507-000000000013.00|146=1|55=TFIT16240724|762=RFQF|48=20392|22=M|54=1|38=0|453=3|448=001B27|447=C|452=12|448=001|447=C|452=1|448=002B35|447=C|452=37|10=180|
8=FIX.4.4|9=136|35=3|34=18|49=002|50=002B35|52=20190507-23:30:00.088|56=EXC|45=18|58=Out of order repeating group members, field=48|371=48|372=R|373=15|10=152|
8=FIX.4.4|9=0218|35=R|34=27|49=EXC|56=002|57=002B35|52=20190507-23:30:00.000|131=20190507-000000000014.00|146=1|55=TFIT16240724|762=RFQF|48=20392|22=M|54=1|38=0|453=3|448=001B27|447=C|452=12|448=001|447=C|452=1|448=002B35|447=C|452=37|10=182|
8=FIX.4.4|9=0218|35=R|34=28|49=EXC|56=002|57=002B35|52=20190507-23:30:00.000|131=20190507-000000000015.00|146=1|55=TFIT16240724|762=RFQF|48=20392|22=M|54=1|38=0|453=3|448=001B27|447=C|452=12|448=001|447=C|452=1|448=002B35|447=C|452=37|10=184|
8=FIX.4.4|9=0218|35=R|34=29|49=EXC|56=002|57=002B35|52=20190507-23:30:00.000|131=20190507-000000000016.00|146=1|55=TFIT16240724|762=RFQF|48=20392|22=M|54=1|38=0|453=3|448=001B27|447=C|452=12|448=001|447=C|452=1|448=002B35|447=C|452=37|10=186|
8=FIX.4.4|9=0218|35=R|34=30|49=EXC|56=002|57=002B35|52=20190507-23:30:00.000|131=20190507-000000000017.00|146=1|55=TFIT16240724|762=RFQF|48=20392|22=M|54=1|38=0|453=3|448=001B27|447=C|452=12|448=001|447=C|452=1|448=002B35|447=C|452=37|10=179|
8=FIX.4.4|9=0218|35=R|34=31|49=EXC|56=002|57=002B35|52=20190507-23:30:00.000|131=20190507-000000000018.00|146=1|55=TFIT16240724|762=RFQF|48=20392|22=M|54=1|38=0|453=3|448=001B27|447=C|452=12|448=001|447=C|452=1|448=002B35|447=C|452=37|10=181|
8=FIX.4.4|9=136|35=3|34=19|49=002|50=002B35|52=20190507-23:30:00.089|56=EXC|45=19|58=Out of order repeating group members, field=48|371=48|372=R|373=15|10=155|
8=FIX.4.4|9=0218|35=R|34=32|49=EXC|56=002|57=002B35|52=20190507-23:30:00.000|131=20190507-000000000019.00|146=1|55=TFIT16240724|762=RFQF|48=20392|22=M|54=1|38=0|453=3|448=001B27|447=C|452=12|448=001|447=C|452=1|448=002B35|447=C|452=37|10=183|
8=FIX.4.4|9=0218|35=R|34=33|49=EXC|56=002|57=002B35|52=20190507-23:30:00.000|131=20190507-000000000020.00|146=1|55=TFIT16240724|762=RFQF|48=20392|22=M|54=1|38=0|453=3|448=001B27|447=C|452=12|448=001|447=C|452=1|448=002B35|447=C|452=37|10=176|
8=FIX.4.4|9=0218|35=R|34=34|49=EXC|56=002|57=002B35|52=20190507-23:30:00.000|131=20190507-000000000021.00|146=1|55=TFIT16240724|762=RFQF|48=20392|22=M|54=1|38=0|453=3|448=001B27|447=C|452=12|448=001|447=C|452=1|448=002B35|447=C|452=37|10=178|
8=FIX.4.4|9=0218|35=R|34=35|49=EXC|56=002|57=002B35|52=20190507-23:30:00.000|131=20190507-000000000022.00|146=1|55=TFIT16240724|762=RFQF|48=20392|22=M|54=1|38=0|453=3|448=001B27|447=C|452=12|448=001|447=C|452=1|448=002B35|447=C|452=37|10=180|
8=FIX.4.4|9=0218|35=R|34=36|49=EXC|56=002|57=002B35|52=20190507-23:30:00.000|131=20190507-000000000023.00|146=1|55=TFIT16240724|762=RFQF|48=20392|22=M|54=1|38=0|453=3|448=001B27|447=C|452=12|448=001|447=C|452=1|448=002B35|447=C|452=37|10=182|
8=FIX.4.4|9=0218|35=R|34=37|49=EXC|56=002|57=002B35|52=20190507-23:30:00.000|131=20190507-000000000024.00|146=1|55=TFIT16240724|762=RFQF|48=20392|22=M|54=1|38=0|453=3|448=001B27|447=C|452=12|448=001|447=C|452=1|448=002B35|447=C|452=37|10=184|
8=FIX.4.4|9=0218|35=R|34=38|49=EXC|56=002|57=002B35|52=20190507-23:30:00.000|131=20190507-000000000025.00|146=1|55=TFIT16240724|762=RFQF|48=20392|22=M|54=1|38=0|453=3|448=001B27|447=C|452=12|448=001|447=C|452=1|448=002B35|447=C|452=37|10=186|
8=FIX.4.4|9=0218|35=R|34=39|49=EXC|56=002|57=002B35|52=20190507-23:30:00.000|131=20190507-000000000026.00|146=1|55=TFIT16240724|762=RFQF|48=20392|22=M|54=1|38=0|453=3|448=001B27|447=C|452=12|448=001|447=C|452=1|448=002B35|447=C|452=37|10=188|
8=FIX.4.4|9=136|35=3|34=20|49=002|50=002B35|52=20190507-23:30:00.090|56=EXC|45=20|58=Out of order repeating group members, field=48|371=48|372=R|373=15|10=131|
8=FIX.4.4|9=136|35=3|34=21|49=002|50=002B35|52=20190507-23:30:00.091|56=EXC|45=21|58=Out of order repeating group members, field=48|371=48|372=R|373=15|10=134|
8=FIX.4.4|9=136|35=3|34=22|49=002|50=002B35|52=20190507-23:30:00.092|56=EXC|45=22|58=Out of order repeating group members, field=48|371=48|372=R|373=15|10=137|
8=FIX.4.4|9=136|35=3|34=23|49=002|50=002B35|52=20190507-23:30:00.093|56=EXC|45=23|58=Out of order repeating group members, field=48|371=48|372=R|373=15|10=140|
8=FIX.4.4|9=136|35=3|34=24|49=002|50=002B35|52=20190507-23:30:00.094|56=EXC|45=24|58=Out of order repeating group members, field=48|371=48|372=R|373=15|10=143|
8=FIX.4.4|9=136|35=3|34=25|49=002|50=002B35|52=20190507-23:30:00.095|56=EXC|45=25|58=Out of order repeating group members, field=48|371=48|372=R|373=15|10=146|
8=FIX.4.4|9=136|35=3|34=26|49=002|50=002B35|52=20190507-23:30:00.096|56=EXC|45=26|58=Out of order repeating group members, field=48|371=48|372=R|373=15|10=149|
8=FIX.4.4|9=136|35=3|34=27|49=002|50=002B35|52=20190507-23:30:00.097|56=EXC|45=27|58=Out of order repeating group members, field=48|371=48|372=R|373=15|10=152|
8=FIX.4.4|9=136|35=3|34=28|49=002|50=002B35|52=20190507-23:30:00.098|56=EXC|45=28|58=Out of order repeating group members, field=48|371=48|372=R|373=15|10=155|
8=FIX.4.4|9=136|35=3|34=29|49=002|50=002B35|52=20190507-23:30:00.099|56=EXC|45=29|58=Out of order repeating group members, field=48|371=48|372=R|373=15|10=158|
8=FIX.4.4|9=136|35=3|34=30|49=002|50=002B35|52=20190507-23:30:00.100|56=EXC|45=30|58=Out of order repeating group members, field=48|371=48|372=R|373=15|10=125|
8=FIX.4.4|9=136|35=3|34=31|49=002|50=002B35|52=20190507-23:30:00.101|56=EXC|45=31|58=Out of order repeating group members, field=48|371=48|372=R|373=15|10=128|
8=FIX.4.4|9=136|35=3|34=32|49=002|50=002B35|52=20190507-23:30:00.102|56=EXC|45=32|58=Out of order repeating group members, field=48|371=48|372=R|373=15|10=131|
8=FIX.4.4|9=136|35=3|34=33|49=002|50=002B35|52=20190507-23:30:00.103|56=EXC|45=33|58=Out of order repeating group members, field=48|371=48|372=R|373=15|10=134|
8=FIX.4.4|9=136|35=3|34=34|49=002|50=002B35|52=20190507-23:30:00.104|56=EXC|45=34|58=Out of order repeating group members, field=48|371=48|372=R|373=15|10=137|
8=FIX.4.4|9=136|35=3|34=35|49=002|50=002B35|52=20190507-23:30:00.106|56=EXC|45=35|58=Out of order repeating group members, field=48|371=48|372=R|373=15|10=141|
8=FIX.4.4|9=136|35=3|34=36|49=002|50=002B35|52=20190507-23:30:00.109|56=EXC|45=36|58=Out of order repeating group members, field=48|371=48|372=R|373=15|10=146|
8=FIX.4.4|9=136|35=3|34=37|49=002|50=002B35|52=20190507-23:30:00.117|56=EXC|45=37|58=Out of order repeating group members, field=48|371=48|372=R|373=15|10=147|
8=FIX.4.4|9=136|35=3|34=38|49=002|50=002B35|52=20190507-23:30:00.118|56=EXC|45=38|58=Out of order repeating group members, field=48|371=48|372=R|373=15|10=150|
8=FIX.4.4|9=136|35=3|34=39|49=002|50=002B35|52=20190507-23:30:00.124|56=EXC|45=39|58=Out of order repeating group members, field=48|371=48|372=R|373=15|10=149|
8=FIX.4.4|9=69|35=1|34=40|49=002|50=002B35|52=20190507-23:30:21.665|56=EXC|112=TEST|10=118|
8=FIX.4.4|9=0059|35=0|34=40|49=EXC|56=002|52=20190507-23:30:21.653|112=TEST|10=242|
8=FIX.4.4|9=0050|35=0|34=41|49=EXC|56=002|52=20190507-23:30:51.000|10=205|
8=FIX.4.4|9=60|35=0|34=41|49=002|50=002B35|52=20190507-23:30:51.664|56=EXC|10=093|
8=FIX.4.4|9=0050|35=0|34=42|49=EXC|56=002|52=20190507-23:31:21.000|10=204|
8=FIX.4.4|9=60|35=0|34=42|49=002|50=002B35|52=20190507-23:31:21.666|56=EXC|10=094|
8=FIX.4.4|9=0050|35=0|34=43|49=EXC|56=002|52=20190507-23:31:51.000|10=208|
8=FIX.4.4|9=60|35=0|34=43|49=002|50=002B35|52=20190507-23:31:51.664|56=EXC|10=096|
8=FIX.4.4|9=0050|35=0|34=44|49=EXC|56=002|52=20190507-23:32:21.000|10=207|
8=FIX.4.4|9=60|35=0|34=44|49=002|50=002B35|52=20190507-23:32:21.664|56=EXC|10=095|
8=FIX.4.4|9=110|35=A|34=1|49=002|50=002B35|52=20190507-23:32:41.888|56=EXC|43=Y|98=0|108=30|141=Y|553=002FCM001|554=002FCM001|10=092|
8=FIX.4.4|9=0067|35=A|34=1|49=EXC|56=002|52=20190507-23:32:41.885|98=0|108=30|141=Y|10=014|
8=FIX.4.4|9=0049|35=0|34=2|49=EXC|56=002|52=20190507-23:33:11.000|10=161|
8=FIX.4.4|9=59|35=0|34=2|49=002|50=002B35|52=20190507-23:33:12.790|56=EXC|10=050|
8=FIX.4.4|9=0049|35=0|34=3|49=EXC|56=002|52=20190507-23:33:41.000|10=165|
8=FIX.4.4|9=59|35=0|34=3|49=002|50=002B35|52=20190507-23:33:42.790|56=EXC|10=054|
8=FIX.4.4|9=110|35=A|34=1|49=002|50=002B35|52=20190507-23:33:48.838|56=EXC|43=Y|98=0|108=30|141=Y|553=002FCM001|554=002FCM001|10=095|
8=FIX.4.4|9=0067|35=A|34=1|49=EXC|56=002|52=20190507-23:33:48.858|98=0|108=30|141=Y|10=022|
8=FIX.4.4|9=0049|35=0|34=2|49=EXC|56=002|52=20190507-23:34:18.000|10=169|
8=FIX.4.4|9=59|35=0|34=2|49=002|50=002B35|52=20190507-23:34:19.733|56=EXC|10=055|
8=FIX.4.4|9=0049|35=0|34=3|49=EXC|56=002|52=20190507-23:34:48.000|10=173|
8=FIX.4.4|9=59|35=0|34=3|49=002|50=002B35|52=20190507-23:34:49.734|56=EXC|10=060|
8=FIX.4.4|9=0049|35=0|34=4|49=EXC|56=002|52=20190507-23:35:18.000|10=172|
8=FIX.4.4|9=59|35=0|34=4|49=002|50=002B35|52=20190507-23:35:19.734|56=EXC|10=059|
8=FIX.4.4|9=0049|35=0|34=5|49=EXC|56=002|52=20190507-23:35:48.000|10=176|
8=FIX.4.4|9=59|35=0|34=5|49=002|50=002B35|52=20190507-23:35:49.735|56=EXC|10=064|
8=FIX.4.4|9=0049|35=0|34=6|49=EXC|56=002|52=20190507-23:36:18.000|10=175|
8=FIX.4.4|9=59|35=0|34=6|49=002|50=002B35|52=20190507-23:36:19.733|56=EXC|10=061|
8=FIX.4.4|9=0049|35=0|34=7|49=EXC|56=002|52=20190507-23:36:48.000|10=179|
8=FIX.4.4|9=59|35=0|34=7|49=002|50=002B35|52=20190507-23:36:49.734|56=EXC|10=066|
8=FIX.4.4|9=0049|35=0|34=8|49=EXC|56=002|52=20190507-23:37:18.000|10=178|
8=FIX.4.4|9=59|35=0|34=8|49=002|50=002B35|52=20190507-23:37:19.734|56=EXC|10=065|
8=FIX.4.4|9=0049|35=0|34=9|49=EXC|56=002|52=20190507-23:37:48.000|10=182|
8=FIX.4.4|9=59|35=0|34=9|49=002|50=002B35|52=20190507-23:37:49.734|56=EXC|10=069|
8=FIX.4.4|9=0050|35=0|34=10|49=EXC|56=002|52=20190507-23:38:18.000|10=212|
8=FIX.4.4|9=60|35=0|34=10|49=002|50=002B35|52=20190507-23:38:19.735|56=EXC|10=100|
8=FIX.4.4|9=110|35=A|34=1|49=002|50=002B35|52=20190507-23:38:51.196|56=EXC|43=Y|98=0|108=30|141=Y|553=002FCM001|554=002FCM001|10=091|
8=FIX.4.4|9=0067|35=A|34=1|49=EXC|56=002|52=20190507-23:38:51.192|98=0|108=30|141=Y|10=012|
8=FIX.4.4|9=0049|35=0|34=2|49=EXC|56=002|52=20190507-23:39:21.000|10=168|
8=FIX.4.4|9=59|35=0|34=2|49=002|50=002B35|52=20190507-23:39:22.128|56=EXC|10=052|
8=FIX.4.4|9=0049|35=0|34=3|49=EXC|56=002|52=20190507-23:39:51.000|10=172|
8=FIX.4.4|9=59|35=0|34=3|49=002|50=002B35|52=20190507-23:39:52.129|56=EXC|10=057|
8=FIX.4.4|9=110|35=A|34=1|49=002|50=002B35|52=20190507-23:42:40.843|56=EXC|43=Y|98=0|108=30|141=Y|553=002FCM001|554=002FCM001|10=083|
8=FIX.4.4|9=0067|35=A|34=1|49=EXC|56=002|52=20190507-23:42:40.840|98=0|108=30|141=Y|10=005|
8=FIX.4.4|9=0049|35=0|34=2|49=EXC|56=002|52=20190507-23:43:10.000|10=161|
8=FIX.4.4|9=59|35=0|34=2|49=002|50=002B35|52=20190507-23:43:11.803|56=EXC|10=045|
8=FIX.4.4|9=110|35=A|34=1|49=002|50=002B35|52=20190507-23:43:40.977|56=EXC|43=Y|98=0|108=30|141=Y|553=002FCM001|554=002FCM001|10=092|
8=FIX.4.4|9=0067|35=A|34=1|49=EXC|56=002|52=20190507-23:43:40.973|98=0|108=30|141=Y|10=013|
8=FIX.4.4|9=0049|35=0|34=2|49=EXC|56=002|52=20190507-23:44:10.000|10=162|
8=FIX.4.4|9=59|35=0|34=2|49=002|50=002B35|52=20190507-23:44:11.892|56=EXC|10=054|
8=FIX.4.4|9=0049|35=0|34=3|49=EXC|56=002|52=20190507-23:44:40.000|10=166|
8=FIX.4.4|9=59|35=0|34=3|49=002|50=002B35|52=20190507-23:44:41.891|56=EXC|10=057|
8=FIX.4.4|9=0049|35=0|34=4|49=EXC|56=002|52=20190507-23:45:10.000|10=165|
8=FIX.4.4|9=59|35=0|34=4|49=002|50=002B35|52=20190507-23:45:11.893|56=EXC|10=058|
8=FIX.4.4|9=0049|35=0|34=5|49=EXC|56=002|52=20190507-23:45:40.000|10=169|
8=FIX.4.4|9=59|35=0|34=5|49=002|50=002B35|52=20190507-23:45:41.893|56=EXC|10=062|
8=FIX.4.4|9=0049|35=0|34=6|49=EXC|56=002|52=20190507-23:46:10.000|10=168|
8=FIX.4.4|9=59|35=0|34=6|49=002|50=002B35|52=20190507-23:46:11.893|56=EXC|10=061|
8=FIX.4.4|9=0049|35=0|34=7|49=EXC|56=002|52=20190507-23:46:40.000|10=172|
8=FIX.4.4|9=59|35=0|34=7|49=002|50=002B35|52=20190507-23:46:41.892|56=EXC|10=064|
8=FIX.4.4|9=0049|35=0|34=8|49=EXC|56=002|52=20190507-23:47:10.000|10=171|
8=FIX.4.4|9=59|35=0|34=8|49=002|50=002B35|52=20190507-23:47:11.891|56=EXC|10=062|
8=FIX.4.4|9=0049|35=0|34=9|49=EXC|56=002|52=20190507-23:47:40.000|10=175|
8=FIX.4.4|9=59|35=0|34=9|49=002|50=002B35|52=20190507-23:47:41.891|56=EXC|10=066|
8=FIX.4.4|9=0050|35=0|34=10|49=EXC|56=002|52=20190507-23:48:10.000|10=205|
8=FIX.4.4|9=60|35=0|34=10|49=002|50=002B35|52=20190507-23:48:11.892|56=EXC|10=097|
8=FIX.4.4|9=0050|35=0|34=11|49=EXC|56=002|52=20190507-23:48:40.000|10=209|
8=FIX.4.4|9=60|35=0|34=11|49=002|50=002B35|52=20190507-23:48:41.892|56=EXC|10=101|
8=FIX.4.4|9=0050|35=0|34=12|49=EXC|56=002|52=20190507-23:49:10.000|10=208|
8=FIX.4.4|9=60|35=0|34=12|49=002|50=002B35|52=20190507-23:49:11.893|56=EXC|10=101|
8=FIX.4.4|9=0050|35=0|34=13|49=EXC|56=002|52=20190507-23:49:40.000|10=212|
8=FIX.4.4|9=60|35=0|34=13|49=002|50=002B35|52=20190507-23:49:41.892|56=EXC|10=104|
8=FIX.4.4|9=0050|35=0|34=14|49=EXC|56=002|52=20190507-23:50:10.000|10=202|
8=FIX.4.4|9=60|35=0|34=14|49=002|50=002B35|52=20190507-23:50:11.891|56=EXC|10=093|
8=FIX.4.4|9=0050|35=0|34=15|49=EXC|56=002|52=20190507-23:50:40.000|10=206|
8=FIX.4.4|9=60|35=0|34=15|49=002|50=002B35|52=20190507-23:50:41.891|56=EXC|10=097|
8=FIX.4.4|9=0050|35=0|34=16|49=EXC|56=002|52=20190507-23:51:10.000|10=205|
8=FIX.4.4|9=60|35=0|34=16|49=002|50=002B35|52=20190507-23:51:11.892|56=EXC|10=097|
8=FIX.4.4|9=0050|35=0|34=17|49=EXC|56=002|52=20190507-23:51:40.000|10=209|
8=FIX.4.4|9=60|35=0|34=17|49=002|50=002B35|52=20190507-23:51:41.892|56=EXC|10=101|
8=FIX.4.4|9=0050|35=0|34=18|49=EXC|56=002|52=20190507-23:52:10.000|10=208|
8=FIX.4.4|9=60|35=0|34=18|49=002|50=002B35|52=20190507-23:52:11.893|56=EXC|10=101|
8=FIX.4.4|9=0050|35=0|34=19|49=EXC|56=002|52=20190507-23:52:40.000|10=212|
8=FIX.4.4|9=110|35=A|34=1|49=002|50=002B35|52=20190507-23:52:47.005|56=EXC|43=Y|98=0|108=30|141=Y|553=002FCM001|554=002FCM001|10=081|
8=FIX.4.4|9=0067|35=A|34=1|49=EXC|56=002|52=20190507-23:52:46.999|98=0|108=30|141=Y|10=027|
8=FIX.4.4|9=0049|35=0|34=2|49=EXC|56=002|52=20190507-23:53:16.000|10=168|
8=FIX.4.4|9=59|35=0|34=2|49=002|50=002B35|52=20190507-23:53:17.942|56=EXC|10=056|
8=FIX.4.4|9=0049|35=0|34=3|49=EXC|56=002|52=20190507-23:53:46.000|10=172|
8=FIX.4.4|9=59|35=0|34=3|49=002|50=002B35|52=20190507-23:53:47.943|56=EXC|10=061|
8=FIX.4.4|9=0049|35=0|34=4|49=EXC|56=002|52=20190507-23:54:16.000|10=171|
8=FIX.4.4|9=59|35=0|34=4|49=002|50=002B35|52=20190507-23:54:17.943|56=EXC|10=060|
8=FIX.4.4|9=0049|35=0|34=5|49=EXC|56=002|52=20190507-23:54:46.000|10=175|
8=FIX.4.4|9=59|35=0|34=5|49=002|50=002B35|52=20190507-23:54:47.942|56=EXC|10=063|
8=FIX.4.4|9=0049|35=0|34=6|49=EXC|56=002|52=20190507-23:55:16.000|10=174|
8=FIX.4.4|9=59|35=0|34=6|49=002|50=002B35|52=20190507-23:55:17.942|56=EXC|10=062|
8=FIX.4.4|9=0049|35=0|34=7|49=EXC|56=002|52=20190507-23:55:46.000|10=178|
8=FIX.4.4|9=59|35=0|34=7|49=002|50=002B35|52=20190507-23:55:47.942|56=EXC|10=066|
8=FIX.4.4|9=110|35=A|34=1|49=002|50=002B35|52=20190507-23:59:24.690|56=EXC|43=Y|98=0|108=30|141=Y|553=002FCM001|554=002FCM001|10=093|
8=FIX.4.4|9=0067|35=A|34=1|49=EXC|56=002|52=20190507-23:59:24.683|98=0|108=30|141=Y|10=020|
8=FIX.4.4|9=110|35=A|34=1|49=002|50=002B35|52=20190508-00:00:09.680|56=EXC|43=Y|98=0|108=30|141=Y|553=002FCM001|554=002FCM001|10=077|
8=FIX.4.4|9=0067|35=A|34=1|49=EXC|56=002|52=20190508-00:00:09.673|98=0|108=30|141=Y|10=004|
8=FIX.4.4|9=0049|35=0|34=2|49=EXC|56=002|52=20190508-00:00:39.000|10=161|
8=FIX.4.4|9=59|35=0|34=2|49=002|50=002B35|52=20190508-00:00:40.610|56=EXC|10=032|
8=FIX.4.4|9=0049|35=0|34=3|49=EXC|56=002|52=20190508-00:01:09.000|10=160|
8=FIX.4.4|9=59|35=0|34=3|49=002|50=002B35|52=20190508-00:01:10.610|56=EXC|10=031|
8=FIX.4.4|9=0049|35=0|34=4|49=EXC|56=002|52=20190508-00:01:39.000|10=164|
8=FIX.4.4|9=59|35=0|34=4|49=002|50=002B35|52=20190508-00:01:40.611|56=EXC|10=036|
8=FIX.4.4|9=0049|35=0|34=5|49=EXC|56=002|52=20190508-00:02:09.000|10=163|
8=FIX.4.4|9=59|35=0|34=5|49=002|50=002B35|52=20190508-00:02:10.610|56=EXC|10=034|
8=FIX.4.4|9=0049|35=0|34=6|49=EXC|56=002|52=20190508-00:02:39.000|10=167|
8=FIX.4.4|9=59|35=0|34=6|49=002|50=002B35|52=20190508-00:02:40.610|56=EXC|10=038|
8=FIX.4.4|9=0049|35=0|34=7|49=EXC|56=002|52=20190508-00:03:09.000|10=166|
8=FIX.4.4|9=59|35=0|34=7|49=002|50=002B35|52=20190508-00:03:10.611|56=EXC|10=038|
8=FIX.4.4|9=0049|35=0|34=8|49=EXC|56=002|52=20190508-00:03:39.000|10=170|
8=FIX.4.4|9=59|35=0|34=8|49=002|50=002B35|52=20190508-00:03:40.611|56=EXC|10=042|
8=FIX.4.4|9=0049|35=0|34=9|49=EXC|56=002|52=20190508-00:04:09.000|10=169|
8=FIX.4.4|9=59|35=0|34=9|49=002|50=002B35|52=20190508-00:04:10.611|56=EXC|10=041|
8=FIX.4.4|9=110|35=A|34=1|49=002|50=002B35|52=20190508-00:15:49.125|56=EXC|43=Y|98=0|108=30|141=Y|553=002FCM001|554=002FCM001|10=081|
8=FIX.4.4|9=0067|35=A|34=1|49=EXC|56=002|52=20190508-00:15:49.116|98=0|108=30|141=Y|10=006|
8=FIX.4.4|9=0049|35=0|34=2|49=EXC|56=002|52=20190508-00:16:19.000|10=166|
8=FIX.4.4|9=59|35=0|34=2|49=002|50=002B35|52=20190508-00:16:20.039|56=EXC|10=042|
8=FIX.4.4|9=110|35=A|34=1|49=002|50=002B35|52=20190508-00:20:04.201|56=EXC|43=Y|98=0|108=30|141=Y|553=002FCM001|554=002FCM001|10=063|
8=FIX.4.4|9=0067|35=A|34=1|49=EXC|56=002|52=20190508-00:20:03.933|98=0|108=30|141=Y|10=255|
8=FIX.4.4|9=0049|35=0|34=2|49=EXC|56=002|52=20190508-00:20:33.000|10=157|
8=FIX.4.4|9=59|35=0|34=2|49=002|50=002B35|52=20190508-00:20:35.111|56=EXC|10=034|
8=FIX.4.4|9=0049|35=0|34=3|49=EXC|56=002|52=20190508-00:21:03.000|10=156|
8=FIX.4.4|9=59|35=0|34=3|49=002|50=002B35|52=20190508-00:21:05.112|56=EXC|10=034|
8=FIX.4.4|9=0049|35=0|34=4|49=EXC|56=002|52=20190508-00:21:33.000|10=160|
8=FIX.4.4|9=59|35=0|34=4|49=002|50=002B35|52=20190508-00:21:35.111|56=EXC|10=037|
8=FIX.4.4|9=110|35=A|34=1|49=002|50=002B35|52=20190508-00:22:13.178|56=EXC|43=Y|98=0|108=30|141=Y|553=002FCM001|554=002FCM001|10=078|
8=FIX.4.4|9=0067|35=A|34=1|49=EXC|56=002|52=20190508-00:22:12.894|98=0|108=30|141=Y|10=007|
8=FIX.4.4|9=0049|35=0|34=2|49=EXC|56=002|52=20190508-00:22:42.000|10=159|
8=FIX.4.4|9=59|35=0|34=2|49=002|50=002B35|52=20190508-00:22:44.092|56=EXC|10=044|
8=FIX.4.4|9=0049|35=0|34=3|49=EXC|56=002|52=20190508-00:23:12.000|10=158|
8=FIX.4.4|9=59|35=0|34=3|49=002|50=002B35|52=20190508-00:23:14.092|56=EXC|10=043|
8=FIX.4.4|9=0049|35=0|34=4|49=EXC|56=002|52=20190508-00:23:42.000|10=162|
8=FIX.4.4|9=59|35=0|34=4|49=002|50=002B35|52=20190508-00:23:44.090|56=EXC|10=045|
8=FIX.4.4|9=0049|35=0|34=5|49=EXC|56=002|52=20190508-00:24:12.000|10=161|
8=FIX.4.4|9=59|35=0|34=5|49=002|50=002B35|52=20190508-00:24:14.091|56=EXC|10=045|
8=FIX.4.4|9=0049|35=0|34=6|49=EXC|56=002|52=20190508-00:24:42.000|10=165|
8=FIX.4.4|9=59|35=0|34=6|49=002|50=002B35|52=20190508-00:24:44.091|56=EXC|10=049|
8=FIX.4.4|9=0049|35=0|34=7|49=EXC|56=002|52=20190508-00:25:12.000|10=164|
8=FIX.4.4|9=59|35=0|34=7|49=002|50=002B35|52=20190508-00:25:14.091|56=EXC|10=048|
8=FIX.4.4|9=0049|35=0|34=8|49=EXC|56=002|52=20190508-00:25:42.000|10=168|
8=FIX.4.4|9=59|35=0|34=8|49=002|50=002B35|52=20190508-00:25:44.090|56=EXC|10=051|
8=FIX.4.4|9=0049|35=0|34=9|49=EXC|56=002|52=20190508-00:26:12.000|10=167|
8=FIX.4.4|9=59|35=0|34=9|49=002|50=002B35|52=20190508-00:26:14.091|56=EXC|10=051|
8=FIX.4.4|9=0050|35=0|34=10|49=EXC|56=002|52=20190508-00:26:42.000|10=202|
8=FIX.4.4|9=60|35=0|34=10|49=002|50=002B35|52=20190508-00:26:44.092|56=EXC|10=087|
8=FIX.4.4|9=0050|35=0|34=11|49=EXC|56=002|52=20190508-00:27:12.000|10=201|
8=FIX.4.4|9=60|35=0|34=11|49=002|50=002B35|52=20190508-00:27:14.090|56=EXC|10=084|
8=FIX.4.4|9=0050|35=0|34=12|49=EXC|56=002|52=20190508-00:27:42.000|10=205|
8=FIX.4.4|9=60|35=0|34=12|49=002|50=002B35|52=20190508-00:27:44.091|56=EXC|10=089|
8=FIX.4.4|9=110|35=A|34=1|49=002|50=002B35|52=20190508-00:28:07.232|56=EXC|43=Y|98=0|108=30|141=Y|553=002FCM001|554=002FCM001|10=078|
8=FIX.4.4|9=0067|35=A|34=1|49=EXC|56=002|52=20190508-00:28:06.967|98=0|108=30|141=Y|10=017|
8=FIX.4.4|9=0049|35=0|34=2|49=EXC|56=002|52=20190508-00:28:36.000|10=168|
8=FIX.4.4|9=59|35=0|34=2|49=002|50=002B35|52=20190508-00:28:38.141|56=EXC|10=048|
8=FIX.4.4|9=0049|35=0|34=3|49=EXC|56=002|52=20190508-00:29:06.000|10=167|
8=FIX.4.4|9=59|35=0|34=3|49=002|50=002B35|52=20190508-00:29:08.141|56=EXC|10=047|
8=FIX.4.4|9=0049|35=0|34=4|49=EXC|56=002|52=20190508-00:29:36.000|10=171|
8=FIX.4.4|9=59|35=0|34=4|49=002|50=002B35|52=20190508-00:29:38.141|56=EXC|10=051|
8=FIX.4.4|9=0049|35=0|34=5|49=EXC|56=002|52=20190508-00:30:06.000|10=161|
8=FIX.4.4|9=59|35=0|34=5|49=002|50=002B35|52=20190508-00:30:08.141|56=EXC|10=041|
8=FIX.4.4|9=0049|35=0|34=6|49=EXC|56=002|52=20190508-00:30:36.000|10=165|
8=FIX.4.4|9=59|35=0|34=6|49=002|50=002B35|52=20190508-00:30:38.141|56=EXC|10=045|
8=FIX.4.4|9=0049|35=0|34=7|49=EXC|56=002|52=20190508-00:31:06.000|10=164|
8=FIX.4.4|9=59|35=0|34=7|49=002|50=002B35|52=20190508-00:31:08.141|56=EXC|10=044|
8=FIX.4.4|9=0049|35=0|34=8|49=EXC|56=002|52=20190508-00:31:36.000|10=168|
8=FIX.4.4|9=59|35=0|34=8|49=002|50=002B35|52=20190508-00:31:38.142|56=EXC|10=049|
8=FIX.4.4|9=0049|35=0|34=9|49=EXC|56=002|52=20190508-00:32:06.000|10=167|
8=FIX.4.4|9=59|35=0|34=9|49=002|50=002B35|52=20190508-00:32:08.141|56=EXC|10=047|
8=FIX.4.4|9=0050|35=0|34=10|49=EXC|56=002|52=20190508-00:32:36.000|10=202|
8=FIX.4.4|9=60|35=0|34=10|49=002|50=002B35|52=20190508-00:32:38.142|56=EXC|10=083|
8=FIX.4.4|9=0050|35=0|34=11|49=EXC|56=002|52=20190508-00:33:06.000|10=201|
8=FIX.4.4|9=60|35=0|34=11|49=002|50=002B35|52=20190508-00:33:08.141|56=EXC|10=081|
8=FIX.4.4|9=0050|35=0|34=12|49=EXC|56=002|52=20190508-00:33:36.000|10=205|
8=FIX.4.4|9=60|35=0|34=12|49=002|50=002B35|52=20190508-00:33:38.141|56=EXC|10=085|
8=FIX.4.4|9=0050|35=0|34=13|49=EXC|56=002|52=20190508-00:34:06.000|10=204|
8=FIX.4.4|9=60|35=0|34=13|49=002|50=002B35|52=20190508-00:34:08.140|56=EXC|10=083|
8=FIX.4.4|9=0050|35=0|34=14|49=EXC|56=002|52=20190508-00:34:36.000|10=208|
8=FIX.4.4|9=60|35=0|34=14|49=002|50=002B35|52=20190508-00:34:38.140|56=EXC|10=087|
8=FIX.4.4|9=0050|35=0|34=15|49=EXC|56=002|52=20190508-00:35:06.000|10=207|
8=FIX.4.4|9=60|35=0|34=15|49=002|50=002B35|52=20190508-00:35:08.142|56=EXC|10=088|
8=FIX.4.4|9=0050|35=0|34=16|49=EXC|56=002|52=20190508-00:35:36.000|10=211|
8=FIX.4.4|9=60|35=0|34=16|49=002|50=002B35|52=20190508-00:35:38.140|56=EXC|10=090|
8=FIX.4.4|9=0050|35=0|34=17|49=EXC|56=002|52=20190508-00:36:06.000|10=210|
8=FIX.4.4|9=60|35=0|34=17|49=002|50=002B35|52=20190508-00:36:08.142|56=EXC|10=091|
8=FIX.4.4|9=0050|35=0|34=18|49=EXC|56=002|52=20190508-00:36:36.000|10=214|
8=FIX.4.4|9=60|35=0|34=18|49=002|50=002B35|52=20190508-00:36:38.140|56=EXC|10=093|
8=FIX.4.4|9=0050|35=0|34=19|49=EXC|56=002|52=20190508-00:37:06.000|10=213|
