8=FIX.4.4|9=110|35=A|34=1|49=013|50=013B17|52=20190528-15:22:28.867|56=EXC|43=Y|98=0|108=30|141=Y|553=018FCM001|554=018FCM001|10=115|
8=FIX.4.4|9=110|35=A|34=1|49=013|50=013B17|52=20190528-15:24:02.581|56=EXC|43=Y|98=0|108=30|141=Y|553=013FCM001|554=013FCM001|10=092|
8=FIX.4.4|9=0067|35=A|34=1|49=EXC|56=013|52=20190528-15:24:02.655|98=0|108=30|141=Y|10=013|
8=FIX.4.4|9=110|35=A|34=1|49=013|50=013B17|52=20190528-20:13:38.186|56=EXC|43=Y|98=0|108=30|141=Y|553=013FCM001|554=013FCM001|10=096|
8=FIX.4.4|9=0067|35=A|34=1|49=EXC|56=013|52=20190528-20:13:38.231|98=0|108=30|141=Y|10=006|
8=FIX.4.4|9=110|35=A|34=1|49=013|50=013B17|52=20190528-20:18:12.441|56=EXC|43=Y|98=0|108=30|141=Y|553=013FCM001|554=013FCM001|10=087|
8=FIX.4.4|9=0067|35=A|34=1|49=EXC|56=013|52=20190528-20:18:12.494|98=0|108=30|141=Y|10=014|
8=FIX.4.4|9=110|35=A|34=1|49=013|50=013B17|52=20190528-20:54:13.294|56=EXC|43=Y|98=0|108=30|141=Y|553=013FCM001|554=013FCM001|10=094|
8=FIX.4.4|9=0067|35=A|34=1|49=EXC|56=013|52=20190528-20:54:13.386|98=0|108=30|141=Y|10=015|
8=FIX.4.4|9=110|35=A|34=1|49=013|50=013B17|52=20190528-23:51:53.728|56=EXC|43=Y|98=0|108=30|141=Y|553=013FCM001|554=013FCM001|10=100|
8=FIX.4.4|9=0067|35=A|34=1|49=EXC|56=013|52=20190528-23:51:53.457|98=0|108=30|141=Y|10=018|
8=FIX.4.4|9=0049|35=0|34=2|49=EXC|56=013|52=20190528-23:52:23.000|10=170|
8=FIX.4.4|9=59|35=0|34=2|49=013|50=013B17|52=20190528-23:52:24.682|56=EXC|10=061|
8=FIX.4.4|9=110|35=A|34=1|49=013|50=013B17|52=20190529-00:03:20.547|56=EXC|43=Y|98=0|108=30|141=Y|553=013FCM001|554=013FCM001|10=086|
8=FIX.4.4|9=0067|35=A|34=1|49=EXC|56=013|52=20190529-00:03:20.266|98=0|108=30|141=Y|10=003|
8=FIX.4.4|9=0049|35=0|34=2|49=EXC|56=013|52=20190529-00:03:50.000|10=162|
8=FIX.4.4|9=59|35=0|34=2|49=013|50=013B17|52=20190529-00:03:51.367|56=EXC|10=053|
8=FIX.4.4|9=0049|35=0|34=3|49=EXC|56=013|52=20190529-00:04:20.000|10=161|
8=FIX.4.4|9=59|35=0|34=3|49=013|50=013B17|52=20190529-00:04:21.395|56=EXC|10=053|
8=FIX.4.4|9=110|35=A|34=1|49=013|50=013B17|52=20190529-00:09:25.985|56=EXC|43=Y|98=0|108=30|141=Y|553=013FCM001|554=013FCM001|10=103|
8=FIX.4.4|9=0067|35=A|34=1|49=EXC|56=013|52=20190529-00:09:25.692|98=0|108=30|141=Y|10=017|
8=FIX.4.4|9=0049|35=0|34=2|49=EXC|56=013|52=20190529-00:09:55.000|10=173|
8=FIX.4.4|9=59|35=0|34=2|49=013|50=013B17|52=20190529-00:09:56.956|56=EXC|10=068|
8=FIX.4.4|9=0049|35=0|34=3|49=EXC|56=013|52=20190529-00:10:25.000|10=163|
8=FIX.4.4|9=59|35=0|34=3|49=013|50=013B17|52=20190529-00:10:26.955|56=EXC|10=057|
8=FIX.4.4|9=110|35=A|34=1|49=013|50=013B17|52=20190529-00:10:49.199|56=EXC|43=Y|98=0|108=30|141=Y|553=013FCM001|554=013FCM001|10=098|
8=FIX.4.4|9=0067|35=A|34=1|49=EXC|56=013|52=20190529-00:10:48.907|98=0|108=30|141=Y|10=013|
8=FIX.4.4|9=0049|35=0|34=2|49=EXC|56=013|52=20190529-00:11:18.000|10=165|
8=FIX.4.4|9=59|35=0|34=2|49=013|50=013B17|52=20190529-00:11:20.141|56=EXC|10=038|
8=FIX.4.4|9=0049|35=0|34=3|49=EXC|56=013|52=20190529-00:11:48.000|10=169|
8=FIX.4.4|9=59|35=0|34=3|49=013|50=013B17|52=20190529-00:11:50.141|56=EXC|10=042|
8=FIX.4.4|9=0049|35=0|34=4|49=EXC|56=013|52=20190529-00:12:18.000|10=168|
8=FIX.4.4|9=59|35=0|34=4|49=013|50=013B17|52=20190529-00:12:20.147|56=EXC|10=047|
8=FIX.4.4|9=0049|35=0|34=5|49=EXC|56=013|52=20190529-00:12:48.000|10=172|
8=FIX.4.4|9=59|35=0|34=5|49=013|50=013B17|52=20190529-00:12:50.140|56=EXC|10=044|
8=FIX.4.4|9=110|35=A|34=1|49=013|50=013B17|52=20190529-00:14:06.791|56=EXC|43=Y|98=0|108=30|141=Y|553=013FCM001|554=013FCM001|10=093|
8=FIX.4.4|9=0067|35=A|34=1|49=EXC|56=013|52=20190529-00:14:06.497|98=0|108=30|141=Y|10=015|
8=FIX.4.4|9=0049|35=0|34=2|49=EXC|56=013|52=20190529-00:14:36.000|10=168|
8=FIX.4.4|9=59|35=0|34=2|49=013|50=013B17|52=20190529-00:14:37.746|56=EXC|10=060|
8=FIX.4.4|9=0049|35=0|34=3|49=EXC|56=013|52=20190529-00:15:06.000|10=167|
8=FIX.4.4|9=59|35=0|34=3|49=013|50=013B17|52=20190529-00:15:07.746|56=EXC|10=059|
8=FIX.4.4|9=110|35=A|34=1|49=013|50=013B17|52=20190529-00:16:05.365|56=EXC|43=Y|98=0|108=30|141=Y|553=013FCM001|554=013FCM001|10=091|
8=FIX.4.4|9=0067|35=A|34=1|49=EXC|56=013|52=20190529-00:16:04.812|98=0|108=30|141=Y|10=006|
8=FIX.4.4|9=0049|35=0|34=2|49=EXC|56=013|52=20190529-00:16:34.000|10=168|
8=FIX.4.4|9=59|35=0|34=2|49=013|50=013B17|52=20190529-00:16:36.339|56=EXC|10=059|
8=FIX.4.4|9=0049|35=0|34=3|49=EXC|56=013|52=20190529-00:17:04.000|10=167|
8=FIX.4.4|9=59|35=0|34=3|49=013|50=013B17|52=20190529-00:17:06.336|56=EXC|10=055|
8=FIX.4.4|9=0049|35=0|34=4|49=EXC|56=013|52=20190529-00:17:34.000|10=171|
8=FIX.4.4|9=59|35=0|34=4|49=013|50=013B17|52=20190529-00:17:36.337|56=EXC|10=060|
8=FIX.4.4|9=0049|35=0|34=5|49=EXC|56=013|52=20190529-00:18:04.000|10=170|
8=FIX.4.4|9=59|35=0|34=5|49=013|50=013B17|52=20190529-00:18:06.337|56=EXC|10=059|
8=FIX.4.4|9=0049|35=0|34=6|49=EXC|56=013|52=20190529-00:18:34.000|10=174|
8=FIX.4.4|9=59|35=0|34=6|49=013|50=013B17|52=20190529-00:18:36.336|56=EXC|10=062|
8=FIX.4.4|9=0049|35=0|34=7|49=EXC|56=013|52=20190529-00:19:04.000|10=173|
8=FIX.4.4|9=59|35=0|34=7|49=013|50=013B17|52=20190529-00:19:06.337|56=EXC|10=062|
8=FIX.4.4|9=110|35=A|34=1|49=013|50=013B17|52=20190529-00:19:57.317|56=EXC|43=Y|98=0|108=30|141=Y|553=013FCM001|554=013FCM001|10=098|
8=FIX.4.4|9=0067|35=A|34=1|49=EXC|56=013|52=20190529-00:19:56.759|98=0|108=30|141=Y|10=026|
8=FIX.4.4|9=0049|35=0|34=2|49=EXC|56=013|52=20190529-00:20:26.000|10=164|
8=FIX.4.4|9=59|35=0|34=2|49=013|50=013B17|52=20190529-00:20:28.268|56=EXC|10=056|
8=FIX.4.4|9=0049|35=0|34=3|49=EXC|56=013|52=20190529-00:20:56.000|10=168|
8=FIX.4.4|9=59|35=0|34=3|49=013|50=013B17|52=20190529-00:20:58.268|56=EXC|10=060|
8=FIX.4.4|9=110|35=A|34=1|49=013|50=013B17|52=20190529-00:22:19.697|56=EXC|43=Y|98=0|108=30|141=Y|553=013FCM001|554=013FCM001|10=101|
8=FIX.4.4|9=0067|35=A|34=1|49=EXC|56=013|52=20190529-00:22:19.134|98=0|108=30|141=Y|10=006|
8=FIX.4.4|9=110|35=A|34=1|49=013|50=013B17|52=20190529-00:23:37.194|56=EXC|43=Y|98=0|108=30|141=Y|553=013FCM001|554=013FCM001|10=094|
8=FIX.4.4|9=0067|35=A|34=1|49=EXC|56=013|52=20190529-00:23:36.632|98=0|108=30|141=Y|10=009|
8=FIX.4.4|9=0049|35=0|34=2|49=EXC|56=013|52=20190529-00:24:06.000|10=166|
8=FIX.4.4|9=59|35=0|34=2|49=013|50=013B17|52=20190529-00:24:08.115|56=EXC|10=049|
8=FIX.4.4|9=0049|35=0|34=3|49=EXC|56=013|52=20190529-00:24:36.000|10=170|
8=FIX.4.4|9=59|35=0|34=3|49=013|50=013B17|52=20190529-00:24:38.116|56=EXC|10=054|
8=FIX.4.4|9=0049|35=0|34=4|49=EXC|56=013|52=20190529-00:25:06.000|10=169|
8=FIX.4.4|9=59|35=0|34=4|49=013|50=013B17|52=20190529-00:25:08.115|56=EXC|10=052|
8=FIX.4.4|9=110|35=A|34=1|49=013|50=013B17|52=20190529-00:25:31.845|56=EXC|43=Y|98=0|108=30|141=Y|553=013FCM001|554=013FCM001|10=093|
8=FIX.4.4|9=0067|35=A|34=1|49=EXC|56=013|52=20190529-00:25:31.285|98=0|108=30|141=Y|10=010|
8=FIX.4.4|9=110|35=A|34=1|49=013|50=013B17|52=20190529-00:31:10.196|56=EXC|43=Y|98=0|108=30|141=Y|553=013FCM001|554=013FCM001|10=086|
8=FIX.4.4|9=0067|35=A|34=1|49=EXC|56=013|52=20190529-00:31:09.628|98=0|108=30|141=Y|10=013|
8=FIX.4.4|9=110|35=A|34=1|49=013|50=013B17|52=20190529-00:34:01.837|56=EXC|43=Y|98=0|108=30|141=Y|553=013FCM001|554=013FCM001|10=091|
8=FIX.4.4|9=0067|35=A|34=1|49=EXC|56=013|52=20190529-00:34:01.269|98=0|108=30|141=Y|10=009|
8=FIX.4.4|9=0049|35=0|34=2|49=EXC|56=013|52=20190529-00:34:31.000|10=165|
8=FIX.4.4|9=59|35=0|34=2|49=013|50=013B17|52=20190529-00:34:32.771|56=EXC|10=055|
8=FIX.4.4|9=0049|35=0|34=3|49=EXC|56=013|52=20190529-00:35:01.000|10=164|
8=FIX.4.4|9=59|35=0|34=3|49=013|50=013B17|52=20190529-00:35:02.771|56=EXC|10=054|
8=FIX.4.4|9=110|35=A|34=1|49=013|50=013B17|52=20190529-00:35:21.224|56=EXC|43=Y|98=0|108=30|141=Y|553=013FCM001|554=013FCM001|10=084|
8=FIX.4.4|9=0067|35=A|34=1|49=EXC|56=013|52=20190529-00:35:20.653|98=0|108=30|141=Y|10=008|
8=FIX.4.4|9=110|35=A|34=1|49=013|50=013B17|52=20190529-00:35:58.976|56=EXC|43=Y|98=0|108=30|141=Y|553=013FCM001|554=013FCM001|10=108|
8=FIX.4.4|9=0067|35=A|34=1|49=EXC|56=013|52=20190529-00:35:58.407|98=0|108=30|141=Y|10=016|
8=FIX.4.4|9=0049|35=0|34=2|49=EXC|56=013|52=20190529-00:36:28.000|10=173|
8=FIX.4.4|9=59|35=0|34=2|49=013|50=013B17|52=20190529-00:36:29.942|56=EXC|10=063|
8=FIX.4.4|9=110|35=A|34=1|49=013|50=013B17|52=20190529-00:37:56.546|56=EXC|43=Y|98=0|108=30|141=Y|553=013FCM001|554=013FCM001|10=101|
8=FIX.4.4|9=0067|35=A|34=1|49=EXC|56=013|52=20190529-00:37:55.972|98=0|108=30|141=Y|10=022|
8=FIX.4.4|9=0049|35=0|34=2|49=EXC|56=013|52=20190529-00:38:25.000|10=172|
8=FIX.4.4|9=59|35=0|34=2|49=013|50=013B17|52=20190529-00:38:27.516|56=EXC|10=060|
8=FIX.4.4|9=0049|35=0|34=3|49=EXC|56=013|52=20190529-00:38:55.000|10=176|
8=FIX.4.4|9=59|35=0|34=3|49=013|50=013B17|52=20190529-00:38:57.514|56=EXC|10=062|
8=FIX.4.4|9=0049|35=0|34=4|49=EXC|56=013|52=20190529-00:39:25.000|10=175|
8=FIX.4.4|9=59|35=0|34=4|49=013|50=013B17|52=20190529-00:39:27.514|56=EXC|10=061|
8=FIX.4.4|9=110|35=A|34=1|49=013|50=013B17|52=20190529-00:39:46.085|56=EXC|43=Y|98=0|108=30|141=Y|553=013FCM001|554=013FCM001|10=100|
8=FIX.4.4|9=0067|35=A|34=1|49=EXC|56=013|52=20190529-00:39:45.509|98=0|108=30|141=Y|10=019|
8=FIX.4.4|9=0049|35=0|34=2|49=EXC|56=013|52=20190529-00:40:15.000|10=164|
8=FIX.4.4|9=59|35=0|34=2|49=013|50=013B17|52=20190529-00:40:17.055|56=EXC|10=050|
8=FIX.4.4|9=110|35=A|34=1|49=013|50=013B17|52=20190529-00:47:49.124|56=EXC|43=Y|98=0|108=30|141=Y|553=013FCM001|554=013FCM001|10=096|
8=FIX.4.4|9=0067|35=A|34=1|49=EXC|56=013|52=20190529-00:47:48.541|98=0|108=30|141=Y|10=017|
8=FIX.4.4|9=0049|35=0|34=2|49=EXC|56=013|52=20190529-00:48:18.000|10=175|
8=FIX.4.4|9=59|35=0|34=2|49=013|50=013B17|52=20190529-00:48:20.088|56=EXC|10=058|
8=FIX.4.4|9=0049|35=0|34=3|49=EXC|56=013|52=20190529-00:48:48.000|10=179|
8=FIX.4.4|9=59|35=0|34=3|49=013|50=013B17|52=20190529-00:48:50.089|56=EXC|10=063|
8=FIX.4.4|9=0049|35=0|34=4|49=EXC|56=013|52=20190529-00:49:18.000|10=178|
8=FIX.4.4|9=59|35=0|34=4|49=013|50=013B17|52=20190529-00:49:20.088|56=EXC|10=061|
8=FIX.4.4|9=0049|35=0|34=5|49=EXC|56=013|52=20190529-00:49:48.000|10=182|
8=FIX.4.4|9=59|35=0|34=5|49=013|50=013B17|52=20190529-00:49:50.087|56=EXC|10=064|
8=FIX.4.4|9=110|35=A|34=1|49=013|50=013B17|52=20190529-00:56:22.277|56=EXC|43=Y|98=0|108=30|141=Y|553=013FCM001|554=013FCM001|10=096|
8=FIX.4.4|9=0067|35=A|34=1|49=EXC|56=013|52=20190529-00:56:21.945|98=0|108=30|141=Y|10=016|
8=FIX.4.4|9=110|35=A|34=1|49=013|50=013B17|52=20190529-01:03:31.807|56=EXC|43=Y|98=0|108=30|141=Y|553=013FCM001|554=013FCM001|10=088|
8=FIX.4.4|9=0067|35=A|34=1|49=EXC|56=013|52=20190529-01:03:31.470|98=0|108=30|141=Y|10=003|
8=FIX.4.4|9=110|35=A|34=1|49=013|50=013B17|52=20190529-01:11:49.789|56=EXC|43=Y|98=0|108=30|141=Y|553=013FCM001|554=013FCM001|10=105|
8=FIX.4.4|9=0067|35=A|34=1|49=EXC|56=013|52=20190529-01:11:49.474|98=0|108=30|141=Y|10=015|
8=FIX.4.4|9=0049|35=0|34=2|49=EXC|56=013|52=20190529-01:12:19.000|10=168|
8=FIX.4.4|9=59|35=0|34=2|49=013|50=013B17|52=20190529-01:12:20.771|56=EXC|10=049|
8=FIX.4.4|9=0049|35=0|34=3|49=EXC|56=013|52=20190529-01:12:49.000|10=172|
8=FIX.4.4|9=59|35=0|34=3|49=013|50=013B17|52=20190529-01:12:50.766|56=EXC|10=057|
8=FIX.4.4|9=0049|35=0|34=4|49=EXC|56=013|52=20190529-01:13:19.000|10=171|
8=FIX.4.4|9=59|35=0|34=4|49=013|50=013B17|52=20190529-01:13:20.766|56=EXC|10=056|
8=FIX.4.4|9=110|35=A|34=1|49=013|50=013B17|52=20190529-01:25:40.635|56=EXC|43=Y|98=0|108=30|141=Y|553=013FCM001|554=013FCM001|10=091|
8=FIX.4.4|9=0067|35=A|34=1|49=EXC|56=013|52=20190529-01:25:40.302|98=0|108=30|141=Y|10=001|
8=FIX.4.4|9=0049|35=0|34=2|49=EXC|56=013|52=20190529-01:26:10.000|10=164|
8=FIX.4.4|9=59|35=0|34=2|49=013|50=013B17|52=20190529-01:26:11.621|56=EXC|10=048|
8=FIX.4.4|9=110|35=A|34=1|49=013|50=013B17|52=20190529-01:30:10.012|56=EXC|43=Y|98=0|108=30|141=Y|553=013FCM001|554=013FCM001|10=073|
8=FIX.4.4|9=0067|35=A|34=1|49=EXC|56=013|52=20190529-01:30:09.680|98=0|108=30|141=Y|10=011|
8=FIX.4.4|9=0049|35=0|34=2|49=EXC|56=013|52=20190529-01:30:39.000|10=170|
8=FIX.4.4|9=59|35=0|34=2|49=013|50=013B17|52=20190529-01:30:40.980|56=EXC|10=053|
8=FIX.4.4|9=110|35=A|34=1|49=013|50=013B17|52=20190529-12:21:50.166|56=EXC|43=Y|98=0|108=30|141=Y|553=013FCM001|554=013FCM001|10=089|
8=FIX.4.4|9=0067|35=A|34=1|49=EXC|56=013|52=20190529-12:21:50.700|98=0|108=30|141=Y|10=002|
8=FIX.4.4|9=110|35=A|34=1|49=013|50=013B17|52=20190529-12:27:22.362|56=EXC|43=Y|98=0|108=30|141=Y|553=013FCM001|554=013FCM001|10=092|
8=FIX.4.4|9=0067|35=A|34=1|49=EXC|56=013|52=20190529-12:27:22.441|98=0|108=30|141=Y|10=009|
8=FIX.4.4|9=110|35=A|34=1|49=013|50=013B17|52=20190529-12:31:25.101|56=EXC|43=Y|98=0|108=30|141=Y|553=013FCM001|554=013FCM001|10=081|
8=FIX.4.4|9=0067|35=A|34=1|49=EXC|56=013|52=20190529-12:31:25.135|98=0|108=30|141=Y|10=007|
8=FIX.4.4|9=110|35=A|34=1|49=013|50=013B17|52=20190529-12:48:24.843|56=EXC|43=Y|98=0|108=30|141=Y|553=013FCM001|554=013FCM001|10=101|
8=FIX.4.4|9=0067|35=A|34=1|49=EXC|56=013|52=20190529-12:48:24.893|98=0|108=30|141=Y|10=025|
8=FIX.4.4|9=110|35=A|34=1|49=013|50=013B17|52=20190529-12:50:53.528|56=EXC|43=Y|98=0|108=30|141=Y|553=013FCM001|554=013FCM001|10=096|
8=FIX.4.4|9=0067|35=A|34=1|49=EXC|56=013|52=20190529-12:50:53.568|98=0|108=30|141=Y|10=019|
8=FIX.4.4|9=110|35=A|34=1|49=013|50=013B17|52=20190529-12:55:50.960|56=EXC|43=Y|98=0|108=30|141=Y|553=013FCM001|554=013FCM001|10=098|
8=FIX.4.4|9=0067|35=A|34=1|49=EXC|56=013|52=20190529-12:55:51.009|98=0|108=30|141=Y|10=012|
8=FIX.4.4|9=110|35=A|34=1|49=013|50=013B17|52=20190529-12:57:08.601|56=EXC|43=Y|98=0|108=30|141=Y|553=013FCM001|554=013FCM001|10=095|
8=FIX.4.4|9=0067|35=A|34=1|49=EXC|56=013|52=20190529-12:57:08.640|98=0|108=30|141=Y|10=017|
8=FIX.4.4|9=110|35=A|34=1|49=013|50=013B17|52=20190529-13:10:55.585|56=EXC|43=Y|98=0|108=30|141=Y|553=013FCM001|554=013FCM001|10=098|
8=FIX.4.4|9=0067|35=A|34=1|49=EXC|56=013|52=20190529-13:10:55.632|98=0|108=30|141=Y|10=010|
8=FIX.4.4|9=110|35=A|34=1|49=013|50=013B17|52=20190529-13:47:13.270|56=EXC|43=Y|98=0|108=30|141=Y|553=013FCM001|554=013FCM001|10=093|
8=FIX.4.4|9=0067|35=A|34=1|49=EXC|56=013|52=20190529-13:47:13.000|98=0|108=30|141=Y|10=003|
8=FIX.4.4|9=110|35=A|34=1|49=013|50=013B17|52=20190529-13:51:04.843|56=EXC|43=Y|98=0|108=30|141=Y|553=013FCM001|554=013FCM001|10=094|
8=FIX.4.4|9=0067|35=A|34=1|49=EXC|56=013|52=20190529-13:51:04.576|98=0|108=30|141=Y|10=016|
8=FIX.4.4|9=110|35=A|34=1|49=013|50=013B17|52=20190529-13:58:02.527|56=EXC|43=Y|98=0|108=30|141=Y|553=013FCM001|554=013FCM001|10=098|
8=FIX.4.4|9=0067|35=A|34=1|49=EXC|56=013|52=20190529-13:58:02.246|98=0|108=30|141=Y|10=015|
8=FIX.4.4|9=0049|35=0|34=2|49=EXC|56=013|52=20190529-13:58:32.000|10=176|
8=FIX.4.4|9=59|35=0|34=2|49=013|50=013B17|52=20190529-13:58:33.516|56=EXC|10=063|
8=FIX.4.4|9=0049|35=0|34=3|49=EXC|56=013|52=20190529-13:59:02.000|10=175|
8=FIX.4.4|9=59|35=0|34=3|49=013|50=013B17|52=20190529-13:59:03.514|56=EXC|10=060|
8=FIX.4.4|9=110|35=A|34=1|49=013|50=013B17|52=20190529-13:59:42.756|56=EXC|43=Y|98=0|108=30|141=Y|553=013FCM001|554=013FCM001|10=107|
8=FIX.4.4|9=0067|35=A|34=1|49=EXC|56=013|52=20190529-13:59:42.459|98=0|108=30|141=Y|10=026|
8=FIX.4.4|9=0049|35=0|34=2|49=EXC|56=013|52=20190529-14:00:12.000|10=162|
8=FIX.4.4|9=59|35=0|34=2|49=013|50=013B17|52=20190529-14:00:13.636|56=EXC|10=052|
8=FIX.4.4|9=0049|35=0|34=3|49=EXC|56=013|52=20190529-14:00:42.000|10=166|
8=FIX.4.4|9=59|35=0|34=3|49=013|50=013B17|52=20190529-14:00:43.645|56=EXC|10=056|
8=FIX.4.4|9=0049|35=0|34=4|49=EXC|56=013|52=20190529-14:01:12.000|10=165|
8=FIX.4.4|9=59|35=0|34=4|49=013|50=013B17|52=20190529-14:01:13.643|56=EXC|10=053|
8=FIX.4.4|9=0049|35=0|34=5|49=EXC|56=013|52=20190529-14:01:42.000|10=169|
8=FIX.4.4|9=59|35=0|34=5|49=013|50=013B17|52=20190529-14:01:43.641|56=EXC|10=055|
8=FIX.4.4|9=0049|35=0|34=6|49=EXC|56=013|52=20190529-14:02:12.000|10=168|
8=FIX.4.4|9=59|35=0|34=6|49=013|50=013B17|52=20190529-14:02:13.634|56=EXC|10=056|
8=FIX.4.4|9=0049|35=0|34=7|49=EXC|56=013|52=20190529-14:02:42.000|10=172|
8=FIX.4.4|9=59|35=0|34=7|49=013|50=013B17|52=20190529-14:02:43.636|56=EXC|10=062|
8=FIX.4.4|9=0049|35=0|34=8|49=EXC|56=013|52=20190529-14:03:12.000|10=171|
8=FIX.4.4|9=59|35=0|34=8|49=013|50=013B17|52=20190529-14:03:13.637|56=EXC|10=062|
8=FIX.4.4|9=110|35=A|34=1|49=013|50=013B17|52=20190529-14:04:08.583|56=EXC|43=Y|98=0|108=30|141=Y|553=013FCM001|554=013FCM001|10=098|
8=FIX.4.4|9=0067|35=A|34=1|49=EXC|56=013|52=20190529-14:04:08.296|98=0|108=30|141=Y|10=018|
8=FIX.4.4|9=0049|35=0|34=2|49=EXC|56=013|52=20190529-14:04:38.000|10=174|
8=FIX.4.4|9=59|35=0|34=2|49=013|50=013B17|52=20190529-14:04:39.568|56=EXC|10=068|
8=FIX.4.4|9=110|35=A|34=1|49=013|50=013B17|52=20190529-14:20:38.763|56=EXC|43=Y|98=0|108=30|141=Y|553=013FCM001|554=013FCM001|10=099|
8=FIX.4.4|9=0067|35=A|34=1|49=EXC|56=013|52=20190529-14:20:38.803|98=0|108=30|141=Y|10=013|
8=FIX.4.4|9=110|35=A|34=1|49=013|50=013B17|52=20190529-14:25:56.832|56=EXC|43=Y|98=0|108=30|141=Y|553=013FCM001|554=013FCM001|10=101|
8=FIX.4.4|9=0067|35=A|34=1|49=EXC|56=013|52=20190529-14:25:56.840|98=0|108=30|141=Y|10=019|
8=FIX.4.4|9=110|35=A|34=1|49=013|50=013B17|52=20190529-14:27:38.118|56=EXC|43=Y|98=0|108=30|141=Y|553=013FCM001|554=013FCM001|10=100|
8=FIX.4.4|9=0067|35=A|34=1|49=EXC|56=013|52=20190529-14:27:38.140|98=0|108=30|141=Y|10=014|
8=FIX.4.4|9=110|35=A|34=1|49=013|50=013B17|52=20190529-22:51:44.782|56=EXC|43=Y|98=0|108=30|141=Y|553=013FCM001|554=013FCM001|10=100|
8=FIX.4.4|9=0067|35=A|34=1|49=EXC|56=013|52=20190529-22:51:41.109|98=0|108=30|141=Y|10=009|
8=FIX.4.4|9=110|35=A|34=1|49=013|50=013B17|52=20190529-22:53:12.316|56=EXC|43=Y|98=0|108=30|141=Y|553=013FCM001|554=013FCM001|10=090|
8=FIX.4.4|9=0067|35=A|34=1|49=EXC|56=013|52=20190529-22:53:08.648|98=0|108=30|141=Y|10=022|
8=FIX.4.4|9=110|35=A|34=1|49=013|50=013B17|52=20190529-22:55:38.509|56=EXC|43=Y|98=0|108=30|141=Y|553=013FCM001|554=013FCM001|10=104|
8=FIX.4.4|9=0067|35=A|34=1|49=EXC|56=013|52=20190529-22:55:34.857|98=0|108=30|141=Y|10=025|
8=FIX.4.4|9=59|35=0|34=2|49=013|50=013B17|52=20190529-22:56:09.141|56=EXC|10=058|
8=FIX.4.4|9=0049|35=0|34=2|49=EXC|56=013|52=20190529-22:56:04.000|10=173|
8=FIX.4.4|9=0049|35=0|34=3|49=EXC|56=013|52=20190529-22:56:34.000|10=177|
8=FIX.4.4|9=59|35=0|34=3|49=013|50=013B17|52=20190529-22:56:39.142|56=EXC|10=063|
8=FIX.4.4|9=59|35=0|34=4|49=013|50=013B17|52=20190529-22:57:09.154|56=EXC|10=065|
8=FIX.4.4|9=0049|35=0|34=4|49=EXC|56=013|52=20190529-22:57:04.000|10=176|
8=FIX.4.4|9=0049|35=0|34=5|49=EXC|56=013|52=20190529-22:57:34.000|10=180|
8=FIX.4.4|9=59|35=0|34=5|49=013|50=013B17|52=20190529-22:57:40.140|56=EXC|10=056|
8=FIX.4.4|9=110|35=A|34=1|49=013|50=013B17|52=20190530-13:56:27.508|56=EXC|43=Y|98=0|108=30|141=Y|553=013FCM001|554=013FCM001|10=094|
8=FIX.4.4|9=0067|35=A|34=1|49=EXC|56=013|52=20190530-13:56:27.843|98=0|108=30|141=Y|10=015|
8=FIX.4.4|9=110|35=A|34=1|49=013|50=013B17|52=20190530-14:12:33.051|56=EXC|43=Y|98=0|108=30|141=Y|553=013FCM001|554=013FCM001|10=077|
8=FIX.4.4|9=0067|35=A|34=1|49=EXC|56=013|52=20190530-14:12:33.368|98=0|108=30|141=Y|10=007|
8=FIX.4.4|9=110|35=A|34=1|49=013|50=013B17|52=20190530-14:16:00.195|56=EXC|43=Y|98=0|108=30|141=Y|553=013FCM001|554=013FCM001|10=084|
8=FIX.4.4|9=0067|35=A|34=1|49=EXC|56=013|52=20190530-14:16:00.564|98=0|108=30|141=Y|10=003|
8=FIX.4.4|9=0049|35=0|34=2|49=EXC|56=013|52=20190530-14:16:30.000|10=161|
8=FIX.4.4|9=59|35=0|34=2|49=013|50=013B17|52=20190530-14:16:31.178|56=EXC|10=052|
8=FIX.4.4|9=0049|35=0|34=3|49=EXC|56=013|52=20190530-14:17:00.000|10=160|
8=FIX.4.4|9=59|35=0|34=3|49=013|50=013B17|52=20190530-14:17:01.191|56=EXC|10=046|
8=FIX.4.4|9=0049|35=0|34=4|49=EXC|56=013|52=20190530-14:17:30.000|10=164|
8=FIX.4.4|9=59|35=0|34=4|49=013|50=013B17|52=20190530-14:17:31.184|56=EXC|10=052|
8=FIX.4.4|9=0049|35=0|34=5|49=EXC|56=013|52=20190530-14:18:00.000|10=163|
8=FIX.4.4|9=59|35=0|34=5|49=013|50=013B17|52=20190530-14:18:01.175|56=EXC|10=051|
8=FIX.4.4|9=0049|35=0|34=6|49=EXC|56=013|52=20190530-14:18:30.000|10=167|
8=FIX.4.4|9=59|35=0|34=6|49=013|50=013B17|52=20190530-14:18:31.185|56=EXC|10=056|
8=FIX.4.4|9=0049|35=0|34=7|49=EXC|56=013|52=20190530-14:19:00.000|10=166|
8=FIX.4.4|9=59|35=0|34=7|49=013|50=013B17|52=20190530-14:19:02.176|56=EXC|10=056|
8=FIX.4.4|9=0049|35=0|34=8|49=EXC|56=013|52=20190530-14:19:30.000|10=170|
8=FIX.4.4|9=59|35=0|34=8|49=013|50=013B17|52=20190530-14:19:32.180|56=EXC|10=055|
8=FIX.4.4|9=0049|35=0|34=9|49=EXC|56=013|52=20190530-14:20:00.000|10=160|
8=FIX.4.4|9=59|35=0|34=9|49=013|50=013B17|52=20190530-14:20:02.172|56=EXC|10=046|
8=FIX.4.4|9=0050|35=0|34=10|49=EXC|56=013|52=20190530-14:20:30.000|10=195|
8=FIX.4.4|9=60|35=0|34=10|49=013|50=013B17|52=20190530-14:20:32.175|56=EXC|10=084|
8=FIX.4.4|9=0050|35=0|34=11|49=EXC|56=013|52=20190530-14:21:00.000|10=194|
8=FIX.4.4|9=60|35=0|34=11|49=013|50=013B17|52=20190530-14:21:02.179|56=EXC|10=087|
8=FIX.4.4|9=0050|35=0|34=12|49=EXC|56=013|52=20190530-14:21:30.000|10=198|
8=FIX.4.4|9=60|35=0|34=12|49=013|50=013B17|52=20190530-14:21:32.185|56=EXC|10=088|
8=FIX.4.4|9=0050|35=0|34=13|49=EXC|56=013|52=20190530-14:22:00.000|10=197|
8=FIX.4.4|9=60|35=0|34=13|49=013|50=013B17|52=20190530-14:22:03.174|56=EXC|10=086|
8=FIX.4.4|9=0050|35=0|34=14|49=EXC|56=013|52=20190530-14:22:30.000|10=201|
8=FIX.4.4|9=60|35=0|34=14|49=013|50=013B17|52=20190530-14:22:33.178|56=EXC|10=094|
8=FIX.4.4|9=0050|35=0|34=15|49=EXC|56=013|52=20190530-14:23:00.000|10=200|
8=FIX.4.4|9=60|35=0|34=15|49=013|50=013B17|52=20190530-14:23:03.178|56=EXC|10=093|
8=FIX.4.4|9=0050|35=0|34=16|49=EXC|56=013|52=20190530-14:23:30.000|10=204|
8=FIX.4.4|9=60|35=0|34=16|49=013|50=013B17|52=20190530-14:23:33.177|56=EXC|10=096|
8=FIX.4.4|9=0050|35=0|34=17|49=EXC|56=013|52=20190530-14:24:00.000|10=203|
8=FIX.4.4|9=60|35=0|34=17|49=013|50=013B17|52=20190530-14:24:03.185|56=EXC|10=094|
8=FIX.4.4|9=0050|35=0|34=18|49=EXC|56=013|52=20190530-14:24:30.000|10=207|
8=FIX.4.4|9=60|35=0|34=18|49=013|50=013B17|52=20190530-14:24:33.180|56=EXC|10=093|
8=FIX.4.4|9=0050|35=0|34=19|49=EXC|56=013|52=20190530-14:25:00.000|10=206|
8=FIX.4.4|9=60|35=0|34=19|49=013|50=013B17|52=20190530-14:25:03.192|56=EXC|10=095|
8=FIX.4.4|9=0050|35=0|34=20|49=EXC|56=013|52=20190530-14:25:30.000|10=201|
8=FIX.4.4|9=60|35=0|34=20|49=013|50=013B17|52=20190530-14:25:33.185|56=EXC|10=092|
8=FIX.4.4|9=0050|35=0|34=21|49=EXC|56=013|52=20190530-14:26:00.000|10=200|
8=FIX.4.4|9=60|35=0|34=21|49=013|50=013B17|52=20190530-14:26:04.175|56=EXC|10=091|
8=FIX.4.4|9=0050|35=0|34=22|49=EXC|56=013|52=20190530-14:26:30.000|10=204|
8=FIX.4.4|9=60|35=0|34=22|49=013|50=013B17|52=20190530-14:26:34.182|56=EXC|10=093|
8=FIX.4.4|9=110|35=A|34=1|49=013|50=013B17|52=20190530-14:34:22.763|56=EXC|43=Y|98=0|108=30|141=Y|553=013FCM001|554=013FCM001|10=089|
8=FIX.4.4|9=0067|35=A|34=1|49=EXC|56=013|52=20190530-14:34:23.112|98=0|108=30|141=Y|10=253|
8=FIX.4.4|9=0049|35=0|34=2|49=EXC|56=013|52=20190530-14:34:53.000|10=166|
8=FIX.4.4|9=59|35=0|34=2|49=013|50=013B17|52=20190530-14:34:53.622|56=EXC|10=050|
8=FIX.4.4|9=0049|35=0|34=3|49=EXC|56=013|52=20190530-14:35:23.000|10=165|
8=FIX.4.4|9=59|35=0|34=3|49=013|50=013B17|52=20190530-14:35:23.636|56=EXC|10=054|
8=FIX.4.4|9=0049|35=0|34=4|49=EXC|56=013|52=20190530-14:35:53.000|10=169|
8=FIX.4.4|9=59|35=0|34=4|49=013|50=013B17|52=20190530-14:35:53.639|56=EXC|10=061|
8=FIX.4.4|9=0049|35=0|34=5|49=EXC|56=013|52=20190530-14:36:23.000|10=168|
8=FIX.4.4|9=59|35=0|34=5|49=013|50=013B17|52=20190530-14:36:24.622|56=EXC|10=053|
8=FIX.4.4|9=0049|35=0|34=6|49=EXC|56=013|52=20190530-14:36:53.000|10=172|
8=FIX.4.4|9=59|35=0|34=6|49=013|50=013B17|52=20190530-14:36:54.623|56=EXC|10=058|
8=FIX.4.4|9=0049|35=0|34=7|49=EXC|56=013|52=20190530-14:37:23.000|10=171|
8=FIX.4.4|9=59|35=0|34=7|49=013|50=013B17|52=20190530-14:37:24.629|56=EXC|10=063|
8=FIX.4.4|9=0049|35=0|34=8|49=EXC|56=013|52=20190530-14:37:53.000|10=175|
8=FIX.4.4|9=59|35=0|34=8|49=013|50=013B17|52=20190530-14:37:54.622|56=EXC|10=060|
8=FIX.4.4|9=0049|35=0|34=9|49=EXC|56=013|52=20190530-14:38:23.000|10=174|
8=FIX.4.4|9=59|35=0|34=9|49=013|50=013B17|52=20190530-14:38:24.621|56=EXC|10=058|
8=FIX.4.4|9=0050|35=0|34=10|49=EXC|56=013|52=20190530-14:38:53.000|10=209|
8=FIX.4.4|9=60|35=0|34=10|49=013|50=013B17|52=20190530-14:38:54.633|56=EXC|10=096|
8=FIX.4.4|9=0050|35=0|34=11|49=EXC|56=013|52=20190530-14:39:23.000|10=208|
8=FIX.4.4|9=60|35=0|34=11|49=013|50=013B17|52=20190530-14:39:24.625|56=EXC|10=096|
8=FIX.4.4|9=0050|35=0|34=12|49=EXC|56=013|52=20190530-14:39:53.000|10=212|
8=FIX.4.4|9=60|35=0|34=12|49=013|50=013B17|52=20190530-14:39:54.632|56=EXC|10=098|
8=FIX.4.4|9=0050|35=0|34=13|49=EXC|56=013|52=20190530-14:40:23.000|10=202|
8=FIX.4.4|9=60|35=0|34=13|49=013|50=013B17|52=20190530-14:40:25.633|56=EXC|10=090|
8=FIX.4.4|9=0050|35=0|34=14|49=EXC|56=013|52=20190530-14:40:53.000|10=206|
8=FIX.4.4|9=60|35=0|34=14|49=013|50=013B17|52=20190530-14:40:55.631|56=EXC|10=092|
8=FIX.4.4|9=0050|35=0|34=15|49=EXC|56=013|52=20190530-14:41:23.000|10=205|
8=FIX.4.4|9=60|35=0|34=15|49=013|50=013B17|52=20190530-14:41:25.625|56=EXC|10=094|
8=FIX.4.4|9=0050|35=0|34=16|49=EXC|56=013|52=20190530-14:41:53.000|10=209|
8=FIX.4.4|9=60|35=0|34=16|49=013|50=013B17|52=20190530-14:41:55.631|56=EXC|10=095|
8=FIX.4.4|9=0050|35=0|34=17|49=EXC|56=013|52=20190530-14:42:23.000|10=208|
8=FIX.4.4|9=60|35=0|34=17|49=013|50=013B17|52=20190530-14:42:25.627|56=EXC|10=099|
8=FIX.4.4|9=0050|35=0|34=18|49=EXC|56=013|52=20190530-14:42:53.000|10=212|
8=FIX.4.4|9=60|35=0|34=18|49=013|50=013B17|52=20190530-14:42:55.628|56=EXC|10=104|
8=FIX.4.4|9=0050|35=0|34=19|49=EXC|56=013|52=20190530-14:43:23.000|10=211|
8=FIX.4.4|9=60|35=0|34=19|49=013|50=013B17|52=20190530-14:43:25.628|56=EXC|10=103|
8=FIX.4.4|9=0050|35=0|34=20|49=EXC|56=013|52=20190530-14:43:53.000|10=206|
8=FIX.4.4|9=60|35=0|34=20|49=013|50=013B17|52=20190530-14:43:55.628|56=EXC|10=098|
8=FIX.4.4|9=0050|35=0|34=21|49=EXC|56=013|52=20190530-14:44:23.000|10=205|
8=FIX.4.4|9=60|35=0|34=21|49=013|50=013B17|52=20190530-14:44:25.629|56=EXC|10=098|
8=FIX.4.4|9=0050|35=0|34=22|49=EXC|56=013|52=20190530-14:44:53.000|10=209|
8=FIX.4.4|9=60|35=0|34=22|49=013|50=013B17|52=20190530-14:44:55.621|56=EXC|10=094|
8=FIX.4.4|9=0050|35=0|34=23|49=EXC|56=013|52=20190530-14:45:23.000|10=208|
8=FIX.4.4|9=60|35=0|34=23|49=013|50=013B17|52=20190530-14:45:25.622|56=EXC|10=094|
8=FIX.4.4|9=0050|35=0|34=24|49=EXC|56=013|52=20190530-14:45:53.000|10=212|
8=FIX.4.4|9=60|35=0|34=24|49=013|50=013B17|52=20190530-14:45:55.636|56=EXC|10=103|
8=FIX.4.4|9=0050|35=0|34=25|49=EXC|56=013|52=20190530-14:46:23.000|10=211|
8=FIX.4.4|9=60|35=0|34=25|49=013|50=013B17|52=20190530-14:46:25.627|56=EXC|10=102|
8=FIX.4.4|9=0050|35=0|34=26|49=EXC|56=013|52=20190530-14:46:53.000|10=215|
8=FIX.4.4|9=60|35=0|34=26|49=013|50=013B17|52=20190530-14:46:55.639|56=EXC|10=109|
8=FIX.4.4|9=0050|35=0|34=27|49=EXC|56=013|52=20190530-14:47:23.000|10=214|
8=FIX.4.4|9=60|35=0|34=27|49=013|50=013B17|52=20190530-14:47:25.635|56=EXC|10=104|
8=FIX.4.4|9=0050|35=0|34=28|49=EXC|56=013|52=20190530-14:47:53.000|10=218|
8=FIX.4.4|9=60|35=0|34=28|49=013|50=013B17|52=20190530-14:47:56.623|56=EXC|10=106|
8=FIX.4.4|9=0050|35=0|34=29|49=EXC|56=013|52=20190530-14:48:23.000|10=217|
8=FIX.4.4|9=60|35=0|34=29|49=013|50=013B17|52=20190530-14:48:26.621|56=EXC|10=103|
8=FIX.4.4|9=0050|35=0|34=30|49=EXC|56=013|52=20190530-14:48:53.000|10=212|
8=FIX.4.4|9=60|35=0|34=30|49=013|50=013B17|52=20190530-14:48:56.621|56=EXC|10=098|
8=FIX.4.4|9=0050|35=0|34=31|49=EXC|56=013|52=20190530-14:49:23.000|10=211|
8=FIX.4.4|9=60|35=0|34=31|49=013|50=013B17|52=20190530-14:49:26.627|56=EXC|10=103|
8=FIX.4.4|9=0050|35=0|34=32|49=EXC|56=013|52=20190530-14:49:53.000|10=215|
8=FIX.4.4|9=60|35=0|34=32|49=013|50=013B17|52=20190530-14:49:56.622|56=EXC|10=102|
8=FIX.4.4|9=0050|35=0|34=33|49=EXC|56=013|52=20190530-14:50:23.000|10=205|
8=FIX.4.4|9=60|35=0|34=33|49=013|50=013B17|52=20190530-14:50:26.623|56=EXC|10=093|
8=FIX.4.4|9=0050|35=0|34=34|49=EXC|56=013|52=20190530-14:50:53.000|10=209|
8=FIX.4.4|9=60|35=0|34=34|49=013|50=013B17|52=20190530-14:50:56.627|56=EXC|10=101|
8=FIX.4.4|9=0050|35=0|34=35|49=EXC|56=013|52=20190530-14:51:23.000|10=208|
8=FIX.4.4|9=60|35=0|34=35|49=013|50=013B17|52=20190530-14:51:26.622|56=EXC|10=095|
8=FIX.4.4|9=0050|35=0|34=36|49=EXC|56=013|52=20190530-14:51:53.000|10=212|
8=FIX.4.4|9=60|35=0|34=36|49=013|50=013B17|52=20190530-14:51:56.632|56=EXC|10=100|
8=FIX.4.4|9=0050|35=0|34=37|49=EXC|56=013|52=20190530-14:52:23.000|10=211|
8=FIX.4.4|9=60|35=0|34=37|49=013|50=013B17|52=20190530-14:52:26.624|56=EXC|10=100|
8=FIX.4.4|9=0050|35=0|34=38|49=EXC|56=013|52=20190530-14:52:53.000|10=215|
8=FIX.4.4|9=60|35=0|34=38|49=013|50=013B17|52=20190530-14:52:56.629|56=EXC|10=109|
8=FIX.4.4|9=0050|35=0|34=39|49=EXC|56=013|52=20190530-14:53:23.000|10=214|
8=FIX.4.4|9=60|35=0|34=39|49=013|50=013B17|52=20190530-14:53:26.628|56=EXC|10=107|
8=FIX.4.4|9=0050|35=0|34=40|49=EXC|56=013|52=20190530-14:53:53.000|10=209|
8=FIX.4.4|9=60|35=0|34=40|49=013|50=013B17|52=20190530-14:53:56.636|56=EXC|10=101|
8=FIX.4.4|9=0050|35=0|34=41|49=EXC|56=013|52=20190530-14:54:23.000|10=208|
8=FIX.4.4|9=60|35=0|34=41|49=013|50=013B17|52=20190530-14:54:27.622|56=EXC|10=096|
8=FIX.4.4|9=0050|35=0|34=42|49=EXC|56=013|52=20190530-14:54:53.000|10=212|
8=FIX.4.4|9=60|35=0|34=42|49=013|50=013B17|52=20190530-14:54:57.624|56=EXC|10=102|
8=FIX.4.4|9=0050|35=0|34=43|49=EXC|56=013|52=20190530-14:55:23.000|10=211|
8=FIX.4.4|9=60|35=0|34=43|49=013|50=013B17|52=20190530-14:55:27.622|56=EXC|10=099|
8=FIX.4.4|9=0050|35=0|34=44|49=EXC|56=013|52=20190530-14:55:53.000|10=215|
8=FIX.4.4|9=60|35=0|34=44|49=013|50=013B17|52=20190530-14:55:57.632|56=EXC|10=104|
8=FIX.4.4|9=0050|35=0|34=45|49=EXC|56=013|52=20190530-14:56:23.000|10=214|
8=FIX.4.4|9=60|35=0|34=45|49=013|50=013B17|52=20190530-14:56:27.630|56=EXC|10=101|
8=FIX.4.4|9=0050|35=0|34=46|49=EXC|56=013|52=20190530-14:56:53.000|10=218|
8=FIX.4.4|9=60|35=0|34=46|49=013|50=013B17|52=20190530-14:56:57.628|56=EXC|10=112|
8=FIX.4.4|9=0050|35=0|34=47|49=EXC|56=013|52=20190530-14:57:23.000|10=217|
8=FIX.4.4|9=60|35=0|34=47|49=013|50=013B17|52=20190530-14:57:27.621|56=EXC|10=104|
8=FIX.4.4|9=0050|35=0|34=48|49=EXC|56=013|52=20190530-14:57:53.000|10=221|
8=FIX.4.4|9=60|35=0|34=48|49=013|50=013B17|52=20190530-14:57:57.629|56=EXC|10=116|
8=FIX.4.4|9=0050|35=0|34=49|49=EXC|56=013|52=20190530-14:58:23.000|10=220|
8=FIX.4.4|9=60|35=0|34=49|49=013|50=013B17|52=20190530-14:58:27.627|56=EXC|10=113|
8=FIX.4.4|9=0050|35=0|34=50|49=EXC|56=013|52=20190530-14:58:53.000|10=215|
8=FIX.4.4|9=60|35=0|34=50|49=013|50=013B17|52=20190530-14:58:57.621|56=EXC|10=102|
8=FIX.4.4|9=0050|35=0|34=51|49=EXC|56=013|52=20190530-14:59:23.000|10=214|
8=FIX.4.4|9=60|35=0|34=51|49=013|50=013B17|52=20190530-14:59:27.634|56=EXC|10=105|
8=FIX.4.4|9=0050|35=0|34=52|49=EXC|56=013|52=20190530-14:59:53.000|10=218|
8=FIX.4.4|9=60|35=0|34=52|49=013|50=013B17|52=20190530-14:59:57.633|56=EXC|10=108|
8=FIX.4.4|9=0050|35=0|34=53|49=EXC|56=013|52=20190530-15:00:23.000|10=203|
8=FIX.4.4|9=60|35=0|34=53|49=013|50=013B17|52=20190530-15:00:27.631|56=EXC|10=091|
8=FIX.4.4|9=0050|35=0|34=54|49=EXC|56=013|52=20190530-15:00:53.000|10=207|
8=FIX.4.4|9=60|35=0|34=54|49=013|50=013B17|52=20190530-15:00:58.623|56=EXC|10=097|
8=FIX.4.4|9=0050|35=0|34=55|49=EXC|56=013|52=20190530-15:01:23.000|10=206|
8=FIX.4.4|9=60|35=0|34=55|49=013|50=013B17|52=20190530-15:01:28.624|56=EXC|10=097|
8=FIX.4.4|9=0050|35=0|34=56|49=EXC|56=013|52=20190530-15:01:53.000|10=210|
8=FIX.4.4|9=60|35=0|34=56|49=013|50=013B17|52=20190530-15:01:58.621|56=EXC|10=098|
8=FIX.4.4|9=0050|35=0|34=57|49=EXC|56=013|52=20190530-15:02:23.000|10=209|
8=FIX.4.4|9=60|35=0|34=57|49=013|50=013B17|52=20190530-15:02:28.634|56=EXC|10=101|
8=FIX.4.4|9=0050|35=0|34=58|49=EXC|56=013|52=20190530-15:02:53.000|10=213|
8=FIX.4.4|9=60|35=0|34=58|49=013|50=013B17|52=20190530-15:02:59.621|56=EXC|10=102|
8=FIX.4.4|9=0050|35=0|34=59|49=EXC|56=013|52=20190530-15:03:23.000|10=212|
8=FIX.4.4|9=60|35=0|34=59|49=013|50=013B17|52=20190530-15:03:29.624|56=EXC|10=104|
8=FIX.4.4|9=0050|35=0|34=60|49=EXC|56=013|52=20190530-15:03:53.000|10=207|
8=FIX.4.4|9=60|35=0|34=60|49=013|50=013B17|52=20190530-15:03:59.627|56=EXC|10=102|
8=FIX.4.4|9=0050|35=0|34=61|49=EXC|56=013|52=20190530-15:04:23.000|10=206|
8=FIX.4.4|9=60|35=0|34=61|49=013|50=013B17|52=20190530-15:04:29.620|56=EXC|10=094|
8=FIX.4.4|9=0050|35=0|34=62|49=EXC|56=013|52=20190530-15:04:53.000|10=210|
8=FIX.4.4|9=60|35=0|34=62|49=013|50=013B17|52=20190530-15:04:59.619|56=EXC|10=106|
8=FIX.4.4|9=0050|35=0|34=63|49=EXC|56=013|52=20190530-15:05:23.000|10=209|
8=FIX.4.4|9=60|35=0|34=63|49=013|50=013B17|52=20190530-15:05:29.621|56=EXC|10=098|
8=FIX.4.4|9=0050|35=0|34=64|49=EXC|56=013|52=20190530-15:05:53.000|10=213|
8=FIX.4.4|9=60|35=0|34=64|49=013|50=013B17|52=20190530-15:05:59.619|56=EXC|10=109|
8=FIX.4.4|9=0050|35=0|34=65|49=EXC|56=013|52=20190530-15:06:23.000|10=212|
8=FIX.4.4|9=60|35=0|34=65|49=013|50=013B17|52=20190530-15:06:29.629|56=EXC|10=109|
8=FIX.4.4|9=0050|35=0|34=66|49=EXC|56=013|52=20190530-15:06:53.000|10=216|
8=FIX.4.4|9=60|35=0|34=66|49=013|50=013B17|52=20190530-15:07:00.624|56=EXC|10=095|
8=FIX.4.4|9=0050|35=0|34=67|49=EXC|56=013|52=20190530-15:07:23.000|10=215|
8=FIX.4.4|9=60|35=0|34=67|49=013|50=013B17|52=20190530-15:07:30.618|56=EXC|10=102|
8=FIX.4.4|9=0050|35=0|34=68|49=EXC|56=013|52=20190530-15:07:53.000|10=219|
8=FIX.4.4|9=60|35=0|34=68|49=013|50=013B17|52=20190530-15:08:00.618|56=EXC|10=101|
8=FIX.4.4|9=0050|35=0|34=69|49=EXC|56=013|52=20190530-15:08:23.000|10=218|
8=FIX.4.4|9=60|35=0|34=69|49=013|50=013B17|52=20190530-15:08:30.628|56=EXC|10=106|
8=FIX.4.4|9=0050|35=0|34=70|49=EXC|56=013|52=20190530-15:08:53.000|10=213|
8=FIX.4.4|9=60|35=0|34=70|49=013|50=013B17|52=20190530-15:09:01.618|56=EXC|10=096|
8=FIX.4.4|9=0050|35=0|34=71|49=EXC|56=013|52=20190530-15:09:23.000|10=212|
8=FIX.4.4|9=60|35=0|34=71|49=013|50=013B17|52=20190530-15:09:31.618|56=EXC|10=100|
8=FIX.4.4|9=0050|35=0|34=72|49=EXC|56=013|52=20190530-15:09:53.000|10=216|
8=FIX.4.4|9=60|35=0|34=72|49=013|50=013B17|52=20190530-15:10:01.620|56=EXC|10=083|
8=FIX.4.4|9=0050|35=0|34=73|49=EXC|56=013|52=20190530-15:10:23.000|10=206|
8=FIX.4.4|9=60|35=0|34=73|49=013|50=013B17|52=20190530-15:10:31.622|56=EXC|10=089|
8=FIX.4.4|9=0050|35=0|34=74|49=EXC|56=013|52=20190530-15:10:53.000|10=210|
8=FIX.4.4|9=60|35=0|34=74|49=013|50=013B17|52=20190530-15:11:01.620|56=EXC|10=086|
8=FIX.4.4|9=0050|35=0|34=75|49=EXC|56=013|52=20190530-15:11:23.000|10=209|
8=FIX.4.4|9=60|35=0|34=75|49=013|50=013B17|52=20190530-15:11:31.633|56=EXC|10=094|
8=FIX.4.4|9=0050|35=0|34=76|49=EXC|56=013|52=20190530-15:11:53.000|10=213|
8=FIX.4.4|9=60|35=0|34=76|49=013|50=013B17|52=20190530-15:12:02.630|56=EXC|10=091|
8=FIX.4.4|9=0050|35=0|34=77|49=EXC|56=013|52=20190530-15:12:23.000|10=212|
8=FIX.4.4|9=60|35=0|34=77|49=013|50=013B17|52=20190530-15:12:33.618|56=EXC|10=102|
8=FIX.4.4|9=0050|35=0|34=78|49=EXC|56=013|52=20190530-15:12:53.000|10=216|
8=FIX.4.4|9=60|35=0|34=78|49=013|50=013B17|52=20190530-15:13:03.622|56=EXC|10=096|
8=FIX.4.4|9=0050|35=0|34=79|49=EXC|56=013|52=20190530-15:13:23.000|10=215|
8=FIX.4.4|9=60|35=0|34=79|49=013|50=013B17|52=20190530-15:13:33.624|56=EXC|10=102|
8=FIX.4.4|9=0050|35=0|34=80|49=EXC|56=013|52=20190530-15:13:53.000|10=210|
8=FIX.4.4|9=60|35=0|34=80|49=013|50=013B17|52=20190530-15:14:03.617|56=EXC|10=094|
8=FIX.4.4|9=0050|35=0|34=81|49=EXC|56=013|52=20190530-15:14:23.000|10=209|
8=FIX.4.4|9=60|35=0|34=81|49=013|50=013B17|52=20190530-15:14:33.627|56=EXC|10=099|
8=FIX.4.4|9=0050|35=0|34=82|49=EXC|56=013|52=20190530-15:14:53.000|10=213|
8=FIX.4.4|9=60|35=0|34=82|49=013|50=013B17|52=20190530-15:15:04.622|56=EXC|10=094|
8=FIX.4.4|9=0050|35=0|34=83|49=EXC|56=013|52=20190530-15:15:23.000|10=212|
8=FIX.4.4|9=60|35=0|34=83|49=013|50=013B17|52=20190530-15:15:34.622|56=EXC|10=098|
8=FIX.4.4|9=0050|35=0|34=84|49=EXC|56=013|52=20190530-15:15:53.000|10=216|
8=FIX.4.4|9=60|35=0|34=84|49=013|50=013B17|52=20190530-15:16:04.621|56=EXC|10=096|
8=FIX.4.4|9=0050|35=0|34=85|49=EXC|56=013|52=20190530-15:16:23.000|10=215|
8=FIX.4.4|9=60|35=0|34=85|49=013|50=013B17|52=20190530-15:16:34.618|56=EXC|10=106|
8=FIX.4.4|9=0050|35=0|34=86|49=EXC|56=013|52=20190530-15:16:53.000|10=219|
8=FIX.4.4|9=60|35=0|34=86|49=013|50=013B17|52=20190530-15:17:04.623|56=EXC|10=101|
8=FIX.4.4|9=0050|35=0|34=87|49=EXC|56=013|52=20190530-15:17:23.000|10=218|
8=FIX.4.4|9=60|35=0|34=87|49=013|50=013B17|52=20190530-15:17:34.617|56=EXC|10=108|
8=FIX.4.4|9=0050|35=0|34=88|49=EXC|56=013|52=20190530-15:17:53.000|10=222|
8=FIX.4.4|9=60|35=0|34=88|49=013|50=013B17|52=20190530-15:18:04.625|56=EXC|10=106|
8=FIX.4.4|9=0050|35=0|34=89|49=EXC|56=013|52=20190530-15:18:23.000|10=221|
8=FIX.4.4|9=60|35=0|34=89|49=013|50=013B17|52=20190530-15:18:34.617|56=EXC|10=111|
8=FIX.4.4|9=0050|35=0|34=90|49=EXC|56=013|52=20190530-15:18:53.000|10=216|
8=FIX.4.4|9=60|35=0|34=90|49=013|50=013B17|52=20190530-15:19:04.616|56=EXC|10=100|
8=FIX.4.4|9=0050|35=0|34=91|49=EXC|56=013|52=20190530-15:19:23.000|10=215|
8=FIX.4.4|9=60|35=0|34=91|49=013|50=013B17|52=20190530-15:19:34.617|56=EXC|10=105|
8=FIX.4.4|9=0050|35=0|34=92|49=EXC|56=013|52=20190530-15:19:53.000|10=219|
8=FIX.4.4|9=60|35=0|34=92|49=013|50=013B17|52=20190530-15:20:04.617|56=EXC|10=095|
8=FIX.4.4|9=0050|35=0|34=93|49=EXC|56=013|52=20190530-15:20:23.000|10=209|
8=FIX.4.4|9=60|35=0|34=93|49=013|50=013B17|52=20190530-15:20:34.617|56=EXC|10=099|
8=FIX.4.4|9=0050|35=0|34=94|49=EXC|56=013|52=20190530-15:20:53.000|10=213|
8=FIX.4.4|9=60|35=0|34=94|49=013|50=013B17|52=20190530-15:21:04.619|56=EXC|10=100|
8=FIX.4.4|9=0050|35=0|34=95|49=EXC|56=013|52=20190530-15:21:23.000|10=212|
8=FIX.4.4|9=60|35=0|34=95|49=013|50=013B17|52=20190530-15:21:34.617|56=EXC|10=102|
8=FIX.4.4|9=0050|35=0|34=96|49=EXC|56=013|52=20190530-15:21:53.000|10=216|
8=FIX.4.4|9=60|35=0|34=96|49=013|50=013B17|52=20190530-15:22:04.629|56=EXC|10=104|
8=FIX.4.4|9=0050|35=0|34=97|49=EXC|56=013|52=20190530-15:22:23.000|10=215|
8=FIX.4.4|9=60|35=0|34=97|49=013|50=013B17|52=20190530-15:22:34.626|56=EXC|10=105|
8=FIX.4.4|9=0050|35=0|34=98|49=EXC|56=013|52=20190530-15:22:53.000|10=219|
8=FIX.4.4|9=60|35=0|34=98|49=013|50=013B17|52=20190530-15:23:04.618|56=EXC|10=105|
8=FIX.4.4|9=0050|35=0|34=99|49=EXC|56=013|52=20190530-15:23:23.000|10=218|
8=FIX.4.4|9=60|35=0|34=99|49=013|50=013B17|52=20190530-15:23:34.627|56=EXC|10=109|
8=FIX.4.4|9=0051|35=0|34=100|49=EXC|56=013|52=20190530-15:23:53.000|10=253|
8=FIX.4.4|9=61|35=0|34=100|49=013|50=013B17|52=20190530-15:24:05.617|56=EXC|10=139|
8=FIX.4.4|9=0051|35=0|34=101|49=EXC|56=013|52=20190530-15:24:23.000|10=252|
8=FIX.4.4|9=61|35=0|34=101|49=013|50=013B17|52=20190530-15:24:35.625|56=EXC|10=142|
8=FIX.4.4|9=0051|35=0|34=102|49=EXC|56=013|52=20190530-15:24:53.000|10=000|
8=FIX.4.4|9=61|35=0|34=102|49=013|50=013B17|52=20190530-15:25:05.624|56=EXC|10=140|
8=FIX.4.4|9=0051|35=0|34=103|49=EXC|56=013|52=20190530-15:25:23.000|10=255|
8=FIX.4.4|9=61|35=0|34=103|49=013|50=013B17|52=20190530-15:25:35.627|56=EXC|10=147|
8=FIX.4.4|9=0051|35=0|34=104|49=EXC|56=013|52=20190530-15:25:53.000|10=003|
8=FIX.4.4|9=61|35=0|34=104|49=013|50=013B17|52=20190530-15:26:05.629|56=EXC|10=148|
8=FIX.4.4|9=0051|35=0|34=105|49=EXC|56=013|52=20190530-15:26:23.000|10=002|
8=FIX.4.4|9=61|35=0|34=105|49=013|50=013B17|52=20190530-15:26:36.616|56=EXC|10=149|
8=FIX.4.4|9=0051|35=0|34=106|49=EXC|56=013|52=20190530-15:26:53.000|10=006|
8=FIX.4.4|9=61|35=0|34=106|49=013|50=013B17|52=20190530-15:27:06.627|56=EXC|10=150|
8=FIX.4.4|9=0051|35=0|34=107|49=EXC|56=013|52=20190530-15:27:23.000|10=005|
8=FIX.4.4|9=61|35=0|34=107|49=013|50=013B17|52=20190530-15:27:37.633|56=EXC|10=152|
8=FIX.4.4|9=0051|35=0|34=108|49=EXC|56=013|52=20190530-15:27:53.000|10=009|
8=FIX.4.4|9=61|35=0|34=108|49=013|50=013B17|52=20190530-15:28:07.631|56=EXC|10=149|
8=FIX.4.4|9=0051|35=0|34=109|49=EXC|56=013|52=20190530-15:28:23.000|10=008|
8=FIX.4.4|9=61|35=0|34=109|49=013|50=013B17|52=20190530-15:28:38.634|56=EXC|10=157|
8=FIX.4.4|9=0051|35=0|34=110|49=EXC|56=013|52=20190530-15:28:53.000|10=003|
8=FIX.4.4|9=61|35=0|34=110|49=013|50=013B17|52=20190530-15:29:08.630|56=EXC|10=143|
8=FIX.4.4|9=0051|35=0|34=111|49=EXC|56=013|52=20190530-15:29:23.000|10=002|
8=FIX.4.4|9=61|35=0|34=111|49=013|50=013B17|52=20190530-15:29:38.623|56=EXC|10=149|
8=FIX.4.4|9=0051|35=0|34=112|49=EXC|56=013|52=20190530-15:29:53.000|10=006|
8=FIX.4.4|9=61|35=0|34=112|49=013|50=013B17|52=20190530-15:30:08.618|56=EXC|10=143|
8=FIX.4.4|9=0051|35=0|34=113|49=EXC|56=013|52=20190530-15:30:23.000|10=252|
8=FIX.4.4|9=61|35=0|34=113|49=013|50=013B17|52=20190530-15:30:38.631|56=EXC|10=142|
8=FIX.4.4|9=0051|35=0|34=114|49=EXC|56=013|52=20190530-15:30:53.000|10=000|
8=FIX.4.4|9=61|35=0|34=114|49=013|50=013B17|52=20190530-15:31:09.620|56=EXC|10=140|
8=FIX.4.4|9=0051|35=0|34=115|49=EXC|56=013|52=20190530-15:31:23.000|10=255|
8=FIX.4.4|9=61|35=0|34=115|49=013|50=013B17|52=20190530-15:31:39.630|56=EXC|10=145|
8=FIX.4.4|9=0051|35=0|34=116|49=EXC|56=013|52=20190530-15:31:53.000|10=003|
8=FIX.4.4|9=61|35=0|34=116|49=013|50=013B17|52=20190530-15:32:09.626|56=EXC|10=149|
8=FIX.4.4|9=0051|35=0|34=117|49=EXC|56=013|52=20190530-15:32:23.000|10=002|
8=FIX.4.4|9=61|35=0|34=117|49=013|50=013B17|52=20190530-15:32:39.617|56=EXC|10=153|
8=FIX.4.4|9=0051|35=0|34=118|49=EXC|56=013|52=20190530-15:32:53.000|10=006|
8=FIX.4.4|9=61|35=0|34=118|49=013|50=013B17|52=20190530-15:33:09.637|56=EXC|10=154|
8=FIX.4.4|9=0051|35=0|34=119|49=EXC|56=013|52=20190530-15:33:23.000|10=005|
8=FIX.4.4|9=61|35=0|34=119|49=013|50=013B17|52=20190530-15:33:39.631|56=EXC|10=152|
8=FIX.4.4|9=0051|35=0|34=120|49=EXC|56=013|52=20190530-15:33:53.000|10=000|
8=FIX.4.4|9=61|35=0|34=120|49=013|50=013B17|52=20190530-15:34:10.617|56=EXC|10=138|
8=FIX.4.4|9=0051|35=0|34=121|49=EXC|56=013|52=20190530-15:34:23.000|10=255|
8=FIX.4.4|9=61|35=0|34=121|49=013|50=013B17|52=20190530-15:34:40.618|56=EXC|10=143|
8=FIX.4.4|9=0051|35=0|34=122|49=EXC|56=013|52=20190530-15:34:53.000|10=003|
8=FIX.4.4|9=61|35=0|34=122|49=013|50=013B17|52=20190530-15:35:10.617|56=EXC|10=141|
8=FIX.4.4|9=0051|35=0|34=123|49=EXC|56=013|52=20190530-15:35:23.000|10=002|
8=FIX.4.4|9=61|35=0|34=123|49=013|50=013B17|52=20190530-15:35:40.624|56=EXC|10=143|
8=FIX.4.4|9=0051|35=0|34=124|49=EXC|56=013|52=20190530-15:35:53.000|10=006|
8=FIX.4.4|9=61|35=0|34=124|49=013|50=013B17|52=20190530-15:36:10.627|56=EXC|10=145|
8=FIX.4.4|9=0051|35=0|34=125|49=EXC|56=013|52=20190530-15:36:23.000|10=005|
8=FIX.4.4|9=61|35=0|34=125|49=013|50=013B17|52=20190530-15:36:41.620|56=EXC|10=143|
8=FIX.4.4|9=0051|35=0|34=126|49=EXC|56=013|52=20190530-15:36:53.000|10=009|
8=FIX.4.4|9=61|35=0|34=126|49=013|50=013B17|52=20190530-15:37:11.617|56=EXC|10=148|
8=FIX.4.4|9=0051|35=0|34=127|49=EXC|56=013|52=20190530-15:37:23.000|10=008|
8=FIX.4.4|9=61|35=0|34=127|49=013|50=013B17|52=20190530-15:37:41.617|56=EXC|10=152|
8=FIX.4.4|9=0051|35=0|34=128|49=EXC|56=013|52=20190530-15:37:53.000|10=012|
8=FIX.4.4|9=61|35=0|34=128|49=013|50=013B17|52=20190530-15:38:11.625|56=EXC|10=150|
8=FIX.4.4|9=0051|35=0|34=129|49=EXC|56=013|52=20190530-15:38:23.000|10=011|
8=FIX.4.4|9=61|35=0|34=129|49=013|50=013B17|52=20190530-15:38:41.617|56=EXC|10=155|
8=FIX.4.4|9=0051|35=0|34=130|49=EXC|56=013|52=20190530-15:38:53.000|10=006|
8=FIX.4.4|9=61|35=0|34=130|49=013|50=013B17|52=20190530-15:39:11.625|56=EXC|10=144|
8=FIX.4.4|9=0051|35=0|34=131|49=EXC|56=013|52=20190530-15:39:23.000|10=005|
8=FIX.4.4|9=61|35=0|34=131|49=013|50=013B17|52=20190530-15:39:41.622|56=EXC|10=145|
8=FIX.4.4|9=0051|35=0|34=132|49=EXC|56=013|52=20190530-15:39:53.000|10=009|
8=FIX.4.4|9=61|35=0|34=132|49=013|50=013B17|52=20190530-15:40:11.635|56=EXC|10=139|
8=FIX.4.4|9=0051|35=0|34=133|49=EXC|56=013|52=20190530-15:40:23.000|10=255|
8=FIX.4.4|9=61|35=0|34=133|49=013|50=013B17|52=20190530-15:40:41.626|56=EXC|10=143|
8=FIX.4.4|9=0051|35=0|34=134|49=EXC|56=013|52=20190530-15:40:53.000|10=003|
8=FIX.4.4|9=61|35=0|34=134|49=013|50=013B17|52=20190530-15:41:12.616|56=EXC|10=142|
8=FIX.4.4|9=0051|35=0|34=135|49=EXC|56=013|52=20190530-15:41:23.000|10=002|
8=FIX.4.4|9=61|35=0|34=135|49=013|50=013B17|52=20190530-15:41:42.622|56=EXC|10=143|
8=FIX.4.4|9=0051|35=0|34=136|49=EXC|56=013|52=20190530-15:41:53.000|10=006|
8=FIX.4.4|9=61|35=0|34=136|49=013|50=013B17|52=20190530-15:42:12.630|56=EXC|10=141|
8=FIX.4.4|9=0051|35=0|34=137|49=EXC|56=013|52=20190530-15:42:23.000|10=005|
8=FIX.4.4|9=61|35=0|34=137|49=013|50=013B17|52=20190530-15:42:42.631|56=EXC|10=146|
8=FIX.4.4|9=0051|35=0|34=138|49=EXC|56=013|52=20190530-15:42:53.000|10=009|
8=FIX.4.4|9=61|35=0|34=138|49=013|50=013B17|52=20190530-15:43:12.622|56=EXC|10=145|
8=FIX.4.4|9=0051|35=0|34=139|49=EXC|56=013|52=20190530-15:43:23.000|10=008|
8=FIX.4.4|9=61|35=0|34=139|49=013|50=013B17|52=20190530-15:43:42.629|56=EXC|10=156|
8=FIX.4.4|9=0051|35=0|34=140|49=EXC|56=013|52=20190530-15:43:53.000|10=003|
8=FIX.4.4|9=61|35=0|34=140|49=013|50=013B17|52=20190530-15:44:13.621|56=EXC|10=139|
8=FIX.4.4|9=0051|35=0|34=141|49=EXC|56=013|52=20190530-15:44:23.000|10=002|
8=FIX.4.4|9=61|35=0|34=141|49=013|50=013B17|52=20190530-15:44:43.623|56=EXC|10=145|
8=FIX.4.4|9=0051|35=0|34=142|49=EXC|56=013|52=20190530-15:44:53.000|10=006|
8=FIX.4.4|9=61|35=0|34=142|49=013|50=013B17|52=20190530-15:45:13.621|56=EXC|10=142|
8=FIX.4.4|9=0051|35=0|34=143|49=EXC|56=013|52=20190530-15:45:23.000|10=005|
8=FIX.4.4|9=61|35=0|34=143|49=013|50=013B17|52=20190530-15:45:43.628|56=EXC|10=153|
8=FIX.4.4|9=0051|35=0|34=144|49=EXC|56=013|52=20190530-15:45:53.000|10=009|
8=FIX.4.4|9=61|35=0|34=144|49=013|50=013B17|52=20190530-15:46:14.616|56=EXC|10=150|
8=FIX.4.4|9=0051|35=0|34=145|49=EXC|56=013|52=20190530-15:46:23.000|10=008|
8=FIX.4.4|9=61|35=0|34=145|49=013|50=013B17|52=20190530-15:46:44.619|56=EXC|10=157|
8=FIX.4.4|9=0051|35=0|34=146|49=EXC|56=013|52=20190530-15:46:53.000|10=012|
8=FIX.4.4|9=61|35=0|34=146|49=013|50=013B17|52=20190530-15:47:14.618|56=EXC|10=155|
8=FIX.4.4|9=0051|35=0|34=147|49=EXC|56=013|52=20190530-15:47:23.000|10=011|
8=FIX.4.4|9=61|35=0|34=147|49=013|50=013B17|52=20190530-15:47:44.618|56=EXC|10=159|
8=FIX.4.4|9=0051|35=0|34=148|49=EXC|56=013|52=20190530-15:47:53.000|10=015|
8=FIX.4.4|9=61|35=0|34=148|49=013|50=013B17|52=20190530-15:48:14.618|56=EXC|10=158|
8=FIX.4.4|9=0051|35=0|34=149|49=EXC|56=013|52=20190530-15:48:23.000|10=014|
8=FIX.4.4|9=61|35=0|34=149|49=013|50=013B17|52=20190530-15:48:44.616|56=EXC|10=160|
8=FIX.4.4|9=0051|35=0|34=150|49=EXC|56=013|52=20190530-15:48:53.000|10=009|
8=FIX.4.4|9=61|35=0|34=150|49=013|50=013B17|52=20190530-15:49:14.623|56=EXC|10=148|
8=FIX.4.4|9=0051|35=0|34=151|49=EXC|56=013|52=20190530-15:49:23.000|10=008|
8=FIX.4.4|9=61|35=0|34=151|49=013|50=013B17|52=20190530-15:49:44.619|56=EXC|10=157|
8=FIX.4.4|9=0051|35=0|34=152|49=EXC|56=013|52=20190530-15:49:53.000|10=012|
8=FIX.4.4|9=61|35=0|34=152|49=013|50=013B17|52=20190530-15:50:14.617|56=EXC|10=145|
8=FIX.4.4|9=0051|35=0|34=153|49=EXC|56=013|52=20190530-15:50:23.000|10=002|
8=FIX.4.4|9=61|35=0|34=153|49=013|50=013B17|52=20190530-15:50:44.627|56=EXC|10=150|
8=FIX.4.4|9=0051|35=0|34=154|49=EXC|56=013|52=20190530-15:50:53.000|10=006|
8=FIX.4.4|9=61|35=0|34=154|49=013|50=013B17|52=20190530-15:51:15.633|56=EXC|10=147|
8=FIX.4.4|9=0051|35=0|34=155|49=EXC|56=013|52=20190530-15:51:23.000|10=005|
8=FIX.4.4|9=61|35=0|34=155|49=013|50=013B17|52=20190530-15:51:45.626|56=EXC|10=153|
8=FIX.4.4|9=0051|35=0|34=156|49=EXC|56=013|52=20190530-15:51:53.000|10=009|
8=FIX.4.4|9=61|35=0|34=156|49=013|50=013B17|52=20190530-15:52:15.628|56=EXC|10=154|
8=FIX.4.4|9=0051|35=0|34=157|49=EXC|56=013|52=20190530-15:52:23.000|10=008|
8=FIX.4.4|9=61|35=0|34=157|49=013|50=013B17|52=20190530-15:52:46.617|56=EXC|10=157|
8=FIX.4.4|9=0051|35=0|34=158|49=EXC|56=013|52=20190530-15:52:53.000|10=012|
8=FIX.4.4|9=61|35=0|34=158|49=013|50=013B17|52=20190530-15:53:16.626|56=EXC|10=156|
8=FIX.4.4|9=0051|35=0|34=159|49=EXC|56=013|52=20190530-15:53:23.000|10=011|
8=FIX.4.4|9=61|35=0|34=159|49=013|50=013B17|52=20190530-15:53:47.616|56=EXC|10=160|
8=FIX.4.4|9=0051|35=0|34=160|49=EXC|56=013|52=20190530-15:53:53.000|10=006|
8=FIX.4.4|9=61|35=0|34=160|49=013|50=013B17|52=20190530-15:54:17.637|56=EXC|10=153|
8=FIX.4.4|9=0051|35=0|34=161|49=EXC|56=013|52=20190530-15:54:23.000|10=005|
8=FIX.4.4|9=61|35=0|34=161|49=013|50=013B17|52=20190530-15:54:48.628|56=EXC|10=158|
8=FIX.4.4|9=0051|35=0|34=162|49=EXC|56=013|52=20190530-15:54:53.000|10=009|
8=FIX.4.4|9=61|35=0|34=162|49=013|50=013B17|52=20190530-15:55:19.617|56=EXC|10=156|
8=FIX.4.4|9=0051|35=0|34=163|49=EXC|56=013|52=20190530-15:55:23.000|10=008|
8=FIX.4.4|9=61|35=0|34=163|49=013|50=013B17|52=20190530-15:55:49.616|56=EXC|10=159|
8=FIX.4.4|9=0051|35=0|34=164|49=EXC|56=013|52=20190530-15:55:53.000|10=012|
8=FIX.4.4|9=110|35=A|34=1|49=013|50=013B17|52=20190530-16:43:54.015|56=EXC|43=Y|98=0|108=30|141=Y|553=013FCM001|554=013FCM001|10=086|
8=FIX.4.4|9=0067|35=A|34=1|49=EXC|56=013|52=20190530-16:43:55.302|98=0|108=30|141=Y|10=005|
8=FIX.4.4|9=0049|35=0|34=2|49=EXC|56=013|52=20190530-16:44:25.000|10=168|
8=FIX.4.4|9=59|35=0|34=2|49=013|50=013B17|52=20190530-16:44:25.000|56=EXC|10=042|
8=FIX.4.4|9=0049|35=0|34=3|49=EXC|56=013|52=20190530-16:44:55.000|10=172|
8=FIX.4.4|9=59|35=0|34=3|49=013|50=013B17|52=20190530-16:44:55.004|56=EXC|10=050|
8=FIX.4.4|9=0049|35=0|34=4|49=EXC|56=013|52=20190530-16:45:25.000|10=171|
8=FIX.4.4|9=59|35=0|34=4|49=013|50=013B17|52=20190530-16:45:24.995|56=EXC|10=067|
8=FIX.4.4|9=110|35=A|34=1|49=013|50=013B17|52=20190530-16:45:30.001|56=EXC|43=Y|98=0|108=30|141=Y|553=013FCM001|554=013FCM001|10=077|
8=FIX.4.4|9=110|35=A|34=1|49=013|50=013B17|52=20190530-17:01:33.113|56=EXC|43=Y|98=0|108=30|141=Y|553=013FCM001|554=013FCM001|10=077|
8=FIX.4.4|9=0067|35=A|34=1|49=EXC|56=013|52=20190530-17:01:33.512|98=0|108=30|141=Y|10=255|
8=FIX.4.4|9=0049|35=0|34=2|49=EXC|56=013|52=20190530-17:02:03.000|10=159|
8=FIX.4.4|9=59|35=0|34=2|49=013|50=013B17|52=20190530-17:02:04.113|56=EXC|10=039|
8=FIX.4.4|9=0049|35=0|34=3|49=EXC|56=013|52=20190530-17:02:33.000|10=163|
8=FIX.4.4|9=59|35=0|34=3|49=013|50=013B17|52=20190530-17:02:34.104|56=EXC|10=043|
8=FIX.4.4|9=0049|35=0|34=4|49=EXC|56=013|52=20190530-17:03:03.000|10=162|
8=FIX.4.4|9=59|35=0|34=4|49=013|50=013B17|52=20190530-17:03:04.106|56=EXC|10=044|
8=FIX.4.4|9=0049|35=0|34=5|49=EXC|56=013|52=20190530-17:03:33.000|10=166|
8=FIX.4.4|9=59|35=0|34=5|49=013|50=013B17|52=20190530-17:03:34.100|56=EXC|10=042|
8=FIX.4.4|9=0049|35=0|34=6|49=EXC|56=013|52=20190530-17:04:03.000|10=165|
8=FIX.4.4|9=59|35=0|34=6|49=013|50=013B17|52=20190530-17:04:04.107|56=EXC|10=048|
8=FIX.4.4|9=0049|35=0|34=7|49=EXC|56=013|52=20190530-17:04:33.000|10=169|
8=FIX.4.4|9=59|35=0|34=7|49=013|50=013B17|52=20190530-17:04:34.104|56=EXC|10=049|
8=FIX.4.4|9=0049|35=0|34=8|49=EXC|56=013|52=20190530-17:05:03.000|10=168|
8=FIX.4.4|9=59|35=0|34=8|49=013|50=013B17|52=20190530-17:05:04.099|56=EXC|10=061|
8=FIX.4.4|9=0049|35=0|34=9|49=EXC|56=013|52=20190530-17:05:33.000|10=172|
8=FIX.4.4|9=59|35=0|34=9|49=013|50=013B17|52=20190530-17:05:34.108|56=EXC|10=056|
8=FIX.4.4|9=0050|35=0|34=10|49=EXC|56=013|52=20190530-17:06:03.000|10=202|
8=FIX.4.4|9=60|35=0|34=10|49=013|50=013B17|52=20190530-17:06:04.106|56=EXC|10=084|
8=FIX.4.4|9=0050|35=0|34=11|49=EXC|56=013|52=20190530-17:06:33.000|10=206|
8=FIX.4.4|9=60|35=0|34=11|49=013|50=013B17|52=20190530-17:06:34.108|56=EXC|10=090|
8=FIX.4.4|9=0050|35=0|34=12|49=EXC|56=013|52=20190530-17:07:03.000|10=205|
8=FIX.4.4|9=60|35=0|34=12|49=013|50=013B17|52=20190530-17:07:04.109|56=EXC|10=090|
8=FIX.4.4|9=0050|35=0|34=13|49=EXC|56=013|52=20190530-17:07:33.000|10=209|
8=FIX.4.4|9=60|35=0|34=13|49=013|50=013B17|52=20190530-17:07:34.112|56=EXC|10=088|
8=FIX.4.4|9=0050|35=0|34=14|49=EXC|56=013|52=20190530-17:08:03.000|10=208|
8=FIX.4.4|9=60|35=0|34=14|49=013|50=013B17|52=20190530-17:08:04.110|56=EXC|10=085|
8=FIX.4.4|9=0050|35=0|34=15|49=EXC|56=013|52=20190530-17:08:33.000|10=212|
8=FIX.4.4|9=60|35=0|34=15|49=013|50=013B17|52=20190530-17:08:34.109|56=EXC|10=097|
8=FIX.4.4|9=0050|35=0|34=16|49=EXC|56=013|52=20190530-17:09:03.000|10=211|
8=FIX.4.4|9=60|35=0|34=16|49=013|50=013B17|52=20190530-17:09:04.113|56=EXC|10=091|
8=FIX.4.4|9=0050|35=0|34=17|49=EXC|56=013|52=20190530-17:09:33.000|10=215|
8=FIX.4.4|9=60|35=0|34=17|49=013|50=013B17|52=20190530-17:09:34.107|56=EXC|10=098|
8=FIX.4.4|9=0050|35=0|34=18|49=EXC|56=013|52=20190530-17:10:03.000|10=205|
8=FIX.4.4|9=60|35=0|34=18|49=013|50=013B17|52=20190530-17:10:04.105|56=EXC|10=086|
8=FIX.4.4|9=0050|35=0|34=19|49=EXC|56=013|52=20190530-17:10:33.000|10=209|
8=FIX.4.4|9=60|35=0|34=19|49=013|50=013B17|52=20190530-17:10:34.112|56=EXC|10=088|
8=FIX.4.4|9=0050|35=0|34=20|49=EXC|56=013|52=20190530-17:11:03.000|10=199|
8=FIX.4.4|9=60|35=0|34=20|49=013|50=013B17|52=20190530-17:11:04.113|56=EXC|10=079|
8=FIX.4.4|9=110|35=A|34=1|49=013|50=013B17|52=20190530-17:13:02.562|56=EXC|43=Y|98=0|108=30|141=Y|553=013FCM001|554=013FCM001|10=084|
8=FIX.4.4|9=0067|35=A|34=1|49=EXC|56=013|52=20190530-17:13:02.624|98=0|108=30|141=Y|10=002|
8=FIX.4.4|9=110|35=A|34=1|49=013|50=013B17|52=20190530-17:27:42.317|56=EXC|43=Y|98=0|108=30|141=Y|553=013FCM001|554=013FCM001|10=091|
8=FIX.4.4|9=0067|35=A|34=1|49=EXC|56=013|52=20190530-17:27:42.124|98=0|108=30|141=Y|10=006|
8=FIX.4.4|9=0049|35=0|34=2|49=EXC|56=013|52=20190530-17:28:12.000|10=167|
8=FIX.4.4|9=59|35=0|34=2|49=013|50=013B17|52=20190530-17:28:13.240|56=EXC|10=048|
8=FIX.4.4|9=0049|35=0|34=3|49=EXC|56=013|52=20190530-17:28:42.000|10=171|
8=FIX.4.4|9=59|35=0|34=3|49=013|50=013B17|52=20190530-17:28:43.260|56=EXC|10=054|
8=FIX.4.4|9=110|35=A|34=1|49=013|50=013B17|52=20190530-21:57:11.317|56=EXC|43=Y|98=0|108=30|141=Y|553=013FCM001|554=013FCM001|10=085|
8=FIX.4.4|9=0067|35=A|34=1|49=EXC|56=013|52=20190530-21:57:11.437|98=0|108=30|141=Y|10=007|
8=FIX.4.4|9=0049|35=0|34=2|49=EXC|56=013|52=20190530-21:57:41.000|10=166|
8=FIX.4.4|9=59|35=0|34=2|49=013|50=013B17|52=20190530-21:57:41.985|56=EXC|10=062|
8=FIX.4.4|9=0049|35=0|34=3|49=EXC|56=013|52=20190530-21:58:11.000|10=165|
8=FIX.4.4|9=59|35=0|34=3|49=013|50=013B17|52=20190530-21:58:12.983|56=EXC|10=060|
8=FIX.4.4|9=110|35=A|34=1|49=013|50=013B17|52=20190530-22:09:04.592|56=EXC|43=Y|98=0|108=30|141=Y|553=013FCM001|554=013FCM001|10=090|
8=FIX.4.4|9=0067|35=A|34=1|49=EXC|56=013|52=20190530-22:09:04.919|98=0|108=30|141=Y|10=012|
8=FIX.4.4|9=0049|35=0|34=2|49=EXC|56=013|52=20190530-22:09:34.000|10=166|
8=FIX.4.4|9=59|35=0|34=2|49=013|50=013B17|52=20190530-22:09:35.522|56=EXC|10=050|
8=FIX.4.4|9=0049|35=0|34=3|49=EXC|56=013|52=20190530-22:10:04.000|10=156|
8=FIX.4.4|9=59|35=0|34=3|49=013|50=013B17|52=20190530-22:10:06.506|56=EXC|10=043|
8=FIX.4.4|9=0049|35=0|34=4|49=EXC|56=013|52=20190530-22:10:34.000|10=160|
8=FIX.4.4|9=59|35=0|34=4|49=013|50=013B17|52=20190530-22:10:36.508|56=EXC|10=049|
8=FIX.4.4|9=0049|35=0|34=5|49=EXC|56=013|52=20190530-22:11:04.000|10=159|
8=FIX.4.4|9=59|35=0|34=5|49=013|50=013B17|52=20190530-22:11:06.517|56=EXC|10=048|
8=FIX.4.4|9=0049|35=0|34=6|49=EXC|56=013|52=20190530-22:11:34.000|10=163|
8=FIX.4.4|9=59|35=0|34=6|49=013|50=013B17|52=20190530-22:11:36.515|56=EXC|10=050|
8=FIX.4.4|9=0049|35=0|34=7|49=EXC|56=013|52=20190530-22:12:04.000|10=162|
8=FIX.4.4|9=59|35=0|34=7|49=013|50=013B17|52=20190530-22:12:06.508|56=EXC|10=051|
8=FIX.4.4|9=0049|35=0|34=8|49=EXC|56=013|52=20190530-22:12:34.000|10=166|
8=FIX.4.4|9=59|35=0|34=8|49=013|50=013B17|52=20190530-22:12:36.507|56=EXC|10=054|
8=FIX.4.4|9=0049|35=0|34=9|49=EXC|56=013|52=20190530-22:13:04.000|10=165|
8=FIX.4.4|9=59|35=0|34=9|49=013|50=013B17|52=20190530-22:13:06.507|56=EXC|10=053|
8=FIX.4.4|9=110|35=A|34=1|49=013|50=013B17|52=20190606-15:06:28.862|56=EXC|43=Y|98=0|108=30|141=Y|553=013FCM001|554=013FCM001|10=099|
8=FIX.4.4|9=0067|35=A|34=1|49=EXC|56=013|52=20190606-15:06:28.923|98=0|108=30|141=Y|10=016|
8=FIX.4.4|9=110|35=A|34=1|49=013|50=013B17|52=20190606-15:21:23.747|56=EXC|43=Y|98=0|108=30|141=Y|553=013FCM001|554=013FCM001|10=093|
8=FIX.4.4|9=0067|35=A|34=1|49=EXC|56=013|52=20190606-15:21:23.792|98=0|108=30|141=Y|10=012|
8=FIX.4.4|9=0049|35=0|34=2|49=EXC|56=013|52=20190606-15:21:53.000|10=167|
8=FIX.4.4|9=59|35=0|34=2|49=013|50=013B17|52=20190606-15:21:54.674|56=EXC|10=059|
8=FIX.4.4|9=110|35=A|34=1|49=013|50=013B17|52=20190606-15:23:19.069|56=EXC|43=Y|98=0|108=30|141=Y|553=013FCM001|554=013FCM001|10=097|
8=FIX.4.4|9=0067|35=A|34=1|49=EXC|56=013|52=20190606-15:23:19.105|98=0|108=30|141=Y|10=007|
8=FIX.4.4|9=110|35=A|34=1|49=013|50=013B17|52=20190606-15:32:30.023|56=EXC|43=Y|98=0|108=30|141=Y|553=013FCM001|554=013FCM001|10=080|
8=FIX.4.4|9=0067|35=A|34=1|49=EXC|56=013|52=20190606-15:32:30.050|98=0|108=30|141=Y|10=255|
8=FIX.4.4|9=110|35=A|34=1|49=013|50=013B17|52=20190606-15:52:40.708|56=EXC|43=Y|98=0|108=30|141=Y|553=013FCM001|554=013FCM001|10=093|
8=FIX.4.4|9=0067|35=A|34=1|49=EXC|56=013|52=20190606-15:52:40.780|98=0|108=30|141=Y|10=012|
8=FIX.4.4|9=110|35=A|34=1|49=013|50=013B17|52=20190606-15:56:46.046|56=EXC|43=Y|98=0|108=30|141=Y|553=013FCM001|554=013FCM001|10=098|
8=FIX.4.4|9=0067|35=A|34=1|49=EXC|56=013|52=20190606-15:56:46.075|98=0|108=30|141=Y|10=019|
8=FIX.4.4|9=110|35=A|34=1|49=013|50=013B17|52=20190606-15:59:04.887|56=EXC|43=Y|98=0|108=30|141=Y|553=013FCM001|554=013FCM001|10=108|
8=FIX.4.4|9=0067|35=A|34=1|49=EXC|56=013|52=20190606-15:59:04.914|98=0|108=30|141=Y|10=018|
8=FIX.4.4|9=110|35=A|34=1|49=013|50=013B17|52=20190606-15:59:39.690|56=EXC|43=Y|98=0|108=30|141=Y|553=013FCM001|554=013FCM001|10=108|
8=FIX.4.4|9=0067|35=A|34=1|49=EXC|56=013|52=20190606-15:59:39.730|98=0|108=30|141=Y|10=022|
8=FIX.4.4|9=110|35=A|34=1|49=013|50=013B17|52=20190606-15:59:59.612|56=EXC|43=Y|98=0|108=30|141=Y|553=013FCM001|554=013FCM001|10=104|
8=FIX.4.4|9=0067|35=A|34=1|49=EXC|56=013|52=20190606-15:59:59.648|98=0|108=30|141=Y|10=032|
8=FIX.4.4|9=110|35=A|34=1|49=013|50=013B17|52=20190606-16:10:28.424|56=EXC|43=Y|98=0|108=30|141=Y|553=013FCM001|554=013FCM001|10=089|
8=FIX.4.4|9=0067|35=A|34=1|49=EXC|56=013|52=20190606-16:10:28.474|98=0|108=30|141=Y|10=013|
8=FIX.4.4|9=0192|35=R|34=2|49=EXC|56=013|52=20190606-16:10:30.602|131=20190606-000000000006.00|146=1|55=TFIT15260826|762=RFQF|48=20348|22=M|54=1|38=1500000000|453=2|448=001B27|447=C|452=12|448=001|447=C|452=1|10=229|
8=FIX.4.4|9=110|35=A|34=1|49=013|50=013B17|52=20190606-16:26:36.619|56=EXC|43=Y|98=0|108=30|141=Y|553=013FCM001|554=013FCM001|10=101|
8=FIX.4.4|9=0067|35=A|34=1|49=EXC|56=013|52=20190606-16:26:36.654|98=0|108=30|141=Y|10=019|
8=FIX.4.4|9=0192|35=R|34=2|49=EXC|56=013|52=20190606-16:26:38.838|131=20190606-000000000007.00|146=1|55=TFIT15260826|762=RFQF|48=20348|22=M|54=1|38=1500000000|453=2|448=001B27|447=C|452=12|448=001|447=C|452=1|10=000|
8=FIX.4.4|9=110|35=A|34=1|49=013|50=013B17|52=20190606-18:54:40.613|56=EXC|43=Y|98=0|108=30|141=Y|553=013FCM001|554=013FCM001|10=093|
8=FIX.4.4|9=0067|35=A|34=1|49=EXC|56=013|52=20190606-18:54:40.652|98=0|108=30|141=Y|10=015|
8=FIX.4.4|9=0192|35=R|34=2|49=EXC|56=013|52=20190606-18:54:42.872|131=20190606-000000000008.00|146=1|55=TFIT15260826|762=RFQF|48=20348|22=M|54=1|38=1500000000|453=2|448=001B27|447=C|452=12|448=001|447=C|452=1|10=253|
8=FIX.4.4|9=59|35=0|34=2|49=013|50=013B17|52=20190606-18:55:11.559|56=EXC|10=064|
8=FIX.4.4|9=0049|35=0|34=3|49=EXC|56=013|52=20190606-18:55:12.000|10=173|
8=FIX.4.4|9=59|35=0|34=3|49=013|50=013B17|52=20190606-18:55:41.559|56=EXC|10=068|
8=FIX.4.4|9=0049|35=0|34=4|49=EXC|56=013|52=20190606-18:55:42.000|10=177|
8=FIX.4.4|9=110|35=A|34=1|49=013|50=013B17|52=20190606-19:24:56.502|56=EXC|43=Y|98=0|108=30|141=Y|553=013FCM001|554=013FCM001|10=095|
8=FIX.4.4|9=0067|35=A|34=1|49=EXC|56=013|52=20190606-19:24:56.538|98=0|108=30|141=Y|10=023|
8=FIX.4.4|9=0192|35=R|34=2|49=EXC|56=013|52=20190606-19:24:58.722|131=20190606-000000000009.00|146=1|55=TFIT15260826|762=RFQF|48=20348|22=M|54=1|38=1500000000|453=2|448=001B27|447=C|452=12|448=001|447=C|452=1|10=253|
8=FIX.4.4|9=0183|35=R|34=3|49=EXC|56=013|52=20190606-19:25:04.916|131=20190606-000000000009.00|146=1|55=TFIT15260826|762=RFQF|48=20348|22=M|54=1|38=0|453=2|448=001B27|447=C|452=12|448=001|447=C|452=1|10=069|
8=FIX.4.4|9=68|35=2|34=2|49=013|50=013B17|52=20190606-19:25:04.935|56=EXC|7=2|16=0|10=188|
8=FIX.4.4|9=0223|35=R|34=2|43=Y|52=20190606-19:25:04.939|49=EXC|56=013|122=20190606-19:24:58.722|131=20190606-000000000009.00|146=1|55=TFIT15260826|762=RFQF|48=20348|22=M|54=1|38=1500000000|453=2|448=001B27|447=C|452=12|448=001|447=C|452=1|10=010|
8=FIX.4.4|9=0214|35=R|34=3|43=Y|52=20190606-19:25:04.939|49=EXC|56=013|122=20190606-19:25:04.916|131=20190606-000000000009.00|146=1|55=TFIT15260826|762=RFQF|48=20348|22=M|54=1|38=0|453=2|448=001B27|447=C|452=12|448=001|447=C|452=1|10=082|
8=FIX.4.4|9=0054|35=4|34=4|49=EXC|56=013|52=20190606-19:25:04.939|36=5|10=158|
8=FIX.4.4|9=110|35=A|34=1|49=013|50=013B17|52=20190606-19:37:19.896|56=EXC|43=Y|98=0|108=30|141=Y|553=013FCM001|554=013FCM001|10=114|
8=FIX.4.4|9=0067|35=A|34=1|49=EXC|56=013|52=20190606-19:37:19.928|98=0|108=30|141=Y|10=029|
8=FIX.4.4|9=110|35=A|34=1|49=013|50=013B17|52=20190606-19:38:52.346|56=EXC|43=Y|98=0|108=30|141=Y|553=013FCM001|554=013FCM001|10=102|
8=FIX.4.4|9=0067|35=A|34=1|49=EXC|56=013|52=20190606-19:38:52.377|98=0|108=30|141=Y|10=025|
8=FIX.4.4|9=0192|35=R|34=2|49=EXC|56=013|52=20190606-19:38:54.656|131=20190606-000000000011.00|146=1|55=TFIT15260826|762=RFQF|48=20348|22=M|54=1|38=1500000000|453=2|448=001B27|447=C|452=12|448=001|447=C|452=1|10=253|
8=FIX.4.4|9=0183|35=R|34=3|49=EXC|56=013|52=20190606-19:39:00.393|131=20190606-000000000011.00|146=1|55=TFIT15260826|762=RFQF|48=20348|22=M|54=1|38=0|453=2|448=001B27|447=C|452=12|448=001|447=C|452=1|10=062|
8=FIX.4.4|9=68|35=2|34=2|49=013|50=013B17|52=20190606-19:39:00.412|56=EXC|7=2|16=0|10=179|
8=FIX.4.4|9=0223|35=R|34=2|43=Y|52=20190606-19:39:00.416|49=EXC|56=013|122=20190606-19:38:54.656|131=20190606-000000000011.00|146=1|55=TFIT15260826|762=RFQF|48=20348|22=M|54=1|38=1500000000|453=2|448=001B27|447=C|452=12|448=001|447=C|452=1|10=001|
8=FIX.4.4|9=0214|35=R|34=3|43=Y|52=20190606-19:39:00.416|49=EXC|56=013|122=20190606-19:39:00.393|131=20190606-000000000011.00|146=1|55=TFIT15260826|762=RFQF|48=20348|22=M|54=1|38=0|453=2|448=001B27|447=C|452=12|448=001|447=C|452=1|10=066|
8=FIX.4.4|9=0054|35=4|34=4|49=EXC|56=013|52=20190606-19:39:00.416|36=5|10=149|
8=FIX.4.4|9=68|35=2|34=3|49=013|50=013B17|52=20190606-19:39:05.468|56=EXC|7=2|16=0|10=196|
8=FIX.4.4|9=0223|35=R|34=2|43=Y|52=20190606-19:39:05.470|49=EXC|56=013|122=20190606-19:38:54.656|131=20190606-000000000011.00|146=1|55=TFIT15260826|762=RFQF|48=20348|22=M|54=1|38=1500000000|453=2|448=001B27|447=C|452=12|448=001|447=C|452=1|10=006|
8=FIX.4.4|9=0214|35=R|34=3|43=Y|52=20190606-19:39:05.470|49=EXC|56=013|122=20190606-19:39:00.393|131=20190606-000000000011.00|146=1|55=TFIT15260826|762=RFQF|48=20348|22=M|54=1|38=0|453=2|448=001B27|447=C|452=12|448=001|447=C|452=1|10=071|
8=FIX.4.4|9=0065|35=4|34=4|43=Y|49=EXC|56=013|52=20190606-19:39:05.470|123=Y|36=5|10=199|
8=FIX.4.4|9=0054|35=4|34=5|49=EXC|56=013|52=20190606-19:39:05.470|36=6|10=156|
8=FIX.4.4|9=110|35=A|34=1|49=013|50=013B17|52=20190606-20:14:15.673|56=EXC|43=Y|98=0|108=30|141=Y|553=013FCM001|554=013FCM001|10=090|
8=FIX.4.4|9=0067|35=A|34=1|49=EXC|56=013|52=20190606-20:14:15.714|98=0|108=30|141=Y|10=005|
8=FIX.4.4|9=0049|35=0|34=2|49=EXC|56=013|52=20190606-20:14:45.000|10=166|
8=FIX.4.4|9=59|35=0|34=2|49=013|50=013B17|52=20190606-20:14:46.243|56=EXC|10=050|
8=FIX.4.4|9=110|35=A|34=1|49=013|50=013B17|52=20190606-20:19:00.816|56=EXC|43=Y|98=0|108=30|141=Y|553=013FCM001|554=013FCM001|10=088|
8=FIX.4.4|9=0067|35=A|34=1|49=EXC|56=013|52=20190606-20:19:00.861|98=0|108=30|141=Y|10=007|
8=FIX.4.4|9=110|35=A|34=1|49=013|50=013B17|52=20190606-20:22:19.504|56=EXC|43=Y|98=0|108=30|141=Y|553=013FCM001|554=013FCM001|10=086|
8=FIX.4.4|9=0067|35=A|34=1|49=EXC|56=013|52=20190606-20:22:19.576|98=0|108=30|141=Y|10=014|
8=FIX.4.4|9=110|35=A|34=1|49=013|50=013B17|52=20190606-20:25:08.368|56=EXC|43=Y|98=0|108=30|141=Y|553=013FCM001|554=013FCM001|10=095|
8=FIX.4.4|9=0067|35=A|34=1|49=EXC|56=013|52=20190606-20:25:08.403|98=0|108=30|141=Y|10=004|
8=FIX.4.4|9=0049|35=0|34=2|49=EXC|56=013|52=20190606-20:25:38.000|10=170|
8=FIX.4.4|9=59|35=0|34=2|49=013|50=013B17|52=20190606-20:25:39.299|56=EXC|10=065|
8=FIX.4.4|9=110|35=A|34=1|49=013|50=013B17|52=20190606-20:27:32.385|56=EXC|43=Y|98=0|108=30|141=Y|553=013FCM001|554=013FCM001|10=093|
8=FIX.4.4|9=0067|35=A|34=1|49=EXC|56=013|52=20190606-20:27:32.536|98=0|108=30|141=Y|10=010|
8=FIX.4.4|9=0191|35=R|34=2|49=EXC|56=013|52=20190606-20:27:32.618|131=20190606-000000000012.00|146=1|55=TFIC14280426|762=RFQF|48=20602|22=M|54=1|38=500000000|453=2|448=001B27|447=C|452=12|448=001|447=C|452=1|10=161|
8=FIX.4.4|9=0191|35=R|34=3|49=EXC|56=013|52=20190606-20:27:34.029|131=20190606-000000000013.00|146=1|55=TFIC14280426|762=RFQF|48=20602|22=M|54=1|38=500000000|453=2|448=001B27|447=C|452=12|448=001|447=C|452=1|10=161|
8=FIX.4.4|9=68|35=2|34=2|49=013|50=013B17|52=20190606-20:27:37.750|56=EXC|7=2|16=0|10=183|
8=FIX.4.4|9=0222|35=R|34=2|43=Y|52=20190606-20:27:37.766|49=EXC|56=013|122=20190606-20:27:32.618|131=20190606-000000000012.00|146=1|55=TFIC14280426|762=RFQF|48=20602|22=M|54=1|38=500000000|453=2|448=001B27|447=C|452=12|448=001|447=C|452=1|10=172|
8=FIX.4.4|9=0222|35=R|34=3|43=Y|52=20190606-20:27:37.766|49=EXC|56=013|122=20190606-20:27:34.029|131=20190606-000000000013.00|146=1|55=TFIC14280426|762=RFQF|48=20602|22=M|54=1|38=500000000|453=2|448=001B27|447=C|452=12|448=001|447=C|452=1|10=172|
8=FIX.4.4|9=0054|35=4|34=4|49=EXC|56=013|52=20190606-20:27:37.766|36=5|10=156|
8=FIX.4.4|9=68|35=2|34=3|49=013|50=013B17|52=20190606-20:27:42.888|56=EXC|7=2|16=0|10=192|
8=FIX.4.4|9=0222|35=R|34=2|43=Y|52=20190606-20:27:42.875|49=EXC|56=013|122=20190606-20:27:32.618|131=20190606-000000000012.00|146=1|55=TFIC14280426|762=RFQF|48=20602|22=M|54=1|38=500000000|453=2|448=001B27|447=C|452=12|448=001|447=C|452=1|10=169|
8=FIX.4.4|9=0222|35=R|34=3|43=Y|52=20190606-20:27:42.875|49=EXC|56=013|122=20190606-20:27:34.029|131=20190606-000000000013.00|146=1|55=TFIC14280426|762=RFQF|48=20602|22=M|54=1|38=500000000|453=2|448=001B27|447=C|452=12|448=001|447=C|452=1|10=169|
8=FIX.4.4|9=0065|35=4|34=4|43=Y|49=EXC|56=013|52=20190606-20:27:42.875|123=Y|36=5|10=198|
8=FIX.4.4|9=0054|35=4|34=5|49=EXC|56=013|52=20190606-20:27:42.876|36=6|10=156|
8=FIX.4.4|9=110|35=A|34=1|49=013|50=013B17|52=20190606-20:52:00.683|56=EXC|43=Y|98=0|108=30|141=Y|553=013FCM001|554=013FCM001|10=087|
8=FIX.4.4|9=0067|35=A|34=1|49=EXC|56=013|52=20190606-20:52:00.714|98=0|108=30|141=Y|10=001|
