8=FIX.4.4|9=110|35=A|34=1|49=007|50=007B26|52=20190607-14:13:04.998|56=EXC|43=Y|98=0|108=30|141=Y|553=007FCE001|554=007FCE001|10=097|
8=FIX.4.4|9=0067|35=A|34=1|49=EXC|56=007|52=20190607-14:13:05.061|98=0|108=30|141=Y|10=005|
8=FIX.4.4|9=0192|35=R|34=2|49=EXC|56=007|52=20190607-14:13:07.262|131=20190607-000000000012.00|146=1|55=TFIT15260826|762=RFQF|48=20348|22=M|54=1|38=1500000000|453=2|448=001B27|447=C|452=12|448=001|447=C|452=1|10=238|
8=FIX.4.4|9=110|35=A|34=1|49=007|50=007B26|52=20190607-15:35:43.267|56=EXC|43=Y|98=0|108=30|141=Y|553=007FCE001|554=007FCE001|10=094|
8=FIX.4.4|9=0067|35=A|34=1|49=EXC|56=007|52=20190607-15:35:43.321|98=0|108=30|141=Y|10=011|
8=FIX.4.4|9=110|35=A|34=1|49=007|50=007B26|52=20190607-16:16:18.279|56=EXC|43=Y|98=0|108=30|141=Y|553=007FCE001|554=007FCE001|10=099|
8=FIX.4.4|9=0067|35=A|34=1|49=EXC|56=007|52=20190607-16:16:18.378|98=0|108=30|141=Y|10=025|
8=FIX.4.4|9=110|35=A|34=1|49=007|50=007B26|52=20190607-16:39:55.160|56=EXC|43=Y|98=0|108=30|141=Y|553=007FCE001|554=007FCE001|10=094|
8=FIX.4.4|9=0067|35=A|34=1|49=EXC|56=007|52=20190607-16:39:55.205|98=0|108=30|141=Y|10=020|
8=FIX.4.4|9=110|35=A|34=1|49=007|50=007B26|52=20190607-16:43:05.110|56=EXC|43=Y|98=0|108=30|141=Y|553=007FCE001|554=007FCE001|10=079|
8=FIX.4.4|9=0067|35=A|34=1|49=EXC|56=007|52=20190607-16:43:05.175|98=0|108=30|141=Y|10=016|
8=FIX.4.4|9=110|35=A|34=1|49=007|50=007B26|52=20190607-16:44:16.310|56=EXC|43=Y|98=0|108=30|141=Y|553=007FCE001|554=007FCE001|10=084|
8=FIX.4.4|9=0067|35=A|34=1|49=EXC|56=007|52=20190607-16:44:16.342|98=0|108=30|141=Y|10=015|
8=FIX.4.4|9=110|35=A|34=1|49=007|50=007B26|52=20190607-16:47:05.190|56=EXC|43=Y|98=0|108=30|141=Y|553=007FCE001|554=007FCE001|10=091|
8=FIX.4.4|9=0067|35=A|34=1|49=EXC|56=007|52=20190607-16:47:05.246|98=0|108=30|141=Y|10=019|
8=FIX.4.4|9=154|35=R|34=2|49=007|50=007B26|52=20190607-16:47:07.489|56=EXC|131=61947059|146=1|55=TFIT15260826|22=M|762=RFQF|54=1|38=1500000000|453=1|448=DCV|447=C|452=10|10=032|
8=FIX.4.4|9=0236|35=AI|34=2|49=EXC|56=007|57=007B26|52=20190607-16:47:07.473|131=61947059|453=4|448=DCV|447=C|452=10|448=007B26|447=C|452=12|448=007|447=C|452=1|448=007FCE001|447=C|452=36|55=TFIT15260826|762=RFQF|48=20348|22=M|54=1|38=1500000000|297=10|10=190|
8=FIX.4.4|9=0192|35=R|34=3|49=EXC|56=007|52=20190607-16:47:07.473|131=20190607-000000000033.00|146=1|55=TFIT15260826|762=RFQF|48=20348|22=M|54=1|38=1500000000|453=2|448=007B26|447=C|452=12|448=007|447=C|452=1|10=010|
8=FIX.4.4|9=110|35=A|34=1|49=007|50=007B26|52=20190607-16:53:12.249|56=EXC|43=Y|98=0|108=30|141=Y|553=007FCE001|554=007FCE001|10=091|
8=FIX.4.4|9=0067|35=A|34=1|49=EXC|56=007|52=20190607-16:53:12.306|98=0|108=30|141=Y|10=011|
8=FIX.4.4|9=110|35=A|34=1|49=007|50=007B26|52=20190607-17:01:26.136|56=EXC|43=Y|98=0|108=30|141=Y|553=007FCE001|554=007FCE001|10=085|
8=FIX.4.4|9=0067|35=A|34=1|49=EXC|56=007|52=20190607-17:01:26.167|98=0|108=30|141=Y|10=015|
8=FIX.4.4|9=154|35=R|34=2|49=007|50=007B26|52=20190607-17:01:28.266|56=EXC|131=44232973|146=1|55=TFIT15260826|22=M|762=RFQF|54=1|38=1500000000|453=1|448=DCV|447=C|452=10|10=012|
8=FIX.4.4|9=0236|35=AI|34=2|49=EXC|56=007|57=007B26|52=20190607-17:01:28.235|131=44232973|453=4|448=DCV|447=C|452=10|448=007B26|447=C|452=12|448=007|447=C|452=1|448=007FCE001|447=C|452=36|55=TFIT15260826|762=RFQF|48=20348|22=M|54=1|38=1500000000|297=10|10=173|
8=FIX.4.4|9=0192|35=R|34=3|49=EXC|56=007|52=20190607-17:01:28.235|131=20190607-000000000037.00|146=1|55=TFIT15260826|762=RFQF|48=20348|22=M|54=1|38=1500000000|453=2|448=007B26|447=C|452=12|448=007|447=C|452=1|10=004|
