8=FIX.4.4|9=110|35=A|34=1|49=002|50=002B35|52=20190611-15:51:59.829|56=EXC|43=Y|98=0|108=30|141=Y|553=002FCM001|554=002FCM001|10=094|
8=FIX.4.4|9=0067|35=A|34=1|49=EXC|56=002|52=20190611-15:51:59.831|98=0|108=30|141=Y|10=012|
8=FIX.4.4|9=0226|35=R|34=2|49=EXC|56=002|57=002B35|52=20190611-15:52:02.087|131=20190611-000000000041.00|146=1|55=TFIT16280428|762=RFQF|48=20399|22=M|54=1|38=1000000000|453=3|448=001B27|447=C|452=12|448=001|447=C|452=1|448=002B35|447=C|452=37|10=073|
8=FIX.4.4|9=202|35=S|34=2|49=002|50=002B35|52=20190611-15:52:18.003|56=EXC|55=TFIT16280428|62=20190617-22:00:00.000|117=36458338|131=20190611-000000000041.00|135=1000000000|634=3|762=RFQF|453=1|448=001B27|447=C|452=12|10=236|
8=FIX.4.4|9=0235|35=AI|34=3|49=EXC|56=002|57=002B35|52=20190611-15:52:17.971|117=36458338|453=1|448=001B27|447=C|452=12|55=TFIT16280428|762=RFQF|135=1000000000|62=20190617-22:00:00.000|297=9|300=99|58=(1625): PartyRole(#452) invalido, tipo de rol '12'|10=207|
8=FIX.4.4|9=78|35=Z|34=3|49=002|50=002B35|52=20190611-15:52:39.088|56=EXC|117=36458338|298=5|10=250|
8=FIX.4.4|9=0139|35=AI|34=4|49=EXC|56=002|57=002B35|52=20190611-15:52:39.056|117=36458338|298=5|55=Unknown|297=9|300=99|58=(333): ID de cotización inválida|10=163|
8=FIX.4.4|9=0191|35=R|34=5|49=EXC|56=002|52=20190611-15:52:49.887|131=20190611-000000000042.00|146=1|55=TFIT16300632|762=RFQF|48=20406|22=M|54=1|38=500000000|453=2|448=001B27|447=C|452=12|448=001|447=C|452=1|10=188|
8=FIX.4.4|9=110|35=A|34=1|49=002|50=002B35|52=20190611-18:56:22.002|56=EXC|43=Y|98=0|108=30|141=Y|553=002FCM001|554=002FCM001|10=075|
8=FIX.4.4|9=0067|35=A|34=1|49=EXC|56=002|52=20190611-18:56:21.872|98=0|108=30|141=Y|10=014|
8=FIX.4.4|9=0226|35=R|34=2|49=EXC|56=002|57=002B35|52=20190611-18:56:24.367|131=20190611-000000000051.00|146=1|55=TFIT16280428|762=RFQF|48=20399|22=M|54=1|38=1000000000|453=3|448=001B27|447=C|452=12|448=001|447=C|452=1|448=002B35|447=C|452=37|10=086|
8=FIX.4.4|9=110|35=A|34=1|49=002|50=002B35|52=20190611-19:22:23.039|56=EXC|43=Y|98=0|108=30|141=Y|553=002FCM001|554=002FCM001|10=080|
8=FIX.4.4|9=0067|35=A|34=1|49=EXC|56=002|52=20190611-19:22:23.072|98=0|108=30|141=Y|10=002|
8=FIX.4.4|9=0226|35=R|34=2|49=EXC|56=002|57=002B35|52=20190611-19:22:25.398|131=20190611-000000000057.00|146=1|55=TFIT16280428|762=RFQF|48=20399|22=M|54=1|38=1000000000|453=3|448=001B27|447=C|452=12|448=001|447=C|452=1|448=002B35|447=C|452=37|10=091|
8=FIX.4.4|9=110|35=A|34=1|49=002|50=002B35|52=20190611-19:23:57.992|56=EXC|43=Y|98=0|108=30|141=Y|553=002FCM001|554=002FCM001|10=096|
8=FIX.4.4|9=0067|35=A|34=1|49=EXC|56=002|52=20190611-19:23:58.030|98=0|108=30|141=Y|10=005|
8=FIX.4.4|9=0226|35=R|34=2|49=EXC|56=002|57=002B35|52=20190611-19:24:00.528|131=20190611-000000000058.00|146=1|55=TFIT16280428|762=RFQF|48=20399|22=M|54=1|38=1000000000|453=3|448=001B27|447=C|452=12|448=001|447=C|452=1|448=002B35|447=C|452=37|10=082|
8=FIX.4.4|9=201|35=S|34=2|49=002|50=002B35|52=20190611-19:24:16.487|56=EXC|55=TFIT16280428|62=20190617-22:00:00.000|117=9166748|131=20190611-000000000058.00|135=1000000000|634=3|762=RFQF|453=1|448=001B27|447=C|452=12|10=213|
8=FIX.4.4|9=0234|35=AI|34=3|49=EXC|56=002|57=002B35|52=20190611-19:24:16.487|117=9166748|453=1|448=001B27|447=C|452=12|55=TFIT16280428|762=RFQF|135=1000000000|62=20190617-22:00:00.000|297=9|300=99|58=(1625): PartyRole(#452) invalido, tipo de rol '12'|10=163|
8=FIX.4.4|9=110|35=A|34=1|49=002|50=002B35|52=20190611-19:26:32.338|56=EXC|43=Y|98=0|108=30|141=Y|553=002FCM001|554=002FCM001|10=086|
8=FIX.4.4|9=0067|35=A|34=1|49=EXC|56=002|52=20190611-19:26:32.395|98=0|108=30|141=Y|10=014|
8=FIX.4.4|9=0226|35=R|34=2|49=EXC|56=002|57=002B35|52=20190611-19:26:34.647|131=20190611-000000000059.00|146=1|55=TFIT16280428|762=RFQF|48=20399|22=M|54=1|38=1000000000|453=3|448=001B27|447=C|452=12|448=001|447=C|452=1|448=002B35|447=C|452=37|10=094|
8=FIX.4.4|9=110|35=A|34=1|49=002|50=002B35|52=20190611-19:33:13.036|56=EXC|43=Y|98=0|108=30|141=Y|553=002FCM001|554=002FCM001|10=078|
8=FIX.4.4|9=0067|35=A|34=1|49=EXC|56=002|52=20190611-19:33:13.092|98=0|108=30|141=Y|10=005|
8=FIX.4.4|9=0226|35=R|34=2|49=EXC|56=002|57=002B35|52=20190611-19:33:15.546|131=20190611-000000000061.00|146=1|55=TFIT16280428|762=RFQF|48=20399|22=M|54=1|38=1000000000|453=3|448=001B27|447=C|452=12|448=001|447=C|452=1|448=002B35|447=C|452=37|10=082|
8=FIX.4.4|9=110|35=A|34=1|49=002|50=002B35|52=20190611-19:39:31.576|56=EXC|43=Y|98=0|108=30|141=Y|553=002FCM001|554=002FCM001|10=093|
8=FIX.4.4|9=0067|35=A|34=1|49=EXC|56=002|52=20190611-19:39:31.617|98=0|108=30|141=Y|10=014|
8=FIX.4.4|9=0226|35=R|34=2|49=EXC|56=002|57=002B35|52=20190611-19:39:33.945|131=20190611-000000000063.00|146=1|55=TFIT16280428|762=RFQF|48=20399|22=M|54=1|38=1000000000|453=3|448=001B27|447=C|452=12|448=001|447=C|452=1|448=002B35|447=C|452=37|10=093|
8=FIX.4.4|9=199|35=S|34=2|49=002|50=002B35|52=20190611-19:39:49.789|56=EXC|55=TFIT16280428|62=20190617-22:00:00.000|117=33816476|131=20190611-000000000063.00|135=1000000000|634=3|762=RFQF|453=1|448=DCV|447=C|452=10|10=190|
8=FIX.4.4|9=0294|35=AI|34=3|49=EXC|56=002|57=002B35|52=20190611-19:39:49.791|131=20190611-000000000063.00|117=33816476|453=4|448=DCV|447=C|452=10|448=001B27|447=C|452=12|448=001|447=C|452=1|448=002B35|447=C|452=37|55=TFIT16280428|762=RFQF|48=20399|22=M|54=1|634=3.000|135=1000000000|62=20190617-22:00:00|297=16|10=112|
8=FIX.4.4|9=110|35=A|34=1|49=002|50=002B35|52=20190611-19:44:56.175|56=EXC|43=Y|98=0|108=30|141=Y|553=002FCM001|554=002FCM001|10=091|
8=FIX.4.4|9=0067|35=A|34=1|49=EXC|56=002|52=20190611-19:44:56.738|98=0|108=30|141=Y|10=021|
8=FIX.4.4|9=0226|35=R|34=2|49=EXC|56=002|57=002B35|52=20190611-19:45:03.282|131=20190611-000000000067.00|146=1|55=TFIT16280428|762=RFQF|48=20399|22=M|54=1|38=1000000000|453=3|448=001B27|447=C|452=12|448=001|447=C|452=1|448=002B35|447=C|452=37|10=085|
8=FIX.4.4|9=199|35=S|34=2|49=002|50=002B35|52=20190611-19:45:23.566|56=EXC|55=TFIT16280428|62=20190617-22:00:00.000|117=59969321|131=20190611-000000000067.00|135=1000000000|634=3|762=RFQF|453=1|448=DCV|447=C|452=10|10=182|
8=FIX.4.4|9=0294|35=AI|34=3|49=EXC|56=002|57=002B35|52=20190611-19:45:23.570|131=20190611-000000000067.00|117=59969321|453=4|448=DCV|447=C|452=10|448=001B27|447=C|452=12|448=001|447=C|452=1|448=002B35|447=C|452=37|55=TFIT16280428|762=RFQF|48=20399|22=M|54=1|634=3.000|135=1000000000|62=20190617-22:00:00|297=16|10=106|
8=FIX.4.4|9=110|35=A|34=1|49=002|50=002B35|52=20190611-19:50:18.222|56=EXC|43=Y|98=0|108=30|141=Y|553=002FCM001|554=002FCM001|10=079|
8=FIX.4.4|9=0067|35=A|34=1|49=EXC|56=002|52=20190611-19:50:18.281|98=0|108=30|141=Y|10=009|
8=FIX.4.4|9=0226|35=R|34=2|49=EXC|56=002|57=002B35|52=20190611-19:50:20.632|131=20190611-000000000069.00|146=1|55=TFIT16280428|762=RFQF|48=20399|22=M|54=1|38=1000000000|453=3|448=001B27|447=C|452=12|448=001|447=C|452=1|448=002B35|447=C|452=37|10=081|
8=FIX.4.4|9=199|35=S|34=2|49=002|50=002B35|52=20190611-19:50:36.726|56=EXC|55=TFIT16280428|62=20190617-22:00:00.000|117=38762304|131=20190611-000000000069.00|135=1000000000|634=3|762=RFQF|453=1|448=DCV|447=C|452=10|10=171|
8=FIX.4.4|9=0294|35=AI|34=3|49=EXC|56=002|57=002B35|52=20190611-19:50:36.722|131=20190611-000000000069.00|117=38762304|453=4|448=DCV|447=C|452=10|448=001B27|447=C|452=12|448=001|447=C|452=1|448=002B35|447=C|452=37|55=TFIT16280428|762=RFQF|48=20399|22=M|54=1|634=3.000|135=1000000000|62=20190617-22:00:00|297=16|10=096|
8=FIX.4.4|9=110|35=A|34=1|49=002|50=002B35|52=20190611-19:52:18.821|56=EXC|43=Y|98=0|108=30|141=Y|553=002FCM001|554=002FCM001|10=086|
8=FIX.4.4|9=0067|35=A|34=1|49=EXC|56=002|52=20190611-19:52:18.851|98=0|108=30|141=Y|10=014|
8=FIX.4.4|9=0226|35=R|34=2|49=EXC|56=002|57=002B35|52=20190611-19:52:21.069|131=20190611-000000000070.00|146=1|55=TFIT16280428|762=RFQF|48=20399|22=M|54=1|38=1000000000|453=3|448=001B27|447=C|452=12|448=001|447=C|452=1|448=002B35|447=C|452=37|10=080|
8=FIX.4.4|9=198|35=S|34=2|49=002|50=002B35|52=20190611-19:52:37.289|56=EXC|55=TFIT16280428|62=20190617-22:00:00.000|117=6061519|131=20190611-000000000070.00|135=1000000000|634=3|762=RFQF|453=1|448=DCV|447=C|452=10|10=116|
8=FIX.4.4|9=0293|35=AI|34=3|49=EXC|56=002|57=002B35|52=20190611-19:52:37.285|131=20190611-000000000070.00|117=6061519|453=4|448=DCV|447=C|452=10|448=001B27|447=C|452=12|448=001|447=C|452=1|448=002B35|447=C|452=37|55=TFIT16280428|762=RFQF|48=20399|22=M|54=1|634=3.000|135=1000000000|62=20190617-22:00:00|297=16|10=041|
8=FIX.4.4|9=110|35=A|34=1|49=002|50=002B35|52=20190611-19:57:54.136|56=EXC|43=Y|98=0|108=30|141=Y|553=002FCM001|554=002FCM001|10=090|
8=FIX.4.4|9=0067|35=A|34=1|49=EXC|56=002|52=20190611-19:57:54.182|98=0|108=30|141=Y|10=016|
8=FIX.4.4|9=0226|35=R|34=2|49=EXC|56=002|57=002B35|52=20190611-19:57:56.398|131=20190611-000000000072.00|146=1|55=TFIT16280428|762=RFQF|48=20399|22=M|54=1|38=1000000000|453=3|448=001B27|447=C|452=12|448=001|447=C|452=1|448=002B35|447=C|452=37|10=100|
8=FIX.4.4|9=199|35=S|34=2|49=002|50=002B35|52=20190611-19:58:12.972|56=EXC|55=TFIT16280428|62=20190617-22:00:00.000|117=42117143|131=20190611-000000000072.00|135=1000000000|634=3|762=RFQF|453=1|448=DCV|447=C|452=10|10=160|
8=FIX.4.4|9=0294|35=AI|34=3|49=EXC|56=002|57=002B35|52=20190611-19:58:12.965|131=20190611-000000000072.00|117=42117143|453=4|448=DCV|447=C|452=10|448=001B27|447=C|452=12|448=001|447=C|452=1|448=002B35|447=C|452=37|55=TFIT16280428|762=RFQF|48=20399|22=M|54=1|634=3.000|135=1000000000|62=20190617-22:00:00|297=16|10=091|
8=FIX.4.4|9=110|35=A|34=1|49=002|50=002B35|52=20190611-20:17:57.732|56=EXC|43=Y|98=0|108=30|141=Y|553=002FCM001|554=002FCM001|10=083|
8=FIX.4.4|9=0067|35=A|34=1|49=EXC|56=002|52=20190611-20:17:57.758|98=0|108=30|141=Y|10=016|
8=FIX.4.4|9=0226|35=R|34=2|49=EXC|56=002|57=002B35|52=20190611-20:18:00.122|131=20190611-000000000075.00|146=1|55=TFIT16280428|762=RFQF|48=20399|22=M|54=1|38=1000000000|453=3|448=001B27|447=C|452=12|448=001|447=C|452=1|448=002B35|447=C|452=37|10=066|
8=FIX.4.4|9=199|35=S|34=2|49=002|50=002B35|52=20190611-20:18:16.497|56=EXC|55=TFIT16280428|62=20190617-22:00:00.000|117=21805514|131=20190611-000000000075.00|135=1000000000|634=3|762=RFQF|453=1|448=DCV|447=C|452=10|10=160|
8=FIX.4.4|9=0294|35=AI|34=3|49=EXC|56=002|57=002B35|52=20190611-20:18:16.483|131=20190611-000000000075.00|117=21805514|453=4|448=DCV|447=C|452=10|448=001B27|447=C|452=12|448=001|447=C|452=1|448=002B35|447=C|452=37|55=TFIT16280428|762=RFQF|48=20399|22=M|54=1|634=3.000|135=1000000000|62=20190617-22:00:00|297=16|10=084|
8=FIX.4.4|9=110|35=A|34=1|49=002|50=002B35|52=20190611-20:21:26.872|56=EXC|43=Y|98=0|108=30|141=Y|553=002FCM001|554=002FCM001|10=079|
8=FIX.4.4|9=0067|35=A|34=1|49=EXC|56=002|52=20190611-20:21:26.935|98=0|108=30|141=Y|10=004|
8=FIX.4.4|9=0226|35=R|34=2|49=EXC|56=002|57=002B35|52=20190611-20:21:29.140|131=20190611-000000000076.00|146=1|55=TFIT16280428|762=RFQF|48=20399|22=M|54=1|38=1000000000|453=3|448=001B27|447=C|452=12|448=001|447=C|452=1|448=002B35|447=C|452=37|10=072|
8=FIX.4.4|9=199|35=S|34=2|49=002|50=002B35|52=20190611-20:21:45.323|56=EXC|55=TFIT16280428|62=20190617-22:00:00.000|117=30282758|131=20190611-000000000076.00|135=1000000000|634=3|762=RFQF|453=1|448=DCV|447=C|452=10|10=154|
8=FIX.4.4|9=0294|35=AI|34=3|49=EXC|56=002|57=002B35|52=20190611-20:21:45.308|131=20190611-000000000076.00|117=30282758|453=4|448=DCV|447=C|452=10|448=001B27|447=C|452=12|448=001|447=C|452=1|448=002B35|447=C|452=37|55=TFIT16280428|762=RFQF|48=20399|22=M|54=1|634=3.000|135=1000000000|62=20190617-22:00:00|297=16|10=086|
8=FIX.4.4|9=78|35=Z|34=3|49=002|50=002B35|52=20190611-20:22:06.753|56=EXC|117=30282758|298=5|10=231|
8=FIX.4.4|9=0279|35=AI|34=4|49=EXC|56=002|57=002B35|52=20190611-20:22:06.742|131=20190611-000000000076.00|117=30282758|298=5|453=4|448=DCV|447=C|452=10|448=001B27|447=C|452=12|448=001|447=C|452=1|448=002B35|447=C|452=37|55=TFIT16280428|762=RFQF|48=20399|22=M|54=1|634=3.000|135=1000000000|297=17|10=108|
8=FIX.4.4|9=68|35=2|34=4|49=002|50=002B35|52=20190611-20:22:22.443|56=EXC|7=3|16=0|10=166|
8=FIX.4.4|9=0325|35=AI|34=3|43=Y|52=20190611-20:22:22.428|49=EXC|56=002|57=002B35|122=20190611-20:21:45.308|131=20190611-000000000076.00|117=30282758|453=4|448=DCV|447=C|452=10|448=001B27|447=C|452=12|448=001|447=C|452=1|448=002B35|447=C|452=37|55=TFIT16280428|762=RFQF|48=20399|22=M|54=1|634=3.000|135=1000000000|62=20190617-22:00:00|297=16|10=077|
8=FIX.4.4|9=0310|35=AI|34=4|43=Y|52=20190611-20:22:22.428|49=EXC|56=002|57=002B35|122=20190611-20:22:06.742|131=20190611-000000000076.00|117=30282758|298=5|453=4|448=DCV|447=C|452=10|448=001B27|447=C|452=12|448=001|447=C|452=1|448=002B35|447=C|452=37|55=TFIT16280428|762=RFQF|48=20399|22=M|54=1|634=3.000|135=1000000000|297=17|10=090|
8=FIX.4.4|9=0054|35=4|34=5|49=EXC|56=002|52=20190611-20:22:22.429|36=6|10=137|
8=FIX.4.4|9=68|35=2|34=5|49=002|50=002B35|52=20190611-20:22:27.500|56=EXC|7=3|16=0|10=166|
8=FIX.4.4|9=0325|35=AI|34=3|43=Y|52=20190611-20:22:27.484|49=EXC|56=002|57=002B35|122=20190611-20:21:45.308|131=20190611-000000000076.00|117=30282758|453=4|448=DCV|447=C|452=10|448=001B27|447=C|452=12|448=001|447=C|452=1|448=002B35|447=C|452=37|55=TFIT16280428|762=RFQF|48=20399|22=M|54=1|634=3.000|135=1000000000|62=20190617-22:00:00|297=16|10=084|
8=FIX.4.4|9=0310|35=AI|34=4|43=Y|52=20190611-20:22:27.484|49=EXC|56=002|57=002B35|122=20190611-20:22:06.742|131=20190611-000000000076.00|117=30282758|298=5|453=4|448=DCV|447=C|452=10|448=001B27|447=C|452=12|448=001|447=C|452=1|448=002B35|447=C|452=37|55=TFIT16280428|762=RFQF|48=20399|22=M|54=1|634=3.000|135=1000000000|297=17|10=097|
8=FIX.4.4|9=0065|35=4|34=5|43=Y|49=EXC|56=002|52=20190611-20:22:27.484|123=Y|36=6|10=188|
8=FIX.4.4|9=0054|35=4|34=6|49=EXC|56=002|52=20190611-20:22:27.484|36=7|10=145|
8=FIX.4.4|9=110|35=A|34=1|49=002|50=002B35|52=20190611-20:39:31.106|56=EXC|43=Y|98=0|108=30|141=Y|553=002FCM001|554=002FCM001|10=074|
8=FIX.4.4|9=0067|35=A|34=1|49=EXC|56=002|52=20190611-20:39:32.343|98=0|108=30|141=Y|10=003|
8=FIX.4.4|9=0226|35=R|34=2|49=EXC|56=002|57=002B35|52=20190611-20:39:34.208|131=20190611-000000000078.00|146=1|55=TFIT16280428|762=RFQF|48=20399|22=M|54=1|38=1000000000|453=3|448=001B27|447=C|452=12|448=001|447=C|452=1|448=002B35|447=C|452=37|10=084|
8=FIX.4.4|9=59|35=0|34=2|49=002|50=002B35|52=20190611-20:40:02.017|56=EXC|10=032|
8=FIX.4.4|9=0049|35=0|34=3|49=EXC|56=002|52=20190611-20:40:04.000|10=155|
8=FIX.4.4|9=68|35=1|34=3|49=002|50=002B35|52=20190611-20:40:21.020|56=EXC|112=TEST|10=047|
8=FIX.4.4|9=0058|35=0|34=4|49=EXC|56=002|52=20190611-20:40:20.999|112=TEST|10=199|
8=FIX.4.4|9=199|35=S|34=4|49=002|50=002B35|52=20190611-20:40:46.267|56=EXC|55=TFIT16280428|62=20190617-22:00:00.000|117=37114075|131=20190611-000000000078.00|135=1000000000|634=3|762=RFQF|453=1|448=DCV|447=C|452=10|10=160|
8=FIX.4.4|9=110|35=A|34=1|49=002|50=002B35|52=20190611-20:40:51.133|56=EXC|43=Y|98=0|108=30|141=Y|553=002FCM001|554=002FCM001|10=068|
8=FIX.4.4|9=110|35=A|34=1|49=002|50=002B35|52=20190611-20:50:00.904|56=EXC|43=Y|98=0|108=30|141=Y|553=002FCM001|554=002FCM001|10=069|
8=FIX.4.4|9=0067|35=A|34=1|49=EXC|56=002|52=20190611-20:50:00.908|98=0|108=30|141=Y|10=254|
8=FIX.4.4|9=0226|35=R|34=2|49=EXC|56=002|57=002B35|52=20190611-20:50:03.243|131=20190611-000000000079.00|146=1|55=TFIT16280428|762=RFQF|48=20399|22=M|54=1|38=1000000000|453=3|448=001B27|447=C|452=12|448=001|447=C|452=1|448=002B35|447=C|452=37|10=073|
8=FIX.4.4|9=199|35=S|34=2|49=002|50=002B35|52=20190611-20:50:19.357|56=EXC|55=TFIT16280428|62=20190617-22:00:00.000|117=16387930|131=20190611-000000000079.00|135=1000000000|634=3|762=RFQF|453=1|448=DCV|447=C|452=10|10=169|
8=FIX.4.4|9=0294|35=AI|34=3|49=EXC|56=002|57=002B35|52=20190611-20:50:19.333|131=20190611-000000000079.00|117=16387930|453=4|448=DCV|447=C|452=10|448=001B27|447=C|452=12|448=001|447=C|452=1|448=002B35|447=C|452=37|55=TFIT16280428|762=RFQF|48=20399|22=M|54=1|634=3.000|135=1000000000|62=20190617-22:00:00|297=16|10=092|
8=FIX.4.4|9=78|35=Z|34=3|49=002|50=002B35|52=20190611-20:50:40.234|56=EXC|117=16387930|298=5|10=226|
8=FIX.4.4|9=0279|35=AI|34=4|49=EXC|56=002|57=002B35|52=20190611-20:50:40.209|131=20190611-000000000079.00|117=16387930|298=5|453=4|448=DCV|447=C|452=10|448=001B27|447=C|452=12|448=001|447=C|452=1|448=002B35|447=C|452=37|55=TFIT16280428|762=RFQF|48=20399|22=M|54=1|634=3.000|135=1000000000|297=17|10=110|
8=FIX.4.4|9=68|35=2|34=4|49=002|50=002B35|52=20190611-20:50:55.722|56=EXC|7=3|16=0|10=173|
8=FIX.4.4|9=0325|35=AI|34=3|43=Y|52=20190611-20:50:55.709|49=EXC|56=002|57=002B35|122=20190611-20:50:19.333|131=20190611-000000000079.00|117=16387930|453=4|448=DCV|447=C|452=10|448=001B27|447=C|452=12|448=001|447=C|452=1|448=002B35|447=C|452=37|55=TFIT16280428|762=RFQF|48=20399|22=M|54=1|634=3.000|135=1000000000|62=20190617-22:00:00|297=16|10=092|
8=FIX.4.4|9=0310|35=AI|34=4|43=Y|52=20190611-20:50:55.709|49=EXC|56=002|57=002B35|122=20190611-20:50:40.209|131=20190611-000000000079.00|117=16387930|298=5|453=4|448=DCV|447=C|452=10|448=001B27|447=C|452=12|448=001|447=C|452=1|448=002B35|447=C|452=37|55=TFIT16280428|762=RFQF|48=20399|22=M|54=1|634=3.000|135=1000000000|297=17|10=101|
8=FIX.4.4|9=0054|35=4|34=5|49=EXC|56=002|52=20190611-20:50:55.710|36=6|10=137|
8=FIX.4.4|9=110|35=A|34=1|49=002|50=002B35|52=20190611-20:54:28.564|56=EXC|43=Y|98=0|108=30|141=Y|553=002FCM001|554=002FCM001|10=085|
8=FIX.4.4|9=0067|35=A|34=1|49=EXC|56=002|52=20190611-20:54:28.639|98=0|108=30|141=Y|10=013|
8=FIX.4.4|9=0226|35=R|34=2|49=EXC|56=002|57=002B35|52=20190611-20:54:30.728|131=20190611-000000000080.00|146=1|55=TFIT16280428|762=RFQF|48=20399|22=M|54=1|38=1000000000|453=3|448=001B27|447=C|452=12|448=001|447=C|452=1|448=002B35|447=C|452=37|10=077|
8=FIX.4.4|9=199|35=S|34=2|49=002|50=002B35|52=20190611-20:54:51.992|56=EXC|55=TFIT16280428|62=20190617-22:00:00.000|117=49859356|131=20190611-000000000080.00|135=1000000000|634=3|762=RFQF|453=1|448=DCV|447=C|452=10|10=178|
8=FIX.4.4|9=0294|35=AI|34=3|49=EXC|56=002|57=002B35|52=20190611-20:54:51.967|131=20190611-000000000080.00|117=49859356|453=4|448=DCV|447=C|452=10|448=001B27|447=C|452=12|448=001|447=C|452=1|448=002B35|447=C|452=37|55=TFIT16280428|762=RFQF|48=20399|22=M|54=1|634=3.000|135=1000000000|62=20190617-22:00:00|297=16|10=109|
8=FIX.4.4|9=78|35=Z|34=3|49=002|50=002B35|52=20190611-20:55:12.937|56=EXC|117=49859356|298=5|10=252|
8=FIX.4.4|9=0279|35=AI|34=4|49=EXC|56=002|57=002B35|52=20190611-20:55:12.911|131=20190611-000000000080.00|117=49859356|298=5|453=4|448=DCV|447=C|452=10|448=001B27|447=C|452=12|448=001|447=C|452=1|448=002B35|447=C|452=37|55=TFIT16280428|762=RFQF|48=20399|22=M|54=1|634=3.000|135=1000000000|297=17|10=118|
8=FIX.4.4|9=68|35=1|34=4|49=002|50=002B35|52=20190611-20:55:16.357|56=EXC|112=TEST|10=071|
8=FIX.4.4|9=0058|35=0|34=5|49=EXC|56=002|52=20190611-20:55:16.331|112=TEST|10=191|
8=FIX.4.4|9=0225|35=R|34=6|49=EXC|56=002|57=002B35|52=20190611-20:55:23.775|131=20190611-000000000081.00|146=1|55=TFIT16300632|762=RFQF|48=20406|22=M|54=1|38=500000000|453=3|448=001B27|447=C|452=12|448=001|447=C|452=1|448=002B35|447=C|452=37|10=021|
8=FIX.4.4|9=110|35=A|34=1|49=002|50=002B35|52=20190611-20:56:58.117|56=EXC|43=Y|98=0|108=30|141=Y|553=002FCM001|554=002FCM001|10=084|
8=FIX.4.4|9=0067|35=A|34=1|49=EXC|56=002|52=20190611-20:56:58.448|98=0|108=30|141=Y|10=016|
8=FIX.4.4|9=0226|35=R|34=2|49=EXC|56=002|57=002B35|52=20190611-20:57:00.171|131=20190611-000000000082.00|146=1|55=TFIT16280428|762=RFQF|48=20399|22=M|54=1|38=1000000000|453=3|448=001B27|447=C|452=12|448=001|447=C|452=1|448=002B35|447=C|452=37|10=071|
8=FIX.4.4|9=199|35=S|34=2|49=002|50=002B35|52=20190611-20:57:16.525|56=EXC|55=TFIT16280428|62=20190617-22:00:00.000|117=67971046|131=20190611-000000000082.00|135=1000000000|634=3|762=RFQF|453=1|448=DCV|447=C|452=10|10=167|
8=FIX.4.4|9=0294|35=AI|34=3|49=EXC|56=002|57=002B35|52=20190611-20:57:16.499|131=20190611-000000000082.00|117=67971046|453=4|448=DCV|447=C|452=10|448=001B27|447=C|452=12|448=001|447=C|452=1|448=002B35|447=C|452=37|55=TFIT16280428|762=RFQF|48=20399|22=M|54=1|634=3.000|135=1000000000|62=20190617-22:00:00|297=16|10=106|
8=FIX.4.4|9=78|35=Z|34=3|49=002|50=002B35|52=20190611-20:57:37.974|56=EXC|117=67971046|298=5|10=253|
8=FIX.4.4|9=0279|35=AI|34=4|49=EXC|56=002|57=002B35|52=20190611-20:57:37.948|131=20190611-000000000082.00|117=67971046|298=5|453=4|448=DCV|447=C|452=10|448=001B27|447=C|452=12|448=001|447=C|452=1|448=002B35|447=C|452=37|55=TFIT16280428|762=RFQF|48=20399|22=M|54=1|634=3.000|135=1000000000|297=17|10=130|
8=FIX.4.4|9=0225|35=R|34=5|49=EXC|56=002|57=002B35|52=20190611-20:57:49.362|131=20190611-000000000083.00|146=1|55=TFIT16300632|762=RFQF|48=20406|22=M|54=1|38=500000000|453=3|448=001B27|447=C|452=12|448=001|447=C|452=1|448=002B35|447=C|452=37|10=024|
8=FIX.4.4|9=110|35=A|34=1|49=002|50=002B35|52=20190611-20:59:27.477|56=EXC|43=Y|98=0|108=30|141=Y|553=002FCM001|554=002FCM001|10=092|
8=FIX.4.4|9=0067|35=A|34=1|49=EXC|56=002|52=20190611-20:59:27.488|98=0|108=30|141=Y|10=019|
8=FIX.4.4|9=0226|35=R|34=2|49=EXC|56=002|57=002B35|52=20190611-20:59:29.879|131=20190611-000000000085.00|146=1|55=TFIT16280428|762=RFQF|48=20399|22=M|54=1|38=1000000000|453=3|448=001B27|447=C|452=12|448=001|447=C|452=1|448=002B35|447=C|452=37|10=102|
8=FIX.4.4|9=199|35=S|34=2|49=002|50=002B35|52=20190611-20:59:46.545|56=EXC|55=TFIT16280428|62=20190617-22:00:00.000|117=55027175|131=20190611-000000000085.00|135=1000000000|634=3|762=RFQF|453=1|448=DCV|447=C|452=10|10=169|
8=FIX.4.4|9=0294|35=AI|34=3|49=EXC|56=002|57=002B35|52=20190611-20:59:46.518|131=20190611-000000000085.00|117=55027175|453=4|448=DCV|447=C|452=10|448=001B27|447=C|452=12|448=001|447=C|452=1|448=002B35|447=C|452=37|55=TFIT16280428|762=RFQF|48=20399|22=M|54=1|634=3.000|135=1000000000|62=20190617-22:00:00|297=16|10=098|
8=FIX.4.4|9=78|35=Z|34=3|49=002|50=002B35|52=20190611-21:00:08.584|56=EXC|117=55027175|298=5|10=229|
8=FIX.4.4|9=0279|35=AI|34=4|49=EXC|56=002|57=002B35|52=20190611-21:00:08.563|131=20190611-000000000085.00|117=55027175|298=5|453=4|448=DCV|447=C|452=10|448=001B27|447=C|452=12|448=001|447=C|452=1|448=002B35|447=C|452=37|55=TFIT16280428|762=RFQF|48=20399|22=M|54=1|634=3.000|135=1000000000|297=17|10=105|
8=FIX.4.4|9=0225|35=R|34=5|49=EXC|56=002|57=002B35|52=20190611-21:00:20.293|131=20190611-000000000086.00|146=1|55=TFIT16300632|762=RFQF|48=20406|22=M|54=1|38=500000000|453=3|448=001B27|447=C|452=12|448=001|447=C|452=1|448=002B35|447=C|452=37|10=008|
8=FIX.4.4|9=59|35=0|34=4|49=002|50=002B35|52=20190611-21:00:39.355|56=EXC|10=046|
8=FIX.4.4|9=68|35=2|34=5|49=002|50=002B35|52=20190611-21:00:42.990|56=EXC|7=4|16=0|10=174|
8=FIX.4.4|9=0310|35=AI|34=4|43=Y|52=20190611-21:00:42.961|49=EXC|56=002|57=002B35|122=20190611-21:00:08.563|131=20190611-000000000085.00|117=55027175|298=5|453=4|448=DCV|447=C|452=10|448=001B27|447=C|452=12|448=001|447=C|452=1|448=002B35|447=C|452=37|55=TFIT16280428|762=RFQF|48=20399|22=M|54=1|634=3.000|135=1000000000|297=17|10=088|
8=FIX.4.4|9=0256|35=R|34=5|43=Y|52=20190611-21:00:42.961|49=EXC|56=002|57=002B35|122=20190611-21:00:20.293|131=20190611-000000000086.00|146=1|55=TFIT16300632|762=RFQF|48=20406|22=M|54=1|38=500000000|453=3|448=001B27|447=C|452=12|448=001|447=C|452=1|448=002B35|447=C|452=37|10=009|
8=FIX.4.4|9=0054|35=4|34=6|49=EXC|56=002|52=20190611-21:00:42.961|36=7|10=139|
8=FIX.4.4|9=110|35=A|34=1|49=002|50=002B35|52=20190611-21:02:11.211|56=EXC|43=Y|98=0|108=30|141=Y|553=002FCM001|554=002FCM001|10=060|
8=FIX.4.4|9=0067|35=A|34=1|49=EXC|56=002|52=20190611-21:02:11.286|98=0|108=30|141=Y|10=253|
8=FIX.4.4|9=0226|35=R|34=2|49=EXC|56=002|57=002B35|52=20190611-21:02:13.918|131=20190611-000000000087.00|146=1|55=TFIT16280428|762=RFQF|48=20399|22=M|54=1|38=1000000000|453=3|448=001B27|447=C|452=12|448=001|447=C|452=1|448=002B35|447=C|452=37|10=080|
8=FIX.4.4|9=199|35=S|34=2|49=002|50=002B35|52=20190611-21:02:30.711|56=EXC|55=TFIT16280428|62=20190617-22:00:00.000|117=78841204|131=20190611-000000000087.00|135=1000000000|634=3|762=RFQF|453=1|448=DCV|447=C|452=10|10=150|
8=FIX.4.4|9=0294|35=AI|34=3|49=EXC|56=002|57=002B35|52=20190611-21:02:30.691|131=20190611-000000000087.00|117=78841204|453=4|448=DCV|447=C|452=10|448=001B27|447=C|452=12|448=001|447=C|452=1|448=002B35|447=C|452=37|55=TFIT16280428|762=RFQF|48=20399|22=M|54=1|634=3.000|135=1000000000|62=20190617-22:00:00|297=16|10=086|
8=FIX.4.4|9=78|35=Z|34=3|49=002|50=002B35|52=20190611-21:02:51.807|56=EXC|117=78841204|298=5|10=229|
8=FIX.4.4|9=0279|35=AI|34=4|49=EXC|56=002|57=002B35|52=20190611-21:02:51.782|131=20190611-000000000087.00|117=78841204|298=5|453=4|448=DCV|447=C|452=10|448=001B27|447=C|452=12|448=001|447=C|452=1|448=002B35|447=C|452=37|55=TFIT16280428|762=RFQF|48=20399|22=M|54=1|634=3.000|135=1000000000|297=17|10=112|
8=FIX.4.4|9=110|35=A|34=1|49=002|50=002B35|52=20190611-21:18:19.746|56=EXC|43=Y|98=0|108=30|141=Y|553=002FCM001|554=002FCM001|10=088|
8=FIX.4.4|9=0067|35=A|34=1|49=EXC|56=002|52=20190611-21:18:19.702|98=0|108=30|141=Y|10=005|
8=FIX.4.4|9=0226|35=R|34=2|49=EXC|56=002|57=002B35|52=20190611-21:18:21.992|131=20190611-000000000093.00|146=1|55=TFIT16280428|762=RFQF|48=20399|22=M|54=1|38=1000000000|453=3|448=001B27|447=C|452=12|448=001|447=C|452=1|448=002B35|447=C|452=37|10=085|
8=FIX.4.4|9=199|35=S|34=2|49=002|50=002B35|52=20190611-21:18:38.071|56=EXC|55=TFIT16280428|62=20190617-22:00:00.000|117=12273136|131=20190611-000000000093.00|135=1000000000|634=3|762=RFQF|453=1|448=DCV|447=C|452=10|10=152|
8=FIX.4.4|9=0294|35=AI|34=3|49=EXC|56=002|57=002B35|52=20190611-21:18:37.988|131=20190611-000000000093.00|117=12273136|453=4|448=DCV|447=C|452=10|448=001B27|447=C|452=12|448=001|447=C|452=1|448=002B35|447=C|452=37|55=TFIT16280428|762=RFQF|48=20399|22=M|54=1|634=3.000|135=1000000000|62=20190617-22:00:00|297=16|10=097|
8=FIX.4.4|9=78|35=Z|34=3|49=002|50=002B35|52=20190611-21:18:58.856|56=EXC|117=12273136|298=5|10=238|
8=FIX.4.4|9=0279|35=AI|34=4|49=EXC|56=002|57=002B35|52=20190611-21:18:58.772|131=20190611-000000000093.00|117=12273136|298=5|453=4|448=DCV|447=C|452=10|448=001B27|447=C|452=12|448=001|447=C|452=1|448=002B35|447=C|452=37|55=TFIT16280428|762=RFQF|48=20399|22=M|54=1|634=3.000|135=1000000000|297=17|10=113|
8=FIX.4.4|9=0225|35=R|34=5|49=EXC|56=002|57=002B35|52=20190611-21:19:09.319|131=20190611-000000000094.00|146=1|55=TFIT16300632|762=RFQF|48=20406|22=M|54=1|38=500000000|453=3|448=001B27|447=C|452=12|448=001|447=C|452=1|448=002B35|447=C|452=37|10=023|
8=FIX.4.4|9=110|35=A|34=1|49=002|50=002B35|52=20190611-21:20:20.004|56=EXC|43=Y|98=0|108=30|141=Y|553=002FCM001|554=002FCM001|10=060|
8=FIX.4.4|9=0067|35=A|34=1|49=EXC|56=002|52=20190611-21:20:19.970|98=0|108=30|141=Y|10=005|
8=FIX.4.4|9=0226|35=R|34=2|49=EXC|56=002|57=002B35|52=20190611-21:20:22.229|131=20190611-000000000095.00|146=1|55=TFIT16280428|762=RFQF|48=20399|22=M|54=1|38=1000000000|453=3|448=001B27|447=C|452=12|448=001|447=C|452=1|448=002B35|447=C|452=37|10=074|
8=FIX.4.4|9=199|35=S|34=2|49=002|50=002B35|52=20190611-21:20:38.323|56=EXC|55=TFIT16280428|62=20190617-22:00:00.000|117=14777297|131=20190611-000000000095.00|135=1000000000|634=3|762=RFQF|453=1|448=DCV|447=C|452=10|10=166|
8=FIX.4.4|9=0294|35=AI|34=3|49=EXC|56=002|57=002B35|52=20190611-21:20:38.235|131=20190611-000000000095.00|117=14777297|453=4|448=DCV|447=C|452=10|448=001B27|447=C|452=12|448=001|447=C|452=1|448=002B35|447=C|452=37|55=TFIT16280428|762=RFQF|48=20399|22=M|54=1|634=3.000|135=1000000000|62=20190617-22:00:00|297=16|10=097|
8=FIX.4.4|9=78|35=Z|34=3|49=002|50=002B35|52=20190611-21:20:59.309|56=EXC|117=14777297|298=5|10=244|
8=FIX.4.4|9=0279|35=AI|34=4|49=EXC|56=002|57=002B35|52=20190611-21:20:59.220|131=20190611-000000000095.00|117=14777297|298=5|453=4|448=DCV|447=C|452=10|448=001B27|447=C|452=12|448=001|447=C|452=1|448=002B35|447=C|452=37|55=TFIT16280428|762=RFQF|48=20399|22=M|54=1|634=3.000|135=1000000000|297=17|10=116|
8=FIX.4.4|9=0225|35=R|34=5|49=EXC|56=002|57=002B35|52=20190611-21:21:09.770|131=20190611-000000000096.00|146=1|55=TFIT16300632|762=RFQF|48=20406|22=M|54=1|38=500000000|453=3|448=001B27|447=C|452=12|448=001|447=C|452=1|448=002B35|447=C|452=37|10=019|
8=FIX.4.4|9=110|35=A|34=1|49=002|50=002B35|52=20190611-21:21:34.657|56=EXC|43=Y|98=0|108=30|141=Y|553=002FCM001|554=002FCM001|10=080|
8=FIX.4.4|9=0067|35=A|34=1|49=EXC|56=002|52=20190611-21:21:34.602|98=0|108=30|141=Y|10=251|
8=FIX.4.4|9=0225|35=R|34=2|49=EXC|56=002|57=002B35|52=20190611-21:21:36.932|131=20190611-000000000097.00|146=1|55=TFIC13280425|762=RFQF|48=20626|22=M|54=1|38=500000000|453=3|448=001B27|447=C|452=12|448=001|447=C|452=1|448=002B35|447=C|452=37|10=008|
8=FIX.4.4|9=198|35=S|34=2|49=002|50=002B35|52=20190611-21:21:53.085|56=EXC|55=TFIC13280425|62=20190617-22:00:00.000|117=65622338|131=20190611-000000000097.00|135=500000000|634=4|762=RFQF|453=1|448=DCV|447=C|452=10|10=095|
8=FIX.4.4|9=0293|35=AI|34=3|49=EXC|56=002|57=002B35|52=20190611-21:21:52.999|131=20190611-000000000097.00|117=65622338|453=4|448=DCV|447=C|452=10|448=001B27|447=C|452=12|448=001|447=C|452=1|448=002B35|447=C|452=37|55=TFIC13280425|762=RFQF|48=20626|22=M|54=1|634=4.000|135=500000000|62=20190617-22:00:00|297=16|10=030|
8=FIX.4.4|9=68|35=2|34=3|49=002|50=002B35|52=20190611-21:22:13.870|56=EXC|7=2|16=0|10=169|
8=FIX.4.4|9=0256|35=R|34=2|43=Y|52=20190611-21:22:13.781|49=EXC|56=002|57=002B35|122=20190611-21:21:36.932|131=20190611-000000000097.00|146=1|55=TFIC13280425|762=RFQF|48=20626|22=M|54=1|38=500000000|453=3|448=001B27|447=C|452=12|448=001|447=C|452=1|448=002B35|447=C|452=37|10=011|
8=FIX.4.4|9=0324|35=AI|34=3|43=Y|52=20190611-21:22:13.781|49=EXC|56=002|57=002B35|122=20190611-21:21:52.999|131=20190611-000000000097.00|117=65622338|453=4|448=DCV|447=C|452=10|448=001B27|447=C|452=12|448=001|447=C|452=1|448=002B35|447=C|452=37|55=TFIC13280425|762=RFQF|48=20626|22=M|54=1|634=4.000|135=500000000|62=20190617-22:00:00|297=16|10=024|
8=FIX.4.4|9=0054|35=4|34=4|49=EXC|56=002|52=20190611-21:22:13.781|36=5|10=137|
8=FIX.4.4|9=110|35=A|34=1|49=002|50=002B35|52=20190611-21:40:48.785|56=EXC|43=Y|98=0|108=30|141=Y|553=002FCM001|554=002FCM001|10=088|
8=FIX.4.4|9=0067|35=A|34=1|49=EXC|56=002|52=20190611-21:40:48.836|98=0|108=30|141=Y|10=010|
8=FIX.4.4|9=0226|35=R|34=2|49=EXC|56=002|57=002B35|52=20190611-21:40:51.047|131=20190611-000000000003.00|146=1|55=TFIT16280428|762=RFQF|48=20399|22=M|54=1|38=1000000000|453=3|448=001B27|447=C|452=12|448=001|447=C|452=1|448=002B35|447=C|452=37|10=065|
8=FIX.4.4|9=199|35=S|34=2|49=002|50=002B35|52=20190611-21:41:06.952|56=EXC|55=TFIT16280428|62=20190617-22:00:00.000|117=48386197|131=20190611-000000000003.00|135=1000000000|634=3|762=RFQF|453=1|448=DCV|447=C|452=10|10=163|
8=FIX.4.4|9=0294|35=AI|34=3|49=EXC|56=002|57=002B35|52=20190611-21:41:06.951|131=20190611-000000000003.00|117=48386197|453=4|448=DCV|447=C|452=10|448=001B27|447=C|452=12|448=001|447=C|452=1|448=002B35|447=C|452=37|55=TFIT16280428|762=RFQF|48=20399|22=M|54=1|634=3.000|135=1000000000|62=20190617-22:00:00|297=16|10=091|
8=FIX.4.4|9=78|35=Z|34=3|49=002|50=002B35|52=20190611-21:41:28.481|56=EXC|117=48386197|298=5|10=246|
8=FIX.4.4|9=0279|35=AI|34=4|49=EXC|56=002|57=002B35|52=20190611-21:41:28.502|131=20190611-000000000003.00|117=48386197|298=5|453=4|448=DCV|447=C|452=10|448=001B27|447=C|452=12|448=001|447=C|452=1|448=002B35|447=C|452=37|55=TFIT16280428|762=RFQF|48=20399|22=M|54=1|634=3.000|135=1000000000|297=17|10=109|
8=FIX.4.4|9=0225|35=R|34=5|49=EXC|56=002|57=002B35|52=20190611-21:41:39.042|131=20190611-000000000004.00|146=1|55=TFIT16300632|762=RFQF|48=20406|22=M|54=1|38=500000000|453=3|448=001B27|447=C|452=12|448=001|447=C|452=1|448=002B35|447=C|452=37|10=005|
8=FIX.4.4|9=110|35=A|34=1|49=002|50=002B35|52=20190611-21:42:47.220|56=EXC|43=Y|98=0|108=30|141=Y|553=002FCM001|554=002FCM001|10=073|
8=FIX.4.4|9=0067|35=A|34=1|49=EXC|56=002|52=20190611-21:42:47.292|98=0|108=30|141=Y|10=007|
8=FIX.4.4|9=0225|35=R|34=2|49=EXC|56=002|57=002B35|52=20190611-21:42:49.613|131=20190611-000000000005.00|146=1|55=TFIT16300632|762=RFQF|48=20406|22=M|54=1|38=500000000|453=3|448=001B27|447=C|452=12|448=001|447=C|452=1|448=002B35|447=C|452=37|10=009|
8=FIX.4.4|9=110|35=A|34=1|49=002|50=002B35|52=20190611-22:00:16.508|56=EXC|43=Y|98=0|108=30|141=Y|553=002FCM001|554=002FCM001|10=073|
8=FIX.4.4|9=0067|35=A|34=1|49=EXC|56=002|52=20190611-22:00:16.544|98=0|108=30|141=Y|10=254|
8=FIX.4.4|9=0225|35=R|34=2|49=EXC|56=002|57=002B35|52=20190611-22:00:19.514|131=20190611-000000000007.00|146=1|55=TFIC13280425|762=RFQF|48=20626|22=M|54=1|38=500000000|453=3|448=001B27|447=C|452=12|448=001|447=C|452=1|448=002B35|447=C|452=37|10=250|
8=FIX.4.4|9=198|35=S|34=2|49=002|50=002B35|52=20190611-22:00:36.855|56=EXC|55=TFIC13280425|62=20190617-22:00:00.000|117=15755650|131=20190611-000000000007.00|135=500000000|634=4|762=RFQF|453=1|448=DCV|447=C|452=10|10=089|
8=FIX.4.4|9=0293|35=AI|34=3|49=EXC|56=002|57=002B35|52=20190611-22:00:36.844|131=20190611-000000000007.00|117=15755650|453=4|448=DCV|447=C|452=10|448=001B27|447=C|452=12|448=001|447=C|452=1|448=002B35|447=C|452=37|55=TFIC13280425|762=RFQF|48=20626|22=M|54=1|634=4.000|135=500000000|62=20190617-22:00:00|297=16|10=009|
8=FIX.4.4|9=68|35=2|34=3|49=002|50=002B35|52=20190611-22:01:00.452|56=EXC|7=2|16=0|10=159|
8=FIX.4.4|9=0256|35=R|34=2|43=Y|52=20190611-22:01:00.442|49=EXC|56=002|57=002B35|122=20190611-22:00:19.514|131=20190611-000000000007.00|146=1|55=TFIC13280425|762=RFQF|48=20626|22=M|54=1|38=500000000|453=3|448=001B27|447=C|452=12|448=001|447=C|452=1|448=002B35|447=C|452=37|10=241|
8=FIX.4.4|9=0324|35=AI|34=3|43=Y|52=20190611-22:01:00.442|49=EXC|56=002|57=002B35|122=20190611-22:00:36.844|131=20190611-000000000007.00|117=15755650|453=4|448=DCV|447=C|452=10|448=001B27|447=C|452=12|448=001|447=C|452=1|448=002B35|447=C|452=37|55=TFIC13280425|762=RFQF|48=20626|22=M|54=1|634=4.000|135=500000000|62=20190617-22:00:00|297=16|10=247|
8=FIX.4.4|9=0054|35=4|34=4|49=EXC|56=002|52=20190611-22:01:00.442|36=5|10=125|
8=FIX.4.4|9=68|35=2|34=4|49=002|50=002B35|52=20190611-22:01:10.531|56=EXC|7=2|16=0|10=159|
8=FIX.4.4|9=0256|35=R|34=2|43=Y|52=20190611-22:01:10.522|49=EXC|56=002|57=002B35|122=20190611-22:00:19.514|131=20190611-000000000007.00|146=1|55=TFIC13280425|762=RFQF|48=20626|22=M|54=1|38=500000000|453=3|448=001B27|447=C|452=12|448=001|447=C|452=1|448=002B35|447=C|452=37|10=241|
8=FIX.4.4|9=0324|35=AI|34=3|43=Y|52=20190611-22:01:10.522|49=EXC|56=002|57=002B35|122=20190611-22:00:36.844|131=20190611-000000000007.00|117=15755650|453=4|448=DCV|447=C|452=10|448=001B27|447=C|452=12|448=001|447=C|452=1|448=002B35|447=C|452=37|55=TFIC13280425|762=RFQF|48=20626|22=M|54=1|634=4.000|135=500000000|62=20190617-22:00:00|297=16|10=247|
8=FIX.4.4|9=0065|35=4|34=4|43=Y|49=EXC|56=002|52=20190611-22:01:10.522|123=Y|36=5|10=170|
8=FIX.4.4|9=0054|35=4|34=5|49=EXC|56=002|52=20190611-22:01:10.522|36=6|10=127|
8=FIX.4.4|9=0049|35=0|34=6|49=EXC|56=002|52=20190611-22:01:40.000|10=157|
8=FIX.4.4|9=59|35=0|34=5|49=002|50=002B35|52=20190611-22:01:41.403|56=EXC|10=036|
8=FIX.4.4|9=110|35=A|34=1|49=002|50=002B35|52=20190611-22:03:47.733|56=EXC|43=Y|98=0|108=30|141=Y|553=002FCM001|554=002FCM001|10=080|
8=FIX.4.4|9=0067|35=A|34=1|49=EXC|56=002|52=20190611-22:03:47.798|98=0|108=30|141=Y|10=016|
8=FIX.4.4|9=0225|35=R|34=2|49=EXC|56=002|57=002B35|52=20190611-22:03:50.210|131=20190611-000000000010.00|146=1|55=TFIC13280425|762=RFQF|48=20626|22=M|54=1|38=500000000|453=3|448=001B27|447=C|452=12|448=001|447=C|452=1|448=002B35|447=C|452=37|10=235|
8=FIX.4.4|9=198|35=S|34=2|49=002|50=002B35|52=20190611-22:04:06.994|56=EXC|55=TFIC13280425|62=20190617-22:00:00.000|117=77016056|131=20190611-000000000010.00|135=500000000|634=4|762=RFQF|453=1|448=DCV|447=C|452=10|10=086|
8=FIX.4.4|9=0293|35=AI|34=3|49=EXC|56=002|57=002B35|52=20190611-22:04:06.983|131=20190611-000000000010.00|117=77016056|453=4|448=DCV|447=C|452=10|448=001B27|447=C|452=12|448=001|447=C|452=1|448=002B35|447=C|452=37|55=TFIC13280425|762=RFQF|48=20626|22=M|54=1|634=4.000|135=500000000|62=20190617-22:00:00|297=16|10=006|
8=FIX.4.4|9=68|35=2|34=3|49=002|50=002B35|52=20190611-22:04:27.768|56=EXC|7=2|16=0|10=181|
8=FIX.4.4|9=0256|35=R|34=2|43=Y|52=20190611-22:04:27.756|49=EXC|56=002|57=002B35|122=20190611-22:03:50.210|131=20190611-000000000010.00|146=1|55=TFIC13280425|762=RFQF|48=20626|22=M|54=1|38=500000000|453=3|448=001B27|447=C|452=12|448=001|447=C|452=1|448=002B35|447=C|452=37|10=246|
8=FIX.4.4|9=0324|35=AI|34=3|43=Y|52=20190611-22:04:27.756|49=EXC|56=002|57=002B35|122=20190611-22:04:06.983|131=20190611-000000000010.00|117=77016056|453=4|448=DCV|447=C|452=10|448=001B27|447=C|452=12|448=001|447=C|452=1|448=002B35|447=C|452=37|55=TFIC13280425|762=RFQF|48=20626|22=M|54=1|634=4.000|135=500000000|62=20190617-22:00:00|297=16|10=008|
8=FIX.4.4|9=0054|35=4|34=4|49=EXC|56=002|52=20190611-22:04:27.756|36=5|10=145|
8=FIX.4.4|9=110|35=A|34=1|49=002|50=002B35|52=20190612-14:48:35.229|56=EXC|43=Y|98=0|108=30|141=Y|553=002FCM001|554=002FCM001|10=088|
8=FIX.4.4|9=0067|35=A|34=1|49=EXC|56=002|52=20190612-14:48:35.262|98=0|108=30|141=Y|10=010|
8=FIX.4.4|9=0226|35=R|34=2|49=EXC|56=002|57=002B35|52=20190612-14:48:37.567|131=20190612-000000000025.00|146=1|55=TFIT16280428|762=RFQF|48=20399|22=M|54=1|38=1000000000|453=3|448=001B27|447=C|452=12|448=001|447=C|452=1|448=002B35|447=C|452=37|10=092|
8=FIX.4.4|9=199|35=S|34=2|49=002|50=002B35|52=20190612-14:48:53.595|56=EXC|55=TFIT16280428|62=20190617-22:00:00.000|117=60112624|131=20190612-000000000025.00|135=1000000000|634=3|762=RFQF|453=1|448=DCV|447=C|452=10|10=159|
8=FIX.4.4|9=0294|35=AI|34=3|49=EXC|56=002|57=002B35|52=20190612-14:48:53.585|131=20190612-000000000025.00|117=60112624|453=4|448=DCV|447=C|452=10|448=001B27|447=C|452=12|448=001|447=C|452=1|448=002B35|447=C|452=37|55=TFIT16280428|762=RFQF|48=20399|22=M|54=1|634=3.000|135=1000000000|62=20190617-22:00:00|297=16|10=087|
8=FIX.4.4|9=78|35=Z|34=3|49=002|50=002B35|52=20190612-14:49:14.564|56=EXC|117=60112624|298=5|10=230|
8=FIX.4.4|9=0279|35=AI|34=4|49=EXC|56=002|57=002B35|52=20190612-14:49:14.559|131=20190612-000000000025.00|117=60112624|298=5|453=4|448=DCV|447=C|452=10|448=001B27|447=C|452=12|448=001|447=C|452=1|448=002B35|447=C|452=37|55=TFIT16280428|762=RFQF|48=20399|22=M|54=1|634=3.000|135=1000000000|297=17|10=108|
8=FIX.4.4|9=0225|35=R|34=5|49=EXC|56=002|57=002B35|52=20190612-14:49:25.109|131=20190612-000000000026.00|146=1|55=TFIT16300632|762=RFQF|48=20406|22=M|54=1|38=500000000|453=3|448=001B27|447=C|452=12|448=001|447=C|452=1|448=002B35|447=C|452=37|10=020|
