8=FIX.4.4|9=105|35=A|34=1|49=010|50=010BWN|52=20190620-14:50:57.371|56=EXC|98=0|108=30|141=Y|553=010FCE003|554=010FCE003|10=133|
8=FIX.4.4|9=0067|35=A|34=1|49=EXC|56=010|52=20190620-14:50:57.358|98=0|108=30|141=Y|10=011|
8=FIX.4.4|9=0049|35=0|34=2|49=EXC|56=010|52=20190620-14:51:27.000|10=163|
8=FIX.4.4|9=59|35=0|34=2|49=010|50=010BWN|52=20190620-14:51:28.236|56=EXC|10=107|
8=FIX.4.4|9=105|35=A|34=1|49=010|50=010BWN|52=20190620-16:55:23.182|56=EXC|98=0|108=30|141=Y|553=010FCE003|554=010FCE003|10=133|
8=FIX.4.4|9=0067|35=A|34=1|49=EXC|56=010|52=20190620-16:55:23.186|98=0|108=30|141=Y|10=010|
8=FIX.4.4|9=105|35=A|34=1|49=010|50=010BWN|52=20190620-19:11:55.200|56=EXC|98=0|108=30|141=Y|553=010FCE003|554=010FCE003|10=124|
8=FIX.4.4|9=0067|35=A|34=1|49=EXC|56=010|52=20190620-19:11:54.227|98=0|108=30|141=Y|10=005|
8=FIX.4.4|9=0049|35=0|34=2|49=EXC|56=010|52=20190620-19:12:24.000|10=162|
8=FIX.4.4|9=59|35=0|34=2|49=010|50=010BWN|52=20190620-19:12:25.998|56=EXC|10=121|
8=FIX.4.4|9=105|35=A|34=1|49=010|50=010BWN|52=20190620-19:19:41.176|56=EXC|98=0|108=30|141=Y|553=010FCE003|554=010FCE003|10=139|
8=FIX.4.4|9=0067|35=A|34=1|49=EXC|56=010|52=20190620-19:19:40.247|98=0|108=30|141=Y|10=010|
8=FIX.4.4|9=0049|35=0|34=2|49=EXC|56=010|52=20190620-19:20:10.000|10=156|
8=FIX.4.4|9=59|35=0|34=2|49=010|50=010BWN|52=20190620-19:20:12.107|56=EXC|10=098|
8=FIX.4.4|9=105|35=A|34=1|49=010|50=010BWN|52=20190620-19:21:14.951|56=EXC|98=0|108=30|141=Y|553=010FCE003|554=010FCE003|10=133|
8=FIX.4.4|9=0067|35=A|34=1|49=EXC|56=010|52=20190620-19:21:14.034|98=0|108=30|141=Y|10=254|
8=FIX.4.4|9=0049|35=0|34=2|49=EXC|56=010|52=20190620-19:21:44.000|10=164|
8=FIX.4.4|9=59|35=0|34=2|49=010|50=010BWN|52=20190620-19:21:44.971|56=EXC|10=113|
8=FIX.4.4|9=0049|35=0|34=3|49=EXC|56=010|52=20190620-19:22:14.000|10=163|
8=FIX.4.4|9=59|35=0|34=3|49=010|50=010BWN|52=20190620-19:22:14.970|56=EXC|10=111|
8=FIX.4.4|9=0049|35=0|34=4|49=EXC|56=010|52=20190620-19:22:44.000|10=167|
8=FIX.4.4|9=59|35=0|34=4|49=010|50=010BWN|52=20190620-19:22:45.817|56=EXC|10=116|
8=FIX.4.4|9=0049|35=0|34=5|49=EXC|56=010|52=20190620-19:23:14.000|10=166|
8=FIX.4.4|9=59|35=0|34=5|49=010|50=010BWN|52=20190620-19:23:16.758|56=EXC|10=120|
8=FIX.4.4|9=105|35=A|34=1|49=010|50=010BWN|52=20190620-19:24:53.093|56=EXC|98=0|108=30|141=Y|553=010FCE003|554=010FCE003|10=136|
8=FIX.4.4|9=0067|35=A|34=1|49=EXC|56=010|52=20190620-19:24:52.448|98=0|108=30|141=Y|10=012|
8=FIX.4.4|9=0049|35=0|34=2|49=EXC|56=010|52=20190620-19:25:22.000|10=164|
8=FIX.4.4|9=59|35=0|34=2|49=010|50=010BWN|52=20190620-19:25:23.961|56=EXC|10=113|
8=FIX.4.4|9=0049|35=0|34=3|49=EXC|56=010|52=20190620-19:25:52.000|10=168|
8=FIX.4.4|9=59|35=0|34=3|49=010|50=010BWN|52=20190620-19:25:54.913|56=EXC|10=115|
8=FIX.4.4|9=0049|35=0|34=4|49=EXC|56=010|52=20190620-19:26:22.000|10=167|
8=FIX.4.4|9=59|35=0|34=4|49=010|50=010BWN|52=20190620-19:26:25.845|56=EXC|10=119|
8=FIX.4.4|9=0049|35=0|34=5|49=EXC|56=010|52=20190620-19:26:52.000|10=171|
8=FIX.4.4|9=59|35=0|34=5|49=010|50=010BWN|52=20190620-19:26:56.800|56=EXC|10=115|
8=FIX.4.4|9=0049|35=0|34=6|49=EXC|56=010|52=20190620-19:27:22.000|10=170|
8=FIX.4.4|9=59|35=0|34=6|49=010|50=010BWN|52=20190620-19:27:27.731|56=EXC|10=118|
8=FIX.4.4|9=105|35=A|34=1|49=010|50=010BWN|52=20190620-19:27:51.517|56=EXC|98=0|108=30|141=Y|553=010FCE003|554=010FCE003|10=138|
8=FIX.4.4|9=0067|35=A|34=1|49=EXC|56=010|52=20190620-19:27:51.194|98=0|108=30|141=Y|10=012|
8=FIX.4.4|9=0049|35=0|34=2|49=EXC|56=010|52=20190620-19:28:21.000|10=166|
8=FIX.4.4|9=59|35=0|34=2|49=010|50=010BWN|52=20190620-19:28:22.463|56=EXC|10=112|
8=FIX.4.4|9=105|35=A|34=1|49=010|50=010BWN|52=20190620-19:59:00.721|56=EXC|98=0|108=30|141=Y|553=010FCE003|554=010FCE003|10=134|
8=FIX.4.4|9=0067|35=A|34=1|49=EXC|56=010|52=20190620-19:59:00.355|98=0|108=30|141=Y|10=010|
8=FIX.4.4|9=0049|35=0|34=2|49=EXC|56=010|52=20190620-19:59:30.000|10=170|
8=FIX.4.4|9=59|35=0|34=2|49=010|50=010BWN|52=20190620-19:59:31.624|56=EXC|10=115|
8=FIX.4.4|9=0049|35=0|34=3|49=EXC|56=010|52=20190620-20:00:00.000|10=146|
8=FIX.4.4|9=59|35=0|34=3|49=010|50=010BWN|52=20190620-20:00:01.627|56=EXC|10=094|
8=FIX.4.4|9=105|35=A|34=1|49=010|50=010BWN|52=20190620-20:18:46.246|56=EXC|98=0|108=30|141=Y|553=010FCE003|554=010FCE003|10=133|
8=FIX.4.4|9=0067|35=A|34=1|49=EXC|56=010|52=20190620-20:18:46.226|98=0|108=30|141=Y|10=004|
8=FIX.4.4|9=0049|35=0|34=2|49=EXC|56=010|52=20190620-20:19:16.000|10=162|
8=FIX.4.4|9=59|35=0|34=2|49=010|50=010BWN|52=20190620-20:19:17.199|56=EXC|10=114|
8=FIX.4.4|9=105|35=A|34=1|49=010|50=010BWN|52=20190621-13:23:41.585|56=EXC|98=0|108=30|141=Y|553=010FCE003|554=010FCE003|10=133|
8=FIX.4.4|9=0067|35=A|34=1|49=EXC|56=010|52=20190621-13:23:41.633|98=0|108=30|141=Y|10=000|
8=FIX.4.4|9=59|35=5|34=2|49=010|50=010BWN|52=20190621-13:24:08.550|56=EXC|10=109|
8=FIX.4.4|9=0049|35=5|34=2|49=EXC|56=010|52=20190621-13:24:08.561|10=179|
8=FIX.4.4|9=105|35=A|34=1|49=010|50=010BWN|52=20190621-13:59:37.867|56=EXC|98=0|108=30|141=Y|553=010FCE003|554=010FCE003|10=150|
8=FIX.4.4|9=0067|35=A|34=1|49=EXC|56=010|52=20190621-13:59:37.880|98=0|108=30|141=Y|10=018|
8=FIX.4.4|9=0049|35=0|34=2|49=EXC|56=010|52=20190621-14:00:07.000|10=156|
8=FIX.4.4|9=59|35=0|34=2|49=010|50=010BWN|52=20190621-14:00:08.821|56=EXC|10=100|
8=FIX.4.4|9=0049|35=0|34=3|49=EXC|56=010|52=20190621-14:00:37.000|10=160|
8=FIX.4.4|9=59|35=0|34=3|49=010|50=010BWN|52=20190621-14:00:38.820|56=EXC|10=103|
8=FIX.4.4|9=105|35=A|34=1|49=010|50=010BWN|52=20190621-14:19:18.003|56=EXC|98=0|108=30|141=Y|553=010FCE003|554=010FCE003|10=128|
8=FIX.4.4|9=0067|35=A|34=1|49=EXC|56=010|52=20190621-14:19:18.016|98=0|108=30|141=Y|10=005|
8=FIX.4.4|9=0225|35=R|34=2|49=EXC|56=010|57=010BWN|52=20190621-14:19:25.320|131=20190621-000000000001.01|146=1|55=TFIT16240724|762=RFQF|48=20392|22=M|54=2|38=500000000|453=3|448=007B26|447=C|452=12|448=007|447=C|452=1|448=010BWN|447=C|452=37|10=143|
8=FIX.4.4|9=59|35=0|34=2|49=010|50=010BWN|52=20190621-14:19:48.944|56=EXC|10=120|
8=FIX.4.4|9=0049|35=0|34=3|49=EXC|56=010|52=20190621-14:19:55.000|10=170|
8=FIX.4.4|9=59|35=5|34=3|49=010|50=010BWN|52=20190621-14:20:09.945|56=EXC|10=116|
8=FIX.4.4|9=0049|35=5|34=4|49=EXC|56=010|52=20190621-14:20:09.929|10=187|
8=FIX.4.4|9=105|35=A|34=1|49=010|50=010BWN|52=20190621-14:20:46.189|56=EXC|98=0|108=30|141=Y|553=010FCE003|554=010FCE003|10=136|
8=FIX.4.4|9=0067|35=A|34=1|49=EXC|56=010|52=20190621-14:20:46.204|98=0|108=30|141=Y|10=253|
8=FIX.4.4|9=0049|35=0|34=2|49=EXC|56=010|52=20190621-14:21:16.000|10=159|
8=FIX.4.4|9=59|35=0|34=2|49=010|50=010BWN|52=20190621-14:21:17.130|56=EXC|10=096|
8=FIX.4.4|9=0049|35=0|34=3|49=EXC|56=010|52=20190621-14:21:46.000|10=163|
8=FIX.4.4|9=59|35=0|34=3|49=010|50=010BWN|52=20190621-14:21:47.130|56=EXC|10=100|
8=FIX.4.4|9=0049|35=0|34=4|49=EXC|56=010|52=20190621-14:22:16.000|10=162|
8=FIX.4.4|9=59|35=0|34=4|49=010|50=010BWN|52=20190621-14:22:17.130|56=EXC|10=099|
8=FIX.4.4|9=0049|35=0|34=5|49=EXC|56=010|52=20190621-14:22:46.000|10=166|
8=FIX.4.4|9=59|35=0|34=5|49=010|50=010BWN|52=20190621-14:22:47.129|56=EXC|10=111|
8=FIX.4.4|9=0049|35=0|34=6|49=EXC|56=010|52=20190621-14:23:16.000|10=165|
8=FIX.4.4|9=59|35=0|34=6|49=010|50=010BWN|52=20190621-14:23:17.130|56=EXC|10=102|
8=FIX.4.4|9=0049|35=0|34=7|49=EXC|56=010|52=20190621-14:23:46.000|10=169|
8=FIX.4.4|9=59|35=0|34=7|49=010|50=010BWN|52=20190621-14:23:47.129|56=EXC|10=114|
8=FIX.4.4|9=0226|35=R|34=8|49=EXC|56=010|57=010BWN|52=20190621-14:24:03.190|131=20190621-000000000005.01|146=1|55=TFIT06110919|762=RFQF|48=20320|22=M|54=1|38=1000000000|453=3|448=001B27|447=C|452=12|448=001|447=C|452=1|448=010BWN|447=C|452=37|10=175|
8=FIX.4.4|9=59|35=0|34=8|49=010|50=010BWN|52=20190621-14:24:17.129|56=EXC|10=113|
8=FIX.4.4|9=0049|35=0|34=9|49=EXC|56=010|52=20190621-14:24:33.000|10=168|
8=FIX.4.4|9=0218|35=R|34=10|49=EXC|56=010|57=010BWN|52=20190621-14:24:43.429|131=20190621-000000000005.01|146=1|55=TFIT06110919|762=RFQF|48=20320|22=M|54=1|38=0|453=3|448=001B27|447=C|452=12|448=001|447=C|452=1|448=010BWN|447=C|452=37|10=049|
8=FIX.4.4|9=59|35=0|34=9|49=010|50=010BWN|52=20190621-14:24:47.130|56=EXC|10=109|
8=FIX.4.4|9=0193|35=R|34=11|49=EXC|56=010|52=20190621-14:25:10.133|131=20190621-000000000006.00|146=1|55=TFIT15260826|762=RFQF|48=20348|22=M|54=1|38=1500000000|453=2|448=007B26|447=C|452=12|448=007|447=C|452=1|10=025|
8=FIX.4.4|9=60|35=0|34=10|49=010|50=010BWN|52=20190621-14:25:17.130|56=EXC|10=139|
8=FIX.4.4|9=0184|35=R|34=12|49=EXC|56=010|52=20190621-14:25:39.340|131=20190621-000000000006.00|146=1|55=TFIT15260826|762=RFQF|48=20348|22=M|54=1|38=0|453=2|448=007B26|447=C|452=12|448=007|447=C|452=1|10=111|
8=FIX.4.4|9=60|35=0|34=11|49=010|50=010BWN|52=20190621-14:25:47.130|56=EXC|10=143|
8=FIX.4.4|9=0050|35=0|34=13|49=EXC|56=010|52=20190621-14:26:09.000|10=208|
8=FIX.4.4|9=60|35=0|34=12|49=010|50=010BWN|52=20190621-14:26:17.128|56=EXC|10=149|
8=FIX.4.4|9=0050|35=0|34=14|49=EXC|56=010|52=20190621-14:26:39.000|10=212|
8=FIX.4.4|9=0192|35=R|34=15|49=EXC|56=010|52=20190621-14:26:45.124|131=20190621-000000000007.00|146=1|55=TFIC14280426|762=RFQF|48=20602|22=M|54=1|38=500000000|453=2|448=001B27|447=C|452=12|448=001|447=C|452=1|10=207|
8=FIX.4.4|9=60|35=0|34=13|49=010|50=010BWN|52=20190621-14:26:47.128|56=EXC|10=153|
8=FIX.4.4|9=0050|35=0|34=16|49=EXC|56=010|52=20190621-14:27:15.000|10=209|
8=FIX.4.4|9=0226|35=R|34=17|49=EXC|56=010|57=010BWN|52=20190621-14:27:15.082|131=20190621-000000000008.01|146=1|55=TFIT16180930|762=RFQF|48=20355|22=M|54=1|38=500000000|453=3|448=001B27|447=C|452=12|448=001|447=C|452=1|448=010BWN|447=C|452=37|10=197|
8=FIX.4.4|9=60|35=0|34=14|49=010|50=010BWN|52=20190621-14:27:17.128|56=EXC|10=152|
8=FIX.4.4|9=0050|35=0|34=18|49=EXC|56=010|52=20190621-14:27:45.000|10=214|
8=FIX.4.4|9=60|35=0|34=15|49=010|50=010BWN|52=20190621-14:27:47.129|56=EXC|10=157|
8=FIX.4.4|9=0226|35=R|34=19|49=EXC|56=010|57=010BWN|52=20190621-14:27:49.649|131=20190621-000000000009.01|146=1|55=TFIT16240724|762=RFQF|48=20392|22=M|54=2|38=500000000|453=3|448=007B26|447=C|452=12|448=007|447=C|452=1|448=010BWN|447=C|452=37|10=227|
8=FIX.4.4|9=60|35=0|34=16|49=010|50=010BWN|52=20190621-14:28:17.129|56=EXC|10=156|
8=FIX.4.4|9=0050|35=0|34=20|49=EXC|56=010|52=20190621-14:28:19.000|10=209|
8=FIX.4.4|9=60|35=0|34=17|49=010|50=010BWN|52=20190621-14:28:47.129|56=EXC|10=160|
8=FIX.4.4|9=0050|35=0|34=21|49=EXC|56=010|52=20190621-14:28:49.000|10=213|
8=FIX.4.4|9=60|35=0|34=18|49=010|50=010BWN|52=20190621-14:29:17.129|56=EXC|10=159|
8=FIX.4.4|9=0050|35=0|34=22|49=EXC|56=010|52=20190621-14:29:19.000|10=212|
