8=FIX.4.4|9=105|35=A|34=1|49=001|50=001B27|52=20190626-15:03:04.444|56=EXC|98=0|108=30|141=Y|553=001FCM001|554=001FCM001|10=083|
8=FIX.4.4|9=0067|35=A|34=1|49=EXC|56=001|52=20190628-15:03:04.502|98=0|108=30|141=Y|10=001|
8=FIX.4.4|9=186|35=R|34=2|49=001|50=001B27|52=20190626-15:03:11.817|56=EXC|131=201906261003011_R|146=1|55=TFIC13280425|22=M|762=RFQF|54=1|38=500000000|453=2|448=002B35|447=C|452=37|448=DCV|447=C|452=10|10=055|
8=FIX.4.4|9=0268|35=AI|34=2|49=EXC|56=001|57=001B27|52=20190628-15:03:11.831|131=201906261003011_R|453=5|448=DCV|447=C|452=10|448=001B27|447=C|452=12|448=001|447=C|452=1|448=001FCM001|447=C|452=36|448=002B35|447=C|452=37|55=TFIC13280425|762=RFQF|48=20626|22=M|54=1|38=500000000|297=10|10=208|
8=FIX.4.4|9=0316|35=S|34=3|49=EXC|56=001|57=001B27|52=20190628-15:03:32.540|131=201906261003011_R|117=20190628-000000000010.00|55=TFIC13280425|762=RFQF|48=20626|22=M|453=5|448=DCV|447=C|452=10|448=001B27|447=C|452=12|448=001|447=C|452=1|448=001FCM001|447=C|452=36|448=002B35|447=C|452=37|634=3.000|135=500000000|62=20190830-22:00:00|10=230|
8=FIX.4.4|9=59|35=0|34=3|49=001|50=001B27|52=20190626-15:03:42.396|56=EXC|10=055|
8=FIX.4.4|9=148|35=AJ|34=4|49=001|50=001B27|52=20190626-15:03:52.096|56=EXC|54=1|55=TFIC13280425|117=20190628-000000000010.00|693=201906261003011_AJ|694=1|762=RFQF|10=070|
8=FIX.4.4|9=0516|35=8|34=4|49=EXC|56=001|57=001B27|52=20190628-15:03:52.110|11=201906261003011_AJ|17=3|37=0|150=F|1080=20190628-000000000010.00|1081=5|453=6|448=001B27|447=C|452=12|448=001|447=C|452=1|448=002B35|447=C|452=37|448=002|447=C|452=17|448=001FCM001|447=C|452=36|448=DCV|447=C|452=10|55=TFIC13280425|762=RFQF|48=20626|22=M|6=84.163|14=500000000|31=84.163|32=500000000|38=500000000|39=2|20102=84.163|54=1|60=20190628-15:03:52.110|75=20190628|63=1|64=20190628|151=0|1623=3.000|381=420816000.000|880=201906280000000003|828=99|10=101|
8=FIX.4.4|9=186|35=R|34=5|49=001|50=001B27|52=20190626-15:04:18.783|56=EXC|131=201906261003012_R|146=1|55=TFIT16280428|22=M|762=RFQF|54=1|38=500000000|453=2|448=002B35|447=C|452=37|448=DCV|447=C|452=10|10=092|
8=FIX.4.4|9=0268|35=AI|34=5|49=EXC|56=001|57=001B27|52=20190628-15:04:18.797|131=201906261003012_R|453=5|448=DCV|447=C|452=10|448=001B27|447=C|452=12|448=001|447=C|452=1|448=001FCM001|447=C|452=36|448=002B35|447=C|452=37|55=TFIT16280428|762=RFQF|48=20399|22=M|54=1|38=500000000|297=10|10=005|
8=FIX.4.4|9=0316|35=S|34=6|49=EXC|56=001|57=001B27|52=20190628-15:04:44.428|131=201906261003012_R|117=20190628-000000000011.00|55=TFIT16280428|762=RFQF|48=20399|22=M|453=5|448=DCV|447=C|452=10|448=001B27|447=C|452=12|448=001|447=C|452=1|448=001FCM001|447=C|452=36|448=002B35|447=C|452=37|634=3.000|135=500000000|62=20190830-22:00:00|10=018|
8=FIX.4.4|9=59|35=0|34=6|49=001|50=001B27|52=20190626-15:04:49.401|56=EXC|10=053|
8=FIX.4.4|9=0094|35=Z|34=7|49=EXC|56=001|57=001B27|52=20190628-15:05:03.607|117=20190628-000000000011.00|298=5|10=077|
8=FIX.4.4|9=59|35=0|34=7|49=001|50=001B27|52=20190626-15:05:19.394|56=EXC|10=063|
8=FIX.4.4|9=186|35=R|34=8|49=001|50=001B27|52=20190626-15:05:22.058|56=EXC|131=201906261003013_R|146=1|55=TFIT16300632|22=M|762=RFQF|54=1|38=500000000|453=2|448=002B35|447=C|452=37|448=DCV|447=C|452=10|10=077|
8=FIX.4.4|9=0268|35=AI|34=8|49=EXC|56=001|57=001B27|52=20190628-15:05:22.072|131=201906261003013_R|453=5|448=DCV|447=C|452=10|448=001B27|447=C|452=12|448=001|447=C|452=1|448=001FCM001|447=C|452=36|448=002B35|447=C|452=37|55=TFIT16300632|762=RFQF|48=20406|22=M|54=1|38=500000000|297=10|10=226|
8=FIX.4.4|9=178|35=R|34=9|49=001|50=001B27|52=20190626-15:05:45.732|56=EXC|131=201906261003013_R|146=1|55=TFIT16300632|22=M|762=RFQF|54=1|38=0|453=2|448=002B35|447=C|452=37|448=DCV|447=C|452=10|10=206|
8=FIX.4.4|9=0268|35=AI|34=9|49=EXC|56=001|57=001B27|52=20190628-15:05:45.747|131=201906261003013_R|453=5|448=DCV|447=C|452=10|448=001B27|447=C|452=12|448=001|447=C|452=1|448=001FCM001|447=C|452=36|448=002B35|447=C|452=37|55=TFIT16300632|762=RFQF|48=20406|22=M|54=1|38=500000000|297=17|10=248|
8=FIX.4.4|9=154|35=R|34=10|49=001|50=001B27|52=20190626-15:06:06.502|56=EXC|131=201906261003014_R|146=1|55=   |22=M|762=RFQF|54=1|38=500000000|453=1|448=DCV|447=C|452=10|10=133|
8=FIX.4.4|9=0147|35=AG|34=10|49=EXC|56=001|57=001B27|52=20190628-15:06:06.518|131=201906261003014_R|658=1|146=1|55=   |762=RFQF|22=M|58=(1479): Simbolo desconocido|10=099|
8=FIX.4.4|9=212|35=R|34=11|49=001|50=001B27|52=20190626-15:06:20.010|56=EXC|131=201906261003015_R|146=1|55=TFIT06110919|22=M|762=RFQF|54=2|38=1000000000|453=3|448=002B35|447=C|452=37|448=DCV|447=C|452=10|448=010BWN|447=C|452=37|10=079|
8=FIX.4.4|9=0294|35=AI|34=11|49=EXC|56=001|57=001B27|52=20190628-15:06:20.025|131=201906261003015_R|453=6|448=DCV|447=C|452=10|448=001B27|447=C|452=12|448=001|447=C|452=1|448=001FCM001|447=C|452=36|448=002B35|447=C|452=37|448=010BWN|447=C|452=37|55=TFIT06110919|762=RFQF|48=20320|22=M|54=2|38=1000000000|297=10|10=242|
8=FIX.4.4|9=0318|35=S|34=12|49=EXC|56=001|57=001B27|52=20190628-15:06:41.139|131=201906261003015_R|117=20190628-000000000013.00|55=TFIT06110919|762=RFQF|48=20320|22=M|453=5|448=DCV|447=C|452=10|448=001B27|447=C|452=12|448=001|447=C|452=1|448=001FCM001|447=C|452=36|448=002B35|447=C|452=37|632=2.000|134=1000000000|62=20190830-22:00:00|10=088|
8=FIX.4.4|9=60|35=0|34=12|49=001|50=001B27|52=20190626-15:06:50.394|56=EXC|10=095|
8=FIX.4.4|9=149|35=AJ|34=13|49=001|50=001B27|52=20190626-15:06:59.707|56=EXC|54=2|55=TFIT06110919|117=20190628-000000000013.00|693=201906261003015_AJ|694=1|762=RFQF|10=155|
8=FIX.4.4|9=0524|35=8|34=13|49=EXC|56=001|57=001B27|52=20190628-15:06:59.722|11=201906261003015_AJ|17=4|37=0|150=F|1080=20190628-000000000013.00|1081=5|453=6|448=001B27|447=C|452=12|448=001|447=C|452=1|448=002B35|447=C|452=37|448=002|447=C|452=17|448=001FCM001|447=C|452=36|448=DCV|447=C|452=10|55=TFIT06110919|762=RFQF|48=20320|22=M|6=101.003|14=1000000000|31=101.003|32=1000000000|38=1000000000|39=2|20102=106.564|54=2|60=20190628-15:06:59.722|75=20190628|63=1|64=20190628|151=0|1623=2.000|381=1065646000.000|880=201906280000000004|828=99|10=246|
8=FIX.4.4|9=0193|35=R|34=14|49=EXC|56=001|52=20190628-15:07:28.006|131=20190628-000000000014.00|146=1|55=TFIT15260826|762=RFQF|48=20348|22=M|54=1|38=1500000000|453=2|448=007B26|447=C|452=12|448=007|447=C|452=1|10=050|
8=FIX.4.4|9=60|35=0|34=14|49=001|50=001B27|52=20190626-15:07:30.394|56=EXC|10=096|
8=FIX.4.4|9=0184|35=R|34=15|49=EXC|56=001|52=20190628-15:07:57.394|131=20190628-000000000014.00|146=1|55=TFIT15260826|762=RFQF|48=20348|22=M|54=1|38=0|453=2|448=007B26|447=C|452=12|448=007|447=C|452=1|10=137|
8=FIX.4.4|9=60|35=0|34=15|49=001|50=001B27|52=20190626-15:08:00.393|56=EXC|10=094|
8=FIX.4.4|9=0050|35=0|34=16|49=EXC|56=001|52=20190628-15:08:27.000|10=219|
8=FIX.4.4|9=60|35=0|34=16|49=001|50=001B27|52=20190626-15:08:30.392|56=EXC|10=097|
8=FIX.4.4|9=0050|35=0|34=17|49=EXC|56=001|52=20190628-15:08:57.000|10=223|
8=FIX.4.4|9=60|35=0|34=17|49=001|50=001B27|52=20190626-15:09:00.394|56=EXC|10=098|
8=FIX.4.4|9=163|35=R|34=18|49=001|50=001B27|52=20190626-15:09:03.402|56=EXC|131=201906261003017_R|146=1|55=TFIC14280426|22=M|762=RFQF|54=1|38=500000000|453=1|448=DCV|447=C|452=10|10=240|
8=FIX.4.4|9=0245|35=AI|34=18|49=EXC|56=001|57=001B27|52=20190628-15:09:03.418|131=201906261003017_R|453=4|448=DCV|447=C|452=10|448=001B27|447=C|452=12|448=001|447=C|452=1|448=001FCM001|447=C|452=36|55=TFIC14280426|762=RFQF|48=20602|22=M|54=1|38=500000000|297=10|10=142|
8=FIX.4.4|9=0192|35=R|34=19|49=EXC|56=001|52=20190628-15:09:03.418|131=20190628-000000000015.00|146=1|55=TFIC14280426|762=RFQF|48=20602|22=M|54=1|38=500000000|453=2|448=001B27|447=C|452=12|448=001|447=C|452=1|10=226|
8=FIX.4.4|9=211|35=R|34=19|49=001|50=001B27|52=20190626-15:09:32.562|56=EXC|131=201906261003018_R|146=1|55=TFIT16180930|22=M|762=RFQF|54=1|38=500000000|453=3|448=DCV|447=C|452=10|448=002B35|447=C|452=37|448=010BWN|447=C|452=37|10=063|
8=FIX.4.4|9=0293|35=AI|34=20|49=EXC|56=001|57=001B27|52=20190628-15:09:32.580|131=201906261003018_R|453=6|448=DCV|447=C|452=10|448=001B27|447=C|452=12|448=001|447=C|452=1|448=001FCM001|447=C|452=36|448=002B35|447=C|452=37|448=010BWN|447=C|452=37|55=TFIT16180930|762=RFQF|48=20355|22=M|54=1|38=500000000|297=10|10=220|
8=FIX.4.4|9=0050|35=0|34=21|49=EXC|56=001|52=20190628-15:10:02.000|10=201|
8=FIX.4.4|9=60|35=0|34=20|49=001|50=001B27|52=20190626-15:10:03.392|56=EXC|10=085|
8=FIX.4.4|9=0050|35=0|34=22|49=EXC|56=001|52=20190628-15:10:32.000|10=205|
8=FIX.4.4|9=60|35=0|34=21|49=001|50=001B27|52=20190626-15:10:33.393|56=EXC|10=090|
8=FIX.4.4|9=0050|35=0|34=23|49=EXC|56=001|52=20190628-15:11:02.000|10=204|
8=FIX.4.4|9=60|35=0|34=22|49=001|50=001B27|52=20190626-15:11:03.392|56=EXC|10=088|
8=FIX.4.4|9=0050|35=0|34=24|49=EXC|56=001|52=20190628-15:11:32.000|10=208|
8=FIX.4.4|9=60|35=0|34=23|49=001|50=001B27|52=20190626-15:11:33.392|56=EXC|10=092|
8=FIX.4.4|9=0050|35=0|34=25|49=EXC|56=001|52=20190628-15:12:02.000|10=207|
8=FIX.4.4|9=60|35=0|34=24|49=001|50=001B27|52=20190626-15:12:03.392|56=EXC|10=091|
8=FIX.4.4|9=188|35=R|34=25|49=001|50=001B27|52=20190626-15:12:30.297|56=EXC|131=2019062610030115_R|146=1|55=TFIC13280425|22=M|762=RFQF|54=1|38=500000000|453=2|448=007B26|447=C|452=37|448=DCV|447=C|452=10|10=171|
8=FIX.4.4|9=0198|35=AG|34=26|49=EXC|56=001|57=001B27|52=20190628-15:12:30.314|131=2019062610030115_R|658=6|146=1|55=TFIC13280425|762=RFQF|22=M|58=(1585): Usuario no tiene acceso a una cotizacion sobre este secboard|10=200|
8=FIX.4.4|9=60|35=5|34=26|49=001|50=001B27|52=20190626-15:12:48.836|56=EXC|10=110|
8=FIX.4.4|9=0050|35=5|34=27|49=EXC|56=001|52=20190628-15:12:48.852|10=239|
8=FIX.4.4|9=105|35=A|34=1|49=001|50=001B27|52=20190627-13:38:25.621|56=EXC|98=0|108=30|141=Y|553=001FCM001|554=001FCM001|10=090|
8=FIX.4.4|9=0067|35=A|34=1|49=EXC|56=001|52=20190627-13:38:25.700|98=0|108=30|141=Y|10=009|
8=FIX.4.4|9=185|35=R|34=2|49=001|50=001B27|52=20190627-13:38:33.173|56=EXC|131=20190627838221_R|146=1|55=TFIC13280425|22=M|762=RFQF|54=1|38=500000000|453=2|448=002B35|447=C|452=37|448=DCV|447=C|452=10|10=031|
8=FIX.4.4|9=0267|35=AI|34=2|49=EXC|56=001|57=001B27|52=20190627-13:38:33.164|131=20190627838221_R|453=5|448=DCV|447=C|452=10|448=001B27|447=C|452=12|448=001|447=C|452=1|448=001FCM001|447=C|452=36|448=002B35|447=C|452=37|55=TFIC13280425|762=RFQF|48=20626|22=M|54=1|38=500000000|297=10|10=186|
8=FIX.4.4|9=0315|35=S|34=3|49=EXC|56=001|57=001B27|52=20190627-13:38:53.969|131=20190627838221_R|117=20190627-000000000012.00|55=TFIC13280425|762=RFQF|48=20626|22=M|453=5|448=DCV|447=C|452=10|448=001B27|447=C|452=12|448=001|447=C|452=1|448=001FCM001|447=C|452=36|448=002B35|447=C|452=37|634=3.000|135=500000000|62=20190830-22:00:00|10=224|
8=FIX.4.4|9=59|35=0|34=3|49=001|50=001B27|52=20190627-13:39:03.548|56=EXC|10=059|
8=FIX.4.4|9=147|35=AJ|34=4|49=001|50=001B27|52=20190627-13:39:15.259|56=EXC|54=1|55=TFIC13280425|117=20190627-000000000012.00|693=20190627838221_AJ|694=1|762=RFQF|10=049|
8=FIX.4.4|9=0515|35=8|34=4|49=EXC|56=001|57=001B27|52=20190627-13:39:15.250|11=20190627838221_AJ|17=5|37=0|150=F|1080=20190627-000000000012.00|1081=5|453=6|448=001B27|447=C|452=12|448=001|447=C|452=1|448=002B35|447=C|452=37|448=002|447=C|452=17|448=001FCM001|447=C|452=36|448=DCV|447=C|452=10|55=TFIC13280425|762=RFQF|48=20626|22=M|6=84.156|14=500000000|31=84.156|32=500000000|38=500000000|39=2|20102=84.156|54=1|60=20190627-13:39:15.250|75=20190627|63=1|64=20190627|151=0|1623=3.000|381=420781500.000|880=201906270000000005|828=99|10=105|
8=FIX.4.4|9=185|35=R|34=5|49=001|50=001B27|52=20190627-13:39:42.102|56=EXC|131=20190627838222_R|146=1|55=TFIT16280428|22=M|762=RFQF|54=1|38=500000000|453=2|448=002B35|447=C|452=37|448=DCV|447=C|452=10|10=051|
8=FIX.4.4|9=0267|35=AI|34=5|49=EXC|56=001|57=001B27|52=20190627-13:39:42.094|131=20190627838222_R|453=5|448=DCV|447=C|452=10|448=001B27|447=C|452=12|448=001|447=C|452=1|448=001FCM001|447=C|452=36|448=002B35|447=C|452=37|55=TFIT16280428|762=RFQF|48=20399|22=M|54=1|38=500000000|297=10|10=223|
8=FIX.4.4|9=0315|35=S|34=6|49=EXC|56=001|57=001B27|52=20190627-13:40:07.723|131=20190627838222_R|117=20190627-000000000013.00|55=TFIT16280428|762=RFQF|48=20399|22=M|453=5|448=DCV|447=C|452=10|448=001B27|447=C|452=12|448=001|447=C|452=1|448=001FCM001|447=C|452=36|448=002B35|447=C|452=37|634=3.000|135=500000000|62=20190830-22:00:00|10=239|
8=FIX.4.4|9=59|35=0|34=6|49=001|50=001B27|52=20190627-13:40:12.549|56=EXC|10=055|
8=FIX.4.4|9=0094|35=Z|34=7|49=EXC|56=001|57=001B27|52=20190627-13:40:28.961|117=20190627-000000000013.00|298=5|10=084|
8=FIX.4.4|9=59|35=0|34=7|49=001|50=001B27|52=20190627-13:40:42.545|56=EXC|10=055|
8=FIX.4.4|9=185|35=R|34=8|49=001|50=001B27|52=20190627-13:40:49.741|56=EXC|131=20190627838223_R|146=1|55=TFIT16300632|22=M|762=RFQF|54=1|38=500000000|453=2|448=002B35|447=C|452=37|448=DCV|447=C|452=10|10=053|
8=FIX.4.4|9=0267|35=AI|34=8|49=EXC|56=001|57=001B27|52=20190627-13:40:49.735|131=20190627838223_R|453=5|448=DCV|447=C|452=10|448=001B27|447=C|452=12|448=001|447=C|452=1|448=001FCM001|447=C|452=36|448=002B35|447=C|452=37|55=TFIT16300632|762=RFQF|48=20406|22=M|54=1|38=500000000|297=10|10=207|
8=FIX.4.4|9=177|35=R|34=9|49=001|50=001B27|52=20190627-13:41:15.346|56=EXC|131=20190627838223_R|146=1|55=TFIT16300632|22=M|762=RFQF|54=1|38=0|453=2|448=002B35|447=C|452=37|448=DCV|447=C|452=10|10=173|
8=FIX.4.4|9=0267|35=AI|34=9|49=EXC|56=001|57=001B27|52=20190627-13:41:15.338|131=20190627838223_R|453=5|448=DCV|447=C|452=10|448=001B27|447=C|452=12|448=001|447=C|452=1|448=001FCM001|447=C|452=36|448=002B35|447=C|452=37|55=TFIT16300632|762=RFQF|48=20406|22=M|54=1|38=500000000|297=17|10=208|
8=FIX.4.4|9=153|35=R|34=10|49=001|50=001B27|52=20190627-13:41:41.096|56=EXC|131=20190627838224_R|146=1|55=   |22=M|762=RFQF|54=1|38=500000000|453=1|448=DCV|447=C|452=10|10=108|
8=FIX.4.4|9=0146|35=AG|34=10|49=EXC|56=001|57=001B27|52=20190627-13:41:41.090|131=20190627838224_R|658=1|146=1|55=   |762=RFQF|22=M|58=(1479): Simbolo desconocido|10=059|
8=FIX.4.4|9=211|35=R|34=11|49=001|50=001B27|52=20190627-13:41:56.525|56=EXC|131=20190627838225_R|146=1|55=TFIT06110919|22=M|762=RFQF|54=2|38=1000000000|453=3|448=002B35|447=C|452=37|448=DCV|447=C|452=10|448=010BWN|447=C|452=37|10=067|
8=FIX.4.4|9=0293|35=AI|34=11|49=EXC|56=001|57=001B27|52=20190627-13:41:56.519|131=20190627838225_R|453=6|448=DCV|447=C|452=10|448=001B27|447=C|452=12|448=001|447=C|452=1|448=001FCM001|447=C|452=36|448=002B35|447=C|452=37|448=010BWN|447=C|452=37|55=TFIT06110919|762=RFQF|48=20320|22=M|54=2|38=1000000000|297=10|10=225|
8=FIX.4.4|9=0317|35=S|34=12|49=EXC|56=001|57=001B27|52=20190627-13:42:18.146|131=20190627838225_R|117=20190627-000000000015.00|55=TFIT06110919|762=RFQF|48=20320|22=M|453=5|448=DCV|447=C|452=10|448=001B27|447=C|452=12|448=001|447=C|452=1|448=001FCM001|447=C|452=36|448=002B35|447=C|452=37|632=2.000|134=1000000000|62=20190830-22:00:00|10=058|
8=FIX.4.4|9=60|35=0|34=12|49=001|50=001B27|52=20190627-13:42:26.541|56=EXC|10=091|
8=FIX.4.4|9=148|35=AJ|34=13|49=001|50=001B27|52=20190627-13:42:39.203|56=EXC|54=2|55=TFIT06110919|117=20190627-000000000015.00|693=20190627838225_AJ|694=1|762=RFQF|10=114|
8=FIX.4.4|9=0523|35=8|34=13|49=EXC|56=001|57=001B27|52=20190627-13:42:39.198|11=20190627838225_AJ|17=6|37=0|150=F|1080=20190627-000000000015.00|1081=5|453=6|448=001B27|447=C|452=12|448=001|447=C|452=1|448=002B35|447=C|452=37|448=002|447=C|452=17|448=001FCM001|447=C|452=36|448=DCV|447=C|452=10|55=TFIT06110919|762=RFQF|48=20320|22=M|6=101.016|14=1000000000|31=101.016|32=1000000000|38=1000000000|39=2|20102=106.558|54=2|60=20190627-13:42:39.198|75=20190627|63=1|64=20190627|151=0|1623=2.000|381=1065585000.000|880=201906270000000006|828=99|10=235|
8=FIX.4.4|9=0193|35=R|34=14|49=EXC|56=001|52=20190627-13:43:06.078|131=20190627-000000000016.00|146=1|55=TFIT15260826|762=RFQF|48=20348|22=M|54=1|38=1500000000|453=2|448=007B26|447=C|452=12|448=007|447=C|452=1|10=053|
8=FIX.4.4|9=60|35=0|34=14|49=001|50=001B27|52=20190627-13:43:09.539|56=EXC|10=102|
8=FIX.4.4|9=0050|35=0|34=15|49=EXC|56=001|52=20190627-13:43:36.000|10=214|
8=FIX.4.4|9=0184|35=R|34=16|49=EXC|56=001|52=20190627-13:43:37.547|131=20190627-000000000016.00|146=1|55=TFIT15260826|762=RFQF|48=20348|22=M|54=1|38=0|453=2|448=007B26|447=C|452=12|448=007|447=C|452=1|10=134|
8=FIX.4.4|9=60|35=0|34=15|49=001|50=001B27|52=20190627-13:43:39.537|56=EXC|10=104|
8=FIX.4.4|9=0050|35=0|34=17|49=EXC|56=001|52=20190627-13:44:07.000|10=215|
8=FIX.4.4|9=60|35=0|34=16|49=001|50=001B27|52=20190627-13:44:09.536|56=EXC|10=102|
8=FIX.4.4|9=0050|35=0|34=18|49=EXC|56=001|52=20190627-13:44:37.000|10=219|
8=FIX.4.4|9=60|35=0|34=17|49=001|50=001B27|52=20190627-13:44:39.535|56=EXC|10=105|
8=FIX.4.4|9=60|35=5|34=18|49=001|50=001B27|52=20190627-13:44:51.535|56=EXC|10=105|
8=FIX.4.4|9=0050|35=5|34=19|49=EXC|56=001|52=20190627-13:44:51.536|10=235|
8=FIX.4.4|9=110|35=A|34=1|49=001|50=001B27|52=20190627-15:02:33.970|56=EXC|43=Y|98=0|108=30|141=Y|553=001FCM001|554=001FCM001|10=083|
8=FIX.4.4|9=0067|35=A|34=1|49=EXC|56=001|52=20190627-15:02:34.007|98=0|108=30|141=Y|10=002|
8=FIX.4.4|9=186|35=R|34=2|49=001|50=001B27|52=20190627-15:02:41.341|56=EXC|131=201906271002311_R|146=1|55=TFIC13280425|22=M|762=RFQF|54=1|38=500000000|453=2|448=002B35|447=C|452=37|448=DCV|447=C|452=10|10=053|
8=FIX.4.4|9=0268|35=AI|34=2|49=EXC|56=001|57=001B27|52=20190627-15:02:41.342|131=201906271002311_R|453=5|448=DCV|447=C|452=10|448=001B27|447=C|452=12|448=001|447=C|452=1|448=001FCM001|447=C|452=36|448=002B35|447=C|452=37|55=TFIC13280425|762=RFQF|48=20626|22=M|54=1|38=500000000|297=10|10=209|
8=FIX.4.4|9=0316|35=S|34=3|49=EXC|56=001|57=001B27|52=20190627-15:03:01.985|131=201906271002311_R|117=20190627-000000000033.00|55=TFIC13280425|762=RFQF|48=20626|22=M|453=5|448=DCV|447=C|452=10|448=001B27|447=C|452=12|448=001|447=C|452=1|448=001FCM001|447=C|452=36|448=002B35|447=C|452=37|634=3.000|135=500000000|62=20190830-22:00:00|10=245|
8=FIX.4.4|9=59|35=0|34=3|49=001|50=001B27|52=20190627-15:03:11.910|56=EXC|10=044|
8=FIX.4.4|9=148|35=AJ|34=4|49=001|50=001B27|52=20190627-15:03:23.085|56=EXC|54=1|55=TFIC13280425|117=20190627-000000000033.00|693=201906271002311_AJ|694=1|762=RFQF|10=074|
8=FIX.4.4|9=0517|35=8|34=4|49=EXC|56=001|57=001B27|52=20190627-15:03:23.087|11=201906271002311_AJ|17=12|37=0|150=F|1080=20190627-000000000033.00|1081=5|453=6|448=001B27|447=C|452=12|448=001|447=C|452=1|448=002B35|447=C|452=37|448=002|447=C|452=17|448=001FCM001|447=C|452=36|448=DCV|447=C|452=10|55=TFIC13280425|762=RFQF|48=20626|22=M|6=84.156|14=500000000|31=84.156|32=500000000|38=500000000|39=2|20102=84.156|54=1|60=20190627-15:03:23.087|75=20190627|63=1|64=20190627|151=0|1623=3.000|381=420781500.000|880=201906270000000014|828=99|10=188|
8=FIX.4.4|9=186|35=R|34=5|49=001|50=001B27|52=20190627-15:03:49.999|56=EXC|131=201906271002312_R|146=1|55=TFIT16280428|22=M|762=RFQF|54=1|38=500000000|453=2|448=002B35|447=C|452=37|448=DCV|447=C|452=10|10=108|
8=FIX.4.4|9=0268|35=AI|34=5|49=EXC|56=001|57=001B27|52=20190627-15:03:50.000|131=201906271002312_R|453=5|448=DCV|447=C|452=10|448=001B27|447=C|452=12|448=001|447=C|452=1|448=001FCM001|447=C|452=36|448=002B35|447=C|452=37|55=TFIT16280428|762=RFQF|48=20399|22=M|54=1|38=500000000|297=10|10=235|
8=FIX.4.4|9=0316|35=S|34=6|49=EXC|56=001|57=001B27|52=20190627-15:04:15.590|131=201906271002312_R|117=20190627-000000000034.00|55=TFIT16280428|762=RFQF|48=20399|22=M|453=5|448=DCV|447=C|452=10|448=001B27|447=C|452=12|448=001|447=C|452=1|448=001FCM001|447=C|452=36|448=002B35|447=C|452=37|634=3.000|135=500000000|62=20190830-22:00:00|10=022|
8=FIX.4.4|9=59|35=0|34=6|49=001|50=001B27|52=20190627-15:04:20.911|56=EXC|10=049|
8=FIX.4.4|9=0094|35=Z|34=7|49=EXC|56=001|57=001B27|52=20190627-15:04:36.757|117=20190627-000000000034.00|298=5|10=091|
8=FIX.4.4|9=59|35=0|34=7|49=001|50=001B27|52=20190627-15:04:50.912|56=EXC|10=054|
8=FIX.4.4|9=186|35=R|34=8|49=001|50=001B27|52=20190627-15:04:57.464|56=EXC|131=201906271002313_R|146=1|55=TFIT16300632|22=M|762=RFQF|54=1|38=500000000|453=2|448=002B35|447=C|452=37|448=DCV|447=C|452=10|10=089|
8=FIX.4.4|9=0268|35=AI|34=8|49=EXC|56=001|57=001B27|52=20190627-15:04:57.467|131=201906271002313_R|453=5|448=DCV|447=C|452=10|448=001B27|447=C|452=12|448=001|447=C|452=1|448=001FCM001|447=C|452=36|448=002B35|447=C|452=37|55=TFIT16300632|762=RFQF|48=20406|22=M|54=1|38=500000000|297=10|10=243|
8=FIX.4.4|9=178|35=R|34=9|49=001|50=001B27|52=20190627-15:05:23.059|56=EXC|131=201906271002313_R|146=1|55=TFIT16300632|22=M|762=RFQF|54=1|38=0|453=2|448=002B35|447=C|452=37|448=DCV|447=C|452=10|10=208|
8=FIX.4.4|9=0268|35=AI|34=9|49=EXC|56=001|57=001B27|52=20190627-15:05:23.060|131=201906271002313_R|453=5|448=DCV|447=C|452=10|448=001B27|447=C|452=12|448=001|447=C|452=1|448=001FCM001|447=C|452=36|448=002B35|447=C|452=37|55=TFIT16300632|762=RFQF|48=20406|22=M|54=1|38=500000000|297=17|10=234|
8=FIX.4.4|9=154|35=R|34=10|49=001|50=001B27|52=20190627-15:05:48.798|56=EXC|131=201906271002314_R|146=1|55=   |22=M|762=RFQF|54=1|38=500000000|453=1|448=DCV|447=C|452=10|10=159|
8=FIX.4.4|9=0147|35=AG|34=10|49=EXC|56=001|57=001B27|52=20190627-15:05:48.800|131=201906271002314_R|658=1|146=1|55=   |762=RFQF|22=M|58=(1479): Simbolo desconocido|10=100|
8=FIX.4.4|9=212|35=R|34=11|49=001|50=001B27|52=20190627-15:06:04.209|56=EXC|131=201906271002315_R|146=1|55=TFIT06110919|22=M|762=RFQF|54=2|38=1000000000|453=3|448=002B35|447=C|452=37|448=DCV|447=C|452=10|448=010BWN|447=C|452=37|10=095|
8=FIX.4.4|9=0294|35=AI|34=11|49=EXC|56=001|57=001B27|52=20190627-15:06:04.211|131=201906271002315_R|453=6|448=DCV|447=C|452=10|448=001B27|447=C|452=12|448=001|447=C|452=1|448=001FCM001|447=C|452=36|448=002B35|447=C|452=37|448=010BWN|447=C|452=37|55=TFIT06110919|762=RFQF|48=20320|22=M|54=2|38=1000000000|297=10|10=243|
8=FIX.4.4|9=0318|35=S|34=12|49=EXC|56=001|57=001B27|52=20190627-15:06:26.042|131=201906271002315_R|117=20190627-000000000036.00|55=TFIT06110919|762=RFQF|48=20320|22=M|453=5|448=DCV|447=C|452=10|448=001B27|447=C|452=12|448=001|447=C|452=1|448=001FCM001|447=C|452=36|448=002B35|447=C|452=37|632=2.000|134=1000000000|62=20190830-22:00:00|10=090|
8=FIX.4.4|9=60|35=0|34=12|49=001|50=001B27|52=20190627-15:06:34.911|56=EXC|10=093|
8=FIX.4.4|9=149|35=AJ|34=13|49=001|50=001B27|52=20190627-15:06:51.702|56=EXC|54=2|55=TFIT06110919|117=20190627-000000000036.00|693=201906271002315_AJ|694=1|762=RFQF|10=150|
8=FIX.4.4|9=0525|35=8|34=13|49=EXC|56=001|57=001B27|52=20190627-15:06:51.704|11=201906271002315_AJ|17=13|37=0|150=F|1080=20190627-000000000036.00|1081=5|453=6|448=001B27|447=C|452=12|448=001|447=C|452=1|448=002B35|447=C|452=37|448=002|447=C|452=17|448=001FCM001|447=C|452=36|448=DCV|447=C|452=10|55=TFIT06110919|762=RFQF|48=20320|22=M|6=101.016|14=1000000000|31=101.016|32=1000000000|38=1000000000|39=2|20102=106.558|54=2|60=20190627-15:06:51.704|75=20190627|63=1|64=20190627|151=0|1623=2.000|381=1065585000.000|880=201906270000000015|828=99|10=040|
8=FIX.4.4|9=0193|35=R|34=14|49=EXC|56=001|52=20190627-15:07:18.660|131=20190627-000000000037.00|146=1|55=TFIT15260826|762=RFQF|48=20348|22=M|54=1|38=1500000000|453=2|448=007B26|447=C|452=12|448=007|447=C|452=1|10=058|
8=FIX.4.4|9=60|35=0|34=14|49=001|50=001B27|52=20190627-15:07:21.911|56=EXC|10=092|
8=FIX.4.4|9=0050|35=0|34=15|49=EXC|56=001|52=20190627-15:07:48.000|10=219|
8=FIX.4.4|9=0184|35=R|34=16|49=EXC|56=001|52=20190627-15:07:49.938|131=20190627-000000000037.00|146=1|55=TFIT15260826|762=RFQF|48=20348|22=M|54=1|38=0|453=2|448=007B26|447=C|452=12|448=007|447=C|452=1|10=146|
8=FIX.4.4|9=60|35=0|34=15|49=001|50=001B27|52=20190627-15:07:51.911|56=EXC|10=096|
8=FIX.4.4|9=0050|35=0|34=17|49=EXC|56=001|52=20190627-15:08:19.000|10=220|
8=FIX.4.4|9=60|35=0|34=16|49=001|50=001B27|52=20190627-15:08:21.911|56=EXC|10=095|
8=FIX.4.4|9=0050|35=0|34=18|49=EXC|56=001|52=20190627-15:08:49.000|10=224|
8=FIX.4.4|9=60|35=0|34=17|49=001|50=001B27|52=20190627-15:08:51.912|56=EXC|10=100|
8=FIX.4.4|9=60|35=5|34=18|49=001|50=001B27|52=20190627-15:09:02.910|56=EXC|10=101|
8=FIX.4.4|9=0050|35=5|34=19|49=EXC|56=001|52=20190627-15:09:02.911|10=231|
