8=FIX.4.4|9=110|35=A|34=1|49=002|50=002B35|52=20190607-21:41:30.313|56=EXC|43=Y|98=0|108=30|141=Y|553=002FCM001|554=002FCM001|10=072|
8=FIX.4.4|9=0067|35=A|34=1|49=EXC|56=002|52=20190607-21:41:30.267|98=0|108=30|141=Y|10=005|
8=FIX.4.4|9=0192|35=R|34=2|49=EXC|56=002|52=20190607-21:41:32.688|131=20190607-000000000071.00|146=1|55=TFIT15260826|762=RFQF|48=20348|22=M|54=1|38=1500000000|453=2|448=007B26|447=C|452=12|448=007|447=C|452=1|10=002|
8=FIX.4.4|9=110|35=A|34=1|49=002|50=002B35|52=20190607-21:52:29.938|56=EXC|43=Y|98=0|108=30|141=Y|553=002FCM001|554=002FCM001|10=095|
8=FIX.4.4|9=0067|35=A|34=1|49=EXC|56=002|52=20190607-21:52:29.898|98=0|108=30|141=Y|10=025|
8=FIX.4.4|9=0191|35=R|34=2|49=EXC|56=002|52=20190607-21:52:32.256|131=20190607-000000000073.00|146=1|55=TFIT16300632|762=RFQF|48=20406|22=M|54=1|38=500000000|453=2|448=001B27|447=C|452=12|448=001|447=C|452=1|10=178|
8=FIX.4.4|9=110|35=A|34=1|49=002|50=002B35|52=20190607-21:53:03.971|56=EXC|43=Y|98=0|108=30|141=Y|553=002FCM001|554=002FCM001|10=085|
8=FIX.4.4|9=0067|35=A|34=1|49=EXC|56=002|52=20190607-21:53:03.923|98=0|108=30|141=Y|10=007|
8=FIX.4.4|9=0049|35=0|34=2|49=EXC|56=002|52=20190607-21:53:33.000|10=166|
8=FIX.4.4|9=59|35=0|34=2|49=002|50=002B35|52=20190607-21:53:34.934|56=EXC|10=055|
8=FIX.4.4|9=0049|35=0|34=3|49=EXC|56=002|52=20190607-21:54:03.000|10=165|
8=FIX.4.4|9=59|35=0|34=3|49=002|50=002B35|52=20190607-21:54:04.934|56=EXC|10=054|
8=FIX.4.4|9=110|35=A|34=1|49=002|50=002B35|52=20190607-21:54:23.048|56=EXC|43=Y|98=0|108=30|141=Y|553=002FCM001|554=002FCM001|10=083|
8=FIX.4.4|9=0067|35=A|34=1|49=EXC|56=002|52=20190607-21:54:23.003|98=0|108=30|141=Y|10=255|
