8=FIX.4.4|9=105|35=A|34=1|49=001|50=001B27|52=20190613-23:20:40.018|56=EXC|98=0|108=30|141=Y|553=001FCM001|554=001FCM001|10=074|
8=FIX.4.4|9=0067|35=A|34=1|49=EXC|56=001|52=20190613-23:20:39.661|98=0|108=30|141=Y|10=007|
8=FIX.4.4|9=161|35=R|34=2|49=001|50=001B27|52=20190613-23:20:47.574|56=EXC|131=201906131820374_R|146=1|55=TFIT19PEDRO|22=M|762=RFQF|54=1|38=500000000|453=1|448=DCV|447=C|452=10|10=032|
8=FIX.4.4|9=0154|35=AG|34=2|49=EXC|56=001|57=001B27|52=20190613-23:20:47.161|131=201906131820374_R|658=1|146=1|55=TFIT19PEDRO|762=RFQF|22=M|58=(1479): Simbolo desconocido|10=237|
8=FIX.4.4|9=118|35=3|34=3|49=001|50=001B27|52=20190613-23:20:47.612|56=EXC|45=2|58=Required tag missing, field=38|371=38|372=AG|373=1|10=065|
8=FIX.4.4|9=105|35=A|34=1|49=001|50=001B27|52=20190613-23:32:29.792|56=EXC|98=0|108=30|141=Y|553=001FCM001|554=001FCM001|10=093|
8=FIX.4.4|9=0067|35=A|34=1|49=EXC|56=001|52=20190613-23:32:29.106|98=0|108=30|141=Y|10=003|
8=FIX.4.4|9=162|35=R|34=2|49=001|50=001B27|52=20190613-23:32:37.460|56=EXC|131=201906131832274_R|146=1|55=TFIT06211118|22=M|762=RFQF|54=1|38=500000000|453=1|448=DCV|447=C|452=10|10=207|
8=FIX.4.4|9=0155|35=AG|34=2|49=EXC|56=001|57=001B27|52=20190613-23:32:36.740|131=201906131832274_R|658=1|146=1|55=TFIT06211118|762=RFQF|22=M|58=(1479): Simbolo desconocido|10=164|
8=FIX.4.4|9=118|35=3|34=3|49=001|50=001B27|52=20190613-23:32:37.487|56=EXC|45=2|58=Required tag missing, field=38|371=38|372=AG|373=1|10=077|
8=FIX.4.4|9=0049|35=0|34=3|49=EXC|56=001|52=20190613-23:33:06.000|10=163|
8=FIX.4.4|9=59|35=0|34=4|49=001|50=001B27|52=20190613-23:33:07.743|56=EXC|10=051|
8=FIX.4.4|9=105|35=A|34=1|49=001|50=001B27|52=20190613-23:41:59.514|56=EXC|98=0|108=30|141=Y|553=001FCM001|554=001FCM001|10=088|
8=FIX.4.4|9=0067|35=A|34=1|49=EXC|56=001|52=20190613-23:41:58.850|98=0|108=30|141=Y|10=011|
8=FIX.4.4|9=162|35=R|34=2|49=001|50=001B27|52=20190613-23:42:07.071|56=EXC|131=201906131841574_R|146=1|55=TFIT06211118|22=M|762=RFQF|54=1|38=500000000|453=1|448=DCV|447=C|452=10|10=206|
8=FIX.4.4|9=0155|35=AG|34=2|49=EXC|56=001|57=001B27|52=20190613-23:42:06.379|131=201906131841574_R|658=1|146=1|55=TFIT06211118|762=RFQF|22=M|58=(1479): Simbolo desconocido|10=173|
8=FIX.4.4|9=118|35=3|34=3|49=001|50=001B27|52=20190613-23:42:07.187|56=EXC|45=2|58=Required tag missing, field=38|371=38|372=AG|373=1|10=072|
8=FIX.4.4|9=105|35=A|34=1|49=001|50=001B27|52=20190613-23:44:32.537|56=EXC|98=0|108=30|141=Y|553=001FCM001|554=001FCM001|10=087|
8=FIX.4.4|9=0067|35=A|34=1|49=EXC|56=001|52=20190613-23:44:31.884|98=0|108=30|141=Y|10=012|
8=FIX.4.4|9=162|35=R|34=2|49=001|50=001B27|52=20190613-23:44:40.036|56=EXC|131=201906131844304_R|146=1|55=TFIT06211118|22=M|762=RFQF|54=1|38=500000000|453=1|448=DCV|447=C|452=10|10=200|
8=FIX.4.4|9=0155|35=AG|34=2|49=EXC|56=001|57=001B27|52=20190613-23:44:39.335|131=201906131844304_R|658=1|146=1|55=TFIT06211118|762=RFQF|22=M|58=(1479): Simbolo desconocido|10=167|
8=FIX.4.4|9=0049|35=0|34=3|49=EXC|56=001|52=20190613-23:45:09.000|10=169|
8=FIX.4.4|9=59|35=0|34=3|49=001|50=001B27|52=20190613-23:45:10.497|56=EXC|10=053|
8=FIX.4.4|9=105|35=A|34=1|49=001|50=001B27|52=20190614-12:59:00.443|56=EXC|98=0|108=30|141=Y|553=001FCM001|554=001FCM001|10=083|
8=FIX.4.4|9=0067|35=A|34=1|49=EXC|56=001|52=20190614-12:59:00.875|98=0|108=30|141=Y|10=013|
8=FIX.4.4|9=161|35=R|34=2|49=001|50=001B27|52=20190614-12:59:08.105|56=EXC|131=20190614758574_R|146=1|55=TFIT06211118|22=M|762=RFQF|54=1|38=500000000|453=1|448=DCV|447=C|452=10|10=170|
8=FIX.4.4|9=0154|35=AG|34=2|49=EXC|56=001|57=001B27|52=20190614-12:59:08.469|131=20190614758574_R|658=1|146=1|55=TFIT06211118|762=RFQF|22=M|58=(1479): Simbolo desconocido|10=140|
8=FIX.4.4|9=105|35=A|34=1|49=001|50=001B27|52=20190614-13:07:53.933|56=EXC|98=0|108=30|141=Y|553=001FCM001|554=001FCM001|10=089|
8=FIX.4.4|9=0067|35=A|34=1|49=EXC|56=001|52=20190614-13:07:53.369|98=0|108=30|141=Y|10=013|
8=FIX.4.4|9=161|35=R|34=2|49=001|50=001B27|52=20190614-13:08:01.509|56=EXC|131=20190614807514_R|146=1|55=TFIT06211118|22=M|762=RFQF|54=1|38=500000000|453=1|448=DCV|447=C|452=10|10=155|
8=FIX.4.4|9=0154|35=AG|34=2|49=EXC|56=001|57=001B27|52=20190614-13:08:00.903|131=20190614807514_R|658=1|146=1|55=TFIT06211118|762=RFQF|22=M|58=(1479): Simbolo desconocido|10=109|
8=FIX.4.4|9=105|35=A|34=1|49=001|50=001B27|52=20190614-13:13:22.083|56=EXC|98=0|108=30|141=Y|553=001FCM001|554=001FCM001|10=078|
8=FIX.4.4|9=0067|35=A|34=1|49=EXC|56=001|52=20190614-13:13:22.076|98=0|108=30|141=Y|10=001|
8=FIX.4.4|9=161|35=R|34=2|49=001|50=001B27|52=20190614-13:13:29.555|56=EXC|131=20190614813194_R|146=1|55=TFIT06211118|22=M|762=RFQF|54=1|38=500000000|453=1|448=DCV|447=C|452=10|10=163|
8=FIX.4.4|9=0154|35=AG|34=2|49=EXC|56=001|57=001B27|52=20190614-13:13:29.535|131=20190614813194_R|658=1|146=1|55=TFIT06211118|762=RFQF|22=M|58=(1479): Simbolo desconocido|10=118|
8=FIX.4.4|9=105|35=A|34=1|49=001|50=001B27|52=20190614-13:15:42.982|56=EXC|98=0|108=30|141=Y|553=001FCM001|554=001FCM001|10=090|
8=FIX.4.4|9=0067|35=A|34=1|49=EXC|56=001|52=20190614-13:15:43.167|98=0|108=30|141=Y|10=007|
8=FIX.4.4|9=161|35=R|34=2|49=001|50=001B27|52=20190614-13:15:50.508|56=EXC|131=20190614815404_R|146=1|55=TFIT06211118|22=M|762=RFQF|54=1|38=500000000|453=1|448=DCV|447=C|452=10|10=153|
8=FIX.4.4|9=0154|35=AG|34=2|49=EXC|56=001|57=001B27|52=20190614-13:15:50.663|131=20190614815404_R|658=1|146=1|55=TFIT06211118|762=RFQF|22=M|58=(1479): Simbolo desconocido|10=112|
8=FIX.4.4|9=105|35=A|34=1|49=001|50=001B27|52=20190614-13:23:21.431|56=EXC|98=0|108=30|141=Y|553=001FCM001|554=001FCM001|10=075|
8=FIX.4.4|9=0067|35=A|34=1|49=EXC|56=001|52=20190614-13:23:21.744|98=0|108=30|141=Y|10=003|
8=FIX.4.4|9=161|35=R|34=2|49=001|50=001B27|52=20190614-13:23:28.978|56=EXC|131=20190614823194_R|146=1|55=TFIT06211118|22=M|762=RFQF|54=1|38=500000000|453=1|448=DCV|447=C|452=10|10=173|
8=FIX.4.4|9=0154|35=AG|34=2|49=EXC|56=001|57=001B27|52=20190614-13:23:29.246|131=20190614823194_R|658=1|146=1|55=TFIT06211118|762=RFQF|22=M|58=(1479): Simbolo desconocido|10=119|
8=FIX.4.4|9=105|35=A|34=1|49=001|50=001B27|52=20190614-13:24:35.019|56=EXC|98=0|108=30|141=Y|553=001FCM001|554=001FCM001|10=083|
8=FIX.4.4|9=0067|35=A|34=1|49=EXC|56=001|52=20190614-13:24:35.048|98=0|108=30|141=Y|10=006|
8=FIX.4.4|9=161|35=R|34=2|49=001|50=001B27|52=20190614-13:24:42.588|56=EXC|131=20190614824324_R|146=1|55=TFIT06211118|22=M|762=RFQF|54=1|38=500000000|453=1|448=DCV|447=C|452=10|10=163|
8=FIX.4.4|9=0154|35=AG|34=2|49=EXC|56=001|57=001B27|52=20190614-13:24:42.571|131=20190614824324_R|658=1|146=1|55=TFIT06211118|762=RFQF|22=M|58=(1479): Simbolo desconocido|10=112|
8=FIX.4.4|9=105|35=A|34=1|49=001|50=001B27|52=20190614-13:30:39.940|56=EXC|98=0|108=30|141=Y|553=001FCM001|554=001FCM001|10=087|
8=FIX.4.4|9=0067|35=A|34=1|49=EXC|56=001|52=20190614-13:30:40.046|98=0|108=30|141=Y|10=253|
8=FIX.4.4|9=161|35=R|34=2|49=001|50=001B27|52=20190614-13:30:47.404|56=EXC|131=20190614830374_R|146=1|55=TFIT06211118|22=M|762=RFQF|54=1|38=500000000|453=1|448=DCV|447=C|452=10|10=154|
8=FIX.4.4|9=0154|35=AG|34=2|49=EXC|56=001|57=001B27|52=20190614-13:30:47.482|131=20190614830374_R|658=1|146=1|55=TFIT06211118|762=RFQF|22=M|58=(1479): Simbolo desconocido|10=117|
8=FIX.4.4|9=0049|35=0|34=3|49=EXC|56=001|52=20190614-13:31:17.000|10=163|
8=FIX.4.4|9=59|35=0|34=3|49=001|50=001B27|52=20190614-13:31:17.886|56=EXC|10=057|
8=FIX.4.4|9=0049|35=0|34=4|49=EXC|56=001|52=20190614-13:31:47.000|10=167|
8=FIX.4.4|9=59|35=0|34=4|49=001|50=001B27|52=20190614-13:31:47.886|56=EXC|10=061|
8=FIX.4.4|9=105|35=A|34=1|49=001|50=001B27|52=20190614-13:39:25.817|56=EXC|98=0|108=30|141=Y|553=001FCM001|554=001FCM001|10=094|
8=FIX.4.4|9=0067|35=A|34=1|49=EXC|56=001|52=20190614-13:39:26.067|98=0|108=30|141=Y|10=013|
8=FIX.4.4|9=161|35=R|34=2|49=001|50=001B27|52=20190614-13:39:33.327|56=EXC|131=20190614839234_R|146=1|55=TFIT06211118|22=M|762=RFQF|54=1|38=500000000|453=1|448=DCV|447=C|452=10|10=166|
8=FIX.4.4|9=0154|35=AG|34=2|49=EXC|56=001|57=001B27|52=20190614-13:39:33.542|131=20190614839234_R|658=1|146=1|55=TFIT06211118|762=RFQF|22=M|58=(1479): Simbolo desconocido|10=122|
8=FIX.4.4|9=105|35=A|34=1|49=001|50=001B27|52=20190614-13:40:46.925|56=EXC|98=0|108=30|141=Y|553=001FCM001|554=001FCM001|10=089|
8=FIX.4.4|9=0067|35=A|34=1|49=EXC|56=001|52=20190614-13:40:47.192|98=0|108=30|141=Y|10=007|
8=FIX.4.4|9=161|35=R|34=2|49=001|50=001B27|52=20190614-13:40:54.387|56=EXC|131=20190614840444_R|146=1|55=TFIT06211118|22=M|762=RFQF|54=1|38=500000000|453=1|448=DCV|447=C|452=10|10=162|
8=FIX.4.4|9=0154|35=AG|34=2|49=EXC|56=001|57=001B27|52=20190614-13:40:54.626|131=20190614840444_R|658=1|146=1|55=TFIT06211118|762=RFQF|22=M|58=(1479): Simbolo desconocido|10=115|
8=FIX.4.4|9=105|35=A|34=1|49=001|50=001B27|52=20190614-13:50:36.278|56=EXC|98=0|108=30|141=Y|553=001FCM001|554=001FCM001|10=090|
8=FIX.4.4|9=0067|35=A|34=1|49=EXC|56=001|52=20190614-13:50:36.744|98=0|108=30|141=Y|10=009|
8=FIX.4.4|9=161|35=R|34=2|49=001|50=001B27|52=20190614-13:50:43.730|56=EXC|131=20190614850344_R|146=1|55=TFIT06211118|22=M|762=RFQF|54=1|38=500000000|453=1|448=DCV|447=C|452=10|10=153|
8=FIX.4.4|9=0154|35=AG|34=2|49=EXC|56=001|57=001B27|52=20190614-13:50:44.128|131=20190614850344_R|658=1|146=1|55=TFIT06211118|762=RFQF|22=M|58=(1479): Simbolo desconocido|10=112|
8=FIX.4.4|9=105|35=A|34=1|49=001|50=001B27|52=20190614-13:53:29.880|56=EXC|98=0|108=30|141=Y|553=001FCM001|554=001FCM001|10=094|
8=FIX.4.4|9=0067|35=A|34=1|49=EXC|56=001|52=20190614-13:53:30.355|98=0|108=30|141=Y|10=004|
8=FIX.4.4|9=161|35=R|34=2|49=001|50=001B27|52=20190614-13:53:37.360|56=EXC|131=20190614853274_R|146=1|55=TFIT06211118|22=M|762=RFQF|54=1|38=500000000|453=1|448=DCV|447=C|452=10|10=163|
8=FIX.4.4|9=0154|35=AG|34=2|49=EXC|56=001|57=001B27|52=20190614-13:53:37.803|131=20190614853274_R|658=1|146=1|55=TFIT06211118|762=RFQF|22=M|58=(1479): Simbolo desconocido|10=122|
8=FIX.4.4|9=0049|35=0|34=3|49=EXC|56=001|52=20190614-13:54:07.000|10=167|
8=FIX.4.4|9=59|35=0|34=3|49=001|50=001B27|52=20190614-13:54:07.838|56=EXC|10=058|
8=FIX.4.4|9=0049|35=0|34=4|49=EXC|56=001|52=20190614-13:54:37.000|10=171|
8=FIX.4.4|9=59|35=0|34=4|49=001|50=001B27|52=20190614-13:54:37.838|56=EXC|10=062|
8=FIX.4.4|9=0049|35=0|34=5|49=EXC|56=001|52=20190614-13:55:07.000|10=170|
8=FIX.4.4|9=59|35=0|34=5|49=001|50=001B27|52=20190614-13:55:07.840|56=EXC|10=054|
8=FIX.4.4|9=0049|35=0|34=6|49=EXC|56=001|52=20190614-13:55:37.000|10=174|
8=FIX.4.4|9=59|35=0|34=6|49=001|50=001B27|52=20190614-13:55:37.839|56=EXC|10=066|
8=FIX.4.4|9=0049|35=0|34=7|49=EXC|56=001|52=20190614-13:56:07.000|10=173|
8=FIX.4.4|9=59|35=0|34=7|49=001|50=001B27|52=20190614-13:56:07.840|56=EXC|10=057|
8=FIX.4.4|9=0049|35=0|34=8|49=EXC|56=001|52=20190614-13:56:37.000|10=177|
8=FIX.4.4|9=59|35=0|34=8|49=001|50=001B27|52=20190614-13:56:37.838|56=EXC|10=068|
8=FIX.4.4|9=0049|35=0|34=9|49=EXC|56=001|52=20190614-13:57:07.000|10=176|
8=FIX.4.4|9=59|35=0|34=9|49=001|50=001B27|52=20190614-13:57:07.838|56=EXC|10=067|
8=FIX.4.4|9=0050|35=0|34=10|49=EXC|56=001|52=20190614-13:57:37.000|10=211|
8=FIX.4.4|9=60|35=0|34=10|49=001|50=001B27|52=20190614-13:57:37.838|56=EXC|10=102|
8=FIX.4.4|9=0050|35=0|34=11|49=EXC|56=001|52=20190614-13:58:07.000|10=210|
8=FIX.4.4|9=60|35=0|34=11|49=001|50=001B27|52=20190614-13:58:07.838|56=EXC|10=101|
8=FIX.4.4|9=0050|35=0|34=12|49=EXC|56=001|52=20190614-13:58:37.000|10=214|
8=FIX.4.4|9=60|35=0|34=12|49=001|50=001B27|52=20190614-13:58:37.839|56=EXC|10=106|
8=FIX.4.4|9=0050|35=0|34=13|49=EXC|56=001|52=20190614-13:59:07.000|10=213|
8=FIX.4.4|9=60|35=0|34=13|49=001|50=001B27|52=20190614-13:59:07.838|56=EXC|10=104|
8=FIX.4.4|9=0050|35=0|34=14|49=EXC|56=001|52=20190614-13:59:37.000|10=217|
8=FIX.4.4|9=60|35=0|34=14|49=001|50=001B27|52=20190614-13:59:37.839|56=EXC|10=109|
8=FIX.4.4|9=0050|35=0|34=15|49=EXC|56=001|52=20190614-14:00:07.000|10=202|
8=FIX.4.4|9=60|35=0|34=15|49=001|50=001B27|52=20190614-14:00:07.838|56=EXC|10=093|
8=FIX.4.4|9=0050|35=0|34=16|49=EXC|56=001|52=20190614-14:00:37.000|10=206|
8=FIX.4.4|9=60|35=0|34=16|49=001|50=001B27|52=20190614-14:00:37.839|56=EXC|10=098|
8=FIX.4.4|9=105|35=A|34=1|49=001|50=001B27|52=20190614-14:01:16.343|56=EXC|98=0|108=30|141=Y|553=001FCM001|554=001FCM001|10=078|
8=FIX.4.4|9=0067|35=A|34=1|49=EXC|56=001|52=20190614-14:01:16.964|98=0|108=30|141=Y|10=008|
8=FIX.4.4|9=161|35=R|34=2|49=001|50=001B27|52=20190614-14:01:24.016|56=EXC|131=20190614901144_R|146=1|55=TFIT06211118|22=M|762=RFQF|54=1|38=500000000|453=1|448=DCV|447=C|452=10|10=141|
8=FIX.4.4|9=0154|35=AG|34=2|49=EXC|56=001|57=001B27|52=20190614-14:01:24.581|131=20190614901144_R|658=1|146=1|55=TFIT06211118|762=RFQF|22=M|58=(1479): Simbolo desconocido|10=105|
8=FIX.4.4|9=186|35=R|34=3|49=001|50=001B27|52=20190614-14:01:37.602|56=EXC|131=20190614901145_R|146=1|55=TFIT06110919|22=M|762=RFQF|54=1|38=1000000000|453=2|448=002B35|447=C|452=37|448=DCV|447=C|452=10|10=076|
8=FIX.4.4|9=0268|35=AI|34=3|49=EXC|56=001|57=001B27|52=20190614-14:01:38.169|131=20190614901145_R|453=5|448=DCV|447=C|452=10|448=001B27|447=C|452=12|448=001|447=C|452=1|448=001FCM001|447=C|452=36|448=002B35|447=C|452=37|55=TFIT06110919|762=RFQF|48=20320|22=M|54=1|38=1000000000|297=10|10=231|
8=FIX.4.4|9=105|35=A|34=1|49=001|50=001B27|52=20190614-14:34:22.472|56=EXC|98=0|108=30|141=Y|553=001FCM001|554=001FCM001|10=084|
8=FIX.4.4|9=0067|35=A|34=1|49=EXC|56=001|52=20190614-14:34:22.795|98=0|108=30|141=Y|10=013|
8=FIX.4.4|9=140|35=R|34=2|49=001|50=001B27|52=20190614-14:34:29.754|56=EXC|131=20190614934208_R|146=1|55=TFIT16180930|22=M|762=RFQF|54=1|38=500000000|453=0|10=151|
8=FIX.4.4|9=0160|35=AG|34=2|49=EXC|56=001|57=001B27|52=20190614-14:34:30.010|131=20190614934208_R|658=99|146=1|55=TFIT16180930|762=RFQF|22=M|58=(962): Deposito no fue ingresada|10=107|
8=FIX.4.4|9=0049|35=0|34=3|49=EXC|56=001|52=20190614-14:35:00.000|10=160|
8=FIX.4.4|9=59|35=0|34=3|49=001|50=001B27|52=20190614-14:34:59.756|56=EXC|10=063|
8=FIX.4.4|9=105|35=A|34=1|49=001|50=001B27|52=20190614-14:35:27.876|56=EXC|98=0|108=30|141=Y|553=001FCM001|554=001FCM001|10=098|
8=FIX.4.4|9=0067|35=A|34=1|49=EXC|56=001|52=20190614-14:35:28.179|98=0|108=30|141=Y|10=016|
8=FIX.4.4|9=185|35=R|34=2|49=001|50=001B27|52=20190614-14:35:35.233|56=EXC|131=20190614935251_R|146=1|55=TFIC13280425|22=M|762=RFQF|54=1|38=500000000|453=2|448=002B35|447=C|452=37|448=DCV|447=C|452=10|10=021|
8=FIX.4.4|9=0267|35=AI|34=2|49=EXC|56=001|57=001B27|52=20190614-14:35:35.505|131=20190614935251_R|453=5|448=DCV|447=C|452=10|448=001B27|447=C|452=12|448=001|447=C|452=1|448=001FCM001|447=C|452=36|448=002B35|447=C|452=37|55=TFIC13280425|762=RFQF|48=20626|22=M|54=1|38=500000000|297=10|10=178|
8=FIX.4.4|9=105|35=A|34=1|49=001|50=001B27|52=20190614-14:36:04.962|56=EXC|98=0|108=30|141=Y|553=001FCM001|554=001FCM001|10=090|
8=FIX.4.4|9=0067|35=A|34=1|49=EXC|56=001|52=20190614-14:36:05.275|98=0|108=30|141=Y|10=009|
8=FIX.4.4|9=140|35=R|34=2|49=001|50=001B27|52=20190614-14:36:12.237|56=EXC|131=20190614936028_R|146=1|55=TFIT16180930|22=M|762=RFQF|54=1|38=500000000|453=0|10=143|
8=FIX.4.4|9=0160|35=AG|34=2|49=EXC|56=001|57=001B27|52=20190614-14:36:12.518|131=20190614936028_R|658=99|146=1|55=TFIT16180930|762=RFQF|22=M|58=(962): Deposito no fue ingresada|10=124|
8=FIX.4.4|9=105|35=A|34=1|49=001|50=001B27|52=20190614-14:39:40.028|56=EXC|98=0|108=30|141=Y|553=001FCM001|554=001FCM001|10=086|
8=FIX.4.4|9=0067|35=A|34=1|49=EXC|56=001|52=20190614-14:39:40.415|98=0|108=30|141=Y|10=007|
8=FIX.4.4|9=180|35=R|34=2|49=001|50=001B27|52=20190614-14:39:47.315|56=EXC|131=20190614939371_R|146=1|55=TFIC13280425|762=RFQF|54=1|38=500000000|453=2|448=002B35|447=C|452=37|448=DCV|447=C|452=10|10=048|
8=FIX.4.4|9=0267|35=AI|34=2|49=EXC|56=001|57=001B27|52=20190614-14:39:47.655|131=20190614939371_R|453=5|448=DCV|447=C|452=10|448=001B27|447=C|452=12|448=001|447=C|452=1|448=001FCM001|447=C|452=36|448=002B35|447=C|452=37|55=TFIC13280425|762=RFQF|48=20626|22=M|54=1|38=500000000|297=10|10=198|
8=FIX.4.4|9=0315|35=S|34=3|49=EXC|56=001|57=001B27|52=20190614-14:40:03.789|131=20190614939371_R|117=20190614-000000000003.00|55=TFIC13280425|762=RFQF|48=20626|22=M|453=5|448=DCV|447=C|452=10|448=001B27|447=C|452=12|448=001|447=C|452=1|448=001FCM001|447=C|452=36|448=002B35|447=C|452=37|634=4.000|135=500000000|62=20190617-22:00:00|10=213|
8=FIX.4.4|9=105|35=A|34=1|49=001|50=001B27|52=20190614-14:41:46.919|56=EXC|98=0|108=30|141=Y|553=001FCM001|554=001FCM001|10=094|
8=FIX.4.4|9=0067|35=A|34=1|49=EXC|56=001|52=20190614-14:41:47.343|98=0|108=30|141=Y|10=007|
8=FIX.4.4|9=180|35=R|34=2|49=001|50=001B27|52=20190614-14:41:54.283|56=EXC|131=20190614941441_R|146=1|55=TFIC13280425|22=M|762=RFQF|38=500000000|453=2|448=002B35|447=C|452=37|448=DCV|447=C|452=10|10=057|
8=FIX.4.4|9=0262|35=AI|34=2|49=EXC|56=001|57=001B27|52=20190614-14:41:54.659|131=20190614941441_R|453=5|448=DCV|447=C|452=10|448=001B27|447=C|452=12|448=001|447=C|452=1|448=001FCM001|447=C|452=36|448=002B35|447=C|452=37|55=TFIC13280425|762=RFQF|48=20626|22=M|38=500000000|297=10|10=219|
8=FIX.4.4|9=105|35=A|34=1|49=001|50=001B27|52=20190614-14:42:23.664|56=EXC|98=0|108=30|141=Y|553=001FCM001|554=001FCM001|10=087|
8=FIX.4.4|9=0067|35=A|34=1|49=EXC|56=001|52=20190614-14:42:24.087|98=0|108=30|141=Y|10=008|
8=FIX.4.4|9=172|35=R|34=2|49=001|50=001B27|52=20190614-14:42:31.021|56=EXC|131=20190614942211_R|146=1|55=TFIC13280425|22=M|762=RFQF|54=1|453=2|448=002B35|447=C|452=37|448=DCV|447=C|452=10|10=162|
8=FIX.4.4|9=0125|35=3|34=2|49=EXC|56=001|52=20190614-14:42:31.407|45=2|371=38|372=R|373=1|58=(1463): Hace falta campo requerido OrderQty(#38)|10=021|
8=FIX.4.4|9=105|35=A|34=1|49=001|50=001B27|52=20190614-14:47:56.537|56=EXC|98=0|108=30|141=Y|553=001FCM001|554=001FCM001|10=097|
8=FIX.4.4|9=0067|35=A|34=1|49=EXC|56=001|52=20190614-14:47:56.739|98=0|108=30|141=Y|10=022|
8=FIX.4.4|9=172|35=R|34=2|49=001|50=001B27|52=20190614-14:48:03.930|56=EXC|131=20190614947531_R|146=1|55=TFIC13280425|22=M|762=RFQF|54=1|453=2|448=002B35|447=C|452=37|448=DCV|447=C|452=10|10=186|
8=FIX.4.4|9=0125|35=3|34=2|49=EXC|56=001|52=20190614-14:48:04.095|45=2|371=38|372=R|373=1|58=(1463): Hace falta campo requerido OrderQty(#38)|10=030|
8=FIX.4.4|9=105|35=A|34=1|49=001|50=001B27|52=20190614-14:49:37.288|56=EXC|98=0|108=30|141=Y|553=001FCM001|554=001FCM001|10=101|
8=FIX.4.4|9=0067|35=A|34=1|49=EXC|56=001|52=20190614-14:49:37.510|98=0|108=30|141=Y|10=010|
8=FIX.4.4|9=172|35=R|34=2|49=001|50=001B27|52=20190614-14:49:44.677|56=EXC|131=20190614949341_R|146=1|55=TFIC13280425|22=M|762=RFQF|54=1|453=2|448=002B35|447=C|452=37|448=DCV|447=C|452=10|10=201|
8=FIX.4.4|9=0125|35=3|34=2|49=EXC|56=001|52=20190614-14:49:44.868|45=2|371=38|372=R|373=1|58=(1463): Hace falta campo requerido OrderQty(#38)|10=043|
8=FIX.4.4|9=172|35=R|34=3|49=001|50=001B27|52=20190614-14:49:55.119|56=EXC|131=20190614949342_R|146=1|55=TFIT16280428|22=M|762=RFQF|54=1|453=2|448=002B35|447=C|452=37|448=DCV|447=C|452=10|10=219|
8=FIX.4.4|9=0125|35=3|34=3|49=EXC|56=001|52=20190614-14:49:55.313|45=3|371=38|372=R|373=1|58=(1463): Hace falta campo requerido OrderQty(#38)|10=032|
