8=FIX.4.4|9=110|35=A|34=1|49=013|50=013B17|52=20190607-14:13:05.174|56=EXC|43=Y|98=0|108=30|141=Y|553=013FCM001|554=013FCM001|10=088|
8=FIX.4.4|9=0067|35=A|34=1|49=EXC|56=013|52=20190607-14:13:05.235|98=0|108=30|141=Y|10=005|
8=FIX.4.4|9=0192|35=R|34=2|49=EXC|56=013|52=20190607-14:13:07.262|131=20190607-000000000012.00|146=1|55=TFIT15260826|762=RFQF|48=20348|22=M|54=1|38=1500000000|453=2|448=001B27|447=C|452=12|448=001|447=C|452=1|10=235|
8=FIX.4.4|9=110|35=A|34=1|49=013|50=013B17|52=20190607-15:35:43.382|56=EXC|43=Y|98=0|108=30|141=Y|553=013FCM001|554=013FCM001|10=096|
8=FIX.4.4|9=0067|35=A|34=1|49=EXC|56=013|52=20190607-15:35:43.442|98=0|108=30|141=Y|10=012|
8=FIX.4.4|9=110|35=A|34=1|49=013|50=013B17|52=20190607-16:16:18.429|56=EXC|43=Y|98=0|108=30|141=Y|553=013FCM001|554=013FCM001|10=100|
8=FIX.4.4|9=0067|35=A|34=1|49=EXC|56=013|52=20190607-16:16:18.497|98=0|108=30|141=Y|10=024|
8=FIX.4.4|9=110|35=A|34=1|49=013|50=013B17|52=20190607-16:39:55.284|56=EXC|43=Y|98=0|108=30|141=Y|553=013FCM001|554=013FCM001|10=105|
8=FIX.4.4|9=0067|35=A|34=1|49=EXC|56=013|52=20190607-16:39:55.323|98=0|108=30|141=Y|10=018|
8=FIX.4.4|9=110|35=A|34=1|49=013|50=013B17|52=20190607-16:43:05.220|56=EXC|43=Y|98=0|108=30|141=Y|553=013FCM001|554=013FCM001|10=085|
8=FIX.4.4|9=0067|35=A|34=1|49=EXC|56=013|52=20190607-16:43:05.252|98=0|108=30|141=Y|10=009|
8=FIX.4.4|9=110|35=A|34=1|49=013|50=013B17|52=20190607-16:44:16.390|56=EXC|43=Y|98=0|108=30|141=Y|553=013FCM001|554=013FCM001|10=096|
8=FIX.4.4|9=0067|35=A|34=1|49=EXC|56=013|52=20190607-16:44:16.421|98=0|108=30|141=Y|10=010|
8=FIX.4.4|9=110|35=A|34=1|49=013|50=013B17|52=20190607-16:47:05.356|56=EXC|43=Y|98=0|108=30|141=Y|553=013FCM001|554=013FCM001|10=099|
8=FIX.4.4|9=0067|35=A|34=1|49=EXC|56=013|52=20190607-16:47:05.394|98=0|108=30|141=Y|10=020|
8=FIX.4.4|9=0192|35=R|34=2|49=EXC|56=013|52=20190607-16:47:07.473|131=20190607-000000000033.00|146=1|55=TFIT15260826|762=RFQF|48=20348|22=M|54=1|38=1500000000|453=2|448=007B26|447=C|452=12|448=007|447=C|452=1|10=006|
8=FIX.4.4|9=110|35=A|34=1|49=013|50=013B17|52=20190607-16:53:12.424|56=EXC|43=Y|98=0|108=30|141=Y|553=013FCM001|554=013FCM001|10=090|
8=FIX.4.4|9=0067|35=A|34=1|49=EXC|56=013|52=20190607-16:53:12.478|98=0|108=30|141=Y|10=018|
8=FIX.4.4|9=110|35=A|34=1|49=013|50=013B17|52=20190607-17:01:26.322|56=EXC|43=Y|98=0|108=30|141=Y|553=013FCM001|554=013FCM001|10=086|
8=FIX.4.4|9=0067|35=A|34=1|49=EXC|56=013|52=20190607-17:01:26.349|98=0|108=30|141=Y|10=014|
8=FIX.4.4|9=0192|35=R|34=2|49=EXC|56=013|52=20190607-17:01:28.235|131=20190607-000000000037.00|146=1|55=TFIT15260826|762=RFQF|48=20348|22=M|54=1|38=1500000000|453=2|448=007B26|447=C|452=12|448=007|447=C|452=1|10=000|
8=FIX.4.4|9=110|35=A|34=1|49=013|50=013B17|52=20190607-17:05:59.449|56=EXC|43=Y|98=0|108=30|141=Y|553=013FCM001|554=013FCM001|10=106|
8=FIX.4.4|9=0067|35=A|34=1|49=EXC|56=013|52=20190607-17:05:59.455|98=0|108=30|141=Y|10=022|
