8=FIX.4.4|9=105|35=A|34=1|49=013|50=013B17|52=20190612-16:29:20.013|56=EXC|98=0|108=30|141=Y|553=013FCM001|554=013FCM001|10=088|
8=FIX.4.4|9=0067|35=A|34=1|49=EXC|56=013|52=20190612-16:29:20.038|98=0|108=30|141=Y|10=008|
8=FIX.4.4|9=0049|35=0|34=2|49=EXC|56=013|52=20190612-16:29:50.000|10=170|
8=FIX.4.4|9=59|35=0|34=2|49=013|50=013B17|52=20190612-16:29:50.033|56=EXC|10=050|
8=FIX.4.4|9=0049|35=0|34=3|49=EXC|56=013|52=20190612-16:30:20.000|10=160|
8=FIX.4.4|9=59|35=0|34=3|49=013|50=013B17|52=20190612-16:30:20.031|56=EXC|10=038|
8=FIX.4.4|9=105|35=A|34=1|49=013|50=013B17|52=20190612-16:44:40.057|56=EXC|98=0|108=30|141=Y|553=013FCM001|554=013FCM001|10=095|
8=FIX.4.4|9=0067|35=A|34=1|49=EXC|56=013|52=20190612-16:44:40.089|98=0|108=30|141=Y|10=013|
8=FIX.4.4|9=0049|35=0|34=2|49=EXC|56=013|52=20190612-16:45:10.000|10=164|
8=FIX.4.4|9=59|35=0|34=2|49=013|50=013B17|52=20190612-16:45:10.984|56=EXC|10=059|
8=FIX.4.4|9=105|35=A|34=1|49=013|50=013B17|52=20190612-16:55:03.414|56=EXC|98=0|108=30|141=Y|553=013FCM001|554=013FCM001|10=093|
8=FIX.4.4|9=0067|35=A|34=1|49=EXC|56=013|52=20190612-16:55:03.448|98=0|108=30|141=Y|10=013|
8=FIX.4.4|9=105|35=A|34=1|49=013|50=013B17|52=20190612-16:56:24.234|56=EXC|98=0|108=30|141=Y|553=013FCM001|554=013FCM001|10=097|
8=FIX.4.4|9=0067|35=A|34=1|49=EXC|56=013|52=20190612-16:56:24.268|98=0|108=30|141=Y|10=017|
8=FIX.4.4|9=0049|35=0|34=2|49=EXC|56=013|52=20190612-16:56:54.000|10=174|
8=FIX.4.4|9=59|35=0|34=2|49=013|50=013B17|52=20190612-16:56:55.112|56=EXC|10=053|
8=FIX.4.4|9=0049|35=0|34=3|49=EXC|56=013|52=20190612-16:57:24.000|10=173|
8=FIX.4.4|9=59|35=0|34=3|49=013|50=013B17|52=20190612-16:57:25.137|56=EXC|10=059|
