8=FIX.4.4|9=105|35=A|34=1|49=010|50=010BWN|52=20190613-23:20:40.238|56=EXC|98=0|108=30|141=Y|553=010FCE003|554=010FCE003|10=126|
8=FIX.4.4|9=0067|35=A|34=1|49=EXC|56=010|52=20190613-23:20:39.853|98=0|108=30|141=Y|10=010|
8=FIX.4.4|9=0049|35=0|34=2|49=EXC|56=010|52=20190613-23:21:09.000|10=162|
8=FIX.4.4|9=59|35=0|34=2|49=010|50=010BWN|52=20190613-23:21:11.103|56=EXC|10=091|
8=FIX.4.4|9=105|35=A|34=1|49=010|50=010BWN|52=20190613-23:32:29.958|56=EXC|98=0|108=30|141=Y|553=010FCE003|554=010FCE003|10=145|
8=FIX.4.4|9=0067|35=A|34=1|49=EXC|56=010|52=20190613-23:32:29.265|98=0|108=30|141=Y|10=009|
8=FIX.4.4|9=0049|35=0|34=2|49=EXC|56=010|52=20190613-23:32:59.000|10=169|
8=FIX.4.4|9=59|35=0|34=2|49=010|50=010BWN|52=20190613-23:33:00.860|56=EXC|10=102|
8=FIX.4.4|9=105|35=A|34=1|49=010|50=010BWN|52=20190613-23:41:59.640|56=EXC|98=0|108=30|141=Y|553=010FCE003|554=010FCE003|10=136|
8=FIX.4.4|9=0067|35=A|34=1|49=EXC|56=010|52=20190613-23:41:58.968|98=0|108=30|141=Y|10=021|
8=FIX.4.4|9=105|35=A|34=1|49=010|50=010BWN|52=20190613-23:44:32.652|56=EXC|98=0|108=30|141=Y|553=010FCE003|554=010FCE003|10=133|
8=FIX.4.4|9=0067|35=A|34=1|49=EXC|56=010|52=20190613-23:44:32.003|98=0|108=30|141=Y|10=252|
8=FIX.4.4|9=0049|35=0|34=2|49=EXC|56=010|52=20190613-23:45:02.000|10=161|
8=FIX.4.4|9=59|35=0|34=2|49=010|50=010BWN|52=20190613-23:45:02.722|56=EXC|10=104|
8=FIX.4.4|9=105|35=A|34=1|49=010|50=010BWN|52=20190614-12:59:00.615|56=EXC|98=0|108=30|141=Y|553=010FCE003|554=010FCE003|10=132|
8=FIX.4.4|9=0067|35=A|34=1|49=EXC|56=010|52=20190614-12:59:01.012|98=0|108=30|141=Y|10=253|
8=FIX.4.4|9=105|35=A|34=1|49=010|50=010BWN|52=20190614-13:07:54.078|56=EXC|98=0|108=30|141=Y|553=010FCE003|554=010FCE003|10=138|
8=FIX.4.4|9=0067|35=A|34=1|49=EXC|56=010|52=20190614-13:07:53.516|98=0|108=30|141=Y|10=007|
8=FIX.4.4|9=105|35=A|34=1|49=010|50=010BWN|52=20190614-13:13:22.195|56=EXC|98=0|108=30|141=Y|553=010FCE003|554=010FCE003|10=130|
8=FIX.4.4|9=0067|35=A|34=1|49=EXC|56=010|52=20190614-13:13:22.181|98=0|108=30|141=Y|10=254|
8=FIX.4.4|9=105|35=A|34=1|49=010|50=010BWN|52=20190614-13:15:43.087|56=EXC|98=0|108=30|141=Y|553=010FCE003|554=010FCE003|10=135|
8=FIX.4.4|9=0067|35=A|34=1|49=EXC|56=010|52=20190614-13:15:43.265|98=0|108=30|141=Y|10=006|
8=FIX.4.4|9=105|35=A|34=1|49=010|50=010BWN|52=20190614-13:23:21.552|56=EXC|98=0|108=30|141=Y|553=010FCE003|554=010FCE003|10=127|
8=FIX.4.4|9=0067|35=A|34=1|49=EXC|56=010|52=20190614-13:23:21.845|98=0|108=30|141=Y|10=005|
8=FIX.4.4|9=105|35=A|34=1|49=010|50=010BWN|52=20190614-13:24:35.126|56=EXC|98=0|108=30|141=Y|553=010FCE003|554=010FCE003|10=130|
8=FIX.4.4|9=0067|35=A|34=1|49=EXC|56=010|52=20190614-13:24:35.185|98=0|108=30|141=Y|10=008|
8=FIX.4.4|9=105|35=A|34=1|49=010|50=010BWN|52=20190614-13:30:40.050|56=EXC|98=0|108=30|141=Y|553=010FCE003|554=010FCE003|10=119|
8=FIX.4.4|9=0067|35=A|34=1|49=EXC|56=010|52=20190614-13:30:40.149|98=0|108=30|141=Y|10=001|
8=FIX.4.4|9=0049|35=0|34=2|49=EXC|56=010|52=20190614-13:31:10.000|10=155|
8=FIX.4.4|9=59|35=0|34=2|49=010|50=010BWN|52=20190614-13:31:10.995|56=EXC|10=110|
8=FIX.4.4|9=0049|35=0|34=3|49=EXC|56=010|52=20190614-13:31:40.000|10=159|
8=FIX.4.4|9=59|35=0|34=3|49=010|50=010BWN|52=20190614-13:31:40.995|56=EXC|10=114|
8=FIX.4.4|9=105|35=A|34=1|49=010|50=010BWN|52=20190614-13:39:25.950|56=EXC|98=0|108=30|141=Y|553=010FCE003|554=010FCE003|10=140|
8=FIX.4.4|9=0067|35=A|34=1|49=EXC|56=010|52=20190614-13:39:26.190|98=0|108=30|141=Y|10=010|
8=FIX.4.4|9=105|35=A|34=1|49=010|50=010BWN|52=20190614-13:40:47.030|56=EXC|98=0|108=30|141=Y|553=010FCE003|554=010FCE003|10=125|
8=FIX.4.4|9=0067|35=A|34=1|49=EXC|56=010|52=20190614-13:40:47.290|98=0|108=30|141=Y|10=006|
8=FIX.4.4|9=105|35=A|34=1|49=010|50=010BWN|52=20190614-13:50:36.424|56=EXC|98=0|108=30|141=Y|553=010FCE003|554=010FCE003|10=131|
8=FIX.4.4|9=0067|35=A|34=1|49=EXC|56=010|52=20190614-13:50:36.848|98=0|108=30|141=Y|10=014|
8=FIX.4.4|9=105|35=A|34=1|49=010|50=010BWN|52=20190614-13:53:29.996|56=EXC|98=0|108=30|141=Y|553=010FCE003|554=010FCE003|10=150|
8=FIX.4.4|9=0067|35=A|34=1|49=EXC|56=010|52=20190614-13:53:30.462|98=0|108=30|141=Y|10=003|
8=FIX.4.4|9=0049|35=0|34=2|49=EXC|56=010|52=20190614-13:54:00.000|10=159|
8=FIX.4.4|9=59|35=0|34=2|49=010|50=010BWN|52=20190614-13:54:00.955|56=EXC|10=110|
8=FIX.4.4|9=0049|35=0|34=3|49=EXC|56=010|52=20190614-13:54:30.000|10=163|
8=FIX.4.4|9=59|35=0|34=3|49=010|50=010BWN|52=20190614-13:54:30.956|56=EXC|10=115|
8=FIX.4.4|9=0049|35=0|34=4|49=EXC|56=010|52=20190614-13:55:00.000|10=162|
8=FIX.4.4|9=59|35=0|34=4|49=010|50=010BWN|52=20190614-13:55:00.955|56=EXC|10=113|
8=FIX.4.4|9=0049|35=0|34=5|49=EXC|56=010|52=20190614-13:55:30.000|10=166|
8=FIX.4.4|9=59|35=0|34=5|49=010|50=010BWN|52=20190614-13:55:30.957|56=EXC|10=119|
8=FIX.4.4|9=0049|35=0|34=6|49=EXC|56=010|52=20190614-13:56:00.000|10=165|
8=FIX.4.4|9=59|35=0|34=6|49=010|50=010BWN|52=20190614-13:56:00.956|56=EXC|10=117|
8=FIX.4.4|9=0049|35=0|34=7|49=EXC|56=010|52=20190614-13:56:30.000|10=169|
8=FIX.4.4|9=59|35=0|34=7|49=010|50=010BWN|52=20190614-13:56:30.955|56=EXC|10=120|
8=FIX.4.4|9=0049|35=0|34=8|49=EXC|56=010|52=20190614-13:57:00.000|10=168|
8=FIX.4.4|9=59|35=0|34=8|49=010|50=010BWN|52=20190614-13:57:00.955|56=EXC|10=119|
8=FIX.4.4|9=0049|35=0|34=9|49=EXC|56=010|52=20190614-13:57:30.000|10=172|
8=FIX.4.4|9=59|35=0|34=9|49=010|50=010BWN|52=20190614-13:57:30.955|56=EXC|10=123|
8=FIX.4.4|9=0050|35=0|34=10|49=EXC|56=010|52=20190614-13:58:00.000|10=202|
8=FIX.4.4|9=60|35=0|34=10|49=010|50=010BWN|52=20190614-13:58:00.956|56=EXC|10=154|
8=FIX.4.4|9=0050|35=0|34=11|49=EXC|56=010|52=20190614-13:58:30.000|10=206|
8=FIX.4.4|9=60|35=0|34=11|49=010|50=010BWN|52=20190614-13:58:30.957|56=EXC|10=159|
8=FIX.4.4|9=0050|35=0|34=12|49=EXC|56=010|52=20190614-13:59:00.000|10=205|
8=FIX.4.4|9=60|35=0|34=12|49=010|50=010BWN|52=20190614-13:59:00.955|56=EXC|10=156|
8=FIX.4.4|9=0050|35=0|34=13|49=EXC|56=010|52=20190614-13:59:30.000|10=209|
8=FIX.4.4|9=60|35=0|34=13|49=010|50=010BWN|52=20190614-13:59:30.957|56=EXC|10=162|
8=FIX.4.4|9=0050|35=0|34=14|49=EXC|56=010|52=20190614-14:00:00.000|10=194|
8=FIX.4.4|9=60|35=0|34=14|49=010|50=010BWN|52=20190614-14:00:00.955|56=EXC|10=145|
8=FIX.4.4|9=0050|35=0|34=15|49=EXC|56=010|52=20190614-14:00:30.000|10=198|
8=FIX.4.4|9=60|35=0|34=15|49=010|50=010BWN|52=20190614-14:00:30.955|56=EXC|10=149|
8=FIX.4.4|9=0050|35=0|34=16|49=EXC|56=010|52=20190614-14:01:00.000|10=197|
8=FIX.4.4|9=60|35=0|34=16|49=010|50=010BWN|52=20190614-14:01:00.955|56=EXC|10=148|
8=FIX.4.4|9=105|35=A|34=1|49=010|50=010BWN|52=20190614-14:01:16.507|56=EXC|98=0|108=30|141=Y|553=010FCE003|554=010FCE003|10=128|
8=FIX.4.4|9=0067|35=A|34=1|49=EXC|56=010|52=20190614-14:01:17.101|98=0|108=30|141=Y|10=248|
8=FIX.4.4|9=0049|35=0|34=2|49=EXC|56=010|52=20190614-14:01:47.000|10=163|
8=FIX.4.4|9=59|35=0|34=2|49=010|50=010BWN|52=20190614-14:01:47.460|56=EXC|10=105|
