<<<<<<< HEAD
=======
<<<<<<< HEAD
8=FIX.4.4|9=110|35=A|34=1|49=001|50=001B27|52=20190604-16:47:41.461|56=EXC|43=Y|98=0|108=30|141=Y|553=001FCM001|554=001FCM001|10=082|
8=FIX.4.4|9=0067|35=A|34=1|49=EXC|56=001|52=20190604-16:47:24.641|98=0|108=30|141=Y|10=010|
8=FIX.4.4|9=177|35=R|34=2|49=001|50=001B27|52=20190604-16:47:53.863|56=EXC|131=74531360|146=1|55=TFIC13280425|22=M|762=RFQF|54=1|38=500000000|453=2|448=002B35|447=C|452=37|448=DCV|447=C|452=10|10=063|
8=FIX.4.4|9=0259|35=AI|34=2|49=EXC|56=001|57=001B27|52=20190604-16:47:36.996|131=74531360|453=5|448=DCV|447=C|452=10|448=001B27|447=C|452=12|448=001|447=C|452=1|448=001FCM001|447=C|452=36|448=002B35|447=C|452=37|55=TFIC13280425|762=RFQF|48=20626|22=M|54=1|38=500000000|297=10|10=226|
8=FIX.4.4|9=0307|35=S|34=3|49=EXC|56=001|57=001B27|52=20190604-16:48:03.054|131=74531360|117=20190604-000000000017.00|55=TFIC13280425|762=RFQF|48=20626|22=M|453=5|448=DCV|447=C|452=10|448=001B27|447=C|452=12|448=001|447=C|452=1|448=001FCM001|447=C|452=36|448=002B35|447=C|452=37|634=4.000|135=500000000|62=20190617-22:00:00|10=233|
8=FIX.4.4|9=59|35=0|34=3|49=001|50=001B27|52=20190604-16:48:24.413|56=EXC|10=051|
8=FIX.4.4|9=0049|35=0|34=4|49=EXC|56=001|52=20190604-16:48:33.000|10=172|
8=FIX.4.4|9=59|35=0|34=4|49=001|50=001B27|52=20190604-16:48:54.406|56=EXC|10=057|
8=FIX.4.4|9=68|35=1|34=5|49=001|50=001B27|52=20190604-16:49:05.407|56=EXC|112=TEST|10=075|
8=FIX.4.4|9=0058|35=0|34=5|49=EXC|56=001|52=20190604-16:48:48.525|112=TEST|10=209|
8=FIX.4.4|9=138|35=AJ|34=6|49=001|50=001B27|52=20190604-16:49:06.241|56=EXC|54=1|55=TFIC13280425|117=20190604-000000000017.00|693=55619454|694=1|762=RFQF|10=019|
8=FIX.4.4|9=0507|35=8|34=6|49=EXC|56=001|57=001B27|52=20190604-16:48:49.362|11=55619454|17=15|37=0|150=F|1080=20190604-000000000017.00|1081=5|453=6|448=001B27|447=C|452=12|448=001|447=C|452=1|448=002B35|447=C|452=37|448=002|447=C|452=17|448=001FCM001|447=C|452=36|448=DCV|447=C|452=10|55=TFIC13280425|762=RFQF|48=20626|22=M|6=79.346|14=500000000|31=79.346|32=500000000|38=500000000|39=2|20102=79.346|54=1|60=20190604-16:48:49.362|75=20190604|63=1|64=20190604|151=0|1623=4.000|381=396731500.000|880=201906040000000015|828=99|10=162|
8=FIX.4.4|9=145|35=3|34=7|49=001|50=001B27|52=20190604-16:49:11.250|56=EXC|45=6|58=Value is incorrect (out of range) for this tag, field=828|371=828|372=8|373=5|10=030|
8=FIX.4.4|9=0049|35=0|34=7|49=EXC|56=001|52=20190604-16:49:19.000|10=180|
8=FIX.4.4|9=59|35=0|34=8|49=001|50=001B27|52=20190604-16:49:41.408|56=EXC|10=060|
8=FIX.4.4|9=0049|35=0|34=8|49=EXC|56=001|52=20190604-16:49:49.000|10=184|
8=FIX.4.4|9=59|35=0|34=9|49=001|50=001B27|52=20190604-16:50:11.406|56=EXC|10=048|
8=FIX.4.4|9=0049|35=0|34=9|49=EXC|56=001|52=20190604-16:50:19.000|10=174|
8=FIX.4.4|9=60|35=0|34=10|49=001|50=001B27|52=20190604-16:50:41.408|56=EXC|10=085|
8=FIX.4.4|9=110|35=A|34=1|49=001|50=001B27|52=20190604-18:43:06.713|56=EXC|43=Y|98=0|108=30|141=Y|553=001FCM001|554=001FCM001|10=081|
8=FIX.4.4|9=0067|35=A|34=1|49=EXC|56=001|52=20190604-18:42:49.567|98=0|108=30|141=Y|10=021|
8=FIX.4.4|9=177|35=R|34=2|49=001|50=001B27|52=20190604-18:43:20.800|56=EXC|131=39867392|146=1|55=TFIC13280425|22=M|762=RFQF|54=1|38=500000000|453=2|448=002B35|447=C|452=37|448=DCV|447=C|452=10|10=064|
8=FIX.4.4|9=0259|35=AI|34=2|49=EXC|56=001|57=001B27|52=20190604-18:43:03.344|131=39867392|453=5|448=DCV|447=C|452=10|448=001B27|447=C|452=12|448=001|447=C|452=1|448=001FCM001|447=C|452=36|448=002B35|447=C|452=37|55=TFIC13280425|762=RFQF|48=20626|22=M|54=1|38=500000000|297=10|10=223|
8=FIX.4.4|9=0307|35=S|34=3|49=EXC|56=001|57=001B27|52=20190604-18:43:30.796|131=39867392|117=20190604-000000000019.00|55=TFIC13280425|762=RFQF|48=20626|22=M|453=5|448=DCV|447=C|452=10|448=001B27|447=C|452=12|448=001|447=C|452=1|448=001FCM001|447=C|452=36|448=002B35|447=C|452=37|634=4.000|135=500000000|62=20190617-22:00:00|10=007|
8=FIX.4.4|9=59|35=0|34=3|49=001|50=001B27|52=20190604-18:43:51.637|56=EXC|10=056|
8=FIX.4.4|9=0049|35=0|34=4|49=EXC|56=001|52=20190604-18:44:00.000|10=164|
8=FIX.4.4|9=59|35=0|34=4|49=001|50=001B27|52=20190604-18:44:21.649|56=EXC|10=058|
8=FIX.4.4|9=68|35=1|34=5|49=001|50=001B27|52=20190604-18:44:33.635|56=EXC|112=TEST|10=076|
8=FIX.4.4|9=0058|35=0|34=5|49=EXC|56=001|52=20190604-18:44:16.183|112=TEST|10=202|
8=FIX.4.4|9=138|35=AJ|34=6|49=001|50=001B27|52=20190604-18:44:36.191|56=EXC|54=1|55=TFIC13280425|117=20190604-000000000019.00|693=66086464|694=1|762=RFQF|10=026|
8=FIX.4.4|9=0507|35=8|34=6|49=EXC|56=001|57=001B27|52=20190604-18:44:18.732|11=66086464|17=17|37=0|150=F|1080=20190604-000000000019.00|1081=5|453=6|448=001B27|447=C|452=12|448=001|447=C|452=1|448=002B35|447=C|452=37|448=002|447=C|452=17|448=001FCM001|447=C|452=36|448=DCV|447=C|452=10|55=TFIC13280425|762=RFQF|48=20626|22=M|6=79.346|14=500000000|31=79.346|32=500000000|38=500000000|39=2|20102=79.346|54=1|60=20190604-18:44:18.732|75=20190604|63=1|64=20190604|151=0|1623=4.000|381=396731500.000|880=201906040000000017|828=99|10=159|
8=FIX.4.4|9=145|35=3|34=7|49=001|50=001B27|52=20190604-18:44:41.204|56=EXC|45=6|58=Value is incorrect (out of range) for this tag, field=828|371=828|372=8|373=5|10=029|
8=FIX.4.4|9=0049|35=0|34=7|49=EXC|56=001|52=20190604-18:44:48.000|10=179|
8=FIX.4.4|9=110|35=A|34=1|49=001|50=001B27|52=20190604-18:46:58.781|56=EXC|43=Y|98=0|108=30|141=Y|553=001FCM001|554=001FCM001|10=096|
8=FIX.4.4|9=0067|35=A|34=1|49=EXC|56=001|52=20190604-18:46:41.925|98=0|108=30|141=Y|10=015|
8=FIX.4.4|9=177|35=R|34=2|49=001|50=001B27|52=20190604-18:47:15.103|56=EXC|131=29381403|146=1|55=TFIC13280425|22=M|762=RFQF|54=1|38=500000000|453=2|448=002B35|447=C|452=37|448=DCV|447=C|452=10|10=051|
8=FIX.4.4|9=0259|35=AI|34=2|49=EXC|56=001|57=001B27|52=20190604-18:46:57.657|131=29381403|453=5|448=DCV|447=C|452=10|448=001B27|447=C|452=12|448=001|447=C|452=1|448=001FCM001|447=C|452=36|448=002B35|447=C|452=37|55=TFIC13280425|762=RFQF|48=20626|22=M|54=1|38=500000000|297=10|10=225|
8=FIX.4.4|9=0307|35=S|34=3|49=EXC|56=001|57=001B27|52=20190604-18:47:26.141|131=29381403|117=20190604-000000000021.00|55=TFIC13280425|762=RFQF|48=20626|22=M|453=5|448=DCV|447=C|452=10|448=001B27|447=C|452=12|448=001|447=C|452=1|448=001FCM001|447=C|452=36|448=002B35|447=C|452=37|634=4.000|135=500000000|62=20190617-22:00:00|10=232|
8=FIX.4.4|9=59|35=0|34=3|49=001|50=001B27|52=20190604-18:47:45.713|56=EXC|10=058|
8=FIX.4.4|9=0049|35=0|34=4|49=EXC|56=001|52=20190604-18:47:56.000|10=178|
8=FIX.4.4|9=59|35=0|34=4|49=001|50=001B27|52=20190604-18:48:15.713|56=EXC|10=057|
8=FIX.4.4|9=68|35=1|34=5|49=001|50=001B27|52=20190604-18:48:28.726|56=EXC|112=TEST|10=085|
8=FIX.4.4|9=0058|35=0|34=5|49=EXC|56=001|52=20190604-18:48:11.267|112=TEST|10=204|
8=FIX.4.4|9=138|35=AJ|34=6|49=001|50=001B27|52=20190604-18:48:32.430|56=EXC|54=1|55=TFIC13280425|117=20190604-000000000021.00|693=23348752|694=1|762=RFQF|10=009|
8=FIX.4.4|9=0507|35=8|34=6|49=EXC|56=001|57=001B27|52=20190604-18:48:14.977|11=23348752|17=19|37=0|150=F|1080=20190604-000000000021.00|1081=5|453=6|448=001B27|447=C|452=12|448=001|447=C|452=1|448=002B35|447=C|452=37|448=002|447=C|452=17|448=001FCM001|447=C|452=36|448=DCV|447=C|452=10|55=TFIC13280425|762=RFQF|48=20626|22=M|6=79.346|14=500000000|31=79.346|32=500000000|38=500000000|39=2|20102=79.346|54=1|60=20190604-18:48:14.977|75=20190604|63=1|64=20190604|151=0|1623=4.000|381=396731500.000|880=201906040000000019|828=99|10=172|
8=FIX.4.4|9=145|35=3|34=7|49=001|50=001B27|52=20190604-18:48:37.434|56=EXC|45=6|58=Value is incorrect (out of range) for this tag, field=828|371=828|372=8|373=5|10=043|
8=FIX.4.4|9=0049|35=0|34=7|49=EXC|56=001|52=20190604-18:48:44.000|10=179|
8=FIX.4.4|9=110|35=A|34=1|49=001|50=001B27|52=20190604-18:51:10.918|56=EXC|43=Y|98=0|108=30|141=Y|553=001FCM001|554=001FCM001|10=082|
8=FIX.4.4|9=0067|35=A|34=1|49=EXC|56=001|52=20190604-18:50:53.823|98=0|108=30|141=Y|10=010|
8=FIX.4.4|9=177|35=R|34=2|49=001|50=001B27|52=20190604-18:51:17.324|56=EXC|131=34313636|146=1|55=TFIC13280425|22=M|762=RFQF|54=1|38=500000000|453=2|448=002B35|447=C|452=37|448=DCV|447=C|452=10|10=052|
8=FIX.4.4|9=0259|35=AI|34=2|49=EXC|56=001|57=001B27|52=20190604-18:50:59.880|131=34313636|453=5|448=DCV|447=C|452=10|448=001B27|447=C|452=12|448=001|447=C|452=1|448=001FCM001|447=C|452=36|448=002B35|447=C|452=37|55=TFIC13280425|762=RFQF|48=20626|22=M|54=1|38=500000000|297=10|10=219|
8=FIX.4.4|9=0307|35=S|34=3|49=EXC|56=001|57=001B27|52=20190604-18:51:10.573|131=34313636|117=20190604-000000000022.00|55=TFIC13280425|762=RFQF|48=20626|22=M|453=5|448=DCV|447=C|452=10|448=001B27|447=C|452=12|448=001|447=C|452=1|448=001FCM001|447=C|452=36|448=002B35|447=C|452=37|634=4.000|135=500000000|62=20190617-22:00:00|10=229|
8=FIX.4.4|9=138|35=AJ|34=3|49=001|50=001B27|52=20190604-18:51:36.390|56=EXC|54=1|55=TFIC13280425|117=20190604-000000000022.00|693=34010066|694=1|762=RFQF|10=252|
8=FIX.4.4|9=0507|35=8|34=4|49=EXC|56=001|57=001B27|52=20190604-18:51:18.940|11=34010066|17=20|37=0|150=F|1080=20190604-000000000022.00|1081=5|453=6|448=001B27|447=C|452=12|448=001|447=C|452=1|448=002B35|447=C|452=37|448=002|447=C|452=17|448=001FCM001|447=C|452=36|448=DCV|447=C|452=10|55=TFIC13280425|762=RFQF|48=20626|22=M|6=79.346|14=500000000|31=79.346|32=500000000|38=500000000|39=2|20102=79.346|54=1|60=20190604-18:51:18.940|75=20190604|63=1|64=20190604|151=0|1623=4.000|381=396731500.000|880=201906040000000020|828=99|10=117|
8=FIX.4.4|9=145|35=3|34=4|49=001|50=001B27|52=20190604-18:51:36.506|56=EXC|45=4|58=Value is incorrect (out of range) for this tag, field=828|371=828|372=8|373=5|10=031|
8=FIX.4.4|9=0049|35=0|34=5|49=EXC|56=001|52=20190604-18:51:48.000|10=175|
8=FIX.4.4|9=59|35=0|34=5|49=001|50=001B27|52=20190604-18:52:06.866|56=EXC|10=062|
8=FIX.4.4|9=0049|35=0|34=6|49=EXC|56=001|52=20190604-18:52:18.000|10=174|
8=FIX.4.4|9=59|35=0|34=6|49=001|50=001B27|52=20190604-18:52:36.861|56=EXC|10=061|
8=FIX.4.4|9=110|35=A|34=1|49=001|50=001B27|52=20190604-19:15:33.642|56=EXC|43=Y|98=0|108=30|141=Y|553=001FCM001|554=001FCM001|10=082|
8=FIX.4.4|9=0067|35=A|34=1|49=EXC|56=001|52=20190604-19:15:16.378|98=0|108=30|141=Y|10=016|
8=FIX.4.4|9=177|35=R|34=2|49=001|50=001B27|52=20190604-19:15:36.976|56=EXC|131=12714759|146=1|55=TFIC13280425|22=M|762=RFQF|54=1|38=500000000|453=2|448=002B35|447=C|452=37|448=DCV|447=C|452=10|10=074|
8=FIX.4.4|9=0259|35=AI|34=2|49=EXC|56=001|57=001B27|52=20190604-19:15:19.511|131=12714759|453=5|448=DCV|447=C|452=10|448=001B27|447=C|452=12|448=001|447=C|452=1|448=001FCM001|447=C|452=36|448=002B35|447=C|452=37|55=TFIC13280425|762=RFQF|48=20626|22=M|54=1|38=500000000|297=10|10=215|
8=FIX.4.4|9=0307|35=S|34=3|49=EXC|56=001|57=001B27|52=20190604-19:15:32.492|131=12714759|117=20190604-000000000023.00|55=TFIC13280425|762=RFQF|48=20626|22=M|453=5|448=DCV|447=C|452=10|448=001B27|447=C|452=12|448=001|447=C|452=1|448=001FCM001|447=C|452=36|448=002B35|447=C|452=37|634=4.000|135=500000000|62=20190617-22:00:00|10=242|
8=FIX.4.4|9=138|35=AJ|34=3|49=001|50=001B27|52=20190604-19:15:56.780|56=EXC|54=1|55=TFIC13280425|117=20190604-000000000023.00|693=79888922|694=1|762=RFQF|10=036|
8=FIX.4.4|9=0507|35=8|34=4|49=EXC|56=001|57=001B27|52=20190604-19:15:39.319|11=79888922|17=21|37=0|150=F|1080=20190604-000000000023.00|1081=5|453=6|448=001B27|447=C|452=12|448=001|447=C|452=1|448=002B35|447=C|452=37|448=002|447=C|452=17|448=001FCM001|447=C|452=36|448=DCV|447=C|452=10|55=TFIC13280425|762=RFQF|48=20626|22=M|6=79.346|14=500000000|31=79.346|32=500000000|38=500000000|39=2|20102=79.346|54=1|60=20190604-19:15:39.319|75=20190604|63=1|64=20190604|151=0|1623=4.000|381=396731500.000|880=201906040000000021|828=99|10=161|
8=FIX.4.4|9=145|35=3|34=4|49=001|50=001B27|52=20190604-19:15:56.947|56=EXC|45=4|58=Value is incorrect (out of range) for this tag, field=828|371=828|372=8|373=5|10=043|
8=FIX.4.4|9=0049|35=0|34=5|49=EXC|56=001|52=20190604-19:16:09.000|10=174|
8=FIX.4.4|9=59|35=0|34=5|49=001|50=001B27|52=20190604-19:16:27.613|56=EXC|10=056|
8=FIX.4.4|9=0049|35=0|34=6|49=EXC|56=001|52=20190604-19:16:39.000|10=178|
8=FIX.4.4|9=59|35=0|34=6|49=001|50=001B27|52=20190604-19:16:57.612|56=EXC|10=059|
8=FIX.4.4|9=0049|35=0|34=7|49=EXC|56=001|52=20190604-19:17:09.000|10=177|
8=FIX.4.4|9=59|35=0|34=7|49=001|50=001B27|52=20190604-19:17:27.612|56=EXC|10=058|
8=FIX.4.4|9=0049|35=0|34=8|49=EXC|56=001|52=20190604-19:17:39.000|10=181|
8=FIX.4.4|9=59|35=0|34=8|49=001|50=001B27|52=20190604-19:17:57.612|56=EXC|10=062|
8=FIX.4.4|9=0049|35=0|34=9|49=EXC|56=001|52=20190604-19:18:09.000|10=180|
8=FIX.4.4|9=59|35=0|34=9|49=001|50=001B27|52=20190604-19:18:27.612|56=EXC|10=061|
8=FIX.4.4|9=0050|35=0|34=10|49=EXC|56=001|52=20190604-19:18:39.000|10=215|
8=FIX.4.4|9=60|35=0|34=10|49=001|50=001B27|52=20190604-19:18:57.613|56=EXC|10=097|
8=FIX.4.4|9=0050|35=0|34=11|49=EXC|56=001|52=20190604-19:19:09.000|10=214|
8=FIX.4.4|9=60|35=0|34=11|49=001|50=001B27|52=20190604-19:19:27.612|56=EXC|10=095|
8=FIX.4.4|9=110|35=A|34=1|49=001|50=001B27|52=20190605-18:44:29.761|56=EXC|43=Y|98=0|108=30|141=Y|553=001FCM001|554=001FCM001|10=091|
8=FIX.4.4|9=0067|35=A|34=1|49=EXC|56=001|52=20190605-18:44:29.809|98=0|108=30|141=Y|10=021|
8=FIX.4.4|9=177|35=R|34=2|49=001|50=001B27|52=20190605-18:44:32.004|56=EXC|131=46749858|146=1|55=TFIC13280425|22=M|762=RFQF|54=1|38=500000000|453=2|448=002B35|447=C|452=37|448=DCV|447=C|452=10|10=069|
8=FIX.4.4|9=0259|35=AI|34=2|49=EXC|56=001|57=001B27|52=20190605-18:44:32.028|131=46749858|453=5|448=DCV|447=C|452=10|448=001B27|447=C|452=12|448=001|447=C|452=1|448=001FCM001|447=C|452=36|448=002B35|447=C|452=37|55=TFIC13280425|762=RFQF|48=20626|22=M|54=1|38=500000000|297=10|10=230|
8=FIX.4.4|9=0307|35=S|34=3|49=EXC|56=001|57=001B27|52=20190605-18:44:37.922|131=46749858|117=20190605-000000000040.00|55=TFIC13280425|762=RFQF|48=20626|22=M|453=5|448=DCV|447=C|452=10|448=001B27|447=C|452=12|448=001|447=C|452=1|448=001FCM001|447=C|452=36|448=002B35|447=C|452=37|634=4.000|135=500000000|62=20190617-22:00:00|10=006|
8=FIX.4.4|9=138|35=AJ|34=3|49=001|50=001B27|52=20190605-18:44:43.624|56=EXC|54=1|55=TFIC13280425|117=20190605-000000000040.00|693=68813752|694=1|762=RFQF|10=018|
8=FIX.4.4|9=0507|35=8|34=4|49=EXC|56=001|57=001B27|52=20190605-18:44:43.637|11=68813752|17=24|37=0|150=F|1080=20190605-000000000040.00|1081=5|453=6|448=001B27|447=C|452=12|448=001|447=C|452=1|448=002B35|447=C|452=37|448=002|447=C|452=17|448=001FCM001|447=C|452=36|448=DCV|447=C|452=10|55=TFIC13280425|762=RFQF|48=20626|22=M|6=79.354|14=500000000|31=79.354|32=500000000|38=500000000|39=2|20102=79.354|54=1|60=20190605-18:44:43.637|75=20190605|63=1|64=20190605|151=0|1623=4.000|381=396774000.000|880=201906050000000024|828=99|10=156|
8=FIX.4.4|9=110|35=A|34=1|49=001|50=001B27|52=20190605-19:08:36.665|56=EXC|43=Y|98=0|108=30|141=Y|553=001FCM001|554=001FCM001|10=093|
8=FIX.4.4|9=0067|35=A|34=1|49=EXC|56=001|52=20190605-19:08:36.418|98=0|108=30|141=Y|10=016|
8=FIX.4.4|9=177|35=R|34=2|49=001|50=001B27|52=20190605-19:08:38.891|56=EXC|131=18324619|146=1|55=TFIC13280425|22=M|762=RFQF|54=1|38=500000000|453=2|448=002B35|447=C|452=37|448=DCV|447=C|452=10|10=073|
8=FIX.4.4|9=0259|35=AI|34=2|49=EXC|56=001|57=001B27|52=20190605-19:08:38.603|131=18324619|453=5|448=DCV|447=C|452=10|448=001B27|447=C|452=12|448=001|447=C|452=1|448=001FCM001|447=C|452=36|448=002B35|447=C|452=37|55=TFIC13280425|762=RFQF|48=20626|22=M|54=1|38=500000000|297=10|10=219|
8=FIX.4.4|9=0307|35=S|34=3|49=EXC|56=001|57=001B27|52=20190605-19:08:44.636|131=18324619|117=20190605-000000000042.00|55=TFIC13280425|762=RFQF|48=20626|22=M|453=5|448=DCV|447=C|452=10|448=001B27|447=C|452=12|448=001|447=C|452=1|448=001FCM001|447=C|452=36|448=002B35|447=C|452=37|634=4.000|135=500000000|62=20190617-22:00:00|10=248|
8=FIX.4.4|9=110|35=A|34=1|49=001|50=001B27|52=20190605-19:16:00.597|56=EXC|43=Y|98=0|108=30|141=Y|553=001FCM001|554=001FCM001|10=087|
8=FIX.4.4|9=0067|35=A|34=1|49=EXC|56=001|52=20190605-19:16:00.360|98=0|108=30|141=Y|10=002|
8=FIX.4.4|9=177|35=R|34=2|49=001|50=001B27|52=20190605-19:16:02.854|56=EXC|131=27887749|146=1|55=TFIC13280425|22=M|762=RFQF|54=1|38=500000000|453=2|448=002B35|447=C|452=37|448=DCV|447=C|452=10|10=080|
8=FIX.4.4|9=0259|35=AI|34=2|49=EXC|56=001|57=001B27|52=20190605-19:16:02.551|131=27887749|453=5|448=DCV|447=C|452=10|448=001B27|447=C|452=12|448=001|447=C|452=1|448=001FCM001|447=C|452=36|448=002B35|447=C|452=37|55=TFIC13280425|762=RFQF|48=20626|22=M|54=1|38=500000000|297=10|10=229|
8=FIX.4.4|9=0307|35=S|34=3|49=EXC|56=001|57=001B27|52=20190605-19:16:08.700|131=27887749|117=20190605-000000000044.00|55=TFIC13280425|762=RFQF|48=20626|22=M|453=5|448=DCV|447=C|452=10|448=001B27|447=C|452=12|448=001|447=C|452=1|448=001FCM001|447=C|452=36|448=002B35|447=C|452=37|634=4.000|135=500000000|62=20190617-22:00:00|10=003|
8=FIX.4.4|9=137|35=AJ|34=3|49=001|50=001B27|52=20190605-19:16:14.636|56=EXC|54=1|55=TFIC13280425|117=20190605-000000000044.00|693=1748929|694=1|762=RFQF|10=230|
8=FIX.4.4|9=0506|35=8|34=4|49=EXC|56=001|57=001B27|52=20190605-19:16:14.335|11=1748929|17=27|37=0|150=F|1080=20190605-000000000044.00|1081=5|453=6|448=001B27|447=C|452=12|448=001|447=C|452=1|448=002B35|447=C|452=37|448=002|447=C|452=17|448=001FCM001|447=C|452=36|448=DCV|447=C|452=10|55=TFIC13280425|762=RFQF|48=20626|22=M|6=79.354|14=500000000|31=79.354|32=500000000|38=500000000|39=2|20102=79.354|54=1|60=20190605-19:16:14.335|75=20190605|63=1|64=20190605|151=0|1623=4.000|381=396774000.000|880=201906050000000027|828=99|10=103|
8=FIX.4.4|9=110|35=A|34=1|49=001|50=001B27|52=20190605-19:17:00.160|56=EXC|43=Y|98=0|108=30|141=Y|553=001FCM001|554=001FCM001|10=074|
8=FIX.4.4|9=0067|35=A|34=1|49=EXC|56=001|52=20190605-19:16:59.999|98=0|108=30|141=Y|10=034|
8=FIX.4.4|9=176|35=R|34=2|49=001|50=001B27|52=20190605-19:17:03.778|56=EXC|131=6051711|146=1|55=TFIC13280425|22=M|762=RFQF|54=1|38=500000000|453=2|448=002B35|447=C|452=37|448=DCV|447=C|452=10|10=007|
8=FIX.4.4|9=0258|35=AI|34=2|49=EXC|56=001|57=001B27|52=20190605-19:17:03.484|131=6051711|453=5|448=DCV|447=C|452=10|448=001B27|447=C|452=12|448=001|447=C|452=1|448=001FCM001|447=C|452=36|448=002B35|447=C|452=37|55=TFIC13280425|762=RFQF|48=20626|22=M|54=1|38=500000000|297=10|10=156|
8=FIX.4.4|9=0306|35=S|34=3|49=EXC|56=001|57=001B27|52=20190605-19:17:10.621|131=6051711|117=20190605-000000000045.00|55=TFIC13280425|762=RFQF|48=20626|22=M|453=5|448=DCV|447=C|452=10|448=001B27|447=C|452=12|448=001|447=C|452=1|448=001FCM001|447=C|452=36|448=002B35|447=C|452=37|634=4.000|135=500000000|62=20190617-22:00:00|10=176|
8=FIX.4.4|9=138|35=AJ|34=3|49=001|50=001B27|52=20190605-19:17:16.677|56=EXC|54=1|55=TFIC13280425|117=20190605-000000000045.00|693=27638947|694=1|762=RFQF|10=038|
8=FIX.4.4|9=0507|35=8|34=4|49=EXC|56=001|57=001B27|52=20190605-19:17:16.373|11=27638947|17=28|37=0|150=F|1080=20190605-000000000045.00|1081=5|453=6|448=001B27|447=C|452=12|448=001|447=C|452=1|448=002B35|447=C|452=37|448=002|447=C|452=17|448=001FCM001|447=C|452=36|448=DCV|447=C|452=10|55=TFIC13280425|762=RFQF|48=20626|22=M|6=79.354|14=500000000|31=79.354|32=500000000|38=500000000|39=2|20102=79.354|54=1|60=20190605-19:17:16.373|75=20190605|63=1|64=20190605|151=0|1623=4.000|381=396774000.000|880=201906050000000028|828=99|10=171|
8=FIX.4.4|9=110|35=A|34=1|49=001|50=001B27|52=20190605-19:17:44.606|56=EXC|43=Y|98=0|108=30|141=Y|553=001FCM001|554=001FCM001|10=087|
8=FIX.4.4|9=0067|35=A|34=1|49=EXC|56=001|52=20190605-19:17:44.405|98=0|108=30|141=Y|10=011|
8=FIX.4.4|9=177|35=R|34=2|49=001|50=001B27|52=20190605-19:17:46.955|56=EXC|131=16795921|146=1|55=TFIC13280425|22=M|762=RFQF|54=1|38=500000000|453=2|448=002B35|447=C|452=37|448=DCV|447=C|452=10|10=079|
8=FIX.4.4|9=0259|35=AI|34=2|49=EXC|56=001|57=001B27|52=20190605-19:17:46.660|131=16795921|453=5|448=DCV|447=C|452=10|448=001B27|447=C|452=12|448=001|447=C|452=1|448=001FCM001|447=C|452=36|448=002B35|447=C|452=37|55=TFIC13280425|762=RFQF|48=20626|22=M|54=1|38=500000000|297=10|10=227|
8=FIX.4.4|9=0307|35=S|34=3|49=EXC|56=001|57=001B27|52=20190605-19:17:53.018|131=16795921|117=20190605-000000000046.00|55=TFIC13280425|762=RFQF|48=20626|22=M|453=5|448=DCV|447=C|452=10|448=001B27|447=C|452=12|448=001|447=C|452=1|448=001FCM001|447=C|452=36|448=002B35|447=C|452=37|634=4.000|135=500000000|62=20190617-22:00:00|10=252|
8=FIX.4.4|9=138|35=AJ|34=3|49=001|50=001B27|52=20190605-19:17:58.913|56=EXC|54=1|55=TFIC13280425|117=20190605-000000000046.00|693=48666392|694=1|762=RFQF|10=036|
8=FIX.4.4|9=0507|35=8|34=4|49=EXC|56=001|57=001B27|52=20190605-19:17:58.619|11=48666392|17=29|37=0|150=F|1080=20190605-000000000046.00|1081=5|453=6|448=001B27|447=C|452=12|448=001|447=C|452=1|448=002B35|447=C|452=37|448=002|447=C|452=17|448=001FCM001|447=C|452=36|448=DCV|447=C|452=10|55=TFIC13280425|762=RFQF|48=20626|22=M|6=79.354|14=500000000|31=79.354|32=500000000|38=500000000|39=2|20102=79.354|54=1|60=20190605-19:17:58.619|75=20190605|63=1|64=20190605|151=0|1623=4.000|381=396774000.000|880=201906050000000029|828=99|10=190|
8=FIX.4.4|9=0049|35=0|34=5|49=EXC|56=001|52=20190605-19:18:28.000|10=178|
8=FIX.4.4|9=59|35=0|34=4|49=001|50=001B27|52=20190605-19:18:29.564|56=EXC|10=065|
8=FIX.4.4|9=110|35=A|34=1|49=001|50=001B27|52=20190605-19:33:41.878|56=EXC|43=Y|98=0|108=30|141=Y|553=001FCM001|554=001FCM001|10=093|
8=FIX.4.4|9=0067|35=A|34=1|49=EXC|56=001|52=20190605-19:33:41.656|98=0|108=30|141=Y|10=014|
8=FIX.4.4|9=177|35=R|34=2|49=001|50=001B27|52=20190605-19:33:44.384|56=EXC|131=56939535|146=1|55=TFIC13280425|22=M|762=RFQF|54=1|38=500000000|453=2|448=002B35|447=C|452=37|448=DCV|447=C|452=10|10=076|
8=FIX.4.4|9=0259|35=AI|34=2|49=EXC|56=001|57=001B27|52=20190605-19:33:44.067|131=56939535|453=5|448=DCV|447=C|452=10|448=001B27|447=C|452=12|448=001|447=C|452=1|448=001FCM001|447=C|452=36|448=002B35|447=C|452=37|55=TFIC13280425|762=RFQF|48=20626|22=M|54=1|38=500000000|297=10|10=229|
8=FIX.4.4|9=0307|35=S|34=3|49=EXC|56=001|57=001B27|52=20190605-19:33:50.097|131=56939535|117=20190605-000000000049.00|55=TFIC13280425|762=RFQF|48=20626|22=M|453=5|448=DCV|447=C|452=10|448=001B27|447=C|452=12|448=001|447=C|452=1|448=001FCM001|447=C|452=36|448=002B35|447=C|452=37|634=4.000|135=500000000|62=20190617-22:00:00|10=006|
8=FIX.4.4|9=138|35=AJ|34=3|49=001|50=001B27|52=20190605-19:33:56.065|56=EXC|54=1|55=TFIC13280425|117=20190605-000000000049.00|693=14487344|694=1|762=RFQF|10=024|
8=FIX.4.4|9=0507|35=8|34=4|49=EXC|56=001|57=001B27|52=20190605-19:33:55.746|11=14487344|17=32|37=0|150=F|1080=20190605-000000000049.00|1081=5|453=6|448=001B27|447=C|452=12|448=001|447=C|452=1|448=002B35|447=C|452=37|448=002|447=C|452=17|448=001FCM001|447=C|452=36|448=DCV|447=C|452=10|55=TFIC13280425|762=RFQF|48=20626|22=M|6=79.354|14=500000000|31=79.354|32=500000000|38=500000000|39=2|20102=79.354|54=1|60=20190605-19:33:55.746|75=20190605|63=1|64=20190605|151=0|1623=4.000|381=396774000.000|880=201906050000000032|828=99|10=164|
8=FIX.4.4|9=110|35=A|34=1|49=001|50=001B27|52=20190605-19:36:17.851|56=EXC|43=Y|98=0|108=30|141=Y|553=001FCM001|554=001FCM001|10=090|
8=FIX.4.4|9=0067|35=A|34=1|49=EXC|56=001|52=20190605-19:36:17.940|98=0|108=30|141=Y|10=016|
8=FIX.4.4|9=110|35=A|34=1|49=001|50=001B27|52=20190605-19:37:49.332|56=EXC|43=Y|98=0|108=30|141=Y|553=001FCM001|554=001FCM001|10=090|
8=FIX.4.4|9=0067|35=A|34=1|49=EXC|56=001|52=20190605-19:37:49.422|98=0|108=30|141=Y|10=017|
8=FIX.4.4|9=177|35=R|34=2|49=001|50=001B27|52=20190605-19:37:51.768|56=EXC|131=18829839|146=1|55=TFIC13280425|22=M|762=RFQF|54=1|38=500000000|453=2|448=002B35|447=C|452=37|448=DCV|447=C|452=10|10=087|
8=FIX.4.4|9=0259|35=AI|34=2|49=EXC|56=001|57=001B27|52=20190605-19:37:51.766|131=18829839|453=5|448=DCV|447=C|452=10|448=001B27|447=C|452=12|448=001|447=C|452=1|448=001FCM001|447=C|452=36|448=002B35|447=C|452=37|55=TFIC13280425|762=RFQF|48=20626|22=M|54=1|38=500000000|297=10|10=240|
8=FIX.4.4|9=0307|35=S|34=3|49=EXC|56=001|57=001B27|52=20190605-19:37:57.941|131=18829839|117=20190605-000000000051.00|55=TFIC13280425|762=RFQF|48=20626|22=M|453=5|448=DCV|447=C|452=10|448=001B27|447=C|452=12|448=001|447=C|452=1|448=001FCM001|447=C|452=36|448=002B35|447=C|452=37|634=4.000|135=500000000|62=20190617-22:00:00|10=011|
8=FIX.4.4|9=137|35=AJ|34=3|49=001|50=001B27|52=20190605-19:38:03.906|56=EXC|54=1|55=TFIC13280425|117=20190605-000000000051.00|693=7280090|694=1|762=RFQF|10=216|
8=FIX.4.4|9=0506|35=8|34=4|49=EXC|56=001|57=001B27|52=20190605-19:38:03.898|11=7280090|17=34|37=0|150=F|1080=20190605-000000000051.00|1081=5|453=6|448=001B27|447=C|452=12|448=001|447=C|452=1|448=002B35|447=C|452=37|448=002|447=C|452=17|448=001FCM001|447=C|452=36|448=DCV|447=C|452=10|55=TFIC13280425|762=RFQF|48=20626|22=M|6=79.354|14=500000000|31=79.354|32=500000000|38=500000000|39=2|20102=79.354|54=1|60=20190605-19:38:03.898|75=20190605|63=1|64=20190605|151=0|1623=4.000|381=396774000.000|880=201906050000000034|828=99|10=115|
8=FIX.4.4|9=110|35=A|34=1|49=001|50=001B27|52=20190605-19:41:52.127|56=EXC|43=Y|98=0|108=30|141=Y|553=001FCM001|554=001FCM001|10=081|
8=FIX.4.4|9=0067|35=A|34=1|49=EXC|56=001|52=20190605-19:41:52.220|98=0|108=30|141=Y|10=002|
8=FIX.4.4|9=177|35=R|34=2|49=001|50=001B27|52=20190605-19:41:54.553|56=EXC|131=45255280|146=1|55=TFIC13280425|22=M|762=RFQF|54=1|38=500000000|453=2|448=002B35|447=C|452=37|448=DCV|447=C|452=10|10=060|
8=FIX.4.4|9=0259|35=AI|34=2|49=EXC|56=001|57=001B27|52=20190605-19:41:54.546|131=45255280|453=5|448=DCV|447=C|452=10|448=001B27|447=C|452=12|448=001|447=C|452=1|448=001FCM001|447=C|452=36|448=002B35|447=C|452=37|55=TFIC13280425|762=RFQF|48=20626|22=M|54=1|38=500000000|297=10|10=217|
8=FIX.4.4|9=0307|35=S|34=3|49=EXC|56=001|57=001B27|52=20190605-19:42:00.529|131=45255280|117=20190605-000000000053.00|55=TFIC13280425|762=RFQF|48=20626|22=M|453=5|448=DCV|447=C|452=10|448=001B27|447=C|452=12|448=001|447=C|452=1|448=001FCM001|447=C|452=36|448=002B35|447=C|452=37|634=4.000|135=500000000|62=20190617-22:00:00|10=238|
8=FIX.4.4|9=138|35=AJ|34=3|49=001|50=001B27|52=20190605-19:42:14.768|56=EXC|54=1|55=TFIC13280425|117=20190605-000000000053.00|693=29827264|694=1|762=RFQF|10=028|
8=FIX.4.4|9=0507|35=8|34=4|49=EXC|56=001|57=001B27|52=20190605-19:42:14.770|11=29827264|17=36|37=0|150=F|1080=20190605-000000000053.00|1081=5|453=6|448=001B27|447=C|452=12|448=001|447=C|452=1|448=002B35|447=C|452=37|448=002|447=C|452=17|448=001FCM001|447=C|452=36|448=DCV|447=C|452=10|55=TFIC13280425|762=RFQF|48=20626|22=M|6=79.354|14=500000000|31=79.354|32=500000000|38=500000000|39=2|20102=79.354|54=1|60=20190605-19:42:14.770|75=20190605|63=1|64=20190605|151=0|1623=4.000|381=396774000.000|880=201906050000000036|828=99|10=156|
8=FIX.4.4|9=110|35=A|34=1|49=001|50=001B27|52=20190605-19:43:35.825|56=EXC|43=Y|98=0|108=30|141=Y|553=001FCM001|554=001FCM001|10=089|
8=FIX.4.4|9=0067|35=A|34=1|49=EXC|56=001|52=20190605-19:43:36.262|98=0|108=30|141=Y|10=012|
8=FIX.4.4|9=176|35=R|34=2|49=001|50=001B27|52=20190605-19:43:38.740|56=EXC|131=6497974|146=1|55=TFIC13280425|22=M|762=RFQF|54=1|38=500000000|453=2|448=002B35|447=C|452=37|448=DCV|447=C|452=10|10=028|
8=FIX.4.4|9=0258|35=AI|34=2|49=EXC|56=001|57=001B27|52=20190605-19:43:38.728|131=6497974|453=5|448=DCV|447=C|452=10|448=001B27|447=C|452=12|448=001|447=C|452=1|448=001FCM001|447=C|452=36|448=002B35|447=C|452=37|55=TFIC13280425|762=RFQF|48=20626|22=M|54=1|38=500000000|297=10|10=189|
8=FIX.4.4|9=0306|35=S|34=3|49=EXC|56=001|57=001B27|52=20190605-19:43:44.766|131=6497974|117=20190605-000000000054.00|55=TFIC13280425|762=RFQF|48=20626|22=M|453=5|448=DCV|447=C|452=10|448=001B27|447=C|452=12|448=001|447=C|452=1|448=001FCM001|447=C|452=36|448=002B35|447=C|452=37|634=4.000|135=500000000|62=20190617-22:00:00|10=217|
8=FIX.4.4|9=138|35=AJ|34=3|49=001|50=001B27|52=20190605-19:43:58.925|56=EXC|54=1|55=TFIC13280425|117=20190605-000000000054.00|693=25729998|694=1|762=RFQF|10=044|
8=FIX.4.4|9=0507|35=8|34=4|49=EXC|56=001|57=001B27|52=20190605-19:43:58.914|11=25729998|17=37|37=0|150=F|1080=20190605-000000000054.00|1081=5|453=6|448=001B27|447=C|452=12|448=001|447=C|452=1|448=002B35|447=C|452=37|448=002|447=C|452=17|448=001FCM001|447=C|452=36|448=DCV|447=C|452=10|55=TFIC13280425|762=RFQF|48=20626|22=M|6=79.354|14=500000000|31=79.354|32=500000000|38=500000000|39=2|20102=79.354|54=1|60=20190605-19:43:58.914|75=20190605|63=1|64=20190605|151=0|1623=4.000|381=396774000.000|880=201906050000000037|828=99|10=188|
8=FIX.4.4|9=110|35=A|34=1|49=001|50=001B27|52=20190605-19:44:21.621|56=EXC|43=Y|98=0|108=30|141=Y|553=001FCM001|554=001FCM001|10=079|
8=FIX.4.4|9=0067|35=A|34=1|49=EXC|56=001|52=20190605-19:44:21.714|98=0|108=30|141=Y|10=009|
8=FIX.4.4|9=177|35=R|34=2|49=001|50=001B27|52=20190605-19:44:24.790|56=EXC|131=48673831|146=1|55=TFIC13280425|22=M|762=RFQF|54=1|38=500000000|453=2|448=002B35|447=C|452=37|448=DCV|447=C|452=10|10=072|
8=FIX.4.4|9=0259|35=AI|34=2|49=EXC|56=001|57=001B27|52=20190605-19:44:24.786|131=48673831|453=5|448=DCV|447=C|452=10|448=001B27|447=C|452=12|448=001|447=C|452=1|448=001FCM001|447=C|452=36|448=002B35|447=C|452=37|55=TFIC13280425|762=RFQF|48=20626|22=M|54=1|38=500000000|297=10|10=232|
8=FIX.4.4|9=0307|35=S|34=3|49=EXC|56=001|57=001B27|52=20190605-19:44:31.281|131=48673831|117=20190605-000000000055.00|55=TFIC13280425|762=RFQF|48=20626|22=M|453=5|448=DCV|447=C|452=10|448=001B27|447=C|452=12|448=001|447=C|452=1|448=001FCM001|447=C|452=36|448=002B35|447=C|452=37|634=4.000|135=500000000|62=20190617-22:00:00|10=250|
8=FIX.4.4|9=138|35=AJ|34=3|49=001|50=001B27|52=20190605-19:44:39.733|56=EXC|54=1|55=TFIC13280425|117=20190605-000000000055.00|693=71319577|694=1|762=RFQF|10=031|
8=FIX.4.4|9=0507|35=8|34=4|49=EXC|56=001|57=001B27|52=20190605-19:44:39.722|11=71319577|17=38|37=0|150=F|1080=20190605-000000000055.00|1081=5|453=6|448=001B27|447=C|452=12|448=001|447=C|452=1|448=002B35|447=C|452=37|448=002|447=C|452=17|448=001FCM001|447=C|452=36|448=DCV|447=C|452=10|55=TFIC13280425|762=RFQF|48=20626|22=M|6=79.354|14=500000000|31=79.354|32=500000000|38=500000000|39=2|20102=79.354|54=1|60=20190605-19:44:39.722|75=20190605|63=1|64=20190605|151=0|1623=4.000|381=396774000.000|880=201906050000000038|828=99|10=174|
8=FIX.4.4|9=110|35=A|34=1|49=001|50=001B27|52=20190605-19:46:17.686|56=EXC|43=Y|98=0|108=30|141=Y|553=001FCM001|554=001FCM001|10=097|
8=FIX.4.4|9=0067|35=A|34=1|49=EXC|56=001|52=20190605-19:46:17.740|98=0|108=30|141=Y|10=015|
8=FIX.4.4|9=177|35=R|34=2|49=001|50=001B27|52=20190605-19:46:20.021|56=EXC|131=25793554|146=1|55=TFIC13280425|22=M|762=RFQF|54=1|38=500000000|453=2|448=002B35|447=C|452=37|448=DCV|447=C|452=10|10=057|
8=FIX.4.4|9=0259|35=AI|34=2|49=EXC|56=001|57=001B27|52=20190605-19:46:20.022|131=25793554|453=5|448=DCV|447=C|452=10|448=001B27|447=C|452=12|448=001|447=C|452=1|448=001FCM001|447=C|452=36|448=002B35|447=C|452=37|55=TFIC13280425|762=RFQF|48=20626|22=M|54=1|38=500000000|297=10|10=213|
8=FIX.4.4|9=0307|35=S|34=3|49=EXC|56=001|57=001B27|52=20190605-19:46:26.890|131=25793554|117=20190605-000000000056.00|55=TFIC13280425|762=RFQF|48=20626|22=M|453=5|448=DCV|447=C|452=10|448=001B27|447=C|452=12|448=001|447=C|452=1|448=001FCM001|447=C|452=36|448=002B35|447=C|452=37|634=4.000|135=500000000|62=20190617-22:00:00|10=007|
8=FIX.4.4|9=138|35=AJ|34=3|49=001|50=001B27|52=20190605-19:46:32.706|56=EXC|54=1|55=TFIC13280425|117=20190605-000000000056.00|693=36604338|694=1|762=RFQF|10=020|
8=FIX.4.4|9=0507|35=8|34=4|49=EXC|56=001|57=001B27|52=20190605-19:46:32.693|11=36604338|17=39|37=0|150=F|1080=20190605-000000000056.00|1081=5|453=6|448=001B27|447=C|452=12|448=001|447=C|452=1|448=002B35|447=C|452=37|448=002|447=C|452=17|448=001FCM001|447=C|452=36|448=DCV|447=C|452=10|55=TFIC13280425|762=RFQF|48=20626|22=M|6=79.354|14=500000000|31=79.354|32=500000000|38=500000000|39=2|20102=79.354|54=1|60=20190605-19:46:32.693|75=20190605|63=1|64=20190605|151=0|1623=4.000|381=396774000.000|880=201906050000000039|828=99|10=174|
8=FIX.4.4|9=110|35=A|34=1|49=001|50=001B27|52=20190605-19:47:45.708|56=EXC|43=Y|98=0|108=30|141=Y|553=001FCM001|554=001FCM001|10=094|
8=FIX.4.4|9=0067|35=A|34=1|49=EXC|56=001|52=20190605-19:47:45.764|98=0|108=30|141=Y|10=023|
8=FIX.4.4|9=177|35=R|34=2|49=001|50=001B27|52=20190605-19:47:48.523|56=EXC|131=45237089|146=1|55=TFIC13280425|22=M|762=RFQF|54=1|38=500000000|453=2|448=002B35|447=C|452=37|448=DCV|447=C|452=10|10=073|
8=FIX.4.4|9=0259|35=AI|34=2|49=EXC|56=001|57=001B27|52=20190605-19:47:48.509|131=45237089|453=5|448=DCV|447=C|452=10|448=001B27|447=C|452=12|448=001|447=C|452=1|448=001FCM001|447=C|452=36|448=002B35|447=C|452=37|55=TFIC13280425|762=RFQF|48=20626|22=M|54=1|38=500000000|297=10|10=232|
8=FIX.4.4|9=0307|35=S|34=3|49=EXC|56=001|57=001B27|52=20190605-19:47:54.544|131=45237089|117=20190605-000000000057.00|55=TFIC13280425|762=RFQF|48=20626|22=M|453=5|448=DCV|447=C|452=10|448=001B27|447=C|452=12|448=001|447=C|452=1|448=001FCM001|447=C|452=36|448=002B35|447=C|452=37|634=4.000|135=500000000|62=20190617-22:00:00|10=004|
8=FIX.4.4|9=137|35=AJ|34=3|49=001|50=001B27|52=20190605-19:48:10.172|56=EXC|54=1|55=TFIC13280425|117=20190605-000000000057.00|693=2839605|694=1|762=RFQF|10=223|
8=FIX.4.4|9=0506|35=8|34=4|49=EXC|56=001|57=001B27|52=20190605-19:48:10.174|11=2839605|17=40|37=0|150=F|1080=20190605-000000000057.00|1081=5|453=6|448=001B27|447=C|452=12|448=001|447=C|452=1|448=002B35|447=C|452=37|448=002|447=C|452=17|448=001FCM001|447=C|452=36|448=DCV|447=C|452=10|55=TFIC13280425|762=RFQF|48=20626|22=M|6=79.354|14=500000000|31=79.354|32=500000000|38=500000000|39=2|20102=79.354|54=1|60=20190605-19:48:10.174|75=20190605|63=1|64=20190605|151=0|1623=4.000|381=396774000.000|880=201906050000000040|828=99|10=094|
8=FIX.4.4|9=0049|35=0|34=5|49=EXC|56=001|52=20190605-19:48:40.000|10=175|
8=FIX.4.4|9=59|35=0|34=4|49=001|50=001B27|52=20190605-19:48:40.648|56=EXC|10=064|
8=FIX.4.4|9=0049|35=0|34=6|49=EXC|56=001|52=20190605-19:49:10.000|10=174|
8=FIX.4.4|9=59|35=0|34=5|49=001|50=001B27|52=20190605-19:49:10.656|56=EXC|10=062|
8=FIX.4.4|9=110|35=A|34=1|49=001|50=001B27|52=20190605-19:53:09.015|56=EXC|43=Y|98=0|108=30|141=Y|553=001FCM001|554=001FCM001|10=082|
8=FIX.4.4|9=0067|35=A|34=1|49=EXC|56=001|52=20190605-19:53:09.105|98=0|108=30|141=Y|10=009|
8=FIX.4.4|9=177|35=R|34=2|49=001|50=001B27|52=20190605-19:53:11.385|56=EXC|131=67785289|146=1|55=TFIC13280425|22=M|762=RFQF|54=1|38=500000000|453=2|448=002B35|447=C|452=37|448=DCV|447=C|452=10|10=080|
8=FIX.4.4|9=0259|35=AI|34=2|49=EXC|56=001|57=001B27|52=20190605-19:53:11.369|131=67785289|453=5|448=DCV|447=C|452=10|448=001B27|447=C|452=12|448=001|447=C|452=1|448=001FCM001|447=C|452=36|448=002B35|447=C|452=37|55=TFIC13280425|762=RFQF|48=20626|22=M|54=1|38=500000000|297=10|10=237|
8=FIX.4.4|9=0307|35=S|34=3|49=EXC|56=001|57=001B27|52=20190605-19:53:18.794|131=67785289|117=20190605-000000000059.00|55=TFIC13280425|762=RFQF|48=20626|22=M|453=5|448=DCV|447=C|452=10|448=001B27|447=C|452=12|448=001|447=C|452=1|448=001FCM001|447=C|452=36|448=002B35|447=C|452=37|634=4.000|135=500000000|62=20190617-22:00:00|10=024|
8=FIX.4.4|9=138|35=AJ|34=3|49=001|50=001B27|52=20190605-19:53:36.666|56=EXC|54=1|55=TFIC13280425|117=20190605-000000000059.00|693=42615994|694=1|762=RFQF|10=037|
8=FIX.4.4|9=0507|35=8|34=4|49=EXC|56=001|57=001B27|52=20190605-19:53:36.647|11=42615994|17=42|37=0|150=F|1080=20190605-000000000059.00|1081=5|453=6|448=001B27|447=C|452=12|448=001|447=C|452=1|448=002B35|447=C|452=37|448=002|447=C|452=17|448=001FCM001|447=C|452=36|448=DCV|447=C|452=10|55=TFIC13280425|762=RFQF|48=20626|22=M|6=79.354|14=500000000|31=79.354|32=500000000|38=500000000|39=2|20102=79.354|54=1|60=20190605-19:53:36.647|75=20190605|63=1|64=20190605|151=0|1623=4.000|381=396774000.000|880=201906050000000042|828=99|10=174|
8=FIX.4.4|9=0049|35=0|34=5|49=EXC|56=001|52=20190605-19:54:06.000|10=174|
8=FIX.4.4|9=59|35=0|34=4|49=001|50=001B27|52=20190605-19:54:06.956|56=EXC|10=065|
8=FIX.4.4|9=110|35=A|34=1|49=001|50=001B27|52=20190605-20:00:23.620|56=EXC|43=Y|98=0|108=30|141=Y|553=001FCM001|554=001FCM001|10=064|
8=FIX.4.4|9=0067|35=A|34=1|49=EXC|56=001|52=20190605-20:00:23.693|98=0|108=30|141=Y|10=001|
8=FIX.4.4|9=177|35=R|34=2|49=001|50=001B27|52=20190605-20:00:25.946|56=EXC|131=42694167|146=1|55=TFIC13280425|22=M|762=RFQF|54=1|38=500000000|453=2|448=002B35|447=C|452=37|448=DCV|447=C|452=10|10=059|
8=FIX.4.4|9=0259|35=AI|34=2|49=EXC|56=001|57=001B27|52=20190605-20:00:25.922|131=42694167|453=5|448=DCV|447=C|452=10|448=001B27|447=C|452=12|448=001|447=C|452=1|448=001FCM001|447=C|452=36|448=002B35|447=C|452=37|55=TFIC13280425|762=RFQF|48=20626|22=M|54=1|38=500000000|297=10|10=208|
8=FIX.4.4|9=0307|35=S|34=3|49=EXC|56=001|57=001B27|52=20190605-20:00:31.995|131=42694167|117=20190605-000000000060.00|55=TFIC13280425|762=RFQF|48=20626|22=M|453=5|448=DCV|447=C|452=10|448=001B27|447=C|452=12|448=001|447=C|452=1|448=001FCM001|447=C|452=36|448=002B35|447=C|452=37|634=4.000|135=500000000|62=20190617-22:00:00|10=241|
8=FIX.4.4|9=138|35=AJ|34=3|49=001|50=001B27|52=20190605-20:00:37.784|56=EXC|54=1|55=TFIC13280425|117=20190605-000000000060.00|693=35184771|694=1|762=RFQF|10=011|
8=FIX.4.4|9=0507|35=8|34=4|49=EXC|56=001|57=001B27|52=20190605-20:00:37.759|11=35184771|17=43|37=0|150=F|1080=20190605-000000000060.00|1081=5|453=6|448=001B27|447=C|452=12|448=001|447=C|452=1|448=002B35|447=C|452=37|448=002|447=C|452=17|448=001FCM001|447=C|452=36|448=DCV|447=C|452=10|55=TFIC13280425|762=RFQF|48=20626|22=M|6=79.354|14=500000000|31=79.354|32=500000000|38=500000000|39=2|20102=79.354|54=1|60=20190605-20:00:37.759|75=20190605|63=1|64=20190605|151=0|1623=4.000|381=396774000.000|880=201906050000000043|828=99|10=142|
8=FIX.4.4|9=0049|35=0|34=5|49=EXC|56=001|52=20190605-20:01:07.000|10=159|
8=FIX.4.4|9=59|35=0|34=4|49=001|50=001B27|52=20190605-20:01:08.561|56=EXC|10=043|
8=FIX.4.4|9=110|35=A|34=1|49=001|50=001B27|52=20190605-20:06:09.562|56=EXC|43=Y|98=0|108=30|141=Y|553=001FCM001|554=001FCM001|10=079|
8=FIX.4.4|9=0067|35=A|34=1|49=EXC|56=001|52=20190605-20:06:09.866|98=0|108=30|141=Y|10=013|
8=FIX.4.4|9=0049|35=0|34=2|49=EXC|56=001|52=20190605-20:06:39.000|10=166|
8=FIX.4.4|9=59|35=0|34=2|49=001|50=001B27|52=20190605-20:06:40.499|56=EXC|10=052|
8=FIX.4.4|9=110|35=A|34=1|49=001|50=001B27|52=20190605-20:11:54.529|56=EXC|43=Y|98=0|108=30|141=Y|553=001FCM001|554=001FCM001|10=078|
8=FIX.4.4|9=0067|35=A|34=1|49=EXC|56=001|52=20190605-20:11:54.716|98=0|108=30|141=Y|10=003|
8=FIX.4.4|9=177|35=R|34=2|49=001|50=001B27|52=20190605-20:12:04.578|56=EXC|131=28813322|146=1|55=TFIC13280425|22=M|762=RFQF|54=1|38=500000000|453=2|448=002B35|447=C|452=37|448=DCV|447=C|452=10|10=050|
8=FIX.4.4|9=0259|35=AI|34=2|49=EXC|56=001|57=001B27|52=20190605-20:12:04.551|131=28813322|453=5|448=DCV|447=C|452=10|448=001B27|447=C|452=12|448=001|447=C|452=1|448=001FCM001|447=C|452=36|448=002B35|447=C|452=37|55=TFIC13280425|762=RFQF|48=20626|22=M|54=1|38=500000000|297=10|10=196|
8=FIX.4.4|9=0307|35=S|34=3|49=EXC|56=001|57=001B27|52=20190605-20:12:16.820|131=28813322|117=20190605-000000000061.00|55=TFIC13280425|762=RFQF|48=20626|22=M|453=5|448=DCV|447=C|452=10|448=001B27|447=C|452=12|448=001|447=C|452=1|448=001FCM001|447=C|452=36|448=002B35|447=C|452=37|634=4.000|135=500000000|62=20190617-22:00:00|10=225|
8=FIX.4.4|9=138|35=AJ|34=3|49=001|50=001B27|52=20190605-20:12:24.241|56=EXC|54=1|55=TFIC13280425|117=20190605-000000000061.00|693=35857698|694=1|762=RFQF|10=014|
8=FIX.4.4|9=0507|35=8|34=4|49=EXC|56=001|57=001B27|52=20190605-20:12:24.210|11=35857698|17=44|37=0|150=F|1080=20190605-000000000061.00|1081=5|453=6|448=001B27|447=C|452=12|448=001|447=C|452=1|448=002B35|447=C|452=37|448=002|447=C|452=17|448=001FCM001|447=C|452=36|448=DCV|447=C|452=10|55=TFIC13280425|762=RFQF|48=20626|22=M|6=79.354|14=500000000|31=79.354|32=500000000|38=500000000|39=2|20102=79.354|54=1|60=20190605-20:12:24.210|75=20190605|63=1|64=20190605|151=0|1623=4.000|381=396774000.000|880=201906050000000044|828=99|10=122|
8=FIX.4.4|9=110|35=A|34=1|49=001|50=001B27|52=20190605-20:34:59.470|56=EXC|43=Y|98=0|108=30|141=Y|553=001FCM001|554=001FCM001|10=083|
8=FIX.4.4|9=0067|35=A|34=1|49=EXC|56=001|52=20190605-20:34:59.550|98=0|108=30|141=Y|10=009|
8=FIX.4.4|9=177|35=R|34=2|49=001|50=001B27|52=20190605-20:35:02.853|56=EXC|131=45942664|146=1|55=TFIC13280425|22=M|762=RFQF|54=1|38=500000000|453=2|448=002B35|447=C|452=37|448=DCV|447=C|452=10|10=060|
8=FIX.4.4|9=0259|35=AI|34=2|49=EXC|56=001|57=001B27|52=20190605-20:35:02.517|131=45942664|453=5|448=DCV|447=C|452=10|448=001B27|447=C|452=12|448=001|447=C|452=1|448=001FCM001|447=C|452=36|448=002B35|447=C|452=37|55=TFIC13280425|762=RFQF|48=20626|22=M|54=1|38=500000000|297=10|10=212|
8=FIX.4.4|9=0307|35=S|34=3|49=EXC|56=001|57=001B27|52=20190605-20:35:10.039|131=45942664|117=20190605-000000000063.00|55=TFIC13280425|762=RFQF|48=20626|22=M|453=5|448=DCV|447=C|452=10|448=001B27|447=C|452=12|448=001|447=C|452=1|448=001FCM001|447=C|452=36|448=002B35|447=C|452=37|634=4.000|135=500000000|62=20190617-22:00:00|10=239|
8=FIX.4.4|9=138|35=AJ|34=3|49=001|50=001B27|52=20190605-20:35:17.136|56=EXC|54=1|55=TFIC13280425|117=20190605-000000000063.00|693=48336952|694=1|762=RFQF|10=015|
8=FIX.4.4|9=0507|35=8|34=4|49=EXC|56=001|57=001B27|52=20190605-20:35:16.799|11=48336952|17=46|37=0|150=F|1080=20190605-000000000063.00|1081=5|453=6|448=001B27|447=C|452=12|448=001|447=C|452=1|448=002B35|447=C|452=37|448=002|447=C|452=17|448=001FCM001|447=C|452=36|448=DCV|447=C|452=10|55=TFIC13280425|762=RFQF|48=20626|22=M|6=79.354|14=500000000|31=79.354|32=500000000|38=500000000|39=2|20102=79.354|54=1|60=20190605-20:35:16.799|75=20190605|63=1|64=20190605|151=0|1623=4.000|381=396774000.000|880=201906050000000046|828=99|10=173|
8=FIX.4.4|9=0049|35=0|34=5|49=EXC|56=001|52=20190605-20:35:46.000|10=169|
8=FIX.4.4|9=59|35=0|34=4|49=001|50=001B27|52=20190605-20:35:47.413|56=EXC|10=049|
8=FIX.4.4|9=110|35=A|34=1|49=001|50=001B27|52=20190605-20:37:06.480|56=EXC|43=Y|98=0|108=30|141=Y|553=001FCM001|554=001FCM001|10=079|
8=FIX.4.4|9=0067|35=A|34=1|49=EXC|56=001|52=20190605-20:37:05.925|98=0|108=30|141=Y|10=009|
8=FIX.4.4|9=177|35=R|34=2|49=001|50=001B27|52=20190605-20:37:09.882|56=EXC|131=43761815|146=1|55=TFIC13280425|22=M|762=RFQF|54=1|38=500000000|453=2|448=002B35|447=C|452=37|448=DCV|447=C|452=10|10=066|
8=FIX.4.4|9=0259|35=AI|34=2|49=EXC|56=001|57=001B27|52=20190605-20:37:09.194|131=43761815|453=5|448=DCV|447=C|452=10|448=001B27|447=C|452=12|448=001|447=C|452=1|448=001FCM001|447=C|452=36|448=002B35|447=C|452=37|55=TFIC13280425|762=RFQF|48=20626|22=M|54=1|38=500000000|297=10|10=217|
8=FIX.4.4|9=0307|35=S|34=3|49=EXC|56=001|57=001B27|52=20190605-20:37:17.507|131=43761815|117=20190605-000000000070.00|55=TFIC13280425|762=RFQF|48=20626|22=M|453=5|448=DCV|447=C|452=10|448=001B27|447=C|452=12|448=001|447=C|452=1|448=001FCM001|447=C|452=36|448=002B35|447=C|452=37|634=4.000|135=500000000|62=20190617-22:00:00|10=241|
8=FIX.4.4|9=137|35=AJ|34=3|49=001|50=001B27|52=20190605-20:37:26.834|56=EXC|54=1|55=TFIC13280425|117=20190605-000000000070.00|693=7608116|694=1|762=RFQF|10=216|
8=FIX.4.4|9=0506|35=8|34=4|49=EXC|56=001|57=001B27|52=20190605-20:37:26.149|11=7608116|17=47|37=0|150=F|1080=20190605-000000000070.00|1081=5|453=6|448=001B27|447=C|452=12|448=001|447=C|452=1|448=002B35|447=C|452=37|448=002|447=C|452=17|448=001FCM001|447=C|452=36|448=DCV|447=C|452=10|55=TFIC13280425|762=RFQF|48=20626|22=M|6=79.354|14=500000000|31=79.354|32=500000000|38=500000000|39=2|20102=79.354|54=1|60=20190605-20:37:26.149|75=20190605|63=1|64=20190605|151=0|1623=4.000|381=396774000.000|880=201906050000000047|828=99|10=097|
8=FIX.4.4|9=0049|35=0|34=5|49=EXC|56=001|52=20190605-20:37:56.000|10=172|
8=FIX.4.4|9=59|35=0|34=4|49=001|50=001B27|52=20190605-20:37:56.934|56=EXC|10=059|
=======
8=FIX.4.4|9=110|35=A|34=1|49=001|50=001B27|52=20190529-15:45:10.636|56=EXC|43=Y|98=0|108=30|141=Y|553=001FCM001|554=001FCM001|10=085|
8=FIX.4.4|9=0067|35=A|34=1|49=EXC|56=001|52=20190529-15:45:07.183|98=0|108=30|141=Y|10=015|
8=FIX.4.4|9=177|35=R|34=2|49=001|50=001B27|52=20190529-15:45:15.976|56=EXC|131=75592559|146=1|55=TFIC13280425|22=M|762=RFQF|54=1|38=500000000|453=2|448=002B35|447=C|452=37|448=DCV|447=C|452=10|10=087|
8=FIX.4.4|9=0259|35=AI|34=2|49=EXC|56=001|57=001B27|52=20190529-15:45:12.484|131=75592559|453=5|448=DCV|447=C|452=10|448=001B27|447=C|452=12|448=001|447=C|452=1|448=001FCM001|447=C|452=36|448=002B35|447=C|452=37|55=TFIC13280425|762=RFQF|48=20626|22=M|54=1|38=500000000|297=10|10=233|
8=FIX.4.4|9=110|35=A|34=1|49=001|50=001B27|52=20190529-15:49:00.776|56=EXC|43=Y|98=0|108=30|141=Y|553=001FCM001|554=001FCM001|10=093|
8=FIX.4.4|9=0067|35=A|34=1|49=EXC|56=001|52=20190529-15:48:57.322|98=0|108=30|141=Y|10=018|
8=FIX.4.4|9=177|35=R|34=2|49=001|50=001B27|52=20190529-15:49:06.128|56=EXC|131=29879115|146=1|55=TFIC13280425|22=M|762=RFQF|54=1|38=500000000|453=2|448=002B35|447=C|452=37|448=DCV|447=C|452=10|10=075|
8=FIX.4.4|9=0259|35=AI|34=2|49=EXC|56=001|57=001B27|52=20190529-15:49:02.639|131=29879115|453=5|448=DCV|447=C|452=10|448=001B27|447=C|452=12|448=001|447=C|452=1|448=001FCM001|447=C|452=36|448=002B35|447=C|452=37|55=TFIC13280425|762=RFQF|48=20626|22=M|54=1|38=500000000|297=10|10=233|
8=FIX.4.4|9=110|35=A|34=1|49=001|50=001B27|52=20190529-15:53:18.785|56=EXC|43=Y|98=0|108=30|141=Y|553=001FCM001|554=001FCM001|10=097|
8=FIX.4.4|9=0067|35=A|34=1|49=EXC|56=001|52=20190529-15:53:15.351|98=0|108=30|141=Y|10=010|
8=FIX.4.4|9=177|35=R|34=2|49=001|50=001B27|52=20190529-15:53:24.081|56=EXC|131=49339068|146=1|55=TFIC13280425|22=M|762=RFQF|54=1|38=500000000|453=2|448=002B35|447=C|452=37|448=DCV|447=C|452=10|10=068|
8=FIX.4.4|9=0259|35=AI|34=2|49=EXC|56=001|57=001B27|52=20190529-15:53:20.590|131=49339068|453=5|448=DCV|447=C|452=10|448=001B27|447=C|452=12|448=001|447=C|452=1|448=001FCM001|447=C|452=36|448=002B35|447=C|452=37|55=TFIC13280425|762=RFQF|48=20626|22=M|54=1|38=500000000|297=10|10=224|
8=FIX.4.4|9=0049|35=0|34=3|49=EXC|56=001|52=20190529-15:53:50.000|10=171|
8=FIX.4.4|9=59|35=0|34=3|49=001|50=001B27|52=20190529-15:53:54.756|56=EXC|10=065|
8=FIX.4.4|9=110|35=A|34=1|49=001|50=001B27|52=20190529-15:54:29.639|56=EXC|43=Y|98=0|108=30|141=Y|553=001FCM001|554=001FCM001|10=098|
8=FIX.4.4|9=0067|35=A|34=1|49=EXC|56=001|52=20190529-15:54:26.344|98=0|108=30|141=Y|10=015|
8=FIX.4.4|9=177|35=R|34=2|49=001|50=001B27|52=20190529-15:54:35.088|56=EXC|131=49336389|146=1|55=TFIC13280425|22=M|762=RFQF|54=1|38=500000000|453=2|448=002B35|447=C|452=37|448=DCV|447=C|452=10|10=081|
8=FIX.4.4|9=0259|35=AI|34=2|49=EXC|56=001|57=001B27|52=20190529-15:54:31.602|131=49336389|453=5|448=DCV|447=C|452=10|448=001B27|447=C|452=12|448=001|447=C|452=1|448=001FCM001|447=C|452=36|448=002B35|447=C|452=37|55=TFIC13280425|762=RFQF|48=20626|22=M|54=1|38=500000000|297=10|10=224|
8=FIX.4.4|9=0049|35=0|34=3|49=EXC|56=001|52=20190529-15:55:01.000|10=169|
8=FIX.4.4|9=59|35=0|34=3|49=001|50=001B27|52=20190529-15:55:05.616|56=EXC|10=058|
8=FIX.4.4|9=110|35=A|34=1|49=001|50=001B27|52=20190529-16:31:18.788|56=EXC|43=Y|98=0|108=30|141=Y|553=001FCM001|554=001FCM001|10=097|
8=FIX.4.4|9=0067|35=A|34=1|49=EXC|56=001|52=20190529-16:31:15.366|98=0|108=30|141=Y|10=013|
8=FIX.4.4|9=177|35=R|34=2|49=001|50=001B27|52=20190529-16:31:24.186|56=EXC|131=49858699|146=1|55=TFIC13280425|22=M|762=RFQF|54=1|38=500000000|453=2|448=002B35|447=C|452=37|448=DCV|447=C|452=10|10=087|
8=FIX.4.4|9=0259|35=AI|34=2|49=EXC|56=001|57=001B27|52=20190529-16:31:20.697|131=49858699|453=5|448=DCV|447=C|452=10|448=001B27|447=C|452=12|448=001|447=C|452=1|448=001FCM001|447=C|452=36|448=002B35|447=C|452=37|55=TFIC13280425|762=RFQF|48=20626|22=M|54=1|38=500000000|297=10|10=245|
8=FIX.4.4|9=0049|35=0|34=3|49=EXC|56=001|52=20190529-16:31:50.000|10=168|
8=FIX.4.4|9=59|35=0|34=3|49=001|50=001B27|52=20190529-16:31:54.759|56=EXC|10=065|
8=FIX.4.4|9=0049|35=0|34=4|49=EXC|56=001|52=20190529-16:32:20.000|10=167|
8=FIX.4.4|9=59|35=0|34=4|49=001|50=001B27|52=20190529-16:32:24.760|56=EXC|10=056|
8=FIX.4.4|9=110|35=A|34=1|49=001|50=001B27|52=20190529-16:41:51.521|56=EXC|43=Y|98=0|108=30|141=Y|553=001FCM001|554=001FCM001|10=080|
8=FIX.4.4|9=0067|35=A|34=1|49=EXC|56=001|52=20190529-16:41:48.075|98=0|108=30|141=Y|10=017|
8=FIX.4.4|9=176|35=R|34=2|49=001|50=001B27|52=20190529-16:41:56.815|56=EXC|131=4859171|146=1|55=TFIC13280425|22=M|762=RFQF|54=1|38=500000000|453=2|448=002B35|447=C|452=37|448=DCV|447=C|452=10|10=020|
8=FIX.4.4|9=0258|35=AI|34=2|49=EXC|56=001|57=001B27|52=20190529-16:41:53.327|131=4859171|453=5|448=DCV|447=C|452=10|448=001B27|447=C|452=12|448=001|447=C|452=1|448=001FCM001|447=C|452=36|448=002B35|447=C|452=37|55=TFIC13280425|762=RFQF|48=20626|22=M|54=1|38=500000000|297=10|10=170|
8=FIX.4.4|9=0049|35=0|34=3|49=EXC|56=001|52=20190529-16:42:23.000|10=170|
8=FIX.4.4|9=59|35=0|34=3|49=001|50=001B27|52=20190529-16:42:27.483|56=EXC|10=061|
8=FIX.4.4|9=110|35=A|34=1|49=001|50=001B27|52=20190529-16:47:42.408|56=EXC|43=Y|98=0|108=30|141=Y|553=001FCM001|554=001FCM001|10=090|
8=FIX.4.4|9=0067|35=A|34=1|49=EXC|56=001|52=20190529-16:47:38.972|98=0|108=30|141=Y|10=028|
8=FIX.4.4|9=177|35=R|34=2|49=001|50=001B27|52=20190529-16:47:47.758|56=EXC|131=16887227|146=1|55=TFIC13280425|22=M|762=RFQF|54=1|38=500000000|453=2|448=002B35|447=C|452=37|448=DCV|447=C|452=10|10=087|
8=FIX.4.4|9=0259|35=AI|34=2|49=EXC|56=001|57=001B27|52=20190529-16:47:44.272|131=16887227|453=5|448=DCV|447=C|452=10|448=001B27|447=C|452=12|448=001|447=C|452=1|448=001FCM001|447=C|452=36|448=002B35|447=C|452=37|55=TFIC13280425|762=RFQF|48=20626|22=M|54=1|38=500000000|297=10|10=230|
8=FIX.4.4|9=110|35=A|34=1|49=001|50=001B27|52=20190529-16:55:22.389|56=EXC|43=Y|98=0|108=30|141=Y|553=001FCM001|554=001FCM001|10=095|
8=FIX.4.4|9=0067|35=A|34=1|49=EXC|56=001|52=20190529-16:55:18.937|98=0|108=30|141=Y|10=026|
8=FIX.4.4|9=177|35=R|34=2|49=001|50=001B27|52=20190529-16:55:27.732|56=EXC|131=48903053|146=1|55=TFIC13280425|22=M|762=RFQF|54=1|38=500000000|453=2|448=002B35|447=C|452=37|448=DCV|447=C|452=10|10=067|
8=FIX.4.4|9=0259|35=AI|34=2|49=EXC|56=001|57=001B27|52=20190529-16:55:24.243|131=48903053|453=5|448=DCV|447=C|452=10|448=001B27|447=C|452=12|448=001|447=C|452=1|448=001FCM001|447=C|452=36|448=002B35|447=C|452=37|55=TFIC13280425|762=RFQF|48=20626|22=M|54=1|38=500000000|297=10|10=216|
8=FIX.4.4|9=110|35=A|34=1|49=001|50=001B27|52=20190529-17:07:01.938|56=EXC|43=Y|98=0|108=30|141=Y|553=001FCM001|554=001FCM001|10=090|
8=FIX.4.4|9=0067|35=A|34=1|49=EXC|56=001|52=20190529-17:06:58.498|98=0|108=30|141=Y|10=029|
8=FIX.4.4|9=177|35=R|34=2|49=001|50=001B27|52=20190529-17:07:07.304|56=EXC|131=67127022|146=1|55=TFIC13280425|22=M|762=RFQF|54=1|38=500000000|453=2|448=002B35|447=C|452=37|448=DCV|447=C|452=10|10=053|
8=FIX.4.4|9=0259|35=AI|34=2|49=EXC|56=001|57=001B27|52=20190529-17:07:03.814|131=67127022|453=5|448=DCV|447=C|452=10|448=001B27|447=C|452=12|448=001|447=C|452=1|448=001FCM001|447=C|452=36|448=002B35|447=C|452=37|55=TFIC13280425|762=RFQF|48=20626|22=M|54=1|38=500000000|297=10|10=210|
8=FIX.4.4|9=110|35=A|34=1|49=001|50=001B27|52=20190529-20:17:01.705|56=EXC|43=Y|98=0|108=30|141=Y|553=001FCM001|554=001FCM001|10=077|
8=FIX.4.4|9=0067|35=A|34=1|49=EXC|56=001|52=20190529-20:16:58.224|98=0|108=30|141=Y|10=011|
8=FIX.4.4|9=177|35=R|34=2|49=001|50=001B27|52=20190529-20:17:07.182|56=EXC|131=11297418|146=1|55=TFIC13280425|22=M|762=RFQF|54=1|38=500000000|453=2|448=002B35|447=C|452=37|448=DCV|447=C|452=10|10=058|
8=FIX.4.4|9=0259|35=AI|34=2|49=EXC|56=001|57=001B27|52=20190529-20:17:03.530|131=11297418|453=5|448=DCV|447=C|452=10|448=001B27|447=C|452=12|448=001|447=C|452=1|448=001FCM001|447=C|452=36|448=002B35|447=C|452=37|55=TFIC13280425|762=RFQF|48=20626|22=M|54=1|38=500000000|297=10|10=206|
8=FIX.4.4|9=110|35=A|34=1|49=001|50=001B27|52=20190529-20:19:05.986|56=EXC|43=Y|98=0|108=30|141=Y|553=001FCM001|554=001FCM001|10=094|
8=FIX.4.4|9=0067|35=A|34=1|49=EXC|56=001|52=20190529-20:19:02.496|98=0|108=30|141=Y|10=014|
8=FIX.4.4|9=177|35=R|34=2|49=001|50=001B27|52=20190529-20:19:11.553|56=EXC|131=80176707|146=1|55=TFIC13280425|22=M|762=RFQF|54=1|38=500000000|453=2|448=002B35|447=C|452=37|448=DCV|447=C|452=10|10=060|
8=FIX.4.4|9=0259|35=AI|34=2|49=EXC|56=001|57=001B27|52=20190529-20:19:07.903|131=80176707|453=5|448=DCV|447=C|452=10|448=001B27|447=C|452=12|448=001|447=C|452=1|448=001FCM001|447=C|452=36|448=002B35|447=C|452=37|55=TFIC13280425|762=RFQF|48=20626|22=M|54=1|38=500000000|297=10|10=219|
8=FIX.4.4|9=110|35=A|34=1|49=001|50=001B27|52=20190529-20:22:46.949|56=EXC|43=Y|98=0|108=30|141=Y|553=001FCM001|554=001FCM001|10=092|
8=FIX.4.4|9=0067|35=A|34=1|49=EXC|56=001|52=20190529-20:22:43.430|98=0|108=30|141=Y|10=001|
8=FIX.4.4|9=177|35=R|34=2|49=001|50=001B27|52=20190529-20:22:52.323|56=EXC|131=78579290|146=1|55=TFIC13280425|22=M|762=RFQF|54=1|38=500000000|453=2|448=002B35|447=C|452=37|448=DCV|447=C|452=10|10=065|
8=FIX.4.4|9=0259|35=AI|34=2|49=EXC|56=001|57=001B27|52=20190529-20:22:48.667|131=78579290|453=5|448=DCV|447=C|452=10|448=001B27|447=C|452=12|448=001|447=C|452=1|448=001FCM001|447=C|452=36|448=002B35|447=C|452=37|55=TFIC13280425|762=RFQF|48=20626|22=M|54=1|38=500000000|297=10|10=236|
8=FIX.4.4|9=0049|35=0|34=3|49=EXC|56=001|52=20190529-20:23:18.000|10=168|
8=FIX.4.4|9=59|35=0|34=3|49=001|50=001B27|52=20190529-20:23:22.904|56=EXC|10=048|
8=FIX.4.4|9=110|35=A|34=1|49=001|50=001B27|52=20190529-20:25:43.774|56=EXC|43=Y|98=0|108=30|141=Y|553=001FCM001|554=001FCM001|10=088|
8=FIX.4.4|9=0067|35=A|34=1|49=EXC|56=001|52=20190529-20:25:40.211|98=0|108=30|141=Y|10=254|
8=FIX.4.4|9=177|35=R|34=2|49=001|50=001B27|52=20190529-20:25:49.180|56=EXC|131=22751591|146=1|55=TFIC13280425|22=M|762=RFQF|54=1|38=500000000|453=2|448=002B35|447=C|452=37|448=DCV|447=C|452=10|10=060|
8=FIX.4.4|9=0259|35=AI|34=2|49=EXC|56=001|57=001B27|52=20190529-20:25:45.527|131=22751591|453=5|448=DCV|447=C|452=10|448=001B27|447=C|452=12|448=001|447=C|452=1|448=001FCM001|447=C|452=36|448=002B35|447=C|452=37|55=TFIC13280425|762=RFQF|48=20626|22=M|54=1|38=500000000|297=10|10=216|
8=FIX.4.4|9=110|35=A|34=1|49=001|50=001B27|52=20190529-20:26:50.262|56=EXC|43=Y|98=0|108=30|141=Y|553=001FCM001|554=001FCM001|10=079|
8=FIX.4.4|9=0067|35=A|34=1|49=EXC|56=001|52=20190529-20:26:46.999|98=0|108=30|141=Y|10=028|
8=FIX.4.4|9=177|35=R|34=2|49=001|50=001B27|52=20190529-20:26:55.943|56=EXC|131=49852828|146=1|55=TFIC13280425|22=M|762=RFQF|54=1|38=500000000|453=2|448=002B35|447=C|452=37|448=DCV|447=C|452=10|10=079|
8=FIX.4.4|9=0259|35=AI|34=2|49=EXC|56=001|57=001B27|52=20190529-20:26:52.287|131=49852828|453=5|448=DCV|447=C|452=10|448=001B27|447=C|452=12|448=001|447=C|452=1|448=001FCM001|447=C|452=36|448=002B35|447=C|452=37|55=TFIC13280425|762=RFQF|48=20626|22=M|54=1|38=500000000|297=10|10=232|
8=FIX.4.4|9=110|35=A|34=1|49=001|50=001B27|52=20190529-20:28:23.104|56=EXC|43=Y|98=0|108=30|141=Y|553=001FCM001|554=001FCM001|10=076|
8=FIX.4.4|9=0067|35=A|34=1|49=EXC|56=001|52=20190529-20:28:19.765|98=0|108=30|141=Y|10=021|
8=FIX.4.4|9=177|35=R|34=2|49=001|50=001B27|52=20190529-20:28:28.122|56=EXC|131=14888215|146=1|55=TFIC13280425|22=M|762=RFQF|54=1|38=500000000|453=2|448=002B35|447=C|452=37|448=DCV|447=C|452=10|10=061|
8=FIX.4.4|9=0259|35=AI|34=2|49=EXC|56=001|57=001B27|52=20190529-20:28:24.473|131=14888215|453=5|448=DCV|447=C|452=10|448=001B27|447=C|452=12|448=001|447=C|452=1|448=001FCM001|447=C|452=36|448=002B35|447=C|452=37|55=TFIC13280425|762=RFQF|48=20626|22=M|54=1|38=500000000|297=10|10=221|
8=FIX.4.4|9=0049|35=0|34=3|49=EXC|56=001|52=20190529-20:28:54.000|10=173|
8=FIX.4.4|9=110|35=A|34=1|49=001|50=001B27|52=20190529-20:31:40.179|56=EXC|43=Y|98=0|108=30|141=Y|553=001FCM001|554=001FCM001|10=081|
8=FIX.4.4|9=0067|35=A|34=1|49=EXC|56=001|52=20190529-20:31:36.600|98=0|108=30|141=Y|10=002|
8=FIX.4.4|9=110|35=A|34=1|49=001|50=001B27|52=20190529-20:31:49.895|56=EXC|43=Y|98=0|108=30|141=Y|553=001FCM001|554=001FCM001|10=095|
8=FIX.4.4|9=0067|35=A|34=1|49=EXC|56=001|52=20190529-20:31:46.297|98=0|108=30|141=Y|10=015|
8=FIX.4.4|9=176|35=R|34=2|49=001|50=001B27|52=20190529-20:31:55.325|56=EXC|131=1932769|146=1|55=TFIC13280425|22=M|762=RFQF|54=1|38=500000000|453=2|448=002B35|447=C|452=37|448=DCV|447=C|452=10|10=011|
8=FIX.4.4|9=0258|35=AI|34=2|49=EXC|56=001|57=001B27|52=20190529-20:31:51.667|131=1932769|453=5|448=DCV|447=C|452=10|448=001B27|447=C|452=12|448=001|447=C|452=1|448=001FCM001|447=C|452=36|448=002B35|447=C|452=37|55=TFIC13280425|762=RFQF|48=20626|22=M|54=1|38=500000000|297=10|10=171|
8=FIX.4.4|9=0049|35=0|34=3|49=EXC|56=001|52=20190529-20:32:21.000|10=162|
8=FIX.4.4|9=59|35=0|34=3|49=001|50=001B27|52=20190529-20:32:25.860|56=EXC|10=052|
8=FIX.4.4|9=110|35=A|34=1|49=001|50=001B27|52=20190529-20:32:40.142|56=EXC|43=Y|98=0|108=30|141=Y|553=001FCM001|554=001FCM001|10=072|
8=FIX.4.4|9=0067|35=A|34=1|49=EXC|56=001|52=20190529-20:32:36.556|98=0|108=30|141=Y|10=013|
8=FIX.4.4|9=177|35=R|34=2|49=001|50=001B27|52=20190529-20:32:45.507|56=EXC|131=73274364|146=1|55=TFIC13280425|22=M|762=RFQF|54=1|38=500000000|453=2|448=002B35|447=C|452=37|448=DCV|447=C|452=10|10=061|
8=FIX.4.4|9=0259|35=AI|34=2|49=EXC|56=001|57=001B27|52=20190529-20:32:41.849|131=73274364|453=5|448=DCV|447=C|452=10|448=001B27|447=C|452=12|448=001|447=C|452=1|448=001FCM001|447=C|452=36|448=002B35|447=C|452=37|55=TFIC13280425|762=RFQF|48=20626|22=M|54=1|38=500000000|297=10|10=221|
8=FIX.4.4|9=110|35=A|34=1|49=001|50=001B27|52=20190529-20:33:32.548|56=EXC|43=Y|98=0|108=30|141=Y|553=001FCM001|554=001FCM001|10=084|
8=FIX.4.4|9=0067|35=A|34=1|49=EXC|56=001|52=20190529-20:33:28.934|98=0|108=30|141=Y|10=015|
8=FIX.4.4|9=177|35=R|34=2|49=001|50=001B27|52=20190529-20:33:37.901|56=EXC|131=39595128|146=1|55=TFIC13280425|22=M|762=RFQF|54=1|38=500000000|453=2|448=002B35|447=C|452=37|448=DCV|447=C|452=10|10=067|
8=FIX.4.4|9=0259|35=AI|34=2|49=EXC|56=001|57=001B27|52=20190529-20:33:34.242|131=39595128|453=5|448=DCV|447=C|452=10|448=001B27|447=C|452=12|448=001|447=C|452=1|448=001FCM001|447=C|452=36|448=002B35|447=C|452=37|55=TFIC13280425|762=RFQF|48=20626|22=M|54=1|38=500000000|297=10|10=217|
8=FIX.4.4|9=0049|35=0|34=3|49=EXC|56=001|52=20190529-20:34:04.000|10=165|
8=FIX.4.4|9=59|35=0|34=3|49=001|50=001B27|52=20190529-20:34:08.513|56=EXC|10=050|
8=FIX.4.4|9=0049|35=0|34=4|49=EXC|56=001|52=20190529-20:34:34.000|10=169|
8=FIX.4.4|9=59|35=0|34=4|49=001|50=001B27|52=20190529-20:34:38.513|56=EXC|10=054|
8=FIX.4.4|9=110|35=A|34=1|49=001|50=001B27|52=20190529-20:37:17.379|56=EXC|43=Y|98=0|108=30|141=Y|553=001FCM001|554=001FCM001|10=093|
8=FIX.4.4|9=0067|35=A|34=1|49=EXC|56=001|52=20190529-20:37:13.757|98=0|108=30|141=Y|10=016|
8=FIX.4.4|9=177|35=R|34=2|49=001|50=001B27|52=20190529-20:37:22.678|56=EXC|131=56200030|146=1|55=TFIC13280425|22=M|762=RFQF|54=1|38=500000000|453=2|448=002B35|447=C|452=37|448=DCV|447=C|452=10|10=050|
8=FIX.4.4|9=0259|35=AI|34=2|49=EXC|56=001|57=001B27|52=20190529-20:37:19.020|131=56200030|453=5|448=DCV|447=C|452=10|448=001B27|447=C|452=12|448=001|447=C|452=1|448=001FCM001|447=C|452=36|448=002B35|447=C|452=37|55=TFIC13280425|762=RFQF|48=20626|22=M|54=1|38=500000000|297=10|10=192|
8=FIX.4.4|9=0049|35=0|34=3|49=EXC|56=001|52=20190529-20:37:49.000|10=177|
8=FIX.4.4|9=59|35=0|34=3|49=001|50=001B27|52=20190529-20:37:52.680|56=EXC|10=057|
8=FIX.4.4|9=110|35=A|34=1|49=001|50=001B27|52=20190529-20:38:56.221|56=EXC|43=Y|98=0|108=30|141=Y|553=001FCM001|554=001FCM001|10=083|
8=FIX.4.4|9=0067|35=A|34=1|49=EXC|56=001|52=20190529-20:38:52.621|98=0|108=30|141=Y|10=010|
8=FIX.4.4|9=177|35=R|34=2|49=001|50=001B27|52=20190529-20:39:01.595|56=EXC|131=70303370|146=1|55=TFIC13280425|22=M|762=RFQF|54=1|38=500000000|453=2|448=002B35|447=C|452=37|448=DCV|447=C|452=10|10=054|
8=FIX.4.4|9=0259|35=AI|34=2|49=EXC|56=001|57=001B27|52=20190529-20:38:57.935|131=70303370|453=5|448=DCV|447=C|452=10|448=001B27|447=C|452=12|448=001|447=C|452=1|448=001FCM001|447=C|452=36|448=002B35|447=C|452=37|55=TFIC13280425|762=RFQF|48=20626|22=M|54=1|38=500000000|297=10|10=217|
8=FIX.4.4|9=0049|35=0|34=3|49=EXC|56=001|52=20190529-20:39:27.000|10=175|
8=FIX.4.4|9=59|35=0|34=3|49=001|50=001B27|52=20190529-20:39:32.172|56=EXC|10=053|
8=FIX.4.4|9=0049|35=0|34=4|49=EXC|56=001|52=20190529-20:39:57.000|10=179|
8=FIX.4.4|9=59|35=0|34=4|49=001|50=001B27|52=20190529-20:40:02.172|56=EXC|10=043|
8=FIX.4.4|9=0049|35=0|34=5|49=EXC|56=001|52=20190529-20:40:27.000|10=169|
8=FIX.4.4|9=59|35=0|34=5|49=001|50=001B27|52=20190529-20:40:32.173|56=EXC|10=048|
8=FIX.4.4|9=110|35=A|34=1|49=001|50=001B27|52=20190529-20:40:53.223|56=EXC|43=Y|98=0|108=30|141=Y|553=001FCM001|554=001FCM001|10=075|
8=FIX.4.4|9=0067|35=A|34=1|49=EXC|56=001|52=20190529-20:40:49.651|98=0|108=30|141=Y|10=012|
8=FIX.4.4|9=177|35=R|34=2|49=001|50=001B27|52=20190529-20:40:58.534|56=EXC|131=44505277|146=1|55=TFIC13280425|22=M|762=RFQF|54=1|38=500000000|453=2|448=002B35|447=C|452=37|448=DCV|447=C|452=10|10=062|
8=FIX.4.4|9=0259|35=AI|34=2|49=EXC|56=001|57=001B27|52=20190529-20:40:54.873|131=44505277|453=5|448=DCV|447=C|452=10|448=001B27|447=C|452=12|448=001|447=C|452=1|448=001FCM001|447=C|452=36|448=002B35|447=C|452=37|55=TFIC13280425|762=RFQF|48=20626|22=M|54=1|38=500000000|297=10|10=219|
8=FIX.4.4|9=110|35=A|34=1|49=001|50=001B27|52=20190529-20:42:33.812|56=EXC|43=Y|98=0|108=30|141=Y|553=001FCM001|554=001FCM001|10=079|
8=FIX.4.4|9=0067|35=A|34=1|49=EXC|56=001|52=20190529-20:42:30.187|98=0|108=30|141=Y|10=008|
8=FIX.4.4|9=177|35=R|34=2|49=001|50=001B27|52=20190529-20:42:39.051|56=EXC|131=21754726|146=1|55=TFIC13280425|22=M|762=RFQF|54=1|38=500000000|453=2|448=002B35|447=C|452=37|448=DCV|447=C|452=10|10=057|
8=FIX.4.4|9=0259|35=AI|34=2|49=EXC|56=001|57=001B27|52=20190529-20:42:35.390|131=21754726|453=5|448=DCV|447=C|452=10|448=001B27|447=C|452=12|448=001|447=C|452=1|448=001FCM001|447=C|452=36|448=002B35|447=C|452=37|55=TFIC13280425|762=RFQF|48=20626|22=M|54=1|38=500000000|297=10|10=214|
8=FIX.4.4|9=110|35=A|34=1|49=001|50=001B27|52=20190529-20:43:15.004|56=EXC|43=Y|98=0|108=30|141=Y|553=001FCM001|554=001FCM001|10=073|
8=FIX.4.4|9=0067|35=A|34=1|49=EXC|56=001|52=20190529-20:43:11.381|98=0|108=30|141=Y|10=004|
8=FIX.4.4|9=177|35=R|34=2|49=001|50=001B27|52=20190529-20:43:20.547|56=EXC|131=21412835|146=1|55=TFIC13280425|22=M|762=RFQF|54=1|38=500000000|453=2|448=002B35|447=C|452=37|448=DCV|447=C|452=10|10=050|
8=FIX.4.4|9=0259|35=AI|34=2|49=EXC|56=001|57=001B27|52=20190529-20:43:16.884|131=21412835|453=5|448=DCV|447=C|452=10|448=001B27|447=C|452=12|448=001|447=C|452=1|448=001FCM001|447=C|452=36|448=002B35|447=C|452=37|55=TFIC13280425|762=RFQF|48=20626|22=M|54=1|38=500000000|297=10|10=214|
8=FIX.4.4|9=0049|35=0|34=3|49=EXC|56=001|52=20190529-20:43:46.000|10=171|
8=FIX.4.4|9=59|35=0|34=3|49=001|50=001B27|52=20190529-20:43:50.964|56=EXC|10=057|
8=FIX.4.4|9=110|35=A|34=1|49=001|50=001B27|52=20190529-20:45:17.252|56=EXC|43=Y|98=0|108=30|141=Y|553=001FCM001|554=001FCM001|10=082|
8=FIX.4.4|9=0067|35=A|34=1|49=EXC|56=001|52=20190529-20:45:13.658|98=0|108=30|141=Y|10=015|
8=FIX.4.4|9=177|35=R|34=2|49=001|50=001B27|52=20190529-20:45:22.537|56=EXC|131=78942908|146=1|55=TFIC13280425|22=M|762=RFQF|54=1|38=500000000|453=2|448=002B35|447=C|452=37|448=DCV|447=C|452=10|10=074|
8=FIX.4.4|9=0259|35=AI|34=2|49=EXC|56=001|57=001B27|52=20190529-20:45:18.876|131=78942908|453=5|448=DCV|447=C|452=10|448=001B27|447=C|452=12|448=001|447=C|452=1|448=001FCM001|447=C|452=36|448=002B35|447=C|452=37|55=TFIC13280425|762=RFQF|48=20626|22=M|54=1|38=500000000|297=10|10=240|
8=FIX.4.4|9=0049|35=0|34=3|49=EXC|56=001|52=20190529-20:45:48.000|10=175|
8=FIX.4.4|9=59|35=0|34=3|49=001|50=001B27|52=20190529-20:45:53.212|56=EXC|10=048|
8=FIX.4.4|9=110|35=A|34=1|49=001|50=001B27|52=20190529-20:46:43.865|56=EXC|43=Y|98=0|108=30|141=Y|553=001FCM001|554=001FCM001|10=092|
8=FIX.4.4|9=0067|35=A|34=1|49=EXC|56=001|52=20190529-20:46:40.305|98=0|108=30|141=Y|10=005|
8=FIX.4.4|9=177|35=R|34=2|49=001|50=001B27|52=20190529-20:46:49.132|56=EXC|131=50145024|146=1|55=TFIC13280425|22=M|762=RFQF|54=1|38=500000000|453=2|448=002B35|447=C|452=37|448=DCV|447=C|452=10|10=049|
8=FIX.4.4|9=0259|35=AI|34=2|49=EXC|56=001|57=001B27|52=20190529-20:46:45.471|131=50145024|453=5|448=DCV|447=C|452=10|448=001B27|447=C|452=12|448=001|447=C|452=1|448=001FCM001|447=C|452=36|448=002B35|447=C|452=37|55=TFIC13280425|762=RFQF|48=20626|22=M|54=1|38=500000000|297=10|10=206|
8=FIX.4.4|9=110|35=A|34=1|49=001|50=001B27|52=20190529-20:48:24.931|56=EXC|43=Y|98=0|108=30|141=Y|553=001FCM001|554=001FCM001|10=087|
8=FIX.4.4|9=0067|35=A|34=1|49=EXC|56=001|52=20190529-20:48:21.306|98=0|108=30|141=Y|10=007|
8=FIX.4.4|9=110|35=A|34=1|49=001|50=001B27|52=20190529-20:49:27.026|56=EXC|43=Y|98=0|108=30|141=Y|553=001FCM001|554=001FCM001|10=086|
8=FIX.4.4|9=0067|35=A|34=1|49=EXC|56=001|52=20190529-20:49:23.505|98=0|108=30|141=Y|10=011|
8=FIX.4.4|9=177|35=R|34=2|49=001|50=001B27|52=20190529-20:49:33.438|56=EXC|131=51465151|146=1|55=TFIC13280425|22=M|762=RFQF|54=1|38=500000000|453=2|448=002B35|447=C|452=37|448=DCV|447=C|452=10|10=061|
8=FIX.4.4|9=0259|35=AI|34=2|49=EXC|56=001|57=001B27|52=20190529-20:49:29.777|131=51465151|453=5|448=DCV|447=C|452=10|448=001B27|447=C|452=12|448=001|447=C|452=1|448=001FCM001|447=C|452=36|448=002B35|447=C|452=37|55=TFIC13280425|762=RFQF|48=20626|22=M|54=1|38=500000000|297=10|10=227|
8=FIX.4.4|9=0049|35=0|34=3|49=EXC|56=001|52=20190529-20:49:59.000|10=181|
8=FIX.4.4|9=59|35=0|34=3|49=001|50=001B27|52=20190529-20:50:03.950|56=EXC|10=048|
8=FIX.4.4|9=110|35=A|34=1|49=001|50=001B27|52=20190529-20:57:09.393|56=EXC|43=Y|98=0|108=30|141=Y|553=001FCM001|554=001FCM001|10=092|
8=FIX.4.4|9=0067|35=A|34=1|49=EXC|56=001|52=20190529-20:57:05.863|98=0|108=30|141=Y|10=017|
8=FIX.4.4|9=177|35=R|34=2|49=001|50=001B27|52=20190529-20:57:14.834|56=EXC|131=54217049|146=1|55=TFIC13280425|22=M|762=RFQF|54=1|38=500000000|453=2|448=002B35|447=C|452=37|448=DCV|447=C|452=10|10=063|
8=FIX.4.4|9=0259|35=AI|34=2|49=EXC|56=001|57=001B27|52=20190529-20:57:11.166|131=54217049|453=5|448=DCV|447=C|452=10|448=001B27|447=C|452=12|448=001|447=C|452=1|448=001FCM001|447=C|452=36|448=002B35|447=C|452=37|55=TFIC13280425|762=RFQF|48=20626|22=M|54=1|38=500000000|297=10|10=213|
8=FIX.4.4|9=0049|35=0|34=3|49=EXC|56=001|52=20190529-20:57:41.000|10=171|
8=FIX.4.4|9=59|35=0|34=3|49=001|50=001B27|52=20190529-20:57:45.341|56=EXC|10=055|
8=FIX.4.4|9=110|35=A|34=1|49=001|50=001B27|52=20190529-20:58:29.252|56=EXC|43=Y|98=0|108=30|141=Y|553=001FCM001|554=001FCM001|10=089|
8=FIX.4.4|9=0067|35=A|34=1|49=EXC|56=001|52=20190529-20:58:25.772|98=0|108=30|141=Y|10=019|
8=FIX.4.4|9=177|35=R|34=2|49=001|50=001B27|52=20190529-20:58:34.727|56=EXC|131=73222160|146=1|55=TFIC13280425|22=M|762=RFQF|54=1|38=500000000|453=2|448=002B35|447=C|452=37|448=DCV|447=C|452=10|10=058|
8=FIX.4.4|9=0259|35=AI|34=2|49=EXC|56=001|57=001B27|52=20190529-20:58:31.059|131=73222160|453=5|448=DCV|447=C|452=10|448=001B27|447=C|452=12|448=001|447=C|452=1|448=001FCM001|447=C|452=36|448=002B35|447=C|452=37|55=TFIC13280425|762=RFQF|48=20626|22=M|54=1|38=500000000|297=10|10=208|
8=FIX.4.4|9=110|35=A|34=1|49=001|50=001B27|52=20190529-21:02:28.359|56=EXC|43=Y|98=0|108=30|141=Y|553=001FCM001|554=001FCM001|10=086|
8=FIX.4.4|9=0067|35=A|34=1|49=EXC|56=001|52=20190529-21:02:25.214|98=0|108=30|141=Y|10=000|
8=FIX.4.4|9=177|35=R|34=2|49=001|50=001B27|52=20190529-21:02:33.722|56=EXC|131=26269441|146=1|55=TFIC13280425|22=M|762=RFQF|54=1|38=500000000|453=2|448=002B35|447=C|452=37|448=DCV|447=C|452=10|10=053|
8=FIX.4.4|9=0259|35=AI|34=2|49=EXC|56=001|57=001B27|52=20190529-21:02:30.056|131=26269441|453=5|448=DCV|447=C|452=10|448=001B27|447=C|452=12|448=001|447=C|452=1|448=001FCM001|447=C|452=36|448=002B35|447=C|452=37|55=TFIC13280425|762=RFQF|48=20626|22=M|54=1|38=500000000|297=10|10=205|
8=FIX.4.4|9=110|35=A|34=1|49=001|50=001B27|52=20190529-21:04:14.086|56=EXC|43=Y|98=0|108=30|141=Y|553=001FCM001|554=001FCM001|10=080|
8=FIX.4.4|9=0067|35=A|34=1|49=EXC|56=001|52=20190529-21:04:10.876|98=0|108=30|141=Y|10=010|
8=FIX.4.4|9=177|35=R|34=2|49=001|50=001B27|52=20190529-21:04:19.441|56=EXC|131=65756442|146=1|55=TFIC13280425|22=M|762=RFQF|54=1|38=500000000|453=2|448=002B35|447=C|452=37|448=DCV|447=C|452=10|10=062|
8=FIX.4.4|9=0259|35=AI|34=2|49=EXC|56=001|57=001B27|52=20190529-21:04:15.771|131=65756442|453=5|448=DCV|447=C|452=10|448=001B27|447=C|452=12|448=001|447=C|452=1|448=001FCM001|447=C|452=36|448=002B35|447=C|452=37|55=TFIC13280425|762=RFQF|48=20626|22=M|54=1|38=500000000|297=10|10=219|
8=FIX.4.4|9=110|35=A|34=1|49=001|50=001B27|52=20190529-21:05:02.008|56=EXC|43=Y|98=0|108=30|141=Y|553=001FCM001|554=001FCM001|10=072|
8=FIX.4.4|9=0067|35=A|34=1|49=EXC|56=001|52=20190529-21:04:58.430|98=0|108=30|141=Y|10=008|
8=FIX.4.4|9=0049|35=0|34=2|49=EXC|56=001|52=20190529-21:05:28.000|10=169|
8=FIX.4.4|9=59|35=0|34=2|49=001|50=001B27|52=20190529-21:05:32.952|56=EXC|10=052|
8=FIX.4.4|9=110|35=A|34=1|49=001|50=001B27|52=20190529-21:06:20.142|56=EXC|43=Y|98=0|108=30|141=Y|553=001FCM001|554=001FCM001|10=072|
8=FIX.4.4|9=0067|35=A|34=1|49=EXC|56=001|52=20190529-21:06:16.670|98=0|108=30|141=Y|10=010|
8=FIX.4.4|9=177|35=R|34=2|49=001|50=001B27|52=20190529-21:06:31.855|56=EXC|131=36585671|146=1|55=TFIC13280425|22=M|762=RFQF|54=1|38=500000000|453=2|448=002B35|447=C|452=37|448=DCV|447=C|452=10|10=069|
8=FIX.4.4|9=0259|35=AI|34=2|49=EXC|56=001|57=001B27|52=20190529-21:06:28.185|131=36585671|453=5|448=DCV|447=C|452=10|448=001B27|447=C|452=12|448=001|447=C|452=1|448=001FCM001|447=C|452=36|448=002B35|447=C|452=37|55=TFIC13280425|762=RFQF|48=20626|22=M|54=1|38=500000000|297=10|10=226|
8=FIX.4.4|9=104|35=A|34=3|49=001|50=001B27|52=20190529-21:06:38.271|56=EXC|43=Y|98=0|108=30|553=001FCM001|554=001FCM001|10=044|
8=FIX.4.4|9=0061|35=A|34=3|49=EXC|56=001|52=20190529-21:06:34.623|98=0|108=30|10=215|
8=FIX.4.4|9=0049|35=0|34=4|49=EXC|56=001|52=20190529-21:07:04.000|10=167|
8=FIX.4.4|9=59|35=0|34=4|49=001|50=001B27|52=20190529-21:07:08.265|56=EXC|10=056|
8=FIX.4.4|9=0307|35=S|34=5|49=EXC|56=001|57=001B27|52=20190529-21:07:09.968|131=36585671|117=20190529-000000000050.00|55=TFIC13280425|762=RFQF|48=20626|22=M|453=5|448=DCV|447=C|452=10|448=001B27|447=C|452=12|448=001|447=C|452=1|448=001FCM001|447=C|452=36|448=002B35|447=C|452=37|634=4.000|135=500000000|62=20190530-22:00:00|10=005|
8=FIX.4.4|9=104|35=A|34=5|49=001|50=001B27|52=20190529-21:07:21.129|56=EXC|43=Y|98=0|108=30|553=001FCM001|554=001FCM001|10=041|
8=FIX.4.4|9=0061|35=A|34=6|49=EXC|56=001|52=20190529-21:07:17.479|98=0|108=30|10=229|
8=FIX.4.4|9=110|35=A|34=1|49=001|50=001B27|52=20190529-21:07:52.747|56=EXC|43=Y|98=0|108=30|141=Y|553=001FCM001|554=001FCM001|10=089|
8=FIX.4.4|9=0067|35=A|34=1|49=EXC|56=001|52=20190529-21:07:49.136|98=0|108=30|141=Y|10=014|
8=FIX.4.4|9=177|35=R|34=2|49=001|50=001B27|52=20190529-21:07:58.206|56=EXC|131=26245029|146=1|55=TFIC13280425|22=M|762=RFQF|54=1|38=500000000|453=2|448=002B35|447=C|452=37|448=DCV|447=C|452=10|10=058|
8=FIX.4.4|9=0259|35=AI|34=2|49=EXC|56=001|57=001B27|52=20190529-21:07:54.534|131=26245029|453=5|448=DCV|447=C|452=10|448=001B27|447=C|452=12|448=001|447=C|452=1|448=001FCM001|447=C|452=36|448=002B35|447=C|452=37|55=TFIC13280425|762=RFQF|48=20626|22=M|54=1|38=500000000|297=10|10=213|
8=FIX.4.4|9=104|35=A|34=3|49=001|50=001B27|52=20190529-21:08:04.679|56=EXC|43=Y|98=0|108=30|553=001FCM001|554=001FCM001|10=051|
8=FIX.4.4|9=0061|35=A|34=3|49=EXC|56=001|52=20190529-21:08:01.033|98=0|108=30|10=206|
8=FIX.4.4|9=0307|35=S|34=4|49=EXC|56=001|57=001B27|52=20190529-21:08:25.107|131=26245029|117=20190529-000000000051.00|55=TFIC13280425|762=RFQF|48=20626|22=M|453=5|448=DCV|447=C|452=10|448=001B27|447=C|452=12|448=001|447=C|452=1|448=001FCM001|447=C|452=36|448=002B35|447=C|452=37|634=4.000|135=500000000|62=20190530-22:00:00|10=234|
8=FIX.4.4|9=59|35=0|34=4|49=001|50=001B27|52=20190529-21:08:35.667|56=EXC|10=063|
8=FIX.4.4|9=110|35=A|34=1|49=001|50=001B27|52=20190529-21:12:52.247|56=EXC|43=Y|98=0|108=30|141=Y|553=001FCM001|554=001FCM001|10=080|
8=FIX.4.4|9=0067|35=A|34=1|49=EXC|56=001|52=20190529-21:12:48.615|98=0|108=30|141=Y|10=011|
8=FIX.4.4|9=177|35=R|34=2|49=001|50=001B27|52=20190529-21:12:57.769|56=EXC|131=11704190|146=1|55=TFIC13280425|22=M|762=RFQF|54=1|38=500000000|453=2|448=002B35|447=C|452=37|448=DCV|447=C|452=10|10=060|
8=FIX.4.4|9=0259|35=AI|34=2|49=EXC|56=001|57=001B27|52=20190529-21:12:54.098|131=11704190|453=5|448=DCV|447=C|452=10|448=001B27|447=C|452=12|448=001|447=C|452=1|448=001FCM001|447=C|452=36|448=002B35|447=C|452=37|55=TFIC13280425|762=RFQF|48=20626|22=M|54=1|38=500000000|297=10|10=207|
8=FIX.4.4|9=104|35=A|34=3|49=001|50=001B27|52=20190529-21:13:01.766|56=EXC|43=Y|98=0|108=30|553=001FCM001|554=001FCM001|10=041|
8=FIX.4.4|9=0061|35=A|34=3|49=EXC|56=001|52=20190529-21:12:58.172|98=0|108=30|10=217|
8=FIX.4.4|9=0307|35=S|34=4|49=EXC|56=001|57=001B27|52=20190529-21:13:08.244|131=11704190|117=20190529-000000000052.00|55=TFIC13280425|762=RFQF|48=20626|22=M|453=5|448=DCV|447=C|452=10|448=001B27|447=C|452=12|448=001|447=C|452=1|448=001FCM001|447=C|452=36|448=002B35|447=C|452=37|634=4.000|135=500000000|62=20190530-22:00:00|10=227|
8=FIX.4.4|9=59|35=0|34=4|49=001|50=001B27|52=20190529-21:13:32.754|56=EXC|10=053|
8=FIX.4.4|9=0049|35=0|34=5|49=EXC|56=001|52=20190529-21:13:38.000|10=172|
8=FIX.4.4|9=104|35=A|34=5|49=001|50=001B27|52=20190529-21:13:53.217|56=EXC|43=Y|98=0|108=30|553=001FCM001|554=001FCM001|10=041|
8=FIX.4.4|9=0061|35=A|34=6|49=EXC|56=001|52=20190529-21:13:49.665|98=0|108=30|10=228|
8=FIX.4.4|9=68|35=1|34=5|49=001|50=001B27|52=20190529-21:13:57.755|56=EXC|112=TEST|10=081|
8=FIX.4.4|9=104|35=A|34=6|49=001|50=001B27|52=20190529-21:14:02.783|56=EXC|43=Y|98=0|108=30|553=001FCM001|554=001FCM001|10=045|
8=FIX.4.4|9=0061|35=A|34=7|49=EXC|56=001|52=20190529-21:13:59.129|98=0|108=30|10=225|
8=FIX.4.4|9=110|35=A|34=1|49=001|50=001B27|52=20190529-21:22:38.817|56=EXC|43=Y|98=0|108=30|141=Y|553=001FCM001|554=001FCM001|10=088|
8=FIX.4.4|9=0067|35=A|34=1|49=EXC|56=001|52=20190529-21:22:35.213|98=0|108=30|141=Y|10=002|
8=FIX.4.4|9=177|35=R|34=2|49=001|50=001B27|52=20190529-21:22:44.179|56=EXC|131=35564299|146=1|55=TFIC13280425|22=M|762=RFQF|54=1|38=500000000|453=2|448=002B35|447=C|452=37|448=DCV|447=C|452=10|10=072|
8=FIX.4.4|9=0259|35=AI|34=2|49=EXC|56=001|57=001B27|52=20190529-21:22:40.505|131=35564299|453=5|448=DCV|447=C|452=10|448=001B27|447=C|452=12|448=001|447=C|452=1|448=001FCM001|447=C|452=36|448=002B35|447=C|452=37|55=TFIC13280425|762=RFQF|48=20626|22=M|54=1|38=500000000|297=10|10=216|
8=FIX.4.4|9=104|35=A|34=3|49=001|50=001B27|52=20190529-21:22:45.253|56=EXC|43=Y|98=0|108=30|553=001FCM001|554=001FCM001|10=040|
8=FIX.4.4|9=0061|35=A|34=3|49=EXC|56=001|52=20190529-21:22:41.600|98=0|108=30|10=206|
8=FIX.4.4|9=0307|35=S|34=4|49=EXC|56=001|57=001B27|52=20190529-21:22:48.171|131=35564299|117=20190529-000000000053.00|55=TFIC13280425|762=RFQF|48=20626|22=M|453=5|448=DCV|447=C|452=10|448=001B27|447=C|452=12|448=001|447=C|452=1|448=001FCM001|447=C|452=36|448=002B35|447=C|452=37|634=4.000|135=500000000|62=20190530-22:00:00|10=251|
8=FIX.4.4|9=110|35=A|34=1|49=001|50=001B27|52=20190529-21:23:16.456|56=EXC|43=Y|98=0|108=30|141=Y|553=001FCM001|554=001FCM001|10=084|
8=FIX.4.4|9=0067|35=A|34=1|49=EXC|56=001|52=20190529-21:23:12.951|98=0|108=30|141=Y|10=007|
8=FIX.4.4|9=177|35=R|34=2|49=001|50=001B27|52=20190529-21:23:21.773|56=EXC|131=14266222|146=1|55=TFIC13280425|22=M|762=RFQF|54=1|38=500000000|453=2|448=002B35|447=C|452=37|448=DCV|447=C|452=10|10=050|
8=FIX.4.4|9=0259|35=AI|34=2|49=EXC|56=001|57=001B27|52=20190529-21:23:18.099|131=14266222|453=5|448=DCV|447=C|452=10|448=001B27|447=C|452=12|448=001|447=C|452=1|448=001FCM001|447=C|452=36|448=002B35|447=C|452=37|55=TFIC13280425|762=RFQF|48=20626|22=M|54=1|38=500000000|297=10|10=212|
8=FIX.4.4|9=104|35=A|34=3|49=001|50=001B27|52=20190529-21:23:22.828|56=EXC|43=Y|98=0|108=30|553=001FCM001|554=001FCM001|10=044|
8=FIX.4.4|9=0061|35=A|34=3|49=EXC|56=001|52=20190529-21:23:19.255|98=0|108=30|10=218|
8=FIX.4.4|9=0307|35=S|34=4|49=EXC|56=001|57=001B27|52=20190529-21:23:26.221|131=14266222|117=20190529-000000000054.00|55=TFIC13280425|762=RFQF|48=20626|22=M|453=5|448=DCV|447=C|452=10|448=001B27|447=C|452=12|448=001|447=C|452=1|448=001FCM001|447=C|452=36|448=002B35|447=C|452=37|634=4.000|135=500000000|62=20190530-22:00:00|10=227|
8=FIX.4.4|9=110|35=A|34=1|49=001|50=001B27|52=20190529-21:24:48.183|56=EXC|43=Y|98=0|108=30|141=Y|553=001FCM001|554=001FCM001|10=087|
8=FIX.4.4|9=0067|35=A|34=1|49=EXC|56=001|52=20190529-21:24:44.545|98=0|108=30|141=Y|10=012|
8=FIX.4.4|9=177|35=R|34=2|49=001|50=001B27|52=20190529-21:24:53.604|56=EXC|131=34743664|146=1|55=TFIC13280425|22=M|762=RFQF|54=1|38=500000000|453=2|448=002B35|447=C|452=37|448=DCV|447=C|452=10|10=061|
8=FIX.4.4|9=0259|35=AI|34=2|49=EXC|56=001|57=001B27|52=20190529-21:24:49.929|131=34743664|453=5|448=DCV|447=C|452=10|448=001B27|447=C|452=12|448=001|447=C|452=1|448=001FCM001|447=C|452=36|448=002B35|447=C|452=37|55=TFIC13280425|762=RFQF|48=20626|22=M|54=1|38=500000000|297=10|10=231|
8=FIX.4.4|9=104|35=A|34=3|49=001|50=001B27|52=20190529-21:24:54.680|56=EXC|43=Y|98=0|108=30|553=001FCM001|554=001FCM001|10=046|
8=FIX.4.4|9=0061|35=A|34=3|49=EXC|56=001|52=20190529-21:24:51.029|98=0|108=30|10=214|
8=FIX.4.4|9=0307|35=S|34=4|49=EXC|56=001|57=001B27|52=20190529-21:24:57.266|131=34743664|117=20190529-000000000055.00|55=TFIC13280425|762=RFQF|48=20626|22=M|453=5|448=DCV|447=C|452=10|448=001B27|447=C|452=12|448=001|447=C|452=1|448=001FCM001|447=C|452=36|448=002B35|447=C|452=37|634=4.000|135=500000000|62=20190530-22:00:00|10=254|
8=FIX.4.4|9=110|35=A|34=1|49=001|50=001B27|52=20190529-21:25:38.252|56=EXC|43=Y|98=0|108=30|141=Y|553=001FCM001|554=001FCM001|10=084|
8=FIX.4.4|9=0067|35=A|34=1|49=EXC|56=001|52=20190529-21:25:34.639|98=0|108=30|141=Y|10=016|
8=FIX.4.4|9=176|35=R|34=2|49=001|50=001B27|52=20190529-21:25:43.890|56=EXC|131=3355200|146=1|55=TFIC13280425|22=M|762=RFQF|54=1|38=500000000|453=2|448=002B35|447=C|452=37|448=DCV|447=C|452=10|10=000|
8=FIX.4.4|9=0258|35=AI|34=2|49=EXC|56=001|57=001B27|52=20190529-21:25:40.216|131=3355200|453=5|448=DCV|447=C|452=10|448=001B27|447=C|452=12|448=001|447=C|452=1|448=001FCM001|447=C|452=36|448=002B35|447=C|452=37|55=TFIC13280425|762=RFQF|48=20626|22=M|54=1|38=500000000|297=10|10=144|
8=FIX.4.4|9=104|35=A|34=3|49=001|50=001B27|52=20190529-21:25:50.627|56=EXC|43=Y|98=0|108=30|553=001FCM001|554=001FCM001|10=044|
8=FIX.4.4|9=0061|35=A|34=3|49=EXC|56=001|52=20190529-21:25:46.982|98=0|108=30|10=227|
8=FIX.4.4|9=0306|35=S|34=4|49=EXC|56=001|57=001B27|52=20190529-21:25:56.088|131=3355200|117=20190529-000000000056.00|55=TFIC13280425|762=RFQF|48=20626|22=M|453=5|448=DCV|447=C|452=10|448=001B27|447=C|452=12|448=001|447=C|452=1|448=001FCM001|447=C|452=36|448=002B35|447=C|452=37|634=4.000|135=500000000|62=20190530-22:00:00|10=189|
8=FIX.4.4|9=59|35=0|34=4|49=001|50=001B27|52=20190529-21:26:21.596|56=EXC|10=059|
8=FIX.4.4|9=0049|35=0|34=5|49=EXC|56=001|52=20190529-21:26:26.000|10=173|
8=FIX.4.4|9=104|35=A|34=5|49=001|50=001B27|52=20190529-21:26:39.233|56=EXC|43=Y|98=0|108=30|553=001FCM001|554=001FCM001|10=047|
8=FIX.4.4|9=0061|35=A|34=6|49=EXC|56=001|52=20190529-21:26:35.578|98=0|108=30|10=230|
8=FIX.4.4|9=68|35=1|34=5|49=001|50=001B27|52=20190529-21:26:45.597|56=EXC|112=TEST|10=086|
8=FIX.4.4|9=104|35=A|34=6|49=001|50=001B27|52=20190529-21:26:51.622|56=EXC|43=Y|98=0|108=30|553=001FCM001|554=001FCM001|10=044|
8=FIX.4.4|9=0061|35=A|34=7|49=EXC|56=001|52=20190529-21:26:47.968|98=0|108=30|10=237|
8=FIX.4.4|9=110|35=A|34=1|49=001|50=001B27|52=20190529-21:36:45.215|56=EXC|43=Y|98=0|108=30|141=Y|553=001FCM001|554=001FCM001|10=083|
8=FIX.4.4|9=0067|35=A|34=1|49=EXC|56=001|52=20190529-21:36:41.591|98=0|108=30|141=Y|10=013|
8=FIX.4.4|9=177|35=R|34=2|49=001|50=001B27|52=20190529-21:36:51.045|56=EXC|131=22929458|146=1|55=TFIC13280425|22=M|762=RFQF|54=1|38=500000000|453=2|448=002B35|447=C|452=37|448=DCV|447=C|452=10|10=065|
8=FIX.4.4|9=0259|35=AI|34=2|49=EXC|56=001|57=001B27|52=20190529-21:36:47.365|131=22929458|453=5|448=DCV|447=C|452=10|448=001B27|447=C|452=12|448=001|447=C|452=1|448=001FCM001|447=C|452=36|448=002B35|447=C|452=37|55=TFIC13280425|762=RFQF|48=20626|22=M|54=1|38=500000000|297=10|10=230|
8=FIX.4.4|9=104|35=A|34=3|49=001|50=001B27|52=20190529-21:36:52.137|56=EXC|43=Y|98=0|108=30|553=001FCM001|554=001FCM001|10=044|
8=FIX.4.4|9=0061|35=A|34=3|49=EXC|56=001|52=20190529-21:36:48.583|98=0|108=30|10=228|
8=FIX.4.4|9=0307|35=S|34=4|49=EXC|56=001|57=001B27|52=20190529-21:36:55.946|131=22929458|117=20190529-000000000057.00|55=TFIC13280425|762=RFQF|48=20626|22=M|453=5|448=DCV|447=C|452=10|448=001B27|447=C|452=12|448=001|447=C|452=1|448=001FCM001|447=C|452=36|448=002B35|447=C|452=37|634=4.000|135=500000000|62=20190530-22:00:00|10=010|
8=FIX.4.4|9=68|35=2|34=4|49=001|50=001B27|52=20190529-21:36:59.651|56=EXC|7=3|16=0|10=190|
8=FIX.4.4|9=0065|35=4|34=3|43=Y|49=EXC|56=001|52=20190529-21:36:55.968|123=Y|36=4|10=205|
8=FIX.4.4|9=0338|35=S|34=4|43=Y|52=20190529-21:36:55.968|49=EXC|56=001|57=001B27|122=20190529-21:36:55.946|131=22929458|117=20190529-000000000057.00|55=TFIC13280425|762=RFQF|48=20626|22=M|453=5|448=DCV|447=C|452=10|448=001B27|447=C|452=12|448=001|447=C|452=1|448=001FCM001|447=C|452=36|448=002B35|447=C|452=37|634=4.000|135=500000000|62=20190530-22:00:00|10=039|
8=FIX.4.4|9=0054|35=4|34=5|49=EXC|56=001|52=20190529-21:36:55.968|36=6|10=164|
8=FIX.4.4|9=110|35=A|34=1|49=001|50=001B27|52=20190529-21:51:05.622|56=EXC|43=Y|98=0|108=30|141=Y|553=001FCM001|554=001FCM001|10=078|
8=FIX.4.4|9=0067|35=A|34=1|49=EXC|56=001|52=20190529-21:51:02.045|98=0|108=30|141=Y|10=001|
8=FIX.4.4|9=177|35=R|34=2|49=001|50=001B27|52=20190529-21:51:11.048|56=EXC|131=68573434|146=1|55=TFIC13280425|22=M|762=RFQF|54=1|38=500000000|453=2|448=002B35|447=C|452=37|448=DCV|447=C|452=10|10=060|
8=FIX.4.4|9=0259|35=AI|34=2|49=EXC|56=001|57=001B27|52=20190529-21:51:07.363|131=68573434|453=5|448=DCV|447=C|452=10|448=001B27|447=C|452=12|448=001|447=C|452=1|448=001FCM001|447=C|452=36|448=002B35|447=C|452=37|55=TFIC13280425|762=RFQF|48=20626|22=M|54=1|38=500000000|297=10|10=220|
8=FIX.4.4|9=110|35=A|34=1|49=001|50=001B27|52=20190529-21:52:24.131|56=EXC|43=Y|98=0|108=30|141=Y|553=001FCM001|554=001FCM001|10=075|
8=FIX.4.4|9=0067|35=A|34=1|49=EXC|56=001|52=20190529-21:52:20.594|98=0|108=30|141=Y|10=011|
8=FIX.4.4|9=177|35=R|34=2|49=001|50=001B27|52=20190529-21:52:29.813|56=EXC|131=68387228|146=1|55=TFIC13280425|22=M|762=RFQF|54=1|38=500000000|453=2|448=002B35|447=C|452=37|448=DCV|447=C|452=10|10=074|
8=FIX.4.4|9=0259|35=AI|34=2|49=EXC|56=001|57=001B27|52=20190529-21:52:26.130|131=68387228|453=5|448=DCV|447=C|452=10|448=001B27|447=C|452=12|448=001|447=C|452=1|448=001FCM001|447=C|452=36|448=002B35|447=C|452=37|55=TFIC13280425|762=RFQF|48=20626|22=M|54=1|38=500000000|297=10|10=218|
8=FIX.4.4|9=0049|35=0|34=3|49=EXC|56=001|52=20190529-21:52:56.000|10=173|
8=FIX.4.4|9=59|35=0|34=3|49=001|50=001B27|52=20190529-21:53:00.056|56=EXC|10=046|
8=FIX.4.4|9=110|35=A|34=1|49=001|50=001B27|52=20190529-21:54:45.936|56=EXC|43=Y|98=0|108=30|141=Y|553=001FCM001|554=001FCM001|10=093|
8=FIX.4.4|9=0067|35=A|34=1|49=EXC|56=001|52=20190529-21:54:42.305|98=0|108=30|141=Y|10=007|
8=FIX.4.4|9=177|35=R|34=2|49=001|50=001B27|52=20190529-21:54:51.469|56=EXC|131=32609671|146=1|55=TFIC13280425|22=M|762=RFQF|54=1|38=500000000|453=2|448=002B35|447=C|452=37|448=DCV|447=C|452=10|10=068|
8=FIX.4.4|9=0259|35=AI|34=2|49=EXC|56=001|57=001B27|52=20190529-21:54:47.783|131=32609671|453=5|448=DCV|447=C|452=10|448=001B27|447=C|452=12|448=001|447=C|452=1|448=001FCM001|447=C|452=36|448=002B35|447=C|452=37|55=TFIC13280425|762=RFQF|48=20626|22=M|54=1|38=500000000|297=10|10=227|
8=FIX.4.4|9=104|35=A|34=3|49=001|50=001B27|52=20190529-21:54:52.552|56=EXC|43=Y|98=0|108=30|553=001FCM001|554=001FCM001|10=045|
8=FIX.4.4|9=0061|35=A|34=3|49=EXC|56=001|52=20190529-21:54:48.986|98=0|108=30|10=235|
8=FIX.4.4|9=0307|35=S|34=4|49=EXC|56=001|57=001B27|52=20190529-21:54:56.732|131=32609671|117=20190529-000000000060.00|55=TFIC13280425|762=RFQF|48=20626|22=M|453=5|448=DCV|447=C|452=10|448=001B27|447=C|452=12|448=001|447=C|452=1|448=001FCM001|447=C|452=36|448=002B35|447=C|452=37|634=4.000|135=500000000|62=20190530-22:00:00|10=247|
8=FIX.4.4|9=104|35=A|34=4|49=001|50=001B27|52=20190529-21:55:01.534|56=EXC|43=Y|98=0|108=30|553=001FCM001|554=001FCM001|10=041|
8=FIX.4.4|9=0061|35=A|34=5|49=EXC|56=001|52=20190529-21:54:58.141|98=0|108=30|10=221|
8=FIX.4.4|9=177|35=R|34=5|49=001|50=001B27|52=20190529-21:55:07.968|56=EXC|131=48948704|146=1|55=TFIC13280425|22=M|762=RFQF|54=1|38=500000000|453=2|448=002B35|447=C|452=37|448=DCV|447=C|452=10|10=087|
8=FIX.4.4|9=0259|35=AI|34=6|49=EXC|56=001|57=001B27|52=20190529-21:55:04.347|131=48948704|453=5|448=DCV|447=C|452=10|448=001B27|447=C|452=12|448=001|447=C|452=1|448=001FCM001|447=C|452=36|448=002B35|447=C|452=37|55=TFIC13280425|762=RFQF|48=20626|22=M|54=1|38=500000000|297=10|10=231|
8=FIX.4.4|9=68|35=2|34=6|49=001|50=001B27|52=20190529-21:55:08.096|56=EXC|7=5|16=0|10=192|
8=FIX.4.4|9=0065|35=4|34=5|43=Y|49=EXC|56=001|52=20190529-21:55:04.461|123=Y|36=6|10=192|
8=FIX.4.4|9=0290|35=AI|34=6|43=Y|52=20190529-21:55:04.461|49=EXC|56=001|57=001B27|122=20190529-21:55:04.347|131=48948704|453=5|448=DCV|447=C|452=10|448=001B27|447=C|452=12|448=001|447=C|452=1|448=001FCM001|447=C|452=36|448=002B35|447=C|452=37|55=TFIC13280425|762=RFQF|48=20626|22=M|54=1|38=500000000|297=10|10=234|
8=FIX.4.4|9=0054|35=4|34=7|49=EXC|56=001|52=20190529-21:55:04.461|36=8|10=151|
8=FIX.4.4|9=104|35=A|34=7|49=001|50=001B27|52=20190529-21:55:09.155|56=EXC|43=Y|98=0|108=30|553=001FCM001|554=001FCM001|10=051|
8=FIX.4.4|9=0061|35=A|34=8|49=EXC|56=001|52=20190529-21:55:05.561|98=0|108=30|10=223|
8=FIX.4.4|9=110|35=A|34=1|49=001|50=001B27|52=20190529-21:58:54.826|56=EXC|43=Y|98=0|108=30|141=Y|553=001FCM001|554=001FCM001|10=095|
8=FIX.4.4|9=0067|35=A|34=1|49=EXC|56=001|52=20190529-21:58:51.326|98=0|108=30|141=Y|10=014|
8=FIX.4.4|9=177|35=R|34=2|49=001|50=001B27|52=20190529-21:59:00.413|56=EXC|131=79939560|146=1|55=TFIC13280425|22=M|762=RFQF|54=1|38=500000000|453=2|448=002B35|447=C|452=37|448=DCV|447=C|452=10|10=070|
8=FIX.4.4|9=0259|35=AI|34=2|49=EXC|56=001|57=001B27|52=20190529-21:58:56.727|131=79939560|453=5|448=DCV|447=C|452=10|448=001B27|447=C|452=12|448=001|447=C|452=1|448=001FCM001|447=C|452=36|448=002B35|447=C|452=37|55=TFIC13280425|762=RFQF|48=20626|22=M|54=1|38=500000000|297=10|10=243|
8=FIX.4.4|9=104|35=A|34=3|49=001|50=001B27|52=20190529-21:59:01.531|56=EXC|43=Y|98=0|108=30|553=001FCM001|554=001FCM001|10=041|
8=FIX.4.4|9=0061|35=A|34=3|49=EXC|56=001|52=20190529-21:58:57.913|98=0|108=30|10=229|
8=FIX.4.4|9=0307|35=S|34=4|49=EXC|56=001|57=001B27|52=20190529-21:59:04.694|131=79939560|117=20190529-000000000062.00|55=TFIC13280425|762=RFQF|48=20626|22=M|453=5|448=DCV|447=C|452=10|448=001B27|447=C|452=12|448=001|447=C|452=1|448=001FCM001|447=C|452=36|448=002B35|447=C|452=37|634=4.000|135=500000000|62=20190530-22:00:00|10=012|
8=FIX.4.4|9=104|35=A|34=4|49=001|50=001B27|52=20190529-21:59:09.573|56=EXC|43=Y|98=0|108=30|553=001FCM001|554=001FCM001|10=056|
8=FIX.4.4|9=0061|35=A|34=5|49=EXC|56=001|52=20190529-21:59:06.022|98=0|108=30|10=217|
8=FIX.4.4|9=110|35=A|34=1|49=001|50=001B27|52=20190529-22:04:01.485|56=EXC|43=Y|98=0|108=30|141=Y|553=001FCM001|554=001FCM001|10=080|
8=FIX.4.4|9=0067|35=A|34=1|49=EXC|56=001|52=20190529-22:03:57.916|98=0|108=30|141=Y|10=016|
8=FIX.4.4|9=177|35=R|34=2|49=001|50=001B27|52=20190529-22:04:07.006|56=EXC|131=17872452|146=1|55=TFIC13280425|22=M|762=RFQF|54=1|38=500000000|453=2|448=002B35|447=C|452=37|448=DCV|447=C|452=10|10=054|
8=FIX.4.4|9=0259|35=AI|34=2|49=EXC|56=001|57=001B27|52=20190529-22:04:03.316|131=17872452|453=5|448=DCV|447=C|452=10|448=001B27|447=C|452=12|448=001|447=C|452=1|448=001FCM001|447=C|452=36|448=002B35|447=C|452=37|55=TFIC13280425|762=RFQF|48=20626|22=M|54=1|38=500000000|297=10|10=209|
8=FIX.4.4|9=104|35=A|34=3|49=001|50=001B27|52=20190529-22:04:08.074|56=EXC|43=Y|98=0|108=30|553=001FCM001|554=001FCM001|10=041|
8=FIX.4.4|9=0061|35=A|34=3|49=EXC|56=001|52=20190529-22:04:04.427|98=0|108=30|10=213|
8=FIX.4.4|9=0307|35=S|34=4|49=EXC|56=001|57=001B27|52=20190529-22:04:10.983|131=17872452|117=20190529-000000000063.00|55=TFIC13280425|762=RFQF|48=20626|22=M|453=5|448=DCV|447=C|452=10|448=001B27|447=C|452=12|448=001|447=C|452=1|448=001FCM001|447=C|452=36|448=002B35|447=C|452=37|634=4.000|135=500000000|62=20190530-22:00:00|10=246|
8=FIX.4.4|9=104|35=A|34=4|49=001|50=001B27|52=20190529-22:04:15.756|56=EXC|43=Y|98=0|108=30|553=001FCM001|554=001FCM001|10=047|
8=FIX.4.4|9=0061|35=A|34=5|49=EXC|56=001|52=20190529-22:04:12.090|98=0|108=30|10=210|
8=FIX.4.4|9=110|35=A|34=1|49=001|50=001B27|52=20190529-22:05:02.794|56=EXC|43=Y|98=0|108=30|141=Y|553=001FCM001|554=001FCM001|10=085|
8=FIX.4.4|9=0067|35=A|34=1|49=EXC|56=001|52=20190529-22:04:59.216|98=0|108=30|141=Y|10=012|
8=FIX.4.4|9=177|35=R|34=2|49=001|50=001B27|52=20190529-22:05:08.312|56=EXC|131=26057710|146=1|55=TFIC13280425|22=M|762=RFQF|54=1|38=500000000|453=2|448=002B35|447=C|452=37|448=DCV|447=C|452=10|10=048|
8=FIX.4.4|9=0259|35=AI|34=2|49=EXC|56=001|57=001B27|52=20190529-22:05:04.622|131=26057710|453=5|448=DCV|447=C|452=10|448=001B27|447=C|452=12|448=001|447=C|452=1|448=001FCM001|447=C|452=36|448=002B35|447=C|452=37|55=TFIC13280425|762=RFQF|48=20626|22=M|54=1|38=500000000|297=10|10=203|
8=FIX.4.4|9=104|35=A|34=3|49=001|50=001B27|52=20190529-22:05:09.441|56=EXC|43=Y|98=0|108=30|553=001FCM001|554=001FCM001|10=041|
8=FIX.4.4|9=0061|35=A|34=3|49=EXC|56=001|52=20190529-22:05:05.830|98=0|108=30|10=213|
8=FIX.4.4|9=0307|35=S|34=4|49=EXC|56=001|57=001B27|52=20190529-22:05:13.245|131=26057710|117=20190529-000000000064.00|55=TFIC13280425|762=RFQF|48=20626|22=M|453=5|448=DCV|447=C|452=10|448=001B27|447=C|452=12|448=001|447=C|452=1|448=001FCM001|447=C|452=36|448=002B35|447=C|452=37|634=4.000|135=500000000|62=20190530-22:00:00|10=234|
8=FIX.4.4|9=104|35=A|34=4|49=001|50=001B27|52=20190529-22:05:18.038|56=EXC|43=Y|98=0|108=30|553=001FCM001|554=001FCM001|10=044|
8=FIX.4.4|9=0061|35=A|34=5|49=EXC|56=001|52=20190529-22:05:14.460|98=0|108=30|10=214|
8=FIX.4.4|9=110|35=A|34=1|49=001|50=001B27|52=20190529-22:06:20.336|56=EXC|43=Y|98=0|108=30|141=Y|553=001FCM001|554=001FCM001|10=078|
8=FIX.4.4|9=0067|35=A|34=1|49=EXC|56=001|52=20190529-22:06:16.699|98=0|108=30|141=Y|10=022|
8=FIX.4.4|9=177|35=R|34=2|49=001|50=001B27|52=20190529-22:06:25.786|56=EXC|131=22490284|146=1|55=TFIC13280425|22=M|762=RFQF|54=1|38=500000000|453=2|448=002B35|447=C|452=37|448=DCV|447=C|452=10|10=066|
8=FIX.4.4|9=0259|35=AI|34=2|49=EXC|56=001|57=001B27|52=20190529-22:06:22.099|131=22490284|453=5|448=DCV|447=C|452=10|448=001B27|447=C|452=12|448=001|447=C|452=1|448=001FCM001|447=C|452=36|448=002B35|447=C|452=37|55=TFIC13280425|762=RFQF|48=20626|22=M|54=1|38=500000000|297=10|10=215|
8=FIX.4.4|9=104|35=A|34=3|49=001|50=001B27|52=20190529-22:06:26.907|56=EXC|43=Y|98=0|108=30|553=001FCM001|554=001FCM001|10=048|
8=FIX.4.4|9=0061|35=A|34=3|49=EXC|56=001|52=20190529-22:06:23.285|98=0|108=30|10=218|
8=FIX.4.4|9=0307|35=S|34=4|49=EXC|56=001|57=001B27|52=20190529-22:06:44.739|131=22490284|117=20190529-000000000065.00|55=TFIC13280425|762=RFQF|48=20626|22=M|453=5|448=DCV|447=C|452=10|448=001B27|447=C|452=12|448=001|447=C|452=1|448=001FCM001|447=C|452=36|448=002B35|447=C|452=37|634=4.000|135=500000000|62=20190530-22:00:00|10=251|
8=FIX.4.4|9=104|35=A|34=4|49=001|50=001B27|52=20190529-22:06:49.579|56=EXC|43=Y|98=0|108=30|553=001FCM001|554=001FCM001|10=059|
8=FIX.4.4|9=0061|35=A|34=5|49=EXC|56=001|52=20190529-22:06:45.960|98=0|108=30|10=224|
8=FIX.4.4|9=110|35=A|34=1|49=001|50=001B27|52=20190529-22:08:50.587|56=EXC|43=Y|98=0|108=30|141=Y|553=001FCM001|554=001FCM001|10=091|
8=FIX.4.4|9=0067|35=A|34=1|49=EXC|56=001|52=20190529-22:08:47.008|98=0|108=30|141=Y|10=012|
8=FIX.4.4|9=177|35=R|34=2|49=001|50=001B27|52=20190529-22:08:56.187|56=EXC|131=64019749|146=1|55=TFIC13280425|22=M|762=RFQF|54=1|38=500000000|453=2|448=002B35|447=C|452=37|448=DCV|447=C|452=10|10=076|
8=FIX.4.4|9=0259|35=AI|34=2|49=EXC|56=001|57=001B27|52=20190529-22:08:52.496|131=64019749|453=5|448=DCV|447=C|452=10|448=001B27|447=C|452=12|448=001|447=C|452=1|448=001FCM001|447=C|452=36|448=002B35|447=C|452=37|55=TFIC13280425|762=RFQF|48=20626|22=M|54=1|38=500000000|297=10|10=230|
8=FIX.4.4|9=104|35=A|34=3|49=001|50=001B27|52=20190529-22:09:12.326|56=EXC|43=Y|98=0|108=30|553=001FCM001|554=001FCM001|10=041|
8=FIX.4.4|9=0061|35=A|34=3|49=EXC|56=001|52=20190529-22:09:08.712|98=0|108=30|10=219|
8=FIX.4.4|9=0307|35=S|34=4|49=EXC|56=001|57=001B27|52=20190529-22:09:15.481|131=64019749|117=20190529-000000000066.00|55=TFIC13280425|762=RFQF|48=20626|22=M|453=5|448=DCV|447=C|452=10|448=001B27|447=C|452=12|448=001|447=C|452=1|448=001FCM001|447=C|452=36|448=002B35|447=C|452=37|634=4.000|135=500000000|62=20190530-22:00:00|10=000|
8=FIX.4.4|9=104|35=A|34=4|49=001|50=001B27|52=20190529-22:09:20.324|56=EXC|43=Y|98=0|108=30|553=001FCM001|554=001FCM001|10=039|
8=FIX.4.4|9=0061|35=A|34=5|49=EXC|56=001|52=20190529-22:09:16.658|98=0|108=30|10=229|
8=FIX.4.4|9=110|35=A|34=1|49=001|50=001B27|52=20190529-22:12:27.761|56=EXC|43=Y|98=0|108=30|141=Y|553=001FCM001|554=001FCM001|10=084|
8=FIX.4.4|9=0067|35=A|34=1|49=EXC|56=001|52=20190529-22:12:24.233|98=0|108=30|141=Y|10=002|
8=FIX.4.4|9=177|35=R|34=2|49=001|50=001B27|52=20190529-22:12:33.167|56=EXC|131=24826533|146=1|55=TFIC13280425|22=M|762=RFQF|54=1|38=500000000|453=2|448=002B35|447=C|452=37|448=DCV|447=C|452=10|10=057|
8=FIX.4.4|9=0259|35=AI|34=2|49=EXC|56=001|57=001B27|52=20190529-22:12:29.474|131=24826533|453=5|448=DCV|447=C|452=10|448=001B27|447=C|452=12|448=001|447=C|452=1|448=001FCM001|447=C|452=36|448=002B35|447=C|452=37|55=TFIC13280425|762=RFQF|48=20626|22=M|54=1|38=500000000|297=10|10=218|
8=FIX.4.4|9=104|35=A|34=3|49=001|50=001B27|52=20190529-22:12:49.276|56=EXC|43=Y|98=0|108=30|553=001FCM001|554=001FCM001|10=049|
8=FIX.4.4|9=0061|35=A|34=3|49=EXC|56=001|52=20190529-22:12:45.615|98=0|108=30|10=216|
8=FIX.4.4|9=0307|35=S|34=4|49=EXC|56=001|57=001B27|52=20190529-22:12:51.757|131=24826533|117=20190529-000000000067.00|55=TFIC13280425|762=RFQF|48=20626|22=M|453=5|448=DCV|447=C|452=10|448=001B27|447=C|452=12|448=001|447=C|452=1|448=001FCM001|447=C|452=36|448=002B35|447=C|452=37|634=4.000|135=500000000|62=20190530-22:00:00|10=250|
8=FIX.4.4|9=104|35=A|34=4|49=001|50=001B27|52=20190529-22:12:56.581|56=EXC|43=Y|98=0|108=30|553=001FCM001|554=001FCM001|10=047|
8=FIX.4.4|9=0061|35=A|34=5|49=EXC|56=001|52=20190529-22:12:52.938|98=0|108=30|10=224|
8=FIX.4.4|9=110|35=A|34=1|49=001|50=001B27|52=20190529-22:16:26.526|56=EXC|43=Y|98=0|108=30|141=Y|553=001FCM001|554=001FCM001|10=086|
8=FIX.4.4|9=0067|35=A|34=1|49=EXC|56=001|52=20190529-22:16:22.946|98=0|108=30|141=Y|10=015|
8=FIX.4.4|9=177|35=R|34=2|49=001|50=001B27|52=20190529-22:16:32.317|56=EXC|131=29796379|146=1|55=TFIC13280425|22=M|762=RFQF|54=1|38=500000000|453=2|448=002B35|447=C|452=37|448=DCV|447=C|452=10|10=076|
8=FIX.4.4|9=0259|35=AI|34=2|49=EXC|56=001|57=001B27|52=20190529-22:16:28.622|131=29796379|453=5|448=DCV|447=C|452=10|448=001B27|447=C|452=12|448=001|447=C|452=1|448=001FCM001|447=C|452=36|448=002B35|447=C|452=37|55=TFIC13280425|762=RFQF|48=20626|22=M|54=1|38=500000000|297=10|10=235|
8=FIX.4.4|9=104|35=A|34=3|49=001|50=001B27|52=20190529-22:16:48.488|56=EXC|43=Y|98=0|108=30|553=001FCM001|554=001FCM001|10=057|
8=FIX.4.4|9=0061|35=A|34=3|49=EXC|56=001|52=20190529-22:16:44.835|98=0|108=30|10=223|
8=FIX.4.4|9=0307|35=S|34=4|49=EXC|56=001|57=001B27|52=20190529-22:16:51.779|131=29796379|117=20190529-000000000068.00|55=TFIC13280425|762=RFQF|48=20626|22=M|453=5|448=DCV|447=C|452=10|448=001B27|447=C|452=12|448=001|447=C|452=1|448=001FCM001|447=C|452=36|448=002B35|447=C|452=37|634=4.000|135=500000000|62=20190530-22:00:00|10=022|
8=FIX.4.4|9=104|35=A|34=4|49=001|50=001B27|52=20190529-22:16:56.586|56=EXC|43=Y|98=0|108=30|553=001FCM001|554=001FCM001|10=056|
8=FIX.4.4|9=0061|35=A|34=5|49=EXC|56=001|52=20190529-22:16:52.969|98=0|108=30|10=232|
8=FIX.4.4|9=0049|35=0|34=6|49=EXC|56=001|52=20190529-22:17:22.000|10=171|
8=FIX.4.4|9=68|35=2|34=5|49=001|50=001B27|52=20190529-22:17:25.768|56=EXC|7=5|16=0|10=195|
8=FIX.4.4|9=0065|35=4|34=5|43=Y|49=EXC|56=001|52=20190529-22:17:22.107|123=Y|36=7|10=189|
8=FIX.4.4|9=0054|35=4|34=7|49=EXC|56=001|52=20190529-22:17:22.107|36=8|10=147|
8=FIX.4.4|9=104|35=A|34=6|49=001|50=001B27|52=20190529-22:17:27.503|56=EXC|43=Y|98=0|108=30|553=001FCM001|554=001FCM001|10=046|
8=FIX.4.4|9=0061|35=A|34=8|49=EXC|56=001|52=20190529-22:17:23.827|98=0|108=30|10=227|
8=FIX.4.4|9=110|35=A|34=1|49=001|50=001B27|52=20190529-22:18:14.794|56=EXC|43=Y|98=0|108=30|141=Y|553=001FCM001|554=001FCM001|10=092|
8=FIX.4.4|9=0067|35=A|34=1|49=EXC|56=001|52=20190529-22:18:11.214|98=0|108=30|141=Y|10=003|
8=FIX.4.4|9=177|35=R|34=2|49=001|50=001B27|52=20190529-22:18:20.460|56=EXC|131=75517729|146=1|55=TFIC13280425|22=M|762=RFQF|54=1|38=500000000|453=2|448=002B35|447=C|452=37|448=DCV|447=C|452=10|10=065|
8=FIX.4.4|9=0259|35=AI|34=2|49=EXC|56=001|57=001B27|52=20190529-22:18:16.823|131=75517729|453=5|448=DCV|447=C|452=10|448=001B27|447=C|452=12|448=001|447=C|452=1|448=001FCM001|447=C|452=36|448=002B35|447=C|452=37|55=TFIC13280425|762=RFQF|48=20626|22=M|54=1|38=500000000|297=10|10=228|
8=FIX.4.4|9=104|35=A|34=3|49=001|50=001B27|52=20190529-22:18:36.637|56=EXC|43=Y|98=0|108=30|553=001FCM001|554=001FCM001|10=052|
8=FIX.4.4|9=0061|35=A|34=3|49=EXC|56=001|52=20190529-22:18:32.965|98=0|108=30|10=226|
8=FIX.4.4|9=0307|35=S|34=4|49=EXC|56=001|57=001B27|52=20190529-22:18:39.410|131=75517729|117=20190529-000000000069.00|55=TFIC13280425|762=RFQF|48=20626|22=M|453=5|448=DCV|447=C|452=10|448=001B27|447=C|452=12|448=001|447=C|452=1|448=001FCM001|447=C|452=36|448=002B35|447=C|452=37|634=4.000|135=500000000|62=20190530-22:00:00|10=004|
8=FIX.4.4|9=104|35=A|34=4|49=001|50=001B27|52=20190529-22:18:44.222|56=EXC|43=Y|98=0|108=30|553=001FCM001|554=001FCM001|10=042|
8=FIX.4.4|9=0061|35=A|34=5|49=EXC|56=001|52=20190529-22:18:40.608|98=0|108=30|10=221|
8=FIX.4.4|9=110|35=A|34=1|49=001|50=001B27|52=20190529-22:24:11.557|56=EXC|43=Y|98=0|108=30|141=Y|553=001FCM001|554=001FCM001|10=083|
8=FIX.4.4|9=0067|35=A|34=1|49=EXC|56=001|52=20190529-22:24:07.997|98=0|108=30|141=Y|10=023|
8=FIX.4.4|9=177|35=R|34=2|49=001|50=001B27|52=20190529-22:24:17.079|56=EXC|131=31895290|146=1|55=TFIC13280425|22=M|762=RFQF|54=1|38=500000000|453=2|448=002B35|447=C|452=37|448=DCV|447=C|452=10|10=068|
8=FIX.4.4|9=0259|35=AI|34=2|49=EXC|56=001|57=001B27|52=20190529-22:24:13.382|131=31895290|453=5|448=DCV|447=C|452=10|448=001B27|447=C|452=12|448=001|447=C|452=1|448=001FCM001|447=C|452=36|448=002B35|447=C|452=37|55=TFIC13280425|762=RFQF|48=20626|22=M|54=1|38=500000000|297=10|10=216|
8=FIX.4.4|9=104|35=A|34=3|49=001|50=001B27|52=20190529-22:24:33.202|56=EXC|43=Y|98=0|108=30|553=001FCM001|554=001FCM001|10=034|
8=FIX.4.4|9=0061|35=A|34=3|49=EXC|56=001|52=20190529-22:24:29.531|98=0|108=30|10=218|
8=FIX.4.4|9=110|35=A|34=1|49=001|50=001B27|52=20190529-22:25:11.633|56=EXC|43=Y|98=0|108=30|141=Y|553=001FCM001|554=001FCM001|10=079|
8=FIX.4.4|9=0067|35=A|34=1|49=EXC|56=001|52=20190529-22:25:08.026|98=0|108=30|141=Y|10=008|
>>>>>>> c6c656196ec2c91aaad3bb7dcad54df1faff29f8
<<<<<<< HEAD
<<<<<<< HEAD
8=FIX.4.4|9=110|35=A|34=1|49=001|50=001B27|52=20190607-14:13:04.800|56=EXC|43=Y|98=0|108=30|141=Y|553=001FCM001|554=001FCM001|10=072|
8=FIX.4.4|9=0067|35=A|34=1|49=EXC|56=001|52=20190607-14:13:04.901|98=0|108=30|141=Y|10=001|
8=FIX.4.4|9=154|35=R|34=2|49=001|50=001B27|52=20190607-14:13:07.255|56=EXC|131=77708547|146=1|55=TFIT15260826|22=M|762=RFQF|54=1|38=1500000000|453=1|448=DCV|447=C|452=10|10=007|
8=FIX.4.4|9=0236|35=AI|34=2|49=EXC|56=001|57=001B27|52=20190607-14:13:07.262|131=77708547|453=4|448=DCV|447=C|452=10|448=001B27|447=C|452=12|448=001|447=C|452=1|448=001FCM001|447=C|452=36|55=TFIT15260826|762=RFQF|48=20348|22=M|54=1|38=1500000000|297=10|10=161|
8=FIX.4.4|9=0192|35=R|34=3|49=EXC|56=001|52=20190607-14:13:07.262|131=20190607-000000000012.00|146=1|55=TFIT15260826|762=RFQF|48=20348|22=M|54=1|38=1500000000|453=2|448=001B27|447=C|452=12|448=001|447=C|452=1|10=233|
8=FIX.4.4|9=68|35=2|34=3|49=001|50=001B27|52=20190607-14:13:07.372|56=EXC|7=2|16=0|10=175|
8=FIX.4.4|9=0267|35=AI|34=2|43=Y|52=20190607-14:13:07.375|49=EXC|56=001|57=001B27|122=20190607-14:13:07.262|131=77708547|453=4|448=DCV|447=C|452=10|448=001B27|447=C|452=12|448=001|447=C|452=1|448=001FCM001|447=C|452=36|55=TFIT15260826|762=RFQF|48=20348|22=M|54=1|38=1500000000|297=10|10=173|
