8=FIX.4.4|9=105|35=A|34=1|49=007|50=007B26|52=20190613-22:13:47.948|56=EXC|98=0|108=30|141=Y|553=007FCE001|554=007FCE001|10=101|
8=FIX.4.4|9=0067|35=A|34=1|49=EXC|56=007|52=20190613-22:13:47.083|98=0|108=30|141=Y|10=011|
8=FIX.4.4|9=105|35=A|34=1|49=007|50=007B26|52=20190613-22:17:15.565|56=EXC|98=0|108=30|141=Y|553=007FCE001|554=007FCE001|10=095|
8=FIX.4.4|9=0067|35=A|34=1|49=EXC|56=007|52=20190613-22:17:14.698|98=0|108=30|141=Y|10=021|
8=FIX.4.4|9=105|35=A|34=1|49=007|50=007B26|52=20190613-22:20:15.709|56=EXC|98=0|108=30|141=Y|553=007FCE001|554=007FCE001|10=089|
8=FIX.4.4|9=0067|35=A|34=1|49=EXC|56=007|52=20190613-22:20:14.839|98=0|108=30|141=Y|10=012|
8=FIX.4.4|9=0049|35=0|34=2|49=EXC|56=007|52=20190613-22:20:44.000|10=165|
8=FIX.4.4|9=59|35=0|34=2|49=007|50=007B26|52=20190613-22:20:46.637|56=EXC|10=060|
8=FIX.4.4|9=0049|35=0|34=3|49=EXC|56=007|52=20190613-22:21:14.000|10=164|
8=FIX.4.4|9=59|35=0|34=3|49=007|50=007B26|52=20190613-22:21:16.637|56=EXC|10=059|
8=FIX.4.4|9=105|35=A|34=1|49=007|50=007B26|52=20190613-22:26:15.124|56=EXC|98=0|108=30|141=Y|553=007FCE001|554=007FCE001|10=086|
8=FIX.4.4|9=0067|35=A|34=1|49=EXC|56=007|52=20190613-22:26:13.909|98=0|108=30|141=Y|10=015|
8=FIX.4.4|9=105|35=A|34=1|49=007|50=007B26|52=20190613-22:28:49.341|56=EXC|98=0|108=30|141=Y|553=007FCE001|554=007FCE001|10=096|
8=FIX.4.4|9=0067|35=A|34=1|49=EXC|56=007|52=20190613-22:28:48.119|98=0|108=30|141=Y|10=018|
