8=FIX.4.4|9=105|35=A|34=1|49=010|50=010BWN|52=20190612-16:29:19.954|56=EXC|98=0|108=30|141=Y|553=010FCE003|554=010FCE003|10=147|
8=FIX.4.4|9=0067|35=A|34=1|49=EXC|56=010|52=20190612-16:29:19.984|98=0|108=30|141=Y|10=023|
8=FIX.4.4|9=0049|35=0|34=2|49=EXC|56=010|52=20190612-16:29:49.000|10=175|
8=FIX.4.4|9=59|35=0|34=2|49=010|50=010BWN|52=20190612-16:29:50.860|56=EXC|10=113|
8=FIX.4.4|9=0049|35=0|34=3|49=EXC|56=010|52=20190612-16:30:19.000|10=165|
8=FIX.4.4|9=59|35=0|34=3|49=010|50=010BWN|52=20190612-16:30:20.872|56=EXC|10=106|
8=FIX.4.4|9=105|35=A|34=1|49=010|50=010BWN|52=20190612-16:44:40.000|56=EXC|98=0|108=30|141=Y|553=010FCE003|554=010FCE003|10=120|
8=FIX.4.4|9=0067|35=A|34=1|49=EXC|56=010|52=20190612-16:44:40.059|98=0|108=30|141=Y|10=007|
8=FIX.4.4|9=0049|35=0|34=2|49=EXC|56=010|52=20190612-16:45:10.000|10=161|
8=FIX.4.4|9=59|35=0|34=2|49=010|50=010BWN|52=20190612-16:45:10.028|56=EXC|10=103|
8=FIX.4.4|9=105|35=A|34=1|49=010|50=010BWN|52=20190612-16:55:03.372|56=EXC|98=0|108=30|141=Y|553=010FCE003|554=010FCE003|10=133|
8=FIX.4.4|9=0067|35=A|34=1|49=EXC|56=010|52=20190612-16:55:03.402|98=0|108=30|141=Y|10=000|
8=FIX.4.4|9=105|35=A|34=1|49=010|50=010BWN|52=20190612-16:56:24.195|56=EXC|98=0|108=30|141=Y|553=010FCE003|554=010FCE003|10=140|
8=FIX.4.4|9=0067|35=A|34=1|49=EXC|56=010|52=20190612-16:56:24.222|98=0|108=30|141=Y|10=004|
8=FIX.4.4|9=0049|35=0|34=2|49=EXC|56=010|52=20190612-16:56:54.000|10=171|
8=FIX.4.4|9=59|35=0|34=2|49=010|50=010BWN|52=20190612-16:56:55.106|56=EXC|10=111|
8=FIX.4.4|9=0049|35=0|34=3|49=EXC|56=010|52=20190612-16:57:24.000|10=170|
8=FIX.4.4|9=59|35=0|34=3|49=010|50=010BWN|52=20190612-16:57:25.109|56=EXC|10=113|
