8=FIX.4.4|9=105|35=A|34=1|49=010|50=010BWN|52=20190626-15:03:04.588|56=EXC|98=0|108=30|141=Y|553=010FCE003|554=010FCE003|10=140|
8=FIX.4.4|9=0067|35=A|34=1|49=EXC|56=010|52=20190628-15:03:04.638|98=0|108=30|141=Y|10=011|
8=FIX.4.4|9=0049|35=0|34=2|49=EXC|56=010|52=20190628-15:03:34.000|10=167|
8=FIX.4.4|9=59|35=0|34=2|49=010|50=010BWN|52=20190626-15:03:35.547|56=EXC|10=114|
8=FIX.4.4|9=0049|35=0|34=3|49=EXC|56=010|52=20190628-15:04:04.000|10=166|
8=FIX.4.4|9=59|35=0|34=3|49=010|50=010BWN|52=20190626-15:04:05.548|56=EXC|10=114|
8=FIX.4.4|9=0049|35=0|34=4|49=EXC|56=010|52=20190628-15:04:34.000|10=170|
8=FIX.4.4|9=59|35=0|34=4|49=010|50=010BWN|52=20190626-15:04:35.546|56=EXC|10=116|
8=FIX.4.4|9=0049|35=0|34=5|49=EXC|56=010|52=20190628-15:05:04.000|10=169|
8=FIX.4.4|9=59|35=0|34=5|49=010|50=010BWN|52=20190626-15:05:05.546|56=EXC|10=115|
8=FIX.4.4|9=0049|35=0|34=6|49=EXC|56=010|52=20190628-15:05:34.000|10=173|
8=FIX.4.4|9=59|35=0|34=6|49=010|50=010BWN|52=20190626-15:05:35.545|56=EXC|10=118|
8=FIX.4.4|9=0049|35=0|34=7|49=EXC|56=010|52=20190628-15:06:04.000|10=172|
8=FIX.4.4|9=59|35=0|34=7|49=010|50=010BWN|52=20190626-15:06:05.546|56=EXC|10=118|
8=FIX.4.4|9=0226|35=R|34=8|49=EXC|56=010|57=010BWN|52=20190628-15:06:20.025|131=20190628-000000000013.01|146=1|55=TFIT06110919|762=RFQF|48=20320|22=M|54=2|38=1000000000|453=3|448=001B27|447=C|452=12|448=001|447=C|452=1|448=010BWN|447=C|452=37|10=186|
8=FIX.4.4|9=59|35=0|34=8|49=010|50=010BWN|52=20190626-15:06:35.545|56=EXC|10=121|
8=FIX.4.4|9=0049|35=0|34=9|49=EXC|56=010|52=20190628-15:06:50.000|10=175|
8=FIX.4.4|9=0218|35=R|34=10|49=EXC|56=010|57=010BWN|52=20190628-15:06:59.722|131=20190628-000000000013.01|146=1|55=TFIT06110919|762=RFQF|48=20320|22=M|54=2|38=0|453=3|448=001B27|447=C|452=12|448=001|447=C|452=1|448=010BWN|447=C|452=37|10=067|
8=FIX.4.4|9=59|35=0|34=9|49=010|50=010BWN|52=20190626-15:07:05.545|56=EXC|10=120|
8=FIX.4.4|9=0193|35=R|34=11|49=EXC|56=010|52=20190628-15:07:28.006|131=20190628-000000000014.00|146=1|55=TFIT15260826|762=RFQF|48=20348|22=M|54=1|38=1500000000|453=2|448=007B26|447=C|452=12|448=007|447=C|452=1|10=047|
8=FIX.4.4|9=60|35=0|34=10|49=010|50=010BWN|52=20190626-15:07:35.544|56=EXC|10=154|
8=FIX.4.4|9=0184|35=R|34=12|49=EXC|56=010|52=20190628-15:07:57.394|131=20190628-000000000014.00|146=1|55=TFIT15260826|762=RFQF|48=20348|22=M|54=1|38=0|453=2|448=007B26|447=C|452=12|448=007|447=C|452=1|10=134|
8=FIX.4.4|9=60|35=0|34=11|49=010|50=010BWN|52=20190626-15:08:05.544|56=EXC|10=153|
8=FIX.4.4|9=0050|35=0|34=13|49=EXC|56=010|52=20190628-15:08:27.000|10=216|
8=FIX.4.4|9=60|35=0|34=12|49=010|50=010BWN|52=20190626-15:08:35.544|56=EXC|10=157|
8=FIX.4.4|9=0050|35=0|34=14|49=EXC|56=010|52=20190628-15:08:57.000|10=220|
8=FIX.4.4|9=0192|35=R|34=15|49=EXC|56=010|52=20190628-15:09:03.418|131=20190628-000000000015.00|146=1|55=TFIC14280426|762=RFQF|48=20602|22=M|54=1|38=500000000|453=2|448=001B27|447=C|452=12|448=001|447=C|452=1|10=222|
8=FIX.4.4|9=60|35=0|34=13|49=010|50=010BWN|52=20190626-15:09:05.544|56=EXC|10=156|
8=FIX.4.4|9=0226|35=R|34=16|49=EXC|56=010|57=010BWN|52=20190628-15:09:32.580|131=20190628-000000000016.01|146=1|55=TFIT16180930|762=RFQF|48=20355|22=M|54=1|38=500000000|453=3|448=001B27|447=C|452=12|448=001|447=C|452=1|448=010BWN|447=C|452=37|10=212|
8=FIX.4.4|9=60|35=0|34=14|49=010|50=010BWN|52=20190626-15:09:35.544|56=EXC|10=160|
8=FIX.4.4|9=0050|35=0|34=17|49=EXC|56=010|52=20190628-15:10:02.000|10=206|
8=FIX.4.4|9=60|35=0|34=15|49=010|50=010BWN|52=20190626-15:10:05.543|56=EXC|10=149|
8=FIX.4.4|9=0226|35=R|34=18|49=EXC|56=010|57=010BWN|52=20190628-15:10:07.157|131=20190628-000000000017.01|146=1|55=TFIT16240724|762=RFQF|48=20392|22=M|54=2|38=500000000|453=3|448=007B26|447=C|452=12|448=007|447=C|452=1|448=010BWN|447=C|452=37|10=220|
8=FIX.4.4|9=60|35=0|34=16|49=010|50=010BWN|52=20190626-15:10:35.542|56=EXC|10=152|
8=FIX.4.4|9=0050|35=0|34=19|49=EXC|56=010|52=20190628-15:10:37.000|10=216|
8=FIX.4.4|9=0227|35=R|34=20|49=EXC|56=010|57=010BWN|52=20190628-15:10:46.644|131=20190628-000000000018.00|146=1|55=TFIC14280426|762=RFQF|48=20602|22=M|54=2|38=1000000000|453=3|448=007B26|447=C|452=12|448=007|447=C|452=1|448=010BWN|447=C|452=37|10=240|
8=FIX.4.4|9=60|35=0|34=17|49=010|50=010BWN|52=20190626-15:11:05.543|56=EXC|10=152|
8=FIX.4.4|9=222|35=S|34=18|49=010|50=010BWN|52=20190626-15:11:07.248|56=EXC|55=TFIC14280426|62=20190830-22:00:00.000|117=2019062610030111_S|131=20190628-000000000018.00|134=1000000000|135=0|632=4|634=0|762=RFQF|453=1|448=DCV|447=C|452=10|10=056|
8=FIX.4.4|9=0305|35=AI|34=21|49=EXC|56=010|57=010BWN|52=20190628-15:11:07.265|131=20190628-000000000018.00|117=2019062610030111_S|453=4|448=DCV|447=C|452=10|448=007B26|447=C|452=12|448=007|447=C|452=1|448=010BWN|447=C|452=37|55=TFIC14280426|762=RFQF|48=20602|22=M|54=2|632=4.000|134=1000000000|62=20190830-22:00:00|297=16|10=026|
8=FIX.4.4|9=0290|35=AI|34=22|49=EXC|56=010|57=010BWN|52=20190628-15:11:26.251|131=20190628-000000000018.00|117=2019062610030111_S|298=5|453=4|448=DCV|447=C|452=10|448=007B26|447=C|452=12|448=007|447=C|452=1|448=010BWN|447=C|452=37|55=TFIC14280426|762=RFQF|48=20602|22=M|54=2|632=4.000|134=1000000000|297=17|10=047|
8=FIX.4.4|9=60|35=0|34=19|49=010|50=010BWN|52=20190626-15:11:37.543|56=EXC|10=159|
8=FIX.4.4|9=189|35=R|34=20|49=010|50=010BWN|52=20190626-15:11:45.024|56=EXC|131=2019062610030112_R|146=1|55=TFIC13280425|22=M|762=RFQF|54=2|38=1000000000|453=2|448=DCV|447=C|452=10|448=007B26|447=C|452=37|10=006|
8=FIX.4.4|9=0198|35=AG|34=23|49=EXC|56=010|57=010BWN|52=20190628-15:11:45.041|131=2019062610030112_R|658=6|146=1|55=TFIC13280425|762=RFQF|22=M|58=(1585): Usuario no tiene acceso a una cotizacion sobre este secboard|10=000|
8=FIX.4.4|9=0050|35=0|34=24|49=EXC|56=010|52=20190628-15:12:15.000|10=210|
8=FIX.4.4|9=60|35=0|34=21|49=010|50=010BWN|52=20190626-15:12:15.543|56=EXC|10=149|
8=FIX.4.4|9=188|35=R|34=22|49=010|50=010BWN|52=20190626-15:12:16.905|56=EXC|131=2019062610030114_R|146=1|55=TFIC13280425|22=M|762=RFQF|54=1|38=500000000|453=2|448=007B26|447=C|452=37|448=DCV|447=C|452=10|10=227|
8=FIX.4.4|9=0198|35=AG|34=25|49=EXC|56=010|57=010BWN|52=20190628-15:12:16.923|131=2019062610030114_R|658=6|146=1|55=TFIC13280425|762=RFQF|22=M|58=(1585): Usuario no tiene acceso a una cotizacion sobre este secboard|10=012|
8=FIX.4.4|9=0050|35=0|34=26|49=EXC|56=010|52=20190628-15:12:46.000|10=216|
8=FIX.4.4|9=60|35=0|34=23|49=010|50=010BWN|52=20190626-15:12:47.543|56=EXC|10=156|
8=FIX.4.4|9=60|35=5|34=24|49=010|50=010BWN|52=20190626-15:12:49.544|56=EXC|10=165|
8=FIX.4.4|9=0050|35=5|34=27|49=EXC|56=010|52=20190628-15:12:49.561|10=237|
8=FIX.4.4|9=105|35=A|34=1|49=010|50=010BWN|52=20190627-13:38:25.844|56=EXC|98=0|108=30|141=Y|553=010FCE003|554=010FCE003|10=145|
8=FIX.4.4|9=0067|35=A|34=1|49=EXC|56=010|52=20190627-13:38:25.875|98=0|108=30|141=Y|10=022|
8=FIX.4.4|9=0049|35=0|34=2|49=EXC|56=010|52=20190627-13:38:55.000|10=175|
8=FIX.4.4|9=59|35=0|34=2|49=010|50=010BWN|52=20190627-13:38:56.803|56=EXC|10=119|
8=FIX.4.4|9=0049|35=0|34=3|49=EXC|56=010|52=20190627-13:39:25.000|10=174|
8=FIX.4.4|9=59|35=0|34=3|49=010|50=010BWN|52=20190627-13:39:26.797|56=EXC|10=130|
8=FIX.4.4|9=0049|35=0|34=4|49=EXC|56=010|52=20190627-13:39:55.000|10=178|
8=FIX.4.4|9=59|35=0|34=4|49=010|50=010BWN|52=20190627-13:39:56.797|56=EXC|10=134|
8=FIX.4.4|9=0049|35=0|34=5|49=EXC|56=010|52=20190627-13:40:25.000|10=168|
8=FIX.4.4|9=59|35=0|34=5|49=010|50=010BWN|52=20190627-13:40:26.799|56=EXC|10=126|
8=FIX.4.4|9=0049|35=0|34=6|49=EXC|56=010|52=20190627-13:40:55.000|10=172|
8=FIX.4.4|9=59|35=0|34=6|49=010|50=010BWN|52=20190627-13:40:56.799|56=EXC|10=130|
8=FIX.4.4|9=0049|35=0|34=7|49=EXC|56=010|52=20190627-13:41:25.000|10=171|
8=FIX.4.4|9=59|35=0|34=7|49=010|50=010BWN|52=20190627-13:41:26.799|56=EXC|10=129|
8=FIX.4.4|9=0049|35=0|34=8|49=EXC|56=010|52=20190627-13:41:55.000|10=175|
8=FIX.4.4|9=0226|35=R|34=9|49=EXC|56=010|57=010BWN|52=20190627-13:41:56.519|131=20190627-000000000015.01|146=1|55=TFIT06110919|762=RFQF|48=20320|22=M|54=2|38=1000000000|453=3|448=001B27|447=C|452=12|448=001|447=C|452=1|448=010BWN|447=C|452=37|10=201|
8=FIX.4.4|9=59|35=0|34=8|49=010|50=010BWN|52=20190627-13:41:56.811|56=EXC|10=118|
8=FIX.4.4|9=0050|35=0|34=10|49=EXC|56=010|52=20190627-13:42:26.000|10=207|
8=FIX.4.4|9=59|35=0|34=9|49=010|50=010BWN|52=20190627-13:42:27.793|56=EXC|10=127|
8=FIX.4.4|9=0218|35=R|34=11|49=EXC|56=010|57=010BWN|52=20190627-13:42:39.198|131=20190627-000000000015.01|146=1|55=TFIT06110919|762=RFQF|48=20320|22=M|54=2|38=0|453=3|448=001B27|447=C|452=12|448=001|447=C|452=1|448=010BWN|447=C|452=37|10=071|
8=FIX.4.4|9=60|35=0|34=10|49=010|50=010BWN|52=20190627-13:42:57.793|56=EXC|10=162|
8=FIX.4.4|9=0193|35=R|34=12|49=EXC|56=010|52=20190627-13:43:06.078|131=20190627-000000000016.00|146=1|55=TFIT15260826|762=RFQF|48=20348|22=M|54=1|38=1500000000|453=2|448=007B26|447=C|452=12|448=007|447=C|452=1|10=051|
8=FIX.4.4|9=60|35=0|34=11|49=010|50=010BWN|52=20190627-13:43:27.792|56=EXC|10=160|
8=FIX.4.4|9=0050|35=0|34=13|49=EXC|56=010|52=20190627-13:43:36.000|10=212|
8=FIX.4.4|9=0184|35=R|34=14|49=EXC|56=010|52=20190627-13:43:37.547|131=20190627-000000000016.00|146=1|55=TFIT15260826|762=RFQF|48=20348|22=M|54=1|38=0|453=2|448=007B26|447=C|452=12|448=007|447=C|452=1|10=132|
8=FIX.4.4|9=60|35=0|34=12|49=010|50=010BWN|52=20190627-13:43:57.790|56=EXC|10=162|
8=FIX.4.4|9=0050|35=0|34=15|49=EXC|56=010|52=20190627-13:44:07.000|10=213|
8=FIX.4.4|9=60|35=0|34=13|49=010|50=010BWN|52=20190627-13:44:27.790|56=EXC|10=161|
8=FIX.4.4|9=0050|35=0|34=16|49=EXC|56=010|52=20190627-13:44:37.000|10=217|
8=FIX.4.4|9=60|35=5|34=14|49=010|50=010BWN|52=20190627-13:44:50.786|56=EXC|10=168|
8=FIX.4.4|9=0050|35=5|34=17|49=EXC|56=010|52=20190627-13:44:50.788|10=241|
8=FIX.4.4|9=110|35=A|34=1|49=010|50=010BWN|52=20190627-15:02:34.089|56=EXC|43=Y|98=0|108=30|141=Y|553=010FCE003|554=010FCE003|10=133|
8=FIX.4.4|9=0067|35=A|34=1|49=EXC|56=010|52=20190627-15:02:34.123|98=0|108=30|141=Y|10=001|
8=FIX.4.4|9=0049|35=0|34=2|49=EXC|56=010|52=20190627-15:03:04.000|10=163|
8=FIX.4.4|9=59|35=0|34=2|49=010|50=010BWN|52=20190627-15:03:05.022|56=EXC|10=100|
8=FIX.4.4|9=0049|35=0|34=3|49=EXC|56=010|52=20190627-15:03:34.000|10=167|
8=FIX.4.4|9=59|35=0|34=3|49=010|50=010BWN|52=20190627-15:03:35.022|56=EXC|10=104|
8=FIX.4.4|9=0049|35=0|34=4|49=EXC|56=010|52=20190627-15:04:04.000|10=166|
8=FIX.4.4|9=59|35=0|34=4|49=010|50=010BWN|52=20190627-15:04:05.022|56=EXC|10=103|
8=FIX.4.4|9=0049|35=0|34=5|49=EXC|56=010|52=20190627-15:04:34.000|10=170|
8=FIX.4.4|9=59|35=0|34=5|49=010|50=010BWN|52=20190627-15:04:35.022|56=EXC|10=107|
8=FIX.4.4|9=0049|35=0|34=6|49=EXC|56=010|52=20190627-15:05:04.000|10=169|
8=FIX.4.4|9=59|35=0|34=6|49=010|50=010BWN|52=20190627-15:05:05.022|56=EXC|10=106|
8=FIX.4.4|9=0049|35=0|34=7|49=EXC|56=010|52=20190627-15:05:34.000|10=173|
8=FIX.4.4|9=59|35=0|34=7|49=010|50=010BWN|52=20190627-15:05:35.021|56=EXC|10=109|
8=FIX.4.4|9=0049|35=0|34=8|49=EXC|56=010|52=20190627-15:06:04.000|10=172|
8=FIX.4.4|9=0226|35=R|34=9|49=EXC|56=010|57=010BWN|52=20190627-15:06:04.211|131=20190627-000000000036.01|146=1|55=TFIT06110919|762=RFQF|48=20320|22=M|54=2|38=1000000000|453=3|448=001B27|447=C|452=12|448=001|447=C|452=1|448=010BWN|447=C|452=37|10=189|
8=FIX.4.4|9=59|35=0|34=8|49=010|50=010BWN|52=20190627-15:06:05.022|56=EXC|10=109|
8=FIX.4.4|9=0050|35=0|34=10|49=EXC|56=010|52=20190627-15:06:34.000|10=208|
8=FIX.4.4|9=59|35=0|34=9|49=010|50=010BWN|52=20190627-15:06:35.021|56=EXC|10=112|
8=FIX.4.4|9=0218|35=R|34=11|49=EXC|56=010|57=010BWN|52=20190627-15:06:51.704|131=20190627-000000000036.01|146=1|55=TFIT06110919|762=RFQF|48=20320|22=M|54=2|38=0|453=3|448=001B27|447=C|452=12|448=001|447=C|452=1|448=010BWN|447=C|452=37|10=063|
8=FIX.4.4|9=60|35=0|34=10|49=010|50=010BWN|52=20190627-15:07:05.021|56=EXC|10=142|
8=FIX.4.4|9=0193|35=R|34=12|49=EXC|56=010|52=20190627-15:07:18.660|131=20190627-000000000037.00|146=1|55=TFIT15260826|762=RFQF|48=20348|22=M|54=1|38=1500000000|453=2|448=007B26|447=C|452=12|448=007|447=C|452=1|10=056|
8=FIX.4.4|9=60|35=0|34=11|49=010|50=010BWN|52=20190627-15:07:35.021|56=EXC|10=146|
8=FIX.4.4|9=0050|35=0|34=13|49=EXC|56=010|52=20190627-15:07:48.000|10=217|
8=FIX.4.4|9=0184|35=R|34=14|49=EXC|56=010|52=20190627-15:07:49.938|131=20190627-000000000037.00|146=1|55=TFIT15260826|762=RFQF|48=20348|22=M|54=1|38=0|453=2|448=007B26|447=C|452=12|448=007|447=C|452=1|10=144|
8=FIX.4.4|9=60|35=0|34=12|49=010|50=010BWN|52=20190627-15:08:05.022|56=EXC|10=146|
8=FIX.4.4|9=0050|35=0|34=15|49=EXC|56=010|52=20190627-15:08:19.000|10=218|
8=FIX.4.4|9=60|35=0|34=13|49=010|50=010BWN|52=20190627-15:08:35.021|56=EXC|10=149|
8=FIX.4.4|9=0050|35=0|34=16|49=EXC|56=010|52=20190627-15:08:49.000|10=222|
8=FIX.4.4|9=60|35=5|34=14|49=010|50=010BWN|52=20190627-15:09:03.021|56=EXC|10=151|
8=FIX.4.4|9=0050|35=5|34=17|49=EXC|56=010|52=20190627-15:09:03.022|10=223|
8=FIX.4.4|9=110|35=A|34=1|49=010|50=010BWN|52=20190628-13:19:10.708|56=EXC|43=Y|98=0|108=30|141=Y|553=010FCE003|554=010FCE003|10=132|
8=FIX.4.4|9=0067|35=A|34=1|49=EXC|56=010|52=20190628-13:19:10.750|98=0|108=30|141=Y|10=008|
8=FIX.4.4|9=0049|35=0|34=2|49=EXC|56=010|52=20190628-13:19:40.000|10=169|
8=FIX.4.4|9=59|35=0|34=2|49=010|50=010BWN|52=20190628-13:19:41.524|56=EXC|10=113|
8=FIX.4.4|9=0049|35=0|34=3|49=EXC|56=010|52=20190628-13:20:10.000|10=159|
8=FIX.4.4|9=59|35=0|34=3|49=010|50=010BWN|52=20190628-13:20:11.524|56=EXC|10=103|
8=FIX.4.4|9=110|35=A|34=1|49=010|50=010BWN|52=20190628-13:21:40.046|56=EXC|43=Y|98=0|108=30|141=Y|553=010FCE003|554=010FCE003|10=123|
8=FIX.4.4|9=0067|35=A|34=1|49=EXC|56=010|52=20190628-13:21:40.085|98=0|108=30|141=Y|10=005|
8=FIX.4.4|9=110|35=A|34=1|49=010|50=010BWN|52=20190628-14:44:48.745|56=EXC|43=Y|98=0|108=30|141=Y|553=010FCE003|554=010FCE003|10=143|
8=FIX.4.4|9=0067|35=A|34=1|49=EXC|56=010|52=20190628-14:44:48.789|98=0|108=30|141=Y|10=030|
8=FIX.4.4|9=110|35=A|34=1|49=010|50=010BWN|52=20190702-20:15:37.485|56=EXC|43=Y|98=0|108=30|141=Y|553=010FCE003|554=010FCE003|10=130|
8=FIX.4.4|9=0067|35=A|34=1|49=EXC|56=010|52=20190702-20:15:37.552|98=0|108=30|141=Y|10=004|
8=FIX.4.4|9=0049|35=0|34=2|49=EXC|56=010|52=20190702-20:16:07.000|10=160|
8=FIX.4.4|9=59|35=0|34=2|49=010|50=010BWN|52=20190702-20:16:07.476|56=EXC|10=109|
8=FIX.4.4|9=110|35=A|34=1|49=010|50=010BWN|52=20190702-20:17:31.697|56=EXC|43=Y|98=0|108=30|141=Y|553=010FCE003|554=010FCE003|10=131|
8=FIX.4.4|9=0067|35=A|34=1|49=EXC|56=010|52=20190702-20:17:31.762|98=0|108=30|141=Y|10=003|
8=FIX.4.4|9=0049|35=0|34=2|49=EXC|56=010|52=20190702-20:18:01.000|10=156|
8=FIX.4.4|9=59|35=0|34=2|49=010|50=010BWN|52=20190702-20:18:02.665|56=EXC|10=106|
8=FIX.4.4|9=0049|35=0|34=3|49=EXC|56=010|52=20190702-20:18:31.000|10=160|
8=FIX.4.4|9=59|35=0|34=3|49=010|50=010BWN|52=20190702-20:18:32.667|56=EXC|10=112|
8=FIX.4.4|9=110|35=A|34=1|49=010|50=010BWN|52=20190702-20:19:11.335|56=EXC|43=Y|98=0|108=30|141=Y|553=010FCE003|554=010FCE003|10=120|
8=FIX.4.4|9=0067|35=A|34=1|49=EXC|56=010|52=20190702-20:19:11.397|98=0|108=30|141=Y|10=007|
8=FIX.4.4|9=0049|35=0|34=2|49=EXC|56=010|52=20190702-20:19:41.000|10=161|
8=FIX.4.4|9=59|35=0|34=2|49=010|50=010BWN|52=20190702-20:19:42.269|56=EXC|10=111|
8=FIX.4.4|9=0049|35=0|34=3|49=EXC|56=010|52=20190702-20:20:11.000|10=151|
8=FIX.4.4|9=59|35=0|34=3|49=010|50=010BWN|52=20190702-20:20:12.270|56=EXC|10=093|
8=FIX.4.4|9=0049|35=0|34=4|49=EXC|56=010|52=20190702-20:20:41.000|10=155|
8=FIX.4.4|9=59|35=0|34=4|49=010|50=010BWN|52=20190702-20:20:42.269|56=EXC|10=105|
8=FIX.4.4|9=0049|35=0|34=5|49=EXC|56=010|52=20190702-20:21:11.000|10=154|
8=FIX.4.4|9=59|35=0|34=5|49=010|50=010BWN|52=20190702-20:21:12.270|56=EXC|10=096|
8=FIX.4.4|9=110|35=A|34=1|49=010|50=010BWN|52=20190702-21:03:45.119|56=EXC|43=Y|98=0|108=30|141=Y|553=010FCE003|554=010FCE003|10=121|
8=FIX.4.4|9=0067|35=A|34=1|49=EXC|56=010|52=20190702-21:03:45.188|98=0|108=30|141=Y|10=006|
8=FIX.4.4|9=0049|35=0|34=2|49=EXC|56=010|52=20190702-21:04:15.000|10=157|
8=FIX.4.4|9=59|35=0|34=2|49=010|50=010BWN|52=20190702-21:04:16.102|56=EXC|10=093|
8=FIX.4.4|9=110|35=A|34=1|49=010|50=010BWN|52=20190702-21:41:28.449|56=EXC|43=Y|98=0|108=30|141=Y|553=010FCE003|554=010FCE003|10=130|
8=FIX.4.4|9=0067|35=A|34=1|49=EXC|56=010|52=20190702-21:41:28.503|98=0|108=30|141=Y|10=000|
8=FIX.4.4|9=0049|35=0|34=2|49=EXC|56=010|52=20190702-21:41:58.000|10=165|
8=FIX.4.4|9=59|35=0|34=2|49=010|50=010BWN|52=20190702-21:41:59.430|56=EXC|10=105|
8=FIX.4.4|9=110|35=A|34=1|49=010|50=010BWN|52=20190702-21:43:18.281|56=EXC|43=Y|98=0|108=30|141=Y|553=010FCE003|554=010FCE003|10=125|
8=FIX.4.4|9=0067|35=A|34=1|49=EXC|56=010|52=20190702-21:43:18.344|98=0|108=30|141=Y|10=004|
8=FIX.4.4|9=0049|35=0|34=2|49=EXC|56=010|52=20190702-21:43:48.000|10=166|
8=FIX.4.4|9=59|35=0|34=2|49=010|50=010BWN|52=20190702-21:43:49.215|56=EXC|10=107|
8=FIX.4.4|9=0049|35=0|34=3|49=EXC|56=010|52=20190702-21:44:18.000|10=165|
8=FIX.4.4|9=59|35=0|34=3|49=010|50=010BWN|52=20190702-21:44:19.213|56=EXC|10=104|
8=FIX.4.4|9=110|35=A|34=1|49=010|50=010BWN|52=20190702-21:44:57.305|56=EXC|43=Y|98=0|108=30|141=Y|553=010FCE003|554=010FCE003|10=126|
8=FIX.4.4|9=0067|35=A|34=1|49=EXC|56=010|52=20190702-21:44:57.365|98=0|108=30|141=Y|10=011|
8=FIX.4.4|9=0049|35=0|34=2|49=EXC|56=010|52=20190702-21:45:27.000|10=165|
8=FIX.4.4|9=59|35=0|34=2|49=010|50=010BWN|52=20190702-21:45:28.296|56=EXC|10=115|
8=FIX.4.4|9=0049|35=0|34=3|49=EXC|56=010|52=20190702-21:45:57.000|10=169|
8=FIX.4.4|9=59|35=0|34=3|49=010|50=010BWN|52=20190702-21:45:58.296|56=EXC|10=119|
8=FIX.4.4|9=110|35=A|34=1|49=010|50=010BWN|52=20190703-12:50:07.024|56=EXC|43=Y|98=0|108=30|141=Y|553=010FCE003|554=010FCE003|10=117|
8=FIX.4.4|9=0067|35=A|34=1|49=EXC|56=010|52=20190703-12:50:08.127|98=0|108=30|141=Y|10=001|
8=FIX.4.4|9=0049|35=0|34=2|49=EXC|56=010|52=20190703-12:50:38.000|10=164|
8=FIX.4.4|9=59|35=0|34=2|49=010|50=010BWN|52=20190703-12:50:38.022|56=EXC|10=100|
8=FIX.4.4|9=110|35=A|34=1|49=010|50=010BWN|52=20190703-14:38:49.908|56=EXC|43=Y|98=0|108=30|141=Y|553=010FCE003|554=010FCE003|10=142|
8=FIX.4.4|9=0067|35=A|34=1|49=EXC|56=010|52=20190703-14:39:17.726|98=0|108=30|141=Y|10=015|
8=FIX.4.4|9=0049|35=0|34=2|49=EXC|56=010|52=20190703-14:39:47.000|10=173|
8=FIX.4.4|9=59|35=0|34=2|49=010|50=010BWN|52=20190703-14:39:20.804|56=EXC|10=108|
8=FIX.4.4|9=0049|35=0|34=3|49=EXC|56=010|52=20190703-14:40:17.000|10=163|
8=FIX.4.4|9=59|35=0|34=3|49=010|50=010BWN|52=20190703-14:39:50.797|56=EXC|10=123|
8=FIX.4.4|9=110|35=A|34=1|49=010|50=010BWN|52=20190703-14:40:44.556|56=EXC|43=Y|98=0|108=30|141=Y|553=010FCE003|554=010FCE003|10=129|
8=FIX.4.4|9=0067|35=A|34=1|49=EXC|56=010|52=20190703-14:41:12.386|98=0|108=30|141=Y|10=005|
8=FIX.4.4|9=0049|35=0|34=2|49=EXC|56=010|52=20190703-14:41:42.000|10=161|
8=FIX.4.4|9=59|35=0|34=2|49=010|50=010BWN|52=20190703-14:41:15.481|56=EXC|10=106|
8=FIX.4.4|9=0049|35=0|34=3|49=EXC|56=010|52=20190703-14:42:12.000|10=160|
8=FIX.4.4|9=59|35=0|34=3|49=010|50=010BWN|52=20190703-14:41:45.491|56=EXC|10=111|
8=FIX.4.4|9=59|35=5|34=4|49=010|50=010BWN|52=20190703-14:42:04.495|56=EXC|10=117|
8=FIX.4.4|9=0049|35=5|34=4|49=EXC|56=010|52=20190703-14:42:32.307|10=178|
8=FIX.4.4|9=110|35=A|34=1|49=010|50=010BWN|52=20190703-19:00:57.720|56=EXC|43=Y|98=0|108=30|141=Y|553=010FCE003|554=010FCE003|10=127|
8=FIX.4.4|9=0067|35=A|34=1|49=EXC|56=010|52=20190703-19:01:25.781|98=0|108=30|141=Y|10=009|
8=FIX.4.4|9=110|35=A|34=1|49=010|50=010BWN|52=20190703-19:17:55.306|56=EXC|43=Y|98=0|108=30|141=Y|553=010FCE003|554=010FCE003|10=133|
8=FIX.4.4|9=0067|35=A|34=1|49=EXC|56=010|52=20190703-19:18:23.367|98=0|108=30|141=Y|10=015|
8=FIX.4.4|9=0049|35=0|34=2|49=EXC|56=010|52=20190703-19:18:53.000|10=172|
8=FIX.4.4|9=59|35=0|34=2|49=010|50=010BWN|52=20190703-19:18:25.947|56=EXC|10=123|
8=FIX.4.4|9=110|35=A|34=1|49=010|50=010BWN|52=20190703-19:49:02.668|56=EXC|43=Y|98=0|108=30|141=Y|553=010FCE003|554=010FCE003|10=141|
8=FIX.4.4|9=0067|35=A|34=1|49=EXC|56=010|52=20190703-19:49:30.747|98=0|108=30|141=Y|10=019|
8=FIX.4.4|9=0049|35=0|34=2|49=EXC|56=010|52=20190703-19:50:00.000|10=160|
8=FIX.4.4|9=59|35=0|34=2|49=010|50=010BWN|52=20190703-19:49:33.539|56=EXC|10=123|
8=FIX.4.4|9=0049|35=0|34=3|49=EXC|56=010|52=20190703-19:50:30.000|10=164|
8=FIX.4.4|9=59|35=0|34=3|49=010|50=010BWN|52=20190703-19:50:03.539|56=EXC|10=113|
8=FIX.4.4|9=59|35=5|34=4|49=010|50=010BWN|52=20190703-19:50:22.544|56=EXC|10=116|
8=FIX.4.4|9=0049|35=5|34=4|49=EXC|56=010|52=20190703-19:50:50.603|10=181|
