8=FIX.4.4|9=105|35=A|34=1|49=002|50=002B35|52=20190613-22:13:47.910|56=EXC|98=0|108=30|141=Y|553=002FCM001|554=002FCM001|10=086|
8=FIX.4.4|9=0067|35=A|34=1|49=EXC|56=002|52=20190613-22:13:47.045|98=0|108=30|141=Y|10=004|
8=FIX.4.4|9=105|35=A|34=1|49=002|50=002B35|52=20190613-22:17:15.528|56=EXC|98=0|108=30|141=Y|553=002FCM001|554=002FCM001|10=090|
8=FIX.4.4|9=0067|35=A|34=1|49=EXC|56=002|52=20190613-22:17:14.661|98=0|108=30|141=Y|10=006|
8=FIX.4.4|9=105|35=A|34=1|49=002|50=002B35|52=20190613-22:20:15.675|56=EXC|98=0|108=30|141=Y|553=002FCM001|554=002FCM001|10=087|
8=FIX.4.4|9=0067|35=A|34=1|49=EXC|56=002|52=20190613-22:20:14.805|98=0|108=30|141=Y|10=000|
8=FIX.4.4|9=0049|35=0|34=2|49=EXC|56=002|52=20190613-22:20:44.000|10=160|
8=FIX.4.4|9=59|35=0|34=2|49=002|50=002B35|52=20190613-22:20:46.624|56=EXC|10=046|
8=FIX.4.4|9=0049|35=0|34=3|49=EXC|56=002|52=20190613-22:21:14.000|10=159|
8=FIX.4.4|9=59|35=0|34=3|49=002|50=002B35|52=20190613-22:21:16.624|56=EXC|10=045|
8=FIX.4.4|9=105|35=A|34=1|49=002|50=002B35|52=20190613-22:26:15.080|56=EXC|98=0|108=30|141=Y|553=002FCM001|554=002FCM001|10=083|
8=FIX.4.4|9=0067|35=A|34=1|49=EXC|56=002|52=20190613-22:26:13.868|98=0|108=30|141=Y|10=014|
8=FIX.4.4|9=105|35=A|34=1|49=002|50=002B35|52=20190613-22:28:49.294|56=EXC|98=0|108=30|141=Y|553=002FCM001|554=002FCM001|10=099|
8=FIX.4.4|9=0067|35=A|34=1|49=EXC|56=002|52=20190613-22:28:48.085|98=0|108=30|141=Y|10=015|
