8=FIX.4.4|9=105|35=A|34=1|49=013|50=013B17|52=20190626-15:03:04.640|56=EXC|98=0|108=30|141=Y|553=013FCM001|554=013FCM001|10=092|
8=FIX.4.4|9=0067|35=A|34=1|49=EXC|56=013|52=20190628-15:03:04.690|98=0|108=30|141=Y|10=012|
8=FIX.4.4|9=0049|35=0|34=2|49=EXC|56=013|52=20190628-15:03:34.000|10=170|
8=FIX.4.4|9=59|35=0|34=2|49=013|50=013B17|52=20190626-15:03:35.575|56=EXC|10=060|
8=FIX.4.4|9=0049|35=0|34=3|49=EXC|56=013|52=20190628-15:04:04.000|10=169|
8=FIX.4.4|9=59|35=0|34=3|49=013|50=013B17|52=20190626-15:04:05.576|56=EXC|10=060|
8=FIX.4.4|9=0049|35=0|34=4|49=EXC|56=013|52=20190628-15:04:34.000|10=173|
8=FIX.4.4|9=59|35=0|34=4|49=013|50=013B17|52=20190626-15:04:35.574|56=EXC|10=062|
8=FIX.4.4|9=0049|35=0|34=5|49=EXC|56=013|52=20190628-15:05:04.000|10=172|
8=FIX.4.4|9=59|35=0|34=5|49=013|50=013B17|52=20190626-15:05:05.574|56=EXC|10=061|
8=FIX.4.4|9=0049|35=0|34=6|49=EXC|56=013|52=20190628-15:05:34.000|10=176|
8=FIX.4.4|9=59|35=0|34=6|49=013|50=013B17|52=20190626-15:05:35.574|56=EXC|10=065|
8=FIX.4.4|9=0049|35=0|34=7|49=EXC|56=013|52=20190628-15:06:04.000|10=175|
8=FIX.4.4|9=59|35=0|34=7|49=013|50=013B17|52=20190626-15:06:05.572|56=EXC|10=062|
8=FIX.4.4|9=0049|35=0|34=8|49=EXC|56=013|52=20190628-15:06:34.000|10=179|
8=FIX.4.4|9=59|35=0|34=8|49=013|50=013B17|52=20190626-15:06:35.573|56=EXC|10=067|
8=FIX.4.4|9=0049|35=0|34=9|49=EXC|56=013|52=20190628-15:07:04.000|10=178|
8=FIX.4.4|9=59|35=0|34=9|49=013|50=013B17|52=20190626-15:07:05.572|56=EXC|10=065|
8=FIX.4.4|9=0193|35=R|34=10|49=EXC|56=013|52=20190628-15:07:28.006|131=20190628-000000000014.00|146=1|55=TFIT15260826|762=RFQF|48=20348|22=M|54=1|38=1500000000|453=2|448=007B26|447=C|452=12|448=007|447=C|452=1|10=049|
8=FIX.4.4|9=60|35=0|34=10|49=013|50=013B17|52=20190626-15:07:35.572|56=EXC|10=100|
8=FIX.4.4|9=0184|35=R|34=11|49=EXC|56=013|52=20190628-15:07:57.394|131=20190628-000000000014.00|146=1|55=TFIT15260826|762=RFQF|48=20348|22=M|54=1|38=0|453=2|448=007B26|447=C|452=12|448=007|447=C|452=1|10=136|
8=FIX.4.4|9=60|35=0|34=11|49=013|50=013B17|52=20190626-15:08:05.572|56=EXC|10=099|
8=FIX.4.4|9=0050|35=0|34=12|49=EXC|56=013|52=20190628-15:08:27.000|10=218|
8=FIX.4.4|9=60|35=0|34=12|49=013|50=013B17|52=20190626-15:08:35.572|56=EXC|10=103|
8=FIX.4.4|9=0050|35=0|34=13|49=EXC|56=013|52=20190628-15:08:57.000|10=222|
8=FIX.4.4|9=0192|35=R|34=14|49=EXC|56=013|52=20190628-15:09:03.418|131=20190628-000000000015.00|146=1|55=TFIC14280426|762=RFQF|48=20602|22=M|54=1|38=500000000|453=2|448=001B27|447=C|452=12|448=001|447=C|452=1|10=224|
8=FIX.4.4|9=60|35=0|34=13|49=013|50=013B17|52=20190626-15:09:05.571|56=EXC|10=101|
8=FIX.4.4|9=0050|35=0|34=15|49=EXC|56=013|52=20190628-15:09:33.000|10=219|
8=FIX.4.4|9=60|35=0|34=14|49=013|50=013B17|52=20190626-15:09:35.571|56=EXC|10=105|
8=FIX.4.4|9=0050|35=0|34=16|49=EXC|56=013|52=20190628-15:10:03.000|10=209|
8=FIX.4.4|9=60|35=0|34=15|49=013|50=013B17|52=20190626-15:10:05.571|56=EXC|10=095|
8=FIX.4.4|9=0050|35=0|34=17|49=EXC|56=013|52=20190628-15:10:33.000|10=213|
8=FIX.4.4|9=60|35=0|34=16|49=013|50=013B17|52=20190626-15:10:35.571|56=EXC|10=099|
8=FIX.4.4|9=0050|35=0|34=18|49=EXC|56=013|52=20190628-15:11:03.000|10=212|
8=FIX.4.4|9=60|35=0|34=17|49=013|50=013B17|52=20190626-15:11:05.571|56=EXC|10=098|
8=FIX.4.4|9=0050|35=0|34=19|49=EXC|56=013|52=20190628-15:11:33.000|10=216|
8=FIX.4.4|9=60|35=0|34=18|49=013|50=013B17|52=20190626-15:11:35.570|56=EXC|10=101|
8=FIX.4.4|9=0050|35=0|34=20|49=EXC|56=013|52=20190628-15:12:03.000|10=206|
8=FIX.4.4|9=60|35=0|34=19|49=013|50=013B17|52=20190626-15:12:05.570|56=EXC|10=100|
8=FIX.4.4|9=0050|35=0|34=21|49=EXC|56=013|52=20190628-15:12:33.000|10=210|
8=FIX.4.4|9=60|35=0|34=20|49=013|50=013B17|52=20190626-15:12:35.571|56=EXC|10=096|
8=FIX.4.4|9=60|35=5|34=21|49=013|50=013B17|52=20190626-15:12:49.571|56=EXC|10=107|
8=FIX.4.4|9=0050|35=5|34=22|49=EXC|56=013|52=20190628-15:12:49.587|10=243|
8=FIX.4.4|9=105|35=A|34=1|49=013|50=013B17|52=20190627-13:38:25.901|56=EXC|98=0|108=30|141=Y|553=013FCM001|554=013FCM001|10=102|
8=FIX.4.4|9=0067|35=A|34=1|49=EXC|56=013|52=20190627-13:38:25.935|98=0|108=30|141=Y|10=022|
8=FIX.4.4|9=0049|35=0|34=2|49=EXC|56=013|52=20190627-13:38:55.000|10=178|
8=FIX.4.4|9=59|35=0|34=2|49=013|50=013B17|52=20190627-13:38:56.863|56=EXC|10=070|
8=FIX.4.4|9=0049|35=0|34=3|49=EXC|56=013|52=20190627-13:39:25.000|10=177|
8=FIX.4.4|9=59|35=0|34=3|49=013|50=013B17|52=20190627-13:39:26.863|56=EXC|10=069|
8=FIX.4.4|9=0049|35=0|34=4|49=EXC|56=013|52=20190627-13:39:55.000|10=181|
8=FIX.4.4|9=59|35=0|34=4|49=013|50=013B17|52=20190627-13:39:56.864|56=EXC|10=074|
8=FIX.4.4|9=0049|35=0|34=5|49=EXC|56=013|52=20190627-13:40:25.000|10=171|
8=FIX.4.4|9=59|35=0|34=5|49=013|50=013B17|52=20190627-13:40:26.864|56=EXC|10=064|
8=FIX.4.4|9=0049|35=0|34=6|49=EXC|56=013|52=20190627-13:40:55.000|10=175|
8=FIX.4.4|9=59|35=0|34=6|49=013|50=013B17|52=20190627-13:40:56.865|56=EXC|10=069|
8=FIX.4.4|9=0049|35=0|34=7|49=EXC|56=013|52=20190627-13:41:25.000|10=174|
8=FIX.4.4|9=59|35=0|34=7|49=013|50=013B17|52=20190627-13:41:26.862|56=EXC|10=065|
8=FIX.4.4|9=0049|35=0|34=8|49=EXC|56=013|52=20190627-13:41:55.000|10=178|
8=FIX.4.4|9=59|35=0|34=8|49=013|50=013B17|52=20190627-13:41:56.874|56=EXC|10=072|
8=FIX.4.4|9=0049|35=0|34=9|49=EXC|56=013|52=20190627-13:42:25.000|10=177|
8=FIX.4.4|9=59|35=0|34=9|49=013|50=013B17|52=20190627-13:42:27.859|56=EXC|10=075|
8=FIX.4.4|9=0050|35=0|34=10|49=EXC|56=013|52=20190627-13:42:55.000|10=212|
8=FIX.4.4|9=60|35=0|34=10|49=013|50=013B17|52=20190627-13:42:57.859|56=EXC|10=110|
8=FIX.4.4|9=0193|35=R|34=11|49=EXC|56=013|52=20190627-13:43:06.078|131=20190627-000000000016.00|146=1|55=TFIT15260826|762=RFQF|48=20348|22=M|54=1|38=1500000000|453=2|448=007B26|447=C|452=12|448=007|447=C|452=1|10=053|
8=FIX.4.4|9=60|35=0|34=11|49=013|50=013B17|52=20190627-13:43:27.855|56=EXC|10=105|
8=FIX.4.4|9=0050|35=0|34=12|49=EXC|56=013|52=20190627-13:43:36.000|10=214|
8=FIX.4.4|9=0184|35=R|34=13|49=EXC|56=013|52=20190627-13:43:37.547|131=20190627-000000000016.00|146=1|55=TFIT15260826|762=RFQF|48=20348|22=M|54=1|38=0|453=2|448=007B26|447=C|452=12|448=007|447=C|452=1|10=134|
8=FIX.4.4|9=60|35=0|34=12|49=013|50=013B17|52=20190627-13:43:57.855|56=EXC|10=109|
8=FIX.4.4|9=0050|35=0|34=14|49=EXC|56=013|52=20190627-13:44:07.000|10=215|
8=FIX.4.4|9=60|35=0|34=13|49=013|50=013B17|52=20190627-13:44:27.854|56=EXC|10=107|
8=FIX.4.4|9=0050|35=0|34=15|49=EXC|56=013|52=20190627-13:44:37.000|10=219|
8=FIX.4.4|9=60|35=5|34=14|49=013|50=013B17|52=20190627-13:44:50.853|56=EXC|10=108|
8=FIX.4.4|9=0050|35=5|34=16|49=EXC|56=013|52=20190627-13:44:50.854|10=237|
8=FIX.4.4|9=110|35=A|34=1|49=013|50=013B17|52=20190627-15:02:34.133|56=EXC|43=Y|98=0|108=30|141=Y|553=013FCM001|554=013FCM001|10=086|
8=FIX.4.4|9=0067|35=A|34=1|49=EXC|56=013|52=20190627-15:02:34.165|98=0|108=30|141=Y|10=010|
8=FIX.4.4|9=0049|35=0|34=2|49=EXC|56=013|52=20190627-15:03:04.000|10=166|
8=FIX.4.4|9=59|35=0|34=2|49=013|50=013B17|52=20190627-15:03:05.041|56=EXC|10=046|
8=FIX.4.4|9=0049|35=0|34=3|49=EXC|56=013|52=20190627-15:03:34.000|10=170|
8=FIX.4.4|9=59|35=0|34=3|49=013|50=013B17|52=20190627-15:03:35.042|56=EXC|10=051|
8=FIX.4.4|9=0049|35=0|34=4|49=EXC|56=013|52=20190627-15:04:04.000|10=169|
8=FIX.4.4|9=59|35=0|34=4|49=013|50=013B17|52=20190627-15:04:05.042|56=EXC|10=050|
8=FIX.4.4|9=0049|35=0|34=5|49=EXC|56=013|52=20190627-15:04:34.000|10=173|
8=FIX.4.4|9=59|35=0|34=5|49=013|50=013B17|52=20190627-15:04:35.042|56=EXC|10=054|
8=FIX.4.4|9=0049|35=0|34=6|49=EXC|56=013|52=20190627-15:05:04.000|10=172|
8=FIX.4.4|9=59|35=0|34=6|49=013|50=013B17|52=20190627-15:05:05.042|56=EXC|10=053|
8=FIX.4.4|9=0049|35=0|34=7|49=EXC|56=013|52=20190627-15:05:34.000|10=176|
8=FIX.4.4|9=59|35=0|34=7|49=013|50=013B17|52=20190627-15:05:35.042|56=EXC|10=057|
8=FIX.4.4|9=0049|35=0|34=8|49=EXC|56=013|52=20190627-15:06:04.000|10=175|
8=FIX.4.4|9=59|35=0|34=8|49=013|50=013B17|52=20190627-15:06:05.042|56=EXC|10=056|
8=FIX.4.4|9=0049|35=0|34=9|49=EXC|56=013|52=20190627-15:06:34.000|10=179|
8=FIX.4.4|9=59|35=0|34=9|49=013|50=013B17|52=20190627-15:06:35.042|56=EXC|10=060|
8=FIX.4.4|9=0050|35=0|34=10|49=EXC|56=013|52=20190627-15:07:04.000|10=209|
8=FIX.4.4|9=60|35=0|34=10|49=013|50=013B17|52=20190627-15:07:05.043|56=EXC|10=091|
8=FIX.4.4|9=0193|35=R|34=11|49=EXC|56=013|52=20190627-15:07:18.660|131=20190627-000000000037.00|146=1|55=TFIT15260826|762=RFQF|48=20348|22=M|54=1|38=1500000000|453=2|448=007B26|447=C|452=12|448=007|447=C|452=1|10=058|
8=FIX.4.4|9=60|35=0|34=11|49=013|50=013B17|52=20190627-15:07:35.042|56=EXC|10=094|
8=FIX.4.4|9=0050|35=0|34=12|49=EXC|56=013|52=20190627-15:07:48.000|10=219|
8=FIX.4.4|9=0184|35=R|34=13|49=EXC|56=013|52=20190627-15:07:49.938|131=20190627-000000000037.00|146=1|55=TFIT15260826|762=RFQF|48=20348|22=M|54=1|38=0|453=2|448=007B26|447=C|452=12|448=007|447=C|452=1|10=146|
8=FIX.4.4|9=60|35=0|34=12|49=013|50=013B17|52=20190627-15:08:05.043|56=EXC|10=094|
8=FIX.4.4|9=0050|35=0|34=14|49=EXC|56=013|52=20190627-15:08:19.000|10=220|
8=FIX.4.4|9=60|35=0|34=13|49=013|50=013B17|52=20190627-15:08:35.042|56=EXC|10=097|
8=FIX.4.4|9=0050|35=0|34=15|49=EXC|56=013|52=20190627-15:08:49.000|10=224|
8=FIX.4.4|9=60|35=5|34=14|49=013|50=013B17|52=20190627-15:09:03.042|56=EXC|10=099|
8=FIX.4.4|9=0050|35=5|34=16|49=EXC|56=013|52=20190627-15:09:03.042|10=227|
