8=FIX.4.4|9=110|35=A|34=1|49=013|50=013B17|52=20190528-15:22:28.867|56=EXC|43=Y|98=0|108=30|141=Y|553=018FCM001|554=018FCM001|10=115|
8=FIX.4.4|9=110|35=A|34=1|49=013|50=013B17|52=20190528-15:24:02.581|56=EXC|43=Y|98=0|108=30|141=Y|553=013FCM001|554=013FCM001|10=092|
8=FIX.4.4|9=0067|35=A|34=1|49=EXC|56=013|52=20190528-15:24:02.655|98=0|108=30|141=Y|10=013|
8=FIX.4.4|9=110|35=A|34=1|49=013|50=013B17|52=20190528-20:13:38.186|56=EXC|43=Y|98=0|108=30|141=Y|553=013FCM001|554=013FCM001|10=096|
8=FIX.4.4|9=0067|35=A|34=1|49=EXC|56=013|52=20190528-20:13:38.231|98=0|108=30|141=Y|10=006|
8=FIX.4.4|9=110|35=A|34=1|49=013|50=013B17|52=20190528-20:18:12.441|56=EXC|43=Y|98=0|108=30|141=Y|553=013FCM001|554=013FCM001|10=087|
8=FIX.4.4|9=0067|35=A|34=1|49=EXC|56=013|52=20190528-20:18:12.494|98=0|108=30|141=Y|10=014|
8=FIX.4.4|9=110|35=A|34=1|49=013|50=013B17|52=20190528-20:54:13.294|56=EXC|43=Y|98=0|108=30|141=Y|553=013FCM001|554=013FCM001|10=094|
8=FIX.4.4|9=0067|35=A|34=1|49=EXC|56=013|52=20190528-20:54:13.386|98=0|108=30|141=Y|10=015|
8=FIX.4.4|9=110|35=A|34=1|49=013|50=013B17|52=20190528-23:51:53.728|56=EXC|43=Y|98=0|108=30|141=Y|553=013FCM001|554=013FCM001|10=100|
8=FIX.4.4|9=0067|35=A|34=1|49=EXC|56=013|52=20190528-23:51:53.457|98=0|108=30|141=Y|10=018|
8=FIX.4.4|9=0049|35=0|34=2|49=EXC|56=013|52=20190528-23:52:23.000|10=170|
8=FIX.4.4|9=59|35=0|34=2|49=013|50=013B17|52=20190528-23:52:24.682|56=EXC|10=061|
8=FIX.4.4|9=110|35=A|34=1|49=013|50=013B17|52=20190529-00:03:20.547|56=EXC|43=Y|98=0|108=30|141=Y|553=013FCM001|554=013FCM001|10=086|
8=FIX.4.4|9=0067|35=A|34=1|49=EXC|56=013|52=20190529-00:03:20.266|98=0|108=30|141=Y|10=003|
8=FIX.4.4|9=0049|35=0|34=2|49=EXC|56=013|52=20190529-00:03:50.000|10=162|
8=FIX.4.4|9=59|35=0|34=2|49=013|50=013B17|52=20190529-00:03:51.367|56=EXC|10=053|
8=FIX.4.4|9=0049|35=0|34=3|49=EXC|56=013|52=20190529-00:04:20.000|10=161|
8=FIX.4.4|9=59|35=0|34=3|49=013|50=013B17|52=20190529-00:04:21.395|56=EXC|10=053|
8=FIX.4.4|9=110|35=A|34=1|49=013|50=013B17|52=20190529-00:09:25.985|56=EXC|43=Y|98=0|108=30|141=Y|553=013FCM001|554=013FCM001|10=103|
8=FIX.4.4|9=0067|35=A|34=1|49=EXC|56=013|52=20190529-00:09:25.692|98=0|108=30|141=Y|10=017|
8=FIX.4.4|9=0049|35=0|34=2|49=EXC|56=013|52=20190529-00:09:55.000|10=173|
8=FIX.4.4|9=59|35=0|34=2|49=013|50=013B17|52=20190529-00:09:56.956|56=EXC|10=068|
8=FIX.4.4|9=0049|35=0|34=3|49=EXC|56=013|52=20190529-00:10:25.000|10=163|
8=FIX.4.4|9=59|35=0|34=3|49=013|50=013B17|52=20190529-00:10:26.955|56=EXC|10=057|
8=FIX.4.4|9=110|35=A|34=1|49=013|50=013B17|52=20190529-00:10:49.199|56=EXC|43=Y|98=0|108=30|141=Y|553=013FCM001|554=013FCM001|10=098|
8=FIX.4.4|9=0067|35=A|34=1|49=EXC|56=013|52=20190529-00:10:48.907|98=0|108=30|141=Y|10=013|
8=FIX.4.4|9=0049|35=0|34=2|49=EXC|56=013|52=20190529-00:11:18.000|10=165|
8=FIX.4.4|9=59|35=0|34=2|49=013|50=013B17|52=20190529-00:11:20.141|56=EXC|10=038|
8=FIX.4.4|9=0049|35=0|34=3|49=EXC|56=013|52=20190529-00:11:48.000|10=169|
8=FIX.4.4|9=59|35=0|34=3|49=013|50=013B17|52=20190529-00:11:50.141|56=EXC|10=042|
8=FIX.4.4|9=0049|35=0|34=4|49=EXC|56=013|52=20190529-00:12:18.000|10=168|
8=FIX.4.4|9=59|35=0|34=4|49=013|50=013B17|52=20190529-00:12:20.147|56=EXC|10=047|
8=FIX.4.4|9=0049|35=0|34=5|49=EXC|56=013|52=20190529-00:12:48.000|10=172|
8=FIX.4.4|9=59|35=0|34=5|49=013|50=013B17|52=20190529-00:12:50.140|56=EXC|10=044|
8=FIX.4.4|9=110|35=A|34=1|49=013|50=013B17|52=20190529-00:14:06.791|56=EXC|43=Y|98=0|108=30|141=Y|553=013FCM001|554=013FCM001|10=093|
8=FIX.4.4|9=0067|35=A|34=1|49=EXC|56=013|52=20190529-00:14:06.497|98=0|108=30|141=Y|10=015|
8=FIX.4.4|9=0049|35=0|34=2|49=EXC|56=013|52=20190529-00:14:36.000|10=168|
8=FIX.4.4|9=59|35=0|34=2|49=013|50=013B17|52=20190529-00:14:37.746|56=EXC|10=060|
8=FIX.4.4|9=0049|35=0|34=3|49=EXC|56=013|52=20190529-00:15:06.000|10=167|
8=FIX.4.4|9=59|35=0|34=3|49=013|50=013B17|52=20190529-00:15:07.746|56=EXC|10=059|
8=FIX.4.4|9=110|35=A|34=1|49=013|50=013B17|52=20190529-00:16:05.365|56=EXC|43=Y|98=0|108=30|141=Y|553=013FCM001|554=013FCM001|10=091|
8=FIX.4.4|9=0067|35=A|34=1|49=EXC|56=013|52=20190529-00:16:04.812|98=0|108=30|141=Y|10=006|
8=FIX.4.4|9=0049|35=0|34=2|49=EXC|56=013|52=20190529-00:16:34.000|10=168|
8=FIX.4.4|9=59|35=0|34=2|49=013|50=013B17|52=20190529-00:16:36.339|56=EXC|10=059|
8=FIX.4.4|9=0049|35=0|34=3|49=EXC|56=013|52=20190529-00:17:04.000|10=167|
8=FIX.4.4|9=59|35=0|34=3|49=013|50=013B17|52=20190529-00:17:06.336|56=EXC|10=055|
8=FIX.4.4|9=0049|35=0|34=4|49=EXC|56=013|52=20190529-00:17:34.000|10=171|
8=FIX.4.4|9=59|35=0|34=4|49=013|50=013B17|52=20190529-00:17:36.337|56=EXC|10=060|
8=FIX.4.4|9=0049|35=0|34=5|49=EXC|56=013|52=20190529-00:18:04.000|10=170|
8=FIX.4.4|9=59|35=0|34=5|49=013|50=013B17|52=20190529-00:18:06.337|56=EXC|10=059|
8=FIX.4.4|9=0049|35=0|34=6|49=EXC|56=013|52=20190529-00:18:34.000|10=174|
8=FIX.4.4|9=59|35=0|34=6|49=013|50=013B17|52=20190529-00:18:36.336|56=EXC|10=062|
8=FIX.4.4|9=0049|35=0|34=7|49=EXC|56=013|52=20190529-00:19:04.000|10=173|
8=FIX.4.4|9=59|35=0|34=7|49=013|50=013B17|52=20190529-00:19:06.337|56=EXC|10=062|
8=FIX.4.4|9=110|35=A|34=1|49=013|50=013B17|52=20190529-00:19:57.317|56=EXC|43=Y|98=0|108=30|141=Y|553=013FCM001|554=013FCM001|10=098|
8=FIX.4.4|9=0067|35=A|34=1|49=EXC|56=013|52=20190529-00:19:56.759|98=0|108=30|141=Y|10=026|
8=FIX.4.4|9=0049|35=0|34=2|49=EXC|56=013|52=20190529-00:20:26.000|10=164|
8=FIX.4.4|9=59|35=0|34=2|49=013|50=013B17|52=20190529-00:20:28.268|56=EXC|10=056|
8=FIX.4.4|9=0049|35=0|34=3|49=EXC|56=013|52=20190529-00:20:56.000|10=168|
8=FIX.4.4|9=59|35=0|34=3|49=013|50=013B17|52=20190529-00:20:58.268|56=EXC|10=060|
8=FIX.4.4|9=110|35=A|34=1|49=013|50=013B17|52=20190529-00:22:19.697|56=EXC|43=Y|98=0|108=30|141=Y|553=013FCM001|554=013FCM001|10=101|
8=FIX.4.4|9=0067|35=A|34=1|49=EXC|56=013|52=20190529-00:22:19.134|98=0|108=30|141=Y|10=006|
8=FIX.4.4|9=110|35=A|34=1|49=013|50=013B17|52=20190529-00:23:37.194|56=EXC|43=Y|98=0|108=30|141=Y|553=013FCM001|554=013FCM001|10=094|
8=FIX.4.4|9=0067|35=A|34=1|49=EXC|56=013|52=20190529-00:23:36.632|98=0|108=30|141=Y|10=009|
8=FIX.4.4|9=0049|35=0|34=2|49=EXC|56=013|52=20190529-00:24:06.000|10=166|
8=FIX.4.4|9=59|35=0|34=2|49=013|50=013B17|52=20190529-00:24:08.115|56=EXC|10=049|
8=FIX.4.4|9=0049|35=0|34=3|49=EXC|56=013|52=20190529-00:24:36.000|10=170|
8=FIX.4.4|9=59|35=0|34=3|49=013|50=013B17|52=20190529-00:24:38.116|56=EXC|10=054|
8=FIX.4.4|9=0049|35=0|34=4|49=EXC|56=013|52=20190529-00:25:06.000|10=169|
8=FIX.4.4|9=59|35=0|34=4|49=013|50=013B17|52=20190529-00:25:08.115|56=EXC|10=052|
8=FIX.4.4|9=110|35=A|34=1|49=013|50=013B17|52=20190529-00:25:31.845|56=EXC|43=Y|98=0|108=30|141=Y|553=013FCM001|554=013FCM001|10=093|
8=FIX.4.4|9=0067|35=A|34=1|49=EXC|56=013|52=20190529-00:25:31.285|98=0|108=30|141=Y|10=010|
8=FIX.4.4|9=110|35=A|34=1|49=013|50=013B17|52=20190529-00:31:10.196|56=EXC|43=Y|98=0|108=30|141=Y|553=013FCM001|554=013FCM001|10=086|
8=FIX.4.4|9=0067|35=A|34=1|49=EXC|56=013|52=20190529-00:31:09.628|98=0|108=30|141=Y|10=013|
