8=FIX.4.4|9=106|35=A|34=1|49=002|50=19|52=20190509-14:12:23.954|56=EXC|43=Y|98=0|108=30|141=Y|553=010FCE003|554=010FCE003|10=123|
8=FIX.4.4|9=106|35=A|34=1|49=002|50=19|52=20190509-14:13:23.271|56=EXC|43=Y|98=0|108=30|141=Y|553=010FCE003|554=010FCE003|10=116|
8=FIX.4.4|9=106|35=A|34=1|49=002|50=19|52=20190509-14:14:24.290|56=EXC|43=Y|98=0|108=30|141=Y|553=010FCE003|554=010FCE003|10=119|
8=FIX.4.4|9=106|35=A|34=1|49=002|50=19|52=20190509-14:15:24.277|56=EXC|43=Y|98=0|108=30|141=Y|553=010FCE003|554=010FCE003|10=125|
8=FIX.4.4|9=106|35=A|34=1|49=002|50=19|52=20190509-14:17:51.444|56=EXC|43=Y|98=0|108=30|141=Y|553=010FCE003|554=010FCE003|10=123|
8=FIX.4.4|9=106|35=A|34=1|49=002|50=19|52=20190509-14:26:04.391|56=EXC|43=Y|98=0|108=30|141=Y|553=010FCE003|554=010FCE003|10=122|
8=FIX.4.4|9=106|35=A|34=1|49=002|50=19|52=20190509-14:27:03.642|56=EXC|43=Y|98=0|108=30|141=Y|553=010FCE003|554=010FCE003|10=121|
8=FIX.4.4|9=78|35=A|34=1|49=002|50=19|52=20190527-20:57:09.975|56=EXC|43=Y|98=0|108=30|141=Y|10=197|
