8=FIX.4.4|9=110|35=A|34=1|49=029|50=029B17|52=20190806-20:00:10.255|56=EXC|43=N|98=0|108=30|141=Y|553=029FCM001|554=029FCM001|10=095|
8=FIX.4.4|9=0067|35=A|34=1|49=EXC|56=029|52=20190806-20:01:03.575|98=0|108=30|141=Y|10=012|
8=FIX.4.4|9=110|35=A|34=1|49=029|50=029B17|52=20190806-20:06:52.069|56=EXC|43=N|98=0|108=30|141=Y|553=029FCM001|554=029FCM001|10=110|
8=FIX.4.4|9=0067|35=A|34=1|49=EXC|56=029|52=20190806-20:07:45.400|98=0|108=30|141=Y|10=011|
8=FIX.4.4|9=110|35=A|34=1|49=029|50=029B17|52=20190806-20:12:53.046|56=EXC|43=N|98=0|108=30|141=Y|553=029FCM001|554=029FCM001|10=103|
8=FIX.4.4|9=0067|35=A|34=1|49=EXC|56=029|52=20190806-20:13:46.365|98=0|108=30|141=Y|10=019|
8=FIX.4.4|9=110|35=A|34=1|49=029|50=029B17|52=20190806-21:41:14.803|56=EXC|43=N|98=0|108=30|141=Y|553=029FCM001|554=029FCM001|10=104|
8=FIX.4.4|9=0067|35=A|34=1|49=EXC|56=029|52=20190806-16:08:56.207|98=0|108=30|141=Y|10=024|
8=FIX.4.4|9=161|35=R|34=2|49=029|50=029B17|52=20190806-21:41:20.841|56=EXC|131=201908061641108_R|146=1|55=I01H99F|22=M|762=AFIR|54=1|38=-1|1=RT001|453=1|448=037B18|447=C|452=37|10=110|
8=FIX.4.4|9=0130|35=3|34=2|49=EXC|56=029|52=20190806-16:09:02.210|45=2|371=38|372=R|373=6|58=(1462): OrderQty(#38) contiene informacion incorrecta|10=184|
8=FIX.4.4|9=110|35=A|34=1|49=029|50=029B17|52=20190808-15:51:12.497|56=EXC|43=N|98=0|108=30|141=Y|553=029FCM001|554=029FCM001|10=117|
8=FIX.4.4|9=0067|35=A|34=1|49=EXC|56=029|52=20190809-15:52:07.497|98=0|108=30|141=Y|10=032|
8=FIX.4.4|9=110|35=A|34=1|49=029|50=029B17|52=20190808-15:52:05.447|56=EXC|43=N|98=0|108=30|141=Y|553=029FCM001|554=029FCM001|10=115|
8=FIX.4.4|9=0067|35=A|34=1|49=EXC|56=029|52=20190809-15:53:00.458|98=0|108=30|141=Y|10=023|
8=FIX.4.4|9=110|35=A|34=1|49=029|50=029B17|52=20190808-15:53:40.846|56=EXC|43=N|98=0|108=30|141=Y|553=029FCM001|554=029FCM001|10=118|
8=FIX.4.4|9=0067|35=A|34=1|49=EXC|56=029|52=20190809-15:54:35.846|98=0|108=30|141=Y|10=033|
8=FIX.4.4|9=110|35=A|34=1|49=029|50=029B17|52=20190808-15:57:35.479|56=EXC|43=N|98=0|108=30|141=Y|553=029FCM001|554=029FCM001|10=128|
8=FIX.4.4|9=0067|35=A|34=1|49=EXC|56=029|52=20190809-15:58:30.486|98=0|108=30|141=Y|10=032|
8=FIX.4.4|9=0049|35=0|34=2|49=EXC|56=029|52=20190809-15:59:00.000|10=182|
8=FIX.4.4|9=59|35=0|34=2|49=029|50=029B17|52=20190808-15:58:06.169|56=EXC|10=083|
8=FIX.4.4|9=0049|35=0|34=3|49=EXC|56=029|52=20190809-15:59:30.000|10=186|
8=FIX.4.4|9=59|35=0|34=3|49=029|50=029B17|52=20190808-15:58:36.427|56=EXC|10=084|
8=FIX.4.4|9=0049|35=0|34=4|49=EXC|56=029|52=20190809-16:00:00.000|10=171|
8=FIX.4.4|9=59|35=0|34=4|49=029|50=029B17|52=20190808-15:59:07.173|56=EXC|10=082|
8=FIX.4.4|9=0049|35=0|34=5|49=EXC|56=029|52=20190809-16:00:30.000|10=175|
8=FIX.4.4|9=59|35=0|34=5|49=029|50=029B17|52=20190808-15:59:37.279|56=EXC|10=093|
8=FIX.4.4|9=0049|35=0|34=6|49=EXC|56=029|52=20190809-16:01:00.000|10=174|
8=FIX.4.4|9=59|35=0|34=6|49=029|50=029B17|52=20190808-16:00:08.173|56=EXC|10=072|
8=FIX.4.4|9=0049|35=0|34=7|49=EXC|56=029|52=20190809-16:01:30.000|10=178|
8=FIX.4.4|9=59|35=0|34=7|49=029|50=029B17|52=20190808-16:00:38.181|56=EXC|10=075|
8=FIX.4.4|9=0049|35=0|34=8|49=EXC|56=029|52=20190809-16:02:00.000|10=177|
8=FIX.4.4|9=59|35=0|34=8|49=029|50=029B17|52=20190808-16:01:09.174|56=EXC|10=077|
8=FIX.4.4|9=0049|35=0|34=9|49=EXC|56=029|52=20190809-16:02:30.000|10=181|
8=FIX.4.4|9=59|35=0|34=9|49=029|50=029B17|52=20190808-16:01:39.167|56=EXC|10=083|
8=FIX.4.4|9=0050|35=0|34=10|49=EXC|56=029|52=20190809-16:03:00.000|10=211|
8=FIX.4.4|9=60|35=0|34=10|49=029|50=029B17|52=20190808-16:02:09.170|56=EXC|10=107|
8=FIX.4.4|9=0050|35=0|34=11|49=EXC|56=029|52=20190809-16:03:30.000|10=215|
8=FIX.4.4|9=60|35=0|34=11|49=029|50=029B17|52=20190808-16:02:39.577|56=EXC|10=122|
8=FIX.4.4|9=0050|35=0|34=12|49=EXC|56=029|52=20190809-16:04:00.000|10=214|
8=FIX.4.4|9=60|35=0|34=12|49=029|50=029B17|52=20190808-16:03:10.173|56=EXC|10=105|
8=FIX.4.4|9=0050|35=0|34=13|49=EXC|56=029|52=20190809-16:04:30.000|10=218|
8=FIX.4.4|9=60|35=0|34=13|49=029|50=029B17|52=20190808-16:03:40.401|56=EXC|10=103|
8=FIX.4.4|9=0050|35=0|34=14|49=EXC|56=029|52=20190809-16:05:00.000|10=217|
8=FIX.4.4|9=60|35=0|34=14|49=029|50=029B17|52=20190808-16:04:11.169|56=EXC|10=114|
8=FIX.4.4|9=0050|35=0|34=15|49=EXC|56=029|52=20190809-16:05:30.000|10=221|
8=FIX.4.4|9=60|35=0|34=15|49=029|50=029B17|52=20190808-16:04:41.250|56=EXC|10=109|
8=FIX.4.4|9=0050|35=0|34=16|49=EXC|56=029|52=20190809-16:06:00.000|10=220|
8=FIX.4.4|9=60|35=0|34=16|49=029|50=029B17|52=20190808-16:05:12.175|56=EXC|10=115|
8=FIX.4.4|9=0050|35=0|34=17|49=EXC|56=029|52=20190809-16:06:30.000|10=224|
8=FIX.4.4|9=60|35=0|34=17|49=029|50=029B17|52=20190808-16:05:42.174|56=EXC|10=118|
8=FIX.4.4|9=0050|35=0|34=18|49=EXC|56=029|52=20190809-16:07:00.000|10=223|
8=FIX.4.4|9=60|35=0|34=18|49=029|50=029B17|52=20190808-16:06:12.179|56=EXC|10=122|
8=FIX.4.4|9=0050|35=0|34=19|49=EXC|56=029|52=20190809-16:07:30.000|10=227|
8=FIX.4.4|9=60|35=0|34=19|49=029|50=029B17|52=20190808-16:06:42.820|56=EXC|10=119|
8=FIX.4.4|9=0050|35=0|34=20|49=EXC|56=029|52=20190809-16:08:00.000|10=217|
8=FIX.4.4|9=60|35=0|34=20|49=029|50=029B17|52=20190808-16:07:13.182|56=EXC|10=111|
8=FIX.4.4|9=0050|35=0|34=21|49=EXC|56=029|52=20190809-16:08:30.000|10=221|
8=FIX.4.4|9=60|35=0|34=21|49=029|50=029B17|52=20190808-16:07:43.475|56=EXC|10=120|
8=FIX.4.4|9=0050|35=0|34=22|49=EXC|56=029|52=20190809-16:09:00.000|10=220|
8=FIX.4.4|9=60|35=0|34=22|49=029|50=029B17|52=20190808-16:08:14.167|56=EXC|10=118|
8=FIX.4.4|9=0050|35=0|34=23|49=EXC|56=029|52=20190809-16:09:30.000|10=224|
8=FIX.4.4|9=60|35=0|34=23|49=029|50=029B17|52=20190808-16:08:44.178|56=EXC|10=124|
8=FIX.4.4|9=0050|35=0|34=24|49=EXC|56=029|52=20190809-16:10:00.000|10=214|
8=FIX.4.4|9=60|35=0|34=24|49=029|50=029B17|52=20190808-16:09:14.175|56=EXC|10=120|
8=FIX.4.4|9=0050|35=0|34=25|49=EXC|56=029|52=20190809-16:10:30.000|10=218|
8=FIX.4.4|9=60|35=0|34=25|49=029|50=029B17|52=20190808-16:09:44.815|56=EXC|10=125|
8=FIX.4.4|9=0050|35=0|34=26|49=EXC|56=029|52=20190809-16:11:00.000|10=217|
8=FIX.4.4|9=60|35=0|34=26|49=029|50=029B17|52=20190808-16:10:15.175|56=EXC|10=115|
8=FIX.4.4|9=0050|35=0|34=27|49=EXC|56=029|52=20190809-16:11:30.000|10=221|
8=FIX.4.4|9=60|35=0|34=27|49=029|50=029B17|52=20190808-16:10:45.557|56=EXC|10=123|
8=FIX.4.4|9=0050|35=0|34=28|49=EXC|56=029|52=20190809-16:12:00.000|10=220|
8=FIX.4.4|9=60|35=0|34=28|49=029|50=029B17|52=20190808-16:11:16.174|56=EXC|10=118|
8=FIX.4.4|9=0050|35=0|34=29|49=EXC|56=029|52=20190809-16:12:30.000|10=224|
8=FIX.4.4|9=60|35=0|34=29|49=029|50=029B17|52=20190808-16:11:46.318|56=EXC|10=122|
8=FIX.4.4|9=0050|35=0|34=30|49=EXC|56=029|52=20190809-16:13:00.000|10=214|
8=FIX.4.4|9=60|35=0|34=30|49=029|50=029B17|52=20190808-16:12:17.180|56=EXC|10=110|
8=FIX.4.4|9=0050|35=0|34=31|49=EXC|56=029|52=20190809-16:13:30.000|10=218|
8=FIX.4.4|9=60|35=0|34=31|49=029|50=029B17|52=20190808-16:12:48.168|56=EXC|10=121|
8=FIX.4.4|9=0050|35=0|34=32|49=EXC|56=029|52=20190809-16:14:00.000|10=217|
8=FIX.4.4|9=60|35=0|34=32|49=029|50=029B17|52=20190808-16:13:18.177|56=EXC|10=120|
8=FIX.4.4|9=0050|35=0|34=33|49=EXC|56=029|52=20190809-16:14:30.000|10=221|
8=FIX.4.4|9=60|35=0|34=33|49=029|50=029B17|52=20190808-16:13:48.168|56=EXC|10=124|
8=FIX.4.4|9=0050|35=0|34=34|49=EXC|56=029|52=20190809-16:15:00.000|10=220|
8=FIX.4.4|9=60|35=0|34=34|49=029|50=029B17|52=20190808-16:14:18.176|56=EXC|10=122|
8=FIX.4.4|9=0050|35=0|34=35|49=EXC|56=029|52=20190809-16:15:30.000|10=224|
8=FIX.4.4|9=60|35=0|34=35|49=029|50=029B17|52=20190808-16:14:48.655|56=EXC|10=128|
8=FIX.4.4|9=0050|35=0|34=36|49=EXC|56=029|52=20190809-16:16:00.000|10=223|
8=FIX.4.4|9=60|35=0|34=36|49=029|50=029B17|52=20190808-16:15:19.170|56=EXC|10=120|
8=FIX.4.4|9=0050|35=0|34=37|49=EXC|56=029|52=20190809-16:16:30.000|10=227|
8=FIX.4.4|9=60|35=0|34=37|49=029|50=029B17|52=20190808-16:15:49.451|56=EXC|10=126|
8=FIX.4.4|9=0050|35=0|34=38|49=EXC|56=029|52=20190809-16:17:00.000|10=226|
8=FIX.4.4|9=60|35=0|34=38|49=029|50=029B17|52=20190808-16:16:20.170|56=EXC|10=115|
8=FIX.4.4|9=0050|35=0|34=39|49=EXC|56=029|52=20190809-16:17:30.000|10=230|
8=FIX.4.4|9=60|35=0|34=39|49=029|50=029B17|52=20190808-16:16:50.294|56=EXC|10=126|
8=FIX.4.4|9=0050|35=0|34=40|49=EXC|56=029|52=20190809-16:18:00.000|10=220|
8=FIX.4.4|9=60|35=0|34=40|49=029|50=029B17|52=20190808-16:17:21.172|56=EXC|10=112|
8=FIX.4.4|9=0050|35=0|34=41|49=EXC|56=029|52=20190809-16:18:30.000|10=224|
8=FIX.4.4|9=60|35=0|34=41|49=029|50=029B17|52=20190808-16:17:51.169|56=EXC|10=122|
8=FIX.4.4|9=0050|35=0|34=42|49=EXC|56=029|52=20190809-16:19:00.000|10=223|
8=FIX.4.4|9=60|35=0|34=42|49=029|50=029B17|52=20190808-16:18:21.168|56=EXC|10=120|
8=FIX.4.4|9=0050|35=0|34=43|49=EXC|56=029|52=20190809-16:19:30.000|10=227|
8=FIX.4.4|9=60|35=0|34=43|49=029|50=029B17|52=20190808-16:18:51.792|56=EXC|10=127|
8=FIX.4.4|9=0050|35=0|34=44|49=EXC|56=029|52=20190809-16:20:00.000|10=217|
8=FIX.4.4|9=60|35=0|34=44|49=029|50=029B17|52=20190808-16:19:22.167|56=EXC|10=123|
8=FIX.4.4|9=0050|35=0|34=45|49=EXC|56=029|52=20190809-16:20:30.000|10=221|
8=FIX.4.4|9=60|35=0|34=45|49=029|50=029B17|52=20190808-16:19:52.541|56=EXC|10=123|
8=FIX.4.4|9=0050|35=0|34=46|49=EXC|56=029|52=20190809-16:21:00.000|10=220|
8=FIX.4.4|9=60|35=0|34=46|49=029|50=029B17|52=20190808-16:20:23.168|56=EXC|10=119|
8=FIX.4.4|9=0050|35=0|34=47|49=EXC|56=029|52=20190809-16:21:30.000|10=224|
8=FIX.4.4|9=60|35=0|34=47|49=029|50=029B17|52=20190808-16:20:53.374|56=EXC|10=122|
8=FIX.4.4|9=0050|35=0|34=48|49=EXC|56=029|52=20190809-16:22:00.000|10=223|
8=FIX.4.4|9=60|35=0|34=48|49=029|50=029B17|52=20190808-16:21:24.168|56=EXC|10=123|
8=FIX.4.4|9=0050|35=0|34=49|49=EXC|56=029|52=20190809-16:22:30.000|10=227|
8=FIX.4.4|9=60|35=0|34=49|49=029|50=029B17|52=20190808-16:21:54.163|56=EXC|10=122|
8=FIX.4.4|9=0050|35=0|34=50|49=EXC|56=029|52=20190809-16:23:00.000|10=217|
8=FIX.4.4|9=60|35=0|34=50|49=029|50=029B17|52=20190808-16:22:24.180|56=EXC|10=111|
8=FIX.4.4|9=0050|35=0|34=51|49=EXC|56=029|52=20190809-16:23:30.000|10=221|
8=FIX.4.4|9=60|35=0|34=51|49=029|50=029B17|52=20190808-16:22:54.976|56=EXC|10=128|
8=FIX.4.4|9=0050|35=0|34=52|49=EXC|56=029|52=20190809-16:24:00.000|10=220|
8=FIX.4.4|9=60|35=0|34=52|49=029|50=029B17|52=20190808-16:23:25.169|56=EXC|10=122|
8=FIX.4.4|9=0050|35=0|34=53|49=EXC|56=029|52=20190809-16:24:30.000|10=224|
8=FIX.4.4|9=60|35=0|34=53|49=029|50=029B17|52=20190808-16:23:55.741|56=EXC|10=122|
8=FIX.4.4|9=0050|35=0|34=54|49=EXC|56=029|52=20190809-16:25:00.000|10=223|
8=FIX.4.4|9=60|35=0|34=54|49=029|50=029B17|52=20190808-16:24:26.179|56=EXC|10=127|
8=FIX.4.4|9=0050|35=0|34=55|49=EXC|56=029|52=20190809-16:25:30.000|10=227|
8=FIX.4.4|9=60|35=0|34=55|49=029|50=029B17|52=20190808-16:24:56.599|56=EXC|10=137|
8=FIX.4.4|9=0050|35=0|34=56|49=EXC|56=029|52=20190809-16:26:00.000|10=226|
8=FIX.4.4|9=60|35=0|34=56|49=029|50=029B17|52=20190808-16:25:27.178|56=EXC|10=130|
8=FIX.4.4|9=0050|35=0|34=57|49=EXC|56=029|52=20190809-16:26:30.000|10=230|
8=FIX.4.4|9=60|35=0|34=57|49=029|50=029B17|52=20190808-16:25:57.302|56=EXC|10=123|
8=FIX.4.4|9=0050|35=0|34=58|49=EXC|56=029|52=20190809-16:27:00.000|10=229|
8=FIX.4.4|9=60|35=0|34=58|49=029|50=029B17|52=20190808-16:26:28.180|56=EXC|10=127|
8=FIX.4.4|9=0050|35=0|34=59|49=EXC|56=029|52=20190809-16:27:30.000|10=233|
8=FIX.4.4|9=60|35=0|34=59|49=029|50=029B17|52=20190808-16:26:59.168|56=EXC|10=138|
8=FIX.4.4|9=0050|35=0|34=60|49=EXC|56=029|52=20190809-16:28:00.000|10=223|
8=FIX.4.4|9=60|35=0|34=60|49=029|50=029B17|52=20190808-16:27:29.181|56=EXC|10=123|
8=FIX.4.4|9=0050|35=0|34=61|49=EXC|56=029|52=20190809-16:28:30.000|10=227|
8=FIX.4.4|9=60|35=0|34=61|49=029|50=029B17|52=20190808-16:27:59.182|56=EXC|10=128|
8=FIX.4.4|9=0050|35=0|34=62|49=EXC|56=029|52=20190809-16:29:00.000|10=226|
8=FIX.4.4|9=60|35=0|34=62|49=029|50=029B17|52=20190808-16:28:29.180|56=EXC|10=125|
8=FIX.4.4|9=0050|35=0|34=63|49=EXC|56=029|52=20190809-16:29:30.000|10=230|
8=FIX.4.4|9=60|35=0|34=63|49=029|50=029B17|52=20190808-16:28:59.525|56=EXC|10=132|
8=FIX.4.4|9=0050|35=0|34=64|49=EXC|56=029|52=20190809-16:30:00.000|10=220|
8=FIX.4.4|9=60|35=0|34=64|49=029|50=029B17|52=20190808-16:29:30.168|56=EXC|10=126|
8=FIX.4.4|9=0050|35=0|34=65|49=EXC|56=029|52=20190809-16:30:30.000|10=224|
8=FIX.4.4|9=60|35=0|34=65|49=029|50=029B17|52=20190808-16:30:00.357|56=EXC|10=116|
8=FIX.4.4|9=0050|35=0|34=66|49=EXC|56=029|52=20190809-16:31:00.000|10=223|
8=FIX.4.4|9=60|35=0|34=66|49=029|50=029B17|52=20190808-16:30:31.168|56=EXC|10=121|
8=FIX.4.4|9=0050|35=0|34=67|49=EXC|56=029|52=20190809-16:31:30.000|10=227|
8=FIX.4.4|9=60|35=0|34=67|49=029|50=029B17|52=20190808-16:31:01.173|56=EXC|10=116|
8=FIX.4.4|9=0050|35=0|34=68|49=EXC|56=029|52=20190809-16:32:00.000|10=226|
8=FIX.4.4|9=60|35=0|34=68|49=029|50=029B17|52=20190808-16:31:31.176|56=EXC|10=123|
8=FIX.4.4|9=0050|35=0|34=69|49=EXC|56=029|52=20190809-16:32:30.000|10=230|
8=FIX.4.4|9=60|35=0|34=69|49=029|50=029B17|52=20190808-16:32:02.000|56=EXC|10=109|
8=FIX.4.4|9=0050|35=0|34=70|49=EXC|56=029|52=20190809-16:33:00.000|10=220|
8=FIX.4.4|9=60|35=0|34=70|49=029|50=029B17|52=20190808-16:32:32.171|56=EXC|10=113|
8=FIX.4.4|9=0050|35=0|34=71|49=EXC|56=029|52=20190809-16:33:30.000|10=224|
8=FIX.4.4|9=60|35=0|34=71|49=029|50=029B17|52=20190808-16:33:02.812|56=EXC|10=114|
8=FIX.4.4|9=0050|35=0|34=72|49=EXC|56=029|52=20190809-16:34:00.000|10=223|
8=FIX.4.4|9=60|35=0|34=72|49=029|50=029B17|52=20190808-16:33:33.179|56=EXC|10=125|
8=FIX.4.4|9=0050|35=0|34=73|49=EXC|56=029|52=20190809-16:34:30.000|10=227|
8=FIX.4.4|9=60|35=0|34=73|49=029|50=029B17|52=20190808-16:34:03.649|56=EXC|10=126|
8=FIX.4.4|9=0050|35=0|34=74|49=EXC|56=029|52=20190809-16:35:00.000|10=226|
8=FIX.4.4|9=60|35=0|34=74|49=029|50=029B17|52=20190808-16:34:34.169|56=EXC|10=128|
8=FIX.4.4|9=0050|35=0|34=75|49=EXC|56=029|52=20190809-16:35:30.000|10=230|
8=FIX.4.4|9=60|35=0|34=75|49=029|50=029B17|52=20190808-16:35:04.470|56=EXC|10=122|
8=FIX.4.4|9=0050|35=0|34=76|49=EXC|56=029|52=20190809-16:36:00.000|10=229|
8=FIX.4.4|9=0050|35=0|34=77|49=EXC|56=029|52=20190809-16:36:30.000|10=233|
8=FIX.4.4|9=60|35=0|34=76|49=029|50=029B17|52=20190808-16:35:35.006|56=EXC|10=122|
8=FIX.4.4|9=0050|35=0|34=78|49=EXC|56=029|52=20190809-16:37:00.000|10=232|
8=FIX.4.4|9=60|35=0|34=77|49=029|50=029B17|52=20190808-16:36:05.003|56=EXC|10=118|
8=FIX.4.4|9=0050|35=0|34=79|49=EXC|56=029|52=20190809-16:37:30.000|10=236|
8=FIX.4.4|9=60|35=0|34=78|49=029|50=029B17|52=20190808-16:36:34.999|56=EXC|10=145|
8=FIX.4.4|9=0050|35=0|34=80|49=EXC|56=029|52=20190809-16:38:00.000|10=226|
8=FIX.4.4|9=60|35=0|34=79|49=029|50=029B17|52=20190808-16:37:05.004|56=EXC|10=122|
8=FIX.4.4|9=0050|35=0|34=81|49=EXC|56=029|52=20190809-16:38:30.000|10=230|
8=FIX.4.4|9=60|35=0|34=80|49=029|50=029B17|52=20190808-16:37:35.006|56=EXC|10=119|
8=FIX.4.4|9=0050|35=0|34=82|49=EXC|56=029|52=20190809-16:39:00.000|10=229|
8=FIX.4.4|9=60|35=0|34=81|49=029|50=029B17|52=20190808-16:38:05.854|56=EXC|10=129|
8=FIX.4.4|9=0050|35=0|34=83|49=EXC|56=029|52=20190809-16:39:30.000|10=233|
8=FIX.4.4|9=60|35=0|34=82|49=029|50=029B17|52=20190808-16:38:36.182|56=EXC|10=128|
8=FIX.4.4|9=0050|35=0|34=84|49=EXC|56=029|52=20190809-16:40:00.000|10=223|
8=FIX.4.4|9=60|35=0|34=83|49=029|50=029B17|52=20190808-16:39:06.665|56=EXC|10=133|
8=FIX.4.4|9=0050|35=0|34=85|49=EXC|56=029|52=20190809-16:40:30.000|10=227|
8=FIX.4.4|9=60|35=0|34=84|49=029|50=029B17|52=20190808-16:39:37.181|56=EXC|10=131|
8=FIX.4.4|9=0050|35=0|34=86|49=EXC|56=029|52=20190809-16:41:00.000|10=226|
8=FIX.4.4|9=60|35=0|34=85|49=029|50=029B17|52=20190808-16:40:07.355|56=EXC|10=124|
8=FIX.4.4|9=0050|35=0|34=87|49=EXC|56=029|52=20190809-16:41:30.000|10=230|
8=FIX.4.4|9=60|35=0|34=86|49=029|50=029B17|52=20190808-16:40:38.167|56=EXC|10=130|
8=FIX.4.4|9=0050|35=0|34=88|49=EXC|56=029|52=20190809-16:42:00.000|10=229|
8=FIX.4.4|9=60|35=0|34=87|49=029|50=029B17|52=20190808-16:41:08.195|56=EXC|10=130|
8=FIX.4.4|9=0050|35=0|34=89|49=EXC|56=029|52=20190809-16:42:30.000|10=233|
8=FIX.4.4|9=60|35=0|34=88|49=029|50=029B17|52=20190808-16:41:39.166|56=EXC|10=133|
8=FIX.4.4|9=0050|35=0|34=90|49=EXC|56=029|52=20190809-16:43:00.000|10=223|
8=FIX.4.4|9=60|35=0|34=89|49=029|50=029B17|52=20190808-16:42:10.035|56=EXC|10=119|
8=FIX.4.4|9=0050|35=0|34=91|49=EXC|56=029|52=20190809-16:43:30.000|10=227|
8=FIX.4.4|9=60|35=0|34=90|49=029|50=029B17|52=20190808-16:42:40.170|56=EXC|10=114|
8=FIX.4.4|9=110|35=A|34=1|49=029|50=029B17|52=20190808-16:43:01.216|56=EXC|43=N|98=0|108=30|141=Y|553=029FCM001|554=029FCM001|10=106|
8=FIX.4.4|9=110|35=A|34=1|49=029|50=029B17|52=20190808-16:44:02.200|56=EXC|43=N|98=0|108=30|141=Y|553=029FCM001|554=029FCM001|10=101|
8=FIX.4.4|9=0067|35=A|34=1|49=EXC|56=029|52=20190809-16:44:57.225|98=0|108=30|141=Y|10=028|
8=FIX.4.4|9=0049|35=0|34=2|49=EXC|56=029|52=20190809-16:45:27.000|10=187|
8=FIX.4.4|9=59|35=0|34=2|49=029|50=029B17|52=20190808-16:44:33.176|56=EXC|10=077|
8=FIX.4.4|9=0049|35=0|34=3|49=EXC|56=029|52=20190809-16:45:57.000|10=191|
8=FIX.4.4|9=59|35=0|34=3|49=029|50=029B17|52=20190808-16:45:03.172|56=EXC|10=072|
8=FIX.4.4|9=110|35=A|34=1|49=029|50=029B17|52=20190808-16:45:05.289|56=EXC|43=N|98=0|108=30|141=Y|553=029FCM001|554=029FCM001|10=122|
8=FIX.4.4|9=110|35=A|34=1|49=029|50=029B17|52=20190808-16:46:06.187|56=EXC|43=N|98=0|108=30|141=Y|553=029FCM001|554=029FCM001|10=121|
8=FIX.4.4|9=0067|35=A|34=1|49=EXC|56=029|52=20190809-16:47:01.223|98=0|108=30|141=Y|10=018|
8=FIX.4.4|9=0049|35=0|34=2|49=EXC|56=029|52=20190809-16:47:31.000|10=184|
8=FIX.4.4|9=59|35=0|34=2|49=029|50=029B17|52=20190808-16:46:37.177|56=EXC|10=084|
8=FIX.4.4|9=0049|35=0|34=3|49=EXC|56=029|52=20190809-16:48:01.000|10=183|
8=FIX.4.4|9=59|35=0|34=3|49=029|50=029B17|52=20190808-16:47:07.173|56=EXC|10=079|
8=FIX.4.4|9=110|35=A|34=1|49=029|50=029B17|52=20190808-16:47:08.282|56=EXC|43=N|98=0|108=30|141=Y|553=029FCM001|554=029FCM001|10=120|
8=FIX.4.4|9=110|35=A|34=1|49=029|50=029B17|52=20190808-16:48:09.268|56=EXC|43=N|98=0|108=30|141=Y|553=029FCM001|554=029FCM001|10=126|
8=FIX.4.4|9=0067|35=A|34=1|49=EXC|56=029|52=20190809-16:49:04.322|98=0|108=30|141=Y|10=023|
8=FIX.4.4|9=0049|35=0|34=2|49=EXC|56=029|52=20190809-16:49:34.000|10=189|
8=FIX.4.4|9=59|35=0|34=2|49=029|50=029B17|52=20190808-16:48:40.180|56=EXC|10=074|
8=FIX.4.4|9=0049|35=0|34=3|49=EXC|56=029|52=20190809-16:50:04.000|10=179|
8=FIX.4.4|9=59|35=0|34=3|49=029|50=029B17|52=20190808-16:49:10.177|56=EXC|10=079|
8=FIX.4.4|9=110|35=A|34=1|49=029|50=029B17|52=20190808-16:49:12.186|56=EXC|43=N|98=0|108=30|141=Y|553=029FCM001|554=029FCM001|10=120|
8=FIX.4.4|9=110|35=A|34=1|49=029|50=029B17|52=20190808-16:50:13.184|56=EXC|43=N|98=0|108=30|141=Y|553=029FCM001|554=029FCM001|10=111|
8=FIX.4.4|9=0067|35=A|34=1|49=EXC|56=029|52=20190809-16:51:08.235|98=0|108=30|141=Y|10=023|
8=FIX.4.4|9=0049|35=0|34=2|49=EXC|56=029|52=20190809-16:51:38.000|10=186|
8=FIX.4.4|9=59|35=0|34=2|49=029|50=029B17|52=20190808-16:50:44.176|56=EXC|10=076|
8=FIX.4.4|9=0049|35=0|34=3|49=EXC|56=029|52=20190809-16:52:08.000|10=185|
8=FIX.4.4|9=59|35=0|34=3|49=029|50=029B17|52=20190808-16:51:14.176|56=EXC|10=075|
8=FIX.4.4|9=110|35=A|34=1|49=029|50=029B17|52=20190808-16:51:16.583|56=EXC|43=N|98=0|108=30|141=Y|553=029FCM001|554=029FCM001|10=118|
8=FIX.4.4|9=110|35=A|34=1|49=029|50=029B17|52=20190808-16:52:17.502|56=EXC|43=N|98=0|108=30|141=Y|553=029FCM001|554=029FCM001|10=111|
8=FIX.4.4|9=0067|35=A|34=1|49=EXC|56=029|52=20190809-16:53:12.556|98=0|108=30|141=Y|10=026|
8=FIX.4.4|9=0049|35=0|34=2|49=EXC|56=029|52=20190809-16:53:42.000|10=183|
8=FIX.4.4|9=59|35=0|34=2|49=029|50=029B17|52=20190808-16:52:48.177|56=EXC|10=083|
8=FIX.4.4|9=0049|35=0|34=3|49=EXC|56=029|52=20190809-16:54:12.000|10=182|
8=FIX.4.4|9=59|35=0|34=3|49=029|50=029B17|52=20190808-16:53:18.373|56=EXC|10=080|
8=FIX.4.4|9=110|35=A|34=1|49=029|50=029B17|52=20190808-16:53:19.534|56=EXC|43=N|98=0|108=30|141=Y|553=029FCM001|554=029FCM001|10=119|
8=FIX.4.4|9=110|35=A|34=1|49=029|50=029B17|52=20190808-16:54:19.475|56=EXC|43=N|98=0|108=30|141=Y|553=029FCM001|554=029FCM001|10=124|
8=FIX.4.4|9=0067|35=A|34=1|49=EXC|56=029|52=20190809-16:55:14.525|98=0|108=30|141=Y|10=026|
8=FIX.4.4|9=0049|35=0|34=2|49=EXC|56=029|52=20190809-16:55:44.000|10=187|
8=FIX.4.4|9=59|35=0|34=2|49=029|50=029B17|52=20190808-16:54:50.171|56=EXC|10=072|
8=FIX.4.4|9=0049|35=0|34=3|49=EXC|56=029|52=20190809-16:56:14.000|10=186|
8=FIX.4.4|9=59|35=0|34=3|49=029|50=029B17|52=20190808-16:55:20.417|56=EXC|10=074|
8=FIX.4.4|9=0049|35=0|34=4|49=EXC|56=029|52=20190809-16:56:44.000|10=190|
8=FIX.4.4|9=59|35=0|34=4|49=029|50=029B17|52=20190808-16:55:51.169|56=EXC|10=083|
8=FIX.4.4|9=0049|35=0|34=5|49=EXC|56=029|52=20190809-16:57:14.000|10=189|
8=FIX.4.4|9=59|35=0|34=5|49=029|50=029B17|52=20190808-16:56:21.169|56=EXC|10=082|
8=FIX.4.4|9=0049|35=0|34=6|49=EXC|56=029|52=20190809-16:57:44.000|10=193|
8=FIX.4.4|9=59|35=0|34=6|49=029|50=029B17|52=20190808-16:56:51.169|56=EXC|10=086|
8=FIX.4.4|9=0049|35=0|34=7|49=EXC|56=029|52=20190809-16:58:14.000|10=192|
8=FIX.4.4|9=59|35=0|34=7|49=029|50=029B17|52=20190808-16:57:21.949|56=EXC|10=091|
8=FIX.4.4|9=0049|35=0|34=8|49=EXC|56=029|52=20190809-16:58:44.000|10=196|
8=FIX.4.4|9=59|35=0|34=8|49=029|50=029B17|52=20190808-16:57:52.167|56=EXC|10=088|
8=FIX.4.4|9=0049|35=0|34=9|49=EXC|56=029|52=20190809-16:59:14.000|10=195|
8=FIX.4.4|9=59|35=0|34=9|49=029|50=029B17|52=20190808-16:58:22.824|56=EXC|10=087|
8=FIX.4.4|9=0050|35=0|34=10|49=EXC|56=029|52=20190809-16:59:44.000|10=230|
8=FIX.4.4|9=60|35=0|34=10|49=029|50=029B17|52=20190808-16:58:53.167|56=EXC|10=123|
8=FIX.4.4|9=0050|35=0|34=11|49=EXC|56=029|52=20190809-17:00:14.000|10=215|
8=FIX.4.4|9=60|35=0|34=11|49=029|50=029B17|52=20190808-16:59:23.682|56=EXC|10=124|
8=FIX.4.4|9=0050|35=0|34=12|49=EXC|56=029|52=20190809-17:00:44.000|10=219|
8=FIX.4.4|9=60|35=0|34=12|49=029|50=029B17|52=20190808-16:59:54.181|56=EXC|10=123|
8=FIX.4.4|9=0050|35=0|34=13|49=EXC|56=029|52=20190809-17:01:14.000|10=218|
8=FIX.4.4|9=60|35=0|34=13|49=029|50=029B17|52=20190808-17:00:24.413|56=EXC|10=106|
8=FIX.4.4|9=0050|35=0|34=14|49=EXC|56=029|52=20190809-17:01:44.000|10=222|
8=FIX.4.4|9=60|35=0|34=14|49=029|50=029B17|52=20190808-17:00:55.180|56=EXC|10=112|
8=FIX.4.4|9=0050|35=0|34=15|49=EXC|56=029|52=20190809-17:02:14.000|10=221|
8=FIX.4.4|9=60|35=0|34=15|49=029|50=029B17|52=20190808-17:01:25.227|56=EXC|10=113|
8=FIX.4.4|9=0050|35=0|34=16|49=EXC|56=029|52=20190809-17:02:44.000|10=225|
8=FIX.4.4|9=60|35=0|34=16|49=029|50=029B17|52=20190808-17:01:56.181|56=EXC|10=117|
8=FIX.4.4|9=110|35=A|34=1|49=029|50=029B17|52=20190808-17:02:16.204|56=EXC|43=N|98=0|108=30|141=Y|553=029FCM001|554=029FCM001|10=105|
8=FIX.4.4|9=110|35=A|34=1|49=029|50=029B17|52=20190808-17:03:17.202|56=EXC|43=N|98=0|108=30|141=Y|553=029FCM001|554=029FCM001|10=105|
8=FIX.4.4|9=0067|35=A|34=1|49=EXC|56=029|52=20190809-17:04:12.255|98=0|108=30|141=Y|10=019|
8=FIX.4.4|9=0049|35=0|34=2|49=EXC|56=029|52=20190809-17:04:42.000|10=180|
8=FIX.4.4|9=59|35=0|34=2|49=029|50=029B17|52=20190808-17:03:48.176|56=EXC|10=079|
8=FIX.4.4|9=0049|35=0|34=3|49=EXC|56=029|52=20190809-17:05:12.000|10=179|
8=FIX.4.4|9=59|35=0|34=3|49=029|50=029B17|52=20190808-17:04:18.177|56=EXC|10=079|
8=FIX.4.4|9=0049|35=0|34=4|49=EXC|56=029|52=20190809-17:05:42.000|10=183|
8=FIX.4.4|9=59|35=0|34=4|49=029|50=029B17|52=20190808-17:04:48.177|56=EXC|10=083|
8=FIX.4.4|9=0049|35=0|34=5|49=EXC|56=029|52=20190809-17:06:12.000|10=182|
8=FIX.4.4|9=59|35=0|34=5|49=029|50=029B17|52=20190808-17:05:18.176|56=EXC|10=081|
8=FIX.4.4|9=0049|35=0|34=6|49=EXC|56=029|52=20190809-17:06:42.000|10=186|
8=FIX.4.4|9=59|35=0|34=6|49=029|50=029B17|52=20190808-17:05:48.167|56=EXC|10=085|
8=FIX.4.4|9=0049|35=0|34=7|49=EXC|56=029|52=20190809-17:07:12.000|10=185|
8=FIX.4.4|9=59|35=0|34=7|49=029|50=029B17|52=20190808-17:06:18.168|56=EXC|10=085|
8=FIX.4.4|9=0049|35=0|34=8|49=EXC|56=029|52=20190809-17:07:42.000|10=189|
8=FIX.4.4|9=59|35=0|34=8|49=029|50=029B17|52=20190808-17:06:48.168|56=EXC|10=089|
8=FIX.4.4|9=0049|35=0|34=9|49=EXC|56=029|52=20190809-17:08:12.000|10=188|
8=FIX.4.4|9=59|35=0|34=9|49=029|50=029B17|52=20190808-17:07:18.177|56=EXC|10=088|
8=FIX.4.4|9=0050|35=0|34=10|49=EXC|56=029|52=20190809-17:08:42.000|10=223|
8=FIX.4.4|9=60|35=0|34=10|49=029|50=029B17|52=20190808-17:07:48.174|56=EXC|10=120|
8=FIX.4.4|9=0050|35=0|34=11|49=EXC|56=029|52=20190809-17:09:12.000|10=222|
8=FIX.4.4|9=60|35=0|34=11|49=029|50=029B17|52=20190808-17:08:18.173|56=EXC|10=118|
8=FIX.4.4|9=0050|35=0|34=12|49=EXC|56=029|52=20190809-17:09:42.000|10=226|
8=FIX.4.4|9=60|35=0|34=12|49=029|50=029B17|52=20190808-17:08:48.173|56=EXC|10=122|
8=FIX.4.4|9=0050|35=0|34=13|49=EXC|56=029|52=20190809-17:10:12.000|10=216|
8=FIX.4.4|9=60|35=0|34=13|49=029|50=029B17|52=20190808-17:09:18.173|56=EXC|10=121|
8=FIX.4.4|9=0050|35=0|34=14|49=EXC|56=029|52=20190809-17:10:42.000|10=220|
8=FIX.4.4|9=60|35=0|34=14|49=029|50=029B17|52=20190808-17:09:48.172|56=EXC|10=124|
8=FIX.4.4|9=0050|35=0|34=15|49=EXC|56=029|52=20190809-17:11:12.000|10=219|
8=FIX.4.4|9=60|35=0|34=15|49=029|50=029B17|52=20190808-17:10:18.172|56=EXC|10=114|
8=FIX.4.4|9=0050|35=0|34=16|49=EXC|56=029|52=20190809-17:11:42.000|10=223|
8=FIX.4.4|9=60|35=0|34=16|49=029|50=029B17|52=20190808-17:10:48.171|56=EXC|10=117|
8=FIX.4.4|9=0050|35=0|34=17|49=EXC|56=029|52=20190809-17:12:12.000|10=222|
8=FIX.4.4|9=60|35=0|34=17|49=029|50=029B17|52=20190808-17:11:18.171|56=EXC|10=116|
8=FIX.4.4|9=0050|35=0|34=18|49=EXC|56=029|52=20190809-17:12:42.000|10=226|
8=FIX.4.4|9=60|35=0|34=18|49=029|50=029B17|52=20190808-17:11:48.170|56=EXC|10=119|
8=FIX.4.4|9=0050|35=0|34=19|49=EXC|56=029|52=20190809-17:13:12.000|10=225|
8=FIX.4.4|9=60|35=0|34=19|49=029|50=029B17|52=20190808-17:12:18.172|56=EXC|10=120|
8=FIX.4.4|9=0050|35=0|34=20|49=EXC|56=029|52=20190809-17:13:42.000|10=220|
8=FIX.4.4|9=60|35=0|34=20|49=029|50=029B17|52=20190808-17:12:48.170|56=EXC|10=113|
8=FIX.4.4|9=0050|35=0|34=21|49=EXC|56=029|52=20190809-17:14:12.000|10=219|
8=FIX.4.4|9=60|35=0|34=21|49=029|50=029B17|52=20190808-17:13:18.169|56=EXC|10=120|
8=FIX.4.4|9=0050|35=0|34=22|49=EXC|56=029|52=20190809-17:14:42.000|10=223|
8=FIX.4.4|9=60|35=0|34=22|49=029|50=029B17|52=20190808-17:13:48.168|56=EXC|10=123|
8=FIX.4.4|9=0050|35=0|34=23|49=EXC|56=029|52=20190809-17:15:12.000|10=222|
8=FIX.4.4|9=60|35=0|34=23|49=029|50=029B17|52=20190808-17:14:18.168|56=EXC|10=122|
8=FIX.4.4|9=0050|35=0|34=24|49=EXC|56=029|52=20190809-17:15:42.000|10=226|
8=FIX.4.4|9=60|35=0|34=24|49=029|50=029B17|52=20190808-17:14:48.168|56=EXC|10=126|
8=FIX.4.4|9=0050|35=0|34=25|49=EXC|56=029|52=20190809-17:16:12.000|10=225|
8=FIX.4.4|9=60|35=0|34=25|49=029|50=029B17|52=20190808-17:15:18.168|56=EXC|10=125|
8=FIX.4.4|9=0050|35=0|34=26|49=EXC|56=029|52=20190809-17:16:42.000|10=229|
8=FIX.4.4|9=60|35=0|34=26|49=029|50=029B17|52=20190808-17:15:48.167|56=EXC|10=128|
8=FIX.4.4|9=0050|35=0|34=27|49=EXC|56=029|52=20190809-17:17:12.000|10=228|
8=FIX.4.4|9=60|35=0|34=27|49=029|50=029B17|52=20190808-17:16:18.167|56=EXC|10=127|
8=FIX.4.4|9=0050|35=0|34=28|49=EXC|56=029|52=20190809-17:17:42.000|10=232|
8=FIX.4.4|9=60|35=0|34=28|49=029|50=029B17|52=20190808-17:16:48.182|56=EXC|10=128|
8=FIX.4.4|9=0050|35=0|34=29|49=EXC|56=029|52=20190809-17:18:12.000|10=231|
8=FIX.4.4|9=60|35=0|34=29|49=029|50=029B17|52=20190808-17:17:19.170|56=EXC|10=125|
8=FIX.4.4|9=0050|35=0|34=30|49=EXC|56=029|52=20190809-17:18:42.000|10=226|
8=FIX.4.4|9=60|35=0|34=30|49=029|50=029B17|52=20190808-17:17:49.171|56=EXC|10=121|
8=FIX.4.4|9=0050|35=0|34=31|49=EXC|56=029|52=20190809-17:19:12.000|10=225|
8=FIX.4.4|9=60|35=0|34=31|49=029|50=029B17|52=20190808-17:18:19.168|56=EXC|10=126|
8=FIX.4.4|9=0050|35=0|34=32|49=EXC|56=029|52=20190809-17:19:42.000|10=229|
8=FIX.4.4|9=60|35=0|34=32|49=029|50=029B17|52=20190808-17:18:49.167|56=EXC|10=129|
8=FIX.4.4|9=0050|35=0|34=33|49=EXC|56=029|52=20190809-17:20:12.000|10=219|
8=FIX.4.4|9=60|35=0|34=33|49=029|50=029B17|52=20190808-17:19:19.167|56=EXC|10=128|
8=FIX.4.4|9=0050|35=0|34=34|49=EXC|56=029|52=20190809-17:20:42.000|10=223|
8=FIX.4.4|9=60|35=0|34=34|49=029|50=029B17|52=20190808-17:19:49.175|56=EXC|10=131|
8=FIX.4.4|9=0050|35=0|34=35|49=EXC|56=029|52=20190809-17:21:12.000|10=222|
8=FIX.4.4|9=60|35=0|34=35|49=029|50=029B17|52=20190808-17:20:19.182|56=EXC|10=119|
8=FIX.4.4|9=0050|35=0|34=36|49=EXC|56=029|52=20190809-17:21:42.000|10=226|
8=FIX.4.4|9=60|35=0|34=36|49=029|50=029B17|52=20190808-17:20:49.182|56=EXC|10=123|
8=FIX.4.4|9=0050|35=0|34=37|49=EXC|56=029|52=20190809-17:22:12.000|10=225|
8=FIX.4.4|9=60|35=0|34=37|49=029|50=029B17|52=20190808-17:21:19.182|56=EXC|10=122|
8=FIX.4.4|9=0050|35=0|34=38|49=EXC|56=029|52=20190809-17:22:42.000|10=229|
8=FIX.4.4|9=60|35=0|34=38|49=029|50=029B17|52=20190808-17:21:49.181|56=EXC|10=125|
8=FIX.4.4|9=0050|35=0|34=39|49=EXC|56=029|52=20190809-17:23:12.000|10=228|
8=FIX.4.4|9=60|35=0|34=39|49=029|50=029B17|52=20190808-17:22:19.180|56=EXC|10=123|
8=FIX.4.4|9=0050|35=0|34=40|49=EXC|56=029|52=20190809-17:23:42.000|10=223|
8=FIX.4.4|9=60|35=0|34=40|49=029|50=029B17|52=20190808-17:22:49.180|56=EXC|10=118|
8=FIX.4.4|9=0050|35=0|34=41|49=EXC|56=029|52=20190809-17:24:12.000|10=222|
8=FIX.4.4|9=60|35=0|34=41|49=029|50=029B17|52=20190808-17:23:19.179|56=EXC|10=125|
8=FIX.4.4|9=0050|35=0|34=42|49=EXC|56=029|52=20190809-17:24:42.000|10=226|
8=FIX.4.4|9=60|35=0|34=42|49=029|50=029B17|52=20190808-17:23:50.167|56=EXC|10=118|
8=FIX.4.4|9=0050|35=0|34=43|49=EXC|56=029|52=20190809-17:25:12.000|10=225|
8=FIX.4.4|9=60|35=0|34=43|49=029|50=029B17|52=20190808-17:24:20.179|56=EXC|10=120|
8=FIX.4.4|9=0050|35=0|34=44|49=EXC|56=029|52=20190809-17:25:42.000|10=229|
8=FIX.4.4|9=60|35=0|34=44|49=029|50=029B17|52=20190808-17:24:50.176|56=EXC|10=121|
8=FIX.4.4|9=0050|35=0|34=45|49=EXC|56=029|52=20190809-17:26:12.000|10=228|
8=FIX.4.4|9=60|35=0|34=45|49=029|50=029B17|52=20190808-17:25:20.167|56=EXC|10=120|
8=FIX.4.4|9=0050|35=0|34=46|49=EXC|56=029|52=20190809-17:26:42.000|10=232|
8=FIX.4.4|9=60|35=0|34=46|49=029|50=029B17|52=20190808-17:25:50.181|56=EXC|10=120|
8=FIX.4.4|9=0050|35=0|34=47|49=EXC|56=029|52=20190809-17:27:12.000|10=231|
8=FIX.4.4|9=60|35=0|34=47|49=029|50=029B17|52=20190808-17:26:20.174|56=EXC|10=121|
8=FIX.4.4|9=0050|35=0|34=48|49=EXC|56=029|52=20190809-17:27:42.000|10=235|
8=FIX.4.4|9=60|35=0|34=48|49=029|50=029B17|52=20190808-17:26:50.179|56=EXC|10=130|
8=FIX.4.4|9=0050|35=0|34=49|49=EXC|56=029|52=20190809-17:28:12.000|10=234|
8=FIX.4.4|9=60|35=0|34=49|49=029|50=029B17|52=20190808-17:27:20.176|56=EXC|10=126|
8=FIX.4.4|9=0050|35=0|34=50|49=EXC|56=029|52=20190809-17:28:42.000|10=229|
8=FIX.4.4|9=60|35=0|34=50|49=029|50=029B17|52=20190808-17:27:50.177|56=EXC|10=122|
8=FIX.4.4|9=0050|35=0|34=51|49=EXC|56=029|52=20190809-17:29:12.000|10=228|
8=FIX.4.4|9=60|35=0|34=51|49=029|50=029B17|52=20190808-17:28:20.175|56=EXC|10=119|
8=FIX.4.4|9=0050|35=0|34=52|49=EXC|56=029|52=20190809-17:29:42.000|10=232|
8=FIX.4.4|9=60|35=0|34=52|49=029|50=029B17|52=20190808-17:28:50.174|56=EXC|10=122|
8=FIX.4.4|9=0050|35=0|34=53|49=EXC|56=029|52=20190809-17:30:12.000|10=222|
8=FIX.4.4|9=60|35=0|34=53|49=029|50=029B17|52=20190808-17:29:20.174|56=EXC|10=121|
8=FIX.4.4|9=0050|35=0|34=54|49=EXC|56=029|52=20190809-17:30:42.000|10=226|
8=FIX.4.4|9=60|35=0|34=54|49=029|50=029B17|52=20190808-17:29:50.179|56=EXC|10=130|
8=FIX.4.4|9=0050|35=0|34=55|49=EXC|56=029|52=20190809-17:31:12.000|10=225|
8=FIX.4.4|9=60|35=0|34=55|49=029|50=029B17|52=20190808-17:30:20.174|56=EXC|10=115|
8=FIX.4.4|9=0050|35=0|34=56|49=EXC|56=029|52=20190809-17:31:42.000|10=229|
8=FIX.4.4|9=60|35=0|34=56|49=029|50=029B17|52=20190808-17:30:50.176|56=EXC|10=121|
8=FIX.4.4|9=0050|35=0|34=57|49=EXC|56=029|52=20190809-17:32:12.000|10=228|
8=FIX.4.4|9=60|35=0|34=57|49=029|50=029B17|52=20190808-17:31:20.172|56=EXC|10=116|
8=FIX.4.4|9=0050|35=0|34=58|49=EXC|56=029|52=20190809-17:32:42.000|10=232|
8=FIX.4.4|9=60|35=0|34=58|49=029|50=029B17|52=20190808-17:31:50.181|56=EXC|10=120|
8=FIX.4.4|9=0050|35=0|34=59|49=EXC|56=029|52=20190809-17:33:12.000|10=231|
8=FIX.4.4|9=60|35=0|34=59|49=029|50=029B17|52=20190808-17:32:20.180|56=EXC|10=118|
8=FIX.4.4|9=0050|35=0|34=60|49=EXC|56=029|52=20190809-17:33:42.000|10=226|
8=FIX.4.4|9=60|35=0|34=60|49=029|50=029B17|52=20190808-17:32:50.171|56=EXC|10=113|
8=FIX.4.4|9=0050|35=0|34=61|49=EXC|56=029|52=20190809-17:34:12.000|10=225|
8=FIX.4.4|9=60|35=0|34=61|49=029|50=029B17|52=20190808-17:33:20.171|56=EXC|10=112|
8=FIX.4.4|9=0050|35=0|34=62|49=EXC|56=029|52=20190809-17:34:42.000|10=229|
8=FIX.4.4|9=60|35=0|34=62|49=029|50=029B17|52=20190808-17:33:50.169|56=EXC|10=123|
8=FIX.4.4|9=0050|35=0|34=63|49=EXC|56=029|52=20190809-17:35:12.000|10=228|
8=FIX.4.4|9=60|35=0|34=63|49=029|50=029B17|52=20190808-17:34:20.168|56=EXC|10=121|
8=FIX.4.4|9=0050|35=0|34=64|49=EXC|56=029|52=20190809-17:35:42.000|10=232|
8=FIX.4.4|9=60|35=0|34=64|49=029|50=029B17|52=20190808-17:34:50.171|56=EXC|10=119|
8=FIX.4.4|9=0050|35=0|34=65|49=EXC|56=029|52=20190809-17:36:12.000|10=231|
8=FIX.4.4|9=60|35=0|34=65|49=029|50=029B17|52=20190808-17:35:20.181|56=EXC|10=119|
8=FIX.4.4|9=0050|35=0|34=66|49=EXC|56=029|52=20190809-17:36:42.000|10=235|
8=FIX.4.4|9=60|35=0|34=66|49=029|50=029B17|52=20190808-17:35:50.697|56=EXC|10=135|
8=FIX.4.4|9=0050|35=0|34=67|49=EXC|56=029|52=20190809-17:37:12.000|10=234|
8=FIX.4.4|9=60|35=0|34=67|49=029|50=029B17|52=20190808-17:36:21.180|56=EXC|10=122|
8=FIX.4.4|9=0050|35=0|34=68|49=EXC|56=029|52=20190809-17:37:42.000|10=238|
8=FIX.4.4|9=60|35=0|34=68|49=029|50=029B17|52=20190808-17:36:51.476|56=EXC|10=134|
8=FIX.4.4|9=0050|35=0|34=69|49=EXC|56=029|52=20190809-17:38:12.000|10=237|
8=FIX.4.4|9=60|35=0|34=69|49=029|50=029B17|52=20190808-17:37:22.178|56=EXC|10=133|
8=FIX.4.4|9=0050|35=0|34=70|49=EXC|56=029|52=20190809-17:38:42.000|10=232|
8=FIX.4.4|9=60|35=0|34=70|49=029|50=029B17|52=20190808-17:37:52.335|56=EXC|10=123|
8=FIX.4.4|9=0050|35=0|34=71|49=EXC|56=029|52=20190809-17:39:12.000|10=231|
8=FIX.4.4|9=60|35=0|34=71|49=029|50=029B17|52=20190808-17:38:23.180|56=EXC|10=121|
8=FIX.4.4|9=0050|35=0|34=72|49=EXC|56=029|52=20190809-17:39:42.000|10=235|
8=FIX.4.4|9=60|35=0|34=72|49=029|50=029B17|52=20190808-17:38:53.177|56=EXC|10=131|
8=FIX.4.4|9=0050|35=0|34=73|49=EXC|56=029|52=20190809-17:40:12.000|10=225|
8=FIX.4.4|9=60|35=0|34=73|49=029|50=029B17|52=20190808-17:39:23.176|56=EXC|10=129|
8=FIX.4.4|9=0050|35=0|34=74|49=EXC|56=029|52=20190809-17:40:42.000|10=229|
8=FIX.4.4|9=60|35=0|34=74|49=029|50=029B17|52=20190808-17:39:53.879|56=EXC|10=143|
8=FIX.4.4|9=0050|35=0|34=75|49=EXC|56=029|52=20190809-17:41:12.000|10=228|
8=FIX.4.4|9=60|35=0|34=75|49=029|50=029B17|52=20190808-17:40:24.175|56=EXC|10=123|
8=FIX.4.4|9=0050|35=0|34=76|49=EXC|56=029|52=20190809-17:41:42.000|10=232|
8=FIX.4.4|9=60|35=0|34=76|49=029|50=029B17|52=20190808-17:40:54.628|56=EXC|10=130|
8=FIX.4.4|9=0050|35=0|34=77|49=EXC|56=029|52=20190809-17:42:12.000|10=231|
8=FIX.4.4|9=60|35=0|34=77|49=029|50=029B17|52=20190808-17:41:25.174|56=EXC|10=126|
8=FIX.4.4|9=0050|35=0|34=78|49=EXC|56=029|52=20190809-17:42:42.000|10=235|
8=FIX.4.4|9=60|35=0|34=78|49=029|50=029B17|52=20190808-17:41:55.412|56=EXC|10=125|
8=FIX.4.4|9=0050|35=0|34=79|49=EXC|56=029|52=20190809-17:43:12.000|10=234|
8=FIX.4.4|9=60|35=0|34=79|49=029|50=029B17|52=20190808-17:42:26.173|56=EXC|10=129|
8=FIX.4.4|9=0050|35=0|34=80|49=EXC|56=029|52=20190809-17:43:42.000|10=229|
8=FIX.4.4|9=60|35=0|34=80|49=029|50=029B17|52=20190808-17:42:56.220|56=EXC|10=117|
8=FIX.4.4|9=0050|35=0|34=81|49=EXC|56=029|52=20190809-17:44:12.000|10=228|
8=FIX.4.4|9=60|35=0|34=81|49=029|50=029B17|52=20190808-17:43:27.175|56=EXC|10=126|
8=FIX.4.4|9=0050|35=0|34=82|49=EXC|56=029|52=20190809-17:44:42.000|10=232|
8=FIX.4.4|9=60|35=0|34=82|49=029|50=029B17|52=20190808-17:43:57.174|56=EXC|10=129|
8=FIX.4.4|9=0050|35=0|34=83|49=EXC|56=029|52=20190809-17:45:12.000|10=231|
8=FIX.4.4|9=60|35=0|34=83|49=029|50=029B17|52=20190808-17:44:27.171|56=EXC|10=125|
8=FIX.4.4|9=0050|35=0|34=84|49=EXC|56=029|52=20190809-17:45:42.000|10=235|
8=FIX.4.4|9=60|35=0|34=84|49=029|50=029B17|52=20190808-17:44:57.750|56=EXC|10=132|
8=FIX.4.4|9=0050|35=0|34=85|49=EXC|56=029|52=20190809-17:46:12.000|10=234|
8=FIX.4.4|9=60|35=0|34=85|49=029|50=029B17|52=20190808-17:45:28.171|56=EXC|10=129|
8=FIX.4.4|9=0050|35=0|34=86|49=EXC|56=029|52=20190809-17:46:42.000|10=238|
8=FIX.4.4|9=60|35=0|34=86|49=029|50=029B17|52=20190808-17:45:58.561|56=EXC|10=136|
8=FIX.4.4|9=0050|35=0|34=87|49=EXC|56=029|52=20190809-17:47:12.000|10=237|
8=FIX.4.4|9=60|35=0|34=87|49=029|50=029B17|52=20190808-17:46:29.170|56=EXC|10=132|
8=FIX.4.4|9=0050|35=0|34=88|49=EXC|56=029|52=20190809-17:47:42.000|10=241|
8=FIX.4.4|9=60|35=0|34=88|49=029|50=029B17|52=20190808-17:46:59.399|56=EXC|10=149|
8=FIX.4.4|9=0050|35=0|34=89|49=EXC|56=029|52=20190809-17:48:12.000|10=240|
8=FIX.4.4|9=60|35=0|34=89|49=029|50=029B17|52=20190808-17:47:30.177|56=EXC|10=134|
8=FIX.4.4|9=0050|35=0|34=90|49=EXC|56=029|52=20190809-17:48:42.000|10=235|
8=FIX.4.4|9=60|35=0|34=90|49=029|50=029B17|52=20190808-17:48:00.192|56=EXC|10=121|
8=FIX.4.4|9=0050|35=0|34=91|49=EXC|56=029|52=20190809-17:49:12.000|10=234|
8=FIX.4.4|9=60|35=0|34=91|49=029|50=029B17|52=20190808-17:48:31.169|56=EXC|10=130|
8=FIX.4.4|9=0050|35=0|34=92|49=EXC|56=029|52=20190809-17:49:42.000|10=238|
8=FIX.4.4|9=60|35=0|34=92|49=029|50=029B17|52=20190808-17:49:01.180|56=EXC|10=122|
8=FIX.4.4|9=0050|35=0|34=93|49=EXC|56=029|52=20190809-17:50:12.000|10=228|
8=FIX.4.4|9=60|35=0|34=93|49=029|50=029B17|52=20190808-17:49:31.175|56=EXC|10=130|
8=FIX.4.4|9=0050|35=0|34=94|49=EXC|56=029|52=20190809-17:50:42.000|10=232|
8=FIX.4.4|9=60|35=0|34=94|49=029|50=029B17|52=20190808-17:50:01.721|56=EXC|10=117|
8=FIX.4.4|9=0050|35=0|34=95|49=EXC|56=029|52=20190809-17:51:12.000|10=231|
8=FIX.4.4|9=60|35=0|34=95|49=029|50=029B17|52=20190808-17:50:32.174|56=EXC|10=124|
8=FIX.4.4|9=0050|35=0|34=96|49=EXC|56=029|52=20190809-17:51:42.000|10=235|
8=FIX.4.4|9=60|35=0|34=96|49=029|50=029B17|52=20190808-17:51:02.439|56=EXC|10=127|
8=FIX.4.4|9=0050|35=0|34=97|49=EXC|56=029|52=20190809-17:52:12.000|10=234|
8=FIX.4.4|9=60|35=0|34=97|49=029|50=029B17|52=20190808-17:51:33.168|56=EXC|10=131|
8=FIX.4.4|9=0050|35=0|34=98|49=EXC|56=029|52=20190809-17:52:42.000|10=238|
8=FIX.4.4|9=60|35=0|34=98|49=029|50=029B17|52=20190808-17:52:03.172|56=EXC|10=125|
8=FIX.4.4|9=0050|35=0|34=99|49=EXC|56=029|52=20190809-17:53:12.000|10=237|
8=FIX.4.4|9=60|35=0|34=99|49=029|50=029B17|52=20190808-17:52:33.172|56=EXC|10=129|
8=FIX.4.4|9=0051|35=0|34=100|49=EXC|56=029|52=20190809-17:53:42.000|10=016|
8=FIX.4.4|9=61|35=0|34=100|49=029|50=029B17|52=20190808-17:53:03.922|56=EXC|10=162|
8=FIX.4.4|9=0051|35=0|34=101|49=EXC|56=029|52=20190809-17:54:12.000|10=015|
8=FIX.4.4|9=61|35=0|34=101|49=029|50=029B17|52=20190808-17:53:34.171|56=EXC|10=163|
8=FIX.4.4|9=0051|35=0|34=102|49=EXC|56=029|52=20190809-17:54:42.000|10=019|
8=FIX.4.4|9=61|35=0|34=102|49=029|50=029B17|52=20190808-17:54:04.639|56=EXC|10=171|
8=FIX.4.4|9=0051|35=0|34=103|49=EXC|56=029|52=20190809-17:55:12.000|10=018|
8=FIX.4.4|9=61|35=0|34=103|49=029|50=029B17|52=20190808-17:54:35.170|56=EXC|10=166|
8=FIX.4.4|9=0051|35=0|34=104|49=EXC|56=029|52=20190809-17:55:42.000|10=022|
8=FIX.4.4|9=61|35=0|34=104|49=029|50=029B17|52=20190808-17:55:05.388|56=EXC|10=176|
8=FIX.4.4|9=0051|35=0|34=105|49=EXC|56=029|52=20190809-17:56:12.000|10=021|
8=FIX.4.4|9=61|35=0|34=105|49=029|50=029B17|52=20190808-17:55:36.169|56=EXC|10=178|
8=FIX.4.4|9=0051|35=0|34=106|49=EXC|56=029|52=20190809-17:56:42.000|10=025|
8=FIX.4.4|9=61|35=0|34=106|49=029|50=029B17|52=20190808-17:56:06.168|56=EXC|10=176|
8=FIX.4.4|9=0051|35=0|34=107|49=EXC|56=029|52=20190809-17:57:12.000|10=024|
8=FIX.4.4|9=61|35=0|34=107|49=029|50=029B17|52=20190808-17:56:36.168|56=EXC|10=180|
8=FIX.4.4|9=0051|35=0|34=108|49=EXC|56=029|52=20190809-17:57:42.000|10=028|
8=FIX.4.4|9=61|35=0|34=108|49=029|50=029B17|52=20190808-17:57:06.868|56=EXC|10=186|
8=FIX.4.4|9=0051|35=0|34=109|49=EXC|56=029|52=20190809-17:58:12.000|10=027|
8=FIX.4.4|9=61|35=0|34=109|49=029|50=029B17|52=20190808-17:57:37.167|56=EXC|10=183|
8=FIX.4.4|9=0051|35=0|34=110|49=EXC|56=029|52=20190809-17:58:42.000|10=022|
8=FIX.4.4|9=61|35=0|34=110|49=029|50=029B17|52=20190808-17:58:07.651|56=EXC|10=171|
8=FIX.4.4|9=0051|35=0|34=111|49=EXC|56=029|52=20190809-17:59:12.000|10=021|
8=FIX.4.4|9=61|35=0|34=111|49=029|50=029B17|52=20190808-17:58:38.181|56=EXC|10=174|
8=FIX.4.4|9=0051|35=0|34=112|49=EXC|56=029|52=20190809-17:59:42.000|10=025|
8=FIX.4.4|9=61|35=0|34=112|49=029|50=029B17|52=20190808-17:59:08.431|56=EXC|10=171|
8=FIX.4.4|9=0051|35=0|34=113|49=EXC|56=029|52=20190809-18:00:12.000|10=010|
8=FIX.4.4|9=61|35=0|34=113|49=029|50=029B17|52=20190808-17:59:39.182|56=EXC|10=179|
8=FIX.4.4|9=0051|35=0|34=114|49=EXC|56=029|52=20190809-18:00:42.000|10=014|
8=FIX.4.4|9=61|35=0|34=114|49=029|50=029B17|52=20190808-18:00:09.243|56=EXC|10=162|
8=FIX.4.4|9=0051|35=0|34=115|49=EXC|56=029|52=20190809-18:01:12.000|10=013|
8=FIX.4.4|9=61|35=0|34=115|49=029|50=029B17|52=20190808-18:00:40.170|56=EXC|10=157|
8=FIX.4.4|9=0051|35=0|34=116|49=EXC|56=029|52=20190809-18:01:42.000|10=017|
8=FIX.4.4|9=61|35=0|34=116|49=029|50=029B17|52=20190808-18:01:10.170|56=EXC|10=156|
8=FIX.4.4|9=0051|35=0|34=117|49=EXC|56=029|52=20190809-18:02:12.000|10=016|
8=FIX.4.4|9=61|35=0|34=117|49=029|50=029B17|52=20190808-18:01:40.179|56=EXC|10=169|
8=FIX.4.4|9=0051|35=0|34=118|49=EXC|56=029|52=20190809-18:02:42.000|10=020|
8=FIX.4.4|9=61|35=0|34=118|49=029|50=029B17|52=20190808-18:02:10.740|56=EXC|10=162|
8=FIX.4.4|9=0051|35=0|34=119|49=EXC|56=029|52=20190809-18:03:12.000|10=019|
8=FIX.4.4|9=61|35=0|34=119|49=029|50=029B17|52=20190808-18:02:41.177|56=EXC|10=171|
8=FIX.4.4|9=0051|35=0|34=120|49=EXC|56=029|52=20190809-18:03:42.000|10=014|
8=FIX.4.4|9=61|35=0|34=120|49=029|50=029B17|52=20190808-18:03:11.443|56=EXC|10=157|
8=FIX.4.4|9=0051|35=0|34=121|49=EXC|56=029|52=20190809-18:04:12.000|10=013|
8=FIX.4.4|9=61|35=0|34=121|49=029|50=029B17|52=20190808-18:03:42.177|56=EXC|10=166|
8=FIX.4.4|9=0051|35=0|34=122|49=EXC|56=029|52=20190809-18:04:42.000|10=017|
8=FIX.4.4|9=61|35=0|34=122|49=029|50=029B17|52=20190808-18:04:12.223|56=EXC|10=157|
8=FIX.4.4|9=0051|35=0|34=123|49=EXC|56=029|52=20190809-18:05:12.000|10=016|
8=FIX.4.4|9=61|35=0|34=123|49=029|50=029B17|52=20190808-18:04:43.178|56=EXC|10=171|
8=FIX.4.4|9=0051|35=0|34=124|49=EXC|56=029|52=20190809-18:05:42.000|10=020|
8=FIX.4.4|9=61|35=0|34=124|49=029|50=029B17|52=20190808-18:05:13.182|56=EXC|10=165|
8=FIX.4.4|9=0051|35=0|34=125|49=EXC|56=029|52=20190809-18:06:12.000|10=019|
8=FIX.4.4|9=61|35=0|34=125|49=029|50=029B17|52=20190808-18:05:43.175|56=EXC|10=171|
8=FIX.4.4|9=0051|35=0|34=126|49=EXC|56=029|52=20190809-18:06:42.000|10=023|
8=FIX.4.4|9=61|35=0|34=126|49=029|50=029B17|52=20190808-18:06:13.753|56=EXC|10=172|
8=FIX.4.4|9=0051|35=0|34=127|49=EXC|56=029|52=20190809-18:07:12.000|10=022|
8=FIX.4.4|9=61|35=0|34=127|49=029|50=029B17|52=20190808-18:06:44.175|56=EXC|10=175|
8=FIX.4.4|9=0051|35=0|34=128|49=EXC|56=029|52=20190809-18:07:42.000|10=026|
8=FIX.4.4|9=61|35=0|34=128|49=029|50=029B17|52=20190808-18:07:14.533|56=EXC|10=172|
8=FIX.4.4|9=0051|35=0|34=129|49=EXC|56=029|52=20190809-18:08:12.000|10=025|
8=FIX.4.4|9=61|35=0|34=129|49=029|50=029B17|52=20190808-18:07:45.174|56=EXC|10=178|
8=FIX.4.4|9=0051|35=0|34=130|49=EXC|56=029|52=20190809-18:08:42.000|10=020|
8=FIX.4.4|9=61|35=0|34=130|49=029|50=029B17|52=20190808-18:08:15.376|56=EXC|10=172|
8=FIX.4.4|9=0051|35=0|34=131|49=EXC|56=029|52=20190809-18:09:12.000|10=019|
8=FIX.4.4|9=61|35=0|34=131|49=029|50=029B17|52=20190808-18:08:46.173|56=EXC|10=172|
8=FIX.4.4|9=0051|35=0|34=132|49=EXC|56=029|52=20190809-18:09:42.000|10=023|
8=FIX.4.4|9=61|35=0|34=132|49=029|50=029B17|52=20190808-18:09:16.176|56=EXC|10=174|
8=FIX.4.4|9=0051|35=0|34=133|49=EXC|56=029|52=20190809-18:10:12.000|10=013|
8=FIX.4.4|9=0051|35=0|34=134|49=EXC|56=029|52=20190809-18:10:42.000|10=017|
8=FIX.4.4|9=61|35=0|34=133|49=029|50=029B17|52=20190808-18:09:46.904|56=EXC|10=177|
8=FIX.4.4|9=0051|35=0|34=135|49=EXC|56=029|52=20190809-18:11:12.000|10=016|
8=FIX.4.4|9=61|35=0|34=134|49=029|50=029B17|52=20190808-18:10:16.953|56=EXC|10=171|
8=FIX.4.4|9=0051|35=0|34=136|49=EXC|56=029|52=20190809-18:11:42.000|10=020|
8=FIX.4.4|9=61|35=0|34=135|49=029|50=029B17|52=20190808-18:10:47.172|56=EXC|10=169|
8=FIX.4.4|9=0051|35=0|34=137|49=EXC|56=029|52=20190809-18:12:12.000|10=019|
8=FIX.4.4|9=61|35=0|34=136|49=029|50=029B17|52=20190808-18:11:17.687|56=EXC|10=179|
8=FIX.4.4|9=0051|35=0|34=138|49=EXC|56=029|52=20190809-18:12:42.000|10=023|
8=FIX.4.4|9=61|35=0|34=137|49=029|50=029B17|52=20190808-18:11:48.170|56=EXC|10=171|
8=FIX.4.4|9=0051|35=0|34=139|49=EXC|56=029|52=20190809-18:13:12.000|10=022|
8=FIX.4.4|9=61|35=0|34=138|49=029|50=029B17|52=20190808-18:12:18.420|56=EXC|10=168|
8=FIX.4.4|9=0051|35=0|34=140|49=EXC|56=029|52=20190809-18:13:42.000|10=017|
8=FIX.4.4|9=61|35=0|34=139|49=029|50=029B17|52=20190808-18:12:49.172|56=EXC|10=177|
8=FIX.4.4|9=0051|35=0|34=141|49=EXC|56=029|52=20190809-18:14:12.000|10=016|
8=FIX.4.4|9=61|35=0|34=140|49=029|50=029B17|52=20190808-18:13:19.247|56=EXC|10=170|
8=FIX.4.4|9=0051|35=0|34=142|49=EXC|56=029|52=20190809-18:14:42.000|10=020|
8=FIX.4.4|9=61|35=0|34=141|49=029|50=029B17|52=20190808-18:13:50.171|56=EXC|10=162|
8=FIX.4.4|9=0051|35=0|34=143|49=EXC|56=029|52=20190809-18:15:12.000|10=019|
8=FIX.4.4|9=61|35=0|34=142|49=029|50=029B17|52=20190808-18:14:20.171|56=EXC|10=161|
8=FIX.4.4|9=0051|35=0|34=144|49=EXC|56=029|52=20190809-18:15:42.000|10=023|
8=FIX.4.4|9=61|35=0|34=143|49=029|50=029B17|52=20190808-18:14:50.168|56=EXC|10=171|
8=FIX.4.4|9=0051|35=0|34=145|49=EXC|56=029|52=20190809-18:16:12.000|10=022|
8=FIX.4.4|9=61|35=0|34=144|49=029|50=029B17|52=20190808-18:15:20.793|56=EXC|10=174|
8=FIX.4.4|9=0051|35=0|34=146|49=EXC|56=029|52=20190809-18:16:42.000|10=026|
8=FIX.4.4|9=61|35=0|34=145|49=029|50=029B17|52=20190808-18:15:51.167|56=EXC|10=174|
8=FIX.4.4|9=0051|35=0|34=147|49=EXC|56=029|52=20190809-18:17:12.000|10=025|
8=FIX.4.4|9=61|35=0|34=146|49=029|50=029B17|52=20190808-18:16:21.620|56=EXC|10=167|
8=FIX.4.4|9=0051|35=0|34=148|49=EXC|56=029|52=20190809-18:17:42.000|10=029|
8=FIX.4.4|9=61|35=0|34=147|49=029|50=029B17|52=20190808-18:16:52.167|56=EXC|10=178|
8=FIX.4.4|9=0051|35=0|34=149|49=EXC|56=029|52=20190809-18:18:12.000|10=028|
8=FIX.4.4|9=61|35=0|34=148|49=029|50=029B17|52=20190808-18:17:22.338|56=EXC|10=177|
8=FIX.4.4|9=0051|35=0|34=150|49=EXC|56=029|52=20190809-18:18:42.000|10=023|
8=FIX.4.4|9=61|35=0|34=149|49=029|50=029B17|52=20190808-18:17:53.169|56=EXC|10=184|
8=FIX.4.4|9=0051|35=0|34=151|49=EXC|56=029|52=20190809-18:19:12.000|10=022|
8=FIX.4.4|9=61|35=0|34=150|49=029|50=029B17|52=20190808-18:18:23.169|56=EXC|10=174|
8=FIX.4.4|9=0051|35=0|34=152|49=EXC|56=029|52=20190809-18:19:42.000|10=026|
8=FIX.4.4|9=61|35=0|34=151|49=029|50=029B17|52=20190808-18:18:53.181|56=EXC|10=172|
8=FIX.4.4|9=0051|35=0|34=153|49=EXC|56=029|52=20190809-18:20:12.000|10=016|
8=FIX.4.4|9=61|35=0|34=152|49=029|50=029B17|52=20190808-18:19:23.852|56=EXC|10=176|
8=FIX.4.4|9=0051|35=0|34=154|49=EXC|56=029|52=20190809-18:20:42.000|10=020|
8=FIX.4.4|9=61|35=0|34=153|49=029|50=029B17|52=20190808-18:19:54.170|56=EXC|10=174|
8=FIX.4.4|9=0051|35=0|34=155|49=EXC|56=029|52=20190809-18:21:12.000|10=019|
8=FIX.4.4|9=61|35=0|34=154|49=029|50=029B17|52=20190808-18:20:24.538|56=EXC|10=172|
8=FIX.4.4|9=0051|35=0|34=156|49=EXC|56=029|52=20190809-18:21:42.000|10=023|
8=FIX.4.4|9=61|35=0|34=155|49=029|50=029B17|52=20190808-18:20:55.179|56=EXC|10=178|
8=FIX.4.4|9=0051|35=0|34=157|49=EXC|56=029|52=20190809-18:22:12.000|10=022|
8=FIX.4.4|9=61|35=0|34=156|49=029|50=029B17|52=20190808-18:21:25.288|56=EXC|10=178|
8=FIX.4.4|9=0051|35=0|34=158|49=EXC|56=029|52=20190809-18:22:42.000|10=026|
8=FIX.4.4|9=61|35=0|34=157|49=029|50=029B17|52=20190808-18:21:56.181|56=EXC|10=175|
8=FIX.4.4|9=0051|35=0|34=159|49=EXC|56=029|52=20190809-18:23:12.000|10=025|
8=FIX.4.4|9=61|35=0|34=158|49=029|50=029B17|52=20190808-18:22:26.174|56=EXC|10=176|
8=FIX.4.4|9=0051|35=0|34=160|49=EXC|56=029|52=20190809-18:23:42.000|10=020|
8=FIX.4.4|9=61|35=0|34=159|49=029|50=029B17|52=20190808-18:22:56.181|56=EXC|10=178|
8=FIX.4.4|9=0051|35=0|34=161|49=EXC|56=029|52=20190809-18:24:12.000|10=019|
8=FIX.4.4|9=61|35=0|34=160|49=029|50=029B17|52=20190808-18:23:26.865|56=EXC|10=177|
8=FIX.4.4|9=0051|35=0|34=162|49=EXC|56=029|52=20190809-18:24:42.000|10=023|
8=FIX.4.4|9=61|35=0|34=161|49=029|50=029B17|52=20190808-18:23:57.176|56=EXC|10=177|
8=FIX.4.4|9=0051|35=0|34=163|49=EXC|56=029|52=20190809-18:25:12.000|10=022|
8=FIX.4.4|9=61|35=0|34=162|49=029|50=029B17|52=20190808-18:24:27.520|56=EXC|10=169|
8=FIX.4.4|9=0051|35=0|34=164|49=EXC|56=029|52=20190809-18:25:42.000|10=026|
8=FIX.4.4|9=61|35=0|34=163|49=029|50=029B17|52=20190808-18:24:58.180|56=EXC|10=176|
8=FIX.4.4|9=0051|35=0|34=165|49=EXC|56=029|52=20190809-18:26:12.000|10=025|
8=FIX.4.4|9=61|35=0|34=164|49=029|50=029B17|52=20190808-18:25:28.284|56=EXC|10=180|
8=FIX.4.4|9=0051|35=0|34=166|49=EXC|56=029|52=20190809-18:26:42.000|10=029|
8=FIX.4.4|9=61|35=0|34=165|49=029|50=029B17|52=20190808-18:25:59.178|56=EXC|10=187|
8=FIX.4.4|9=0051|35=0|34=167|49=EXC|56=029|52=20190809-18:27:12.000|10=028|
8=FIX.4.4|9=61|35=0|34=166|49=029|50=029B17|52=20190808-18:26:29.179|56=EXC|10=187|
8=FIX.4.4|9=0051|35=0|34=168|49=EXC|56=029|52=20190809-18:27:42.000|10=032|
8=FIX.4.4|9=61|35=0|34=167|49=029|50=029B17|52=20190808-18:26:59.173|56=EXC|10=185|
8=FIX.4.4|9=0051|35=0|34=169|49=EXC|56=029|52=20190809-18:28:12.000|10=031|
8=FIX.4.4|9=61|35=0|34=168|49=029|50=029B17|52=20190808-18:27:29.829|56=EXC|10=192|
8=FIX.4.4|9=0051|35=0|34=170|49=EXC|56=029|52=20190809-18:28:42.000|10=026|
8=FIX.4.4|9=61|35=0|34=169|49=029|50=029B17|52=20190808-18:28:00.172|56=EXC|10=174|
8=FIX.4.4|9=0051|35=0|34=171|49=EXC|56=029|52=20190809-18:29:12.000|10=025|
8=FIX.4.4|9=61|35=0|34=170|49=029|50=029B17|52=20190808-18:28:30.673|56=EXC|10=175|
8=FIX.4.4|9=0051|35=0|34=172|49=EXC|56=029|52=20190809-18:29:42.000|10=029|
8=FIX.4.4|9=61|35=0|34=171|49=029|50=029B17|52=20190808-18:29:01.172|56=EXC|10=169|
8=FIX.4.4|9=0051|35=0|34=173|49=EXC|56=029|52=20190809-18:30:12.000|10=019|
8=FIX.4.4|9=61|35=0|34=172|49=029|50=029B17|52=20190808-18:29:31.437|56=EXC|10=177|
8=FIX.4.4|9=0051|35=0|34=174|49=EXC|56=029|52=20190809-18:30:42.000|10=023|
8=FIX.4.4|9=61|35=0|34=173|49=029|50=029B17|52=20190808-18:30:02.171|56=EXC|10=163|
8=FIX.4.4|9=0051|35=0|34=175|49=EXC|56=029|52=20190809-18:31:12.000|10=022|
8=FIX.4.4|9=61|35=0|34=174|49=029|50=029B17|52=20190808-18:30:32.249|56=EXC|10=173|
8=FIX.4.4|9=0051|35=0|34=176|49=EXC|56=029|52=20190809-18:31:42.000|10=026|
8=FIX.4.4|9=61|35=0|34=175|49=029|50=029B17|52=20190808-18:31:03.173|56=EXC|10=169|
8=FIX.4.4|9=0051|35=0|34=177|49=EXC|56=029|52=20190809-18:32:12.000|10=025|
8=FIX.4.4|9=61|35=0|34=176|49=029|50=029B17|52=20190808-18:31:33.176|56=EXC|10=176|
8=FIX.4.4|9=0051|35=0|34=178|49=EXC|56=029|52=20190809-18:32:42.000|10=029|
8=FIX.4.4|9=61|35=0|34=177|49=029|50=029B17|52=20190808-18:32:03.169|56=EXC|10=177|
8=FIX.4.4|9=0051|35=0|34=179|49=EXC|56=029|52=20190809-18:33:12.000|10=028|
8=FIX.4.4|9=61|35=0|34=178|49=029|50=029B17|52=20190808-18:32:33.558|56=EXC|10=183|
8=FIX.4.4|9=0051|35=0|34=180|49=EXC|56=029|52=20190809-18:33:42.000|10=023|
8=FIX.4.4|9=61|35=0|34=179|49=029|50=029B17|52=20190808-18:33:04.169|56=EXC|10=181|
8=FIX.4.4|9=0051|35=0|34=181|49=EXC|56=029|52=20190809-18:34:12.000|10=022|
8=FIX.4.4|9=61|35=0|34=180|49=029|50=029B17|52=20190808-18:33:34.340|56=EXC|10=167|
8=FIX.4.4|9=0051|35=0|34=182|49=EXC|56=029|52=20190809-18:34:42.000|10=026|
8=FIX.4.4|9=61|35=0|34=181|49=029|50=029B17|52=20190808-18:34:05.172|56=EXC|10=170|
8=FIX.4.4|9=0051|35=0|34=183|49=EXC|56=029|52=20190809-18:35:12.000|10=025|
8=FIX.4.4|9=61|35=0|34=182|49=029|50=029B17|52=20190808-18:34:35.183|56=EXC|10=176|
8=FIX.4.4|9=0051|35=0|34=184|49=EXC|56=029|52=20190809-18:35:42.000|10=029|
8=FIX.4.4|9=61|35=0|34=183|49=029|50=029B17|52=20190808-18:35:05.181|56=EXC|10=173|
8=FIX.4.4|9=0051|35=0|34=185|49=EXC|56=029|52=20190809-18:36:12.000|10=028|
8=FIX.4.4|9=61|35=0|34=184|49=029|50=029B17|52=20190808-18:35:35.900|56=EXC|10=176|
8=FIX.4.4|9=0051|35=0|34=186|49=EXC|56=029|52=20190809-18:36:42.000|10=032|
8=FIX.4.4|9=61|35=0|34=185|49=029|50=029B17|52=20190808-18:36:06.181|56=EXC|10=177|
8=FIX.4.4|9=0051|35=0|34=187|49=EXC|56=029|52=20190809-18:37:12.000|10=031|
8=FIX.4.4|9=61|35=0|34=186|49=029|50=029B17|52=20190808-18:36:36.696|56=EXC|10=192|
8=FIX.4.4|9=0051|35=0|34=188|49=EXC|56=029|52=20190809-18:37:42.000|10=035|
8=FIX.4.4|9=61|35=0|34=187|49=029|50=029B17|52=20190808-18:37:07.180|56=EXC|10=180|
8=FIX.4.4|9=0051|35=0|34=189|49=EXC|56=029|52=20190809-18:38:12.000|10=034|
8=FIX.4.4|9=61|35=0|34=188|49=029|50=029B17|52=20190808-18:37:37.430|56=EXC|10=182|
8=FIX.4.4|9=0051|35=0|34=190|49=EXC|56=029|52=20190809-18:38:42.000|10=029|
8=FIX.4.4|9=61|35=0|34=189|49=029|50=029B17|52=20190808-18:38:08.179|56=EXC|10=192|
8=FIX.4.4|9=0051|35=0|34=191|49=EXC|56=029|52=20190809-18:39:12.000|10=028|
8=FIX.4.4|9=61|35=0|34=190|49=029|50=029B17|52=20190808-18:38:38.226|56=EXC|10=180|
8=FIX.4.4|9=0051|35=0|34=192|49=EXC|56=029|52=20190809-18:39:42.000|10=032|
8=FIX.4.4|9=61|35=0|34=191|49=029|50=029B17|52=20190808-18:39:09.181|56=EXC|10=180|
8=FIX.4.4|9=0051|35=0|34=193|49=EXC|56=029|52=20190809-18:40:12.000|10=022|
8=FIX.4.4|9=61|35=0|34=192|49=029|50=029B17|52=20190808-18:39:40.168|56=EXC|10=181|
8=FIX.4.4|9=0051|35=0|34=194|49=EXC|56=029|52=20190809-18:40:42.000|10=026|
8=FIX.4.4|9=61|35=0|34=193|49=029|50=029B17|52=20190808-18:40:10.181|56=EXC|10=166|
8=FIX.4.4|9=0051|35=0|34=195|49=EXC|56=029|52=20190809-18:41:12.000|10=025|
8=FIX.4.4|9=61|35=0|34=194|49=029|50=029B17|52=20190808-18:40:40.173|56=EXC|10=171|
8=FIX.4.4|9=0051|35=0|34=196|49=EXC|56=029|52=20190809-18:41:42.000|10=029|
8=FIX.4.4|9=61|35=0|34=195|49=029|50=029B17|52=20190808-18:41:10.172|56=EXC|10=169|
8=FIX.4.4|9=0051|35=0|34=197|49=EXC|56=029|52=20190809-18:42:12.000|10=028|
8=FIX.4.4|9=61|35=0|34=196|49=029|50=029B17|52=20190808-18:41:40.505|56=EXC|10=173|
8=FIX.4.4|9=0051|35=0|34=198|49=EXC|56=029|52=20190809-18:42:42.000|10=032|
8=FIX.4.4|9=61|35=0|34=197|49=029|50=029B17|52=20190808-18:42:11.168|56=EXC|10=178|
8=FIX.4.4|9=0051|35=0|34=199|49=EXC|56=029|52=20190809-18:43:12.000|10=031|
8=FIX.4.4|9=61|35=0|34=198|49=029|50=029B17|52=20190808-18:42:41.319|56=EXC|10=180|
8=FIX.4.4|9=0051|35=0|34=200|49=EXC|56=029|52=20190809-18:43:42.000|10=017|
8=FIX.4.4|9=61|35=0|34=199|49=029|50=029B17|52=20190808-18:43:12.179|56=EXC|10=184|
8=FIX.4.4|9=0051|35=0|34=201|49=EXC|56=029|52=20190809-18:44:12.000|10=016|
8=FIX.4.4|9=61|35=0|34=200|49=029|50=029B17|52=20190808-18:43:42.180|56=EXC|10=162|
8=FIX.4.4|9=0051|35=0|34=202|49=EXC|56=029|52=20190809-18:44:42.000|10=020|
8=FIX.4.4|9=61|35=0|34=201|49=029|50=029B17|52=20190808-18:44:12.174|56=EXC|10=164|
8=FIX.4.4|9=0051|35=0|34=203|49=EXC|56=029|52=20190809-18:45:12.000|10=019|
8=FIX.4.4|9=61|35=0|34=202|49=029|50=029B17|52=20190808-18:44:42.971|56=EXC|10=173|
8=FIX.4.4|9=0051|35=0|34=204|49=EXC|56=029|52=20190809-18:45:42.000|10=023|
8=FIX.4.4|9=61|35=0|34=203|49=029|50=029B17|52=20190808-18:45:13.174|56=EXC|10=168|
8=FIX.4.4|9=0051|35=0|34=205|49=EXC|56=029|52=20190809-18:46:12.000|10=022|
8=FIX.4.4|9=61|35=0|34=204|49=029|50=029B17|52=20190808-18:45:43.631|56=EXC|10=170|
8=FIX.4.4|9=0051|35=0|34=206|49=EXC|56=029|52=20190809-18:46:42.000|10=026|
8=FIX.4.4|9=61|35=0|34=205|49=029|50=029B17|52=20190808-18:46:14.173|56=EXC|10=171|
8=FIX.4.4|9=0051|35=0|34=207|49=EXC|56=029|52=20190809-18:47:12.000|10=025|
8=FIX.4.4|9=61|35=0|34=206|49=029|50=029B17|52=20190808-18:46:44.379|56=EXC|10=183|
8=FIX.4.4|9=0051|35=0|34=208|49=EXC|56=029|52=20190809-18:47:42.000|10=029|
8=FIX.4.4|9=61|35=0|34=207|49=029|50=029B17|52=20190808-18:47:15.182|56=EXC|10=175|
8=FIX.4.4|9=0051|35=0|34=209|49=EXC|56=029|52=20190809-18:48:12.000|10=028|
8=FIX.4.4|9=61|35=0|34=208|49=029|50=029B17|52=20190808-18:47:46.172|56=EXC|10=179|
8=FIX.4.4|9=0051|35=0|34=210|49=EXC|56=029|52=20190809-18:48:42.000|10=023|
8=FIX.4.4|9=61|35=0|34=209|49=029|50=029B17|52=20190808-18:48:16.168|56=EXC|10=183|
8=FIX.4.4|9=0051|35=0|34=211|49=EXC|56=029|52=20190809-18:49:12.000|10=022|
8=FIX.4.4|9=61|35=0|34=210|49=029|50=029B17|52=20190808-18:48:46.170|56=EXC|10=171|
8=FIX.4.4|9=0051|35=0|34=212|49=EXC|56=029|52=20190809-18:49:42.000|10=026|
8=FIX.4.4|9=61|35=0|34=211|49=029|50=029B17|52=20190808-18:49:16.173|56=EXC|10=173|
8=FIX.4.4|9=0051|35=0|34=213|49=EXC|56=029|52=20190809-18:50:12.000|10=016|
8=FIX.4.4|9=61|35=0|34=212|49=029|50=029B17|52=20190808-18:49:46.615|56=EXC|10=178|
8=FIX.4.4|9=0051|35=0|34=214|49=EXC|56=029|52=20190809-18:50:42.000|10=020|
8=FIX.4.4|9=0051|35=0|34=215|49=EXC|56=029|52=20190809-18:51:12.000|10=019|
8=FIX.4.4|9=61|35=0|34=213|49=029|50=029B17|52=20190808-18:50:16.857|56=EXC|10=176|
8=FIX.4.4|9=0051|35=0|34=216|49=EXC|56=029|52=20190809-18:51:42.000|10=023|
8=FIX.4.4|9=61|35=0|34=214|49=029|50=029B17|52=20190808-18:50:46.854|56=EXC|10=177|
8=FIX.4.4|9=0051|35=0|34=217|49=EXC|56=029|52=20190809-18:52:12.000|10=022|
8=FIX.4.4|9=61|35=0|34=215|49=029|50=029B17|52=20190808-18:51:16.853|56=EXC|10=175|
8=FIX.4.4|9=0051|35=0|34=218|49=EXC|56=029|52=20190809-18:52:42.000|10=026|
8=FIX.4.4|9=61|35=0|34=216|49=029|50=029B17|52=20190808-18:51:46.855|56=EXC|10=181|
8=FIX.4.4|9=0051|35=0|34=219|49=EXC|56=029|52=20190809-18:53:12.000|10=025|
8=FIX.4.4|9=61|35=0|34=217|49=029|50=029B17|52=20190808-18:52:16.854|56=EXC|10=179|
8=FIX.4.4|9=0051|35=0|34=220|49=EXC|56=029|52=20190809-18:53:42.000|10=020|
8=FIX.4.4|9=61|35=0|34=218|49=029|50=029B17|52=20190808-18:52:46.854|56=EXC|10=183|
8=FIX.4.4|9=0051|35=0|34=221|49=EXC|56=029|52=20190809-18:54:12.000|10=019|
8=FIX.4.4|9=61|35=0|34=219|49=029|50=029B17|52=20190808-18:53:16.860|56=EXC|10=179|
8=FIX.4.4|9=0051|35=0|34=222|49=EXC|56=029|52=20190809-18:54:42.000|10=023|
8=FIX.4.4|9=61|35=0|34=220|49=029|50=029B17|52=20190808-18:53:46.852|56=EXC|10=175|
8=FIX.4.4|9=0051|35=0|34=223|49=EXC|56=029|52=20190809-18:55:12.000|10=022|
8=FIX.4.4|9=61|35=0|34=221|49=029|50=029B17|52=20190808-18:54:16.854|56=EXC|10=176|
8=FIX.4.4|9=0051|35=0|34=224|49=EXC|56=029|52=20190809-18:55:42.000|10=026|
8=FIX.4.4|9=61|35=0|34=222|49=029|50=029B17|52=20190808-18:54:46.851|56=EXC|10=177|
8=FIX.4.4|9=0051|35=0|34=225|49=EXC|56=029|52=20190809-18:56:12.000|10=025|
8=FIX.4.4|9=61|35=0|34=223|49=029|50=029B17|52=20190808-18:55:16.854|56=EXC|10=179|
8=FIX.4.4|9=0051|35=0|34=226|49=EXC|56=029|52=20190809-18:56:42.000|10=029|
8=FIX.4.4|9=61|35=0|34=224|49=029|50=029B17|52=20190808-18:55:46.851|56=EXC|10=180|
8=FIX.4.4|9=0051|35=0|34=227|49=EXC|56=029|52=20190809-18:57:12.000|10=028|
8=FIX.4.4|9=61|35=0|34=225|49=029|50=029B17|52=20190808-18:56:16.852|56=EXC|10=180|
8=FIX.4.4|9=0051|35=0|34=228|49=EXC|56=029|52=20190809-18:57:42.000|10=032|
8=FIX.4.4|9=61|35=0|34=226|49=029|50=029B17|52=20190808-18:56:46.854|56=EXC|10=186|
8=FIX.4.4|9=0051|35=0|34=229|49=EXC|56=029|52=20190809-18:58:12.000|10=031|
8=FIX.4.4|9=61|35=0|34=227|49=029|50=029B17|52=20190808-18:57:16.851|56=EXC|10=182|
8=FIX.4.4|9=0051|35=0|34=230|49=EXC|56=029|52=20190809-18:58:42.000|10=026|
8=FIX.4.4|9=61|35=0|34=228|49=029|50=029B17|52=20190808-18:57:46.856|56=EXC|10=191|
8=FIX.4.4|9=0051|35=0|34=231|49=EXC|56=029|52=20190809-18:59:12.000|10=025|
8=FIX.4.4|9=61|35=0|34=229|49=029|50=029B17|52=20190808-18:58:16.852|56=EXC|10=186|
8=FIX.4.4|9=0051|35=0|34=232|49=EXC|56=029|52=20190809-18:59:42.000|10=029|
8=FIX.4.4|9=61|35=0|34=230|49=029|50=029B17|52=20190808-18:58:46.843|56=EXC|10=181|
8=FIX.4.4|9=0051|35=0|34=233|49=EXC|56=029|52=20190809-19:00:12.000|10=014|
8=FIX.4.4|9=61|35=0|34=231|49=029|50=029B17|52=20190808-18:59:16.851|56=EXC|10=179|
8=FIX.4.4|9=0051|35=0|34=234|49=EXC|56=029|52=20190809-19:00:42.000|10=018|
8=FIX.4.4|9=61|35=0|34=232|49=029|50=029B17|52=20190808-18:59:46.848|56=EXC|10=189|
8=FIX.4.4|9=0051|35=0|34=235|49=EXC|56=029|52=20190809-19:01:12.000|10=017|
8=FIX.4.4|9=61|35=0|34=233|49=029|50=029B17|52=20190808-19:00:16.847|56=EXC|10=173|
8=FIX.4.4|9=0051|35=0|34=236|49=EXC|56=029|52=20190809-19:01:42.000|10=021|
8=FIX.4.4|9=61|35=0|34=234|49=029|50=029B17|52=20190808-19:00:46.848|56=EXC|10=178|
8=FIX.4.4|9=0051|35=0|34=237|49=EXC|56=029|52=20190809-19:02:12.000|10=020|
8=FIX.4.4|9=61|35=0|34=235|49=029|50=029B17|52=20190808-19:01:16.879|56=EXC|10=181|
8=FIX.4.4|9=0051|35=0|34=238|49=EXC|56=029|52=20190809-19:02:42.000|10=024|
8=FIX.4.4|9=61|35=0|34=236|49=029|50=029B17|52=20190808-19:01:47.170|56=EXC|10=170|
8=FIX.4.4|9=0051|35=0|34=239|49=EXC|56=029|52=20190809-19:03:12.000|10=023|
8=FIX.4.4|9=61|35=0|34=237|49=029|50=029B17|52=20190808-19:02:17.170|56=EXC|10=169|
8=FIX.4.4|9=0051|35=0|34=240|49=EXC|56=029|52=20190809-19:03:42.000|10=018|
8=FIX.4.4|9=61|35=0|34=238|49=029|50=029B17|52=20190808-19:02:47.170|56=EXC|10=173|
8=FIX.4.4|9=0051|35=0|34=241|49=EXC|56=029|52=20190809-19:04:12.000|10=017|
8=FIX.4.4|9=61|35=0|34=239|49=029|50=029B17|52=20190808-19:03:17.169|56=EXC|10=180|
8=FIX.4.4|9=0051|35=0|34=242|49=EXC|56=029|52=20190809-19:04:42.000|10=021|
8=FIX.4.4|9=61|35=0|34=240|49=029|50=029B17|52=20190808-19:03:47.169|56=EXC|10=175|
8=FIX.4.4|9=0051|35=0|34=243|49=EXC|56=029|52=20190809-19:05:12.000|10=020|
8=FIX.4.4|9=61|35=0|34=241|49=029|50=029B17|52=20190808-19:04:17.169|56=EXC|10=174|
8=FIX.4.4|9=0051|35=0|34=244|49=EXC|56=029|52=20190809-19:05:42.000|10=024|
8=FIX.4.4|9=61|35=0|34=242|49=029|50=029B17|52=20190808-19:04:47.168|56=EXC|10=177|
8=FIX.4.4|9=0051|35=0|34=245|49=EXC|56=029|52=20190809-19:06:12.000|10=023|
8=FIX.4.4|9=61|35=0|34=243|49=029|50=029B17|52=20190808-19:05:17.168|56=EXC|10=176|
8=FIX.4.4|9=0051|35=0|34=246|49=EXC|56=029|52=20190809-19:06:42.000|10=027|
8=FIX.4.4|9=61|35=0|34=244|49=029|50=029B17|52=20190808-19:05:47.168|56=EXC|10=180|
8=FIX.4.4|9=0051|35=0|34=247|49=EXC|56=029|52=20190809-19:07:12.000|10=026|
8=FIX.4.4|9=61|35=0|34=245|49=029|50=029B17|52=20190808-19:06:17.182|56=EXC|10=175|
8=FIX.4.4|9=0051|35=0|34=248|49=EXC|56=029|52=20190809-19:07:42.000|10=030|
8=FIX.4.4|9=61|35=0|34=246|49=029|50=029B17|52=20190808-19:06:48.167|56=EXC|10=183|
8=FIX.4.4|9=0051|35=0|34=249|49=EXC|56=029|52=20190809-19:08:12.000|10=029|
8=FIX.4.4|9=61|35=0|34=247|49=029|50=029B17|52=20190808-19:07:18.167|56=EXC|10=182|
8=FIX.4.4|9=0051|35=0|34=250|49=EXC|56=029|52=20190809-19:08:42.000|10=024|
8=FIX.4.4|9=61|35=0|34=248|49=029|50=029B17|52=20190808-19:07:48.167|56=EXC|10=186|
8=FIX.4.4|9=0051|35=0|34=251|49=EXC|56=029|52=20190809-19:09:12.000|10=023|
8=FIX.4.4|9=61|35=0|34=249|49=029|50=029B17|52=20190808-19:08:18.182|56=EXC|10=182|
8=FIX.4.4|9=0051|35=0|34=252|49=EXC|56=029|52=20190809-19:09:42.000|10=027|
8=FIX.4.4|9=61|35=0|34=250|49=029|50=029B17|52=20190808-19:08:48.181|56=EXC|10=176|
8=FIX.4.4|9=0051|35=0|34=253|49=EXC|56=029|52=20190809-19:10:12.000|10=017|
8=FIX.4.4|9=61|35=0|34=251|49=029|50=029B17|52=20190808-19:09:18.181|56=EXC|10=175|
8=FIX.4.4|9=0051|35=0|34=254|49=EXC|56=029|52=20190809-19:10:42.000|10=021|
8=FIX.4.4|9=61|35=0|34=252|49=029|50=029B17|52=20190808-19:09:48.180|56=EXC|10=178|
8=FIX.4.4|9=0051|35=0|34=255|49=EXC|56=029|52=20190809-19:11:12.000|10=020|
8=FIX.4.4|9=61|35=0|34=253|49=029|50=029B17|52=20190808-19:10:18.181|56=EXC|10=169|
8=FIX.4.4|9=0051|35=0|34=256|49=EXC|56=029|52=20190809-19:11:42.000|10=024|
8=FIX.4.4|9=61|35=0|34=254|49=029|50=029B17|52=20190808-19:10:48.179|56=EXC|10=180|
8=FIX.4.4|9=0051|35=0|34=257|49=EXC|56=029|52=20190809-19:12:12.000|10=023|
8=FIX.4.4|9=61|35=0|34=255|49=029|50=029B17|52=20190808-19:11:18.179|56=EXC|10=179|
8=FIX.4.4|9=0051|35=0|34=258|49=EXC|56=029|52=20190809-19:12:42.000|10=027|
8=FIX.4.4|9=61|35=0|34=256|49=029|50=029B17|52=20190808-19:11:48.179|56=EXC|10=183|
8=FIX.4.4|9=0051|35=0|34=259|49=EXC|56=029|52=20190809-19:13:12.000|10=026|
8=FIX.4.4|9=61|35=0|34=257|49=029|50=029B17|52=20190808-19:12:18.178|56=EXC|10=181|
8=FIX.4.4|9=0051|35=0|34=260|49=EXC|56=029|52=20190809-19:13:42.000|10=021|
8=FIX.4.4|9=61|35=0|34=258|49=029|50=029B17|52=20190808-19:12:48.179|56=EXC|10=186|
8=FIX.4.4|9=0051|35=0|34=261|49=EXC|56=029|52=20190809-19:14:12.000|10=020|
8=FIX.4.4|9=61|35=0|34=259|49=029|50=029B17|52=20190808-19:13:18.178|56=EXC|10=184|
8=FIX.4.4|9=0051|35=0|34=262|49=EXC|56=029|52=20190809-19:14:42.000|10=024|
8=FIX.4.4|9=61|35=0|34=260|49=029|50=029B17|52=20190808-19:13:48.178|56=EXC|10=179|
8=FIX.4.4|9=0051|35=0|34=263|49=EXC|56=029|52=20190809-19:15:12.000|10=023|
8=FIX.4.4|9=61|35=0|34=261|49=029|50=029B17|52=20190808-19:14:18.178|56=EXC|10=178|
8=FIX.4.4|9=0051|35=0|34=264|49=EXC|56=029|52=20190809-19:15:42.000|10=027|
8=FIX.4.4|9=61|35=0|34=262|49=029|50=029B17|52=20190808-19:14:48.177|56=EXC|10=181|
8=FIX.4.4|9=0051|35=0|34=265|49=EXC|56=029|52=20190809-19:16:12.000|10=026|
8=FIX.4.4|9=61|35=0|34=263|49=029|50=029B17|52=20190808-19:15:18.177|56=EXC|10=180|
8=FIX.4.4|9=0051|35=0|34=266|49=EXC|56=029|52=20190809-19:16:42.000|10=030|
8=FIX.4.4|9=61|35=0|34=264|49=029|50=029B17|52=20190808-19:15:48.176|56=EXC|10=183|
8=FIX.4.4|9=0051|35=0|34=267|49=EXC|56=029|52=20190809-19:17:12.000|10=029|
8=FIX.4.4|9=61|35=0|34=265|49=029|50=029B17|52=20190808-19:16:18.171|56=EXC|10=177|
8=FIX.4.4|9=0051|35=0|34=268|49=EXC|56=029|52=20190809-19:17:42.000|10=033|
8=FIX.4.4|9=61|35=0|34=266|49=029|50=029B17|52=20190808-19:16:48.176|56=EXC|10=186|
8=FIX.4.4|9=0051|35=0|34=269|49=EXC|56=029|52=20190809-19:18:12.000|10=032|
8=FIX.4.4|9=61|35=0|34=267|49=029|50=029B17|52=20190808-19:17:18.175|56=EXC|10=184|
8=FIX.4.4|9=0051|35=0|34=270|49=EXC|56=029|52=20190809-19:18:42.000|10=027|
8=FIX.4.4|9=61|35=0|34=268|49=029|50=029B17|52=20190808-19:17:48.175|56=EXC|10=188|
8=FIX.4.4|9=77|35=A|34=1|49=029|50=029B17|52=20190808-19:18:06.031|56=EXC|98=0|108=30|141=Y|10=157|
8=FIX.4.4|9=77|35=A|34=1|49=029|50=029B17|52=20190808-19:19:06.061|56=EXC|98=0|108=30|141=Y|10=161|
8=FIX.4.4|9=77|35=A|34=1|49=029|50=029B17|52=20190808-19:20:07.149|56=EXC|98=0|108=30|141=Y|10=161|
8=FIX.4.4|9=77|35=A|34=1|49=029|50=029B17|52=20190808-19:21:07.192|56=EXC|98=0|108=30|141=Y|10=160|
8=FIX.4.4|9=77|35=A|34=1|49=029|50=029B17|52=20190808-19:22:07.205|56=EXC|98=0|108=30|141=Y|10=156|
8=FIX.4.4|9=77|35=A|34=1|49=029|50=029B17|52=20190808-19:23:07.466|56=EXC|98=0|108=30|141=Y|10=166|
8=FIX.4.4|9=77|35=A|34=1|49=029|50=029B17|52=20190808-19:24:07.462|56=EXC|98=0|108=30|141=Y|10=163|
8=FIX.4.4|9=77|35=A|34=1|49=029|50=029B17|52=20190808-19:25:07.558|56=EXC|98=0|108=30|141=Y|10=170|
8=FIX.4.4|9=77|35=A|34=1|49=029|50=029B17|52=20190808-19:26:07.659|56=EXC|98=0|108=30|141=Y|10=173|
8=FIX.4.4|9=77|35=A|34=1|49=029|50=029B17|52=20190808-19:27:07.872|56=EXC|98=0|108=30|141=Y|10=171|
8=FIX.4.4|9=77|35=A|34=1|49=029|50=029B17|52=20190808-19:28:07.271|56=EXC|98=0|108=30|141=Y|10=165|
8=FIX.4.4|9=77|35=A|34=1|49=029|50=029B17|52=20190808-19:29:07.259|56=EXC|98=0|108=30|141=Y|10=172|
8=FIX.4.4|9=77|35=A|34=1|49=029|50=029B17|52=20190808-19:30:08.187|56=EXC|98=0|108=30|141=Y|10=165|
8=FIX.4.4|9=77|35=A|34=1|49=029|50=029B17|52=20190808-19:31:09.209|56=EXC|98=0|108=30|141=Y|10=162|
8=FIX.4.4|9=77|35=A|34=1|49=029|50=029B17|52=20190808-19:32:10.191|56=EXC|98=0|108=30|141=Y|10=155|
8=FIX.4.4|9=77|35=A|34=1|49=029|50=029B17|52=20190808-19:33:11.201|56=EXC|98=0|108=30|141=Y|10=149|
8=FIX.4.4|9=77|35=A|34=1|49=029|50=029B17|52=20190808-19:34:12.199|56=EXC|98=0|108=30|141=Y|10=167|
