8=FIX.4.4|9=110|35=A|34=1|49=001|50=001B27|52=20190528-21:10:46.029|56=EXC|43=Y|98=0|108=30|141=Y|553=001FCM001|554=001FCM001|10=078|
8=FIX.4.4|9=0067|35=A|34=1|49=EXC|56=001|52=20190528-21:10:44.664|98=0|108=30|141=Y|10=008|
8=FIX.4.4|9=122|35=R|34=2|49=001|50=001B27|52=20190528-21:10:52.101|56=EXC|131=1|146=1|453=2|448=002B35|447=C|452=37|448=DCV|447=C|452=10|10=024|
8=FIX.4.4|9=0125|35=3|34=2|49=EXC|56=001|52=20190528-21:10:50.549|45=2|371=38|372=R|373=1|58=(1463): Hace falta campo requerido OrderQty(#38)|10=026|
8=FIX.4.4|9=110|35=A|34=1|49=001|50=001B27|52=20190528-21:15:51.064|56=EXC|43=Y|98=0|108=30|141=Y|553=001FCM001|554=001FCM001|10=078|
8=FIX.4.4|9=0067|35=A|34=1|49=EXC|56=001|52=20190528-21:15:49.498|98=0|108=30|141=Y|10=023|
8=FIX.4.4|9=122|35=R|34=2|49=001|50=001B27|52=20190528-21:15:56.599|56=EXC|131=1|146=1|453=2|448=002B35|447=C|452=37|448=DCV|447=C|452=10|10=054|
8=FIX.4.4|9=0125|35=3|34=2|49=EXC|56=001|52=20190528-21:15:54.981|45=2|371=38|372=R|373=1|58=(1463): Hace falta campo requerido OrderQty(#38)|10=035|
8=FIX.4.4|9=110|35=A|34=1|49=001|50=001B27|52=20190528-21:24:23.621|56=EXC|43=Y|98=0|108=30|141=Y|553=001FCM001|554=001FCM001|10=076|
8=FIX.4.4|9=0067|35=A|34=1|49=EXC|56=001|52=20190528-21:24:22.051|98=0|108=30|141=Y|10=255|
8=FIX.4.4|9=122|35=R|34=2|49=001|50=001B27|52=20190528-21:24:28.800|56=EXC|131=1|146=1|453=2|448=002B35|447=C|452=37|448=DCV|447=C|452=10|10=038|
8=FIX.4.4|9=0125|35=3|34=2|49=EXC|56=001|52=20190528-21:24:27.221|45=2|371=38|372=R|373=1|58=(1463): Hace falta campo requerido OrderQty(#38)|10=022|
8=FIX.4.4|9=110|35=A|34=1|49=001|50=001B27|52=20190528-21:25:13.415|56=EXC|43=Y|98=0|108=30|141=Y|553=001FCM001|554=001FCM001|10=077|
8=FIX.4.4|9=0067|35=A|34=1|49=EXC|56=001|52=20190528-21:25:12.092|98=0|108=30|141=Y|10=004|
8=FIX.4.4|9=170|35=R|34=2|49=001|50=001B27|52=20190528-21:25:18.892|56=EXC|131=1|146=1|55=TFIC13280425|22=M|762=RFQF|54=1|38=500000000|453=2|448=002B35|447=C|452=37|448=DCV|447=C|452=10|10=204|
8=FIX.4.4|9=0147|35=AG|34=2|49=EXC|56=001|57=001B27|52=20190528-21:25:17.277|131=1|658=99|146=1|55=TFIC13280425|762=RFQF|22=M|58=(1653): Id de Cotización duplicada|10=241|
8=FIX.4.4|9=118|35=3|34=3|49=001|50=001B27|52=20190528-21:25:19.053|56=EXC|45=2|58=Required tag missing, field=38|371=38|372=AG|373=1|10=071|
8=FIX.4.4|9=0049|35=0|34=3|49=EXC|56=001|52=20190528-21:25:47.000|10=172|
8=FIX.4.4|9=59|35=0|34=4|49=001|50=001B27|52=20190528-21:25:49.145|56=EXC|10=057|
8=FIX.4.4|9=110|35=A|34=1|49=001|50=001B27|52=20190528-21:40:55.591|56=EXC|43=Y|98=0|108=30|141=Y|553=001FCM001|554=001FCM001|10=085|
8=FIX.4.4|9=0067|35=A|34=1|49=EXC|56=001|52=20190528-21:40:54.060|98=0|108=30|141=Y|10=002|
8=FIX.4.4|9=170|35=R|34=2|49=001|50=001B27|52=20190528-21:41:00.781|56=EXC|131=1|146=1|55=TFIC13280425|22=M|762=RFQF|54=1|38=500000000|453=2|448=002B35|447=C|452=37|448=DCV|447=C|452=10|10=190|
8=FIX.4.4|9=0147|35=AG|34=2|49=EXC|56=001|57=001B27|52=20190528-21:40:59.167|131=1|658=99|146=1|55=TFIC13280425|762=RFQF|22=M|58=(1653): Id de Cotización duplicada|10=242|
8=FIX.4.4|9=118|35=3|34=3|49=001|50=001B27|52=20190528-21:41:00.828|56=EXC|45=2|58=Required tag missing, field=38|371=38|372=AG|373=1|10=069|
8=FIX.4.4|9=0049|35=0|34=3|49=EXC|56=001|52=20190528-21:41:29.000|10=170|
8=FIX.4.4|9=59|35=0|34=4|49=001|50=001B27|52=20190528-21:41:31.538|56=EXC|10=052|
8=FIX.4.4|9=110|35=A|34=1|49=001|50=001B27|52=20190528-21:42:08.487|56=EXC|43=Y|98=0|108=30|141=Y|553=001FCM001|554=001FCM001|10=089|
8=FIX.4.4|9=0067|35=A|34=1|49=EXC|56=001|52=20190528-21:42:06.900|98=0|108=30|141=Y|10=004|
8=FIX.4.4|9=170|35=R|34=2|49=001|50=001B27|52=20190528-21:42:13.906|56=EXC|131=1|146=1|55=TFIC13280425|22=M|762=RFQF|54=1|38=500000000|453=2|448=002B35|447=C|452=37|448=DCV|447=C|452=10|10=194|
8=FIX.4.4|9=0147|35=AG|34=2|49=EXC|56=001|57=001B27|52=20190528-21:42:12.278|131=1|658=99|146=1|55=TFIC13280425|762=RFQF|22=M|58=(1653): Id de Cotización duplicada|10=236|
8=FIX.4.4|9=118|35=3|34=3|49=001|50=001B27|52=20190528-21:42:13.937|56=EXC|45=2|58=Required tag missing, field=38|371=38|372=AG|373=1|10=075|
8=FIX.4.4|9=110|35=A|34=1|49=001|50=001B27|52=20190528-21:52:42.151|56=EXC|43=Y|98=0|108=30|141=Y|553=001FCM001|554=001FCM001|10=076|
8=FIX.4.4|9=0067|35=A|34=1|49=EXC|56=001|52=20190528-21:52:40.554|98=0|108=30|141=Y|10=008|
8=FIX.4.4|9=170|35=R|34=2|49=001|50=001B27|52=20190528-21:52:47.289|56=EXC|131=1|146=1|55=TFIC13280425|22=M|762=RFQF|54=1|38=500000000|453=2|448=002B35|447=C|452=37|448=DCV|447=C|452=10|10=206|
8=FIX.4.4|9=0147|35=AG|34=2|49=EXC|56=001|57=001B27|52=20190528-21:52:45.648|131=1|658=99|146=1|55=TFIC13280425|762=RFQF|22=M|58=(1653): Id de Cotización duplicada|10=244|
8=FIX.4.4|9=118|35=3|34=3|49=001|50=001B27|52=20190528-21:52:47.318|56=EXC|45=2|58=Required tag missing, field=38|371=38|372=AG|373=1|10=076|
8=FIX.4.4|9=0049|35=0|34=3|49=EXC|56=001|52=20190528-21:53:15.000|10=168|
8=FIX.4.4|9=59|35=0|34=4|49=001|50=001B27|52=20190528-21:53:18.115|56=EXC|10=051|
8=FIX.4.4|9=104|35=A|34=4|49=001|50=001B27|52=20190528-21:53:18.108|56=EXC|43=Y|98=0|108=30|553=001FCM001|554=001FCM001|10=043|
8=FIX.4.4|9=110|35=A|34=1|49=001|50=001B27|52=20190528-21:53:34.297|56=EXC|43=Y|98=0|108=30|141=Y|553=001FCM001|554=001FCM001|10=089|
8=FIX.4.4|9=0067|35=A|34=1|49=EXC|56=001|52=20190528-21:53:32.743|98=0|108=30|141=Y|10=010|
8=FIX.4.4|9=170|35=R|34=2|49=001|50=001B27|52=20190528-21:53:39.387|56=EXC|131=1|146=1|55=TFIC13280425|22=M|762=RFQF|54=1|38=500000000|453=2|448=002B35|447=C|452=37|448=DCV|447=C|452=10|10=207|
8=FIX.4.4|9=0147|35=AG|34=2|49=EXC|56=001|57=001B27|52=20190528-21:53:37.753|131=1|658=99|146=1|55=TFIC13280425|762=RFQF|22=M|58=(1653): Id de Cotización duplicada|10=243|
8=FIX.4.4|9=118|35=3|34=3|49=001|50=001B27|52=20190528-21:53:39.417|56=EXC|45=2|58=Required tag missing, field=38|371=38|372=AG|373=1|10=078|
8=FIX.4.4|9=110|35=A|34=1|49=001|50=001B27|52=20190528-22:03:18.389|56=EXC|43=Y|98=0|108=30|141=Y|553=001FCM001|554=001FCM001|10=089|
8=FIX.4.4|9=0067|35=A|34=1|49=EXC|56=001|52=20190528-22:03:16.796|98=0|108=30|141=Y|10=016|
8=FIX.4.4|9=170|35=R|34=2|49=001|50=001B27|52=20190528-22:03:23.458|56=EXC|131=1|146=1|55=TFIC13280425|22=M|762=RFQF|54=1|38=500000000|453=2|448=002B35|447=C|452=37|448=DCV|447=C|452=10|10=195|
8=FIX.4.4|9=0147|35=AG|34=2|49=EXC|56=001|57=001B27|52=20190528-22:03:21.825|131=1|658=99|146=1|55=TFIC13280425|762=RFQF|22=M|58=(1653): Id de Cotización duplicada|10=232|
8=FIX.4.4|9=118|35=3|34=3|49=001|50=001B27|52=20190528-22:03:23.496|56=EXC|45=2|58=Required tag missing, field=38|371=38|372=AG|373=1|10=074|
8=FIX.4.4|9=110|35=A|34=1|49=001|50=001B27|52=20190528-22:03:51.892|56=EXC|43=Y|98=0|108=30|141=Y|553=001FCM001|554=001FCM001|10=085|
8=FIX.4.4|9=0067|35=A|34=1|49=EXC|56=001|52=20190528-22:03:50.344|98=0|108=30|141=Y|10=003|
8=FIX.4.4|9=110|35=A|34=1|49=001|50=001B27|52=20190528-22:04:23.624|56=EXC|43=Y|98=0|108=30|141=Y|553=001FCM001|554=001FCM001|10=078|
8=FIX.4.4|9=0067|35=A|34=1|49=EXC|56=001|52=20190528-22:04:22.023|98=0|108=30|141=Y|10=253|
8=FIX.4.4|9=170|35=R|34=2|49=001|50=001B27|52=20190528-22:04:28.718|56=EXC|131=1|146=1|55=TFIC13280425|22=M|762=RFQF|54=1|38=500000000|453=2|448=002B35|447=C|452=37|448=DCV|447=C|452=10|10=200|
8=FIX.4.4|9=0147|35=AG|34=2|49=EXC|56=001|57=001B27|52=20190528-22:04:27.071|131=1|658=99|146=1|55=TFIC13280425|762=RFQF|22=M|58=(1653): Id de Cotización duplicada|10=232|
8=FIX.4.4|9=118|35=3|34=3|49=001|50=001B27|52=20190528-22:04:28.737|56=EXC|45=2|58=Required tag missing, field=38|371=38|372=AG|373=1|10=078|
8=FIX.4.4|9=110|35=A|34=1|49=001|50=001B27|52=20190528-22:05:09.045|56=EXC|43=Y|98=0|108=30|141=Y|553=001FCM001|554=001FCM001|10=080|
8=FIX.4.4|9=0067|35=A|34=1|49=EXC|56=001|52=20190528-22:05:07.450|98=0|108=30|141=Y|10=005|
8=FIX.4.4|9=170|35=R|34=2|49=001|50=001B27|52=20190528-22:05:14.193|56=EXC|131=1|146=1|55=TFIC13280425|22=M|762=RFQF|54=1|38=500000000|453=2|448=002B35|447=C|452=37|448=DCV|447=C|452=10|10=193|
8=FIX.4.4|9=0147|35=AG|34=2|49=EXC|56=001|57=001B27|52=20190528-22:05:12.548|131=1|658=99|146=1|55=TFIC13280425|762=RFQF|22=M|58=(1653): Id de Cotización duplicada|10=236|
8=FIX.4.4|9=118|35=3|34=3|49=001|50=001B27|52=20190528-22:05:14.209|56=EXC|45=2|58=Required tag missing, field=38|371=38|372=AG|373=1|10=068|
8=FIX.4.4|9=0049|35=0|34=3|49=EXC|56=001|52=20190528-22:05:42.000|10=166|
8=FIX.4.4|9=59|35=0|34=4|49=001|50=001B27|52=20190528-22:05:45.044|56=EXC|10=050|
8=FIX.4.4|9=0049|35=0|34=4|49=EXC|56=001|52=20190528-22:06:12.000|10=165|
8=FIX.4.4|9=59|35=0|34=5|49=001|50=001B27|52=20190528-22:06:16.038|56=EXC|10=053|
8=FIX.4.4|9=0049|35=0|34=5|49=EXC|56=001|52=20190528-22:06:42.000|10=169|
8=FIX.4.4|9=59|35=0|34=6|49=001|50=001B27|52=20190528-22:06:46.035|56=EXC|10=054|
8=FIX.4.4|9=0049|35=0|34=6|49=EXC|56=001|52=20190528-22:07:12.000|10=168|
8=FIX.4.4|9=59|35=0|34=7|49=001|50=001B27|52=20190528-22:07:16.042|56=EXC|10=051|
8=FIX.4.4|9=0049|35=0|34=7|49=EXC|56=001|52=20190528-22:07:42.000|10=172|
8=FIX.4.4|9=59|35=0|34=8|49=001|50=001B27|52=20190528-22:07:46.042|56=EXC|10=055|
8=FIX.4.4|9=0049|35=0|34=8|49=EXC|56=001|52=20190528-22:08:12.000|10=171|
8=FIX.4.4|9=59|35=0|34=9|49=001|50=001B27|52=20190528-22:08:16.038|56=EXC|10=059|
8=FIX.4.4|9=0049|35=0|34=9|49=EXC|56=001|52=20190528-22:08:42.000|10=175|
8=FIX.4.4|9=60|35=0|34=10|49=001|50=001B27|52=20190528-22:08:46.045|56=EXC|10=092|
8=FIX.4.4|9=0050|35=0|34=10|49=EXC|56=001|52=20190528-22:09:12.000|10=205|
8=FIX.4.4|9=60|35=0|34=11|49=001|50=001B27|52=20190528-22:09:16.045|56=EXC|10=091|
8=FIX.4.4|9=0050|35=0|34=11|49=EXC|56=001|52=20190528-22:09:42.000|10=209|
8=FIX.4.4|9=60|35=0|34=12|49=001|50=001B27|52=20190528-22:09:47.039|56=EXC|10=099|
8=FIX.4.4|9=0050|35=0|34=12|49=EXC|56=001|52=20190528-22:10:12.000|10=199|
8=FIX.4.4|9=60|35=0|34=13|49=001|50=001B27|52=20190528-22:10:17.039|56=EXC|10=089|
8=FIX.4.4|9=0050|35=0|34=13|49=EXC|56=001|52=20190528-22:10:42.000|10=203|
8=FIX.4.4|9=60|35=0|34=14|49=001|50=001B27|52=20190528-22:10:47.042|56=EXC|10=087|
8=FIX.4.4|9=0050|35=0|34=14|49=EXC|56=001|52=20190528-22:11:12.000|10=202|
8=FIX.4.4|9=60|35=0|34=15|49=001|50=001B27|52=20190528-22:11:17.035|56=EXC|10=088|
8=FIX.4.4|9=0050|35=0|34=15|49=EXC|56=001|52=20190528-22:11:42.000|10=206|
8=FIX.4.4|9=60|35=0|34=16|49=001|50=001B27|52=20190528-22:11:47.042|56=EXC|10=090|
8=FIX.4.4|9=0050|35=0|34=16|49=EXC|56=001|52=20190528-22:12:12.000|10=205|
8=FIX.4.4|9=60|35=0|34=17|49=001|50=001B27|52=20190528-22:12:17.036|56=EXC|10=092|
8=FIX.4.4|9=105|35=A|34=18|49=001|50=001B27|52=20190528-22:12:21.429|56=EXC|43=Y|98=0|108=30|553=001FCM001|554=001FCM001|10=093|
8=FIX.4.4|9=0062|35=A|34=17|49=EXC|56=001|52=20190528-22:12:19.827|98=0|108=30|10=019|
8=FIX.4.4|9=105|35=A|34=19|49=001|50=001B27|52=20190528-22:12:23.078|56=EXC|43=Y|98=0|108=30|553=001FCM001|554=001FCM001|10=096|
8=FIX.4.4|9=0062|35=A|34=18|49=EXC|56=001|52=20190528-22:12:21.456|98=0|108=30|10=011|
8=FIX.4.4|9=0050|35=0|34=19|49=EXC|56=001|52=20190528-22:12:51.000|10=211|
8=FIX.4.4|9=60|35=0|34=20|49=001|50=001B27|52=20190528-22:12:54.041|56=EXC|10=083|
8=FIX.4.4|9=0050|35=0|34=20|49=EXC|56=001|52=20190528-22:13:21.000|10=201|
8=FIX.4.4|9=60|35=0|34=21|49=001|50=001B27|52=20190528-22:13:24.034|56=EXC|10=084|
8=FIX.4.4|9=0050|35=0|34=21|49=EXC|56=001|52=20190528-22:13:51.000|10=205|
8=FIX.4.4|9=60|35=0|34=22|49=001|50=001B27|52=20190528-22:13:54.041|56=EXC|10=086|
8=FIX.4.4|9=0050|35=0|34=22|49=EXC|56=001|52=20190528-22:14:21.000|10=204|
8=FIX.4.4|9=60|35=0|34=23|49=001|50=001B27|52=20190528-22:14:24.042|56=EXC|10=086|
8=FIX.4.4|9=0050|35=0|34=23|49=EXC|56=001|52=20190528-22:14:51.000|10=208|
8=FIX.4.4|9=60|35=0|34=24|49=001|50=001B27|52=20190528-22:14:55.028|56=EXC|10=095|
8=FIX.4.4|9=0050|35=0|34=24|49=EXC|56=001|52=20190528-22:15:21.000|10=207|
8=FIX.4.4|9=60|35=0|34=25|49=001|50=001B27|52=20190528-22:15:25.039|56=EXC|10=096|
8=FIX.4.4|9=0050|35=0|34=25|49=EXC|56=001|52=20190528-22:15:51.000|10=211|
8=FIX.4.4|9=60|35=0|34=26|49=001|50=001B27|52=20190528-22:15:56.028|56=EXC|10=099|
8=FIX.4.4|9=110|35=A|34=1|49=001|50=001B27|52=20190528-22:18:44.985|56=EXC|43=Y|98=0|108=30|141=Y|553=001FCM001|554=001FCM001|10=096|
8=FIX.4.4|9=0067|35=A|34=1|49=EXC|56=001|52=20190528-22:18:43.075|98=0|108=30|141=Y|10=012|
8=FIX.4.4|9=170|35=R|34=2|49=001|50=001B27|52=20190528-22:18:50.345|56=EXC|131=1|146=1|55=TFIC13280425|22=M|762=RFQF|54=1|38=500000000|453=2|448=002B35|447=C|452=37|448=DCV|447=C|452=10|10=196|
8=FIX.4.4|9=0147|35=AG|34=2|49=EXC|56=001|57=001B27|52=20190528-22:18:48.367|131=1|658=99|146=1|55=TFIC13280425|762=RFQF|22=M|58=(1653): Id de Cotización duplicada|10=248|
8=FIX.4.4|9=118|35=3|34=3|49=001|50=001B27|52=20190528-22:18:50.364|56=EXC|45=2|58=Required tag missing, field=38|371=38|372=AG|373=1|10=074|
8=FIX.4.4|9=110|35=A|34=1|49=001|50=001B27|52=20190528-22:21:26.157|56=EXC|43=Y|98=0|108=30|141=Y|553=001FCM001|554=001FCM001|10=081|
8=FIX.4.4|9=0067|35=A|34=1|49=EXC|56=001|52=20190528-22:21:24.239|98=0|108=30|141=Y|10=007|
8=FIX.4.4|9=170|35=R|34=2|49=001|50=001B27|52=20190528-22:21:31.276|56=EXC|131=1|146=1|55=TFIC13280425|22=M|762=RFQF|54=1|38=500000000|453=2|448=002B35|447=C|452=37|448=DCV|447=C|452=10|10=192|
8=FIX.4.4|9=0147|35=AG|34=2|49=EXC|56=001|57=001B27|52=20190528-22:21:29.296|131=1|658=99|146=1|55=TFIC13280425|762=RFQF|22=M|58=(1653): Id de Cotización duplicada|10=242|
8=FIX.4.4|9=118|35=3|34=3|49=001|50=001B27|52=20190528-22:21:31.297|56=EXC|45=2|58=Required tag missing, field=38|371=38|372=AG|373=1|10=072|
8=FIX.4.4|9=0049|35=0|34=3|49=EXC|56=001|52=20190528-22:21:59.000|10=172|
8=FIX.4.4|9=59|35=0|34=4|49=001|50=001B27|52=20190528-22:22:02.136|56=EXC|10=044|
8=FIX.4.4|9=110|35=A|34=1|49=001|50=001B27|52=20190528-22:28:00.263|56=EXC|43=Y|98=0|108=30|141=Y|553=001FCM001|554=001FCM001|10=078|
8=FIX.4.4|9=0067|35=A|34=1|49=EXC|56=001|52=20190528-22:27:58.334|98=0|108=30|141=Y|10=016|
8=FIX.4.4|9=170|35=R|34=2|49=001|50=001B27|52=20190528-22:28:05.328|56=EXC|131=1|146=1|55=TFIC13280425|22=M|762=RFQF|54=1|38=500000000|453=2|448=002B35|447=C|452=37|448=DCV|447=C|452=10|10=198|
8=FIX.4.4|9=0147|35=AG|34=2|49=EXC|56=001|57=001B27|52=20190528-22:28:03.353|131=1|658=99|146=1|55=TFIC13280425|762=RFQF|22=M|58=(1653): Id de Cotización duplicada|10=235|
8=FIX.4.4|9=105|35=j|34=3|49=001|50=001B27|52=20190528-22:28:05.359|56=EXC|45=2|58=Unsupported Message Type|372=AG|380=3|10=223|
8=FIX.4.4|9=0109|35=j|34=3|49=EXC|56=001|57=001B27|52=20190528-22:28:03.376|45=3|372=j|380=3|58=(1468): MsgType(#35) invalido|10=067|
8=FIX.4.4|9=110|35=A|34=1|49=001|50=001B27|52=20190528-22:33:54.350|56=EXC|43=Y|98=0|108=30|141=Y|553=001FCM001|554=001FCM001|10=080|
8=FIX.4.4|9=0067|35=A|34=1|49=EXC|56=001|52=20190528-22:33:52.430|98=0|108=30|141=Y|10=004|
8=FIX.4.4|9=177|35=R|34=2|49=001|50=001B27|52=20190528-22:33:59.432|56=EXC|131=74221523|146=1|55=TFIC13280425|22=M|762=RFQF|54=1|38=500000000|453=2|448=002B35|447=C|452=37|448=DCV|447=C|452=10|10=055|
8=FIX.4.4|9=0259|35=AI|34=2|49=EXC|56=001|57=001B27|52=20190528-22:33:57.452|131=74221523|453=5|448=DCV|447=C|452=10|448=001B27|447=C|452=12|448=001|447=C|452=1|448=001FCM001|447=C|452=36|448=002B35|447=C|452=37|55=TFIC13280425|762=RFQF|48=20626|22=M|54=1|38=500000000|297=10|10=210|
8=FIX.4.4|9=110|35=A|34=1|49=001|50=001B27|52=20190528-22:50:59.568|56=EXC|43=Y|98=0|108=30|141=Y|553=001FCM001|554=001FCM001|10=095|
8=FIX.4.4|9=0067|35=A|34=1|49=EXC|56=001|52=20190528-22:50:57.630|98=0|108=30|141=Y|10=010|
8=FIX.4.4|9=0049|35=0|34=2|49=EXC|56=001|52=20190528-22:51:27.000|10=169|
8=FIX.4.4|9=59|35=0|34=2|49=001|50=001B27|52=20190528-22:51:30.537|56=EXC|10=050|
8=FIX.4.4|9=0049|35=0|34=3|49=EXC|56=001|52=20190528-22:51:57.000|10=173|
8=FIX.4.4|9=59|35=0|34=3|49=001|50=001B27|52=20190528-22:52:00.537|56=EXC|10=049|
8=FIX.4.4|9=110|35=A|34=1|49=001|50=001B27|52=20190528-22:53:04.208|56=EXC|43=Y|98=0|108=30|141=Y|553=001FCM001|554=001FCM001|10=079|
8=FIX.4.4|9=0067|35=A|34=1|49=EXC|56=001|52=20190528-22:53:02.269|98=0|108=30|141=Y|10=011|
8=FIX.4.4|9=0049|35=0|34=2|49=EXC|56=001|52=20190528-22:53:32.000|10=167|
8=FIX.4.4|9=59|35=0|34=2|49=001|50=001B27|52=20190528-22:53:35.174|56=EXC|10=054|
8=FIX.4.4|9=110|35=A|34=1|49=001|50=001B27|52=20190528-22:54:11.694|56=EXC|43=Y|98=0|108=30|141=Y|553=001FCM001|554=001FCM001|10=087|
8=FIX.4.4|9=0067|35=A|34=1|49=EXC|56=001|52=20190528-22:54:09.757|98=0|108=30|141=Y|10=021|
8=FIX.4.4|9=110|35=A|34=1|49=001|50=001B27|52=20190528-22:54:32.356|56=EXC|43=Y|98=0|108=30|141=Y|553=001FCM001|554=001FCM001|10=085|
8=FIX.4.4|9=0067|35=A|34=1|49=EXC|56=001|52=20190528-22:54:30.430|98=0|108=30|141=Y|10=003|
8=FIX.4.4|9=0049|35=0|34=2|49=EXC|56=001|52=20190528-22:55:00.000|10=164|
8=FIX.4.4|9=59|35=0|34=2|49=001|50=001B27|52=20190528-22:55:03.336|56=EXC|10=051|
8=FIX.4.4|9=0049|35=0|34=3|49=EXC|56=001|52=20190528-22:55:30.000|10=168|
8=FIX.4.4|9=59|35=0|34=3|49=001|50=001B27|52=20190528-22:55:33.336|56=EXC|10=055|
8=FIX.4.4|9=104|35=A|34=4|49=001|50=001B27|52=20190528-22:55:54.730|56=EXC|43=Y|98=0|108=30|553=001FCM001|554=001FCM001|10=047|
8=FIX.4.4|9=0061|35=A|34=4|49=EXC|56=001|52=20190528-22:55:52.778|98=0|108=30|10=231|
8=FIX.4.4|9=104|35=A|34=5|49=001|50=001B27|52=20190528-22:55:55.374|56=EXC|43=Y|98=0|108=30|553=001FCM001|554=001FCM001|10=053|
8=FIX.4.4|9=0061|35=A|34=5|49=EXC|56=001|52=20190528-22:55:53.413|98=0|108=30|10=219|
8=FIX.4.4|9=0049|35=0|34=6|49=EXC|56=001|52=20190528-22:56:23.000|10=174|
8=FIX.4.4|9=59|35=0|34=6|49=001|50=001B27|52=20190528-22:56:26.337|56=EXC|10=062|
8=FIX.4.4|9=0049|35=0|34=7|49=EXC|56=001|52=20190528-22:56:53.000|10=178|
8=FIX.4.4|9=59|35=0|34=7|49=001|50=001B27|52=20190528-22:56:57.328|56=EXC|10=067|
8=FIX.4.4|9=0049|35=0|34=8|49=EXC|56=001|52=20190528-22:57:23.000|10=177|
8=FIX.4.4|9=59|35=0|34=8|49=001|50=001B27|52=20190528-22:57:27.323|56=EXC|10=061|
8=FIX.4.4|9=110|35=A|34=1|49=001|50=001B27|52=20190528-22:57:58.536|56=EXC|43=Y|98=0|108=30|141=Y|553=001FCM001|554=001FCM001|10=096|
8=FIX.4.4|9=0067|35=A|34=1|49=EXC|56=001|52=20190528-22:57:56.609|98=0|108=30|141=Y|10=022|
8=FIX.4.4|9=177|35=R|34=2|49=001|50=001B27|52=20190528-22:58:17.768|56=EXC|131=17224066|146=1|55=TFIC13280425|22=M|762=RFQF|54=1|38=500000000|453=2|448=002B35|447=C|452=37|448=DCV|447=C|452=10|10=070|
8=FIX.4.4|9=0259|35=AI|34=2|49=EXC|56=001|57=001B27|52=20190528-22:58:15.805|131=17224066|453=5|448=DCV|447=C|452=10|448=001B27|447=C|452=12|448=001|447=C|452=1|448=001FCM001|447=C|452=36|448=002B35|447=C|452=37|55=TFIC13280425|762=RFQF|48=20626|22=M|54=1|38=500000000|297=10|10=215|
8=FIX.4.4|9=0049|35=0|34=3|49=EXC|56=001|52=20190528-22:58:45.000|10=177|
8=FIX.4.4|9=59|35=0|34=3|49=001|50=001B27|52=20190528-22:58:48.479|56=EXC|10=072|
8=FIX.4.4|9=0049|35=0|34=4|49=EXC|56=001|52=20190528-22:59:15.000|10=176|
8=FIX.4.4|9=59|35=0|34=4|49=001|50=001B27|52=20190528-22:59:18.482|56=EXC|10=065|
8=FIX.4.4|9=110|35=A|34=1|49=001|50=001B27|52=20190528-23:23:04.262|56=EXC|43=Y|98=0|108=30|141=Y|553=001FCM001|554=001FCM001|10=077|
8=FIX.4.4|9=0067|35=A|34=1|49=EXC|56=001|52=20190528-23:23:02.360|98=0|108=30|141=Y|10=001|
8=FIX.4.4|9=177|35=R|34=2|49=001|50=001B27|52=20190528-23:23:32.051|56=EXC|131=69411538|146=1|55=TFIC13280425|22=M|762=RFQF|54=1|38=500000000|453=2|448=002B35|447=C|452=37|448=DCV|447=C|452=10|10=054|
8=FIX.4.4|9=0259|35=AI|34=2|49=EXC|56=001|57=001B27|52=20190528-23:23:30.109|131=69411538|453=5|448=DCV|447=C|452=10|448=001B27|447=C|452=12|448=001|447=C|452=1|448=001FCM001|447=C|452=36|448=002B35|447=C|452=37|55=TFIC13280425|762=RFQF|48=20626|22=M|54=1|38=500000000|297=10|10=211|
8=FIX.4.4|9=110|35=A|34=1|49=001|50=001B27|52=20190528-23:28:59.341|56=EXC|43=Y|98=0|108=30|141=Y|553=001FCM001|554=001FCM001|10=090|
8=FIX.4.4|9=0067|35=A|34=1|49=EXC|56=001|52=20190528-23:28:57.470|98=0|108=30|141=Y|10=018|
8=FIX.4.4|9=177|35=R|34=2|49=001|50=001B27|52=20190528-23:29:04.516|56=EXC|131=50674926|146=1|55=TFIC13280425|22=M|762=RFQF|54=1|38=500000000|453=2|448=002B35|447=C|452=37|448=DCV|447=C|452=10|10=067|
8=FIX.4.4|9=0259|35=AI|34=2|49=EXC|56=001|57=001B27|52=20190528-23:29:02.521|131=50674926|453=5|448=DCV|447=C|452=10|448=001B27|447=C|452=12|448=001|447=C|452=1|448=001FCM001|447=C|452=36|448=002B35|447=C|452=37|55=TFIC13280425|762=RFQF|48=20626|22=M|54=1|38=500000000|297=10|10=216|
8=FIX.4.4|9=0049|35=0|34=3|49=EXC|56=001|52=20190528-23:29:32.000|10=172|
8=FIX.4.4|9=59|35=0|34=3|49=001|50=001B27|52=20190528-23:29:35.313|56=EXC|10=054|
8=FIX.4.4|9=104|35=A|34=4|49=001|50=001B27|52=20190528-23:29:40.150|56=EXC|43=Y|98=0|108=30|553=001FCM001|554=001FCM001|10=040|
8=FIX.4.4|9=0061|35=A|34=4|49=EXC|56=001|52=20190528-23:29:38.223|98=0|108=30|10=222|
8=FIX.4.4|9=177|35=R|34=5|49=001|50=001B27|52=20190528-23:29:45.325|56=EXC|131=41581161|146=1|55=TFIC13280425|22=M|762=RFQF|54=1|38=500000000|453=2|448=002B35|447=C|452=37|448=DCV|447=C|452=10|10=061|
8=FIX.4.4|9=0259|35=AI|34=5|49=EXC|56=001|57=001B27|52=20190528-23:29:43.336|131=41581161|453=5|448=DCV|447=C|452=10|448=001B27|447=C|452=12|448=001|447=C|452=1|448=001FCM001|447=C|452=36|448=002B35|447=C|452=37|55=TFIC13280425|762=RFQF|48=20626|22=M|54=1|38=500000000|297=10|10=216|
8=FIX.4.4|9=0049|35=0|34=6|49=EXC|56=001|52=20190528-23:30:13.000|10=166|
8=FIX.4.4|9=59|35=0|34=6|49=001|50=001B27|52=20190528-23:30:16.112|56=EXC|10=045|
8=FIX.4.4|9=110|35=A|34=1|49=001|50=001B27|52=20190528-23:30:32.165|56=EXC|43=Y|98=0|108=30|141=Y|553=001FCM001|554=001FCM001|10=078|
8=FIX.4.4|9=0067|35=A|34=1|49=EXC|56=001|52=20190528-23:30:30.260|98=0|108=30|141=Y|10=255|
8=FIX.4.4|9=177|35=R|34=2|49=001|50=001B27|52=20190528-23:30:37.407|56=EXC|131=26669467|146=1|55=TFIC13280425|22=M|762=RFQF|54=1|38=500000000|453=2|448=002B35|447=C|452=37|448=DCV|447=C|452=10|10=071|
8=FIX.4.4|9=0259|35=AI|34=2|49=EXC|56=001|57=001B27|52=20190528-23:30:35.423|131=26669467|453=5|448=DCV|447=C|452=10|448=001B27|447=C|452=12|448=001|447=C|452=1|448=001FCM001|447=C|452=36|448=002B35|447=C|452=37|55=TFIC13280425|762=RFQF|48=20626|22=M|54=1|38=500000000|297=10|10=222|
8=FIX.4.4|9=110|35=A|34=1|49=001|50=001B27|52=20190528-23:44:14.402|56=EXC|43=Y|98=0|108=30|141=Y|553=001FCM001|554=001FCM001|10=077|
8=FIX.4.4|9=0067|35=A|34=1|49=EXC|56=001|52=20190528-23:44:12.485|98=0|108=30|141=Y|10=013|
8=FIX.4.4|9=177|35=R|34=2|49=001|50=001B27|52=20190528-23:44:19.615|56=EXC|131=10078265|146=1|55=TFIC13280425|22=M|762=RFQF|54=1|38=500000000|453=2|448=002B35|447=C|452=37|448=DCV|447=C|452=10|10=060|
8=FIX.4.4|9=0259|35=AI|34=2|49=EXC|56=001|57=001B27|52=20190528-23:44:17.610|131=10078265|453=5|448=DCV|447=C|452=10|448=001B27|447=C|452=12|448=001|447=C|452=1|448=001FCM001|447=C|452=36|448=002B35|447=C|452=37|55=TFIC13280425|762=RFQF|48=20626|22=M|54=1|38=500000000|297=10|10=208|
8=FIX.4.4|9=0049|35=0|34=3|49=EXC|56=001|52=20190528-23:44:47.000|10=175|
8=FIX.4.4|9=59|35=0|34=3|49=001|50=001B27|52=20190528-23:44:50.373|56=EXC|10=054|
8=FIX.4.4|9=0049|35=0|34=4|49=EXC|56=001|52=20190528-23:45:17.000|10=174|
8=FIX.4.4|9=59|35=0|34=4|49=001|50=001B27|52=20190528-23:45:20.382|56=EXC|10=053|
8=FIX.4.4|9=110|35=A|34=1|49=001|50=001B27|52=20190528-23:49:03.852|56=EXC|43=Y|98=0|108=30|141=Y|553=001FCM001|554=001FCM001|10=089|
8=FIX.4.4|9=0067|35=A|34=1|49=EXC|56=001|52=20190528-23:49:01.891|98=0|108=30|141=Y|10=017|
8=FIX.4.4|9=176|35=R|34=2|49=001|50=001B27|52=20190528-23:49:09.086|56=EXC|131=1676145|146=1|55=TFIC13280425|22=M|762=RFQF|54=1|38=500000000|453=2|448=002B35|447=C|452=37|448=DCV|447=C|452=10|10=018|
8=FIX.4.4|9=0258|35=AI|34=2|49=EXC|56=001|57=001B27|52=20190528-23:49:07.099|131=1676145|453=5|448=DCV|447=C|452=10|448=001B27|447=C|452=12|448=001|447=C|452=1|448=001FCM001|447=C|452=36|448=002B35|447=C|452=37|55=TFIC13280425|762=RFQF|48=20626|22=M|54=1|38=500000000|297=10|10=175|
8=FIX.4.4|9=0049|35=0|34=3|49=EXC|56=001|52=20190528-23:49:37.000|10=179|
8=FIX.4.4|9=59|35=0|34=3|49=001|50=001B27|52=20190528-23:49:39.815|56=EXC|10=067|
8=FIX.4.4|9=110|35=A|34=1|49=001|50=001B27|52=20190529-12:56:26.506|56=EXC|43=Y|98=0|108=30|141=Y|553=001FCM001|554=001FCM001|10=087|
8=FIX.4.4|9=0067|35=A|34=1|49=EXC|56=001|52=20190529-12:56:23.181|98=0|108=30|141=Y|10=010|
8=FIX.4.4|9=0049|35=0|34=2|49=EXC|56=001|52=20190529-12:56:53.000|10=173|
8=FIX.4.4|9=59|35=0|34=2|49=001|50=001B27|52=20190529-12:56:57.453|56=EXC|10=061|
8=FIX.4.4|9=110|35=A|34=1|49=001|50=001B27|52=20190529-13:07:49.786|56=EXC|43=Y|98=0|108=30|141=Y|553=001FCM001|554=001FCM001|10=099|
8=FIX.4.4|9=0067|35=A|34=1|49=EXC|56=001|52=20190529-13:07:46.473|98=0|108=30|141=Y|10=016|
8=FIX.4.4|9=110|35=A|34=1|49=001|50=001B27|52=20190529-13:09:13.206|56=EXC|43=Y|98=0|108=30|141=Y|553=001FCM001|554=001FCM001|10=079|
8=FIX.4.4|9=0067|35=A|34=1|49=EXC|56=001|52=20190529-13:09:09.857|98=0|108=30|141=Y|10=023|
8=FIX.4.4|9=177|35=R|34=2|49=001|50=001B27|52=20190529-13:09:18.373|56=EXC|131=13596280|146=1|55=TFIC13280425|22=M|762=RFQF|54=1|38=500000000|453=2|448=002B35|447=C|452=37|448=DCV|447=C|452=10|10=066|
8=FIX.4.4|9=0259|35=AI|34=2|49=EXC|56=001|57=001B27|52=20190529-13:09:14.981|131=13596280|453=5|448=DCV|447=C|452=10|448=001B27|447=C|452=12|448=001|447=C|452=1|448=001FCM001|447=C|452=36|448=002B35|447=C|452=37|55=TFIC13280425|762=RFQF|48=20626|22=M|54=1|38=500000000|297=10|10=222|
8=FIX.4.4|9=0049|35=0|34=3|49=EXC|56=001|52=20190529-13:09:44.000|10=173|
8=FIX.4.4|9=59|35=0|34=3|49=001|50=001B27|52=20190529-13:09:49.167|56=EXC|10=064|
8=FIX.4.4|9=0049|35=0|34=4|49=EXC|56=001|52=20190529-13:10:14.000|10=163|
8=FIX.4.4|9=59|35=0|34=4|49=001|50=001B27|52=20190529-13:10:19.167|56=EXC|10=054|
8=FIX.4.4|9=0049|35=0|34=5|49=EXC|56=001|52=20190529-13:10:44.000|10=167|
8=FIX.4.4|9=59|35=0|34=5|49=001|50=001B27|52=20190529-13:10:49.167|56=EXC|10=058|
8=FIX.4.4|9=110|35=A|34=1|49=001|50=001B27|52=20190529-13:11:00.209|56=EXC|43=Y|98=0|108=30|141=Y|553=001FCM001|554=001FCM001|10=071|
8=FIX.4.4|9=110|35=A|34=1|49=001|50=001B27|52=20190529-13:48:02.097|56=EXC|43=Y|98=0|108=30|141=Y|553=001FCM001|554=001FCM001|10=088|
8=FIX.4.4|9=0067|35=A|34=1|49=EXC|56=001|52=20190529-13:47:58.447|98=0|108=30|141=Y|10=024|
8=FIX.4.4|9=110|35=A|34=1|49=001|50=001B27|52=20190529-13:49:11.252|56=EXC|43=Y|98=0|108=30|141=Y|553=001FCM001|554=001FCM001|10=082|
8=FIX.4.4|9=0067|35=A|34=1|49=EXC|56=001|52=20190529-13:49:07.647|98=0|108=30|141=Y|10=022|
8=FIX.4.4|9=177|35=R|34=2|49=001|50=001B27|52=20190529-13:49:16.489|56=EXC|131=24133302|146=1|55=TFIC13280425|22=M|762=RFQF|54=1|38=500000000|453=2|448=002B35|447=C|452=37|448=DCV|447=C|452=10|10=060|
8=FIX.4.4|9=0259|35=AI|34=2|49=EXC|56=001|57=001B27|52=20190529-13:49:12.782|131=24133302|453=5|448=DCV|447=C|452=10|448=001B27|447=C|452=12|448=001|447=C|452=1|448=001FCM001|447=C|452=36|448=002B35|447=C|452=37|55=TFIC13280425|762=RFQF|48=20626|22=M|54=1|38=500000000|297=10|10=207|
8=FIX.4.4|9=110|35=A|34=1|49=001|50=001B27|52=20190529-14:16:15.741|56=EXC|43=Y|98=0|108=30|141=Y|553=001FCM001|554=001FCM001|10=084|
8=FIX.4.4|9=0067|35=A|34=1|49=EXC|56=001|52=20190529-14:16:12.381|98=0|108=30|141=Y|10=008|
8=FIX.4.4|9=0049|35=0|34=2|49=EXC|56=001|52=20190529-14:16:42.000|10=169|
8=FIX.4.4|9=110|35=A|34=1|49=001|50=001B27|52=20190529-14:17:32.647|56=EXC|43=Y|98=0|108=30|141=Y|553=001FCM001|554=001FCM001|10=089|
8=FIX.4.4|9=0067|35=A|34=1|49=EXC|56=001|52=20190529-14:17:29.348|98=0|108=30|141=Y|10=020|
8=FIX.4.4|9=177|35=R|34=2|49=001|50=001B27|52=20190529-14:17:38.040|56=EXC|131=79169059|146=1|55=TFIC13280425|22=M|762=RFQF|54=1|38=500000000|453=2|448=002B35|447=C|452=37|448=DCV|447=C|452=10|10=071|
8=FIX.4.4|9=0259|35=AI|34=2|49=EXC|56=001|57=001B27|52=20190529-14:17:34.618|131=79169059|453=5|448=DCV|447=C|452=10|448=001B27|447=C|452=12|448=001|447=C|452=1|448=001FCM001|447=C|452=36|448=002B35|447=C|452=37|55=TFIC13280425|762=RFQF|48=20626|22=M|54=1|38=500000000|297=10|10=233|
8=FIX.4.4|9=110|35=A|34=1|49=001|50=001B27|52=20190529-14:23:23.237|56=EXC|43=Y|98=0|108=30|141=Y|553=001FCM001|554=001FCM001|10=081|
8=FIX.4.4|9=0067|35=A|34=1|49=EXC|56=001|52=20190529-14:23:19.910|98=0|108=30|141=Y|10=011|
8=FIX.4.4|9=110|35=A|34=1|49=001|50=001B27|52=20190529-14:57:00.337|56=EXC|43=Y|98=0|108=30|141=Y|553=001FCM001|554=001FCM001|10=084|
8=FIX.4.4|9=0067|35=A|34=1|49=EXC|56=001|52=20190529-14:56:56.934|98=0|108=30|141=Y|10=024|
8=FIX.4.4|9=0049|35=0|34=2|49=EXC|56=001|52=20190529-14:57:26.000|10=176|
8=FIX.4.4|9=59|35=0|34=2|49=001|50=001B27|52=20190529-14:57:31.297|56=EXC|10=062|
8=FIX.4.4|9=0049|35=0|34=3|49=EXC|56=001|52=20190529-14:57:56.000|10=180|
8=FIX.4.4|9=59|35=0|34=3|49=001|50=001B27|52=20190529-14:58:02.287|56=EXC|10=061|
8=FIX.4.4|9=0049|35=0|34=4|49=EXC|56=001|52=20190529-14:58:26.000|10=179|
8=FIX.4.4|9=59|35=0|34=4|49=001|50=001B27|52=20190529-14:58:32.287|56=EXC|10=065|
8=FIX.4.4|9=0049|35=0|34=5|49=EXC|56=001|52=20190529-14:58:56.000|10=183|
8=FIX.4.4|9=59|35=0|34=5|49=001|50=001B27|52=20190529-14:59:02.297|56=EXC|10=065|
8=FIX.4.4|9=0049|35=0|34=6|49=EXC|56=001|52=20190529-14:59:26.000|10=182|
8=FIX.4.4|9=59|35=0|34=6|49=001|50=001B27|52=20190529-14:59:33.287|56=EXC|10=069|
8=FIX.4.4|9=0049|35=0|34=7|49=EXC|56=001|52=20190529-14:59:56.000|10=186|
8=FIX.4.4|9=59|35=0|34=7|49=001|50=001B27|52=20190529-15:00:03.296|56=EXC|10=054|
8=FIX.4.4|9=0049|35=0|34=8|49=EXC|56=001|52=20190529-15:00:26.000|10=171|
8=FIX.4.4|9=59|35=0|34=8|49=001|50=001B27|52=20190529-15:00:34.287|56=EXC|10=059|
8=FIX.4.4|9=0049|35=0|34=9|49=EXC|56=001|52=20190529-15:00:56.000|10=175|
8=FIX.4.4|9=59|35=0|34=9|49=001|50=001B27|52=20190529-15:01:04.287|56=EXC|10=058|
8=FIX.4.4|9=0050|35=0|34=10|49=EXC|56=001|52=20190529-15:01:26.000|10=205|
8=FIX.4.4|9=60|35=0|34=10|49=001|50=001B27|52=20190529-15:01:34.286|56=EXC|10=092|
8=FIX.4.4|9=110|35=A|34=1|49=001|50=001B27|52=20190529-15:02:18.786|56=EXC|43=Y|98=0|108=30|141=Y|553=001FCM001|554=001FCM001|10=092|
8=FIX.4.4|9=0067|35=A|34=1|49=EXC|56=001|52=20190529-15:02:15.395|98=0|108=30|141=Y|10=012|
8=FIX.4.4|9=0049|35=0|34=2|49=EXC|56=001|52=20190529-15:02:45.000|10=168|
8=FIX.4.4|9=59|35=0|34=2|49=001|50=001B27|52=20190529-15:02:49.774|56=EXC|10=062|
8=FIX.4.4|9=0049|35=0|34=3|49=EXC|56=001|52=20190529-15:03:15.000|10=167|
8=FIX.4.4|9=59|35=0|34=3|49=001|50=001B27|52=20190529-15:03:19.777|56=EXC|10=064|
8=FIX.4.4|9=0049|35=0|34=4|49=EXC|56=001|52=20190529-15:03:45.000|10=171|
8=FIX.4.4|9=59|35=0|34=4|49=001|50=001B27|52=20190529-15:03:49.777|56=EXC|10=068|
