8=FIX.4.4|9=110|35=A|34=1|49=029|50=029B17|52=20190718-18:54:54.806|56=EXC|43=N|98=0|108=30|141=Y|553=029FCM001|554=029FCM001|10=123|
8=FIX.4.4|9=0067|35=A|34=1|49=EXC|56=029|52=20190718-18:55:39.008|98=0|108=30|141=Y|10=030|
8=FIX.4.4|9=162|35=R|34=2|49=029|50=029B17|52=20190718-18:55:02.046|56=EXC|131=201907181354511_R|146=1|55=T24U19F|22=M|762=AFIR|54=1|38=100|1=RT001|453=1|448=037B18|447=C|452=37|10=194|
8=FIX.4.4|9=0244|35=AI|34=2|49=EXC|56=029|57=029B17|52=20190718-18:55:46.226|131=201907181354511_R|453=4|448=029B17|447=C|452=12|448=029|447=C|452=1|448=029FCM001|447=C|452=36|448=037B18|447=C|452=37|55=T24U19F|762=AFIR|48=27227|22=M|54=1|1=RT001|38=100|297=10|10=134|
8=FIX.4.4|9=0049|35=0|34=3|49=EXC|56=029|52=20190718-18:56:16.000|10=189|
8=FIX.4.4|9=59|35=0|34=3|49=029|50=029B17|52=20190718-18:55:32.710|56=EXC|10=075|
8=FIX.4.4|9=110|35=A|34=1|49=029|50=029B17|52=20190718-19:01:01.703|56=EXC|43=N|98=0|108=30|141=Y|553=029FCM001|554=029FCM001|10=104|
8=FIX.4.4|9=0067|35=A|34=1|49=EXC|56=029|52=20190718-19:01:45.922|98=0|108=30|141=Y|10=024|
8=FIX.4.4|9=0049|35=0|34=2|49=EXC|56=029|52=20190718-19:02:15.000|10=179|
8=FIX.4.4|9=59|35=0|34=2|49=029|50=029B17|52=20190718-19:01:32.648|56=EXC|10=076|
8=FIX.4.4|9=110|35=A|34=1|49=029|50=029B17|52=20190718-19:04:31.510|56=EXC|43=N|98=0|108=30|141=Y|553=029FCM001|554=029FCM001|10=106|
8=FIX.4.4|9=0067|35=A|34=1|49=EXC|56=029|52=20190718-19:05:15.748|98=0|108=30|141=Y|10=031|
8=FIX.4.4|9=162|35=R|34=2|49=029|50=029B17|52=20190718-19:04:38.722|56=EXC|131=201907181404281_R|146=1|55=T24U19F|22=M|762=AFIR|54=1|38=100|1=RT001|453=1|448=037B18|447=C|452=37|10=199|
8=FIX.4.4|9=0244|35=AI|34=2|49=EXC|56=029|57=029B17|52=20190718-19:05:22.917|131=201907181404281_R|453=4|448=029B17|447=C|452=12|448=029|447=C|452=1|448=029FCM001|447=C|452=36|448=037B18|447=C|452=37|55=T24U19F|762=AFIR|48=27227|22=M|54=1|1=RT001|38=100|297=10|10=131|
8=FIX.4.4|9=0049|35=0|34=3|49=EXC|56=029|52=20190718-19:05:52.000|10=184|
8=FIX.4.4|9=59|35=0|34=3|49=029|50=029B17|52=20190718-19:05:09.435|56=EXC|10=079|
8=FIX.4.4|9=110|35=A|34=1|49=029|50=029B17|52=20190718-19:41:03.841|56=EXC|43=N|98=0|108=30|141=Y|553=029FCM001|554=029FCM001|10=113|
8=FIX.4.4|9=0067|35=A|34=1|49=EXC|56=029|52=20190718-19:41:37.930|98=0|108=30|141=Y|10=028|
8=FIX.4.4|9=162|35=R|34=2|49=029|50=029B17|52=20190718-19:41:11.314|56=EXC|131=201907181441001_R|146=1|55=T24U19F|22=M|762=AFIR|54=1|38=100|1=RT001|453=1|448=037B18|447=C|452=37|10=179|
8=FIX.4.4|9=0244|35=AI|34=2|49=EXC|56=029|57=029B17|52=20190718-19:41:45.370|131=201907181441001_R|453=4|448=029B17|447=C|452=12|448=029|447=C|452=1|448=029FCM001|447=C|452=36|448=037B18|447=C|452=37|55=T24U19F|762=AFIR|48=27227|22=M|54=1|1=RT001|38=100|297=10|10=120|
8=FIX.4.4|9=0287|35=S|34=3|49=EXC|56=029|57=029B17|52=20190718-19:42:05.797|131=201907181441001_R|117=20190718-000000000001.00|55=T24U19F|762=AFIR|48=27227|22=M|453=4|448=029B17|447=C|452=12|448=029|447=C|452=1|448=029FCM001|447=C|452=36|448=037B18|447=C|452=37|133=1000.000|135=100|62=20190830-22:00:00|10=135|
8=FIX.4.4|9=59|35=0|34=3|49=029|50=029B17|52=20190718-19:41:41.794|56=EXC|10=083|
8=FIX.4.4|9=143|35=AJ|34=4|49=029|50=029B17|52=20190718-19:41:51.816|56=EXC|54=1|55=T24U19F|117=20190718-000000000001.00|693=201907181441001_AJ|694=1|762=AFIR|10=085|
8=FIX.4.4|9=0463|35=8|34=4|49=EXC|56=029|57=029B17|52=20190718-19:42:25.871|11=201907181441001_AJ|17=1|37=0|150=F|1080=20190718-000000000001.00|1081=5|453=5|448=029B17|447=C|452=12|448=029|447=C|452=1|448=037B18|447=C|452=37|448=037|447=C|452=17|448=029FCM001|447=C|452=36|55=T24U19F|762=AFIR|48=27227|22=M|6=1000.000|14=100|31=1000.000|32=100|38=100|39=2|54=1|60=20190718-19:42:25.871|75=20190718|63=1|64=20190718|151=0|1=RT001|381=250000000000.000|880=201907180000000001|828=99|10=165|
8=FIX.4.4|9=0049|35=0|34=5|49=EXC|56=029|52=20190718-19:42:55.000|10=190|
8=FIX.4.4|9=59|35=5|34=5|49=029|50=029B17|52=20190718-19:42:22.797|56=EXC|10=093|
8=FIX.4.4|9=0055|35=5|34=6|49=EXC|56=029|52=20190718-19:42:56.990|369=5|10=233|
8=FIX.4.4|9=110|35=A|34=1|49=029|50=029B17|52=20190719-14:44:06.708|56=EXC|43=N|98=0|108=30|141=Y|553=029FCM001|554=029FCM001|10=117|
8=FIX.4.4|9=0067|35=A|34=1|49=EXC|56=029|52=20190719-14:44:41.683|98=0|108=30|141=Y|10=027|
8=FIX.4.4|9=161|35=R|34=2|49=029|50=029B17|52=20190719-14:44:12.771|56=EXC|131=20190719944011_R|146=1|55=T24U19F|22=M|762=AFIR|54=1|38=100|1=RT001|453=1|448=037B18|447=C|452=37|10=146|
8=FIX.4.4|9=0243|35=AI|34=2|49=EXC|56=029|57=029B17|52=20190719-14:44:47.707|131=20190719944011_R|453=4|448=029B17|447=C|452=12|448=029|447=C|452=1|448=029FCM001|447=C|452=36|448=037B18|447=C|452=37|55=T24U19F|762=AFIR|48=27227|22=M|54=1|1=RT001|38=100|297=10|10=085|
8=FIX.4.4|9=110|35=A|34=1|49=029|50=029B17|52=20190719-14:56:25.678|56=EXC|43=N|98=0|108=30|141=Y|553=029FCM001|554=029FCM001|10=127|
8=FIX.4.4|9=0067|35=A|34=1|49=EXC|56=029|52=20190719-14:57:00.700|98=0|108=30|141=Y|10=016|
8=FIX.4.4|9=161|35=R|34=2|49=029|50=029B17|52=20190719-14:56:31.725|56=EXC|131=20190719956211_R|146=1|55=T24U19F|22=M|762=AFIR|54=1|38=100|1=RT001|453=1|448=037B18|447=C|452=37|10=154|
8=FIX.4.4|9=0243|35=AI|34=2|49=EXC|56=029|57=029B17|52=20190719-14:57:06.669|131=20190719956211_R|453=4|448=029B17|447=C|452=12|448=029|447=C|452=1|448=029FCM001|447=C|452=36|448=037B18|447=C|452=37|55=T24U19F|762=AFIR|48=27227|22=M|54=1|1=RT001|38=100|297=10|10=096|
8=FIX.4.4|9=0049|35=0|34=3|49=EXC|56=029|52=20190719-14:57:36.000|10=189|
8=FIX.4.4|9=110|35=A|34=1|49=029|50=029B17|52=20190719-15:37:21.244|56=EXC|43=N|98=0|108=30|141=Y|553=029FCM001|554=029FCM001|10=112|
8=FIX.4.4|9=0067|35=A|34=1|49=EXC|56=029|52=20190719-15:37:56.248|98=0|108=30|141=Y|10=033|
8=FIX.4.4|9=162|35=R|34=2|49=029|50=029B17|52=20190719-15:37:27.238|56=EXC|131=201907191037161_R|146=1|55=T24U19F|22=M|762=AFIR|54=1|38=100|1=RT001|453=1|448=037B18|447=C|452=37|10=202|
8=FIX.4.4|9=0244|35=AI|34=2|49=EXC|56=029|57=029B17|52=20190719-15:38:02.206|131=201907191037161_R|453=4|448=029B17|447=C|452=12|448=029|447=C|452=1|448=029FCM001|447=C|452=36|448=037B18|447=C|452=37|55=T24U19F|762=AFIR|48=27227|22=M|54=1|1=RT001|38=100|297=10|10=123|
8=FIX.4.4|9=0049|35=0|34=3|49=EXC|56=029|52=20190719-15:38:32.000|10=185|
8=FIX.4.4|9=59|35=0|34=3|49=029|50=029B17|52=20190719-15:37:57.829|56=EXC|10=091|
8=FIX.4.4|9=162|35=R|34=4|49=029|50=029B17|52=20190719-15:38:07.442|56=EXC|131=201907191037162_R|146=1|55=T24U19F|22=M|762=AFIR|54=2|38=100|1=RT001|453=1|448=037B18|447=C|452=37|10=202|
8=FIX.4.4|9=0244|35=AI|34=4|49=EXC|56=029|57=029B17|52=20190719-15:38:42.408|131=201907191037162_R|453=4|448=029B17|447=C|452=12|448=029|447=C|452=1|448=029FCM001|447=C|452=36|448=037B18|447=C|452=37|55=T24U19F|762=AFIR|48=27227|22=M|54=2|1=RT001|38=100|297=10|10=135|
8=FIX.4.4|9=0049|35=0|34=5|49=EXC|56=029|52=20190719-15:39:12.000|10=186|
8=FIX.4.4|9=59|35=0|34=5|49=029|50=029B17|52=20190719-15:38:37.828|56=EXC|10=091|
8=FIX.4.4|9=162|35=R|34=6|49=029|50=029B17|52=20190719-15:38:52.537|56=EXC|131=201907191037163_R|146=1|55=T24U19F|22=M|762=AFIR|54=1|38=150|1=RT001|453=1|448=037B18|447=C|452=37|10=214|
8=FIX.4.4|9=0244|35=AI|34=6|49=EXC|56=029|57=029B17|52=20190719-15:39:27.505|131=201907191037163_R|453=4|448=029B17|447=C|452=12|448=029|447=C|452=1|448=029FCM001|447=C|452=36|448=037B18|447=C|452=37|55=T24U19F|762=AFIR|48=27227|22=M|54=1|1=RT001|38=150|297=10|10=144|
8=FIX.4.4|9=0049|35=0|34=7|49=EXC|56=029|52=20190719-15:39:57.000|10=197|
8=FIX.4.4|9=59|35=0|34=7|49=029|50=029B17|52=20190719-15:39:22.539|56=EXC|10=087|
8=FIX.4.4|9=0049|35=0|34=8|49=EXC|56=029|52=20190719-15:40:27.000|10=187|
8=FIX.4.4|9=59|35=0|34=8|49=029|50=029B17|52=20190719-15:39:52.828|56=EXC|10=092|
8=FIX.4.4|9=0049|35=0|34=9|49=EXC|56=029|52=20190719-15:40:57.000|10=191|
8=FIX.4.4|9=59|35=0|34=9|49=029|50=029B17|52=20190719-15:40:23.147|56=EXC|10=077|
8=FIX.4.4|9=0050|35=0|34=10|49=EXC|56=029|52=20190719-15:41:27.000|10=221|
8=FIX.4.4|9=60|35=0|34=10|49=029|50=029B17|52=20190719-15:40:53.829|56=EXC|10=119|
8=FIX.4.4|9=162|35=R|34=11|49=029|50=029B17|52=20190719-15:41:02.955|56=EXC|131=201907191037168_R|146=1|55=I01H99F|22=M|762=AFIR|54=1|38=-1|1=RT001|453=1|448=037B18|447=C|452=37|10=179|
8=FIX.4.4|9=0132|35=3|34=11|49=EXC|56=029|52=20190719-15:41:37.927|45=11|371=38|372=R|373=6|58=(1462): OrderQty(#38) contiene informacion incorrecta|10=047|
8=FIX.4.4|9=161|35=R|34=12|49=029|50=029B17|52=20190719-15:41:18.000|56=EXC|131=201907191037169_R|146=1|55=I06H99F|22=M|762=AFIR|54=1|38=7|1=RT001|453=1|448=037B18|447=C|452=37|10=134|
8=FIX.4.4|9=0243|35=AI|34=12|49=EXC|56=029|57=029B17|52=20190719-15:41:52.970|131=201907191037169_R|453=4|448=029B17|447=C|452=12|448=029|447=C|452=1|448=029FCM001|447=C|452=36|448=037B18|447=C|452=37|55=I06H99F|762=AFIR|48=27166|22=M|54=1|1=RT001|38=7|297=10|10=082|
8=FIX.4.4|9=161|35=R|34=13|49=029|50=029B17|52=20190719-15:41:43.092|56=EXC|131=201907191037169_R|146=1|55=I06H99F|22=M|762=AFIR|54=1|38=0|1=RT001|453=1|448=037B18|447=C|452=37|10=137|
8=FIX.4.4|9=0243|35=AI|34=13|49=EXC|56=029|57=029B17|52=20190719-15:42:18.060|131=201907191037169_R|453=4|448=029B17|447=C|452=12|448=029|447=C|452=1|448=029FCM001|447=C|452=36|448=037B18|447=C|452=37|55=I06H99F|762=AFIR|48=27166|22=M|54=1|1=RT001|38=7|297=17|10=083|
8=FIX.4.4|9=0050|35=0|34=14|49=EXC|56=029|52=20190719-15:42:48.000|10=229|
8=FIX.4.4|9=60|35=0|34=14|49=029|50=029B17|52=20190719-15:42:13.829|56=EXC|10=121|
8=FIX.4.4|9=0050|35=0|34=15|49=EXC|56=029|52=20190719-15:43:18.000|10=228|
8=FIX.4.4|9=60|35=0|34=15|49=029|50=029B17|52=20190719-15:42:43.826|56=EXC|10=122|
8=FIX.4.4|9=60|35=5|34=16|49=029|50=029B17|52=20190719-15:42:53.830|56=EXC|10=124|
8=FIX.4.4|9=0057|35=5|34=16|49=EXC|56=029|52=20190719-15:43:28.793|369=16|10=076|
8=FIX.4.4|9=110|35=A|34=1|49=029|50=029B17|52=20190723-15:08:14.692|56=EXC|43=N|98=0|108=30|141=Y|553=029FCM001|554=029FCM001|10=114|
8=FIX.4.4|9=0067|35=A|34=1|49=EXC|56=029|52=20190723-15:08:54.045|98=0|108=30|141=Y|10=019|
8=FIX.4.4|9=162|35=R|34=2|49=029|50=029B17|52=20190723-15:08:20.775|56=EXC|131=201907231008101_R|146=1|55=T24U19F|22=M|762=AFIR|54=1|38=100|1=RT001|453=1|448=037B18|447=C|452=37|10=181|
8=FIX.4.4|9=0244|35=AI|34=2|49=EXC|56=029|57=029B17|52=20190723-15:09:00.098|131=201907231008101_R|453=4|448=029B17|447=C|452=12|448=029|447=C|452=1|448=029FCM001|447=C|452=36|448=037B18|447=C|452=37|55=T24U19F|762=AFIR|48=27227|22=M|54=1|1=RT001|38=100|297=10|10=110|
8=FIX.4.4|9=0049|35=0|34=3|49=EXC|56=029|52=20190723-15:09:30.000|10=176|
8=FIX.4.4|9=59|35=0|34=3|49=029|50=029B17|52=20190723-15:08:51.164|56=EXC|10=070|
8=FIX.4.4|9=162|35=R|34=4|49=029|50=029B17|52=20190723-15:09:01.047|56=EXC|131=201907231008102_R|146=1|55=T24U19F|22=M|762=AFIR|54=2|38=100|1=RT001|453=1|448=037B18|447=C|452=37|10=177|
8=FIX.4.4|9=0244|35=AI|34=4|49=EXC|56=029|57=029B17|52=20190723-15:09:40.374|131=201907231008102_R|453=4|448=029B17|447=C|452=12|448=029|447=C|452=1|448=029FCM001|447=C|452=36|448=037B18|447=C|452=37|55=T24U19F|762=AFIR|48=27227|22=M|54=2|1=RT001|38=100|297=10|10=115|
8=FIX.4.4|9=0049|35=0|34=5|49=EXC|56=029|52=20190723-15:10:10.000|10=168|
8=FIX.4.4|9=59|35=0|34=5|49=029|50=029B17|52=20190723-15:09:31.165|56=EXC|10=072|
8=FIX.4.4|9=59|35=5|34=6|49=029|50=029B17|52=20190723-15:09:52.170|56=EXC|10=077|
8=FIX.4.4|9=0055|35=5|34=6|49=EXC|56=029|52=20190723-15:10:31.483|369=6|10=211|
8=FIX.4.4|9=110|35=A|34=1|49=029|50=029B17|52=20190723-15:34:01.613|56=EXC|43=N|98=0|108=30|141=Y|553=029FCM001|554=029FCM001|10=102|
8=FIX.4.4|9=0067|35=A|34=1|49=EXC|56=029|52=20190723-15:34:41.028|98=0|108=30|141=Y|10=015|
8=FIX.4.4|9=162|35=R|34=2|49=029|50=029B17|52=20190723-15:34:07.621|56=EXC|131=201907231033571_R|146=1|55=T24U19F|22=M|762=AFIR|54=1|38=100|1=RT001|453=1|448=037B18|447=C|452=37|10=184|
8=FIX.4.4|9=0244|35=AI|34=2|49=EXC|56=029|57=029B17|52=20190723-15:34:46.950|131=201907231033571_R|453=4|448=029B17|447=C|452=12|448=029|447=C|452=1|448=029FCM001|447=C|452=36|448=037B18|447=C|452=37|55=T24U19F|762=AFIR|48=27227|22=M|54=1|1=RT001|38=100|297=10|10=124|
8=FIX.4.4|9=0049|35=0|34=3|49=EXC|56=029|52=20190723-15:35:16.000|10=179|
8=FIX.4.4|9=59|35=0|34=3|49=029|50=029B17|52=20190723-15:34:38.331|56=EXC|10=070|
8=FIX.4.4|9=59|35=5|34=4|49=029|50=029B17|52=20190723-15:34:53.339|56=EXC|10=081|
8=FIX.4.4|9=0055|35=5|34=4|49=EXC|56=029|52=20190723-15:35:32.667|369=4|10=219|
8=FIX.4.4|9=59|35=5|34=5|49=029|50=029B17|52=20190723-15:34:53.339|56=EXC|10=082|
8=FIX.4.4|9=110|35=A|34=1|49=029|50=029B17|52=20190723-15:41:24.542|56=EXC|43=N|98=0|108=30|141=Y|553=029FCM001|554=029FCM001|10=106|
8=FIX.4.4|9=0067|35=A|34=1|49=EXC|56=029|52=20190723-15:42:03.913|98=0|108=30|141=Y|10=015|
8=FIX.4.4|9=162|35=R|34=2|49=029|50=029B17|52=20190723-15:41:30.523|56=EXC|131=201907231041201_R|146=1|55=T24U19F|22=M|762=AFIR|54=1|38=100|1=RT001|453=1|448=037B18|447=C|452=37|10=168|
8=FIX.4.4|9=0244|35=AI|34=2|49=EXC|56=029|57=029B17|52=20190723-15:42:09.865|131=201907231041201_R|453=4|448=029B17|447=C|452=12|448=029|447=C|452=1|448=029FCM001|447=C|452=36|448=037B18|447=C|452=37|55=T24U19F|762=AFIR|48=27227|22=M|54=1|1=RT001|38=100|297=10|10=116|
8=FIX.4.4|9=0049|35=0|34=3|49=EXC|56=029|52=20190723-15:42:39.000|10=182|
8=FIX.4.4|9=59|35=0|34=3|49=029|50=029B17|52=20190723-15:42:01.161|56=EXC|10=060|
8=FIX.4.4|9=162|35=R|34=4|49=029|50=029B17|52=20190723-15:42:10.702|56=EXC|131=201907231041202_R|146=1|55=T24U19F|22=M|762=AFIR|54=2|38=100|1=RT001|453=1|448=037B18|447=C|452=37|10=170|
8=FIX.4.4|9=0244|35=AI|34=4|49=EXC|56=029|57=029B17|52=20190723-15:42:50.039|131=201907231041202_R|453=4|448=029B17|447=C|452=12|448=029|447=C|452=1|448=029FCM001|447=C|452=36|448=037B18|447=C|452=37|55=T24U19F|762=AFIR|48=27227|22=M|54=2|1=RT001|38=100|297=10|10=109|
8=FIX.4.4|9=0049|35=0|34=5|49=EXC|56=029|52=20190723-15:43:20.000|10=175|
8=FIX.4.4|9=59|35=0|34=5|49=029|50=029B17|52=20190723-15:42:41.174|56=EXC|10=070|
8=FIX.4.4|9=59|35=5|34=6|49=029|50=029B17|52=20190723-15:43:01.167|56=EXC|10=075|
8=FIX.4.4|9=0055|35=5|34=6|49=EXC|56=029|52=20190723-15:43:40.499|369=6|10=224|
8=FIX.4.4|9=110|35=A|34=1|49=029|50=029B17|52=20190723-16:03:27.274|56=EXC|43=N|98=0|108=30|141=Y|553=029FCM001|554=029FCM001|10=110|
8=FIX.4.4|9=0067|35=A|34=1|49=EXC|56=029|52=20190723-16:04:06.665|98=0|108=30|141=Y|10=021|
8=FIX.4.4|9=162|35=R|34=2|49=029|50=029B17|52=20190723-16:03:33.377|56=EXC|131=201907231103221_R|146=1|55=T24U19F|22=M|762=AFIR|54=1|38=100|1=RT001|453=1|448=037B18|447=C|452=37|10=178|
8=FIX.4.4|9=0244|35=AI|34=2|49=EXC|56=029|57=029B17|52=20190723-16:04:12.741|131=201907231103221_R|453=4|448=029B17|447=C|452=12|448=029|447=C|452=1|448=029FCM001|447=C|452=36|448=037B18|447=C|452=37|55=T24U19F|762=AFIR|48=27227|22=M|54=1|1=RT001|38=100|297=10|10=103|
8=FIX.4.4|9=0049|35=0|34=3|49=EXC|56=029|52=20190723-16:04:42.000|10=175|
8=FIX.4.4|9=59|35=0|34=3|49=029|50=029B17|52=20190723-16:04:03.932|56=EXC|10=067|
8=FIX.4.4|9=162|35=R|34=4|49=029|50=029B17|52=20190723-16:04:13.705|56=EXC|131=201907231103222_R|146=1|55=T24U19F|22=M|762=AFIR|54=2|38=100|1=RT001|453=1|448=037B18|447=C|452=37|10=176|
8=FIX.4.4|9=0244|35=AI|34=4|49=EXC|56=029|57=029B17|52=20190723-16:04:53.072|131=201907231103222_R|453=4|448=029B17|447=C|452=12|448=029|447=C|452=1|448=029FCM001|447=C|452=36|448=037B18|447=C|452=37|55=T24U19F|762=AFIR|48=27227|22=M|54=2|1=RT001|38=100|297=10|10=109|
8=FIX.4.4|9=0049|35=0|34=5|49=EXC|56=029|52=20190723-16:05:23.000|10=177|
8=FIX.4.4|9=59|35=0|34=5|49=029|50=029B17|52=20190723-16:04:43.930|56=EXC|10=071|
8=FIX.4.4|9=59|35=5|34=6|49=029|50=029B17|52=20190723-16:05:03.919|56=EXC|10=081|
8=FIX.4.4|9=0055|35=5|34=6|49=EXC|56=029|52=20190723-16:05:43.277|369=6|10=220|
8=FIX.4.4|9=110|35=A|34=1|49=029|50=029B17|52=20190723-16:12:06.234|56=EXC|43=N|98=0|108=30|141=Y|553=029FCM001|554=029FCM001|10=103|
8=FIX.4.4|9=0067|35=A|34=1|49=EXC|56=029|52=20190723-16:12:45.635|98=0|108=30|141=Y|10=020|
8=FIX.4.4|9=162|35=R|34=2|49=029|50=029B17|52=20190723-16:12:12.231|56=EXC|131=201907231112021_R|146=1|55=T24U19F|22=M|762=AFIR|54=1|38=100|1=RT001|453=1|448=037B18|447=C|452=37|10=162|
8=FIX.4.4|9=0244|35=AI|34=2|49=EXC|56=029|57=029B17|52=20190723-16:12:51.596|131=201907231112021_R|453=4|448=029B17|447=C|452=12|448=029|447=C|452=1|448=029FCM001|447=C|452=36|448=037B18|447=C|452=37|55=T24U19F|762=AFIR|48=27227|22=M|54=1|1=RT001|38=100|297=10|10=111|
8=FIX.4.4|9=0049|35=0|34=3|49=EXC|56=029|52=20190723-16:13:21.000|10=172|
8=FIX.4.4|9=59|35=0|34=3|49=029|50=029B17|52=20190723-16:12:42.926|56=EXC|10=072|
8=FIX.4.4|9=162|35=R|34=4|49=029|50=029B17|52=20190723-16:12:52.390|56=EXC|131=201907231112022_R|146=1|55=T24U19F|22=M|762=AFIR|54=2|38=100|1=RT001|453=1|448=037B18|447=C|452=37|10=176|
8=FIX.4.4|9=0244|35=AI|34=4|49=EXC|56=029|57=029B17|52=20190723-16:13:31.760|131=201907231112022_R|453=4|448=029B17|447=C|452=12|448=029|447=C|452=1|448=029FCM001|447=C|452=36|448=037B18|447=C|452=37|55=T24U19F|762=AFIR|48=27227|22=M|54=2|1=RT001|38=100|297=10|10=107|
8=FIX.4.4|9=0049|35=0|34=5|49=EXC|56=029|52=20190723-16:14:01.000|10=173|
8=FIX.4.4|9=59|35=0|34=5|49=029|50=029B17|52=20190723-16:13:22.925|56=EXC|10=072|
8=FIX.4.4|9=59|35=5|34=6|49=029|50=029B17|52=20190723-16:13:42.931|56=EXC|10=077|
8=FIX.4.4|9=0055|35=5|34=6|49=EXC|56=029|52=20190723-16:14:22.301|369=6|10=205|
8=FIX.4.4|9=110|35=A|34=1|49=029|50=029B17|52=20190723-16:16:11.201|56=EXC|43=N|98=0|108=30|141=Y|553=029FCM001|554=029FCM001|10=097|
8=FIX.4.4|9=0067|35=A|34=1|49=EXC|56=029|52=20190723-16:16:50.602|98=0|108=30|141=Y|10=014|
8=FIX.4.4|9=162|35=R|34=2|49=029|50=029B17|52=20190723-16:16:17.217|56=EXC|131=201907231116061_R|146=1|55=T24U19F|22=M|762=AFIR|54=1|38=100|1=RT001|453=1|448=037B18|447=C|452=37|10=183|
8=FIX.4.4|9=0244|35=AI|34=2|49=EXC|56=029|57=029B17|52=20190723-16:16:56.591|131=201907231116061_R|453=4|448=029B17|447=C|452=12|448=029|447=C|452=1|448=029FCM001|447=C|452=36|448=037B18|447=C|452=37|55=T24U19F|762=AFIR|48=27227|22=M|54=1|1=RT001|38=100|297=10|10=123|
8=FIX.4.4|9=0049|35=0|34=3|49=EXC|56=029|52=20190723-16:17:26.000|10=181|
8=FIX.4.4|9=59|35=0|34=3|49=029|50=029B17|52=20190723-16:16:47.938|56=EXC|10=084|
8=FIX.4.4|9=59|35=5|34=4|49=029|50=029B17|52=20190723-16:17:02.935|56=EXC|10=079|
8=FIX.4.4|9=0055|35=5|34=4|49=EXC|56=029|52=20190723-16:17:42.299|369=4|10=222|
8=FIX.4.4|9=110|35=A|34=1|49=029|50=029B17|52=20190723-16:26:56.765|56=EXC|43=N|98=0|108=30|141=Y|553=029FCM001|554=029FCM001|10=122|
8=FIX.4.4|9=0067|35=A|34=1|49=EXC|56=029|52=20190723-16:27:36.188|98=0|108=30|141=Y|10=029|
8=FIX.4.4|9=162|35=R|34=2|49=029|50=029B17|52=20190723-16:27:02.807|56=EXC|131=201907231126521_R|146=1|55=T24U19F|22=M|762=AFIR|54=1|38=100|1=RT001|453=1|448=037B18|447=C|452=37|10=186|
8=FIX.4.4|9=0244|35=AI|34=2|49=EXC|56=029|57=029B17|52=20190723-16:27:42.198|131=201907231126521_R|453=4|448=029B17|447=C|452=12|448=029|447=C|452=1|448=029FCM001|447=C|452=36|448=037B18|447=C|452=37|55=T24U19F|762=AFIR|48=27227|22=M|54=1|1=RT001|38=100|297=10|10=125|
8=FIX.4.4|9=0049|35=0|34=3|49=EXC|56=029|52=20190723-16:28:12.000|10=178|
8=FIX.4.4|9=59|35=0|34=3|49=029|50=029B17|52=20190723-16:27:33.495|56=EXC|10=079|
8=FIX.4.4|9=162|35=R|34=4|49=029|50=029B17|52=20190723-16:27:42.972|56=EXC|131=201907231126522_R|146=1|55=T24U19F|22=M|762=AFIR|54=2|38=100|1=RT001|453=1|448=037B18|447=C|452=37|10=197|
8=FIX.4.4|9=0244|35=AI|34=4|49=EXC|56=029|57=029B17|52=20190723-16:28:22.348|131=201907231126522_R|453=4|448=029B17|447=C|452=12|448=029|447=C|452=1|448=029FCM001|447=C|452=36|448=037B18|447=C|452=37|55=T24U19F|762=AFIR|48=27227|22=M|54=2|1=RT001|38=100|297=10|10=125|
8=FIX.4.4|9=0049|35=0|34=5|49=EXC|56=029|52=20190723-16:28:52.000|10=184|
8=FIX.4.4|9=59|35=0|34=5|49=029|50=029B17|52=20190723-16:28:13.494|56=EXC|10=079|
8=FIX.4.4|9=59|35=5|34=6|49=029|50=029B17|52=20190723-16:28:33.501|56=EXC|10=076|
8=FIX.4.4|9=0055|35=5|34=6|49=EXC|56=029|52=20190723-16:29:12.873|369=6|10=224|
8=FIX.4.4|9=110|35=A|34=1|49=029|50=029B17|52=20190723-16:31:06.451|56=EXC|43=N|98=0|108=30|141=Y|553=029FCM001|554=029FCM001|10=105|
8=FIX.4.4|9=0067|35=A|34=1|49=EXC|56=029|52=20190723-16:31:45.870|98=0|108=30|141=Y|10=022|
8=FIX.4.4|9=162|35=R|34=2|49=029|50=029B17|52=20190723-16:31:12.459|56=EXC|131=201907231131021_R|146=1|55=T24U19F|22=M|762=AFIR|54=1|38=100|1=RT001|453=1|448=037B18|447=C|452=37|10=176|
8=FIX.4.4|9=0244|35=AI|34=2|49=EXC|56=029|57=029B17|52=20190723-16:31:51.837|131=201907231131021_R|453=4|448=029B17|447=C|452=12|448=029|447=C|452=1|448=029FCM001|447=C|452=36|448=037B18|447=C|452=37|55=T24U19F|762=AFIR|48=27227|22=M|54=1|1=RT001|38=100|297=10|10=111|
8=FIX.4.4|9=0049|35=0|34=3|49=EXC|56=029|52=20190723-16:32:21.000|10=173|
8=FIX.4.4|9=59|35=0|34=3|49=029|50=029B17|52=20190723-16:31:43.164|56=EXC|10=068|
8=FIX.4.4|9=162|35=R|34=4|49=029|50=029B17|52=20190723-16:31:52.646|56=EXC|131=201907231131022_R|146=1|55=T24U19F|22=M|762=AFIR|54=2|38=100|1=RT001|453=1|448=037B18|447=C|452=37|10=182|
8=FIX.4.4|9=0244|35=AI|34=4|49=EXC|56=029|57=029B17|52=20190723-16:32:32.026|131=201907231131022_R|453=4|448=029B17|447=C|452=12|448=029|447=C|452=1|448=029FCM001|447=C|452=36|448=037B18|447=C|452=37|55=T24U19F|762=AFIR|48=27227|22=M|54=2|1=RT001|38=100|297=10|10=105|
8=FIX.4.4|9=0049|35=0|34=5|49=EXC|56=029|52=20190723-16:33:02.000|10=175|
8=FIX.4.4|9=59|35=0|34=5|49=029|50=029B17|52=20190723-16:32:23.162|56=EXC|10=067|
8=FIX.4.4|9=59|35=5|34=6|49=029|50=029B17|52=20190723-16:32:43.168|56=EXC|10=081|
8=FIX.4.4|9=0055|35=5|34=6|49=EXC|56=029|52=20190723-16:33:22.555|369=6|10=217|
8=FIX.4.4|9=110|35=A|34=1|49=029|50=029B17|52=20190723-16:37:00.262|56=EXC|43=N|98=0|108=30|141=Y|553=029FCM001|554=029FCM001|10=105|
8=FIX.4.4|9=0067|35=A|34=1|49=EXC|56=029|52=20190723-16:37:39.753|98=0|108=30|141=Y|10=031|
8=FIX.4.4|9=162|35=R|34=2|49=029|50=029B17|52=20190723-16:37:06.286|56=EXC|131=201907231136551_R|146=1|55=T24U19F|22=M|762=AFIR|54=1|38=100|1=RT001|453=1|448=037B18|447=C|452=37|10=196|
8=FIX.4.4|9=0244|35=AI|34=2|49=EXC|56=029|57=029B17|52=20190723-16:37:45.679|131=201907231136551_R|453=4|448=029B17|447=C|452=12|448=029|447=C|452=1|448=029FCM001|447=C|452=36|448=037B18|447=C|452=37|55=T24U19F|762=AFIR|48=27227|22=M|54=1|1=RT001|38=100|297=10|10=137|
8=FIX.4.4|9=0049|35=0|34=3|49=EXC|56=029|52=20190723-16:38:15.000|10=182|
8=FIX.4.4|9=59|35=0|34=3|49=029|50=029B17|52=20190723-16:37:36.957|56=EXC|10=086|
8=FIX.4.4|9=110|35=A|34=1|49=029|50=029B17|52=20190723-16:41:28.225|56=EXC|43=N|98=0|108=30|141=Y|553=029FCM001|554=029FCM001|10=109|
8=FIX.4.4|9=0067|35=A|34=1|49=EXC|56=029|52=20190723-16:42:07.655|98=0|108=30|141=Y|10=023|
8=FIX.4.4|9=162|35=R|34=2|49=029|50=029B17|52=20190723-16:41:34.233|56=EXC|131=201907231141231_R|146=1|55=T24U19F|22=M|762=AFIR|54=1|38=100|1=RT001|453=1|448=037B18|447=C|452=37|10=175|
8=FIX.4.4|9=0244|35=AI|34=2|49=EXC|56=029|57=029B17|52=20190723-16:42:13.627|131=201907231141231_R|453=4|448=029B17|447=C|452=12|448=029|447=C|452=1|448=029FCM001|447=C|452=36|448=037B18|447=C|452=37|55=T24U19F|762=AFIR|48=27227|22=M|54=1|1=RT001|38=100|297=10|10=112|
8=FIX.4.4|9=0049|35=0|34=3|49=EXC|56=029|52=20190723-16:42:43.000|10=178|
8=FIX.4.4|9=59|35=0|34=3|49=029|50=029B17|52=20190723-16:42:04.906|56=EXC|10=071|
8=FIX.4.4|9=59|35=5|34=4|49=029|50=029B17|52=20190723-16:42:19.903|56=EXC|10=080|
8=FIX.4.4|9=0055|35=5|34=4|49=EXC|56=029|52=20190723-16:42:59.286|369=4|10=224|
8=FIX.4.4|9=59|35=5|34=5|49=029|50=029B17|52=20190723-16:42:19.903|56=EXC|10=081|
8=FIX.4.4|9=110|35=A|34=1|49=029|50=029B17|52=20190723-16:48:30.652|56=EXC|43=N|98=0|108=30|141=Y|553=029FCM001|554=029FCM001|10=113|
8=FIX.4.4|9=0067|35=A|34=1|49=EXC|56=029|52=20190723-16:49:10.108|98=0|108=30|141=Y|10=017|
8=FIX.4.4|9=162|35=R|34=2|49=029|50=029B17|52=20190723-16:48:36.651|56=EXC|131=201907231148261_R|146=1|55=T24U19F|22=M|762=AFIR|54=1|38=100|1=RT001|453=1|448=037B18|447=C|452=37|10=198|
8=FIX.4.4|9=0244|35=AI|34=2|49=EXC|56=029|57=029B17|52=20190723-16:49:16.046|131=201907231148261_R|453=4|448=029B17|447=C|452=12|448=029|447=C|452=1|448=029FCM001|447=C|452=36|448=037B18|447=C|452=37|55=T24U19F|762=AFIR|48=27227|22=M|54=1|1=RT001|38=100|297=10|10=127|
8=FIX.4.4|9=0049|35=0|34=3|49=EXC|56=029|52=20190723-16:49:46.000|10=188|
8=FIX.4.4|9=59|35=0|34=3|49=029|50=029B17|52=20190723-16:49:07.415|56=EXC|10=076|
8=FIX.4.4|9=59|35=5|34=4|49=029|50=029B17|52=20190723-16:49:22.423|56=EXC|10=078|
8=FIX.4.4|9=0055|35=5|34=4|49=EXC|56=029|52=20190723-16:50:01.812|369=4|10=205|
8=FIX.4.4|9=110|35=A|34=1|49=029|50=029B17|52=20190723-16:52:26.692|56=EXC|43=N|98=0|108=30|141=Y|553=029FCM001|554=029FCM001|10=117|
8=FIX.4.4|9=0067|35=A|34=1|49=EXC|56=029|52=20190723-16:53:06.117|98=0|108=30|141=Y|10=017|
8=FIX.4.4|9=162|35=R|34=2|49=029|50=029B17|52=20190723-16:52:32.749|56=EXC|131=201907231152221_R|146=1|55=T24U19F|22=M|762=AFIR|54=1|38=100|1=RT001|453=1|448=037B18|447=C|452=37|10=188|
8=FIX.4.4|9=0244|35=AI|34=2|49=EXC|56=029|57=029B17|52=20190723-16:53:12.144|131=201907231152221_R|453=4|448=029B17|447=C|452=12|448=029|447=C|452=1|448=029FCM001|447=C|452=36|448=037B18|447=C|452=37|55=T24U19F|762=AFIR|48=27227|22=M|54=1|1=RT001|38=100|297=10|10=108|
8=FIX.4.4|9=0049|35=0|34=3|49=EXC|56=029|52=20190723-16:53:42.000|10=179|
8=FIX.4.4|9=59|35=0|34=3|49=029|50=029B17|52=20190723-16:53:03.412|56=EXC|10=064|
8=FIX.4.4|9=59|35=5|34=4|49=029|50=029B17|52=20190723-16:53:18.407|56=EXC|10=080|
8=FIX.4.4|9=0055|35=5|34=4|49=EXC|56=029|52=20190723-16:53:57.798|369=4|10=232|
8=FIX.4.4|9=110|35=A|34=1|49=029|50=029B17|52=20190723-18:39:51.572|56=EXC|43=N|98=0|108=30|141=Y|553=029FCM001|554=029FCM001|10=119|
8=FIX.4.4|9=0067|35=A|34=1|49=EXC|56=029|52=20190723-18:40:31.073|98=0|108=30|141=Y|10=014|
8=FIX.4.4|9=162|35=R|34=2|49=029|50=029B17|52=20190723-18:39:57.572|56=EXC|131=201907231339471_R|146=1|55=T24U19F|22=M|762=AFIR|54=1|38=100|1=RT001|453=1|448=037B18|447=C|452=37|10=210|
8=FIX.4.4|9=0244|35=AI|34=2|49=EXC|56=029|57=029B17|52=20190723-18:40:37.047|131=201907231339471_R|453=4|448=029B17|447=C|452=12|448=029|447=C|452=1|448=029FCM001|447=C|452=36|448=037B18|447=C|452=37|55=T24U19F|762=AFIR|48=27227|22=M|54=1|1=RT001|38=100|297=10|10=129|
8=FIX.4.4|9=0287|35=S|34=3|49=EXC|56=029|57=029B17|52=20190723-18:40:57.138|131=201907231339471_R|117=20190723-000000000016.00|55=T24U19F|762=AFIR|48=27227|22=M|453=4|448=029B17|447=C|452=12|448=029|447=C|452=1|448=029FCM001|447=C|452=36|448=037B18|447=C|452=37|133=1000.000|135=100|62=20190830-22:00:00|10=139|
8=FIX.4.4|9=59|35=0|34=3|49=029|50=029B17|52=20190723-18:40:28.284|56=EXC|10=076|
8=FIX.4.4|9=143|35=AJ|34=4|49=029|50=029B17|52=20190723-18:40:37.753|56=EXC|54=1|55=T24U19F|117=20190723-000000000016.00|693=201907231339471_AJ|694=1|762=AFIR|10=098|
8=FIX.4.4|9=0463|35=8|34=4|49=EXC|56=029|57=029B17|52=20190723-18:41:17.218|11=201907231339471_AJ|17=1|37=0|150=F|1080=20190723-000000000016.00|1081=5|453=5|448=029B17|447=C|452=12|448=029|447=C|452=1|448=037B18|447=C|452=37|448=037|447=C|452=17|448=029FCM001|447=C|452=36|55=T24U19F|762=AFIR|48=27227|22=M|6=1000.000|14=100|31=1000.000|32=100|38=100|39=2|54=1|60=20190723-18:41:17.218|75=20190723|63=1|64=20190723|151=0|1=RT001|381=250000000000.000|880=201907230000000001|828=99|10=148|
8=FIX.4.4|9=0049|35=0|34=5|49=EXC|56=029|52=20190723-18:41:47.000|10=185|
8=FIX.4.4|9=59|35=5|34=5|49=029|50=029B17|52=20190723-18:41:08.059|56=EXC|10=082|
8=FIX.4.4|9=0055|35=5|34=6|49=EXC|56=029|52=20190723-18:41:47.534|369=5|10=221|
8=FIX.4.4|9=110|35=A|34=1|49=029|50=029B17|52=20190723-18:51:17.405|56=EXC|43=N|98=0|108=30|141=Y|553=029FCM001|554=029FCM001|10=110|
8=FIX.4.4|9=0067|35=A|34=1|49=EXC|56=029|52=20190723-18:51:56.933|98=0|108=30|141=Y|10=028|
8=FIX.4.4|9=162|35=R|34=2|49=029|50=029B17|52=20190723-18:51:23.410|56=EXC|131=201907231351131_R|146=1|55=T24U19F|22=M|762=AFIR|54=1|38=100|1=RT001|453=1|448=037B18|447=C|452=37|10=175|
8=FIX.4.4|9=0244|35=AI|34=2|49=EXC|56=029|57=029B17|52=20190723-18:52:02.906|131=201907231351131_R|453=4|448=029B17|447=C|452=12|448=029|447=C|452=1|448=029FCM001|447=C|452=36|448=037B18|447=C|452=37|55=T24U19F|762=AFIR|48=27227|22=M|54=1|1=RT001|38=100|297=10|10=115|
8=FIX.4.4|9=0287|35=S|34=3|49=EXC|56=029|57=029B17|52=20190723-18:52:23.025|131=201907231351131_R|117=20190723-000000000017.00|55=T24U19F|762=AFIR|48=27227|22=M|453=4|448=029B17|447=C|452=12|448=029|447=C|452=1|448=029FCM001|447=C|452=36|448=037B18|447=C|452=37|133=1000.000|135=100|62=20190830-22:00:00|10=118|
8=FIX.4.4|9=59|35=0|34=3|49=029|50=029B17|52=20190723-18:51:54.094|56=EXC|10=076|
8=FIX.4.4|9=143|35=AJ|34=4|49=029|50=029B17|52=20190723-18:52:03.600|56=EXC|54=1|55=T24U19F|117=20190723-000000000017.00|693=201907231351131_AJ|694=1|762=AFIR|10=073|
8=FIX.4.4|9=0463|35=8|34=4|49=EXC|56=029|57=029B17|52=20190723-18:52:43.090|11=201907231351131_AJ|17=2|37=0|150=F|1080=20190723-000000000017.00|1081=5|453=5|448=029B17|447=C|452=12|448=029|447=C|452=1|448=037B18|447=C|452=37|448=037|447=C|452=17|448=029FCM001|447=C|452=36|55=T24U19F|762=AFIR|48=27227|22=M|6=1000.000|14=100|31=1000.000|32=100|38=100|39=2|54=1|60=20190723-18:52:43.090|75=20190723|63=1|64=20190723|151=0|1=RT001|381=250000000000.000|880=201907230000000002|828=99|10=136|
8=FIX.4.4|9=0049|35=0|34=5|49=EXC|56=029|52=20190723-18:53:13.000|10=181|
8=FIX.4.4|9=59|35=5|34=5|49=029|50=029B17|52=20190723-18:52:34.102|56=EXC|10=072|
8=FIX.4.4|9=0055|35=5|34=6|49=EXC|56=029|52=20190723-18:53:13.584|369=5|10=222|
8=FIX.4.4|9=110|35=A|34=1|49=029|50=029B17|52=20190723-20:20:39.569|56=EXC|43=N|98=0|108=30|141=Y|553=029FCM001|554=029FCM001|10=114|
8=FIX.4.4|9=0067|35=A|34=1|49=EXC|56=029|52=20190723-15:03:34.166|98=0|108=30|141=Y|10=016|
8=FIX.4.4|9=162|35=R|34=2|49=029|50=029B17|52=20190723-20:20:45.625|56=EXC|131=201907231520351_R|146=1|55=T24U19F|22=M|762=AFIR|54=1|38=100|1=RT001|453=1|448=037B18|447=C|452=37|10=178|
8=FIX.4.4|9=0244|35=AI|34=2|49=EXC|56=029|57=029B17|52=20190723-15:03:40.192|131=201907231520351_R|453=4|448=029B17|447=C|452=12|448=029|447=C|452=1|448=029FCM001|447=C|452=36|448=037B18|447=C|452=37|55=T24U19F|762=AFIR|48=27227|22=M|54=1|1=RT001|38=100|297=10|10=109|
8=FIX.4.4|9=0049|35=0|34=3|49=EXC|56=029|52=20190723-15:04:10.000|10=169|
8=FIX.4.4|9=59|35=0|34=3|49=029|50=029B17|52=20190723-20:21:16.176|56=EXC|10=065|
8=FIX.4.4|9=110|35=A|34=1|49=029|50=029B17|52=20190723-20:21:42.513|56=EXC|43=N|98=0|108=30|141=Y|553=029FCM001|554=029FCM001|10=098|
8=FIX.4.4|9=110|35=A|34=1|49=029|50=029B17|52=20190723-20:49:27.703|56=EXC|43=N|98=0|108=30|141=Y|553=029FCM001|554=029FCM001|10=112|
8=FIX.4.4|9=0067|35=A|34=1|49=EXC|56=029|52=20190723-15:25:54.320|98=0|108=30|141=Y|10=014|
8=FIX.4.4|9=162|35=R|34=2|49=029|50=029B17|52=20190723-20:49:33.690|56=EXC|131=201907231549231_R|146=1|55=T24U19F|22=M|762=AFIR|54=1|38=100|1=RT001|453=1|448=037B18|447=C|452=37|10=196|
8=FIX.4.4|9=0244|35=AI|34=2|49=EXC|56=029|57=029B17|52=20190723-15:26:00.266|131=201907231549231_R|453=4|448=029B17|447=C|452=12|448=029|447=C|452=1|448=029FCM001|447=C|452=36|448=037B18|447=C|452=37|55=T24U19F|762=AFIR|48=27227|22=M|54=1|1=RT001|38=100|297=10|10=120|
8=FIX.4.4|9=0049|35=0|34=3|49=EXC|56=029|52=20190723-15:26:30.000|10=175|
8=FIX.4.4|9=59|35=0|34=3|49=029|50=029B17|52=20190723-20:50:04.307|56=EXC|10=060|
8=FIX.4.4|9=162|35=R|34=4|49=029|50=029B17|52=20190723-20:50:13.863|56=EXC|131=201907231549232_R|146=1|55=T24U19F|22=M|762=AFIR|54=2|38=100|1=RT001|453=1|448=037B18|447=C|452=37|10=192|
8=FIX.4.4|9=0244|35=AI|34=4|49=EXC|56=029|57=029B17|52=20190723-15:26:40.443|131=201907231549232_R|453=4|448=029B17|447=C|452=12|448=029|447=C|452=1|448=029FCM001|447=C|452=36|448=037B18|447=C|452=37|55=T24U19F|762=AFIR|48=27227|22=M|54=2|1=RT001|38=100|297=10|10=125|
8=FIX.4.4|9=0286|35=S|34=5|49=EXC|56=029|57=029B17|52=20190723-15:27:05.496|131=201907231549232_R|117=20190723-000000000024.00|55=T24U19F|762=AFIR|48=27227|22=M|453=4|448=029B17|447=C|452=12|448=029|447=C|452=1|448=029FCM001|447=C|452=36|448=037B18|447=C|452=37|132=120.000|134=100|62=20190830-22:00:00|10=091|
8=FIX.4.4|9=59|35=0|34=5|49=029|50=029B17|52=20190723-20:50:44.305|56=EXC|10=064|
8=FIX.4.4|9=143|35=AJ|34=6|49=029|50=029B17|52=20190723-20:50:58.967|56=EXC|54=2|55=T24U19F|117=20190723-000000000024.00|693=201907231549232_AJ|694=1|762=AFIR|10=102|
8=FIX.4.4|9=0460|35=8|34=6|49=EXC|56=029|57=029B17|52=20190723-15:27:25.556|11=201907231549232_AJ|17=6|37=0|150=F|1080=20190723-000000000024.00|1081=5|453=5|448=029B17|447=C|452=12|448=029|447=C|452=1|448=037B18|447=C|452=37|448=037|447=C|452=17|448=029FCM001|447=C|452=36|55=T24U19F|762=AFIR|48=27227|22=M|6=120.000|14=100|31=120.000|32=100|38=100|39=2|54=2|60=20190723-15:27:25.556|75=20190723|63=1|64=20190723|151=0|1=RT001|381=30000000000.000|880=201907230000000006|828=99|10=021|
8=FIX.4.4|9=162|35=R|34=7|49=029|50=029B17|52=20190723-20:51:24.100|56=EXC|131=201907231549233_R|146=1|55=T24U19F|22=M|762=AFIR|54=1|38=150|1=RT001|453=1|448=037B18|447=C|452=37|10=187|
8=FIX.4.4|9=0244|35=AI|34=7|49=EXC|56=029|57=029B17|52=20190723-15:27:50.681|131=201907231549233_R|453=4|448=029B17|447=C|452=12|448=029|447=C|452=1|448=029FCM001|447=C|452=36|448=037B18|447=C|452=37|55=T24U19F|762=AFIR|48=27227|22=M|54=1|1=RT001|38=150|297=10|10=139|
8=FIX.4.4|9=0286|35=S|34=8|49=EXC|56=029|57=029B17|52=20190723-15:28:15.715|131=201907231549233_R|117=20190723-000000000025.00|55=T24U19F|762=AFIR|48=27227|22=M|453=4|448=029B17|447=C|452=12|448=029|447=C|452=1|448=029FCM001|447=C|452=36|448=037B18|447=C|452=37|133=123.000|135=150|62=20190830-22:00:00|10=102|
8=FIX.4.4|9=59|35=0|34=8|49=029|50=029B17|52=20190723-20:51:54.309|56=EXC|10=073|
8=FIX.4.4|9=143|35=AJ|34=9|49=029|50=029B17|52=20190723-20:52:09.176|56=EXC|54=1|55=T24U19F|117=20190723-000000000025.00|693=201907231549233_AJ|694=1|762=AFIR|10=096|
8=FIX.4.4|9=0460|35=8|34=9|49=EXC|56=029|57=029B17|52=20190723-15:28:35.760|11=201907231549233_AJ|17=7|37=0|150=F|1080=20190723-000000000025.00|1081=5|453=5|448=029B17|447=C|452=12|448=029|447=C|452=1|448=037B18|447=C|452=37|448=037|447=C|452=17|448=029FCM001|447=C|452=36|55=T24U19F|762=AFIR|48=27227|22=M|6=123.000|14=150|31=123.000|32=150|38=150|39=2|54=1|60=20190723-15:28:35.760|75=20190723|63=1|64=20190723|151=0|1=RT001|381=46125000000.000|880=201907230000000007|828=99|10=061|
8=FIX.4.4|9=0050|35=0|34=10|49=EXC|56=029|52=20190723-15:29:05.000|10=218|
8=FIX.4.4|9=60|35=0|34=10|49=029|50=029B17|52=20190723-20:52:39.306|56=EXC|10=107|
8=FIX.4.4|9=0050|35=0|34=11|49=EXC|56=029|52=20190723-15:29:35.000|10=222|
8=FIX.4.4|9=60|35=0|34=11|49=029|50=029B17|52=20190723-20:53:09.306|56=EXC|10=106|
8=FIX.4.4|9=0050|35=0|34=12|49=EXC|56=029|52=20190723-15:30:05.000|10=212|
8=FIX.4.4|9=60|35=0|34=12|49=029|50=029B17|52=20190723-20:53:39.307|56=EXC|10=111|
8=FIX.4.4|9=162|35=R|34=13|49=029|50=029B17|52=20190723-20:54:04.467|56=EXC|131=201907231549238_R|146=1|55=I01H99F|22=M|762=AFIR|54=1|38=-1|1=RT001|453=1|448=037B18|447=C|452=37|10=177|
8=FIX.4.4|9=0132|35=3|34=13|49=EXC|56=029|52=20190723-15:30:31.054|45=13|371=38|372=R|373=6|58=(1462): OrderQty(#38) contiene informacion incorrecta|10=029|
8=FIX.4.4|9=161|35=R|34=14|49=029|50=029B17|52=20190723-20:54:19.540|56=EXC|131=201907231549239_R|146=1|55=I06H99F|22=M|762=AFIR|54=1|38=7|1=RT001|453=1|448=037B18|447=C|452=37|10=142|
8=FIX.4.4|9=0243|35=AI|34=14|49=EXC|56=029|57=029B17|52=20190723-15:30:46.126|131=201907231549239_R|453=4|448=029B17|447=C|452=12|448=029|447=C|452=1|448=029FCM001|447=C|452=36|448=037B18|447=C|452=37|55=I06H99F|762=AFIR|48=27166|22=M|54=1|1=RT001|38=7|297=10|10=074|
8=FIX.4.4|9=161|35=R|34=15|49=029|50=029B17|52=20190723-20:54:44.598|56=EXC|131=201907231549239_R|146=1|55=I06H99F|22=M|762=AFIR|54=1|38=0|1=RT001|453=1|448=037B18|447=C|452=37|10=147|
8=FIX.4.4|9=0243|35=AI|34=15|49=EXC|56=029|57=029B17|52=20190723-15:31:11.182|131=201907231549239_R|453=4|448=029B17|447=C|452=12|448=029|447=C|452=1|448=029FCM001|447=C|452=36|448=037B18|447=C|452=37|55=I06H99F|762=AFIR|48=27166|22=M|54=1|1=RT001|38=7|297=17|10=077|
8=FIX.4.4|9=0050|35=0|34=16|49=EXC|56=029|52=20190723-15:31:41.000|10=217|
8=FIX.4.4|9=60|35=0|34=16|49=029|50=029B17|52=20190723-20:55:15.304|56=EXC|10=108|
8=FIX.4.4|9=0050|35=0|34=17|49=EXC|56=029|52=20190723-15:32:11.000|10=216|
8=FIX.4.4|9=60|35=0|34=17|49=029|50=029B17|52=20190723-20:55:45.304|56=EXC|10=112|
8=FIX.4.4|9=60|35=5|34=18|49=029|50=029B17|52=20190723-20:56:00.304|56=EXC|10=110|
8=FIX.4.4|9=0057|35=5|34=18|49=EXC|56=029|52=20190723-15:32:26.882|369=18|10=070|
8=FIX.4.4|9=110|35=A|34=1|49=029|50=029B17|52=20190724-14:43:51.834|56=EXC|43=N|98=0|108=30|141=Y|553=029FCM001|554=029FCM001|10=112|
8=FIX.4.4|9=0067|35=A|34=1|49=EXC|56=029|52=20190724-14:44:32.280|98=0|108=30|141=Y|10=016|
8=FIX.4.4|9=161|35=R|34=2|49=029|50=029B17|52=20190724-14:43:57.872|56=EXC|131=20190724943471_R|146=1|55=T24U19F|22=M|762=AFIR|54=1|38=100|1=RT001|453=1|448=037B18|447=C|452=37|10=157|
8=FIX.4.4|9=0243|35=AI|34=2|49=EXC|56=029|57=029B17|52=20190724-14:44:38.271|131=20190724943471_R|453=4|448=029B17|447=C|452=12|448=029|447=C|452=1|448=029FCM001|447=C|452=36|448=037B18|447=C|452=37|55=T24U19F|762=AFIR|48=27227|22=M|54=1|1=RT001|38=100|297=10|10=082|
8=FIX.4.4|9=0049|35=0|34=3|49=EXC|56=029|52=20190724-14:45:08.000|10=181|
8=FIX.4.4|9=59|35=0|34=3|49=029|50=029B17|52=20190724-14:44:28.501|56=EXC|10=069|
8=FIX.4.4|9=59|35=5|34=4|49=029|50=029B17|52=20190724-14:44:43.496|56=EXC|10=085|
8=FIX.4.4|9=0055|35=5|34=4|49=EXC|56=029|52=20190724-14:45:23.920|369=4|10=212|
8=FIX.4.4|9=110|35=A|34=1|49=029|50=029B17|52=20190724-14:56:26.244|56=EXC|43=N|98=0|108=30|141=Y|553=029FCM001|554=029FCM001|10=113|
8=FIX.4.4|9=0067|35=A|34=1|49=EXC|56=029|52=20190724-14:57:06.692|98=0|108=30|141=Y|10=028|
8=FIX.4.4|9=161|35=R|34=2|49=029|50=029B17|52=20190724-14:56:32.369|56=EXC|131=20190724956211_R|146=1|55=T24U19F|22=M|762=AFIR|54=1|38=100|1=RT001|453=1|448=037B18|447=C|452=37|10=151|
8=FIX.4.4|9=0243|35=AI|34=2|49=EXC|56=029|57=029B17|52=20190724-14:57:12.784|131=20190724956211_R|453=4|448=029B17|447=C|452=12|448=029|447=C|452=1|448=029FCM001|447=C|452=36|448=037B18|447=C|452=37|55=T24U19F|762=AFIR|48=27227|22=M|54=1|1=RT001|38=100|297=10|10=083|
8=FIX.4.4|9=0049|35=0|34=3|49=EXC|56=029|52=20190724-14:57:42.000|10=182|
8=FIX.4.4|9=59|35=0|34=3|49=029|50=029B17|52=20190724-14:57:02.932|56=EXC|10=073|
8=FIX.4.4|9=59|35=5|34=4|49=029|50=029B17|52=20190724-14:57:17.933|56=EXC|10=086|
8=FIX.4.4|9=0055|35=5|34=4|49=EXC|56=029|52=20190724-14:57:58.347|369=4|10=226|
8=FIX.4.4|9=110|35=A|34=1|49=029|50=029B17|52=20190724-15:16:13.536|56=EXC|43=N|98=0|108=30|141=Y|553=029FCM001|554=029FCM001|10=110|
8=FIX.4.4|9=0067|35=A|34=1|49=EXC|56=029|52=20190724-15:16:54.008|98=0|108=30|141=Y|10=018|
8=FIX.4.4|9=162|35=R|34=2|49=029|50=029B17|52=20190724-15:16:19.570|56=EXC|131=201907241016091_R|146=1|55=T24U19F|22=M|762=AFIR|54=1|38=100|1=RT001|453=1|448=037B18|447=C|452=37|10=190|
8=FIX.4.4|9=0244|35=AI|34=2|49=EXC|56=029|57=029B17|52=20190724-15:16:59.995|131=201907241016091_R|453=4|448=029B17|447=C|452=12|448=029|447=C|452=1|448=029FCM001|447=C|452=36|448=037B18|447=C|452=37|55=T24U19F|762=AFIR|48=27227|22=M|54=1|1=RT001|38=100|297=10|10=137|
8=FIX.4.4|9=0049|35=0|34=3|49=EXC|56=029|52=20190724-15:17:29.000|10=184|
8=FIX.4.4|9=59|35=0|34=3|49=029|50=029B17|52=20190724-15:16:50.226|56=EXC|10=068|
8=FIX.4.4|9=59|35=5|34=4|49=029|50=029B17|52=20190724-15:17:05.301|56=EXC|10=069|
8=FIX.4.4|9=0055|35=5|34=4|49=EXC|56=029|52=20190724-15:17:45.739|369=4|10=224|
8=FIX.4.4|9=59|35=5|34=5|49=029|50=029B17|52=20190724-15:17:05.316|56=EXC|10=076|
8=FIX.4.4|9=110|35=A|34=1|49=029|50=029B17|52=20190724-16:08:06.193|56=EXC|43=N|98=0|108=30|141=Y|553=029FCM001|554=029FCM001|10=113|
8=FIX.4.4|9=0067|35=A|34=1|49=EXC|56=029|52=20190724-16:08:46.712|98=0|108=30|141=Y|10=023|
8=FIX.4.4|9=162|35=R|34=2|49=029|50=029B17|52=20190724-16:08:12.060|56=EXC|131=201907241107591_R|146=1|55=T24U19F|22=M|762=AFIR|54=1|38=100|1=RT001|453=1|448=037B18|447=C|452=37|10=185|
8=FIX.4.4|9=0244|35=AI|34=2|49=EXC|56=029|57=029B17|52=20190724-16:08:52.538|131=201907241107591_R|453=4|448=029B17|447=C|452=12|448=029|447=C|452=1|448=029FCM001|447=C|452=36|448=037B18|447=C|452=37|55=T24U19F|762=AFIR|48=27227|22=M|54=1|1=RT001|38=100|297=10|10=131|
8=FIX.4.4|9=0049|35=0|34=3|49=EXC|56=029|52=20190724-16:09:22.000|10=179|
8=FIX.4.4|9=59|35=0|34=3|49=029|50=029B17|52=20190724-16:08:42.487|56=EXC|10=080|
8=FIX.4.4|9=59|35=5|34=4|49=029|50=029B17|52=20190724-16:08:57.486|56=EXC|10=091|
8=FIX.4.4|9=0055|35=5|34=4|49=EXC|56=029|52=20190724-16:09:37.961|369=4|10=224|
8=FIX.4.4|9=59|35=5|34=5|49=029|50=029B17|52=20190724-16:08:57.486|56=EXC|10=092|
8=FIX.4.4|9=110|35=A|34=1|49=029|50=029B17|52=20190724-16:11:27.055|56=EXC|43=N|98=0|108=30|141=Y|553=029FCM001|554=029FCM001|10=107|
8=FIX.4.4|9=0067|35=A|34=1|49=EXC|56=029|52=20190724-16:12:07.616|98=0|108=30|141=Y|10=018|
8=FIX.4.4|9=162|35=R|34=2|49=029|50=029B17|52=20190724-16:11:32.945|56=EXC|131=201907241111221_R|146=1|55=T24U19F|22=M|762=AFIR|54=1|38=100|1=RT001|453=1|448=037B18|447=C|452=37|10=178|
8=FIX.4.4|9=0244|35=AI|34=2|49=EXC|56=029|57=029B17|52=20190724-16:12:13.419|131=201907241111221_R|453=4|448=029B17|447=C|452=12|448=029|447=C|452=1|448=029FCM001|447=C|452=36|448=037B18|447=C|452=37|55=T24U19F|762=AFIR|48=27227|22=M|54=1|1=RT001|38=100|297=10|10=106|
8=FIX.4.4|9=0049|35=0|34=3|49=EXC|56=029|52=20190724-16:12:43.000|10=176|
8=FIX.4.4|9=59|35=0|34=3|49=029|50=029B17|52=20190724-16:12:03.673|56=EXC|10=069|
8=FIX.4.4|9=162|35=R|34=4|49=029|50=029B17|52=20190724-16:12:13.260|56=EXC|131=201907241111222_R|146=1|55=T24U19F|22=M|762=AFIR|54=2|38=100|1=RT001|453=1|448=037B18|447=C|452=37|10=172|
8=FIX.4.4|9=0244|35=AI|34=4|49=EXC|56=029|57=029B17|52=20190724-16:12:53.750|131=201907241111222_R|453=4|448=029B17|447=C|452=12|448=029|447=C|452=1|448=029FCM001|447=C|452=36|448=037B18|447=C|452=37|55=T24U19F|762=AFIR|48=27227|22=M|54=2|1=RT001|38=100|297=10|10=112|
8=FIX.4.4|9=0286|35=S|34=5|49=EXC|56=029|57=029B17|52=20190724-16:13:18.821|131=201907241111222_R|117=20190724-000000000006.00|55=T24U19F|762=AFIR|48=27227|22=M|453=4|448=029B17|447=C|452=12|448=029|447=C|452=1|448=029FCM001|447=C|452=36|448=037B18|447=C|452=37|132=120.000|134=100|62=20190830-22:00:00|10=070|
8=FIX.4.4|9=59|35=0|34=5|49=029|50=029B17|52=20190724-16:12:43.690|56=EXC|10=074|
8=FIX.4.4|9=143|35=AJ|34=6|49=029|50=029B17|52=20190724-16:12:58.400|56=EXC|54=2|55=T24U19F|117=20190724-000000000006.00|693=201907241111222_AJ|694=1|762=AFIR|10=074|
8=FIX.4.4|9=0460|35=8|34=6|49=EXC|56=029|57=029B17|52=20190724-16:13:38.888|11=201907241111222_AJ|17=1|37=0|150=F|1080=20190724-000000000006.00|1081=5|453=5|448=029B17|447=C|452=12|448=029|447=C|452=1|448=037B18|447=C|452=37|448=037|447=C|452=17|448=029FCM001|447=C|452=36|55=T24U19F|762=AFIR|48=27227|22=M|6=120.000|14=100|31=120.000|32=100|38=100|39=2|54=2|60=20190724-16:13:38.888|75=20190724|63=1|64=20190724|151=0|1=RT001|381=30000000000.000|880=201907240000000001|828=99|10=018|
8=FIX.4.4|9=162|35=R|34=7|49=029|50=029B17|52=20190724-16:13:23.534|56=EXC|131=201907241111223_R|146=1|55=T24U19F|22=M|762=AFIR|54=1|38=150|1=RT001|453=1|448=037B18|447=C|452=37|10=186|
8=FIX.4.4|9=0244|35=AI|34=7|49=EXC|56=029|57=029B17|52=20190724-16:14:04.014|131=201907241111223_R|453=4|448=029B17|447=C|452=12|448=029|447=C|452=1|448=029FCM001|447=C|452=36|448=037B18|447=C|452=37|55=T24U19F|762=AFIR|48=27227|22=M|54=1|1=RT001|38=150|297=10|10=111|
8=FIX.4.4|9=0286|35=S|34=8|49=EXC|56=029|57=029B17|52=20190724-16:14:24.094|131=201907241111223_R|117=20190724-000000000007.00|55=T24U19F|762=AFIR|48=27227|22=M|453=4|448=029B17|447=C|452=12|448=029|447=C|452=1|448=029FCM001|447=C|452=36|448=037B18|447=C|452=37|133=123.000|135=150|62=20190830-22:00:00|10=085|
8=FIX.4.4|9=59|35=0|34=8|49=029|50=029B17|52=20190724-16:13:53.675|56=EXC|10=082|
8=FIX.4.4|9=143|35=AJ|34=9|49=029|50=029B17|52=20190724-16:14:03.670|56=EXC|54=1|55=T24U19F|117=20190724-000000000007.00|693=201907241111223_AJ|694=1|762=AFIR|10=079|
8=FIX.4.4|9=0460|35=8|34=9|49=EXC|56=029|57=029B17|52=20190724-16:14:44.146|11=201907241111223_AJ|17=2|37=0|150=F|1080=20190724-000000000007.00|1081=5|453=5|448=029B17|447=C|452=12|448=029|447=C|452=1|448=037B18|447=C|452=37|448=037|447=C|452=17|448=029FCM001|447=C|452=36|55=T24U19F|762=AFIR|48=27227|22=M|6=123.000|14=150|31=123.000|32=150|38=150|39=2|54=1|60=20190724-16:14:44.146|75=20190724|63=1|64=20190724|151=0|1=RT001|381=46125000000.000|880=201907240000000002|828=99|10=030|
8=FIX.4.4|9=0050|35=0|34=10|49=EXC|56=029|52=20190724-16:15:14.000|10=215|
8=FIX.4.4|9=60|35=0|34=10|49=029|50=029B17|52=20190724-16:14:33.687|56=EXC|10=117|
8=FIX.4.4|9=0050|35=0|34=11|49=EXC|56=029|52=20190724-16:15:44.000|10=219|
8=FIX.4.4|9=60|35=0|34=11|49=029|50=029B17|52=20190724-16:15:03.721|56=EXC|10=105|
8=FIX.4.4|9=0050|35=0|34=12|49=EXC|56=029|52=20190724-16:16:14.000|10=218|
8=FIX.4.4|9=60|35=0|34=12|49=029|50=029B17|52=20190724-16:15:33.722|56=EXC|10=110|
8=FIX.4.4|9=162|35=R|34=13|49=029|50=029B17|52=20190724-16:15:59.489|56=EXC|131=201907241111228_R|146=1|55=I01H99F|22=M|762=AFIR|54=1|38=-1|1=RT001|453=1|448=037B18|447=C|452=37|10=179|
8=FIX.4.4|9=0132|35=3|34=13|49=EXC|56=029|52=20190724-16:16:39.965|45=13|371=38|372=R|373=6|58=(1462): OrderQty(#38) contiene informacion incorrecta|10=054|
8=FIX.4.4|9=161|35=R|34=14|49=029|50=029B17|52=20190724-16:16:14.538|56=EXC|131=201907241111229_R|146=1|55=I06H99F|22=M|762=AFIR|54=1|38=7|1=RT001|453=1|448=037B18|447=C|452=37|10=133|
8=FIX.4.4|9=0243|35=AI|34=14|49=EXC|56=029|57=029B17|52=20190724-16:16:55.014|131=201907241111229_R|453=4|448=029B17|447=C|452=12|448=029|447=C|452=1|448=029FCM001|447=C|452=36|448=037B18|447=C|452=37|55=I06H99F|762=AFIR|48=27166|22=M|54=1|1=RT001|38=7|297=10|10=061|
8=FIX.4.4|9=161|35=R|34=15|49=029|50=029B17|52=20190724-16:16:39.587|56=EXC|131=201907241111229_R|146=1|55=I06H99F|22=M|762=AFIR|54=1|38=0|1=RT001|453=1|448=037B18|447=C|452=37|10=138|
8=FIX.4.4|9=0243|35=AI|34=15|49=EXC|56=029|57=029B17|52=20190724-16:17:20.065|131=201907241111229_R|453=4|448=029B17|447=C|452=12|448=029|447=C|452=1|448=029FCM001|447=C|452=36|448=037B18|447=C|452=37|55=I06H99F|762=AFIR|48=27166|22=M|54=1|1=RT001|38=7|297=17|10=068|
8=FIX.4.4|9=0050|35=0|34=16|49=EXC|56=029|52=20190724-16:17:50.000|10=223|
8=FIX.4.4|9=60|35=0|34=16|49=029|50=029B17|52=20190724-16:17:09.670|56=EXC|10=121|
8=FIX.4.4|9=0050|35=0|34=17|49=EXC|56=029|52=20190724-16:18:20.000|10=222|
8=FIX.4.4|9=60|35=0|34=17|49=029|50=029B17|52=20190724-16:17:39.670|56=EXC|10=125|
8=FIX.4.4|9=60|35=5|34=18|49=029|50=029B17|52=20190724-16:17:50.670|56=EXC|10=124|
8=FIX.4.4|9=0057|35=5|34=18|49=EXC|56=029|52=20190724-16:18:31.147|369=18|10=066|
8=FIX.4.4|9=60|35=5|34=19|49=029|50=029B17|52=20190724-16:17:50.673|56=EXC|10=128|
8=FIX.4.4|9=110|35=A|34=1|49=029|50=029B17|52=20190724-16:28:05.169|56=EXC|43=N|98=0|108=30|141=Y|553=029FCM001|554=029FCM001|10=117|
8=FIX.4.4|9=0067|35=A|34=1|49=EXC|56=029|52=20190724-16:28:45.717|98=0|108=30|141=Y|10=029|
8=FIX.4.4|9=162|35=R|34=2|49=029|50=029B17|52=20190724-16:28:11.207|56=EXC|131=201907241128011_R|146=1|55=T24U19F|22=M|762=AFIR|54=1|38=100|1=RT001|453=1|448=037B18|447=C|452=37|10=179|
8=FIX.4.4|9=0244|35=AI|34=2|49=EXC|56=029|57=029B17|52=20190724-16:28:51.695|131=201907241128011_R|453=4|448=029B17|447=C|452=12|448=029|447=C|452=1|448=029FCM001|447=C|452=36|448=037B18|447=C|452=37|55=T24U19F|762=AFIR|48=27227|22=M|54=1|1=RT001|38=100|297=10|10=126|
8=FIX.4.4|9=0049|35=0|34=3|49=EXC|56=029|52=20190724-16:29:21.000|10=180|
8=FIX.4.4|9=59|35=0|34=3|49=029|50=029B17|52=20190724-16:28:41.913|56=EXC|10=075|
8=FIX.4.4|9=162|35=R|34=4|49=029|50=029B17|52=20190724-16:28:51.528|56=EXC|131=201907241128012_R|146=1|55=T24U19F|22=M|762=AFIR|54=2|38=100|1=RT001|453=1|448=037B18|447=C|452=37|10=193|
8=FIX.4.4|9=0244|35=AI|34=4|49=EXC|56=029|57=029B17|52=20190724-16:29:32.016|131=201907241128012_R|453=4|448=029B17|447=C|452=12|448=029|447=C|452=1|448=029FCM001|447=C|452=36|448=037B18|447=C|452=37|55=T24U19F|762=AFIR|48=27227|22=M|54=2|1=RT001|38=100|297=10|10=117|
8=FIX.4.4|9=0286|35=S|34=5|49=EXC|56=029|57=029B17|52=20190724-16:29:57.089|131=201907241128012_R|117=20190724-000000000012.00|55=T24U19F|762=AFIR|48=27227|22=M|453=4|448=029B17|447=C|452=12|448=029|447=C|452=1|448=029FCM001|447=C|452=36|448=037B18|447=C|452=37|132=120.000|134=100|62=20190830-22:00:00|10=088|
8=FIX.4.4|9=59|35=0|34=5|49=029|50=029B17|52=20190724-16:29:21.915|56=EXC|10=078|
8=FIX.4.4|9=143|35=AJ|34=6|49=029|50=029B17|52=20190724-16:29:36.658|56=EXC|54=2|55=T24U19F|117=20190724-000000000012.00|693=201907241128012_AJ|694=1|762=AFIR|10=095|
8=FIX.4.4|9=0460|35=8|34=6|49=EXC|56=029|57=029B17|52=20190724-16:30:17.156|11=201907241128012_AJ|17=3|37=0|150=F|1080=20190724-000000000012.00|1081=5|453=5|448=029B17|447=C|452=12|448=029|447=C|452=1|448=037B18|447=C|452=37|448=037|447=C|452=17|448=029FCM001|447=C|452=36|55=T24U19F|762=AFIR|48=27227|22=M|6=120.000|14=100|31=120.000|32=100|38=100|39=2|54=2|60=20190724-16:30:17.156|75=20190724|63=1|64=20190724|151=0|1=RT001|381=30000000000.000|880=201907240000000003|828=99|10=248|
8=FIX.4.4|9=162|35=R|34=7|49=029|50=029B17|52=20190724-16:30:01.780|56=EXC|131=201907241128013_R|146=1|55=T24U19F|22=M|762=AFIR|54=1|38=150|1=RT001|453=1|448=037B18|447=C|452=37|10=189|
8=FIX.4.4|9=0244|35=AI|34=7|49=EXC|56=029|57=029B17|52=20190724-16:30:42.271|131=201907241128013_R|453=4|448=029B17|447=C|452=12|448=029|447=C|452=1|448=029FCM001|447=C|452=36|448=037B18|447=C|452=37|55=T24U19F|762=AFIR|48=27227|22=M|54=1|1=RT001|38=150|297=10|10=121|
8=FIX.4.4|9=0286|35=S|34=8|49=EXC|56=029|57=029B17|52=20190724-16:31:07.331|131=201907241128013_R|117=20190724-000000000013.00|55=T24U19F|762=AFIR|48=27227|22=M|453=4|448=029B17|447=C|452=12|448=029|447=C|452=1|448=029FCM001|447=C|452=36|448=037B18|447=C|452=37|133=123.000|135=150|62=20190830-22:00:00|10=081|
8=FIX.4.4|9=59|35=0|34=8|49=029|50=029B17|52=20190724-16:30:31.961|56=EXC|10=075|
8=FIX.4.4|9=143|35=AJ|34=9|49=029|50=029B17|52=20190724-16:30:46.897|56=EXC|54=1|55=T24U19F|117=20190724-000000000013.00|693=201907241128013_AJ|694=1|762=AFIR|10=097|
8=FIX.4.4|9=0460|35=8|34=9|49=EXC|56=029|57=029B17|52=20190724-16:31:27.385|11=201907241128013_AJ|17=4|37=0|150=F|1080=20190724-000000000013.00|1081=5|453=5|448=029B17|447=C|452=12|448=029|447=C|452=1|448=037B18|447=C|452=37|448=037|447=C|452=17|448=029FCM001|447=C|452=36|55=T24U19F|762=AFIR|48=27227|22=M|6=123.000|14=150|31=123.000|32=150|38=150|39=2|54=1|60=20190724-16:31:27.385|75=20190724|63=1|64=20190724|151=0|1=RT001|381=46125000000.000|880=201907240000000004|828=99|10=046|
8=FIX.4.4|9=0050|35=0|34=10|49=EXC|56=029|52=20190724-16:31:57.000|10=220|
8=FIX.4.4|9=60|35=0|34=10|49=029|50=029B17|52=20190724-16:31:16.911|56=EXC|10=107|
8=FIX.4.4|9=0050|35=0|34=11|49=EXC|56=029|52=20190724-16:32:27.000|10=219|
8=FIX.4.4|9=60|35=0|34=11|49=029|50=029B17|52=20190724-16:31:46.917|56=EXC|10=117|
8=FIX.4.4|9=0050|35=0|34=12|49=EXC|56=029|52=20190724-16:32:57.000|10=223|
8=FIX.4.4|9=60|35=0|34=12|49=029|50=029B17|52=20190724-16:32:16.909|56=EXC|10=117|
8=FIX.4.4|9=162|35=R|34=13|49=029|50=029B17|52=20190724-16:32:42.380|56=EXC|131=201907241128018_R|146=1|55=I01H99F|22=M|762=AFIR|54=1|38=-1|1=RT001|453=1|448=037B18|447=C|452=37|10=165|
8=FIX.4.4|9=0132|35=3|34=13|49=EXC|56=029|52=20190724-16:33:22.867|45=13|371=38|372=R|373=6|58=(1462): OrderQty(#38) contiene informacion incorrecta|10=046|
8=FIX.4.4|9=161|35=R|34=14|49=029|50=029B17|52=20190724-16:32:57.441|56=EXC|131=201907241128019_R|146=1|55=I06H99F|22=M|762=AFIR|54=1|38=7|1=RT001|453=1|448=037B18|447=C|452=37|10=136|
8=FIX.4.4|9=0243|35=AI|34=14|49=EXC|56=029|57=029B17|52=20190724-16:33:37.937|131=201907241128019_R|453=4|448=029B17|447=C|452=12|448=029|447=C|452=1|448=029FCM001|447=C|452=36|448=037B18|447=C|452=37|55=I06H99F|762=AFIR|48=27166|22=M|54=1|1=RT001|38=7|297=10|10=079|
8=FIX.4.4|9=161|35=R|34=15|49=029|50=029B17|52=20190724-16:33:22.505|56=EXC|131=201907241128019_R|146=1|55=I06H99F|22=M|762=AFIR|54=1|38=0|1=RT001|453=1|448=037B18|447=C|452=37|10=124|
8=FIX.4.4|9=0243|35=AI|34=15|49=EXC|56=029|57=029B17|52=20190724-16:34:02.997|131=201907241128019_R|453=4|448=029B17|447=C|452=12|448=029|447=C|452=1|448=029FCM001|447=C|452=36|448=037B18|447=C|452=37|55=I06H99F|762=AFIR|48=27166|22=M|54=1|1=RT001|38=7|297=17|10=086|
8=FIX.4.4|9=0050|35=0|34=16|49=EXC|56=029|52=20190724-16:34:32.000|10=222|
8=FIX.4.4|9=60|35=0|34=16|49=029|50=029B17|52=20190724-16:33:52.913|56=EXC|10=117|
8=FIX.4.4|9=0050|35=0|34=17|49=EXC|56=029|52=20190724-16:35:02.000|10=221|
8=FIX.4.4|9=60|35=0|34=17|49=029|50=029B17|52=20190724-16:34:22.922|56=EXC|10=116|
8=FIX.4.4|9=60|35=5|34=18|49=029|50=029B17|52=20190724-16:34:33.911|56=EXC|10=122|
8=FIX.4.4|9=0057|35=5|34=18|49=EXC|56=029|52=20190724-16:35:14.402|369=18|10=060|
