8=FIX.4.4|9=105|35=A|34=1|49=010|50=010BWN|52=20190612-16:29:19.954|56=EXC|98=0|108=30|141=Y|553=010FCE003|554=010FCE003|10=147|
8=FIX.4.4|9=0067|35=A|34=1|49=EXC|56=010|52=20190612-16:29:19.984|98=0|108=30|141=Y|10=023|
8=FIX.4.4|9=0049|35=0|34=2|49=EXC|56=010|52=20190612-16:29:49.000|10=175|
8=FIX.4.4|9=59|35=0|34=2|49=010|50=010BWN|52=20190612-16:29:50.860|56=EXC|10=113|
8=FIX.4.4|9=0049|35=0|34=3|49=EXC|56=010|52=20190612-16:30:19.000|10=165|
8=FIX.4.4|9=59|35=0|34=3|49=010|50=010BWN|52=20190612-16:30:20.872|56=EXC|10=106|
8=FIX.4.4|9=105|35=A|34=1|49=010|50=010BWN|52=20190612-16:44:40.000|56=EXC|98=0|108=30|141=Y|553=010FCE003|554=010FCE003|10=120|
8=FIX.4.4|9=0067|35=A|34=1|49=EXC|56=010|52=20190612-16:44:40.059|98=0|108=30|141=Y|10=007|
8=FIX.4.4|9=0049|35=0|34=2|49=EXC|56=010|52=20190612-16:45:10.000|10=161|
8=FIX.4.4|9=59|35=0|34=2|49=010|50=010BWN|52=20190612-16:45:10.028|56=EXC|10=103|
8=FIX.4.4|9=105|35=A|34=1|49=010|50=010BWN|52=20190612-16:55:03.372|56=EXC|98=0|108=30|141=Y|553=010FCE003|554=010FCE003|10=133|
8=FIX.4.4|9=0067|35=A|34=1|49=EXC|56=010|52=20190612-16:55:03.402|98=0|108=30|141=Y|10=000|
8=FIX.4.4|9=105|35=A|34=1|49=010|50=010BWN|52=20190612-16:56:24.195|56=EXC|98=0|108=30|141=Y|553=010FCE003|554=010FCE003|10=140|
8=FIX.4.4|9=0067|35=A|34=1|49=EXC|56=010|52=20190612-16:56:24.222|98=0|108=30|141=Y|10=004|
8=FIX.4.4|9=0049|35=0|34=2|49=EXC|56=010|52=20190612-16:56:54.000|10=171|
8=FIX.4.4|9=59|35=0|34=2|49=010|50=010BWN|52=20190612-16:56:55.106|56=EXC|10=111|
8=FIX.4.4|9=0049|35=0|34=3|49=EXC|56=010|52=20190612-16:57:24.000|10=170|
8=FIX.4.4|9=59|35=0|34=3|49=010|50=010BWN|52=20190612-16:57:25.109|56=EXC|10=113|
8=FIX.4.4|9=105|35=A|34=1|49=010|50=010BWN|52=20190612-19:36:17.149|56=EXC|98=0|108=30|141=Y|553=010FCE003|554=010FCE003|10=142|
8=FIX.4.4|9=0067|35=A|34=1|49=EXC|56=010|52=20190612-19:36:17.189|98=0|108=30|141=Y|10=019|
8=FIX.4.4|9=0049|35=0|34=2|49=EXC|56=010|52=20190612-19:36:47.000|10=174|
8=FIX.4.4|9=59|35=0|34=2|49=010|50=010BWN|52=20190612-19:36:48.081|56=EXC|10=116|
8=FIX.4.4|9=105|35=A|34=1|49=010|50=010BWN|52=20190612-19:56:51.786|56=EXC|98=0|108=30|141=Y|553=010FCE003|554=010FCE003|10=149|
8=FIX.4.4|9=0067|35=A|34=1|49=EXC|56=010|52=20190612-19:56:51.828|98=0|108=30|141=Y|10=019|
8=FIX.4.4|9=0049|35=0|34=2|49=EXC|56=010|52=20190612-19:57:21.000|10=169|
8=FIX.4.4|9=59|35=0|34=2|49=010|50=010BWN|52=20190612-19:57:22.756|56=EXC|10=120|
8=FIX.4.4|9=0049|35=0|34=3|49=EXC|56=010|52=20190612-19:57:51.000|10=173|
8=FIX.4.4|9=59|35=0|34=3|49=010|50=010BWN|52=20190612-19:57:52.755|56=EXC|10=123|
8=FIX.4.4|9=105|35=A|34=1|49=010|50=010BWN|52=20190612-19:58:09.086|56=EXC|98=0|108=30|141=Y|553=010FCE003|554=010FCE003|10=147|
8=FIX.4.4|9=0067|35=A|34=1|49=EXC|56=010|52=20190612-19:58:09.123|98=0|108=30|141=Y|10=012|
8=FIX.4.4|9=0049|35=0|34=2|49=EXC|56=010|52=20190612-19:58:39.000|10=179|
8=FIX.4.4|9=59|35=0|34=2|49=010|50=010BWN|52=20190612-19:58:40.047|56=EXC|10=114|
8=FIX.4.4|9=0049|35=0|34=3|49=EXC|56=010|52=20190612-19:59:09.000|10=178|
8=FIX.4.4|9=59|35=0|34=3|49=010|50=010BWN|52=20190612-19:59:10.048|56=EXC|10=114|
8=FIX.4.4|9=105|35=A|34=1|49=010|50=010BWN|52=20190612-20:04:55.533|56=EXC|98=0|108=30|141=Y|553=010FCE003|554=010FCE003|10=128|
8=FIX.4.4|9=0067|35=A|34=1|49=EXC|56=010|52=20190612-20:04:55.570|98=0|108=30|141=Y|10=002|
8=FIX.4.4|9=0049|35=0|34=2|49=EXC|56=010|52=20190612-20:05:25.000|10=158|
8=FIX.4.4|9=59|35=0|34=2|49=010|50=010BWN|52=20190612-20:05:26.468|56=EXC|10=109|
8=FIX.4.4|9=0049|35=0|34=3|49=EXC|56=010|52=20190612-20:05:55.000|10=162|
8=FIX.4.4|9=59|35=0|34=3|49=010|50=010BWN|52=20190612-20:05:56.469|56=EXC|10=114|
8=FIX.4.4|9=105|35=A|34=1|49=010|50=010BWN|52=20190612-20:08:47.348|56=EXC|98=0|108=30|141=Y|553=010FCE003|554=010FCE003|10=137|
8=FIX.4.4|9=0067|35=A|34=1|49=EXC|56=010|52=20190612-20:08:47.385|98=0|108=30|141=Y|10=011|
8=FIX.4.4|9=0049|35=0|34=2|49=EXC|56=010|52=20190612-20:09:17.000|10=163|
8=FIX.4.4|9=59|35=0|34=2|49=010|50=010BWN|52=20190612-20:09:18.317|56=EXC|10=107|
8=FIX.4.4|9=105|35=A|34=1|49=010|50=010BWN|52=20190612-21:05:06.751|56=EXC|98=0|108=30|141=Y|553=010FCE003|554=010FCE003|10=128|
8=FIX.4.4|9=0067|35=A|34=1|49=EXC|56=010|52=20190612-21:05:06.775|98=0|108=30|141=Y|10=007|
8=FIX.4.4|9=0049|35=0|34=2|49=EXC|56=010|52=20190612-21:05:36.000|10=161|
8=FIX.4.4|9=59|35=0|34=2|49=010|50=010BWN|52=20190612-21:05:37.711|56=EXC|10=103|
8=FIX.4.4|9=0049|35=0|34=3|49=EXC|56=010|52=20190612-21:06:06.000|10=160|
8=FIX.4.4|9=59|35=0|34=3|49=010|50=010BWN|52=20190612-21:06:07.713|56=EXC|10=104|
8=FIX.4.4|9=0049|35=0|34=4|49=EXC|56=010|52=20190612-21:06:36.000|10=164|
8=FIX.4.4|9=59|35=0|34=4|49=010|50=010BWN|52=20190612-21:06:37.712|56=EXC|10=107|
8=FIX.4.4|9=0049|35=0|34=5|49=EXC|56=010|52=20190612-21:07:06.000|10=163|
8=FIX.4.4|9=59|35=0|34=5|49=010|50=010BWN|52=20190612-21:07:07.712|56=EXC|10=106|
8=FIX.4.4|9=0049|35=0|34=6|49=EXC|56=010|52=20190612-21:07:36.000|10=167|
8=FIX.4.4|9=59|35=0|34=6|49=010|50=010BWN|52=20190612-21:07:37.712|56=EXC|10=110|
8=FIX.4.4|9=0049|35=0|34=7|49=EXC|56=010|52=20190612-21:08:06.000|10=166|
8=FIX.4.4|9=59|35=0|34=7|49=010|50=010BWN|52=20190612-21:08:07.712|56=EXC|10=109|
8=FIX.4.4|9=0049|35=0|34=8|49=EXC|56=010|52=20190612-21:08:36.000|10=170|
8=FIX.4.4|9=59|35=0|34=8|49=010|50=010BWN|52=20190612-21:08:37.711|56=EXC|10=112|
8=FIX.4.4|9=0049|35=0|34=9|49=EXC|56=010|52=20190612-21:09:06.000|10=169|
8=FIX.4.4|9=59|35=0|34=9|49=010|50=010BWN|52=20190612-21:09:07.712|56=EXC|10=112|
8=FIX.4.4|9=0050|35=0|34=10|49=EXC|56=010|52=20190612-21:09:36.000|10=204|
8=FIX.4.4|9=60|35=0|34=10|49=010|50=010BWN|52=20190612-21:09:37.711|56=EXC|10=146|
8=FIX.4.4|9=0050|35=0|34=11|49=EXC|56=010|52=20190612-21:10:06.000|10=194|
8=FIX.4.4|9=60|35=0|34=11|49=010|50=010BWN|52=20190612-21:10:07.711|56=EXC|10=136|
8=FIX.4.4|9=0050|35=0|34=12|49=EXC|56=010|52=20190612-21:10:36.000|10=198|
8=FIX.4.4|9=60|35=0|34=12|49=010|50=010BWN|52=20190612-21:10:37.712|56=EXC|10=141|
8=FIX.4.4|9=105|35=A|34=1|49=010|50=010BWN|52=20190612-21:13:21.087|56=EXC|98=0|108=30|141=Y|553=010FCE003|554=010FCE003|10=126|
8=FIX.4.4|9=0067|35=A|34=1|49=EXC|56=010|52=20190612-21:13:21.111|98=0|108=30|141=Y|10=243|
8=FIX.4.4|9=0049|35=0|34=2|49=EXC|56=010|52=20190612-21:13:51.000|10=157|
8=FIX.4.4|9=59|35=0|34=2|49=010|50=010BWN|52=20190612-21:13:52.056|56=EXC|10=101|
8=FIX.4.4|9=0049|35=0|34=3|49=EXC|56=010|52=20190612-21:14:21.000|10=156|
8=FIX.4.4|9=59|35=0|34=3|49=010|50=010BWN|52=20190612-21:14:22.057|56=EXC|10=101|
8=FIX.4.4|9=0049|35=0|34=4|49=EXC|56=010|52=20190612-21:14:51.000|10=160|
8=FIX.4.4|9=59|35=0|34=4|49=010|50=010BWN|52=20190612-21:14:52.056|56=EXC|10=104|
8=FIX.4.4|9=105|35=A|34=1|49=010|50=010BWN|52=20190612-21:17:38.609|56=EXC|98=0|108=30|141=Y|553=010FCE003|554=010FCE003|10=138|
8=FIX.4.4|9=0067|35=A|34=1|49=EXC|56=010|52=20190612-21:17:38.633|98=0|108=30|141=Y|10=008|
8=FIX.4.4|9=0049|35=0|34=2|49=EXC|56=010|52=20190612-21:18:08.000|10=164|
8=FIX.4.4|9=59|35=0|34=2|49=010|50=010BWN|52=20190612-21:18:09.573|56=EXC|10=112|
8=FIX.4.4|9=105|35=A|34=1|49=010|50=010BWN|52=20190612-21:42:39.576|56=EXC|98=0|108=30|141=Y|553=010FCE003|554=010FCE003|10=140|
8=FIX.4.4|9=0067|35=A|34=1|49=EXC|56=010|52=20190612-21:42:39.528|98=0|108=30|141=Y|10=010|
8=FIX.4.4|9=105|35=A|34=1|49=010|50=010BWN|52=20190612-21:50:53.716|56=EXC|98=0|108=30|141=Y|553=010FCE003|554=010FCE003|10=131|
8=FIX.4.4|9=0067|35=A|34=1|49=EXC|56=010|52=20190612-21:50:53.703|98=0|108=30|141=Y|10=000|
8=FIX.4.4|9=0049|35=0|34=2|49=EXC|56=010|52=20190612-21:51:23.000|10=158|
8=FIX.4.4|9=59|35=0|34=2|49=010|50=010BWN|52=20190612-21:51:24.630|56=EXC|10=100|
8=FIX.4.4|9=0049|35=0|34=3|49=EXC|56=010|52=20190612-21:51:53.000|10=162|
8=FIX.4.4|9=59|35=0|34=3|49=010|50=010BWN|52=20190612-21:51:54.626|56=EXC|10=109|
8=FIX.4.4|9=0049|35=0|34=4|49=EXC|56=010|52=20190612-21:52:23.000|10=161|
8=FIX.4.4|9=59|35=0|34=4|49=010|50=010BWN|52=20190612-21:52:24.625|56=EXC|10=107|
8=FIX.4.4|9=0049|35=0|34=5|49=EXC|56=010|52=20190612-21:52:53.000|10=165|
8=FIX.4.4|9=59|35=0|34=5|49=010|50=010BWN|52=20190612-21:52:54.622|56=EXC|10=108|
8=FIX.4.4|9=0049|35=0|34=6|49=EXC|56=010|52=20190612-21:53:23.000|10=164|
8=FIX.4.4|9=59|35=0|34=6|49=010|50=010BWN|52=20190612-21:53:24.620|56=EXC|10=105|
8=FIX.4.4|9=0049|35=0|34=7|49=EXC|56=010|52=20190612-21:53:53.000|10=168|
8=FIX.4.4|9=59|35=0|34=7|49=010|50=010BWN|52=20190612-21:53:54.618|56=EXC|10=116|
8=FIX.4.4|9=0049|35=0|34=8|49=EXC|56=010|52=20190612-21:54:23.000|10=167|
8=FIX.4.4|9=59|35=0|34=8|49=010|50=010BWN|52=20190612-21:54:24.616|56=EXC|10=113|
8=FIX.4.4|9=0049|35=0|34=9|49=EXC|56=010|52=20190612-21:54:53.000|10=171|
8=FIX.4.4|9=59|35=0|34=9|49=010|50=010BWN|52=20190612-21:54:54.614|56=EXC|10=115|
8=FIX.4.4|9=0050|35=0|34=10|49=EXC|56=010|52=20190612-21:55:23.000|10=201|
8=FIX.4.4|9=60|35=0|34=10|49=010|50=010BWN|52=20190612-21:55:24.612|56=EXC|10=143|
8=FIX.4.4|9=105|35=A|34=1|49=010|50=010BWN|52=20190613-16:47:33.246|56=EXC|98=0|108=30|141=Y|553=010FCE003|554=010FCE003|10=138|
8=FIX.4.4|9=0067|35=A|34=1|49=EXC|56=010|52=20190613-16:47:33.620|98=0|108=30|141=Y|10=007|
8=FIX.4.4|9=0049|35=0|34=2|49=EXC|56=010|52=20190613-16:48:03.000|10=167|
8=FIX.4.4|9=59|35=0|34=2|49=010|50=010BWN|52=20190613-16:48:04.222|56=EXC|10=106|
8=FIX.4.4|9=105|35=A|34=1|49=010|50=010BWN|52=20190613-16:49:32.555|56=EXC|98=0|108=30|141=Y|553=010FCE003|554=010FCE003|10=142|
8=FIX.4.4|9=0067|35=A|34=1|49=EXC|56=010|52=20190613-16:49:32.953|98=0|108=30|141=Y|10=017|
8=FIX.4.4|9=0049|35=0|34=2|49=EXC|56=010|52=20190613-16:50:02.000|10=159|
8=FIX.4.4|9=59|35=0|34=2|49=010|50=010BWN|52=20190613-16:50:03.491|56=EXC|10=106|
8=FIX.4.4|9=0049|35=0|34=3|49=EXC|56=010|52=20190613-16:50:32.000|10=163|
