8=FIX.4.4|9=110|35=A|34=1|49=029|50=029B17|52=20190718-18:54:54.806|56=EXC|43=N|98=0|108=30|141=Y|553=029FCM001|554=029FCM001|10=123|
8=FIX.4.4|9=0067|35=A|34=1|49=EXC|56=029|52=20190718-18:55:39.008|98=0|108=30|141=Y|10=030|
8=FIX.4.4|9=162|35=R|34=2|49=029|50=029B17|52=20190718-18:55:02.046|56=EXC|131=201907181354511_R|146=1|55=T24U19F|22=M|762=AFIR|54=1|38=100|1=RT001|453=1|448=037B18|447=C|452=37|10=194|
8=FIX.4.4|9=0244|35=AI|34=2|49=EXC|56=029|57=029B17|52=20190718-18:55:46.226|131=201907181354511_R|453=4|448=029B17|447=C|452=12|448=029|447=C|452=1|448=029FCM001|447=C|452=36|448=037B18|447=C|452=37|55=T24U19F|762=AFIR|48=27227|22=M|54=1|1=RT001|38=100|297=10|10=134|
8=FIX.4.4|9=0049|35=0|34=3|49=EXC|56=029|52=20190718-18:56:16.000|10=189|
8=FIX.4.4|9=59|35=0|34=3|49=029|50=029B17|52=20190718-18:55:32.710|56=EXC|10=075|
8=FIX.4.4|9=110|35=A|34=1|49=029|50=029B17|52=20190718-19:01:01.703|56=EXC|43=N|98=0|108=30|141=Y|553=029FCM001|554=029FCM001|10=104|
8=FIX.4.4|9=0067|35=A|34=1|49=EXC|56=029|52=20190718-19:01:45.922|98=0|108=30|141=Y|10=024|
8=FIX.4.4|9=0049|35=0|34=2|49=EXC|56=029|52=20190718-19:02:15.000|10=179|
8=FIX.4.4|9=59|35=0|34=2|49=029|50=029B17|52=20190718-19:01:32.648|56=EXC|10=076|
8=FIX.4.4|9=110|35=A|34=1|49=029|50=029B17|52=20190718-19:04:31.510|56=EXC|43=N|98=0|108=30|141=Y|553=029FCM001|554=029FCM001|10=106|
8=FIX.4.4|9=0067|35=A|34=1|49=EXC|56=029|52=20190718-19:05:15.748|98=0|108=30|141=Y|10=031|
8=FIX.4.4|9=162|35=R|34=2|49=029|50=029B17|52=20190718-19:04:38.722|56=EXC|131=201907181404281_R|146=1|55=T24U19F|22=M|762=AFIR|54=1|38=100|1=RT001|453=1|448=037B18|447=C|452=37|10=199|
8=FIX.4.4|9=0244|35=AI|34=2|49=EXC|56=029|57=029B17|52=20190718-19:05:22.917|131=201907181404281_R|453=4|448=029B17|447=C|452=12|448=029|447=C|452=1|448=029FCM001|447=C|452=36|448=037B18|447=C|452=37|55=T24U19F|762=AFIR|48=27227|22=M|54=1|1=RT001|38=100|297=10|10=131|
8=FIX.4.4|9=0049|35=0|34=3|49=EXC|56=029|52=20190718-19:05:52.000|10=184|
8=FIX.4.4|9=59|35=0|34=3|49=029|50=029B17|52=20190718-19:05:09.435|56=EXC|10=079|
8=FIX.4.4|9=110|35=A|34=1|49=029|50=029B17|52=20190718-19:41:03.841|56=EXC|43=N|98=0|108=30|141=Y|553=029FCM001|554=029FCM001|10=113|
8=FIX.4.4|9=0067|35=A|34=1|49=EXC|56=029|52=20190718-19:41:37.930|98=0|108=30|141=Y|10=028|
8=FIX.4.4|9=162|35=R|34=2|49=029|50=029B17|52=20190718-19:41:11.314|56=EXC|131=201907181441001_R|146=1|55=T24U19F|22=M|762=AFIR|54=1|38=100|1=RT001|453=1|448=037B18|447=C|452=37|10=179|
8=FIX.4.4|9=0244|35=AI|34=2|49=EXC|56=029|57=029B17|52=20190718-19:41:45.370|131=201907181441001_R|453=4|448=029B17|447=C|452=12|448=029|447=C|452=1|448=029FCM001|447=C|452=36|448=037B18|447=C|452=37|55=T24U19F|762=AFIR|48=27227|22=M|54=1|1=RT001|38=100|297=10|10=120|
8=FIX.4.4|9=0287|35=S|34=3|49=EXC|56=029|57=029B17|52=20190718-19:42:05.797|131=201907181441001_R|117=20190718-000000000001.00|55=T24U19F|762=AFIR|48=27227|22=M|453=4|448=029B17|447=C|452=12|448=029|447=C|452=1|448=029FCM001|447=C|452=36|448=037B18|447=C|452=37|133=1000.000|135=100|62=20190830-22:00:00|10=135|
8=FIX.4.4|9=59|35=0|34=3|49=029|50=029B17|52=20190718-19:41:41.794|56=EXC|10=083|
8=FIX.4.4|9=143|35=AJ|34=4|49=029|50=029B17|52=20190718-19:41:51.816|56=EXC|54=1|55=T24U19F|117=20190718-000000000001.00|693=201907181441001_AJ|694=1|762=AFIR|10=085|
8=FIX.4.4|9=0463|35=8|34=4|49=EXC|56=029|57=029B17|52=20190718-19:42:25.871|11=201907181441001_AJ|17=1|37=0|150=F|1080=20190718-000000000001.00|1081=5|453=5|448=029B17|447=C|452=12|448=029|447=C|452=1|448=037B18|447=C|452=37|448=037|447=C|452=17|448=029FCM001|447=C|452=36|55=T24U19F|762=AFIR|48=27227|22=M|6=1000.000|14=100|31=1000.000|32=100|38=100|39=2|54=1|60=20190718-19:42:25.871|75=20190718|63=1|64=20190718|151=0|1=RT001|381=250000000000.000|880=201907180000000001|828=99|10=165|
8=FIX.4.4|9=0049|35=0|34=5|49=EXC|56=029|52=20190718-19:42:55.000|10=190|
8=FIX.4.4|9=59|35=5|34=5|49=029|50=029B17|52=20190718-19:42:22.797|56=EXC|10=093|
8=FIX.4.4|9=0055|35=5|34=6|49=EXC|56=029|52=20190718-19:42:56.990|369=5|10=233|
8=FIX.4.4|9=110|35=A|34=1|49=029|50=029B17|52=20190719-14:44:06.708|56=EXC|43=N|98=0|108=30|141=Y|553=029FCM001|554=029FCM001|10=117|
8=FIX.4.4|9=0067|35=A|34=1|49=EXC|56=029|52=20190719-14:44:41.683|98=0|108=30|141=Y|10=027|
8=FIX.4.4|9=161|35=R|34=2|49=029|50=029B17|52=20190719-14:44:12.771|56=EXC|131=20190719944011_R|146=1|55=T24U19F|22=M|762=AFIR|54=1|38=100|1=RT001|453=1|448=037B18|447=C|452=37|10=146|
8=FIX.4.4|9=0243|35=AI|34=2|49=EXC|56=029|57=029B17|52=20190719-14:44:47.707|131=20190719944011_R|453=4|448=029B17|447=C|452=12|448=029|447=C|452=1|448=029FCM001|447=C|452=36|448=037B18|447=C|452=37|55=T24U19F|762=AFIR|48=27227|22=M|54=1|1=RT001|38=100|297=10|10=085|
8=FIX.4.4|9=110|35=A|34=1|49=029|50=029B17|52=20190719-14:56:25.678|56=EXC|43=N|98=0|108=30|141=Y|553=029FCM001|554=029FCM001|10=127|
8=FIX.4.4|9=0067|35=A|34=1|49=EXC|56=029|52=20190719-14:57:00.700|98=0|108=30|141=Y|10=016|
8=FIX.4.4|9=161|35=R|34=2|49=029|50=029B17|52=20190719-14:56:31.725|56=EXC|131=20190719956211_R|146=1|55=T24U19F|22=M|762=AFIR|54=1|38=100|1=RT001|453=1|448=037B18|447=C|452=37|10=154|
8=FIX.4.4|9=0243|35=AI|34=2|49=EXC|56=029|57=029B17|52=20190719-14:57:06.669|131=20190719956211_R|453=4|448=029B17|447=C|452=12|448=029|447=C|452=1|448=029FCM001|447=C|452=36|448=037B18|447=C|452=37|55=T24U19F|762=AFIR|48=27227|22=M|54=1|1=RT001|38=100|297=10|10=096|
8=FIX.4.4|9=0049|35=0|34=3|49=EXC|56=029|52=20190719-14:57:36.000|10=189|
8=FIX.4.4|9=110|35=A|34=1|49=029|50=029B17|52=20190719-15:37:21.244|56=EXC|43=N|98=0|108=30|141=Y|553=029FCM001|554=029FCM001|10=112|
8=FIX.4.4|9=0067|35=A|34=1|49=EXC|56=029|52=20190719-15:37:56.248|98=0|108=30|141=Y|10=033|
8=FIX.4.4|9=162|35=R|34=2|49=029|50=029B17|52=20190719-15:37:27.238|56=EXC|131=201907191037161_R|146=1|55=T24U19F|22=M|762=AFIR|54=1|38=100|1=RT001|453=1|448=037B18|447=C|452=37|10=202|
8=FIX.4.4|9=0244|35=AI|34=2|49=EXC|56=029|57=029B17|52=20190719-15:38:02.206|131=201907191037161_R|453=4|448=029B17|447=C|452=12|448=029|447=C|452=1|448=029FCM001|447=C|452=36|448=037B18|447=C|452=37|55=T24U19F|762=AFIR|48=27227|22=M|54=1|1=RT001|38=100|297=10|10=123|
8=FIX.4.4|9=0049|35=0|34=3|49=EXC|56=029|52=20190719-15:38:32.000|10=185|
8=FIX.4.4|9=59|35=0|34=3|49=029|50=029B17|52=20190719-15:37:57.829|56=EXC|10=091|
8=FIX.4.4|9=162|35=R|34=4|49=029|50=029B17|52=20190719-15:38:07.442|56=EXC|131=201907191037162_R|146=1|55=T24U19F|22=M|762=AFIR|54=2|38=100|1=RT001|453=1|448=037B18|447=C|452=37|10=202|
8=FIX.4.4|9=0244|35=AI|34=4|49=EXC|56=029|57=029B17|52=20190719-15:38:42.408|131=201907191037162_R|453=4|448=029B17|447=C|452=12|448=029|447=C|452=1|448=029FCM001|447=C|452=36|448=037B18|447=C|452=37|55=T24U19F|762=AFIR|48=27227|22=M|54=2|1=RT001|38=100|297=10|10=135|
8=FIX.4.4|9=0049|35=0|34=5|49=EXC|56=029|52=20190719-15:39:12.000|10=186|
8=FIX.4.4|9=59|35=0|34=5|49=029|50=029B17|52=20190719-15:38:37.828|56=EXC|10=091|
8=FIX.4.4|9=162|35=R|34=6|49=029|50=029B17|52=20190719-15:38:52.537|56=EXC|131=201907191037163_R|146=1|55=T24U19F|22=M|762=AFIR|54=1|38=150|1=RT001|453=1|448=037B18|447=C|452=37|10=214|
8=FIX.4.4|9=0244|35=AI|34=6|49=EXC|56=029|57=029B17|52=20190719-15:39:27.505|131=201907191037163_R|453=4|448=029B17|447=C|452=12|448=029|447=C|452=1|448=029FCM001|447=C|452=36|448=037B18|447=C|452=37|55=T24U19F|762=AFIR|48=27227|22=M|54=1|1=RT001|38=150|297=10|10=144|
8=FIX.4.4|9=0049|35=0|34=7|49=EXC|56=029|52=20190719-15:39:57.000|10=197|
8=FIX.4.4|9=59|35=0|34=7|49=029|50=029B17|52=20190719-15:39:22.539|56=EXC|10=087|
8=FIX.4.4|9=0049|35=0|34=8|49=EXC|56=029|52=20190719-15:40:27.000|10=187|
8=FIX.4.4|9=59|35=0|34=8|49=029|50=029B17|52=20190719-15:39:52.828|56=EXC|10=092|
8=FIX.4.4|9=0049|35=0|34=9|49=EXC|56=029|52=20190719-15:40:57.000|10=191|
8=FIX.4.4|9=59|35=0|34=9|49=029|50=029B17|52=20190719-15:40:23.147|56=EXC|10=077|
8=FIX.4.4|9=0050|35=0|34=10|49=EXC|56=029|52=20190719-15:41:27.000|10=221|
8=FIX.4.4|9=60|35=0|34=10|49=029|50=029B17|52=20190719-15:40:53.829|56=EXC|10=119|
8=FIX.4.4|9=162|35=R|34=11|49=029|50=029B17|52=20190719-15:41:02.955|56=EXC|131=201907191037168_R|146=1|55=I01H99F|22=M|762=AFIR|54=1|38=-1|1=RT001|453=1|448=037B18|447=C|452=37|10=179|
8=FIX.4.4|9=0132|35=3|34=11|49=EXC|56=029|52=20190719-15:41:37.927|45=11|371=38|372=R|373=6|58=(1462): OrderQty(#38) contiene informacion incorrecta|10=047|
8=FIX.4.4|9=161|35=R|34=12|49=029|50=029B17|52=20190719-15:41:18.000|56=EXC|131=201907191037169_R|146=1|55=I06H99F|22=M|762=AFIR|54=1|38=7|1=RT001|453=1|448=037B18|447=C|452=37|10=134|
8=FIX.4.4|9=0243|35=AI|34=12|49=EXC|56=029|57=029B17|52=20190719-15:41:52.970|131=201907191037169_R|453=4|448=029B17|447=C|452=12|448=029|447=C|452=1|448=029FCM001|447=C|452=36|448=037B18|447=C|452=37|55=I06H99F|762=AFIR|48=27166|22=M|54=1|1=RT001|38=7|297=10|10=082|
8=FIX.4.4|9=161|35=R|34=13|49=029|50=029B17|52=20190719-15:41:43.092|56=EXC|131=201907191037169_R|146=1|55=I06H99F|22=M|762=AFIR|54=1|38=0|1=RT001|453=1|448=037B18|447=C|452=37|10=137|
8=FIX.4.4|9=0243|35=AI|34=13|49=EXC|56=029|57=029B17|52=20190719-15:42:18.060|131=201907191037169_R|453=4|448=029B17|447=C|452=12|448=029|447=C|452=1|448=029FCM001|447=C|452=36|448=037B18|447=C|452=37|55=I06H99F|762=AFIR|48=27166|22=M|54=1|1=RT001|38=7|297=17|10=083|
8=FIX.4.4|9=0050|35=0|34=14|49=EXC|56=029|52=20190719-15:42:48.000|10=229|
8=FIX.4.4|9=60|35=0|34=14|49=029|50=029B17|52=20190719-15:42:13.829|56=EXC|10=121|
8=FIX.4.4|9=0050|35=0|34=15|49=EXC|56=029|52=20190719-15:43:18.000|10=228|
8=FIX.4.4|9=60|35=0|34=15|49=029|50=029B17|52=20190719-15:42:43.826|56=EXC|10=122|
8=FIX.4.4|9=60|35=5|34=16|49=029|50=029B17|52=20190719-15:42:53.830|56=EXC|10=124|
8=FIX.4.4|9=0057|35=5|34=16|49=EXC|56=029|52=20190719-15:43:28.793|369=16|10=076|
8=FIX.4.4|9=110|35=A|34=1|49=029|50=029B17|52=20190723-15:08:14.692|56=EXC|43=N|98=0|108=30|141=Y|553=029FCM001|554=029FCM001|10=114|
8=FIX.4.4|9=0067|35=A|34=1|49=EXC|56=029|52=20190723-15:08:54.045|98=0|108=30|141=Y|10=019|
8=FIX.4.4|9=162|35=R|34=2|49=029|50=029B17|52=20190723-15:08:20.775|56=EXC|131=201907231008101_R|146=1|55=T24U19F|22=M|762=AFIR|54=1|38=100|1=RT001|453=1|448=037B18|447=C|452=37|10=181|
8=FIX.4.4|9=0244|35=AI|34=2|49=EXC|56=029|57=029B17|52=20190723-15:09:00.098|131=201907231008101_R|453=4|448=029B17|447=C|452=12|448=029|447=C|452=1|448=029FCM001|447=C|452=36|448=037B18|447=C|452=37|55=T24U19F|762=AFIR|48=27227|22=M|54=1|1=RT001|38=100|297=10|10=110|
8=FIX.4.4|9=0049|35=0|34=3|49=EXC|56=029|52=20190723-15:09:30.000|10=176|
8=FIX.4.4|9=59|35=0|34=3|49=029|50=029B17|52=20190723-15:08:51.164|56=EXC|10=070|
8=FIX.4.4|9=162|35=R|34=4|49=029|50=029B17|52=20190723-15:09:01.047|56=EXC|131=201907231008102_R|146=1|55=T24U19F|22=M|762=AFIR|54=2|38=100|1=RT001|453=1|448=037B18|447=C|452=37|10=177|
8=FIX.4.4|9=0244|35=AI|34=4|49=EXC|56=029|57=029B17|52=20190723-15:09:40.374|131=201907231008102_R|453=4|448=029B17|447=C|452=12|448=029|447=C|452=1|448=029FCM001|447=C|452=36|448=037B18|447=C|452=37|55=T24U19F|762=AFIR|48=27227|22=M|54=2|1=RT001|38=100|297=10|10=115|
8=FIX.4.4|9=0049|35=0|34=5|49=EXC|56=029|52=20190723-15:10:10.000|10=168|
8=FIX.4.4|9=59|35=0|34=5|49=029|50=029B17|52=20190723-15:09:31.165|56=EXC|10=072|
8=FIX.4.4|9=59|35=5|34=6|49=029|50=029B17|52=20190723-15:09:52.170|56=EXC|10=077|
8=FIX.4.4|9=0055|35=5|34=6|49=EXC|56=029|52=20190723-15:10:31.483|369=6|10=211|
8=FIX.4.4|9=110|35=A|34=1|49=029|50=029B17|52=20190723-15:34:01.613|56=EXC|43=N|98=0|108=30|141=Y|553=029FCM001|554=029FCM001|10=102|
8=FIX.4.4|9=0067|35=A|34=1|49=EXC|56=029|52=20190723-15:34:41.028|98=0|108=30|141=Y|10=015|
8=FIX.4.4|9=162|35=R|34=2|49=029|50=029B17|52=20190723-15:34:07.621|56=EXC|131=201907231033571_R|146=1|55=T24U19F|22=M|762=AFIR|54=1|38=100|1=RT001|453=1|448=037B18|447=C|452=37|10=184|
8=FIX.4.4|9=0244|35=AI|34=2|49=EXC|56=029|57=029B17|52=20190723-15:34:46.950|131=201907231033571_R|453=4|448=029B17|447=C|452=12|448=029|447=C|452=1|448=029FCM001|447=C|452=36|448=037B18|447=C|452=37|55=T24U19F|762=AFIR|48=27227|22=M|54=1|1=RT001|38=100|297=10|10=124|
8=FIX.4.4|9=0049|35=0|34=3|49=EXC|56=029|52=20190723-15:35:16.000|10=179|
8=FIX.4.4|9=59|35=0|34=3|49=029|50=029B17|52=20190723-15:34:38.331|56=EXC|10=070|
8=FIX.4.4|9=59|35=5|34=4|49=029|50=029B17|52=20190723-15:34:53.339|56=EXC|10=081|
8=FIX.4.4|9=0055|35=5|34=4|49=EXC|56=029|52=20190723-15:35:32.667|369=4|10=219|
8=FIX.4.4|9=59|35=5|34=5|49=029|50=029B17|52=20190723-15:34:53.339|56=EXC|10=082|
8=FIX.4.4|9=110|35=A|34=1|49=029|50=029B17|52=20190723-15:41:24.542|56=EXC|43=N|98=0|108=30|141=Y|553=029FCM001|554=029FCM001|10=106|
8=FIX.4.4|9=0067|35=A|34=1|49=EXC|56=029|52=20190723-15:42:03.913|98=0|108=30|141=Y|10=015|
8=FIX.4.4|9=162|35=R|34=2|49=029|50=029B17|52=20190723-15:41:30.523|56=EXC|131=201907231041201_R|146=1|55=T24U19F|22=M|762=AFIR|54=1|38=100|1=RT001|453=1|448=037B18|447=C|452=37|10=168|
8=FIX.4.4|9=0244|35=AI|34=2|49=EXC|56=029|57=029B17|52=20190723-15:42:09.865|131=201907231041201_R|453=4|448=029B17|447=C|452=12|448=029|447=C|452=1|448=029FCM001|447=C|452=36|448=037B18|447=C|452=37|55=T24U19F|762=AFIR|48=27227|22=M|54=1|1=RT001|38=100|297=10|10=116|
8=FIX.4.4|9=0049|35=0|34=3|49=EXC|56=029|52=20190723-15:42:39.000|10=182|
8=FIX.4.4|9=59|35=0|34=3|49=029|50=029B17|52=20190723-15:42:01.161|56=EXC|10=060|
8=FIX.4.4|9=162|35=R|34=4|49=029|50=029B17|52=20190723-15:42:10.702|56=EXC|131=201907231041202_R|146=1|55=T24U19F|22=M|762=AFIR|54=2|38=100|1=RT001|453=1|448=037B18|447=C|452=37|10=170|
8=FIX.4.4|9=0244|35=AI|34=4|49=EXC|56=029|57=029B17|52=20190723-15:42:50.039|131=201907231041202_R|453=4|448=029B17|447=C|452=12|448=029|447=C|452=1|448=029FCM001|447=C|452=36|448=037B18|447=C|452=37|55=T24U19F|762=AFIR|48=27227|22=M|54=2|1=RT001|38=100|297=10|10=109|
8=FIX.4.4|9=0049|35=0|34=5|49=EXC|56=029|52=20190723-15:43:20.000|10=175|
8=FIX.4.4|9=59|35=0|34=5|49=029|50=029B17|52=20190723-15:42:41.174|56=EXC|10=070|
8=FIX.4.4|9=59|35=5|34=6|49=029|50=029B17|52=20190723-15:43:01.167|56=EXC|10=075|
8=FIX.4.4|9=0055|35=5|34=6|49=EXC|56=029|52=20190723-15:43:40.499|369=6|10=224|
8=FIX.4.4|9=110|35=A|34=1|49=029|50=029B17|52=20190723-16:03:27.274|56=EXC|43=N|98=0|108=30|141=Y|553=029FCM001|554=029FCM001|10=110|
8=FIX.4.4|9=0067|35=A|34=1|49=EXC|56=029|52=20190723-16:04:06.665|98=0|108=30|141=Y|10=021|
8=FIX.4.4|9=162|35=R|34=2|49=029|50=029B17|52=20190723-16:03:33.377|56=EXC|131=201907231103221_R|146=1|55=T24U19F|22=M|762=AFIR|54=1|38=100|1=RT001|453=1|448=037B18|447=C|452=37|10=178|
8=FIX.4.4|9=0244|35=AI|34=2|49=EXC|56=029|57=029B17|52=20190723-16:04:12.741|131=201907231103221_R|453=4|448=029B17|447=C|452=12|448=029|447=C|452=1|448=029FCM001|447=C|452=36|448=037B18|447=C|452=37|55=T24U19F|762=AFIR|48=27227|22=M|54=1|1=RT001|38=100|297=10|10=103|
8=FIX.4.4|9=0049|35=0|34=3|49=EXC|56=029|52=20190723-16:04:42.000|10=175|
8=FIX.4.4|9=59|35=0|34=3|49=029|50=029B17|52=20190723-16:04:03.932|56=EXC|10=067|
8=FIX.4.4|9=162|35=R|34=4|49=029|50=029B17|52=20190723-16:04:13.705|56=EXC|131=201907231103222_R|146=1|55=T24U19F|22=M|762=AFIR|54=2|38=100|1=RT001|453=1|448=037B18|447=C|452=37|10=176|
8=FIX.4.4|9=0244|35=AI|34=4|49=EXC|56=029|57=029B17|52=20190723-16:04:53.072|131=201907231103222_R|453=4|448=029B17|447=C|452=12|448=029|447=C|452=1|448=029FCM001|447=C|452=36|448=037B18|447=C|452=37|55=T24U19F|762=AFIR|48=27227|22=M|54=2|1=RT001|38=100|297=10|10=109|
8=FIX.4.4|9=0049|35=0|34=5|49=EXC|56=029|52=20190723-16:05:23.000|10=177|
8=FIX.4.4|9=59|35=0|34=5|49=029|50=029B17|52=20190723-16:04:43.930|56=EXC|10=071|
8=FIX.4.4|9=59|35=5|34=6|49=029|50=029B17|52=20190723-16:05:03.919|56=EXC|10=081|
8=FIX.4.4|9=0055|35=5|34=6|49=EXC|56=029|52=20190723-16:05:43.277|369=6|10=220|
8=FIX.4.4|9=110|35=A|34=1|49=029|50=029B17|52=20190723-16:12:06.234|56=EXC|43=N|98=0|108=30|141=Y|553=029FCM001|554=029FCM001|10=103|
8=FIX.4.4|9=0067|35=A|34=1|49=EXC|56=029|52=20190723-16:12:45.635|98=0|108=30|141=Y|10=020|
8=FIX.4.4|9=162|35=R|34=2|49=029|50=029B17|52=20190723-16:12:12.231|56=EXC|131=201907231112021_R|146=1|55=T24U19F|22=M|762=AFIR|54=1|38=100|1=RT001|453=1|448=037B18|447=C|452=37|10=162|
8=FIX.4.4|9=0244|35=AI|34=2|49=EXC|56=029|57=029B17|52=20190723-16:12:51.596|131=201907231112021_R|453=4|448=029B17|447=C|452=12|448=029|447=C|452=1|448=029FCM001|447=C|452=36|448=037B18|447=C|452=37|55=T24U19F|762=AFIR|48=27227|22=M|54=1|1=RT001|38=100|297=10|10=111|
8=FIX.4.4|9=0049|35=0|34=3|49=EXC|56=029|52=20190723-16:13:21.000|10=172|
8=FIX.4.4|9=59|35=0|34=3|49=029|50=029B17|52=20190723-16:12:42.926|56=EXC|10=072|
8=FIX.4.4|9=162|35=R|34=4|49=029|50=029B17|52=20190723-16:12:52.390|56=EXC|131=201907231112022_R|146=1|55=T24U19F|22=M|762=AFIR|54=2|38=100|1=RT001|453=1|448=037B18|447=C|452=37|10=176|
8=FIX.4.4|9=0244|35=AI|34=4|49=EXC|56=029|57=029B17|52=20190723-16:13:31.760|131=201907231112022_R|453=4|448=029B17|447=C|452=12|448=029|447=C|452=1|448=029FCM001|447=C|452=36|448=037B18|447=C|452=37|55=T24U19F|762=AFIR|48=27227|22=M|54=2|1=RT001|38=100|297=10|10=107|
8=FIX.4.4|9=0049|35=0|34=5|49=EXC|56=029|52=20190723-16:14:01.000|10=173|
8=FIX.4.4|9=59|35=0|34=5|49=029|50=029B17|52=20190723-16:13:22.925|56=EXC|10=072|
8=FIX.4.4|9=59|35=5|34=6|49=029|50=029B17|52=20190723-16:13:42.931|56=EXC|10=077|
8=FIX.4.4|9=0055|35=5|34=6|49=EXC|56=029|52=20190723-16:14:22.301|369=6|10=205|
8=FIX.4.4|9=110|35=A|34=1|49=029|50=029B17|52=20190723-16:16:11.201|56=EXC|43=N|98=0|108=30|141=Y|553=029FCM001|554=029FCM001|10=097|
8=FIX.4.4|9=0067|35=A|34=1|49=EXC|56=029|52=20190723-16:16:50.602|98=0|108=30|141=Y|10=014|
8=FIX.4.4|9=162|35=R|34=2|49=029|50=029B17|52=20190723-16:16:17.217|56=EXC|131=201907231116061_R|146=1|55=T24U19F|22=M|762=AFIR|54=1|38=100|1=RT001|453=1|448=037B18|447=C|452=37|10=183|
8=FIX.4.4|9=0244|35=AI|34=2|49=EXC|56=029|57=029B17|52=20190723-16:16:56.591|131=201907231116061_R|453=4|448=029B17|447=C|452=12|448=029|447=C|452=1|448=029FCM001|447=C|452=36|448=037B18|447=C|452=37|55=T24U19F|762=AFIR|48=27227|22=M|54=1|1=RT001|38=100|297=10|10=123|
8=FIX.4.4|9=0049|35=0|34=3|49=EXC|56=029|52=20190723-16:17:26.000|10=181|
8=FIX.4.4|9=59|35=0|34=3|49=029|50=029B17|52=20190723-16:16:47.938|56=EXC|10=084|
8=FIX.4.4|9=59|35=5|34=4|49=029|50=029B17|52=20190723-16:17:02.935|56=EXC|10=079|
8=FIX.4.4|9=0055|35=5|34=4|49=EXC|56=029|52=20190723-16:17:42.299|369=4|10=222|
8=FIX.4.4|9=110|35=A|34=1|49=029|50=029B17|52=20190723-16:26:56.765|56=EXC|43=N|98=0|108=30|141=Y|553=029FCM001|554=029FCM001|10=122|
8=FIX.4.4|9=0067|35=A|34=1|49=EXC|56=029|52=20190723-16:27:36.188|98=0|108=30|141=Y|10=029|
8=FIX.4.4|9=162|35=R|34=2|49=029|50=029B17|52=20190723-16:27:02.807|56=EXC|131=201907231126521_R|146=1|55=T24U19F|22=M|762=AFIR|54=1|38=100|1=RT001|453=1|448=037B18|447=C|452=37|10=186|
8=FIX.4.4|9=0244|35=AI|34=2|49=EXC|56=029|57=029B17|52=20190723-16:27:42.198|131=201907231126521_R|453=4|448=029B17|447=C|452=12|448=029|447=C|452=1|448=029FCM001|447=C|452=36|448=037B18|447=C|452=37|55=T24U19F|762=AFIR|48=27227|22=M|54=1|1=RT001|38=100|297=10|10=125|
8=FIX.4.4|9=0049|35=0|34=3|49=EXC|56=029|52=20190723-16:28:12.000|10=178|
8=FIX.4.4|9=59|35=0|34=3|49=029|50=029B17|52=20190723-16:27:33.495|56=EXC|10=079|
8=FIX.4.4|9=162|35=R|34=4|49=029|50=029B17|52=20190723-16:27:42.972|56=EXC|131=201907231126522_R|146=1|55=T24U19F|22=M|762=AFIR|54=2|38=100|1=RT001|453=1|448=037B18|447=C|452=37|10=197|
8=FIX.4.4|9=0244|35=AI|34=4|49=EXC|56=029|57=029B17|52=20190723-16:28:22.348|131=201907231126522_R|453=4|448=029B17|447=C|452=12|448=029|447=C|452=1|448=029FCM001|447=C|452=36|448=037B18|447=C|452=37|55=T24U19F|762=AFIR|48=27227|22=M|54=2|1=RT001|38=100|297=10|10=125|
8=FIX.4.4|9=0049|35=0|34=5|49=EXC|56=029|52=20190723-16:28:52.000|10=184|
8=FIX.4.4|9=59|35=0|34=5|49=029|50=029B17|52=20190723-16:28:13.494|56=EXC|10=079|
8=FIX.4.4|9=59|35=5|34=6|49=029|50=029B17|52=20190723-16:28:33.501|56=EXC|10=076|
8=FIX.4.4|9=0055|35=5|34=6|49=EXC|56=029|52=20190723-16:29:12.873|369=6|10=224|
8=FIX.4.4|9=110|35=A|34=1|49=029|50=029B17|52=20190723-16:31:06.451|56=EXC|43=N|98=0|108=30|141=Y|553=029FCM001|554=029FCM001|10=105|
8=FIX.4.4|9=0067|35=A|34=1|49=EXC|56=029|52=20190723-16:31:45.870|98=0|108=30|141=Y|10=022|
8=FIX.4.4|9=162|35=R|34=2|49=029|50=029B17|52=20190723-16:31:12.459|56=EXC|131=201907231131021_R|146=1|55=T24U19F|22=M|762=AFIR|54=1|38=100|1=RT001|453=1|448=037B18|447=C|452=37|10=176|
8=FIX.4.4|9=0244|35=AI|34=2|49=EXC|56=029|57=029B17|52=20190723-16:31:51.837|131=201907231131021_R|453=4|448=029B17|447=C|452=12|448=029|447=C|452=1|448=029FCM001|447=C|452=36|448=037B18|447=C|452=37|55=T24U19F|762=AFIR|48=27227|22=M|54=1|1=RT001|38=100|297=10|10=111|
8=FIX.4.4|9=0049|35=0|34=3|49=EXC|56=029|52=20190723-16:32:21.000|10=173|
8=FIX.4.4|9=59|35=0|34=3|49=029|50=029B17|52=20190723-16:31:43.164|56=EXC|10=068|
8=FIX.4.4|9=162|35=R|34=4|49=029|50=029B17|52=20190723-16:31:52.646|56=EXC|131=201907231131022_R|146=1|55=T24U19F|22=M|762=AFIR|54=2|38=100|1=RT001|453=1|448=037B18|447=C|452=37|10=182|
8=FIX.4.4|9=0244|35=AI|34=4|49=EXC|56=029|57=029B17|52=20190723-16:32:32.026|131=201907231131022_R|453=4|448=029B17|447=C|452=12|448=029|447=C|452=1|448=029FCM001|447=C|452=36|448=037B18|447=C|452=37|55=T24U19F|762=AFIR|48=27227|22=M|54=2|1=RT001|38=100|297=10|10=105|
8=FIX.4.4|9=0049|35=0|34=5|49=EXC|56=029|52=20190723-16:33:02.000|10=175|
8=FIX.4.4|9=59|35=0|34=5|49=029|50=029B17|52=20190723-16:32:23.162|56=EXC|10=067|
8=FIX.4.4|9=59|35=5|34=6|49=029|50=029B17|52=20190723-16:32:43.168|56=EXC|10=081|
8=FIX.4.4|9=0055|35=5|34=6|49=EXC|56=029|52=20190723-16:33:22.555|369=6|10=217|
8=FIX.4.4|9=110|35=A|34=1|49=029|50=029B17|52=20190723-16:37:00.262|56=EXC|43=N|98=0|108=30|141=Y|553=029FCM001|554=029FCM001|10=105|
8=FIX.4.4|9=0067|35=A|34=1|49=EXC|56=029|52=20190723-16:37:39.753|98=0|108=30|141=Y|10=031|
8=FIX.4.4|9=162|35=R|34=2|49=029|50=029B17|52=20190723-16:37:06.286|56=EXC|131=201907231136551_R|146=1|55=T24U19F|22=M|762=AFIR|54=1|38=100|1=RT001|453=1|448=037B18|447=C|452=37|10=196|
8=FIX.4.4|9=0244|35=AI|34=2|49=EXC|56=029|57=029B17|52=20190723-16:37:45.679|131=201907231136551_R|453=4|448=029B17|447=C|452=12|448=029|447=C|452=1|448=029FCM001|447=C|452=36|448=037B18|447=C|452=37|55=T24U19F|762=AFIR|48=27227|22=M|54=1|1=RT001|38=100|297=10|10=137|
8=FIX.4.4|9=0049|35=0|34=3|49=EXC|56=029|52=20190723-16:38:15.000|10=182|
8=FIX.4.4|9=59|35=0|34=3|49=029|50=029B17|52=20190723-16:37:36.957|56=EXC|10=086|
8=FIX.4.4|9=110|35=A|34=1|49=029|50=029B17|52=20190723-16:41:28.225|56=EXC|43=N|98=0|108=30|141=Y|553=029FCM001|554=029FCM001|10=109|
8=FIX.4.4|9=0067|35=A|34=1|49=EXC|56=029|52=20190723-16:42:07.655|98=0|108=30|141=Y|10=023|
8=FIX.4.4|9=162|35=R|34=2|49=029|50=029B17|52=20190723-16:41:34.233|56=EXC|131=201907231141231_R|146=1|55=T24U19F|22=M|762=AFIR|54=1|38=100|1=RT001|453=1|448=037B18|447=C|452=37|10=175|
8=FIX.4.4|9=0244|35=AI|34=2|49=EXC|56=029|57=029B17|52=20190723-16:42:13.627|131=201907231141231_R|453=4|448=029B17|447=C|452=12|448=029|447=C|452=1|448=029FCM001|447=C|452=36|448=037B18|447=C|452=37|55=T24U19F|762=AFIR|48=27227|22=M|54=1|1=RT001|38=100|297=10|10=112|
8=FIX.4.4|9=0049|35=0|34=3|49=EXC|56=029|52=20190723-16:42:43.000|10=178|
8=FIX.4.4|9=59|35=0|34=3|49=029|50=029B17|52=20190723-16:42:04.906|56=EXC|10=071|
8=FIX.4.4|9=59|35=5|34=4|49=029|50=029B17|52=20190723-16:42:19.903|56=EXC|10=080|
8=FIX.4.4|9=0055|35=5|34=4|49=EXC|56=029|52=20190723-16:42:59.286|369=4|10=224|
8=FIX.4.4|9=59|35=5|34=5|49=029|50=029B17|52=20190723-16:42:19.903|56=EXC|10=081|
8=FIX.4.4|9=110|35=A|34=1|49=029|50=029B17|52=20190723-16:48:30.652|56=EXC|43=N|98=0|108=30|141=Y|553=029FCM001|554=029FCM001|10=113|
8=FIX.4.4|9=0067|35=A|34=1|49=EXC|56=029|52=20190723-16:49:10.108|98=0|108=30|141=Y|10=017|
8=FIX.4.4|9=162|35=R|34=2|49=029|50=029B17|52=20190723-16:48:36.651|56=EXC|131=201907231148261_R|146=1|55=T24U19F|22=M|762=AFIR|54=1|38=100|1=RT001|453=1|448=037B18|447=C|452=37|10=198|
8=FIX.4.4|9=0244|35=AI|34=2|49=EXC|56=029|57=029B17|52=20190723-16:49:16.046|131=201907231148261_R|453=4|448=029B17|447=C|452=12|448=029|447=C|452=1|448=029FCM001|447=C|452=36|448=037B18|447=C|452=37|55=T24U19F|762=AFIR|48=27227|22=M|54=1|1=RT001|38=100|297=10|10=127|
8=FIX.4.4|9=0049|35=0|34=3|49=EXC|56=029|52=20190723-16:49:46.000|10=188|
8=FIX.4.4|9=59|35=0|34=3|49=029|50=029B17|52=20190723-16:49:07.415|56=EXC|10=076|
8=FIX.4.4|9=59|35=5|34=4|49=029|50=029B17|52=20190723-16:49:22.423|56=EXC|10=078|
8=FIX.4.4|9=0055|35=5|34=4|49=EXC|56=029|52=20190723-16:50:01.812|369=4|10=205|
8=FIX.4.4|9=110|35=A|34=1|49=029|50=029B17|52=20190723-16:52:26.692|56=EXC|43=N|98=0|108=30|141=Y|553=029FCM001|554=029FCM001|10=117|
8=FIX.4.4|9=0067|35=A|34=1|49=EXC|56=029|52=20190723-16:53:06.117|98=0|108=30|141=Y|10=017|
8=FIX.4.4|9=162|35=R|34=2|49=029|50=029B17|52=20190723-16:52:32.749|56=EXC|131=201907231152221_R|146=1|55=T24U19F|22=M|762=AFIR|54=1|38=100|1=RT001|453=1|448=037B18|447=C|452=37|10=188|
8=FIX.4.4|9=0244|35=AI|34=2|49=EXC|56=029|57=029B17|52=20190723-16:53:12.144|131=201907231152221_R|453=4|448=029B17|447=C|452=12|448=029|447=C|452=1|448=029FCM001|447=C|452=36|448=037B18|447=C|452=37|55=T24U19F|762=AFIR|48=27227|22=M|54=1|1=RT001|38=100|297=10|10=108|
8=FIX.4.4|9=0049|35=0|34=3|49=EXC|56=029|52=20190723-16:53:42.000|10=179|
8=FIX.4.4|9=59|35=0|34=3|49=029|50=029B17|52=20190723-16:53:03.412|56=EXC|10=064|
8=FIX.4.4|9=59|35=5|34=4|49=029|50=029B17|52=20190723-16:53:18.407|56=EXC|10=080|
8=FIX.4.4|9=0055|35=5|34=4|49=EXC|56=029|52=20190723-16:53:57.798|369=4|10=232|
8=FIX.4.4|9=110|35=A|34=1|49=029|50=029B17|52=20190723-18:39:51.572|56=EXC|43=N|98=0|108=30|141=Y|553=029FCM001|554=029FCM001|10=119|
8=FIX.4.4|9=0067|35=A|34=1|49=EXC|56=029|52=20190723-18:40:31.073|98=0|108=30|141=Y|10=014|
8=FIX.4.4|9=162|35=R|34=2|49=029|50=029B17|52=20190723-18:39:57.572|56=EXC|131=201907231339471_R|146=1|55=T24U19F|22=M|762=AFIR|54=1|38=100|1=RT001|453=1|448=037B18|447=C|452=37|10=210|
8=FIX.4.4|9=0244|35=AI|34=2|49=EXC|56=029|57=029B17|52=20190723-18:40:37.047|131=201907231339471_R|453=4|448=029B17|447=C|452=12|448=029|447=C|452=1|448=029FCM001|447=C|452=36|448=037B18|447=C|452=37|55=T24U19F|762=AFIR|48=27227|22=M|54=1|1=RT001|38=100|297=10|10=129|
8=FIX.4.4|9=0287|35=S|34=3|49=EXC|56=029|57=029B17|52=20190723-18:40:57.138|131=201907231339471_R|117=20190723-000000000016.00|55=T24U19F|762=AFIR|48=27227|22=M|453=4|448=029B17|447=C|452=12|448=029|447=C|452=1|448=029FCM001|447=C|452=36|448=037B18|447=C|452=37|133=1000.000|135=100|62=20190830-22:00:00|10=139|
8=FIX.4.4|9=59|35=0|34=3|49=029|50=029B17|52=20190723-18:40:28.284|56=EXC|10=076|
8=FIX.4.4|9=143|35=AJ|34=4|49=029|50=029B17|52=20190723-18:40:37.753|56=EXC|54=1|55=T24U19F|117=20190723-000000000016.00|693=201907231339471_AJ|694=1|762=AFIR|10=098|
8=FIX.4.4|9=0463|35=8|34=4|49=EXC|56=029|57=029B17|52=20190723-18:41:17.218|11=201907231339471_AJ|17=1|37=0|150=F|1080=20190723-000000000016.00|1081=5|453=5|448=029B17|447=C|452=12|448=029|447=C|452=1|448=037B18|447=C|452=37|448=037|447=C|452=17|448=029FCM001|447=C|452=36|55=T24U19F|762=AFIR|48=27227|22=M|6=1000.000|14=100|31=1000.000|32=100|38=100|39=2|54=1|60=20190723-18:41:17.218|75=20190723|63=1|64=20190723|151=0|1=RT001|381=250000000000.000|880=201907230000000001|828=99|10=148|
8=FIX.4.4|9=0049|35=0|34=5|49=EXC|56=029|52=20190723-18:41:47.000|10=185|
8=FIX.4.4|9=59|35=5|34=5|49=029|50=029B17|52=20190723-18:41:08.059|56=EXC|10=082|
8=FIX.4.4|9=0055|35=5|34=6|49=EXC|56=029|52=20190723-18:41:47.534|369=5|10=221|
8=FIX.4.4|9=110|35=A|34=1|49=029|50=029B17|52=20190723-18:51:17.405|56=EXC|43=N|98=0|108=30|141=Y|553=029FCM001|554=029FCM001|10=110|
8=FIX.4.4|9=0067|35=A|34=1|49=EXC|56=029|52=20190723-18:51:56.933|98=0|108=30|141=Y|10=028|
8=FIX.4.4|9=162|35=R|34=2|49=029|50=029B17|52=20190723-18:51:23.410|56=EXC|131=201907231351131_R|146=1|55=T24U19F|22=M|762=AFIR|54=1|38=100|1=RT001|453=1|448=037B18|447=C|452=37|10=175|
8=FIX.4.4|9=0244|35=AI|34=2|49=EXC|56=029|57=029B17|52=20190723-18:52:02.906|131=201907231351131_R|453=4|448=029B17|447=C|452=12|448=029|447=C|452=1|448=029FCM001|447=C|452=36|448=037B18|447=C|452=37|55=T24U19F|762=AFIR|48=27227|22=M|54=1|1=RT001|38=100|297=10|10=115|
8=FIX.4.4|9=0287|35=S|34=3|49=EXC|56=029|57=029B17|52=20190723-18:52:23.025|131=201907231351131_R|117=20190723-000000000017.00|55=T24U19F|762=AFIR|48=27227|22=M|453=4|448=029B17|447=C|452=12|448=029|447=C|452=1|448=029FCM001|447=C|452=36|448=037B18|447=C|452=37|133=1000.000|135=100|62=20190830-22:00:00|10=118|
8=FIX.4.4|9=59|35=0|34=3|49=029|50=029B17|52=20190723-18:51:54.094|56=EXC|10=076|
8=FIX.4.4|9=143|35=AJ|34=4|49=029|50=029B17|52=20190723-18:52:03.600|56=EXC|54=1|55=T24U19F|117=20190723-000000000017.00|693=201907231351131_AJ|694=1|762=AFIR|10=073|
8=FIX.4.4|9=0463|35=8|34=4|49=EXC|56=029|57=029B17|52=20190723-18:52:43.090|11=201907231351131_AJ|17=2|37=0|150=F|1080=20190723-000000000017.00|1081=5|453=5|448=029B17|447=C|452=12|448=029|447=C|452=1|448=037B18|447=C|452=37|448=037|447=C|452=17|448=029FCM001|447=C|452=36|55=T24U19F|762=AFIR|48=27227|22=M|6=1000.000|14=100|31=1000.000|32=100|38=100|39=2|54=1|60=20190723-18:52:43.090|75=20190723|63=1|64=20190723|151=0|1=RT001|381=250000000000.000|880=201907230000000002|828=99|10=136|
8=FIX.4.4|9=0049|35=0|34=5|49=EXC|56=029|52=20190723-18:53:13.000|10=181|
8=FIX.4.4|9=59|35=5|34=5|49=029|50=029B17|52=20190723-18:52:34.102|56=EXC|10=072|
8=FIX.4.4|9=0055|35=5|34=6|49=EXC|56=029|52=20190723-18:53:13.584|369=5|10=222|
8=FIX.4.4|9=110|35=A|34=1|49=029|50=029B17|52=20190723-20:20:39.569|56=EXC|43=N|98=0|108=30|141=Y|553=029FCM001|554=029FCM001|10=114|
8=FIX.4.4|9=0067|35=A|34=1|49=EXC|56=029|52=20190723-15:03:34.166|98=0|108=30|141=Y|10=016|
8=FIX.4.4|9=162|35=R|34=2|49=029|50=029B17|52=20190723-20:20:45.625|56=EXC|131=201907231520351_R|146=1|55=T24U19F|22=M|762=AFIR|54=1|38=100|1=RT001|453=1|448=037B18|447=C|452=37|10=178|
8=FIX.4.4|9=0244|35=AI|34=2|49=EXC|56=029|57=029B17|52=20190723-15:03:40.192|131=201907231520351_R|453=4|448=029B17|447=C|452=12|448=029|447=C|452=1|448=029FCM001|447=C|452=36|448=037B18|447=C|452=37|55=T24U19F|762=AFIR|48=27227|22=M|54=1|1=RT001|38=100|297=10|10=109|
8=FIX.4.4|9=0049|35=0|34=3|49=EXC|56=029|52=20190723-15:04:10.000|10=169|
8=FIX.4.4|9=59|35=0|34=3|49=029|50=029B17|52=20190723-20:21:16.176|56=EXC|10=065|
8=FIX.4.4|9=110|35=A|34=1|49=029|50=029B17|52=20190723-20:21:42.513|56=EXC|43=N|98=0|108=30|141=Y|553=029FCM001|554=029FCM001|10=098|
8=FIX.4.4|9=110|35=A|34=1|49=029|50=029B17|52=20190723-20:49:27.703|56=EXC|43=N|98=0|108=30|141=Y|553=029FCM001|554=029FCM001|10=112|
8=FIX.4.4|9=0067|35=A|34=1|49=EXC|56=029|52=20190723-15:25:54.320|98=0|108=30|141=Y|10=014|
8=FIX.4.4|9=162|35=R|34=2|49=029|50=029B17|52=20190723-20:49:33.690|56=EXC|131=201907231549231_R|146=1|55=T24U19F|22=M|762=AFIR|54=1|38=100|1=RT001|453=1|448=037B18|447=C|452=37|10=196|
8=FIX.4.4|9=0244|35=AI|34=2|49=EXC|56=029|57=029B17|52=20190723-15:26:00.266|131=201907231549231_R|453=4|448=029B17|447=C|452=12|448=029|447=C|452=1|448=029FCM001|447=C|452=36|448=037B18|447=C|452=37|55=T24U19F|762=AFIR|48=27227|22=M|54=1|1=RT001|38=100|297=10|10=120|
8=FIX.4.4|9=0049|35=0|34=3|49=EXC|56=029|52=20190723-15:26:30.000|10=175|
8=FIX.4.4|9=59|35=0|34=3|49=029|50=029B17|52=20190723-20:50:04.307|56=EXC|10=060|
8=FIX.4.4|9=162|35=R|34=4|49=029|50=029B17|52=20190723-20:50:13.863|56=EXC|131=201907231549232_R|146=1|55=T24U19F|22=M|762=AFIR|54=2|38=100|1=RT001|453=1|448=037B18|447=C|452=37|10=192|
8=FIX.4.4|9=0244|35=AI|34=4|49=EXC|56=029|57=029B17|52=20190723-15:26:40.443|131=201907231549232_R|453=4|448=029B17|447=C|452=12|448=029|447=C|452=1|448=029FCM001|447=C|452=36|448=037B18|447=C|452=37|55=T24U19F|762=AFIR|48=27227|22=M|54=2|1=RT001|38=100|297=10|10=125|
8=FIX.4.4|9=0286|35=S|34=5|49=EXC|56=029|57=029B17|52=20190723-15:27:05.496|131=201907231549232_R|117=20190723-000000000024.00|55=T24U19F|762=AFIR|48=27227|22=M|453=4|448=029B17|447=C|452=12|448=029|447=C|452=1|448=029FCM001|447=C|452=36|448=037B18|447=C|452=37|132=120.000|134=100|62=20190830-22:00:00|10=091|
8=FIX.4.4|9=59|35=0|34=5|49=029|50=029B17|52=20190723-20:50:44.305|56=EXC|10=064|
8=FIX.4.4|9=143|35=AJ|34=6|49=029|50=029B17|52=20190723-20:50:58.967|56=EXC|54=2|55=T24U19F|117=20190723-000000000024.00|693=201907231549232_AJ|694=1|762=AFIR|10=102|
8=FIX.4.4|9=0460|35=8|34=6|49=EXC|56=029|57=029B17|52=20190723-15:27:25.556|11=201907231549232_AJ|17=6|37=0|150=F|1080=20190723-000000000024.00|1081=5|453=5|448=029B17|447=C|452=12|448=029|447=C|452=1|448=037B18|447=C|452=37|448=037|447=C|452=17|448=029FCM001|447=C|452=36|55=T24U19F|762=AFIR|48=27227|22=M|6=120.000|14=100|31=120.000|32=100|38=100|39=2|54=2|60=20190723-15:27:25.556|75=20190723|63=1|64=20190723|151=0|1=RT001|381=30000000000.000|880=201907230000000006|828=99|10=021|
8=FIX.4.4|9=162|35=R|34=7|49=029|50=029B17|52=20190723-20:51:24.100|56=EXC|131=201907231549233_R|146=1|55=T24U19F|22=M|762=AFIR|54=1|38=150|1=RT001|453=1|448=037B18|447=C|452=37|10=187|
8=FIX.4.4|9=0244|35=AI|34=7|49=EXC|56=029|57=029B17|52=20190723-15:27:50.681|131=201907231549233_R|453=4|448=029B17|447=C|452=12|448=029|447=C|452=1|448=029FCM001|447=C|452=36|448=037B18|447=C|452=37|55=T24U19F|762=AFIR|48=27227|22=M|54=1|1=RT001|38=150|297=10|10=139|
8=FIX.4.4|9=0286|35=S|34=8|49=EXC|56=029|57=029B17|52=20190723-15:28:15.715|131=201907231549233_R|117=20190723-000000000025.00|55=T24U19F|762=AFIR|48=27227|22=M|453=4|448=029B17|447=C|452=12|448=029|447=C|452=1|448=029FCM001|447=C|452=36|448=037B18|447=C|452=37|133=123.000|135=150|62=20190830-22:00:00|10=102|
8=FIX.4.4|9=59|35=0|34=8|49=029|50=029B17|52=20190723-20:51:54.309|56=EXC|10=073|
8=FIX.4.4|9=143|35=AJ|34=9|49=029|50=029B17|52=20190723-20:52:09.176|56=EXC|54=1|55=T24U19F|117=20190723-000000000025.00|693=201907231549233_AJ|694=1|762=AFIR|10=096|
8=FIX.4.4|9=0460|35=8|34=9|49=EXC|56=029|57=029B17|52=20190723-15:28:35.760|11=201907231549233_AJ|17=7|37=0|150=F|1080=20190723-000000000025.00|1081=5|453=5|448=029B17|447=C|452=12|448=029|447=C|452=1|448=037B18|447=C|452=37|448=037|447=C|452=17|448=029FCM001|447=C|452=36|55=T24U19F|762=AFIR|48=27227|22=M|6=123.000|14=150|31=123.000|32=150|38=150|39=2|54=1|60=20190723-15:28:35.760|75=20190723|63=1|64=20190723|151=0|1=RT001|381=46125000000.000|880=201907230000000007|828=99|10=061|
8=FIX.4.4|9=0050|35=0|34=10|49=EXC|56=029|52=20190723-15:29:05.000|10=218|
8=FIX.4.4|9=60|35=0|34=10|49=029|50=029B17|52=20190723-20:52:39.306|56=EXC|10=107|
8=FIX.4.4|9=0050|35=0|34=11|49=EXC|56=029|52=20190723-15:29:35.000|10=222|
8=FIX.4.4|9=60|35=0|34=11|49=029|50=029B17|52=20190723-20:53:09.306|56=EXC|10=106|
8=FIX.4.4|9=0050|35=0|34=12|49=EXC|56=029|52=20190723-15:30:05.000|10=212|
8=FIX.4.4|9=60|35=0|34=12|49=029|50=029B17|52=20190723-20:53:39.307|56=EXC|10=111|
8=FIX.4.4|9=162|35=R|34=13|49=029|50=029B17|52=20190723-20:54:04.467|56=EXC|131=201907231549238_R|146=1|55=I01H99F|22=M|762=AFIR|54=1|38=-1|1=RT001|453=1|448=037B18|447=C|452=37|10=177|
8=FIX.4.4|9=0132|35=3|34=13|49=EXC|56=029|52=20190723-15:30:31.054|45=13|371=38|372=R|373=6|58=(1462): OrderQty(#38) contiene informacion incorrecta|10=029|
8=FIX.4.4|9=161|35=R|34=14|49=029|50=029B17|52=20190723-20:54:19.540|56=EXC|131=201907231549239_R|146=1|55=I06H99F|22=M|762=AFIR|54=1|38=7|1=RT001|453=1|448=037B18|447=C|452=37|10=142|
8=FIX.4.4|9=0243|35=AI|34=14|49=EXC|56=029|57=029B17|52=20190723-15:30:46.126|131=201907231549239_R|453=4|448=029B17|447=C|452=12|448=029|447=C|452=1|448=029FCM001|447=C|452=36|448=037B18|447=C|452=37|55=I06H99F|762=AFIR|48=27166|22=M|54=1|1=RT001|38=7|297=10|10=074|
8=FIX.4.4|9=161|35=R|34=15|49=029|50=029B17|52=20190723-20:54:44.598|56=EXC|131=201907231549239_R|146=1|55=I06H99F|22=M|762=AFIR|54=1|38=0|1=RT001|453=1|448=037B18|447=C|452=37|10=147|
8=FIX.4.4|9=0243|35=AI|34=15|49=EXC|56=029|57=029B17|52=20190723-15:31:11.182|131=201907231549239_R|453=4|448=029B17|447=C|452=12|448=029|447=C|452=1|448=029FCM001|447=C|452=36|448=037B18|447=C|452=37|55=I06H99F|762=AFIR|48=27166|22=M|54=1|1=RT001|38=7|297=17|10=077|
8=FIX.4.4|9=0050|35=0|34=16|49=EXC|56=029|52=20190723-15:31:41.000|10=217|
8=FIX.4.4|9=60|35=0|34=16|49=029|50=029B17|52=20190723-20:55:15.304|56=EXC|10=108|
8=FIX.4.4|9=0050|35=0|34=17|49=EXC|56=029|52=20190723-15:32:11.000|10=216|
8=FIX.4.4|9=60|35=0|34=17|49=029|50=029B17|52=20190723-20:55:45.304|56=EXC|10=112|
8=FIX.4.4|9=60|35=5|34=18|49=029|50=029B17|52=20190723-20:56:00.304|56=EXC|10=110|
8=FIX.4.4|9=0057|35=5|34=18|49=EXC|56=029|52=20190723-15:32:26.882|369=18|10=070|
8=FIX.4.4|9=110|35=A|34=1|49=029|50=029B17|52=20190724-14:43:51.834|56=EXC|43=N|98=0|108=30|141=Y|553=029FCM001|554=029FCM001|10=112|
8=FIX.4.4|9=0067|35=A|34=1|49=EXC|56=029|52=20190724-14:44:32.280|98=0|108=30|141=Y|10=016|
8=FIX.4.4|9=161|35=R|34=2|49=029|50=029B17|52=20190724-14:43:57.872|56=EXC|131=20190724943471_R|146=1|55=T24U19F|22=M|762=AFIR|54=1|38=100|1=RT001|453=1|448=037B18|447=C|452=37|10=157|
8=FIX.4.4|9=0243|35=AI|34=2|49=EXC|56=029|57=029B17|52=20190724-14:44:38.271|131=20190724943471_R|453=4|448=029B17|447=C|452=12|448=029|447=C|452=1|448=029FCM001|447=C|452=36|448=037B18|447=C|452=37|55=T24U19F|762=AFIR|48=27227|22=M|54=1|1=RT001|38=100|297=10|10=082|
8=FIX.4.4|9=0049|35=0|34=3|49=EXC|56=029|52=20190724-14:45:08.000|10=181|
8=FIX.4.4|9=59|35=0|34=3|49=029|50=029B17|52=20190724-14:44:28.501|56=EXC|10=069|
8=FIX.4.4|9=59|35=5|34=4|49=029|50=029B17|52=20190724-14:44:43.496|56=EXC|10=085|
8=FIX.4.4|9=0055|35=5|34=4|49=EXC|56=029|52=20190724-14:45:23.920|369=4|10=212|
8=FIX.4.4|9=110|35=A|34=1|49=029|50=029B17|52=20190724-14:56:26.244|56=EXC|43=N|98=0|108=30|141=Y|553=029FCM001|554=029FCM001|10=113|
8=FIX.4.4|9=0067|35=A|34=1|49=EXC|56=029|52=20190724-14:57:06.692|98=0|108=30|141=Y|10=028|
8=FIX.4.4|9=161|35=R|34=2|49=029|50=029B17|52=20190724-14:56:32.369|56=EXC|131=20190724956211_R|146=1|55=T24U19F|22=M|762=AFIR|54=1|38=100|1=RT001|453=1|448=037B18|447=C|452=37|10=151|
8=FIX.4.4|9=0243|35=AI|34=2|49=EXC|56=029|57=029B17|52=20190724-14:57:12.784|131=20190724956211_R|453=4|448=029B17|447=C|452=12|448=029|447=C|452=1|448=029FCM001|447=C|452=36|448=037B18|447=C|452=37|55=T24U19F|762=AFIR|48=27227|22=M|54=1|1=RT001|38=100|297=10|10=083|
8=FIX.4.4|9=0049|35=0|34=3|49=EXC|56=029|52=20190724-14:57:42.000|10=182|
8=FIX.4.4|9=59|35=0|34=3|49=029|50=029B17|52=20190724-14:57:02.932|56=EXC|10=073|
8=FIX.4.4|9=59|35=5|34=4|49=029|50=029B17|52=20190724-14:57:17.933|56=EXC|10=086|
8=FIX.4.4|9=0055|35=5|34=4|49=EXC|56=029|52=20190724-14:57:58.347|369=4|10=226|
8=FIX.4.4|9=110|35=A|34=1|49=029|50=029B17|52=20190724-15:16:13.536|56=EXC|43=N|98=0|108=30|141=Y|553=029FCM001|554=029FCM001|10=110|
8=FIX.4.4|9=0067|35=A|34=1|49=EXC|56=029|52=20190724-15:16:54.008|98=0|108=30|141=Y|10=018|
8=FIX.4.4|9=162|35=R|34=2|49=029|50=029B17|52=20190724-15:16:19.570|56=EXC|131=201907241016091_R|146=1|55=T24U19F|22=M|762=AFIR|54=1|38=100|1=RT001|453=1|448=037B18|447=C|452=37|10=190|
8=FIX.4.4|9=0244|35=AI|34=2|49=EXC|56=029|57=029B17|52=20190724-15:16:59.995|131=201907241016091_R|453=4|448=029B17|447=C|452=12|448=029|447=C|452=1|448=029FCM001|447=C|452=36|448=037B18|447=C|452=37|55=T24U19F|762=AFIR|48=27227|22=M|54=1|1=RT001|38=100|297=10|10=137|
8=FIX.4.4|9=0049|35=0|34=3|49=EXC|56=029|52=20190724-15:17:29.000|10=184|
8=FIX.4.4|9=59|35=0|34=3|49=029|50=029B17|52=20190724-15:16:50.226|56=EXC|10=068|
8=FIX.4.4|9=59|35=5|34=4|49=029|50=029B17|52=20190724-15:17:05.301|56=EXC|10=069|
8=FIX.4.4|9=0055|35=5|34=4|49=EXC|56=029|52=20190724-15:17:45.739|369=4|10=224|
8=FIX.4.4|9=59|35=5|34=5|49=029|50=029B17|52=20190724-15:17:05.316|56=EXC|10=076|
8=FIX.4.4|9=110|35=A|34=1|49=029|50=029B17|52=20190724-16:08:06.193|56=EXC|43=N|98=0|108=30|141=Y|553=029FCM001|554=029FCM001|10=113|
8=FIX.4.4|9=0067|35=A|34=1|49=EXC|56=029|52=20190724-16:08:46.712|98=0|108=30|141=Y|10=023|
8=FIX.4.4|9=162|35=R|34=2|49=029|50=029B17|52=20190724-16:08:12.060|56=EXC|131=201907241107591_R|146=1|55=T24U19F|22=M|762=AFIR|54=1|38=100|1=RT001|453=1|448=037B18|447=C|452=37|10=185|
8=FIX.4.4|9=0244|35=AI|34=2|49=EXC|56=029|57=029B17|52=20190724-16:08:52.538|131=201907241107591_R|453=4|448=029B17|447=C|452=12|448=029|447=C|452=1|448=029FCM001|447=C|452=36|448=037B18|447=C|452=37|55=T24U19F|762=AFIR|48=27227|22=M|54=1|1=RT001|38=100|297=10|10=131|
8=FIX.4.4|9=0049|35=0|34=3|49=EXC|56=029|52=20190724-16:09:22.000|10=179|
8=FIX.4.4|9=59|35=0|34=3|49=029|50=029B17|52=20190724-16:08:42.487|56=EXC|10=080|
8=FIX.4.4|9=59|35=5|34=4|49=029|50=029B17|52=20190724-16:08:57.486|56=EXC|10=091|
8=FIX.4.4|9=0055|35=5|34=4|49=EXC|56=029|52=20190724-16:09:37.961|369=4|10=224|
8=FIX.4.4|9=59|35=5|34=5|49=029|50=029B17|52=20190724-16:08:57.486|56=EXC|10=092|
8=FIX.4.4|9=110|35=A|34=1|49=029|50=029B17|52=20190724-16:11:27.055|56=EXC|43=N|98=0|108=30|141=Y|553=029FCM001|554=029FCM001|10=107|
8=FIX.4.4|9=0067|35=A|34=1|49=EXC|56=029|52=20190724-16:12:07.616|98=0|108=30|141=Y|10=018|
8=FIX.4.4|9=162|35=R|34=2|49=029|50=029B17|52=20190724-16:11:32.945|56=EXC|131=201907241111221_R|146=1|55=T24U19F|22=M|762=AFIR|54=1|38=100|1=RT001|453=1|448=037B18|447=C|452=37|10=178|
8=FIX.4.4|9=0244|35=AI|34=2|49=EXC|56=029|57=029B17|52=20190724-16:12:13.419|131=201907241111221_R|453=4|448=029B17|447=C|452=12|448=029|447=C|452=1|448=029FCM001|447=C|452=36|448=037B18|447=C|452=37|55=T24U19F|762=AFIR|48=27227|22=M|54=1|1=RT001|38=100|297=10|10=106|
8=FIX.4.4|9=0049|35=0|34=3|49=EXC|56=029|52=20190724-16:12:43.000|10=176|
8=FIX.4.4|9=59|35=0|34=3|49=029|50=029B17|52=20190724-16:12:03.673|56=EXC|10=069|
8=FIX.4.4|9=162|35=R|34=4|49=029|50=029B17|52=20190724-16:12:13.260|56=EXC|131=201907241111222_R|146=1|55=T24U19F|22=M|762=AFIR|54=2|38=100|1=RT001|453=1|448=037B18|447=C|452=37|10=172|
8=FIX.4.4|9=0244|35=AI|34=4|49=EXC|56=029|57=029B17|52=20190724-16:12:53.750|131=201907241111222_R|453=4|448=029B17|447=C|452=12|448=029|447=C|452=1|448=029FCM001|447=C|452=36|448=037B18|447=C|452=37|55=T24U19F|762=AFIR|48=27227|22=M|54=2|1=RT001|38=100|297=10|10=112|
8=FIX.4.4|9=0286|35=S|34=5|49=EXC|56=029|57=029B17|52=20190724-16:13:18.821|131=201907241111222_R|117=20190724-000000000006.00|55=T24U19F|762=AFIR|48=27227|22=M|453=4|448=029B17|447=C|452=12|448=029|447=C|452=1|448=029FCM001|447=C|452=36|448=037B18|447=C|452=37|132=120.000|134=100|62=20190830-22:00:00|10=070|
8=FIX.4.4|9=59|35=0|34=5|49=029|50=029B17|52=20190724-16:12:43.690|56=EXC|10=074|
8=FIX.4.4|9=143|35=AJ|34=6|49=029|50=029B17|52=20190724-16:12:58.400|56=EXC|54=2|55=T24U19F|117=20190724-000000000006.00|693=201907241111222_AJ|694=1|762=AFIR|10=074|
8=FIX.4.4|9=0460|35=8|34=6|49=EXC|56=029|57=029B17|52=20190724-16:13:38.888|11=201907241111222_AJ|17=1|37=0|150=F|1080=20190724-000000000006.00|1081=5|453=5|448=029B17|447=C|452=12|448=029|447=C|452=1|448=037B18|447=C|452=37|448=037|447=C|452=17|448=029FCM001|447=C|452=36|55=T24U19F|762=AFIR|48=27227|22=M|6=120.000|14=100|31=120.000|32=100|38=100|39=2|54=2|60=20190724-16:13:38.888|75=20190724|63=1|64=20190724|151=0|1=RT001|381=30000000000.000|880=201907240000000001|828=99|10=018|
8=FIX.4.4|9=162|35=R|34=7|49=029|50=029B17|52=20190724-16:13:23.534|56=EXC|131=201907241111223_R|146=1|55=T24U19F|22=M|762=AFIR|54=1|38=150|1=RT001|453=1|448=037B18|447=C|452=37|10=186|
8=FIX.4.4|9=0244|35=AI|34=7|49=EXC|56=029|57=029B17|52=20190724-16:14:04.014|131=201907241111223_R|453=4|448=029B17|447=C|452=12|448=029|447=C|452=1|448=029FCM001|447=C|452=36|448=037B18|447=C|452=37|55=T24U19F|762=AFIR|48=27227|22=M|54=1|1=RT001|38=150|297=10|10=111|
8=FIX.4.4|9=0286|35=S|34=8|49=EXC|56=029|57=029B17|52=20190724-16:14:24.094|131=201907241111223_R|117=20190724-000000000007.00|55=T24U19F|762=AFIR|48=27227|22=M|453=4|448=029B17|447=C|452=12|448=029|447=C|452=1|448=029FCM001|447=C|452=36|448=037B18|447=C|452=37|133=123.000|135=150|62=20190830-22:00:00|10=085|
8=FIX.4.4|9=59|35=0|34=8|49=029|50=029B17|52=20190724-16:13:53.675|56=EXC|10=082|
8=FIX.4.4|9=143|35=AJ|34=9|49=029|50=029B17|52=20190724-16:14:03.670|56=EXC|54=1|55=T24U19F|117=20190724-000000000007.00|693=201907241111223_AJ|694=1|762=AFIR|10=079|
8=FIX.4.4|9=0460|35=8|34=9|49=EXC|56=029|57=029B17|52=20190724-16:14:44.146|11=201907241111223_AJ|17=2|37=0|150=F|1080=20190724-000000000007.00|1081=5|453=5|448=029B17|447=C|452=12|448=029|447=C|452=1|448=037B18|447=C|452=37|448=037|447=C|452=17|448=029FCM001|447=C|452=36|55=T24U19F|762=AFIR|48=27227|22=M|6=123.000|14=150|31=123.000|32=150|38=150|39=2|54=1|60=20190724-16:14:44.146|75=20190724|63=1|64=20190724|151=0|1=RT001|381=46125000000.000|880=201907240000000002|828=99|10=030|
8=FIX.4.4|9=0050|35=0|34=10|49=EXC|56=029|52=20190724-16:15:14.000|10=215|
8=FIX.4.4|9=60|35=0|34=10|49=029|50=029B17|52=20190724-16:14:33.687|56=EXC|10=117|
8=FIX.4.4|9=0050|35=0|34=11|49=EXC|56=029|52=20190724-16:15:44.000|10=219|
8=FIX.4.4|9=60|35=0|34=11|49=029|50=029B17|52=20190724-16:15:03.721|56=EXC|10=105|
8=FIX.4.4|9=0050|35=0|34=12|49=EXC|56=029|52=20190724-16:16:14.000|10=218|
8=FIX.4.4|9=60|35=0|34=12|49=029|50=029B17|52=20190724-16:15:33.722|56=EXC|10=110|
8=FIX.4.4|9=162|35=R|34=13|49=029|50=029B17|52=20190724-16:15:59.489|56=EXC|131=201907241111228_R|146=1|55=I01H99F|22=M|762=AFIR|54=1|38=-1|1=RT001|453=1|448=037B18|447=C|452=37|10=179|
8=FIX.4.4|9=0132|35=3|34=13|49=EXC|56=029|52=20190724-16:16:39.965|45=13|371=38|372=R|373=6|58=(1462): OrderQty(#38) contiene informacion incorrecta|10=054|
8=FIX.4.4|9=161|35=R|34=14|49=029|50=029B17|52=20190724-16:16:14.538|56=EXC|131=201907241111229_R|146=1|55=I06H99F|22=M|762=AFIR|54=1|38=7|1=RT001|453=1|448=037B18|447=C|452=37|10=133|
8=FIX.4.4|9=0243|35=AI|34=14|49=EXC|56=029|57=029B17|52=20190724-16:16:55.014|131=201907241111229_R|453=4|448=029B17|447=C|452=12|448=029|447=C|452=1|448=029FCM001|447=C|452=36|448=037B18|447=C|452=37|55=I06H99F|762=AFIR|48=27166|22=M|54=1|1=RT001|38=7|297=10|10=061|
8=FIX.4.4|9=161|35=R|34=15|49=029|50=029B17|52=20190724-16:16:39.587|56=EXC|131=201907241111229_R|146=1|55=I06H99F|22=M|762=AFIR|54=1|38=0|1=RT001|453=1|448=037B18|447=C|452=37|10=138|
8=FIX.4.4|9=0243|35=AI|34=15|49=EXC|56=029|57=029B17|52=20190724-16:17:20.065|131=201907241111229_R|453=4|448=029B17|447=C|452=12|448=029|447=C|452=1|448=029FCM001|447=C|452=36|448=037B18|447=C|452=37|55=I06H99F|762=AFIR|48=27166|22=M|54=1|1=RT001|38=7|297=17|10=068|
8=FIX.4.4|9=0050|35=0|34=16|49=EXC|56=029|52=20190724-16:17:50.000|10=223|
8=FIX.4.4|9=60|35=0|34=16|49=029|50=029B17|52=20190724-16:17:09.670|56=EXC|10=121|
8=FIX.4.4|9=0050|35=0|34=17|49=EXC|56=029|52=20190724-16:18:20.000|10=222|
8=FIX.4.4|9=60|35=0|34=17|49=029|50=029B17|52=20190724-16:17:39.670|56=EXC|10=125|
8=FIX.4.4|9=60|35=5|34=18|49=029|50=029B17|52=20190724-16:17:50.670|56=EXC|10=124|
8=FIX.4.4|9=0057|35=5|34=18|49=EXC|56=029|52=20190724-16:18:31.147|369=18|10=066|
8=FIX.4.4|9=60|35=5|34=19|49=029|50=029B17|52=20190724-16:17:50.673|56=EXC|10=128|
8=FIX.4.4|9=110|35=A|34=1|49=029|50=029B17|52=20190724-16:28:05.169|56=EXC|43=N|98=0|108=30|141=Y|553=029FCM001|554=029FCM001|10=117|
8=FIX.4.4|9=0067|35=A|34=1|49=EXC|56=029|52=20190724-16:28:45.717|98=0|108=30|141=Y|10=029|
8=FIX.4.4|9=162|35=R|34=2|49=029|50=029B17|52=20190724-16:28:11.207|56=EXC|131=201907241128011_R|146=1|55=T24U19F|22=M|762=AFIR|54=1|38=100|1=RT001|453=1|448=037B18|447=C|452=37|10=179|
8=FIX.4.4|9=0244|35=AI|34=2|49=EXC|56=029|57=029B17|52=20190724-16:28:51.695|131=201907241128011_R|453=4|448=029B17|447=C|452=12|448=029|447=C|452=1|448=029FCM001|447=C|452=36|448=037B18|447=C|452=37|55=T24U19F|762=AFIR|48=27227|22=M|54=1|1=RT001|38=100|297=10|10=126|
8=FIX.4.4|9=0049|35=0|34=3|49=EXC|56=029|52=20190724-16:29:21.000|10=180|
8=FIX.4.4|9=59|35=0|34=3|49=029|50=029B17|52=20190724-16:28:41.913|56=EXC|10=075|
8=FIX.4.4|9=162|35=R|34=4|49=029|50=029B17|52=20190724-16:28:51.528|56=EXC|131=201907241128012_R|146=1|55=T24U19F|22=M|762=AFIR|54=2|38=100|1=RT001|453=1|448=037B18|447=C|452=37|10=193|
8=FIX.4.4|9=0244|35=AI|34=4|49=EXC|56=029|57=029B17|52=20190724-16:29:32.016|131=201907241128012_R|453=4|448=029B17|447=C|452=12|448=029|447=C|452=1|448=029FCM001|447=C|452=36|448=037B18|447=C|452=37|55=T24U19F|762=AFIR|48=27227|22=M|54=2|1=RT001|38=100|297=10|10=117|
8=FIX.4.4|9=0286|35=S|34=5|49=EXC|56=029|57=029B17|52=20190724-16:29:57.089|131=201907241128012_R|117=20190724-000000000012.00|55=T24U19F|762=AFIR|48=27227|22=M|453=4|448=029B17|447=C|452=12|448=029|447=C|452=1|448=029FCM001|447=C|452=36|448=037B18|447=C|452=37|132=120.000|134=100|62=20190830-22:00:00|10=088|
8=FIX.4.4|9=59|35=0|34=5|49=029|50=029B17|52=20190724-16:29:21.915|56=EXC|10=078|
8=FIX.4.4|9=143|35=AJ|34=6|49=029|50=029B17|52=20190724-16:29:36.658|56=EXC|54=2|55=T24U19F|117=20190724-000000000012.00|693=201907241128012_AJ|694=1|762=AFIR|10=095|
8=FIX.4.4|9=0460|35=8|34=6|49=EXC|56=029|57=029B17|52=20190724-16:30:17.156|11=201907241128012_AJ|17=3|37=0|150=F|1080=20190724-000000000012.00|1081=5|453=5|448=029B17|447=C|452=12|448=029|447=C|452=1|448=037B18|447=C|452=37|448=037|447=C|452=17|448=029FCM001|447=C|452=36|55=T24U19F|762=AFIR|48=27227|22=M|6=120.000|14=100|31=120.000|32=100|38=100|39=2|54=2|60=20190724-16:30:17.156|75=20190724|63=1|64=20190724|151=0|1=RT001|381=30000000000.000|880=201907240000000003|828=99|10=248|
8=FIX.4.4|9=162|35=R|34=7|49=029|50=029B17|52=20190724-16:30:01.780|56=EXC|131=201907241128013_R|146=1|55=T24U19F|22=M|762=AFIR|54=1|38=150|1=RT001|453=1|448=037B18|447=C|452=37|10=189|
8=FIX.4.4|9=0244|35=AI|34=7|49=EXC|56=029|57=029B17|52=20190724-16:30:42.271|131=201907241128013_R|453=4|448=029B17|447=C|452=12|448=029|447=C|452=1|448=029FCM001|447=C|452=36|448=037B18|447=C|452=37|55=T24U19F|762=AFIR|48=27227|22=M|54=1|1=RT001|38=150|297=10|10=121|
8=FIX.4.4|9=0286|35=S|34=8|49=EXC|56=029|57=029B17|52=20190724-16:31:07.331|131=201907241128013_R|117=20190724-000000000013.00|55=T24U19F|762=AFIR|48=27227|22=M|453=4|448=029B17|447=C|452=12|448=029|447=C|452=1|448=029FCM001|447=C|452=36|448=037B18|447=C|452=37|133=123.000|135=150|62=20190830-22:00:00|10=081|
8=FIX.4.4|9=59|35=0|34=8|49=029|50=029B17|52=20190724-16:30:31.961|56=EXC|10=075|
8=FIX.4.4|9=143|35=AJ|34=9|49=029|50=029B17|52=20190724-16:30:46.897|56=EXC|54=1|55=T24U19F|117=20190724-000000000013.00|693=201907241128013_AJ|694=1|762=AFIR|10=097|
8=FIX.4.4|9=0460|35=8|34=9|49=EXC|56=029|57=029B17|52=20190724-16:31:27.385|11=201907241128013_AJ|17=4|37=0|150=F|1080=20190724-000000000013.00|1081=5|453=5|448=029B17|447=C|452=12|448=029|447=C|452=1|448=037B18|447=C|452=37|448=037|447=C|452=17|448=029FCM001|447=C|452=36|55=T24U19F|762=AFIR|48=27227|22=M|6=123.000|14=150|31=123.000|32=150|38=150|39=2|54=1|60=20190724-16:31:27.385|75=20190724|63=1|64=20190724|151=0|1=RT001|381=46125000000.000|880=201907240000000004|828=99|10=046|
8=FIX.4.4|9=0050|35=0|34=10|49=EXC|56=029|52=20190724-16:31:57.000|10=220|
8=FIX.4.4|9=60|35=0|34=10|49=029|50=029B17|52=20190724-16:31:16.911|56=EXC|10=107|
8=FIX.4.4|9=0050|35=0|34=11|49=EXC|56=029|52=20190724-16:32:27.000|10=219|
8=FIX.4.4|9=60|35=0|34=11|49=029|50=029B17|52=20190724-16:31:46.917|56=EXC|10=117|
8=FIX.4.4|9=0050|35=0|34=12|49=EXC|56=029|52=20190724-16:32:57.000|10=223|
8=FIX.4.4|9=60|35=0|34=12|49=029|50=029B17|52=20190724-16:32:16.909|56=EXC|10=117|
8=FIX.4.4|9=162|35=R|34=13|49=029|50=029B17|52=20190724-16:32:42.380|56=EXC|131=201907241128018_R|146=1|55=I01H99F|22=M|762=AFIR|54=1|38=-1|1=RT001|453=1|448=037B18|447=C|452=37|10=165|
8=FIX.4.4|9=0132|35=3|34=13|49=EXC|56=029|52=20190724-16:33:22.867|45=13|371=38|372=R|373=6|58=(1462): OrderQty(#38) contiene informacion incorrecta|10=046|
8=FIX.4.4|9=161|35=R|34=14|49=029|50=029B17|52=20190724-16:32:57.441|56=EXC|131=201907241128019_R|146=1|55=I06H99F|22=M|762=AFIR|54=1|38=7|1=RT001|453=1|448=037B18|447=C|452=37|10=136|
8=FIX.4.4|9=0243|35=AI|34=14|49=EXC|56=029|57=029B17|52=20190724-16:33:37.937|131=201907241128019_R|453=4|448=029B17|447=C|452=12|448=029|447=C|452=1|448=029FCM001|447=C|452=36|448=037B18|447=C|452=37|55=I06H99F|762=AFIR|48=27166|22=M|54=1|1=RT001|38=7|297=10|10=079|
8=FIX.4.4|9=161|35=R|34=15|49=029|50=029B17|52=20190724-16:33:22.505|56=EXC|131=201907241128019_R|146=1|55=I06H99F|22=M|762=AFIR|54=1|38=0|1=RT001|453=1|448=037B18|447=C|452=37|10=124|
8=FIX.4.4|9=0243|35=AI|34=15|49=EXC|56=029|57=029B17|52=20190724-16:34:02.997|131=201907241128019_R|453=4|448=029B17|447=C|452=12|448=029|447=C|452=1|448=029FCM001|447=C|452=36|448=037B18|447=C|452=37|55=I06H99F|762=AFIR|48=27166|22=M|54=1|1=RT001|38=7|297=17|10=086|
8=FIX.4.4|9=0050|35=0|34=16|49=EXC|56=029|52=20190724-16:34:32.000|10=222|
8=FIX.4.4|9=60|35=0|34=16|49=029|50=029B17|52=20190724-16:33:52.913|56=EXC|10=117|
8=FIX.4.4|9=0050|35=0|34=17|49=EXC|56=029|52=20190724-16:35:02.000|10=221|
8=FIX.4.4|9=60|35=0|34=17|49=029|50=029B17|52=20190724-16:34:22.922|56=EXC|10=116|
8=FIX.4.4|9=60|35=5|34=18|49=029|50=029B17|52=20190724-16:34:33.911|56=EXC|10=122|
8=FIX.4.4|9=0057|35=5|34=18|49=EXC|56=029|52=20190724-16:35:14.402|369=18|10=060|
8=FIX.4.4|9=110|35=A|34=1|49=029|50=029B17|52=20190724-19:19:03.808|56=EXC|43=N|98=0|108=30|141=Y|553=029FCM001|554=029FCM001|10=118|
8=FIX.4.4|9=0067|35=A|34=1|49=EXC|56=029|52=20190724-19:19:44.466|98=0|108=30|141=Y|10=032|
8=FIX.4.4|9=162|35=R|34=2|49=029|50=029B17|52=20190724-19:19:09.852|56=EXC|131=201907241418592_R|146=1|55=T24U19F|22=M|762=AFIR|54=2|38=100|1=RT001|453=1|448=037B18|447=C|452=37|10=212|
8=FIX.4.4|9=0244|35=AI|34=2|49=EXC|56=029|57=029B17|52=20190724-19:19:50.472|131=201907241418592_R|453=4|448=029B17|447=C|452=12|448=029|447=C|452=1|448=029FCM001|447=C|452=36|448=037B18|447=C|452=37|55=T24U19F|762=AFIR|48=27227|22=M|54=2|1=RT001|38=100|297=10|10=138|
8=FIX.4.4|9=0286|35=S|34=3|49=EXC|56=029|57=029B17|52=20190724-19:20:10.605|131=201907241418592_R|117=20190724-000000000017.00|55=T24U19F|762=AFIR|48=27227|22=M|453=4|448=029B17|447=C|452=12|448=029|447=C|452=1|448=029FCM001|447=C|452=36|448=037B18|447=C|452=37|132=120.000|134=100|62=20190830-22:00:00|10=083|
8=FIX.4.4|9=59|35=0|34=3|49=029|50=029B17|52=20190724-19:19:40.520|56=EXC|10=071|
8=FIX.4.4|9=143|35=AJ|34=4|49=029|50=029B17|52=20190724-19:19:50.042|56=EXC|54=2|55=T24U19F|117=20190724-000000000017.00|693=201907241418592_AJ|694=1|762=AFIR|10=098|
8=FIX.4.4|9=0460|35=8|34=4|49=EXC|56=029|57=029B17|52=20190724-19:20:30.672|11=201907241418592_AJ|17=5|37=0|150=F|1080=20190724-000000000017.00|1081=5|453=5|448=029B17|447=C|452=12|448=029|447=C|452=1|448=037B18|447=C|452=37|448=037|447=C|452=17|448=029FCM001|447=C|452=36|55=T24U19F|762=AFIR|48=27227|22=M|6=120.000|14=100|31=120.000|32=100|38=100|39=2|54=2|60=20190724-19:20:30.672|75=20190724|63=1|64=20190724|151=0|1=RT001|381=30000000000.000|880=201907240000000005|828=99|10=014|
8=FIX.4.4|9=0049|35=0|34=5|49=EXC|56=029|52=20190724-19:21:00.000|10=174|
8=FIX.4.4|9=59|35=5|34=5|49=029|50=029B17|52=20190724-19:20:20.512|56=EXC|10=069|
8=FIX.4.4|9=0055|35=5|34=6|49=EXC|56=029|52=20190724-19:21:01.131|369=5|10=204|
8=FIX.4.4|9=59|35=5|34=6|49=029|50=029B17|52=20190724-19:20:20.519|56=EXC|10=077|
8=FIX.4.4|9=110|35=A|34=1|49=029|50=029B17|52=20190724-19:31:04.505|56=EXC|43=N|98=0|108=30|141=Y|553=029FCM001|554=029FCM001|10=107|
8=FIX.4.4|9=0067|35=A|34=1|49=EXC|56=029|52=20190724-19:31:45.176|98=0|108=30|141=Y|10=025|
8=FIX.4.4|9=162|35=R|34=2|49=029|50=029B17|52=20190724-19:31:10.529|56=EXC|131=201907241431002_R|146=1|55=T24U19F|22=M|762=AFIR|54=2|38=100|1=RT001|453=1|448=037B18|447=C|452=37|10=180|
8=FIX.4.4|9=0244|35=AI|34=2|49=EXC|56=029|57=029B17|52=20190724-19:31:51.181|131=201907241431002_R|453=4|448=029B17|447=C|452=12|448=029|447=C|452=1|448=029FCM001|447=C|452=36|448=037B18|447=C|452=37|55=T24U19F|762=AFIR|48=27227|22=M|54=2|1=RT001|38=100|297=10|10=111|
8=FIX.4.4|9=0286|35=S|34=3|49=EXC|56=029|57=029B17|52=20190724-19:32:11.269|131=201907241431002_R|117=20190724-000000000018.00|55=T24U19F|762=AFIR|48=27227|22=M|453=4|448=029B17|447=C|452=12|448=029|447=C|452=1|448=029FCM001|447=C|452=36|448=037B18|447=C|452=37|132=120.000|134=100|62=20190830-22:00:00|10=075|
8=FIX.4.4|9=59|35=0|34=3|49=029|50=029B17|52=20190724-19:31:41.193|56=EXC|10=072|
8=FIX.4.4|9=143|35=AJ|34=4|49=029|50=029B17|52=20190724-19:31:50.722|56=EXC|54=2|55=T24U19F|117=20190724-000000000018.00|693=201907241431002_AJ|694=1|762=AFIR|10=079|
8=FIX.4.4|9=0460|35=8|34=4|49=EXC|56=029|57=029B17|52=20190724-19:32:31.352|11=201907241431002_AJ|17=6|37=0|150=F|1080=20190724-000000000018.00|1081=5|453=5|448=029B17|447=C|452=12|448=029|447=C|452=1|448=037B18|447=C|452=37|448=037|447=C|452=17|448=029FCM001|447=C|452=36|55=T24U19F|762=AFIR|48=27227|22=M|6=120.000|14=100|31=120.000|32=100|38=100|39=2|54=2|60=20190724-19:32:31.352|75=20190724|63=1|64=20190724|151=0|1=RT001|381=30000000000.000|880=201907240000000006|828=99|10=252|
8=FIX.4.4|9=0049|35=0|34=5|49=EXC|56=029|52=20190724-19:33:01.000|10=178|
8=FIX.4.4|9=59|35=5|34=5|49=029|50=029B17|52=20190724-19:32:21.195|56=EXC|10=080|
8=FIX.4.4|9=0055|35=5|34=6|49=EXC|56=029|52=20190724-19:33:01.821|369=5|10=213|
8=FIX.4.4|9=59|35=5|34=6|49=029|50=029B17|52=20190724-19:32:21.195|56=EXC|10=081|
8=FIX.4.4|9=110|35=A|34=1|49=029|50=029B17|52=20190724-19:36:51.720|56=EXC|43=N|98=0|108=30|141=Y|553=029FCM001|554=029FCM001|10=113|
8=FIX.4.4|9=0067|35=A|34=1|49=EXC|56=029|52=20190724-19:37:32.392|98=0|108=30|141=Y|10=027|
8=FIX.4.4|9=162|35=R|34=2|49=029|50=029B17|52=20190724-19:36:57.737|56=EXC|131=201907241436472_R|146=1|55=T24U19F|22=M|762=AFIR|54=2|38=100|1=RT001|453=1|448=037B18|447=C|452=37|10=213|
8=FIX.4.4|9=0244|35=AI|34=2|49=EXC|56=029|57=029B17|52=20190724-19:37:38.376|131=201907241436472_R|453=4|448=029B17|447=C|452=12|448=029|447=C|452=1|448=029FCM001|447=C|452=36|448=037B18|447=C|452=37|55=T24U19F|762=AFIR|48=27227|22=M|54=2|1=RT001|38=100|297=10|10=144|
8=FIX.4.4|9=0286|35=S|34=3|49=EXC|56=029|57=029B17|52=20190724-19:37:58.494|131=201907241436472_R|117=20190724-000000000019.00|55=T24U19F|762=AFIR|48=27227|22=M|453=4|448=029B17|447=C|452=12|448=029|447=C|452=1|448=029FCM001|447=C|452=36|448=037B18|447=C|452=37|132=120.000|134=100|62=20190830-22:00:00|10=108|
8=FIX.4.4|9=59|35=0|34=3|49=029|50=029B17|52=20190724-19:37:28.432|56=EXC|10=079|
8=FIX.4.4|9=143|35=AJ|34=4|49=029|50=029B17|52=20190724-19:37:37.923|56=EXC|54=2|55=T24U19F|117=20190724-000000000019.00|693=201907241436472_AJ|694=1|762=AFIR|10=110|
8=FIX.4.4|9=0460|35=8|34=4|49=EXC|56=029|57=029B17|52=20190724-19:38:18.564|11=201907241436472_AJ|17=7|37=0|150=F|1080=20190724-000000000019.00|1081=5|453=5|448=029B17|447=C|452=12|448=029|447=C|452=1|448=037B18|447=C|452=37|448=037|447=C|452=17|448=029FCM001|447=C|452=36|55=T24U19F|762=AFIR|48=27227|22=M|6=120.000|14=100|31=120.000|32=100|38=100|39=2|54=2|60=20190724-19:38:18.564|75=20190724|63=1|64=20190724|151=0|1=RT001|381=30000000000.000|880=201907240000000007|828=99|10=047|
8=FIX.4.4|9=0049|35=0|34=5|49=EXC|56=029|52=20190724-19:38:48.000|10=194|
8=FIX.4.4|9=59|35=5|34=5|49=029|50=029B17|52=20190724-19:38:08.142|56=EXC|10=083|
8=FIX.4.4|9=0055|35=5|34=6|49=EXC|56=029|52=20190724-19:38:48.776|369=5|10=238|
8=FIX.4.4|9=110|35=A|34=1|49=029|50=029B17|52=20190724-19:39:41.252|56=EXC|43=N|98=0|108=30|141=Y|553=029FCM001|554=029FCM001|10=115|
8=FIX.4.4|9=0067|35=A|34=1|49=EXC|56=029|52=20190724-19:40:21.916|98=0|108=30|141=Y|10=021|
8=FIX.4.4|9=162|35=R|34=2|49=029|50=029B17|52=20190724-19:39:47.266|56=EXC|131=201907241439371_R|146=1|55=T24U19F|22=M|762=AFIR|54=1|38=100|1=RT001|453=1|448=037B18|447=C|452=37|10=212|
8=FIX.4.4|9=0244|35=AI|34=2|49=EXC|56=029|57=029B17|52=20190724-19:40:27.898|131=201907241439371_R|453=4|448=029B17|447=C|452=12|448=029|447=C|452=1|448=029FCM001|447=C|452=36|448=037B18|447=C|452=37|55=T24U19F|762=AFIR|48=27227|22=M|54=1|1=RT001|38=100|297=10|10=145|
8=FIX.4.4|9=0286|35=S|34=3|49=EXC|56=029|57=029B17|52=20190724-19:40:47.987|131=201907241439371_R|117=20190724-000000000020.00|55=T24U19F|762=AFIR|48=27227|22=M|453=4|448=029B17|447=C|452=12|448=029|447=C|452=1|448=029FCM001|447=C|452=36|448=037B18|447=C|452=37|133=100.000|135=100|62=20190830-22:00:00|10=100|
8=FIX.4.4|9=59|35=0|34=3|49=029|50=029B17|52=20190724-19:40:18.034|56=EXC|10=070|
8=FIX.4.4|9=143|35=AJ|34=4|49=029|50=029B17|52=20190724-19:40:27.426|56=EXC|54=1|55=T24U19F|117=20190724-000000000020.00|693=201907241439371_AJ|694=1|762=AFIR|10=093|
8=FIX.4.4|9=0460|35=8|34=4|49=EXC|56=029|57=029B17|52=20190724-19:41:08.061|11=201907241439371_AJ|17=8|37=0|150=F|1080=20190724-000000000020.00|1081=5|453=5|448=029B17|447=C|452=12|448=029|447=C|452=1|448=037B18|447=C|452=37|448=037|447=C|452=17|448=029FCM001|447=C|452=36|55=T24U19F|762=AFIR|48=27227|22=M|6=100.000|14=100|31=100.000|32=100|38=100|39=2|54=1|60=20190724-19:41:08.061|75=20190724|63=1|64=20190724|151=0|1=RT001|381=25000000000.000|880=201907240000000008|828=99|10=011|
8=FIX.4.4|9=162|35=R|34=5|49=029|50=029B17|52=20190724-19:40:52.558|56=EXC|131=201907241439372_R|146=1|55=T24U19F|22=M|762=AFIR|54=2|38=100|1=RT001|453=1|448=037B18|447=C|452=37|10=209|
8=FIX.4.4|9=0244|35=AI|34=5|49=EXC|56=029|57=029B17|52=20190724-19:41:33.195|131=201907241439372_R|453=4|448=029B17|447=C|452=12|448=029|447=C|452=1|448=029FCM001|447=C|452=36|448=037B18|447=C|452=37|55=T24U19F|762=AFIR|48=27227|22=M|54=2|1=RT001|38=100|297=10|10=138|
8=FIX.4.4|9=0286|35=S|34=6|49=EXC|56=029|57=029B17|52=20190724-19:41:53.299|131=201907241439372_R|117=20190724-000000000021.00|55=T24U19F|762=AFIR|48=27227|22=M|453=4|448=029B17|447=C|452=12|448=029|447=C|452=1|448=029FCM001|447=C|452=36|448=037B18|447=C|452=37|132=120.000|134=100|62=20190830-22:00:00|10=099|
8=FIX.4.4|9=59|35=0|34=6|49=029|50=029B17|52=20190724-19:41:23.040|56=EXC|10=067|
8=FIX.4.4|9=143|35=AJ|34=7|49=029|50=029B17|52=20190724-19:41:32.704|56=EXC|54=2|55=T24U19F|117=20190724-000000000021.00|693=201907241439372_AJ|694=1|762=AFIR|10=095|
8=FIX.4.4|9=0460|35=8|34=7|49=EXC|56=029|57=029B17|52=20190724-19:42:13.341|11=201907241439372_AJ|17=9|37=0|150=F|1080=20190724-000000000021.00|1081=5|453=5|448=029B17|447=C|452=12|448=029|447=C|452=1|448=037B18|447=C|452=37|448=037|447=C|452=17|448=029FCM001|447=C|452=36|55=T24U19F|762=AFIR|48=27227|22=M|6=120.000|14=100|31=120.000|32=100|38=100|39=2|54=2|60=20190724-19:42:13.341|75=20190724|63=1|64=20190724|151=0|1=RT001|381=30000000000.000|880=201907240000000009|828=99|10=015|
8=FIX.4.4|9=162|35=R|34=8|49=029|50=029B17|52=20190724-19:41:57.781|56=EXC|131=201907241439373_R|146=1|55=T24U19F|22=M|762=AFIR|54=1|38=150|1=RT001|453=1|448=037B18|447=C|452=37|10=221|
8=FIX.4.4|9=0244|35=AI|34=8|49=EXC|56=029|57=029B17|52=20190724-19:42:38.417|131=201907241439373_R|453=4|448=029B17|447=C|452=12|448=029|447=C|452=1|448=029FCM001|447=C|452=36|448=037B18|447=C|452=37|55=T24U19F|762=AFIR|48=27227|22=M|54=1|1=RT001|38=150|297=10|10=149|
8=FIX.4.4|9=0286|35=S|34=9|49=EXC|56=029|57=029B17|52=20190724-19:43:03.475|131=201907241439373_R|117=20190724-000000000022.00|55=T24U19F|762=AFIR|48=27227|22=M|453=4|448=029B17|447=C|452=12|448=029|447=C|452=1|448=029FCM001|447=C|452=36|448=037B18|447=C|452=37|133=123.000|135=150|62=20190830-22:00:00|10=107|
8=FIX.4.4|9=59|35=0|34=9|49=029|50=029B17|52=20190724-19:42:28.043|56=EXC|10=079|
8=FIX.4.4|9=144|35=AJ|34=10|49=029|50=029B17|52=20190724-19:42:42.891|56=EXC|54=1|55=T24U19F|117=20190724-000000000022.00|693=201907241439373_AJ|694=1|762=AFIR|10=148|
8=FIX.4.4|9=0462|35=8|34=10|49=EXC|56=029|57=029B17|52=20190724-19:43:23.528|11=201907241439373_AJ|17=10|37=0|150=F|1080=20190724-000000000022.00|1081=5|453=5|448=029B17|447=C|452=12|448=029|447=C|452=1|448=037B18|447=C|452=37|448=037|447=C|452=17|448=029FCM001|447=C|452=36|55=T24U19F|762=AFIR|48=27227|22=M|6=123.000|14=150|31=123.000|32=150|38=150|39=2|54=1|60=20190724-19:43:23.528|75=20190724|63=1|64=20190724|151=0|1=RT001|381=46125000000.000|880=201907240000000010|828=99|10=146|
8=FIX.4.4|9=0050|35=0|34=11|49=EXC|56=029|52=20190724-19:43:53.000|10=223|
8=FIX.4.4|9=60|35=0|34=11|49=029|50=029B17|52=20190724-19:43:13.045|56=EXC|10=109|
8=FIX.4.4|9=0050|35=0|34=12|49=EXC|56=029|52=20190724-19:44:23.000|10=222|
8=FIX.4.4|9=60|35=0|34=12|49=029|50=029B17|52=20190724-19:43:43.076|56=EXC|10=117|
8=FIX.4.4|9=0050|35=0|34=13|49=EXC|56=029|52=20190724-19:44:53.000|10=226|
8=FIX.4.4|9=60|35=0|34=13|49=029|50=029B17|52=20190724-19:44:14.045|56=EXC|10=113|
8=FIX.4.4|9=162|35=R|34=14|49=029|50=029B17|52=20190724-19:44:33.169|56=EXC|131=201907241439378_R|146=1|55=I01H99F|22=M|762=AFIR|54=1|38=-1|1=RT001|453=1|448=037B18|447=C|452=37|10=191|
8=FIX.4.4|9=0132|35=3|34=14|49=EXC|56=029|52=20190724-19:45:13.818|45=14|371=38|372=R|373=6|58=(1462): OrderQty(#38) contiene informacion incorrecta|10=050|
8=FIX.4.4|9=161|35=R|34=15|49=029|50=029B17|52=20190724-19:44:48.200|56=EXC|131=201907241439379_R|146=1|55=I06H99F|22=M|762=AFIR|54=1|38=7|1=RT001|453=1|448=037B18|447=C|452=37|10=150|
8=FIX.4.4|9=0243|35=AI|34=15|49=EXC|56=029|57=029B17|52=20190724-19:45:28.845|131=201907241439379_R|453=4|448=029B17|447=C|452=12|448=029|447=C|452=1|448=029FCM001|447=C|452=36|448=037B18|447=C|452=37|55=I06H99F|762=AFIR|48=27166|22=M|54=1|1=RT001|38=7|297=10|10=098|
8=FIX.4.4|9=161|35=R|34=16|49=029|50=029B17|52=20190724-19:45:13.276|56=EXC|131=201907241439379_R|146=1|55=I06H99F|22=M|762=AFIR|54=1|38=0|1=RT001|453=1|448=037B18|447=C|452=37|10=150|
8=FIX.4.4|9=0243|35=AI|34=16|49=EXC|56=029|57=029B17|52=20190724-19:45:53.913|131=201907241439379_R|453=4|448=029B17|447=C|452=12|448=029|447=C|452=1|448=029FCM001|447=C|452=36|448=037B18|447=C|452=37|55=I06H99F|762=AFIR|48=27166|22=M|54=1|1=RT001|38=7|297=17|10=100|
8=FIX.4.4|9=0050|35=0|34=17|49=EXC|56=029|52=20190724-19:46:23.000|10=229|
8=FIX.4.4|9=60|35=0|34=17|49=029|50=029B17|52=20190724-19:45:44.342|56=EXC|10=121|
8=FIX.4.4|9=0050|35=0|34=18|49=EXC|56=029|52=20190724-19:46:53.000|10=233|
8=FIX.4.4|9=60|35=0|34=18|49=029|50=029B17|52=20190724-19:46:15.047|56=EXC|10=123|
8=FIX.4.4|9=60|35=5|34=19|49=029|50=029B17|52=20190724-19:46:24.045|56=EXC|10=127|
8=FIX.4.4|9=0057|35=5|34=19|49=EXC|56=029|52=20190724-19:47:04.699|369=19|10=085|
8=FIX.4.4|9=110|35=A|34=1|49=029|50=029B17|52=20190725-13:14:32.490|56=EXC|43=N|98=0|108=30|141=Y|553=029FCM001|554=029FCM001|10=107|
8=FIX.4.4|9=0067|35=A|34=1|49=EXC|56=029|52=20190725-13:15:13.850|98=0|108=30|141=Y|10=016|
8=FIX.4.4|9=162|35=R|34=2|49=029|50=029B17|52=20190725-13:14:38.581|56=EXC|131=201907250814271_R|146=1|55=T24U19F|22=M|762=AFIR|54=1|38=100|1=RT001|453=1|448=037B18|447=C|452=37|10=196|
8=FIX.4.4|9=0244|35=AI|34=2|49=EXC|56=029|57=029B17|52=20190725-13:15:19.906|131=201907250814271_R|453=4|448=029B17|447=C|452=12|448=029|447=C|452=1|448=029FCM001|447=C|452=36|448=037B18|447=C|452=37|55=T24U19F|762=AFIR|48=27227|22=M|54=1|1=RT001|38=100|297=10|10=129|
8=FIX.4.4|9=0049|35=0|34=3|49=EXC|56=029|52=20190725-13:15:49.000|10=183|
8=FIX.4.4|9=59|35=0|34=3|49=029|50=029B17|52=20190725-13:15:08.809|56=EXC|10=076|
8=FIX.4.4|9=59|35=5|34=4|49=029|50=029B17|52=20190725-13:15:24.800|56=EXC|10=071|
8=FIX.4.4|9=0055|35=5|34=4|49=EXC|56=029|52=20190725-13:16:06.139|369=4|10=213|
8=FIX.4.4|9=110|35=A|34=1|49=029|50=029B17|52=20190725-13:42:12.780|56=EXC|43=N|98=0|108=30|141=Y|553=029FCM001|554=029FCM001|10=108|
8=FIX.4.4|9=0067|35=A|34=1|49=EXC|56=029|52=20190725-13:42:54.155|98=0|108=30|141=Y|10=019|
8=FIX.4.4|9=0049|35=0|34=2|49=EXC|56=029|52=20190725-13:43:24.000|10=176|
8=FIX.4.4|9=59|35=0|34=2|49=029|50=029B17|52=20190725-13:42:43.420|56=EXC|10=063|
8=FIX.4.4|9=0049|35=0|34=3|49=EXC|56=029|52=20190725-13:43:54.000|10=180|
8=FIX.4.4|9=59|35=0|34=3|49=029|50=029B17|52=20190725-13:43:13.416|56=EXC|10=067|
8=FIX.4.4|9=110|35=A|34=1|49=029|50=029B17|52=20190725-13:44:07.916|56=EXC|43=N|98=0|108=30|141=Y|553=029FCM001|554=029FCM001|10=115|
8=FIX.4.4|9=0067|35=A|34=1|49=EXC|56=029|52=20190725-13:44:49.444|98=0|108=30|141=Y|10=026|
8=FIX.4.4|9=59|35=5|34=2|49=029|50=029B17|52=20190725-13:44:34.626|56=EXC|10=078|
8=FIX.4.4|9=0055|35=5|34=2|49=EXC|56=029|52=20190725-13:45:15.969|369=2|10=222|
8=FIX.4.4|9=110|35=A|34=1|49=029|50=029B17|52=20190725-14:46:29.892|56=EXC|43=N|98=0|108=30|141=Y|553=029FCM001|554=029FCM001|10=125|
8=FIX.4.4|9=0067|35=A|34=1|49=EXC|56=029|52=20190725-14:47:11.327|98=0|108=30|141=Y|10=019|
8=FIX.4.4|9=162|35=R|34=2|49=029|50=029B17|52=20190725-14:46:35.898|56=EXC|131=201907250946252_R|146=1|55=T24U19F|22=M|762=AFIR|54=2|38=100|1=RT001|453=1|448=037B18|447=C|452=37|10=216|
8=FIX.4.4|9=0244|35=AI|34=2|49=EXC|56=029|57=029B17|52=20190725-14:47:17.291|131=201907250946252_R|453=4|448=029B17|447=C|452=12|448=029|447=C|452=1|448=029FCM001|447=C|452=36|448=037B18|447=C|452=37|55=T24U19F|762=AFIR|48=27227|22=M|54=2|1=RT001|38=100|297=10|10=136|
8=FIX.4.4|9=0286|35=S|34=3|49=EXC|56=029|57=029B17|52=20190725-14:47:37.401|131=201907250946252_R|117=20190725-000000000002.00|55=T24U19F|762=AFIR|48=27227|22=M|453=4|448=029B17|447=C|452=12|448=029|447=C|452=1|448=029FCM001|447=C|452=36|448=037B18|447=C|452=37|132=120.000|134=100|62=20190830-22:00:00|10=085|
8=FIX.4.4|9=59|35=0|34=3|49=029|50=029B17|52=20190725-14:47:06.639|56=EXC|10=081|
8=FIX.4.4|9=143|35=AJ|34=4|49=029|50=029B17|52=20190725-14:47:16.098|56=EXC|54=2|55=T24U19F|117=20190725-000000000002.00|693=201907250946252_AJ|694=1|762=AFIR|10=102|
8=FIX.4.4|9=0460|35=8|34=4|49=EXC|56=029|57=029B17|52=20190725-14:47:57.500|11=201907250946252_AJ|17=1|37=0|150=F|1080=20190725-000000000002.00|1081=5|453=5|448=029B17|447=C|452=12|448=029|447=C|452=1|448=037B18|447=C|452=37|448=037|447=C|452=17|448=029FCM001|447=C|452=36|55=T24U19F|762=AFIR|48=27227|22=M|6=120.000|14=100|31=120.000|32=100|38=100|39=2|54=2|60=20190725-14:47:57.500|75=20190725|63=1|64=20190725|151=0|1=RT001|381=30000000000.000|880=201907250000000001|828=99|10=011|
8=FIX.4.4|9=0049|35=0|34=5|49=EXC|56=029|52=20190725-14:48:27.000|10=188|
8=FIX.4.4|9=59|35=5|34=5|49=029|50=029B17|52=20190725-14:47:46.632|56=EXC|10=085|
8=FIX.4.4|9=0055|35=5|34=6|49=EXC|56=029|52=20190725-14:48:28.022|369=5|10=217|
8=FIX.4.4|9=110|35=A|34=1|49=029|50=029B17|52=20190725-15:08:12.539|56=EXC|43=N|98=0|108=30|141=Y|553=029FCM001|554=029FCM001|10=114|
8=FIX.4.4|9=0067|35=A|34=1|49=EXC|56=029|52=20190725-15:08:53.998|98=0|108=30|141=Y|10=037|
8=FIX.4.4|9=162|35=R|34=2|49=029|50=029B17|52=20190725-15:08:18.551|56=EXC|131=201907251008082_R|146=1|55=T24U19F|22=M|762=AFIR|54=2|38=100|1=RT001|453=1|448=037B18|447=C|452=37|10=193|
8=FIX.4.4|9=0244|35=AI|34=2|49=EXC|56=029|57=029B17|52=20190725-15:08:59.964|131=201907251008082_R|453=4|448=029B17|447=C|452=12|448=029|447=C|452=1|448=029FCM001|447=C|452=36|448=037B18|447=C|452=37|55=T24U19F|762=AFIR|48=27227|22=M|54=2|1=RT001|38=100|297=10|10=138|
8=FIX.4.4|9=0286|35=S|34=3|49=EXC|56=029|57=029B17|52=20190725-15:09:20.080|131=201907251008082_R|117=20190725-000000000003.00|55=T24U19F|762=AFIR|48=27227|22=M|453=4|448=029B17|447=C|452=12|448=029|447=C|452=1|448=029FCM001|447=C|452=36|448=037B18|447=C|452=37|132=120.000|134=100|62=20190830-22:00:00|10=071|
8=FIX.4.4|9=59|35=0|34=3|49=029|50=029B17|52=20190725-15:08:49.168|56=EXC|10=083|
8=FIX.4.4|9=143|35=AJ|34=4|49=029|50=029B17|52=20190725-15:08:58.722|56=EXC|54=2|55=T24U19F|117=20190725-000000000003.00|693=201907251008082_AJ|694=1|762=AFIR|10=092|
8=FIX.4.4|9=0460|35=8|34=4|49=EXC|56=029|57=029B17|52=20190725-15:09:40.141|11=201907251008082_AJ|17=2|37=0|150=F|1080=20190725-000000000003.00|1081=5|453=5|448=029B17|447=C|452=12|448=029|447=C|452=1|448=037B18|447=C|452=37|448=037|447=C|452=17|448=029FCM001|447=C|452=36|55=T24U19F|762=AFIR|48=27227|22=M|6=120.000|14=100|31=120.000|32=100|38=100|39=2|54=2|60=20190725-15:09:40.141|75=20190725|63=1|64=20190725|151=0|1=RT001|381=30000000000.000|880=201907250000000002|828=99|10=245|
8=FIX.4.4|9=0049|35=0|34=5|49=EXC|56=029|52=20190725-15:10:10.000|10=170|
8=FIX.4.4|9=59|35=5|34=5|49=029|50=029B17|52=20190725-15:09:28.929|56=EXC|10=093|
8=FIX.4.4|9=0055|35=5|34=6|49=EXC|56=029|52=20190725-15:10:10.362|369=5|10=205|
8=FIX.4.4|9=110|35=A|34=1|49=029|50=029B17|52=20190725-15:22:44.327|56=EXC|43=N|98=0|108=30|141=Y|553=029FCM001|554=029FCM001|10=110|
8=FIX.4.4|9=0067|35=A|34=1|49=EXC|56=029|52=20190725-15:23:25.787|98=0|108=30|141=Y|10=029|
8=FIX.4.4|9=162|35=R|34=2|49=029|50=029B17|52=20190725-15:22:50.339|56=EXC|131=201907251022392_R|146=1|55=T24U19F|22=M|762=AFIR|54=2|38=100|1=RT001|453=1|448=037B18|447=C|452=37|10=189|
8=FIX.4.4|9=0244|35=AI|34=2|49=EXC|56=029|57=029B17|52=20190725-15:23:31.773|131=201907251022392_R|453=4|448=029B17|447=C|452=12|448=029|447=C|452=1|448=029FCM001|447=C|452=36|448=037B18|447=C|452=37|55=T24U19F|762=AFIR|48=27227|22=M|54=2|1=RT001|38=100|297=10|10=123|
8=FIX.4.4|9=0286|35=S|34=3|49=EXC|56=029|57=029B17|52=20190725-15:23:51.889|131=201907251022392_R|117=20190725-000000000004.00|55=T24U19F|762=AFIR|48=27227|22=M|453=4|448=029B17|447=C|452=12|448=029|447=C|452=1|448=029FCM001|447=C|452=36|448=037B18|447=C|452=37|132=120.000|134=100|62=20190830-22:00:00|10=089|
8=FIX.4.4|9=59|35=0|34=3|49=029|50=029B17|52=20190725-15:23:20.998|56=EXC|10=080|
8=FIX.4.4|9=143|35=AJ|34=4|49=029|50=029B17|52=20190725-15:23:30.537|56=EXC|54=2|55=T24U19F|117=20190725-000000000004.00|693=201907251022392_AJ|694=1|762=AFIR|10=084|
8=FIX.4.4|9=0460|35=8|34=4|49=EXC|56=029|57=029B17|52=20190725-15:24:11.974|11=201907251022392_AJ|17=3|37=0|150=F|1080=20190725-000000000004.00|1081=5|453=5|448=029B17|447=C|452=12|448=029|447=C|452=1|448=037B18|447=C|452=37|448=037|447=C|452=17|448=029FCM001|447=C|452=36|55=T24U19F|762=AFIR|48=27227|22=M|6=120.000|14=100|31=120.000|32=100|38=100|39=2|54=2|60=20190725-15:24:11.974|75=20190725|63=1|64=20190725|151=0|1=RT001|381=30000000000.000|880=201907250000000003|828=99|10=010|
8=FIX.4.4|9=0049|35=0|34=5|49=EXC|56=029|52=20190725-15:24:41.000|10=179|
8=FIX.4.4|9=59|35=5|34=5|49=029|50=029B17|52=20190725-15:24:00.839|56=EXC|10=080|
8=FIX.4.4|9=0055|35=5|34=6|49=EXC|56=029|52=20190725-15:24:42.273|369=5|10=216|
8=FIX.4.4|9=110|35=A|34=1|49=029|50=029B17|52=20190725-15:34:23.579|56=EXC|43=N|98=0|108=30|141=Y|553=029FCM001|554=029FCM001|10=119|
8=FIX.4.4|9=0067|35=A|34=1|49=EXC|56=029|52=20190725-15:35:05.058|98=0|108=30|141=Y|10=021|
8=FIX.4.4|9=162|35=R|34=2|49=029|50=029B17|52=20190725-15:34:29.532|56=EXC|131=201907251034192_R|146=1|55=T24U19F|22=M|762=AFIR|54=2|38=100|1=RT001|453=1|448=037B18|447=C|452=37|10=194|
8=FIX.4.4|9=0244|35=AI|34=2|49=EXC|56=029|57=029B17|52=20190725-15:35:10.968|131=201907251034192_R|453=4|448=029B17|447=C|452=12|448=029|447=C|452=1|448=029FCM001|447=C|452=36|448=037B18|447=C|452=37|55=T24U19F|762=AFIR|48=27227|22=M|54=2|1=RT001|38=100|297=10|10=130|
8=FIX.4.4|9=0286|35=S|34=3|49=EXC|56=029|57=029B17|52=20190725-15:35:31.083|131=201907251034192_R|117=20190725-000000000005.00|55=T24U19F|762=AFIR|48=27227|22=M|453=4|448=029B17|447=C|452=12|448=029|447=C|452=1|448=029FCM001|447=C|452=36|448=037B18|447=C|452=37|132=120.000|134=100|62=20190830-22:00:00|10=078|
8=FIX.4.4|9=59|35=0|34=3|49=029|50=029B17|52=20190725-15:35:00.223|56=EXC|10=062|
8=FIX.4.4|9=143|35=AJ|34=4|49=029|50=029B17|52=20190725-15:35:09.699|56=EXC|54=2|55=T24U19F|117=20190725-000000000005.00|693=201907251034192_AJ|694=1|762=AFIR|10=104|
8=FIX.4.4|9=0460|35=8|34=4|49=EXC|56=029|57=029B17|52=20190725-15:35:51.141|11=201907251034192_AJ|17=4|37=0|150=F|1080=20190725-000000000005.00|1081=5|453=5|448=029B17|447=C|452=12|448=029|447=C|452=1|448=037B18|447=C|452=37|448=037|447=C|452=17|448=029FCM001|447=C|452=36|55=T24U19F|762=AFIR|48=27227|22=M|6=120.000|14=100|31=120.000|32=100|38=100|39=2|54=2|60=20190725-15:35:51.141|75=20190725|63=1|64=20190725|151=0|1=RT001|381=30000000000.000|880=201907250000000004|828=99|10=254|
8=FIX.4.4|9=0049|35=0|34=5|49=EXC|56=029|52=20190725-15:36:21.000|10=180|
8=FIX.4.4|9=59|35=5|34=5|49=029|50=029B17|52=20190725-15:35:40.216|56=EXC|10=075|
8=FIX.4.4|9=0055|35=5|34=6|49=EXC|56=029|52=20190725-15:36:21.649|369=5|10=223|
8=FIX.4.4|9=59|35=5|34=6|49=029|50=029B17|52=20190725-15:35:40.247|56=EXC|10=080|
8=FIX.4.4|9=110|35=A|34=1|49=029|50=029B17|52=20190725-17:09:50.528|56=EXC|43=N|98=0|108=30|141=Y|553=029FCM001|554=029FCM001|10=117|
8=FIX.4.4|9=0067|35=A|34=1|49=EXC|56=029|52=20190725-17:10:32.056|98=0|108=30|141=Y|10=014|
8=FIX.4.4|9=162|35=R|34=2|49=029|50=029B17|52=20190725-17:09:56.521|56=EXC|131=201907251209461_R|146=1|55=T24U19F|22=M|762=AFIR|54=1|38=100|1=RT001|453=1|448=037B18|447=C|452=37|10=198|
8=FIX.4.4|9=0244|35=AI|34=2|49=EXC|56=029|57=029B17|52=20190725-17:10:38.029|131=201907251209461_R|453=4|448=029B17|447=C|452=12|448=029|447=C|452=1|448=029FCM001|447=C|452=36|448=037B18|447=C|452=37|55=T24U19F|762=AFIR|48=27227|22=M|54=1|1=RT001|38=100|297=10|10=125|
8=FIX.4.4|9=0049|35=0|34=3|49=EXC|56=029|52=20190725-17:11:08.000|10=178|
8=FIX.4.4|9=59|35=0|34=3|49=029|50=029B17|52=20190725-17:10:27.230|56=EXC|10=064|
8=FIX.4.4|9=59|35=5|34=4|49=029|50=029B17|52=20190725-17:10:42.227|56=EXC|10=073|
8=FIX.4.4|9=0055|35=5|34=4|49=EXC|56=029|52=20190725-17:11:23.723|369=4|10=210|
8=FIX.4.4|9=110|35=A|34=1|49=029|50=029B17|52=20190725-18:52:13.386|56=EXC|43=N|98=0|108=30|141=Y|553=029FCM001|554=029FCM001|10=117|
8=FIX.4.4|9=0067|35=A|34=1|49=EXC|56=029|52=20190725-18:52:55.002|98=0|108=30|141=Y|10=017|
8=FIX.4.4|9=162|35=R|34=2|49=029|50=029B17|52=20190725-18:52:19.423|56=EXC|131=201907251352081_R|146=1|55=T24U19F|22=M|762=AFIR|54=1|38=100|1=RT001|453=1|448=037B18|447=C|452=37|10=194|
8=FIX.4.4|9=0244|35=AI|34=2|49=EXC|56=029|57=029B17|52=20190725-18:53:01.006|131=201907251352081_R|453=4|448=029B17|447=C|452=12|448=029|447=C|452=1|448=029FCM001|447=C|452=36|448=037B18|447=C|452=37|55=T24U19F|762=AFIR|48=27227|22=M|54=1|1=RT001|38=100|297=10|10=115|
8=FIX.4.4|9=0286|35=S|34=3|49=EXC|56=029|57=029B17|52=20190725-18:53:21.105|131=201907251352081_R|117=20190725-000000000007.00|55=T24U19F|762=AFIR|48=27227|22=M|453=4|448=029B17|447=C|452=12|448=029|447=C|452=1|448=029FCM001|447=C|452=36|448=037B18|447=C|452=37|133=100.000|135=100|62=20190830-22:00:00|10=077|
8=FIX.4.4|9=59|35=0|34=3|49=029|50=029B17|52=20190725-18:52:49.998|56=EXC|10=096|
8=FIX.4.4|9=143|35=AJ|34=4|49=029|50=029B17|52=20190725-18:52:59.769|56=EXC|54=1|55=T24U19F|117=20190725-000000000007.00|693=201907251352081_AJ|694=1|762=AFIR|10=110|
8=FIX.4.4|9=0460|35=8|34=4|49=EXC|56=029|57=029B17|52=20190725-18:53:41.347|11=201907251352081_AJ|17=5|37=0|150=F|1080=20190725-000000000007.00|1081=5|453=5|448=029B17|447=C|452=12|448=029|447=C|452=1|448=037B18|447=C|452=37|448=037|447=C|452=17|448=029FCM001|447=C|452=36|55=T24U19F|762=AFIR|48=27227|22=M|6=100.000|14=100|31=100.000|32=100|38=100|39=2|54=1|60=20190725-18:53:41.347|75=20190725|63=1|64=20190725|151=0|1=RT001|381=25000000000.000|880=201907250000000005|828=99|10=021|
8=FIX.4.4|9=162|35=R|34=5|49=029|50=029B17|52=20190725-18:53:24.858|56=EXC|131=201907251352082_R|146=1|55=T24U19F|22=M|762=AFIR|54=2|38=100|1=RT001|453=1|448=037B18|447=C|452=37|10=208|
8=FIX.4.4|9=0244|35=AI|34=5|49=EXC|56=029|57=029B17|52=20190725-18:54:06.433|131=201907251352082_R|453=4|448=029B17|447=C|452=12|448=029|447=C|452=1|448=029FCM001|447=C|452=36|448=037B18|447=C|452=37|55=T24U19F|762=AFIR|48=27227|22=M|54=2|1=RT001|38=100|297=10|10=130|
8=FIX.4.4|9=0286|35=S|34=6|49=EXC|56=029|57=029B17|52=20190725-18:54:31.479|131=201907251352082_R|117=20190725-000000000008.00|55=T24U19F|762=AFIR|48=27227|22=M|453=4|448=029B17|447=C|452=12|448=029|447=C|452=1|448=029FCM001|447=C|452=36|448=037B18|447=C|452=37|132=120.000|134=100|62=20190830-22:00:00|10=098|
8=FIX.4.4|9=59|35=0|34=6|49=029|50=029B17|52=20190725-18:53:54.989|56=EXC|10=096|
8=FIX.4.4|9=143|35=AJ|34=7|49=029|50=029B17|52=20190725-18:54:09.982|56=EXC|54=2|55=T24U19F|117=20190725-000000000008.00|693=201907251352082_AJ|694=1|762=AFIR|10=110|
8=FIX.4.4|9=0460|35=8|34=7|49=EXC|56=029|57=029B17|52=20190725-18:54:51.557|11=201907251352082_AJ|17=6|37=0|150=F|1080=20190725-000000000008.00|1081=5|453=5|448=029B17|447=C|452=12|448=029|447=C|452=1|448=037B18|447=C|452=37|448=037|447=C|452=17|448=029FCM001|447=C|452=36|55=T24U19F|762=AFIR|48=27227|22=M|6=120.000|14=100|31=120.000|32=100|38=100|39=2|54=2|60=20190725-18:54:51.557|75=20190725|63=1|64=20190725|151=0|1=RT001|381=30000000000.000|880=201907250000000006|828=99|10=039|
8=FIX.4.4|9=162|35=R|34=8|49=029|50=029B17|52=20190725-18:54:35.047|56=EXC|131=201907251352083_R|146=1|55=T24U19F|22=M|762=AFIR|54=1|38=150|1=RT001|453=1|448=037B18|447=C|452=37|10=209|
8=FIX.4.4|9=0244|35=AI|34=8|49=EXC|56=029|57=029B17|52=20190725-18:55:16.624|131=201907251352083_R|453=4|448=029B17|447=C|452=12|448=029|447=C|452=1|448=029FCM001|447=C|452=36|448=037B18|447=C|452=37|55=T24U19F|762=AFIR|48=27227|22=M|54=1|1=RT001|38=150|297=10|10=142|
8=FIX.4.4|9=0286|35=S|34=9|49=EXC|56=029|57=029B17|52=20190725-18:55:41.697|131=201907251352083_R|117=20190725-000000000009.00|55=T24U19F|762=AFIR|48=27227|22=M|453=4|448=029B17|447=C|452=12|448=029|447=C|452=1|448=029FCM001|447=C|452=36|448=037B18|447=C|452=37|133=123.000|135=150|62=20190830-22:00:00|10=117|
8=FIX.4.4|9=59|35=0|34=9|49=029|50=029B17|52=20190725-18:55:05.991|56=EXC|10=090|
8=FIX.4.4|9=144|35=AJ|34=10|49=029|50=029B17|52=20190725-18:55:20.224|56=EXC|54=1|55=T24U19F|117=20190725-000000000009.00|693=201907251352083_AJ|694=1|762=AFIR|10=137|
8=FIX.4.4|9=0461|35=8|34=10|49=EXC|56=029|57=029B17|52=20190725-18:56:01.800|11=201907251352083_AJ|17=7|37=0|150=F|1080=20190725-000000000009.00|1081=5|453=5|448=029B17|447=C|452=12|448=029|447=C|452=1|448=037B18|447=C|452=37|448=037|447=C|452=17|448=029FCM001|447=C|452=36|55=T24U19F|762=AFIR|48=27227|22=M|6=123.000|14=150|31=123.000|32=150|38=150|39=2|54=1|60=20190725-18:56:01.800|75=20190725|63=1|64=20190725|151=0|1=RT001|381=46125000000.000|880=201907250000000007|828=99|10=097|
8=FIX.4.4|9=0050|35=0|34=11|49=EXC|56=029|52=20190725-18:56:31.000|10=223|
8=FIX.4.4|9=60|35=0|34=11|49=029|50=029B17|52=20190725-18:55:50.996|56=EXC|10=128|
8=FIX.4.4|9=0050|35=0|34=12|49=EXC|56=029|52=20190725-18:57:01.000|10=222|
8=FIX.4.4|9=60|35=0|34=12|49=029|50=029B17|52=20190725-18:56:20.997|56=EXC|10=128|
8=FIX.4.4|9=0050|35=0|34=13|49=EXC|56=029|52=20190725-18:57:31.000|10=226|
8=FIX.4.4|9=60|35=0|34=13|49=029|50=029B17|52=20190725-18:56:51.000|56=EXC|10=108|
8=FIX.4.4|9=162|35=R|34=14|49=029|50=029B17|52=20190725-18:57:10.590|56=EXC|131=201907251352088_R|146=1|55=I01H99F|22=M|762=AFIR|54=1|38=-1|1=RT001|453=1|448=037B18|447=C|452=37|10=181|
8=FIX.4.4|9=0132|35=3|34=14|49=EXC|56=029|52=20190725-18:57:52.171|45=14|371=38|372=R|373=6|58=(1462): OrderQty(#38) contiene informacion incorrecta|10=048|
8=FIX.4.4|9=161|35=R|34=15|49=029|50=029B17|52=20190725-18:57:25.636|56=EXC|131=201907251352089_R|146=1|55=I06H99F|22=M|762=AFIR|54=1|38=7|1=RT001|453=1|448=037B18|447=C|452=37|10=155|
8=FIX.4.4|9=0243|35=AI|34=15|49=EXC|56=029|57=029B17|52=20190725-18:58:07.223|131=201907251352089_R|453=4|448=029B17|447=C|452=12|448=029|447=C|452=1|448=029FCM001|447=C|452=36|448=037B18|447=C|452=37|55=I06H99F|762=AFIR|48=27166|22=M|54=1|1=RT001|38=7|297=10|10=082|
8=FIX.4.4|9=161|35=R|34=16|49=029|50=029B17|52=20190725-18:57:50.673|56=EXC|131=201907251352089_R|146=1|55=I06H99F|22=M|762=AFIR|54=1|38=0|1=RT001|453=1|448=037B18|447=C|452=37|10=148|
8=FIX.4.4|9=0243|35=AI|34=16|49=EXC|56=029|57=029B17|52=20190725-18:58:32.254|131=201907251352089_R|453=4|448=029B17|447=C|452=12|448=029|447=C|452=1|448=029FCM001|447=C|452=36|448=037B18|447=C|452=37|55=I06H99F|762=AFIR|48=27166|22=M|54=1|1=RT001|38=7|297=17|10=092|
8=FIX.4.4|9=0050|35=0|34=17|49=EXC|56=029|52=20190725-18:59:02.000|10=230|
8=FIX.4.4|9=60|35=0|34=17|49=029|50=029B17|52=20190725-18:58:20.995|56=EXC|10=133|
8=FIX.4.4|9=0050|35=0|34=18|49=EXC|56=029|52=20190725-18:59:32.000|10=234|
8=FIX.4.4|9=60|35=0|34=18|49=029|50=029B17|52=20190725-18:58:50.994|56=EXC|10=136|
8=FIX.4.4|9=60|35=5|34=19|49=029|50=029B17|52=20190725-18:59:06.995|56=EXC|10=145|
8=FIX.4.4|9=0057|35=5|34=19|49=EXC|56=029|52=20190725-18:59:48.569|369=19|10=092|
8=FIX.4.4|9=110|35=A|34=1|49=029|50=029B17|52=20190725-20:53:37.105|56=EXC|43=N|98=0|108=30|141=Y|553=029FCM001|554=029FCM001|10=106|
8=FIX.4.4|9=0067|35=A|34=1|49=EXC|56=029|52=20190725-15:57:57.802|98=0|108=30|141=Y|10=029|
8=FIX.4.4|9=162|35=R|34=2|49=029|50=029B17|52=20190725-20:53:43.160|56=EXC|131=201907251553323_R|146=1|55=T24U19F|22=M|762=AFIR|54=1|38=150|1=RT001|453=1|448=037B18|447=C|452=37|10=190|
8=FIX.4.4|9=0244|35=AI|34=2|49=EXC|56=029|57=029B17|52=20190725-15:58:03.839|131=201907251553323_R|453=4|448=029B17|447=C|452=12|448=029|447=C|452=1|448=029FCM001|447=C|452=36|448=037B18|447=C|452=37|55=T24U19F|762=AFIR|48=27227|22=M|54=1|1=RT001|38=150|297=10|10=140|
8=FIX.4.4|9=0286|35=S|34=3|49=EXC|56=029|57=029B17|52=20190725-15:58:23.934|131=201907251553323_R|117=20190725-000000000016.00|55=T24U19F|762=AFIR|48=27227|22=M|453=4|448=029B17|447=C|452=12|448=029|447=C|452=1|448=029FCM001|447=C|452=36|448=037B18|447=C|452=37|133=123.000|135=150|62=20190830-22:00:00|10=103|
8=FIX.4.4|9=59|35=0|34=3|49=029|50=029B17|52=20190725-20:54:13.730|56=EXC|10=066|
8=FIX.4.4|9=143|35=AJ|34=4|49=029|50=029B17|52=20190725-20:54:23.333|56=EXC|54=1|55=T24U19F|117=20190725-000000000016.00|693=201907251553323_AJ|694=1|762=AFIR|10=085|
8=FIX.4.4|9=0460|35=8|34=4|49=EXC|56=029|57=029B17|52=20190725-15:58:44.004|11=201907251553323_AJ|17=4|37=0|150=F|1080=20190725-000000000016.00|1081=5|453=5|448=029B17|447=C|452=12|448=029|447=C|452=1|448=037B18|447=C|452=37|448=037|447=C|452=17|448=029FCM001|447=C|452=36|55=T24U19F|762=AFIR|48=27227|22=M|6=123.000|14=150|31=123.000|32=150|38=150|39=2|54=1|60=20190725-15:58:44.004|75=20190725|63=1|64=20190725|151=0|1=RT001|381=46125000000.000|880=201907250000000004|828=99|10=047|
8=FIX.4.4|9=0049|35=0|34=5|49=EXC|56=029|52=20190725-15:59:14.000|10=187|
8=FIX.4.4|9=59|35=5|34=5|49=029|50=029B17|52=20190725-20:54:53.636|56=EXC|10=082|
8=FIX.4.4|9=0055|35=5|34=6|49=EXC|56=029|52=20190725-15:59:14.312|369=5|10=217|
8=FIX.4.4|9=110|35=A|34=1|49=029|50=029B17|52=20190726-14:12:07.128|56=EXC|43=N|98=0|108=30|141=Y|553=029FCM001|554=029FCM001|10=107|
8=FIX.4.4|9=0067|35=A|34=1|49=EXC|56=029|52=20190726-14:12:49.488|98=0|108=30|141=Y|10=031|
8=FIX.4.4|9=59|35=5|34=2|49=029|50=029B17|52=20190726-14:12:33.721|56=EXC|10=070|
8=FIX.4.4|9=0055|35=5|34=2|49=EXC|56=029|52=20190726-14:13:16.052|369=2|10=203|
8=FIX.4.4|9=110|35=A|34=1|49=029|50=029B17|52=20190726-15:54:34.626|56=EXC|43=N|98=0|108=30|141=Y|553=029FCM001|554=029FCM001|10=117|
8=FIX.4.4|9=0067|35=A|34=1|49=EXC|56=029|52=20190726-15:55:17.063|98=0|108=30|141=Y|10=023|
8=FIX.4.4|9=59|35=5|34=2|49=029|50=029B17|52=20190726-15:55:01.298|56=EXC|10=082|
8=FIX.4.4|9=0055|35=5|34=2|49=EXC|56=029|52=20190726-15:55:43.695|369=2|10=223|
8=FIX.4.4|9=110|35=A|34=1|49=029|50=029B17|52=20190726-19:38:05.073|56=EXC|43=N|98=0|108=30|141=Y|553=029FCM001|554=029FCM001|10=117|
8=FIX.4.4|9=0067|35=A|34=1|49=EXC|56=029|52=20190726-15:35:59.692|98=0|108=30|141=Y|10=035|
8=FIX.4.4|9=162|35=R|34=2|49=029|50=029B17|52=20190726-19:38:11.061|56=EXC|131=201907261438003_R|146=1|55=T24U19F|22=M|762=AFIR|54=1|38=150|1=RT001|453=1|448=037B18|447=C|452=37|10=195|
8=FIX.4.4|9=0244|35=AI|34=2|49=EXC|56=029|57=029B17|52=20190726-15:36:05.638|131=201907261438003_R|453=4|448=029B17|447=C|452=12|448=029|447=C|452=1|448=029FCM001|447=C|452=36|448=037B18|447=C|452=37|55=T24U19F|762=AFIR|48=27227|22=M|54=1|1=RT001|38=150|297=10|10=134|
8=FIX.4.4|9=0049|35=0|34=3|49=EXC|56=029|52=20190726-15:36:35.000|10=184|
8=FIX.4.4|9=59|35=0|34=3|49=029|50=029B17|52=20190726-19:38:41.786|56=EXC|10=089|
8=FIX.4.4|9=59|35=5|34=4|49=029|50=029B17|52=20190726-19:38:56.784|56=EXC|10=099|
8=FIX.4.4|9=0055|35=5|34=4|49=EXC|56=029|52=20190726-15:36:51.350|369=4|10=213|
8=FIX.4.4|9=110|35=A|34=1|49=029|50=029B17|52=20190726-19:58:03.299|56=EXC|43=N|98=0|108=30|141=Y|553=029FCM001|554=029FCM001|10=127|
8=FIX.4.4|9=0067|35=A|34=1|49=EXC|56=029|52=20190726-15:55:57.912|98=0|108=30|141=Y|10=030|
8=FIX.4.4|9=162|35=R|34=2|49=029|50=029B17|52=20190726-19:58:09.329|56=EXC|131=201907261457581_R|146=1|55=T24U19F|22=M|762=AFIR|54=1|38=100|1=RT001|453=1|448=037B18|447=C|452=37|10=218|
8=FIX.4.4|9=0244|35=AI|34=2|49=EXC|56=029|57=029B17|52=20190726-15:56:03.916|131=201907261457581_R|453=4|448=029B17|447=C|452=12|448=029|447=C|452=1|448=029FCM001|447=C|452=36|448=037B18|447=C|452=37|55=T24U19F|762=AFIR|48=27227|22=M|54=1|1=RT001|38=100|297=10|10=140|
8=FIX.4.4|9=0286|35=S|34=3|49=EXC|56=029|57=029B17|52=20190726-15:56:24.034|131=201907261457581_R|117=20190726-000000000017.00|55=T24U19F|762=AFIR|48=27227|22=M|453=4|448=029B17|447=C|452=12|448=029|447=C|452=1|448=029FCM001|447=C|452=36|448=037B18|447=C|452=37|133=120.000|135=100|62=20190830-22:00:00|10=098|
8=FIX.4.4|9=59|35=0|34=3|49=029|50=029B17|52=20190726-19:58:40.028|56=EXC|10=079|
8=FIX.4.4|9=143|35=AJ|34=4|49=029|50=029B17|52=20190726-19:58:49.500|56=EXC|54=1|55=T24U19F|117=20190726-000000000017.00|693=201907261457581_AJ|694=1|762=AFIR|10=114|
8=FIX.4.4|9=0460|35=8|34=4|49=EXC|56=029|57=029B17|52=20190726-15:56:44.081|11=201907261457581_AJ|17=4|37=0|150=F|1080=20190726-000000000017.00|1081=5|453=5|448=029B17|447=C|452=12|448=029|447=C|452=1|448=037B18|447=C|452=37|448=037|447=C|452=17|448=029FCM001|447=C|452=36|55=T24U19F|762=AFIR|48=27227|22=M|6=120.000|14=100|31=120.000|32=100|38=100|39=2|54=1|60=20190726-15:56:44.081|75=20190726|63=1|64=20190726|151=0|1=RT001|381=30000000000.000|880=201907260000000004|828=99|10=034|
8=FIX.4.4|9=162|35=R|34=5|49=029|50=029B17|52=20190726-19:59:14.604|56=EXC|131=201907261457582_R|146=1|55=T24U19F|22=M|762=AFIR|54=2|38=100|1=RT001|453=1|448=037B18|447=C|452=37|10=216|
8=FIX.4.4|9=0244|35=AI|34=5|49=EXC|56=029|57=029B17|52=20190726-15:57:09.189|131=201907261457582_R|453=4|448=029B17|447=C|452=12|448=029|447=C|452=1|448=029FCM001|447=C|452=36|448=037B18|447=C|452=37|55=T24U19F|762=AFIR|48=27227|22=M|54=2|1=RT001|38=100|297=10|10=154|
8=FIX.4.4|9=0286|35=S|34=6|49=EXC|56=029|57=029B17|52=20190726-15:57:29.316|131=201907261457582_R|117=20190726-000000000018.00|55=T24U19F|762=AFIR|48=27227|22=M|453=4|448=029B17|447=C|452=12|448=029|447=C|452=1|448=029FCM001|447=C|452=36|448=037B18|447=C|452=37|132=120.000|134=100|62=20190830-22:00:00|10=110|
8=FIX.4.4|9=59|35=0|34=6|49=029|50=029B17|52=20190726-19:59:45.037|56=EXC|10=088|
8=FIX.4.4|9=143|35=AJ|34=7|49=029|50=029B17|52=20190726-19:59:54.781|56=EXC|54=2|55=T24U19F|117=20190726-000000000018.00|693=201907261457582_AJ|694=1|762=AFIR|10=128|
8=FIX.4.4|9=0460|35=8|34=7|49=EXC|56=029|57=029B17|52=20190726-15:57:49.362|11=201907261457582_AJ|17=5|37=0|150=F|1080=20190726-000000000018.00|1081=5|453=5|448=029B17|447=C|452=12|448=029|447=C|452=1|448=037B18|447=C|452=37|448=037|447=C|452=17|448=029FCM001|447=C|452=36|55=T24U19F|762=AFIR|48=27227|22=M|6=120.000|14=100|31=120.000|32=100|38=100|39=2|54=2|60=20190726-15:57:49.362|75=20190726|63=1|64=20190726|151=0|1=RT001|381=30000000000.000|880=201907260000000005|828=99|10=058|
8=FIX.4.4|9=162|35=R|34=8|49=029|50=029B17|52=20190726-20:00:19.864|56=EXC|131=201907261457583_R|146=1|55=T24U19F|22=M|762=AFIR|54=1|38=150|1=RT001|453=1|448=037B18|447=C|452=37|10=215|
8=FIX.4.4|9=0244|35=AI|34=8|49=EXC|56=029|57=029B17|52=20190726-15:58:14.448|131=201907261457583_R|453=4|448=029B17|447=C|452=12|448=029|447=C|452=1|448=029FCM001|447=C|452=36|448=037B18|447=C|452=37|55=T24U19F|762=AFIR|48=27227|22=M|54=1|1=RT001|38=150|297=10|10=157|
8=FIX.4.4|9=0049|35=0|34=9|49=EXC|56=029|52=20190726-15:58:44.000|10=194|
8=FIX.4.4|9=59|35=0|34=9|49=029|50=029B17|52=20190726-20:00:50.035|56=EXC|10=063|
8=FIX.4.4|9=0050|35=0|34=10|49=EXC|56=029|52=20190726-15:59:14.000|10=224|
8=FIX.4.4|9=60|35=0|34=10|49=029|50=029B17|52=20190726-20:01:20.034|56=EXC|10=092|
8=FIX.4.4|9=0050|35=0|34=11|49=EXC|56=029|52=20190726-15:59:44.000|10=228|
8=FIX.4.4|9=60|35=0|34=11|49=029|50=029B17|52=20190726-20:01:50.036|56=EXC|10=098|
8=FIX.4.4|9=0050|35=0|34=12|49=EXC|56=029|52=20190726-16:00:14.000|10=213|
8=FIX.4.4|9=60|35=0|34=12|49=029|50=029B17|52=20190726-20:02:20.033|56=EXC|10=094|
8=FIX.4.4|9=162|35=R|34=13|49=029|50=029B17|52=20190726-20:02:30.175|56=EXC|131=201907261457588_R|146=1|55=I01H99F|22=M|762=AFIR|54=1|38=-1|1=RT001|453=1|448=037B18|447=C|452=37|10=177|
8=FIX.4.4|9=0132|35=3|34=13|49=EXC|56=029|52=20190726-16:00:24.765|45=13|371=38|372=R|373=6|58=(1462): OrderQty(#38) contiene informacion incorrecta|10=041|
8=FIX.4.4|9=161|35=R|34=14|49=029|50=029B17|52=20190726-20:02:45.206|56=EXC|131=201907261457589_R|146=1|55=I06H99F|22=M|762=AFIR|54=1|38=7|1=RT001|453=1|448=037B18|447=C|452=37|10=145|
8=FIX.4.4|9=0243|35=AI|34=14|49=EXC|56=029|57=029B17|52=20190726-16:00:39.796|131=201907261457589_R|453=4|448=029B17|447=C|452=12|448=029|447=C|452=1|448=029FCM001|447=C|452=36|448=037B18|447=C|452=37|55=I06H99F|762=AFIR|48=27166|22=M|54=1|1=RT001|38=7|297=10|10=099|
8=FIX.4.4|9=161|35=R|34=15|49=029|50=029B17|52=20190726-20:03:10.246|56=EXC|131=201907261457589_R|146=1|55=I06H99F|22=M|762=AFIR|54=1|38=0|1=RT001|453=1|448=037B18|447=C|452=37|10=136|
8=FIX.4.4|9=0243|35=AI|34=15|49=EXC|56=029|57=029B17|52=20190726-16:01:04.834|131=201907261457589_R|453=4|448=029B17|447=C|452=12|448=029|447=C|452=1|448=029FCM001|447=C|452=36|448=037B18|447=C|452=37|55=I06H99F|762=AFIR|48=27166|22=M|54=1|1=RT001|38=7|297=17|10=093|
8=FIX.4.4|9=0050|35=0|34=16|49=EXC|56=029|52=20190726-16:01:34.000|10=220|
8=FIX.4.4|9=60|35=0|34=16|49=029|50=029B17|52=20190726-20:03:41.033|56=EXC|10=102|
8=FIX.4.4|9=0050|35=0|34=17|49=EXC|56=029|52=20190726-16:02:04.000|10=219|
8=FIX.4.4|9=60|35=0|34=17|49=029|50=029B17|52=20190726-20:04:11.033|56=EXC|10=101|
8=FIX.4.4|9=60|35=5|34=18|49=029|50=029B17|52=20190726-20:04:26.033|56=EXC|10=113|
8=FIX.4.4|9=0057|35=5|34=18|49=EXC|56=029|52=20190726-16:02:20.617|369=18|10=061|
8=FIX.4.4|9=110|35=A|34=1|49=029|50=029B17|52=20190726-20:19:51.358|56=EXC|43=N|98=0|108=30|141=Y|553=029FCM001|554=029FCM001|10=115|
8=FIX.4.4|9=0067|35=A|34=1|49=EXC|56=029|52=20190726-16:17:46.029|98=0|108=30|141=Y|10=026|
8=FIX.4.4|9=162|35=R|34=2|49=029|50=029B17|52=20190726-20:19:57.455|56=EXC|131=2019072615194615_R|146=1|55=T24U19F|22=M|762=AFIR|54=1|38=60|1=RT001|453=1|448=037B18|447=C|452=37|10=216|
8=FIX.4.4|9=0244|35=AI|34=2|49=EXC|56=029|57=029B17|52=20190726-16:17:52.059|131=2019072615194615_R|453=4|448=029B17|447=C|452=12|448=029|447=C|452=1|448=029FCM001|447=C|452=36|448=037B18|447=C|452=37|55=T24U19F|762=AFIR|48=27227|22=M|54=1|1=RT001|38=60|297=10|10=146|
8=FIX.4.4|9=0049|35=0|34=3|49=EXC|56=029|52=20190726-16:18:22.000|10=181|
8=FIX.4.4|9=59|35=0|34=3|49=029|50=029B17|52=20190726-20:20:28.069|56=EXC|10=071|
8=FIX.4.4|9=162|35=R|34=4|49=029|50=029B17|52=20190726-20:20:37.794|56=EXC|131=2019072615194616_R|146=1|55=T24U19F|22=M|762=AFIR|54=1|38=48|1=RT001|453=1|448=037B18|447=C|452=37|10=221|
8=FIX.4.4|9=0244|35=AI|34=4|49=EXC|56=029|57=029B17|52=20190726-16:18:32.396|131=2019072615194616_R|453=4|448=029B17|447=C|452=12|448=029|447=C|452=1|448=029FCM001|447=C|452=36|448=037B18|447=C|452=37|55=T24U19F|762=AFIR|48=27227|22=M|54=1|1=RT001|38=48|297=10|10=158|
8=FIX.4.4|9=0049|35=0|34=5|49=EXC|56=029|52=20190726-16:19:02.000|10=182|
8=FIX.4.4|9=59|35=0|34=5|49=029|50=029B17|52=20190726-20:21:08.068|56=EXC|10=071|
8=FIX.4.4|9=163|35=R|34=6|49=029|50=029B17|52=20190726-20:21:23.117|56=EXC|131=2019072615194617_R|146=1|55=T24U19F|22=M|762=AFIR|54=2|38=120|1=RT001|453=1|448=037B18|447=C|452=37|10=250|
8=FIX.4.4|9=0245|35=AI|34=6|49=EXC|56=029|57=029B17|52=20190726-16:19:17.720|131=2019072615194617_R|453=4|448=029B17|447=C|452=12|448=029|447=C|452=1|448=029FCM001|447=C|452=36|448=037B18|447=C|452=37|55=T24U19F|762=AFIR|48=27227|22=M|54=2|1=RT001|38=120|297=10|10=197|
8=FIX.4.4|9=0049|35=0|34=7|49=EXC|56=029|52=20190726-16:19:47.000|10=193|
8=FIX.4.4|9=59|35=0|34=7|49=029|50=029B17|52=20190726-20:21:54.070|56=EXC|10=067|
8=FIX.4.4|9=162|35=R|34=8|49=029|50=029B17|52=20190726-20:22:08.192|56=EXC|131=2019072615194618_R|146=1|55=T24U19F|22=M|762=AFIR|54=1|38=65|1=RT001|453=1|448=037B18|447=C|452=37|10=218|
8=FIX.4.4|9=0244|35=AI|34=8|49=EXC|56=029|57=029B17|52=20190726-16:20:02.792|131=2019072615194618_R|453=4|448=029B17|447=C|452=12|448=029|447=C|452=1|448=029FCM001|447=C|452=36|448=037B18|447=C|452=37|55=T24U19F|762=AFIR|48=27227|22=M|54=1|1=RT001|38=65|297=10|10=153|
8=FIX.4.4|9=0049|35=0|34=9|49=EXC|56=029|52=20190726-16:20:32.000|10=181|
8=FIX.4.4|9=59|35=0|34=9|49=029|50=029B17|52=20190726-20:22:39.065|56=EXC|10=077|
8=FIX.4.4|9=164|35=R|34=10|49=029|50=029B17|52=20190726-20:22:53.287|56=EXC|131=2019072615194619_R|146=1|55=T24U19F|22=M|762=AFIR|54=1|38=146|1=RT001|453=1|448=037B18|447=C|452=37|10=059|
8=FIX.4.4|9=0246|35=AI|34=10|49=EXC|56=029|57=029B17|52=20190726-16:20:47.888|131=2019072615194619_R|453=4|448=029B17|447=C|452=12|448=029|447=C|452=1|448=029FCM001|447=C|452=36|448=037B18|447=C|452=37|55=T24U19F|762=AFIR|48=27227|22=M|54=1|1=RT001|38=146|297=10|10=004|
8=FIX.4.4|9=0050|35=0|34=11|49=EXC|56=029|52=20190726-16:21:17.000|10=218|
8=FIX.4.4|9=60|35=0|34=11|49=029|50=029B17|52=20190726-20:23:24.069|56=EXC|10=109|
8=FIX.4.4|9=164|35=R|34=12|49=029|50=029B17|52=20190726-20:23:38.375|56=EXC|131=2019072615194620_R|146=1|55=T24U19F|22=M|762=AFIR|54=2|38=130|1=RT001|453=1|448=037B18|447=C|452=37|10=049|
8=FIX.4.4|9=0246|35=AI|34=12|49=EXC|56=029|57=029B17|52=20190726-16:21:32.980|131=2019072615194620_R|453=4|448=029B17|447=C|452=12|448=029|447=C|452=1|448=029FCM001|447=C|452=36|448=037B18|447=C|452=37|55=T24U19F|762=AFIR|48=27227|22=M|54=2|1=RT001|38=130|297=10|10=236|
8=FIX.4.4|9=0050|35=0|34=13|49=EXC|56=029|52=20190726-16:22:02.000|10=215|
8=FIX.4.4|9=60|35=0|34=13|49=029|50=029B17|52=20190726-20:24:09.068|56=EXC|10=114|
8=FIX.4.4|9=60|35=5|34=14|49=029|50=029B17|52=20190726-20:24:29.074|56=EXC|10=119|
8=FIX.4.4|9=0057|35=5|34=14|49=EXC|56=029|52=20190726-16:22:23.671|369=14|10=058|
