8=FIX.4.4|9=105|35=A|34=1|49=007|50=007B26|52=20190612-16:29:19.914|56=EXC|98=0|108=30|141=Y|553=007FCE001|554=007FCE001|10=102|
8=FIX.4.4|9=0067|35=A|34=1|49=EXC|56=007|52=20190612-16:29:19.930|98=0|108=30|141=Y|10=020|
8=FIX.4.4|9=0049|35=0|34=2|49=EXC|56=007|52=20190612-16:29:49.000|10=181|
8=FIX.4.4|9=59|35=0|34=2|49=007|50=007B26|52=20190612-16:29:50.833|56=EXC|10=064|
8=FIX.4.4|9=0049|35=0|34=3|49=EXC|56=007|52=20190612-16:30:19.000|10=171|
8=FIX.4.4|9=59|35=0|34=3|49=007|50=007B26|52=20190612-16:30:20.837|56=EXC|10=058|
8=FIX.4.4|9=105|35=A|34=1|49=007|50=007B26|52=20190612-16:44:39.950|56=EXC|98=0|108=30|141=Y|553=007FCE001|554=007FCE001|10=101|
8=FIX.4.4|9=0067|35=A|34=1|49=EXC|56=007|52=20190612-16:44:39.982|98=0|108=30|141=Y|10=026|
8=FIX.4.4|9=0049|35=0|34=2|49=EXC|56=007|52=20190612-16:45:09.000|10=175|
8=FIX.4.4|9=59|35=0|34=2|49=007|50=007B26|52=20190612-16:45:10.922|56=EXC|10=057|
8=FIX.4.4|9=105|35=A|34=1|49=007|50=007B26|52=20190612-16:55:03.330|56=EXC|98=0|108=30|141=Y|553=007FCE001|554=007FCE001|10=086|
8=FIX.4.4|9=0067|35=A|34=1|49=EXC|56=007|52=20190612-16:55:03.356|98=0|108=30|141=Y|10=014|
8=FIX.4.4|9=105|35=A|34=1|49=007|50=007B26|52=20190612-16:56:24.146|56=EXC|98=0|108=30|141=Y|553=007FCE001|554=007FCE001|10=095|
8=FIX.4.4|9=0067|35=A|34=1|49=EXC|56=007|52=20190612-16:56:24.176|98=0|108=30|141=Y|10=018|
8=FIX.4.4|9=0049|35=0|34=2|49=EXC|56=007|52=20190612-16:56:54.000|10=177|
8=FIX.4.4|9=59|35=0|34=2|49=007|50=007B26|52=20190612-16:56:55.073|56=EXC|10=065|
8=FIX.4.4|9=0049|35=0|34=3|49=EXC|56=007|52=20190612-16:57:24.000|10=176|
8=FIX.4.4|9=59|35=0|34=3|49=007|50=007B26|52=20190612-16:57:25.090|56=EXC|10=063|
8=FIX.4.4|9=105|35=A|34=1|49=007|50=007B26|52=20190612-19:36:17.110|56=EXC|98=0|108=30|141=Y|553=007FCE001|554=007FCE001|10=089|
8=FIX.4.4|9=0067|35=A|34=1|49=EXC|56=007|52=20190612-19:36:17.155|98=0|108=30|141=Y|10=018|
8=FIX.4.4|9=0049|35=0|34=2|49=EXC|56=007|52=20190612-19:36:47.000|10=180|
8=FIX.4.4|9=59|35=0|34=2|49=007|50=007B26|52=20190612-19:36:48.058|56=EXC|10=071|
8=FIX.4.4|9=105|35=A|34=1|49=007|50=007B26|52=20190612-19:56:51.751|56=EXC|98=0|108=30|141=Y|553=007FCE001|554=007FCE001|10=100|
8=FIX.4.4|9=0067|35=A|34=1|49=EXC|56=007|52=20190612-19:56:51.788|98=0|108=30|141=Y|10=030|
8=FIX.4.4|9=0049|35=0|34=2|49=EXC|56=007|52=20190612-19:57:21.000|10=175|
8=FIX.4.4|9=59|35=0|34=2|49=007|50=007B26|52=20190612-19:57:22.734|56=EXC|10=067|
8=FIX.4.4|9=0049|35=0|34=3|49=EXC|56=007|52=20190612-19:57:51.000|10=179|
8=FIX.4.4|9=59|35=0|34=3|49=007|50=007B26|52=20190612-19:57:52.734|56=EXC|10=071|
8=FIX.4.4|9=105|35=A|34=1|49=007|50=007B26|52=20190612-19:58:09.055|56=EXC|98=0|108=30|141=Y|553=007FCE001|554=007FCE001|10=102|
8=FIX.4.4|9=0067|35=A|34=1|49=EXC|56=007|52=20190612-19:58:09.091|98=0|108=30|141=Y|10=022|
8=FIX.4.4|9=0049|35=0|34=2|49=EXC|56=007|52=20190612-19:58:39.000|10=185|
8=FIX.4.4|9=59|35=0|34=2|49=007|50=007B26|52=20190612-19:58:40.028|56=EXC|10=064|
8=FIX.4.4|9=0049|35=0|34=3|49=EXC|56=007|52=20190612-19:59:09.000|10=184|
8=FIX.4.4|9=59|35=0|34=3|49=007|50=007B26|52=20190612-19:59:10.028|56=EXC|10=063|
8=FIX.4.4|9=105|35=A|34=1|49=007|50=007B26|52=20190612-20:04:55.495|56=EXC|98=0|108=30|141=Y|553=007FCE001|554=007FCE001|10=094|
8=FIX.4.4|9=0067|35=A|34=1|49=EXC|56=007|52=20190612-20:04:55.532|98=0|108=30|141=Y|10=006|
8=FIX.4.4|9=0049|35=0|34=2|49=EXC|56=007|52=20190612-20:05:25.000|10=164|
8=FIX.4.4|9=59|35=0|34=2|49=007|50=007B26|52=20190612-20:05:26.440|56=EXC|10=050|
8=FIX.4.4|9=0049|35=0|34=3|49=EXC|56=007|52=20190612-20:05:55.000|10=168|
8=FIX.4.4|9=59|35=0|34=3|49=007|50=007B26|52=20190612-20:05:56.442|56=EXC|10=056|
