8=FIX.4.4|9=110|35=A|34=1|49=045|50=045B17|52=20190718-18:54:54.862|56=EXC|43=N|98=0|108=30|141=Y|553=045FCM001|554=045FCM001|10=117|
8=FIX.4.4|9=0067|35=A|34=1|49=EXC|56=045|52=20190718-18:55:39.126|98=0|108=30|141=Y|10=029|
8=FIX.4.4|9=0049|35=0|34=2|49=EXC|56=045|52=20190718-18:56:09.000|10=188|
8=FIX.4.4|9=59|35=0|34=2|49=045|50=045B17|52=20190718-18:55:25.843|56=EXC|10=079|
8=FIX.4.4|9=0049|35=0|34=3|49=EXC|56=045|52=20190718-18:56:39.000|10=192|
8=FIX.4.4|9=59|35=0|34=3|49=045|50=045B17|52=20190718-18:55:55.844|56=EXC|10=084|
8=FIX.4.4|9=110|35=A|34=1|49=045|50=045B17|52=20190718-19:01:01.837|56=EXC|43=N|98=0|108=30|141=Y|553=045FCM001|554=045FCM001|10=104|
8=FIX.4.4|9=0067|35=A|34=1|49=EXC|56=045|52=20190718-19:01:46.047|98=0|108=30|141=Y|10=021|
8=FIX.4.4|9=0049|35=0|34=2|49=EXC|56=045|52=20190718-19:02:16.000|10=178|
8=FIX.4.4|9=59|35=0|34=2|49=045|50=045B17|52=20190718-19:01:32.773|56=EXC|10=071|
8=FIX.4.4|9=110|35=A|34=1|49=045|50=045B17|52=20190718-19:04:31.703|56=EXC|43=N|98=0|108=30|141=Y|553=045FCM001|554=045FCM001|10=102|
8=FIX.4.4|9=0067|35=A|34=1|49=EXC|56=045|52=20190718-19:05:15.910|98=0|108=30|141=Y|10=020|
8=FIX.4.4|9=0049|35=0|34=2|49=EXC|56=045|52=20190718-19:05:45.000|10=183|
8=FIX.4.4|9=59|35=0|34=2|49=045|50=045B17|52=20190718-19:05:02.467|56=EXC|10=072|
8=FIX.4.4|9=110|35=A|34=1|49=045|50=045B17|52=20190718-19:41:04.148|56=EXC|43=N|98=0|108=30|141=Y|553=045FCM001|554=045FCM001|10=106|
8=FIX.4.4|9=0067|35=A|34=1|49=EXC|56=045|52=20190718-19:41:38.232|98=0|108=30|141=Y|10=022|
8=FIX.4.4|9=0049|35=0|34=2|49=EXC|56=045|52=20190718-19:42:08.000|10=183|
8=FIX.4.4|9=59|35=0|34=2|49=045|50=045B17|52=20190718-19:41:35.137|56=EXC|10=072|
8=FIX.4.4|9=0049|35=0|34=3|49=EXC|56=045|52=20190718-19:42:38.000|10=187|
8=FIX.4.4|9=59|35=0|34=3|49=045|50=045B17|52=20190718-19:42:05.135|56=EXC|10=069|
8=FIX.4.4|9=59|35=5|34=4|49=045|50=045B17|52=20190718-19:42:22.140|56=EXC|10=070|
8=FIX.4.4|9=0055|35=5|34=4|49=EXC|56=045|52=20190718-19:42:56.189|369=4|10=228|
8=FIX.4.4|9=110|35=A|34=1|49=045|50=045B17|52=20190719-14:44:06.790|56=EXC|43=N|98=0|108=30|141=Y|553=045FCM001|554=045FCM001|10=110|
8=FIX.4.4|9=0067|35=A|34=1|49=EXC|56=045|52=20190719-14:44:41.737|98=0|108=30|141=Y|10=025|
8=FIX.4.4|9=110|35=A|34=1|49=045|50=045B17|52=20190719-14:56:25.785|56=EXC|43=N|98=0|108=30|141=Y|553=045FCM001|554=045FCM001|10=118|
8=FIX.4.4|9=0067|35=A|34=1|49=EXC|56=045|52=20190719-14:57:00.787|98=0|108=30|141=Y|10=029|
8=FIX.4.4|9=0049|35=0|34=2|49=EXC|56=045|52=20190719-14:57:30.000|10=180|
8=FIX.4.4|9=59|35=0|34=2|49=045|50=045B17|52=20190719-14:56:56.467|56=EXC|10=083|
8=FIX.4.4|9=110|35=A|34=1|49=045|50=045B17|52=20190719-15:37:21.309|56=EXC|43=N|98=0|108=30|141=Y|553=045FCM001|554=045FCM001|10=106|
8=FIX.4.4|9=0067|35=A|34=1|49=EXC|56=045|52=20190719-15:37:56.296|98=0|108=30|141=Y|10=034|
8=FIX.4.4|9=0049|35=0|34=2|49=EXC|56=045|52=20190719-15:38:26.000|10=185|
8=FIX.4.4|9=59|35=0|34=2|49=045|50=045B17|52=20190719-15:37:51.862|56=EXC|10=077|
8=FIX.4.4|9=0049|35=0|34=3|49=EXC|56=045|52=20190719-15:38:56.000|10=189|
8=FIX.4.4|9=59|35=0|34=3|49=045|50=045B17|52=20190719-15:38:22.001|56=EXC|10=062|
8=FIX.4.4|9=0049|35=0|34=4|49=EXC|56=045|52=20190719-15:39:26.000|10=188|
8=FIX.4.4|9=59|35=0|34=4|49=045|50=045B17|52=20190719-15:38:52.865|56=EXC|10=084|
8=FIX.4.4|9=0049|35=0|34=5|49=EXC|56=045|52=20190719-15:39:56.000|10=192|
8=FIX.4.4|9=59|35=0|34=5|49=045|50=045B17|52=20190719-15:39:22.858|56=EXC|10=085|
8=FIX.4.4|9=158|35=R|34=6|49=045|50=045B17|52=20190719-15:39:37.628|56=EXC|131=201907191037164_R|146=1|55=   |22=M|762=AFIR|54=1|38=200|1=RP001|453=1|448=051B17|447=C|452=37|10=113|
8=FIX.4.4|9=0153|35=AG|34=6|49=EXC|56=045|57=045B17|52=20190719-15:40:12.593|131=201907191037164_R|658=1|146=1|55=   |762=AFIR|22=M|38=200|58=(1479): Simbolo desconocido|10=129|
8=FIX.4.4|9=161|35=R|34=7|49=045|50=045B17|52=20190719-15:39:52.687|56=EXC|131=201907191037165_R|146=1|55=CPIH17F|22=M|762=AFIR|54=1|38=90|1=RP001|453=1|448=051B17|447=C|452=37|10=184|
8=FIX.4.4|9=0156|35=AG|34=7|49=EXC|56=045|57=045B17|52=20190719-15:40:27.664|131=201907191037165_R|658=1|146=1|55=CPIH17F|762=AFIR|22=M|38=90|58=(1479): Simbolo desconocido|10=212|
8=FIX.4.4|9=162|35=R|34=8|49=045|50=045B17|52=20190719-15:40:12.755|56=EXC|131=201907191037166_R|146=1|55=T24U19F|22=M|762=AFIR|54=1|38=110|1=RP001|453=1|448=051B17|447=C|452=37|10=193|
8=FIX.4.4|9=0244|35=AI|34=8|49=EXC|56=045|57=045B17|52=20190719-15:40:47.722|131=201907191037166_R|453=4|448=045B17|447=C|452=12|448=045|447=C|452=1|448=045FCM001|447=C|452=36|448=051B17|447=C|452=37|55=T24U19F|762=AFIR|48=27227|22=M|54=1|1=RP001|38=110|297=10|10=121|
8=FIX.4.4|9=0049|35=0|34=9|49=EXC|56=045|52=20190719-15:41:17.000|10=186|
8=FIX.4.4|9=59|35=0|34=9|49=045|50=045B17|52=20190719-15:40:42.860|56=EXC|10=076|
8=FIX.4.4|9=161|35=R|34=10|49=045|50=045B17|52=20190719-15:40:47.905|56=EXC|131=201907191037167_R|146=1|55=T24U19F|22=M|762=AFIR|54=1|38=0|1=RP001|453=1|448=051B17|447=C|452=37|10=141|
8=FIX.4.4|9=0162|35=AG|34=10|49=EXC|56=045|57=045B17|52=20190719-15:41:22.873|131=201907191037167_R|658=99|146=1|55=T24U19F|762=AFIR|22=M|38=0|58=(333): ID de cotización inválida|10=106|
8=FIX.4.4|9=0050|35=0|34=11|49=EXC|56=045|52=20190719-15:41:52.000|10=218|
8=FIX.4.4|9=60|35=0|34=11|49=045|50=045B17|52=20190719-15:41:18.859|56=EXC|10=121|
8=FIX.4.4|9=0050|35=0|34=12|49=EXC|56=045|52=20190719-15:42:22.000|10=217|
8=FIX.4.4|9=60|35=0|34=12|49=045|50=045B17|52=20190719-15:41:48.851|56=EXC|10=117|
8=FIX.4.4|9=187|35=R|34=13|49=045|50=045B17|52=20190719-15:42:03.190|56=EXC|131=2019071910371610_R|146=1|55=T24U19F|22=M|762=AFIR|54=1|38=15|1=RP001|453=2|448=051B17|447=C|452=37|448=037B18|447=C|452=37|10=117|
8=FIX.4.4|9=0269|35=AI|34=13|49=EXC|56=045|57=045B17|52=20190719-15:42:38.161|131=2019071910371610_R|453=5|448=045B17|447=C|452=12|448=045|447=C|452=1|448=045FCM001|447=C|452=36|448=051B17|447=C|452=37|448=037B18|447=C|452=37|55=T24U19F|762=AFIR|48=27227|22=M|54=1|1=RP001|38=15|297=10|10=049|
8=FIX.4.4|9=186|35=R|34=14|49=045|50=045B17|52=20190719-15:42:23.275|56=EXC|131=2019071910371610_R|146=1|55=T24U19F|22=M|762=AFIR|54=1|38=0|1=RP001|453=2|448=051B17|447=C|452=37|448=037B18|447=C|452=37|10=069|
8=FIX.4.4|9=0269|35=AI|34=14|49=EXC|56=045|57=045B17|52=20190719-15:42:58.246|131=2019071910371610_R|453=5|448=045B17|447=C|452=12|448=045|447=C|452=1|448=045FCM001|447=C|452=36|448=051B17|447=C|452=37|448=037B18|447=C|452=37|55=T24U19F|762=AFIR|48=27227|22=M|54=1|1=RP001|38=15|297=17|10=063|
8=FIX.4.4|9=0050|35=0|34=15|49=EXC|56=045|52=20190719-15:43:28.000|10=227|
8=FIX.4.4|9=60|35=5|34=15|49=045|50=045B17|52=20190719-15:42:53.861|56=EXC|10=123|
8=FIX.4.4|9=0057|35=5|34=16|49=EXC|56=045|52=20190719-15:43:28.824|369=15|10=068|
8=FIX.4.4|9=60|35=5|34=16|49=045|50=045B17|52=20190719-15:42:53.861|56=EXC|10=124|
8=FIX.4.4|9=110|35=A|34=1|49=045|50=045B17|52=20190723-15:08:14.758|56=EXC|43=N|98=0|108=30|141=Y|553=045FCM001|554=045FCM001|10=109|
8=FIX.4.4|9=0067|35=A|34=1|49=EXC|56=045|52=20190723-15:08:54.095|98=0|108=30|141=Y|10=022|
8=FIX.4.4|9=0049|35=0|34=2|49=EXC|56=045|52=20190723-15:09:24.000|10=176|
8=FIX.4.4|9=59|35=0|34=2|49=045|50=045B17|52=20190723-15:08:45.446|56=EXC|10=071|
8=FIX.4.4|9=0049|35=0|34=3|49=EXC|56=045|52=20190723-15:09:54.000|10=180|
8=FIX.4.4|9=59|35=0|34=3|49=045|50=045B17|52=20190723-15:09:15.602|56=EXC|10=064|
8=FIX.4.4|9=0049|35=0|34=4|49=EXC|56=045|52=20190723-15:10:24.000|10=170|
8=FIX.4.4|9=59|35=0|34=4|49=045|50=045B17|52=20190723-15:09:46.449|56=EXC|10=078|
8=FIX.4.4|9=59|35=5|34=5|49=045|50=045B17|52=20190723-15:09:51.451|56=EXC|10=073|
8=FIX.4.4|9=0055|35=5|34=5|49=EXC|56=045|52=20190723-15:10:30.772|369=5|10=207|
8=FIX.4.4|9=110|35=A|34=1|49=045|50=045B17|52=20190723-15:34:01.807|56=EXC|43=N|98=0|108=30|141=Y|553=045FCM001|554=045FCM001|10=099|
8=FIX.4.4|9=0067|35=A|34=1|49=EXC|56=045|52=20190723-15:34:41.185|98=0|108=30|141=Y|10=017|
8=FIX.4.4|9=0049|35=0|34=2|49=EXC|56=045|52=20190723-15:35:11.000|10=171|
8=FIX.4.4|9=59|35=0|34=2|49=045|50=045B17|52=20190723-15:34:32.353|56=EXC|10=063|
8=FIX.4.4|9=59|35=5|34=3|49=045|50=045B17|52=20190723-15:34:53.339|56=EXC|10=076|
8=FIX.4.4|9=0055|35=5|34=3|49=EXC|56=045|52=20190723-15:35:32.676|369=3|10=215|
8=FIX.4.4|9=110|35=A|34=1|49=045|50=045B17|52=20190723-15:41:24.599|56=EXC|43=N|98=0|108=30|141=Y|553=045FCM001|554=045FCM001|10=110|
8=FIX.4.4|9=0067|35=A|34=1|49=EXC|56=045|52=20190723-15:42:03.957|98=0|108=30|141=Y|10=021|
8=FIX.4.4|9=0049|35=0|34=2|49=EXC|56=045|52=20190723-15:42:33.000|10=173|
8=FIX.4.4|9=59|35=0|34=2|49=045|50=045B17|52=20190723-15:41:55.191|56=EXC|10=066|
8=FIX.4.4|9=0049|35=0|34=3|49=EXC|56=045|52=20190723-15:43:03.000|10=172|
8=FIX.4.4|9=59|35=0|34=3|49=045|50=045B17|52=20190723-15:42:25.381|56=EXC|10=066|
8=FIX.4.4|9=0049|35=0|34=4|49=EXC|56=045|52=20190723-15:43:33.000|10=176|
8=FIX.4.4|9=59|35=0|34=4|49=045|50=045B17|52=20190723-15:42:56.196|56=EXC|10=075|
8=FIX.4.4|9=59|35=5|34=5|49=045|50=045B17|52=20190723-15:43:01.198|56=EXC|10=074|
8=FIX.4.4|9=0055|35=5|34=5|49=EXC|56=045|52=20190723-15:43:40.531|369=5|10=207|
8=FIX.4.4|9=110|35=A|34=1|49=045|50=045B17|52=20190723-16:03:27.327|56=EXC|43=N|98=0|108=30|141=Y|553=045FCM001|554=045FCM001|10=101|
8=FIX.4.4|9=0067|35=A|34=1|49=EXC|56=045|52=20190723-16:04:06.724|98=0|108=30|141=Y|10=015|
8=FIX.4.4|9=0049|35=0|34=2|49=EXC|56=045|52=20190723-16:04:36.000|10=175|
8=FIX.4.4|9=59|35=0|34=2|49=045|50=045B17|52=20190723-16:03:57.948|56=EXC|10=077|
8=FIX.4.4|9=0049|35=0|34=3|49=EXC|56=045|52=20190723-16:05:06.000|10=174|
8=FIX.4.4|9=59|35=0|34=3|49=045|50=045B17|52=20190723-16:04:28.119|56=EXC|10=067|
8=FIX.4.4|9=0049|35=0|34=4|49=EXC|56=045|52=20190723-16:05:36.000|10=178|
8=FIX.4.4|9=59|35=0|34=4|49=045|50=045B17|52=20190723-16:04:58.948|56=EXC|10=081|
8=FIX.4.4|9=59|35=5|34=5|49=045|50=045B17|52=20190723-16:05:03.950|56=EXC|10=071|
8=FIX.4.4|9=0055|35=5|34=5|49=EXC|56=045|52=20190723-16:05:43.309|369=5|10=212|
8=FIX.4.4|9=110|35=A|34=1|49=045|50=045B17|52=20190723-16:12:06.289|56=EXC|43=N|98=0|108=30|141=Y|553=045FCM001|554=045FCM001|10=105|
8=FIX.4.4|9=0067|35=A|34=1|49=EXC|56=045|52=20190723-16:12:45.682|98=0|108=30|141=Y|10=020|
8=FIX.4.4|9=0049|35=0|34=2|49=EXC|56=045|52=20190723-16:13:15.000|10=172|
8=FIX.4.4|9=59|35=0|34=2|49=045|50=045B17|52=20190723-16:12:36.958|56=EXC|10=075|
8=FIX.4.4|9=0049|35=0|34=3|49=EXC|56=045|52=20190723-16:13:45.000|10=176|
8=FIX.4.4|9=59|35=0|34=3|49=045|50=045B17|52=20190723-16:13:06.957|56=EXC|10=073|
8=FIX.4.4|9=0049|35=0|34=4|49=EXC|56=045|52=20190723-16:14:15.000|10=175|
8=FIX.4.4|9=59|35=0|34=4|49=045|50=045B17|52=20190723-16:13:36.957|56=EXC|10=077|
8=FIX.4.4|9=59|35=5|34=5|49=045|50=045B17|52=20190723-16:13:42.946|56=EXC|10=078|
8=FIX.4.4|9=0055|35=5|34=5|49=EXC|56=045|52=20190723-16:14:22.317|369=5|10=208|
8=FIX.4.4|9=110|35=A|34=1|49=045|50=045B17|52=20190723-16:16:11.261|56=EXC|43=N|98=0|108=30|141=Y|553=045FCM001|554=045FCM001|10=095|
8=FIX.4.4|9=0067|35=A|34=1|49=EXC|56=045|52=20190723-16:16:50.648|98=0|108=30|141=Y|10=022|
8=FIX.4.4|9=0049|35=0|34=2|49=EXC|56=045|52=20190723-16:17:20.000|10=172|
8=FIX.4.4|9=59|35=0|34=2|49=045|50=045B17|52=20190723-16:16:41.955|56=EXC|10=072|
8=FIX.4.4|9=59|35=5|34=3|49=045|50=045B17|52=20190723-16:17:02.966|56=EXC|10=078|
8=FIX.4.4|9=0055|35=5|34=3|49=EXC|56=045|52=20190723-16:17:42.332|369=3|10=206|
8=FIX.4.4|9=110|35=A|34=1|49=045|50=045B17|52=20190723-16:26:56.840|56=EXC|43=N|98=0|108=30|141=Y|553=045FCM001|554=045FCM001|10=108|
8=FIX.4.4|9=0067|35=A|34=1|49=EXC|56=045|52=20190723-16:27:36.242|98=0|108=30|141=Y|10=018|
8=FIX.4.4|9=0049|35=0|34=2|49=EXC|56=045|52=20190723-16:28:06.000|10=178|
8=FIX.4.4|9=59|35=0|34=2|49=045|50=045B17|52=20190723-16:27:27.511|56=EXC|10=066|
8=FIX.4.4|9=0049|35=0|34=3|49=EXC|56=045|52=20190723-16:28:36.000|10=182|
8=FIX.4.4|9=59|35=0|34=3|49=045|50=045B17|52=20190723-16:27:57.620|56=EXC|10=071|
8=FIX.4.4|9=0049|35=0|34=4|49=EXC|56=045|52=20190723-16:29:06.000|10=181|
8=FIX.4.4|9=59|35=0|34=4|49=045|50=045B17|52=20190723-16:28:28.513|56=EXC|10=072|
8=FIX.4.4|9=59|35=5|34=5|49=045|50=045B17|52=20190723-16:28:33.516|56=EXC|10=077|
8=FIX.4.4|9=0055|35=5|34=5|49=EXC|56=045|52=20190723-16:29:12.889|369=5|10=227|
8=FIX.4.4|9=110|35=A|34=1|49=045|50=045B17|52=20190723-16:31:06.519|56=EXC|43=N|98=0|108=30|141=Y|553=045FCM001|554=045FCM001|10=102|
8=FIX.4.4|9=0067|35=A|34=1|49=EXC|56=045|52=20190723-16:31:45.919|98=0|108=30|141=Y|10=024|
8=FIX.4.4|9=0049|35=0|34=2|49=EXC|56=045|52=20190723-16:32:15.000|10=173|
8=FIX.4.4|9=59|35=0|34=2|49=045|50=045B17|52=20190723-16:31:37.181|56=EXC|10=065|
8=FIX.4.4|9=0049|35=0|34=3|49=EXC|56=045|52=20190723-16:32:45.000|10=177|
8=FIX.4.4|9=59|35=0|34=3|49=045|50=045B17|52=20190723-16:32:07.273|56=EXC|10=066|
8=FIX.4.4|9=0049|35=0|34=4|49=EXC|56=045|52=20190723-16:33:15.000|10=176|
8=FIX.4.4|9=59|35=0|34=4|49=045|50=045B17|52=20190723-16:32:38.181|56=EXC|10=069|
8=FIX.4.4|9=59|35=5|34=5|49=045|50=045B17|52=20190723-16:32:43.183|56=EXC|10=073|
8=FIX.4.4|9=0055|35=5|34=5|49=EXC|56=045|52=20190723-16:33:22.568|369=5|10=217|
8=FIX.4.4|9=110|35=A|34=1|49=045|50=045B17|52=20190723-16:37:00.425|56=EXC|43=N|98=0|108=30|141=Y|553=045FCM001|554=045FCM001|10=098|
8=FIX.4.4|9=0067|35=A|34=1|49=EXC|56=045|52=20190723-16:37:39.834|98=0|108=30|141=Y|10=029|
8=FIX.4.4|9=0049|35=0|34=2|49=EXC|56=045|52=20190723-16:38:09.000|10=182|
8=FIX.4.4|9=59|35=0|34=2|49=045|50=045B17|52=20190723-16:37:30.989|56=EXC|10=080|
8=FIX.4.4|9=0049|35=0|34=3|49=EXC|56=045|52=20190723-16:38:39.000|10=186|
8=FIX.4.4|9=59|35=0|34=3|49=045|50=045B17|52=20190723-16:38:01.222|56=EXC|10=060|
8=FIX.4.4|9=110|35=A|34=1|49=045|50=045B17|52=20190723-16:41:28.293|56=EXC|43=N|98=0|108=30|141=Y|553=045FCM001|554=045FCM001|10=106|
8=FIX.4.4|9=0067|35=A|34=1|49=EXC|56=045|52=20190723-16:42:07.697|98=0|108=30|141=Y|10=027|
8=FIX.4.4|9=0049|35=0|34=2|49=EXC|56=045|52=20190723-16:42:37.000|10=178|
8=FIX.4.4|9=59|35=0|34=2|49=045|50=045B17|52=20190723-16:41:58.923|56=EXC|10=073|
8=FIX.4.4|9=59|35=5|34=3|49=045|50=045B17|52=20190723-16:42:19.919|56=EXC|10=082|
8=FIX.4.4|9=0055|35=5|34=3|49=EXC|56=045|52=20190723-16:42:59.303|369=3|10=210|
8=FIX.4.4|9=110|35=A|34=1|49=045|50=045B17|52=20190723-16:48:30.794|56=EXC|43=N|98=0|108=30|141=Y|553=045FCM001|554=045FCM001|10=112|
8=FIX.4.4|9=0067|35=A|34=1|49=EXC|56=045|52=20190723-16:49:10.219|98=0|108=30|141=Y|10=018|
8=FIX.4.4|9=0049|35=0|34=2|49=EXC|56=045|52=20190723-16:49:40.000|10=179|
8=FIX.4.4|9=59|35=0|34=2|49=045|50=045B17|52=20190723-16:49:01.432|56=EXC|10=064|
8=FIX.4.4|9=59|35=5|34=3|49=045|50=045B17|52=20190723-16:49:22.439|56=EXC|10=080|
8=FIX.4.4|9=0055|35=5|34=3|49=EXC|56=045|52=20190723-16:50:01.830|369=3|10=201|
8=FIX.4.4|9=110|35=A|34=1|49=045|50=045B17|52=20190723-16:52:26.747|56=EXC|43=N|98=0|108=30|141=Y|553=045FCM001|554=045FCM001|10=110|
8=FIX.4.4|9=0067|35=A|34=1|49=EXC|56=045|52=20190723-16:53:06.163|98=0|108=30|141=Y|10=016|
8=FIX.4.4|9=0049|35=0|34=2|49=EXC|56=045|52=20190723-16:53:36.000|10=179|
8=FIX.4.4|9=59|35=0|34=2|49=045|50=045B17|52=20190723-16:52:57.428|56=EXC|10=074|
8=FIX.4.4|9=59|35=5|34=3|49=045|50=045B17|52=20190723-16:53:18.422|56=EXC|10=072|
8=FIX.4.4|9=0055|35=5|34=3|49=EXC|56=045|52=20190723-16:53:57.815|369=3|10=218|
8=FIX.4.4|9=110|35=A|34=1|49=045|50=045B17|52=20190723-18:39:51.628|56=EXC|43=N|98=0|108=30|141=Y|553=045FCM001|554=045FCM001|10=113|
8=FIX.4.4|9=0067|35=A|34=1|49=EXC|56=045|52=20190723-18:40:31.126|98=0|108=30|141=Y|10=011|
8=FIX.4.4|9=0049|35=0|34=2|49=EXC|56=045|52=20190723-18:41:01.000|10=170|
8=FIX.4.4|9=59|35=0|34=2|49=045|50=045B17|52=20190723-18:40:22.296|56=EXC|10=068|
8=FIX.4.4|9=0049|35=0|34=3|49=EXC|56=045|52=20190723-18:41:31.000|10=174|
8=FIX.4.4|9=59|35=0|34=3|49=045|50=045B17|52=20190723-18:40:52.450|56=EXC|10=064|
8=FIX.4.4|9=59|35=5|34=4|49=045|50=045B17|52=20190723-18:41:08.309|56=EXC|10=075|
8=FIX.4.4|9=0055|35=5|34=4|49=EXC|56=045|52=20190723-18:41:47.773|369=4|10=221|
8=FIX.4.4|9=110|35=A|34=1|49=045|50=045B17|52=20190723-18:51:17.518|56=EXC|43=N|98=0|108=30|141=Y|553=045FCM001|554=045FCM001|10=107|
8=FIX.4.4|9=0067|35=A|34=1|49=EXC|56=045|52=20190723-18:51:57.036|98=0|108=30|141=Y|10=021|
8=FIX.4.4|9=0049|35=0|34=2|49=EXC|56=045|52=20190723-18:52:27.000|10=180|
8=FIX.4.4|9=59|35=0|34=2|49=045|50=045B17|52=20190723-18:51:47.527|56=EXC|10=074|
8=FIX.4.4|9=0049|35=0|34=3|49=EXC|56=045|52=20190723-18:52:57.000|10=184|
8=FIX.4.4|9=59|35=0|34=3|49=045|50=045B17|52=20190723-18:52:17.524|56=EXC|10=070|
8=FIX.4.4|9=59|35=5|34=4|49=045|50=045B17|52=20190723-18:52:34.102|56=EXC|10=067|
8=FIX.4.4|9=0055|35=5|34=4|49=EXC|56=045|52=20190723-18:53:13.589|369=4|10=222|
8=FIX.4.4|9=110|35=A|34=1|49=045|50=045B17|52=20190723-20:20:39.636|56=EXC|43=N|98=0|108=30|141=Y|553=045FCM001|554=045FCM001|10=101|
8=FIX.4.4|9=0067|35=A|34=1|49=EXC|56=045|52=20190723-15:03:34.231|98=0|108=30|141=Y|10=007|
8=FIX.4.4|9=0049|35=0|34=2|49=EXC|56=045|52=20190723-15:04:04.000|10=169|
8=FIX.4.4|9=59|35=0|34=2|49=045|50=045B17|52=20190723-20:21:10.225|56=EXC|10=049|
8=FIX.4.4|9=110|35=A|34=1|49=045|50=045B17|52=20190723-20:21:42.658|56=EXC|43=N|98=0|108=30|141=Y|553=045FCM001|554=045FCM001|10=100|
8=FIX.4.4|9=110|35=A|34=1|49=045|50=045B17|52=20190723-20:49:27.766|56=EXC|43=N|98=0|108=30|141=Y|553=045FCM001|554=045FCM001|10=113|
8=FIX.4.4|9=0067|35=A|34=1|49=EXC|56=045|52=20190723-15:25:54.413|98=0|108=30|141=Y|10=015|
8=FIX.4.4|9=0049|35=0|34=2|49=EXC|56=045|52=20190723-15:26:24.000|10=175|
8=FIX.4.4|9=59|35=0|34=2|49=045|50=045B17|52=20190723-20:49:58.340|56=EXC|10=069|
8=FIX.4.4|9=0049|35=0|34=3|49=EXC|56=045|52=20190723-15:26:54.000|10=179|
8=FIX.4.4|9=59|35=0|34=3|49=045|50=045B17|52=20190723-20:50:28.539|56=EXC|10=069|
8=FIX.4.4|9=0049|35=0|34=4|49=EXC|56=045|52=20190723-15:27:24.000|10=178|
8=FIX.4.4|9=59|35=0|34=4|49=045|50=045B17|52=20190723-20:50:59.342|56=EXC|10=066|
8=FIX.4.4|9=0049|35=0|34=5|49=EXC|56=045|52=20190723-15:27:54.000|10=182|
8=FIX.4.4|9=59|35=0|34=5|49=045|50=045B17|52=20190723-20:51:29.342|56=EXC|10=065|
8=FIX.4.4|9=0049|35=0|34=6|49=EXC|56=045|52=20190723-15:28:24.000|10=181|
8=FIX.4.4|9=59|35=0|34=6|49=045|50=045B17|52=20190723-20:51:59.342|56=EXC|10=069|
8=FIX.4.4|9=0049|35=0|34=7|49=EXC|56=045|52=20190723-15:28:54.000|10=185|
8=FIX.4.4|9=59|35=0|34=7|49=045|50=045B17|52=20190723-20:52:29.844|56=EXC|10=075|
8=FIX.4.4|9=158|35=R|34=8|49=045|50=045B17|52=20190723-20:52:34.284|56=EXC|131=201907231549234_R|146=1|55=   |22=M|762=AFIR|54=1|38=200|1=RP001|453=1|448=051B17|447=C|452=37|10=097|
8=FIX.4.4|9=0153|35=AG|34=8|49=EXC|56=045|57=045B17|52=20190723-15:29:00.864|131=201907231549234_R|658=1|146=1|55=   |762=AFIR|22=M|38=200|58=(1479): Simbolo desconocido|10=132|
8=FIX.4.4|9=161|35=R|34=9|49=045|50=045B17|52=20190723-20:52:49.297|56=EXC|131=201907231549235_R|146=1|55=CPIH17F|22=M|762=AFIR|54=1|38=90|1=RP001|453=1|448=051B17|447=C|452=37|10=176|
8=FIX.4.4|9=0156|35=AG|34=9|49=EXC|56=045|57=045B17|52=20190723-15:29:15.878|131=201907231549235_R|658=1|146=1|55=CPIH17F|762=AFIR|22=M|38=90|58=(1479): Simbolo desconocido|10=221|
8=FIX.4.4|9=163|35=R|34=10|49=045|50=045B17|52=20190723-20:53:09.322|56=EXC|131=201907231549236_R|146=1|55=T24U19F|22=M|762=AFIR|54=1|38=110|1=RP001|453=1|448=051B17|447=C|452=37|10=227|
8=FIX.4.4|9=0245|35=AI|34=10|49=EXC|56=045|57=045B17|52=20190723-15:29:35.904|131=201907231549236_R|453=4|448=045B17|447=C|452=12|448=045|447=C|452=1|448=045FCM001|447=C|452=36|448=051B17|447=C|452=37|55=T24U19F|762=AFIR|48=27227|22=M|54=1|1=RP001|38=110|297=10|10=165|
8=FIX.4.4|9=0050|35=0|34=11|49=EXC|56=045|52=20190723-15:30:05.000|10=209|
8=FIX.4.4|9=60|35=0|34=11|49=045|50=045B17|52=20190723-20:53:39.338|56=EXC|10=110|
8=FIX.4.4|9=161|35=R|34=12|49=045|50=045B17|52=20190723-20:53:49.426|56=EXC|131=201907231549237_R|146=1|55=T24U19F|22=M|762=AFIR|54=1|38=0|1=RP001|453=1|448=051B17|447=C|452=37|10=139|
8=FIX.4.4|9=0162|35=AG|34=12|49=EXC|56=045|57=045B17|52=20190723-15:30:16.007|131=201907231549237_R|658=99|146=1|55=T24U19F|762=AFIR|22=M|38=0|58=(333): ID de cotización inválida|10=094|
8=FIX.4.4|9=0050|35=0|34=13|49=EXC|56=045|52=20190723-15:30:46.000|10=216|
8=FIX.4.4|9=60|35=0|34=13|49=045|50=045B17|52=20190723-20:54:19.428|56=EXC|10=111|
8=FIX.4.4|9=0050|35=0|34=14|49=EXC|56=045|52=20190723-15:31:16.000|10=215|
8=FIX.4.4|9=60|35=0|34=14|49=045|50=045B17|52=20190723-20:54:49.427|56=EXC|10=114|
8=FIX.4.4|9=187|35=R|34=15|49=045|50=045B17|52=20190723-20:55:04.686|56=EXC|131=2019072315492310_R|146=1|55=T24U19F|22=M|762=AFIR|54=1|38=15|1=RP001|453=2|448=051B17|447=C|452=37|448=037B18|447=C|452=37|10=126|
8=FIX.4.4|9=0269|35=AI|34=15|49=EXC|56=045|57=045B17|52=20190723-15:31:31.276|131=2019072315492310_R|453=5|448=045B17|447=C|452=12|448=045|447=C|452=1|448=045FCM001|447=C|452=36|448=051B17|447=C|452=37|448=037B18|447=C|452=37|55=T24U19F|762=AFIR|48=27227|22=M|54=1|1=RP001|38=15|297=10|10=045|
8=FIX.4.4|9=186|35=R|34=16|49=045|50=045B17|52=20190723-20:55:29.708|56=EXC|131=2019072315492310_R|146=1|55=T24U19F|22=M|762=AFIR|54=1|38=0|1=RP001|453=2|448=051B17|447=C|452=37|448=037B18|447=C|452=37|10=074|
8=FIX.4.4|9=0269|35=AI|34=16|49=EXC|56=045|57=045B17|52=20190723-15:31:56.290|131=2019072315492310_R|453=5|448=045B17|447=C|452=12|448=045|447=C|452=1|448=045FCM001|447=C|452=36|448=051B17|447=C|452=37|448=037B18|447=C|452=37|55=T24U19F|762=AFIR|48=27227|22=M|54=1|1=RP001|38=15|297=17|10=056|
8=FIX.4.4|9=0050|35=0|34=17|49=EXC|56=045|52=20190723-15:32:26.000|10=220|
8=FIX.4.4|9=60|35=5|34=17|49=045|50=045B17|52=20190723-20:56:00.335|56=EXC|10=109|
8=FIX.4.4|9=0057|35=5|34=18|49=EXC|56=045|52=20190723-15:32:26.912|369=17|10=061|
8=FIX.4.4|9=110|35=A|34=1|49=045|50=045B17|52=20190724-14:43:51.886|56=EXC|43=N|98=0|108=30|141=Y|553=045FCM001|554=045FCM001|10=111|
8=FIX.4.4|9=0067|35=A|34=1|49=EXC|56=045|52=20190724-14:44:32.313|98=0|108=30|141=Y|10=011|
8=FIX.4.4|9=0049|35=0|34=2|49=EXC|56=045|52=20190724-14:45:02.000|10=172|
8=FIX.4.4|9=59|35=0|34=2|49=045|50=045B17|52=20190724-14:44:22.611|56=EXC|10=060|
8=FIX.4.4|9=59|35=5|34=3|49=045|50=045B17|52=20190724-14:44:43.621|56=EXC|10=070|
8=FIX.4.4|9=0055|35=5|34=3|49=EXC|56=045|52=20190724-14:45:24.027|369=3|10=207|
8=FIX.4.4|9=59|35=5|34=4|49=045|50=045B17|52=20190724-14:44:43.621|56=EXC|10=071|
8=FIX.4.4|9=110|35=A|34=1|49=045|50=045B17|52=20190724-14:56:26.307|56=EXC|43=N|98=0|108=30|141=Y|553=045FCM001|554=045FCM001|10=105|
8=FIX.4.4|9=0067|35=A|34=1|49=EXC|56=045|52=20190724-14:57:06.740|98=0|108=30|141=Y|10=020|
8=FIX.4.4|9=0049|35=0|34=2|49=EXC|56=045|52=20190724-14:57:36.000|10=182|
8=FIX.4.4|9=59|35=0|34=2|49=045|50=045B17|52=20190724-14:56:57.107|56=EXC|10=071|
8=FIX.4.4|9=59|35=5|34=3|49=045|50=045B17|52=20190724-14:57:18.108|56=EXC|10=076|
8=FIX.4.4|9=0055|35=5|34=3|49=EXC|56=045|52=20190724-14:57:58.525|369=3|10=220|
8=FIX.4.4|9=110|35=A|34=1|49=045|50=045B17|52=20190724-15:16:13.599|56=EXC|43=N|98=0|108=30|141=Y|553=045FCM001|554=045FCM001|10=111|
8=FIX.4.4|9=0067|35=A|34=1|49=EXC|56=045|52=20190724-15:16:54.057|98=0|108=30|141=Y|10=020|
8=FIX.4.4|9=0049|35=0|34=2|49=EXC|56=045|52=20190724-15:17:24.000|10=176|
8=FIX.4.4|9=59|35=0|34=2|49=045|50=045B17|52=20190724-15:16:44.240|56=EXC|10=062|
8=FIX.4.4|9=59|35=5|34=3|49=045|50=045B17|52=20190724-15:17:05.332|56=EXC|10=068|
8=FIX.4.4|9=0055|35=5|34=3|49=EXC|56=045|52=20190724-15:17:45.756|369=3|10=219|
8=FIX.4.4|9=110|35=A|34=1|49=045|50=045B17|52=20190724-16:08:06.266|56=EXC|43=N|98=0|108=30|141=Y|553=045FCM001|554=045FCM001|10=106|
8=FIX.4.4|9=0067|35=A|34=1|49=EXC|56=045|52=20190724-16:08:46.771|98=0|108=30|141=Y|10=026|
8=FIX.4.4|9=0049|35=0|34=2|49=EXC|56=045|52=20190724-16:09:16.000|10=179|
8=FIX.4.4|9=59|35=0|34=2|49=045|50=045B17|52=20190724-16:08:36.566|56=EXC|10=076|
8=FIX.4.4|9=59|35=5|34=3|49=045|50=045B17|52=20190724-16:08:57.564|56=EXC|10=083|
8=FIX.4.4|9=0055|35=5|34=3|49=EXC|56=045|52=20190724-16:09:38.038|369=3|10=216|
8=FIX.4.4|9=59|35=5|34=4|49=045|50=045B17|52=20190724-16:08:57.564|56=EXC|10=084|
8=FIX.4.4|9=110|35=A|34=1|49=045|50=045B17|52=20190724-16:11:27.160|56=EXC|43=N|98=0|108=30|141=Y|553=045FCM001|554=045FCM001|10=096|
8=FIX.4.4|9=0067|35=A|34=1|49=EXC|56=045|52=20190724-16:12:07.652|98=0|108=30|141=Y|10=016|
8=FIX.4.4|9=0049|35=0|34=2|49=EXC|56=045|52=20190724-16:12:37.000|10=176|
8=FIX.4.4|9=59|35=0|34=2|49=045|50=045B17|52=20190724-16:11:57.690|56=EXC|10=071|
8=FIX.4.4|9=0049|35=0|34=3|49=EXC|56=045|52=20190724-16:13:07.000|10=175|
8=FIX.4.4|9=59|35=0|34=3|49=045|50=045B17|52=20190724-16:12:27.690|56=EXC|10=070|
8=FIX.4.4|9=0049|35=0|34=4|49=EXC|56=045|52=20190724-16:13:37.000|10=179|
8=FIX.4.4|9=59|35=0|34=4|49=045|50=045B17|52=20190724-16:12:57.694|56=EXC|10=078|
8=FIX.4.4|9=0049|35=0|34=5|49=EXC|56=045|52=20190724-16:14:07.000|10=178|
8=FIX.4.4|9=59|35=0|34=5|49=045|50=045B17|52=20190724-16:13:27.892|56=EXC|10=077|
8=FIX.4.4|9=0049|35=0|34=6|49=EXC|56=045|52=20190724-16:14:37.000|10=182|
8=FIX.4.4|9=59|35=0|34=6|49=045|50=045B17|52=20190724-16:13:58.729|56=EXC|10=081|
8=FIX.4.4|9=0049|35=0|34=7|49=EXC|56=045|52=20190724-16:15:07.000|10=181|
8=FIX.4.4|9=59|35=0|34=7|49=045|50=045B17|52=20190724-16:14:28.754|56=EXC|10=078|
8=FIX.4.4|9=158|35=R|34=8|49=045|50=045B17|52=20190724-16:14:28.754|56=EXC|131=201907241111224_R|146=1|55=   |22=M|762=AFIR|54=1|38=200|1=RP001|453=1|448=051B17|447=C|452=37|10=091|
8=FIX.4.4|9=0153|35=AG|34=8|49=EXC|56=045|57=045B17|52=20190724-16:15:09.234|131=201907241111224_R|658=1|146=1|55=   |762=AFIR|22=M|38=200|58=(1479): Simbolo desconocido|10=114|
8=FIX.4.4|9=161|35=R|34=9|49=045|50=045B17|52=20190724-16:14:43.787|56=EXC|131=201907241111225_R|146=1|55=CPIH17F|22=M|762=AFIR|54=1|38=90|1=RP001|453=1|448=051B17|447=C|452=37|10=163|
8=FIX.4.4|9=0156|35=AG|34=9|49=EXC|56=045|57=045B17|52=20190724-16:15:24.267|131=201907241111225_R|658=1|146=1|55=CPIH17F|762=AFIR|22=M|38=90|58=(1479): Simbolo desconocido|10=195|
8=FIX.4.4|9=163|35=R|34=10|49=045|50=045B17|52=20190724-16:15:03.830|56=EXC|131=201907241111226_R|146=1|55=T24U19F|22=M|762=AFIR|54=1|38=110|1=RP001|453=1|448=051B17|447=C|452=37|10=214|
8=FIX.4.4|9=0245|35=AI|34=10|49=EXC|56=045|57=045B17|52=20190724-16:15:44.311|131=201907241111226_R|453=4|448=045B17|447=C|452=12|448=045|447=C|452=1|448=045FCM001|447=C|452=36|448=051B17|447=C|452=37|55=T24U19F|762=AFIR|48=27227|22=M|54=1|1=RP001|38=110|297=10|10=139|
8=FIX.4.4|9=0050|35=0|34=11|49=EXC|56=045|52=20190724-16:16:14.000|10=215|
8=FIX.4.4|9=60|35=0|34=11|49=045|50=045B17|52=20190724-16:15:34.690|56=EXC|10=110|
8=FIX.4.4|9=161|35=R|34=12|49=045|50=045B17|52=20190724-16:15:44.438|56=EXC|131=201907241111227_R|146=1|55=T24U19F|22=M|762=AFIR|54=1|38=0|1=RP001|453=1|448=051B17|447=C|452=37|10=126|
8=FIX.4.4|9=0162|35=AG|34=12|49=EXC|56=045|57=045B17|52=20190724-16:16:24.920|131=201907241111227_R|658=99|146=1|55=T24U19F|762=AFIR|22=M|38=0|58=(333): ID de cotización inválida|10=088|
8=FIX.4.4|9=0050|35=0|34=13|49=EXC|56=045|52=20190724-16:16:54.000|10=221|
8=FIX.4.4|9=60|35=0|34=13|49=045|50=045B17|52=20190724-16:16:14.713|56=EXC|10=107|
8=FIX.4.4|9=0050|35=0|34=14|49=EXC|56=045|52=20190724-16:17:24.000|10=220|
8=FIX.4.4|9=60|35=0|34=14|49=045|50=045B17|52=20190724-16:16:45.686|56=EXC|10=121|
8=FIX.4.4|9=187|35=R|34=15|49=045|50=045B17|52=20190724-16:16:59.661|56=EXC|131=2019072411112210_R|146=1|55=T24U19F|22=M|762=AFIR|54=1|38=15|1=RP001|453=2|448=051B17|447=C|452=37|448=037B18|447=C|452=37|10=117|
8=FIX.4.4|9=0269|35=AI|34=15|49=EXC|56=045|57=045B17|52=20190724-16:17:40.145|131=2019072411112210_R|453=5|448=045B17|447=C|452=12|448=045|447=C|452=1|448=045FCM001|447=C|452=36|448=051B17|447=C|452=37|448=037B18|447=C|452=37|55=T24U19F|762=AFIR|48=27227|22=M|54=1|1=RP001|38=15|297=10|10=031|
8=FIX.4.4|9=186|35=R|34=16|49=045|50=045B17|52=20190724-16:17:19.910|56=EXC|131=2019072411112210_R|146=1|55=T24U19F|22=M|762=AFIR|54=1|38=0|1=RP001|453=2|448=051B17|447=C|452=37|448=037B18|447=C|452=37|10=057|
8=FIX.4.4|9=0269|35=AI|34=16|49=EXC|56=045|57=045B17|52=20190724-16:18:00.393|131=2019072411112210_R|453=5|448=045B17|447=C|452=12|448=045|447=C|452=1|448=045FCM001|447=C|452=36|448=051B17|447=C|452=37|448=037B18|447=C|452=37|55=T24U19F|762=AFIR|48=27227|22=M|54=1|1=RP001|38=15|297=17|10=041|
8=FIX.4.4|9=0050|35=0|34=17|49=EXC|56=045|52=20190724-16:18:30.000|10=221|
8=FIX.4.4|9=60|35=5|34=17|49=045|50=045B17|52=20190724-16:17:50.688|56=EXC|10=128|
8=FIX.4.4|9=0057|35=5|34=18|49=EXC|56=045|52=20190724-16:18:31.168|369=17|10=066|
8=FIX.4.4|9=60|35=5|34=18|49=045|50=045B17|52=20190724-16:17:50.688|56=EXC|10=129|
8=FIX.4.4|9=110|35=A|34=1|49=045|50=045B17|52=20190724-16:28:05.268|56=EXC|43=N|98=0|108=30|141=Y|553=045FCM001|554=045FCM001|10=109|
8=FIX.4.4|9=0067|35=A|34=1|49=EXC|56=045|52=20190724-16:28:45.783|98=0|108=30|141=Y|10=030|
8=FIX.4.4|9=0049|35=0|34=2|49=EXC|56=045|52=20190724-16:29:15.000|10=180|
8=FIX.4.4|9=59|35=0|34=2|49=045|50=045B17|52=20190724-16:28:36.027|56=EXC|10=070|
8=FIX.4.4|9=0049|35=0|34=3|49=EXC|56=045|52=20190724-16:29:45.000|10=184|
8=FIX.4.4|9=59|35=0|34=3|49=045|50=045B17|52=20190724-16:29:06.023|56=EXC|10=065|
8=FIX.4.4|9=0049|35=0|34=4|49=EXC|56=045|52=20190724-16:30:15.000|10=174|
8=FIX.4.4|9=59|35=0|34=4|49=045|50=045B17|52=20190724-16:29:36.026|56=EXC|10=072|
8=FIX.4.4|9=0049|35=0|34=5|49=EXC|56=045|52=20190724-16:30:45.000|10=178|
8=FIX.4.4|9=59|35=0|34=5|49=045|50=045B17|52=20190724-16:30:06.021|56=EXC|10=057|
8=FIX.4.4|9=0049|35=0|34=6|49=EXC|56=045|52=20190724-16:31:15.000|10=177|
8=FIX.4.4|9=59|35=0|34=6|49=045|50=045B17|52=20190724-16:30:36.021|56=EXC|10=061|
8=FIX.4.4|9=0049|35=0|34=7|49=EXC|56=045|52=20190724-16:31:45.000|10=181|
8=FIX.4.4|9=59|35=0|34=7|49=045|50=045B17|52=20190724-16:31:06.915|56=EXC|10=072|
8=FIX.4.4|9=158|35=R|34=8|49=045|50=045B17|52=20190724-16:31:12.032|56=EXC|131=201907241128014_R|146=1|55=   |22=M|762=AFIR|54=1|38=200|1=RP001|453=1|448=051B17|447=C|452=37|10=077|
8=FIX.4.4|9=0153|35=AG|34=8|49=EXC|56=045|57=045B17|52=20190724-16:31:52.528|131=201907241128014_R|658=1|146=1|55=   |762=AFIR|22=M|38=200|58=(1479): Simbolo desconocido|10=121|
8=FIX.4.4|9=161|35=R|34=9|49=045|50=045B17|52=20190724-16:31:27.107|56=EXC|131=201907241128015_R|146=1|55=CPIH17F|22=M|762=AFIR|54=1|38=90|1=RP001|453=1|448=051B17|447=C|452=37|10=155|
8=FIX.4.4|9=0156|35=AG|34=9|49=EXC|56=045|57=045B17|52=20190724-16:32:07.600|131=201907241128015_R|658=1|146=1|55=CPIH17F|762=AFIR|22=M|38=90|58=(1479): Simbolo desconocido|10=191|
8=FIX.4.4|9=163|35=R|34=10|49=045|50=045B17|52=20190724-16:31:47.151|56=EXC|131=201907241128016_R|146=1|55=T24U19F|22=M|762=AFIR|54=1|38=110|1=RP001|453=1|448=051B17|447=C|452=37|10=221|
8=FIX.4.4|9=0245|35=AI|34=10|49=EXC|56=045|57=045B17|52=20190724-16:32:27.645|131=201907241128016_R|453=4|448=045B17|447=C|452=12|448=045|447=C|452=1|448=045FCM001|447=C|452=36|448=051B17|447=C|452=37|55=T24U19F|762=AFIR|48=27227|22=M|54=1|1=RP001|38=110|297=10|10=154|
8=FIX.4.4|9=0050|35=0|34=11|49=EXC|56=045|52=20190724-16:32:57.000|10=220|
8=FIX.4.4|9=60|35=0|34=11|49=045|50=045B17|52=20190724-16:32:18.019|56=EXC|10=106|
8=FIX.4.4|9=161|35=R|34=12|49=045|50=045B17|52=20190724-16:32:27.295|56=EXC|131=201907241128017_R|146=1|55=T24U19F|22=M|762=AFIR|54=1|38=0|1=RP001|453=1|448=051B17|447=C|452=37|10=132|
8=FIX.4.4|9=0162|35=AG|34=12|49=EXC|56=045|57=045B17|52=20190724-16:33:07.789|131=201907241128017_R|658=99|146=1|55=T24U19F|762=AFIR|22=M|38=0|58=(333): ID de cotización inválida|10=106|
8=FIX.4.4|9=0050|35=0|34=13|49=EXC|56=045|52=20190724-16:33:37.000|10=221|
8=FIX.4.4|9=60|35=0|34=13|49=045|50=045B17|52=20190724-16:32:58.019|56=EXC|10=112|
8=FIX.4.4|9=0050|35=0|34=14|49=EXC|56=045|52=20190724-16:34:07.000|10=220|
8=FIX.4.4|9=60|35=0|34=14|49=045|50=045B17|52=20190724-16:33:28.022|56=EXC|10=105|
8=FIX.4.4|9=187|35=R|34=15|49=045|50=045B17|52=20190724-16:33:42.610|56=EXC|131=2019072411280110_R|146=1|55=T24U19F|22=M|762=AFIR|54=1|38=15|1=RP001|453=2|448=051B17|447=C|452=37|448=037B18|447=C|452=37|10=107|
8=FIX.4.4|9=0269|35=AI|34=15|49=EXC|56=045|57=045B17|52=20190724-16:34:23.098|131=2019072411280110_R|453=5|448=045B17|447=C|452=12|448=045|447=C|452=1|448=045FCM001|447=C|452=36|448=051B17|447=C|452=37|448=037B18|447=C|452=37|55=T24U19F|762=AFIR|48=27227|22=M|54=1|1=RP001|38=15|297=10|10=043|
8=FIX.4.4|9=186|35=R|34=16|49=045|50=045B17|52=20190724-16:34:02.670|56=EXC|131=2019072411280110_R|146=1|55=T24U19F|22=M|762=AFIR|54=1|38=0|1=RP001|453=2|448=051B17|447=C|452=37|448=037B18|447=C|452=37|10=056|
8=FIX.4.4|9=0269|35=AI|34=16|49=EXC|56=045|57=045B17|52=20190724-16:34:43.163|131=2019072411280110_R|453=5|448=045B17|447=C|452=12|448=045|447=C|452=1|448=045FCM001|447=C|452=36|448=051B17|447=C|452=37|448=037B18|447=C|452=37|55=T24U19F|762=AFIR|48=27227|22=M|54=1|1=RP001|38=15|297=17|10=046|
8=FIX.4.4|9=0050|35=0|34=17|49=EXC|56=045|52=20190724-16:35:13.000|10=221|
8=FIX.4.4|9=60|35=5|34=17|49=045|50=045B17|52=20190724-16:34:33.021|56=EXC|10=109|
8=FIX.4.4|9=0057|35=5|34=18|49=EXC|56=045|52=20190724-16:35:13.510|369=17|10=056|
8=FIX.4.4|9=60|35=5|34=18|49=045|50=045B17|52=20190724-16:34:33.021|56=EXC|10=110|
8=FIX.4.4|9=110|35=A|34=1|49=045|50=045B17|52=20190724-19:19:03.864|56=EXC|43=N|98=0|108=30|141=Y|553=045FCM001|554=045FCM001|10=112|
8=FIX.4.4|9=0067|35=A|34=1|49=EXC|56=045|52=20190724-19:19:44.506|98=0|108=30|141=Y|10=025|
8=FIX.4.4|9=0049|35=0|34=2|49=EXC|56=045|52=20190724-19:20:14.000|10=173|
8=FIX.4.4|9=59|35=0|34=2|49=045|50=045B17|52=20190724-19:19:34.655|56=EXC|10=078|
8=FIX.4.4|9=0049|35=0|34=3|49=EXC|56=045|52=20190724-19:20:44.000|10=177|
8=FIX.4.4|9=59|35=0|34=3|49=045|50=045B17|52=20190724-19:20:04.654|56=EXC|10=067|
8=FIX.4.4|9=59|35=5|34=4|49=045|50=045B17|52=20190724-19:20:20.659|56=EXC|10=076|
8=FIX.4.4|9=0055|35=5|34=4|49=EXC|56=045|52=20190724-19:21:01.282|369=4|10=206|
8=FIX.4.4|9=110|35=A|34=1|49=045|50=045B17|52=20190724-19:31:04.574|56=EXC|43=N|98=0|108=30|141=Y|553=045FCM001|554=045FCM001|10=105|
8=FIX.4.4|9=0067|35=A|34=1|49=EXC|56=045|52=20190724-19:31:45.224|98=0|108=30|141=Y|10=017|
8=FIX.4.4|9=0049|35=0|34=2|49=EXC|56=045|52=20190724-19:32:15.000|10=177|
8=FIX.4.4|9=59|35=0|34=2|49=045|50=045B17|52=20190724-19:31:35.210|56=EXC|10=060|
8=FIX.4.4|9=0049|35=0|34=3|49=EXC|56=045|52=20190724-19:32:45.000|10=181|
8=FIX.4.4|9=59|35=0|34=3|49=045|50=045B17|52=20190724-19:32:05.431|56=EXC|10=064|
8=FIX.4.4|9=59|35=5|34=4|49=045|50=045B17|52=20190724-19:32:21.195|56=EXC|10=075|
8=FIX.4.4|9=0055|35=5|34=4|49=EXC|56=045|52=20190724-19:33:01.830|369=4|10=208|
8=FIX.4.4|9=110|35=A|34=1|49=045|50=045B17|52=20190724-19:36:51.781|56=EXC|43=N|98=0|108=30|141=Y|553=045FCM001|554=045FCM001|10=112|
8=FIX.4.4|9=0067|35=A|34=1|49=EXC|56=045|52=20190724-19:37:32.433|98=0|108=30|141=Y|10=021|
8=FIX.4.4|9=0049|35=0|34=2|49=EXC|56=045|52=20190724-19:38:02.000|10=179|
8=FIX.4.4|9=59|35=0|34=2|49=045|50=045B17|52=20190724-19:37:22.457|56=EXC|10=075|
8=FIX.4.4|9=0049|35=0|34=3|49=EXC|56=045|52=20190724-19:38:32.000|10=183|
8=FIX.4.4|9=59|35=0|34=3|49=045|50=045B17|52=20190724-19:37:52.595|56=EXC|10=082|
8=FIX.4.4|9=59|35=5|34=4|49=045|50=045B17|52=20190724-19:38:08.454|56=EXC|10=084|
8=FIX.4.4|9=0055|35=5|34=4|49=EXC|56=045|52=20190724-19:38:49.084|369=4|10=226|
8=FIX.4.4|9=110|35=A|34=1|49=045|50=045B17|52=20190724-19:39:41.295|56=EXC|43=N|98=0|108=30|141=Y|553=045FCM001|554=045FCM001|10=114|
8=FIX.4.4|9=0067|35=A|34=1|49=EXC|56=045|52=20190724-19:40:21.938|98=0|108=30|141=Y|10=023|
8=FIX.4.4|9=0049|35=0|34=2|49=EXC|56=045|52=20190724-19:40:51.000|10=176|
8=FIX.4.4|9=59|35=0|34=2|49=045|50=045B17|52=20190724-19:40:12.044|56=EXC|10=060|
8=FIX.4.4|9=0049|35=0|34=3|49=EXC|56=045|52=20190724-19:41:21.000|10=175|
8=FIX.4.4|9=59|35=0|34=3|49=045|50=045B17|52=20190724-19:40:42.074|56=EXC|10=067|
8=FIX.4.4|9=0049|35=0|34=4|49=EXC|56=045|52=20190724-19:41:51.000|10=179|
8=FIX.4.4|9=59|35=0|34=4|49=045|50=045B17|52=20190724-19:41:13.051|56=EXC|10=062|
8=FIX.4.4|9=0049|35=0|34=5|49=EXC|56=045|52=20190724-19:42:21.000|10=178|
8=FIX.4.4|9=59|35=0|34=5|49=045|50=045B17|52=20190724-19:41:43.049|56=EXC|10=073|
8=FIX.4.4|9=0049|35=0|34=6|49=EXC|56=045|52=20190724-19:42:51.000|10=182|
8=FIX.4.4|9=59|35=0|34=6|49=045|50=045B17|52=20190724-19:42:13.048|56=EXC|10=071|
8=FIX.4.4|9=0049|35=0|34=7|49=EXC|56=045|52=20190724-19:43:21.000|10=181|
8=FIX.4.4|9=59|35=0|34=7|49=045|50=045B17|52=20190724-19:42:43.438|56=EXC|10=078|
8=FIX.4.4|9=158|35=R|34=8|49=045|50=045B17|52=20190724-19:43:07.998|56=EXC|131=201907241439374_R|146=1|55=   |22=M|762=AFIR|54=1|38=200|1=RP001|453=1|448=051B17|447=C|452=37|10=122|
8=FIX.4.4|9=0153|35=AG|34=8|49=EXC|56=045|57=045B17|52=20190724-19:43:48.637|131=201907241439374_R|658=1|146=1|55=   |762=AFIR|22=M|38=200|58=(1479): Simbolo desconocido|10=147|
8=FIX.4.4|9=161|35=R|34=9|49=045|50=045B17|52=20190724-19:43:23.027|56=EXC|131=201907241439375_R|146=1|55=CPIH17F|22=M|762=AFIR|54=1|38=90|1=RP001|453=1|448=051B17|447=C|452=37|10=172|
8=FIX.4.4|9=0156|35=AG|34=9|49=EXC|56=045|57=045B17|52=20190724-19:44:03.666|131=201907241439375_R|658=1|146=1|55=CPIH17F|762=AFIR|22=M|38=90|58=(1479): Simbolo desconocido|10=219|
8=FIX.4.4|9=163|35=R|34=10|49=045|50=045B17|52=20190724-19:43:43.060|56=EXC|131=201907241439376_R|146=1|55=T24U19F|22=M|762=AFIR|54=1|38=110|1=RP001|453=1|448=051B17|447=C|452=37|10=236|
8=FIX.4.4|9=0245|35=AI|34=10|49=EXC|56=045|57=045B17|52=20190724-19:44:23.702|131=201907241439376_R|453=4|448=045B17|447=C|452=12|448=045|447=C|452=1|448=045FCM001|447=C|452=36|448=051B17|447=C|452=37|55=T24U19F|762=AFIR|48=27227|22=M|54=1|1=RP001|38=110|297=10|10=164|
8=FIX.4.4|9=0050|35=0|34=11|49=EXC|56=045|52=20190724-19:44:53.000|10=222|
8=FIX.4.4|9=60|35=0|34=11|49=045|50=045B17|52=20190724-19:44:14.048|56=EXC|10=110|
8=FIX.4.4|9=161|35=R|34=12|49=045|50=045B17|52=20190724-19:44:18.130|56=EXC|131=201907241439377_R|146=1|55=T24U19F|22=M|762=AFIR|54=1|38=0|1=RP001|453=1|448=051B17|447=C|452=37|10=140|
8=FIX.4.4|9=0162|35=AG|34=12|49=EXC|56=045|57=045B17|52=20190724-19:44:58.769|131=201907241439377_R|658=99|146=1|55=T24U19F|762=AFIR|22=M|38=0|58=(333): ID de cotización inválida|10=129|
8=FIX.4.4|9=0050|35=0|34=13|49=EXC|56=045|52=20190724-19:45:28.000|10=227|
8=FIX.4.4|9=60|35=0|34=13|49=045|50=045B17|52=20190724-19:44:49.044|56=EXC|10=116|
8=FIX.4.4|9=0050|35=0|34=14|49=EXC|56=045|52=20190724-19:45:58.000|10=231|
8=FIX.4.4|9=60|35=0|34=14|49=045|50=045B17|52=20190724-19:45:19.058|56=EXC|10=120|
8=FIX.4.4|9=187|35=R|34=15|49=045|50=045B17|52=20190724-19:45:33.325|56=EXC|131=2019072414393710_R|146=1|55=T24U19F|22=M|762=AFIR|54=1|38=15|1=RP001|453=2|448=051B17|447=C|452=37|448=037B18|447=C|452=37|10=130|
8=FIX.4.4|9=0269|35=AI|34=15|49=EXC|56=045|57=045B17|52=20190724-19:46:13.968|131=2019072414393710_R|453=5|448=045B17|447=C|452=12|448=045|447=C|452=1|448=045FCM001|447=C|452=36|448=051B17|447=C|452=37|448=037B18|447=C|452=37|55=T24U19F|762=AFIR|48=27227|22=M|54=1|1=RP001|38=15|297=10|10=068|
8=FIX.4.4|9=186|35=R|34=16|49=045|50=045B17|52=20190724-19:45:53.396|56=EXC|131=2019072414393710_R|146=1|55=T24U19F|22=M|762=AFIR|54=1|38=0|1=RP001|453=2|448=051B17|447=C|452=37|448=037B18|447=C|452=37|10=086|
8=FIX.4.4|9=0269|35=AI|34=16|49=EXC|56=045|57=045B17|52=20190724-19:46:34.039|131=2019072414393710_R|453=5|448=045B17|447=C|452=12|448=045|447=C|452=1|448=045FCM001|447=C|452=36|448=051B17|447=C|452=37|448=037B18|447=C|452=37|55=T24U19F|762=AFIR|48=27227|22=M|54=1|1=RP001|38=15|297=17|10=068|
8=FIX.4.4|9=0050|35=0|34=17|49=EXC|56=045|52=20190724-19:47:04.000|10=227|
8=FIX.4.4|9=60|35=5|34=17|49=045|50=045B17|52=20190724-19:46:24.045|56=EXC|10=121|
8=FIX.4.4|9=0057|35=5|34=18|49=EXC|56=045|52=20190724-19:47:04.701|369=17|10=064|
8=FIX.4.4|9=110|35=A|34=1|49=045|50=045B17|52=20190725-13:14:32.536|56=EXC|43=N|98=0|108=30|141=Y|553=045FCM001|554=045FCM001|10=100|
8=FIX.4.4|9=0067|35=A|34=1|49=EXC|56=045|52=20190725-13:15:13.887|98=0|108=30|141=Y|10=024|
8=FIX.4.4|9=0049|35=0|34=2|49=EXC|56=045|52=20190725-13:15:43.000|10=174|
8=FIX.4.4|9=59|35=0|34=2|49=045|50=045B17|52=20190725-13:15:03.045|56=EXC|10=058|
8=FIX.4.4|9=59|35=5|34=3|49=045|50=045B17|52=20190725-13:15:24.050|56=EXC|10=063|
8=FIX.4.4|9=0055|35=5|34=3|49=EXC|56=045|52=20190725-13:16:05.375|369=3|10=210|
8=FIX.4.4|9=110|35=A|34=1|49=045|50=045B17|52=20190725-13:42:12.818|56=EXC|43=N|98=0|108=30|141=Y|553=045FCM001|554=045FCM001|10=102|
8=FIX.4.4|9=0067|35=A|34=1|49=EXC|56=045|52=20190725-13:42:54.195|98=0|108=30|141=Y|10=021|
8=FIX.4.4|9=158|35=R|34=2|49=045|50=045B17|52=20190725-13:42:18.884|56=EXC|131=201907250842084_R|146=1|55=   |22=M|762=AFIR|54=1|38=200|1=RP001|453=1|448=051B17|447=C|452=37|10=102|
8=FIX.4.4|9=0153|35=AG|34=2|49=EXC|56=045|57=045B17|52=20190725-13:43:00.228|131=201907250842084_R|658=1|146=1|55=   |762=AFIR|22=M|38=200|58=(1479): Simbolo desconocido|10=116|
8=FIX.4.4|9=0049|35=0|34=3|49=EXC|56=045|52=20190725-13:43:30.000|10=172|
8=FIX.4.4|9=68|35=2|34=3|49=045|50=045B17|52=20190725-13:42:48.654|56=EXC|7=2|16=0|10=200|
8=FIX.4.4|9=0184|35=AG|34=2|43=Y|52=20190725-13:43:30.005|49=EXC|56=045|57=045B17|122=20190725-13:43:00.228|131=201907250842084_R|658=1|146=1|55=   |762=AFIR|22=M|38=200|58=(1479): Simbolo desconocido|10=117|
8=FIX.4.4|9=0065|35=4|34=3|43=Y|49=EXC|56=045|52=20190725-13:43:30.005|123=Y|36=4|10=185|
8=FIX.4.4|9=0054|35=4|34=4|49=EXC|56=045|52=20190725-13:43:30.006|36=5|10=143|
8=FIX.4.4|9=68|35=2|34=4|49=045|50=045B17|52=20190725-13:42:58.676|56=EXC|7=2|16=0|10=206|
8=FIX.4.4|9=0184|35=AG|34=2|43=Y|52=20190725-13:43:40.018|49=EXC|56=045|57=045B17|122=20190725-13:43:00.228|131=201907250842084_R|658=1|146=1|55=   |762=AFIR|22=M|38=200|58=(1479): Simbolo desconocido|10=122|
8=FIX.4.4|9=0065|35=4|34=3|43=Y|49=EXC|56=045|52=20190725-13:43:40.018|123=Y|36=5|10=191|
8=FIX.4.4|9=0054|35=4|34=5|49=EXC|56=045|52=20190725-13:43:40.018|36=6|10=149|
8=FIX.4.4|9=110|35=A|34=1|49=045|50=045B17|52=20190725-13:44:08.141|56=EXC|43=N|98=0|108=30|141=Y|553=045FCM001|554=045FCM001|10=098|
8=FIX.4.4|9=0067|35=A|34=1|49=EXC|56=045|52=20190725-13:44:49.508|98=0|108=30|141=Y|10=025|
8=FIX.4.4|9=158|35=R|34=2|49=045|50=045B17|52=20190725-13:44:13.910|56=EXC|131=201907250844034_R|146=1|55=   |22=M|762=AFIR|54=1|38=200|1=RP001|453=1|448=051B17|447=C|452=37|10=086|
8=FIX.4.4|9=0153|35=AG|34=2|49=EXC|56=045|57=045B17|52=20190725-13:44:55.263|131=201907250844034_R|658=1|146=1|55=   |762=AFIR|22=M|38=200|58=(1479): Simbolo desconocido|10=123|
8=FIX.4.4|9=59|35=5|34=3|49=045|50=045B17|52=20190725-13:44:34.095|56=EXC|10=075|
8=FIX.4.4|9=0055|35=5|34=3|49=EXC|56=045|52=20190725-13:45:15.439|369=3|10=214|
8=FIX.4.4|9=110|35=A|34=1|49=045|50=045B17|52=20190725-14:46:29.943|56=EXC|43=N|98=0|108=30|141=Y|553=045FCM001|554=045FCM001|10=114|
8=FIX.4.4|9=0067|35=A|34=1|49=EXC|56=045|52=20190725-14:47:11.369|98=0|108=30|141=Y|10=023|
8=FIX.4.4|9=0049|35=0|34=2|49=EXC|56=045|52=20190725-14:47:41.000|10=178|
8=FIX.4.4|9=59|35=0|34=2|49=045|50=045B17|52=20190725-14:47:00.650|56=EXC|10=063|
8=FIX.4.4|9=0049|35=0|34=3|49=EXC|56=045|52=20190725-14:48:11.000|10=177|
8=FIX.4.4|9=59|35=0|34=3|49=045|50=045B17|52=20190725-14:47:30.773|56=EXC|10=073|
8=FIX.4.4|9=59|35=5|34=4|49=045|50=045B17|52=20190725-14:47:46.652|56=EXC|10=082|
8=FIX.4.4|9=0055|35=5|34=4|49=EXC|56=045|52=20190725-14:48:28.042|369=4|10=214|
8=FIX.4.4|9=110|35=A|34=1|49=045|50=045B17|52=20190725-15:08:12.678|56=EXC|43=N|98=0|108=30|141=Y|553=045FCM001|554=045FCM001|10=110|
8=FIX.4.4|9=0067|35=A|34=1|49=EXC|56=045|52=20190725-15:08:54.121|98=0|108=30|141=Y|10=014|
8=FIX.4.4|9=0049|35=0|34=2|49=EXC|56=045|52=20190725-15:09:24.000|10=178|
8=FIX.4.4|9=59|35=0|34=2|49=045|50=045B17|52=20190725-15:08:43.210|56=EXC|10=060|
8=FIX.4.4|9=0049|35=0|34=3|49=EXC|56=045|52=20190725-15:09:54.000|10=182|
8=FIX.4.4|9=59|35=0|34=3|49=045|50=045B17|52=20190725-15:09:13.211|56=EXC|10=060|
8=FIX.4.4|9=59|35=5|34=4|49=045|50=045B17|52=20190725-15:09:29.210|56=EXC|10=072|
8=FIX.4.4|9=0055|35=5|34=4|49=EXC|56=045|52=20190725-15:10:10.617|369=4|10=203|
8=FIX.4.4|9=110|35=A|34=1|49=045|50=045B17|52=20190725-15:22:44.383|56=EXC|43=N|98=0|108=30|141=Y|553=045FCM001|554=045FCM001|10=104|
8=FIX.4.4|9=0067|35=A|34=1|49=EXC|56=045|52=20190725-15:23:25.835|98=0|108=30|141=Y|10=021|
8=FIX.4.4|9=0049|35=0|34=2|49=EXC|56=045|52=20190725-15:23:55.000|10=178|
8=FIX.4.4|9=59|35=0|34=2|49=045|50=045B17|52=20190725-15:23:15.024|56=EXC|10=059|
8=FIX.4.4|9=0049|35=0|34=3|49=EXC|56=045|52=20190725-15:24:25.000|10=177|
8=FIX.4.4|9=59|35=0|34=3|49=045|50=045B17|52=20190725-15:23:45.161|56=EXC|10=065|
8=FIX.4.4|9=59|35=5|34=4|49=045|50=045B17|52=20190725-15:24:01.073|56=EXC|10=066|
8=FIX.4.4|9=0055|35=5|34=4|49=EXC|56=045|52=20190725-15:24:42.510|369=4|10=205|
8=FIX.4.4|9=59|35=5|34=5|49=045|50=045B17|52=20190725-15:24:01.089|56=EXC|10=074|
8=FIX.4.4|9=110|35=A|34=1|49=045|50=045B17|52=20190725-15:34:23.654|56=EXC|43=N|98=0|108=30|141=Y|553=045FCM001|554=045FCM001|10=105|
8=FIX.4.4|9=0067|35=A|34=1|49=EXC|56=045|52=20190725-15:35:05.176|98=0|108=30|141=Y|10=020|
8=FIX.4.4|9=0049|35=0|34=2|49=EXC|56=045|52=20190725-15:35:35.000|10=179|
8=FIX.4.4|9=59|35=0|34=2|49=045|50=045B17|52=20190725-15:34:54.234|56=EXC|10=067|
8=FIX.4.4|9=0049|35=0|34=3|49=EXC|56=045|52=20190725-15:36:05.000|10=178|
8=FIX.4.4|9=59|35=0|34=3|49=045|50=045B17|52=20190725-15:35:24.535|56=EXC|10=070|
8=FIX.4.4|9=59|35=5|34=4|49=045|50=045B17|52=20190725-15:35:40.232|56=EXC|10=068|
8=FIX.4.4|9=0055|35=5|34=4|49=EXC|56=045|52=20190725-15:36:21.674|369=4|10=216|
8=FIX.4.4|9=110|35=A|34=1|49=045|50=045B17|52=20190725-17:09:50.581|56=EXC|43=N|98=0|108=30|141=Y|553=045FCM001|554=045FCM001|10=108|
8=FIX.4.4|9=0067|35=A|34=1|49=EXC|56=045|52=20190725-17:10:32.107|98=0|108=30|141=Y|10=009|
8=FIX.4.4|9=0049|35=0|34=2|49=EXC|56=045|52=20190725-17:11:02.000|10=169|
8=FIX.4.4|9=59|35=0|34=2|49=045|50=045B17|52=20190725-17:10:21.247|56=EXC|10=061|
8=FIX.4.4|9=59|35=5|34=3|49=045|50=045B17|52=20190725-17:10:42.258|56=EXC|10=072|
8=FIX.4.4|9=0055|35=5|34=3|49=EXC|56=045|52=20190725-17:11:23.753|369=3|10=209|
8=FIX.4.4|9=110|35=A|34=1|49=045|50=045B17|52=20190725-18:52:13.463|56=EXC|43=N|98=0|108=30|141=Y|553=045FCM001|554=045FCM001|10=105|
8=FIX.4.4|9=0067|35=A|34=1|49=EXC|56=045|52=20190725-18:52:55.076|98=0|108=30|141=Y|10=026|
8=FIX.4.4|9=0049|35=0|34=2|49=EXC|56=045|52=20190725-18:53:25.000|10=181|
8=FIX.4.4|9=59|35=0|34=2|49=045|50=045B17|52=20190725-18:52:44.024|56=EXC|10=066|
8=FIX.4.4|9=0049|35=0|34=3|49=EXC|56=045|52=20190725-18:53:55.000|10=185|
8=FIX.4.4|9=59|35=0|34=3|49=045|50=045B17|52=20190725-18:53:14.030|56=EXC|10=062|
8=FIX.4.4|9=0049|35=0|34=4|49=EXC|56=045|52=20190725-18:54:25.000|10=184|
8=FIX.4.4|9=59|35=0|34=4|49=045|50=045B17|52=20190725-18:53:44.029|56=EXC|10=074|
8=FIX.4.4|9=0049|35=0|34=5|49=EXC|56=045|52=20190725-18:54:55.000|10=188|
8=FIX.4.4|9=59|35=0|34=5|49=045|50=045B17|52=20190725-18:54:14.263|56=EXC|10=073|
8=FIX.4.4|9=0049|35=0|34=6|49=EXC|56=045|52=20190725-18:55:25.000|10=187|
8=FIX.4.4|9=59|35=0|34=6|49=045|50=045B17|52=20190725-18:54:45.030|56=EXC|10=070|
8=FIX.4.4|9=0049|35=0|34=7|49=EXC|56=045|52=20190725-18:55:55.000|10=191|
8=FIX.4.4|9=59|35=0|34=7|49=045|50=045B17|52=20190725-18:55:15.029|56=EXC|10=077|
8=FIX.4.4|9=0049|35=0|34=8|49=EXC|56=045|52=20190725-18:56:25.000|10=190|
8=FIX.4.4|9=59|35=0|34=8|49=045|50=045B17|52=20190725-18:55:45.029|56=EXC|10=081|
8=FIX.4.4|9=158|35=R|34=9|49=045|50=045B17|52=20190725-18:55:45.330|56=EXC|131=201907251352084_R|146=1|55=   |22=M|762=AFIR|54=1|38=200|1=RP001|453=1|448=051B17|447=C|452=37|10=101|
8=FIX.4.4|9=0153|35=AG|34=9|49=EXC|56=045|57=045B17|52=20190725-18:56:26.909|131=201907251352084_R|658=1|146=1|55=   |762=AFIR|22=M|38=200|58=(1479): Simbolo desconocido|10=143|
8=FIX.4.4|9=162|35=R|34=10|49=045|50=045B17|52=20190725-18:56:00.369|56=EXC|131=201907251352085_R|146=1|55=CPIH17F|22=M|762=AFIR|54=1|38=90|1=RP001|453=1|448=051B17|447=C|452=37|10=214|
8=FIX.4.4|9=0157|35=AG|34=10|49=EXC|56=045|57=045B17|52=20190725-18:56:41.950|131=201907251352085_R|658=1|146=1|55=CPIH17F|762=AFIR|22=M|38=90|58=(1479): Simbolo desconocido|10=254|
8=FIX.4.4|9=163|35=R|34=11|49=045|50=045B17|52=20190725-18:56:20.403|56=EXC|131=201907251352086_R|146=1|55=T24U19F|22=M|762=AFIR|54=1|38=110|1=RP001|453=1|448=051B17|447=C|452=37|10=230|
8=FIX.4.4|9=0245|35=AI|34=11|49=EXC|56=045|57=045B17|52=20190725-18:57:01.984|131=201907251352086_R|453=4|448=045B17|447=C|452=12|448=045|447=C|452=1|448=045FCM001|447=C|452=36|448=051B17|447=C|452=37|55=T24U19F|762=AFIR|48=27227|22=M|54=1|1=RP001|38=110|297=10|10=170|
8=FIX.4.4|9=0050|35=0|34=12|49=EXC|56=045|52=20190725-18:57:31.000|10=223|
8=FIX.4.4|9=60|35=0|34=12|49=045|50=045B17|52=20190725-18:56:51.032|56=EXC|10=108|
8=FIX.4.4|9=161|35=R|34=13|49=045|50=045B17|52=20190725-18:56:55.503|56=EXC|131=201907251352087_R|146=1|55=T24U19F|22=M|762=AFIR|54=1|38=0|1=RP001|453=1|448=051B17|447=C|452=37|10=142|
8=FIX.4.4|9=0162|35=AG|34=13|49=EXC|56=045|57=045B17|52=20190725-18:57:37.081|131=201907251352087_R|658=99|146=1|55=T24U19F|762=AFIR|22=M|38=0|58=(333): ID de cotización inválida|10=111|
8=FIX.4.4|9=0050|35=0|34=14|49=EXC|56=045|52=20190725-18:58:07.000|10=229|
8=FIX.4.4|9=60|35=0|34=14|49=045|50=045B17|52=20190725-18:57:26.027|56=EXC|10=117|
8=FIX.4.4|9=0050|35=0|34=15|49=EXC|56=045|52=20190725-18:58:37.000|10=233|
8=FIX.4.4|9=60|35=0|34=15|49=045|50=045B17|52=20190725-18:57:56.026|56=EXC|10=120|
8=FIX.4.4|9=187|35=R|34=16|49=045|50=045B17|52=20190725-18:58:10.745|56=EXC|131=2019072513520810_R|146=1|55=T24U19F|22=M|762=AFIR|54=1|38=15|1=RP001|453=2|448=051B17|447=C|452=37|448=037B18|447=C|452=37|10=129|
8=FIX.4.4|9=0269|35=AI|34=16|49=EXC|56=045|57=045B17|52=20190725-18:58:52.325|131=2019072513520810_R|453=5|448=045B17|447=C|452=12|448=045|447=C|452=1|448=045FCM001|447=C|452=36|448=051B17|447=C|452=37|448=037B18|447=C|452=37|55=T24U19F|762=AFIR|48=27227|22=M|54=1|1=RP001|38=15|297=10|10=055|
8=FIX.4.4|9=186|35=R|34=17|49=045|50=045B17|52=20190725-18:58:35.818|56=EXC|131=2019072513520810_R|146=1|55=T24U19F|22=M|762=AFIR|54=1|38=0|1=RP001|453=2|448=051B17|447=C|452=37|448=037B18|447=C|452=37|10=083|
8=FIX.4.4|9=0269|35=AI|34=17|49=EXC|56=045|57=045B17|52=20190725-18:59:17.397|131=2019072513520810_R|453=5|448=045B17|447=C|452=12|448=045|447=C|452=1|448=045FCM001|447=C|452=36|448=051B17|447=C|452=37|448=037B18|447=C|452=37|55=T24U19F|762=AFIR|48=27227|22=M|54=1|1=RP001|38=15|297=17|10=074|
8=FIX.4.4|9=0050|35=0|34=18|49=EXC|56=045|52=20190725-18:59:47.000|10=238|
8=FIX.4.4|9=60|35=5|34=18|49=045|50=045B17|52=20190725-18:59:06.026|56=EXC|10=125|
8=FIX.4.4|9=0057|35=5|34=19|49=EXC|56=045|52=20190725-18:59:47.610|369=18|10=075|
8=FIX.4.4|9=110|35=A|34=1|49=045|50=045B17|52=20190725-20:53:37.158|56=EXC|43=N|98=0|108=30|141=Y|553=045FCM001|554=045FCM001|10=106|
8=FIX.4.4|9=0067|35=A|34=1|49=EXC|56=045|52=20190725-15:57:57.846|98=0|108=30|141=Y|10=035|
8=FIX.4.4|9=0049|35=0|34=2|49=EXC|56=045|52=20190725-15:58:27.000|10=185|
8=FIX.4.4|9=59|35=0|34=2|49=045|50=045B17|52=20190725-20:54:07.896|56=EXC|10=077|
8=FIX.4.4|9=0049|35=0|34=3|49=EXC|56=045|52=20190725-15:58:57.000|10=189|
8=FIX.4.4|9=59|35=0|34=3|49=045|50=045B17|52=20190725-20:54:38.043|56=EXC|10=066|
8=FIX.4.4|9=59|35=5|34=4|49=045|50=045B17|52=20190725-20:54:53.902|56=EXC|10=073|
8=FIX.4.4|9=0055|35=5|34=4|49=EXC|56=045|52=20190725-15:59:14.580|369=4|10=219|
8=FIX.4.4|9=110|35=A|34=1|49=045|50=045B17|52=20190726-14:12:07.181|56=EXC|43=N|98=0|108=30|141=Y|553=045FCM001|554=045FCM001|10=098|
8=FIX.4.4|9=0067|35=A|34=1|49=EXC|56=045|52=20190726-14:12:49.550|98=0|108=30|141=Y|10=019|
8=FIX.4.4|9=158|35=R|34=2|49=045|50=045B17|52=20190726-14:12:13.219|56=EXC|131=201907260912024_R|146=1|55=   |22=M|762=AFIR|54=1|38=200|1=RP001|453=1|448=051B17|447=C|452=37|10=081|
8=FIX.4.4|9=0153|35=AG|34=2|49=EXC|56=045|57=045B17|52=20190726-14:12:55.557|131=201907260912024_R|658=1|146=1|55=   |762=AFIR|22=M|38=200|58=(1479): Simbolo desconocido|10=122|
8=FIX.4.4|9=59|35=5|34=3|49=045|50=045B17|52=20190726-14:12:33.424|56=EXC|10=067|
8=FIX.4.4|9=0055|35=5|34=3|49=EXC|56=045|52=20190726-14:13:15.763|369=3|10=211|
8=FIX.4.4|9=110|35=A|34=1|49=045|50=045B17|52=20190726-15:54:34.672|56=EXC|43=N|98=0|108=30|141=Y|553=045FCM001|554=045FCM001|10=110|
8=FIX.4.4|9=0067|35=A|34=1|49=EXC|56=045|52=20190726-15:55:17.083|98=0|108=30|141=Y|10=023|
8=FIX.4.4|9=158|35=R|34=2|49=045|50=045B17|52=20190726-15:54:40.659|56=EXC|131=201907261054304_R|146=1|55=   |22=M|762=AFIR|54=1|38=200|1=RP001|453=1|448=051B17|447=C|452=37|10=095|
8=FIX.4.4|9=0153|35=AG|34=2|49=EXC|56=045|57=045B17|52=20190726-15:55:23.056|131=201907261054304_R|658=1|146=1|55=   |762=AFIR|22=M|38=200|58=(1479): Simbolo desconocido|10=118|
8=FIX.4.4|9=59|35=5|34=3|49=045|50=045B17|52=20190726-15:55:00.814|56=EXC|10=072|
8=FIX.4.4|9=0055|35=5|34=3|49=EXC|56=045|52=20190726-15:55:43.212|369=3|10=208|
