8=FIX.4.4|9=105|35=A|34=1|49=001|50=001B27|52=20190620-14:50:57.150|56=EXC|98=0|108=30|141=Y|553=001FCM001|554=001FCM001|10=080|
8=FIX.4.4|9=0067|35=A|34=1|49=EXC|56=001|52=20190620-14:50:57.198|98=0|108=30|141=Y|10=013|
8=FIX.4.4|9=161|35=R|34=2|49=001|50=001B27|52=20190620-14:51:04.727|56=EXC|131=20190620950544_R|146=1|55=TFIT06211118|22=M|762=RFQF|54=1|38=500000000|453=1|448=DCV|447=C|452=10|10=155|
8=FIX.4.4|9=0154|35=AG|34=2|49=EXC|56=001|57=001B27|52=20190620-14:51:04.676|131=20190620950544_R|658=1|146=1|55=TFIT06211118|762=RFQF|22=M|58=(1479): Simbolo desconocido|10=115|
8=FIX.4.4|9=105|35=A|34=1|49=001|50=001B27|52=20190620-16:55:22.947|56=EXC|98=0|108=30|141=Y|553=001FCM001|554=001FCM001|10=093|
8=FIX.4.4|9=0067|35=A|34=1|49=EXC|56=001|52=20190620-16:55:22.998|98=0|108=30|141=Y|10=020|
8=FIX.4.4|9=105|35=A|34=1|49=001|50=001B27|52=20190620-19:11:54.896|56=EXC|98=0|108=30|141=Y|553=001FCM001|554=001FCM001|10=096|
8=FIX.4.4|9=0067|35=A|34=1|49=EXC|56=001|52=20190620-19:11:53.978|98=0|108=30|141=Y|10=017|
8=FIX.4.4|9=161|35=R|34=2|49=001|50=001B27|52=20190620-19:12:02.461|56=EXC|131=201906201411504_R|146=1|55=TFIT19PEDRO|22=M|762=RFQF|54=1|38=500000000|453=1|448=DCV|447=C|452=10|10=011|
8=FIX.4.4|9=0154|35=AG|34=2|49=EXC|56=001|57=001B27|52=20190620-19:12:01.453|131=201906201411504_R|658=1|146=1|55=TFIT19PEDRO|762=RFQF|22=M|58=(1479): Simbolo desconocido|10=224|
8=FIX.4.4|9=105|35=A|34=1|49=001|50=001B27|52=20190620-19:19:41.016|56=EXC|98=0|108=30|141=Y|553=001FCM001|554=001FCM001|10=084|
8=FIX.4.4|9=0067|35=A|34=1|49=EXC|56=001|52=20190620-19:19:40.102|98=0|108=30|141=Y|10=000|
8=FIX.4.4|9=161|35=R|34=2|49=001|50=001B27|52=20190620-19:19:48.523|56=EXC|131=201906201419384_R|146=1|55=TFIT19PEDRO|22=M|762=RFQF|54=1|38=500000000|453=1|448=DCV|447=C|452=10|10=041|
8=FIX.4.4|9=0154|35=AG|34=2|49=EXC|56=001|57=001B27|52=20190620-19:19:47.560|131=201906201419384_R|658=1|146=1|55=TFIT19PEDRO|762=RFQF|22=M|58=(1479): Simbolo desconocido|10=254|
8=FIX.4.4|9=105|35=A|34=1|49=001|50=001B27|52=20190620-19:21:14.765|56=EXC|98=0|108=30|141=Y|553=001FCM001|554=001FCM001|10=088|
8=FIX.4.4|9=0067|35=A|34=1|49=EXC|56=001|52=20190620-19:21:13.872|98=0|108=30|141=Y|10=007|
8=FIX.4.4|9=161|35=R|34=2|49=001|50=001B27|52=20190620-19:21:22.243|56=EXC|131=201906201421124_R|146=1|55=TFIT19PEDRO|22=M|762=RFQF|54=1|38=500000000|453=1|448=DCV|447=C|452=10|10=010|
8=FIX.4.4|9=0154|35=AG|34=2|49=EXC|56=001|57=001B27|52=20190620-19:21:21.289|131=201906201421124_R|658=1|146=1|55=TFIT19PEDRO|762=RFQF|22=M|58=(1479): Simbolo desconocido|10=232|
8=FIX.4.4|9=0049|35=0|34=3|49=EXC|56=001|52=20190620-19:21:51.000|10=163|
8=FIX.4.4|9=59|35=0|34=3|49=001|50=001B27|52=20190620-19:21:52.699|56=EXC|10=060|
8=FIX.4.4|9=0049|35=0|34=4|49=EXC|56=001|52=20190620-19:22:21.000|10=162|
8=FIX.4.4|9=59|35=0|34=4|49=001|50=001B27|52=20190620-19:22:22.697|56=EXC|10=057|
8=FIX.4.4|9=0049|35=0|34=5|49=EXC|56=001|52=20190620-19:22:51.000|10=166|
8=FIX.4.4|9=59|35=0|34=5|49=001|50=001B27|52=20190620-19:22:53.664|56=EXC|10=056|
8=FIX.4.4|9=0049|35=0|34=6|49=EXC|56=001|52=20190620-19:23:21.000|10=165|
8=FIX.4.4|9=59|35=0|34=6|49=001|50=001B27|52=20190620-19:23:24.607|56=EXC|10=053|
8=FIX.4.4|9=105|35=A|34=1|49=001|50=001B27|52=20190620-19:24:52.940|56=EXC|98=0|108=30|141=Y|553=001FCM001|554=001FCM001|10=088|
8=FIX.4.4|9=0067|35=A|34=1|49=EXC|56=001|52=20190620-19:24:52.310|98=0|108=30|141=Y|10=000|
8=FIX.4.4|9=161|35=R|34=2|49=001|50=001B27|52=20190620-19:25:00.457|56=EXC|131=201906201424504_R|146=1|55=TFIT19PEDRO|22=M|762=RFQF|54=1|38=500000000|453=1|448=DCV|447=C|452=10|10=022|
8=FIX.4.4|9=0154|35=AG|34=2|49=EXC|56=001|57=001B27|52=20190620-19:24:59.793|131=201906201424504_R|658=1|146=1|55=TFIT19PEDRO|762=RFQF|22=M|58=(1479): Simbolo desconocido|10=251|
8=FIX.4.4|9=0049|35=0|34=3|49=EXC|56=001|52=20190620-19:25:29.000|10=172|
8=FIX.4.4|9=59|35=0|34=3|49=001|50=001B27|52=20190620-19:25:30.809|56=EXC|10=053|
8=FIX.4.4|9=0049|35=0|34=4|49=EXC|56=001|52=20190620-19:25:59.000|10=176|
8=FIX.4.4|9=59|35=0|34=4|49=001|50=001B27|52=20190620-19:26:01.752|56=EXC|10=050|
8=FIX.4.4|9=0049|35=0|34=5|49=EXC|56=001|52=20190620-19:26:29.000|10=175|
8=FIX.4.4|9=59|35=0|34=5|49=001|50=001B27|52=20190620-19:26:32.696|56=EXC|10=062|
8=FIX.4.4|9=0049|35=0|34=6|49=EXC|56=001|52=20190620-19:26:59.000|10=179|
8=FIX.4.4|9=59|35=0|34=6|49=001|50=001B27|52=20190620-19:27:03.635|56=EXC|10=055|
8=FIX.4.4|9=0049|35=0|34=7|49=EXC|56=001|52=20190620-19:27:29.000|10=178|
8=FIX.4.4|9=105|35=A|34=1|49=001|50=001B27|52=20190620-19:27:51.335|56=EXC|98=0|108=30|141=Y|553=001FCM001|554=001FCM001|10=088|
8=FIX.4.4|9=0067|35=A|34=1|49=EXC|56=001|52=20190620-19:27:51.018|98=0|108=30|141=Y|10=007|
8=FIX.4.4|9=161|35=R|34=2|49=001|50=001B27|52=20190620-19:27:58.902|56=EXC|131=201906201427484_R|146=1|55=TFIT19PEDRO|22=M|762=RFQF|54=1|38=500000000|453=1|448=DCV|447=C|452=10|10=042|
8=FIX.4.4|9=0154|35=AG|34=2|49=EXC|56=001|57=001B27|52=20190620-19:27:58.544|131=201906201427484_R|658=1|146=1|55=TFIT19PEDRO|762=RFQF|22=M|58=(1479): Simbolo desconocido|10=001|
8=FIX.4.4|9=105|35=A|34=1|49=001|50=001B27|52=20190620-19:59:00.549|56=EXC|98=0|108=30|141=Y|553=001FCM001|554=001FCM001|10=094|
8=FIX.4.4|9=0067|35=A|34=1|49=EXC|56=001|52=20190620-19:59:00.212|98=0|108=30|141=Y|10=002|
8=FIX.4.4|9=161|35=R|34=2|49=001|50=001B27|52=20190620-19:59:08.045|56=EXC|131=201906201458574_R|146=1|55=TFIT19PEDRO|22=M|762=RFQF|54=1|38=500000000|453=1|448=DCV|447=C|452=10|10=044|
8=FIX.4.4|9=0154|35=AG|34=2|49=EXC|56=001|57=001B27|52=20190620-19:59:07.641|131=201906201458574_R|658=1|146=1|55=TFIT19PEDRO|762=RFQF|22=M|58=(1479): Simbolo desconocido|10=002|
8=FIX.4.4|9=0049|35=0|34=3|49=EXC|56=001|52=20190620-19:59:37.000|10=178|
8=FIX.4.4|9=59|35=0|34=3|49=001|50=001B27|52=20190620-19:59:38.492|56=EXC|10=066|
8=FIX.4.4|9=105|35=A|34=1|49=001|50=001B27|52=20190620-20:18:46.099|56=EXC|98=0|108=30|141=Y|553=001FCM001|554=001FCM001|10=091|
8=FIX.4.4|9=0067|35=A|34=1|49=EXC|56=001|52=20190620-20:18:46.107|98=0|108=30|141=Y|10=002|
8=FIX.4.4|9=161|35=R|34=2|49=001|50=001B27|52=20190620-20:18:53.619|56=EXC|131=201906201518434_R|146=1|55=TFIT19PEDRO|22=M|762=RFQF|54=1|38=500000000|453=1|448=DCV|447=C|452=10|10=030|
8=FIX.4.4|9=0154|35=AG|34=2|49=EXC|56=001|57=001B27|52=20190620-20:18:53.570|131=201906201518434_R|658=1|146=1|55=TFIT19PEDRO|762=RFQF|22=M|58=(1479): Simbolo desconocido|10=239|
8=FIX.4.4|9=105|35=A|34=1|49=001|50=001B27|52=20190621-13:23:41.443|56=EXC|98=0|108=30|141=Y|553=001FCM001|554=001FCM001|10=078|
8=FIX.4.4|9=0067|35=A|34=1|49=EXC|56=001|52=20190621-13:23:41.514|98=0|108=30|141=Y|10=254|
8=FIX.4.4|9=160|35=R|34=2|49=001|50=001B27|52=20190621-13:23:49.060|56=EXC|131=20190621823384_R|146=1|55=TFIT19PEDRO|22=M|762=RFQF|54=1|38=500000000|453=1|448=DCV|447=C|452=10|10=234|
8=FIX.4.4|9=0153|35=AG|34=2|49=EXC|56=001|57=001B27|52=20190621-13:23:49.072|131=20190621823384_R|658=1|146=1|55=TFIT19PEDRO|762=RFQF|22=M|58=(1479): Simbolo desconocido|10=194|
8=FIX.4.4|9=59|35=5|34=3|49=001|50=001B27|52=20190621-13:24:07.563|56=EXC|10=053|
8=FIX.4.4|9=0049|35=5|34=3|49=EXC|56=001|52=20190621-13:24:07.573|10=182|
8=FIX.4.4|9=105|35=A|34=1|49=001|50=001B27|52=20190621-13:59:37.736|56=EXC|98=0|108=30|141=Y|553=001FCM001|554=001FCM001|10=097|
8=FIX.4.4|9=0067|35=A|34=1|49=EXC|56=001|52=20190621-13:59:37.773|98=0|108=30|141=Y|10=019|
8=FIX.4.4|9=0049|35=0|34=2|49=EXC|56=001|52=20190621-14:00:07.000|10=156|
8=FIX.4.4|9=59|35=0|34=2|49=001|50=001B27|52=20190621-14:00:08.709|56=EXC|10=045|
8=FIX.4.4|9=0049|35=0|34=3|49=EXC|56=001|52=20190621-14:00:37.000|10=160|
8=FIX.4.4|9=59|35=0|34=3|49=001|50=001B27|52=20190621-14:00:38.709|56=EXC|10=049|
8=FIX.4.4|9=105|35=A|34=1|49=001|50=001B27|52=20190621-14:19:17.874|56=EXC|98=0|108=30|141=Y|553=001FCM001|554=001FCM001|10=095|
8=FIX.4.4|9=0067|35=A|34=1|49=EXC|56=001|52=20190621-14:19:17.904|98=0|108=30|141=Y|10=010|
8=FIX.4.4|9=0049|35=0|34=2|49=EXC|56=001|52=20190621-14:19:47.000|10=170|
8=FIX.4.4|9=59|35=0|34=2|49=001|50=001B27|52=20190621-14:19:48.836|56=EXC|10=060|
8=FIX.4.4|9=59|35=5|34=3|49=001|50=001B27|52=20190621-14:20:10.837|56=EXC|10=048|
8=FIX.4.4|9=0049|35=5|34=3|49=EXC|56=001|52=20190621-14:20:10.823|10=171|
8=FIX.4.4|9=105|35=A|34=1|49=001|50=001B27|52=20190621-14:20:46.054|56=EXC|98=0|108=30|141=Y|553=001FCM001|554=001FCM001|10=079|
8=FIX.4.4|9=0067|35=A|34=1|49=EXC|56=001|52=20190621-14:20:46.082|98=0|108=30|141=Y|10=001|
8=FIX.4.4|9=185|35=R|34=2|49=001|50=001B27|52=20190621-14:20:53.371|56=EXC|131=20190621920431_R|146=1|55=TFIC13280425|22=M|762=RFQF|54=1|38=500000000|453=2|448=002B35|447=C|452=37|448=DCV|447=C|452=10|10=008|
8=FIX.4.4|9=0267|35=AI|34=2|49=EXC|56=001|57=001B27|52=20190621-14:20:53.357|131=20190621920431_R|453=5|448=DCV|447=C|452=10|448=001B27|447=C|452=12|448=001|447=C|452=1|448=001FCM001|447=C|452=36|448=002B35|447=C|452=37|55=TFIC13280425|762=RFQF|48=20626|22=M|54=1|38=500000000|297=10|10=167|
8=FIX.4.4|9=0315|35=S|34=3|49=EXC|56=001|57=001B27|52=20190621-14:21:13.983|131=20190621920431_R|117=20190621-000000000002.00|55=TFIC13280425|762=RFQF|48=20626|22=M|453=5|448=DCV|447=C|452=10|448=001B27|447=C|452=12|448=001|447=C|452=1|448=001FCM001|447=C|452=36|448=002B35|447=C|452=37|634=3.000|135=500000000|62=20190830-22:00:00|10=185|
8=FIX.4.4|9=59|35=0|34=3|49=001|50=001B27|52=20190621-14:21:24.024|56=EXC|10=037|
8=FIX.4.4|9=147|35=AJ|34=4|49=001|50=001B27|52=20190621-14:21:33.123|56=EXC|54=1|55=TFIC13280425|117=20190621-000000000002.00|693=20190621920431_AJ|694=1|762=RFQF|10=007|
8=FIX.4.4|9=0515|35=8|34=4|49=EXC|56=001|57=001B27|52=20190621-14:21:33.108|11=20190621920431_AJ|17=1|37=0|150=F|1080=20190621-000000000002.00|1081=5|453=6|448=001B27|447=C|452=12|448=001|447=C|452=1|448=002B35|447=C|452=37|448=002|447=C|452=17|448=001FCM001|447=C|452=36|448=DCV|447=C|452=10|55=TFIC13280425|762=RFQF|48=20626|22=M|6=84.115|14=500000000|31=84.115|32=500000000|38=500000000|39=2|20102=84.115|54=1|60=20190621-14:21:33.108|75=20190621|63=1|64=20190621|151=0|1623=3.000|381=420577500.000|880=201906210000000001|828=99|10=025|
8=FIX.4.4|9=185|35=R|34=5|49=001|50=001B27|52=20190621-14:22:00.086|56=EXC|131=20190621920432_R|146=1|55=TFIT16280428|22=M|762=RFQF|54=1|38=500000000|453=2|448=002B35|447=C|452=37|448=DCV|447=C|452=10|10=032|
8=FIX.4.4|9=0267|35=AI|34=5|49=EXC|56=001|57=001B27|52=20190621-14:22:00.071|131=20190621920432_R|453=5|448=DCV|447=C|452=10|448=001B27|447=C|452=12|448=001|447=C|452=1|448=001FCM001|447=C|452=36|448=002B35|447=C|452=37|55=TFIT16280428|762=RFQF|48=20399|22=M|54=1|38=500000000|297=10|10=188|
8=FIX.4.4|9=0315|35=S|34=6|49=EXC|56=001|57=001B27|52=20190621-14:22:20.619|131=20190621920432_R|117=20190621-000000000003.00|55=TFIT16280428|762=RFQF|48=20399|22=M|453=5|448=DCV|447=C|452=10|448=001B27|447=C|452=12|448=001|447=C|452=1|448=001FCM001|447=C|452=36|448=002B35|447=C|452=37|634=3.000|135=500000000|62=20190830-22:00:00|10=215|
8=FIX.4.4|9=59|35=0|34=6|49=001|50=001B27|52=20190621-14:22:31.024|56=EXC|10=039|
8=FIX.4.4|9=0094|35=Z|34=7|49=EXC|56=001|57=001B27|52=20190621-14:22:39.720|117=20190621-000000000003.00|298=5|10=067|
8=FIX.4.4|9=185|35=R|34=7|49=001|50=001B27|52=20190621-14:22:58.405|56=EXC|131=20190621920433_R|146=1|55=TFIT16300632|22=M|762=RFQF|54=1|38=500000000|453=2|448=002B35|447=C|452=37|448=DCV|447=C|452=10|10=033|
8=FIX.4.4|9=0267|35=AI|34=8|49=EXC|56=001|57=001B27|52=20190621-14:22:58.390|131=20190621920433_R|453=5|448=DCV|447=C|452=10|448=001B27|447=C|452=12|448=001|447=C|452=1|448=001FCM001|447=C|452=36|448=002B35|447=C|452=37|55=TFIT16300632|762=RFQF|48=20406|22=M|54=1|38=500000000|297=10|10=188|
8=FIX.4.4|9=177|35=R|34=8|49=001|50=001B27|52=20190621-14:23:24.096|56=EXC|131=20190621920433_R|146=1|55=TFIT16300632|22=M|762=RFQF|54=1|38=0|453=2|448=002B35|447=C|452=37|448=DCV|447=C|452=10|10=158|
8=FIX.4.4|9=0267|35=AI|34=9|49=EXC|56=001|57=001B27|52=20190621-14:23:24.081|131=20190621920433_R|453=5|448=DCV|447=C|452=10|448=001B27|447=C|452=12|448=001|447=C|452=1|448=001FCM001|447=C|452=36|448=002B35|447=C|452=37|55=TFIT16300632|762=RFQF|48=20406|22=M|54=1|38=500000000|297=17|10=187|
8=FIX.4.4|9=160|35=R|34=9|49=001|50=001B27|52=20190621-14:23:49.799|56=EXC|131=20190621920434_R|146=1|55=TFIT19PEDRO|22=M|762=RFQF|54=1|38=500000000|453=1|448=DCV|447=C|452=10|10=255|
8=FIX.4.4|9=0154|35=AG|34=10|49=EXC|56=001|57=001B27|52=20190621-14:23:49.785|131=20190621920434_R|658=1|146=1|55=TFIT19PEDRO|762=RFQF|22=M|58=(1479): Simbolo desconocido|10=248|
8=FIX.4.4|9=211|35=R|34=10|49=001|50=001B27|52=20190621-14:24:03.205|56=EXC|131=20190621920435_R|146=1|55=TFIT06110919|22=M|762=RFQF|54=1|38=1000000000|453=3|448=002B35|447=C|452=37|448=DCV|447=C|452=10|448=010BWN|447=C|452=37|10=037|
8=FIX.4.4|9=0293|35=AI|34=11|49=EXC|56=001|57=001B27|52=20190621-14:24:03.190|131=20190621920435_R|453=6|448=DCV|447=C|452=10|448=001B27|447=C|452=12|448=001|447=C|452=1|448=001FCM001|447=C|452=36|448=002B35|447=C|452=37|448=010BWN|447=C|452=37|55=TFIT06110919|762=RFQF|48=20320|22=M|54=1|38=1000000000|297=10|10=196|
8=FIX.4.4|9=0317|35=S|34=12|49=EXC|56=001|57=001B27|52=20190621-14:24:24.164|131=20190621920435_R|117=20190621-000000000005.00|55=TFIT06110919|762=RFQF|48=20320|22=M|453=5|448=DCV|447=C|452=10|448=001B27|447=C|452=12|448=001|447=C|452=1|448=001FCM001|447=C|452=36|448=002B35|447=C|452=37|634=2.000|135=1000000000|62=20190830-22:00:00|10=035|
8=FIX.4.4|9=60|35=0|34=11|49=001|50=001B27|52=20190621-14:24:34.025|56=EXC|10=081|
8=FIX.4.4|9=148|35=AJ|34=12|49=001|50=001B27|52=20190621-14:24:43.444|56=EXC|54=1|55=TFIT06110919|117=20190621-000000000005.00|693=20190621920435_AJ|694=1|762=RFQF|10=091|
8=FIX.4.4|9=0523|35=8|34=13|49=EXC|56=001|57=001B27|52=20190621-14:24:43.429|11=20190621920435_AJ|17=2|37=0|150=F|1080=20190621-000000000005.00|1081=5|453=6|448=001B27|447=C|452=12|448=001|447=C|452=1|448=002B35|447=C|452=37|448=002|447=C|452=17|448=001FCM001|447=C|452=36|448=DCV|447=C|452=10|55=TFIT06110919|762=RFQF|48=20320|22=M|6=101.097|14=1000000000|31=101.097|32=1000000000|38=1000000000|39=2|20102=106.524|54=1|60=20190621-14:24:43.429|75=20190621|63=1|64=20190621|151=0|1623=2.000|381=1065244000.000|880=201906210000000002|828=99|10=167|
8=FIX.4.4|9=0193|35=R|34=14|49=EXC|56=001|52=20190621-14:25:10.133|131=20190621-000000000006.00|146=1|55=TFIT15260826|762=RFQF|48=20348|22=M|54=1|38=1500000000|453=2|448=007B26|447=C|452=12|448=007|447=C|452=1|10=028|
8=FIX.4.4|9=60|35=0|34=13|49=001|50=001B27|52=20190621-14:25:14.024|56=EXC|10=081|
8=FIX.4.4|9=0184|35=R|34=15|49=EXC|56=001|52=20190621-14:25:39.340|131=20190621-000000000006.00|146=1|55=TFIT15260826|762=RFQF|48=20348|22=M|54=1|38=0|453=2|448=007B26|447=C|452=12|448=007|447=C|452=1|10=114|
8=FIX.4.4|9=60|35=0|34=14|49=001|50=001B27|52=20190621-14:25:44.024|56=EXC|10=085|
8=FIX.4.4|9=0050|35=0|34=16|49=EXC|56=001|52=20190621-14:26:09.000|10=211|
8=FIX.4.4|9=60|35=0|34=15|49=001|50=001B27|52=20190621-14:26:14.024|56=EXC|10=084|
8=FIX.4.4|9=0050|35=0|34=17|49=EXC|56=001|52=20190621-14:26:39.000|10=215|
8=FIX.4.4|9=60|35=0|34=16|49=001|50=001B27|52=20190621-14:26:44.025|56=EXC|10=089|
8=FIX.4.4|9=162|35=R|34=17|49=001|50=001B27|52=20190621-14:26:45.140|56=EXC|131=20190621920437_R|146=1|55=TFIC14280426|22=M|762=RFQF|54=1|38=500000000|453=1|448=DCV|447=C|452=10|10=196|
8=FIX.4.4|9=0244|35=AI|34=18|49=EXC|56=001|57=001B27|52=20190621-14:26:45.124|131=20190621920437_R|453=4|448=DCV|447=C|452=10|448=001B27|447=C|452=12|448=001|447=C|452=1|448=001FCM001|447=C|452=36|55=TFIC14280426|762=RFQF|48=20602|22=M|54=1|38=500000000|297=10|10=092|
8=FIX.4.4|9=0192|35=R|34=19|49=EXC|56=001|52=20190621-14:26:45.124|131=20190621-000000000007.00|146=1|55=TFIC14280426|762=RFQF|48=20602|22=M|54=1|38=500000000|453=2|448=001B27|447=C|452=12|448=001|447=C|452=1|10=211|
8=FIX.4.4|9=0050|35=0|34=20|49=EXC|56=001|52=20190621-14:27:15.000|10=204|
8=FIX.4.4|9=210|35=R|34=18|49=001|50=001B27|52=20190621-14:27:15.098|56=EXC|131=20190621920438_R|146=1|55=TFIT16180930|22=M|762=RFQF|54=1|38=500000000|453=3|448=DCV|447=C|452=10|448=002B35|447=C|452=37|448=010BWN|447=C|452=37|10=020|
8=FIX.4.4|9=0292|35=AI|34=21|49=EXC|56=001|57=001B27|52=20190621-14:27:15.082|131=20190621920438_R|453=6|448=DCV|447=C|452=10|448=001B27|447=C|452=12|448=001|447=C|452=1|448=001FCM001|447=C|452=36|448=002B35|447=C|452=37|448=010BWN|447=C|452=37|55=TFIT16180930|762=RFQF|48=20355|22=M|54=1|38=500000000|297=10|10=170|
8=FIX.4.4|9=0050|35=0|34=22|49=EXC|56=001|52=20190621-14:27:45.000|10=209|
8=FIX.4.4|9=60|35=0|34=19|49=001|50=001B27|52=20190621-14:27:46.024|56=EXC|10=094|
8=FIX.4.4|9=0050|35=0|34=23|49=EXC|56=001|52=20190621-14:28:15.000|10=208|
8=FIX.4.4|9=60|35=0|34=20|49=001|50=001B27|52=20190621-14:28:16.024|56=EXC|10=084|
8=FIX.4.4|9=0050|35=0|34=24|49=EXC|56=001|52=20190621-14:28:45.000|10=212|
8=FIX.4.4|9=60|35=0|34=21|49=001|50=001B27|52=20190621-14:28:46.024|56=EXC|10=088|
8=FIX.4.4|9=0050|35=0|34=25|49=EXC|56=001|52=20190621-14:29:15.000|10=211|
8=FIX.4.4|9=60|35=0|34=22|49=001|50=001B27|52=20190621-14:29:16.023|56=EXC|10=086|
