<<<<<<< HEAD
8=FIX.4.4|9=110|35=A|34=1|49=001|50=001B27|52=20190611-15:51:59.791|56=EXC|43=Y|98=0|108=30|141=Y|553=001FCM001|554=001FCM001|10=089|
8=FIX.4.4|9=0067|35=A|34=1|49=EXC|56=001|52=20190611-15:51:59.792|98=0|108=30|141=Y|10=017|
8=FIX.4.4|9=178|35=R|34=2|49=001|50=001B27|52=20190611-15:52:02.108|56=EXC|131=68432363|146=1|55=TFIT16280428|22=M|762=RFQF|54=1|38=1000000000|453=2|448=002B35|447=C|452=37|448=DCV|447=C|452=10|10=116|
8=FIX.4.4|9=0260|35=AI|34=2|49=EXC|56=001|57=001B27|52=20190611-15:52:02.087|131=68432363|453=5|448=DCV|447=C|452=10|448=001B27|447=C|452=12|448=001|447=C|452=1|448=001FCM001|447=C|452=36|448=002B35|447=C|452=37|55=TFIT16280428|762=RFQF|48=20399|22=M|54=1|38=1000000000|297=10|10=019|
8=FIX.4.4|9=0049|35=0|34=3|49=EXC|56=001|52=20190611-15:52:32.000|10=162|
8=FIX.4.4|9=68|35=2|34=3|49=001|50=001B27|52=20190611-15:52:32.064|56=EXC|7=2|16=0|10=170|
8=FIX.4.4|9=0291|35=AI|34=2|43=Y|52=20190611-15:52:32.034|49=EXC|56=001|57=001B27|122=20190611-15:52:02.087|131=68432363|453=5|448=DCV|447=C|452=10|448=001B27|447=C|452=12|448=001|447=C|452=1|448=001FCM001|447=C|452=36|448=002B35|447=C|452=37|55=TFIT16280428|762=RFQF|48=20399|22=M|54=1|38=1000000000|297=10|10=020|
8=FIX.4.4|9=0065|35=4|34=3|43=Y|49=EXC|56=001|52=20190611-15:52:32.034|123=Y|36=4|10=177|
8=FIX.4.4|9=0054|35=4|34=4|49=EXC|56=001|52=20190611-15:52:32.034|36=5|10=134|
8=FIX.4.4|9=153|35=R|34=4|49=001|50=001B27|52=20190611-15:52:49.917|56=EXC|131=26412611|146=1|55=TFIT16300632|22=M|762=RFQF|54=1|38=500000000|453=1|448=DCV|447=C|452=10|10=194|
8=FIX.4.4|9=0235|35=AI|34=5|49=EXC|56=001|57=001B27|52=20190611-15:52:49.887|131=26412611|453=4|448=DCV|447=C|452=10|448=001B27|447=C|452=12|448=001|447=C|452=1|448=001FCM001|447=C|452=36|55=TFIT16300632|762=RFQF|48=20406|22=M|54=1|38=500000000|297=10|10=096|
8=FIX.4.4|9=0191|35=R|34=6|49=EXC|56=001|52=20190611-15:52:49.887|131=20190611-000000000042.00|146=1|55=TFIT16300632|762=RFQF|48=20406|22=M|54=1|38=500000000|453=2|448=001B27|447=C|452=12|448=001|447=C|452=1|10=188|
8=FIX.4.4|9=110|35=A|34=1|49=001|50=001B27|52=20190611-18:56:21.923|56=EXC|43=Y|98=0|108=30|141=Y|553=001FCM001|554=001FCM001|10=083|
8=FIX.4.4|9=0067|35=A|34=1|49=EXC|56=001|52=20190611-18:56:21.808|98=0|108=30|141=Y|10=012|
8=FIX.4.4|9=178|35=R|34=2|49=001|50=001B27|52=20190611-18:56:24.550|56=EXC|131=30382707|146=1|55=TFIT16280428|22=M|762=RFQF|54=1|38=1000000000|453=2|448=002B35|447=C|452=37|448=DCV|447=C|452=10|10=123|
8=FIX.4.4|9=0260|35=AI|34=2|49=EXC|56=001|57=001B27|52=20190611-18:56:24.367|131=30382707|453=5|448=DCV|447=C|452=10|448=001B27|447=C|452=12|448=001|447=C|452=1|448=001FCM001|447=C|452=36|448=002B35|447=C|452=37|55=TFIT16280428|762=RFQF|48=20399|22=M|54=1|38=1000000000|297=10|10=026|
8=FIX.4.4|9=110|35=A|34=1|49=001|50=001B27|52=20190611-19:22:22.977|56=EXC|43=Y|98=0|108=30|141=Y|553=001FCM001|554=001FCM001|10=087|
8=FIX.4.4|9=0067|35=A|34=1|49=EXC|56=001|52=20190611-19:22:23.024|98=0|108=30|141=Y|10=254|
8=FIX.4.4|9=178|35=R|34=2|49=001|50=001B27|52=20190611-19:22:25.398|56=EXC|131=63486983|146=1|55=TFIT16280428|22=M|762=RFQF|54=1|38=1000000000|453=2|448=002B35|447=C|452=37|448=DCV|447=C|452=10|10=145|
8=FIX.4.4|9=0260|35=AI|34=2|49=EXC|56=001|57=001B27|52=20190611-19:22:25.398|131=63486983|453=5|448=DCV|447=C|452=10|448=001B27|447=C|452=12|448=001|447=C|452=1|448=001FCM001|447=C|452=36|448=002B35|447=C|452=37|55=TFIT16280428|762=RFQF|48=20399|22=M|54=1|38=1000000000|297=10|10=042|
8=FIX.4.4|9=110|35=A|34=1|49=001|50=001B27|52=20190611-19:23:57.920|56=EXC|43=Y|98=0|108=30|141=Y|553=001FCM001|554=001FCM001|10=084|
8=FIX.4.4|9=0067|35=A|34=1|49=EXC|56=001|52=20190611-19:23:57.964|98=0|108=30|141=Y|10=019|
8=FIX.4.4|9=178|35=R|34=2|49=001|50=001B27|52=20190611-19:24:00.527|56=EXC|131=13829810|146=1|55=TFIT16280428|22=M|762=RFQF|54=1|38=1000000000|453=2|448=002B35|447=C|452=37|448=DCV|447=C|452=10|10=119|
8=FIX.4.4|9=0260|35=AI|34=2|49=EXC|56=001|57=001B27|52=20190611-19:24:00.528|131=13829810|453=5|448=DCV|447=C|452=10|448=001B27|447=C|452=12|448=001|447=C|452=1|448=001FCM001|447=C|452=36|448=002B35|447=C|452=37|55=TFIT16280428|762=RFQF|48=20399|22=M|54=1|38=1000000000|297=10|10=017|
8=FIX.4.4|9=110|35=A|34=1|49=001|50=001B27|52=20190611-19:26:32.264|56=EXC|43=Y|98=0|108=30|141=Y|553=001FCM001|554=001FCM001|10=081|
8=FIX.4.4|9=0067|35=A|34=1|49=EXC|56=001|52=20190611-19:26:32.324|98=0|108=30|141=Y|10=005|
8=FIX.4.4|9=178|35=R|34=2|49=001|50=001B27|52=20190611-19:26:34.647|56=EXC|131=13591507|146=1|55=TFIT16280428|22=M|762=RFQF|54=1|38=1000000000|453=2|448=002B35|447=C|452=37|448=DCV|447=C|452=10|10=130|
8=FIX.4.4|9=0260|35=AI|34=2|49=EXC|56=001|57=001B27|52=20190611-19:26:34.647|131=13591507|453=5|448=DCV|447=C|452=10|448=001B27|447=C|452=12|448=001|447=C|452=1|448=001FCM001|447=C|452=36|448=002B35|447=C|452=37|55=TFIT16280428|762=RFQF|48=20399|22=M|54=1|38=1000000000|297=10|10=027|
8=FIX.4.4|9=110|35=A|34=1|49=001|50=001B27|52=20190611-19:33:12.911|56=EXC|43=Y|98=0|108=30|141=Y|553=001FCM001|554=001FCM001|10=076|
8=FIX.4.4|9=0067|35=A|34=1|49=EXC|56=001|52=20190611-19:33:13.015|98=0|108=30|141=Y|10=255|
8=FIX.4.4|9=178|35=R|34=2|49=001|50=001B27|52=20190611-19:33:15.542|56=EXC|131=43732210|146=1|55=TFIT16280428|22=M|762=RFQF|54=1|38=1000000000|453=2|448=002B35|447=C|452=37|448=DCV|447=C|452=10|10=112|
8=FIX.4.4|9=0260|35=AI|34=2|49=EXC|56=001|57=001B27|52=20190611-19:33:15.546|131=43732210|453=5|448=DCV|447=C|452=10|448=001B27|447=C|452=12|448=001|447=C|452=1|448=001FCM001|447=C|452=36|448=002B35|447=C|452=37|55=TFIT16280428|762=RFQF|48=20399|22=M|54=1|38=1000000000|297=10|10=013|
8=FIX.4.4|9=110|35=A|34=1|49=001|50=001B27|52=20190611-19:39:31.477|56=EXC|43=Y|98=0|108=30|141=Y|553=001FCM001|554=001FCM001|10=090|
8=FIX.4.4|9=0067|35=A|34=1|49=EXC|56=001|52=20190611-19:39:31.557|98=0|108=30|141=Y|10=016|
8=FIX.4.4|9=178|35=R|34=2|49=001|50=001B27|52=20190611-19:39:33.945|56=EXC|131=72244724|146=1|55=TFIT16280428|22=M|762=RFQF|54=1|38=1000000000|453=2|448=002B35|447=C|452=37|448=DCV|447=C|452=10|10=135|
8=FIX.4.4|9=0260|35=AI|34=2|49=EXC|56=001|57=001B27|52=20190611-19:39:33.945|131=72244724|453=5|448=DCV|447=C|452=10|448=001B27|447=C|452=12|448=001|447=C|452=1|448=001FCM001|447=C|452=36|448=002B35|447=C|452=37|55=TFIT16280428|762=RFQF|48=20399|22=M|54=1|38=1000000000|297=10|10=032|
8=FIX.4.4|9=0308|35=S|34=3|49=EXC|56=001|57=001B27|52=20190611-19:39:49.791|131=72244724|117=20190611-000000000063.00|55=TFIT16280428|762=RFQF|48=20399|22=M|453=5|448=DCV|447=C|452=10|448=001B27|447=C|452=12|448=001|447=C|452=1|448=001FCM001|447=C|452=36|448=002B35|447=C|452=37|634=3.000|135=1000000000|62=20190617-22:00:00|10=072|
8=FIX.4.4|9=68|35=2|34=3|49=001|50=001B27|52=20190611-19:39:49.823|56=EXC|7=2|16=0|10=190|
8=FIX.4.4|9=0291|35=AI|34=2|43=Y|52=20190611-19:39:49.824|49=EXC|56=001|57=001B27|122=20190611-19:39:33.945|131=72244724|453=5|448=DCV|447=C|452=10|448=001B27|447=C|452=12|448=001|447=C|452=1|448=001FCM001|447=C|452=36|448=002B35|447=C|452=37|55=TFIT16280428|762=RFQF|48=20399|22=M|54=1|38=1000000000|297=10|10=057|
8=FIX.4.4|9=0339|35=S|34=3|43=Y|52=20190611-19:39:49.824|49=EXC|56=001|57=001B27|122=20190611-19:39:49.791|131=72244724|117=20190611-000000000063.00|55=TFIT16280428|762=RFQF|48=20399|22=M|453=5|448=DCV|447=C|452=10|448=001B27|447=C|452=12|448=001|447=C|452=1|448=001FCM001|447=C|452=36|448=002B35|447=C|452=37|634=3.000|135=1000000000|62=20190617-22:00:00|10=097|
8=FIX.4.4|9=0054|35=4|34=4|49=EXC|56=001|52=20190611-19:39:49.824|36=5|10=158|
8=FIX.4.4|9=110|35=A|34=1|49=001|50=001B27|52=20190611-19:44:55.723|56=EXC|43=Y|98=0|108=30|141=Y|553=001FCM001|554=001FCM001|10=086|
8=FIX.4.4|9=0067|35=A|34=1|49=EXC|56=001|52=20190611-19:44:56.165|98=0|108=30|141=Y|10=014|
8=FIX.4.4|9=178|35=R|34=2|49=001|50=001B27|52=20190611-19:45:03.272|56=EXC|131=38596742|146=1|55=TFIT16280428|22=M|762=RFQF|54=1|38=1000000000|453=2|448=002B35|447=C|452=37|448=DCV|447=C|452=10|10=134|
8=FIX.4.4|9=0260|35=AI|34=2|49=EXC|56=001|57=001B27|52=20190611-19:45:03.282|131=38596742|453=5|448=DCV|447=C|452=10|448=001B27|447=C|452=12|448=001|447=C|452=1|448=001FCM001|447=C|452=36|448=002B35|447=C|452=37|55=TFIT16280428|762=RFQF|48=20399|22=M|54=1|38=1000000000|297=10|10=032|
8=FIX.4.4|9=0308|35=S|34=3|49=EXC|56=001|57=001B27|52=20190611-19:45:23.570|131=38596742|117=20190611-000000000067.00|55=TFIT16280428|762=RFQF|48=20399|22=M|453=5|448=DCV|447=C|452=10|448=001B27|447=C|452=12|448=001|447=C|452=1|448=001FCM001|447=C|452=36|448=002B35|447=C|452=37|634=3.000|135=1000000000|62=20190617-22:00:00|10=072|
8=FIX.4.4|9=68|35=2|34=3|49=001|50=001B27|52=20190611-19:45:23.675|56=EXC|7=2|16=0|10=184|
8=FIX.4.4|9=0291|35=AI|34=2|43=Y|52=20190611-19:45:23.671|49=EXC|56=001|57=001B27|122=20190611-19:45:03.282|131=38596742|453=5|448=DCV|447=C|452=10|448=001B27|447=C|452=12|448=001|447=C|452=1|448=001FCM001|447=C|452=36|448=002B35|447=C|452=37|55=TFIT16280428|762=RFQF|48=20399|22=M|54=1|38=1000000000|297=10|10=046|
8=FIX.4.4|9=0339|35=S|34=3|43=Y|52=20190611-19:45:23.671|49=EXC|56=001|57=001B27|122=20190611-19:45:23.570|131=38596742|117=20190611-000000000067.00|55=TFIT16280428|762=RFQF|48=20399|22=M|453=5|448=DCV|447=C|452=10|448=001B27|447=C|452=12|448=001|447=C|452=1|448=001FCM001|447=C|452=36|448=002B35|447=C|452=37|634=3.000|135=1000000000|62=20190617-22:00:00|10=086|
8=FIX.4.4|9=110|35=A|34=1|49=001|50=001B27|52=20190611-19:50:18.117|56=EXC|43=Y|98=0|108=30|141=Y|553=001FCM001|554=001FCM001|10=079|
8=FIX.4.4|9=0067|35=A|34=1|49=EXC|56=001|52=20190611-19:50:18.189|98=0|108=30|141=Y|10=015|
8=FIX.4.4|9=178|35=R|34=2|49=001|50=001B27|52=20190611-19:50:20.633|56=EXC|131=30640612|146=1|55=TFIT16280428|22=M|762=RFQF|54=1|38=1000000000|453=2|448=002B35|447=C|452=37|448=DCV|447=C|452=10|10=108|
8=FIX.4.4|9=0260|35=AI|34=2|49=EXC|56=001|57=001B27|52=20190611-19:50:20.632|131=30640612|453=5|448=DCV|447=C|452=10|448=001B27|447=C|452=12|448=001|447=C|452=1|448=001FCM001|447=C|452=36|448=002B35|447=C|452=37|55=TFIT16280428|762=RFQF|48=20399|22=M|54=1|38=1000000000|297=10|10=004|
8=FIX.4.4|9=0308|35=S|34=3|49=EXC|56=001|57=001B27|52=20190611-19:50:36.722|131=30640612|117=20190611-000000000069.00|55=TFIT16280428|762=RFQF|48=20399|22=M|453=5|448=DCV|447=C|452=10|448=001B27|447=C|452=12|448=001|447=C|452=1|448=001FCM001|447=C|452=36|448=002B35|447=C|452=37|634=3.000|135=1000000000|62=20190617-22:00:00|10=051|
8=FIX.4.4|9=68|35=2|34=3|49=001|50=001B27|52=20190611-19:50:36.752|56=EXC|7=2|16=0|10=180|
8=FIX.4.4|9=0291|35=AI|34=2|43=Y|52=20190611-19:50:36.746|49=EXC|56=001|57=001B27|122=20190611-19:50:20.632|131=30640612|453=5|448=DCV|447=C|452=10|448=001B27|447=C|452=12|448=001|447=C|452=1|448=001FCM001|447=C|452=36|448=002B35|447=C|452=37|55=TFIT16280428|762=RFQF|48=20399|22=M|54=1|38=1000000000|297=10|10=021|
8=FIX.4.4|9=0339|35=S|34=3|43=Y|52=20190611-19:50:36.746|49=EXC|56=001|57=001B27|122=20190611-19:50:36.722|131=30640612|117=20190611-000000000069.00|55=TFIT16280428|762=RFQF|48=20399|22=M|453=5|448=DCV|447=C|452=10|448=001B27|447=C|452=12|448=001|447=C|452=1|448=001FCM001|447=C|452=36|448=002B35|447=C|452=37|634=3.000|135=1000000000|62=20190617-22:00:00|10=068|
8=FIX.4.4|9=0054|35=4|34=4|49=EXC|56=001|52=20190611-19:50:36.746|36=5|10=150|
8=FIX.4.4|9=110|35=A|34=1|49=001|50=001B27|52=20190611-19:52:18.704|56=EXC|43=Y|98=0|108=30|141=Y|553=001FCM001|554=001FCM001|10=083|
8=FIX.4.4|9=0067|35=A|34=1|49=EXC|56=001|52=20190611-19:52:18.795|98=0|108=30|141=Y|10=020|
8=FIX.4.4|9=178|35=R|34=2|49=001|50=001B27|52=20190611-19:52:21.072|56=EXC|131=33248291|146=1|55=TFIT16280428|22=M|762=RFQF|54=1|38=1000000000|453=2|448=002B35|447=C|452=37|448=DCV|447=C|452=10|10=118|
8=FIX.4.4|9=0260|35=AI|34=2|49=EXC|56=001|57=001B27|52=20190611-19:52:21.069|131=33248291|453=5|448=DCV|447=C|452=10|448=001B27|447=C|452=12|448=001|447=C|452=1|448=001FCM001|447=C|452=36|448=002B35|447=C|452=37|55=TFIT16280428|762=RFQF|48=20399|22=M|54=1|38=1000000000|297=10|10=021|
8=FIX.4.4|9=0308|35=S|34=3|49=EXC|56=001|57=001B27|52=20190611-19:52:37.285|131=33248291|117=20190611-000000000070.00|55=TFIT16280428|762=RFQF|48=20399|22=M|453=5|448=DCV|447=C|452=10|448=001B27|447=C|452=12|448=001|447=C|452=1|448=001FCM001|447=C|452=36|448=002B35|447=C|452=37|634=3.000|135=1000000000|62=20190617-22:00:00|10=060|
8=FIX.4.4|9=68|35=2|34=3|49=001|50=001B27|52=20190611-19:52:37.328|56=EXC|7=2|16=0|10=182|
8=FIX.4.4|9=0291|35=AI|34=2|43=Y|52=20190611-19:52:37.329|49=EXC|56=001|57=001B27|122=20190611-19:52:21.069|131=33248291|453=5|448=DCV|447=C|452=10|448=001B27|447=C|452=12|448=001|447=C|452=1|448=001FCM001|447=C|452=36|448=002B35|447=C|452=37|55=TFIT16280428|762=RFQF|48=20399|22=M|54=1|38=1000000000|297=10|10=038|
8=FIX.4.4|9=0339|35=S|34=3|43=Y|52=20190611-19:52:37.329|49=EXC|56=001|57=001B27|122=20190611-19:52:37.285|131=33248291|117=20190611-000000000070.00|55=TFIT16280428|762=RFQF|48=20399|22=M|453=5|448=DCV|447=C|452=10|448=001B27|447=C|452=12|448=001|447=C|452=1|448=001FCM001|447=C|452=36|448=002B35|447=C|452=37|634=3.000|135=1000000000|62=20190617-22:00:00|10=077|
8=FIX.4.4|9=0054|35=4|34=4|49=EXC|56=001|52=20190611-19:52:37.329|36=5|10=150|
8=FIX.4.4|9=110|35=A|34=1|49=001|50=001B27|52=20190611-19:57:54.015|56=EXC|43=Y|98=0|108=30|141=Y|553=001FCM001|554=001FCM001|10=083|
8=FIX.4.4|9=0067|35=A|34=1|49=EXC|56=001|52=20190611-19:57:54.099|98=0|108=30|141=Y|10=022|
8=FIX.4.4|9=178|35=R|34=2|49=001|50=001B27|52=20190611-19:57:56.404|56=EXC|131=61539727|146=1|55=TFIT16280428|22=M|762=RFQF|54=1|38=1000000000|453=2|448=002B35|447=C|452=37|448=DCV|447=C|452=10|10=138|
8=FIX.4.4|9=0260|35=AI|34=2|49=EXC|56=001|57=001B27|52=20190611-19:57:56.398|131=61539727|453=5|448=DCV|447=C|452=10|448=001B27|447=C|452=12|448=001|447=C|452=1|448=001FCM001|447=C|452=36|448=002B35|447=C|452=37|55=TFIT16280428|762=RFQF|48=20399|22=M|54=1|38=1000000000|297=10|10=047|
8=FIX.4.4|9=0308|35=S|34=3|49=EXC|56=001|57=001B27|52=20190611-19:58:12.965|131=61539727|117=20190611-000000000072.00|55=TFIT16280428|762=RFQF|48=20399|22=M|453=5|448=DCV|447=C|452=10|448=001B27|447=C|452=12|448=001|447=C|452=1|448=001FCM001|447=C|452=36|448=002B35|447=C|452=37|634=3.000|135=1000000000|62=20190617-22:00:00|10=074|
8=FIX.4.4|9=68|35=2|34=3|49=001|50=001B27|52=20190611-19:58:13.001|56=EXC|7=2|16=0|10=170|
8=FIX.4.4|9=0291|35=AI|34=2|43=Y|52=20190611-19:58:12.993|49=EXC|56=001|57=001B27|122=20190611-19:57:56.398|131=61539727|453=5|448=DCV|447=C|452=10|448=001B27|447=C|452=12|448=001|447=C|452=1|448=001FCM001|447=C|452=36|448=002B35|447=C|452=37|55=TFIT16280428|762=RFQF|48=20399|22=M|54=1|38=1000000000|297=10|10=070|
8=FIX.4.4|9=0339|35=S|34=3|43=Y|52=20190611-19:58:12.993|49=EXC|56=001|57=001B27|122=20190611-19:58:12.965|131=61539727|117=20190611-000000000072.00|55=TFIT16280428|762=RFQF|48=20399|22=M|453=5|448=DCV|447=C|452=10|448=001B27|447=C|452=12|448=001|447=C|452=1|448=001FCM001|447=C|452=36|448=002B35|447=C|452=37|634=3.000|135=1000000000|62=20190617-22:00:00|10=097|
8=FIX.4.4|9=0054|35=4|34=4|49=EXC|56=001|52=20190611-19:58:12.993|36=5|10=156|
8=FIX.4.4|9=110|35=A|34=1|49=001|50=001B27|52=20190611-20:17:57.674|56=EXC|43=Y|98=0|108=30|141=Y|553=001FCM001|554=001FCM001|10=085|
8=FIX.4.4|9=0067|35=A|34=1|49=EXC|56=001|52=20190611-20:17:57.709|98=0|108=30|141=Y|10=011|
8=FIX.4.4|9=178|35=R|34=2|49=001|50=001B27|52=20190611-20:18:00.135|56=EXC|131=44693733|146=1|55=TFIT16280428|22=M|762=RFQF|54=1|38=1000000000|453=2|448=002B35|447=C|452=37|448=DCV|447=C|452=10|10=116|
8=FIX.4.4|9=0260|35=AI|34=2|49=EXC|56=001|57=001B27|52=20190611-20:18:00.122|131=44693733|453=5|448=DCV|447=C|452=10|448=001B27|447=C|452=12|448=001|447=C|452=1|448=001FCM001|447=C|452=36|448=002B35|447=C|452=37|55=TFIT16280428|762=RFQF|48=20399|22=M|54=1|38=1000000000|297=10|10=009|
8=FIX.4.4|9=0308|35=S|34=3|49=EXC|56=001|57=001B27|52=20190611-20:18:16.483|131=44693733|117=20190611-000000000075.00|55=TFIT16280428|762=RFQF|48=20399|22=M|453=5|448=DCV|447=C|452=10|448=001B27|447=C|452=12|448=001|447=C|452=1|448=001FCM001|447=C|452=36|448=002B35|447=C|452=37|634=3.000|135=1000000000|62=20190617-22:00:00|10=063|
8=FIX.4.4|9=68|35=2|34=3|49=001|50=001B27|52=20190611-20:18:16.534|56=EXC|7=2|16=0|10=172|
8=FIX.4.4|9=0291|35=AI|34=2|43=Y|52=20190611-20:18:16.522|49=EXC|56=001|57=001B27|122=20190611-20:18:00.122|131=44693733|453=5|448=DCV|447=C|452=10|448=001B27|447=C|452=12|448=001|447=C|452=1|448=001FCM001|447=C|452=36|448=002B35|447=C|452=37|55=TFIT16280428|762=RFQF|48=20399|22=M|54=1|38=1000000000|297=10|10=012|
8=FIX.4.4|9=0339|35=S|34=3|43=Y|52=20190611-20:18:16.522|49=EXC|56=001|57=001B27|122=20190611-20:18:16.483|131=44693733|117=20190611-000000000075.00|55=TFIT16280428|762=RFQF|48=20399|22=M|453=5|448=DCV|447=C|452=10|448=001B27|447=C|452=12|448=001|447=C|452=1|448=001FCM001|447=C|452=36|448=002B35|447=C|452=37|634=3.000|135=1000000000|62=20190617-22:00:00|10=066|
8=FIX.4.4|9=0054|35=4|34=4|49=EXC|56=001|52=20190611-20:18:16.522|36=5|10=136|
8=FIX.4.4|9=110|35=A|34=1|49=001|50=001B27|52=20190611-20:21:26.752|56=EXC|43=Y|98=0|108=30|141=Y|553=001FCM001|554=001FCM001|10=073|
8=FIX.4.4|9=0067|35=A|34=1|49=EXC|56=001|52=20190611-20:21:26.828|98=0|108=30|141=Y|10=004|
8=FIX.4.4|9=177|35=R|34=2|49=001|50=001B27|52=20190611-20:21:29.154|56=EXC|131=9655896|146=1|55=TFIT16280428|22=M|762=RFQF|54=1|38=1000000000|453=2|448=002B35|447=C|452=37|448=DCV|447=C|452=10|10=082|
8=FIX.4.4|9=0259|35=AI|34=2|49=EXC|56=001|57=001B27|52=20190611-20:21:29.140|131=9655896|453=5|448=DCV|447=C|452=10|448=001B27|447=C|452=12|448=001|447=C|452=1|448=001FCM001|447=C|452=36|448=002B35|447=C|452=37|55=TFIT16280428|762=RFQF|48=20399|22=M|54=1|38=1000000000|297=10|10=239|
8=FIX.4.4|9=0307|35=S|34=3|49=EXC|56=001|57=001B27|52=20190611-20:21:45.308|131=9655896|117=20190611-000000000076.00|55=TFIT16280428|762=RFQF|48=20399|22=M|453=5|448=DCV|447=C|452=10|448=001B27|447=C|452=12|448=001|447=C|452=1|448=001FCM001|447=C|452=36|448=002B35|447=C|452=37|634=3.000|135=1000000000|62=20190617-22:00:00|10=016|
8=FIX.4.4|9=68|35=2|34=3|49=001|50=001B27|52=20190611-20:21:45.351|56=EXC|7=2|16=0|10=165|
8=FIX.4.4|9=0290|35=AI|34=2|43=Y|52=20190611-20:21:45.343|49=EXC|56=001|57=001B27|122=20190611-20:21:29.140|131=9655896|453=5|448=DCV|447=C|452=10|448=001B27|447=C|452=12|448=001|447=C|452=1|448=001FCM001|447=C|452=36|448=002B35|447=C|452=37|55=TFIT16280428|762=RFQF|48=20399|22=M|54=1|38=1000000000|297=10|10=230|
8=FIX.4.4|9=0338|35=S|34=3|43=Y|52=20190611-20:21:45.343|49=EXC|56=001|57=001B27|122=20190611-20:21:45.308|131=9655896|117=20190611-000000000076.00|55=TFIT16280428|762=RFQF|48=20399|22=M|453=5|448=DCV|447=C|452=10|448=001B27|447=C|452=12|448=001|447=C|452=1|448=001FCM001|447=C|452=36|448=002B35|447=C|452=37|634=3.000|135=1000000000|62=20190617-22:00:00|10=016|
8=FIX.4.4|9=0054|35=4|34=4|49=EXC|56=001|52=20190611-20:21:45.343|36=5|10=133|
8=FIX.4.4|9=68|35=2|34=4|49=001|50=001B27|52=20190611-20:21:56.155|56=EXC|7=2|16=0|10=170|
8=FIX.4.4|9=0290|35=AI|34=2|43=Y|52=20190611-20:21:56.139|49=EXC|56=001|57=001B27|122=20190611-20:21:29.140|131=9655896|453=5|448=DCV|447=C|452=10|448=001B27|447=C|452=12|448=001|447=C|452=1|448=001FCM001|447=C|452=36|448=002B35|447=C|452=37|55=TFIT16280428|762=RFQF|48=20399|22=M|54=1|38=1000000000|297=10|10=235|
8=FIX.4.4|9=0338|35=S|34=3|43=Y|52=20190611-20:21:56.139|49=EXC|56=001|57=001B27|122=20190611-20:21:45.308|131=9655896|117=20190611-000000000076.00|55=TFIT16280428|762=RFQF|48=20399|22=M|453=5|448=DCV|447=C|452=10|448=001B27|447=C|452=12|448=001|447=C|452=1|448=001FCM001|447=C|452=36|448=002B35|447=C|452=37|634=3.000|135=1000000000|62=20190617-22:00:00|10=021|
8=FIX.4.4|9=0065|35=4|34=4|43=Y|49=EXC|56=001|52=20190611-20:21:56.139|123=Y|36=5|10=183|
8=FIX.4.4|9=0054|35=4|34=5|49=EXC|56=001|52=20190611-20:21:56.139|36=6|10=140|
8=FIX.4.4|9=0094|35=Z|34=6|49=EXC|56=001|57=001B27|52=20190611-20:22:06.742|117=20190611-000000000076.00|298=5|10=069|
8=FIX.4.4|9=59|35=0|34=5|49=001|50=001B27|52=20190611-20:22:26.684|56=EXC|10=050|
8=FIX.4.4|9=110|35=A|34=1|49=001|50=001B27|52=20190611-20:39:27.602|56=EXC|43=Y|98=0|108=30|141=Y|553=001FCM001|554=001FCM001|10=077|
8=FIX.4.4|9=0067|35=A|34=1|49=EXC|56=001|52=20190611-20:39:31.072|98=0|108=30|141=Y|10=000|
8=FIX.4.4|9=178|35=R|34=2|49=001|50=001B27|52=20190611-20:39:34.227|56=EXC|131=35959156|146=1|55=TFIT16280428|22=M|762=RFQF|54=1|38=1000000000|453=2|448=002B35|447=C|452=37|448=DCV|447=C|452=10|10=132|
8=FIX.4.4|9=0260|35=AI|34=2|49=EXC|56=001|57=001B27|52=20190611-20:39:34.208|131=35959156|453=5|448=DCV|447=C|452=10|448=001B27|447=C|452=12|448=001|447=C|452=1|448=001FCM001|447=C|452=36|448=002B35|447=C|452=37|55=TFIT16280428|762=RFQF|48=20399|22=M|54=1|38=1000000000|297=10|10=028|
8=FIX.4.4|9=59|35=0|34=3|49=001|50=001B27|52=20190611-20:40:04.991|56=EXC|10=045|
8=FIX.4.4|9=0049|35=0|34=3|49=EXC|56=001|52=20190611-20:40:04.000|10=154|
8=FIX.4.4|9=68|35=1|34=4|49=001|50=001B27|52=20190611-20:40:20.990|56=EXC|112=TEST|10=062|
8=FIX.4.4|9=0058|35=0|34=4|49=EXC|56=001|52=20190611-20:40:20.975|112=TEST|10=192|
8=FIX.4.4|9=68|35=2|34=5|49=001|50=001B27|52=20190611-20:40:33.018|56=EXC|7=2|16=0|10=165|
8=FIX.4.4|9=0291|35=AI|34=2|43=Y|52=20190611-20:40:33.017|49=EXC|56=001|57=001B27|122=20190611-20:39:34.208|131=35959156|453=5|448=DCV|447=C|452=10|448=001B27|447=C|452=12|448=001|447=C|452=1|448=001FCM001|447=C|452=36|448=002B35|447=C|452=37|55=TFIT16280428|762=RFQF|48=20399|22=M|54=1|38=1000000000|297=10|10=024|
8=FIX.4.4|9=0065|35=4|34=3|43=Y|49=EXC|56=001|52=20190611-20:40:33.017|123=Y|36=5|10=173|
8=FIX.4.4|9=0054|35=4|34=5|49=EXC|56=001|52=20190611-20:40:33.017|36=6|10=131|
8=FIX.4.4|9=68|35=2|34=6|49=001|50=001B27|52=20190611-20:40:43.148|56=EXC|7=2|16=0|10=171|
8=FIX.4.4|9=0291|35=AI|34=2|43=Y|52=20190611-20:40:43.127|49=EXC|56=001|57=001B27|122=20190611-20:39:34.208|131=35959156|453=5|448=DCV|447=C|452=10|448=001B27|447=C|452=12|448=001|447=C|452=1|448=001FCM001|447=C|452=36|448=002B35|447=C|452=37|55=TFIT16280428|762=RFQF|48=20399|22=M|54=1|38=1000000000|297=10|10=027|
8=FIX.4.4|9=0065|35=4|34=3|43=Y|49=EXC|56=001|52=20190611-20:40:43.127|123=Y|36=6|10=177|
8=FIX.4.4|9=0054|35=4|34=6|49=EXC|56=001|52=20190611-20:40:43.127|36=7|10=136|
8=FIX.4.4|9=0308|35=S|34=7|49=EXC|56=001|57=001B27|52=20190611-20:40:46.283|131=35959156|117=20190611-000000000078.00|55=TFIT16280428|762=RFQF|48=20399|22=M|453=5|448=DCV|447=C|452=10|448=001B27|447=C|452=12|448=001|447=C|452=1|448=001FCM001|447=C|452=36|448=002B35|447=C|452=37|634=3.000|135=1000000000|62=20190617-22:00:00|10=070|
8=FIX.4.4|9=110|35=A|34=1|49=001|50=001B27|52=20190611-20:50:00.852|56=EXC|43=Y|98=0|108=30|141=Y|553=001FCM001|554=001FCM001|10=068|
8=FIX.4.4|9=0067|35=A|34=1|49=EXC|56=001|52=20190611-20:50:00.873|98=0|108=30|141=Y|10=254|
8=FIX.4.4|9=178|35=R|34=2|49=001|50=001B27|52=20190611-20:50:03.268|56=EXC|131=35610984|146=1|55=TFIT16280428|22=M|762=RFQF|54=1|38=1000000000|453=2|448=002B35|447=C|452=37|448=DCV|447=C|452=10|10=119|
8=FIX.4.4|9=0260|35=AI|34=2|49=EXC|56=001|57=001B27|52=20190611-20:50:03.243|131=35610984|453=5|448=DCV|447=C|452=10|448=001B27|447=C|452=12|448=001|447=C|452=1|448=001FCM001|447=C|452=36|448=002B35|447=C|452=37|55=TFIT16280428|762=RFQF|48=20399|22=M|54=1|38=1000000000|297=10|10=009|
8=FIX.4.4|9=0308|35=S|34=3|49=EXC|56=001|57=001B27|52=20190611-20:50:19.333|131=35610984|117=20190611-000000000079.00|55=TFIT16280428|762=RFQF|48=20399|22=M|453=5|448=DCV|447=C|452=10|448=001B27|447=C|452=12|448=001|447=C|452=1|448=001FCM001|447=C|452=36|448=002B35|447=C|452=37|634=3.000|135=1000000000|62=20190617-22:00:00|10=057|
8=FIX.4.4|9=68|35=2|34=3|49=001|50=001B27|52=20190611-20:50:19.389|56=EXC|7=2|16=0|10=179|
8=FIX.4.4|9=0291|35=AI|34=2|43=Y|52=20190611-20:50:19.364|49=EXC|56=001|57=001B27|122=20190611-20:50:03.243|131=35610984|453=5|448=DCV|447=C|452=10|448=001B27|447=C|452=12|448=001|447=C|452=1|448=001FCM001|447=C|452=36|448=002B35|447=C|452=37|55=TFIT16280428|762=RFQF|48=20399|22=M|54=1|38=1000000000|297=10|10=015|
8=FIX.4.4|9=0339|35=S|34=3|43=Y|52=20190611-20:50:19.364|49=EXC|56=001|57=001B27|122=20190611-20:50:19.333|131=35610984|117=20190611-000000000079.00|55=TFIT16280428|762=RFQF|48=20399|22=M|453=5|448=DCV|447=C|452=10|448=001B27|447=C|452=12|448=001|447=C|452=1|448=001FCM001|447=C|452=36|448=002B35|447=C|452=37|634=3.000|135=1000000000|62=20190617-22:00:00|10=063|
8=FIX.4.4|9=0054|35=4|34=4|49=EXC|56=001|52=20190611-20:50:19.365|36=5|10=140|
8=FIX.4.4|9=68|35=2|34=4|49=001|50=001B27|52=20190611-20:50:29.920|56=EXC|7=2|16=0|10=172|
8=FIX.4.4|9=0291|35=AI|34=2|43=Y|52=20190611-20:50:29.894|49=EXC|56=001|57=001B27|122=20190611-20:50:03.243|131=35610984|453=5|448=DCV|447=C|452=10|448=001B27|447=C|452=12|448=001|447=C|452=1|448=001FCM001|447=C|452=36|448=002B35|447=C|452=37|55=TFIT16280428|762=RFQF|48=20399|22=M|54=1|38=1000000000|297=10|10=024|
8=FIX.4.4|9=0339|35=S|34=3|43=Y|52=20190611-20:50:29.894|49=EXC|56=001|57=001B27|122=20190611-20:50:19.333|131=35610984|117=20190611-000000000079.00|55=TFIT16280428|762=RFQF|48=20399|22=M|453=5|448=DCV|447=C|452=10|448=001B27|447=C|452=12|448=001|447=C|452=1|448=001FCM001|447=C|452=36|448=002B35|447=C|452=37|634=3.000|135=1000000000|62=20190617-22:00:00|10=072|
8=FIX.4.4|9=0065|35=4|34=4|43=Y|49=EXC|56=001|52=20190611-20:50:29.894|123=Y|36=5|10=193|
8=FIX.4.4|9=0054|35=4|34=5|49=EXC|56=001|52=20190611-20:50:29.895|36=6|10=151|
8=FIX.4.4|9=0094|35=Z|34=6|49=EXC|56=001|57=001B27|52=20190611-20:50:40.209|117=20190611-000000000079.00|298=5|10=069|
8=FIX.4.4|9=110|35=A|34=1|49=001|50=001B27|52=20190611-20:54:28.379|56=EXC|43=Y|98=0|108=30|141=Y|553=001FCM001|554=001FCM001|10=086|
8=FIX.4.4|9=0067|35=A|34=1|49=EXC|56=001|52=20190611-20:54:28.584|98=0|108=30|141=Y|10=011|
8=FIX.4.4|9=178|35=R|34=2|49=001|50=001B27|52=20190611-20:54:30.754|56=EXC|131=79521461|146=1|55=TFIT16280428|22=M|762=RFQF|54=1|38=1000000000|453=2|448=002B35|447=C|452=37|448=DCV|447=C|452=10|10=122|
8=FIX.4.4|9=0260|35=AI|34=2|49=EXC|56=001|57=001B27|52=20190611-20:54:30.728|131=79521461|453=5|448=DCV|447=C|452=10|448=001B27|447=C|452=12|448=001|447=C|452=1|448=001FCM001|447=C|452=36|448=002B35|447=C|452=37|55=TFIT16280428|762=RFQF|48=20399|22=M|54=1|38=1000000000|297=10|10=020|
8=FIX.4.4|9=0308|35=S|34=3|49=EXC|56=001|57=001B27|52=20190611-20:54:51.967|131=79521461|117=20190611-000000000080.00|55=TFIT16280428|762=RFQF|48=20399|22=M|453=5|448=DCV|447=C|452=10|448=001B27|447=C|452=12|448=001|447=C|452=1|448=001FCM001|447=C|452=36|448=002B35|447=C|452=37|634=3.000|135=1000000000|62=20190617-22:00:00|10=061|
8=FIX.4.4|9=68|35=2|34=3|49=001|50=001B27|52=20190611-20:54:52.044|56=EXC|7=2|16=0|10=168|
8=FIX.4.4|9=0291|35=AI|34=2|43=Y|52=20190611-20:54:52.021|49=EXC|56=001|57=001B27|122=20190611-20:54:30.728|131=79521461|453=5|448=DCV|447=C|452=10|448=001B27|447=C|452=12|448=001|447=C|452=1|448=001FCM001|447=C|452=36|448=002B35|447=C|452=37|55=TFIT16280428|762=RFQF|48=20399|22=M|54=1|38=1000000000|297=10|10=017|
8=FIX.4.4|9=0339|35=S|34=3|43=Y|52=20190611-20:54:52.021|49=EXC|56=001|57=001B27|122=20190611-20:54:51.967|131=79521461|117=20190611-000000000080.00|55=TFIT16280428|762=RFQF|48=20399|22=M|453=5|448=DCV|447=C|452=10|448=001B27|447=C|452=12|448=001|447=C|452=1|448=001FCM001|447=C|452=36|448=002B35|447=C|452=37|634=3.000|135=1000000000|62=20190617-22:00:00|10=058|
8=FIX.4.4|9=0054|35=4|34=4|49=EXC|56=001|52=20190611-20:54:52.021|36=5|10=130|
8=FIX.4.4|9=68|35=2|34=4|49=001|50=001B27|52=20190611-20:55:02.803|56=EXC|7=2|16=0|10=168|
8=FIX.4.4|9=0291|35=AI|34=2|43=Y|52=20190611-20:55:02.776|49=EXC|56=001|57=001B27|122=20190611-20:54:30.728|131=79521461|453=5|448=DCV|447=C|452=10|448=001B27|447=C|452=12|448=001|447=C|452=1|448=001FCM001|447=C|452=36|448=002B35|447=C|452=37|55=TFIT16280428|762=RFQF|48=20399|22=M|54=1|38=1000000000|297=10|10=030|
8=FIX.4.4|9=0339|35=S|34=3|43=Y|52=20190611-20:55:02.776|49=EXC|56=001|57=001B27|122=20190611-20:54:51.967|131=79521461|117=20190611-000000000080.00|55=TFIT16280428|762=RFQF|48=20399|22=M|453=5|448=DCV|447=C|452=10|448=001B27|447=C|452=12|448=001|447=C|452=1|448=001FCM001|447=C|452=36|448=002B35|447=C|452=37|634=3.000|135=1000000000|62=20190617-22:00:00|10=071|
8=FIX.4.4|9=0065|35=4|34=4|43=Y|49=EXC|56=001|52=20190611-20:55:02.776|123=Y|36=5|10=188|
8=FIX.4.4|9=0054|35=4|34=5|49=EXC|56=001|52=20190611-20:55:02.777|36=6|10=146|
8=FIX.4.4|9=0094|35=Z|34=6|49=EXC|56=001|57=001B27|52=20190611-20:55:12.911|117=20190611-000000000080.00|298=5|10=065|
8=FIX.4.4|9=177|35=R|34=5|49=001|50=001B27|52=20190611-20:55:23.802|56=EXC|131=21834345|146=1|55=TFIT16300632|22=M|762=RFQF|54=1|38=500000000|453=2|448=002B35|447=C|452=37|448=DCV|447=C|452=10|10=062|
8=FIX.4.4|9=0259|35=AI|34=7|49=EXC|56=001|57=001B27|52=20190611-20:55:23.775|131=21834345|453=5|448=DCV|447=C|452=10|448=001B27|447=C|452=12|448=001|447=C|452=1|448=001FCM001|447=C|452=36|448=002B35|447=C|452=37|55=TFIT16300632|762=RFQF|48=20406|22=M|54=1|38=500000000|297=10|10=224|
8=FIX.4.4|9=110|35=A|34=1|49=001|50=001B27|52=20190611-20:56:56.963|56=EXC|43=Y|98=0|108=30|141=Y|553=001FCM001|554=001FCM001|10=088|
8=FIX.4.4|9=0067|35=A|34=1|49=EXC|56=001|52=20190611-20:56:58.084|98=0|108=30|141=Y|10=011|
8=FIX.4.4|9=178|35=R|34=2|49=001|50=001B27|52=20190611-20:57:00.177|56=EXC|131=79586223|146=1|55=TFIT16280428|22=M|762=RFQF|54=1|38=1000000000|453=2|448=002B35|447=C|452=37|448=DCV|447=C|452=10|10=128|
8=FIX.4.4|9=0260|35=AI|34=2|49=EXC|56=001|57=001B27|52=20190611-20:57:00.171|131=79586223|453=5|448=DCV|447=C|452=10|448=001B27|447=C|452=12|448=001|447=C|452=1|448=001FCM001|447=C|452=36|448=002B35|447=C|452=37|55=TFIT16280428|762=RFQF|48=20399|22=M|54=1|38=1000000000|297=10|10=019|
8=FIX.4.4|9=0308|35=S|34=3|49=EXC|56=001|57=001B27|52=20190611-20:57:16.499|131=79586223|117=20190611-000000000082.00|55=TFIT16280428|762=RFQF|48=20399|22=M|453=5|448=DCV|447=C|452=10|448=001B27|447=C|452=12|448=001|447=C|452=1|448=001FCM001|447=C|452=36|448=002B35|447=C|452=37|634=3.000|135=1000000000|62=20190617-22:00:00|10=074|
8=FIX.4.4|9=68|35=2|34=3|49=001|50=001B27|52=20190611-20:57:16.556|56=EXC|7=2|16=0|10=179|
8=FIX.4.4|9=0291|35=AI|34=2|43=Y|52=20190611-20:57:16.532|49=EXC|56=001|57=001B27|122=20190611-20:57:00.171|131=79586223|453=5|448=DCV|447=C|452=10|448=001B27|447=C|452=12|448=001|447=C|452=1|448=001FCM001|447=C|452=36|448=002B35|447=C|452=37|55=TFIT16280428|762=RFQF|48=20399|22=M|54=1|38=1000000000|297=10|10=026|
8=FIX.4.4|9=0339|35=S|34=3|43=Y|52=20190611-20:57:16.532|49=EXC|56=001|57=001B27|122=20190611-20:57:16.499|131=79586223|117=20190611-000000000082.00|55=TFIT16280428|762=RFQF|48=20399|22=M|453=5|448=DCV|447=C|452=10|448=001B27|447=C|452=12|448=001|447=C|452=1|448=001FCM001|447=C|452=36|448=002B35|447=C|452=37|634=3.000|135=1000000000|62=20190617-22:00:00|10=081|
8=FIX.4.4|9=0054|35=4|34=4|49=EXC|56=001|52=20190611-20:57:16.532|36=5|10=140|
8=FIX.4.4|9=68|35=2|34=4|49=001|50=001B27|52=20190611-20:57:27.037|56=EXC|7=2|16=0|10=176|
8=FIX.4.4|9=0291|35=AI|34=2|43=Y|52=20190611-20:57:27.011|49=EXC|56=001|57=001B27|122=20190611-20:57:00.171|131=79586223|453=5|448=DCV|447=C|452=10|448=001B27|447=C|452=12|448=001|447=C|452=1|448=001FCM001|447=C|452=36|448=002B35|447=C|452=37|55=TFIT16280428|762=RFQF|48=20399|22=M|54=1|38=1000000000|297=10|10=020|
8=FIX.4.4|9=0339|35=S|34=3|43=Y|52=20190611-20:57:27.011|49=EXC|56=001|57=001B27|122=20190611-20:57:16.499|131=79586223|117=20190611-000000000082.00|55=TFIT16280428|762=RFQF|48=20399|22=M|453=5|448=DCV|447=C|452=10|448=001B27|447=C|452=12|448=001|447=C|452=1|448=001FCM001|447=C|452=36|448=002B35|447=C|452=37|634=3.000|135=1000000000|62=20190617-22:00:00|10=075|
8=FIX.4.4|9=0065|35=4|34=4|43=Y|49=EXC|56=001|52=20190611-20:57:27.011|123=Y|36=5|10=179|
8=FIX.4.4|9=0054|35=4|34=5|49=EXC|56=001|52=20190611-20:57:27.011|36=6|10=136|
8=FIX.4.4|9=0094|35=Z|34=6|49=EXC|56=001|57=001B27|52=20190611-20:57:37.948|117=20190611-000000000082.00|298=5|10=086|
8=FIX.4.4|9=177|35=R|34=5|49=001|50=001B27|52=20190611-20:57:49.375|56=EXC|131=25343247|146=1|55=TFIT16300632|22=M|762=RFQF|54=1|38=500000000|453=2|448=002B35|447=C|452=37|448=DCV|447=C|452=10|10=077|
8=FIX.4.4|9=0259|35=AI|34=7|49=EXC|56=001|57=001B27|52=20190611-20:57:49.362|131=25343247|453=5|448=DCV|447=C|452=10|448=001B27|447=C|452=12|448=001|447=C|452=1|448=001FCM001|447=C|452=36|448=002B35|447=C|452=37|55=TFIT16300632|762=RFQF|48=20406|22=M|54=1|38=500000000|297=10|10=226|
8=FIX.4.4|9=110|35=A|34=1|49=001|50=001B27|52=20190611-20:59:27.380|56=EXC|43=Y|98=0|108=30|141=Y|553=001FCM001|554=001FCM001|10=082|
8=FIX.4.4|9=0067|35=A|34=1|49=EXC|56=001|52=20190611-20:59:27.441|98=0|108=30|141=Y|10=007|
8=FIX.4.4|9=177|35=R|34=2|49=001|50=001B27|52=20190611-20:59:29.905|56=EXC|131=1596079|146=1|55=TFIT16280428|22=M|762=RFQF|54=1|38=1000000000|453=2|448=002B35|447=C|452=37|448=DCV|447=C|452=10|10=086|
8=FIX.4.4|9=0259|35=AI|34=2|49=EXC|56=001|57=001B27|52=20190611-20:59:29.879|131=1596079|453=5|448=DCV|447=C|452=10|448=001B27|447=C|452=12|448=001|447=C|452=1|448=001FCM001|447=C|452=36|448=002B35|447=C|452=37|55=TFIT16280428|762=RFQF|48=20399|22=M|54=1|38=1000000000|297=10|10=002|
8=FIX.4.4|9=0307|35=S|34=3|49=EXC|56=001|57=001B27|52=20190611-20:59:46.518|131=1596079|117=20190611-000000000085.00|55=TFIT16280428|762=RFQF|48=20399|22=M|453=5|448=DCV|447=C|452=10|448=001B27|447=C|452=12|448=001|447=C|452=1|448=001FCM001|447=C|452=36|448=002B35|447=C|452=37|634=3.000|135=1000000000|62=20190617-22:00:00|10=020|
8=FIX.4.4|9=68|35=2|34=3|49=001|50=001B27|52=20190611-20:59:46.657|56=EXC|7=2|16=0|10=186|
8=FIX.4.4|9=0290|35=AI|34=2|43=Y|52=20190611-20:59:46.629|49=EXC|56=001|57=001B27|122=20190611-20:59:29.879|131=1596079|453=5|448=DCV|447=C|452=10|448=001B27|447=C|452=12|448=001|447=C|452=1|448=001FCM001|447=C|452=36|448=002B35|447=C|452=37|55=TFIT16280428|762=RFQF|48=20399|22=M|54=1|38=1000000000|297=10|10=012|
8=FIX.4.4|9=0338|35=S|34=3|43=Y|52=20190611-20:59:46.629|49=EXC|56=001|57=001B27|122=20190611-20:59:46.518|131=1596079|117=20190611-000000000085.00|55=TFIT16280428|762=RFQF|48=20399|22=M|453=5|448=DCV|447=C|452=10|448=001B27|447=C|452=12|448=001|447=C|452=1|448=001FCM001|447=C|452=36|448=002B35|447=C|452=37|634=3.000|135=1000000000|62=20190617-22:00:00|10=039|
8=FIX.4.4|9=0054|35=4|34=4|49=EXC|56=001|52=20190611-20:59:46.630|36=5|10=144|
8=FIX.4.4|9=68|35=2|34=4|49=001|50=001B27|52=20190611-20:59:57.630|56=EXC|7=2|16=0|10=180|
8=FIX.4.4|9=0290|35=AI|34=2|43=Y|52=20190611-20:59:57.606|49=EXC|56=001|57=001B27|122=20190611-20:59:29.879|131=1596079|453=5|448=DCV|447=C|452=10|448=001B27|447=C|452=12|448=001|447=C|452=1|448=001FCM001|447=C|452=36|448=002B35|447=C|452=37|55=TFIT16280428|762=RFQF|48=20399|22=M|54=1|38=1000000000|297=10|10=009|
8=FIX.4.4|9=0338|35=S|34=3|43=Y|52=20190611-20:59:57.606|49=EXC|56=001|57=001B27|122=20190611-20:59:46.518|131=1596079|117=20190611-000000000085.00|55=TFIT16280428|762=RFQF|48=20399|22=M|453=5|448=DCV|447=C|452=10|448=001B27|447=C|452=12|448=001|447=C|452=1|448=001FCM001|447=C|452=36|448=002B35|447=C|452=37|634=3.000|135=1000000000|62=20190617-22:00:00|10=036|
8=FIX.4.4|9=0065|35=4|34=4|43=Y|49=EXC|56=001|52=20190611-20:59:57.606|123=Y|36=5|10=194|
8=FIX.4.4|9=0054|35=4|34=5|49=EXC|56=001|52=20190611-20:59:57.606|36=6|10=151|
8=FIX.4.4|9=0094|35=Z|34=6|49=EXC|56=001|57=001B27|52=20190611-21:00:08.563|117=20190611-000000000085.00|298=5|10=069|
8=FIX.4.4|9=177|35=R|34=5|49=001|50=001B27|52=20190611-21:00:20.322|56=EXC|131=29660624|146=1|55=TFIT16300632|22=M|762=RFQF|54=1|38=500000000|453=2|448=002B35|447=C|452=37|448=DCV|447=C|452=10|10=052|
8=FIX.4.4|9=0259|35=AI|34=7|49=EXC|56=001|57=001B27|52=20190611-21:00:20.293|131=29660624|453=5|448=DCV|447=C|452=10|448=001B27|447=C|452=12|448=001|447=C|452=1|448=001FCM001|447=C|452=36|448=002B35|447=C|452=37|55=TFIT16300632|762=RFQF|48=20406|22=M|54=1|38=500000000|297=10|10=212|
8=FIX.4.4|9=169|35=R|34=6|49=001|50=001B27|52=20190611-21:00:32.173|56=EXC|131=50530181|146=1|55=TFIT16300632|22=M|762=RFQF|54=1|38=0|453=2|448=002B35|447=C|452=37|448=DCV|447=C|452=10|10=172|
8=FIX.4.4|9=0152|35=AG|34=8|49=EXC|56=001|57=001B27|52=20190611-21:00:32.147|131=50530181|658=99|146=1|55=TFIT16300632|762=RFQF|22=M|58=(333): ID de cotizacin invlida|10=060|
8=FIX.4.4|9=118|35=3|34=7|49=001|50=001B27|52=20190611-21:00:32.894|56=EXC|45=8|58=Required tag missing, field=38|371=38|372=AG|373=1|10=075|
8=FIX.4.4|9=110|35=A|34=1|49=001|50=001B27|52=20190611-21:02:11.036|56=EXC|43=Y|98=0|108=30|141=Y|553=001FCM001|554=001FCM001|10=062|
8=FIX.4.4|9=0067|35=A|34=1|49=EXC|56=001|52=20190611-21:02:11.171|98=0|108=30|141=Y|10=245|
8=FIX.4.4|9=178|35=R|34=2|49=001|50=001B27|52=20190611-21:02:13.946|56=EXC|131=59003889|146=1|55=TFIT16280428|22=M|762=RFQF|54=1|38=1000000000|453=2|448=002B35|447=C|452=37|448=DCV|447=C|452=10|10=127|
8=FIX.4.4|9=0260|35=AI|34=2|49=EXC|56=001|57=001B27|52=20190611-21:02:13.918|131=59003889|453=5|448=DCV|447=C|452=10|448=001B27|447=C|452=12|448=001|447=C|452=1|448=001FCM001|447=C|452=36|448=002B35|447=C|452=37|55=TFIT16280428|762=RFQF|48=20399|22=M|54=1|38=1000000000|297=10|10=023|
8=FIX.4.4|9=0308|35=S|34=3|49=EXC|56=001|57=001B27|52=20190611-21:02:30.691|131=59003889|117=20190611-000000000087.00|55=TFIT16280428|762=RFQF|48=20399|22=M|453=5|448=DCV|447=C|452=10|448=001B27|447=C|452=12|448=001|447=C|452=1|448=001FCM001|447=C|452=36|448=002B35|447=C|452=37|634=3.000|135=1000000000|62=20190617-22:00:00|10=060|
8=FIX.4.4|9=68|35=2|34=3|49=001|50=001B27|52=20190611-21:02:30.758|56=EXC|7=2|16=0|10=170|
8=FIX.4.4|9=0291|35=AI|34=2|43=Y|52=20190611-21:02:30.729|49=EXC|56=001|57=001B27|122=20190611-21:02:13.918|131=59003889|453=5|448=DCV|447=C|452=10|448=001B27|447=C|452=12|448=001|447=C|452=1|448=001FCM001|447=C|452=36|448=002B35|447=C|452=37|55=TFIT16280428|762=RFQF|48=20399|22=M|54=1|38=1000000000|297=10|10=025|
8=FIX.4.4|9=0339|35=S|34=3|43=Y|52=20190611-21:02:30.729|49=EXC|56=001|57=001B27|122=20190611-21:02:30.691|131=59003889|117=20190611-000000000087.00|55=TFIT16280428|762=RFQF|48=20399|22=M|453=5|448=DCV|447=C|452=10|448=001B27|447=C|452=12|448=001|447=C|452=1|448=001FCM001|447=C|452=36|448=002B35|447=C|452=37|634=3.000|135=1000000000|62=20190617-22:00:00|10=062|
8=FIX.4.4|9=0054|35=4|34=4|49=EXC|56=001|52=20190611-21:02:30.730|36=5|10=127|
8=FIX.4.4|9=68|35=2|34=4|49=001|50=001B27|52=20190611-21:02:41.444|56=EXC|7=2|16=0|10=165|
8=FIX.4.4|9=0291|35=AI|34=2|43=Y|52=20190611-21:02:41.417|49=EXC|56=001|57=001B27|122=20190611-21:02:13.918|131=59003889|453=5|448=DCV|447=C|452=10|448=001B27|447=C|452=12|448=001|447=C|452=1|448=001FCM001|447=C|452=36|448=002B35|447=C|452=37|55=TFIT16280428|762=RFQF|48=20399|22=M|54=1|38=1000000000|297=10|10=021|
8=FIX.4.4|9=0339|35=S|34=3|43=Y|52=20190611-21:02:41.417|49=EXC|56=001|57=001B27|122=20190611-21:02:30.691|131=59003889|117=20190611-000000000087.00|55=TFIT16280428|762=RFQF|48=20399|22=M|453=5|448=DCV|447=C|452=10|448=001B27|447=C|452=12|448=001|447=C|452=1|448=001FCM001|447=C|452=36|448=002B35|447=C|452=37|634=3.000|135=1000000000|62=20190617-22:00:00|10=058|
8=FIX.4.4|9=0065|35=4|34=4|43=Y|49=EXC|56=001|52=20190611-21:02:41.417|123=Y|36=5|10=176|
8=FIX.4.4|9=0054|35=4|34=5|49=EXC|56=001|52=20190611-21:02:41.417|36=6|10=133|
8=FIX.4.4|9=0094|35=Z|34=6|49=EXC|56=001|57=001B27|52=20190611-21:02:51.782|117=20190611-000000000087.00|298=5|10=074|
8=FIX.4.4|9=110|35=A|34=1|49=001|50=001B27|52=20190611-21:18:19.689|56=EXC|43=Y|98=0|108=30|141=Y|553=001FCM001|554=001FCM001|10=091|
8=FIX.4.4|9=0067|35=A|34=1|49=EXC|56=001|52=20190611-21:18:19.652|98=0|108=30|141=Y|10=008|
8=FIX.4.4|9=178|35=R|34=2|49=001|50=001B27|52=20190611-21:18:22.075|56=EXC|131=49037694|146=1|55=TFIT16280428|22=M|762=RFQF|54=1|38=1000000000|453=2|448=002B35|447=C|452=37|448=DCV|447=C|452=10|10=127|
8=FIX.4.4|9=0260|35=AI|34=2|49=EXC|56=001|57=001B27|52=20190611-21:18:21.992|131=49037694|453=5|448=DCV|447=C|452=10|448=001B27|447=C|452=12|448=001|447=C|452=1|448=001FCM001|447=C|452=36|448=002B35|447=C|452=37|55=TFIT16280428|762=RFQF|48=20399|22=M|54=1|38=1000000000|297=10|10=031|
8=FIX.4.4|9=0308|35=S|34=3|49=EXC|56=001|57=001B27|52=20190611-21:18:37.988|131=49037694|117=20190611-000000000093.00|55=TFIT16280428|762=RFQF|48=20399|22=M|453=5|448=DCV|447=C|452=10|448=001B27|447=C|452=12|448=001|447=C|452=1|448=001FCM001|447=C|452=36|448=002B35|447=C|452=37|634=3.000|135=1000000000|62=20190617-22:00:00|10=080|
8=FIX.4.4|9=68|35=2|34=3|49=001|50=001B27|52=20190611-21:18:38.098|56=EXC|7=2|16=0|10=182|
8=FIX.4.4|9=0291|35=AI|34=2|43=Y|52=20190611-21:18:38.012|49=EXC|56=001|57=001B27|122=20190611-21:18:21.992|131=49037694|453=5|448=DCV|447=C|452=10|448=001B27|447=C|452=12|448=001|447=C|452=1|448=001FCM001|447=C|452=36|448=002B35|447=C|452=37|55=TFIT16280428|762=RFQF|48=20399|22=M|54=1|38=1000000000|297=10|10=033|
8=FIX.4.4|9=0339|35=S|34=3|43=Y|52=20190611-21:18:38.012|49=EXC|56=001|57=001B27|122=20190611-21:18:37.988|131=49037694|117=20190611-000000000093.00|55=TFIT16280428|762=RFQF|48=20399|22=M|453=5|448=DCV|447=C|452=10|448=001B27|447=C|452=12|448=001|447=C|452=1|448=001FCM001|447=C|452=36|448=002B35|447=C|452=37|634=3.000|135=1000000000|62=20190617-22:00:00|10=082|
8=FIX.4.4|9=0054|35=4|34=4|49=EXC|56=001|52=20190611-21:18:38.013|36=5|10=136|
8=FIX.4.4|9=68|35=2|34=4|49=001|50=001B27|52=20190611-21:18:48.546|56=EXC|7=2|16=0|10=182|
8=FIX.4.4|9=0291|35=AI|34=2|43=Y|52=20190611-21:18:48.462|49=EXC|56=001|57=001B27|122=20190611-21:18:21.992|131=49037694|453=5|448=DCV|447=C|452=10|448=001B27|447=C|452=12|448=001|447=C|452=1|448=001FCM001|447=C|452=36|448=002B35|447=C|452=37|55=TFIT16280428|762=RFQF|48=20399|22=M|54=1|38=1000000000|297=10|10=043|
8=FIX.4.4|9=0339|35=S|34=3|43=Y|52=20190611-21:18:48.462|49=EXC|56=001|57=001B27|122=20190611-21:18:37.988|131=49037694|117=20190611-000000000093.00|55=TFIT16280428|762=RFQF|48=20399|22=M|453=5|448=DCV|447=C|452=10|448=001B27|447=C|452=12|448=001|447=C|452=1|448=001FCM001|447=C|452=36|448=002B35|447=C|452=37|634=3.000|135=1000000000|62=20190617-22:00:00|10=092|
8=FIX.4.4|9=0065|35=4|34=4|43=Y|49=EXC|56=001|52=20190611-21:18:48.462|123=Y|36=5|10=190|
8=FIX.4.4|9=0054|35=4|34=5|49=EXC|56=001|52=20190611-21:18:48.462|36=6|10=147|
8=FIX.4.4|9=0094|35=Z|34=6|49=EXC|56=001|57=001B27|52=20190611-21:18:58.772|117=20190611-000000000093.00|298=5|10=084|
8=FIX.4.4|9=177|35=R|34=5|49=001|50=001B27|52=20190611-21:19:09.405|56=EXC|131=28902252|146=1|55=TFIT16300632|22=M|762=RFQF|54=1|38=500000000|453=2|448=002B35|447=C|452=37|448=DCV|447=C|452=10|10=066|
8=FIX.4.4|9=0259|35=AI|34=7|49=EXC|56=001|57=001B27|52=20190611-21:19:09.319|131=28902252|453=5|448=DCV|447=C|452=10|448=001B27|447=C|452=12|448=001|447=C|452=1|448=001FCM001|447=C|452=36|448=002B35|447=C|452=37|55=TFIT16300632|762=RFQF|48=20406|22=M|54=1|38=500000000|297=10|10=223|
8=FIX.4.4|9=110|35=A|34=1|49=001|50=001B27|52=20190611-21:20:19.966|56=EXC|43=Y|98=0|108=30|141=Y|553=001FCM001|554=001FCM001|10=082|
8=FIX.4.4|9=0067|35=A|34=1|49=EXC|56=001|52=20190611-21:20:19.911|98=0|108=30|141=Y|10=255|
8=FIX.4.4|9=178|35=R|34=2|49=001|50=001B27|52=20190611-21:20:22.316|56=EXC|131=37744019|146=1|55=TFIT16280428|22=M|762=RFQF|54=1|38=1000000000|453=2|448=002B35|447=C|452=37|448=DCV|447=C|452=10|10=111|
8=FIX.4.4|9=0260|35=AI|34=2|49=EXC|56=001|57=001B27|52=20190611-21:20:22.229|131=37744019|453=5|448=DCV|447=C|452=10|448=001B27|447=C|452=12|448=001|447=C|452=1|448=001FCM001|447=C|452=36|448=002B35|447=C|452=37|55=TFIT16280428|762=RFQF|48=20399|22=M|54=1|38=1000000000|297=10|10=011|
8=FIX.4.4|9=0308|35=S|34=3|49=EXC|56=001|57=001B27|52=20190611-21:20:38.235|131=37744019|117=20190611-000000000095.00|55=TFIT16280428|762=RFQF|48=20399|22=M|453=5|448=DCV|447=C|452=10|448=001B27|447=C|452=12|448=001|447=C|452=1|448=001FCM001|447=C|452=36|448=002B35|447=C|452=37|634=3.000|135=1000000000|62=20190617-22:00:00|10=054|
8=FIX.4.4|9=68|35=2|34=3|49=001|50=001B27|52=20190611-21:20:38.347|56=EXC|7=2|16=0|10=172|
8=FIX.4.4|9=0291|35=AI|34=2|43=Y|52=20190611-21:20:38.258|49=EXC|56=001|57=001B27|122=20190611-21:20:22.229|131=37744019|453=5|448=DCV|447=C|452=10|448=001B27|447=C|452=12|448=001|447=C|452=1|448=001FCM001|447=C|452=36|448=002B35|447=C|452=37|55=TFIT16280428|762=RFQF|48=20399|22=M|54=1|38=1000000000|297=10|10=018|
8=FIX.4.4|9=0339|35=S|34=3|43=Y|52=20190611-21:20:38.258|49=EXC|56=001|57=001B27|122=20190611-21:20:38.235|131=37744019|117=20190611-000000000095.00|55=TFIT16280428|762=RFQF|48=20399|22=M|453=5|448=DCV|447=C|452=10|448=001B27|447=C|452=12|448=001|447=C|452=1|448=001FCM001|447=C|452=36|448=002B35|447=C|452=37|634=3.000|135=1000000000|62=20190617-22:00:00|10=061|
8=FIX.4.4|9=0054|35=4|34=4|49=EXC|56=001|52=20190611-21:20:38.259|36=5|10=141|
8=FIX.4.4|9=68|35=2|34=4|49=001|50=001B27|52=20190611-21:20:48.878|56=EXC|7=2|16=0|10=183|
8=FIX.4.4|9=0291|35=AI|34=2|43=Y|52=20190611-21:20:48.792|49=EXC|56=001|57=001B27|122=20190611-21:20:22.229|131=37744019|453=5|448=DCV|447=C|452=10|448=001B27|447=C|452=12|448=001|447=C|452=1|448=001FCM001|447=C|452=36|448=002B35|447=C|452=37|55=TFIT16280428|762=RFQF|48=20399|22=M|54=1|38=1000000000|297=10|10=022|
8=FIX.4.4|9=0339|35=S|34=3|43=Y|52=20190611-21:20:48.792|49=EXC|56=001|57=001B27|122=20190611-21:20:38.235|131=37744019|117=20190611-000000000095.00|55=TFIT16280428|762=RFQF|48=20399|22=M|453=5|448=DCV|447=C|452=10|448=001B27|447=C|452=12|448=001|447=C|452=1|448=001FCM001|447=C|452=36|448=002B35|447=C|452=37|634=3.000|135=1000000000|62=20190617-22:00:00|10=065|
8=FIX.4.4|9=0065|35=4|34=4|43=Y|49=EXC|56=001|52=20190611-21:20:48.792|123=Y|36=5|10=189|
8=FIX.4.4|9=0054|35=4|34=5|49=EXC|56=001|52=20190611-21:20:48.792|36=6|10=146|
8=FIX.4.4|9=0094|35=Z|34=6|49=EXC|56=001|57=001B27|52=20190611-21:20:59.220|117=20190611-000000000095.00|298=5|10=068|
8=FIX.4.4|9=177|35=R|34=5|49=001|50=001B27|52=20190611-21:21:09.860|56=EXC|131=51833348|146=1|55=TFIT16300632|22=M|762=RFQF|54=1|38=500000000|453=2|448=002B35|447=C|452=37|448=DCV|447=C|452=10|10=069|
8=FIX.4.4|9=0259|35=AI|34=7|49=EXC|56=001|57=001B27|52=20190611-21:21:09.770|131=51833348|453=5|448=DCV|447=C|452=10|448=001B27|447=C|452=12|448=001|447=C|452=1|448=001FCM001|447=C|452=36|448=002B35|447=C|452=37|55=TFIT16300632|762=RFQF|48=20406|22=M|54=1|38=500000000|297=10|10=222|
8=FIX.4.4|9=110|35=A|34=1|49=001|50=001B27|52=20190611-21:21:34.611|56=EXC|43=Y|98=0|108=30|141=Y|553=001FCM001|554=001FCM001|10=067|
8=FIX.4.4|9=0067|35=A|34=1|49=EXC|56=001|52=20190611-21:21:34.561|98=0|108=30|141=Y|10=254|
8=FIX.4.4|9=177|35=R|34=2|49=001|50=001B27|52=20190611-21:21:37.003|56=EXC|131=13415752|146=1|55=TFIC13280425|22=M|762=RFQF|54=1|38=500000000|453=2|448=002B35|447=C|452=37|448=DCV|447=C|452=10|10=036|
8=FIX.4.4|9=0259|35=AI|34=2|49=EXC|56=001|57=001B27|52=20190611-21:21:36.932|131=13415752|453=5|448=DCV|447=C|452=10|448=001B27|447=C|452=12|448=001|447=C|452=1|448=001FCM001|447=C|452=36|448=002B35|447=C|452=37|55=TFIC13280425|762=RFQF|48=20626|22=M|54=1|38=500000000|297=10|10=201|
8=FIX.4.4|9=0307|35=S|34=3|49=EXC|56=001|57=001B27|52=20190611-21:21:52.999|131=13415752|117=20190611-000000000097.00|55=TFIC13280425|762=RFQF|48=20626|22=M|453=5|448=DCV|447=C|452=10|448=001B27|447=C|452=12|448=001|447=C|452=1|448=001FCM001|447=C|452=36|448=002B35|447=C|452=37|634=4.000|135=500000000|62=20190617-22:00:00|10=245|
8=FIX.4.4|9=68|35=2|34=3|49=001|50=001B27|52=20190611-21:21:53.142|56=EXC|7=2|16=0|10=163|
8=FIX.4.4|9=0290|35=AI|34=2|43=Y|52=20190611-21:21:53.053|49=EXC|56=001|57=001B27|122=20190611-21:21:36.932|131=13415752|453=5|448=DCV|447=C|452=10|448=001B27|447=C|452=12|448=001|447=C|452=1|448=001FCM001|447=C|452=36|448=002B35|447=C|452=37|55=TFIC13280425|762=RFQF|48=20626|22=M|54=1|38=500000000|297=10|10=190|
8=FIX.4.4|9=0338|35=S|34=3|43=Y|52=20190611-21:21:53.053|49=EXC|56=001|57=001B27|122=20190611-21:21:52.999|131=13415752|117=20190611-000000000097.00|55=TFIC13280425|762=RFQF|48=20626|22=M|453=5|448=DCV|447=C|452=10|448=001B27|447=C|452=12|448=001|447=C|452=1|448=001FCM001|447=C|452=36|448=002B35|447=C|452=37|634=4.000|135=500000000|62=20190617-22:00:00|10=243|
8=FIX.4.4|9=0054|35=4|34=4|49=EXC|56=001|52=20190611-21:21:53.053|36=5|10=131|
8=FIX.4.4|9=68|35=2|34=4|49=001|50=001B27|52=20190611-21:22:03.592|56=EXC|7=2|16=0|10=169|
8=FIX.4.4|9=0290|35=AI|34=2|43=Y|52=20190611-21:22:03.505|49=EXC|56=001|57=001B27|122=20190611-21:21:36.932|131=13415752|453=5|448=DCV|447=C|452=10|448=001B27|447=C|452=12|448=001|447=C|452=1|448=001FCM001|447=C|452=36|448=002B35|447=C|452=37|55=TFIC13280425|762=RFQF|48=20626|22=M|54=1|38=500000000|297=10|10=188|
8=FIX.4.4|9=0338|35=S|34=3|43=Y|52=20190611-21:22:03.505|49=EXC|56=001|57=001B27|122=20190611-21:21:52.999|131=13415752|117=20190611-000000000097.00|55=TFIC13280425|762=RFQF|48=20626|22=M|453=5|448=DCV|447=C|452=10|448=001B27|447=C|452=12|448=001|447=C|452=1|448=001FCM001|447=C|452=36|448=002B35|447=C|452=37|634=4.000|135=500000000|62=20190617-22:00:00|10=241|
8=FIX.4.4|9=0065|35=4|34=4|43=Y|49=EXC|56=001|52=20190611-21:22:03.505|123=Y|36=5|10=174|
8=FIX.4.4|9=0054|35=4|34=5|49=EXC|56=001|52=20190611-21:22:03.505|36=6|10=131|
8=FIX.4.4|9=110|35=A|34=1|49=001|50=001B27|52=20190611-21:40:48.646|56=EXC|43=Y|98=0|108=30|141=Y|553=001FCM001|554=001FCM001|10=081|
8=FIX.4.4|9=0067|35=A|34=1|49=EXC|56=001|52=20190611-21:40:48.765|98=0|108=30|141=Y|10=010|
8=FIX.4.4|9=178|35=R|34=2|49=001|50=001B27|52=20190611-21:40:51.047|56=EXC|131=72219641|146=1|55=TFIT16280428|22=M|762=RFQF|54=1|38=1000000000|453=2|448=002B35|447=C|452=37|448=DCV|447=C|452=10|10=113|
8=FIX.4.4|9=0260|35=AI|34=2|49=EXC|56=001|57=001B27|52=20190611-21:40:51.047|131=72219641|453=5|448=DCV|447=C|452=10|448=001B27|447=C|452=12|448=001|447=C|452=1|448=001FCM001|447=C|452=36|448=002B35|447=C|452=37|55=TFIT16280428|762=RFQF|48=20399|22=M|54=1|38=1000000000|297=10|10=010|
8=FIX.4.4|9=0308|35=S|34=3|49=EXC|56=001|57=001B27|52=20190611-21:41:06.951|131=72219641|117=20190611-000000000003.00|55=TFIT16280428|762=RFQF|48=20399|22=M|453=5|448=DCV|447=C|452=10|448=001B27|447=C|452=12|448=001|447=C|452=1|448=001FCM001|447=C|452=36|448=002B35|447=C|452=37|634=3.000|135=1000000000|62=20190617-22:00:00|10=043|
8=FIX.4.4|9=68|35=2|34=3|49=001|50=001B27|52=20190611-21:41:06.984|56=EXC|7=2|16=0|10=177|
8=FIX.4.4|9=0291|35=AI|34=2|43=Y|52=20190611-21:41:06.982|49=EXC|56=001|57=001B27|122=20190611-21:40:51.047|131=72219641|453=5|448=DCV|447=C|452=10|448=001B27|447=C|452=12|448=001|447=C|452=1|448=001FCM001|447=C|452=36|448=002B35|447=C|452=37|55=TFIT16280428|762=RFQF|48=20399|22=M|54=1|38=1000000000|297=10|10=019|
8=FIX.4.4|9=0339|35=S|34=3|43=Y|52=20190611-21:41:06.982|49=EXC|56=001|57=001B27|122=20190611-21:41:06.951|131=72219641|117=20190611-000000000003.00|55=TFIT16280428|762=RFQF|48=20399|22=M|453=5|448=DCV|447=C|452=10|448=001B27|447=C|452=12|448=001|447=C|452=1|448=001FCM001|447=C|452=36|448=002B35|447=C|452=37|634=3.000|135=1000000000|62=20190617-22:00:00|10=052|
8=FIX.4.4|9=0054|35=4|34=4|49=EXC|56=001|52=20190611-21:41:06.982|36=5|10=142|
8=FIX.4.4|9=68|35=2|34=4|49=001|50=001B27|52=20190611-21:41:17.758|56=EXC|7=2|16=0|10=179|
8=FIX.4.4|9=0291|35=AI|34=2|43=Y|52=20190611-21:41:17.756|49=EXC|56=001|57=001B27|122=20190611-21:40:51.047|131=72219641|453=5|448=DCV|447=C|452=10|448=001B27|447=C|452=12|448=001|447=C|452=1|448=001FCM001|447=C|452=36|448=002B35|447=C|452=37|55=TFIT16280428|762=RFQF|48=20399|22=M|54=1|38=1000000000|297=10|10=020|
8=FIX.4.4|9=0339|35=S|34=3|43=Y|52=20190611-21:41:17.756|49=EXC|56=001|57=001B27|122=20190611-21:41:06.951|131=72219641|117=20190611-000000000003.00|55=TFIT16280428|762=RFQF|48=20399|22=M|453=5|448=DCV|447=C|452=10|448=001B27|447=C|452=12|448=001|447=C|452=1|448=001FCM001|447=C|452=36|448=002B35|447=C|452=37|634=3.000|135=1000000000|62=20190617-22:00:00|10=053|
8=FIX.4.4|9=0065|35=4|34=4|43=Y|49=EXC|56=001|52=20190611-21:41:17.756|123=Y|36=5|10=188|
8=FIX.4.4|9=0054|35=4|34=5|49=EXC|56=001|52=20190611-21:41:17.756|36=6|10=145|
8=FIX.4.4|9=0094|35=Z|34=6|49=EXC|56=001|57=001B27|52=20190611-21:41:28.502|117=20190611-000000000003.00|298=5|10=059|
8=FIX.4.4|9=177|35=R|34=5|49=001|50=001B27|52=20190611-21:41:39.039|56=EXC|131=10625299|146=1|55=TFIT16300632|22=M|762=RFQF|54=1|38=500000000|453=2|448=002B35|447=C|452=37|448=DCV|447=C|452=10|10=071|
8=FIX.4.4|9=0259|35=AI|34=7|49=EXC|56=001|57=001B27|52=20190611-21:41:39.042|131=10625299|453=5|448=DCV|447=C|452=10|448=001B27|447=C|452=12|448=001|447=C|452=1|448=001FCM001|447=C|452=36|448=002B35|447=C|452=37|55=TFIT16300632|762=RFQF|48=20406|22=M|54=1|38=500000000|297=10|10=218|
8=FIX.4.4|9=110|35=A|34=1|49=001|50=001B27|52=20190611-21:42:47.151|56=EXC|43=Y|98=0|108=30|141=Y|553=001FCM001|554=001FCM001|10=073|
8=FIX.4.4|9=0067|35=A|34=1|49=EXC|56=001|52=20190611-21:42:47.200|98=0|108=30|141=Y|10=251|
8=FIX.4.4|9=177|35=R|34=2|49=001|50=001B27|52=20190611-21:42:49.616|56=EXC|131=72388958|146=1|55=TFIT16300632|22=M|762=RFQF|54=1|38=500000000|453=2|448=002B35|447=C|452=37|448=DCV|447=C|452=10|10=087|
8=FIX.4.4|9=0259|35=AI|34=2|49=EXC|56=001|57=001B27|52=20190611-21:42:49.613|131=72388958|453=5|448=DCV|447=C|452=10|448=001B27|447=C|452=12|448=001|447=C|452=1|448=001FCM001|447=C|452=36|448=002B35|447=C|452=37|55=TFIT16300632|762=RFQF|48=20406|22=M|54=1|38=500000000|297=10|10=235|
8=FIX.4.4|9=168|35=R|34=3|49=001|50=001B27|52=20190611-21:43:06.016|56=EXC|131=2699669|146=1|55=TFIT16300632|22=M|762=RFQF|54=1|38=0|453=2|448=002B35|447=C|452=37|448=DCV|447=C|452=10|10=148|
8=FIX.4.4|9=0151|35=AG|34=3|49=EXC|56=001|57=001B27|52=20190611-21:43:06.012|131=2699669|658=99|146=1|55=TFIT16300632|762=RFQF|22=M|58=(333): ID de cotizacin invlida|10=029|
8=FIX.4.4|9=118|35=3|34=4|49=001|50=001B27|52=20190611-21:43:06.050|56=EXC|45=3|58=Required tag missing, field=38|371=38|372=AG|373=1|10=059|
8=FIX.4.4|9=110|35=A|34=1|49=001|50=001B27|52=20190611-22:00:16.441|56=EXC|43=Y|98=0|108=30|141=Y|553=001FCM001|554=001FCM001|10=066|
8=FIX.4.4|9=0067|35=A|34=1|49=EXC|56=001|52=20190611-22:00:16.483|98=0|108=30|141=Y|10=255|
8=FIX.4.4|9=177|35=R|34=2|49=001|50=001B27|52=20190611-22:00:19.524|56=EXC|131=15484368|146=1|55=TFIC13280425|22=M|762=RFQF|54=1|38=500000000|453=2|448=002B35|447=C|452=37|448=DCV|447=C|452=10|10=053|
8=FIX.4.4|9=0259|35=AI|34=2|49=EXC|56=001|57=001B27|52=20190611-22:00:19.514|131=15484368|453=5|448=DCV|447=C|452=10|448=001B27|447=C|452=12|448=001|447=C|452=1|448=001FCM001|447=C|452=36|448=002B35|447=C|452=37|55=TFIC13280425|762=RFQF|48=20626|22=M|54=1|38=500000000|297=10|10=207|
8=FIX.4.4|9=0307|35=S|34=3|49=EXC|56=001|57=001B27|52=20190611-22:00:36.844|131=15484368|117=20190611-000000000007.00|55=TFIC13280425|762=RFQF|48=20626|22=M|453=5|448=DCV|447=C|452=10|448=001B27|447=C|452=12|448=001|447=C|452=1|448=001FCM001|447=C|452=36|448=002B35|447=C|452=37|634=4.000|135=500000000|62=20190617-22:00:00|10=236|
8=FIX.4.4|9=68|35=2|34=3|49=001|50=001B27|52=20190611-22:00:36.891|56=EXC|7=2|16=0|10=173|
8=FIX.4.4|9=0290|35=AI|34=2|43=Y|52=20190611-22:00:36.880|49=EXC|56=001|57=001B27|122=20190611-22:00:19.514|131=15484368|453=5|448=DCV|447=C|452=10|448=001B27|447=C|452=12|448=001|447=C|452=1|448=001FCM001|447=C|452=36|448=002B35|447=C|452=37|55=TFIC13280425|762=RFQF|48=20626|22=M|54=1|38=500000000|297=10|10=203|
8=FIX.4.4|9=0338|35=S|34=3|43=Y|52=20190611-22:00:36.880|49=EXC|56=001|57=001B27|122=20190611-22:00:36.844|131=15484368|117=20190611-000000000007.00|55=TFIC13280425|762=RFQF|48=20626|22=M|453=5|448=DCV|447=C|452=10|448=001B27|447=C|452=12|448=001|447=C|452=1|448=001FCM001|447=C|452=36|448=002B35|447=C|452=37|634=4.000|135=500000000|62=20190617-22:00:00|10=241|
8=FIX.4.4|9=0054|35=4|34=4|49=EXC|56=001|52=20190611-22:00:36.880|36=5|10=138|
8=FIX.4.4|9=68|35=2|34=4|49=001|50=001B27|52=20190611-22:00:47.502|56=EXC|7=2|16=0|10=165|
8=FIX.4.4|9=0290|35=AI|34=2|43=Y|52=20190611-22:00:47.491|49=EXC|56=001|57=001B27|122=20190611-22:00:19.514|131=15484368|453=5|448=DCV|447=C|452=10|448=001B27|447=C|452=12|448=001|447=C|452=1|448=001FCM001|447=C|452=36|448=002B35|447=C|452=37|55=TFIC13280425|762=RFQF|48=20626|22=M|54=1|38=500000000|297=10|10=203|
8=FIX.4.4|9=0338|35=S|34=3|43=Y|52=20190611-22:00:47.491|49=EXC|56=001|57=001B27|122=20190611-22:00:36.844|131=15484368|117=20190611-000000000007.00|55=TFIC13280425|762=RFQF|48=20626|22=M|453=5|448=DCV|447=C|452=10|448=001B27|447=C|452=12|448=001|447=C|452=1|448=001FCM001|447=C|452=36|448=002B35|447=C|452=37|634=4.000|135=500000000|62=20190617-22:00:00|10=241|
8=FIX.4.4|9=0065|35=4|34=4|43=Y|49=EXC|56=001|52=20190611-22:00:47.491|123=Y|36=5|10=183|
8=FIX.4.4|9=0054|35=4|34=5|49=EXC|56=001|52=20190611-22:00:47.491|36=6|10=140|
8=FIX.4.4|9=0049|35=0|34=6|49=EXC|56=001|52=20190611-22:01:17.000|10=160|
8=FIX.4.4|9=59|35=0|34=5|49=001|50=001B27|52=20190611-22:01:18.382|56=EXC|10=045|
8=FIX.4.4|9=110|35=A|34=1|49=001|50=001B27|52=20190611-22:03:47.664|56=EXC|43=Y|98=0|108=30|141=Y|553=001FCM001|554=001FCM001|10=080|
8=FIX.4.4|9=0067|35=A|34=1|49=EXC|56=001|52=20190611-22:03:47.706|98=0|108=30|141=Y|10=004|
8=FIX.4.4|9=177|35=R|34=2|49=001|50=001B27|52=20190611-22:03:50.217|56=EXC|131=48087332|146=1|55=TFIC13280425|22=M|762=RFQF|54=1|38=500000000|453=2|448=002B35|447=C|452=37|448=DCV|447=C|452=10|10=046|
8=FIX.4.4|9=0259|35=AI|34=2|49=EXC|56=001|57=001B27|52=20190611-22:03:50.210|131=48087332|453=5|448=DCV|447=C|452=10|448=001B27|447=C|452=12|448=001|447=C|452=1|448=001FCM001|447=C|452=36|448=002B35|447=C|452=37|55=TFIC13280425|762=RFQF|48=20626|22=M|54=1|38=500000000|297=10|10=194|
8=FIX.4.4|9=0307|35=S|34=3|49=EXC|56=001|57=001B27|52=20190611-22:04:06.983|131=48087332|117=20190611-000000000010.00|55=TFIC13280425|762=RFQF|48=20626|22=M|453=5|448=DCV|447=C|452=10|448=001B27|447=C|452=12|448=001|447=C|452=1|448=001FCM001|447=C|452=36|448=002B35|447=C|452=37|634=4.000|135=500000000|62=20190617-22:00:00|10=231|
8=FIX.4.4|9=68|35=2|34=3|49=001|50=001B27|52=20190611-22:04:07.037|56=EXC|7=2|16=0|10=167|
8=FIX.4.4|9=0290|35=AI|34=2|43=Y|52=20190611-22:04:07.024|49=EXC|56=001|57=001B27|122=20190611-22:03:50.210|131=48087332|453=5|448=DCV|447=C|452=10|448=001B27|447=C|452=12|448=001|447=C|452=1|448=001FCM001|447=C|452=36|448=002B35|447=C|452=37|55=TFIC13280425|762=RFQF|48=20626|22=M|54=1|38=500000000|297=10|10=182|
8=FIX.4.4|9=0338|35=S|34=3|43=Y|52=20190611-22:04:07.024|49=EXC|56=001|57=001B27|122=20190611-22:04:06.983|131=48087332|117=20190611-000000000010.00|55=TFIC13280425|762=RFQF|48=20626|22=M|453=5|448=DCV|447=C|452=10|448=001B27|447=C|452=12|448=001|447=C|452=1|448=001FCM001|447=C|452=36|448=002B35|447=C|452=37|634=4.000|135=500000000|62=20190617-22:00:00|10=228|
8=FIX.4.4|9=0054|35=4|34=4|49=EXC|56=001|52=20190611-22:04:07.025|36=5|10=131|
8=FIX.4.4|9=68|35=2|34=4|49=001|50=001B27|52=20190611-22:04:17.527|56=EXC|7=2|16=0|10=173|
8=FIX.4.4|9=0290|35=AI|34=2|43=Y|52=20190611-22:04:17.516|49=EXC|56=001|57=001B27|122=20190611-22:03:50.210|131=48087332|453=5|448=DCV|447=C|452=10|448=001B27|447=C|452=12|448=001|447=C|452=1|448=001FCM001|447=C|452=36|448=002B35|447=C|452=37|55=TFIC13280425|762=RFQF|48=20626|22=M|54=1|38=500000000|297=10|10=189|
8=FIX.4.4|9=0338|35=S|34=3|43=Y|52=20190611-22:04:17.516|49=EXC|56=001|57=001B27|122=20190611-22:04:06.983|131=48087332|117=20190611-000000000010.00|55=TFIC13280425|762=RFQF|48=20626|22=M|453=5|448=DCV|447=C|452=10|448=001B27|447=C|452=12|448=001|447=C|452=1|448=001FCM001|447=C|452=36|448=002B35|447=C|452=37|634=4.000|135=500000000|62=20190617-22:00:00|10=235|
8=FIX.4.4|9=0065|35=4|34=4|43=Y|49=EXC|56=001|52=20190611-22:04:17.516|123=Y|36=5|10=182|
8=FIX.4.4|9=0054|35=4|34=5|49=EXC|56=001|52=20190611-22:04:17.516|36=6|10=139|
8=FIX.4.4|9=110|35=A|34=1|49=001|50=001B27|52=20190612-14:48:35.191|56=EXC|43=Y|98=0|108=30|141=Y|553=001FCM001|554=001FCM001|10=083|
8=FIX.4.4|9=0067|35=A|34=1|49=EXC|56=001|52=20190612-14:48:35.231|98=0|108=30|141=Y|10=005|
8=FIX.4.4|9=178|35=R|34=2|49=001|50=001B27|52=20190612-14:48:37.565|56=EXC|131=18736526|146=1|55=TFIT16280428|22=M|762=RFQF|54=1|38=1000000000|453=2|448=002B35|447=C|452=37|448=DCV|447=C|452=10|10=139|
8=FIX.4.4|9=0260|35=AI|34=2|49=EXC|56=001|57=001B27|52=20190612-14:48:37.567|131=18736526|453=5|448=DCV|447=C|452=10|448=001B27|447=C|452=12|448=001|447=C|452=1|448=001FCM001|447=C|452=36|448=002B35|447=C|452=37|55=TFIT16280428|762=RFQF|48=20399|22=M|54=1|38=1000000000|297=10|10=038|
8=FIX.4.4|9=0308|35=S|34=3|49=EXC|56=001|57=001B27|52=20190612-14:48:53.585|131=18736526|117=20190612-000000000025.00|55=TFIT16280428|762=RFQF|48=20399|22=M|453=5|448=DCV|447=C|452=10|448=001B27|447=C|452=12|448=001|447=C|452=1|448=001FCM001|447=C|452=36|448=002B35|447=C|452=37|634=3.000|135=1000000000|62=20190617-22:00:00|10=069|
8=FIX.4.4|9=68|35=2|34=3|49=001|50=001B27|52=20190612-14:48:53.626|56=EXC|7=2|16=0|10=182|
8=FIX.4.4|9=0291|35=AI|34=2|43=Y|52=20190612-14:48:53.617|49=EXC|56=001|57=001B27|122=20190612-14:48:37.567|131=18736526|453=5|448=DCV|447=C|452=10|448=001B27|447=C|452=12|448=001|447=C|452=1|448=001FCM001|447=C|452=36|448=002B35|447=C|452=37|55=TFIT16280428|762=RFQF|48=20399|22=M|54=1|38=1000000000|297=10|10=054|
8=FIX.4.4|9=0339|35=S|34=3|43=Y|52=20190612-14:48:53.617|49=EXC|56=001|57=001B27|122=20190612-14:48:53.585|131=18736526|117=20190612-000000000025.00|55=TFIT16280428|762=RFQF|48=20399|22=M|453=5|448=DCV|447=C|452=10|448=001B27|447=C|452=12|448=001|447=C|452=1|448=001FCM001|447=C|452=36|448=002B35|447=C|452=37|634=3.000|135=1000000000|62=20190617-22:00:00|10=085|
8=FIX.4.4|9=0054|35=4|34=4|49=EXC|56=001|52=20190612-14:48:53.617|36=5|10=149|
8=FIX.4.4|9=68|35=2|34=4|49=001|50=001B27|52=20190612-14:49:04.172|56=EXC|7=2|16=0|10=176|
8=FIX.4.4|9=0291|35=AI|34=2|43=Y|52=20190612-14:49:04.168|49=EXC|56=001|57=001B27|122=20190612-14:48:37.567|131=18736526|453=5|448=DCV|447=C|452=10|448=001B27|447=C|452=12|448=001|447=C|452=1|448=001FCM001|447=C|452=36|448=002B35|447=C|452=37|55=TFIT16280428|762=RFQF|48=20399|22=M|54=1|38=1000000000|297=10|10=052|
8=FIX.4.4|9=0339|35=S|34=3|43=Y|52=20190612-14:49:04.168|49=EXC|56=001|57=001B27|122=20190612-14:48:53.585|131=18736526|117=20190612-000000000025.00|55=TFIT16280428|762=RFQF|48=20399|22=M|453=5|448=DCV|447=C|452=10|448=001B27|447=C|452=12|448=001|447=C|452=1|448=001FCM001|447=C|452=36|448=002B35|447=C|452=37|634=3.000|135=1000000000|62=20190617-22:00:00|10=083|
8=FIX.4.4|9=0065|35=4|34=4|43=Y|49=EXC|56=001|52=20190612-14:49:04.168|123=Y|36=5|10=192|
8=FIX.4.4|9=0054|35=4|34=5|49=EXC|56=001|52=20190612-14:49:04.168|36=6|10=149|
8=FIX.4.4|9=0094|35=Z|34=6|49=EXC|56=001|57=001B27|52=20190612-14:49:14.559|117=20190612-000000000025.00|298=5|10=082|
8=FIX.4.4|9=177|35=R|34=5|49=001|50=001B27|52=20190612-14:49:25.112|56=EXC|131=18442113|146=1|55=TFIT16300632|22=M|762=RFQF|54=1|38=500000000|453=2|448=002B35|447=C|452=37|448=DCV|447=C|452=10|10=059|
8=FIX.4.4|9=0259|35=AI|34=7|49=EXC|56=001|57=001B27|52=20190612-14:49:25.109|131=18442113|453=5|448=DCV|447=C|452=10|448=001B27|447=C|452=12|448=001|447=C|452=1|448=001FCM001|447=C|452=36|448=002B35|447=C|452=37|55=TFIT16300632|762=RFQF|48=20406|22=M|54=1|38=500000000|297=10|10=218|
=======
<<<<<<< HEAD
<<<<<<< HEAD
<<<<<<< HEAD
8=FIX.4.4|9=110|35=A|34=1|49=001|50=001B27|52=20190607-14:13:04.800|56=EXC|43=Y|98=0|108=30|141=Y|553=001FCM001|554=001FCM001|10=072|
8=FIX.4.4|9=0067|35=A|34=1|49=EXC|56=001|52=20190607-14:13:04.901|98=0|108=30|141=Y|10=001|
8=FIX.4.4|9=154|35=R|34=2|49=001|50=001B27|52=20190607-14:13:07.255|56=EXC|131=77708547|146=1|55=TFIT15260826|22=M|762=RFQF|54=1|38=1500000000|453=1|448=DCV|447=C|452=10|10=007|
8=FIX.4.4|9=0236|35=AI|34=2|49=EXC|56=001|57=001B27|52=20190607-14:13:07.262|131=77708547|453=4|448=DCV|447=C|452=10|448=001B27|447=C|452=12|448=001|447=C|452=1|448=001FCM001|447=C|452=36|55=TFIT15260826|762=RFQF|48=20348|22=M|54=1|38=1500000000|297=10|10=161|
8=FIX.4.4|9=0192|35=R|34=3|49=EXC|56=001|52=20190607-14:13:07.262|131=20190607-000000000012.00|146=1|55=TFIT15260826|762=RFQF|48=20348|22=M|54=1|38=1500000000|453=2|448=001B27|447=C|452=12|448=001|447=C|452=1|10=233|
8=FIX.4.4|9=68|35=2|34=3|49=001|50=001B27|52=20190607-14:13:07.372|56=EXC|7=2|16=0|10=175|
8=FIX.4.4|9=0267|35=AI|34=2|43=Y|52=20190607-14:13:07.375|49=EXC|56=001|57=001B27|122=20190607-14:13:07.262|131=77708547|453=4|448=DCV|447=C|452=10|448=001B27|447=C|452=12|448=001|447=C|452=1|448=001FCM001|447=C|452=36|55=TFIT15260826|762=RFQF|48=20348|22=M|54=1|38=1500000000|297=10|10=173|
8=FIX.4.4|9=0223|35=R|34=3|43=Y|52=20190607-14:13:07.375|49=EXC|56=001|122=20190607-14:13:07.262|131=20190607-000000000012.00|146=1|55=TFIT15260826|762=RFQF|48=20348|22=M|54=1|38=1500000000|453=2|448=001B27|447=C|452=12|448=001|447=C|452=1|10=236|
8=FIX.4.4|9=0054|35=4|34=4|49=EXC|56=001|52=20190607-14:13:07.375|36=5|10=145|
8=FIX.4.4|9=68|35=2|34=4|49=001|50=001B27|52=20190607-14:13:07.492|56=EXC|7=2|16=0|10=179|
8=FIX.4.4|9=0267|35=AI|34=2|43=Y|52=20190607-14:13:07.492|49=EXC|56=001|57=001B27|122=20190607-14:13:07.262|131=77708547|453=4|448=DCV|447=C|452=10|448=001B27|447=C|452=12|448=001|447=C|452=1|448=001FCM001|447=C|452=36|55=TFIT15260826|762=RFQF|48=20348|22=M|54=1|38=1500000000|297=10|10=173|
8=FIX.4.4|9=0223|35=R|34=3|43=Y|52=20190607-14:13:07.492|49=EXC|56=001|122=20190607-14:13:07.262|131=20190607-000000000012.00|146=1|55=TFIT15260826|762=RFQF|48=20348|22=M|54=1|38=1500000000|453=2|448=001B27|447=C|452=12|448=001|447=C|452=1|10=236|
8=FIX.4.4|9=0065|35=4|34=4|43=Y|49=EXC|56=001|52=20190607-14:13:07.492|123=Y|36=5|10=190|
8=FIX.4.4|9=0054|35=4|34=5|49=EXC|56=001|52=20190607-14:13:07.493|36=6|10=148|
8=FIX.4.4|9=110|35=A|34=1|49=001|50=001B27|52=20190607-15:35:43.120|56=EXC|43=Y|98=0|108=30|141=Y|553=001FCM001|554=001FCM001|10=075|
8=FIX.4.4|9=0067|35=A|34=1|49=EXC|56=001|52=20190607-15:35:43.221|98=0|108=30|141=Y|10=004|
8=FIX.4.4|9=110|35=A|34=1|49=001|50=001B27|52=20190607-16:16:18.129|56=EXC|43=Y|98=0|108=30|141=Y|553=001FCM001|554=001FCM001|10=086|
8=FIX.4.4|9=0067|35=A|34=1|49=EXC|56=001|52=20190607-16:16:18.197|98=0|108=30|141=Y|10=018|
8=FIX.4.4|9=177|35=R|34=2|49=001|50=001B27|52=20190607-16:16:20.633|56=EXC|131=55627971|146=1|55=TFIC13280425|22=M|762=RFQF|54=1|38=500000000|453=2|448=002B35|447=C|452=37|448=DCV|447=C|452=10|10=064|
8=FIX.4.4|9=0259|35=AI|34=2|49=EXC|56=001|57=001B27|52=20190607-16:16:20.632|131=55627971|453=5|448=DCV|447=C|452=10|448=001B27|447=C|452=12|448=001|447=C|452=1|448=001FCM001|447=C|452=36|448=002B35|447=C|452=37|55=TFIC13280425|762=RFQF|48=20626|22=M|54=1|38=500000000|297=10|10=218|
8=FIX.4.4|9=0307|35=S|34=3|49=EXC|56=001|57=001B27|52=20190607-16:16:27.549|131=55627971|117=20190607-000000000027.00|55=TFIC13280425|762=RFQF|48=20626|22=M|453=5|448=DCV|447=C|452=10|448=001B27|447=C|452=12|448=001|447=C|452=1|448=001FCM001|447=C|452=36|448=002B35|447=C|452=37|634=4.000|135=500000000|62=20190617-22:00:00|10=007|
8=FIX.4.4|9=110|35=A|34=1|49=001|50=001B27|52=20190607-16:39:55.014|56=EXC|43=Y|98=0|108=30|141=Y|553=001FCM001|554=001FCM001|10=085|
8=FIX.4.4|9=0067|35=A|34=1|49=EXC|56=001|52=20190607-16:39:55.083|98=0|108=30|141=Y|10=018|
8=FIX.4.4|9=177|35=R|34=2|49=001|50=001B27|52=20190607-16:39:57.410|56=EXC|131=43326192|146=1|55=TFIC13280425|22=M|762=RFQF|54=1|38=500000000|453=2|448=002B35|447=C|452=37|448=DCV|447=C|452=10|10=060|
8=FIX.4.4|9=0259|35=AI|34=2|49=EXC|56=001|57=001B27|52=20190607-16:39:57.405|131=43326192|453=5|448=DCV|447=C|452=10|448=001B27|447=C|452=12|448=001|447=C|452=1|448=001FCM001|447=C|452=36|448=002B35|447=C|452=37|55=TFIC13280425|762=RFQF|48=20626|22=M|54=1|38=500000000|297=10|10=219|
8=FIX.4.4|9=0307|35=S|34=3|49=EXC|56=001|57=001B27|52=20190607-16:40:03.747|131=43326192|117=20190607-000000000030.00|55=TFIC13280425|762=RFQF|48=20626|22=M|453=5|448=DCV|447=C|452=10|448=001B27|447=C|452=12|448=001|447=C|452=1|448=001FCM001|447=C|452=36|448=002B35|447=C|452=37|634=4.000|135=500000000|62=20190617-22:00:00|10=236|
8=FIX.4.4|9=110|35=A|34=1|49=001|50=001B27|52=20190607-16:43:04.970|56=EXC|43=Y|98=0|108=30|141=Y|553=001FCM001|554=001FCM001|10=085|
8=FIX.4.4|9=0067|35=A|34=1|49=EXC|56=001|52=20190607-16:43:05.052|98=0|108=30|141=Y|10=004|
8=FIX.4.4|9=177|35=R|34=2|49=001|50=001B27|52=20190607-16:43:07.404|56=EXC|131=34574548|146=1|55=TFIC13280425|22=M|762=RFQF|54=1|38=500000000|453=2|448=002B35|447=C|452=37|448=DCV|447=C|452=10|10=063|
8=FIX.4.4|9=0259|35=AI|34=2|49=EXC|56=001|57=001B27|52=20190607-16:43:07.422|131=34574548|453=5|448=DCV|447=C|452=10|448=001B27|447=C|452=12|448=001|447=C|452=1|448=001FCM001|447=C|452=36|448=002B35|447=C|452=37|55=TFIC13280425|762=RFQF|48=20626|22=M|54=1|38=500000000|297=10|10=218|
8=FIX.4.4|9=0307|35=S|34=3|49=EXC|56=001|57=001B27|52=20190607-16:43:15.797|131=34574548|117=20190607-000000000031.00|55=TFIC13280425|762=RFQF|48=20626|22=M|453=5|448=DCV|447=C|452=10|448=001B27|447=C|452=12|448=001|447=C|452=1|448=001FCM001|447=C|452=36|448=002B35|447=C|452=37|634=4.000|135=500000000|62=20190617-22:00:00|10=002|
8=FIX.4.4|9=110|35=A|34=1|49=001|50=001B27|52=20190607-16:44:16.174|56=EXC|43=Y|98=0|108=30|141=Y|553=001FCM001|554=001FCM001|10=085|
8=FIX.4.4|9=0067|35=A|34=1|49=EXC|56=001|52=20190607-16:44:16.249|98=0|108=30|141=Y|10=015|
8=FIX.4.4|9=177|35=R|34=2|49=001|50=001B27|52=20190607-16:44:18.550|56=EXC|131=43517068|146=1|55=TFIC13280425|22=M|762=RFQF|54=1|38=500000000|453=2|448=002B35|447=C|452=37|448=DCV|447=C|452=10|10=062|
8=FIX.4.4|9=0259|35=AI|34=2|49=EXC|56=001|57=001B27|52=20190607-16:44:18.539|131=43517068|453=5|448=DCV|447=C|452=10|448=001B27|447=C|452=12|448=001|447=C|452=1|448=001FCM001|447=C|452=36|448=002B35|447=C|452=37|55=TFIC13280425|762=RFQF|48=20626|22=M|54=1|38=500000000|297=10|10=224|
8=FIX.4.4|9=0307|35=S|34=3|49=EXC|56=001|57=001B27|52=20190607-16:44:24.541|131=43517068|117=20190607-000000000032.00|55=TFIC13280425|762=RFQF|48=20626|22=M|453=5|448=DCV|447=C|452=10|448=001B27|447=C|452=12|448=001|447=C|452=1|448=001FCM001|447=C|452=36|448=002B35|447=C|452=37|634=4.000|135=500000000|62=20190617-22:00:00|10=241|
8=FIX.4.4|9=137|35=AJ|34=3|49=001|50=001B27|52=20190607-16:44:30.091|56=EXC|54=1|55=TFIC13280425|117=20190607-000000000032.00|693=2000277|694=1|762=RFQF|10=200|
8=FIX.4.4|9=0505|35=8|34=4|49=EXC|56=001|57=001B27|52=20190607-16:44:30.078|11=2000277|17=1|37=0|150=F|1080=20190607-000000000032.00|1081=5|453=6|448=001B27|447=C|452=12|448=001|447=C|452=1|448=002B35|447=C|452=37|448=002|447=C|452=17|448=001FCM001|447=C|452=36|448=DCV|447=C|452=10|55=TFIC13280425|762=RFQF|48=20626|22=M|6=79.371|14=500000000|31=79.371|32=500000000|38=500000000|39=2|20102=79.371|54=1|60=20190607-16:44:30.078|75=20190607|63=1|64=20190607|151=0|1623=4.000|381=396859500.000|880=201906070000000001|828=99|10=031|
8=FIX.4.4|9=132|35=R|34=4|49=001|50=001B27|52=20190607-16:44:36.311|56=EXC|131=4762034|146=1|55=TFIT16280428|22=M|762=RFQF|54=1|38=1000000000|453=0|10=169|
8=FIX.4.4|9=0151|35=AG|34=5|49=EXC|56=001|57=001B27|52=20190607-16:44:36.300|131=4762034|658=99|146=1|55=TFIT16280428|762=RFQF|22=M|58=(962): Deposito no fue ingresada|10=102|
8=FIX.4.4|9=118|35=3|34=5|49=001|50=001B27|52=20190607-16:44:36.351|56=EXC|45=5|58=Required tag missing, field=38|371=38|372=AG|373=1|10=079|
8=FIX.4.4|9=110|35=A|34=1|49=001|50=001B27|52=20190607-16:47:04.924|56=EXC|43=Y|98=0|108=30|141=Y|553=001FCM001|554=001FCM001|10=088|
8=FIX.4.4|9=0067|35=A|34=1|49=EXC|56=001|52=20190607-16:47:05.039|98=0|108=30|141=Y|10=013|
8=FIX.4.4|9=0192|35=R|34=2|49=EXC|56=001|52=20190607-16:47:07.473|131=20190607-000000000033.00|146=1|55=TFIT15260826|762=RFQF|48=20348|22=M|54=1|38=1500000000|453=2|448=007B26|447=C|452=12|448=007|447=C|452=1|10=003|
8=FIX.4.4|9=110|35=A|34=1|49=001|50=001B27|52=20190607-16:53:12.098|56=EXC|43=Y|98=0|108=30|141=Y|553=001FCM001|554=001FCM001|10=086|
8=FIX.4.4|9=0067|35=A|34=1|49=EXC|56=001|52=20190607-16:53:12.146|98=0|108=30|141=Y|10=007|
8=FIX.4.4|9=177|35=R|34=2|49=001|50=001B27|52=20190607-16:53:14.785|56=EXC|131=73130128|146=1|55=TFIC13280425|22=M|762=RFQF|54=1|38=500000000|453=2|448=002B35|447=C|452=37|448=DCV|447=C|452=10|10=059|
8=FIX.4.4|9=0259|35=AI|34=2|49=EXC|56=001|57=001B27|52=20190607-16:53:14.774|131=73130128|453=5|448=DCV|447=C|452=10|448=001B27|447=C|452=12|448=001|447=C|452=1|448=001FCM001|447=C|452=36|448=002B35|447=C|452=37|55=TFIC13280425|762=RFQF|48=20626|22=M|54=1|38=500000000|297=10|10=212|
8=FIX.4.4|9=0307|35=S|34=3|49=EXC|56=001|57=001B27|52=20190607-16:53:21.444|131=73130128|117=20190607-000000000035.00|55=TFIC13280425|762=RFQF|48=20626|22=M|453=5|448=DCV|447=C|452=10|448=001B27|447=C|452=12|448=001|447=C|452=1|448=001FCM001|447=C|452=36|448=002B35|447=C|452=37|634=4.000|135=500000000|62=20190617-22:00:00|10=234|
8=FIX.4.4|9=138|35=AJ|34=3|49=001|50=001B27|52=20190607-16:53:27.101|56=EXC|54=1|55=TFIC13280425|117=20190607-000000000035.00|693=62992387|694=1|762=RFQF|10=022|
8=FIX.4.4|9=0506|35=8|34=4|49=EXC|56=001|57=001B27|52=20190607-16:53:27.078|11=62992387|17=2|37=0|150=F|1080=20190607-000000000035.00|1081=5|453=6|448=001B27|447=C|452=12|448=001|447=C|452=1|448=002B35|447=C|452=37|448=002|447=C|452=17|448=001FCM001|447=C|452=36|448=DCV|447=C|452=10|55=TFIC13280425|762=RFQF|48=20626|22=M|6=79.371|14=500000000|31=79.371|32=500000000|38=500000000|39=2|20102=79.371|54=1|60=20190607-16:53:27.078|75=20190607|63=1|64=20190607|151=0|1623=4.000|381=396859500.000|880=201906070000000002|828=99|10=125|
8=FIX.4.4|9=133|35=R|34=4|49=001|50=001B27|52=20190607-16:53:33.407|56=EXC|131=79665886|146=1|55=TFIT16280428|22=M|762=RFQF|54=1|38=1000000000|453=0|10=250|
8=FIX.4.4|9=0152|35=AG|34=5|49=EXC|56=001|57=001B27|52=20190607-16:53:33.384|131=79665886|658=99|146=1|55=TFIT16280428|762=RFQF|22=M|58=(962): Deposito no fue ingresada|10=189|
8=FIX.4.4|9=118|35=3|34=5|49=001|50=001B27|52=20190607-16:53:33.440|56=EXC|45=5|58=Required tag missing, field=38|371=38|372=AG|373=1|10=075|
8=FIX.4.4|9=110|35=A|34=1|49=001|50=001B27|52=20190607-17:01:25.954|56=EXC|43=Y|98=0|108=30|141=Y|553=001FCM001|554=001FCM001|10=085|
8=FIX.4.4|9=0067|35=A|34=1|49=EXC|56=001|52=20190607-17:01:26.028|98=0|108=30|141=Y|10=005|
8=FIX.4.4|9=0192|35=R|34=2|49=EXC|56=001|52=20190607-17:01:28.235|131=20190607-000000000037.00|146=1|55=TFIT15260826|762=RFQF|48=20348|22=M|54=1|38=1500000000|453=2|448=007B26|447=C|452=12|448=007|447=C|452=1|10=253|
8=FIX.4.4|9=110|35=A|34=1|49=001|50=001B27|52=20190607-17:05:59.070|56=EXC|43=Y|98=0|108=30|141=Y|553=001FCM001|554=001FCM001|10=085|
8=FIX.4.4|9=0067|35=A|34=1|49=EXC|56=001|52=20190607-17:05:59.110|98=0|108=30|141=Y|10=007|
8=FIX.4.4|9=177|35=R|34=2|49=001|50=001B27|52=20190607-17:06:01.585|56=EXC|131=42582317|146=1|55=TFIC13280425|22=M|762=RFQF|54=1|38=500000000|453=2|448=002B35|447=C|452=37|448=DCV|447=C|452=10|10=059|
8=FIX.4.4|9=0259|35=AI|34=2|49=EXC|56=001|57=001B27|52=20190607-17:06:01.551|131=42582317|453=5|448=DCV|447=C|452=10|448=001B27|447=C|452=12|448=001|447=C|452=1|448=001FCM001|447=C|452=36|448=002B35|447=C|452=37|55=TFIC13280425|762=RFQF|48=20626|22=M|54=1|38=500000000|297=10|10=207|
8=FIX.4.4|9=0307|35=S|34=3|49=EXC|56=001|57=001B27|52=20190607-17:06:07.587|131=42582317|117=20190607-000000000038.00|55=TFIC13280425|762=RFQF|48=20626|22=M|453=5|448=DCV|447=C|452=10|448=001B27|447=C|452=12|448=001|447=C|452=1|448=001FCM001|447=C|452=36|448=002B35|447=C|452=37|634=4.000|135=500000000|62=20190617-22:00:00|10=255|
8=FIX.4.4|9=138|35=AJ|34=3|49=001|50=001B27|52=20190607-17:06:13.380|56=EXC|54=1|55=TFIC13280425|117=20190607-000000000038.00|693=48705433|694=1|762=RFQF|10=016|
8=FIX.4.4|9=0506|35=8|34=4|49=EXC|56=001|57=001B27|52=20190607-17:06:13.345|11=48705433|17=3|37=0|150=F|1080=20190607-000000000038.00|1081=5|453=6|448=001B27|447=C|452=12|448=001|447=C|452=1|448=002B35|447=C|452=37|448=002|447=C|452=17|448=001FCM001|447=C|452=36|448=DCV|447=C|452=10|55=TFIC13280425|762=RFQF|48=20626|22=M|6=79.371|14=500000000|31=79.371|32=500000000|38=500000000|39=2|20102=79.371|54=1|60=20190607-17:06:13.345|75=20190607|63=1|64=20190607|151=0|1623=4.000|381=396859500.000|880=201906070000000003|828=99|10=100|
8=FIX.4.4|9=133|35=R|34=4|49=001|50=001B27|52=20190607-17:06:19.760|56=EXC|131=75330286|146=1|55=TFIT16280428|22=M|762=RFQF|54=1|38=1000000000|453=0|10=234|
8=FIX.4.4|9=0152|35=AG|34=5|49=EXC|56=001|57=001B27|52=20190607-17:06:19.728|131=75330286|658=99|146=1|55=TFIT16280428|762=RFQF|22=M|58=(962): Deposito no fue ingresada|10=173|
8=FIX.4.4|9=118|35=3|34=5|49=001|50=001B27|52=20190607-17:06:19.790|56=EXC|45=5|58=Required tag missing, field=38|371=38|372=AG|373=1|10=086|
=======
8=FIX.4.4|9=110|35=A|34=1|49=001|50=001B27|52=20190607-12:29:13.241|56=EXC|43=Y|98=0|108=30|141=Y|553=001FCM001|554=001FCM001|10=076|
8=FIX.4.4|9=0067|35=A|34=1|49=EXC|56=001|52=20190607-12:29:14.737|98=0|108=30|141=Y|10=014|
8=FIX.4.4|9=110|35=A|34=1|49=001|50=001B27|52=20190607-12:31:01.153|56=EXC|43=Y|98=0|108=30|141=Y|553=001FCM001|554=001FCM001|10=068|
8=FIX.4.4|9=0067|35=A|34=1|49=EXC|56=001|52=20190607-12:31:02.361|98=0|108=30|141=Y|10=253|
8=FIX.4.4|9=110|35=A|34=1|49=001|50=001B27|52=20190607-12:37:18.371|56=EXC|43=Y|98=0|108=30|141=Y|553=001FCM001|554=001FCM001|10=084|
8=FIX.4.4|9=0067|35=A|34=1|49=EXC|56=001|52=20190607-12:37:18.779|98=0|108=30|141=Y|10=023|
8=FIX.4.4|9=153|35=R|34=2|49=001|50=001B27|52=20190607-12:37:20.806|56=EXC|131=1952355|146=1|55=TFIT15260826|22=M|762=RFQF|54=1|38=1500000000|453=1|448=DCV|447=C|452=10|10=200|
8=FIX.4.4|9=0235|35=AI|34=2|49=EXC|56=001|57=001B27|52=20190607-12:37:21.174|131=1952355|453=4|448=DCV|447=C|452=10|448=001B27|447=C|452=12|448=001|447=C|452=1|448=001FCM001|447=C|452=36|55=TFIT15260826|762=RFQF|48=20348|22=M|54=1|38=1500000000|297=10|10=099|
8=FIX.4.4|9=0192|35=R|34=3|49=EXC|56=001|52=20190607-12:37:21.174|131=20190607-000000000001.00|146=1|55=TFIT15260826|762=RFQF|48=20348|22=M|54=1|38=1500000000|453=2|448=001B27|447=C|452=12|448=001|447=C|452=1|10=233|
8=FIX.4.4|9=68|35=2|34=3|49=001|50=001B27|52=20190607-12:37:20.906|56=EXC|7=2|16=0|10=177|
8=FIX.4.4|9=0266|35=AI|34=2|43=Y|52=20190607-12:37:21.271|49=EXC|56=001|57=001B27|122=20190607-12:37:21.174|131=1952355|453=4|448=DCV|447=C|452=10|448=001B27|447=C|452=12|448=001|447=C|452=1|448=001FCM001|447=C|452=36|55=TFIT15260826|762=RFQF|48=20348|22=M|54=1|38=1500000000|297=10|10=106|
8=FIX.4.4|9=0223|35=R|34=3|43=Y|52=20190607-12:37:21.271|49=EXC|56=001|122=20190607-12:37:21.174|131=20190607-000000000001.00|146=1|55=TFIT15260826|762=RFQF|48=20348|22=M|54=1|38=1500000000|453=2|448=001B27|447=C|452=12|448=001|447=C|452=1|10=231|
8=FIX.4.4|9=0054|35=4|34=4|49=EXC|56=001|52=20190607-12:37:21.272|36=5|10=141|
8=FIX.4.4|9=68|35=2|34=4|49=001|50=001B27|52=20190607-12:37:20.953|56=EXC|7=2|16=0|10=180|
8=FIX.4.4|9=0266|35=AI|34=2|43=Y|52=20190607-12:37:21.322|49=EXC|56=001|57=001B27|122=20190607-12:37:21.174|131=1952355|453=4|448=DCV|447=C|452=10|448=001B27|447=C|452=12|448=001|447=C|452=1|448=001FCM001|447=C|452=36|55=TFIT15260826|762=RFQF|48=20348|22=M|54=1|38=1500000000|297=10|10=103|
8=FIX.4.4|9=0223|35=R|34=3|43=Y|52=20190607-12:37:21.322|49=EXC|56=001|122=20190607-12:37:21.174|131=20190607-000000000001.00|146=1|55=TFIT15260826|762=RFQF|48=20348|22=M|54=1|38=1500000000|453=2|448=001B27|447=C|452=12|448=001|447=C|452=1|10=228|
8=FIX.4.4|9=0065|35=4|34=4|43=Y|49=EXC|56=001|52=20190607-12:37:21.322|123=Y|36=5|10=182|
8=FIX.4.4|9=0054|35=4|34=5|49=EXC|56=001|52=20190607-12:37:21.322|36=6|10=139|
8=FIX.4.4|9=110|35=A|34=1|49=001|50=001B27|52=20190607-13:06:52.875|56=EXC|43=Y|98=0|108=30|141=Y|553=001FCM001|554=001FCM001|10=088|
8=FIX.4.4|9=0067|35=A|34=1|49=EXC|56=001|52=20190607-13:06:52.387|98=0|108=30|141=Y|10=013|
8=FIX.4.4|9=154|35=R|34=2|49=001|50=001B27|52=20190607-13:06:55.250|56=EXC|131=72401483|146=1|55=TFIT15260826|22=M|762=RFQF|54=1|38=1500000000|453=1|448=DCV|447=C|452=10|10=246|
8=FIX.4.4|9=0236|35=AI|34=2|49=EXC|56=001|57=001B27|52=20190607-13:06:54.725|131=72401483|453=4|448=DCV|447=C|452=10|448=001B27|447=C|452=12|448=001|447=C|452=1|448=001FCM001|447=C|452=36|55=TFIT15260826|762=RFQF|48=20348|22=M|54=1|38=1500000000|297=10|10=152|
8=FIX.4.4|9=0192|35=R|34=3|49=EXC|56=001|52=20190607-13:06:54.725|131=20190607-000000000002.00|146=1|55=TFIT15260826|762=RFQF|48=20348|22=M|54=1|38=1500000000|453=2|448=001B27|447=C|452=12|448=001|447=C|452=1|10=239|
8=FIX.4.4|9=68|35=2|34=3|49=001|50=001B27|52=20190607-13:06:55.313|56=EXC|7=2|16=0|10=174|
8=FIX.4.4|9=0267|35=AI|34=2|43=Y|52=20190607-13:06:54.792|49=EXC|56=001|57=001B27|122=20190607-13:06:54.725|131=72401483|453=4|448=DCV|447=C|452=10|448=001B27|447=C|452=12|448=001|447=C|452=1|448=001FCM001|447=C|452=36|55=TFIT15260826|762=RFQF|48=20348|22=M|54=1|38=1500000000|297=10|10=170|
8=FIX.4.4|9=0223|35=R|34=3|43=Y|52=20190607-13:06:54.792|49=EXC|56=001|122=20190607-13:06:54.725|131=20190607-000000000002.00|146=1|55=TFIT15260826|762=RFQF|48=20348|22=M|54=1|38=1500000000|453=2|448=001B27|447=C|452=12|448=001|447=C|452=1|10=248|
8=FIX.4.4|9=0054|35=4|34=4|49=EXC|56=001|52=20190607-13:06:54.792|36=5|10=151|
8=FIX.4.4|9=68|35=2|34=4|49=001|50=001B27|52=20190607-13:06:55.366|56=EXC|7=2|16=0|10=183|
8=FIX.4.4|9=0267|35=AI|34=2|43=Y|52=20190607-13:06:54.841|49=EXC|56=001|57=001B27|122=20190607-13:06:54.725|131=72401483|453=4|448=DCV|447=C|452=10|448=001B27|447=C|452=12|448=001|447=C|452=1|448=001FCM001|447=C|452=36|55=TFIT15260826|762=RFQF|48=20348|22=M|54=1|38=1500000000|297=10|10=165|
8=FIX.4.4|9=0223|35=R|34=3|43=Y|52=20190607-13:06:54.841|49=EXC|56=001|122=20190607-13:06:54.725|131=20190607-000000000002.00|146=1|55=TFIT15260826|762=RFQF|48=20348|22=M|54=1|38=1500000000|453=2|448=001B27|447=C|452=12|448=001|447=C|452=1|10=243|
8=FIX.4.4|9=0065|35=4|34=4|43=Y|49=EXC|56=001|52=20190607-13:06:54.841|123=Y|36=5|10=191|
8=FIX.4.4|9=0054|35=4|34=5|49=EXC|56=001|52=20190607-13:06:54.841|36=6|10=148|
8=FIX.4.4|9=110|35=A|34=1|49=001|50=001B27|52=20190607-13:41:37.764|56=EXC|43=Y|98=0|108=30|141=Y|553=001FCM001|554=001FCM001|10=087|
8=FIX.4.4|9=0067|35=A|34=1|49=EXC|56=001|52=20190607-13:41:37.348|98=0|108=30|141=Y|10=012|
8=FIX.4.4|9=177|35=R|34=2|49=001|50=001B27|52=20190607-13:41:40.261|56=EXC|131=17473025|146=1|55=TFIC13280425|22=M|762=RFQF|54=1|38=500000000|453=2|448=002B35|447=C|452=37|448=DCV|447=C|452=10|10=045|
8=FIX.4.4|9=0259|35=AI|34=2|49=EXC|56=001|57=001B27|52=20190607-13:41:39.773|131=17473025|453=5|448=DCV|447=C|452=10|448=001B27|447=C|452=12|448=001|447=C|452=1|448=001FCM001|447=C|452=36|448=002B35|447=C|452=37|55=TFIC13280425|762=RFQF|48=20626|22=M|54=1|38=500000000|297=10|10=216|
8=FIX.4.4|9=110|35=A|34=1|49=001|50=001B27|52=20190607-13:44:49.696|56=EXC|43=Y|98=0|108=30|141=Y|553=001FCM001|554=001FCM001|10=097|
8=FIX.4.4|9=0067|35=A|34=1|49=EXC|56=001|52=20190607-13:44:49.242|98=0|108=30|141=Y|10=011|
8=FIX.4.4|9=154|35=R|34=2|49=001|50=001B27|52=20190607-13:44:52.116|56=EXC|131=37953849|146=1|55=TFIT15260826|22=M|762=RFQF|54=1|38=1500000000|453=1|448=DCV|447=C|452=10|10=009|
8=FIX.4.4|9=0236|35=AI|34=2|49=EXC|56=001|57=001B27|52=20190607-13:44:51.624|131=37953849|453=4|448=DCV|447=C|452=10|448=001B27|447=C|452=12|448=001|447=C|452=1|448=001FCM001|447=C|452=36|55=TFIT15260826|762=RFQF|48=20348|22=M|54=1|38=1500000000|297=10|10=168|
8=FIX.4.4|9=0192|35=R|34=3|49=EXC|56=001|52=20190607-13:44:51.624|131=20190607-000000000004.00|146=1|55=TFIT15260826|762=RFQF|48=20348|22=M|54=1|38=1500000000|453=2|448=001B27|447=C|452=12|448=001|447=C|452=1|10=238|
8=FIX.4.4|9=68|35=2|34=3|49=001|50=001B27|52=20190607-13:44:52.258|56=EXC|7=2|16=0|10=181|
8=FIX.4.4|9=0267|35=AI|34=2|43=Y|52=20190607-13:44:51.767|49=EXC|56=001|57=001B27|122=20190607-13:44:51.624|131=37953849|453=4|448=DCV|447=C|452=10|448=001B27|447=C|452=12|448=001|447=C|452=1|448=001FCM001|447=C|452=36|55=TFIT15260826|762=RFQF|48=20348|22=M|54=1|38=1500000000|297=10|10=187|
8=FIX.4.4|9=0223|35=R|34=3|43=Y|52=20190607-13:44:51.767|49=EXC|56=001|122=20190607-13:44:51.624|131=20190607-000000000004.00|146=1|55=TFIT15260826|762=RFQF|48=20348|22=M|54=1|38=1500000000|453=2|448=001B27|447=C|452=12|448=001|447=C|452=1|10=248|
8=FIX.4.4|9=0054|35=4|34=4|49=EXC|56=001|52=20190607-13:44:51.767|36=5|10=152|
8=FIX.4.4|9=68|35=2|34=4|49=001|50=001B27|52=20190607-13:44:52.358|56=EXC|7=2|16=0|10=183|
8=FIX.4.4|9=0267|35=AI|34=2|43=Y|52=20190607-13:44:51.868|49=EXC|56=001|57=001B27|122=20190607-13:44:51.624|131=37953849|453=4|448=DCV|447=C|452=10|448=001B27|447=C|452=12|448=001|447=C|452=1|448=001FCM001|447=C|452=36|55=TFIT15260826|762=RFQF|48=20348|22=M|54=1|38=1500000000|297=10|10=189|
8=FIX.4.4|9=0223|35=R|34=3|43=Y|52=20190607-13:44:51.868|49=EXC|56=001|122=20190607-13:44:51.624|131=20190607-000000000004.00|146=1|55=TFIT15260826|762=RFQF|48=20348|22=M|54=1|38=1500000000|453=2|448=001B27|447=C|452=12|448=001|447=C|452=1|10=250|
8=FIX.4.4|9=0065|35=4|34=4|43=Y|49=EXC|56=001|52=20190607-13:44:51.868|123=Y|36=5|10=199|
8=FIX.4.4|9=0054|35=4|34=5|49=EXC|56=001|52=20190607-13:44:51.868|36=6|10=156|
8=FIX.4.4|9=154|35=R|34=5|49=001|50=001B27|52=20190607-13:44:52.842|56=EXC|131=10739601|146=1|55=TFIT15260826|22=M|762=RFQF|54=1|38=1500000000|453=1|448=DCV|447=C|452=10|10=253|
8=FIX.4.4|9=0236|35=AI|34=6|49=EXC|56=001|57=001B27|52=20190607-13:44:52.353|131=10739601|453=4|448=DCV|447=C|452=10|448=001B27|447=C|452=12|448=001|447=C|452=1|448=001FCM001|447=C|452=36|55=TFIT15260826|762=RFQF|48=20348|22=M|54=1|38=1500000000|297=10|10=151|
8=FIX.4.4|9=0192|35=R|34=7|49=EXC|56=001|52=20190607-13:44:52.353|131=20190607-000000000005.00|146=1|55=TFIT15260826|762=RFQF|48=20348|22=M|54=1|38=1500000000|453=2|448=001B27|447=C|452=12|448=001|447=C|452=1|10=243|
8=FIX.4.4|9=68|35=2|34=6|49=001|50=001B27|52=20190607-13:44:52.885|56=EXC|7=6|16=0|10=194|
8=FIX.4.4|9=0267|35=AI|34=6|43=Y|52=20190607-13:44:52.395|49=EXC|56=001|57=001B27|122=20190607-13:44:52.353|131=10739601|453=4|448=DCV|447=C|452=10|448=001B27|447=C|452=12|448=001|447=C|452=1|448=001FCM001|447=C|452=36|55=TFIT15260826|762=RFQF|48=20348|22=M|54=1|38=1500000000|297=10|10=168|
8=FIX.4.4|9=0223|35=R|34=7|43=Y|52=20190607-13:44:52.395|49=EXC|56=001|122=20190607-13:44:52.353|131=20190607-000000000005.00|146=1|55=TFIT15260826|762=RFQF|48=20348|22=M|54=1|38=1500000000|453=2|448=001B27|447=C|452=12|448=001|447=C|452=1|10=251|
8=FIX.4.4|9=0054|35=4|34=8|49=EXC|56=001|52=20190607-13:44:52.395|36=9|10=158|
8=FIX.4.4|9=68|35=2|34=7|49=001|50=001B27|52=20190607-13:44:52.933|56=EXC|7=6|16=0|10=189|
8=FIX.4.4|9=0267|35=AI|34=6|43=Y|52=20190607-13:44:52.440|49=EXC|56=001|57=001B27|122=20190607-13:44:52.353|131=10739601|453=4|448=DCV|447=C|452=10|448=001B27|447=C|452=12|448=001|447=C|452=1|448=001FCM001|447=C|452=36|55=TFIT15260826|762=RFQF|48=20348|22=M|54=1|38=1500000000|297=10|10=159|
8=FIX.4.4|9=0223|35=R|34=7|43=Y|52=20190607-13:44:52.440|49=EXC|56=001|122=20190607-13:44:52.353|131=20190607-000000000005.00|146=1|55=TFIT15260826|762=RFQF|48=20348|22=M|54=1|38=1500000000|453=2|448=001B27|447=C|452=12|448=001|447=C|452=1|10=242|
8=FIX.4.4|9=0065|35=4|34=8|43=Y|49=EXC|56=001|52=20190607-13:44:52.440|123=Y|36=9|10=194|
8=FIX.4.4|9=0055|35=4|34=9|49=EXC|56=001|52=20190607-13:44:52.441|36=10|10=192|
8=FIX.4.4|9=110|35=A|34=1|49=001|50=001B27|52=20190607-14:07:59.616|56=EXC|43=Y|98=0|108=30|141=Y|553=001FCM001|554=001FCM001|10=090|
8=FIX.4.4|9=0067|35=A|34=1|49=EXC|56=001|52=20190607-14:07:59.350|98=0|108=30|141=Y|10=012|
8=FIX.4.4|9=154|35=R|34=2|49=001|50=001B27|52=20190607-14:08:02.030|56=EXC|131=66900438|146=1|55=TFIT15260826|22=M|762=RFQF|54=1|38=1500000000|453=1|448=DCV|447=C|452=10|10=244|
8=FIX.4.4|9=0236|35=AI|34=2|49=EXC|56=001|57=001B27|52=20190607-14:08:01.717|131=66900438|453=4|448=DCV|447=C|452=10|448=001B27|447=C|452=12|448=001|447=C|452=1|448=001FCM001|447=C|452=36|55=TFIT15260826|762=RFQF|48=20348|22=M|54=1|38=1500000000|297=10|10=155|
8=FIX.4.4|9=0192|35=R|34=3|49=EXC|56=001|52=20190607-14:08:01.717|131=20190607-000000000007.00|146=1|55=TFIT15260826|762=RFQF|48=20348|22=M|54=1|38=1500000000|453=2|448=001B27|447=C|452=12|448=001|447=C|452=1|10=240|
8=FIX.4.4|9=68|35=2|34=3|49=001|50=001B27|52=20190607-14:08:02.106|56=EXC|7=2|16=0|10=169|
8=FIX.4.4|9=0267|35=AI|34=2|43=Y|52=20190607-14:08:01.789|49=EXC|56=001|57=001B27|122=20190607-14:08:01.717|131=66900438|453=4|448=DCV|447=C|452=10|448=001B27|447=C|452=12|448=001|447=C|452=1|448=001FCM001|447=C|452=36|55=TFIT15260826|762=RFQF|48=20348|22=M|54=1|38=1500000000|297=10|10=174|
8=FIX.4.4|9=0223|35=R|34=3|43=Y|52=20190607-14:08:01.789|49=EXC|56=001|122=20190607-14:08:01.717|131=20190607-000000000007.00|146=1|55=TFIT15260826|762=RFQF|48=20348|22=M|54=1|38=1500000000|453=2|448=001B27|447=C|452=12|448=001|447=C|452=1|10=250|
8=FIX.4.4|9=0054|35=4|34=4|49=EXC|56=001|52=20190607-14:08:01.789|36=5|10=152|
8=FIX.4.4|9=68|35=2|34=4|49=001|50=001B27|52=20190607-14:08:02.178|56=EXC|7=2|16=0|10=179|
8=FIX.4.4|9=0267|35=AI|34=2|43=Y|52=20190607-14:08:01.865|49=EXC|56=001|57=001B27|122=20190607-14:08:01.717|131=66900438|453=4|448=DCV|447=C|452=10|448=001B27|447=C|452=12|448=001|447=C|452=1|448=001FCM001|447=C|452=36|55=TFIT15260826|762=RFQF|48=20348|22=M|54=1|38=1500000000|297=10|10=169|
8=FIX.4.4|9=0223|35=R|34=3|43=Y|52=20190607-14:08:01.865|49=EXC|56=001|122=20190607-14:08:01.717|131=20190607-000000000007.00|146=1|55=TFIT15260826|762=RFQF|48=20348|22=M|54=1|38=1500000000|453=2|448=001B27|447=C|452=12|448=001|447=C|452=1|10=245|
8=FIX.4.4|9=0065|35=4|34=4|43=Y|49=EXC|56=001|52=20190607-14:08:01.865|123=Y|36=5|10=192|
8=FIX.4.4|9=0054|35=4|34=5|49=EXC|56=001|52=20190607-14:08:01.865|36=6|10=149|
8=FIX.4.4|9=154|35=R|34=5|49=001|50=001B27|52=20190607-14:08:02.900|56=EXC|131=60469099|146=1|55=TFIT15260826|22=M|762=RFQF|54=1|38=1500000000|453=1|448=DCV|447=C|452=10|10=004|
8=FIX.4.4|9=0236|35=AI|34=6|49=EXC|56=001|57=001B27|52=20190607-14:08:02.586|131=60469099|453=4|448=DCV|447=C|452=10|448=001B27|447=C|452=12|448=001|447=C|452=1|448=001FCM001|447=C|452=36|55=TFIT15260826|762=RFQF|48=20348|22=M|54=1|38=1500000000|297=10|10=171|
8=FIX.4.4|9=0192|35=R|34=7|49=EXC|56=001|52=20190607-14:08:02.586|131=20190607-000000000008.00|146=1|55=TFIT15260826|762=RFQF|48=20348|22=M|54=1|38=1500000000|453=2|448=001B27|447=C|452=12|448=001|447=C|452=1|10=250|
8=FIX.4.4|9=68|35=2|34=6|49=001|50=001B27|52=20190607-14:08:02.951|56=EXC|7=6|16=0|10=184|
8=FIX.4.4|9=0267|35=AI|34=6|43=Y|52=20190607-14:08:02.635|49=EXC|56=001|57=001B27|122=20190607-14:08:02.586|131=60469099|453=4|448=DCV|447=C|452=10|448=001B27|447=C|452=12|448=001|447=C|452=1|448=001FCM001|447=C|452=36|55=TFIT15260826|762=RFQF|48=20348|22=M|54=1|38=1500000000|297=10|10=181|
8=FIX.4.4|9=0223|35=R|34=7|43=Y|52=20190607-14:08:02.635|49=EXC|56=001|122=20190607-14:08:02.586|131=20190607-000000000008.00|146=1|55=TFIT15260826|762=RFQF|48=20348|22=M|54=1|38=1500000000|453=2|448=001B27|447=C|452=12|448=001|447=C|452=1|10=251|
8=FIX.4.4|9=0054|35=4|34=8|49=EXC|56=001|52=20190607-14:08:02.635|36=9|10=151|
8=FIX.4.4|9=68|35=2|34=7|49=001|50=001B27|52=20190607-14:08:03.015|56=EXC|7=6|16=0|10=177|
8=FIX.4.4|9=0267|35=AI|34=6|43=Y|52=20190607-14:08:02.702|49=EXC|56=001|57=001B27|122=20190607-14:08:02.586|131=60469099|453=4|448=DCV|447=C|452=10|448=001B27|447=C|452=12|448=001|447=C|452=1|448=001FCM001|447=C|452=36|55=TFIT15260826|762=RFQF|48=20348|22=M|54=1|38=1500000000|297=10|10=176|
8=FIX.4.4|9=0223|35=R|34=7|43=Y|52=20190607-14:08:02.702|49=EXC|56=001|122=20190607-14:08:02.586|131=20190607-000000000008.00|146=1|55=TFIT15260826|762=RFQF|48=20348|22=M|54=1|38=1500000000|453=2|448=001B27|447=C|452=12|448=001|447=C|452=1|10=246|
8=FIX.4.4|9=0065|35=4|34=8|43=Y|49=EXC|56=001|52=20190607-14:08:02.702|123=Y|36=9|10=191|
8=FIX.4.4|9=0055|35=4|34=9|49=EXC|56=001|52=20190607-14:08:02.702|36=10|10=188|
8=FIX.4.4|9=0050|35=0|34=10|49=EXC|56=001|52=20190607-14:08:32.000|10=205|
8=FIX.4.4|9=59|35=0|34=8|49=001|50=001B27|52=20190607-14:08:33.556|56=EXC|10=061|
8=FIX.4.4|9=0050|35=0|34=11|49=EXC|56=001|52=20190607-14:09:02.000|10=204|
8=FIX.4.4|9=59|35=0|34=9|49=001|50=001B27|52=20190607-14:09:04.522|56=EXC|10=054|
8=FIX.4.4|9=0050|35=0|34=12|49=EXC|56=001|52=20190607-14:09:32.000|10=208|
8=FIX.4.4|9=60|35=0|34=10|49=001|50=001B27|52=20190607-14:09:35.487|56=EXC|10=100|
8=FIX.4.4|9=0050|35=0|34=13|49=EXC|56=001|52=20190607-14:10:02.000|10=198|
8=FIX.4.4|9=60|35=0|34=11|49=001|50=001B27|52=20190607-14:10:06.455|56=EXC|10=086|
8=FIX.4.4|9=110|35=A|34=1|49=001|50=001B27|52=20190607-14:10:41.130|56=EXC|43=Y|98=0|108=30|141=Y|553=001FCM001|554=001FCM001|10=066|
8=FIX.4.4|9=0067|35=A|34=1|49=EXC|56=001|52=20190607-14:10:41.003|98=0|108=30|141=Y|10=248|
8=FIX.4.4|9=154|35=R|34=2|49=001|50=001B27|52=20190607-14:10:43.482|56=EXC|131=10970865|146=1|55=TFIT15260826|22=M|762=RFQF|54=1|38=1500000000|453=1|448=DCV|447=C|452=10|10=253|
8=FIX.4.4|9=0236|35=AI|34=2|49=EXC|56=001|57=001B27|52=20190607-14:10:43.320|131=10970865|453=4|448=DCV|447=C|452=10|448=001B27|447=C|452=12|448=001|447=C|452=1|448=001FCM001|447=C|452=36|55=TFIT15260826|762=RFQF|48=20348|22=M|54=1|38=1500000000|297=10|10=144|
8=FIX.4.4|9=0192|35=R|34=3|49=EXC|56=001|52=20190607-14:10:43.320|131=20190607-000000000009.00|146=1|55=TFIT15260826|762=RFQF|48=20348|22=M|54=1|38=1500000000|453=2|448=001B27|447=C|452=12|448=001|447=C|452=1|10=231|
8=FIX.4.4|9=68|35=2|34=3|49=001|50=001B27|52=20190607-14:10:43.546|56=EXC|7=2|16=0|10=175|
8=FIX.4.4|9=0267|35=AI|34=2|43=Y|52=20190607-14:10:43.383|49=EXC|56=001|57=001B27|122=20190607-14:10:43.320|131=10970865|453=4|448=DCV|447=C|452=10|448=001B27|447=C|452=12|448=001|447=C|452=1|448=001FCM001|447=C|452=36|55=TFIT15260826|762=RFQF|48=20348|22=M|54=1|38=1500000000|297=10|10=152|
8=FIX.4.4|9=0223|35=R|34=3|43=Y|52=20190607-14:10:43.383|49=EXC|56=001|122=20190607-14:10:43.320|131=20190607-000000000009.00|146=1|55=TFIT15260826|762=RFQF|48=20348|22=M|54=1|38=1500000000|453=2|448=001B27|447=C|452=12|448=001|447=C|452=1|10=230|
8=FIX.4.4|9=0054|35=4|34=4|49=EXC|56=001|52=20190607-14:10:43.383|36=5|10=141|
8=FIX.4.4|9=68|35=2|34=4|49=001|50=001B27|52=20190607-14:10:43.614|56=EXC|7=2|16=0|10=172|
8=FIX.4.4|9=0267|35=AI|34=2|43=Y|52=20190607-14:10:43.452|49=EXC|56=001|57=001B27|122=20190607-14:10:43.320|131=10970865|453=4|448=DCV|447=C|452=10|448=001B27|447=C|452=12|448=001|447=C|452=1|448=001FCM001|447=C|452=36|55=TFIT15260826|762=RFQF|48=20348|22=M|54=1|38=1500000000|297=10|10=149|
8=FIX.4.4|9=0223|35=R|34=3|43=Y|52=20190607-14:10:43.452|49=EXC|56=001|122=20190607-14:10:43.320|131=20190607-000000000009.00|146=1|55=TFIT15260826|762=RFQF|48=20348|22=M|54=1|38=1500000000|453=2|448=001B27|447=C|452=12|448=001|447=C|452=1|10=227|
8=FIX.4.4|9=0065|35=4|34=4|43=Y|49=EXC|56=001|52=20190607-14:10:43.452|123=Y|36=5|10=183|
8=FIX.4.4|9=0054|35=4|34=5|49=EXC|56=001|52=20190607-14:10:43.452|36=6|10=140|
8=FIX.4.4|9=154|35=R|34=5|49=001|50=001B27|52=20190607-14:10:44.185|56=EXC|131=65115011|146=1|55=TFIT15260826|22=M|762=RFQF|54=1|38=1500000000|453=1|448=DCV|447=C|452=10|10=241|
8=FIX.4.4|9=0236|35=AI|34=6|49=EXC|56=001|57=001B27|52=20190607-14:10:44.022|131=65115011|453=4|448=DCV|447=C|452=10|448=001B27|447=C|452=12|448=001|447=C|452=1|448=001FCM001|447=C|452=36|55=TFIT15260826|762=RFQF|48=20348|22=M|54=1|38=1500000000|297=10|10=132|
8=FIX.4.4|9=0192|35=R|34=7|49=EXC|56=001|52=20190607-14:10:44.022|131=20190607-000000000010.00|146=1|55=TFIT15260826|762=RFQF|48=20348|22=M|54=1|38=1500000000|453=2|448=001B27|447=C|452=12|448=001|447=C|452=1|10=227|
8=FIX.4.4|9=68|35=2|34=6|49=001|50=001B27|52=20190607-14:10:44.221|56=EXC|7=6|16=0|10=173|
8=FIX.4.4|9=0267|35=AI|34=6|43=Y|52=20190607-14:10:44.060|49=EXC|56=001|57=001B27|122=20190607-14:10:44.022|131=65115011|453=4|448=DCV|447=C|452=10|448=001B27|447=C|452=12|448=001|447=C|452=1|448=001FCM001|447=C|452=36|55=TFIT15260826|762=RFQF|48=20348|22=M|54=1|38=1500000000|297=10|10=133|
8=FIX.4.4|9=0223|35=R|34=7|43=Y|52=20190607-14:10:44.060|49=EXC|56=001|122=20190607-14:10:44.022|131=20190607-000000000010.00|146=1|55=TFIT15260826|762=RFQF|48=20348|22=M|54=1|38=1500000000|453=2|448=001B27|447=C|452=12|448=001|447=C|452=1|10=219|
8=FIX.4.4|9=0054|35=4|34=8|49=EXC|56=001|52=20190607-14:10:44.060|36=9|10=142|
8=FIX.4.4|9=68|35=2|34=7|49=001|50=001B27|52=20190607-14:10:44.257|56=EXC|7=6|16=0|10=183|
8=FIX.4.4|9=0267|35=AI|34=6|43=Y|52=20190607-14:10:44.096|49=EXC|56=001|57=001B27|122=20190607-14:10:44.022|131=65115011|453=4|448=DCV|447=C|452=10|448=001B27|447=C|452=12|448=001|447=C|452=1|448=001FCM001|447=C|452=36|55=TFIT15260826|762=RFQF|48=20348|22=M|54=1|38=1500000000|297=10|10=142|
8=FIX.4.4|9=0223|35=R|34=7|43=Y|52=20190607-14:10:44.096|49=EXC|56=001|122=20190607-14:10:44.022|131=20190607-000000000010.00|146=1|55=TFIT15260826|762=RFQF|48=20348|22=M|54=1|38=1500000000|453=2|448=001B27|447=C|452=12|448=001|447=C|452=1|10=228|
8=FIX.4.4|9=0065|35=4|34=8|43=Y|49=EXC|56=001|52=20190607-14:10:44.096|123=Y|36=9|10=196|
8=FIX.4.4|9=0055|35=4|34=9|49=EXC|56=001|52=20190607-14:10:44.096|36=10|10=193|
8=FIX.4.4|9=0050|35=0|34=10|49=EXC|56=001|52=20190607-14:11:14.000|10=199|
8=FIX.4.4|9=59|35=0|34=8|49=001|50=001B27|52=20190607-14:11:15.071|56=EXC|10=047|
8=FIX.4.4|9=110|35=A|34=1|49=001|50=001B27|52=20190607-14:22:14.001|56=EXC|43=Y|98=0|108=30|141=Y|553=001FCM001|554=001FCM001|10=066|
8=FIX.4.4|9=0067|35=A|34=1|49=EXC|56=001|52=20190607-14:22:14.325|98=0|108=30|141=Y|10=002|
8=FIX.4.4|9=177|35=R|34=2|49=001|50=001B27|52=20190607-14:22:16.433|56=EXC|131=50089462|146=1|55=TFIC13280425|22=M|762=RFQF|54=1|38=500000000|453=2|448=002B35|447=C|452=37|448=DCV|447=C|452=10|10=054|
8=FIX.4.4|9=0259|35=AI|34=2|49=EXC|56=001|57=001B27|52=20190607-14:22:16.683|131=50089462|453=5|448=DCV|447=C|452=10|448=001B27|447=C|452=12|448=001|447=C|452=1|448=001FCM001|447=C|452=36|448=002B35|447=C|452=37|55=TFIC13280425|762=RFQF|48=20626|22=M|54=1|38=500000000|297=10|10=216|
8=FIX.4.4|9=177|35=R|34=3|49=001|50=001B27|52=20190607-14:22:17.297|56=EXC|131=40681930|146=1|55=TFIC13280425|22=M|762=RFQF|54=1|38=500000000|453=2|448=002B35|447=C|452=37|448=DCV|447=C|452=10|10=061|
8=FIX.4.4|9=0259|35=AI|34=3|49=EXC|56=001|57=001B27|52=20190607-14:22:17.547|131=40681930|453=5|448=DCV|447=C|452=10|448=001B27|447=C|452=12|448=001|447=C|452=1|448=001FCM001|447=C|452=36|448=002B35|447=C|452=37|55=TFIC13280425|762=RFQF|48=20626|22=M|54=1|38=500000000|297=10|10=214|
8=FIX.4.4|9=110|35=A|34=1|49=001|50=001B27|52=20190607-14:23:02.311|56=EXC|43=Y|98=0|108=30|141=Y|553=001FCM001|554=001FCM001|10=068|
8=FIX.4.4|9=0067|35=A|34=1|49=EXC|56=001|52=20190607-14:23:02.606|98=0|108=30|141=Y|10=002|
8=FIX.4.4|9=176|35=R|34=2|49=001|50=001B27|52=20190607-14:23:04.646|56=EXC|131=7494850|146=1|55=TFIC13280425|22=M|762=RFQF|54=1|38=500000000|453=2|448=002B35|447=C|452=37|448=DCV|447=C|452=10|10=012|
8=FIX.4.4|9=0258|35=AI|34=2|49=EXC|56=001|57=001B27|52=20190607-14:23:04.896|131=7494850|453=5|448=DCV|447=C|452=10|448=001B27|447=C|452=12|448=001|447=C|452=1|448=001FCM001|447=C|452=36|448=002B35|447=C|452=37|55=TFIC13280425|762=RFQF|48=20626|22=M|54=1|38=500000000|297=10|10=174|
8=FIX.4.4|9=0306|35=S|34=3|49=EXC|56=001|57=001B27|52=20190607-14:23:15.597|131=7494850|117=20190607-000000000015.00|55=TFIC13280425|762=RFQF|48=20626|22=M|453=5|448=DCV|447=C|452=10|448=001B27|447=C|452=12|448=001|447=C|452=1|448=001FCM001|447=C|452=36|448=002B35|447=C|452=37|634=4.000|135=500000000|62=20190617-22:00:00|10=202|
8=FIX.4.4|9=110|35=A|34=1|49=001|50=001B27|52=20190607-14:23:31.469|56=EXC|43=Y|98=0|108=30|141=Y|553=001FCM001|554=001FCM001|10=084|
8=FIX.4.4|9=0067|35=A|34=1|49=EXC|56=001|52=20190607-14:23:31.789|98=0|108=30|141=Y|10=016|
8=FIX.4.4|9=153|35=R|34=2|49=001|50=001B27|52=20190607-14:23:33.813|56=EXC|131=6512679|146=1|55=TFIT15260826|22=M|762=RFQF|54=1|38=1500000000|453=1|448=DCV|447=C|452=10|10=205|
8=FIX.4.4|9=0235|35=AI|34=2|49=EXC|56=001|57=001B27|52=20190607-14:23:34.063|131=6512679|453=4|448=DCV|447=C|452=10|448=001B27|447=C|452=12|448=001|447=C|452=1|448=001FCM001|447=C|452=36|55=TFIT15260826|762=RFQF|48=20348|22=M|54=1|38=1500000000|297=10|10=103|
8=FIX.4.4|9=0192|35=R|34=3|49=EXC|56=001|52=20190607-14:23:34.063|131=20190607-000000000016.00|146=1|55=TFIT15260826|762=RFQF|48=20348|22=M|54=1|38=1500000000|453=2|448=001B27|447=C|452=12|448=001|447=C|452=1|10=237|
8=FIX.4.4|9=68|35=2|34=3|49=001|50=001B27|52=20190607-14:23:33.877|56=EXC|7=2|16=0|10=185|
