8=FIX.4.4|9=105|35=A|34=1|49=010|50=010BWN|52=20190611-22:57:17.858|56=EXC|98=0|108=30|141=Y|553=010FCE003|554=010FCE003|10=145|
8=FIX.4.4|9=0067|35=A|34=1|49=EXC|56=010|52=20190611-22:57:17.864|98=0|108=30|141=Y|10=015|
8=FIX.4.4|9=0192|35=R|34=2|49=EXC|56=010|52=20190611-22:57:20.236|131=20190611-000000000020.00|146=1|55=TFIT15260826|762=RFQF|48=20348|22=M|54=1|38=1500000000|453=2|448=007B26|447=C|452=12|448=007|447=C|452=1|10=235|
8=FIX.4.4|9=0183|35=R|34=3|49=EXC|56=010|52=20190611-22:57:36.663|131=20190611-000000000020.00|146=1|55=TFIT15260826|762=RFQF|48=20348|22=M|54=1|38=0|453=2|448=007B26|447=C|452=12|448=007|447=C|452=1|10=065|
8=FIX.4.4|9=59|35=0|34=2|49=010|50=010BWN|52=20190611-22:57:48.826|56=EXC|10=119|
8=FIX.4.4|9=0049|35=0|34=4|49=EXC|56=010|52=20190611-22:58:06.000|10=168|
8=FIX.4.4|9=59|35=0|34=3|49=010|50=010BWN|52=20190611-22:58:18.820|56=EXC|10=112|
8=FIX.4.4|9=0049|35=0|34=5|49=EXC|56=010|52=20190611-22:58:36.000|10=172|
8=FIX.4.4|9=59|35=0|34=4|49=010|50=010BWN|52=20190611-22:58:48.818|56=EXC|10=123|
8=FIX.4.4|9=0049|35=0|34=6|49=EXC|56=010|52=20190611-22:59:06.000|10=171|
8=FIX.4.4|9=59|35=0|34=5|49=010|50=010BWN|52=20190611-22:59:18.829|56=EXC|10=124|
8=FIX.4.4|9=0049|35=0|34=7|49=EXC|56=010|52=20190611-22:59:36.000|10=175|
8=FIX.4.4|9=59|35=0|34=6|49=010|50=010BWN|52=20190611-22:59:48.824|56=EXC|10=123|
8=FIX.4.4|9=0049|35=0|34=8|49=EXC|56=010|52=20190611-23:00:06.000|10=160|
8=FIX.4.4|9=59|35=0|34=7|49=010|50=010BWN|52=20190611-23:00:18.824|56=EXC|10=108|
8=FIX.4.4|9=105|35=A|34=1|49=010|50=010BWN|52=20190611-23:00:57.230|56=EXC|98=0|108=30|141=Y|553=010FCE003|554=010FCE003|10=122|
8=FIX.4.4|9=0067|35=A|34=1|49=EXC|56=010|52=20190611-23:00:57.220|98=0|108=30|141=Y|10=250|
8=FIX.4.4|9=0192|35=R|34=2|49=EXC|56=010|52=20190611-23:00:59.613|131=20190611-000000000021.00|146=1|55=TFIT15260826|762=RFQF|48=20348|22=M|54=1|38=1500000000|453=2|448=007B26|447=C|452=12|448=007|447=C|452=1|10=236|
8=FIX.4.4|9=0183|35=R|34=3|49=EXC|56=010|52=20190611-23:01:15.604|131=20190611-000000000021.00|146=1|55=TFIT15260826|762=RFQF|48=20348|22=M|54=1|38=0|453=2|448=007B26|447=C|452=12|448=007|447=C|452=1|10=048|
8=FIX.4.4|9=59|35=0|34=2|49=010|50=010BWN|52=20190611-23:01:28.184|56=EXC|10=104|
8=FIX.4.4|9=105|35=A|34=1|49=010|50=010BWN|52=20190611-23:03:31.319|56=EXC|98=0|108=30|141=Y|553=010FCE003|554=010FCE003|10=125|
8=FIX.4.4|9=0067|35=A|34=1|49=EXC|56=010|52=20190611-23:03:31.316|98=0|108=30|141=Y|10=251|
8=FIX.4.4|9=0192|35=R|34=2|49=EXC|56=010|52=20190611-23:03:33.644|131=20190611-000000000022.00|146=1|55=TFIT15260826|762=RFQF|48=20348|22=M|54=1|38=1500000000|453=2|448=007B26|447=C|452=12|448=007|447=C|452=1|10=236|
8=FIX.4.4|9=59|35=0|34=2|49=010|50=010BWN|52=20190611-23:04:02.238|56=EXC|10=099|
8=FIX.4.4|9=0049|35=0|34=3|49=EXC|56=010|52=20190611-23:04:03.000|10=156|
8=FIX.4.4|9=68|35=1|34=3|49=010|50=010BWN|52=20190611-23:04:19.243|56=EXC|112=TEST|10=123|
8=FIX.4.4|9=0058|35=0|34=4|49=EXC|56=010|52=20190611-23:04:19.200|112=TEST|10=184|
8=FIX.4.4|9=105|35=A|34=1|49=010|50=010BWN|52=20190611-23:04:47.325|56=EXC|98=0|108=30|141=Y|553=010FCE003|554=010FCE003|10=130|
8=FIX.4.4|9=0067|35=A|34=1|49=EXC|56=010|52=20190611-23:04:47.316|98=0|108=30|141=Y|10=003|
8=FIX.4.4|9=105|35=A|34=1|49=010|50=010BWN|52=20190611-23:05:48.258|56=EXC|98=0|108=30|141=Y|553=010FCE003|554=010FCE003|10=137|
8=FIX.4.4|9=0067|35=A|34=1|49=EXC|56=010|52=20190611-23:05:48.261|98=0|108=30|141=Y|10=004|
8=FIX.4.4|9=0049|35=0|34=2|49=EXC|56=010|52=20190611-23:06:18.000|10=163|
8=FIX.4.4|9=59|35=0|34=2|49=010|50=010BWN|52=20190611-23:06:19.236|56=EXC|10=107|
8=FIX.4.4|9=105|35=A|34=1|49=010|50=010BWN|52=20190611-23:33:37.172|56=EXC|98=0|108=30|141=Y|553=010FCE003|554=010FCE003|10=131|
8=FIX.4.4|9=0067|35=A|34=1|49=EXC|56=010|52=20190611-23:33:37.164|98=0|108=30|141=Y|10=005|
8=FIX.4.4|9=0192|35=R|34=2|49=EXC|56=010|52=20190611-23:33:39.653|131=20190611-000000000023.00|146=1|55=TFIT15260826|762=RFQF|48=20348|22=M|54=1|38=1500000000|453=2|448=007B26|447=C|452=12|448=007|447=C|452=1|10=246|
8=FIX.4.4|9=59|35=0|34=2|49=010|50=010BWN|52=20190611-23:34:08.125|56=EXC|10=103|
8=FIX.4.4|9=0049|35=0|34=3|49=EXC|56=010|52=20190611-23:34:09.000|10=165|
8=FIX.4.4|9=105|35=A|34=1|49=010|50=010BWN|52=20190611-23:36:25.598|56=EXC|98=0|108=30|141=Y|553=010FCE003|554=010FCE003|10=143|
8=FIX.4.4|9=0067|35=A|34=1|49=EXC|56=010|52=20190611-23:36:25.592|98=0|108=30|141=Y|10=010|
8=FIX.4.4|9=0192|35=R|34=2|49=EXC|56=010|52=20190611-23:36:27.933|131=20190611-000000000024.00|146=1|55=TFIT15260826|762=RFQF|48=20348|22=M|54=1|38=1500000000|453=2|448=007B26|447=C|452=12|448=007|447=C|452=1|10=248|
8=FIX.4.4|9=59|35=0|34=2|49=010|50=010BWN|52=20190611-23:36:56.534|56=EXC|10=112|
8=FIX.4.4|9=0049|35=0|34=3|49=EXC|56=010|52=20190611-23:36:57.000|10=170|
8=FIX.4.4|9=59|35=0|34=3|49=010|50=010BWN|52=20190611-23:37:26.530|56=EXC|10=107|
8=FIX.4.4|9=0049|35=0|34=4|49=EXC|56=010|52=20190611-23:37:27.000|10=169|
8=FIX.4.4|9=105|35=A|34=1|49=010|50=010BWN|52=20190612-13:11:13.854|56=EXC|98=0|108=30|141=Y|553=010FCE003|554=010FCE003|10=128|
8=FIX.4.4|9=0067|35=A|34=1|49=EXC|56=010|52=20190612-13:11:13.891|98=0|108=30|141=Y|10=002|
8=FIX.4.4|9=0192|35=R|34=2|49=EXC|56=010|52=20190612-13:11:16.411|131=20190612-000000000001.00|146=1|55=TFIT15260826|762=RFQF|48=20348|22=M|54=1|38=1500000000|453=2|448=007B26|447=C|452=12|448=007|447=C|452=1|10=226|
8=FIX.4.4|9=105|35=A|34=1|49=010|50=010BWN|52=20190612-13:23:10.091|56=EXC|98=0|108=30|141=Y|553=010FCE003|554=010FCE003|10=121|
8=FIX.4.4|9=0067|35=A|34=1|49=EXC|56=010|52=20190612-13:23:10.141|98=0|108=30|141=Y|10=246|
8=FIX.4.4|9=0192|35=R|34=2|49=EXC|56=010|52=20190612-13:23:12.449|131=20190612-000000000002.00|146=1|55=TFIT15260826|762=RFQF|48=20348|22=M|54=1|38=1500000000|453=2|448=007B26|447=C|452=12|448=007|447=C|452=1|10=237|
8=FIX.4.4|9=59|35=0|34=2|49=010|50=010BWN|52=20190612-13:23:41.023|56=EXC|10=095|
8=FIX.4.4|9=0049|35=0|34=3|49=EXC|56=010|52=20190612-13:23:42.000|10=160|
8=FIX.4.4|9=59|35=0|34=3|49=010|50=010BWN|52=20190612-13:24:11.023|56=EXC|10=094|
8=FIX.4.4|9=0049|35=0|34=4|49=EXC|56=010|52=20190612-13:24:12.000|10=159|
8=FIX.4.4|9=59|35=0|34=4|49=010|50=010BWN|52=20190612-13:24:41.025|56=EXC|10=100|
8=FIX.4.4|9=0049|35=0|34=5|49=EXC|56=010|52=20190612-13:24:42.000|10=163|
8=FIX.4.4|9=105|35=A|34=1|49=010|50=010BWN|52=20190612-13:26:35.134|56=EXC|98=0|108=30|141=Y|553=010FCE003|554=010FCE003|10=129|
8=FIX.4.4|9=0067|35=A|34=1|49=EXC|56=010|52=20190612-13:26:35.184|98=0|108=30|141=Y|10=007|
8=FIX.4.4|9=0192|35=R|34=2|49=EXC|56=010|52=20190612-13:26:37.548|131=20190612-000000000003.00|146=1|55=TFIT15260826|762=RFQF|48=20348|22=M|54=1|38=1500000000|453=2|448=007B26|447=C|452=12|448=007|447=C|452=1|10=248|
8=FIX.4.4|9=59|35=0|34=2|49=010|50=010BWN|52=20190612-13:27:06.101|56=EXC|10=097|
8=FIX.4.4|9=0049|35=0|34=3|49=EXC|56=010|52=20190612-13:27:07.000|10=165|
8=FIX.4.4|9=105|35=A|34=1|49=010|50=010BWN|52=20190612-13:28:07.378|56=EXC|98=0|108=30|141=Y|553=010FCE003|554=010FCE003|10=140|
8=FIX.4.4|9=0067|35=A|34=1|49=EXC|56=010|52=20190612-13:28:07.420|98=0|108=30|141=Y|10=001|
8=FIX.4.4|9=0192|35=R|34=2|49=EXC|56=010|52=20190612-13:28:09.737|131=20190612-000000000004.00|146=1|55=TFIT15260826|762=RFQF|48=20348|22=M|54=1|38=1500000000|453=2|448=007B26|447=C|452=12|448=007|447=C|452=1|10=250|
8=FIX.4.4|9=59|35=0|34=2|49=010|50=010BWN|52=20190612-13:28:38.270|56=EXC|10=110|
8=FIX.4.4|9=0049|35=0|34=3|49=EXC|56=010|52=20190612-13:28:39.000|10=171|
8=FIX.4.4|9=105|35=A|34=1|49=010|50=010BWN|52=20190612-13:36:22.784|56=EXC|98=0|108=30|141=Y|553=010FCE003|554=010FCE003|10=137|
8=FIX.4.4|9=0067|35=A|34=1|49=EXC|56=010|52=20190612-13:36:22.821|98=0|108=30|141=Y|10=002|
8=FIX.4.4|9=0192|35=R|34=2|49=EXC|56=010|52=20190612-13:36:25.229|131=20190612-000000000005.00|146=1|55=TFIT15260826|762=RFQF|48=20348|22=M|54=1|38=1500000000|453=2|448=007B26|447=C|452=12|448=007|447=C|452=1|10=244|
8=FIX.4.4|9=0183|35=R|34=3|49=EXC|56=010|52=20190612-13:36:41.461|131=20190612-000000000005.00|146=1|55=TFIT15260826|762=RFQF|48=20348|22=M|54=1|38=0|453=2|448=007B26|447=C|452=12|448=007|447=C|452=1|10=059|
8=FIX.4.4|9=59|35=0|34=2|49=010|50=010BWN|52=20190612-13:36:53.671|56=EXC|10=111|
8=FIX.4.4|9=0049|35=0|34=4|49=EXC|56=010|52=20190612-13:37:11.000|10=162|
8=FIX.4.4|9=59|35=0|34=3|49=010|50=010BWN|52=20190612-13:37:23.672|56=EXC|10=111|
8=FIX.4.4|9=0049|35=0|34=5|49=EXC|56=010|52=20190612-13:37:41.000|10=166|
8=FIX.4.4|9=59|35=0|34=4|49=010|50=010BWN|52=20190612-13:37:53.668|56=EXC|10=120|
8=FIX.4.4|9=0049|35=0|34=6|49=EXC|56=010|52=20190612-13:38:11.000|10=165|
8=FIX.4.4|9=105|35=A|34=1|49=010|50=010BWN|52=20190612-13:39:01.623|56=EXC|98=0|108=30|141=Y|553=010FCE003|554=010FCE003|10=129|
8=FIX.4.4|9=0067|35=A|34=1|49=EXC|56=010|52=20190612-13:39:01.664|98=0|108=30|141=Y|10=007|
8=FIX.4.4|9=0192|35=R|34=2|49=EXC|56=010|52=20190612-13:39:03.964|131=20190612-000000000006.00|146=1|55=TFIT15260826|762=RFQF|48=20348|22=M|54=1|38=1500000000|453=2|448=007B26|447=C|452=12|448=007|447=C|452=1|10=250|
8=FIX.4.4|9=0183|35=R|34=3|49=EXC|56=010|52=20190612-13:39:20.172|131=20190612-000000000006.00|146=1|55=TFIT15260826|762=RFQF|48=20348|22=M|54=1|38=0|453=2|448=007B26|447=C|452=12|448=007|447=C|452=1|10=059|
8=FIX.4.4|9=59|35=0|34=2|49=010|50=010BWN|52=20190612-13:39:32.553|56=EXC|10=110|
8=FIX.4.4|9=0049|35=0|34=4|49=EXC|56=010|52=20190612-13:39:50.000|10=167|
8=FIX.4.4|9=59|35=0|34=3|49=010|50=010BWN|52=20190612-13:40:02.567|56=EXC|10=105|
8=FIX.4.4|9=0049|35=0|34=5|49=EXC|56=010|52=20190612-13:40:20.000|10=157|
8=FIX.4.4|9=59|35=0|34=4|49=010|50=010BWN|52=20190612-13:40:33.562|56=EXC|10=105|
8=FIX.4.4|9=105|35=A|34=1|49=010|50=010BWN|52=20190612-13:42:48.826|56=EXC|98=0|108=30|141=Y|553=010FCE003|554=010FCE003|10=139|
8=FIX.4.4|9=0067|35=A|34=1|49=EXC|56=010|52=20190612-13:42:48.868|98=0|108=30|141=Y|10=018|
8=FIX.4.4|9=0192|35=R|34=2|49=EXC|56=010|52=20190612-13:42:51.239|131=20190612-000000000007.00|146=1|55=TFIT15260826|762=RFQF|48=20348|22=M|54=1|38=1500000000|453=2|448=007B26|447=C|452=12|448=007|447=C|452=1|10=243|
8=FIX.4.4|9=0183|35=R|34=3|49=EXC|56=010|52=20190612-13:43:07.346|131=20190612-000000000007.00|146=1|55=TFIT15260826|762=RFQF|48=20348|22=M|54=1|38=0|453=2|448=007B26|447=C|452=12|448=007|447=C|452=1|10=063|
8=FIX.4.4|9=59|35=0|34=2|49=010|50=010BWN|52=20190612-13:43:19.739|56=EXC|10=116|
8=FIX.4.4|9=0049|35=0|34=4|49=EXC|56=010|52=20190612-13:43:37.000|10=167|
8=FIX.4.4|9=0191|35=R|34=5|49=EXC|56=010|52=20190612-13:43:39.859|131=20190612-000000000008.00|146=1|55=TFIC14280426|762=RFQF|48=20602|22=M|54=1|38=500000000|453=2|448=001B27|447=C|452=12|448=001|447=C|452=1|10=174|
8=FIX.4.4|9=105|35=A|34=1|49=010|50=010BWN|52=20190612-13:44:28.369|56=EXC|98=0|108=30|141=Y|553=010FCE003|554=010FCE003|10=141|
8=FIX.4.4|9=0067|35=A|34=1|49=EXC|56=010|52=20190612-13:44:28.408|98=0|108=30|141=Y|10=008|
8=FIX.4.4|9=0049|35=0|34=2|49=EXC|56=010|52=20190612-13:44:58.000|10=169|
8=FIX.4.4|9=59|35=0|34=2|49=010|50=010BWN|52=20190612-13:44:59.327|56=EXC|10=114|
8=FIX.4.4|9=105|35=A|34=1|49=010|50=010BWN|52=20190612-14:37:56.772|56=EXC|98=0|108=30|141=Y|553=010FCE003|554=010FCE003|10=143|
8=FIX.4.4|9=0067|35=A|34=1|49=EXC|56=010|52=20190612-14:37:56.824|98=0|108=30|141=Y|10=014|
8=FIX.4.4|9=0049|35=0|34=2|49=EXC|56=010|52=20190612-14:38:26.000|10=168|
8=FIX.4.4|9=59|35=0|34=2|49=010|50=010BWN|52=20190612-14:38:27.664|56=EXC|10=117|
8=FIX.4.4|9=105|35=A|34=1|49=010|50=010BWN|52=20190612-14:42:23.128|56=EXC|98=0|108=30|141=Y|553=010FCE003|554=010FCE003|10=128|
8=FIX.4.4|9=0067|35=A|34=1|49=EXC|56=010|52=20190612-14:42:23.188|98=0|108=30|141=Y|10=007|
8=FIX.4.4|9=0049|35=0|34=2|49=EXC|56=010|52=20190612-14:42:53.000|10=163|
8=FIX.4.4|9=59|35=0|34=2|49=010|50=010BWN|52=20190612-14:42:53.952|56=EXC|10=111|
8=FIX.4.4|9=105|35=A|34=1|49=010|50=010BWN|52=20190612-14:44:15.063|56=EXC|98=0|108=30|141=Y|553=010FCE003|554=010FCE003|10=129|
8=FIX.4.4|9=0067|35=A|34=1|49=EXC|56=010|52=20190612-14:44:15.108|98=0|108=30|141=Y|10=002|
8=FIX.4.4|9=0049|35=0|34=2|49=EXC|56=010|52=20190612-14:44:45.000|10=166|
8=FIX.4.4|9=59|35=0|34=2|49=010|50=010BWN|52=20190612-14:44:46.002|56=EXC|10=101|
8=FIX.4.4|9=0049|35=0|34=3|49=EXC|56=010|52=20190612-14:45:15.000|10=165|
8=FIX.4.4|9=59|35=0|34=3|49=010|50=010BWN|52=20190612-14:45:16.004|56=EXC|10=102|
8=FIX.4.4|9=0049|35=0|34=4|49=EXC|56=010|52=20190612-14:45:45.000|10=169|
8=FIX.4.4|9=59|35=0|34=4|49=010|50=010BWN|52=20190612-14:45:45.998|56=EXC|10=127|
8=FIX.4.4|9=105|35=A|34=1|49=010|50=010BWN|52=20190612-14:58:56.755|56=EXC|98=0|108=30|141=Y|553=010FCE003|554=010FCE003|10=147|
8=FIX.4.4|9=0067|35=A|34=1|49=EXC|56=010|52=20190612-14:58:56.792|98=0|108=30|141=Y|10=021|
8=FIX.4.4|9=0049|35=0|34=2|49=EXC|56=010|52=20190612-14:59:26.000|10=171|
8=FIX.4.4|9=59|35=0|34=2|49=010|50=010BWN|52=20190612-14:59:27.702|56=EXC|10=113|
8=FIX.4.4|9=0049|35=0|34=3|49=EXC|56=010|52=20190612-14:59:56.000|10=175|
8=FIX.4.4|9=59|35=0|34=3|49=010|50=010BWN|52=20190612-14:59:57.694|56=EXC|10=127|
8=FIX.4.4|9=0049|35=0|34=4|49=EXC|56=010|52=20190612-15:00:26.000|10=160|
8=FIX.4.4|9=59|35=0|34=4|49=010|50=010BWN|52=20190612-15:00:27.700|56=EXC|10=100|
8=FIX.4.4|9=0049|35=0|34=5|49=EXC|56=010|52=20190612-15:00:56.000|10=164|
8=FIX.4.4|9=59|35=0|34=5|49=010|50=010BWN|52=20190612-15:00:57.696|56=EXC|10=118|
