8=FIX.4.4|9=105|35=A|34=1|49=007|50=007B26|52=20190612-16:29:19.914|56=EXC|98=0|108=30|141=Y|553=007FCE001|554=007FCE001|10=102|
8=FIX.4.4|9=0067|35=A|34=1|49=EXC|56=007|52=20190612-16:29:19.930|98=0|108=30|141=Y|10=020|
8=FIX.4.4|9=0049|35=0|34=2|49=EXC|56=007|52=20190612-16:29:49.000|10=181|
8=FIX.4.4|9=59|35=0|34=2|49=007|50=007B26|52=20190612-16:29:50.833|56=EXC|10=064|
8=FIX.4.4|9=0049|35=0|34=3|49=EXC|56=007|52=20190612-16:30:19.000|10=171|
8=FIX.4.4|9=59|35=0|34=3|49=007|50=007B26|52=20190612-16:30:20.837|56=EXC|10=058|
8=FIX.4.4|9=105|35=A|34=1|49=007|50=007B26|52=20190612-16:44:39.950|56=EXC|98=0|108=30|141=Y|553=007FCE001|554=007FCE001|10=101|
8=FIX.4.4|9=0067|35=A|34=1|49=EXC|56=007|52=20190612-16:44:39.982|98=0|108=30|141=Y|10=026|
8=FIX.4.4|9=0049|35=0|34=2|49=EXC|56=007|52=20190612-16:45:09.000|10=175|
8=FIX.4.4|9=59|35=0|34=2|49=007|50=007B26|52=20190612-16:45:10.922|56=EXC|10=057|
8=FIX.4.4|9=105|35=A|34=1|49=007|50=007B26|52=20190612-16:55:03.330|56=EXC|98=0|108=30|141=Y|553=007FCE001|554=007FCE001|10=086|
8=FIX.4.4|9=0067|35=A|34=1|49=EXC|56=007|52=20190612-16:55:03.356|98=0|108=30|141=Y|10=014|
8=FIX.4.4|9=105|35=A|34=1|49=007|50=007B26|52=20190612-16:56:24.146|56=EXC|98=0|108=30|141=Y|553=007FCE001|554=007FCE001|10=095|
8=FIX.4.4|9=0067|35=A|34=1|49=EXC|56=007|52=20190612-16:56:24.176|98=0|108=30|141=Y|10=018|
8=FIX.4.4|9=0049|35=0|34=2|49=EXC|56=007|52=20190612-16:56:54.000|10=177|
8=FIX.4.4|9=59|35=0|34=2|49=007|50=007B26|52=20190612-16:56:55.073|56=EXC|10=065|
8=FIX.4.4|9=0049|35=0|34=3|49=EXC|56=007|52=20190612-16:57:24.000|10=176|
8=FIX.4.4|9=59|35=0|34=3|49=007|50=007B26|52=20190612-16:57:25.090|56=EXC|10=063|
8=FIX.4.4|9=105|35=A|34=1|49=007|50=007B26|52=20190612-19:36:17.110|56=EXC|98=0|108=30|141=Y|553=007FCE001|554=007FCE001|10=089|
8=FIX.4.4|9=0067|35=A|34=1|49=EXC|56=007|52=20190612-19:36:17.155|98=0|108=30|141=Y|10=018|
8=FIX.4.4|9=0049|35=0|34=2|49=EXC|56=007|52=20190612-19:36:47.000|10=180|
8=FIX.4.4|9=59|35=0|34=2|49=007|50=007B26|52=20190612-19:36:48.058|56=EXC|10=071|
8=FIX.4.4|9=105|35=A|34=1|49=007|50=007B26|52=20190612-19:56:51.751|56=EXC|98=0|108=30|141=Y|553=007FCE001|554=007FCE001|10=100|
8=FIX.4.4|9=0067|35=A|34=1|49=EXC|56=007|52=20190612-19:56:51.788|98=0|108=30|141=Y|10=030|
8=FIX.4.4|9=0049|35=0|34=2|49=EXC|56=007|52=20190612-19:57:21.000|10=175|
8=FIX.4.4|9=59|35=0|34=2|49=007|50=007B26|52=20190612-19:57:22.734|56=EXC|10=067|
8=FIX.4.4|9=0049|35=0|34=3|49=EXC|56=007|52=20190612-19:57:51.000|10=179|
8=FIX.4.4|9=59|35=0|34=3|49=007|50=007B26|52=20190612-19:57:52.734|56=EXC|10=071|
8=FIX.4.4|9=105|35=A|34=1|49=007|50=007B26|52=20190612-19:58:09.055|56=EXC|98=0|108=30|141=Y|553=007FCE001|554=007FCE001|10=102|
8=FIX.4.4|9=0067|35=A|34=1|49=EXC|56=007|52=20190612-19:58:09.091|98=0|108=30|141=Y|10=022|
8=FIX.4.4|9=0049|35=0|34=2|49=EXC|56=007|52=20190612-19:58:39.000|10=185|
8=FIX.4.4|9=59|35=0|34=2|49=007|50=007B26|52=20190612-19:58:40.028|56=EXC|10=064|
8=FIX.4.4|9=0049|35=0|34=3|49=EXC|56=007|52=20190612-19:59:09.000|10=184|
8=FIX.4.4|9=59|35=0|34=3|49=007|50=007B26|52=20190612-19:59:10.028|56=EXC|10=063|
8=FIX.4.4|9=105|35=A|34=1|49=007|50=007B26|52=20190612-20:04:55.495|56=EXC|98=0|108=30|141=Y|553=007FCE001|554=007FCE001|10=094|
8=FIX.4.4|9=0067|35=A|34=1|49=EXC|56=007|52=20190612-20:04:55.532|98=0|108=30|141=Y|10=006|
8=FIX.4.4|9=0049|35=0|34=2|49=EXC|56=007|52=20190612-20:05:25.000|10=164|
8=FIX.4.4|9=59|35=0|34=2|49=007|50=007B26|52=20190612-20:05:26.440|56=EXC|10=050|
8=FIX.4.4|9=0049|35=0|34=3|49=EXC|56=007|52=20190612-20:05:55.000|10=168|
8=FIX.4.4|9=59|35=0|34=3|49=007|50=007B26|52=20190612-20:05:56.442|56=EXC|10=056|
8=FIX.4.4|9=105|35=A|34=1|49=007|50=007B26|52=20190612-20:08:47.312|56=EXC|98=0|108=30|141=Y|553=007FCE001|554=007FCE001|10=087|
8=FIX.4.4|9=0067|35=A|34=1|49=EXC|56=007|52=20190612-20:08:47.349|98=0|108=30|141=Y|10=017|
8=FIX.4.4|9=0049|35=0|34=2|49=EXC|56=007|52=20190612-20:09:17.000|10=169|
8=FIX.4.4|9=59|35=0|34=2|49=007|50=007B26|52=20190612-20:09:18.298|56=EXC|10=066|
8=FIX.4.4|9=105|35=A|34=1|49=007|50=007B26|52=20190612-21:05:06.714|56=EXC|98=0|108=30|141=Y|553=007FCE001|554=007FCE001|10=086|
8=FIX.4.4|9=0067|35=A|34=1|49=EXC|56=007|52=20190612-21:05:06.741|98=0|108=30|141=Y|10=006|
8=FIX.4.4|9=0049|35=0|34=2|49=EXC|56=007|52=20190612-21:05:36.000|10=167|
8=FIX.4.4|9=59|35=0|34=2|49=007|50=007B26|52=20190612-21:05:37.689|56=EXC|10=068|
8=FIX.4.4|9=0049|35=0|34=3|49=EXC|56=007|52=20190612-21:06:06.000|10=166|
8=FIX.4.4|9=59|35=0|34=3|49=007|50=007B26|52=20190612-21:06:07.697|56=EXC|10=066|
8=FIX.4.4|9=0049|35=0|34=4|49=EXC|56=007|52=20190612-21:06:36.000|10=170|
8=FIX.4.4|9=59|35=0|34=4|49=007|50=007B26|52=20190612-21:06:37.688|56=EXC|10=070|
8=FIX.4.4|9=0049|35=0|34=5|49=EXC|56=007|52=20190612-21:07:06.000|10=169|
8=FIX.4.4|9=59|35=0|34=5|49=007|50=007B26|52=20190612-21:07:07.689|56=EXC|10=070|
8=FIX.4.4|9=0049|35=0|34=6|49=EXC|56=007|52=20190612-21:07:36.000|10=173|
8=FIX.4.4|9=59|35=0|34=6|49=007|50=007B26|52=20190612-21:07:37.689|56=EXC|10=074|
8=FIX.4.4|9=0049|35=0|34=7|49=EXC|56=007|52=20190612-21:08:06.000|10=172|
8=FIX.4.4|9=59|35=0|34=7|49=007|50=007B26|52=20190612-21:08:07.689|56=EXC|10=073|
8=FIX.4.4|9=0049|35=0|34=8|49=EXC|56=007|52=20190612-21:08:36.000|10=176|
8=FIX.4.4|9=59|35=0|34=8|49=007|50=007B26|52=20190612-21:08:37.689|56=EXC|10=077|
8=FIX.4.4|9=0049|35=0|34=9|49=EXC|56=007|52=20190612-21:09:06.000|10=175|
8=FIX.4.4|9=59|35=0|34=9|49=007|50=007B26|52=20190612-21:09:07.689|56=EXC|10=076|
8=FIX.4.4|9=0050|35=0|34=10|49=EXC|56=007|52=20190612-21:09:36.000|10=210|
8=FIX.4.4|9=60|35=0|34=10|49=007|50=007B26|52=20190612-21:09:37.688|56=EXC|10=110|
8=FIX.4.4|9=0050|35=0|34=11|49=EXC|56=007|52=20190612-21:10:06.000|10=200|
8=FIX.4.4|9=60|35=0|34=11|49=007|50=007B26|52=20190612-21:10:07.689|56=EXC|10=101|
8=FIX.4.4|9=0050|35=0|34=12|49=EXC|56=007|52=20190612-21:10:36.000|10=204|
8=FIX.4.4|9=60|35=0|34=12|49=007|50=007B26|52=20190612-21:10:37.688|56=EXC|10=104|
8=FIX.4.4|9=105|35=A|34=1|49=007|50=007B26|52=20190612-21:13:21.052|56=EXC|98=0|108=30|141=Y|553=007FCE001|554=007FCE001|10=077|
8=FIX.4.4|9=0067|35=A|34=1|49=EXC|56=007|52=20190612-21:13:21.075|98=0|108=30|141=Y|10=002|
8=FIX.4.4|9=0049|35=0|34=2|49=EXC|56=007|52=20190612-21:13:51.000|10=163|
8=FIX.4.4|9=59|35=0|34=2|49=007|50=007B26|52=20190612-21:13:52.031|56=EXC|10=045|
8=FIX.4.4|9=0049|35=0|34=3|49=EXC|56=007|52=20190612-21:14:21.000|10=162|
8=FIX.4.4|9=59|35=0|34=3|49=007|50=007B26|52=20190612-21:14:22.030|56=EXC|10=043|
8=FIX.4.4|9=0049|35=0|34=4|49=EXC|56=007|52=20190612-21:14:51.000|10=166|
8=FIX.4.4|9=59|35=0|34=4|49=007|50=007B26|52=20190612-21:14:52.031|56=EXC|10=048|
8=FIX.4.4|9=105|35=A|34=1|49=007|50=007B26|52=20190612-21:17:38.574|56=EXC|98=0|108=30|141=Y|553=007FCE001|554=007FCE001|10=098|
8=FIX.4.4|9=0067|35=A|34=1|49=EXC|56=007|52=20190612-21:17:38.602|98=0|108=30|141=Y|10=010|
8=FIX.4.4|9=0049|35=0|34=2|49=EXC|56=007|52=20190612-21:18:08.000|10=170|
8=FIX.4.4|9=59|35=0|34=2|49=007|50=007B26|52=20190612-21:18:09.548|56=EXC|10=065|
8=FIX.4.4|9=105|35=A|34=1|49=007|50=007B26|52=20190612-21:42:39.537|56=EXC|98=0|108=30|141=Y|553=007FCE001|554=007FCE001|10=096|
8=FIX.4.4|9=0067|35=A|34=1|49=EXC|56=007|52=20190612-21:42:39.491|98=0|108=30|141=Y|10=015|
8=FIX.4.4|9=105|35=A|34=1|49=007|50=007B26|52=20190612-21:50:53.682|56=EXC|98=0|108=30|141=Y|553=007FCE001|554=007FCE001|10=092|
8=FIX.4.4|9=0067|35=A|34=1|49=EXC|56=007|52=20190612-21:50:53.670|98=0|108=30|141=Y|10=009|
8=FIX.4.4|9=0049|35=0|34=2|49=EXC|56=007|52=20190612-21:51:23.000|10=164|
8=FIX.4.4|9=59|35=0|34=2|49=007|50=007B26|52=20190612-21:51:24.608|56=EXC|10=056|
8=FIX.4.4|9=0049|35=0|34=3|49=EXC|56=007|52=20190612-21:51:53.000|10=168|
8=FIX.4.4|9=59|35=0|34=3|49=007|50=007B26|52=20190612-21:51:54.605|56=EXC|10=057|
8=FIX.4.4|9=0049|35=0|34=4|49=EXC|56=007|52=20190612-21:52:23.000|10=167|
8=FIX.4.4|9=59|35=0|34=4|49=007|50=007B26|52=20190612-21:52:24.602|56=EXC|10=053|
8=FIX.4.4|9=0049|35=0|34=5|49=EXC|56=007|52=20190612-21:52:53.000|10=171|
8=FIX.4.4|9=59|35=0|34=5|49=007|50=007B26|52=20190612-21:52:54.599|56=EXC|10=072|
8=FIX.4.4|9=0049|35=0|34=6|49=EXC|56=007|52=20190612-21:53:23.000|10=170|
8=FIX.4.4|9=59|35=0|34=6|49=007|50=007B26|52=20190612-21:53:24.598|56=EXC|10=070|
8=FIX.4.4|9=0049|35=0|34=7|49=EXC|56=007|52=20190612-21:53:53.000|10=174|
8=FIX.4.4|9=59|35=0|34=7|49=007|50=007B26|52=20190612-21:53:54.595|56=EXC|10=071|
8=FIX.4.4|9=0049|35=0|34=8|49=EXC|56=007|52=20190612-21:54:23.000|10=173|
8=FIX.4.4|9=59|35=0|34=8|49=007|50=007B26|52=20190612-21:54:24.594|56=EXC|10=069|
8=FIX.4.4|9=0049|35=0|34=9|49=EXC|56=007|52=20190612-21:54:53.000|10=177|
8=FIX.4.4|9=59|35=0|34=9|49=007|50=007B26|52=20190612-21:54:54.592|56=EXC|10=071|
8=FIX.4.4|9=0050|35=0|34=10|49=EXC|56=007|52=20190612-21:55:23.000|10=207|
8=FIX.4.4|9=60|35=0|34=10|49=007|50=007B26|52=20190612-21:55:24.590|56=EXC|10=099|
8=FIX.4.4|9=105|35=A|34=1|49=007|50=007B26|52=20190613-16:47:33.202|56=EXC|98=0|108=30|141=Y|553=007FCE001|554=007FCE001|10=089|
8=FIX.4.4|9=0067|35=A|34=1|49=EXC|56=007|52=20190613-16:47:33.577|98=0|108=30|141=Y|10=024|
8=FIX.4.4|9=0049|35=0|34=2|49=EXC|56=007|52=20190613-16:48:03.000|10=173|
8=FIX.4.4|9=59|35=0|34=2|49=007|50=007B26|52=20190613-16:48:04.180|56=EXC|10=060|
8=FIX.4.4|9=105|35=A|34=1|49=007|50=007B26|52=20190613-16:49:32.519|56=EXC|98=0|108=30|141=Y|553=007FCE001|554=007FCE001|10=101|
8=FIX.4.4|9=0067|35=A|34=1|49=EXC|56=007|52=20190613-16:49:32.917|98=0|108=30|141=Y|10=023|
8=FIX.4.4|9=0049|35=0|34=2|49=EXC|56=007|52=20190613-16:50:02.000|10=165|
8=FIX.4.4|9=59|35=0|34=2|49=007|50=007B26|52=20190613-16:50:03.474|56=EXC|10=058|
8=FIX.4.4|9=0049|35=0|34=3|49=EXC|56=007|52=20190613-16:50:32.000|10=169|
