8=FIX.4.4|9=110|35=A|34=1|49=007|50=007B26|52=20190527-21:24:06.975|56=EXC|43=Y|98=0|108=30|141=Y|553=002FCM002|554=002FCM002|10=103|
8=FIX.4.4|9=110|35=A|34=1|49=007|50=007B26|52=20190527-21:28:00.368|56=EXC|43=Y|98=0|108=30|141=Y|553=002FCM002|554=002FCM002|10=097|
8=FIX.4.4|9=110|35=A|34=1|49=007|50=007B26|52=20190527-21:29:23.506|56=EXC|43=Y|98=0|108=30|141=Y|553=007FCE001|554=007FCE001|10=089|
8=FIX.4.4|9=0067|35=A|34=1|49=EXC|56=007|52=20190527-21:29:23.504|98=0|108=30|141=Y|10=013|
8=FIX.4.4|9=110|35=A|34=1|49=007|50=007B26|52=20190528-12:36:49.676|56=EXC|43=Y|98=0|108=30|141=Y|553=007FCE001|554=007FCE001|10=104|
8=FIX.4.4|9=0067|35=A|34=1|49=EXC|56=007|52=20190528-12:36:50.467|98=0|108=30|141=Y|10=020|
8=FIX.4.4|9=0049|35=0|34=2|49=EXC|56=007|52=20190528-12:37:20.000|10=171|
8=FIX.4.4|9=59|35=0|34=2|49=007|50=007B26|52=20190528-12:37:20.570|56=EXC|10=060|
8=FIX.4.4|9=110|35=A|34=1|49=007|50=007B26|52=20190528-12:43:36.278|56=EXC|43=Y|98=0|108=30|141=Y|553=007FCE001|554=007FCE001|10=096|
8=FIX.4.4|9=0067|35=A|34=1|49=EXC|56=007|52=20190528-12:43:36.600|98=0|108=30|141=Y|10=011|
8=FIX.4.4|9=110|35=A|34=1|49=007|50=007B26|52=20190528-12:57:43.588|56=EXC|43=Y|98=0|108=30|141=Y|553=007FCE001|554=007FCE001|10=103|
8=FIX.4.4|9=0067|35=A|34=1|49=EXC|56=007|52=20190528-12:57:44.130|98=0|108=30|141=Y|10=013|
8=FIX.4.4|9=110|35=A|34=1|49=007|50=007B26|52=20190528-12:59:56.658|56=EXC|43=Y|98=0|108=30|141=Y|553=007FCE001|554=007FCE001|10=107|
8=FIX.4.4|9=0067|35=A|34=1|49=EXC|56=007|52=20190528-12:59:57.234|98=0|108=30|141=Y|10=024|
8=FIX.4.4|9=0049|35=0|34=2|49=EXC|56=007|52=20190528-13:00:27.000|10=169|
8=FIX.4.4|9=59|35=0|34=2|49=007|50=007B26|52=20190528-13:00:27.499|56=EXC|10=068|
8=FIX.4.4|9=110|35=A|34=1|49=007|50=007B26|52=20190528-13:26:08.615|56=EXC|43=Y|98=0|108=30|141=Y|553=007FCE001|554=007FCE001|10=092|
8=FIX.4.4|9=0067|35=A|34=1|49=EXC|56=007|52=20190528-13:26:08.671|98=0|108=30|141=Y|10=020|
8=FIX.4.4|9=110|35=A|34=1|49=007|50=007B26|52=20190528-15:22:28.766|56=EXC|43=Y|98=0|108=30|141=Y|553=007FCE001|554=007FCE001|10=099|
8=FIX.4.4|9=0067|35=A|34=1|49=EXC|56=007|52=20190528-15:22:28.841|98=0|108=30|141=Y|10=019|
8=FIX.4.4|9=110|35=A|34=1|49=007|50=007B26|52=20190528-15:24:02.496|56=EXC|43=Y|98=0|108=30|141=Y|553=007FCE001|554=007FCE001|10=093|
8=FIX.4.4|9=0067|35=A|34=1|49=EXC|56=007|52=20190528-15:24:02.571|98=0|108=30|141=Y|10=013|
8=FIX.4.4|9=110|35=A|34=1|49=007|50=007B26|52=20190528-20:13:38.039|56=EXC|43=Y|98=0|108=30|141=Y|553=007FCE001|554=007FCE001|10=089|
8=FIX.4.4|9=0067|35=A|34=1|49=EXC|56=007|52=20190528-20:13:38.108|98=0|108=30|141=Y|10=012|
8=FIX.4.4|9=110|35=A|34=1|49=007|50=007B26|52=20190528-20:18:12.372|56=EXC|43=Y|98=0|108=30|141=Y|553=007FCE001|554=007FCE001|10=086|
8=FIX.4.4|9=0067|35=A|34=1|49=EXC|56=007|52=20190528-20:18:12.409|98=0|108=30|141=Y|10=013|
8=FIX.4.4|9=110|35=A|34=1|49=007|50=007B26|52=20190528-20:54:13.178|56=EXC|43=Y|98=0|108=30|141=Y|553=007FCE001|554=007FCE001|10=091|
8=FIX.4.4|9=0067|35=A|34=1|49=EXC|56=007|52=20190528-20:54:13.256|98=0|108=30|141=Y|10=014|
8=FIX.4.4|9=110|35=A|34=1|49=007|50=007B26|52=20190528-23:51:53.651|56=EXC|43=Y|98=0|108=30|141=Y|553=007FCE001|554=007FCE001|10=091|
8=FIX.4.4|9=0067|35=A|34=1|49=EXC|56=007|52=20190528-23:51:53.381|98=0|108=30|141=Y|10=017|
8=FIX.4.4|9=0049|35=0|34=2|49=EXC|56=007|52=20190528-23:52:23.000|10=173|
8=FIX.4.4|9=59|35=0|34=2|49=007|50=007B26|52=20190528-23:52:24.641|56=EXC|10=062|
8=FIX.4.4|9=110|35=A|34=1|49=007|50=007B26|52=20190529-00:03:20.403|56=EXC|43=Y|98=0|108=30|141=Y|553=007FCE001|554=007FCE001|10=073|
8=FIX.4.4|9=0067|35=A|34=1|49=EXC|56=007|52=20190529-00:03:20.134|98=0|108=30|141=Y|10=000|
8=FIX.4.4|9=0049|35=0|34=2|49=EXC|56=007|52=20190529-00:03:50.000|10=165|
8=FIX.4.4|9=59|35=0|34=2|49=007|50=007B26|52=20190529-00:03:51.296|56=EXC|10=060|
8=FIX.4.4|9=0049|35=0|34=3|49=EXC|56=007|52=20190529-00:04:20.000|10=164|
8=FIX.4.4|9=59|35=0|34=3|49=007|50=007B26|52=20190529-00:04:21.296|56=EXC|10=059|
8=FIX.4.4|9=110|35=A|34=1|49=007|50=007B26|52=20190529-00:09:25.895|56=EXC|43=Y|98=0|108=30|141=Y|553=007FCE001|554=007FCE001|10=099|
8=FIX.4.4|9=0067|35=A|34=1|49=EXC|56=007|52=20190529-00:09:25.608|98=0|108=30|141=Y|10=017|
8=FIX.4.4|9=0049|35=0|34=2|49=EXC|56=007|52=20190529-00:09:55.000|10=176|
8=FIX.4.4|9=59|35=0|34=2|49=007|50=007B26|52=20190529-00:09:56.857|56=EXC|10=074|
8=FIX.4.4|9=0049|35=0|34=3|49=EXC|56=007|52=20190529-00:10:25.000|10=166|
8=FIX.4.4|9=59|35=0|34=3|49=007|50=007B26|52=20190529-00:10:26.858|56=EXC|10=065|
8=FIX.4.4|9=110|35=A|34=1|49=007|50=007B26|52=20190529-00:10:49.111|56=EXC|43=Y|98=0|108=30|141=Y|553=007FCE001|554=007FCE001|10=078|
8=FIX.4.4|9=0067|35=A|34=1|49=EXC|56=007|52=20190529-00:10:48.820|98=0|108=30|141=Y|10=010|
8=FIX.4.4|9=0049|35=0|34=2|49=EXC|56=007|52=20190529-00:11:18.000|10=168|
8=FIX.4.4|9=59|35=0|34=2|49=007|50=007B26|52=20190529-00:11:19.102|56=EXC|10=049|
8=FIX.4.4|9=0049|35=0|34=3|49=EXC|56=007|52=20190529-00:11:48.000|10=172|
8=FIX.4.4|9=59|35=0|34=3|49=007|50=007B26|52=20190529-00:11:49.101|56=EXC|10=052|
8=FIX.4.4|9=0049|35=0|34=4|49=EXC|56=007|52=20190529-00:12:18.000|10=171|
8=FIX.4.4|9=59|35=0|34=4|49=007|50=007B26|52=20190529-00:12:19.101|56=EXC|10=051|
8=FIX.4.4|9=0049|35=0|34=5|49=EXC|56=007|52=20190529-00:12:48.000|10=175|
8=FIX.4.4|9=59|35=0|34=5|49=007|50=007B26|52=20190529-00:12:49.101|56=EXC|10=055|
8=FIX.4.4|9=110|35=A|34=1|49=007|50=007B26|52=20190529-00:14:06.709|56=EXC|43=Y|98=0|108=30|141=Y|553=007FCE001|554=007FCE001|10=088|
8=FIX.4.4|9=0067|35=A|34=1|49=EXC|56=007|52=20190529-00:14:06.415|98=0|108=30|141=Y|10=008|
8=FIX.4.4|9=0049|35=0|34=2|49=EXC|56=007|52=20190529-00:14:36.000|10=171|
8=FIX.4.4|9=59|35=0|34=2|49=007|50=007B26|52=20190529-00:14:37.672|56=EXC|10=064|
8=FIX.4.4|9=0049|35=0|34=3|49=EXC|56=007|52=20190529-00:15:06.000|10=170|
8=FIX.4.4|9=59|35=0|34=3|49=007|50=007B26|52=20190529-00:15:07.671|56=EXC|10=062|
8=FIX.4.4|9=110|35=A|34=1|49=007|50=007B26|52=20190529-00:16:05.275|56=EXC|43=Y|98=0|108=30|141=Y|553=007FCE001|554=007FCE001|10=087|
8=FIX.4.4|9=0067|35=A|34=1|49=EXC|56=007|52=20190529-00:16:04.721|98=0|108=30|141=Y|10=008|
8=FIX.4.4|9=0049|35=0|34=2|49=EXC|56=007|52=20190529-00:16:34.000|10=171|
8=FIX.4.4|9=59|35=0|34=2|49=007|50=007B26|52=20190529-00:16:36.259|56=EXC|10=066|
8=FIX.4.4|9=0049|35=0|34=3|49=EXC|56=007|52=20190529-00:17:04.000|10=170|
8=FIX.4.4|9=59|35=0|34=3|49=007|50=007B26|52=20190529-00:17:06.258|56=EXC|10=064|
8=FIX.4.4|9=0049|35=0|34=4|49=EXC|56=007|52=20190529-00:17:34.000|10=174|
8=FIX.4.4|9=59|35=0|34=4|49=007|50=007B26|52=20190529-00:17:36.260|56=EXC|10=061|
8=FIX.4.4|9=0049|35=0|34=5|49=EXC|56=007|52=20190529-00:18:04.000|10=173|
8=FIX.4.4|9=59|35=0|34=5|49=007|50=007B26|52=20190529-00:18:06.258|56=EXC|10=067|
8=FIX.4.4|9=0049|35=0|34=6|49=EXC|56=007|52=20190529-00:18:34.000|10=177|
8=FIX.4.4|9=59|35=0|34=6|49=007|50=007B26|52=20190529-00:18:36.258|56=EXC|10=071|
8=FIX.4.4|9=0049|35=0|34=7|49=EXC|56=007|52=20190529-00:19:04.000|10=176|
8=FIX.4.4|9=59|35=0|34=7|49=007|50=007B26|52=20190529-00:19:06.258|56=EXC|10=070|
8=FIX.4.4|9=110|35=A|34=1|49=007|50=007B26|52=20190529-00:19:57.236|56=EXC|43=Y|98=0|108=30|141=Y|553=007FCE001|554=007FCE001|10=094|
8=FIX.4.4|9=0067|35=A|34=1|49=EXC|56=007|52=20190529-00:19:56.676|98=0|108=30|141=Y|10=027|
8=FIX.4.4|9=0049|35=0|34=2|49=EXC|56=007|52=20190529-00:20:26.000|10=167|
8=FIX.4.4|9=59|35=0|34=2|49=007|50=007B26|52=20190529-00:20:28.227|56=EXC|10=057|
8=FIX.4.4|9=0049|35=0|34=3|49=EXC|56=007|52=20190529-00:20:56.000|10=171|
8=FIX.4.4|9=59|35=0|34=3|49=007|50=007B26|52=20190529-00:20:58.227|56=EXC|10=061|
8=FIX.4.4|9=110|35=A|34=1|49=007|50=007B26|52=20190529-00:22:19.612|56=EXC|43=Y|98=0|108=30|141=Y|553=007FCE001|554=007FCE001|10=084|
8=FIX.4.4|9=0067|35=A|34=1|49=EXC|56=007|52=20190529-00:22:19.054|98=0|108=30|141=Y|10=010|
8=FIX.4.4|9=110|35=A|34=1|49=007|50=007B26|52=20190529-00:23:37.101|56=EXC|43=Y|98=0|108=30|141=Y|553=007FCE001|554=007FCE001|10=078|
8=FIX.4.4|9=0067|35=A|34=1|49=EXC|56=007|52=20190529-00:23:36.542|98=0|108=30|141=Y|10=012|
8=FIX.4.4|9=0049|35=0|34=2|49=EXC|56=007|52=20190529-00:24:06.000|10=169|
8=FIX.4.4|9=59|35=0|34=2|49=007|50=007B26|52=20190529-00:24:08.047|56=EXC|10=059|
8=FIX.4.4|9=0049|35=0|34=3|49=EXC|56=007|52=20190529-00:24:36.000|10=173|
8=FIX.4.4|9=59|35=0|34=3|49=007|50=007B26|52=20190529-00:24:38.047|56=EXC|10=063|
8=FIX.4.4|9=0049|35=0|34=4|49=EXC|56=007|52=20190529-00:25:06.000|10=172|
8=FIX.4.4|9=59|35=0|34=4|49=007|50=007B26|52=20190529-00:25:08.048|56=EXC|10=063|
8=FIX.4.4|9=110|35=A|34=1|49=007|50=007B26|52=20190529-00:25:31.709|56=EXC|43=Y|98=0|108=30|141=Y|553=007FCE001|554=007FCE001|10=088|
8=FIX.4.4|9=0067|35=A|34=1|49=EXC|56=007|52=20190529-00:25:31.147|98=0|108=30|141=Y|10=010|
8=FIX.4.4|9=110|35=A|34=1|49=007|50=007B26|52=20190529-00:31:10.078|56=EXC|43=Y|98=0|108=30|141=Y|553=007FCE001|554=007FCE001|10=081|
8=FIX.4.4|9=0067|35=A|34=1|49=EXC|56=007|52=20190529-00:31:09.510|98=0|108=30|141=Y|10=006|
8=FIX.4.4|9=110|35=A|34=1|49=007|50=007B26|52=20190529-00:34:01.746|56=EXC|43=Y|98=0|108=30|141=Y|553=007FCE001|554=007FCE001|10=086|
8=FIX.4.4|9=0067|35=A|34=1|49=EXC|56=007|52=20190529-00:34:01.182|98=0|108=30|141=Y|10=006|
8=FIX.4.4|9=0049|35=0|34=2|49=EXC|56=007|52=20190529-00:34:31.000|10=168|
8=FIX.4.4|9=59|35=0|34=2|49=007|50=007B26|52=20190529-00:34:32.668|56=EXC|10=066|
8=FIX.4.4|9=0049|35=0|34=3|49=EXC|56=007|52=20190529-00:35:01.000|10=167|
8=FIX.4.4|9=59|35=0|34=3|49=007|50=007B26|52=20190529-00:35:02.667|56=EXC|10=064|
8=FIX.4.4|9=110|35=A|34=1|49=007|50=007B26|52=20190529-00:35:21.142|56=EXC|43=Y|98=0|108=30|141=Y|553=007FCE001|554=007FCE001|10=079|
8=FIX.4.4|9=0067|35=A|34=1|49=EXC|56=007|52=20190529-00:35:20.571|98=0|108=30|141=Y|10=010|
8=FIX.4.4|9=110|35=A|34=1|49=007|50=007B26|52=20190529-00:35:58.883|56=EXC|43=Y|98=0|108=30|141=Y|553=007FCE001|554=007FCE001|10=101|
8=FIX.4.4|9=0067|35=A|34=1|49=EXC|56=007|52=20190529-00:35:58.312|98=0|108=30|141=Y|10=014|
8=FIX.4.4|9=0049|35=0|34=2|49=EXC|56=007|52=20190529-00:36:28.000|10=176|
8=FIX.4.4|9=59|35=0|34=2|49=007|50=007B26|52=20190529-00:36:29.838|56=EXC|10=073|
8=FIX.4.4|9=110|35=A|34=1|49=007|50=007B26|52=20190529-00:37:56.469|56=EXC|43=Y|98=0|108=30|141=Y|553=007FCE001|554=007FCE001|10=101|
8=FIX.4.4|9=0067|35=A|34=1|49=EXC|56=007|52=20190529-00:37:55.896|98=0|108=30|141=Y|10=030|
8=FIX.4.4|9=0049|35=0|34=2|49=EXC|56=007|52=20190529-00:38:25.000|10=175|
8=FIX.4.4|9=59|35=0|34=2|49=007|50=007B26|52=20190529-00:38:27.408|56=EXC|10=066|
8=FIX.4.4|9=0049|35=0|34=3|49=EXC|56=007|52=20190529-00:38:55.000|10=179|
8=FIX.4.4|9=59|35=0|34=3|49=007|50=007B26|52=20190529-00:38:57.409|56=EXC|10=071|
8=FIX.4.4|9=0049|35=0|34=4|49=EXC|56=007|52=20190529-00:39:25.000|10=178|
8=FIX.4.4|9=59|35=0|34=4|49=007|50=007B26|52=20190529-00:39:27.408|56=EXC|10=069|
8=FIX.4.4|9=110|35=A|34=1|49=007|50=007B26|52=20190529-00:39:45.985|56=EXC|43=Y|98=0|108=30|141=Y|553=007FCE001|554=007FCE001|10=104|
8=FIX.4.4|9=0067|35=A|34=1|49=EXC|56=007|52=20190529-00:39:45.410|98=0|108=30|141=Y|10=013|
8=FIX.4.4|9=0049|35=0|34=2|49=EXC|56=007|52=20190529-00:40:15.000|10=167|
8=FIX.4.4|9=59|35=0|34=2|49=007|50=007B26|52=20190529-00:40:16.948|56=EXC|10=066|
8=FIX.4.4|9=110|35=A|34=1|49=007|50=007B26|52=20190529-00:47:49.023|56=EXC|43=Y|98=0|108=30|141=Y|553=007FCE001|554=007FCE001|10=090|
8=FIX.4.4|9=0067|35=A|34=1|49=EXC|56=007|52=20190529-00:47:48.441|98=0|108=30|141=Y|10=019|
8=FIX.4.4|9=0049|35=0|34=2|49=EXC|56=007|52=20190529-00:48:18.000|10=178|
8=FIX.4.4|9=59|35=0|34=2|49=007|50=007B26|52=20190529-00:48:19.979|56=EXC|10=081|
8=FIX.4.4|9=0049|35=0|34=3|49=EXC|56=007|52=20190529-00:48:48.000|10=182|
8=FIX.4.4|9=59|35=0|34=3|49=007|50=007B26|52=20190529-00:48:49.978|56=EXC|10=084|
8=FIX.4.4|9=0049|35=0|34=4|49=EXC|56=007|52=20190529-00:49:18.000|10=181|
8=FIX.4.4|9=59|35=0|34=4|49=007|50=007B26|52=20190529-00:49:19.979|56=EXC|10=084|
8=FIX.4.4|9=0049|35=0|34=5|49=EXC|56=007|52=20190529-00:49:48.000|10=185|
8=FIX.4.4|9=59|35=0|34=5|49=007|50=007B26|52=20190529-00:49:49.980|56=EXC|10=080|
8=FIX.4.4|9=110|35=A|34=1|49=007|50=007B26|52=20190529-00:56:22.111|56=EXC|43=Y|98=0|108=30|141=Y|553=007FCE001|554=007FCE001|10=079|
8=FIX.4.4|9=0067|35=A|34=1|49=EXC|56=007|52=20190529-00:56:21.789|98=0|108=30|141=Y|10=025|
8=FIX.4.4|9=110|35=A|34=1|49=007|50=007B26|52=20190529-01:03:31.715|56=EXC|43=Y|98=0|108=30|141=Y|553=007FCE001|554=007FCE001|10=082|
8=FIX.4.4|9=0067|35=A|34=1|49=EXC|56=007|52=20190529-01:03:31.381|98=0|108=30|141=Y|10=007|
8=FIX.4.4|9=110|35=A|34=1|49=007|50=007B26|52=20190529-01:11:49.720|56=EXC|43=Y|98=0|108=30|141=Y|553=007FCE001|554=007FCE001|10=086|
8=FIX.4.4|9=0067|35=A|34=1|49=EXC|56=007|52=20190529-01:11:49.403|98=0|108=30|141=Y|10=010|
8=FIX.4.4|9=0049|35=0|34=2|49=EXC|56=007|52=20190529-01:12:19.000|10=171|
8=FIX.4.4|9=59|35=0|34=2|49=007|50=007B26|52=20190529-01:12:20.649|56=EXC|10=059|
8=FIX.4.4|9=0049|35=0|34=3|49=EXC|56=007|52=20190529-01:12:49.000|10=175|
8=FIX.4.4|9=59|35=0|34=3|49=007|50=007B26|52=20190529-01:12:50.650|56=EXC|10=055|
8=FIX.4.4|9=0049|35=0|34=4|49=EXC|56=007|52=20190529-01:13:19.000|10=174|
8=FIX.4.4|9=59|35=0|34=4|49=007|50=007B26|52=20190529-01:13:20.651|56=EXC|10=055|
8=FIX.4.4|9=110|35=A|34=1|49=007|50=007B26|52=20190529-01:25:40.529|56=EXC|43=Y|98=0|108=30|141=Y|553=007FCE001|554=007FCE001|10=089|
8=FIX.4.4|9=0067|35=A|34=1|49=EXC|56=007|52=20190529-01:25:40.198|98=0|108=30|141=Y|10=017|
8=FIX.4.4|9=0049|35=0|34=2|49=EXC|56=007|52=20190529-01:26:10.000|10=167|
8=FIX.4.4|9=59|35=0|34=2|49=007|50=007B26|52=20190529-01:26:11.486|56=EXC|10=063|
8=FIX.4.4|9=110|35=A|34=1|49=007|50=007B26|52=20190529-01:30:09.911|56=EXC|43=Y|98=0|108=30|141=Y|553=007FCE001|554=007FCE001|10=085|
8=FIX.4.4|9=0067|35=A|34=1|49=EXC|56=007|52=20190529-01:30:09.580|98=0|108=30|141=Y|10=013|
8=FIX.4.4|9=0049|35=0|34=2|49=EXC|56=007|52=20190529-01:30:39.000|10=173|
8=FIX.4.4|9=59|35=0|34=2|49=007|50=007B26|52=20190529-01:30:40.867|56=EXC|10=063|
8=FIX.4.4|9=110|35=A|34=1|49=007|50=007B26|52=20190529-12:21:50.034|56=EXC|43=Y|98=0|108=30|141=Y|553=007FCE001|554=007FCE001|10=079|
8=FIX.4.4|9=0067|35=A|34=1|49=EXC|56=007|52=20190529-12:21:50.569|98=0|108=30|141=Y|10=018|
8=FIX.4.4|9=110|35=A|34=1|49=007|50=007B26|52=20190529-12:27:22.283|56=EXC|43=Y|98=0|108=30|141=Y|553=007FCE001|554=007FCE001|10=090|
8=FIX.4.4|9=0067|35=A|34=1|49=EXC|56=007|52=20190529-12:27:22.357|98=0|108=30|141=Y|10=018|
8=FIX.4.4|9=110|35=A|34=1|49=007|50=007B26|52=20190529-12:31:25.001|56=EXC|43=Y|98=0|108=30|141=Y|553=007FCE001|554=007FCE001|10=076|
8=FIX.4.4|9=0067|35=A|34=1|49=EXC|56=007|52=20190529-12:31:25.057|98=0|108=30|141=Y|10=013|
8=FIX.4.4|9=110|35=A|34=1|49=007|50=007B26|52=20190529-12:48:24.765|56=EXC|43=Y|98=0|108=30|141=Y|553=007FCE001|554=007FCE001|10=100|
8=FIX.4.4|9=0067|35=A|34=1|49=EXC|56=007|52=20190529-12:48:24.815|98=0|108=30|141=Y|10=022|
8=FIX.4.4|9=110|35=A|34=1|49=007|50=007B26|52=20190529-12:50:53.447|56=EXC|43=Y|98=0|108=30|141=Y|553=007FCE001|554=007FCE001|10=092|
8=FIX.4.4|9=0067|35=A|34=1|49=EXC|56=007|52=20190529-12:50:53.484|98=0|108=30|141=Y|10=019|
8=FIX.4.4|9=110|35=A|34=1|49=007|50=007B26|52=20190529-12:55:50.860|56=EXC|43=Y|98=0|108=30|141=Y|553=007FCE001|554=007FCE001|10=093|
8=FIX.4.4|9=0067|35=A|34=1|49=EXC|56=007|52=20190529-12:55:50.909|98=0|108=30|141=Y|10=023|
8=FIX.4.4|9=110|35=A|34=1|49=007|50=007B26|52=20190529-12:57:08.510|56=EXC|43=Y|98=0|108=30|141=Y|553=007FCE001|554=007FCE001|10=090|
8=FIX.4.4|9=0067|35=A|34=1|49=EXC|56=007|52=20190529-12:57:08.556|98=0|108=30|141=Y|10=026|
8=FIX.4.4|9=110|35=A|34=1|49=007|50=007B26|52=20190529-13:10:55.485|56=EXC|43=Y|98=0|108=30|141=Y|553=007FCE001|554=007FCE001|10=093|
8=FIX.4.4|9=0067|35=A|34=1|49=EXC|56=007|52=20190529-13:10:55.532|98=0|108=30|141=Y|10=012|
8=FIX.4.4|9=110|35=A|34=1|49=007|50=007B26|52=20190529-13:47:13.169|56=EXC|43=Y|98=0|108=30|141=Y|553=007FCE001|554=007FCE001|10=096|
8=FIX.4.4|9=0067|35=A|34=1|49=EXC|56=007|52=20190529-13:47:12.902|98=0|108=30|141=Y|10=016|
8=FIX.4.4|9=110|35=A|34=1|49=007|50=007B26|52=20190529-13:51:04.749|56=EXC|43=Y|98=0|108=30|141=Y|553=007FCE001|554=007FCE001|10=095|
8=FIX.4.4|9=0067|35=A|34=1|49=EXC|56=007|52=20190529-13:51:04.476|98=0|108=30|141=Y|10=018|
8=FIX.4.4|9=110|35=A|34=1|49=007|50=007B26|52=20190529-13:58:02.458|56=EXC|43=Y|98=0|108=30|141=Y|553=007FCE001|554=007FCE001|10=097|
8=FIX.4.4|9=0067|35=A|34=1|49=EXC|56=007|52=20190529-13:58:02.168|98=0|108=30|141=Y|10=021|
8=FIX.4.4|9=0049|35=0|34=2|49=EXC|56=007|52=20190529-13:58:32.000|10=179|
8=FIX.4.4|9=59|35=0|34=2|49=007|50=007B26|52=20190529-13:58:33.402|56=EXC|10=063|
8=FIX.4.4|9=0049|35=0|34=3|49=EXC|56=007|52=20190529-13:59:02.000|10=178|
8=FIX.4.4|9=59|35=0|34=3|49=007|50=007B26|52=20190529-13:59:03.402|56=EXC|10=062|
8=FIX.4.4|9=110|35=A|34=1|49=007|50=007B26|52=20190529-13:59:42.588|56=EXC|43=Y|98=0|108=30|141=Y|553=007FCE001|554=007FCE001|10=106|
8=FIX.4.4|9=0067|35=A|34=1|49=EXC|56=007|52=20190529-13:59:42.374|98=0|108=30|141=Y|10=025|
8=FIX.4.4|9=0049|35=0|34=2|49=EXC|56=007|52=20190529-14:00:12.000|10=165|
8=FIX.4.4|9=59|35=0|34=2|49=007|50=007B26|52=20190529-14:00:13.520|56=EXC|10=050|
8=FIX.4.4|9=0049|35=0|34=3|49=EXC|56=007|52=20190529-14:00:42.000|10=169|
8=FIX.4.4|9=59|35=0|34=3|49=007|50=007B26|52=20190529-14:00:43.516|56=EXC|10=059|
8=FIX.4.4|9=0049|35=0|34=4|49=EXC|56=007|52=20190529-14:01:12.000|10=168|
8=FIX.4.4|9=59|35=0|34=4|49=007|50=007B26|52=20190529-14:01:13.530|56=EXC|10=054|
8=FIX.4.4|9=0049|35=0|34=5|49=EXC|56=007|52=20190529-14:01:42.000|10=172|
8=FIX.4.4|9=59|35=0|34=5|49=007|50=007B26|52=20190529-14:01:43.522|56=EXC|10=059|
8=FIX.4.4|9=0049|35=0|34=6|49=EXC|56=007|52=20190529-14:02:12.000|10=171|
8=FIX.4.4|9=59|35=0|34=6|49=007|50=007B26|52=20190529-14:02:13.522|56=EXC|10=058|
8=FIX.4.4|9=0049|35=0|34=7|49=EXC|56=007|52=20190529-14:02:42.000|10=175|
8=FIX.4.4|9=59|35=0|34=7|49=007|50=007B26|52=20190529-14:02:43.523|56=EXC|10=063|
8=FIX.4.4|9=0049|35=0|34=8|49=EXC|56=007|52=20190529-14:03:12.000|10=174|
8=FIX.4.4|9=59|35=0|34=8|49=007|50=007B26|52=20190529-14:03:13.524|56=EXC|10=063|
8=FIX.4.4|9=110|35=A|34=1|49=007|50=007B26|52=20190529-14:04:08.498|56=EXC|43=Y|98=0|108=30|141=Y|553=007FCE001|554=007FCE001|10=099|
8=FIX.4.4|9=0067|35=A|34=1|49=EXC|56=007|52=20190529-14:04:08.227|98=0|108=30|141=Y|10=015|
8=FIX.4.4|9=0049|35=0|34=2|49=EXC|56=007|52=20190529-14:04:38.000|10=177|
8=FIX.4.4|9=59|35=0|34=2|49=007|50=007B26|52=20190529-14:04:39.472|56=EXC|10=068|
8=FIX.4.4|9=110|35=A|34=1|49=007|50=007B26|52=20190529-14:20:38.662|56=EXC|43=Y|98=0|108=30|141=Y|553=007FCE001|554=007FCE001|10=093|
8=FIX.4.4|9=0067|35=A|34=1|49=EXC|56=007|52=20190529-14:20:38.703|98=0|108=30|141=Y|10=015|
8=FIX.4.4|9=110|35=A|34=1|49=007|50=007B26|52=20190529-14:25:56.745|56=EXC|43=Y|98=0|108=30|141=Y|553=007FCE001|554=007FCE001|10=100|
8=FIX.4.4|9=0067|35=A|34=1|49=EXC|56=007|52=20190529-14:25:56.761|98=0|108=30|141=Y|10=024|
8=FIX.4.4|9=110|35=A|34=1|49=007|50=007B26|52=20190529-14:27:38.031|56=EXC|43=Y|98=0|108=30|141=Y|553=007FCE001|554=007FCE001|10=090|
8=FIX.4.4|9=0067|35=A|34=1|49=EXC|56=007|52=20190529-14:27:38.045|98=0|108=30|141=Y|10=021|
