8=FIX.4.4|9=110|35=A|34=1|49=029|50=029B17|52=20190806-20:00:10.255|56=EXC|43=N|98=0|108=30|141=Y|553=029FCM001|554=029FCM001|10=095|
8=FIX.4.4|9=0067|35=A|34=1|49=EXC|56=029|52=20190806-20:01:03.575|98=0|108=30|141=Y|10=012|
8=FIX.4.4|9=110|35=A|34=1|49=029|50=029B17|52=20190806-20:06:52.069|56=EXC|43=N|98=0|108=30|141=Y|553=029FCM001|554=029FCM001|10=110|
8=FIX.4.4|9=0067|35=A|34=1|49=EXC|56=029|52=20190806-20:07:45.400|98=0|108=30|141=Y|10=011|
8=FIX.4.4|9=110|35=A|34=1|49=029|50=029B17|52=20190806-20:12:53.046|56=EXC|43=N|98=0|108=30|141=Y|553=029FCM001|554=029FCM001|10=103|
8=FIX.4.4|9=0067|35=A|34=1|49=EXC|56=029|52=20190806-20:13:46.365|98=0|108=30|141=Y|10=019|
8=FIX.4.4|9=110|35=A|34=1|49=029|50=029B17|52=20190806-21:41:14.803|56=EXC|43=N|98=0|108=30|141=Y|553=029FCM001|554=029FCM001|10=104|
8=FIX.4.4|9=0067|35=A|34=1|49=EXC|56=029|52=20190806-16:08:56.207|98=0|108=30|141=Y|10=024|
8=FIX.4.4|9=161|35=R|34=2|49=029|50=029B17|52=20190806-21:41:20.841|56=EXC|131=201908061641108_R|146=1|55=I01H99F|22=M|762=AFIR|54=1|38=-1|1=RT001|453=1|448=037B18|447=C|452=37|10=110|
8=FIX.4.4|9=0130|35=3|34=2|49=EXC|56=029|52=20190806-16:09:02.210|45=2|371=38|372=R|373=6|58=(1462): OrderQty(#38) contiene informacion incorrecta|10=184|
