8=FIX.4.4|9=110|35=A|34=1|49=007|50=007B26|52=20190607-21:41:30.389|56=EXC|43=Y|98=0|108=30|141=Y|553=007FCE001|554=007FCE001|10=089|
8=FIX.4.4|9=0067|35=A|34=1|49=EXC|56=007|52=20190607-21:41:30.336|98=0|108=30|141=Y|10=007|
8=FIX.4.4|9=153|35=R|34=2|49=007|50=007B26|52=20190607-21:41:32.772|56=EXC|131=2733629|146=1|55=TFIT15260826|22=M|762=RFQF|54=1|38=1500000000|453=1|448=DCV|447=C|452=10|10=213|
8=FIX.4.4|9=0235|35=AI|34=2|49=EXC|56=007|57=007B26|52=20190607-21:41:32.688|131=2733629|453=4|448=DCV|447=C|452=10|448=007B26|447=C|452=12|448=007|447=C|452=1|448=007FCE001|447=C|452=36|55=TFIT15260826|762=RFQF|48=20348|22=M|54=1|38=1500000000|297=10|10=128|
8=FIX.4.4|9=0192|35=R|34=3|49=EXC|56=007|52=20190607-21:41:32.688|131=20190607-000000000071.00|146=1|55=TFIT15260826|762=RFQF|48=20348|22=M|54=1|38=1500000000|453=2|448=007B26|447=C|452=12|448=007|447=C|452=1|10=008|
8=FIX.4.4|9=110|35=A|34=1|49=007|50=007B26|52=20190607-21:52:29.990|56=EXC|43=Y|98=0|108=30|141=Y|553=007FCE001|554=007FCE001|10=097|
8=FIX.4.4|9=0067|35=A|34=1|49=EXC|56=007|52=20190607-21:52:29.943|98=0|108=30|141=Y|10=021|
8=FIX.4.4|9=0191|35=R|34=2|49=EXC|56=007|52=20190607-21:52:32.256|131=20190607-000000000073.00|146=1|55=TFIT16300632|762=RFQF|48=20406|22=M|54=1|38=500000000|453=2|448=001B27|447=C|452=12|448=001|447=C|452=1|10=183|
8=FIX.4.4|9=110|35=A|34=1|49=007|50=007B26|52=20190607-21:53:04.037|56=EXC|43=Y|98=0|108=30|141=Y|553=007FCE001|554=007FCE001|10=083|
8=FIX.4.4|9=0067|35=A|34=1|49=EXC|56=007|52=20190607-21:53:03.988|98=0|108=30|141=Y|10=023|
8=FIX.4.4|9=0049|35=0|34=2|49=EXC|56=007|52=20190607-21:53:33.000|10=171|
8=FIX.4.4|9=59|35=0|34=2|49=007|50=007B26|52=20190607-21:53:35.026|56=EXC|10=058|
8=FIX.4.4|9=0049|35=0|34=3|49=EXC|56=007|52=20190607-21:54:03.000|10=170|
8=FIX.4.4|9=59|35=0|34=3|49=007|50=007B26|52=20190607-21:54:05.026|56=EXC|10=057|
8=FIX.4.4|9=110|35=A|34=1|49=007|50=007B26|52=20190607-21:54:23.091|56=EXC|43=Y|98=0|108=30|141=Y|553=007FCE001|554=007FCE001|10=085|
8=FIX.4.4|9=0067|35=A|34=1|49=EXC|56=007|52=20190607-21:54:23.041|98=0|108=30|141=Y|10=006|
