8=FIX.4.4|9=106|35=A|34=1|49=002|50=18|52=20190509-14:12:23.763|56=EXC|43=Y|98=0|108=30|141=Y|553=002FCM001|554=002FCM001|10=134|
8=FIX.4.4|9=0067|35=A|34=1|49=EXC|56=002|52=20190509-14:12:23.656|98=0|108=30|141=Y|10=010|
8=FIX.4.4|9=0049|35=0|34=2|49=EXC|56=002|52=20190509-14:12:53.000|10=166|
8=FIX.4.4|9=55|35=0|34=2|49=002|50=18|52=20190509-14:12:54.235|56=EXC|10=090|
8=FIX.4.4|9=0049|35=0|34=3|49=EXC|56=002|52=20190509-14:13:23.000|10=165|
8=FIX.4.4|9=55|35=0|34=3|49=002|50=18|52=20190509-14:13:24.240|56=EXC|10=085|
8=FIX.4.4|9=0049|35=0|34=4|49=EXC|56=002|52=20190509-14:13:53.000|10=169|
8=FIX.4.4|9=55|35=0|34=4|49=002|50=18|52=20190509-14:13:54.235|56=EXC|10=093|
8=FIX.4.4|9=0049|35=0|34=5|49=EXC|56=002|52=20190509-14:14:23.000|10=168|
8=FIX.4.4|9=55|35=0|34=5|49=002|50=18|52=20190509-14:14:24.239|56=EXC|10=096|
8=FIX.4.4|9=0049|35=0|34=6|49=EXC|56=002|52=20190509-14:14:53.000|10=172|
8=FIX.4.4|9=55|35=0|34=6|49=002|50=18|52=20190509-14:14:55.239|56=EXC|10=101|
8=FIX.4.4|9=0049|35=0|34=7|49=EXC|56=002|52=20190509-14:15:23.000|10=171|
8=FIX.4.4|9=55|35=0|34=7|49=002|50=18|52=20190509-14:15:26.230|56=EXC|10=092|
8=FIX.4.4|9=0049|35=0|34=8|49=EXC|56=002|52=20190509-14:15:53.000|10=175|
8=FIX.4.4|9=55|35=0|34=8|49=002|50=18|52=20190509-14:15:56.236|56=EXC|10=102|
8=FIX.4.4|9=106|35=A|34=1|49=002|50=18|52=20190509-14:17:51.237|56=EXC|43=Y|98=0|108=30|141=Y|553=002FCM001|554=002FCM001|10=136|
8=FIX.4.4|9=0067|35=A|34=1|49=EXC|56=002|52=20190509-14:17:51.174|98=0|108=30|141=Y|10=011|
8=FIX.4.4|9=0049|35=0|34=2|49=EXC|56=002|52=20190509-14:18:21.000|10=167|
8=FIX.4.4|9=55|35=0|34=2|49=002|50=18|52=20190509-14:18:21.309|56=EXC|10=092|
8=FIX.4.4|9=106|35=A|34=1|49=002|50=18|52=20190509-14:26:04.171|56=EXC|43=Y|98=0|108=30|141=Y|553=002FCM001|554=002FCM001|10=131|
8=FIX.4.4|9=0067|35=A|34=1|49=EXC|56=002|52=20190509-14:26:04.090|98=0|108=30|141=Y|10=006|
8=FIX.4.4|9=0049|35=0|34=2|49=EXC|56=002|52=20190509-14:26:34.000|10=170|
8=FIX.4.4|9=55|35=0|34=2|49=002|50=18|52=20190509-14:26:34.308|56=EXC|10=094|
8=FIX.4.4|9=0049|35=0|34=3|49=EXC|56=002|52=20190509-14:27:04.000|10=169|
8=FIX.4.4|9=55|35=0|34=3|49=002|50=18|52=20190509-14:27:04.304|56=EXC|10=089|
8=FIX.4.4|9=106|35=A|34=1|49=002|50=18|52=20190509-14:27:13.989|56=EXC|43=Y|98=0|108=30|141=Y|553=002FCM001|554=002FCM001|10=149|
8=FIX.4.4|9=0067|35=A|34=1|49=EXC|56=002|52=20190509-14:27:13.947|98=0|108=30|141=Y|10=018|
8=FIX.4.4|9=0049|35=0|34=2|49=EXC|56=002|52=20190509-14:27:43.000|10=171|
8=FIX.4.4|9=55|35=0|34=2|49=002|50=18|52=20190509-14:27:44.276|56=EXC|10=100|
8=FIX.4.4|9=0049|35=0|34=3|49=EXC|56=002|52=20190509-14:28:13.000|10=170|
8=FIX.4.4|9=55|35=0|34=3|49=002|50=18|52=20190509-14:28:14.269|56=EXC|10=101|
8=FIX.4.4|9=0049|35=0|34=4|49=EXC|56=002|52=20190509-14:28:43.000|10=174|
8=FIX.4.4|9=55|35=0|34=4|49=002|50=18|52=20190509-14:28:44.280|56=EXC|10=098|
8=FIX.4.4|9=106|35=A|34=1|49=002|50=18|52=20190509-14:29:01.096|56=EXC|43=Y|98=0|108=30|141=Y|553=002FCM001|554=002FCM001|10=137|
8=FIX.4.4|9=0067|35=A|34=1|49=EXC|56=002|52=20190509-14:29:01.008|98=0|108=30|141=Y|10=005|
8=FIX.4.4|9=0049|35=0|34=2|49=EXC|56=002|52=20190509-14:29:31.000|10=170|
8=FIX.4.4|9=55|35=0|34=2|49=002|50=18|52=20190509-14:29:31.307|56=EXC|10=093|
8=FIX.4.4|9=106|35=A|34=1|49=002|50=18|52=20190509-14:34:27.476|56=EXC|43=Y|98=0|108=30|141=Y|553=002FCM001|554=002FCM001|10=143|
8=FIX.4.4|9=0067|35=A|34=1|49=EXC|56=002|52=20190509-14:34:27.706|98=0|108=30|141=Y|10=014|
8=FIX.4.4|9=106|35=A|34=1|49=002|50=18|52=20190509-14:35:07.344|56=EXC|43=Y|98=0|108=30|141=Y|553=002FCM001|554=002FCM001|10=136|
8=FIX.4.4|9=0067|35=A|34=1|49=EXC|56=002|52=20190509-14:35:07.603|98=0|108=30|141=Y|10=009|
8=FIX.4.4|9=106|35=A|34=1|49=002|50=18|52=20190509-14:36:13.638|56=EXC|43=Y|98=0|108=30|141=Y|553=002FCM001|554=002FCM001|10=140|
8=FIX.4.4|9=0067|35=A|34=1|49=EXC|56=002|52=20190509-14:36:13.885|98=0|108=30|141=Y|10=019|
8=FIX.4.4|9=106|35=A|34=1|49=002|50=18|52=20190509-14:37:41.463|56=EXC|43=Y|98=0|108=30|141=Y|553=002FCM001|554=002FCM001|10=138|
8=FIX.4.4|9=0067|35=A|34=1|49=EXC|56=002|52=20190509-14:37:41.675|98=0|108=30|141=Y|10=018|
8=FIX.4.4|9=0049|35=0|34=2|49=EXC|56=002|52=20190509-14:38:11.000|10=168|
8=FIX.4.4|9=55|35=0|34=2|49=002|50=18|52=20190509-14:38:11.936|56=EXC|10=099|
8=FIX.4.4|9=106|35=A|34=1|49=002|50=18|52=20190509-14:39:37.363|56=EXC|43=Y|98=0|108=30|141=Y|553=002FCM001|554=002FCM001|10=144|
8=FIX.4.4|9=0067|35=A|34=1|49=EXC|56=002|52=20190509-14:39:37.580|98=0|108=30|141=Y|10=020|
8=FIX.4.4|9=0049|35=0|34=2|49=EXC|56=002|52=20190509-14:40:07.000|10=166|
8=FIX.4.4|9=55|35=0|34=2|49=002|50=18|52=20190509-14:40:07.767|56=EXC|10=099|
8=FIX.4.4|9=0049|35=0|34=3|49=EXC|56=002|52=20190509-14:40:37.000|10=170|
8=FIX.4.4|9=55|35=0|34=3|49=002|50=18|52=20190509-14:40:37.775|56=EXC|10=102|
8=FIX.4.4|9=0049|35=0|34=4|49=EXC|56=002|52=20190509-14:41:07.000|10=169|
8=FIX.4.4|9=55|35=0|34=4|49=002|50=18|52=20190509-14:41:08.760|56=EXC|10=096|
8=FIX.4.4|9=0049|35=0|34=5|49=EXC|56=002|52=20190509-14:41:37.000|10=173|
8=FIX.4.4|9=55|35=0|34=5|49=002|50=18|52=20190509-14:41:38.788|56=EXC|10=110|
8=FIX.4.4|9=0049|35=0|34=6|49=EXC|56=002|52=20190509-14:42:07.000|10=172|
8=FIX.4.4|9=55|35=0|34=6|49=002|50=18|52=20190509-14:42:09.760|56=EXC|10=100|
8=FIX.4.4|9=106|35=A|34=1|49=002|50=18|52=20190509-14:48:25.789|56=EXC|43=Y|98=0|108=30|141=Y|553=002FCM001|554=002FCM001|10=153|
8=FIX.4.4|9=0067|35=A|34=1|49=EXC|56=002|52=20190509-14:48:26.017|98=0|108=30|141=Y|10=013|
8=FIX.4.4|9=0049|35=0|34=2|49=EXC|56=002|52=20190509-14:48:56.000|10=178|
8=FIX.4.4|9=55|35=0|34=2|49=002|50=18|52=20190509-14:48:56.004|56=EXC|10=095|
8=FIX.4.4|9=0049|35=0|34=3|49=EXC|56=002|52=20190509-14:49:26.000|10=177|
8=FIX.4.4|9=55|35=0|34=3|49=002|50=18|52=20190509-14:49:26.003|56=EXC|10=093|
8=FIX.4.4|9=0049|35=0|34=4|49=EXC|56=002|52=20190509-14:49:56.000|10=181|
8=FIX.4.4|9=55|35=0|34=4|49=002|50=18|52=20190509-14:49:56.004|56=EXC|10=098|
8=FIX.4.4|9=0049|35=0|34=5|49=EXC|56=002|52=20190509-14:50:26.000|10=171|
8=FIX.4.4|9=55|35=0|34=5|49=002|50=18|52=20190509-14:50:26.003|56=EXC|10=087|
8=FIX.4.4|9=0049|35=0|34=6|49=EXC|56=002|52=20190509-14:50:56.000|10=175|
8=FIX.4.4|9=55|35=0|34=6|49=002|50=18|52=20190509-14:50:56.004|56=EXC|10=092|
8=FIX.4.4|9=0049|35=0|34=7|49=EXC|56=002|52=20190509-14:51:26.000|10=174|
8=FIX.4.4|9=55|35=0|34=7|49=002|50=18|52=20190509-14:51:26.003|56=EXC|10=090|
8=FIX.4.4|9=0049|35=0|34=8|49=EXC|56=002|52=20190509-14:51:56.000|10=178|
8=FIX.4.4|9=55|35=0|34=8|49=002|50=18|52=20190509-14:51:56.002|56=EXC|10=093|
8=FIX.4.4|9=106|35=A|34=1|49=002|50=18|52=20190509-14:52:45.587|56=EXC|43=Y|98=0|108=30|141=Y|553=002FCM001|554=002FCM001|10=146|
8=FIX.4.4|9=0067|35=A|34=1|49=EXC|56=002|52=20190509-14:52:45.816|98=0|108=30|141=Y|10=016|
8=FIX.4.4|9=0049|35=0|34=2|49=EXC|56=002|52=20190509-14:53:15.000|10=169|
8=FIX.4.4|9=55|35=0|34=2|49=002|50=18|52=20190509-14:53:15.930|56=EXC|10=094|
8=FIX.4.4|9=0049|35=0|34=3|49=EXC|56=002|52=20190509-14:53:45.000|10=173|
8=FIX.4.4|9=55|35=0|34=3|49=002|50=18|52=20190509-14:53:45.934|56=EXC|10=102|
8=FIX.4.4|9=0049|35=0|34=4|49=EXC|56=002|52=20190509-14:54:15.000|10=172|
8=FIX.4.4|9=55|35=0|34=4|49=002|50=18|52=20190509-14:54:15.939|56=EXC|10=106|
8=FIX.4.4|9=106|35=A|34=1|49=002|50=18|52=20190509-14:54:30.484|56=EXC|43=Y|98=0|108=30|141=Y|553=002FCM001|554=002FCM001|10=138|
8=FIX.4.4|9=0067|35=A|34=1|49=EXC|56=002|52=20190509-14:54:30.702|98=0|108=30|141=Y|10=006|
8=FIX.4.4|9=0049|35=0|34=2|49=EXC|56=002|52=20190509-14:55:00.000|10=165|
8=FIX.4.4|9=55|35=0|34=2|49=002|50=18|52=20190509-14:55:00.970|56=EXC|10=094|
8=FIX.4.4|9=0049|35=0|34=3|49=EXC|56=002|52=20190509-14:55:30.000|10=169|
8=FIX.4.4|9=55|35=0|34=3|49=002|50=18|52=20190509-14:55:31.960|56=EXC|10=098|
8=FIX.4.4|9=0049|35=0|34=4|49=EXC|56=002|52=20190509-14:56:00.000|10=168|
8=FIX.4.4|9=55|35=0|34=4|49=002|50=18|52=20190509-14:56:01.957|56=EXC|10=103|
8=FIX.4.4|9=0049|35=0|34=5|49=EXC|56=002|52=20190509-14:56:30.000|10=172|
8=FIX.4.4|9=55|35=0|34=5|49=002|50=18|52=20190509-14:56:31.959|56=EXC|10=109|
8=FIX.4.4|9=106|35=A|34=1|49=002|50=18|52=20190509-14:57:10.199|56=EXC|43=Y|98=0|108=30|141=Y|553=002FCM001|554=002FCM001|10=142|
8=FIX.4.4|9=0067|35=A|34=1|49=EXC|56=002|52=20190509-14:57:10.427|98=0|108=30|141=Y|10=011|
8=FIX.4.4|9=0049|35=0|34=2|49=EXC|56=002|52=20190509-14:57:40.000|10=171|
8=FIX.4.4|9=55|35=0|34=2|49=002|50=18|52=20190509-14:57:40.527|56=EXC|10=098|
8=FIX.4.4|9=106|35=A|34=1|49=002|50=18|52=20190509-14:57:58.164|56=EXC|43=Y|98=0|108=30|141=Y|553=002FCM001|554=002FCM001|10=146|
8=FIX.4.4|9=0067|35=A|34=1|49=EXC|56=002|52=20190509-14:57:58.393|98=0|108=30|141=Y|10=025|
8=FIX.4.4|9=0049|35=0|34=2|49=EXC|56=002|52=20190509-14:58:28.000|10=178|
8=FIX.4.4|9=55|35=0|34=2|49=002|50=18|52=20190509-14:58:28.574|56=EXC|10=107|
8=FIX.4.4|9=0049|35=0|34=3|49=EXC|56=002|52=20190509-14:58:58.000|10=182|
8=FIX.4.4|9=55|35=0|34=3|49=002|50=18|52=20190509-14:58:58.573|56=EXC|10=110|
8=FIX.4.4|9=0049|35=0|34=4|49=EXC|56=002|52=20190509-14:59:28.000|10=181|
8=FIX.4.4|9=55|35=0|34=4|49=002|50=18|52=20190509-14:59:28.574|56=EXC|10=110|
8=FIX.4.4|9=0049|35=0|34=5|49=EXC|56=002|52=20190509-14:59:58.000|10=185|
8=FIX.4.4|9=55|35=0|34=5|49=002|50=18|52=20190509-14:59:58.574|56=EXC|10=114|
8=FIX.4.4|9=0049|35=0|34=6|49=EXC|56=002|52=20190509-15:00:28.000|10=170|
8=FIX.4.4|9=55|35=0|34=6|49=002|50=18|52=20190509-15:00:28.575|56=EXC|10=100|
8=FIX.4.4|9=0049|35=0|34=7|49=EXC|56=002|52=20190509-15:00:58.000|10=174|
8=FIX.4.4|9=55|35=0|34=7|49=002|50=18|52=20190509-15:00:58.577|56=EXC|10=106|
8=FIX.4.4|9=0049|35=0|34=8|49=EXC|56=002|52=20190509-15:01:28.000|10=173|
8=FIX.4.4|9=55|35=0|34=8|49=002|50=18|52=20190509-15:01:28.588|56=EXC|10=107|
8=FIX.4.4|9=0049|35=0|34=9|49=EXC|56=002|52=20190509-15:01:58.000|10=177|
8=FIX.4.4|9=55|35=0|34=9|49=002|50=18|52=20190509-15:01:59.574|56=EXC|10=107|
8=FIX.4.4|9=0050|35=0|34=10|49=EXC|56=002|52=20190509-15:02:28.000|10=207|
8=FIX.4.4|9=56|35=0|34=10|49=002|50=18|52=20190509-15:02:29.574|56=EXC|10=146|
8=FIX.4.4|9=0050|35=0|34=11|49=EXC|56=002|52=20190509-15:02:58.000|10=211|
8=FIX.4.4|9=56|35=0|34=11|49=002|50=18|52=20190509-15:02:59.573|56=EXC|10=149|
8=FIX.4.4|9=0050|35=0|34=12|49=EXC|56=002|52=20190509-15:03:28.000|10=210|
8=FIX.4.4|9=56|35=0|34=12|49=002|50=18|52=20190509-15:03:29.574|56=EXC|10=149|
8=FIX.4.4|9=0050|35=0|34=13|49=EXC|56=002|52=20190509-15:03:58.000|10=214|
8=FIX.4.4|9=56|35=0|34=13|49=002|50=18|52=20190509-15:03:59.573|56=EXC|10=152|
8=FIX.4.4|9=0050|35=0|34=14|49=EXC|56=002|52=20190509-15:04:28.000|10=213|
8=FIX.4.4|9=56|35=0|34=14|49=002|50=18|52=20190509-15:04:29.576|56=EXC|10=154|
8=FIX.4.4|9=0050|35=0|34=15|49=EXC|56=002|52=20190509-15:04:58.000|10=217|
8=FIX.4.4|9=56|35=0|34=15|49=002|50=18|52=20190509-15:04:59.574|56=EXC|10=156|
8=FIX.4.4|9=0050|35=0|34=16|49=EXC|56=002|52=20190509-15:05:28.000|10=216|
8=FIX.4.4|9=56|35=0|34=16|49=002|50=18|52=20190509-15:05:29.584|56=EXC|10=156|
8=FIX.4.4|9=0050|35=0|34=17|49=EXC|56=002|52=20190509-15:05:58.000|10=220|
8=FIX.4.4|9=56|35=0|34=17|49=002|50=18|52=20190509-15:05:59.577|56=EXC|10=162|
8=FIX.4.4|9=0050|35=0|34=18|49=EXC|56=002|52=20190509-15:06:28.000|10=219|
8=FIX.4.4|9=56|35=0|34=18|49=002|50=18|52=20190509-15:06:29.576|56=EXC|10=160|
8=FIX.4.4|9=0050|35=0|34=19|49=EXC|56=002|52=20190509-15:06:58.000|10=223|
8=FIX.4.4|9=56|35=0|34=19|49=002|50=18|52=20190509-15:06:59.574|56=EXC|10=162|
8=FIX.4.4|9=0050|35=0|34=20|49=EXC|56=002|52=20190509-15:07:28.000|10=213|
8=FIX.4.4|9=56|35=0|34=20|49=002|50=18|52=20190509-15:07:29.573|56=EXC|10=151|
8=FIX.4.4|9=0050|35=0|34=21|49=EXC|56=002|52=20190509-15:07:58.000|10=217|
8=FIX.4.4|9=56|35=0|34=21|49=002|50=18|52=20190509-15:07:59.573|56=EXC|10=155|
8=FIX.4.4|9=106|35=A|34=1|49=002|50=18|52=20190509-15:12:30.508|56=EXC|43=Y|98=0|108=30|141=Y|553=002FCM001|554=002FCM001|10=130|
8=FIX.4.4|9=0067|35=A|34=1|49=EXC|56=002|52=20190509-15:12:30.700|98=0|108=30|141=Y|10=255|
8=FIX.4.4|9=0049|35=0|34=2|49=EXC|56=002|52=20190509-15:13:00.000|10=160|
8=FIX.4.4|9=55|35=0|34=2|49=002|50=18|52=20190509-15:13:00.960|56=EXC|10=088|
8=FIX.4.4|9=0049|35=0|34=3|49=EXC|56=002|52=20190509-15:13:30.000|10=164|
8=FIX.4.4|9=55|35=0|34=3|49=002|50=18|52=20190509-15:13:30.964|56=EXC|10=096|
8=FIX.4.4|9=0049|35=0|34=4|49=EXC|56=002|52=20190509-15:14:00.000|10=163|
8=FIX.4.4|9=55|35=0|34=4|49=002|50=18|52=20190509-15:14:00.970|56=EXC|10=092|
8=FIX.4.4|9=0049|35=0|34=5|49=EXC|56=002|52=20190509-15:14:30.000|10=167|
8=FIX.4.4|9=55|35=0|34=5|49=002|50=18|52=20190509-15:14:30.977|56=EXC|10=103|
8=FIX.4.4|9=0049|35=0|34=6|49=EXC|56=002|52=20190509-15:15:00.000|10=166|
8=FIX.4.4|9=55|35=0|34=6|49=002|50=18|52=20190509-15:15:00.982|56=EXC|10=098|
8=FIX.4.4|9=0049|35=0|34=7|49=EXC|56=002|52=20190509-15:15:30.000|10=170|
8=FIX.4.4|9=55|35=0|34=7|49=002|50=18|52=20190509-15:15:31.037|56=EXC|10=094|
8=FIX.4.4|9=106|35=A|34=1|49=002|50=18|52=20190509-15:16:19.087|56=EXC|43=Y|98=0|108=30|141=Y|553=002FCM001|554=002FCM001|10=143|
8=FIX.4.4|9=0067|35=A|34=1|49=EXC|56=002|52=20190509-15:16:19.233|98=0|108=30|141=Y|10=011|
8=FIX.4.4|9=0049|35=0|34=2|49=EXC|56=002|52=20190509-15:16:49.000|10=176|
8=FIX.4.4|9=55|35=0|34=2|49=002|50=18|52=20190509-15:16:49.537|56=EXC|10=104|
8=FIX.4.4|9=0049|35=0|34=3|49=EXC|56=002|52=20190509-15:17:19.000|10=175|
8=FIX.4.4|9=55|35=0|34=3|49=002|50=18|52=20190509-15:17:19.539|56=EXC|10=105|
8=FIX.4.4|9=106|35=A|34=1|49=002|50=18|52=20190509-15:17:36.756|56=EXC|43=Y|98=0|108=30|141=Y|553=002FCM001|554=002FCM001|10=146|
8=FIX.4.4|9=0067|35=A|34=1|49=EXC|56=002|52=20190509-15:17:36.891|98=0|108=30|141=Y|10=021|
8=FIX.4.4|9=0049|35=0|34=2|49=EXC|56=002|52=20190509-15:18:06.000|10=171|
8=FIX.4.4|9=55|35=0|34=2|49=002|50=18|52=20190509-15:18:07.249|56=EXC|10=100|
8=FIX.4.4|9=0049|35=0|34=3|49=EXC|56=002|52=20190509-15:18:36.000|10=175|
8=FIX.4.4|9=55|35=0|34=3|49=002|50=18|52=20190509-15:18:37.251|56=EXC|10=097|
8=FIX.4.4|9=0049|35=0|34=4|49=EXC|56=002|52=20190509-15:19:06.000|10=174|
8=FIX.4.4|9=55|35=0|34=4|49=002|50=18|52=20190509-15:19:07.253|56=EXC|10=098|
8=FIX.4.4|9=0049|35=0|34=5|49=EXC|56=002|52=20190509-15:19:36.000|10=178|
8=FIX.4.4|9=55|35=0|34=5|49=002|50=18|52=20190509-15:19:37.255|56=EXC|10=104|
8=FIX.4.4|9=106|35=A|34=1|49=002|50=18|52=20190509-15:37:20.447|56=EXC|43=Y|98=0|108=30|141=Y|553=002FCM001|554=002FCM001|10=138|
8=FIX.4.4|9=0067|35=A|34=1|49=EXC|56=002|52=20190509-15:37:20.643|98=0|108=30|141=Y|10=011|
8=FIX.4.4|9=0049|35=0|34=2|49=EXC|56=002|52=20190509-15:37:50.000|10=171|
8=FIX.4.4|9=55|35=0|34=2|49=002|50=18|52=20190509-15:37:51.147|56=EXC|10=097|
8=FIX.4.4|9=0049|35=0|34=3|49=EXC|56=002|52=20190509-15:38:20.000|10=170|
8=FIX.4.4|9=55|35=0|34=3|49=002|50=18|52=20190509-15:38:21.146|56=EXC|10=095|
8=FIX.4.4|9=0049|35=0|34=4|49=EXC|56=002|52=20190509-15:38:50.000|10=174|
8=FIX.4.4|9=55|35=0|34=4|49=002|50=18|52=20190509-15:38:51.145|56=EXC|10=098|
8=FIX.4.4|9=0049|35=0|34=5|49=EXC|56=002|52=20190509-15:39:20.000|10=173|
8=FIX.4.4|9=55|35=0|34=5|49=002|50=18|52=20190509-15:39:21.145|56=EXC|10=097|
8=FIX.4.4|9=106|35=A|34=1|49=002|50=18|52=20190509-15:39:25.357|56=EXC|43=Y|98=0|108=30|141=Y|553=002FCM001|554=002FCM001|10=145|
8=FIX.4.4|9=106|35=A|34=1|49=002|50=18|52=20190509-18:14:38.240|56=EXC|43=Y|98=0|108=30|141=Y|553=002FCM001|554=002FCM001|10=136|
8=FIX.4.4|9=0067|35=A|34=1|49=EXC|56=002|52=20190509-18:14:38.657|98=0|108=30|141=Y|10=023|
8=FIX.4.4|9=0049|35=0|34=2|49=EXC|56=002|52=20190509-18:15:08.000|10=173|
8=FIX.4.4|9=55|35=0|34=2|49=002|50=18|52=20190509-18:15:08.934|56=EXC|10=102|
8=FIX.4.4|9=0049|35=0|34=3|49=EXC|56=002|52=20190509-18:15:38.000|10=177|
8=FIX.4.4|9=55|35=0|34=3|49=002|50=18|52=20190509-18:15:38.934|56=EXC|10=106|
8=FIX.4.4|9=106|35=A|34=1|49=002|50=18|52=20190509-18:16:20.463|56=EXC|43=Y|98=0|108=30|141=Y|553=002FCM001|554=002FCM001|10=136|
8=FIX.4.4|9=0067|35=A|34=1|49=EXC|56=002|52=20190509-18:16:20.880|98=0|108=30|141=Y|10=014|
8=FIX.4.4|9=0049|35=0|34=2|49=EXC|56=002|52=20190509-18:16:50.000|10=171|
8=FIX.4.4|9=55|35=0|34=2|49=002|50=18|52=20190509-18:16:51.131|56=EXC|10=090|
8=FIX.4.4|9=0049|35=0|34=3|49=EXC|56=002|52=20190509-18:17:20.000|10=170|
8=FIX.4.4|9=55|35=0|34=3|49=002|50=18|52=20190509-18:17:21.132|56=EXC|10=090|
8=FIX.4.4|9=106|35=A|34=1|49=002|50=18|52=20190509-18:17:49.144|56=EXC|43=Y|98=0|108=30|141=Y|553=002FCM001|554=002FCM001|10=144|
8=FIX.4.4|9=0067|35=A|34=1|49=EXC|56=002|52=20190509-18:17:49.579|98=0|108=30|141=Y|10=031|
8=FIX.4.4|9=0049|35=0|34=2|49=EXC|56=002|52=20190509-18:18:19.000|10=178|
8=FIX.4.4|9=55|35=0|34=2|49=002|50=18|52=20190509-18:18:19.841|56=EXC|10=104|
8=FIX.4.4|9=106|35=A|34=1|49=002|50=18|52=20190509-18:18:42.890|56=EXC|43=Y|98=0|108=30|141=Y|553=002FCM001|554=002FCM001|10=146|
8=FIX.4.4|9=0067|35=A|34=1|49=EXC|56=002|52=20190509-18:18:43.330|98=0|108=30|141=Y|10=011|
8=FIX.4.4|9=0049|35=0|34=2|49=EXC|56=002|52=20190509-18:19:13.000|10=173|
8=FIX.4.4|9=55|35=0|34=2|49=002|50=18|52=20190509-18:19:13.273|56=EXC|10=098|
8=FIX.4.4|9=106|35=A|34=1|49=002|50=18|52=20190509-18:19:56.005|56=EXC|43=Y|98=0|108=30|141=Y|553=002FCM001|554=002FCM001|10=140|
8=FIX.4.4|9=0067|35=A|34=1|49=EXC|56=002|52=20190509-18:19:56.427|98=0|108=30|141=Y|10=023|
8=FIX.4.4|9=0049|35=0|34=2|49=EXC|56=002|52=20190509-18:20:26.000|10=169|
8=FIX.4.4|9=55|35=0|34=2|49=002|50=18|52=20190509-18:20:26.371|56=EXC|10=093|
8=FIX.4.4|9=0049|35=0|34=3|49=EXC|56=002|52=20190509-18:20:56.000|10=173|
8=FIX.4.4|9=55|35=0|34=3|49=002|50=18|52=20190509-18:20:56.391|56=EXC|10=099|
8=FIX.4.4|9=0049|35=0|34=4|49=EXC|56=002|52=20190509-18:21:26.000|10=172|
8=FIX.4.4|9=55|35=0|34=4|49=002|50=18|52=20190509-18:21:26.430|56=EXC|10=092|
8=FIX.4.4|9=0049|35=0|34=5|49=EXC|56=002|52=20190509-18:21:56.000|10=176|
8=FIX.4.4|9=55|35=0|34=5|49=002|50=18|52=20190509-18:21:56.436|56=EXC|10=102|
8=FIX.4.4|9=0049|35=0|34=6|49=EXC|56=002|52=20190509-18:22:26.000|10=175|
8=FIX.4.4|9=55|35=0|34=6|49=002|50=18|52=20190509-18:22:26.459|56=EXC|10=106|
8=FIX.4.4|9=0049|35=0|34=7|49=EXC|56=002|52=20190509-18:22:56.000|10=179|
8=FIX.4.4|9=55|35=0|34=7|49=002|50=18|52=20190509-18:22:56.480|56=EXC|10=104|
8=FIX.4.4|9=0049|35=0|34=8|49=EXC|56=002|52=20190509-18:23:26.000|10=178|
8=FIX.4.4|9=55|35=0|34=8|49=002|50=18|52=20190509-18:23:26.503|56=EXC|10=099|
8=FIX.4.4|9=0049|35=0|34=9|49=EXC|56=002|52=20190509-18:23:56.000|10=182|
8=FIX.4.4|9=55|35=0|34=9|49=002|50=18|52=20190509-18:23:56.542|56=EXC|10=106|
8=FIX.4.4|9=106|35=A|34=1|49=002|50=18|52=20190509-18:45:04.741|56=EXC|43=Y|98=0|108=30|141=Y|553=002FCM001|554=002FCM001|10=139|
8=FIX.4.4|9=0067|35=A|34=1|49=EXC|56=002|52=20190509-18:45:04.955|98=0|108=30|141=Y|10=021|
8=FIX.4.4|9=0049|35=0|34=2|49=EXC|56=002|52=20190509-18:45:34.000|10=175|
8=FIX.4.4|9=55|35=0|34=2|49=002|50=18|52=20190509-18:45:35.198|56=EXC|10=107|
8=FIX.4.4|9=106|35=A|34=1|49=002|50=18|52=20190509-18:51:47.760|56=EXC|43=Y|98=0|108=30|141=Y|553=002FCM001|554=002FCM001|10=144|
8=FIX.4.4|9=0067|35=A|34=1|49=EXC|56=002|52=20190509-18:51:47.970|98=0|108=30|141=Y|10=022|
8=FIX.4.4|9=0049|35=0|34=2|49=EXC|56=002|52=20190509-18:52:17.000|10=174|
8=FIX.4.4|9=55|35=0|34=2|49=002|50=18|52=20190509-18:52:18.213|56=EXC|10=094|
8=FIX.4.4|9=0049|35=0|34=3|49=EXC|56=002|52=20190509-18:52:47.000|10=178|
8=FIX.4.4|9=55|35=0|34=3|49=002|50=18|52=20190509-18:52:48.212|56=EXC|10=097|
8=FIX.4.4|9=106|35=A|34=1|49=002|50=18|52=20190509-18:52:49.539|56=EXC|43=Y|98=0|108=30|141=Y|553=002FCM001|554=002FCM001|10=151|
8=FIX.4.4|9=106|35=A|34=1|49=002|50=18|52=20190509-19:08:19.623|56=EXC|43=Y|98=0|108=30|141=Y|553=002FCM001|554=002FCM001|10=144|
8=FIX.4.4|9=0067|35=A|34=1|49=EXC|56=002|52=20190509-19:08:19.826|98=0|108=30|141=Y|10=024|
8=FIX.4.4|9=0049|35=0|34=2|49=EXC|56=002|52=20190509-19:08:49.000|10=181|
8=FIX.4.4|9=55|35=0|34=2|49=002|50=18|52=20190509-19:08:50.088|56=EXC|10=102|
8=FIX.4.4|9=106|35=A|34=1|49=002|50=18|52=20190509-19:23:34.787|56=EXC|43=Y|98=0|108=30|141=Y|553=002FCM001|554=002FCM001|10=149|
8=FIX.4.4|9=0067|35=A|34=1|49=EXC|56=002|52=20190509-19:23:34.981|98=0|108=30|141=Y|10=020|
8=FIX.4.4|9=0049|35=0|34=2|49=EXC|56=002|52=20190509-19:24:04.000|10=170|
8=FIX.4.4|9=55|35=0|34=2|49=002|50=18|52=20190509-19:24:05.177|56=EXC|10=099|
8=FIX.4.4|9=0049|35=0|34=3|49=EXC|56=002|52=20190509-19:24:34.000|10=174|
8=FIX.4.4|9=55|35=0|34=3|49=002|50=18|52=20190509-19:24:35.177|56=EXC|10=103|
8=FIX.4.4|9=0049|35=0|34=4|49=EXC|56=002|52=20190509-19:25:04.000|10=173|
8=FIX.4.4|9=55|35=0|34=4|49=002|50=18|52=20190509-19:25:05.177|56=EXC|10=102|
8=FIX.4.4|9=0049|35=0|34=5|49=EXC|56=002|52=20190509-19:25:34.000|10=177|
8=FIX.4.4|9=55|35=0|34=5|49=002|50=18|52=20190509-19:25:35.177|56=EXC|10=106|
8=FIX.4.4|9=0049|35=0|34=6|49=EXC|56=002|52=20190509-19:26:04.000|10=176|
8=FIX.4.4|9=55|35=0|34=6|49=002|50=18|52=20190509-19:26:05.177|56=EXC|10=105|
8=FIX.4.4|9=0049|35=0|34=7|49=EXC|56=002|52=20190509-19:26:34.000|10=180|
8=FIX.4.4|9=55|35=0|34=7|49=002|50=18|52=20190509-19:26:35.177|56=EXC|10=109|
8=FIX.4.4|9=0049|35=0|34=8|49=EXC|56=002|52=20190509-19:27:04.000|10=179|
8=FIX.4.4|9=55|35=0|34=8|49=002|50=18|52=20190509-19:27:05.178|56=EXC|10=109|
8=FIX.4.4|9=0049|35=0|34=9|49=EXC|56=002|52=20190509-19:27:34.000|10=183|
8=FIX.4.4|9=55|35=0|34=9|49=002|50=18|52=20190509-19:27:35.177|56=EXC|10=112|
8=FIX.4.4|9=0050|35=0|34=10|49=EXC|56=002|52=20190509-19:28:04.000|10=213|
8=FIX.4.4|9=56|35=0|34=10|49=002|50=18|52=20190509-19:28:05.177|56=EXC|10=151|
8=FIX.4.4|9=0050|35=0|34=11|49=EXC|56=002|52=20190509-19:28:34.000|10=217|
8=FIX.4.4|9=56|35=0|34=11|49=002|50=18|52=20190509-19:28:35.177|56=EXC|10=155|
8=FIX.4.4|9=0050|35=0|34=12|49=EXC|56=002|52=20190509-19:29:04.000|10=216|
8=FIX.4.4|9=56|35=0|34=12|49=002|50=18|52=20190509-19:29:05.177|56=EXC|10=154|
8=FIX.4.4|9=0050|35=0|34=13|49=EXC|56=002|52=20190509-19:29:34.000|10=220|
8=FIX.4.4|9=56|35=0|34=13|49=002|50=18|52=20190509-19:29:35.177|56=EXC|10=158|
8=FIX.4.4|9=0050|35=0|34=14|49=EXC|56=002|52=20190509-19:30:04.000|10=210|
8=FIX.4.4|9=56|35=0|34=14|49=002|50=18|52=20190509-19:30:05.177|56=EXC|10=148|
8=FIX.4.4|9=0050|35=0|34=15|49=EXC|56=002|52=20190509-19:30:34.000|10=214|
8=FIX.4.4|9=56|35=0|34=15|49=002|50=18|52=20190509-19:30:35.178|56=EXC|10=153|
8=FIX.4.4|9=0050|35=0|34=16|49=EXC|56=002|52=20190509-19:31:04.000|10=213|
8=FIX.4.4|9=56|35=0|34=16|49=002|50=18|52=20190509-19:31:05.185|56=EXC|10=150|
8=FIX.4.4|9=0050|35=0|34=17|49=EXC|56=002|52=20190509-19:31:34.000|10=217|
8=FIX.4.4|9=56|35=0|34=17|49=002|50=18|52=20190509-19:31:35.180|56=EXC|10=149|
8=FIX.4.4|9=0050|35=0|34=18|49=EXC|56=002|52=20190509-19:32:04.000|10=216|
8=FIX.4.4|9=56|35=0|34=18|49=002|50=18|52=20190509-19:32:05.177|56=EXC|10=154|
8=FIX.4.4|9=0050|35=0|34=19|49=EXC|56=002|52=20190509-19:32:34.000|10=220|
8=FIX.4.4|9=56|35=0|34=19|49=002|50=18|52=20190509-19:32:35.177|56=EXC|10=158|
8=FIX.4.4|9=0050|35=0|34=20|49=EXC|56=002|52=20190509-19:33:04.000|10=210|
8=FIX.4.4|9=56|35=0|34=20|49=002|50=18|52=20190509-19:33:05.177|56=EXC|10=148|
8=FIX.4.4|9=0050|35=0|34=21|49=EXC|56=002|52=20190509-19:33:34.000|10=214|
8=FIX.4.4|9=56|35=0|34=21|49=002|50=18|52=20190509-19:33:35.177|56=EXC|10=152|
8=FIX.4.4|9=0050|35=0|34=22|49=EXC|56=002|52=20190509-19:34:04.000|10=213|
8=FIX.4.4|9=56|35=0|34=22|49=002|50=18|52=20190509-19:34:05.177|56=EXC|10=151|
8=FIX.4.4|9=0050|35=0|34=23|49=EXC|56=002|52=20190509-19:34:34.000|10=217|
8=FIX.4.4|9=56|35=0|34=23|49=002|50=18|52=20190509-19:34:35.177|56=EXC|10=155|
8=FIX.4.4|9=0050|35=0|34=24|49=EXC|56=002|52=20190509-19:35:04.000|10=216|
8=FIX.4.4|9=56|35=0|34=24|49=002|50=18|52=20190509-19:35:05.177|56=EXC|10=154|
8=FIX.4.4|9=0050|35=0|34=25|49=EXC|56=002|52=20190509-19:35:34.000|10=220|
8=FIX.4.4|9=56|35=0|34=25|49=002|50=18|52=20190509-19:35:35.177|56=EXC|10=158|
8=FIX.4.4|9=0050|35=0|34=26|49=EXC|56=002|52=20190509-19:36:04.000|10=219|
8=FIX.4.4|9=56|35=0|34=26|49=002|50=18|52=20190509-19:36:05.177|56=EXC|10=157|
8=FIX.4.4|9=0050|35=0|34=27|49=EXC|56=002|52=20190509-19:36:34.000|10=223|
8=FIX.4.4|9=56|35=0|34=27|49=002|50=18|52=20190509-19:36:35.177|56=EXC|10=161|
8=FIX.4.4|9=0050|35=0|34=28|49=EXC|56=002|52=20190509-19:37:04.000|10=222|
8=FIX.4.4|9=56|35=0|34=28|49=002|50=18|52=20190509-19:37:05.177|56=EXC|10=160|
8=FIX.4.4|9=106|35=A|34=1|49=002|50=18|52=20190509-20:28:04.626|56=EXC|43=Y|98=0|108=30|141=Y|553=002FCM001|554=002FCM001|10=135|
8=FIX.4.4|9=0067|35=A|34=1|49=EXC|56=002|52=20190509-20:28:04.819|98=0|108=30|141=Y|10=014|
8=FIX.4.4|9=0049|35=0|34=2|49=EXC|56=002|52=20190509-20:28:34.000|10=169|
8=FIX.4.4|9=55|35=0|34=2|49=002|50=18|52=20190509-20:28:34.971|56=EXC|10=099|
8=FIX.4.4|9=0049|35=0|34=3|49=EXC|56=002|52=20190509-20:29:04.000|10=168|
8=FIX.4.4|9=55|35=0|34=3|49=002|50=18|52=20190509-20:29:04.972|56=EXC|10=099|
8=FIX.4.4|9=0049|35=0|34=4|49=EXC|56=002|52=20190509-20:29:34.000|10=172|
8=FIX.4.4|9=55|35=0|34=4|49=002|50=18|52=20190509-20:29:34.971|56=EXC|10=102|
8=FIX.4.4|9=106|35=A|34=1|49=002|50=18|52=20190509-20:29:52.191|56=EXC|43=Y|98=0|108=30|141=Y|553=002FCM001|554=002FCM001|10=136|
8=FIX.4.4|9=0067|35=A|34=1|49=EXC|56=002|52=20190509-20:29:52.378|98=0|108=30|141=Y|10=018|
8=FIX.4.4|9=0049|35=0|34=2|49=EXC|56=002|52=20190509-20:30:22.000|10=159|
8=FIX.4.4|9=55|35=0|34=2|49=002|50=18|52=20190509-20:30:22.758|56=EXC|10=092|
8=FIX.4.4|9=0049|35=0|34=3|49=EXC|56=002|52=20190509-20:30:52.000|10=163|
8=FIX.4.4|9=55|35=0|34=3|49=002|50=18|52=20190509-20:30:52.758|56=EXC|10=096|
8=FIX.4.4|9=0049|35=0|34=4|49=EXC|56=002|52=20190509-20:31:22.000|10=162|
8=FIX.4.4|9=55|35=0|34=4|49=002|50=18|52=20190509-20:31:22.758|56=EXC|10=095|
8=FIX.4.4|9=0049|35=0|34=5|49=EXC|56=002|52=20190509-20:31:52.000|10=166|
8=FIX.4.4|9=55|35=0|34=5|49=002|50=18|52=20190509-20:31:52.757|56=EXC|10=098|
8=FIX.4.4|9=0049|35=0|34=6|49=EXC|56=002|52=20190509-20:32:22.000|10=165|
8=FIX.4.4|9=55|35=0|34=6|49=002|50=18|52=20190509-20:32:22.759|56=EXC|10=099|
8=FIX.4.4|9=0049|35=0|34=7|49=EXC|56=002|52=20190509-20:32:52.000|10=169|
8=FIX.4.4|9=55|35=0|34=7|49=002|50=18|52=20190509-20:32:52.759|56=EXC|10=103|
8=FIX.4.4|9=0049|35=0|34=8|49=EXC|56=002|52=20190509-20:33:22.000|10=168|
8=FIX.4.4|9=55|35=0|34=8|49=002|50=18|52=20190509-20:33:22.758|56=EXC|10=101|
8=FIX.4.4|9=0049|35=0|34=9|49=EXC|56=002|52=20190509-20:33:52.000|10=172|
8=FIX.4.4|9=55|35=0|34=9|49=002|50=18|52=20190509-20:33:52.757|56=EXC|10=104|
8=FIX.4.4|9=0050|35=0|34=10|49=EXC|56=002|52=20190509-20:34:22.000|10=202|
8=FIX.4.4|9=56|35=0|34=10|49=002|50=18|52=20190509-20:34:22.772|56=EXC|10=140|
8=FIX.4.4|9=0050|35=0|34=11|49=EXC|56=002|52=20190509-20:34:52.000|10=206|
8=FIX.4.4|9=56|35=0|34=11|49=002|50=18|52=20190509-20:34:53.758|56=EXC|10=149|
8=FIX.4.4|9=0050|35=0|34=12|49=EXC|56=002|52=20190509-20:35:22.000|10=205|
8=FIX.4.4|9=56|35=0|34=12|49=002|50=18|52=20190509-20:35:23.757|56=EXC|10=147|
8=FIX.4.4|9=0050|35=0|34=13|49=EXC|56=002|52=20190509-20:35:52.000|10=209|
8=FIX.4.4|9=56|35=0|34=13|49=002|50=18|52=20190509-20:35:53.758|56=EXC|10=152|
8=FIX.4.4|9=106|35=A|34=1|49=002|50=18|52=20190509-20:37:01.261|56=EXC|43=Y|98=0|108=30|141=Y|553=002FCM001|554=002FCM001|10=127|
8=FIX.4.4|9=0067|35=A|34=1|49=EXC|56=002|52=20190509-20:37:01.454|98=0|108=30|141=Y|10=006|
8=FIX.4.4|9=0049|35=0|34=2|49=EXC|56=002|52=20190509-20:37:31.000|10=166|
8=FIX.4.4|9=55|35=0|34=2|49=002|50=18|52=20190509-20:37:31.844|56=EXC|10=095|
8=FIX.4.4|9=0049|35=0|34=3|49=EXC|56=002|52=20190509-20:38:01.000|10=165|
8=FIX.4.4|9=55|35=0|34=3|49=002|50=18|52=20190509-20:38:01.844|56=EXC|10=094|
8=FIX.4.4|9=0049|35=0|34=4|49=EXC|56=002|52=20190509-20:38:31.000|10=169|
8=FIX.4.4|9=55|35=0|34=4|49=002|50=18|52=20190509-20:38:31.845|56=EXC|10=099|
8=FIX.4.4|9=0049|35=0|34=5|49=EXC|56=002|52=20190509-20:39:01.000|10=168|
8=FIX.4.4|9=55|35=0|34=5|49=002|50=18|52=20190509-20:39:01.843|56=EXC|10=096|
8=FIX.4.4|9=0049|35=0|34=6|49=EXC|56=002|52=20190509-20:39:31.000|10=172|
8=FIX.4.4|9=55|35=0|34=6|49=002|50=18|52=20190509-20:39:31.843|56=EXC|10=100|
8=FIX.4.4|9=0049|35=0|34=7|49=EXC|56=002|52=20190509-20:40:01.000|10=162|
8=FIX.4.4|9=55|35=0|34=7|49=002|50=18|52=20190509-20:40:01.844|56=EXC|10=091|
8=FIX.4.4|9=0049|35=0|34=8|49=EXC|56=002|52=20190509-20:40:31.000|10=166|
8=FIX.4.4|9=55|35=0|34=8|49=002|50=18|52=20190509-20:40:31.845|56=EXC|10=096|
8=FIX.4.4|9=0049|35=0|34=9|49=EXC|56=002|52=20190509-20:41:01.000|10=165|
8=FIX.4.4|9=55|35=0|34=9|49=002|50=18|52=20190509-20:41:01.843|56=EXC|10=093|
8=FIX.4.4|9=0050|35=0|34=10|49=EXC|56=002|52=20190509-20:41:31.000|10=200|
8=FIX.4.4|9=56|35=0|34=10|49=002|50=18|52=20190509-20:41:31.843|56=EXC|10=137|
8=FIX.4.4|9=0050|35=0|34=11|49=EXC|56=002|52=20190509-20:42:01.000|10=199|
8=FIX.4.4|9=56|35=0|34=11|49=002|50=18|52=20190509-20:42:01.844|56=EXC|10=137|
8=FIX.4.4|9=0050|35=0|34=12|49=EXC|56=002|52=20190509-20:42:31.000|10=203|
8=FIX.4.4|9=56|35=0|34=12|49=002|50=18|52=20190509-20:42:31.844|56=EXC|10=141|
8=FIX.4.4|9=0050|35=0|34=13|49=EXC|56=002|52=20190509-20:43:01.000|10=202|
8=FIX.4.4|9=56|35=0|34=13|49=002|50=18|52=20190509-20:43:01.844|56=EXC|10=140|
8=FIX.4.4|9=0050|35=0|34=14|49=EXC|56=002|52=20190509-20:43:31.000|10=206|
8=FIX.4.4|9=56|35=0|34=14|49=002|50=18|52=20190509-20:43:31.844|56=EXC|10=144|
8=FIX.4.4|9=0050|35=0|34=15|49=EXC|56=002|52=20190509-20:44:01.000|10=205|
8=FIX.4.4|9=56|35=0|34=15|49=002|50=18|52=20190509-20:44:01.855|56=EXC|10=145|
8=FIX.4.4|9=0050|35=0|34=16|49=EXC|56=002|52=20190509-20:44:31.000|10=209|
8=FIX.4.4|9=56|35=0|34=16|49=002|50=18|52=20190509-20:44:32.843|56=EXC|10=147|
8=FIX.4.4|9=0050|35=0|34=17|49=EXC|56=002|52=20190509-20:45:01.000|10=208|
8=FIX.4.4|9=56|35=0|34=17|49=002|50=18|52=20190509-20:45:02.844|56=EXC|10=147|
8=FIX.4.4|9=0050|35=0|34=18|49=EXC|56=002|52=20190509-20:45:31.000|10=212|
8=FIX.4.4|9=56|35=0|34=18|49=002|50=18|52=20190509-20:45:32.844|56=EXC|10=151|
8=FIX.4.4|9=0050|35=0|34=19|49=EXC|56=002|52=20190509-20:46:01.000|10=211|
8=FIX.4.4|9=56|35=0|34=19|49=002|50=18|52=20190509-20:46:02.845|56=EXC|10=151|
