8=FIX.4.4|9=105|35=A|34=1|49=010|50=010BWN|52=20190625-14:00:42.259|56=EXC|98=0|108=30|141=Y|553=010FCE003|554=010FCE003|10=132|
8=FIX.4.4|9=0067|35=A|34=1|49=EXC|56=010|52=20190627-14:00:42.272|98=0|108=30|141=Y|10=002|
8=FIX.4.4|9=0049|35=0|34=2|49=EXC|56=010|52=20190627-14:01:12.000|10=159|
8=FIX.4.4|9=59|35=0|34=2|49=010|50=010BWN|52=20190625-14:01:13.216|56=EXC|10=099|
8=FIX.4.4|9=0049|35=0|34=3|49=EXC|56=010|52=20190627-14:01:42.000|10=163|
8=FIX.4.4|9=59|35=0|34=3|49=010|50=010BWN|52=20190625-14:01:43.215|56=EXC|10=102|
8=FIX.4.4|9=0049|35=0|34=4|49=EXC|56=010|52=20190627-14:02:12.000|10=162|
8=FIX.4.4|9=59|35=0|34=4|49=010|50=010BWN|52=20190625-14:02:13.215|56=EXC|10=101|
8=FIX.4.4|9=0049|35=0|34=5|49=EXC|56=010|52=20190627-14:02:42.000|10=166|
8=FIX.4.4|9=59|35=0|34=5|49=010|50=010BWN|52=20190625-14:02:43.215|56=EXC|10=105|
8=FIX.4.4|9=105|35=A|34=1|49=010|50=010BWN|52=20190625-14:04:52.673|56=EXC|98=0|108=30|141=Y|553=010FCE003|554=010FCE003|10=137|
8=FIX.4.4|9=0067|35=A|34=1|49=EXC|56=010|52=20190627-14:04:52.686|98=0|108=30|141=Y|10=016|
8=FIX.4.4|9=0049|35=0|34=2|49=EXC|56=010|52=20190627-14:05:22.000|10=164|
8=FIX.4.4|9=59|35=0|34=2|49=010|50=010BWN|52=20190625-14:05:23.570|56=EXC|10=107|
8=FIX.4.4|9=0049|35=0|34=3|49=EXC|56=010|52=20190627-14:05:52.000|10=168|
8=FIX.4.4|9=59|35=0|34=3|49=010|50=010BWN|52=20190625-14:05:53.569|56=EXC|10=119|
8=FIX.4.4|9=0049|35=0|34=4|49=EXC|56=010|52=20190627-14:06:22.000|10=167|
8=FIX.4.4|9=59|35=0|34=4|49=010|50=010BWN|52=20190625-14:06:23.569|56=EXC|10=118|
8=FIX.4.4|9=0049|35=0|34=5|49=EXC|56=010|52=20190627-14:06:52.000|10=171|
8=FIX.4.4|9=59|35=0|34=5|49=010|50=010BWN|52=20190625-14:06:53.570|56=EXC|10=114|
8=FIX.4.4|9=0049|35=0|34=6|49=EXC|56=010|52=20190627-14:07:22.000|10=170|
8=FIX.4.4|9=59|35=0|34=6|49=010|50=010BWN|52=20190625-14:07:23.570|56=EXC|10=113|
8=FIX.4.4|9=0049|35=0|34=7|49=EXC|56=010|52=20190627-14:07:52.000|10=174|
8=FIX.4.4|9=59|35=0|34=7|49=010|50=010BWN|52=20190625-14:07:53.570|56=EXC|10=117|
8=FIX.4.4|9=0226|35=R|34=8|49=EXC|56=010|57=010BWN|52=20190627-14:08:11.994|131=20190627-000000000010.01|146=1|55=TFIT06110919|762=RFQF|48=20320|22=M|54=2|38=1000000000|453=3|448=001B27|447=C|452=12|448=001|447=C|452=1|448=010BWN|447=C|452=37|10=197|
8=FIX.4.4|9=59|35=0|34=8|49=010|50=010BWN|52=20190625-14:08:23.571|56=EXC|10=117|
8=FIX.4.4|9=0049|35=0|34=9|49=EXC|56=010|52=20190627-14:08:41.000|10=175|
8=FIX.4.4|9=59|35=0|34=9|49=010|50=010BWN|52=20190625-14:08:53.571|56=EXC|10=121|
8=FIX.4.4|9=0050|35=0|34=10|49=EXC|56=010|52=20190627-14:09:11.000|10=205|
8=FIX.4.4|9=60|35=0|34=10|49=010|50=010BWN|52=20190625-14:09:23.569|56=EXC|10=158|
8=FIX.4.4|9=0050|35=0|34=11|49=EXC|56=010|52=20190627-14:09:41.000|10=209|
8=FIX.4.4|9=60|35=0|34=11|49=010|50=010BWN|52=20190625-14:09:53.570|56=EXC|10=154|
8=FIX.4.4|9=105|35=A|34=1|49=010|50=010BWN|52=20190625-14:38:03.059|56=EXC|98=0|108=30|141=Y|553=010FCE003|554=010FCE003|10=138|
8=FIX.4.4|9=0067|35=A|34=1|49=EXC|56=010|52=20190627-14:38:03.098|98=0|108=30|141=Y|10=016|
8=FIX.4.4|9=0226|35=R|34=2|49=EXC|56=010|57=010BWN|52=20190627-14:38:10.355|131=20190627-000000000011.01|146=1|55=TFIT06110919|762=RFQF|48=20320|22=M|54=2|38=1000000000|453=3|448=001B27|447=C|452=12|448=001|447=C|452=1|448=010BWN|447=C|452=37|10=185|
8=FIX.4.4|9=59|35=0|34=2|49=010|50=010BWN|52=20190625-14:38:34.039|56=EXC|10=115|
8=FIX.4.4|9=0049|35=0|34=3|49=EXC|56=010|52=20190627-14:38:40.000|10=171|
8=FIX.4.4|9=0217|35=R|34=4|49=EXC|56=010|57=010BWN|52=20190627-14:38:50.850|131=20190627-000000000011.01|146=1|55=TFIT06110919|762=RFQF|48=20320|22=M|54=2|38=0|453=3|448=001B27|447=C|452=12|448=001|447=C|452=1|448=010BWN|447=C|452=37|10=014|
8=FIX.4.4|9=59|35=0|34=3|49=010|50=010BWN|52=20190625-14:39:04.037|56=EXC|10=112|
8=FIX.4.4|9=0049|35=0|34=5|49=EXC|56=010|52=20190627-14:39:20.000|10=172|
8=FIX.4.4|9=59|35=5|34=4|49=010|50=010BWN|52=20190625-14:39:24.037|56=EXC|10=120|
8=FIX.4.4|9=0049|35=5|34=6|49=EXC|56=010|52=20190627-14:39:24.043|10=189|
8=FIX.4.4|9=105|35=A|34=1|49=010|50=010BWN|52=20190625-15:23:40.559|56=EXC|98=0|108=30|141=Y|553=010FCE003|554=010FCE003|10=139|
8=FIX.4.4|9=0067|35=A|34=1|49=EXC|56=010|52=20190627-15:23:40.587|98=0|108=30|141=Y|10=015|
8=FIX.4.4|9=0049|35=0|34=2|49=EXC|56=010|52=20190627-15:24:10.000|10=163|
8=FIX.4.4|9=59|35=0|34=2|49=010|50=010BWN|52=20190625-15:24:11.518|56=EXC|10=108|
8=FIX.4.4|9=0049|35=0|34=3|49=EXC|56=010|52=20190627-15:24:40.000|10=167|
8=FIX.4.4|9=59|35=0|34=3|49=010|50=010BWN|52=20190625-15:24:41.518|56=EXC|10=112|
8=FIX.4.4|9=0049|35=0|34=4|49=EXC|56=010|52=20190627-15:25:10.000|10=166|
8=FIX.4.4|9=59|35=0|34=4|49=010|50=010BWN|52=20190625-15:25:11.518|56=EXC|10=111|
8=FIX.4.4|9=0049|35=0|34=5|49=EXC|56=010|52=20190627-15:25:40.000|10=170|
8=FIX.4.4|9=59|35=0|34=5|49=010|50=010BWN|52=20190625-15:25:41.517|56=EXC|10=114|
8=FIX.4.4|9=0049|35=0|34=6|49=EXC|56=010|52=20190627-15:26:10.000|10=169|
8=FIX.4.4|9=59|35=0|34=6|49=010|50=010BWN|52=20190625-15:26:11.517|56=EXC|10=113|
8=FIX.4.4|9=0049|35=0|34=7|49=EXC|56=010|52=20190627-15:26:40.000|10=173|
8=FIX.4.4|9=59|35=0|34=7|49=010|50=010BWN|52=20190625-15:26:41.518|56=EXC|10=118|
8=FIX.4.4|9=0226|35=R|34=8|49=EXC|56=010|57=010BWN|52=20190627-15:27:02.999|131=20190627-000000000015.01|146=1|55=TFIT06110919|762=RFQF|48=20320|22=M|54=2|38=1000000000|453=3|448=001B27|447=C|452=12|448=001|447=C|452=1|448=010BWN|447=C|452=37|10=209|
8=FIX.4.4|9=59|35=0|34=8|49=010|50=010BWN|52=20190625-15:27:11.517|56=EXC|10=116|
8=FIX.4.4|9=0049|35=0|34=9|49=EXC|56=010|52=20190627-15:27:32.000|10=177|
8=FIX.4.4|9=59|35=0|34=9|49=010|50=010BWN|52=20190625-15:27:41.518|56=EXC|10=121|
8=FIX.4.4|9=0218|35=R|34=10|49=EXC|56=010|57=010BWN|52=20190627-15:27:43.068|131=20190627-000000000015.01|146=1|55=TFIT06110919|762=RFQF|48=20320|22=M|54=2|38=0|453=3|448=001B27|447=C|452=12|448=001|447=C|452=1|448=010BWN|447=C|452=37|10=066|
8=FIX.4.4|9=0193|35=R|34=11|49=EXC|56=010|52=20190627-15:28:10.176|131=20190627-000000000016.00|146=1|55=TFIT15260826|762=RFQF|48=20348|22=M|54=1|38=1500000000|453=2|448=007B26|447=C|452=12|448=007|447=C|452=1|10=049|
8=FIX.4.4|9=60|35=0|34=10|49=010|50=010BWN|52=20190625-15:28:11.518|56=EXC|10=151|
8=FIX.4.4|9=0184|35=R|34=12|49=EXC|56=010|52=20190627-15:28:39.463|131=20190627-000000000016.00|146=1|55=TFIT15260826|762=RFQF|48=20348|22=M|54=1|38=0|453=2|448=007B26|447=C|452=12|448=007|447=C|452=1|10=134|
8=FIX.4.4|9=60|35=0|34=11|49=010|50=010BWN|52=20190625-15:28:41.517|56=EXC|10=154|
8=FIX.4.4|9=0050|35=0|34=13|49=EXC|56=010|52=20190627-15:29:09.000|10=218|
8=FIX.4.4|9=60|35=0|34=12|49=010|50=010BWN|52=20190625-15:29:11.517|56=EXC|10=153|
8=FIX.4.4|9=0050|35=0|34=14|49=EXC|56=010|52=20190627-15:29:39.000|10=222|
8=FIX.4.4|9=60|35=0|34=13|49=010|50=010BWN|52=20190625-15:29:41.517|56=EXC|10=157|
8=FIX.4.4|9=0192|35=R|34=15|49=EXC|56=010|52=20190627-15:29:46.344|131=20190627-000000000017.00|146=1|55=TFIC14280426|762=RFQF|48=20602|22=M|54=1|38=500000000|453=2|448=001B27|447=C|452=12|448=001|447=C|452=1|10=229|
8=FIX.4.4|9=60|35=0|34=14|49=010|50=010BWN|52=20190625-15:30:11.519|56=EXC|10=149|
8=FIX.4.4|9=0226|35=R|34=16|49=EXC|56=010|57=010BWN|52=20190627-15:30:15.378|131=20190627-000000000018.01|146=1|55=TFIT16180930|762=RFQF|48=20355|22=M|54=1|38=500000000|453=3|448=001B27|447=C|452=12|448=001|447=C|452=1|448=010BWN|447=C|452=37|10=212|
8=FIX.4.4|9=60|35=0|34=15|49=010|50=010BWN|52=20190625-15:30:41.518|56=EXC|10=152|
8=FIX.4.4|9=0050|35=0|34=17|49=EXC|56=010|52=20190627-15:30:45.000|10=214|
8=FIX.4.4|9=0226|35=R|34=18|49=EXC|56=010|57=010BWN|52=20190627-15:30:49.727|131=20190627-000000000019.01|146=1|55=TFIT16240724|762=RFQF|48=20392|22=M|54=2|38=500000000|453=3|448=007B26|447=C|452=12|448=007|447=C|452=1|448=010BWN|447=C|452=37|10=231|
8=FIX.4.4|9=60|35=0|34=16|49=010|50=010BWN|52=20190625-15:31:11.518|56=EXC|10=151|
8=FIX.4.4|9=0050|35=0|34=19|49=EXC|56=010|52=20190627-15:31:19.000|10=218|
8=FIX.4.4|9=60|35=5|34=17|49=010|50=010BWN|52=20190625-15:31:35.518|56=EXC|10=163|
8=FIX.4.4|9=0050|35=5|34=20|49=EXC|56=010|52=20190627-15:31:35.516|10=225|
8=FIX.4.4|9=105|35=A|34=1|49=010|50=010BWN|52=20190625-15:58:17.389|56=EXC|98=0|108=30|141=Y|553=010FCE003|554=010FCE003|10=152|
8=FIX.4.4|9=0067|35=A|34=1|49=EXC|56=010|52=20190627-15:58:17.413|98=0|108=30|141=Y|10=015|
8=FIX.4.4|9=0049|35=0|34=2|49=EXC|56=010|52=20190627-15:58:47.000|10=180|
8=FIX.4.4|9=59|35=0|34=2|49=010|50=010BWN|52=20190625-15:58:48.306|56=EXC|10=120|
8=FIX.4.4|9=0049|35=0|34=3|49=EXC|56=010|52=20190627-15:59:17.000|10=179|
8=FIX.4.4|9=59|35=0|34=3|49=010|50=010BWN|52=20190625-15:59:18.306|56=EXC|10=119|
8=FIX.4.4|9=0049|35=0|34=4|49=EXC|56=010|52=20190627-15:59:47.000|10=183|
8=FIX.4.4|9=59|35=0|34=4|49=010|50=010BWN|52=20190625-15:59:48.306|56=EXC|10=123|
8=FIX.4.4|9=0049|35=0|34=5|49=EXC|56=010|52=20190627-16:00:17.000|10=168|
8=FIX.4.4|9=59|35=0|34=5|49=010|50=010BWN|52=20190625-16:00:18.305|56=EXC|10=107|
8=FIX.4.4|9=0049|35=0|34=6|49=EXC|56=010|52=20190627-16:00:47.000|10=172|
8=FIX.4.4|9=59|35=0|34=6|49=010|50=010BWN|52=20190625-16:00:48.304|56=EXC|10=110|
8=FIX.4.4|9=0049|35=0|34=7|49=EXC|56=010|52=20190627-16:01:17.000|10=171|
8=FIX.4.4|9=59|35=0|34=7|49=010|50=010BWN|52=20190625-16:01:18.305|56=EXC|10=110|
8=FIX.4.4|9=0226|35=R|34=8|49=EXC|56=010|57=010BWN|52=20190627-16:01:40.242|131=20190627-000000000023.01|146=1|55=TFIT06110919|762=RFQF|48=20320|22=M|54=2|38=1000000000|453=3|448=001B27|447=C|452=12|448=001|447=C|452=1|448=010BWN|447=C|452=37|10=184|
8=FIX.4.4|9=59|35=0|34=8|49=010|50=010BWN|52=20190625-16:01:48.305|56=EXC|10=114|
8=FIX.4.4|9=0049|35=0|34=9|49=EXC|56=010|52=20190627-16:02:10.000|10=167|
8=FIX.4.4|9=59|35=0|34=9|49=010|50=010BWN|52=20190625-16:02:18.306|56=EXC|10=114|
8=FIX.4.4|9=0218|35=R|34=10|49=EXC|56=010|57=010BWN|52=20190627-16:02:20.054|131=20190627-000000000023.01|146=1|55=TFIT06110919|762=RFQF|48=20320|22=M|54=2|38=0|453=3|448=001B27|447=C|452=12|448=001|447=C|452=1|448=010BWN|447=C|452=37|10=049|
8=FIX.4.4|9=0193|35=R|34=11|49=EXC|56=010|52=20190627-16:02:47.006|131=20190627-000000000024.00|146=1|55=TFIT15260826|762=RFQF|48=20348|22=M|54=1|38=1500000000|453=2|448=007B26|447=C|452=12|448=007|447=C|452=1|10=043|
8=FIX.4.4|9=60|35=0|34=10|49=010|50=010BWN|52=20190625-16:02:48.305|56=EXC|10=148|
8=FIX.4.4|9=0184|35=R|34=12|49=EXC|56=010|52=20190627-16:03:16.418|131=20190627-000000000024.00|146=1|55=TFIT15260826|762=RFQF|48=20348|22=M|54=1|38=0|453=2|448=007B26|447=C|452=12|448=007|447=C|452=1|10=122|
8=FIX.4.4|9=60|35=0|34=11|49=010|50=010BWN|52=20190625-16:03:18.306|56=EXC|10=148|
8=FIX.4.4|9=0050|35=0|34=13|49=EXC|56=010|52=20190627-16:03:46.000|10=212|
8=FIX.4.4|9=60|35=0|34=12|49=010|50=010BWN|52=20190625-16:03:48.305|56=EXC|10=151|
8=FIX.4.4|9=0050|35=0|34=14|49=EXC|56=010|52=20190627-16:04:16.000|10=211|
8=FIX.4.4|9=60|35=0|34=13|49=010|50=010BWN|52=20190625-16:04:18.305|56=EXC|10=150|
8=FIX.4.4|9=0192|35=R|34=15|49=EXC|56=010|52=20190627-16:04:22.310|131=20190627-000000000025.00|146=1|55=TFIC14280426|762=RFQF|48=20602|22=M|54=1|38=500000000|453=2|448=001B27|447=C|452=12|448=001|447=C|452=1|10=209|
8=FIX.4.4|9=60|35=0|34=14|49=010|50=010BWN|52=20190625-16:04:48.306|56=EXC|10=155|
8=FIX.4.4|9=0226|35=R|34=16|49=EXC|56=010|57=010BWN|52=20190627-16:04:51.625|131=20190627-000000000026.01|146=1|55=TFIT16180930|762=RFQF|48=20355|22=M|54=1|38=500000000|453=3|448=001B27|447=C|452=12|448=001|447=C|452=1|448=010BWN|447=C|452=37|10=208|
8=FIX.4.4|9=60|35=0|34=15|49=010|50=010BWN|52=20190625-16:05:18.304|56=EXC|10=152|
8=FIX.4.4|9=0050|35=0|34=17|49=EXC|56=010|52=20190627-16:05:21.000|10=211|
8=FIX.4.4|9=0226|35=R|34=18|49=EXC|56=010|57=010BWN|52=20190627-16:05:26.295|131=20190627-000000000027.01|146=1|55=TFIT16240724|762=RFQF|48=20392|22=M|54=2|38=500000000|453=3|448=007B26|447=C|452=12|448=007|447=C|452=1|448=010BWN|447=C|452=37|10=228|
8=FIX.4.4|9=60|35=0|34=16|49=010|50=010BWN|52=20190625-16:05:48.305|56=EXC|10=157|
8=FIX.4.4|9=0050|35=0|34=19|49=EXC|56=010|52=20190627-16:05:56.000|10=221|
8=FIX.4.4|9=60|35=5|34=17|49=010|50=010BWN|52=20190625-16:06:06.306|56=EXC|10=159|
8=FIX.4.4|9=0050|35=5|34=20|49=EXC|56=010|52=20190627-16:06:06.299|10=234|
