8=FIX.4.4|9=110|35=A|34=1|49=037|50=037B18|52=20190806-20:00:10.353|56=EXC|43=N|98=0|108=30|141=Y|553=037FCM001|554=037FCM001|10=091|
8=FIX.4.4|9=0067|35=A|34=1|49=EXC|56=037|52=20190806-20:01:03.663|98=0|108=30|141=Y|10=009|
8=FIX.4.4|9=110|35=A|34=1|49=037|50=037B18|52=20190806-20:06:52.192|56=EXC|43=N|98=0|108=30|141=Y|553=037FCM001|554=037FCM001|10=104|
8=FIX.4.4|9=0067|35=A|34=1|49=EXC|56=037|52=20190806-20:07:45.494|98=0|108=30|141=Y|10=023|
8=FIX.4.4|9=110|35=A|34=1|49=037|50=037B18|52=20190806-20:12:53.139|56=EXC|43=N|98=0|108=30|141=Y|553=037FCM001|554=037FCM001|10=103|
8=FIX.4.4|9=0067|35=A|34=1|49=EXC|56=037|52=20190806-20:13:46.437|98=0|108=30|141=Y|10=018|
8=FIX.4.4|9=110|35=A|34=1|49=037|50=037B18|52=20190806-21:41:14.899|56=EXC|43=N|98=0|108=30|141=Y|553=037FCM001|554=037FCM001|10=116|
8=FIX.4.4|9=0067|35=A|34=1|49=EXC|56=037|52=20190806-16:08:56.285|98=0|108=30|141=Y|10=029|
