8=FIX.4.4|9=110|35=A|34=1|49=002|50=002B35|52=20190528-15:22:28.735|56=EXC|43=Y|98=0|108=30|141=Y|553=002FCM001|554=002FCM001|10=091|
8=FIX.4.4|9=0067|35=A|34=1|49=EXC|56=002|52=20190528-15:22:28.794|98=0|108=30|141=Y|10=021|
8=FIX.4.4|9=110|35=A|34=1|49=002|50=002B35|52=20190528-15:24:02.451|56=EXC|43=Y|98=0|108=30|141=Y|553=002FCM001|554=002FCM001|10=080|
8=FIX.4.4|9=0067|35=A|34=1|49=EXC|56=002|52=20190528-15:24:02.524|98=0|108=30|141=Y|10=006|
