8=FIX.4.4|9=110|35=A|34=1|49=013|50=013B17|52=20190528-15:22:28.867|56=EXC|43=Y|98=0|108=30|141=Y|553=018FCM001|554=018FCM001|10=115|
8=FIX.4.4|9=110|35=A|34=1|49=013|50=013B17|52=20190528-15:24:02.581|56=EXC|43=Y|98=0|108=30|141=Y|553=013FCM001|554=013FCM001|10=092|
8=FIX.4.4|9=0067|35=A|34=1|49=EXC|56=013|52=20190528-15:24:02.655|98=0|108=30|141=Y|10=013|
8=FIX.4.4|9=110|35=A|34=1|49=013|50=013B17|52=20190528-20:13:38.186|56=EXC|43=Y|98=0|108=30|141=Y|553=013FCM001|554=013FCM001|10=096|
8=FIX.4.4|9=0067|35=A|34=1|49=EXC|56=013|52=20190528-20:13:38.231|98=0|108=30|141=Y|10=006|
8=FIX.4.4|9=110|35=A|34=1|49=013|50=013B17|52=20190528-20:18:12.441|56=EXC|43=Y|98=0|108=30|141=Y|553=013FCM001|554=013FCM001|10=087|
8=FIX.4.4|9=0067|35=A|34=1|49=EXC|56=013|52=20190528-20:18:12.494|98=0|108=30|141=Y|10=014|
8=FIX.4.4|9=110|35=A|34=1|49=013|50=013B17|52=20190528-20:54:13.294|56=EXC|43=Y|98=0|108=30|141=Y|553=013FCM001|554=013FCM001|10=094|
8=FIX.4.4|9=0067|35=A|34=1|49=EXC|56=013|52=20190528-20:54:13.386|98=0|108=30|141=Y|10=015|
8=FIX.4.4|9=110|35=A|34=1|49=013|50=013B17|52=20190528-23:51:53.728|56=EXC|43=Y|98=0|108=30|141=Y|553=013FCM001|554=013FCM001|10=100|
8=FIX.4.4|9=0067|35=A|34=1|49=EXC|56=013|52=20190528-23:51:53.457|98=0|108=30|141=Y|10=018|
8=FIX.4.4|9=0049|35=0|34=2|49=EXC|56=013|52=20190528-23:52:23.000|10=170|
8=FIX.4.4|9=59|35=0|34=2|49=013|50=013B17|52=20190528-23:52:24.682|56=EXC|10=061|
8=FIX.4.4|9=110|35=A|34=1|49=013|50=013B17|52=20190529-00:03:20.547|56=EXC|43=Y|98=0|108=30|141=Y|553=013FCM001|554=013FCM001|10=086|
8=FIX.4.4|9=0067|35=A|34=1|49=EXC|56=013|52=20190529-00:03:20.266|98=0|108=30|141=Y|10=003|
8=FIX.4.4|9=0049|35=0|34=2|49=EXC|56=013|52=20190529-00:03:50.000|10=162|
8=FIX.4.4|9=59|35=0|34=2|49=013|50=013B17|52=20190529-00:03:51.367|56=EXC|10=053|
8=FIX.4.4|9=0049|35=0|34=3|49=EXC|56=013|52=20190529-00:04:20.000|10=161|
8=FIX.4.4|9=59|35=0|34=3|49=013|50=013B17|52=20190529-00:04:21.395|56=EXC|10=053|
8=FIX.4.4|9=110|35=A|34=1|49=013|50=013B17|52=20190529-00:09:25.985|56=EXC|43=Y|98=0|108=30|141=Y|553=013FCM001|554=013FCM001|10=103|
8=FIX.4.4|9=0067|35=A|34=1|49=EXC|56=013|52=20190529-00:09:25.692|98=0|108=30|141=Y|10=017|
8=FIX.4.4|9=0049|35=0|34=2|49=EXC|56=013|52=20190529-00:09:55.000|10=173|
8=FIX.4.4|9=59|35=0|34=2|49=013|50=013B17|52=20190529-00:09:56.956|56=EXC|10=068|
8=FIX.4.4|9=0049|35=0|34=3|49=EXC|56=013|52=20190529-00:10:25.000|10=163|
8=FIX.4.4|9=59|35=0|34=3|49=013|50=013B17|52=20190529-00:10:26.955|56=EXC|10=057|
8=FIX.4.4|9=110|35=A|34=1|49=013|50=013B17|52=20190529-00:10:49.199|56=EXC|43=Y|98=0|108=30|141=Y|553=013FCM001|554=013FCM001|10=098|
8=FIX.4.4|9=0067|35=A|34=1|49=EXC|56=013|52=20190529-00:10:48.907|98=0|108=30|141=Y|10=013|
8=FIX.4.4|9=0049|35=0|34=2|49=EXC|56=013|52=20190529-00:11:18.000|10=165|
8=FIX.4.4|9=59|35=0|34=2|49=013|50=013B17|52=20190529-00:11:20.141|56=EXC|10=038|
8=FIX.4.4|9=0049|35=0|34=3|49=EXC|56=013|52=20190529-00:11:48.000|10=169|
8=FIX.4.4|9=59|35=0|34=3|49=013|50=013B17|52=20190529-00:11:50.141|56=EXC|10=042|
8=FIX.4.4|9=0049|35=0|34=4|49=EXC|56=013|52=20190529-00:12:18.000|10=168|
8=FIX.4.4|9=59|35=0|34=4|49=013|50=013B17|52=20190529-00:12:20.147|56=EXC|10=047|
8=FIX.4.4|9=0049|35=0|34=5|49=EXC|56=013|52=20190529-00:12:48.000|10=172|
8=FIX.4.4|9=59|35=0|34=5|49=013|50=013B17|52=20190529-00:12:50.140|56=EXC|10=044|
8=FIX.4.4|9=110|35=A|34=1|49=013|50=013B17|52=20190529-00:14:06.791|56=EXC|43=Y|98=0|108=30|141=Y|553=013FCM001|554=013FCM001|10=093|
8=FIX.4.4|9=0067|35=A|34=1|49=EXC|56=013|52=20190529-00:14:06.497|98=0|108=30|141=Y|10=015|
8=FIX.4.4|9=0049|35=0|34=2|49=EXC|56=013|52=20190529-00:14:36.000|10=168|
8=FIX.4.4|9=59|35=0|34=2|49=013|50=013B17|52=20190529-00:14:37.746|56=EXC|10=060|
8=FIX.4.4|9=0049|35=0|34=3|49=EXC|56=013|52=20190529-00:15:06.000|10=167|
8=FIX.4.4|9=59|35=0|34=3|49=013|50=013B17|52=20190529-00:15:07.746|56=EXC|10=059|
8=FIX.4.4|9=110|35=A|34=1|49=013|50=013B17|52=20190529-00:16:05.365|56=EXC|43=Y|98=0|108=30|141=Y|553=013FCM001|554=013FCM001|10=091|
8=FIX.4.4|9=0067|35=A|34=1|49=EXC|56=013|52=20190529-00:16:04.812|98=0|108=30|141=Y|10=006|
8=FIX.4.4|9=0049|35=0|34=2|49=EXC|56=013|52=20190529-00:16:34.000|10=168|
8=FIX.4.4|9=59|35=0|34=2|49=013|50=013B17|52=20190529-00:16:36.339|56=EXC|10=059|
8=FIX.4.4|9=0049|35=0|34=3|49=EXC|56=013|52=20190529-00:17:04.000|10=167|
8=FIX.4.4|9=59|35=0|34=3|49=013|50=013B17|52=20190529-00:17:06.336|56=EXC|10=055|
8=FIX.4.4|9=0049|35=0|34=4|49=EXC|56=013|52=20190529-00:17:34.000|10=171|
8=FIX.4.4|9=59|35=0|34=4|49=013|50=013B17|52=20190529-00:17:36.337|56=EXC|10=060|
8=FIX.4.4|9=0049|35=0|34=5|49=EXC|56=013|52=20190529-00:18:04.000|10=170|
8=FIX.4.4|9=59|35=0|34=5|49=013|50=013B17|52=20190529-00:18:06.337|56=EXC|10=059|
8=FIX.4.4|9=0049|35=0|34=6|49=EXC|56=013|52=20190529-00:18:34.000|10=174|
8=FIX.4.4|9=59|35=0|34=6|49=013|50=013B17|52=20190529-00:18:36.336|56=EXC|10=062|
8=FIX.4.4|9=0049|35=0|34=7|49=EXC|56=013|52=20190529-00:19:04.000|10=173|
8=FIX.4.4|9=59|35=0|34=7|49=013|50=013B17|52=20190529-00:19:06.337|56=EXC|10=062|
8=FIX.4.4|9=110|35=A|34=1|49=013|50=013B17|52=20190529-00:19:57.317|56=EXC|43=Y|98=0|108=30|141=Y|553=013FCM001|554=013FCM001|10=098|
8=FIX.4.4|9=0067|35=A|34=1|49=EXC|56=013|52=20190529-00:19:56.759|98=0|108=30|141=Y|10=026|
8=FIX.4.4|9=0049|35=0|34=2|49=EXC|56=013|52=20190529-00:20:26.000|10=164|
8=FIX.4.4|9=59|35=0|34=2|49=013|50=013B17|52=20190529-00:20:28.268|56=EXC|10=056|
8=FIX.4.4|9=0049|35=0|34=3|49=EXC|56=013|52=20190529-00:20:56.000|10=168|
8=FIX.4.4|9=59|35=0|34=3|49=013|50=013B17|52=20190529-00:20:58.268|56=EXC|10=060|
8=FIX.4.4|9=110|35=A|34=1|49=013|50=013B17|52=20190529-00:22:19.697|56=EXC|43=Y|98=0|108=30|141=Y|553=013FCM001|554=013FCM001|10=101|
8=FIX.4.4|9=0067|35=A|34=1|49=EXC|56=013|52=20190529-00:22:19.134|98=0|108=30|141=Y|10=006|
8=FIX.4.4|9=110|35=A|34=1|49=013|50=013B17|52=20190529-00:23:37.194|56=EXC|43=Y|98=0|108=30|141=Y|553=013FCM001|554=013FCM001|10=094|
8=FIX.4.4|9=0067|35=A|34=1|49=EXC|56=013|52=20190529-00:23:36.632|98=0|108=30|141=Y|10=009|
8=FIX.4.4|9=0049|35=0|34=2|49=EXC|56=013|52=20190529-00:24:06.000|10=166|
8=FIX.4.4|9=59|35=0|34=2|49=013|50=013B17|52=20190529-00:24:08.115|56=EXC|10=049|
8=FIX.4.4|9=0049|35=0|34=3|49=EXC|56=013|52=20190529-00:24:36.000|10=170|
8=FIX.4.4|9=59|35=0|34=3|49=013|50=013B17|52=20190529-00:24:38.116|56=EXC|10=054|
8=FIX.4.4|9=0049|35=0|34=4|49=EXC|56=013|52=20190529-00:25:06.000|10=169|
8=FIX.4.4|9=59|35=0|34=4|49=013|50=013B17|52=20190529-00:25:08.115|56=EXC|10=052|
8=FIX.4.4|9=110|35=A|34=1|49=013|50=013B17|52=20190529-00:25:31.845|56=EXC|43=Y|98=0|108=30|141=Y|553=013FCM001|554=013FCM001|10=093|
8=FIX.4.4|9=0067|35=A|34=1|49=EXC|56=013|52=20190529-00:25:31.285|98=0|108=30|141=Y|10=010|
8=FIX.4.4|9=110|35=A|34=1|49=013|50=013B17|52=20190529-00:31:10.196|56=EXC|43=Y|98=0|108=30|141=Y|553=013FCM001|554=013FCM001|10=086|
8=FIX.4.4|9=0067|35=A|34=1|49=EXC|56=013|52=20190529-00:31:09.628|98=0|108=30|141=Y|10=013|
8=FIX.4.4|9=110|35=A|34=1|49=013|50=013B17|52=20190529-00:34:01.837|56=EXC|43=Y|98=0|108=30|141=Y|553=013FCM001|554=013FCM001|10=091|
8=FIX.4.4|9=0067|35=A|34=1|49=EXC|56=013|52=20190529-00:34:01.269|98=0|108=30|141=Y|10=009|
8=FIX.4.4|9=0049|35=0|34=2|49=EXC|56=013|52=20190529-00:34:31.000|10=165|
8=FIX.4.4|9=59|35=0|34=2|49=013|50=013B17|52=20190529-00:34:32.771|56=EXC|10=055|
8=FIX.4.4|9=0049|35=0|34=3|49=EXC|56=013|52=20190529-00:35:01.000|10=164|
8=FIX.4.4|9=59|35=0|34=3|49=013|50=013B17|52=20190529-00:35:02.771|56=EXC|10=054|
8=FIX.4.4|9=110|35=A|34=1|49=013|50=013B17|52=20190529-00:35:21.224|56=EXC|43=Y|98=0|108=30|141=Y|553=013FCM001|554=013FCM001|10=084|
8=FIX.4.4|9=0067|35=A|34=1|49=EXC|56=013|52=20190529-00:35:20.653|98=0|108=30|141=Y|10=008|
8=FIX.4.4|9=110|35=A|34=1|49=013|50=013B17|52=20190529-00:35:58.976|56=EXC|43=Y|98=0|108=30|141=Y|553=013FCM001|554=013FCM001|10=108|
8=FIX.4.4|9=0067|35=A|34=1|49=EXC|56=013|52=20190529-00:35:58.407|98=0|108=30|141=Y|10=016|
8=FIX.4.4|9=0049|35=0|34=2|49=EXC|56=013|52=20190529-00:36:28.000|10=173|
8=FIX.4.4|9=59|35=0|34=2|49=013|50=013B17|52=20190529-00:36:29.942|56=EXC|10=063|
8=FIX.4.4|9=110|35=A|34=1|49=013|50=013B17|52=20190529-00:37:56.546|56=EXC|43=Y|98=0|108=30|141=Y|553=013FCM001|554=013FCM001|10=101|
8=FIX.4.4|9=0067|35=A|34=1|49=EXC|56=013|52=20190529-00:37:55.972|98=0|108=30|141=Y|10=022|
8=FIX.4.4|9=0049|35=0|34=2|49=EXC|56=013|52=20190529-00:38:25.000|10=172|
8=FIX.4.4|9=59|35=0|34=2|49=013|50=013B17|52=20190529-00:38:27.516|56=EXC|10=060|
8=FIX.4.4|9=0049|35=0|34=3|49=EXC|56=013|52=20190529-00:38:55.000|10=176|
8=FIX.4.4|9=59|35=0|34=3|49=013|50=013B17|52=20190529-00:38:57.514|56=EXC|10=062|
8=FIX.4.4|9=0049|35=0|34=4|49=EXC|56=013|52=20190529-00:39:25.000|10=175|
8=FIX.4.4|9=59|35=0|34=4|49=013|50=013B17|52=20190529-00:39:27.514|56=EXC|10=061|
8=FIX.4.4|9=110|35=A|34=1|49=013|50=013B17|52=20190529-00:39:46.085|56=EXC|43=Y|98=0|108=30|141=Y|553=013FCM001|554=013FCM001|10=100|
8=FIX.4.4|9=0067|35=A|34=1|49=EXC|56=013|52=20190529-00:39:45.509|98=0|108=30|141=Y|10=019|
8=FIX.4.4|9=0049|35=0|34=2|49=EXC|56=013|52=20190529-00:40:15.000|10=164|
8=FIX.4.4|9=59|35=0|34=2|49=013|50=013B17|52=20190529-00:40:17.055|56=EXC|10=050|
8=FIX.4.4|9=110|35=A|34=1|49=013|50=013B17|52=20190529-00:47:49.124|56=EXC|43=Y|98=0|108=30|141=Y|553=013FCM001|554=013FCM001|10=096|
8=FIX.4.4|9=0067|35=A|34=1|49=EXC|56=013|52=20190529-00:47:48.541|98=0|108=30|141=Y|10=017|
8=FIX.4.4|9=0049|35=0|34=2|49=EXC|56=013|52=20190529-00:48:18.000|10=175|
8=FIX.4.4|9=59|35=0|34=2|49=013|50=013B17|52=20190529-00:48:20.088|56=EXC|10=058|
8=FIX.4.4|9=0049|35=0|34=3|49=EXC|56=013|52=20190529-00:48:48.000|10=179|
8=FIX.4.4|9=59|35=0|34=3|49=013|50=013B17|52=20190529-00:48:50.089|56=EXC|10=063|
8=FIX.4.4|9=0049|35=0|34=4|49=EXC|56=013|52=20190529-00:49:18.000|10=178|
8=FIX.4.4|9=59|35=0|34=4|49=013|50=013B17|52=20190529-00:49:20.088|56=EXC|10=061|
8=FIX.4.4|9=0049|35=0|34=5|49=EXC|56=013|52=20190529-00:49:48.000|10=182|
8=FIX.4.4|9=59|35=0|34=5|49=013|50=013B17|52=20190529-00:49:50.087|56=EXC|10=064|
8=FIX.4.4|9=110|35=A|34=1|49=013|50=013B17|52=20190529-00:56:22.277|56=EXC|43=Y|98=0|108=30|141=Y|553=013FCM001|554=013FCM001|10=096|
8=FIX.4.4|9=0067|35=A|34=1|49=EXC|56=013|52=20190529-00:56:21.945|98=0|108=30|141=Y|10=016|
8=FIX.4.4|9=110|35=A|34=1|49=013|50=013B17|52=20190529-01:03:31.807|56=EXC|43=Y|98=0|108=30|141=Y|553=013FCM001|554=013FCM001|10=088|
8=FIX.4.4|9=0067|35=A|34=1|49=EXC|56=013|52=20190529-01:03:31.470|98=0|108=30|141=Y|10=003|
8=FIX.4.4|9=110|35=A|34=1|49=013|50=013B17|52=20190529-01:11:49.789|56=EXC|43=Y|98=0|108=30|141=Y|553=013FCM001|554=013FCM001|10=105|
8=FIX.4.4|9=0067|35=A|34=1|49=EXC|56=013|52=20190529-01:11:49.474|98=0|108=30|141=Y|10=015|
8=FIX.4.4|9=0049|35=0|34=2|49=EXC|56=013|52=20190529-01:12:19.000|10=168|
8=FIX.4.4|9=59|35=0|34=2|49=013|50=013B17|52=20190529-01:12:20.771|56=EXC|10=049|
8=FIX.4.4|9=0049|35=0|34=3|49=EXC|56=013|52=20190529-01:12:49.000|10=172|
8=FIX.4.4|9=59|35=0|34=3|49=013|50=013B17|52=20190529-01:12:50.766|56=EXC|10=057|
8=FIX.4.4|9=0049|35=0|34=4|49=EXC|56=013|52=20190529-01:13:19.000|10=171|
8=FIX.4.4|9=59|35=0|34=4|49=013|50=013B17|52=20190529-01:13:20.766|56=EXC|10=056|
8=FIX.4.4|9=110|35=A|34=1|49=013|50=013B17|52=20190529-01:25:40.635|56=EXC|43=Y|98=0|108=30|141=Y|553=013FCM001|554=013FCM001|10=091|
8=FIX.4.4|9=0067|35=A|34=1|49=EXC|56=013|52=20190529-01:25:40.302|98=0|108=30|141=Y|10=001|
8=FIX.4.4|9=0049|35=0|34=2|49=EXC|56=013|52=20190529-01:26:10.000|10=164|
8=FIX.4.4|9=59|35=0|34=2|49=013|50=013B17|52=20190529-01:26:11.621|56=EXC|10=048|
8=FIX.4.4|9=110|35=A|34=1|49=013|50=013B17|52=20190529-01:30:10.012|56=EXC|43=Y|98=0|108=30|141=Y|553=013FCM001|554=013FCM001|10=073|
8=FIX.4.4|9=0067|35=A|34=1|49=EXC|56=013|52=20190529-01:30:09.680|98=0|108=30|141=Y|10=011|
8=FIX.4.4|9=0049|35=0|34=2|49=EXC|56=013|52=20190529-01:30:39.000|10=170|
8=FIX.4.4|9=59|35=0|34=2|49=013|50=013B17|52=20190529-01:30:40.980|56=EXC|10=053|
8=FIX.4.4|9=110|35=A|34=1|49=013|50=013B17|52=20190529-12:21:50.166|56=EXC|43=Y|98=0|108=30|141=Y|553=013FCM001|554=013FCM001|10=089|
8=FIX.4.4|9=0067|35=A|34=1|49=EXC|56=013|52=20190529-12:21:50.700|98=0|108=30|141=Y|10=002|
8=FIX.4.4|9=110|35=A|34=1|49=013|50=013B17|52=20190529-12:27:22.362|56=EXC|43=Y|98=0|108=30|141=Y|553=013FCM001|554=013FCM001|10=092|
8=FIX.4.4|9=0067|35=A|34=1|49=EXC|56=013|52=20190529-12:27:22.441|98=0|108=30|141=Y|10=009|
8=FIX.4.4|9=110|35=A|34=1|49=013|50=013B17|52=20190529-12:31:25.101|56=EXC|43=Y|98=0|108=30|141=Y|553=013FCM001|554=013FCM001|10=081|
8=FIX.4.4|9=0067|35=A|34=1|49=EXC|56=013|52=20190529-12:31:25.135|98=0|108=30|141=Y|10=007|
8=FIX.4.4|9=110|35=A|34=1|49=013|50=013B17|52=20190529-12:48:24.843|56=EXC|43=Y|98=0|108=30|141=Y|553=013FCM001|554=013FCM001|10=101|
8=FIX.4.4|9=0067|35=A|34=1|49=EXC|56=013|52=20190529-12:48:24.893|98=0|108=30|141=Y|10=025|
8=FIX.4.4|9=110|35=A|34=1|49=013|50=013B17|52=20190529-12:50:53.528|56=EXC|43=Y|98=0|108=30|141=Y|553=013FCM001|554=013FCM001|10=096|
8=FIX.4.4|9=0067|35=A|34=1|49=EXC|56=013|52=20190529-12:50:53.568|98=0|108=30|141=Y|10=019|
8=FIX.4.4|9=110|35=A|34=1|49=013|50=013B17|52=20190529-12:55:50.960|56=EXC|43=Y|98=0|108=30|141=Y|553=013FCM001|554=013FCM001|10=098|
8=FIX.4.4|9=0067|35=A|34=1|49=EXC|56=013|52=20190529-12:55:51.009|98=0|108=30|141=Y|10=012|
8=FIX.4.4|9=110|35=A|34=1|49=013|50=013B17|52=20190529-12:57:08.601|56=EXC|43=Y|98=0|108=30|141=Y|553=013FCM001|554=013FCM001|10=095|
8=FIX.4.4|9=0067|35=A|34=1|49=EXC|56=013|52=20190529-12:57:08.640|98=0|108=30|141=Y|10=017|
8=FIX.4.4|9=110|35=A|34=1|49=013|50=013B17|52=20190529-13:10:55.585|56=EXC|43=Y|98=0|108=30|141=Y|553=013FCM001|554=013FCM001|10=098|
8=FIX.4.4|9=0067|35=A|34=1|49=EXC|56=013|52=20190529-13:10:55.632|98=0|108=30|141=Y|10=010|
8=FIX.4.4|9=110|35=A|34=1|49=013|50=013B17|52=20190529-13:47:13.270|56=EXC|43=Y|98=0|108=30|141=Y|553=013FCM001|554=013FCM001|10=093|
8=FIX.4.4|9=0067|35=A|34=1|49=EXC|56=013|52=20190529-13:47:13.000|98=0|108=30|141=Y|10=003|
8=FIX.4.4|9=110|35=A|34=1|49=013|50=013B17|52=20190529-13:51:04.843|56=EXC|43=Y|98=0|108=30|141=Y|553=013FCM001|554=013FCM001|10=094|
8=FIX.4.4|9=0067|35=A|34=1|49=EXC|56=013|52=20190529-13:51:04.576|98=0|108=30|141=Y|10=016|
8=FIX.4.4|9=110|35=A|34=1|49=013|50=013B17|52=20190529-13:58:02.527|56=EXC|43=Y|98=0|108=30|141=Y|553=013FCM001|554=013FCM001|10=098|
8=FIX.4.4|9=0067|35=A|34=1|49=EXC|56=013|52=20190529-13:58:02.246|98=0|108=30|141=Y|10=015|
8=FIX.4.4|9=0049|35=0|34=2|49=EXC|56=013|52=20190529-13:58:32.000|10=176|
8=FIX.4.4|9=59|35=0|34=2|49=013|50=013B17|52=20190529-13:58:33.516|56=EXC|10=063|
8=FIX.4.4|9=0049|35=0|34=3|49=EXC|56=013|52=20190529-13:59:02.000|10=175|
8=FIX.4.4|9=59|35=0|34=3|49=013|50=013B17|52=20190529-13:59:03.514|56=EXC|10=060|
8=FIX.4.4|9=110|35=A|34=1|49=013|50=013B17|52=20190529-13:59:42.756|56=EXC|43=Y|98=0|108=30|141=Y|553=013FCM001|554=013FCM001|10=107|
8=FIX.4.4|9=0067|35=A|34=1|49=EXC|56=013|52=20190529-13:59:42.459|98=0|108=30|141=Y|10=026|
8=FIX.4.4|9=0049|35=0|34=2|49=EXC|56=013|52=20190529-14:00:12.000|10=162|
8=FIX.4.4|9=59|35=0|34=2|49=013|50=013B17|52=20190529-14:00:13.636|56=EXC|10=052|
8=FIX.4.4|9=0049|35=0|34=3|49=EXC|56=013|52=20190529-14:00:42.000|10=166|
8=FIX.4.4|9=59|35=0|34=3|49=013|50=013B17|52=20190529-14:00:43.645|56=EXC|10=056|
8=FIX.4.4|9=0049|35=0|34=4|49=EXC|56=013|52=20190529-14:01:12.000|10=165|
8=FIX.4.4|9=59|35=0|34=4|49=013|50=013B17|52=20190529-14:01:13.643|56=EXC|10=053|
8=FIX.4.4|9=0049|35=0|34=5|49=EXC|56=013|52=20190529-14:01:42.000|10=169|
8=FIX.4.4|9=59|35=0|34=5|49=013|50=013B17|52=20190529-14:01:43.641|56=EXC|10=055|
8=FIX.4.4|9=0049|35=0|34=6|49=EXC|56=013|52=20190529-14:02:12.000|10=168|
8=FIX.4.4|9=59|35=0|34=6|49=013|50=013B17|52=20190529-14:02:13.634|56=EXC|10=056|
8=FIX.4.4|9=0049|35=0|34=7|49=EXC|56=013|52=20190529-14:02:42.000|10=172|
8=FIX.4.4|9=59|35=0|34=7|49=013|50=013B17|52=20190529-14:02:43.636|56=EXC|10=062|
8=FIX.4.4|9=0049|35=0|34=8|49=EXC|56=013|52=20190529-14:03:12.000|10=171|
8=FIX.4.4|9=59|35=0|34=8|49=013|50=013B17|52=20190529-14:03:13.637|56=EXC|10=062|
8=FIX.4.4|9=110|35=A|34=1|49=013|50=013B17|52=20190529-14:04:08.583|56=EXC|43=Y|98=0|108=30|141=Y|553=013FCM001|554=013FCM001|10=098|
8=FIX.4.4|9=0067|35=A|34=1|49=EXC|56=013|52=20190529-14:04:08.296|98=0|108=30|141=Y|10=018|
8=FIX.4.4|9=0049|35=0|34=2|49=EXC|56=013|52=20190529-14:04:38.000|10=174|
8=FIX.4.4|9=59|35=0|34=2|49=013|50=013B17|52=20190529-14:04:39.568|56=EXC|10=068|
8=FIX.4.4|9=110|35=A|34=1|49=013|50=013B17|52=20190529-14:20:38.763|56=EXC|43=Y|98=0|108=30|141=Y|553=013FCM001|554=013FCM001|10=099|
8=FIX.4.4|9=0067|35=A|34=1|49=EXC|56=013|52=20190529-14:20:38.803|98=0|108=30|141=Y|10=013|
8=FIX.4.4|9=110|35=A|34=1|49=013|50=013B17|52=20190529-14:25:56.832|56=EXC|43=Y|98=0|108=30|141=Y|553=013FCM001|554=013FCM001|10=101|
8=FIX.4.4|9=0067|35=A|34=1|49=EXC|56=013|52=20190529-14:25:56.840|98=0|108=30|141=Y|10=019|
8=FIX.4.4|9=110|35=A|34=1|49=013|50=013B17|52=20190529-14:27:38.118|56=EXC|43=Y|98=0|108=30|141=Y|553=013FCM001|554=013FCM001|10=100|
8=FIX.4.4|9=0067|35=A|34=1|49=EXC|56=013|52=20190529-14:27:38.140|98=0|108=30|141=Y|10=014|
8=FIX.4.4|9=110|35=A|34=1|49=013|50=013B17|52=20190529-22:51:44.782|56=EXC|43=Y|98=0|108=30|141=Y|553=013FCM001|554=013FCM001|10=100|
8=FIX.4.4|9=0067|35=A|34=1|49=EXC|56=013|52=20190529-22:51:41.109|98=0|108=30|141=Y|10=009|
8=FIX.4.4|9=110|35=A|34=1|49=013|50=013B17|52=20190529-22:53:12.316|56=EXC|43=Y|98=0|108=30|141=Y|553=013FCM001|554=013FCM001|10=090|
8=FIX.4.4|9=0067|35=A|34=1|49=EXC|56=013|52=20190529-22:53:08.648|98=0|108=30|141=Y|10=022|
8=FIX.4.4|9=110|35=A|34=1|49=013|50=013B17|52=20190529-22:55:38.509|56=EXC|43=Y|98=0|108=30|141=Y|553=013FCM001|554=013FCM001|10=104|
8=FIX.4.4|9=0067|35=A|34=1|49=EXC|56=013|52=20190529-22:55:34.857|98=0|108=30|141=Y|10=025|
8=FIX.4.4|9=59|35=0|34=2|49=013|50=013B17|52=20190529-22:56:09.141|56=EXC|10=058|
8=FIX.4.4|9=0049|35=0|34=2|49=EXC|56=013|52=20190529-22:56:04.000|10=173|
8=FIX.4.4|9=0049|35=0|34=3|49=EXC|56=013|52=20190529-22:56:34.000|10=177|
8=FIX.4.4|9=59|35=0|34=3|49=013|50=013B17|52=20190529-22:56:39.142|56=EXC|10=063|
8=FIX.4.4|9=59|35=0|34=4|49=013|50=013B17|52=20190529-22:57:09.154|56=EXC|10=065|
8=FIX.4.4|9=0049|35=0|34=4|49=EXC|56=013|52=20190529-22:57:04.000|10=176|
8=FIX.4.4|9=0049|35=0|34=5|49=EXC|56=013|52=20190529-22:57:34.000|10=180|
8=FIX.4.4|9=59|35=0|34=5|49=013|50=013B17|52=20190529-22:57:40.140|56=EXC|10=056|
