8=FIX.4.4|9=105|35=A|34=1|49=001|50=001B27|52=20190611-22:57:17.703|56=EXC|98=0|108=30|141=Y|553=001FCM001|554=001FCM001|10=086|
8=FIX.4.4|9=0067|35=A|34=1|49=EXC|56=001|52=20190611-22:57:17.710|98=0|108=30|141=Y|10=005|
8=FIX.4.4|9=0192|35=R|34=2|49=EXC|56=001|52=20190611-22:57:20.236|131=20190611-000000000020.00|146=1|55=TFIT15260826|762=RFQF|48=20348|22=M|54=1|38=1500000000|453=2|448=007B26|447=C|452=12|448=007|447=C|452=1|10=235|
8=FIX.4.4|9=0183|35=R|34=3|49=EXC|56=001|52=20190611-22:57:36.663|131=20190611-000000000020.00|146=1|55=TFIT15260826|762=RFQF|48=20348|22=M|54=1|38=0|453=2|448=007B26|447=C|452=12|448=007|447=C|452=1|10=065|
8=FIX.4.4|9=59|35=0|34=2|49=001|50=001B27|52=20190611-22:57:48.669|56=EXC|10=064|
8=FIX.4.4|9=0049|35=0|34=4|49=EXC|56=001|52=20190611-22:58:06.000|10=168|
8=FIX.4.4|9=59|35=0|34=3|49=001|50=001B27|52=20190611-22:58:18.663|56=EXC|10=057|
8=FIX.4.4|9=0049|35=0|34=5|49=EXC|56=001|52=20190611-22:58:36.000|10=172|
8=FIX.4.4|9=59|35=0|34=4|49=001|50=001B27|52=20190611-22:58:48.662|56=EXC|10=060|
8=FIX.4.4|9=0049|35=0|34=6|49=EXC|56=001|52=20190611-22:59:06.000|10=171|
8=FIX.4.4|9=59|35=0|34=5|49=001|50=001B27|52=20190611-22:59:18.673|56=EXC|10=061|
8=FIX.4.4|9=0049|35=0|34=7|49=EXC|56=001|52=20190611-22:59:36.000|10=175|
8=FIX.4.4|9=59|35=0|34=6|49=001|50=001B27|52=20190611-22:59:48.668|56=EXC|10=069|
8=FIX.4.4|9=0049|35=0|34=8|49=EXC|56=001|52=20190611-23:00:06.000|10=160|
8=FIX.4.4|9=59|35=0|34=7|49=001|50=001B27|52=20190611-23:00:18.667|56=EXC|10=053|
8=FIX.4.4|9=105|35=A|34=1|49=001|50=001B27|52=20190611-23:00:57.074|56=EXC|98=0|108=30|141=Y|553=001FCM001|554=001FCM001|10=080|
8=FIX.4.4|9=0067|35=A|34=1|49=EXC|56=001|52=20190611-23:00:57.081|98=0|108=30|141=Y|10=255|
8=FIX.4.4|9=0192|35=R|34=2|49=EXC|56=001|52=20190611-23:00:59.613|131=20190611-000000000021.00|146=1|55=TFIT15260826|762=RFQF|48=20348|22=M|54=1|38=1500000000|453=2|448=007B26|447=C|452=12|448=007|447=C|452=1|10=236|
8=FIX.4.4|9=0183|35=R|34=3|49=EXC|56=001|52=20190611-23:01:15.604|131=20190611-000000000021.00|146=1|55=TFIT15260826|762=RFQF|48=20348|22=M|54=1|38=0|453=2|448=007B26|447=C|452=12|448=007|447=C|452=1|10=048|
8=FIX.4.4|9=59|35=0|34=2|49=001|50=001B27|52=20190611-23:01:28.044|56=EXC|10=039|
8=FIX.4.4|9=105|35=A|34=1|49=001|50=001B27|52=20190611-23:03:31.168|56=EXC|98=0|108=30|141=Y|553=001FCM001|554=001FCM001|10=079|
8=FIX.4.4|9=0067|35=A|34=1|49=EXC|56=001|52=20190611-23:03:31.178|98=0|108=30|141=Y|10=001|
8=FIX.4.4|9=0192|35=R|34=2|49=EXC|56=001|52=20190611-23:03:33.644|131=20190611-000000000022.00|146=1|55=TFIT15260826|762=RFQF|48=20348|22=M|54=1|38=1500000000|453=2|448=007B26|447=C|452=12|448=007|447=C|452=1|10=236|
8=FIX.4.4|9=59|35=0|34=2|49=001|50=001B27|52=20190611-23:04:02.131|56=EXC|10=031|
8=FIX.4.4|9=0049|35=0|34=3|49=EXC|56=001|52=20190611-23:04:03.000|10=156|
8=FIX.4.4|9=68|35=1|34=3|49=001|50=001B27|52=20190611-23:04:19.131|56=EXC|112=TEST|10=059|
8=FIX.4.4|9=0058|35=0|34=4|49=EXC|56=001|52=20190611-23:04:19.091|112=TEST|10=192|
8=FIX.4.4|9=0049|35=0|34=5|49=EXC|56=001|52=20190611-23:04:49.000|10=168|
8=FIX.4.4|9=59|35=0|34=4|49=001|50=001B27|52=20190611-23:04:49.126|56=EXC|10=048|
8=FIX.4.4|9=0049|35=0|34=6|49=EXC|56=001|52=20190611-23:05:19.000|10=167|
8=FIX.4.4|9=59|35=0|34=5|49=001|50=001B27|52=20190611-23:05:19.124|56=EXC|10=045|
8=FIX.4.4|9=0049|35=0|34=7|49=EXC|56=001|52=20190611-23:05:49.000|10=171|
8=FIX.4.4|9=59|35=0|34=6|49=001|50=001B27|52=20190611-23:05:49.120|56=EXC|10=045|
8=FIX.4.4|9=0049|35=0|34=8|49=EXC|56=001|52=20190611-23:06:19.000|10=170|
8=FIX.4.4|9=59|35=0|34=7|49=001|50=001B27|52=20190611-23:06:19.125|56=EXC|10=049|
