8=FIX.4.4|9=105|35=A|34=1|49=013|50=013B17|52=20190611-22:57:17.904|56=EXC|98=0|108=30|141=Y|553=013FCM001|554=013FCM001|10=100|
8=FIX.4.4|9=0067|35=A|34=1|49=EXC|56=013|52=20190611-22:57:17.909|98=0|108=30|141=Y|10=018|
8=FIX.4.4|9=0192|35=R|34=2|49=EXC|56=013|52=20190611-22:57:20.236|131=20190611-000000000020.00|146=1|55=TFIT15260826|762=RFQF|48=20348|22=M|54=1|38=1500000000|453=2|448=007B26|447=C|452=12|448=007|447=C|452=1|10=238|
8=FIX.4.4|9=0183|35=R|34=3|49=EXC|56=013|52=20190611-22:57:36.663|131=20190611-000000000020.00|146=1|55=TFIT15260826|762=RFQF|48=20348|22=M|54=1|38=0|453=2|448=007B26|447=C|452=12|448=007|447=C|452=1|10=068|
8=FIX.4.4|9=59|35=0|34=2|49=013|50=013B17|52=20190611-22:57:48.842|56=EXC|10=062|
8=FIX.4.4|9=0049|35=0|34=4|49=EXC|56=013|52=20190611-22:58:06.000|10=171|
8=FIX.4.4|9=59|35=0|34=3|49=013|50=013B17|52=20190611-22:58:18.851|56=EXC|10=061|
8=FIX.4.4|9=0049|35=0|34=5|49=EXC|56=013|52=20190611-22:58:36.000|10=175|
8=FIX.4.4|9=59|35=0|34=4|49=013|50=013B17|52=20190611-22:58:48.849|56=EXC|10=072|
8=FIX.4.4|9=0049|35=0|34=6|49=EXC|56=013|52=20190611-22:59:06.000|10=174|
8=FIX.4.4|9=59|35=0|34=5|49=013|50=013B17|52=20190611-22:59:18.844|56=EXC|10=066|
8=FIX.4.4|9=0049|35=0|34=7|49=EXC|56=013|52=20190611-22:59:36.000|10=178|
8=FIX.4.4|9=59|35=0|34=6|49=013|50=013B17|52=20190611-22:59:48.839|56=EXC|10=074|
8=FIX.4.4|9=0049|35=0|34=8|49=EXC|56=013|52=20190611-23:00:06.000|10=163|
8=FIX.4.4|9=59|35=0|34=7|49=013|50=013B17|52=20190611-23:00:18.854|56=EXC|10=056|
8=FIX.4.4|9=105|35=A|34=1|49=013|50=013B17|52=20190611-23:00:57.273|56=EXC|98=0|108=30|141=Y|553=013FCM001|554=013FCM001|10=092|
8=FIX.4.4|9=0067|35=A|34=1|49=EXC|56=013|52=20190611-23:00:57.281|98=0|108=30|141=Y|10=004|
8=FIX.4.4|9=0192|35=R|34=2|49=EXC|56=013|52=20190611-23:00:59.613|131=20190611-000000000021.00|146=1|55=TFIT15260826|762=RFQF|48=20348|22=M|54=1|38=1500000000|453=2|448=007B26|447=C|452=12|448=007|447=C|452=1|10=239|
8=FIX.4.4|9=0183|35=R|34=3|49=EXC|56=013|52=20190611-23:01:15.604|131=20190611-000000000021.00|146=1|55=TFIT15260826|762=RFQF|48=20348|22=M|54=1|38=0|453=2|448=007B26|447=C|452=12|448=007|447=C|452=1|10=051|
8=FIX.4.4|9=59|35=0|34=2|49=013|50=013B17|52=20190611-23:01:28.215|56=EXC|10=044|
8=FIX.4.4|9=105|35=A|34=1|49=013|50=013B17|52=20190611-23:03:31.361|56=EXC|98=0|108=30|141=Y|553=013FCM001|554=013FCM001|10=085|
8=FIX.4.4|9=0067|35=A|34=1|49=EXC|56=013|52=20190611-23:03:31.355|98=0|108=30|141=Y|10=001|
8=FIX.4.4|9=0192|35=R|34=2|49=EXC|56=013|52=20190611-23:03:33.644|131=20190611-000000000022.00|146=1|55=TFIT15260826|762=RFQF|48=20348|22=M|54=1|38=1500000000|453=2|448=007B26|447=C|452=12|448=007|447=C|452=1|10=239|
8=FIX.4.4|9=59|35=0|34=2|49=013|50=013B17|52=20190611-23:04:02.284|56=EXC|10=045|
8=FIX.4.4|9=0049|35=0|34=3|49=EXC|56=013|52=20190611-23:04:03.000|10=159|
8=FIX.4.4|9=68|35=1|34=3|49=013|50=013B17|52=20190611-23:04:19.274|56=EXC|112=TEST|10=072|
8=FIX.4.4|9=0058|35=0|34=4|49=EXC|56=013|52=20190611-23:04:19.231|112=TEST|10=191|
8=FIX.4.4|9=105|35=A|34=1|49=013|50=013B17|52=20190611-23:04:47.373|56=EXC|98=0|108=30|141=Y|553=013FCM001|554=013FCM001|10=096|
8=FIX.4.4|9=0067|35=A|34=1|49=EXC|56=013|52=20190611-23:04:47.377|98=0|108=30|141=Y|10=013|
8=FIX.4.4|9=105|35=A|34=1|49=013|50=013B17|52=20190611-23:05:48.302|56=EXC|98=0|108=30|141=Y|553=013FCM001|554=013FCM001|10=090|
8=FIX.4.4|9=0067|35=A|34=1|49=EXC|56=013|52=20190611-23:05:48.292|98=0|108=30|141=Y|10=011|
8=FIX.4.4|9=0049|35=0|34=2|49=EXC|56=013|52=20190611-23:06:18.000|10=166|
8=FIX.4.4|9=59|35=0|34=2|49=013|50=013B17|52=20190611-23:06:19.282|56=EXC|10=053|
