<<<<<<< HEAD
<<<<<<< HEAD
8=FIX.4.4|9=110|35=A|34=1|49=013|50=013B17|52=20190607-14:13:05.174|56=EXC|43=Y|98=0|108=30|141=Y|553=013FCM001|554=013FCM001|10=088|
8=FIX.4.4|9=0067|35=A|34=1|49=EXC|56=013|52=20190607-14:13:05.235|98=0|108=30|141=Y|10=005|
8=FIX.4.4|9=0192|35=R|34=2|49=EXC|56=013|52=20190607-14:13:07.262|131=20190607-000000000012.00|146=1|55=TFIT15260826|762=RFQF|48=20348|22=M|54=1|38=1500000000|453=2|448=001B27|447=C|452=12|448=001|447=C|452=1|10=235|
8=FIX.4.4|9=110|35=A|34=1|49=013|50=013B17|52=20190607-15:35:43.382|56=EXC|43=Y|98=0|108=30|141=Y|553=013FCM001|554=013FCM001|10=096|
8=FIX.4.4|9=0067|35=A|34=1|49=EXC|56=013|52=20190607-15:35:43.442|98=0|108=30|141=Y|10=012|
8=FIX.4.4|9=110|35=A|34=1|49=013|50=013B17|52=20190607-16:16:18.429|56=EXC|43=Y|98=0|108=30|141=Y|553=013FCM001|554=013FCM001|10=100|
8=FIX.4.4|9=0067|35=A|34=1|49=EXC|56=013|52=20190607-16:16:18.497|98=0|108=30|141=Y|10=024|
8=FIX.4.4|9=110|35=A|34=1|49=013|50=013B17|52=20190607-16:39:55.284|56=EXC|43=Y|98=0|108=30|141=Y|553=013FCM001|554=013FCM001|10=105|
8=FIX.4.4|9=0067|35=A|34=1|49=EXC|56=013|52=20190607-16:39:55.323|98=0|108=30|141=Y|10=018|
8=FIX.4.4|9=110|35=A|34=1|49=013|50=013B17|52=20190607-16:43:05.220|56=EXC|43=Y|98=0|108=30|141=Y|553=013FCM001|554=013FCM001|10=085|
8=FIX.4.4|9=0067|35=A|34=1|49=EXC|56=013|52=20190607-16:43:05.252|98=0|108=30|141=Y|10=009|
8=FIX.4.4|9=110|35=A|34=1|49=013|50=013B17|52=20190607-16:44:16.390|56=EXC|43=Y|98=0|108=30|141=Y|553=013FCM001|554=013FCM001|10=096|
8=FIX.4.4|9=0067|35=A|34=1|49=EXC|56=013|52=20190607-16:44:16.421|98=0|108=30|141=Y|10=010|
8=FIX.4.4|9=110|35=A|34=1|49=013|50=013B17|52=20190607-16:47:05.356|56=EXC|43=Y|98=0|108=30|141=Y|553=013FCM001|554=013FCM001|10=099|
8=FIX.4.4|9=0067|35=A|34=1|49=EXC|56=013|52=20190607-16:47:05.394|98=0|108=30|141=Y|10=020|
8=FIX.4.4|9=0192|35=R|34=2|49=EXC|56=013|52=20190607-16:47:07.473|131=20190607-000000000033.00|146=1|55=TFIT15260826|762=RFQF|48=20348|22=M|54=1|38=1500000000|453=2|448=007B26|447=C|452=12|448=007|447=C|452=1|10=006|
8=FIX.4.4|9=110|35=A|34=1|49=013|50=013B17|52=20190607-16:53:12.424|56=EXC|43=Y|98=0|108=30|141=Y|553=013FCM001|554=013FCM001|10=090|
8=FIX.4.4|9=0067|35=A|34=1|49=EXC|56=013|52=20190607-16:53:12.478|98=0|108=30|141=Y|10=018|
8=FIX.4.4|9=110|35=A|34=1|49=013|50=013B17|52=20190607-17:01:26.322|56=EXC|43=Y|98=0|108=30|141=Y|553=013FCM001|554=013FCM001|10=086|
8=FIX.4.4|9=0067|35=A|34=1|49=EXC|56=013|52=20190607-17:01:26.349|98=0|108=30|141=Y|10=014|
8=FIX.4.4|9=0192|35=R|34=2|49=EXC|56=013|52=20190607-17:01:28.235|131=20190607-000000000037.00|146=1|55=TFIT15260826|762=RFQF|48=20348|22=M|54=1|38=1500000000|453=2|448=007B26|447=C|452=12|448=007|447=C|452=1|10=000|
8=FIX.4.4|9=110|35=A|34=1|49=013|50=013B17|52=20190607-17:05:59.449|56=EXC|43=Y|98=0|108=30|141=Y|553=013FCM001|554=013FCM001|10=106|
8=FIX.4.4|9=0067|35=A|34=1|49=EXC|56=013|52=20190607-17:05:59.455|98=0|108=30|141=Y|10=022|
=======
8=FIX.4.4|9=110|35=A|34=1|49=013|50=013B17|52=20190607-12:29:13.473|56=EXC|43=Y|98=0|108=30|141=Y|553=013FCM001|554=013FCM001|10=094|
8=FIX.4.4|9=0067|35=A|34=1|49=EXC|56=013|52=20190607-12:29:14.931|98=0|108=30|141=Y|10=013|
8=FIX.4.4|9=110|35=A|34=1|49=013|50=013B17|52=20190607-12:31:01.374|56=EXC|43=Y|98=0|108=30|141=Y|553=013FCM001|554=013FCM001|10=084|
8=FIX.4.4|9=0067|35=A|34=1|49=EXC|56=013|52=20190607-12:31:02.561|98=0|108=30|141=Y|10=002|
8=FIX.4.4|9=110|35=A|34=1|49=013|50=013B17|52=20190607-12:37:18.572|56=EXC|43=Y|98=0|108=30|141=Y|553=013FCM001|554=013FCM001|10=098|
8=FIX.4.4|9=0067|35=A|34=1|49=EXC|56=013|52=20190607-12:37:18.983|98=0|108=30|141=Y|10=023|
8=FIX.4.4|9=0192|35=R|34=2|49=EXC|56=013|52=20190607-12:37:21.174|131=20190607-000000000001.00|146=1|55=TFIT15260826|762=RFQF|48=20348|22=M|54=1|38=1500000000|453=2|448=001B27|447=C|452=12|448=001|447=C|452=1|10=235|
8=FIX.4.4|9=110|35=A|34=1|49=013|50=013B17|52=20190607-13:06:53.075|56=EXC|43=Y|98=0|108=30|141=Y|553=013FCM001|554=013FCM001|10=092|
8=FIX.4.4|9=0067|35=A|34=1|49=EXC|56=013|52=20190607-13:06:52.590|98=0|108=30|141=Y|10=012|
8=FIX.4.4|9=0192|35=R|34=2|49=EXC|56=013|52=20190607-13:06:54.725|131=20190607-000000000002.00|146=1|55=TFIT15260826|762=RFQF|48=20348|22=M|54=1|38=1500000000|453=2|448=001B27|447=C|452=12|448=001|447=C|452=1|10=241|
8=FIX.4.4|9=110|35=A|34=1|49=013|50=013B17|52=20190607-13:41:38.038|56=EXC|43=Y|98=0|108=30|141=Y|553=013FCM001|554=013FCM001|10=093|
8=FIX.4.4|9=0067|35=A|34=1|49=EXC|56=013|52=20190607-13:41:37.582|98=0|108=30|141=Y|10=015|
8=FIX.4.4|9=110|35=A|34=1|49=013|50=013B17|52=20190607-13:44:49.883|56=EXC|43=Y|98=0|108=30|141=Y|553=013FCM001|554=013FCM001|10=106|
8=FIX.4.4|9=0067|35=A|34=1|49=EXC|56=013|52=20190607-13:44:49.422|98=0|108=30|141=Y|10=014|
8=FIX.4.4|9=0192|35=R|34=2|49=EXC|56=013|52=20190607-13:44:51.624|131=20190607-000000000004.00|146=1|55=TFIT15260826|762=RFQF|48=20348|22=M|54=1|38=1500000000|453=2|448=001B27|447=C|452=12|448=001|447=C|452=1|10=240|
8=FIX.4.4|9=0192|35=R|34=3|49=EXC|56=013|52=20190607-13:44:52.353|131=20190607-000000000005.00|146=1|55=TFIT15260826|762=RFQF|48=20348|22=M|54=1|38=1500000000|453=2|448=001B27|447=C|452=12|448=001|447=C|452=1|10=242|
8=FIX.4.4|9=68|35=2|34=2|49=013|50=013B17|52=20190607-13:44:52.868|56=EXC|7=2|16=0|10=192|
8=FIX.4.4|9=0223|35=R|34=2|43=Y|52=20190607-13:44:52.375|49=EXC|56=013|122=20190607-13:44:51.624|131=20190607-000000000004.00|146=1|55=TFIT15260826|762=RFQF|48=20348|22=M|54=1|38=1500000000|453=2|448=001B27|447=C|452=12|448=001|447=C|452=1|10=246|
8=FIX.4.4|9=0223|35=R|34=3|43=Y|52=20190607-13:44:52.375|49=EXC|56=013|122=20190607-13:44:52.353|131=20190607-000000000005.00|146=1|55=TFIT15260826|762=RFQF|48=20348|22=M|54=1|38=1500000000|453=2|448=001B27|447=C|452=12|448=001|447=C|452=1|10=248|
8=FIX.4.4|9=0054|35=4|34=4|49=EXC|56=013|52=20190607-13:44:52.375|36=5|10=151|
8=FIX.4.4|9=68|35=2|34=3|49=013|50=013B17|52=20190607-13:44:52.965|56=EXC|7=2|16=0|10=191|
8=FIX.4.4|9=0223|35=R|34=2|43=Y|52=20190607-13:44:52.475|49=EXC|56=013|122=20190607-13:44:51.624|131=20190607-000000000004.00|146=1|55=TFIT15260826|762=RFQF|48=20348|22=M|54=1|38=1500000000|453=2|448=001B27|447=C|452=12|448=001|447=C|452=1|10=247|
8=FIX.4.4|9=0223|35=R|34=3|43=Y|52=20190607-13:44:52.475|49=EXC|56=013|122=20190607-13:44:52.353|131=20190607-000000000005.00|146=1|55=TFIT15260826|762=RFQF|48=20348|22=M|54=1|38=1500000000|453=2|448=001B27|447=C|452=12|448=001|447=C|452=1|10=249|
8=FIX.4.4|9=0065|35=4|34=4|43=Y|49=EXC|56=013|52=20190607-13:44:52.475|123=Y|36=5|10=197|
8=FIX.4.4|9=0054|35=4|34=5|49=EXC|56=013|52=20190607-13:44:52.475|36=6|10=154|
8=FIX.4.4|9=110|35=A|34=1|49=013|50=013B17|52=20190607-14:07:59.802|56=EXC|43=Y|98=0|108=30|141=Y|553=013FCM001|554=013FCM001|10=098|
8=FIX.4.4|9=0067|35=A|34=1|49=EXC|56=013|52=20190607-14:07:59.517|98=0|108=30|141=Y|10=020|
8=FIX.4.4|9=0192|35=R|34=2|49=EXC|56=013|52=20190607-14:08:01.717|131=20190607-000000000007.00|146=1|55=TFIT15260826|762=RFQF|48=20348|22=M|54=1|38=1500000000|453=2|448=001B27|447=C|452=12|448=001|447=C|452=1|10=242|
8=FIX.4.4|9=0192|35=R|34=3|49=EXC|56=013|52=20190607-14:08:02.586|131=20190607-000000000008.00|146=1|55=TFIT15260826|762=RFQF|48=20348|22=M|54=1|38=1500000000|453=2|448=001B27|447=C|452=12|448=001|447=C|452=1|10=249|
8=FIX.4.4|9=68|35=2|34=2|49=013|50=013B17|52=20190607-14:08:02.923|56=EXC|7=2|16=0|10=180|
8=FIX.4.4|9=0223|35=R|34=2|43=Y|52=20190607-14:08:02.608|49=EXC|56=013|122=20190607-14:08:01.717|131=20190607-000000000007.00|146=1|55=TFIT15260826|762=RFQF|48=20348|22=M|54=1|38=1500000000|453=2|448=001B27|447=C|452=12|448=001|447=C|452=1|10=243|
8=FIX.4.4|9=0223|35=R|34=3|43=Y|52=20190607-14:08:02.608|49=EXC|56=013|122=20190607-14:08:02.586|131=20190607-000000000008.00|146=1|55=TFIT15260826|762=RFQF|48=20348|22=M|54=1|38=1500000000|453=2|448=001B27|447=C|452=12|448=001|447=C|452=1|10=250|
8=FIX.4.4|9=0054|35=4|34=4|49=EXC|56=013|52=20190607-14:08:02.609|36=5|10=147|
8=FIX.4.4|9=68|35=2|34=3|49=013|50=013B17|52=20190607-14:08:02.999|56=EXC|7=2|16=0|10=194|
8=FIX.4.4|9=0223|35=R|34=2|43=Y|52=20190607-14:08:02.686|49=EXC|56=013|122=20190607-14:08:01.717|131=20190607-000000000007.00|146=1|55=TFIT15260826|762=RFQF|48=20348|22=M|54=1|38=1500000000|453=2|448=001B27|447=C|452=12|448=001|447=C|452=1|10=249|
8=FIX.4.4|9=0223|35=R|34=3|43=Y|52=20190607-14:08:02.686|49=EXC|56=013|122=20190607-14:08:02.586|131=20190607-000000000008.00|146=1|55=TFIT15260826|762=RFQF|48=20348|22=M|54=1|38=1500000000|453=2|448=001B27|447=C|452=12|448=001|447=C|452=1|10=000|
8=FIX.4.4|9=0065|35=4|34=4|43=Y|49=EXC|56=013|52=20190607-14:08:02.686|123=Y|36=5|10=197|
8=FIX.4.4|9=0054|35=4|34=5|49=EXC|56=013|52=20190607-14:08:02.686|36=6|10=154|
8=FIX.4.4|9=0049|35=0|34=6|49=EXC|56=013|52=20190607-14:08:32.000|10=173|
8=FIX.4.4|9=59|35=0|34=4|49=013|50=013B17|52=20190607-14:08:33.766|56=EXC|10=065|
8=FIX.4.4|9=0049|35=0|34=7|49=EXC|56=013|52=20190607-14:09:02.000|10=172|
8=FIX.4.4|9=59|35=0|34=5|49=013|50=013B17|52=20190607-14:09:04.733|56=EXC|10=059|
8=FIX.4.4|9=0049|35=0|34=8|49=EXC|56=013|52=20190607-14:09:32.000|10=176|
8=FIX.4.4|9=59|35=0|34=6|49=013|50=013B17|52=20190607-14:09:35.697|56=EXC|10=073|
8=FIX.4.4|9=0049|35=0|34=9|49=EXC|56=013|52=20190607-14:10:02.000|10=166|
8=FIX.4.4|9=59|35=0|34=7|49=013|50=013B17|52=20190607-14:10:06.665|56=EXC|10=059|
8=FIX.4.4|9=110|35=A|34=1|49=013|50=013B17|52=20190607-14:10:41.306|56=EXC|43=Y|98=0|108=30|141=Y|553=013FCM001|554=013FCM001|10=082|
8=FIX.4.4|9=0067|35=A|34=1|49=EXC|56=013|52=20190607-14:10:41.171|98=0|108=30|141=Y|10=001|
8=FIX.4.4|9=0192|35=R|34=2|49=EXC|56=013|52=20190607-14:10:43.320|131=20190607-000000000009.00|146=1|55=TFIT15260826|762=RFQF|48=20348|22=M|54=1|38=1500000000|453=2|448=001B27|447=C|452=12|448=001|447=C|452=1|10=233|
8=FIX.4.4|9=0192|35=R|34=3|49=EXC|56=013|52=20190607-14:10:44.022|131=20190607-000000000010.00|146=1|55=TFIT15260826|762=RFQF|48=20348|22=M|54=1|38=1500000000|453=2|448=001B27|447=C|452=12|448=001|447=C|452=1|10=226|
8=FIX.4.4|9=68|35=2|34=2|49=013|50=013B17|52=20190607-14:10:44.205|56=EXC|7=2|16=0|10=172|
8=FIX.4.4|9=0223|35=R|34=2|43=Y|52=20190607-14:10:44.042|49=EXC|56=013|122=20190607-14:10:43.320|131=20190607-000000000009.00|146=1|55=TFIT15260826|762=RFQF|48=20348|22=M|54=1|38=1500000000|453=2|448=001B27|447=C|452=12|448=001|447=C|452=1|10=225|
8=FIX.4.4|9=0223|35=R|34=3|43=Y|52=20190607-14:10:44.042|49=EXC|56=013|122=20190607-14:10:44.022|131=20190607-000000000010.00|146=1|55=TFIT15260826|762=RFQF|48=20348|22=M|54=1|38=1500000000|453=2|448=001B27|447=C|452=12|448=001|447=C|452=1|10=218|
8=FIX.4.4|9=0054|35=4|34=4|49=EXC|56=013|52=20190607-14:10:44.042|36=5|10=137|
8=FIX.4.4|9=68|35=2|34=3|49=013|50=013B17|52=20190607-14:10:44.290|56=EXC|7=2|16=0|10=177|
8=FIX.4.4|9=0223|35=R|34=2|43=Y|52=20190607-14:10:44.129|49=EXC|56=013|122=20190607-14:10:43.320|131=20190607-000000000009.00|146=1|55=TFIT15260826|762=RFQF|48=20348|22=M|54=1|38=1500000000|453=2|448=001B27|447=C|452=12|448=001|447=C|452=1|10=231|
8=FIX.4.4|9=0223|35=R|34=3|43=Y|52=20190607-14:10:44.129|49=EXC|56=013|122=20190607-14:10:44.022|131=20190607-000000000010.00|146=1|55=TFIT15260826|762=RFQF|48=20348|22=M|54=1|38=1500000000|453=2|448=001B27|447=C|452=12|448=001|447=C|452=1|10=224|
8=FIX.4.4|9=0065|35=4|34=4|43=Y|49=EXC|56=013|52=20190607-14:10:44.129|123=Y|36=5|10=188|
8=FIX.4.4|9=0054|35=4|34=5|49=EXC|56=013|52=20190607-14:10:44.129|36=6|10=145|
8=FIX.4.4|9=0049|35=0|34=6|49=EXC|56=013|52=20190607-14:11:14.000|10=167|
8=FIX.4.4|9=59|35=0|34=4|49=013|50=013B17|52=20190607-14:11:15.249|56=EXC|10=055|
8=FIX.4.4|9=110|35=A|34=1|49=013|50=013B17|52=20190607-14:22:14.227|56=EXC|43=Y|98=0|108=30|141=Y|553=013FCM001|554=013FCM001|10=087|
8=FIX.4.4|9=0067|35=A|34=1|49=EXC|56=013|52=20190607-14:22:14.508|98=0|108=30|141=Y|10=008|
8=FIX.4.4|9=0049|35=0|34=2|49=EXC|56=013|52=20190607-14:22:44.000|10=168|
8=FIX.4.4|9=59|35=0|34=2|49=013|50=013B17|52=20190607-14:22:45.154|56=EXC|10=053|
8=FIX.4.4|9=110|35=A|34=1|49=013|50=013B17|52=20190607-14:23:02.517|56=EXC|43=Y|98=0|108=30|141=Y|553=013FCM001|554=013FCM001|10=087|
8=FIX.4.4|9=0067|35=A|34=1|49=EXC|56=013|52=20190607-14:23:02.801|98=0|108=30|141=Y|10=002|
8=FIX.4.4|9=110|35=A|34=1|49=013|50=013B17|52=20190607-14:23:31.671|56=EXC|43=Y|98=0|108=30|141=Y|553=013FCM001|554=013FCM001|10=090|
8=FIX.4.4|9=0067|35=A|34=1|49=EXC|56=013|52=20190607-14:23:31.981|98=0|108=30|141=Y|10=013|
8=FIX.4.4|9=0192|35=R|34=2|49=EXC|56=013|52=20190607-14:23:34.063|131=20190607-000000000016.00|146=1|55=TFIT15260826|762=RFQF|48=20348|22=M|54=1|38=1500000000|453=2|448=001B27|447=C|452=12|448=001|447=C|452=1|10=239|
8=FIX.4.4|9=59|35=0|34=2|49=013|50=013B17|52=20190607-14:24:02.627|56=EXC|10=053|
8=FIX.4.4|9=0049|35=0|34=3|49=EXC|56=013|52=20190607-14:24:04.000|10=167|
8=FIX.4.4|9=68|35=2|34=3|49=013|50=013B17|52=20190607-14:24:03.822|56=EXC|7=2|16=0|10=178|
8=FIX.4.4|9=0223|35=R|34=2|43=Y|52=20190607-14:24:04.053|49=EXC|56=013|122=20190607-14:23:34.063|131=20190607-000000000016.00|146=1|55=TFIT15260826|762=RFQF|48=20348|22=M|54=1|38=1500000000|453=2|448=001B27|447=C|452=12|448=001|447=C|452=1|10=234|
8=FIX.4.4|9=0065|35=4|34=3|43=Y|49=EXC|56=013|52=20190607-14:24:04.053|123=Y|36=4|10=183|
8=FIX.4.4|9=0054|35=4|34=4|49=EXC|56=013|52=20190607-14:24:04.053|36=5|10=140|
8=FIX.4.4|9=68|35=2|34=4|49=013|50=013B17|52=20190607-14:24:08.876|56=EXC|7=2|16=0|10=193|
8=FIX.4.4|9=0223|35=R|34=2|43=Y|52=20190607-14:24:09.106|49=EXC|56=013|122=20190607-14:23:34.063|131=20190607-000000000016.00|146=1|55=TFIT15260826|762=RFQF|48=20348|22=M|54=1|38=1500000000|453=2|448=001B27|447=C|452=12|448=001|447=C|452=1|10=238|
8=FIX.4.4|9=0065|35=4|34=3|43=Y|49=EXC|56=013|52=20190607-14:24:09.106|123=Y|36=5|10=188|
8=FIX.4.4|9=0054|35=4|34=5|49=EXC|56=013|52=20190607-14:24:09.106|36=6|10=146|
8=FIX.4.4|9=0049|35=0|34=6|49=EXC|56=013|52=20190607-14:24:39.000|10=178|
8=FIX.4.4|9=59|35=0|34=5|49=013|50=013B17|52=20190607-14:24:39.655|56=EXC|10=067|
8=FIX.4.4|9=110|35=A|34=1|49=013|50=013B17|52=20190607-14:42:15.035|56=EXC|43=Y|98=0|108=30|141=Y|553=013FCM001|554=013FCM001|10=087|
8=FIX.4.4|9=0067|35=A|34=1|49=EXC|56=013|52=20190607-14:42:15.101|98=0|108=30|141=Y|10=000|
8=FIX.4.4|9=0192|35=R|34=2|49=EXC|56=013|52=20190607-14:42:17.288|131=20190607-000000000017.00|146=1|55=TFIT15260826|762=RFQF|48=20348|22=M|54=1|38=1500000000|453=2|448=001B27|447=C|452=12|448=001|447=C|452=1|10=251|
8=FIX.4.4|9=110|35=A|34=1|49=013|50=013B17|52=20190607-14:45:47.516|56=EXC|43=Y|98=0|108=30|141=Y|553=013FCM001|554=013FCM001|10=099|
8=FIX.4.4|9=0067|35=A|34=1|49=EXC|56=013|52=20190607-14:45:47.583|98=0|108=30|141=Y|10=022|
8=FIX.4.4|9=0192|35=R|34=2|49=EXC|56=013|52=20190607-14:45:49.663|131=20190607-000000000018.00|146=1|55=TFIT15260826|762=RFQF|48=20348|22=M|54=1|38=1500000000|453=2|448=001B27|447=C|452=12|448=001|447=C|452=1|10=001|
8=FIX.4.4|9=59|35=0|34=2|49=013|50=013B17|52=20190607-14:46:18.470|56=EXC|10=060|
8=FIX.4.4|9=0049|35=0|34=3|49=EXC|56=013|52=20190607-14:46:19.000|10=177|
8=FIX.4.4|9=68|35=2|34=3|49=013|50=013B17|52=20190607-14:46:18.990|56=EXC|7=2|16=0|10=194|
8=FIX.4.4|9=0223|35=R|34=2|43=Y|52=20190607-14:46:19.019|49=EXC|56=013|122=20190607-14:45:49.663|131=20190607-000000000018.00|146=1|55=TFIT15260826|762=RFQF|48=20348|22=M|54=1|38=1500000000|453=2|448=001B27|447=C|452=12|448=001|447=C|452=1|10=008|
8=FIX.4.4|9=0065|35=4|34=3|43=Y|49=EXC|56=013|52=20190607-14:46:19.019|123=Y|36=4|10=195|
8=FIX.4.4|9=0054|35=4|34=4|49=EXC|56=013|52=20190607-14:46:19.019|36=5|10=152|
8=FIX.4.4|9=68|35=2|34=4|49=013|50=013B17|52=20190607-14:46:24.048|56=EXC|7=2|16=0|10=186|
8=FIX.4.4|9=0223|35=R|34=2|43=Y|52=20190607-14:46:24.078|49=EXC|56=013|122=20190607-14:45:49.663|131=20190607-000000000018.00|146=1|55=TFIT15260826|762=RFQF|48=20348|22=M|54=1|38=1500000000|453=2|448=001B27|447=C|452=12|448=001|447=C|452=1|10=009|
8=FIX.4.4|9=0065|35=4|34=3|43=Y|49=EXC|56=013|52=20190607-14:46:24.078|123=Y|36=5|10=197|
8=FIX.4.4|9=0054|35=4|34=5|49=EXC|56=013|52=20190607-14:46:24.078|36=6|10=155|
8=FIX.4.4|9=0049|35=0|34=6|49=EXC|56=013|52=20190607-14:46:54.000|10=179|
8=FIX.4.4|9=59|35=0|34=5|49=013|50=013B17|52=20190607-14:46:54.470|56=EXC|10=063|
8=FIX.4.4|9=110|35=A|34=1|49=013|50=013B17|52=20190607-14:51:26.117|56=EXC|43=Y|98=0|108=30|141=Y|553=013FCM001|554=013FCM001|10=090|
8=FIX.4.4|9=0067|35=A|34=1|49=EXC|56=013|52=20190607-14:51:26.176|98=0|108=30|141=Y|10=014|
8=FIX.4.4|9=110|35=A|34=1|49=013|50=013B17|52=20190607-14:54:10.075|56=EXC|43=Y|98=0|108=30|141=Y|553=013FCM001|554=013FCM001|10=089|
8=FIX.4.4|9=0067|35=A|34=1|49=EXC|56=013|52=20190607-14:54:10.135|98=0|108=30|141=Y|10=005|
8=FIX.4.4|9=0192|35=R|34=2|49=EXC|56=013|52=20190607-14:54:12.262|131=20190607-000000000020.00|146=1|55=TFIT15260826|762=RFQF|48=20348|22=M|54=1|38=1500000000|453=2|448=001B27|447=C|452=12|448=001|447=C|452=1|10=235|
8=FIX.4.4|9=110|35=A|34=1|49=013|50=013B17|52=20190607-14:55:37.705|56=EXC|43=Y|98=0|108=30|141=Y|553=013FCM001|554=013FCM001|10=099|
8=FIX.4.4|9=0067|35=A|34=1|49=EXC|56=013|52=20190607-14:55:37.768|98=0|108=30|141=Y|10=027|
8=FIX.4.4|9=0049|35=0|34=2|49=EXC|56=013|52=20190607-14:56:07.000|10=174|
8=FIX.4.4|9=59|35=0|34=2|49=013|50=013B17|52=20190607-14:56:08.683|56=EXC|10=066|
8=FIX.4.4|9=110|35=A|34=1|49=013|50=013B17|52=20190607-14:57:52.685|56=EXC|43=Y|98=0|108=30|141=Y|553=013FCM001|554=013FCM001|10=105|
8=FIX.4.4|9=0067|35=A|34=1|49=EXC|56=013|52=20190607-14:57:52.748|98=0|108=30|141=Y|10=024|
8=FIX.4.4|9=0192|35=R|34=2|49=EXC|56=013|52=20190607-14:57:54.873|131=20190607-000000000022.00|146=1|55=TFIT15260826|762=RFQF|48=20348|22=M|54=1|38=1500000000|453=2|448=001B27|447=C|452=12|448=001|447=C|452=1|10=254|
8=FIX.4.4|9=59|35=0|34=2|49=013|50=013B17|52=20190607-14:58:23.655|56=EXC|10=064|
8=FIX.4.4|9=0049|35=0|34=3|49=EXC|56=013|52=20190607-14:58:24.000|10=176|
8=FIX.4.4|9=68|35=2|34=3|49=013|50=013B17|52=20190607-14:58:23.991|56=EXC|7=2|16=0|10=194|
8=FIX.4.4|9=0223|35=R|34=2|43=Y|52=20190607-14:58:24.020|49=EXC|56=013|122=20190607-14:57:54.873|131=20190607-000000000022.00|146=1|55=TFIT15260826|762=RFQF|48=20348|22=M|54=1|38=1500000000|453=2|448=001B27|447=C|452=12|448=001|447=C|452=1|10=252|
8=FIX.4.4|9=0065|35=4|34=3|43=Y|49=EXC|56=013|52=20190607-14:58:24.020|123=Y|36=4|10=186|
8=FIX.4.4|9=0054|35=4|34=4|49=EXC|56=013|52=20190607-14:58:24.020|36=5|10=143|
8=FIX.4.4|9=68|35=2|34=4|49=013|50=013B17|52=20190607-14:58:29.029|56=EXC|7=2|16=0|10=193|
8=FIX.4.4|9=0223|35=R|34=2|43=Y|52=20190607-14:58:29.059|49=EXC|56=013|122=20190607-14:57:54.873|131=20190607-000000000022.00|146=1|55=TFIT15260826|762=RFQF|48=20348|22=M|54=1|38=1500000000|453=2|448=001B27|447=C|452=12|448=001|447=C|452=1|10=013|
8=FIX.4.4|9=0065|35=4|34=3|43=Y|49=EXC|56=013|52=20190607-14:58:29.059|123=Y|36=5|10=204|
8=FIX.4.4|9=0054|35=4|34=5|49=EXC|56=013|52=20190607-14:58:29.059|36=6|10=162|
8=FIX.4.4|9=0049|35=0|34=6|49=EXC|56=013|52=20190607-14:58:59.000|10=187|
8=FIX.4.4|9=59|35=0|34=5|49=013|50=013B17|52=20190607-14:58:59.655|56=EXC|10=076|
8=FIX.4.4|9=0049|35=0|34=7|49=EXC|56=013|52=20190607-14:59:29.000|10=186|
8=FIX.4.4|9=59|35=0|34=6|49=013|50=013B17|52=20190607-14:59:29.653|56=EXC|10=073|
8=FIX.4.4|9=0049|35=0|34=8|49=EXC|56=013|52=20190607-14:59:59.000|10=190|
8=FIX.4.4|9=59|35=0|34=7|49=013|50=013B17|52=20190607-14:59:59.656|56=EXC|10=080|
8=FIX.4.4|9=0049|35=0|34=9|49=EXC|56=013|52=20190607-15:00:29.000|10=175|
8=FIX.4.4|9=59|35=0|34=8|49=013|50=013B17|52=20190607-15:00:29.674|56=EXC|10=065|
8=FIX.4.4|9=0050|35=0|34=10|49=EXC|56=013|52=20190607-15:00:59.000|10=210|
8=FIX.4.4|9=59|35=0|34=9|49=013|50=013B17|52=20190607-15:01:00.655|56=EXC|10=055|
8=FIX.4.4|9=0050|35=0|34=11|49=EXC|56=013|52=20190607-15:01:29.000|10=209|
8=FIX.4.4|9=60|35=0|34=10|49=013|50=013B17|52=20190607-15:01:30.653|56=EXC|10=088|
8=FIX.4.4|9=0050|35=0|34=12|49=EXC|56=013|52=20190607-15:01:59.000|10=213|
8=FIX.4.4|9=60|35=0|34=11|49=013|50=013B17|52=20190607-15:02:00.655|56=EXC|10=089|
8=FIX.4.4|9=0050|35=0|34=13|49=EXC|56=013|52=20190607-15:02:29.000|10=212|
8=FIX.4.4|9=60|35=0|34=12|49=013|50=013B17|52=20190607-15:02:30.655|56=EXC|10=093|
8=FIX.4.4|9=0050|35=0|34=14|49=EXC|56=013|52=20190607-15:02:59.000|10=216|
8=FIX.4.4|9=60|35=0|34=13|49=013|50=013B17|52=20190607-15:03:00.656|56=EXC|10=093|
8=FIX.4.4|9=0050|35=0|34=15|49=EXC|56=013|52=20190607-15:03:29.000|10=215|
8=FIX.4.4|9=60|35=0|34=14|49=013|50=013B17|52=20190607-15:03:30.655|56=EXC|10=096|
8=FIX.4.4|9=0050|35=0|34=16|49=EXC|56=013|52=20190607-15:03:59.000|10=219|
8=FIX.4.4|9=60|35=0|34=15|49=013|50=013B17|52=20190607-15:04:00.655|56=EXC|10=095|
>>>>>>> 069492ed1c47821f77e483ed6a9d34242fbb67bb
8=FIX.4.4|9=110|35=A|34=1|49=013|50=013B17|52=20190607-19:00:29.692|56=EXC|43=Y|98=0|108=30|141=Y|553=013FCM001|554=013FCM001|10=100|
8=FIX.4.4|9=0067|35=A|34=1|49=EXC|56=013|52=20190607-19:00:29.733|98=0|108=30|141=Y|10=015|
8=FIX.4.4|9=0049|35=0|34=2|49=EXC|56=013|52=20190607-19:00:59.000|10=175|
8=FIX.4.4|9=59|35=0|34=2|49=013|50=013B17|52=20190607-19:01:00.597|56=EXC|10=057|
8=FIX.4.4|9=0049|35=0|34=3|49=EXC|56=013|52=20190607-19:01:29.000|10=174|
8=FIX.4.4|9=59|35=0|34=3|49=013|50=013B17|52=20190607-19:01:31.587|56=EXC|10=061|
8=FIX.4.4|9=110|35=A|34=1|49=013|50=013B17|52=20190607-19:04:04.280|56=EXC|43=Y|98=0|108=30|141=Y|553=013FCM001|554=013FCM001|10=090|
8=FIX.4.4|9=0067|35=A|34=1|49=EXC|56=013|52=20190607-19:04:04.346|98=0|108=30|141=Y|10=012|
8=FIX.4.4|9=0192|35=R|34=2|49=EXC|56=013|52=20190607-19:04:06.230|131=20190607-000000000040.00|146=1|55=TFIT15260826|762=RFQF|48=20348|22=M|54=1|38=1500000000|453=2|448=007B26|447=C|452=12|448=007|447=C|452=1|10=246|
8=FIX.4.4|9=59|35=0|34=2|49=013|50=013B17|52=20190607-19:04:34.946|56=EXC|10=065|
8=FIX.4.4|9=0049|35=0|34=3|49=EXC|56=013|52=20190607-19:04:36.000|10=175|
8=FIX.4.4|9=68|35=2|34=3|49=013|50=013B17|52=20190607-19:04:36.042|56=EXC|7=2|16=0|10=181|
8=FIX.4.4|9=0223|35=R|34=2|43=Y|52=20190607-19:04:36.043|49=EXC|56=013|122=20190607-19:04:06.230|131=20190607-000000000040.00|146=1|55=TFIT15260826|762=RFQF|48=20348|22=M|54=1|38=1500000000|453=2|448=007B26|447=C|452=12|448=007|447=C|452=1|10=248|
8=FIX.4.4|9=0065|35=4|34=3|43=Y|49=EXC|56=013|52=20190607-19:04:36.043|123=Y|36=4|10=190|
8=FIX.4.4|9=0054|35=4|34=4|49=EXC|56=013|52=20190607-19:04:36.044|36=5|10=148|
8=FIX.4.4|9=68|35=2|34=4|49=013|50=013B17|52=20190607-19:04:41.274|56=EXC|7=2|16=0|10=185|
8=FIX.4.4|9=0223|35=R|34=2|43=Y|52=20190607-19:04:41.262|49=EXC|56=013|122=20190607-19:04:06.230|131=20190607-000000000040.00|146=1|55=TFIT15260826|762=RFQF|48=20348|22=M|54=1|38=1500000000|453=2|448=007B26|447=C|452=12|448=007|447=C|452=1|10=247|
8=FIX.4.4|9=0065|35=4|34=3|43=Y|49=EXC|56=013|52=20190607-19:04:41.262|123=Y|36=5|10=190|
8=FIX.4.4|9=0054|35=4|34=5|49=EXC|56=013|52=20190607-19:04:41.262|36=6|10=148|
8=FIX.4.4|9=110|35=A|34=1|49=013|50=013B17|52=20190607-19:05:53.599|56=EXC|43=Y|98=0|108=30|141=Y|553=013FCM001|554=013FCM001|10=108|
8=FIX.4.4|9=0067|35=A|34=1|49=EXC|56=013|52=20190607-19:05:53.743|98=0|108=30|141=Y|10=018|
8=FIX.4.4|9=0192|35=R|34=2|49=EXC|56=013|52=20190607-19:05:55.555|131=20190607-000000000041.00|146=1|55=TFIT15260826|762=RFQF|48=20348|22=M|54=1|38=1500000000|453=2|448=007B26|447=C|452=12|448=007|447=C|452=1|10=006|
8=FIX.4.4|9=110|35=A|34=1|49=013|50=013B17|52=20190607-19:13:31.970|56=EXC|43=Y|98=0|108=30|141=Y|553=013FCM001|554=013FCM001|10=096|
8=FIX.4.4|9=0067|35=A|34=1|49=EXC|56=013|52=20190607-19:13:32.059|98=0|108=30|141=Y|10=014|
8=FIX.4.4|9=0192|35=R|34=2|49=EXC|56=013|52=20190607-19:13:34.145|131=20190607-000000000042.00|146=1|55=TFIT15260826|762=RFQF|48=20348|22=M|54=1|38=1500000000|453=2|448=007B26|447=C|452=12|448=007|447=C|452=1|10=254|
8=FIX.4.4|9=110|35=A|34=1|49=013|50=013B17|52=20190607-19:21:06.064|56=EXC|43=Y|98=0|108=30|141=Y|553=013FCM001|554=013FCM001|10=091|
8=FIX.4.4|9=0067|35=A|34=1|49=EXC|56=013|52=20190607-19:21:06.174|98=0|108=30|141=Y|10=012|
8=FIX.4.4|9=0192|35=R|34=2|49=EXC|56=013|52=20190607-19:21:08.256|131=20190607-000000000043.00|146=1|55=TFIT15260826|762=RFQF|48=20348|22=M|54=1|38=1500000000|453=2|448=007B26|447=C|452=12|448=007|447=C|452=1|10=002|
8=FIX.4.4|9=110|35=A|34=1|49=013|50=013B17|52=20190607-19:21:31.307|56=EXC|43=Y|98=0|108=30|141=Y|553=013FCM001|554=013FCM001|10=089|
8=FIX.4.4|9=0067|35=A|34=1|49=EXC|56=013|52=20190607-19:21:31.554|98=0|108=30|141=Y|10=012|
8=FIX.4.4|9=0192|35=R|34=2|49=EXC|56=013|52=20190607-19:21:32.086|131=20190607-000000000044.00|146=1|55=TFIT15260826|762=RFQF|48=20348|22=M|54=1|38=1500000000|453=2|448=007B26|447=C|452=12|448=007|447=C|452=1|10=001|
8=FIX.4.4|9=110|35=A|34=1|49=013|50=013B17|52=20190607-19:27:55.140|56=EXC|43=Y|98=0|108=30|141=Y|553=013FCM001|554=013FCM001|10=096|
8=FIX.4.4|9=0067|35=A|34=1|49=EXC|56=013|52=20190607-19:27:55.247|98=0|108=30|141=Y|10=023|
8=FIX.4.4|9=0192|35=R|34=2|49=EXC|56=013|52=20190607-19:27:55.378|131=20190607-000000000047.00|146=1|55=TFIT15260826|762=RFQF|48=20348|22=M|54=1|38=1500000000|453=2|448=007B26|447=C|452=12|448=007|447=C|452=1|10=019|
8=FIX.4.4|9=110|35=A|34=1|49=013|50=013B17|52=20190607-19:28:56.427|56=EXC|43=Y|98=0|108=30|141=Y|553=013FCM001|554=013FCM001|10=106|
8=FIX.4.4|9=0067|35=A|34=1|49=EXC|56=013|52=20190607-19:28:57.994|98=0|108=30|141=Y|10=035|
8=FIX.4.4|9=0192|35=R|34=2|49=EXC|56=013|52=20190607-19:28:58.241|131=20190607-000000000048.00|146=1|55=TFIT15260826|762=RFQF|48=20348|22=M|54=1|38=1500000000|453=2|448=007B26|447=C|452=12|448=007|447=C|452=1|10=013|
8=FIX.4.4|9=110|35=A|34=1|49=013|50=013B17|52=20190607-19:30:00.024|56=EXC|43=Y|98=0|108=30|141=Y|553=013FCM001|554=013FCM001|10=081|
8=FIX.4.4|9=0067|35=A|34=1|49=EXC|56=013|52=20190607-19:30:00.057|98=0|108=30|141=Y|10=006|
8=FIX.4.4|9=0192|35=R|34=2|49=EXC|56=013|52=20190607-19:30:02.019|131=20190607-000000000049.00|146=1|55=TFIT15260826|762=RFQF|48=20348|22=M|54=1|38=1500000000|453=2|448=007B26|447=C|452=12|448=007|447=C|452=1|10=255|
8=FIX.4.4|9=59|35=0|34=2|49=013|50=013B17|52=20190607-19:30:30.642|56=EXC|10=053|
8=FIX.4.4|9=0049|35=0|34=3|49=EXC|56=013|52=20190607-19:30:32.000|10=170|
8=FIX.4.4|9=68|35=2|34=3|49=013|50=013B17|52=20190607-19:30:36.211|56=EXC|7=2|16=0|10=178|
8=FIX.4.4|9=0223|35=R|34=2|43=Y|52=20190607-19:30:36.188|49=EXC|56=013|122=20190607-19:30:02.019|131=20190607-000000000049.00|146=1|55=TFIT15260826|762=RFQF|48=20348|22=M|54=1|38=1500000000|453=2|448=007B26|447=C|452=12|448=007|447=C|452=1|10=010|
8=FIX.4.4|9=0065|35=4|34=3|43=Y|49=EXC|56=013|52=20190607-19:30:36.188|123=Y|36=4|10=199|
8=FIX.4.4|9=0054|35=4|34=4|49=EXC|56=013|52=20190607-19:30:36.188|36=5|10=156|
8=FIX.4.4|9=0049|35=0|34=5|49=EXC|56=013|52=20190607-19:31:06.000|10=174|
8=FIX.4.4|9=59|35=0|34=4|49=013|50=013B17|52=20190607-19:31:06.636|56=EXC|10=062|
8=FIX.4.4|9=110|35=A|34=1|49=013|50=013B17|52=20190607-19:33:19.264|56=EXC|43=Y|98=0|108=30|141=Y|553=013FCM001|554=013FCM001|10=100|
8=FIX.4.4|9=0067|35=A|34=1|49=EXC|56=013|52=20190607-19:33:19.437|98=0|108=30|141=Y|10=021|
8=FIX.4.4|9=0192|35=R|34=2|49=EXC|56=013|52=20190607-19:33:21.739|131=20190607-000000000050.00|146=1|55=TFIT15260826|762=RFQF|48=20348|22=M|54=1|38=1500000000|453=2|448=007B26|447=C|452=12|448=007|447=C|452=1|10=004|
8=FIX.4.4|9=59|35=0|34=2|49=013|50=013B17|52=20190607-19:33:50.239|56=EXC|10=060|
8=FIX.4.4|9=0049|35=0|34=3|49=EXC|56=013|52=20190607-19:33:51.000|10=174|
8=FIX.4.4|9=68|35=2|34=3|49=013|50=013B17|52=20190607-19:33:51.154|56=EXC|7=2|16=0|10=184|
8=FIX.4.4|9=0223|35=R|34=2|43=Y|52=20190607-19:33:51.133|49=EXC|56=013|122=20190607-19:33:21.739|131=20190607-000000000050.00|146=1|55=TFIT15260826|762=RFQF|48=20348|22=M|54=1|38=1500000000|453=2|448=007B26|447=C|452=12|448=007|447=C|452=1|10=005|
8=FIX.4.4|9=0065|35=4|34=3|43=Y|49=EXC|56=013|52=20190607-19:33:51.133|123=Y|36=4|10=189|
8=FIX.4.4|9=0054|35=4|34=4|49=EXC|56=013|52=20190607-19:33:51.133|36=5|10=146|
8=FIX.4.4|9=68|35=2|34=4|49=013|50=013B17|52=20190607-19:33:56.380|56=EXC|7=2|16=0|10=191|
8=FIX.4.4|9=0223|35=R|34=2|43=Y|52=20190607-19:33:56.354|49=EXC|56=013|122=20190607-19:33:21.739|131=20190607-000000000050.00|146=1|55=TFIT15260826|762=RFQF|48=20348|22=M|54=1|38=1500000000|453=2|448=007B26|447=C|452=12|448=007|447=C|452=1|10=015|
8=FIX.4.4|9=0065|35=4|34=3|43=Y|49=EXC|56=013|52=20190607-19:33:56.354|123=Y|36=5|10=200|
8=FIX.4.4|9=0054|35=4|34=5|49=EXC|56=013|52=20190607-19:33:56.354|36=6|10=158|
8=FIX.4.4|9=110|35=A|34=1|49=013|50=013B17|52=20190607-19:44:06.296|56=EXC|43=Y|98=0|108=30|141=Y|553=013FCM001|554=013FCM001|10=103|
8=FIX.4.4|9=0067|35=A|34=1|49=EXC|56=013|52=20190607-19:44:06.381|98=0|108=30|141=Y|10=017|
8=FIX.4.4|9=0192|35=R|34=2|49=EXC|56=013|52=20190607-19:44:08.040|131=20190607-000000000052.00|146=1|55=TFIT15260826|762=RFQF|48=20348|22=M|54=1|38=1500000000|453=2|448=007B26|447=C|452=12|448=007|447=C|452=1|10=254|
8=FIX.4.4|9=110|35=A|34=1|49=013|50=013B17|52=20190607-19:45:08.384|56=EXC|43=Y|98=0|108=30|141=Y|553=013FCM001|554=013FCM001|10=104|
8=FIX.4.4|9=0067|35=A|34=1|49=EXC|56=013|52=20190607-19:45:08.431|98=0|108=30|141=Y|10=016|
8=FIX.4.4|9=0192|35=R|34=2|49=EXC|56=013|52=20190607-19:45:10.437|131=20190607-000000000054.00|146=1|55=TFIT15260826|762=RFQF|48=20348|22=M|54=1|38=1500000000|453=2|448=007B26|447=C|452=12|448=007|447=C|452=1|10=004|
8=FIX.4.4|9=110|35=A|34=1|49=013|50=013B17|52=20190607-19:54:07.206|56=EXC|43=Y|98=0|108=30|141=Y|553=013FCM001|554=013FCM001|10=096|
8=FIX.4.4|9=0067|35=A|34=1|49=EXC|56=013|52=20190607-19:54:07.220|98=0|108=30|141=Y|10=011|
8=FIX.4.4|9=0192|35=R|34=2|49=EXC|56=013|52=20190607-19:54:09.196|131=20190607-000000000056.00|146=1|55=TFIT15260826|762=RFQF|48=20348|22=M|54=1|38=1500000000|453=2|448=007B26|447=C|452=12|448=007|447=C|452=1|10=016|
8=FIX.4.4|9=110|35=A|34=1|49=013|50=013B17|52=20190607-20:00:37.147|56=EXC|43=Y|98=0|108=30|141=Y|553=013FCM001|554=013FCM001|10=086|
8=FIX.4.4|9=0067|35=A|34=1|49=EXC|56=013|52=20190607-20:00:37.177|98=0|108=30|141=Y|10=008|
8=FIX.4.4|9=0192|35=R|34=2|49=EXC|56=013|52=20190607-20:00:39.139|131=20190607-000000000058.00|146=1|55=TFIT15260826|762=RFQF|48=20348|22=M|54=1|38=1500000000|453=2|448=007B26|447=C|452=12|448=007|447=C|452=1|10=001|
8=FIX.4.4|9=59|35=0|34=2|49=013|50=013B17|52=20190607-20:01:07.928|56=EXC|10=054|
8=FIX.4.4|9=0049|35=0|34=3|49=EXC|56=013|52=20190607-20:01:09.000|10=164|
8=FIX.4.4|9=68|35=2|34=3|49=013|50=013B17|52=20190607-20:01:09.063|56=EXC|7=2|16=0|10=173|
8=FIX.4.4|9=0223|35=R|34=2|43=Y|52=20190607-20:01:09.023|49=EXC|56=013|122=20190607-20:00:39.139|131=20190607-000000000058.00|146=1|55=TFIT15260826|762=RFQF|48=20348|22=M|54=1|38=1500000000|453=2|448=007B26|447=C|452=12|448=007|447=C|452=1|10=246|
8=FIX.4.4|9=0065|35=4|34=3|43=Y|49=EXC|56=013|52=20190607-20:01:09.023|123=Y|36=4|10=177|
8=FIX.4.4|9=0054|35=4|34=4|49=EXC|56=013|52=20190607-20:01:09.023|36=5|10=134|
8=FIX.4.4|9=68|35=2|34=4|49=013|50=013B17|52=20190607-20:01:14.196|56=EXC|7=2|16=0|10=177|
8=FIX.4.4|9=0223|35=R|34=2|43=Y|52=20190607-20:01:14.155|49=EXC|56=013|122=20190607-20:00:39.139|131=20190607-000000000058.00|146=1|55=TFIT15260826|762=RFQF|48=20348|22=M|54=1|38=1500000000|453=2|448=007B26|447=C|452=12|448=007|447=C|452=1|10=248|
8=FIX.4.4|9=0065|35=4|34=3|43=Y|49=EXC|56=013|52=20190607-20:01:14.155|123=Y|36=5|10=180|
8=FIX.4.4|9=0054|35=4|34=5|49=EXC|56=013|52=20190607-20:01:14.156|36=6|10=139|
8=FIX.4.4|9=110|35=A|34=1|49=013|50=013B17|52=20190607-20:04:04.900|56=EXC|43=Y|98=0|108=30|141=Y|553=013FCM001|554=013FCM001|10=081|
8=FIX.4.4|9=0067|35=A|34=1|49=EXC|56=013|52=20190607-20:04:04.965|98=0|108=30|141=Y|10=011|
8=FIX.4.4|9=0192|35=R|34=2|49=EXC|56=013|52=20190607-20:04:06.698|131=20190607-000000000060.00|146=1|55=TFIT15260826|762=RFQF|48=20348|22=M|54=1|38=1500000000|453=2|448=007B26|447=C|452=12|448=007|447=C|452=1|10=002|
8=FIX.4.4|9=59|35=0|34=2|49=013|50=013B17|52=20190607-20:04:35.328|56=EXC|10=052|
8=FIX.4.4|9=0049|35=0|34=3|49=EXC|56=013|52=20190607-20:04:36.000|10=167|
8=FIX.4.4|9=68|35=2|34=3|49=013|50=013B17|52=20190607-20:04:36.132|56=EXC|7=2|16=0|10=173|
8=FIX.4.4|9=0223|35=R|34=2|43=Y|52=20190607-20:04:36.101|49=EXC|56=013|122=20190607-20:04:06.698|131=20190607-000000000060.00|146=1|55=TFIT15260826|762=RFQF|48=20348|22=M|54=1|38=1500000000|453=2|448=007B26|447=C|452=12|448=007|447=C|452=1|10=247|
8=FIX.4.4|9=0065|35=4|34=3|43=Y|49=EXC|56=013|52=20190607-20:04:36.101|123=Y|36=4|10=177|
8=FIX.4.4|9=0054|35=4|34=4|49=EXC|56=013|52=20190607-20:04:36.101|36=5|10=134|
8=FIX.4.4|9=68|35=2|34=4|49=013|50=013B17|52=20190607-20:04:41.348|56=EXC|7=2|16=0|10=179|
8=FIX.4.4|9=0223|35=R|34=2|43=Y|52=20190607-20:04:41.307|49=EXC|56=013|122=20190607-20:04:06.698|131=20190607-000000000060.00|146=1|55=TFIT15260826|762=RFQF|48=20348|22=M|54=1|38=1500000000|453=2|448=007B26|447=C|452=12|448=007|447=C|452=1|10=251|
8=FIX.4.4|9=0065|35=4|34=3|43=Y|49=EXC|56=013|52=20190607-20:04:41.307|123=Y|36=5|10=182|
8=FIX.4.4|9=0054|35=4|34=5|49=EXC|56=013|52=20190607-20:04:41.308|36=6|10=141|
8=FIX.4.4|9=110|35=A|34=1|49=013|50=013B17|52=20190607-20:05:24.252|56=EXC|43=Y|98=0|108=30|141=Y|553=013FCM001|554=013FCM001|10=084|
8=FIX.4.4|9=0067|35=A|34=1|49=EXC|56=013|52=20190607-20:05:25.615|98=0|108=30|141=Y|10=007|
8=FIX.4.4|9=0192|35=R|34=2|49=EXC|56=013|52=20190607-20:05:25.785|131=20190607-000000000061.00|146=1|55=TFIT15260826|762=RFQF|48=20348|22=M|54=1|38=1500000000|453=2|448=007B26|447=C|452=12|448=007|447=C|452=1|10=002|
8=FIX.4.4|9=110|35=A|34=1|49=013|50=013B17|52=20190607-20:41:08.045|56=EXC|43=Y|98=0|108=30|141=Y|553=013FCM001|554=013FCM001|10=086|
8=FIX.4.4|9=0067|35=A|34=1|49=EXC|56=013|52=20190607-20:41:07.972|98=0|108=30|141=Y|10=013|
8=FIX.4.4|9=110|35=A|34=1|49=013|50=013B17|52=20190607-20:42:22.725|56=EXC|43=Y|98=0|108=30|141=Y|553=013FCM001|554=013FCM001|10=088|
8=FIX.4.4|9=0067|35=A|34=1|49=EXC|56=013|52=20190607-20:42:22.644|98=0|108=30|141=Y|10=007|
8=FIX.4.4|9=110|35=A|34=1|49=013|50=013B17|52=20190607-20:42:52.335|56=EXC|43=Y|98=0|108=30|141=Y|553=013FCM001|554=013FCM001|10=088|
8=FIX.4.4|9=0067|35=A|34=1|49=EXC|56=013|52=20190607-20:42:52.262|98=0|108=30|141=Y|10=006|
8=FIX.4.4|9=0192|35=R|34=2|49=EXC|56=013|52=20190607-20:42:54.506|131=20190607-000000000062.00|146=1|55=TFIT15260826|762=RFQF|48=20348|22=M|54=1|38=1500000000|453=2|448=007B26|447=C|452=12|448=007|447=C|452=1|10=253|
8=FIX.4.4|9=110|35=A|34=1|49=013|50=013B17|52=20190607-20:44:20.429|56=EXC|43=Y|98=0|108=30|141=Y|553=013FCM001|554=013FCM001|10=089|
8=FIX.4.4|9=0067|35=A|34=1|49=EXC|56=013|52=20190607-20:44:20.347|98=0|108=30|141=Y|10=007|
8=FIX.4.4|9=0192|35=R|34=2|49=EXC|56=013|52=20190607-20:44:22.503|131=20190607-000000000064.00|146=1|55=TFIT15260826|762=RFQF|48=20348|22=M|54=1|38=1500000000|453=2|448=007B26|447=C|452=12|448=007|447=C|452=1|10=249|
8=FIX.4.4|9=110|35=A|34=1|49=013|50=013B17|52=20190607-20:54:12.031|56=EXC|43=Y|98=0|108=30|141=Y|553=013FCM001|554=013FCM001|10=080|
8=FIX.4.4|9=0067|35=A|34=1|49=EXC|56=013|52=20190607-20:54:12.057|98=0|108=30|141=Y|10=007|
8=FIX.4.4|9=0192|35=R|34=2|49=EXC|56=013|52=20190607-20:54:13.947|131=20190607-000000000065.00|146=1|55=TFIT15260826|762=RFQF|48=20348|22=M|54=1|38=1500000000|453=2|448=007B26|447=C|452=12|448=007|447=C|452=1|10=007|
8=FIX.4.4|9=59|35=0|34=2|49=013|50=013B17|52=20190607-20:54:42.770|56=EXC|10=056|
8=FIX.4.4|9=0049|35=0|34=3|49=EXC|56=013|52=20190607-20:54:43.000|10=170|
8=FIX.4.4|9=68|35=2|34=3|49=013|50=013B17|52=20190607-20:54:43.139|56=EXC|7=2|16=0|10=183|
8=FIX.4.4|9=0223|35=R|34=2|43=Y|52=20190607-20:54:43.031|49=EXC|56=013|122=20190607-20:54:13.947|131=20190607-000000000065.00|146=1|55=TFIT15260826|762=RFQF|48=20348|22=M|54=1|38=1500000000|453=2|448=007B26|447=C|452=12|448=007|447=C|452=1|10=001|
8=FIX.4.4|9=0065|35=4|34=3|43=Y|49=EXC|56=013|52=20190607-20:54:43.031|123=Y|36=4|10=182|
8=FIX.4.4|9=0054|35=4|34=4|49=EXC|56=013|52=20190607-20:54:43.032|36=5|10=140|
8=FIX.4.4|9=110|35=A|34=1|49=013|50=013B17|52=20190607-20:55:20.274|56=EXC|43=Y|98=0|108=30|141=Y|553=013FCM001|554=013FCM001|10=089|
8=FIX.4.4|9=0067|35=A|34=1|49=EXC|56=013|52=20190607-20:55:20.201|98=0|108=30|141=Y|10=254|
8=FIX.4.4|9=0192|35=R|34=2|49=EXC|56=013|52=20190607-20:55:22.248|131=20190607-000000000066.00|146=1|55=TFIT15260826|762=RFQF|48=20348|22=M|54=1|38=1500000000|453=2|448=007B26|447=C|452=12|448=007|447=C|452=1|10=003|
8=FIX.4.4|9=59|35=0|34=2|49=013|50=013B17|52=20190607-20:55:51.112|56=EXC|10=047|
8=FIX.4.4|9=0049|35=0|34=3|49=EXC|56=013|52=20190607-20:55:52.000|10=171|
8=FIX.4.4|9=68|35=2|34=3|49=013|50=013B17|52=20190607-20:55:52.132|56=EXC|7=2|16=0|10=177|
8=FIX.4.4|9=0223|35=R|34=2|43=Y|52=20190607-20:55:52.023|49=EXC|56=013|122=20190607-20:55:22.248|131=20190607-000000000066.00|146=1|55=TFIT15260826|762=RFQF|48=20348|22=M|54=1|38=1500000000|453=2|448=007B26|447=C|452=12|448=007|447=C|452=1|10=255|
8=FIX.4.4|9=0065|35=4|34=3|43=Y|49=EXC|56=013|52=20190607-20:55:52.023|123=Y|36=4|10=184|
8=FIX.4.4|9=0054|35=4|34=4|49=EXC|56=013|52=20190607-20:55:52.023|36=5|10=141|
8=FIX.4.4|9=110|35=A|34=1|49=013|50=013B17|52=20190607-21:31:59.896|56=EXC|43=Y|98=0|108=30|141=Y|553=013FCM001|554=013FCM001|10=106|
8=FIX.4.4|9=0067|35=A|34=1|49=EXC|56=013|52=20190607-21:31:59.845|98=0|108=30|141=Y|10=019|
8=FIX.4.4|9=110|35=A|34=1|49=013|50=013B17|52=20190607-21:32:39.105|56=EXC|43=Y|98=0|108=30|141=Y|553=013FCM001|554=013FCM001|10=088|
8=FIX.4.4|9=0067|35=A|34=1|49=EXC|56=013|52=20190607-21:32:39.032|98=0|108=30|141=Y|10=006|
8=FIX.4.4|9=110|35=A|34=1|49=013|50=013B17|52=20190607-21:33:03.008|56=EXC|43=Y|98=0|108=30|141=Y|553=013FCM001|554=013FCM001|10=082|
8=FIX.4.4|9=0067|35=A|34=1|49=EXC|56=013|52=20190607-21:33:02.915|98=0|108=30|141=Y|10=007|
8=FIX.4.4|9=0049|35=0|34=2|49=EXC|56=013|52=20190607-21:33:32.000|10=165|
8=FIX.4.4|9=59|35=0|34=2|49=013|50=013B17|52=20190607-21:33:33.871|56=EXC|10=056|
8=FIX.4.4|9=110|35=A|34=1|49=013|50=013B17|52=20190607-21:34:44.547|56=EXC|43=Y|98=0|108=30|141=Y|553=013FCM001|554=013FCM001|10=096|
8=FIX.4.4|9=0067|35=A|34=1|49=EXC|56=013|52=20190607-21:34:44.457|98=0|108=30|141=Y|10=015|
8=FIX.4.4|9=0049|35=0|34=2|49=EXC|56=013|52=20190607-21:35:14.000|10=167|
8=FIX.4.4|9=59|35=0|34=2|49=013|50=013B17|52=20190607-21:35:15.430|56=EXC|10=049|
8=FIX.4.4|9=104|35=A|34=3|49=013|50=013B17|52=20190607-21:35:37.758|56=EXC|43=Y|98=0|108=30|553=013FCM001|554=013FCM001|10=063|
8=FIX.4.4|9=0061|35=A|34=3|49=EXC|56=013|52=20190607-21:35:37.658|98=0|108=30|10=228|
8=FIX.4.4|9=110|35=A|34=1|49=013|50=013B17|52=20190607-21:36:19.141|56=EXC|43=Y|98=0|108=30|141=Y|553=013FCM001|554=013FCM001|10=090|
8=FIX.4.4|9=0067|35=A|34=1|49=EXC|56=013|52=20190607-21:36:19.096|98=0|108=30|141=Y|10=018|
8=FIX.4.4|9=110|35=A|34=1|49=013|50=013B17|52=20190607-21:37:18.911|56=EXC|43=Y|98=0|108=30|141=Y|553=013FCM001|554=013FCM001|10=095|
8=FIX.4.4|9=0067|35=A|34=1|49=EXC|56=013|52=20190607-21:37:18.830|98=0|108=30|141=Y|10=014|
8=FIX.4.4|9=110|35=A|34=1|49=013|50=013B17|52=20190607-21:41:52.338|56=EXC|43=Y|98=0|108=30|141=Y|553=013FCM001|554=013FCM001|10=091|
8=FIX.4.4|9=0067|35=A|34=1|49=EXC|56=013|52=20190607-21:41:52.364|98=0|108=30|141=Y|10=009|
8=FIX.4.4|9=110|35=A|34=1|49=013|50=013B17|52=20190607-21:44:11.622|56=EXC|43=Y|98=0|108=30|141=Y|553=013FCM001|554=013FCM001|10=085|
8=FIX.4.4|9=0067|35=A|34=1|49=EXC|56=013|52=20190607-21:44:11.617|98=0|108=30|141=Y|10=008|
8=FIX.4.4|9=0049|35=0|34=2|49=EXC|56=013|52=20190607-21:44:41.000|10=167|
8=FIX.4.4|9=59|35=0|34=2|49=013|50=013B17|52=20190607-21:44:42.529|56=EXC|10=058|
8=FIX.4.4|9=0049|35=0|34=3|49=EXC|56=013|52=20190607-21:45:11.000|10=166|
8=FIX.4.4|9=59|35=0|34=3|49=013|50=013B17|52=20190607-21:45:12.530|56=EXC|10=049|
8=FIX.4.4|9=0049|35=0|34=4|49=EXC|56=013|52=20190607-21:45:41.000|10=170|
8=FIX.4.4|9=59|35=0|34=4|49=013|50=013B17|52=20190607-21:45:42.530|56=EXC|10=053|
8=FIX.4.4|9=110|35=A|34=1|49=013|50=013B17|52=20190607-21:51:29.237|56=EXC|43=Y|98=0|108=30|141=Y|553=013FCM001|554=013FCM001|10=094|
8=FIX.4.4|9=0067|35=A|34=1|49=EXC|56=013|52=20190607-21:51:29.317|98=0|108=30|141=Y|10=012|
8=FIX.4.4|9=104|35=A|34=2|49=013|50=013B17|52=20190607-21:51:51.013|56=EXC|43=Y|98=0|108=30|553=013FCM001|554=013FCM001|10=040|
8=FIX.4.4|9=0061|35=A|34=2|49=EXC|56=013|52=20190607-21:51:50.908|98=0|108=30|10=218|
8=FIX.4.4|9=110|35=A|34=1|49=013|50=013B17|52=20190607-21:52:15.038|56=EXC|43=Y|98=0|108=30|141=Y|553=013FCM001|554=013FCM001|10=089|
8=FIX.4.4|9=0067|35=A|34=1|49=EXC|56=013|52=20190607-21:52:15.113|98=0|108=30|141=Y|10=002|
8=FIX.4.4|9=110|35=A|34=1|49=013|50=013B17|52=20190607-21:52:49.952|56=EXC|43=Y|98=0|108=30|141=Y|553=013FCM001|554=013FCM001|10=101|
8=FIX.4.4|9=0067|35=A|34=1|49=EXC|56=013|52=20190607-21:52:49.884|98=0|108=30|141=Y|10=024|
=======
8=FIX.4.4|9=110|35=A|34=1|49=013|50=013B17|52=20190607-21:41:30.480|56=EXC|43=Y|98=0|108=30|141=Y|553=013FCM001|554=013FCM001|10=085|
8=FIX.4.4|9=0067|35=A|34=1|49=EXC|56=013|52=20190607-21:41:30.435|98=0|108=30|141=Y|10=004|
8=FIX.4.4|9=0192|35=R|34=2|49=EXC|56=013|52=20190607-21:41:32.688|131=20190607-000000000071.00|146=1|55=TFIT15260826|762=RFQF|48=20348|22=M|54=1|38=1500000000|453=2|448=007B26|447=C|452=12|448=007|447=C|452=1|10=004|
8=FIX.4.4|9=110|35=A|34=1|49=013|50=013B17|52=20190607-21:52:30.071|56=EXC|43=Y|98=0|108=30|141=Y|553=013FCM001|554=013FCM001|10=083|
8=FIX.4.4|9=0067|35=A|34=1|49=EXC|56=013|52=20190607-21:52:30.018|98=0|108=30|141=Y|10=003|
8=FIX.4.4|9=0191|35=R|34=2|49=EXC|56=013|52=20190607-21:52:32.256|131=20190607-000000000073.00|146=1|55=TFIT16300632|762=RFQF|48=20406|22=M|54=1|38=500000000|453=2|448=001B27|447=C|452=12|448=001|447=C|452=1|10=180|
8=FIX.4.4|9=110|35=A|34=1|49=013|50=013B17|52=20190607-21:53:04.116|56=EXC|43=Y|98=0|108=30|141=Y|553=013FCM001|554=013FCM001|10=085|
8=FIX.4.4|9=0067|35=A|34=1|49=EXC|56=013|52=20190607-21:53:04.067|98=0|108=30|141=Y|10=009|
8=FIX.4.4|9=0049|35=0|34=2|49=EXC|56=013|52=20190607-21:53:34.000|10=169|
8=FIX.4.4|9=59|35=0|34=2|49=013|50=013B17|52=20190607-21:53:35.079|56=EXC|10=060|
8=FIX.4.4|9=0049|35=0|34=3|49=EXC|56=013|52=20190607-21:54:04.000|10=168|
8=FIX.4.4|9=59|35=0|34=3|49=013|50=013B17|52=20190607-21:54:05.079|56=EXC|10=059|
8=FIX.4.4|9=110|35=A|34=1|49=013|50=013B17|52=20190607-21:54:23.177|56=EXC|43=Y|98=0|108=30|141=Y|553=013FCM001|554=013FCM001|10=094|
8=FIX.4.4|9=0067|35=A|34=1|49=EXC|56=013|52=20190607-21:54:23.127|98=0|108=30|141=Y|10=008|
>>>>>>> ca8b6fd13021438c8902d768218507fa06f95332
8=FIX.4.4|9=110|35=A|34=1|49=013|50=013B17|52=20190610-15:04:23.206|56=EXC|43=Y|98=0|108=30|141=Y|553=013FCM001|554=013FCM001|10=079|
8=FIX.4.4|9=110|35=A|34=1|49=013|50=013B17|52=20190610-16:21:10.054|56=EXC|43=Y|98=0|108=30|141=Y|553=013FCM001|554=013FCM001|10=076|
8=FIX.4.4|9=0067|35=A|34=1|49=EXC|56=013|52=20190610-16:21:10.105|98=0|108=30|141=Y|10=248|
8=FIX.4.4|9=110|35=A|34=1|49=013|50=013B17|52=20190610-16:22:45.117|56=EXC|43=Y|98=0|108=30|141=Y|553=013FCM001|554=013FCM001|10=085|
8=FIX.4.4|9=0067|35=A|34=1|49=EXC|56=013|52=20190610-16:22:45.058|98=0|108=30|141=Y|10=008|
8=FIX.4.4|9=110|35=A|34=1|49=013|50=013B17|52=20190610-16:23:05.296|56=EXC|43=Y|98=0|108=30|141=Y|553=013FCM001|554=013FCM001|10=090|
8=FIX.4.4|9=0067|35=A|34=1|49=EXC|56=013|52=20190610-16:23:05.232|98=0|108=30|141=Y|10=255|
8=FIX.4.4|9=0049|35=0|34=2|49=EXC|56=013|52=20190610-16:23:35.000|10=165|
8=FIX.4.4|9=59|35=0|34=2|49=013|50=013B17|52=20190610-16:23:36.132|56=EXC|10=046|
8=FIX.4.4|9=110|35=A|34=1|49=013|50=013B17|52=20190610-16:32:38.132|56=EXC|43=Y|98=0|108=30|141=Y|553=013FCM001|554=013FCM001|10=085|
8=FIX.4.4|9=0067|35=A|34=1|49=EXC|56=013|52=20190610-16:32:38.066|98=0|108=30|141=Y|10=010|
8=FIX.4.4|9=110|35=A|34=1|49=013|50=013B17|52=20190610-16:39:08.160|56=EXC|43=Y|98=0|108=30|141=Y|553=013FCM001|554=013FCM001|10=090|
8=FIX.4.4|9=0067|35=A|34=1|49=EXC|56=013|52=20190610-16:39:08.096|98=0|108=30|141=Y|10=017|
8=FIX.4.4|9=0049|35=0|34=2|49=EXC|56=013|52=20190610-16:39:38.000|10=175|
8=FIX.4.4|9=59|35=0|34=2|49=013|50=013B17|52=20190610-16:39:38.990|56=EXC|10=067|
8=FIX.4.4|9=0049|35=0|34=3|49=EXC|56=013|52=20190610-16:40:08.000|10=165|
8=FIX.4.4|9=59|35=0|34=3|49=013|50=013B17|52=20190610-16:40:08.990|56=EXC|10=057|
8=FIX.4.4|9=0049|35=0|34=4|49=EXC|56=013|52=20190610-16:40:38.000|10=169|
8=FIX.4.4|9=59|35=0|34=4|49=013|50=013B17|52=20190610-16:40:38.991|56=EXC|10=062|
8=FIX.4.4|9=110|35=A|34=1|49=013|50=013B17|52=20190610-16:48:24.494|56=EXC|43=Y|98=0|108=30|141=Y|553=013FCM001|554=013FCM001|10=098|
8=FIX.4.4|9=0067|35=A|34=1|49=EXC|56=013|52=20190610-16:48:24.443|98=0|108=30|141=Y|10=011|
8=FIX.4.4|9=0049|35=0|34=2|49=EXC|56=013|52=20190610-16:48:54.000|10=173|
8=FIX.4.4|9=59|35=0|34=2|49=013|50=013B17|52=20190610-16:48:55.305|56=EXC|10=056|
8=FIX.4.4|9=110|35=A|34=1|49=013|50=013B17|52=20190610-19:03:03.825|56=EXC|43=Y|98=0|108=30|141=Y|553=013FCM001|554=013FCM001|10=087|
8=FIX.4.4|9=0067|35=A|34=1|49=EXC|56=013|52=20190610-19:03:03.901|98=0|108=30|141=Y|10=001|
8=FIX.4.4|9=0049|35=0|34=2|49=EXC|56=013|52=20190610-19:03:33.000|10=164|
8=FIX.4.4|9=59|35=0|34=2|49=013|50=013B17|52=20190610-19:03:34.725|56=EXC|10=053|
8=FIX.4.4|9=0191|35=R|34=3|49=EXC|56=013|52=20190610-19:03:54.415|131=20190610-000000000020.00|146=1|55=TFIT16300632|762=RFQF|48=20406|22=M|54=1|38=500000000|453=2|448=001B27|447=C|452=12|448=001|447=C|452=1|10=165|
8=FIX.4.4|9=59|35=0|34=3|49=013|50=013B17|52=20190610-19:04:04.726|56=EXC|10=053|
8=FIX.4.4|9=110|35=A|34=1|49=013|50=013B17|52=20190610-19:18:38.160|56=EXC|43=Y|98=0|108=30|141=Y|553=013FCM001|554=013FCM001|10=093|
8=FIX.4.4|9=0067|35=A|34=1|49=EXC|56=013|52=20190610-19:18:38.196|98=0|108=30|141=Y|10=021|
8=FIX.4.4|9=0049|35=0|34=2|49=EXC|56=013|52=20190610-19:19:08.000|10=173|
8=FIX.4.4|9=59|35=0|34=2|49=013|50=013B17|52=20190610-19:19:08.984|56=EXC|10=068|
8=FIX.4.4|9=0191|35=R|34=3|49=EXC|56=013|52=20190610-19:19:27.993|131=20190610-000000000024.00|146=1|55=TFIT16300632|762=RFQF|48=20406|22=M|54=1|38=500000000|453=2|448=001B27|447=C|452=12|448=001|447=C|452=1|10=187|
8=FIX.4.4|9=110|35=A|34=1|49=013|50=013B17|52=20190610-19:23:42.033|56=EXC|43=Y|98=0|108=30|141=Y|553=013FCM001|554=013FCM001|10=083|
8=FIX.4.4|9=0067|35=A|34=1|49=EXC|56=013|52=20190610-19:23:42.080|98=0|108=30|141=Y|10=004|
8=FIX.4.4|9=0049|35=0|34=2|49=EXC|56=013|52=20190610-19:24:12.000|10=164|
8=FIX.4.4|9=59|35=0|34=2|49=013|50=013B17|52=20190610-19:24:12.916|56=EXC|10=054|
8=FIX.4.4|9=0191|35=R|34=3|49=EXC|56=013|52=20190610-19:24:31.651|131=20190610-000000000026.00|146=1|55=TFIT16300632|762=RFQF|48=20406|22=M|54=1|38=500000000|453=2|448=001B27|447=C|452=12|448=001|447=C|452=1|10=171|
8=FIX.4.4|9=59|35=0|34=3|49=013|50=013B17|52=20190610-19:24:42.916|56=EXC|10=058|
8=FIX.4.4|9=110|35=A|34=1|49=013|50=013B17|52=20190610-19:31:42.386|56=EXC|43=Y|98=0|108=30|141=Y|553=013FCM001|554=013FCM001|10=093|
8=FIX.4.4|9=0067|35=A|34=1|49=EXC|56=013|52=20190610-19:31:42.415|98=0|108=30|141=Y|10=005|
8=FIX.4.4|9=0049|35=0|34=2|49=EXC|56=013|52=20190610-19:32:12.000|10=163|
8=FIX.4.4|9=59|35=0|34=2|49=013|50=013B17|52=20190610-19:32:13.250|56=EXC|10=045|
8=FIX.4.4|9=0049|35=0|34=3|49=EXC|56=013|52=20190610-19:32:42.000|10=167|
8=FIX.4.4|9=59|35=0|34=3|49=013|50=013B17|52=20190610-19:32:43.265|56=EXC|10=055|
8=FIX.4.4|9=110|35=A|34=1|49=013|50=013B17|52=20190610-19:52:59.434|56=EXC|43=Y|98=0|108=30|141=Y|553=013FCM001|554=013FCM001|10=098|
8=FIX.4.4|9=0067|35=A|34=1|49=EXC|56=013|52=20190610-19:52:59.455|98=0|108=30|141=Y|10=020|
8=FIX.4.4|9=0049|35=0|34=2|49=EXC|56=013|52=20190610-19:53:29.000|10=174|
8=FIX.4.4|9=59|35=0|34=2|49=013|50=013B17|52=20190610-19:53:30.247|56=EXC|10=053|
8=FIX.4.4|9=110|35=A|34=1|49=013|50=013B17|52=20190610-19:55:55.215|56=EXC|43=Y|98=0|108=30|141=Y|553=013FCM001|554=013FCM001|10=094|
8=FIX.4.4|9=0067|35=A|34=1|49=EXC|56=013|52=20190610-19:55:55.274|98=0|108=30|141=Y|10=018|
8=FIX.4.4|9=0049|35=0|34=2|49=EXC|56=013|52=20190610-19:56:25.000|10=173|
8=FIX.4.4|9=59|35=0|34=2|49=013|50=013B17|52=20190610-19:56:26.086|56=EXC|10=062|
8=FIX.4.4|9=110|35=A|34=1|49=013|50=013B17|52=20190610-19:59:27.135|56=EXC|43=Y|98=0|108=30|141=Y|553=013FCM001|554=013FCM001|10=098|
8=FIX.4.4|9=0067|35=A|34=1|49=EXC|56=013|52=20190610-19:59:27.227|98=0|108=30|141=Y|10=019|
8=FIX.4.4|9=0049|35=0|34=2|49=EXC|56=013|52=20190610-19:59:57.000|10=181|
8=FIX.4.4|9=59|35=0|34=2|49=013|50=013B17|52=20190610-19:59:57.830|56=EXC|10=066|
8=FIX.4.4|9=0191|35=R|34=3|49=EXC|56=013|52=20190610-20:00:17.115|131=20190610-000000000042.00|146=1|55=TFIT16300632|762=RFQF|48=20406|22=M|54=1|38=500000000|453=2|448=001B27|447=C|452=12|448=001|447=C|452=1|10=154|
8=FIX.4.4|9=59|35=0|34=3|49=013|50=013B17|52=20190610-20:00:27.859|56=EXC|10=053|
8=FIX.4.4|9=110|35=A|34=1|49=013|50=013B17|52=20190610-20:03:57.182|56=EXC|43=Y|98=0|108=30|141=Y|553=013FCM001|554=013FCM001|10=084|
8=FIX.4.4|9=0067|35=A|34=1|49=EXC|56=013|52=20190610-20:03:57.324|98=0|108=30|141=Y|10=001|
8=FIX.4.4|9=0049|35=0|34=2|49=EXC|56=013|52=20190610-20:04:27.000|10=160|
8=FIX.4.4|9=59|35=0|34=2|49=013|50=013B17|52=20190610-20:04:27.767|56=EXC|10=054|
8=FIX.4.4|9=0191|35=R|34=3|49=EXC|56=013|52=20190610-20:04:47.221|131=20190610-000000000044.00|146=1|55=TFIT16300632|762=RFQF|48=20406|22=M|54=1|38=500000000|453=2|448=001B27|447=C|452=12|448=001|447=C|452=1|10=161|
8=FIX.4.4|9=59|35=0|34=3|49=013|50=013B17|52=20190610-20:04:57.768|56=EXC|10=059|
8=FIX.4.4|9=110|35=A|34=1|49=013|50=013B17|52=20190610-20:07:50.447|56=EXC|43=Y|98=0|108=30|141=Y|553=013FCM001|554=013FCM001|10=085|
8=FIX.4.4|9=0067|35=A|34=1|49=EXC|56=013|52=20190610-20:07:50.492|98=0|108=30|141=Y|10=004|
8=FIX.4.4|9=0049|35=0|34=2|49=EXC|56=013|52=20190610-20:08:20.000|10=157|
8=FIX.4.4|9=59|35=0|34=2|49=013|50=013B17|52=20190610-20:08:20.768|56=EXC|10=052|
8=FIX.4.4|9=0191|35=R|34=3|49=EXC|56=013|52=20190610-20:08:40.514|131=20190610-000000000048.00|146=1|55=TFIT16300632|762=RFQF|48=20406|22=M|54=1|38=500000000|453=2|448=001B27|447=C|452=12|448=001|447=C|452=1|10=167|
8=FIX.4.4|9=110|35=A|34=1|49=013|50=013B17|52=20190610-20:23:43.776|56=EXC|43=Y|98=0|108=30|141=Y|553=013FCM001|554=013FCM001|10=090|
8=FIX.4.4|9=0067|35=A|34=1|49=EXC|56=013|52=20190610-20:23:43.801|98=0|108=30|141=Y|10=254|
8=FIX.4.4|9=0049|35=0|34=2|49=EXC|56=013|52=20190610-20:24:13.000|10=157|
8=FIX.4.4|9=59|35=0|34=2|49=013|50=013B17|52=20190610-20:24:14.504|56=EXC|10=041|
8=FIX.4.4|9=0191|35=R|34=3|49=EXC|56=013|52=20190610-20:24:33.471|131=20190610-000000000055.00|146=1|55=TFIT16300632|762=RFQF|48=20406|22=M|54=1|38=500000000|453=2|448=001B27|447=C|452=12|448=001|447=C|452=1|10=167|
8=FIX.4.4|9=110|35=A|34=1|49=013|50=013B17|52=20190610-20:27:30.103|56=EXC|43=Y|98=0|108=30|141=Y|553=013FCM001|554=013FCM001|10=074|
8=FIX.4.4|9=0067|35=A|34=1|49=EXC|56=013|52=20190610-20:27:30.136|98=0|108=30|141=Y|10=255|
8=FIX.4.4|9=0049|35=0|34=2|49=EXC|56=013|52=20190610-20:28:00.000|10=157|
8=FIX.4.4|9=59|35=0|34=2|49=013|50=013B17|52=20190610-20:28:00.751|56=EXC|10=044|
8=FIX.4.4|9=0191|35=R|34=3|49=EXC|56=013|52=20190610-20:28:19.617|131=20190610-000000000058.00|146=1|55=TFIT16300632|762=RFQF|48=20406|22=M|54=1|38=500000000|453=2|448=001B27|447=C|452=12|448=001|447=C|452=1|10=180|
8=FIX.4.4|9=110|35=A|34=1|49=013|50=013B17|52=20190610-20:58:16.648|56=EXC|43=Y|98=0|108=30|141=Y|553=013FCM001|554=013FCM001|10=096|
8=FIX.4.4|9=0067|35=A|34=1|49=EXC|56=013|52=20190610-20:58:16.707|98=0|108=30|141=Y|10=011|
8=FIX.4.4|9=0049|35=0|34=2|49=EXC|56=013|52=20190610-20:58:46.000|10=170|
8=FIX.4.4|9=59|35=0|34=2|49=013|50=013B17|52=20190610-20:58:47.317|56=EXC|10=056|
8=FIX.4.4|9=0191|35=R|34=3|49=EXC|56=013|52=20190610-20:59:06.338|131=20190610-000000000068.00|146=1|55=TFIT16300632|762=RFQF|48=20406|22=M|54=1|38=500000000|453=2|448=001B27|447=C|452=12|448=001|447=C|452=1|10=181|
8=FIX.4.4|9=110|35=A|34=1|49=013|50=013B17|52=20190610-21:04:01.877|56=EXC|43=Y|98=0|108=30|141=Y|553=013FCM001|554=013FCM001|10=086|
8=FIX.4.4|9=0067|35=A|34=1|49=EXC|56=013|52=20190610-21:04:01.951|98=0|108=30|141=Y|10=254|
8=FIX.4.4|9=0049|35=0|34=2|49=EXC|56=013|52=20190610-21:04:31.000|10=156|
8=FIX.4.4|9=59|35=0|34=2|49=013|50=013B17|52=20190610-21:04:32.563|56=EXC|10=045|
8=FIX.4.4|9=0191|35=R|34=3|49=EXC|56=013|52=20190610-21:04:51.850|131=20190610-000000000071.00|146=1|55=TFIT16300632|762=RFQF|48=20406|22=M|54=1|38=500000000|453=2|448=001B27|447=C|452=12|448=001|447=C|452=1|10=165|
8=FIX.4.4|9=110|35=A|34=1|49=013|50=013B17|52=20190610-21:08:35.704|56=EXC|43=Y|98=0|108=30|141=Y|553=013FCM001|554=013FCM001|10=086|
8=FIX.4.4|9=0067|35=A|34=1|49=EXC|56=013|52=20190610-21:08:35.758|98=0|108=30|141=Y|10=014|
8=FIX.4.4|9=0049|35=0|34=2|49=EXC|56=013|52=20190610-21:09:05.000|10=162|
8=FIX.4.4|9=59|35=0|34=2|49=013|50=013B17|52=20190610-21:09:06.482|56=EXC|10=051|
8=FIX.4.4|9=0191|35=R|34=3|49=EXC|56=013|52=20190610-21:09:25.612|131=20190610-000000000074.00|146=1|55=TFIT16300632|762=RFQF|48=20406|22=M|54=1|38=500000000|453=2|448=001B27|447=C|452=12|448=001|447=C|452=1|10=170|
8=FIX.4.4|9=110|35=A|34=1|49=013|50=013B17|52=20190610-21:19:29.853|56=EXC|43=Y|98=0|108=30|141=Y|553=013FCM001|554=013FCM001|10=096|
8=FIX.4.4|9=0067|35=A|34=1|49=EXC|56=013|52=20190610-21:19:29.907|98=0|108=30|141=Y|10=015|
8=FIX.4.4|9=0049|35=0|34=2|49=EXC|56=013|52=20190610-21:19:59.000|10=172|
8=FIX.4.4|9=59|35=0|34=2|49=013|50=013B17|52=20190610-21:20:00.703|56=EXC|10=034|
8=FIX.4.4|9=0191|35=R|34=3|49=EXC|56=013|52=20190610-21:20:19.991|131=20190610-000000000077.00|146=1|55=TFIT16300632|762=RFQF|48=20406|22=M|54=1|38=500000000|453=2|448=001B27|447=C|452=12|448=001|447=C|452=1|10=179|
8=FIX.4.4|9=110|35=A|34=1|49=013|50=013B17|52=20190610-21:26:52.063|56=EXC|43=Y|98=0|108=30|141=Y|553=013FCM001|554=013FCM001|10=083|
8=FIX.4.4|9=0067|35=A|34=1|49=EXC|56=013|52=20190610-21:26:52.130|98=0|108=30|141=Y|10=253|
8=FIX.4.4|9=0049|35=0|34=2|49=EXC|56=013|52=20190610-21:27:22.000|10=161|
8=FIX.4.4|9=59|35=0|34=2|49=013|50=013B17|52=20190610-21:27:22.748|56=EXC|10=054|
8=FIX.4.4|9=0191|35=R|34=3|49=EXC|56=013|52=20190610-21:27:41.663|131=20190610-000000000080.00|146=1|55=TFIT16300632|762=RFQF|48=20406|22=M|54=1|38=500000000|453=2|448=001B27|447=C|452=12|448=001|447=C|452=1|10=171|
8=FIX.4.4|9=110|35=A|34=1|49=013|50=013B17|52=20190610-21:33:55.334|56=EXC|43=Y|98=0|108=30|141=Y|553=013FCM001|554=013FCM001|10=085|
8=FIX.4.4|9=0067|35=A|34=1|49=EXC|56=013|52=20190610-21:33:55.400|98=0|108=30|141=Y|10=254|
8=FIX.4.4|9=59|35=0|34=2|49=013|50=013B17|52=20190610-21:34:26.056|56=EXC|10=048|
8=FIX.4.4|9=0049|35=0|34=2|49=EXC|56=013|52=20190610-21:34:25.000|10=162|
8=FIX.4.4|9=0191|35=R|34=3|49=EXC|56=013|52=20190610-21:34:45.324|131=20190610-000000000082.00|146=1|55=TFIT16300632|762=RFQF|48=20406|22=M|54=1|38=500000000|453=2|448=001B27|447=C|452=12|448=001|447=C|452=1|10=169|
8=FIX.4.4|9=110|35=A|34=1|49=013|50=013B17|52=20190610-21:38:02.069|56=EXC|43=Y|98=0|108=30|141=Y|553=013FCM001|554=013FCM001|10=087|
8=FIX.4.4|9=0067|35=A|34=1|49=EXC|56=013|52=20190610-21:38:02.117|98=0|108=30|141=Y|10=000|
8=FIX.4.4|9=0049|35=0|34=2|49=EXC|56=013|52=20190610-21:38:32.000|10=164|
8=FIX.4.4|9=59|35=0|34=2|49=013|50=013B17|52=20190610-21:38:32.719|56=EXC|10=055|
8=FIX.4.4|9=0191|35=R|34=3|49=EXC|56=013|52=20190610-21:38:52.095|131=20190610-000000000084.00|146=1|55=TFIT16300632|762=RFQF|48=20406|22=M|54=1|38=500000000|453=2|448=001B27|447=C|452=12|448=001|447=C|452=1|10=178|
8=FIX.4.4|9=110|35=A|34=1|49=013|50=013B17|52=20190610-21:47:23.021|56=EXC|43=Y|98=0|108=30|141=Y|553=013FCM001|554=013FCM001|10=078|
8=FIX.4.4|9=0067|35=A|34=1|49=EXC|56=013|52=20190610-21:47:23.092|98=0|108=30|141=Y|10=005|
8=FIX.4.4|9=0049|35=0|34=2|49=EXC|56=013|52=20190610-21:47:53.000|10=167|
8=FIX.4.4|9=59|35=0|34=2|49=013|50=013B17|52=20190610-21:47:53.344|56=EXC|10=052|
8=FIX.4.4|9=0049|35=0|34=3|49=EXC|56=013|52=20190610-21:48:23.000|10=166|
8=FIX.4.4|9=59|35=0|34=3|49=013|50=013B17|52=20190610-21:48:23.762|56=EXC|10=055|
8=FIX.4.4|9=0191|35=R|34=4|49=EXC|56=013|52=20190610-21:48:32.759|131=20190610-000000000086.00|146=1|55=TFIT16300632|762=RFQF|48=20406|22=M|54=1|38=500000000|453=2|448=001B27|447=C|452=12|448=001|447=C|452=1|10=187|
8=FIX.4.4|9=110|35=A|34=1|49=013|50=013B17|52=20190610-21:54:20.662|56=EXC|43=Y|98=0|108=30|141=Y|553=013FCM001|554=013FCM001|10=084|
8=FIX.4.4|9=0067|35=A|34=1|49=EXC|56=013|52=20190610-21:54:20.699|98=0|108=30|141=Y|10=013|
8=FIX.4.4|9=0049|35=0|34=2|49=EXC|56=013|52=20190610-21:54:50.000|10=162|
8=FIX.4.4|9=59|35=0|34=2|49=013|50=013B17|52=20190610-21:54:51.468|56=EXC|10=055|
8=FIX.4.4|9=0191|35=R|34=3|49=EXC|56=013|52=20190610-21:55:11.373|131=20190610-000000000088.00|146=1|55=TFIT16300632|762=RFQF|48=20406|22=M|54=1|38=500000000|453=2|448=001B27|447=C|452=12|448=001|447=C|452=1|10=175|
8=FIX.4.4|9=110|35=A|34=1|49=013|50=013B17|52=20190610-22:07:26.144|56=EXC|43=Y|98=0|108=30|141=Y|553=013FCM001|554=013FCM001|10=084|
8=FIX.4.4|9=0067|35=A|34=1|49=EXC|56=013|52=20190610-22:07:26.193|98=0|108=30|141=Y|10=007|
8=FIX.4.4|9=0049|35=0|34=2|49=EXC|56=013|52=20190610-22:07:56.000|10=167|
8=FIX.4.4|9=59|35=0|34=2|49=013|50=013B17|52=20190610-22:07:56.681|56=EXC|10=056|
8=FIX.4.4|9=0191|35=R|34=3|49=EXC|56=013|52=20190610-22:08:16.927|131=20190610-000000000092.00|146=1|55=TFIT16300632|762=RFQF|48=20406|22=M|54=1|38=500000000|453=2|448=001B27|447=C|452=12|448=001|447=C|452=1|10=179|
8=FIX.4.4|9=110|35=A|34=1|49=013|50=013B17|52=20190610-22:10:11.658|56=EXC|43=Y|98=0|108=30|141=Y|553=013FCM001|554=013FCM001|10=082|
8=FIX.4.4|9=0067|35=A|34=1|49=EXC|56=013|52=20190610-22:10:11.710|98=0|108=30|141=Y|10=246|
8=FIX.4.4|9=0049|35=0|34=2|49=EXC|56=013|52=20190610-22:10:41.000|10=155|
8=FIX.4.4|9=59|35=0|34=2|49=013|50=013B17|52=20190610-22:10:42.438|56=EXC|10=045|
8=FIX.4.4|9=0191|35=R|34=3|49=EXC|56=013|52=20190610-22:11:01.546|131=20190610-000000000094.00|146=1|55=TFIT16300632|762=RFQF|48=20406|22=M|54=1|38=500000000|453=2|448=001B27|447=C|452=12|448=001|447=C|452=1|10=166|
8=FIX.4.4|9=110|35=A|34=1|49=013|50=013B17|52=20190611-13:21:45.985|56=EXC|43=Y|98=0|108=30|141=Y|553=013FCM001|554=013FCM001|10=095|
8=FIX.4.4|9=0067|35=A|34=1|49=EXC|56=013|52=20190611-13:21:47.630|98=0|108=30|141=Y|10=003|
8=FIX.4.4|9=59|35=0|34=2|49=013|50=013B17|52=20190611-13:22:16.523|56=EXC|10=045|
8=FIX.4.4|9=0049|35=0|34=2|49=EXC|56=013|52=20190611-13:22:17.000|10=162|
8=FIX.4.4|9=59|35=0|34=3|49=013|50=013B17|52=20190611-13:22:46.521|56=EXC|10=047|
8=FIX.4.4|9=0049|35=0|34=3|49=EXC|56=013|52=20190611-13:22:47.000|10=166|
8=FIX.4.4|9=59|35=0|34=4|49=013|50=013B17|52=20190611-13:23:16.521|56=EXC|10=046|
8=FIX.4.4|9=0049|35=0|34=4|49=EXC|56=013|52=20190611-13:23:17.000|10=165|
8=FIX.4.4|9=110|35=A|34=1|49=013|50=013B17|52=20190611-13:24:55.402|56=EXC|43=Y|98=0|108=30|141=Y|553=013FCM001|554=013FCM001|10=083|
8=FIX.4.4|9=0067|35=A|34=1|49=EXC|56=013|52=20190611-13:24:53.882|98=0|108=30|141=Y|10=012|
8=FIX.4.4|9=0049|35=0|34=2|49=EXC|56=013|52=20190611-13:25:23.000|10=162|
8=FIX.4.4|9=59|35=0|34=2|49=013|50=013B17|52=20190611-13:25:26.070|56=EXC|10=046|
8=FIX.4.4|9=0191|35=R|34=3|49=EXC|56=013|52=20190611-13:25:44.226|131=20190611-000000000003.00|146=1|55=TFIT16300632|762=RFQF|48=20406|22=M|54=1|38=500000000|453=2|448=001B27|447=C|452=12|448=001|447=C|452=1|10=165|
8=FIX.4.4|9=110|35=A|34=1|49=013|50=013B17|52=20190611-13:27:48.546|56=EXC|43=Y|98=0|108=30|141=Y|553=013FCM001|554=013FCM001|10=097|
8=FIX.4.4|9=0067|35=A|34=1|49=EXC|56=013|52=20190611-13:27:46.929|98=0|108=30|141=Y|10=019|
8=FIX.4.4|9=0049|35=0|34=2|49=EXC|56=013|52=20190611-13:28:16.000|10=167|
8=FIX.4.4|9=59|35=0|34=2|49=013|50=013B17|52=20190611-13:28:19.371|56=EXC|10=055|
8=FIX.4.4|9=110|35=A|34=1|49=013|50=013B17|52=20190611-13:28:33.185|56=EXC|43=Y|98=0|108=30|141=Y|553=013FCM001|554=013FCM001|10=091|
8=FIX.4.4|9=0067|35=A|34=1|49=EXC|56=013|52=20190611-13:28:31.588|98=0|108=30|141=Y|10=015|
8=FIX.4.4|9=0049|35=0|34=2|49=EXC|56=013|52=20190611-13:29:01.000|10=162|
8=FIX.4.4|9=59|35=0|34=2|49=013|50=013B17|52=20190611-13:29:04.078|56=EXC|10=054|
8=FIX.4.4|9=0049|35=0|34=3|49=EXC|56=013|52=20190611-13:29:31.000|10=166|
8=FIX.4.4|9=59|35=0|34=3|49=013|50=013B17|52=20190611-13:29:34.078|56=EXC|10=058|
8=FIX.4.4|9=0049|35=0|34=4|49=EXC|56=013|52=20190611-13:30:01.000|10=156|
8=FIX.4.4|9=59|35=0|34=4|49=013|50=013B17|52=20190611-13:30:04.079|56=EXC|10=049|
8=FIX.4.4|9=0049|35=0|34=5|49=EXC|56=013|52=20190611-13:30:31.000|10=160|
8=FIX.4.4|9=59|35=0|34=5|49=013|50=013B17|52=20190611-13:30:34.078|56=EXC|10=052|
8=FIX.4.4|9=0049|35=0|34=6|49=EXC|56=013|52=20190611-13:31:01.000|10=159|
8=FIX.4.4|9=59|35=0|34=6|49=013|50=013B17|52=20190611-13:31:04.078|56=EXC|10=051|
8=FIX.4.4|9=0049|35=0|34=7|49=EXC|56=013|52=20190611-13:31:31.000|10=163|
8=FIX.4.4|9=59|35=0|34=7|49=013|50=013B17|52=20190611-13:31:34.078|56=EXC|10=055|
8=FIX.4.4|9=110|35=A|34=1|49=013|50=013B17|52=20190611-13:38:11.767|56=EXC|43=Y|98=0|108=30|141=Y|553=013FCM001|554=013FCM001|10=094|
8=FIX.4.4|9=0067|35=A|34=1|49=EXC|56=013|52=20190611-13:38:10.955|98=0|108=30|141=Y|10=011|
8=FIX.4.4|9=0049|35=0|34=2|49=EXC|56=013|52=20190611-13:38:40.000|10=165|
8=FIX.4.4|9=59|35=0|34=2|49=013|50=013B17|52=20190611-13:38:42.491|56=EXC|10=055|
8=FIX.4.4|9=0191|35=R|34=3|49=EXC|56=013|52=20190611-13:39:01.376|131=20190611-000000000007.00|146=1|55=TFIT16300632|762=RFQF|48=20406|22=M|54=1|38=500000000|453=2|448=001B27|447=C|452=12|448=001|447=C|452=1|10=173|
8=FIX.4.4|9=110|35=A|34=1|49=013|50=013B17|52=20190611-13:42:11.757|56=EXC|43=Y|98=0|108=30|141=Y|553=013FCM001|554=013FCM001|10=088|
8=FIX.4.4|9=0067|35=A|34=1|49=EXC|56=013|52=20190611-13:42:11.783|98=0|108=30|141=Y|10=006|
8=FIX.4.4|9=0049|35=0|34=2|49=EXC|56=013|52=20190611-13:42:41.000|10=161|
8=FIX.4.4|9=59|35=0|34=2|49=013|50=013B17|52=20190611-13:42:42.628|56=EXC|10=052|
8=FIX.4.4|9=110|35=A|34=1|49=013|50=013B17|52=20190611-13:46:48.225|56=EXC|43=Y|98=0|108=30|141=Y|553=013FCM001|554=013FCM001|10=092|
8=FIX.4.4|9=0067|35=A|34=1|49=EXC|56=013|52=20190611-13:46:48.272|98=0|108=30|141=Y|10=013|
8=FIX.4.4|9=0049|35=0|34=2|49=EXC|56=013|52=20190611-13:47:18.000|10=170|
8=FIX.4.4|9=59|35=0|34=2|49=013|50=013B17|52=20190611-13:47:19.089|56=EXC|10=062|
8=FIX.4.4|9=0049|35=0|34=3|49=EXC|56=013|52=20190611-13:47:48.000|10=174|
8=FIX.4.4|9=59|35=0|34=3|49=013|50=013B17|52=20190611-13:47:49.089|56=EXC|10=066|
8=FIX.4.4|9=0049|35=0|34=4|49=EXC|56=013|52=20190611-13:48:18.000|10=173|
8=FIX.4.4|9=59|35=0|34=4|49=013|50=013B17|52=20190611-13:48:19.089|56=EXC|10=065|
8=FIX.4.4|9=110|35=A|34=1|49=013|50=013B17|52=20190611-14:12:38.476|56=EXC|43=Y|98=0|108=30|141=Y|553=013FCM001|554=013FCM001|10=093|
8=FIX.4.4|9=0067|35=A|34=1|49=EXC|56=013|52=20190611-14:12:38.489|98=0|108=30|141=Y|10=016|
8=FIX.4.4|9=0049|35=0|34=2|49=EXC|56=013|52=20190611-14:13:08.000|10=163|
8=FIX.4.4|9=59|35=0|34=2|49=013|50=013B17|52=20190611-14:13:09.345|56=EXC|10=050|
8=FIX.4.4|9=0049|35=0|34=3|49=EXC|56=013|52=20190611-14:13:38.000|10=167|
8=FIX.4.4|9=59|35=0|34=3|49=013|50=013B17|52=20190611-14:13:39.345|56=EXC|10=054|
8=FIX.4.4|9=0049|35=0|34=4|49=EXC|56=013|52=20190611-14:14:08.000|10=166|
8=FIX.4.4|9=59|35=0|34=4|49=013|50=013B17|52=20190611-14:14:09.345|56=EXC|10=053|
8=FIX.4.4|9=110|35=A|34=1|49=013|50=013B17|52=20190611-14:23:31.506|56=EXC|43=Y|98=0|108=30|141=Y|553=013FCM001|554=013FCM001|10=082|
8=FIX.4.4|9=0067|35=A|34=1|49=EXC|56=013|52=20190611-14:23:31.526|98=0|108=30|141=Y|10=003|
8=FIX.4.4|9=0049|35=0|34=2|49=EXC|56=013|52=20190611-14:24:01.000|10=158|
8=FIX.4.4|9=59|35=0|34=2|49=013|50=013B17|52=20190611-14:24:02.331|56=EXC|10=040|
8=FIX.4.4|9=0049|35=0|34=3|49=EXC|56=013|52=20190611-14:24:31.000|10=162|
8=FIX.4.4|9=59|35=0|34=3|49=013|50=013B17|52=20190611-14:24:32.331|56=EXC|10=044|
8=FIX.4.4|9=110|35=A|34=1|49=013|50=013B17|52=20190611-14:25:32.913|56=EXC|43=Y|98=0|108=30|141=Y|553=013FCM001|554=013FCM001|10=087|
8=FIX.4.4|9=0067|35=A|34=1|49=EXC|56=013|52=20190611-14:25:32.926|98=0|108=30|141=Y|10=010|
8=FIX.4.4|9=0049|35=0|34=2|49=EXC|56=013|52=20190611-14:26:02.000|10=161|
8=FIX.4.4|9=59|35=0|34=2|49=013|50=013B17|52=20190611-14:26:03.806|56=EXC|10=050|
8=FIX.4.4|9=0049|35=0|34=3|49=EXC|56=013|52=20190611-14:26:32.000|10=165|
8=FIX.4.4|9=59|35=0|34=3|49=013|50=013B17|52=20190611-14:26:33.805|56=EXC|10=053|
8=FIX.4.4|9=0049|35=0|34=4|49=EXC|56=013|52=20190611-14:27:02.000|10=164|
8=FIX.4.4|9=59|35=0|34=4|49=013|50=013B17|52=20190611-14:27:03.805|56=EXC|10=052|
8=FIX.4.4|9=110|35=A|34=1|49=013|50=013B17|52=20190611-14:33:18.964|56=EXC|43=Y|98=0|108=30|141=Y|553=013FCM001|554=013FCM001|10=096|
8=FIX.4.4|9=110|35=A|34=1|49=013|50=013B17|52=20190611-14:35:07.063|56=EXC|43=Y|98=0|108=30|141=Y|553=013FCM001|554=013FCM001|10=086|
8=FIX.4.4|9=0067|35=A|34=1|49=EXC|56=013|52=20190611-14:35:07.075|98=0|108=30|141=Y|10=008|
8=FIX.4.4|9=0049|35=0|34=2|49=EXC|56=013|52=20190611-14:35:37.000|10=169|
8=FIX.4.4|9=59|35=0|34=2|49=013|50=013B17|52=20190611-14:35:37.931|56=EXC|10=056|
8=FIX.4.4|9=0049|35=0|34=3|49=EXC|56=013|52=20190611-14:36:07.000|10=168|
8=FIX.4.4|9=59|35=0|34=3|49=013|50=013B17|52=20190611-14:36:07.929|56=EXC|10=062|
8=FIX.4.4|9=110|35=A|34=1|49=013|50=013B17|52=20190611-14:36:21.731|56=EXC|43=Y|98=0|108=30|141=Y|553=013FCM001|554=013FCM001|10=085|
8=FIX.4.4|9=0067|35=A|34=1|49=EXC|56=013|52=20190611-14:36:21.736|98=0|108=30|141=Y|10=009|
8=FIX.4.4|9=0049|35=0|34=2|49=EXC|56=013|52=20190611-14:36:51.000|10=166|
8=FIX.4.4|9=59|35=0|34=2|49=013|50=013B17|52=20190611-14:36:52.610|56=EXC|10=048|
8=FIX.4.4|9=0049|35=0|34=3|49=EXC|56=013|52=20190611-14:37:21.000|10=165|
8=FIX.4.4|9=59|35=0|34=3|49=013|50=013B17|52=20190611-14:37:22.610|56=EXC|10=047|
8=FIX.4.4|9=0049|35=0|34=4|49=EXC|56=013|52=20190611-14:37:51.000|10=169|
8=FIX.4.4|9=59|35=0|34=4|49=013|50=013B17|52=20190611-14:37:52.611|56=EXC|10=052|
