8=FIX.4.4|9=105|35=A|34=1|49=007|50=007B26|52=20190613-23:20:40.198|56=EXC|98=0|108=30|141=Y|553=007FCE001|554=007FCE001|10=090|
8=FIX.4.4|9=0067|35=A|34=1|49=EXC|56=007|52=20190613-23:20:39.814|98=0|108=30|141=Y|10=013|
8=FIX.4.4|9=0049|35=0|34=2|49=EXC|56=007|52=20190613-23:21:09.000|10=168|
8=FIX.4.4|9=59|35=0|34=2|49=007|50=007B26|52=20190613-23:21:11.080|56=EXC|10=046|
8=FIX.4.4|9=105|35=A|34=1|49=007|50=007B26|52=20190613-23:32:29.872|56=EXC|98=0|108=30|141=Y|553=007FCE001|554=007FCE001|10=099|
8=FIX.4.4|9=0067|35=A|34=1|49=EXC|56=007|52=20190613-23:32:29.231|98=0|108=30|141=Y|10=008|
8=FIX.4.4|9=0049|35=0|34=2|49=EXC|56=007|52=20190613-23:32:59.000|10=175|
8=FIX.4.4|9=59|35=0|34=2|49=007|50=007B26|52=20190613-23:33:00.842|56=EXC|10=053|
8=FIX.4.4|9=105|35=A|34=1|49=007|50=007B26|52=20190613-23:41:59.606|56=EXC|98=0|108=30|141=Y|553=007FCE001|554=007FCE001|10=097|
8=FIX.4.4|9=0067|35=A|34=1|49=EXC|56=007|52=20190613-23:41:58.932|98=0|108=30|141=Y|10=018|
8=FIX.4.4|9=105|35=A|34=1|49=007|50=007B26|52=20190613-23:44:32.621|56=EXC|98=0|108=30|141=Y|553=007FCE001|554=007FCE001|10=088|
8=FIX.4.4|9=0067|35=A|34=1|49=EXC|56=007|52=20190613-23:44:31.966|98=0|108=30|141=Y|10=019|
8=FIX.4.4|9=0049|35=0|34=2|49=EXC|56=007|52=20190613-23:45:01.000|10=166|
8=FIX.4.4|9=59|35=0|34=2|49=007|50=007B26|52=20190613-23:45:03.593|56=EXC|10=062|
8=FIX.4.4|9=105|35=A|34=1|49=007|50=007B26|52=20190614-12:59:00.563|56=EXC|98=0|108=30|141=Y|553=007FCE001|554=007FCE001|10=093|
8=FIX.4.4|9=0067|35=A|34=1|49=EXC|56=007|52=20190614-12:59:00.956|98=0|108=30|141=Y|10=019|
8=FIX.4.4|9=105|35=A|34=1|49=007|50=007B26|52=20190614-13:07:54.024|56=EXC|98=0|108=30|141=Y|553=007FCE001|554=007FCE001|10=088|
8=FIX.4.4|9=0067|35=A|34=1|49=EXC|56=007|52=20190614-13:07:53.469|98=0|108=30|141=Y|10=020|
8=FIX.4.4|9=105|35=A|34=1|49=007|50=007B26|52=20190614-13:13:22.161|56=EXC|98=0|108=30|141=Y|553=007FCE001|554=007FCE001|10=082|
8=FIX.4.4|9=0067|35=A|34=1|49=EXC|56=007|52=20190614-13:13:22.148|98=0|108=30|141=Y|10=007|
8=FIX.4.4|9=105|35=A|34=1|49=007|50=007B26|52=20190614-13:15:43.055|56=EXC|98=0|108=30|141=Y|553=007FCE001|554=007FCE001|10=089|
8=FIX.4.4|9=0067|35=A|34=1|49=EXC|56=007|52=20190614-13:15:43.232|98=0|108=30|141=Y|10=006|
8=FIX.4.4|9=105|35=A|34=1|49=007|50=007B26|52=20190614-13:23:21.518|56=EXC|98=0|108=30|141=Y|553=007FCE001|554=007FCE001|10=088|
8=FIX.4.4|9=0067|35=A|34=1|49=EXC|56=007|52=20190614-13:23:21.813|98=0|108=30|141=Y|10=006|
8=FIX.4.4|9=105|35=A|34=1|49=007|50=007B26|52=20190614-13:24:35.093|56=EXC|98=0|108=30|141=Y|553=007FCE001|554=007FCE001|10=092|
8=FIX.4.4|9=0067|35=A|34=1|49=EXC|56=007|52=20190614-13:24:35.110|98=0|108=30|141=Y|10=002|
8=FIX.4.4|9=105|35=A|34=1|49=007|50=007B26|52=20190614-13:30:40.016|56=EXC|98=0|108=30|141=Y|553=007FCE001|554=007FCE001|10=080|
8=FIX.4.4|9=0067|35=A|34=1|49=EXC|56=007|52=20190614-13:30:40.116|98=0|108=30|141=Y|10=001|
8=FIX.4.4|9=0049|35=0|34=2|49=EXC|56=007|52=20190614-13:31:10.000|10=161|
8=FIX.4.4|9=59|35=0|34=2|49=007|50=007B26|52=20190614-13:31:10.972|56=EXC|10=056|
8=FIX.4.4|9=0049|35=0|34=3|49=EXC|56=007|52=20190614-13:31:40.000|10=165|
8=FIX.4.4|9=59|35=0|34=3|49=007|50=007B26|52=20190614-13:31:40.971|56=EXC|10=059|
8=FIX.4.4|9=105|35=A|34=1|49=007|50=007B26|52=20190614-13:39:25.905|56=EXC|98=0|108=30|141=Y|553=007FCE001|554=007FCE001|10=099|
8=FIX.4.4|9=0067|35=A|34=1|49=EXC|56=007|52=20190614-13:39:26.154|98=0|108=30|141=Y|10=016|
8=FIX.4.4|9=105|35=A|34=1|49=007|50=007B26|52=20190614-13:40:46.998|56=EXC|98=0|108=30|141=Y|553=007FCE001|554=007FCE001|10=106|
8=FIX.4.4|9=0067|35=A|34=1|49=EXC|56=007|52=20190614-13:40:47.259|98=0|108=30|141=Y|10=017|
8=FIX.4.4|9=105|35=A|34=1|49=007|50=007B26|52=20190614-13:50:36.392|56=EXC|98=0|108=30|141=Y|553=007FCE001|554=007FCE001|10=094|
8=FIX.4.4|9=0067|35=A|34=1|49=EXC|56=007|52=20190614-13:50:36.812|98=0|108=30|141=Y|10=011|
8=FIX.4.4|9=105|35=A|34=1|49=007|50=007B26|52=20190614-13:53:29.963|56=EXC|98=0|108=30|141=Y|553=007FCE001|554=007FCE001|10=103|
8=FIX.4.4|9=0067|35=A|34=1|49=EXC|56=007|52=20190614-13:53:30.431|98=0|108=30|141=Y|10=005|
8=FIX.4.4|9=0049|35=0|34=2|49=EXC|56=007|52=20190614-13:54:00.000|10=165|
8=FIX.4.4|9=59|35=0|34=2|49=007|50=007B26|52=20190614-13:54:00.933|56=EXC|10=057|
8=FIX.4.4|9=0049|35=0|34=3|49=EXC|56=007|52=20190614-13:54:30.000|10=169|
8=FIX.4.4|9=59|35=0|34=3|49=007|50=007B26|52=20190614-13:54:30.935|56=EXC|10=063|
8=FIX.4.4|9=0049|35=0|34=4|49=EXC|56=007|52=20190614-13:55:00.000|10=168|
8=FIX.4.4|9=59|35=0|34=4|49=007|50=007B26|52=20190614-13:55:00.933|56=EXC|10=060|
8=FIX.4.4|9=0049|35=0|34=5|49=EXC|56=007|52=20190614-13:55:30.000|10=172|
8=FIX.4.4|9=59|35=0|34=5|49=007|50=007B26|52=20190614-13:55:30.933|56=EXC|10=064|
8=FIX.4.4|9=0049|35=0|34=6|49=EXC|56=007|52=20190614-13:56:00.000|10=171|
8=FIX.4.4|9=59|35=0|34=6|49=007|50=007B26|52=20190614-13:56:00.933|56=EXC|10=063|
8=FIX.4.4|9=0049|35=0|34=7|49=EXC|56=007|52=20190614-13:56:30.000|10=175|
8=FIX.4.4|9=59|35=0|34=7|49=007|50=007B26|52=20190614-13:56:30.933|56=EXC|10=067|
8=FIX.4.4|9=0049|35=0|34=8|49=EXC|56=007|52=20190614-13:57:00.000|10=174|
8=FIX.4.4|9=59|35=0|34=8|49=007|50=007B26|52=20190614-13:57:00.933|56=EXC|10=066|
8=FIX.4.4|9=0049|35=0|34=9|49=EXC|56=007|52=20190614-13:57:30.000|10=178|
8=FIX.4.4|9=59|35=0|34=9|49=007|50=007B26|52=20190614-13:57:30.933|56=EXC|10=070|
8=FIX.4.4|9=0050|35=0|34=10|49=EXC|56=007|52=20190614-13:58:00.000|10=208|
8=FIX.4.4|9=60|35=0|34=10|49=007|50=007B26|52=20190614-13:58:00.933|56=EXC|10=100|
8=FIX.4.4|9=0050|35=0|34=11|49=EXC|56=007|52=20190614-13:58:30.000|10=212|
8=FIX.4.4|9=60|35=0|34=11|49=007|50=007B26|52=20190614-13:58:30.933|56=EXC|10=104|
8=FIX.4.4|9=0050|35=0|34=12|49=EXC|56=007|52=20190614-13:59:00.000|10=211|
8=FIX.4.4|9=60|35=0|34=12|49=007|50=007B26|52=20190614-13:59:00.935|56=EXC|10=105|
8=FIX.4.4|9=0050|35=0|34=13|49=EXC|56=007|52=20190614-13:59:30.000|10=215|
8=FIX.4.4|9=60|35=0|34=13|49=007|50=007B26|52=20190614-13:59:30.933|56=EXC|10=107|
8=FIX.4.4|9=0050|35=0|34=14|49=EXC|56=007|52=20190614-14:00:00.000|10=200|
8=FIX.4.4|9=60|35=0|34=14|49=007|50=007B26|52=20190614-14:00:00.934|56=EXC|10=093|
8=FIX.4.4|9=0050|35=0|34=15|49=EXC|56=007|52=20190614-14:00:30.000|10=204|
8=FIX.4.4|9=60|35=0|34=15|49=007|50=007B26|52=20190614-14:00:30.933|56=EXC|10=096|
8=FIX.4.4|9=0050|35=0|34=16|49=EXC|56=007|52=20190614-14:01:00.000|10=203|
8=FIX.4.4|9=60|35=0|34=16|49=007|50=007B26|52=20190614-14:01:00.933|56=EXC|10=095|
8=FIX.4.4|9=105|35=A|34=1|49=007|50=007B26|52=20190614-14:01:16.457|56=EXC|98=0|108=30|141=Y|553=007FCE001|554=007FCE001|10=091|
8=FIX.4.4|9=0067|35=A|34=1|49=EXC|56=007|52=20190614-14:01:17.054|98=0|108=30|141=Y|10=005|
8=FIX.4.4|9=0049|35=0|34=2|49=EXC|56=007|52=20190614-14:01:47.000|10=169|
8=FIX.4.4|9=59|35=0|34=2|49=007|50=007B26|52=20190614-14:01:46.448|56=EXC|10=061|
