8=FIX.4.4|9=110|35=A|34=1|49=013|50=013B17|52=20190611-15:51:59.974|56=EXC|43=Y|98=0|108=30|141=Y|553=013FCM001|554=013FCM001|10=103|
8=FIX.4.4|9=0067|35=A|34=1|49=EXC|56=013|52=20190611-15:51:59.968|98=0|108=30|141=Y|10=025|
8=FIX.4.4|9=0049|35=0|34=2|49=EXC|56=013|52=20190611-15:52:29.000|10=170|
8=FIX.4.4|9=59|35=0|34=2|49=013|50=013B17|52=20190611-15:52:30.817|56=EXC|10=052|
8=FIX.4.4|9=0191|35=R|34=3|49=EXC|56=013|52=20190611-15:52:49.887|131=20190611-000000000042.00|146=1|55=TFIT16300632|762=RFQF|48=20406|22=M|54=1|38=500000000|453=2|448=001B27|447=C|452=12|448=001|447=C|452=1|10=188|
8=FIX.4.4|9=110|35=A|34=1|49=013|50=013B17|52=20190611-18:56:22.185|56=EXC|43=Y|98=0|108=30|141=Y|553=013FCM001|554=013FCM001|10=095|
8=FIX.4.4|9=0067|35=A|34=1|49=EXC|56=013|52=20190611-18:56:22.078|98=0|108=30|141=Y|10=015|
8=FIX.4.4|9=110|35=A|34=1|49=013|50=013B17|52=20190611-19:22:23.184|56=EXC|43=Y|98=0|108=30|141=Y|553=013FCM001|554=013FCM001|10=089|
8=FIX.4.4|9=0067|35=A|34=1|49=EXC|56=013|52=20190611-19:22:23.227|98=0|108=30|141=Y|10=006|
8=FIX.4.4|9=110|35=A|34=1|49=013|50=013B17|52=20190611-19:23:58.148|56=EXC|43=Y|98=0|108=30|141=Y|553=013FCM001|554=013FCM001|10=098|
8=FIX.4.4|9=0067|35=A|34=1|49=EXC|56=013|52=20190611-19:23:58.217|98=0|108=30|141=Y|10=014|
8=FIX.4.4|9=110|35=A|34=1|49=013|50=013B17|52=20190611-19:26:32.567|56=EXC|43=Y|98=0|108=30|141=Y|553=013FCM001|554=013FCM001|10=098|
8=FIX.4.4|9=0067|35=A|34=1|49=EXC|56=013|52=20190611-19:26:32.622|98=0|108=30|141=Y|10=009|
8=FIX.4.4|9=110|35=A|34=1|49=013|50=013B17|52=20190611-19:33:13.241|56=EXC|43=Y|98=0|108=30|141=Y|553=013FCM001|554=013FCM001|10=084|
8=FIX.4.4|9=0067|35=A|34=1|49=EXC|56=013|52=20190611-19:33:13.291|98=0|108=30|141=Y|10=008|
8=FIX.4.4|9=110|35=A|34=1|49=013|50=013B17|52=20190611-19:39:31.822|56=EXC|43=Y|98=0|108=30|141=Y|553=013FCM001|554=013FCM001|10=095|
8=FIX.4.4|9=0067|35=A|34=1|49=EXC|56=013|52=20190611-19:39:31.878|98=0|108=30|141=Y|10=025|
8=FIX.4.4|9=110|35=A|34=1|49=013|50=013B17|52=20190611-19:44:58.313|56=EXC|43=Y|98=0|108=30|141=Y|553=013FCM001|554=013FCM001|10=095|
8=FIX.4.4|9=0067|35=A|34=1|49=EXC|56=013|52=20190611-19:44:59.809|98=0|108=30|141=Y|10=025|
8=FIX.4.4|9=110|35=A|34=1|49=013|50=013B17|52=20190611-19:50:18.468|56=EXC|43=Y|98=0|108=30|141=Y|553=013FCM001|554=013FCM001|10=099|
8=FIX.4.4|9=0067|35=A|34=1|49=EXC|56=013|52=20190611-19:50:18.502|98=0|108=30|141=Y|10=007|
8=FIX.4.4|9=110|35=A|34=1|49=013|50=013B17|52=20190611-19:52:18.982|56=EXC|43=Y|98=0|108=30|141=Y|553=013FCM001|554=013FCM001|10=102|
8=FIX.4.4|9=0067|35=A|34=1|49=EXC|56=013|52=20190611-19:52:19.018|98=0|108=30|141=Y|10=012|
8=FIX.4.4|9=110|35=A|34=1|49=013|50=013B17|52=20190611-19:57:54.414|56=EXC|43=Y|98=0|108=30|141=Y|553=013FCM001|554=013FCM001|10=097|
8=FIX.4.4|9=0067|35=A|34=1|49=EXC|56=013|52=20190611-19:57:54.460|98=0|108=30|141=Y|10=017|
8=FIX.4.4|9=110|35=A|34=1|49=013|50=013B17|52=20190611-20:17:57.914|56=EXC|43=Y|98=0|108=30|141=Y|553=013FCM001|554=013FCM001|10=093|
8=FIX.4.4|9=0067|35=A|34=1|49=EXC|56=013|52=20190611-20:17:58.031|98=0|108=30|141=Y|10=003|
8=FIX.4.4|9=110|35=A|34=1|49=013|50=013B17|52=20190611-20:21:27.137|56=EXC|43=Y|98=0|108=30|141=Y|553=013FCM001|554=013FCM001|10=082|
8=FIX.4.4|9=0067|35=A|34=1|49=EXC|56=013|52=20190611-20:21:27.188|98=0|108=30|141=Y|10=007|
8=FIX.4.4|9=0049|35=0|34=2|49=EXC|56=013|52=20190611-20:21:57.000|10=163|
8=FIX.4.4|9=59|35=0|34=2|49=013|50=013B17|52=20190611-20:21:57.828|56=EXC|10=055|
8=FIX.4.4|9=0049|35=0|34=3|49=EXC|56=013|52=20190611-20:22:27.000|10=162|
8=FIX.4.4|9=59|35=0|34=3|49=013|50=013B17|52=20190611-20:22:27.827|56=EXC|10=053|
8=FIX.4.4|9=110|35=A|34=1|49=013|50=013B17|52=20190611-20:39:35.057|56=EXC|43=Y|98=0|108=30|141=Y|553=013FCM001|554=013FCM001|10=091|
8=FIX.4.4|9=0067|35=A|34=1|49=EXC|56=013|52=20190611-20:39:35.682|98=0|108=30|141=Y|10=014|
8=FIX.4.4|9=59|35=0|34=2|49=013|50=013B17|52=20190611-20:40:05.133|56=EXC|10=038|
8=FIX.4.4|9=0049|35=0|34=2|49=EXC|56=013|52=20190611-20:40:05.000|10=157|
8=FIX.4.4|9=59|35=0|34=3|49=013|50=013B17|52=20190611-20:40:35.133|56=EXC|10=042|
8=FIX.4.4|9=0049|35=0|34=3|49=EXC|56=013|52=20190611-20:40:35.000|10=161|
8=FIX.4.4|9=110|35=A|34=1|49=013|50=013B17|52=20190611-20:50:01.005|56=EXC|43=Y|98=0|108=30|141=Y|553=013FCM001|554=013FCM001|10=070|
8=FIX.4.4|9=0067|35=A|34=1|49=EXC|56=013|52=20190611-20:50:01.022|98=0|108=30|141=Y|10=244|
8=FIX.4.4|9=0049|35=0|34=2|49=EXC|56=013|52=20190611-20:50:31.000|10=157|
8=FIX.4.4|9=59|35=0|34=2|49=013|50=013B17|52=20190611-20:50:31.053|56=EXC|10=039|
8=FIX.4.4|9=110|35=A|34=1|49=013|50=013B17|52=20190611-20:54:28.918|56=EXC|43=Y|98=0|108=30|141=Y|553=013FCM001|554=013FCM001|10=096|
8=FIX.4.4|9=0067|35=A|34=1|49=EXC|56=013|52=20190611-20:54:28.940|98=0|108=30|141=Y|10=010|
8=FIX.4.4|9=0049|35=0|34=2|49=EXC|56=013|52=20190611-20:54:58.000|10=170|
8=FIX.4.4|9=59|35=0|34=2|49=013|50=013B17|52=20190611-20:54:59.413|56=EXC|10=053|
8=FIX.4.4|9=110|35=A|34=1|49=013|50=013B17|52=20190611-20:56:58.949|56=EXC|43=Y|98=0|108=30|141=Y|553=013FCM001|554=013FCM001|10=105|
8=FIX.4.4|9=0067|35=A|34=1|49=EXC|56=013|52=20190611-20:56:58.971|98=0|108=30|141=Y|10=019|
8=FIX.4.4|9=0049|35=0|34=2|49=EXC|56=013|52=20190611-20:57:28.000|10=170|
8=FIX.4.4|9=59|35=0|34=2|49=013|50=013B17|52=20190611-20:57:29.015|56=EXC|10=051|
8=FIX.4.4|9=110|35=A|34=1|49=013|50=013B17|52=20190611-20:59:27.590|56=EXC|43=Y|98=0|108=30|141=Y|553=013FCM001|554=013FCM001|10=096|
8=FIX.4.4|9=0067|35=A|34=1|49=EXC|56=013|52=20190611-20:59:27.606|98=0|108=30|141=Y|10=013|
8=FIX.4.4|9=0049|35=0|34=2|49=EXC|56=013|52=20190611-20:59:57.000|10=174|
8=FIX.4.4|9=59|35=0|34=2|49=013|50=013B17|52=20190611-20:59:58.398|56=EXC|10=069|
8=FIX.4.4|9=0049|35=0|34=3|49=EXC|56=013|52=20190611-21:00:27.000|10=159|
8=FIX.4.4|9=59|35=0|34=3|49=013|50=013B17|52=20190611-21:00:28.398|56=EXC|10=054|
8=FIX.4.4|9=110|35=A|34=1|49=013|50=013B17|52=20190611-21:02:11.611|56=EXC|43=Y|98=0|108=30|141=Y|553=013FCM001|554=013FCM001|10=072|
8=FIX.4.4|9=0067|35=A|34=1|49=EXC|56=013|52=20190611-21:02:11.816|98=0|108=30|141=Y|10=254|
8=FIX.4.4|9=0049|35=0|34=2|49=EXC|56=013|52=20190611-21:02:41.000|10=156|
8=FIX.4.4|9=59|35=0|34=2|49=013|50=013B17|52=20190611-21:02:42.042|56=EXC|10=037|
8=FIX.4.4|9=110|35=A|34=1|49=013|50=013B17|52=20190611-21:18:19.874|56=EXC|43=Y|98=0|108=30|141=Y|553=013FCM001|554=013FCM001|10=098|
8=FIX.4.4|9=0067|35=A|34=1|49=EXC|56=013|52=20190611-21:18:19.821|98=0|108=30|141=Y|10=009|
8=FIX.4.4|9=0049|35=0|34=2|49=EXC|56=013|52=20190611-21:18:49.000|10=171|
8=FIX.4.4|9=59|35=0|34=2|49=013|50=013B17|52=20190611-21:18:50.722|56=EXC|10=048|
8=FIX.4.4|9=110|35=A|34=1|49=013|50=013B17|52=20190611-21:20:20.147|56=EXC|43=Y|98=0|108=30|141=Y|553=013FCM001|554=013FCM001|10=076|
8=FIX.4.4|9=0067|35=A|34=1|49=EXC|56=013|52=20190611-21:20:20.099|98=0|108=30|141=Y|10=001|
8=FIX.4.4|9=0049|35=0|34=2|49=EXC|56=013|52=20190611-21:20:50.000|10=156|
8=FIX.4.4|9=59|35=0|34=2|49=013|50=013B17|52=20190611-21:20:51.008|56=EXC|10=039|
8=FIX.4.4|9=110|35=A|34=1|49=013|50=013B17|52=20190611-21:21:34.765|56=EXC|43=Y|98=0|108=30|141=Y|553=013FCM001|554=013FCM001|10=088|
8=FIX.4.4|9=0067|35=A|34=1|49=EXC|56=013|52=20190611-21:21:34.737|98=0|108=30|141=Y|10=006|
8=FIX.4.4|9=0049|35=0|34=2|49=EXC|56=013|52=20190611-21:22:04.000|10=157|
8=FIX.4.4|9=59|35=0|34=2|49=013|50=013B17|52=20190611-21:22:05.669|56=EXC|10=053|
8=FIX.4.4|9=110|35=A|34=1|49=013|50=013B17|52=20190611-21:40:48.984|56=EXC|43=Y|98=0|108=30|141=Y|553=013FCM001|554=013FCM001|10=097|
8=FIX.4.4|9=0067|35=A|34=1|49=EXC|56=013|52=20190611-21:40:49.013|98=0|108=30|141=Y|10=000|
8=FIX.4.4|9=0049|35=0|34=2|49=EXC|56=013|52=20190611-21:41:19.000|10=164|
8=FIX.4.4|9=59|35=0|34=2|49=013|50=013B17|52=20190611-21:41:19.037|56=EXC|10=048|
8=FIX.4.4|9=110|35=A|34=1|49=013|50=013B17|52=20190611-21:42:47.508|56=EXC|43=Y|98=0|108=30|141=Y|553=013FCM001|554=013FCM001|10=090|
8=FIX.4.4|9=0067|35=A|34=1|49=EXC|56=013|52=20190611-21:42:47.559|98=0|108=30|141=Y|10=015|
