8=FIX.4.4|9=110|35=A|34=1|49=010|50=010BWN|52=20190527-20:57:10.025|56=EXC|43=Y|98=0|108=30|141=Y|553=013FCM001|554=013FCM001|10=140|
8=FIX.4.4|9=110|35=A|34=1|49=010|50=010BWN|52=20190527-20:58:46.237|56=EXC|43=Y|98=0|108=30|141=Y|553=013FCM001|554=013FCM001|10=155|
8=FIX.4.4|9=110|35=A|34=1|49=010|50=010BWN|52=20190527-21:00:54.369|56=EXC|43=Y|98=0|108=30|141=Y|553=013FCM001|554=013FCM001|10=148|
8=FIX.4.4|9=110|35=A|34=1|49=010|50=010BWN|52=20190527-21:10:19.071|56=EXC|43=Y|98=0|108=30|141=Y|553=010FCE003|554=010FCE003|10=122|
8=FIX.4.4|9=0067|35=A|34=1|49=EXC|56=010|52=20190527-21:10:19.085|98=0|108=30|141=Y|10=006|
8=FIX.4.4|9=110|35=A|34=1|49=010|50=010BWN|52=20190527-21:22:19.572|56=EXC|43=Y|98=0|108=30|141=Y|553=010FCE003|554=010FCE003|10=131|
8=FIX.4.4|9=0067|35=A|34=1|49=EXC|56=010|52=20190527-21:22:19.580|98=0|108=30|141=Y|10=009|
8=FIX.4.4|9=110|35=A|34=1|49=010|50=010BWN|52=20190527-21:24:07.011|56=EXC|43=Y|98=0|108=30|141=Y|553=010FCE003|554=010FCE003|10=118|
8=FIX.4.4|9=0067|35=A|34=1|49=EXC|56=010|52=20190527-21:24:07.014|98=0|108=30|141=Y|10=000|
8=FIX.4.4|9=110|35=A|34=1|49=010|50=010BWN|52=20190527-21:28:00.414|56=EXC|43=Y|98=0|108=30|141=Y|553=010FCE003|554=010FCE003|10=122|
8=FIX.4.4|9=0067|35=A|34=1|49=EXC|56=010|52=20190527-21:28:00.419|98=0|108=30|141=Y|10=006|
8=FIX.4.4|9=110|35=A|34=1|49=010|50=010BWN|52=20190527-21:29:23.538|56=EXC|43=Y|98=0|108=30|141=Y|553=010FCE003|554=010FCE003|10=135|
8=FIX.4.4|9=0067|35=A|34=1|49=EXC|56=010|52=20190527-21:29:23.537|98=0|108=30|141=Y|10=013|
8=FIX.4.4|9=110|35=A|34=1|49=010|50=010BWN|52=20190528-12:36:49.722|56=EXC|43=Y|98=0|108=30|141=Y|553=010FCE003|554=010FCE003|10=137|
8=FIX.4.4|9=0067|35=A|34=1|49=EXC|56=010|52=20190528-12:36:50.511|98=0|108=30|141=Y|10=004|
8=FIX.4.4|9=0049|35=0|34=2|49=EXC|56=010|52=20190528-12:37:20.000|10=165|
8=FIX.4.4|9=59|35=0|34=2|49=010|50=010BWN|52=20190528-12:37:20.613|56=EXC|10=107|
8=FIX.4.4|9=110|35=A|34=1|49=010|50=010BWN|52=20190528-12:43:36.320|56=EXC|43=Y|98=0|108=30|141=Y|553=010FCE003|554=010FCE003|10=125|
8=FIX.4.4|9=0067|35=A|34=1|49=EXC|56=010|52=20190528-12:43:36.643|98=0|108=30|141=Y|10=012|
8=FIX.4.4|9=110|35=A|34=1|49=010|50=010BWN|52=20190528-12:57:43.640|56=EXC|43=Y|98=0|108=30|141=Y|553=010FCE003|554=010FCE003|10=133|
8=FIX.4.4|9=0067|35=A|34=1|49=EXC|56=010|52=20190528-12:57:44.175|98=0|108=30|141=Y|10=016|
8=FIX.4.4|9=110|35=A|34=1|49=010|50=010BWN|52=20190528-12:59:56.711|56=EXC|43=Y|98=0|108=30|141=Y|553=010FCE003|554=010FCE003|10=138|
8=FIX.4.4|9=0067|35=A|34=1|49=EXC|56=010|52=20190528-12:59:57.284|98=0|108=30|141=Y|10=023|
8=FIX.4.4|9=0049|35=0|34=2|49=EXC|56=010|52=20190528-13:00:27.000|10=163|
8=FIX.4.4|9=59|35=0|34=2|49=010|50=010BWN|52=20190528-13:00:27.534|56=EXC|10=107|
8=FIX.4.4|9=110|35=A|34=1|49=010|50=010BWN|52=20190528-13:26:08.663|56=EXC|43=Y|98=0|108=30|141=Y|553=010FCE003|554=010FCE003|10=136|
8=FIX.4.4|9=0067|35=A|34=1|49=EXC|56=010|52=20190528-13:26:08.735|98=0|108=30|141=Y|10=015|
