8=FIX.4.4|9=110|35=A|34=1|49=001|50=001B27|52=20190529-15:45:10.636|56=EXC|43=Y|98=0|108=30|141=Y|553=001FCM001|554=001FCM001|10=085|
8=FIX.4.4|9=0067|35=A|34=1|49=EXC|56=001|52=20190529-15:45:07.183|98=0|108=30|141=Y|10=015|
8=FIX.4.4|9=177|35=R|34=2|49=001|50=001B27|52=20190529-15:45:15.976|56=EXC|131=75592559|146=1|55=TFIC13280425|22=M|762=RFQF|54=1|38=500000000|453=2|448=002B35|447=C|452=37|448=DCV|447=C|452=10|10=087|
8=FIX.4.4|9=0259|35=AI|34=2|49=EXC|56=001|57=001B27|52=20190529-15:45:12.484|131=75592559|453=5|448=DCV|447=C|452=10|448=001B27|447=C|452=12|448=001|447=C|452=1|448=001FCM001|447=C|452=36|448=002B35|447=C|452=37|55=TFIC13280425|762=RFQF|48=20626|22=M|54=1|38=500000000|297=10|10=233|
8=FIX.4.4|9=110|35=A|34=1|49=001|50=001B27|52=20190529-15:49:00.776|56=EXC|43=Y|98=0|108=30|141=Y|553=001FCM001|554=001FCM001|10=093|
8=FIX.4.4|9=0067|35=A|34=1|49=EXC|56=001|52=20190529-15:48:57.322|98=0|108=30|141=Y|10=018|
8=FIX.4.4|9=177|35=R|34=2|49=001|50=001B27|52=20190529-15:49:06.128|56=EXC|131=29879115|146=1|55=TFIC13280425|22=M|762=RFQF|54=1|38=500000000|453=2|448=002B35|447=C|452=37|448=DCV|447=C|452=10|10=075|
8=FIX.4.4|9=0259|35=AI|34=2|49=EXC|56=001|57=001B27|52=20190529-15:49:02.639|131=29879115|453=5|448=DCV|447=C|452=10|448=001B27|447=C|452=12|448=001|447=C|452=1|448=001FCM001|447=C|452=36|448=002B35|447=C|452=37|55=TFIC13280425|762=RFQF|48=20626|22=M|54=1|38=500000000|297=10|10=233|
8=FIX.4.4|9=110|35=A|34=1|49=001|50=001B27|52=20190529-15:53:18.785|56=EXC|43=Y|98=0|108=30|141=Y|553=001FCM001|554=001FCM001|10=097|
8=FIX.4.4|9=0067|35=A|34=1|49=EXC|56=001|52=20190529-15:53:15.351|98=0|108=30|141=Y|10=010|
8=FIX.4.4|9=177|35=R|34=2|49=001|50=001B27|52=20190529-15:53:24.081|56=EXC|131=49339068|146=1|55=TFIC13280425|22=M|762=RFQF|54=1|38=500000000|453=2|448=002B35|447=C|452=37|448=DCV|447=C|452=10|10=068|
8=FIX.4.4|9=0259|35=AI|34=2|49=EXC|56=001|57=001B27|52=20190529-15:53:20.590|131=49339068|453=5|448=DCV|447=C|452=10|448=001B27|447=C|452=12|448=001|447=C|452=1|448=001FCM001|447=C|452=36|448=002B35|447=C|452=37|55=TFIC13280425|762=RFQF|48=20626|22=M|54=1|38=500000000|297=10|10=224|
8=FIX.4.4|9=0049|35=0|34=3|49=EXC|56=001|52=20190529-15:53:50.000|10=171|
8=FIX.4.4|9=59|35=0|34=3|49=001|50=001B27|52=20190529-15:53:54.756|56=EXC|10=065|
8=FIX.4.4|9=110|35=A|34=1|49=001|50=001B27|52=20190529-15:54:29.639|56=EXC|43=Y|98=0|108=30|141=Y|553=001FCM001|554=001FCM001|10=098|
8=FIX.4.4|9=0067|35=A|34=1|49=EXC|56=001|52=20190529-15:54:26.344|98=0|108=30|141=Y|10=015|
8=FIX.4.4|9=177|35=R|34=2|49=001|50=001B27|52=20190529-15:54:35.088|56=EXC|131=49336389|146=1|55=TFIC13280425|22=M|762=RFQF|54=1|38=500000000|453=2|448=002B35|447=C|452=37|448=DCV|447=C|452=10|10=081|
8=FIX.4.4|9=0259|35=AI|34=2|49=EXC|56=001|57=001B27|52=20190529-15:54:31.602|131=49336389|453=5|448=DCV|447=C|452=10|448=001B27|447=C|452=12|448=001|447=C|452=1|448=001FCM001|447=C|452=36|448=002B35|447=C|452=37|55=TFIC13280425|762=RFQF|48=20626|22=M|54=1|38=500000000|297=10|10=224|
8=FIX.4.4|9=0049|35=0|34=3|49=EXC|56=001|52=20190529-15:55:01.000|10=169|
8=FIX.4.4|9=59|35=0|34=3|49=001|50=001B27|52=20190529-15:55:05.616|56=EXC|10=058|
8=FIX.4.4|9=110|35=A|34=1|49=001|50=001B27|52=20190529-16:31:18.788|56=EXC|43=Y|98=0|108=30|141=Y|553=001FCM001|554=001FCM001|10=097|
8=FIX.4.4|9=0067|35=A|34=1|49=EXC|56=001|52=20190529-16:31:15.366|98=0|108=30|141=Y|10=013|
8=FIX.4.4|9=177|35=R|34=2|49=001|50=001B27|52=20190529-16:31:24.186|56=EXC|131=49858699|146=1|55=TFIC13280425|22=M|762=RFQF|54=1|38=500000000|453=2|448=002B35|447=C|452=37|448=DCV|447=C|452=10|10=087|
8=FIX.4.4|9=0259|35=AI|34=2|49=EXC|56=001|57=001B27|52=20190529-16:31:20.697|131=49858699|453=5|448=DCV|447=C|452=10|448=001B27|447=C|452=12|448=001|447=C|452=1|448=001FCM001|447=C|452=36|448=002B35|447=C|452=37|55=TFIC13280425|762=RFQF|48=20626|22=M|54=1|38=500000000|297=10|10=245|
8=FIX.4.4|9=0049|35=0|34=3|49=EXC|56=001|52=20190529-16:31:50.000|10=168|
8=FIX.4.4|9=59|35=0|34=3|49=001|50=001B27|52=20190529-16:31:54.759|56=EXC|10=065|
8=FIX.4.4|9=0049|35=0|34=4|49=EXC|56=001|52=20190529-16:32:20.000|10=167|
8=FIX.4.4|9=59|35=0|34=4|49=001|50=001B27|52=20190529-16:32:24.760|56=EXC|10=056|
8=FIX.4.4|9=110|35=A|34=1|49=001|50=001B27|52=20190529-16:41:51.521|56=EXC|43=Y|98=0|108=30|141=Y|553=001FCM001|554=001FCM001|10=080|
8=FIX.4.4|9=0067|35=A|34=1|49=EXC|56=001|52=20190529-16:41:48.075|98=0|108=30|141=Y|10=017|
8=FIX.4.4|9=176|35=R|34=2|49=001|50=001B27|52=20190529-16:41:56.815|56=EXC|131=4859171|146=1|55=TFIC13280425|22=M|762=RFQF|54=1|38=500000000|453=2|448=002B35|447=C|452=37|448=DCV|447=C|452=10|10=020|
8=FIX.4.4|9=0258|35=AI|34=2|49=EXC|56=001|57=001B27|52=20190529-16:41:53.327|131=4859171|453=5|448=DCV|447=C|452=10|448=001B27|447=C|452=12|448=001|447=C|452=1|448=001FCM001|447=C|452=36|448=002B35|447=C|452=37|55=TFIC13280425|762=RFQF|48=20626|22=M|54=1|38=500000000|297=10|10=170|
8=FIX.4.4|9=0049|35=0|34=3|49=EXC|56=001|52=20190529-16:42:23.000|10=170|
8=FIX.4.4|9=59|35=0|34=3|49=001|50=001B27|52=20190529-16:42:27.483|56=EXC|10=061|
8=FIX.4.4|9=110|35=A|34=1|49=001|50=001B27|52=20190529-16:47:42.408|56=EXC|43=Y|98=0|108=30|141=Y|553=001FCM001|554=001FCM001|10=090|
8=FIX.4.4|9=0067|35=A|34=1|49=EXC|56=001|52=20190529-16:47:38.972|98=0|108=30|141=Y|10=028|
8=FIX.4.4|9=177|35=R|34=2|49=001|50=001B27|52=20190529-16:47:47.758|56=EXC|131=16887227|146=1|55=TFIC13280425|22=M|762=RFQF|54=1|38=500000000|453=2|448=002B35|447=C|452=37|448=DCV|447=C|452=10|10=087|
8=FIX.4.4|9=0259|35=AI|34=2|49=EXC|56=001|57=001B27|52=20190529-16:47:44.272|131=16887227|453=5|448=DCV|447=C|452=10|448=001B27|447=C|452=12|448=001|447=C|452=1|448=001FCM001|447=C|452=36|448=002B35|447=C|452=37|55=TFIC13280425|762=RFQF|48=20626|22=M|54=1|38=500000000|297=10|10=230|
8=FIX.4.4|9=110|35=A|34=1|49=001|50=001B27|52=20190529-16:55:22.389|56=EXC|43=Y|98=0|108=30|141=Y|553=001FCM001|554=001FCM001|10=095|
8=FIX.4.4|9=0067|35=A|34=1|49=EXC|56=001|52=20190529-16:55:18.937|98=0|108=30|141=Y|10=026|
8=FIX.4.4|9=177|35=R|34=2|49=001|50=001B27|52=20190529-16:55:27.732|56=EXC|131=48903053|146=1|55=TFIC13280425|22=M|762=RFQF|54=1|38=500000000|453=2|448=002B35|447=C|452=37|448=DCV|447=C|452=10|10=067|
8=FIX.4.4|9=0259|35=AI|34=2|49=EXC|56=001|57=001B27|52=20190529-16:55:24.243|131=48903053|453=5|448=DCV|447=C|452=10|448=001B27|447=C|452=12|448=001|447=C|452=1|448=001FCM001|447=C|452=36|448=002B35|447=C|452=37|55=TFIC13280425|762=RFQF|48=20626|22=M|54=1|38=500000000|297=10|10=216|
8=FIX.4.4|9=110|35=A|34=1|49=001|50=001B27|52=20190529-17:07:01.938|56=EXC|43=Y|98=0|108=30|141=Y|553=001FCM001|554=001FCM001|10=090|
8=FIX.4.4|9=0067|35=A|34=1|49=EXC|56=001|52=20190529-17:06:58.498|98=0|108=30|141=Y|10=029|
8=FIX.4.4|9=177|35=R|34=2|49=001|50=001B27|52=20190529-17:07:07.304|56=EXC|131=67127022|146=1|55=TFIC13280425|22=M|762=RFQF|54=1|38=500000000|453=2|448=002B35|447=C|452=37|448=DCV|447=C|452=10|10=053|
8=FIX.4.4|9=0259|35=AI|34=2|49=EXC|56=001|57=001B27|52=20190529-17:07:03.814|131=67127022|453=5|448=DCV|447=C|452=10|448=001B27|447=C|452=12|448=001|447=C|452=1|448=001FCM001|447=C|452=36|448=002B35|447=C|452=37|55=TFIC13280425|762=RFQF|48=20626|22=M|54=1|38=500000000|297=10|10=210|
8=FIX.4.4|9=110|35=A|34=1|49=001|50=001B27|52=20190529-20:17:01.705|56=EXC|43=Y|98=0|108=30|141=Y|553=001FCM001|554=001FCM001|10=077|
8=FIX.4.4|9=0067|35=A|34=1|49=EXC|56=001|52=20190529-20:16:58.224|98=0|108=30|141=Y|10=011|
8=FIX.4.4|9=177|35=R|34=2|49=001|50=001B27|52=20190529-20:17:07.182|56=EXC|131=11297418|146=1|55=TFIC13280425|22=M|762=RFQF|54=1|38=500000000|453=2|448=002B35|447=C|452=37|448=DCV|447=C|452=10|10=058|
8=FIX.4.4|9=0259|35=AI|34=2|49=EXC|56=001|57=001B27|52=20190529-20:17:03.530|131=11297418|453=5|448=DCV|447=C|452=10|448=001B27|447=C|452=12|448=001|447=C|452=1|448=001FCM001|447=C|452=36|448=002B35|447=C|452=37|55=TFIC13280425|762=RFQF|48=20626|22=M|54=1|38=500000000|297=10|10=206|
8=FIX.4.4|9=110|35=A|34=1|49=001|50=001B27|52=20190529-20:19:05.986|56=EXC|43=Y|98=0|108=30|141=Y|553=001FCM001|554=001FCM001|10=094|
8=FIX.4.4|9=0067|35=A|34=1|49=EXC|56=001|52=20190529-20:19:02.496|98=0|108=30|141=Y|10=014|
8=FIX.4.4|9=177|35=R|34=2|49=001|50=001B27|52=20190529-20:19:11.553|56=EXC|131=80176707|146=1|55=TFIC13280425|22=M|762=RFQF|54=1|38=500000000|453=2|448=002B35|447=C|452=37|448=DCV|447=C|452=10|10=060|
8=FIX.4.4|9=0259|35=AI|34=2|49=EXC|56=001|57=001B27|52=20190529-20:19:07.903|131=80176707|453=5|448=DCV|447=C|452=10|448=001B27|447=C|452=12|448=001|447=C|452=1|448=001FCM001|447=C|452=36|448=002B35|447=C|452=37|55=TFIC13280425|762=RFQF|48=20626|22=M|54=1|38=500000000|297=10|10=219|
8=FIX.4.4|9=110|35=A|34=1|49=001|50=001B27|52=20190529-20:22:46.949|56=EXC|43=Y|98=0|108=30|141=Y|553=001FCM001|554=001FCM001|10=092|
8=FIX.4.4|9=0067|35=A|34=1|49=EXC|56=001|52=20190529-20:22:43.430|98=0|108=30|141=Y|10=001|
8=FIX.4.4|9=177|35=R|34=2|49=001|50=001B27|52=20190529-20:22:52.323|56=EXC|131=78579290|146=1|55=TFIC13280425|22=M|762=RFQF|54=1|38=500000000|453=2|448=002B35|447=C|452=37|448=DCV|447=C|452=10|10=065|
8=FIX.4.4|9=0259|35=AI|34=2|49=EXC|56=001|57=001B27|52=20190529-20:22:48.667|131=78579290|453=5|448=DCV|447=C|452=10|448=001B27|447=C|452=12|448=001|447=C|452=1|448=001FCM001|447=C|452=36|448=002B35|447=C|452=37|55=TFIC13280425|762=RFQF|48=20626|22=M|54=1|38=500000000|297=10|10=236|
8=FIX.4.4|9=0049|35=0|34=3|49=EXC|56=001|52=20190529-20:23:18.000|10=168|
8=FIX.4.4|9=59|35=0|34=3|49=001|50=001B27|52=20190529-20:23:22.904|56=EXC|10=048|
8=FIX.4.4|9=110|35=A|34=1|49=001|50=001B27|52=20190529-20:25:43.774|56=EXC|43=Y|98=0|108=30|141=Y|553=001FCM001|554=001FCM001|10=088|
8=FIX.4.4|9=0067|35=A|34=1|49=EXC|56=001|52=20190529-20:25:40.211|98=0|108=30|141=Y|10=254|
8=FIX.4.4|9=177|35=R|34=2|49=001|50=001B27|52=20190529-20:25:49.180|56=EXC|131=22751591|146=1|55=TFIC13280425|22=M|762=RFQF|54=1|38=500000000|453=2|448=002B35|447=C|452=37|448=DCV|447=C|452=10|10=060|
8=FIX.4.4|9=0259|35=AI|34=2|49=EXC|56=001|57=001B27|52=20190529-20:25:45.527|131=22751591|453=5|448=DCV|447=C|452=10|448=001B27|447=C|452=12|448=001|447=C|452=1|448=001FCM001|447=C|452=36|448=002B35|447=C|452=37|55=TFIC13280425|762=RFQF|48=20626|22=M|54=1|38=500000000|297=10|10=216|
8=FIX.4.4|9=110|35=A|34=1|49=001|50=001B27|52=20190529-20:26:50.262|56=EXC|43=Y|98=0|108=30|141=Y|553=001FCM001|554=001FCM001|10=079|
8=FIX.4.4|9=0067|35=A|34=1|49=EXC|56=001|52=20190529-20:26:46.999|98=0|108=30|141=Y|10=028|
8=FIX.4.4|9=177|35=R|34=2|49=001|50=001B27|52=20190529-20:26:55.943|56=EXC|131=49852828|146=1|55=TFIC13280425|22=M|762=RFQF|54=1|38=500000000|453=2|448=002B35|447=C|452=37|448=DCV|447=C|452=10|10=079|
8=FIX.4.4|9=0259|35=AI|34=2|49=EXC|56=001|57=001B27|52=20190529-20:26:52.287|131=49852828|453=5|448=DCV|447=C|452=10|448=001B27|447=C|452=12|448=001|447=C|452=1|448=001FCM001|447=C|452=36|448=002B35|447=C|452=37|55=TFIC13280425|762=RFQF|48=20626|22=M|54=1|38=500000000|297=10|10=232|
8=FIX.4.4|9=110|35=A|34=1|49=001|50=001B27|52=20190529-20:28:23.104|56=EXC|43=Y|98=0|108=30|141=Y|553=001FCM001|554=001FCM001|10=076|
8=FIX.4.4|9=0067|35=A|34=1|49=EXC|56=001|52=20190529-20:28:19.765|98=0|108=30|141=Y|10=021|
8=FIX.4.4|9=177|35=R|34=2|49=001|50=001B27|52=20190529-20:28:28.122|56=EXC|131=14888215|146=1|55=TFIC13280425|22=M|762=RFQF|54=1|38=500000000|453=2|448=002B35|447=C|452=37|448=DCV|447=C|452=10|10=061|
8=FIX.4.4|9=0259|35=AI|34=2|49=EXC|56=001|57=001B27|52=20190529-20:28:24.473|131=14888215|453=5|448=DCV|447=C|452=10|448=001B27|447=C|452=12|448=001|447=C|452=1|448=001FCM001|447=C|452=36|448=002B35|447=C|452=37|55=TFIC13280425|762=RFQF|48=20626|22=M|54=1|38=500000000|297=10|10=221|
8=FIX.4.4|9=0049|35=0|34=3|49=EXC|56=001|52=20190529-20:28:54.000|10=173|
8=FIX.4.4|9=110|35=A|34=1|49=001|50=001B27|52=20190529-20:31:40.179|56=EXC|43=Y|98=0|108=30|141=Y|553=001FCM001|554=001FCM001|10=081|
8=FIX.4.4|9=0067|35=A|34=1|49=EXC|56=001|52=20190529-20:31:36.600|98=0|108=30|141=Y|10=002|
8=FIX.4.4|9=110|35=A|34=1|49=001|50=001B27|52=20190529-20:31:49.895|56=EXC|43=Y|98=0|108=30|141=Y|553=001FCM001|554=001FCM001|10=095|
8=FIX.4.4|9=0067|35=A|34=1|49=EXC|56=001|52=20190529-20:31:46.297|98=0|108=30|141=Y|10=015|
8=FIX.4.4|9=176|35=R|34=2|49=001|50=001B27|52=20190529-20:31:55.325|56=EXC|131=1932769|146=1|55=TFIC13280425|22=M|762=RFQF|54=1|38=500000000|453=2|448=002B35|447=C|452=37|448=DCV|447=C|452=10|10=011|
8=FIX.4.4|9=0258|35=AI|34=2|49=EXC|56=001|57=001B27|52=20190529-20:31:51.667|131=1932769|453=5|448=DCV|447=C|452=10|448=001B27|447=C|452=12|448=001|447=C|452=1|448=001FCM001|447=C|452=36|448=002B35|447=C|452=37|55=TFIC13280425|762=RFQF|48=20626|22=M|54=1|38=500000000|297=10|10=171|
8=FIX.4.4|9=0049|35=0|34=3|49=EXC|56=001|52=20190529-20:32:21.000|10=162|
8=FIX.4.4|9=59|35=0|34=3|49=001|50=001B27|52=20190529-20:32:25.860|56=EXC|10=052|
8=FIX.4.4|9=110|35=A|34=1|49=001|50=001B27|52=20190529-20:32:40.142|56=EXC|43=Y|98=0|108=30|141=Y|553=001FCM001|554=001FCM001|10=072|
8=FIX.4.4|9=0067|35=A|34=1|49=EXC|56=001|52=20190529-20:32:36.556|98=0|108=30|141=Y|10=013|
8=FIX.4.4|9=177|35=R|34=2|49=001|50=001B27|52=20190529-20:32:45.507|56=EXC|131=73274364|146=1|55=TFIC13280425|22=M|762=RFQF|54=1|38=500000000|453=2|448=002B35|447=C|452=37|448=DCV|447=C|452=10|10=061|
8=FIX.4.4|9=0259|35=AI|34=2|49=EXC|56=001|57=001B27|52=20190529-20:32:41.849|131=73274364|453=5|448=DCV|447=C|452=10|448=001B27|447=C|452=12|448=001|447=C|452=1|448=001FCM001|447=C|452=36|448=002B35|447=C|452=37|55=TFIC13280425|762=RFQF|48=20626|22=M|54=1|38=500000000|297=10|10=221|
8=FIX.4.4|9=110|35=A|34=1|49=001|50=001B27|52=20190529-20:33:32.548|56=EXC|43=Y|98=0|108=30|141=Y|553=001FCM001|554=001FCM001|10=084|
8=FIX.4.4|9=0067|35=A|34=1|49=EXC|56=001|52=20190529-20:33:28.934|98=0|108=30|141=Y|10=015|
8=FIX.4.4|9=177|35=R|34=2|49=001|50=001B27|52=20190529-20:33:37.901|56=EXC|131=39595128|146=1|55=TFIC13280425|22=M|762=RFQF|54=1|38=500000000|453=2|448=002B35|447=C|452=37|448=DCV|447=C|452=10|10=067|
8=FIX.4.4|9=0259|35=AI|34=2|49=EXC|56=001|57=001B27|52=20190529-20:33:34.242|131=39595128|453=5|448=DCV|447=C|452=10|448=001B27|447=C|452=12|448=001|447=C|452=1|448=001FCM001|447=C|452=36|448=002B35|447=C|452=37|55=TFIC13280425|762=RFQF|48=20626|22=M|54=1|38=500000000|297=10|10=217|
8=FIX.4.4|9=0049|35=0|34=3|49=EXC|56=001|52=20190529-20:34:04.000|10=165|
8=FIX.4.4|9=59|35=0|34=3|49=001|50=001B27|52=20190529-20:34:08.513|56=EXC|10=050|
8=FIX.4.4|9=0049|35=0|34=4|49=EXC|56=001|52=20190529-20:34:34.000|10=169|
8=FIX.4.4|9=59|35=0|34=4|49=001|50=001B27|52=20190529-20:34:38.513|56=EXC|10=054|
8=FIX.4.4|9=110|35=A|34=1|49=001|50=001B27|52=20190529-20:37:17.379|56=EXC|43=Y|98=0|108=30|141=Y|553=001FCM001|554=001FCM001|10=093|
8=FIX.4.4|9=0067|35=A|34=1|49=EXC|56=001|52=20190529-20:37:13.757|98=0|108=30|141=Y|10=016|
8=FIX.4.4|9=177|35=R|34=2|49=001|50=001B27|52=20190529-20:37:22.678|56=EXC|131=56200030|146=1|55=TFIC13280425|22=M|762=RFQF|54=1|38=500000000|453=2|448=002B35|447=C|452=37|448=DCV|447=C|452=10|10=050|
8=FIX.4.4|9=0259|35=AI|34=2|49=EXC|56=001|57=001B27|52=20190529-20:37:19.020|131=56200030|453=5|448=DCV|447=C|452=10|448=001B27|447=C|452=12|448=001|447=C|452=1|448=001FCM001|447=C|452=36|448=002B35|447=C|452=37|55=TFIC13280425|762=RFQF|48=20626|22=M|54=1|38=500000000|297=10|10=192|
8=FIX.4.4|9=0049|35=0|34=3|49=EXC|56=001|52=20190529-20:37:49.000|10=177|
8=FIX.4.4|9=59|35=0|34=3|49=001|50=001B27|52=20190529-20:37:52.680|56=EXC|10=057|
8=FIX.4.4|9=110|35=A|34=1|49=001|50=001B27|52=20190529-20:38:56.221|56=EXC|43=Y|98=0|108=30|141=Y|553=001FCM001|554=001FCM001|10=083|
8=FIX.4.4|9=0067|35=A|34=1|49=EXC|56=001|52=20190529-20:38:52.621|98=0|108=30|141=Y|10=010|
8=FIX.4.4|9=177|35=R|34=2|49=001|50=001B27|52=20190529-20:39:01.595|56=EXC|131=70303370|146=1|55=TFIC13280425|22=M|762=RFQF|54=1|38=500000000|453=2|448=002B35|447=C|452=37|448=DCV|447=C|452=10|10=054|
8=FIX.4.4|9=0259|35=AI|34=2|49=EXC|56=001|57=001B27|52=20190529-20:38:57.935|131=70303370|453=5|448=DCV|447=C|452=10|448=001B27|447=C|452=12|448=001|447=C|452=1|448=001FCM001|447=C|452=36|448=002B35|447=C|452=37|55=TFIC13280425|762=RFQF|48=20626|22=M|54=1|38=500000000|297=10|10=217|
8=FIX.4.4|9=0049|35=0|34=3|49=EXC|56=001|52=20190529-20:39:27.000|10=175|
8=FIX.4.4|9=59|35=0|34=3|49=001|50=001B27|52=20190529-20:39:32.172|56=EXC|10=053|
8=FIX.4.4|9=0049|35=0|34=4|49=EXC|56=001|52=20190529-20:39:57.000|10=179|
8=FIX.4.4|9=59|35=0|34=4|49=001|50=001B27|52=20190529-20:40:02.172|56=EXC|10=043|
8=FIX.4.4|9=0049|35=0|34=5|49=EXC|56=001|52=20190529-20:40:27.000|10=169|
8=FIX.4.4|9=59|35=0|34=5|49=001|50=001B27|52=20190529-20:40:32.173|56=EXC|10=048|
8=FIX.4.4|9=110|35=A|34=1|49=001|50=001B27|52=20190529-20:40:53.223|56=EXC|43=Y|98=0|108=30|141=Y|553=001FCM001|554=001FCM001|10=075|
8=FIX.4.4|9=0067|35=A|34=1|49=EXC|56=001|52=20190529-20:40:49.651|98=0|108=30|141=Y|10=012|
8=FIX.4.4|9=177|35=R|34=2|49=001|50=001B27|52=20190529-20:40:58.534|56=EXC|131=44505277|146=1|55=TFIC13280425|22=M|762=RFQF|54=1|38=500000000|453=2|448=002B35|447=C|452=37|448=DCV|447=C|452=10|10=062|
8=FIX.4.4|9=0259|35=AI|34=2|49=EXC|56=001|57=001B27|52=20190529-20:40:54.873|131=44505277|453=5|448=DCV|447=C|452=10|448=001B27|447=C|452=12|448=001|447=C|452=1|448=001FCM001|447=C|452=36|448=002B35|447=C|452=37|55=TFIC13280425|762=RFQF|48=20626|22=M|54=1|38=500000000|297=10|10=219|
8=FIX.4.4|9=110|35=A|34=1|49=001|50=001B27|52=20190529-20:42:33.812|56=EXC|43=Y|98=0|108=30|141=Y|553=001FCM001|554=001FCM001|10=079|
8=FIX.4.4|9=0067|35=A|34=1|49=EXC|56=001|52=20190529-20:42:30.187|98=0|108=30|141=Y|10=008|
8=FIX.4.4|9=177|35=R|34=2|49=001|50=001B27|52=20190529-20:42:39.051|56=EXC|131=21754726|146=1|55=TFIC13280425|22=M|762=RFQF|54=1|38=500000000|453=2|448=002B35|447=C|452=37|448=DCV|447=C|452=10|10=057|
8=FIX.4.4|9=0259|35=AI|34=2|49=EXC|56=001|57=001B27|52=20190529-20:42:35.390|131=21754726|453=5|448=DCV|447=C|452=10|448=001B27|447=C|452=12|448=001|447=C|452=1|448=001FCM001|447=C|452=36|448=002B35|447=C|452=37|55=TFIC13280425|762=RFQF|48=20626|22=M|54=1|38=500000000|297=10|10=214|
8=FIX.4.4|9=110|35=A|34=1|49=001|50=001B27|52=20190529-20:43:15.004|56=EXC|43=Y|98=0|108=30|141=Y|553=001FCM001|554=001FCM001|10=073|
8=FIX.4.4|9=0067|35=A|34=1|49=EXC|56=001|52=20190529-20:43:11.381|98=0|108=30|141=Y|10=004|
8=FIX.4.4|9=177|35=R|34=2|49=001|50=001B27|52=20190529-20:43:20.547|56=EXC|131=21412835|146=1|55=TFIC13280425|22=M|762=RFQF|54=1|38=500000000|453=2|448=002B35|447=C|452=37|448=DCV|447=C|452=10|10=050|
8=FIX.4.4|9=0259|35=AI|34=2|49=EXC|56=001|57=001B27|52=20190529-20:43:16.884|131=21412835|453=5|448=DCV|447=C|452=10|448=001B27|447=C|452=12|448=001|447=C|452=1|448=001FCM001|447=C|452=36|448=002B35|447=C|452=37|55=TFIC13280425|762=RFQF|48=20626|22=M|54=1|38=500000000|297=10|10=214|
8=FIX.4.4|9=0049|35=0|34=3|49=EXC|56=001|52=20190529-20:43:46.000|10=171|
8=FIX.4.4|9=59|35=0|34=3|49=001|50=001B27|52=20190529-20:43:50.964|56=EXC|10=057|
8=FIX.4.4|9=110|35=A|34=1|49=001|50=001B27|52=20190529-20:45:17.252|56=EXC|43=Y|98=0|108=30|141=Y|553=001FCM001|554=001FCM001|10=082|
8=FIX.4.4|9=0067|35=A|34=1|49=EXC|56=001|52=20190529-20:45:13.658|98=0|108=30|141=Y|10=015|
8=FIX.4.4|9=177|35=R|34=2|49=001|50=001B27|52=20190529-20:45:22.537|56=EXC|131=78942908|146=1|55=TFIC13280425|22=M|762=RFQF|54=1|38=500000000|453=2|448=002B35|447=C|452=37|448=DCV|447=C|452=10|10=074|
8=FIX.4.4|9=0259|35=AI|34=2|49=EXC|56=001|57=001B27|52=20190529-20:45:18.876|131=78942908|453=5|448=DCV|447=C|452=10|448=001B27|447=C|452=12|448=001|447=C|452=1|448=001FCM001|447=C|452=36|448=002B35|447=C|452=37|55=TFIC13280425|762=RFQF|48=20626|22=M|54=1|38=500000000|297=10|10=240|
8=FIX.4.4|9=0049|35=0|34=3|49=EXC|56=001|52=20190529-20:45:48.000|10=175|
8=FIX.4.4|9=59|35=0|34=3|49=001|50=001B27|52=20190529-20:45:53.212|56=EXC|10=048|
8=FIX.4.4|9=110|35=A|34=1|49=001|50=001B27|52=20190529-20:46:43.865|56=EXC|43=Y|98=0|108=30|141=Y|553=001FCM001|554=001FCM001|10=092|
8=FIX.4.4|9=0067|35=A|34=1|49=EXC|56=001|52=20190529-20:46:40.305|98=0|108=30|141=Y|10=005|
8=FIX.4.4|9=177|35=R|34=2|49=001|50=001B27|52=20190529-20:46:49.132|56=EXC|131=50145024|146=1|55=TFIC13280425|22=M|762=RFQF|54=1|38=500000000|453=2|448=002B35|447=C|452=37|448=DCV|447=C|452=10|10=049|
8=FIX.4.4|9=0259|35=AI|34=2|49=EXC|56=001|57=001B27|52=20190529-20:46:45.471|131=50145024|453=5|448=DCV|447=C|452=10|448=001B27|447=C|452=12|448=001|447=C|452=1|448=001FCM001|447=C|452=36|448=002B35|447=C|452=37|55=TFIC13280425|762=RFQF|48=20626|22=M|54=1|38=500000000|297=10|10=206|
8=FIX.4.4|9=110|35=A|34=1|49=001|50=001B27|52=20190529-20:48:24.931|56=EXC|43=Y|98=0|108=30|141=Y|553=001FCM001|554=001FCM001|10=087|
8=FIX.4.4|9=0067|35=A|34=1|49=EXC|56=001|52=20190529-20:48:21.306|98=0|108=30|141=Y|10=007|
8=FIX.4.4|9=110|35=A|34=1|49=001|50=001B27|52=20190529-20:49:27.026|56=EXC|43=Y|98=0|108=30|141=Y|553=001FCM001|554=001FCM001|10=086|
8=FIX.4.4|9=0067|35=A|34=1|49=EXC|56=001|52=20190529-20:49:23.505|98=0|108=30|141=Y|10=011|
8=FIX.4.4|9=177|35=R|34=2|49=001|50=001B27|52=20190529-20:49:33.438|56=EXC|131=51465151|146=1|55=TFIC13280425|22=M|762=RFQF|54=1|38=500000000|453=2|448=002B35|447=C|452=37|448=DCV|447=C|452=10|10=061|
8=FIX.4.4|9=0259|35=AI|34=2|49=EXC|56=001|57=001B27|52=20190529-20:49:29.777|131=51465151|453=5|448=DCV|447=C|452=10|448=001B27|447=C|452=12|448=001|447=C|452=1|448=001FCM001|447=C|452=36|448=002B35|447=C|452=37|55=TFIC13280425|762=RFQF|48=20626|22=M|54=1|38=500000000|297=10|10=227|
8=FIX.4.4|9=0049|35=0|34=3|49=EXC|56=001|52=20190529-20:49:59.000|10=181|
8=FIX.4.4|9=59|35=0|34=3|49=001|50=001B27|52=20190529-20:50:03.950|56=EXC|10=048|
8=FIX.4.4|9=110|35=A|34=1|49=001|50=001B27|52=20190529-20:57:09.393|56=EXC|43=Y|98=0|108=30|141=Y|553=001FCM001|554=001FCM001|10=092|
8=FIX.4.4|9=0067|35=A|34=1|49=EXC|56=001|52=20190529-20:57:05.863|98=0|108=30|141=Y|10=017|
8=FIX.4.4|9=177|35=R|34=2|49=001|50=001B27|52=20190529-20:57:14.834|56=EXC|131=54217049|146=1|55=TFIC13280425|22=M|762=RFQF|54=1|38=500000000|453=2|448=002B35|447=C|452=37|448=DCV|447=C|452=10|10=063|
8=FIX.4.4|9=0259|35=AI|34=2|49=EXC|56=001|57=001B27|52=20190529-20:57:11.166|131=54217049|453=5|448=DCV|447=C|452=10|448=001B27|447=C|452=12|448=001|447=C|452=1|448=001FCM001|447=C|452=36|448=002B35|447=C|452=37|55=TFIC13280425|762=RFQF|48=20626|22=M|54=1|38=500000000|297=10|10=213|
8=FIX.4.4|9=0049|35=0|34=3|49=EXC|56=001|52=20190529-20:57:41.000|10=171|
8=FIX.4.4|9=59|35=0|34=3|49=001|50=001B27|52=20190529-20:57:45.341|56=EXC|10=055|
8=FIX.4.4|9=110|35=A|34=1|49=001|50=001B27|52=20190529-20:58:29.252|56=EXC|43=Y|98=0|108=30|141=Y|553=001FCM001|554=001FCM001|10=089|
8=FIX.4.4|9=0067|35=A|34=1|49=EXC|56=001|52=20190529-20:58:25.772|98=0|108=30|141=Y|10=019|
8=FIX.4.4|9=177|35=R|34=2|49=001|50=001B27|52=20190529-20:58:34.727|56=EXC|131=73222160|146=1|55=TFIC13280425|22=M|762=RFQF|54=1|38=500000000|453=2|448=002B35|447=C|452=37|448=DCV|447=C|452=10|10=058|
8=FIX.4.4|9=0259|35=AI|34=2|49=EXC|56=001|57=001B27|52=20190529-20:58:31.059|131=73222160|453=5|448=DCV|447=C|452=10|448=001B27|447=C|452=12|448=001|447=C|452=1|448=001FCM001|447=C|452=36|448=002B35|447=C|452=37|55=TFIC13280425|762=RFQF|48=20626|22=M|54=1|38=500000000|297=10|10=208|
8=FIX.4.4|9=110|35=A|34=1|49=001|50=001B27|52=20190529-21:02:28.359|56=EXC|43=Y|98=0|108=30|141=Y|553=001FCM001|554=001FCM001|10=086|
8=FIX.4.4|9=0067|35=A|34=1|49=EXC|56=001|52=20190529-21:02:25.214|98=0|108=30|141=Y|10=000|
8=FIX.4.4|9=177|35=R|34=2|49=001|50=001B27|52=20190529-21:02:33.722|56=EXC|131=26269441|146=1|55=TFIC13280425|22=M|762=RFQF|54=1|38=500000000|453=2|448=002B35|447=C|452=37|448=DCV|447=C|452=10|10=053|
8=FIX.4.4|9=0259|35=AI|34=2|49=EXC|56=001|57=001B27|52=20190529-21:02:30.056|131=26269441|453=5|448=DCV|447=C|452=10|448=001B27|447=C|452=12|448=001|447=C|452=1|448=001FCM001|447=C|452=36|448=002B35|447=C|452=37|55=TFIC13280425|762=RFQF|48=20626|22=M|54=1|38=500000000|297=10|10=205|
8=FIX.4.4|9=110|35=A|34=1|49=001|50=001B27|52=20190529-21:04:14.086|56=EXC|43=Y|98=0|108=30|141=Y|553=001FCM001|554=001FCM001|10=080|
8=FIX.4.4|9=0067|35=A|34=1|49=EXC|56=001|52=20190529-21:04:10.876|98=0|108=30|141=Y|10=010|
8=FIX.4.4|9=177|35=R|34=2|49=001|50=001B27|52=20190529-21:04:19.441|56=EXC|131=65756442|146=1|55=TFIC13280425|22=M|762=RFQF|54=1|38=500000000|453=2|448=002B35|447=C|452=37|448=DCV|447=C|452=10|10=062|
8=FIX.4.4|9=0259|35=AI|34=2|49=EXC|56=001|57=001B27|52=20190529-21:04:15.771|131=65756442|453=5|448=DCV|447=C|452=10|448=001B27|447=C|452=12|448=001|447=C|452=1|448=001FCM001|447=C|452=36|448=002B35|447=C|452=37|55=TFIC13280425|762=RFQF|48=20626|22=M|54=1|38=500000000|297=10|10=219|
8=FIX.4.4|9=110|35=A|34=1|49=001|50=001B27|52=20190529-21:05:02.008|56=EXC|43=Y|98=0|108=30|141=Y|553=001FCM001|554=001FCM001|10=072|
8=FIX.4.4|9=0067|35=A|34=1|49=EXC|56=001|52=20190529-21:04:58.430|98=0|108=30|141=Y|10=008|
8=FIX.4.4|9=0049|35=0|34=2|49=EXC|56=001|52=20190529-21:05:28.000|10=169|
8=FIX.4.4|9=59|35=0|34=2|49=001|50=001B27|52=20190529-21:05:32.952|56=EXC|10=052|
8=FIX.4.4|9=110|35=A|34=1|49=001|50=001B27|52=20190529-21:06:20.142|56=EXC|43=Y|98=0|108=30|141=Y|553=001FCM001|554=001FCM001|10=072|
8=FIX.4.4|9=0067|35=A|34=1|49=EXC|56=001|52=20190529-21:06:16.670|98=0|108=30|141=Y|10=010|
8=FIX.4.4|9=177|35=R|34=2|49=001|50=001B27|52=20190529-21:06:31.855|56=EXC|131=36585671|146=1|55=TFIC13280425|22=M|762=RFQF|54=1|38=500000000|453=2|448=002B35|447=C|452=37|448=DCV|447=C|452=10|10=069|
8=FIX.4.4|9=0259|35=AI|34=2|49=EXC|56=001|57=001B27|52=20190529-21:06:28.185|131=36585671|453=5|448=DCV|447=C|452=10|448=001B27|447=C|452=12|448=001|447=C|452=1|448=001FCM001|447=C|452=36|448=002B35|447=C|452=37|55=TFIC13280425|762=RFQF|48=20626|22=M|54=1|38=500000000|297=10|10=226|
8=FIX.4.4|9=104|35=A|34=3|49=001|50=001B27|52=20190529-21:06:38.271|56=EXC|43=Y|98=0|108=30|553=001FCM001|554=001FCM001|10=044|
8=FIX.4.4|9=0061|35=A|34=3|49=EXC|56=001|52=20190529-21:06:34.623|98=0|108=30|10=215|
8=FIX.4.4|9=0049|35=0|34=4|49=EXC|56=001|52=20190529-21:07:04.000|10=167|
8=FIX.4.4|9=59|35=0|34=4|49=001|50=001B27|52=20190529-21:07:08.265|56=EXC|10=056|
8=FIX.4.4|9=0307|35=S|34=5|49=EXC|56=001|57=001B27|52=20190529-21:07:09.968|131=36585671|117=20190529-000000000050.00|55=TFIC13280425|762=RFQF|48=20626|22=M|453=5|448=DCV|447=C|452=10|448=001B27|447=C|452=12|448=001|447=C|452=1|448=001FCM001|447=C|452=36|448=002B35|447=C|452=37|634=4.000|135=500000000|62=20190530-22:00:00|10=005|
8=FIX.4.4|9=104|35=A|34=5|49=001|50=001B27|52=20190529-21:07:21.129|56=EXC|43=Y|98=0|108=30|553=001FCM001|554=001FCM001|10=041|
8=FIX.4.4|9=0061|35=A|34=6|49=EXC|56=001|52=20190529-21:07:17.479|98=0|108=30|10=229|
8=FIX.4.4|9=110|35=A|34=1|49=001|50=001B27|52=20190529-21:07:52.747|56=EXC|43=Y|98=0|108=30|141=Y|553=001FCM001|554=001FCM001|10=089|
8=FIX.4.4|9=0067|35=A|34=1|49=EXC|56=001|52=20190529-21:07:49.136|98=0|108=30|141=Y|10=014|
8=FIX.4.4|9=177|35=R|34=2|49=001|50=001B27|52=20190529-21:07:58.206|56=EXC|131=26245029|146=1|55=TFIC13280425|22=M|762=RFQF|54=1|38=500000000|453=2|448=002B35|447=C|452=37|448=DCV|447=C|452=10|10=058|
8=FIX.4.4|9=0259|35=AI|34=2|49=EXC|56=001|57=001B27|52=20190529-21:07:54.534|131=26245029|453=5|448=DCV|447=C|452=10|448=001B27|447=C|452=12|448=001|447=C|452=1|448=001FCM001|447=C|452=36|448=002B35|447=C|452=37|55=TFIC13280425|762=RFQF|48=20626|22=M|54=1|38=500000000|297=10|10=213|
8=FIX.4.4|9=104|35=A|34=3|49=001|50=001B27|52=20190529-21:08:04.679|56=EXC|43=Y|98=0|108=30|553=001FCM001|554=001FCM001|10=051|
8=FIX.4.4|9=0061|35=A|34=3|49=EXC|56=001|52=20190529-21:08:01.033|98=0|108=30|10=206|
8=FIX.4.4|9=0307|35=S|34=4|49=EXC|56=001|57=001B27|52=20190529-21:08:25.107|131=26245029|117=20190529-000000000051.00|55=TFIC13280425|762=RFQF|48=20626|22=M|453=5|448=DCV|447=C|452=10|448=001B27|447=C|452=12|448=001|447=C|452=1|448=001FCM001|447=C|452=36|448=002B35|447=C|452=37|634=4.000|135=500000000|62=20190530-22:00:00|10=234|
8=FIX.4.4|9=59|35=0|34=4|49=001|50=001B27|52=20190529-21:08:35.667|56=EXC|10=063|
8=FIX.4.4|9=110|35=A|34=1|49=001|50=001B27|52=20190529-21:12:52.247|56=EXC|43=Y|98=0|108=30|141=Y|553=001FCM001|554=001FCM001|10=080|
8=FIX.4.4|9=0067|35=A|34=1|49=EXC|56=001|52=20190529-21:12:48.615|98=0|108=30|141=Y|10=011|
8=FIX.4.4|9=177|35=R|34=2|49=001|50=001B27|52=20190529-21:12:57.769|56=EXC|131=11704190|146=1|55=TFIC13280425|22=M|762=RFQF|54=1|38=500000000|453=2|448=002B35|447=C|452=37|448=DCV|447=C|452=10|10=060|
8=FIX.4.4|9=0259|35=AI|34=2|49=EXC|56=001|57=001B27|52=20190529-21:12:54.098|131=11704190|453=5|448=DCV|447=C|452=10|448=001B27|447=C|452=12|448=001|447=C|452=1|448=001FCM001|447=C|452=36|448=002B35|447=C|452=37|55=TFIC13280425|762=RFQF|48=20626|22=M|54=1|38=500000000|297=10|10=207|
8=FIX.4.4|9=104|35=A|34=3|49=001|50=001B27|52=20190529-21:13:01.766|56=EXC|43=Y|98=0|108=30|553=001FCM001|554=001FCM001|10=041|
8=FIX.4.4|9=0061|35=A|34=3|49=EXC|56=001|52=20190529-21:12:58.172|98=0|108=30|10=217|
8=FIX.4.4|9=0307|35=S|34=4|49=EXC|56=001|57=001B27|52=20190529-21:13:08.244|131=11704190|117=20190529-000000000052.00|55=TFIC13280425|762=RFQF|48=20626|22=M|453=5|448=DCV|447=C|452=10|448=001B27|447=C|452=12|448=001|447=C|452=1|448=001FCM001|447=C|452=36|448=002B35|447=C|452=37|634=4.000|135=500000000|62=20190530-22:00:00|10=227|
8=FIX.4.4|9=59|35=0|34=4|49=001|50=001B27|52=20190529-21:13:32.754|56=EXC|10=053|
8=FIX.4.4|9=0049|35=0|34=5|49=EXC|56=001|52=20190529-21:13:38.000|10=172|
8=FIX.4.4|9=104|35=A|34=5|49=001|50=001B27|52=20190529-21:13:53.217|56=EXC|43=Y|98=0|108=30|553=001FCM001|554=001FCM001|10=041|
8=FIX.4.4|9=0061|35=A|34=6|49=EXC|56=001|52=20190529-21:13:49.665|98=0|108=30|10=228|
8=FIX.4.4|9=68|35=1|34=5|49=001|50=001B27|52=20190529-21:13:57.755|56=EXC|112=TEST|10=081|
8=FIX.4.4|9=104|35=A|34=6|49=001|50=001B27|52=20190529-21:14:02.783|56=EXC|43=Y|98=0|108=30|553=001FCM001|554=001FCM001|10=045|
8=FIX.4.4|9=0061|35=A|34=7|49=EXC|56=001|52=20190529-21:13:59.129|98=0|108=30|10=225|
8=FIX.4.4|9=110|35=A|34=1|49=001|50=001B27|52=20190529-21:22:38.817|56=EXC|43=Y|98=0|108=30|141=Y|553=001FCM001|554=001FCM001|10=088|
8=FIX.4.4|9=0067|35=A|34=1|49=EXC|56=001|52=20190529-21:22:35.213|98=0|108=30|141=Y|10=002|
8=FIX.4.4|9=177|35=R|34=2|49=001|50=001B27|52=20190529-21:22:44.179|56=EXC|131=35564299|146=1|55=TFIC13280425|22=M|762=RFQF|54=1|38=500000000|453=2|448=002B35|447=C|452=37|448=DCV|447=C|452=10|10=072|
8=FIX.4.4|9=0259|35=AI|34=2|49=EXC|56=001|57=001B27|52=20190529-21:22:40.505|131=35564299|453=5|448=DCV|447=C|452=10|448=001B27|447=C|452=12|448=001|447=C|452=1|448=001FCM001|447=C|452=36|448=002B35|447=C|452=37|55=TFIC13280425|762=RFQF|48=20626|22=M|54=1|38=500000000|297=10|10=216|
8=FIX.4.4|9=104|35=A|34=3|49=001|50=001B27|52=20190529-21:22:45.253|56=EXC|43=Y|98=0|108=30|553=001FCM001|554=001FCM001|10=040|
8=FIX.4.4|9=0061|35=A|34=3|49=EXC|56=001|52=20190529-21:22:41.600|98=0|108=30|10=206|
8=FIX.4.4|9=0307|35=S|34=4|49=EXC|56=001|57=001B27|52=20190529-21:22:48.171|131=35564299|117=20190529-000000000053.00|55=TFIC13280425|762=RFQF|48=20626|22=M|453=5|448=DCV|447=C|452=10|448=001B27|447=C|452=12|448=001|447=C|452=1|448=001FCM001|447=C|452=36|448=002B35|447=C|452=37|634=4.000|135=500000000|62=20190530-22:00:00|10=251|
8=FIX.4.4|9=110|35=A|34=1|49=001|50=001B27|52=20190529-21:23:16.456|56=EXC|43=Y|98=0|108=30|141=Y|553=001FCM001|554=001FCM001|10=084|
8=FIX.4.4|9=0067|35=A|34=1|49=EXC|56=001|52=20190529-21:23:12.951|98=0|108=30|141=Y|10=007|
8=FIX.4.4|9=177|35=R|34=2|49=001|50=001B27|52=20190529-21:23:21.773|56=EXC|131=14266222|146=1|55=TFIC13280425|22=M|762=RFQF|54=1|38=500000000|453=2|448=002B35|447=C|452=37|448=DCV|447=C|452=10|10=050|
8=FIX.4.4|9=0259|35=AI|34=2|49=EXC|56=001|57=001B27|52=20190529-21:23:18.099|131=14266222|453=5|448=DCV|447=C|452=10|448=001B27|447=C|452=12|448=001|447=C|452=1|448=001FCM001|447=C|452=36|448=002B35|447=C|452=37|55=TFIC13280425|762=RFQF|48=20626|22=M|54=1|38=500000000|297=10|10=212|
8=FIX.4.4|9=104|35=A|34=3|49=001|50=001B27|52=20190529-21:23:22.828|56=EXC|43=Y|98=0|108=30|553=001FCM001|554=001FCM001|10=044|
8=FIX.4.4|9=0061|35=A|34=3|49=EXC|56=001|52=20190529-21:23:19.255|98=0|108=30|10=218|
8=FIX.4.4|9=0307|35=S|34=4|49=EXC|56=001|57=001B27|52=20190529-21:23:26.221|131=14266222|117=20190529-000000000054.00|55=TFIC13280425|762=RFQF|48=20626|22=M|453=5|448=DCV|447=C|452=10|448=001B27|447=C|452=12|448=001|447=C|452=1|448=001FCM001|447=C|452=36|448=002B35|447=C|452=37|634=4.000|135=500000000|62=20190530-22:00:00|10=227|
8=FIX.4.4|9=110|35=A|34=1|49=001|50=001B27|52=20190529-21:24:48.183|56=EXC|43=Y|98=0|108=30|141=Y|553=001FCM001|554=001FCM001|10=087|
8=FIX.4.4|9=0067|35=A|34=1|49=EXC|56=001|52=20190529-21:24:44.545|98=0|108=30|141=Y|10=012|
8=FIX.4.4|9=177|35=R|34=2|49=001|50=001B27|52=20190529-21:24:53.604|56=EXC|131=34743664|146=1|55=TFIC13280425|22=M|762=RFQF|54=1|38=500000000|453=2|448=002B35|447=C|452=37|448=DCV|447=C|452=10|10=061|
8=FIX.4.4|9=0259|35=AI|34=2|49=EXC|56=001|57=001B27|52=20190529-21:24:49.929|131=34743664|453=5|448=DCV|447=C|452=10|448=001B27|447=C|452=12|448=001|447=C|452=1|448=001FCM001|447=C|452=36|448=002B35|447=C|452=37|55=TFIC13280425|762=RFQF|48=20626|22=M|54=1|38=500000000|297=10|10=231|
8=FIX.4.4|9=104|35=A|34=3|49=001|50=001B27|52=20190529-21:24:54.680|56=EXC|43=Y|98=0|108=30|553=001FCM001|554=001FCM001|10=046|
8=FIX.4.4|9=0061|35=A|34=3|49=EXC|56=001|52=20190529-21:24:51.029|98=0|108=30|10=214|
8=FIX.4.4|9=0307|35=S|34=4|49=EXC|56=001|57=001B27|52=20190529-21:24:57.266|131=34743664|117=20190529-000000000055.00|55=TFIC13280425|762=RFQF|48=20626|22=M|453=5|448=DCV|447=C|452=10|448=001B27|447=C|452=12|448=001|447=C|452=1|448=001FCM001|447=C|452=36|448=002B35|447=C|452=37|634=4.000|135=500000000|62=20190530-22:00:00|10=254|
8=FIX.4.4|9=110|35=A|34=1|49=001|50=001B27|52=20190529-21:25:38.252|56=EXC|43=Y|98=0|108=30|141=Y|553=001FCM001|554=001FCM001|10=084|
8=FIX.4.4|9=0067|35=A|34=1|49=EXC|56=001|52=20190529-21:25:34.639|98=0|108=30|141=Y|10=016|
8=FIX.4.4|9=176|35=R|34=2|49=001|50=001B27|52=20190529-21:25:43.890|56=EXC|131=3355200|146=1|55=TFIC13280425|22=M|762=RFQF|54=1|38=500000000|453=2|448=002B35|447=C|452=37|448=DCV|447=C|452=10|10=000|
8=FIX.4.4|9=0258|35=AI|34=2|49=EXC|56=001|57=001B27|52=20190529-21:25:40.216|131=3355200|453=5|448=DCV|447=C|452=10|448=001B27|447=C|452=12|448=001|447=C|452=1|448=001FCM001|447=C|452=36|448=002B35|447=C|452=37|55=TFIC13280425|762=RFQF|48=20626|22=M|54=1|38=500000000|297=10|10=144|
8=FIX.4.4|9=104|35=A|34=3|49=001|50=001B27|52=20190529-21:25:50.627|56=EXC|43=Y|98=0|108=30|553=001FCM001|554=001FCM001|10=044|
8=FIX.4.4|9=0061|35=A|34=3|49=EXC|56=001|52=20190529-21:25:46.982|98=0|108=30|10=227|
8=FIX.4.4|9=0306|35=S|34=4|49=EXC|56=001|57=001B27|52=20190529-21:25:56.088|131=3355200|117=20190529-000000000056.00|55=TFIC13280425|762=RFQF|48=20626|22=M|453=5|448=DCV|447=C|452=10|448=001B27|447=C|452=12|448=001|447=C|452=1|448=001FCM001|447=C|452=36|448=002B35|447=C|452=37|634=4.000|135=500000000|62=20190530-22:00:00|10=189|
8=FIX.4.4|9=59|35=0|34=4|49=001|50=001B27|52=20190529-21:26:21.596|56=EXC|10=059|
8=FIX.4.4|9=0049|35=0|34=5|49=EXC|56=001|52=20190529-21:26:26.000|10=173|
8=FIX.4.4|9=104|35=A|34=5|49=001|50=001B27|52=20190529-21:26:39.233|56=EXC|43=Y|98=0|108=30|553=001FCM001|554=001FCM001|10=047|
8=FIX.4.4|9=0061|35=A|34=6|49=EXC|56=001|52=20190529-21:26:35.578|98=0|108=30|10=230|
8=FIX.4.4|9=68|35=1|34=5|49=001|50=001B27|52=20190529-21:26:45.597|56=EXC|112=TEST|10=086|
8=FIX.4.4|9=104|35=A|34=6|49=001|50=001B27|52=20190529-21:26:51.622|56=EXC|43=Y|98=0|108=30|553=001FCM001|554=001FCM001|10=044|
8=FIX.4.4|9=0061|35=A|34=7|49=EXC|56=001|52=20190529-21:26:47.968|98=0|108=30|10=237|
8=FIX.4.4|9=110|35=A|34=1|49=001|50=001B27|52=20190529-21:36:45.215|56=EXC|43=Y|98=0|108=30|141=Y|553=001FCM001|554=001FCM001|10=083|
8=FIX.4.4|9=0067|35=A|34=1|49=EXC|56=001|52=20190529-21:36:41.591|98=0|108=30|141=Y|10=013|
8=FIX.4.4|9=177|35=R|34=2|49=001|50=001B27|52=20190529-21:36:51.045|56=EXC|131=22929458|146=1|55=TFIC13280425|22=M|762=RFQF|54=1|38=500000000|453=2|448=002B35|447=C|452=37|448=DCV|447=C|452=10|10=065|
8=FIX.4.4|9=0259|35=AI|34=2|49=EXC|56=001|57=001B27|52=20190529-21:36:47.365|131=22929458|453=5|448=DCV|447=C|452=10|448=001B27|447=C|452=12|448=001|447=C|452=1|448=001FCM001|447=C|452=36|448=002B35|447=C|452=37|55=TFIC13280425|762=RFQF|48=20626|22=M|54=1|38=500000000|297=10|10=230|
8=FIX.4.4|9=104|35=A|34=3|49=001|50=001B27|52=20190529-21:36:52.137|56=EXC|43=Y|98=0|108=30|553=001FCM001|554=001FCM001|10=044|
8=FIX.4.4|9=0061|35=A|34=3|49=EXC|56=001|52=20190529-21:36:48.583|98=0|108=30|10=228|
8=FIX.4.4|9=0307|35=S|34=4|49=EXC|56=001|57=001B27|52=20190529-21:36:55.946|131=22929458|117=20190529-000000000057.00|55=TFIC13280425|762=RFQF|48=20626|22=M|453=5|448=DCV|447=C|452=10|448=001B27|447=C|452=12|448=001|447=C|452=1|448=001FCM001|447=C|452=36|448=002B35|447=C|452=37|634=4.000|135=500000000|62=20190530-22:00:00|10=010|
8=FIX.4.4|9=68|35=2|34=4|49=001|50=001B27|52=20190529-21:36:59.651|56=EXC|7=3|16=0|10=190|
8=FIX.4.4|9=0065|35=4|34=3|43=Y|49=EXC|56=001|52=20190529-21:36:55.968|123=Y|36=4|10=205|
8=FIX.4.4|9=0338|35=S|34=4|43=Y|52=20190529-21:36:55.968|49=EXC|56=001|57=001B27|122=20190529-21:36:55.946|131=22929458|117=20190529-000000000057.00|55=TFIC13280425|762=RFQF|48=20626|22=M|453=5|448=DCV|447=C|452=10|448=001B27|447=C|452=12|448=001|447=C|452=1|448=001FCM001|447=C|452=36|448=002B35|447=C|452=37|634=4.000|135=500000000|62=20190530-22:00:00|10=039|
8=FIX.4.4|9=0054|35=4|34=5|49=EXC|56=001|52=20190529-21:36:55.968|36=6|10=164|
8=FIX.4.4|9=110|35=A|34=1|49=001|50=001B27|52=20190529-21:51:05.622|56=EXC|43=Y|98=0|108=30|141=Y|553=001FCM001|554=001FCM001|10=078|
8=FIX.4.4|9=0067|35=A|34=1|49=EXC|56=001|52=20190529-21:51:02.045|98=0|108=30|141=Y|10=001|
8=FIX.4.4|9=177|35=R|34=2|49=001|50=001B27|52=20190529-21:51:11.048|56=EXC|131=68573434|146=1|55=TFIC13280425|22=M|762=RFQF|54=1|38=500000000|453=2|448=002B35|447=C|452=37|448=DCV|447=C|452=10|10=060|
8=FIX.4.4|9=0259|35=AI|34=2|49=EXC|56=001|57=001B27|52=20190529-21:51:07.363|131=68573434|453=5|448=DCV|447=C|452=10|448=001B27|447=C|452=12|448=001|447=C|452=1|448=001FCM001|447=C|452=36|448=002B35|447=C|452=37|55=TFIC13280425|762=RFQF|48=20626|22=M|54=1|38=500000000|297=10|10=220|
8=FIX.4.4|9=110|35=A|34=1|49=001|50=001B27|52=20190529-21:52:24.131|56=EXC|43=Y|98=0|108=30|141=Y|553=001FCM001|554=001FCM001|10=075|
8=FIX.4.4|9=0067|35=A|34=1|49=EXC|56=001|52=20190529-21:52:20.594|98=0|108=30|141=Y|10=011|
8=FIX.4.4|9=177|35=R|34=2|49=001|50=001B27|52=20190529-21:52:29.813|56=EXC|131=68387228|146=1|55=TFIC13280425|22=M|762=RFQF|54=1|38=500000000|453=2|448=002B35|447=C|452=37|448=DCV|447=C|452=10|10=074|
8=FIX.4.4|9=0259|35=AI|34=2|49=EXC|56=001|57=001B27|52=20190529-21:52:26.130|131=68387228|453=5|448=DCV|447=C|452=10|448=001B27|447=C|452=12|448=001|447=C|452=1|448=001FCM001|447=C|452=36|448=002B35|447=C|452=37|55=TFIC13280425|762=RFQF|48=20626|22=M|54=1|38=500000000|297=10|10=218|
8=FIX.4.4|9=0049|35=0|34=3|49=EXC|56=001|52=20190529-21:52:56.000|10=173|
8=FIX.4.4|9=59|35=0|34=3|49=001|50=001B27|52=20190529-21:53:00.056|56=EXC|10=046|
8=FIX.4.4|9=110|35=A|34=1|49=001|50=001B27|52=20190529-21:54:45.936|56=EXC|43=Y|98=0|108=30|141=Y|553=001FCM001|554=001FCM001|10=093|
8=FIX.4.4|9=0067|35=A|34=1|49=EXC|56=001|52=20190529-21:54:42.305|98=0|108=30|141=Y|10=007|
8=FIX.4.4|9=177|35=R|34=2|49=001|50=001B27|52=20190529-21:54:51.469|56=EXC|131=32609671|146=1|55=TFIC13280425|22=M|762=RFQF|54=1|38=500000000|453=2|448=002B35|447=C|452=37|448=DCV|447=C|452=10|10=068|
8=FIX.4.4|9=0259|35=AI|34=2|49=EXC|56=001|57=001B27|52=20190529-21:54:47.783|131=32609671|453=5|448=DCV|447=C|452=10|448=001B27|447=C|452=12|448=001|447=C|452=1|448=001FCM001|447=C|452=36|448=002B35|447=C|452=37|55=TFIC13280425|762=RFQF|48=20626|22=M|54=1|38=500000000|297=10|10=227|
8=FIX.4.4|9=104|35=A|34=3|49=001|50=001B27|52=20190529-21:54:52.552|56=EXC|43=Y|98=0|108=30|553=001FCM001|554=001FCM001|10=045|
8=FIX.4.4|9=0061|35=A|34=3|49=EXC|56=001|52=20190529-21:54:48.986|98=0|108=30|10=235|
8=FIX.4.4|9=0307|35=S|34=4|49=EXC|56=001|57=001B27|52=20190529-21:54:56.732|131=32609671|117=20190529-000000000060.00|55=TFIC13280425|762=RFQF|48=20626|22=M|453=5|448=DCV|447=C|452=10|448=001B27|447=C|452=12|448=001|447=C|452=1|448=001FCM001|447=C|452=36|448=002B35|447=C|452=37|634=4.000|135=500000000|62=20190530-22:00:00|10=247|
8=FIX.4.4|9=104|35=A|34=4|49=001|50=001B27|52=20190529-21:55:01.534|56=EXC|43=Y|98=0|108=30|553=001FCM001|554=001FCM001|10=041|
8=FIX.4.4|9=0061|35=A|34=5|49=EXC|56=001|52=20190529-21:54:58.141|98=0|108=30|10=221|
8=FIX.4.4|9=177|35=R|34=5|49=001|50=001B27|52=20190529-21:55:07.968|56=EXC|131=48948704|146=1|55=TFIC13280425|22=M|762=RFQF|54=1|38=500000000|453=2|448=002B35|447=C|452=37|448=DCV|447=C|452=10|10=087|
8=FIX.4.4|9=0259|35=AI|34=6|49=EXC|56=001|57=001B27|52=20190529-21:55:04.347|131=48948704|453=5|448=DCV|447=C|452=10|448=001B27|447=C|452=12|448=001|447=C|452=1|448=001FCM001|447=C|452=36|448=002B35|447=C|452=37|55=TFIC13280425|762=RFQF|48=20626|22=M|54=1|38=500000000|297=10|10=231|
8=FIX.4.4|9=68|35=2|34=6|49=001|50=001B27|52=20190529-21:55:08.096|56=EXC|7=5|16=0|10=192|
8=FIX.4.4|9=0065|35=4|34=5|43=Y|49=EXC|56=001|52=20190529-21:55:04.461|123=Y|36=6|10=192|
8=FIX.4.4|9=0290|35=AI|34=6|43=Y|52=20190529-21:55:04.461|49=EXC|56=001|57=001B27|122=20190529-21:55:04.347|131=48948704|453=5|448=DCV|447=C|452=10|448=001B27|447=C|452=12|448=001|447=C|452=1|448=001FCM001|447=C|452=36|448=002B35|447=C|452=37|55=TFIC13280425|762=RFQF|48=20626|22=M|54=1|38=500000000|297=10|10=234|
8=FIX.4.4|9=0054|35=4|34=7|49=EXC|56=001|52=20190529-21:55:04.461|36=8|10=151|
8=FIX.4.4|9=104|35=A|34=7|49=001|50=001B27|52=20190529-21:55:09.155|56=EXC|43=Y|98=0|108=30|553=001FCM001|554=001FCM001|10=051|
8=FIX.4.4|9=0061|35=A|34=8|49=EXC|56=001|52=20190529-21:55:05.561|98=0|108=30|10=223|
8=FIX.4.4|9=110|35=A|34=1|49=001|50=001B27|52=20190529-21:58:54.826|56=EXC|43=Y|98=0|108=30|141=Y|553=001FCM001|554=001FCM001|10=095|
8=FIX.4.4|9=0067|35=A|34=1|49=EXC|56=001|52=20190529-21:58:51.326|98=0|108=30|141=Y|10=014|
8=FIX.4.4|9=177|35=R|34=2|49=001|50=001B27|52=20190529-21:59:00.413|56=EXC|131=79939560|146=1|55=TFIC13280425|22=M|762=RFQF|54=1|38=500000000|453=2|448=002B35|447=C|452=37|448=DCV|447=C|452=10|10=070|
8=FIX.4.4|9=0259|35=AI|34=2|49=EXC|56=001|57=001B27|52=20190529-21:58:56.727|131=79939560|453=5|448=DCV|447=C|452=10|448=001B27|447=C|452=12|448=001|447=C|452=1|448=001FCM001|447=C|452=36|448=002B35|447=C|452=37|55=TFIC13280425|762=RFQF|48=20626|22=M|54=1|38=500000000|297=10|10=243|
8=FIX.4.4|9=104|35=A|34=3|49=001|50=001B27|52=20190529-21:59:01.531|56=EXC|43=Y|98=0|108=30|553=001FCM001|554=001FCM001|10=041|
8=FIX.4.4|9=0061|35=A|34=3|49=EXC|56=001|52=20190529-21:58:57.913|98=0|108=30|10=229|
8=FIX.4.4|9=0307|35=S|34=4|49=EXC|56=001|57=001B27|52=20190529-21:59:04.694|131=79939560|117=20190529-000000000062.00|55=TFIC13280425|762=RFQF|48=20626|22=M|453=5|448=DCV|447=C|452=10|448=001B27|447=C|452=12|448=001|447=C|452=1|448=001FCM001|447=C|452=36|448=002B35|447=C|452=37|634=4.000|135=500000000|62=20190530-22:00:00|10=012|
8=FIX.4.4|9=104|35=A|34=4|49=001|50=001B27|52=20190529-21:59:09.573|56=EXC|43=Y|98=0|108=30|553=001FCM001|554=001FCM001|10=056|
8=FIX.4.4|9=0061|35=A|34=5|49=EXC|56=001|52=20190529-21:59:06.022|98=0|108=30|10=217|
8=FIX.4.4|9=110|35=A|34=1|49=001|50=001B27|52=20190529-22:04:01.485|56=EXC|43=Y|98=0|108=30|141=Y|553=001FCM001|554=001FCM001|10=080|
8=FIX.4.4|9=0067|35=A|34=1|49=EXC|56=001|52=20190529-22:03:57.916|98=0|108=30|141=Y|10=016|
8=FIX.4.4|9=177|35=R|34=2|49=001|50=001B27|52=20190529-22:04:07.006|56=EXC|131=17872452|146=1|55=TFIC13280425|22=M|762=RFQF|54=1|38=500000000|453=2|448=002B35|447=C|452=37|448=DCV|447=C|452=10|10=054|
8=FIX.4.4|9=0259|35=AI|34=2|49=EXC|56=001|57=001B27|52=20190529-22:04:03.316|131=17872452|453=5|448=DCV|447=C|452=10|448=001B27|447=C|452=12|448=001|447=C|452=1|448=001FCM001|447=C|452=36|448=002B35|447=C|452=37|55=TFIC13280425|762=RFQF|48=20626|22=M|54=1|38=500000000|297=10|10=209|
8=FIX.4.4|9=104|35=A|34=3|49=001|50=001B27|52=20190529-22:04:08.074|56=EXC|43=Y|98=0|108=30|553=001FCM001|554=001FCM001|10=041|
8=FIX.4.4|9=0061|35=A|34=3|49=EXC|56=001|52=20190529-22:04:04.427|98=0|108=30|10=213|
8=FIX.4.4|9=0307|35=S|34=4|49=EXC|56=001|57=001B27|52=20190529-22:04:10.983|131=17872452|117=20190529-000000000063.00|55=TFIC13280425|762=RFQF|48=20626|22=M|453=5|448=DCV|447=C|452=10|448=001B27|447=C|452=12|448=001|447=C|452=1|448=001FCM001|447=C|452=36|448=002B35|447=C|452=37|634=4.000|135=500000000|62=20190530-22:00:00|10=246|
8=FIX.4.4|9=104|35=A|34=4|49=001|50=001B27|52=20190529-22:04:15.756|56=EXC|43=Y|98=0|108=30|553=001FCM001|554=001FCM001|10=047|
8=FIX.4.4|9=0061|35=A|34=5|49=EXC|56=001|52=20190529-22:04:12.090|98=0|108=30|10=210|
8=FIX.4.4|9=110|35=A|34=1|49=001|50=001B27|52=20190529-22:05:02.794|56=EXC|43=Y|98=0|108=30|141=Y|553=001FCM001|554=001FCM001|10=085|
8=FIX.4.4|9=0067|35=A|34=1|49=EXC|56=001|52=20190529-22:04:59.216|98=0|108=30|141=Y|10=012|
8=FIX.4.4|9=177|35=R|34=2|49=001|50=001B27|52=20190529-22:05:08.312|56=EXC|131=26057710|146=1|55=TFIC13280425|22=M|762=RFQF|54=1|38=500000000|453=2|448=002B35|447=C|452=37|448=DCV|447=C|452=10|10=048|
8=FIX.4.4|9=0259|35=AI|34=2|49=EXC|56=001|57=001B27|52=20190529-22:05:04.622|131=26057710|453=5|448=DCV|447=C|452=10|448=001B27|447=C|452=12|448=001|447=C|452=1|448=001FCM001|447=C|452=36|448=002B35|447=C|452=37|55=TFIC13280425|762=RFQF|48=20626|22=M|54=1|38=500000000|297=10|10=203|
8=FIX.4.4|9=104|35=A|34=3|49=001|50=001B27|52=20190529-22:05:09.441|56=EXC|43=Y|98=0|108=30|553=001FCM001|554=001FCM001|10=041|
8=FIX.4.4|9=0061|35=A|34=3|49=EXC|56=001|52=20190529-22:05:05.830|98=0|108=30|10=213|
8=FIX.4.4|9=0307|35=S|34=4|49=EXC|56=001|57=001B27|52=20190529-22:05:13.245|131=26057710|117=20190529-000000000064.00|55=TFIC13280425|762=RFQF|48=20626|22=M|453=5|448=DCV|447=C|452=10|448=001B27|447=C|452=12|448=001|447=C|452=1|448=001FCM001|447=C|452=36|448=002B35|447=C|452=37|634=4.000|135=500000000|62=20190530-22:00:00|10=234|
8=FIX.4.4|9=104|35=A|34=4|49=001|50=001B27|52=20190529-22:05:18.038|56=EXC|43=Y|98=0|108=30|553=001FCM001|554=001FCM001|10=044|
8=FIX.4.4|9=0061|35=A|34=5|49=EXC|56=001|52=20190529-22:05:14.460|98=0|108=30|10=214|
8=FIX.4.4|9=110|35=A|34=1|49=001|50=001B27|52=20190529-22:06:20.336|56=EXC|43=Y|98=0|108=30|141=Y|553=001FCM001|554=001FCM001|10=078|
8=FIX.4.4|9=0067|35=A|34=1|49=EXC|56=001|52=20190529-22:06:16.699|98=0|108=30|141=Y|10=022|
8=FIX.4.4|9=177|35=R|34=2|49=001|50=001B27|52=20190529-22:06:25.786|56=EXC|131=22490284|146=1|55=TFIC13280425|22=M|762=RFQF|54=1|38=500000000|453=2|448=002B35|447=C|452=37|448=DCV|447=C|452=10|10=066|
8=FIX.4.4|9=0259|35=AI|34=2|49=EXC|56=001|57=001B27|52=20190529-22:06:22.099|131=22490284|453=5|448=DCV|447=C|452=10|448=001B27|447=C|452=12|448=001|447=C|452=1|448=001FCM001|447=C|452=36|448=002B35|447=C|452=37|55=TFIC13280425|762=RFQF|48=20626|22=M|54=1|38=500000000|297=10|10=215|
8=FIX.4.4|9=104|35=A|34=3|49=001|50=001B27|52=20190529-22:06:26.907|56=EXC|43=Y|98=0|108=30|553=001FCM001|554=001FCM001|10=048|
8=FIX.4.4|9=0061|35=A|34=3|49=EXC|56=001|52=20190529-22:06:23.285|98=0|108=30|10=218|
8=FIX.4.4|9=0307|35=S|34=4|49=EXC|56=001|57=001B27|52=20190529-22:06:44.739|131=22490284|117=20190529-000000000065.00|55=TFIC13280425|762=RFQF|48=20626|22=M|453=5|448=DCV|447=C|452=10|448=001B27|447=C|452=12|448=001|447=C|452=1|448=001FCM001|447=C|452=36|448=002B35|447=C|452=37|634=4.000|135=500000000|62=20190530-22:00:00|10=251|
8=FIX.4.4|9=104|35=A|34=4|49=001|50=001B27|52=20190529-22:06:49.579|56=EXC|43=Y|98=0|108=30|553=001FCM001|554=001FCM001|10=059|
8=FIX.4.4|9=0061|35=A|34=5|49=EXC|56=001|52=20190529-22:06:45.960|98=0|108=30|10=224|
8=FIX.4.4|9=110|35=A|34=1|49=001|50=001B27|52=20190529-22:08:50.587|56=EXC|43=Y|98=0|108=30|141=Y|553=001FCM001|554=001FCM001|10=091|
8=FIX.4.4|9=0067|35=A|34=1|49=EXC|56=001|52=20190529-22:08:47.008|98=0|108=30|141=Y|10=012|
8=FIX.4.4|9=177|35=R|34=2|49=001|50=001B27|52=20190529-22:08:56.187|56=EXC|131=64019749|146=1|55=TFIC13280425|22=M|762=RFQF|54=1|38=500000000|453=2|448=002B35|447=C|452=37|448=DCV|447=C|452=10|10=076|
8=FIX.4.4|9=0259|35=AI|34=2|49=EXC|56=001|57=001B27|52=20190529-22:08:52.496|131=64019749|453=5|448=DCV|447=C|452=10|448=001B27|447=C|452=12|448=001|447=C|452=1|448=001FCM001|447=C|452=36|448=002B35|447=C|452=37|55=TFIC13280425|762=RFQF|48=20626|22=M|54=1|38=500000000|297=10|10=230|
8=FIX.4.4|9=104|35=A|34=3|49=001|50=001B27|52=20190529-22:09:12.326|56=EXC|43=Y|98=0|108=30|553=001FCM001|554=001FCM001|10=041|
8=FIX.4.4|9=0061|35=A|34=3|49=EXC|56=001|52=20190529-22:09:08.712|98=0|108=30|10=219|
8=FIX.4.4|9=0307|35=S|34=4|49=EXC|56=001|57=001B27|52=20190529-22:09:15.481|131=64019749|117=20190529-000000000066.00|55=TFIC13280425|762=RFQF|48=20626|22=M|453=5|448=DCV|447=C|452=10|448=001B27|447=C|452=12|448=001|447=C|452=1|448=001FCM001|447=C|452=36|448=002B35|447=C|452=37|634=4.000|135=500000000|62=20190530-22:00:00|10=000|
8=FIX.4.4|9=104|35=A|34=4|49=001|50=001B27|52=20190529-22:09:20.324|56=EXC|43=Y|98=0|108=30|553=001FCM001|554=001FCM001|10=039|
8=FIX.4.4|9=0061|35=A|34=5|49=EXC|56=001|52=20190529-22:09:16.658|98=0|108=30|10=229|
8=FIX.4.4|9=110|35=A|34=1|49=001|50=001B27|52=20190529-22:12:27.761|56=EXC|43=Y|98=0|108=30|141=Y|553=001FCM001|554=001FCM001|10=084|
8=FIX.4.4|9=0067|35=A|34=1|49=EXC|56=001|52=20190529-22:12:24.233|98=0|108=30|141=Y|10=002|
8=FIX.4.4|9=177|35=R|34=2|49=001|50=001B27|52=20190529-22:12:33.167|56=EXC|131=24826533|146=1|55=TFIC13280425|22=M|762=RFQF|54=1|38=500000000|453=2|448=002B35|447=C|452=37|448=DCV|447=C|452=10|10=057|
8=FIX.4.4|9=0259|35=AI|34=2|49=EXC|56=001|57=001B27|52=20190529-22:12:29.474|131=24826533|453=5|448=DCV|447=C|452=10|448=001B27|447=C|452=12|448=001|447=C|452=1|448=001FCM001|447=C|452=36|448=002B35|447=C|452=37|55=TFIC13280425|762=RFQF|48=20626|22=M|54=1|38=500000000|297=10|10=218|
8=FIX.4.4|9=104|35=A|34=3|49=001|50=001B27|52=20190529-22:12:49.276|56=EXC|43=Y|98=0|108=30|553=001FCM001|554=001FCM001|10=049|
8=FIX.4.4|9=0061|35=A|34=3|49=EXC|56=001|52=20190529-22:12:45.615|98=0|108=30|10=216|
8=FIX.4.4|9=0307|35=S|34=4|49=EXC|56=001|57=001B27|52=20190529-22:12:51.757|131=24826533|117=20190529-000000000067.00|55=TFIC13280425|762=RFQF|48=20626|22=M|453=5|448=DCV|447=C|452=10|448=001B27|447=C|452=12|448=001|447=C|452=1|448=001FCM001|447=C|452=36|448=002B35|447=C|452=37|634=4.000|135=500000000|62=20190530-22:00:00|10=250|
8=FIX.4.4|9=104|35=A|34=4|49=001|50=001B27|52=20190529-22:12:56.581|56=EXC|43=Y|98=0|108=30|553=001FCM001|554=001FCM001|10=047|
8=FIX.4.4|9=0061|35=A|34=5|49=EXC|56=001|52=20190529-22:12:52.938|98=0|108=30|10=224|
8=FIX.4.4|9=110|35=A|34=1|49=001|50=001B27|52=20190529-22:16:26.526|56=EXC|43=Y|98=0|108=30|141=Y|553=001FCM001|554=001FCM001|10=086|
8=FIX.4.4|9=0067|35=A|34=1|49=EXC|56=001|52=20190529-22:16:22.946|98=0|108=30|141=Y|10=015|
8=FIX.4.4|9=177|35=R|34=2|49=001|50=001B27|52=20190529-22:16:32.317|56=EXC|131=29796379|146=1|55=TFIC13280425|22=M|762=RFQF|54=1|38=500000000|453=2|448=002B35|447=C|452=37|448=DCV|447=C|452=10|10=076|
8=FIX.4.4|9=0259|35=AI|34=2|49=EXC|56=001|57=001B27|52=20190529-22:16:28.622|131=29796379|453=5|448=DCV|447=C|452=10|448=001B27|447=C|452=12|448=001|447=C|452=1|448=001FCM001|447=C|452=36|448=002B35|447=C|452=37|55=TFIC13280425|762=RFQF|48=20626|22=M|54=1|38=500000000|297=10|10=235|
8=FIX.4.4|9=104|35=A|34=3|49=001|50=001B27|52=20190529-22:16:48.488|56=EXC|43=Y|98=0|108=30|553=001FCM001|554=001FCM001|10=057|
8=FIX.4.4|9=0061|35=A|34=3|49=EXC|56=001|52=20190529-22:16:44.835|98=0|108=30|10=223|
8=FIX.4.4|9=0307|35=S|34=4|49=EXC|56=001|57=001B27|52=20190529-22:16:51.779|131=29796379|117=20190529-000000000068.00|55=TFIC13280425|762=RFQF|48=20626|22=M|453=5|448=DCV|447=C|452=10|448=001B27|447=C|452=12|448=001|447=C|452=1|448=001FCM001|447=C|452=36|448=002B35|447=C|452=37|634=4.000|135=500000000|62=20190530-22:00:00|10=022|
8=FIX.4.4|9=104|35=A|34=4|49=001|50=001B27|52=20190529-22:16:56.586|56=EXC|43=Y|98=0|108=30|553=001FCM001|554=001FCM001|10=056|
8=FIX.4.4|9=0061|35=A|34=5|49=EXC|56=001|52=20190529-22:16:52.969|98=0|108=30|10=232|
8=FIX.4.4|9=0049|35=0|34=6|49=EXC|56=001|52=20190529-22:17:22.000|10=171|
8=FIX.4.4|9=68|35=2|34=5|49=001|50=001B27|52=20190529-22:17:25.768|56=EXC|7=5|16=0|10=195|
8=FIX.4.4|9=0065|35=4|34=5|43=Y|49=EXC|56=001|52=20190529-22:17:22.107|123=Y|36=7|10=189|
8=FIX.4.4|9=0054|35=4|34=7|49=EXC|56=001|52=20190529-22:17:22.107|36=8|10=147|
8=FIX.4.4|9=104|35=A|34=6|49=001|50=001B27|52=20190529-22:17:27.503|56=EXC|43=Y|98=0|108=30|553=001FCM001|554=001FCM001|10=046|
8=FIX.4.4|9=0061|35=A|34=8|49=EXC|56=001|52=20190529-22:17:23.827|98=0|108=30|10=227|
8=FIX.4.4|9=110|35=A|34=1|49=001|50=001B27|52=20190529-22:18:14.794|56=EXC|43=Y|98=0|108=30|141=Y|553=001FCM001|554=001FCM001|10=092|
8=FIX.4.4|9=0067|35=A|34=1|49=EXC|56=001|52=20190529-22:18:11.214|98=0|108=30|141=Y|10=003|
8=FIX.4.4|9=177|35=R|34=2|49=001|50=001B27|52=20190529-22:18:20.460|56=EXC|131=75517729|146=1|55=TFIC13280425|22=M|762=RFQF|54=1|38=500000000|453=2|448=002B35|447=C|452=37|448=DCV|447=C|452=10|10=065|
8=FIX.4.4|9=0259|35=AI|34=2|49=EXC|56=001|57=001B27|52=20190529-22:18:16.823|131=75517729|453=5|448=DCV|447=C|452=10|448=001B27|447=C|452=12|448=001|447=C|452=1|448=001FCM001|447=C|452=36|448=002B35|447=C|452=37|55=TFIC13280425|762=RFQF|48=20626|22=M|54=1|38=500000000|297=10|10=228|
8=FIX.4.4|9=104|35=A|34=3|49=001|50=001B27|52=20190529-22:18:36.637|56=EXC|43=Y|98=0|108=30|553=001FCM001|554=001FCM001|10=052|
8=FIX.4.4|9=0061|35=A|34=3|49=EXC|56=001|52=20190529-22:18:32.965|98=0|108=30|10=226|
8=FIX.4.4|9=0307|35=S|34=4|49=EXC|56=001|57=001B27|52=20190529-22:18:39.410|131=75517729|117=20190529-000000000069.00|55=TFIC13280425|762=RFQF|48=20626|22=M|453=5|448=DCV|447=C|452=10|448=001B27|447=C|452=12|448=001|447=C|452=1|448=001FCM001|447=C|452=36|448=002B35|447=C|452=37|634=4.000|135=500000000|62=20190530-22:00:00|10=004|
8=FIX.4.4|9=104|35=A|34=4|49=001|50=001B27|52=20190529-22:18:44.222|56=EXC|43=Y|98=0|108=30|553=001FCM001|554=001FCM001|10=042|
8=FIX.4.4|9=0061|35=A|34=5|49=EXC|56=001|52=20190529-22:18:40.608|98=0|108=30|10=221|
8=FIX.4.4|9=110|35=A|34=1|49=001|50=001B27|52=20190529-22:24:11.557|56=EXC|43=Y|98=0|108=30|141=Y|553=001FCM001|554=001FCM001|10=083|
8=FIX.4.4|9=0067|35=A|34=1|49=EXC|56=001|52=20190529-22:24:07.997|98=0|108=30|141=Y|10=023|
8=FIX.4.4|9=177|35=R|34=2|49=001|50=001B27|52=20190529-22:24:17.079|56=EXC|131=31895290|146=1|55=TFIC13280425|22=M|762=RFQF|54=1|38=500000000|453=2|448=002B35|447=C|452=37|448=DCV|447=C|452=10|10=068|
8=FIX.4.4|9=0259|35=AI|34=2|49=EXC|56=001|57=001B27|52=20190529-22:24:13.382|131=31895290|453=5|448=DCV|447=C|452=10|448=001B27|447=C|452=12|448=001|447=C|452=1|448=001FCM001|447=C|452=36|448=002B35|447=C|452=37|55=TFIC13280425|762=RFQF|48=20626|22=M|54=1|38=500000000|297=10|10=216|
8=FIX.4.4|9=104|35=A|34=3|49=001|50=001B27|52=20190529-22:24:33.202|56=EXC|43=Y|98=0|108=30|553=001FCM001|554=001FCM001|10=034|
8=FIX.4.4|9=0061|35=A|34=3|49=EXC|56=001|52=20190529-22:24:29.531|98=0|108=30|10=218|
8=FIX.4.4|9=110|35=A|34=1|49=001|50=001B27|52=20190529-22:25:11.633|56=EXC|43=Y|98=0|108=30|141=Y|553=001FCM001|554=001FCM001|10=079|
8=FIX.4.4|9=0067|35=A|34=1|49=EXC|56=001|52=20190529-22:25:08.026|98=0|108=30|141=Y|10=008|
8=FIX.4.4|9=110|35=A|34=1|49=001|50=001B27|52=20190530-16:05:50.315|56=EXC|43=Y|98=0|108=30|141=Y|553=001FCM001|554=001FCM001|10=072|
8=FIX.4.4|9=0067|35=A|34=1|49=EXC|56=001|52=20190530-16:05:45.675|98=0|108=30|141=Y|10=012|
8=FIX.4.4|9=177|35=R|34=2|49=001|50=001B27|52=20190530-16:05:55.631|56=EXC|131=28695375|146=1|55=TFIC13280425|22=M|762=RFQF|54=1|38=500000000|453=2|448=002B35|447=C|452=37|448=DCV|447=C|452=10|10=066|
8=FIX.4.4|9=0259|35=AI|34=2|49=EXC|56=001|57=001B27|52=20190530-16:05:50.947|131=28695375|453=5|448=DCV|447=C|452=10|448=001B27|447=C|452=12|448=001|447=C|452=1|448=001FCM001|447=C|452=36|448=002B35|447=C|452=37|55=TFIC13280425|762=RFQF|48=20626|22=M|54=1|38=500000000|297=10|10=226|
8=FIX.4.4|9=104|35=A|34=3|49=001|50=001B27|52=20190530-16:06:11.717|56=EXC|43=Y|98=0|108=30|553=001FCM001|554=001FCM001|10=036|
8=FIX.4.4|9=0061|35=A|34=3|49=EXC|56=001|52=20190530-16:06:07.175|98=0|108=30|10=213|
8=FIX.4.4|9=0307|35=S|34=4|49=EXC|56=001|57=001B27|52=20190530-16:06:16.749|131=28695375|117=20190530-000000000013.00|55=TFIC13280425|762=RFQF|48=20626|22=M|453=5|448=DCV|447=C|452=10|448=001B27|447=C|452=12|448=001|447=C|452=1|448=001FCM001|447=C|452=36|448=002B35|447=C|452=37|634=4.000|135=500000000|62=20190530-22:00:00|10=245|
8=FIX.4.4|9=104|35=A|34=4|49=001|50=001B27|52=20190530-16:06:22.515|56=EXC|43=Y|98=0|108=30|553=001FCM001|554=001FCM001|10=035|
8=FIX.4.4|9=0061|35=A|34=5|49=EXC|56=001|52=20190530-16:06:17.895|98=0|108=30|10=225|
8=FIX.4.4|9=104|35=A|34=5|49=001|50=001B27|52=20190530-16:06:51.310|56=EXC|43=Y|98=0|108=30|553=001FCM001|554=001FCM001|10=031|
8=FIX.4.4|9=0049|35=0|34=6|49=EXC|56=001|52=20190530-16:06:47.000|10=171|
8=FIX.4.4|9=68|35=2|34=5|49=001|50=001B27|52=20190530-16:06:52.535|56=EXC|7=5|16=0|10=180|
8=FIX.4.4|9=0065|35=4|34=5|43=Y|49=EXC|56=001|52=20190530-16:06:47.892|123=Y|36=7|10=200|
8=FIX.4.4|9=104|35=A|34=6|49=001|50=001B27|52=20190530-16:07:14.519|56=EXC|43=Y|98=0|108=30|553=001FCM001|554=001FCM001|10=043|
8=FIX.4.4|9=110|35=A|34=1|49=001|50=001B27|52=20190530-16:27:43.097|56=EXC|43=Y|98=0|108=30|141=Y|553=001FCM001|554=001FCM001|10=085|
8=FIX.4.4|9=0067|35=A|34=1|49=EXC|56=001|52=20190530-16:27:38.169|98=0|108=30|141=Y|10=016|
8=FIX.4.4|9=177|35=R|34=2|49=001|50=001B27|52=20190530-16:27:48.475|56=EXC|131=13372082|146=1|55=TFIC13280425|22=M|762=RFQF|54=1|38=500000000|453=2|448=002B35|447=C|452=37|448=DCV|447=C|452=10|10=059|
8=FIX.4.4|9=0259|35=AI|34=2|49=EXC|56=001|57=001B27|52=20190530-16:27:43.501|131=13372082|453=5|448=DCV|447=C|452=10|448=001B27|447=C|452=12|448=001|447=C|452=1|448=001FCM001|447=C|452=36|448=002B35|447=C|452=37|55=TFIC13280425|762=RFQF|48=20626|22=M|54=1|38=500000000|297=10|10=199|
8=FIX.4.4|9=104|35=A|34=3|49=001|50=001B27|52=20190530-16:28:04.550|56=EXC|43=Y|98=0|108=30|553=001FCM001|554=001FCM001|10=037|
8=FIX.4.4|9=0061|35=A|34=3|49=EXC|56=001|52=20190530-16:27:59.599|98=0|108=30|10=233|
8=FIX.4.4|9=0307|35=S|34=4|49=EXC|56=001|57=001B27|52=20190530-16:28:05.543|131=13372082|117=20190530-000000000014.00|55=TFIC13280425|762=RFQF|48=20626|22=M|453=5|448=DCV|447=C|452=10|448=001B27|447=C|452=12|448=001|447=C|452=1|448=001FCM001|447=C|452=36|448=002B35|447=C|452=37|634=4.000|135=500000000|62=20190530-22:00:00|10=221|
8=FIX.4.4|9=104|35=A|34=4|49=001|50=001B27|52=20190530-16:28:11.566|56=EXC|43=Y|98=0|108=30|553=001FCM001|554=001FCM001|10=043|
8=FIX.4.4|9=0061|35=A|34=5|49=EXC|56=001|52=20190530-16:28:06.619|98=0|108=30|10=221|
8=FIX.4.4|9=110|35=A|34=1|49=001|50=001B27|52=20190530-16:31:12.830|56=EXC|43=Y|98=0|108=30|141=Y|553=001FCM001|554=001FCM001|10=071|
8=FIX.4.4|9=0067|35=A|34=1|49=EXC|56=001|52=20190530-16:31:07.946|98=0|108=30|141=Y|10=010|
8=FIX.4.4|9=177|35=R|34=2|49=001|50=001B27|52=20190530-16:31:18.160|56=EXC|131=67030572|146=1|55=TFIC13280425|22=M|762=RFQF|54=1|38=500000000|453=2|448=002B35|447=C|452=37|448=DCV|447=C|452=10|10=046|
8=FIX.4.4|9=0259|35=AI|34=2|49=EXC|56=001|57=001B27|52=20190530-16:31:13.238|131=67030572|453=5|448=DCV|447=C|452=10|448=001B27|447=C|452=12|448=001|447=C|452=1|448=001FCM001|447=C|452=36|448=002B35|447=C|452=37|55=TFIC13280425|762=RFQF|48=20626|22=M|54=1|38=500000000|297=10|10=202|
8=FIX.4.4|9=110|35=A|34=1|49=001|50=001B27|52=20190530-16:32:27.039|56=EXC|43=Y|98=0|108=30|141=Y|553=001FCM001|554=001FCM001|10=079|
8=FIX.4.4|9=0067|35=A|34=1|49=EXC|56=001|52=20190530-16:32:22.190|98=0|108=30|141=Y|10=255|
8=FIX.4.4|9=110|35=A|34=1|49=001|50=001B27|52=20190530-16:33:01.558|56=EXC|43=Y|98=0|108=30|141=Y|553=001FCM001|554=001FCM001|10=078|
8=FIX.4.4|9=0067|35=A|34=1|49=EXC|56=001|52=20190530-16:32:56.703|98=0|108=30|141=Y|10=006|
8=FIX.4.4|9=176|35=R|34=2|49=001|50=001B27|52=20190530-16:33:06.891|56=EXC|131=5577840|146=1|55=TFIC13280425|22=M|762=RFQF|54=1|38=500000000|453=2|448=002B35|447=C|452=37|448=DCV|447=C|452=10|10=013|
8=FIX.4.4|9=0258|35=AI|34=2|49=EXC|56=001|57=001B27|52=20190530-16:33:01.997|131=5577840|453=5|448=DCV|447=C|452=10|448=001B27|447=C|452=12|448=001|447=C|452=1|448=001FCM001|447=C|452=36|448=002B35|447=C|452=37|55=TFIC13280425|762=RFQF|48=20626|22=M|54=1|38=500000000|297=10|10=170|
8=FIX.4.4|9=104|35=A|34=3|49=001|50=001B27|52=20190530-16:33:22.979|56=EXC|43=Y|98=0|108=30|553=001FCM001|554=001FCM001|10=048|
8=FIX.4.4|9=0061|35=A|34=3|49=EXC|56=001|52=20190530-16:33:18.109|98=0|108=30|10=212|
8=FIX.4.4|9=110|35=A|34=1|49=001|50=001B27|52=20190530-16:33:49.040|56=EXC|43=Y|98=0|108=30|141=Y|553=001FCM001|554=001FCM001|10=076|
8=FIX.4.4|9=0067|35=A|34=1|49=EXC|56=001|52=20190530-16:33:44.240|98=0|108=30|141=Y|10=000|
8=FIX.4.4|9=177|35=R|34=2|49=001|50=001B27|52=20190530-16:33:54.359|56=EXC|131=75397853|146=1|55=TFIC13280425|22=M|762=RFQF|54=1|38=500000000|453=2|448=002B35|447=C|452=37|448=DCV|447=C|452=10|10=075|
8=FIX.4.4|9=0259|35=AI|34=2|49=EXC|56=001|57=001B27|52=20190530-16:33:49.478|131=75397853|453=5|448=DCV|447=C|452=10|448=001B27|447=C|452=12|448=001|447=C|452=1|448=001FCM001|447=C|452=36|448=002B35|447=C|452=37|55=TFIC13280425|762=RFQF|48=20626|22=M|54=1|38=500000000|297=10|10=236|
8=FIX.4.4|9=104|35=A|34=3|49=001|50=001B27|52=20190530-16:34:10.435|56=EXC|43=Y|98=0|108=30|553=001FCM001|554=001FCM001|10=033|
8=FIX.4.4|9=0061|35=A|34=3|49=EXC|56=001|52=20190530-16:34:05.581|98=0|108=30|10=213|
8=FIX.4.4|9=110|35=A|34=1|49=001|50=001B27|52=20190530-16:36:51.964|56=EXC|43=Y|98=0|108=30|141=Y|553=001FCM001|554=001FCM001|10=087|
8=FIX.4.4|9=0067|35=A|34=1|49=EXC|56=001|52=20190530-16:36:46.860|98=0|108=30|141=Y|10=013|
8=FIX.4.4|9=177|35=R|34=2|49=001|50=001B27|52=20190530-16:36:57.367|56=EXC|131=52617574|146=1|55=TFIC13280425|22=M|762=RFQF|54=1|38=500000000|453=2|448=002B35|447=C|452=37|448=DCV|447=C|452=10|10=070|
8=FIX.4.4|9=0259|35=AI|34=2|49=EXC|56=001|57=001B27|52=20190530-16:36:52.204|131=52617574|453=5|448=DCV|447=C|452=10|448=001B27|447=C|452=12|448=001|447=C|452=1|448=001FCM001|447=C|452=36|448=002B35|447=C|452=37|55=TFIC13280425|762=RFQF|48=20626|22=M|54=1|38=500000000|297=10|10=210|
8=FIX.4.4|9=104|35=A|34=3|49=001|50=001B27|52=20190530-16:37:13.535|56=EXC|43=Y|98=0|108=30|553=001FCM001|554=001FCM001|10=040|
8=FIX.4.4|9=0061|35=A|34=3|49=EXC|56=001|52=20190530-16:37:08.398|98=0|108=30|10=225|
8=FIX.4.4|9=0307|35=S|34=4|49=EXC|56=001|57=001B27|52=20190530-16:37:29.439|131=52617574|117=20190530-000000000018.00|55=TFIC13280425|762=RFQF|48=20626|22=M|453=5|448=DCV|447=C|452=10|448=001B27|447=C|452=12|448=001|447=C|452=1|448=001FCM001|447=C|452=36|448=002B35|447=C|452=37|634=4.000|135=500000000|62=20190530-22:00:00|10=246|
8=FIX.4.4|9=104|35=A|34=4|49=001|50=001B27|52=20190530-16:37:35.656|56=EXC|43=Y|98=0|108=30|553=001FCM001|554=001FCM001|10=049|
8=FIX.4.4|9=0061|35=A|34=5|49=EXC|56=001|52=20190530-16:37:30.520|98=0|108=30|10=209|
8=FIX.4.4|9=59|35=0|34=4|49=001|50=001B27|52=20190530-16:37:44.507|56=EXC|10=054|
8=FIX.4.4|9=110|35=A|34=1|49=001|50=001B27|52=20190530-16:39:03.826|56=EXC|43=Y|98=0|108=30|141=Y|553=001FCM001|554=001FCM001|10=084|
8=FIX.4.4|9=0067|35=A|34=1|49=EXC|56=001|52=20190530-16:38:58.739|98=0|108=30|141=Y|10=023|
8=FIX.4.4|9=177|35=R|34=2|49=001|50=001B27|52=20190530-16:39:09.117|56=EXC|131=77389719|146=1|55=TFIC13280425|22=M|762=RFQF|54=1|38=500000000|453=2|448=002B35|447=C|452=37|448=DCV|447=C|452=10|10=077|
8=FIX.4.4|9=0259|35=AI|34=2|49=EXC|56=001|57=001B27|52=20190530-16:39:03.987|131=77389719|453=5|448=DCV|447=C|452=10|448=001B27|447=C|452=12|448=001|447=C|452=1|448=001FCM001|447=C|452=36|448=002B35|447=C|452=37|55=TFIC13280425|762=RFQF|48=20626|22=M|54=1|38=500000000|297=10|10=241|
8=FIX.4.4|9=104|35=A|34=3|49=001|50=001B27|52=20190530-16:39:25.193|56=EXC|43=Y|98=0|108=30|553=001FCM001|554=001FCM001|10=045|
8=FIX.4.4|9=0061|35=A|34=3|49=EXC|56=001|52=20190530-16:39:20.133|98=0|108=30|10=208|
8=FIX.4.4|9=0307|35=S|34=4|49=EXC|56=001|57=001B27|52=20190530-16:39:41.495|131=77389719|117=20190530-000000000019.00|55=TFIC13280425|762=RFQF|48=20626|22=M|453=5|448=DCV|447=C|452=10|448=001B27|447=C|452=12|448=001|447=C|452=1|448=001FCM001|447=C|452=36|448=002B35|447=C|452=37|634=4.000|135=500000000|62=20190530-22:00:00|10=003|
8=FIX.4.4|9=104|35=A|34=4|49=001|50=001B27|52=20190530-16:39:47.690|56=EXC|43=Y|98=0|108=30|553=001FCM001|554=001FCM001|10=052|
8=FIX.4.4|9=0061|35=A|34=5|49=EXC|56=001|52=20190530-16:39:42.643|98=0|108=30|10=220|
8=FIX.4.4|9=59|35=0|34=4|49=001|50=001B27|52=20190530-16:39:55.184|56=EXC|10=059|
8=FIX.4.4|9=110|35=A|34=1|49=001|50=001B27|52=20190530-16:45:21.091|56=EXC|43=Y|98=0|108=30|141=Y|553=001FCM001|554=001FCM001|10=075|
8=FIX.4.4|9=0067|35=A|34=1|49=EXC|56=001|52=20190530-16:45:15.990|98=0|108=30|141=Y|10=013|
8=FIX.4.4|9=0049|35=0|34=2|49=EXC|56=001|52=20190530-16:45:45.000|10=168|
8=FIX.4.4|9=59|35=0|34=2|49=001|50=001B27|52=20190530-16:45:52.059|56=EXC|10=052|
8=FIX.4.4|9=110|35=A|34=1|49=001|50=001B27|52=20190530-16:47:48.953|56=EXC|43=Y|98=0|108=30|141=Y|553=001FCM001|554=001FCM001|10=093|
8=FIX.4.4|9=0067|35=A|34=1|49=EXC|56=001|52=20190530-16:47:43.869|98=0|108=30|141=Y|10=021|
8=FIX.4.4|9=177|35=R|34=2|49=001|50=001B27|52=20190530-16:47:54.209|56=EXC|131=30860587|146=1|55=TFIC13280425|22=M|762=RFQF|54=1|38=500000000|453=2|448=002B35|447=C|452=37|448=DCV|447=C|452=10|10=064|
8=FIX.4.4|9=0259|35=AI|34=2|49=EXC|56=001|57=001B27|52=20190530-16:47:49.088|131=30860587|453=5|448=DCV|447=C|452=10|448=001B27|447=C|452=12|448=001|447=C|452=1|448=001FCM001|447=C|452=36|448=002B35|447=C|452=37|55=TFIC13280425|762=RFQF|48=20626|22=M|54=1|38=500000000|297=10|10=228|
8=FIX.4.4|9=104|35=A|34=3|49=001|50=001B27|52=20190530-16:48:10.296|56=EXC|43=Y|98=0|108=30|553=001FCM001|554=001FCM001|10=043|
8=FIX.4.4|9=0061|35=A|34=3|49=EXC|56=001|52=20190530-16:48:05.199|98=0|108=30|10=223|
8=FIX.4.4|9=59|35=0|34=3|49=001|50=001B27|52=20190530-16:48:24.658|56=EXC|10=060|
8=FIX.4.4|9=0049|35=0|34=4|49=EXC|56=001|52=20190530-16:48:35.000|10=172|
8=FIX.4.4|9=68|35=2|34=4|49=001|50=001B27|52=20190530-16:48:40.137|56=EXC|7=3|16=0|10=178|
8=FIX.4.4|9=0065|35=4|34=3|43=Y|49=EXC|56=001|52=20190530-16:48:35.028|123=Y|36=5|10=190|
8=FIX.4.4|9=0054|35=4|34=5|49=EXC|56=001|52=20190530-16:48:35.028|36=6|10=148|
8=FIX.4.4|9=110|35=A|34=1|49=001|50=001B27|52=20190530-16:49:39.467|56=EXC|43=Y|98=0|108=30|141=Y|553=001FCM001|554=001FCM001|10=095|
8=FIX.4.4|9=0067|35=A|34=1|49=EXC|56=001|52=20190530-16:49:34.407|98=0|108=30|141=Y|10=011|
8=FIX.4.4|9=177|35=R|34=2|49=001|50=001B27|52=20190530-16:49:44.804|56=EXC|131=26863041|146=1|55=TFIC13280425|22=M|762=RFQF|54=1|38=500000000|453=2|448=002B35|447=C|452=37|448=DCV|447=C|452=10|10=059|
8=FIX.4.4|9=0259|35=AI|34=2|49=EXC|56=001|57=001B27|52=20190530-16:49:39.709|131=26863041|453=5|448=DCV|447=C|452=10|448=001B27|447=C|452=12|448=001|447=C|452=1|448=001FCM001|447=C|452=36|448=002B35|447=C|452=37|55=TFIC13280425|762=RFQF|48=20626|22=M|54=1|38=500000000|297=10|10=222|
8=FIX.4.4|9=104|35=A|34=3|49=001|50=001B27|52=20190530-16:50:00.882|56=EXC|43=Y|98=0|108=30|553=001FCM001|554=001FCM001|10=036|
8=FIX.4.4|9=0061|35=A|34=3|49=EXC|56=001|52=20190530-16:49:55.815|98=0|108=30|10=224|
8=FIX.4.4|9=59|35=0|34=3|49=001|50=001B27|52=20190530-16:50:15.275|56=EXC|10=048|
8=FIX.4.4|9=0049|35=0|34=4|49=EXC|56=001|52=20190530-16:50:25.000|10=164|
8=FIX.4.4|9=68|35=2|34=4|49=001|50=001B27|52=20190530-16:50:30.112|56=EXC|7=3|16=0|10=163|
8=FIX.4.4|9=0065|35=4|34=3|43=Y|49=EXC|56=001|52=20190530-16:50:25.032|123=Y|36=5|10=177|
8=FIX.4.4|9=0054|35=4|34=5|49=EXC|56=001|52=20190530-16:50:25.032|36=6|10=135|
8=FIX.4.4|9=0307|35=S|34=6|49=EXC|56=001|57=001B27|52=20190530-16:50:31.830|131=26863041|117=20190530-000000000022.00|55=TFIC13280425|762=RFQF|48=20626|22=M|453=5|448=DCV|447=C|452=10|448=001B27|447=C|452=12|448=001|447=C|452=1|448=001FCM001|447=C|452=36|448=002B35|447=C|452=37|634=4.000|135=500000000|62=20190530-22:00:00|10=219|
8=FIX.4.4|9=104|35=A|34=5|49=001|50=001B27|52=20190530-16:50:37.992|56=EXC|43=Y|98=0|108=30|553=001FCM001|554=001FCM001|10=050|
8=FIX.4.4|9=0061|35=A|34=7|49=EXC|56=001|52=20190530-16:50:32.934|98=0|108=30|10=217|
8=FIX.4.4|9=104|35=A|34=6|49=001|50=001B27|52=20190530-16:50:40.448|56=EXC|43=Y|98=0|108=30|553=001FCM001|554=001FCM001|10=041|
8=FIX.4.4|9=0061|35=A|34=8|49=EXC|56=001|52=20190530-16:50:35.396|98=0|108=30|10=223|
8=FIX.4.4|9=110|35=A|34=1|49=001|50=001B27|52=20190530-16:52:01.332|56=EXC|43=Y|98=0|108=30|141=Y|553=001FCM001|554=001FCM001|10=069|
8=FIX.4.4|9=0067|35=A|34=1|49=EXC|56=001|52=20190530-16:51:56.315|98=0|108=30|141=Y|10=006|
8=FIX.4.4|9=176|35=R|34=2|49=001|50=001B27|52=20190530-16:52:06.661|56=EXC|131=2635736|146=1|55=TFIC13280425|22=M|762=RFQF|54=1|38=500000000|453=2|448=002B35|447=C|452=37|448=DCV|447=C|452=10|10=005|
8=FIX.4.4|9=0258|35=AI|34=2|49=EXC|56=001|57=001B27|52=20190530-16:52:01.615|131=2635736|453=5|448=DCV|447=C|452=10|448=001B27|447=C|452=12|448=001|447=C|452=1|448=001FCM001|447=C|452=36|448=002B35|447=C|452=37|55=TFIC13280425|762=RFQF|48=20626|22=M|54=1|38=500000000|297=10|10=154|
8=FIX.4.4|9=104|35=A|34=3|49=001|50=001B27|52=20190530-16:52:25.180|56=EXC|43=Y|98=0|108=30|553=001FCM001|554=001FCM001|10=036|
8=FIX.4.4|9=0061|35=A|34=3|49=EXC|56=001|52=20190530-16:52:20.635|98=0|108=30|10=210|
8=FIX.4.4|9=59|35=0|34=3|49=001|50=001B27|52=20190530-16:52:37.287|56=EXC|10=057|
8=FIX.4.4|9=0049|35=0|34=4|49=EXC|56=001|52=20190530-16:52:50.000|10=164|
8=FIX.4.4|9=68|35=2|34=4|49=001|50=001B27|52=20190530-16:52:55.068|56=EXC|7=3|16=0|10=182|
8=FIX.4.4|9=0065|35=4|34=3|43=Y|49=EXC|56=001|52=20190530-16:52:50.025|123=Y|36=5|10=179|
8=FIX.4.4|9=0054|35=4|34=5|49=EXC|56=001|52=20190530-16:52:50.026|36=6|10=138|
8=FIX.4.4|9=0306|35=S|34=6|49=EXC|56=001|57=001B27|52=20190530-16:52:54.120|131=2635736|117=20190530-000000000023.00|55=TFIC13280425|762=RFQF|48=20626|22=M|453=5|448=DCV|447=C|452=10|448=001B27|447=C|452=12|448=001|447=C|452=1|448=001FCM001|447=C|452=36|448=002B35|447=C|452=37|634=4.000|135=500000000|62=20190530-22:00:00|10=172|
8=FIX.4.4|9=104|35=A|34=5|49=001|50=001B27|52=20190530-16:53:00.281|56=EXC|43=Y|98=0|108=30|553=001FCM001|554=001FCM001|10=034|
8=FIX.4.4|9=0061|35=A|34=7|49=EXC|56=001|52=20190530-16:52:55.419|98=0|108=30|10=222|
8=FIX.4.4|9=104|35=A|34=6|49=001|50=001B27|52=20190530-16:53:01.639|56=EXC|43=Y|98=0|108=30|553=001FCM001|554=001FCM001|10=043|
8=FIX.4.4|9=0061|35=A|34=8|49=EXC|56=001|52=20190530-16:52:56.637|98=0|108=30|10=226|
8=FIX.4.4|9=110|35=A|34=1|49=001|50=001B27|52=20190530-18:16:58.988|56=EXC|43=Y|98=0|108=30|141=Y|553=001FCM001|554=001FCM001|10=100|
8=FIX.4.4|9=0067|35=A|34=1|49=EXC|56=001|52=20190530-18:16:53.809|98=0|108=30|141=Y|10=014|
8=FIX.4.4|9=177|35=R|34=2|49=001|50=001B27|52=20190530-18:17:04.535|56=EXC|131=43363938|146=1|55=TFIC13280425|22=M|762=RFQF|54=1|38=500000000|453=2|448=002B35|447=C|452=37|448=DCV|447=C|452=10|10=062|
8=FIX.4.4|9=0259|35=AI|34=2|49=EXC|56=001|57=001B27|52=20190530-18:16:59.301|131=43363938|453=5|448=DCV|447=C|452=10|448=001B27|447=C|452=12|448=001|447=C|452=1|448=001FCM001|447=C|452=36|448=002B35|447=C|452=37|55=TFIC13280425|762=RFQF|48=20626|22=M|54=1|38=500000000|297=10|10=217|
8=FIX.4.4|9=104|35=A|34=3|49=001|50=001B27|52=20190530-18:17:20.729|56=EXC|43=Y|98=0|108=30|553=001FCM001|554=001FCM001|10=043|
8=FIX.4.4|9=0061|35=A|34=3|49=EXC|56=001|52=20190530-18:17:15.512|98=0|108=30|10=211|
8=FIX.4.4|9=59|35=0|34=3|49=001|50=001B27|52=20190530-18:17:34.974|56=EXC|10=060|
8=FIX.4.4|9=0049|35=0|34=4|49=EXC|56=001|52=20190530-18:17:45.000|10=171|
8=FIX.4.4|9=68|35=2|34=4|49=001|50=001B27|52=20190530-18:17:50.304|56=EXC|7=3|16=0|10=173|
8=FIX.4.4|9=0065|35=4|34=3|43=Y|49=EXC|56=001|52=20190530-18:17:45.059|123=Y|36=5|10=193|
8=FIX.4.4|9=0054|35=4|34=5|49=EXC|56=001|52=20190530-18:17:45.059|36=6|10=151|
8=FIX.4.4|9=0307|35=S|34=6|49=EXC|56=001|57=001B27|52=20190530-18:17:51.721|131=43363938|117=20190530-000000000027.00|55=TFIC13280425|762=RFQF|48=20626|22=M|453=5|448=DCV|447=C|452=10|448=001B27|447=C|452=12|448=001|447=C|452=1|448=001FCM001|447=C|452=36|448=002B35|447=C|452=37|634=4.000|135=500000000|62=20190530-22:00:00|10=239|
8=FIX.4.4|9=104|35=A|34=5|49=001|50=001B27|52=20190530-18:17:58.063|56=EXC|43=Y|98=0|108=30|553=001FCM001|554=001FCM001|10=047|
8=FIX.4.4|9=0061|35=A|34=7|49=EXC|56=001|52=20190530-18:17:52.875|98=0|108=30|10=228|
8=FIX.4.4|9=104|35=A|34=6|49=001|50=001B27|52=20190530-18:17:59.997|56=EXC|43=Y|98=0|108=30|553=001FCM001|554=001FCM001|10=065|
8=FIX.4.4|9=0061|35=A|34=8|49=EXC|56=001|52=20190530-18:17:54.830|98=0|108=30|10=222|
8=FIX.4.4|9=59|35=0|34=5|49=001|50=001B27|52=20190530-18:18:20.724|56=EXC|10=051|
8=FIX.4.4|9=110|35=A|34=1|49=001|50=001B27|52=20190530-18:22:20.734|56=EXC|43=Y|98=0|108=30|141=Y|553=001FCM001|554=001FCM001|10=075|
8=FIX.4.4|9=0067|35=A|34=1|49=EXC|56=001|52=20190530-18:22:15.660|98=0|108=30|141=Y|10=004|
8=FIX.4.4|9=177|35=R|34=2|49=001|50=001B27|52=20190530-18:22:26.003|56=EXC|131=54032040|146=1|55=TFIC13280425|22=M|762=RFQF|54=1|38=500000000|453=2|448=002B35|447=C|452=37|448=DCV|447=C|452=10|10=031|
8=FIX.4.4|9=0259|35=AI|34=2|49=EXC|56=001|57=001B27|52=20190530-18:22:20.756|131=54032040|453=5|448=DCV|447=C|452=10|448=001B27|447=C|452=12|448=001|447=C|452=1|448=001FCM001|447=C|452=36|448=002B35|447=C|452=37|55=TFIC13280425|762=RFQF|48=20626|22=M|54=1|38=500000000|297=10|10=195|
8=FIX.4.4|9=104|35=A|34=3|49=001|50=001B27|52=20190530-18:22:42.084|56=EXC|43=Y|98=0|108=30|553=001FCM001|554=001FCM001|10=037|
8=FIX.4.4|9=0061|35=A|34=3|49=EXC|56=001|52=20190530-18:22:36.862|98=0|108=30|10=218|
8=FIX.4.4|9=59|35=0|34=3|49=001|50=001B27|52=20190530-18:22:56.464|56=EXC|10=054|
8=FIX.4.4|9=0049|35=0|34=4|49=EXC|56=001|52=20190530-18:23:06.000|10=165|
8=FIX.4.4|9=68|35=2|34=4|49=001|50=001B27|52=20190530-18:23:11.277|56=EXC|7=3|16=0|10=176|
8=FIX.4.4|9=0065|35=4|34=3|43=Y|49=EXC|56=001|52=20190530-18:23:06.029|123=Y|36=5|10=184|
8=FIX.4.4|9=0054|35=4|34=5|49=EXC|56=001|52=20190530-18:23:06.030|36=6|10=134|
8=FIX.4.4|9=0307|35=S|34=6|49=EXC|56=001|57=001B27|52=20190530-18:23:12.823|131=54032040|117=20190530-000000000028.00|55=TFIC13280425|762=RFQF|48=20626|22=M|453=5|448=DCV|447=C|452=10|448=001B27|447=C|452=12|448=001|447=C|452=1|448=001FCM001|447=C|452=36|448=002B35|447=C|452=37|634=4.000|135=500000000|62=20190530-22:00:00|10=216|
8=FIX.4.4|9=104|35=A|34=5|49=001|50=001B27|52=20190530-18:23:19.161|56=EXC|43=Y|98=0|108=30|553=001FCM001|554=001FCM001|10=040|
8=FIX.4.4|9=0061|35=A|34=7|49=EXC|56=001|52=20190530-18:23:13.932|98=0|108=30|10=216|
8=FIX.4.4|9=104|35=A|34=6|49=001|50=001B27|52=20190530-18:23:21.712|56=EXC|43=Y|98=0|108=30|553=001FCM001|554=001FCM001|10=036|
8=FIX.4.4|9=0061|35=A|34=8|49=EXC|56=001|52=20190530-18:23:16.486|98=0|108=30|10=224|
8=FIX.4.4|9=59|35=0|34=5|49=001|50=001B27|52=20190530-18:23:42.075|56=EXC|10=050|
8=FIX.4.4|9=0049|35=0|34=9|49=EXC|56=001|52=20190530-18:23:46.000|10=174|
8=FIX.4.4|9=68|35=2|34=7|49=001|50=001B27|52=20190530-18:23:51.293|56=EXC|7=8|16=0|10=186|
8=FIX.4.4|9=0066|35=4|34=8|43=Y|49=EXC|56=001|52=20190530-18:23:46.046|123=Y|36=10|10=237|
8=FIX.4.4|9=0056|35=4|34=10|49=EXC|56=001|52=20190530-18:23:46.046|36=11|10=235|
8=FIX.4.4|9=104|35=A|34=8|49=001|50=001B27|52=20190530-18:24:20.191|56=EXC|43=Y|98=0|108=30|553=001FCM001|554=001FCM001|10=039|
8=FIX.4.4|9=0062|35=A|34=11|49=EXC|56=001|52=20190530-18:24:14.966|98=0|108=30|10=013|
8=FIX.4.4|9=104|35=A|34=9|49=001|50=001B27|52=20190530-18:24:22.712|56=EXC|43=Y|98=0|108=30|553=001FCM001|554=001FCM001|10=041|
8=FIX.4.4|9=0062|35=A|34=12|49=EXC|56=001|52=20190530-18:24:17.503|98=0|108=30|10=004|
8=FIX.4.4|9=105|35=A|34=10|49=001|50=001B27|52=20190530-18:24:42.100|56=EXC|43=Y|98=0|108=30|553=001FCM001|554=001FCM001|10=075|
8=FIX.4.4|9=0062|35=A|34=13|49=EXC|56=001|52=20190530-18:24:36.871|98=0|108=30|10=014|
8=FIX.4.4|9=0050|35=0|34=14|49=EXC|56=001|52=20190530-18:25:06.000|10=208|
8=FIX.4.4|9=70|35=2|34=11|49=001|50=001B27|52=20190530-18:25:11.290|56=EXC|7=10|16=0|10=002|
8=FIX.4.4|9=0067|35=4|34=10|43=Y|49=EXC|56=001|52=20190530-18:25:06.040|123=Y|36=15|10=020|
8=FIX.4.4|9=0056|35=4|34=15|49=EXC|56=001|52=20190530-18:25:06.040|36=16|10=237|
8=FIX.4.4|9=105|35=A|34=12|49=001|50=001B27|52=20190530-18:25:22.002|56=EXC|43=Y|98=0|108=30|553=001FCM001|554=001FCM001|10=077|
8=FIX.4.4|9=0062|35=A|34=16|49=EXC|56=001|52=20190530-18:25:16.674|98=0|108=30|10=017|
8=FIX.4.4|9=105|35=A|34=13|49=001|50=001B27|52=20190530-18:25:23.001|56=EXC|43=Y|98=0|108=30|553=001FCM001|554=001FCM001|10=078|
8=FIX.4.4|9=0062|35=A|34=17|49=EXC|56=001|52=20190530-18:25:17.679|98=0|108=30|10=024|
8=FIX.4.4|9=110|35=A|34=1|49=001|50=001B27|52=20190530-18:31:35.480|56=EXC|43=Y|98=0|108=30|141=Y|553=001FCM001|554=001FCM001|10=079|
8=FIX.4.4|9=0067|35=A|34=1|49=EXC|56=001|52=20190530-18:31:29.959|98=0|108=30|141=Y|10=020|
8=FIX.4.4|9=177|35=R|34=2|49=001|50=001B27|52=20190530-18:31:40.796|56=EXC|131=12736923|146=1|55=TFIC13280425|22=M|762=RFQF|54=1|38=500000000|453=2|448=002B35|447=C|452=37|448=DCV|447=C|452=10|10=061|
8=FIX.4.4|9=0259|35=AI|34=2|49=EXC|56=001|57=001B27|52=20190530-18:31:35.228|131=12736923|453=5|448=DCV|447=C|452=10|448=001B27|447=C|452=12|448=001|447=C|452=1|448=001FCM001|447=C|452=36|448=002B35|447=C|452=37|55=TFIC13280425|762=RFQF|48=20626|22=M|54=1|38=500000000|297=10|10=210|
8=FIX.4.4|9=104|35=A|34=3|49=001|50=001B27|52=20190530-18:31:56.921|56=EXC|43=Y|98=0|108=30|553=001FCM001|554=001FCM001|10=042|
8=FIX.4.4|9=0061|35=A|34=3|49=EXC|56=001|52=20190530-18:31:51.372|98=0|108=30|10=211|
8=FIX.4.4|9=0307|35=S|34=4|49=EXC|56=001|57=001B27|52=20190530-18:31:57.346|131=12736923|117=20190530-000000000029.00|55=TFIC13280425|762=RFQF|48=20626|22=M|453=5|448=DCV|447=C|452=10|448=001B27|447=C|452=12|448=001|447=C|452=1|448=001FCM001|447=C|452=36|448=002B35|447=C|452=37|634=4.000|135=500000000|62=20190530-22:00:00|10=238|
8=FIX.4.4|9=104|35=A|34=4|49=001|50=001B27|52=20190530-18:32:03.999|56=EXC|43=Y|98=0|108=30|553=001FCM001|554=001FCM001|10=051|
8=FIX.4.4|9=0061|35=A|34=5|49=EXC|56=001|52=20190530-18:31:58.453|98=0|108=30|10=220|
8=FIX.4.4|9=110|35=A|34=1|49=001|50=001B27|52=20190530-18:33:08.781|56=EXC|43=Y|98=0|108=30|141=Y|553=001FCM001|554=001FCM001|10=085|
8=FIX.4.4|9=0067|35=A|34=1|49=EXC|56=001|52=20190530-18:33:03.250|98=0|108=30|141=Y|10=254|
8=FIX.4.4|9=177|35=R|34=2|49=001|50=001B27|52=20190530-18:33:14.086|56=EXC|131=68819253|146=1|55=TFIC13280425|22=M|762=RFQF|54=1|38=500000000|453=2|448=002B35|447=C|452=37|448=DCV|447=C|452=10|10=065|
8=FIX.4.4|9=0259|35=AI|34=2|49=EXC|56=001|57=001B27|52=20190530-18:33:08.515|131=68819253|453=5|448=DCV|447=C|452=10|448=001B27|447=C|452=12|448=001|447=C|452=1|448=001FCM001|447=C|452=36|448=002B35|447=C|452=37|55=TFIC13280425|762=RFQF|48=20626|22=M|54=1|38=500000000|297=10|10=220|
8=FIX.4.4|9=104|35=A|34=3|49=001|50=001B27|52=20190530-18:33:30.166|56=EXC|43=Y|98=0|108=30|553=001FCM001|554=001FCM001|10=037|
8=FIX.4.4|9=0061|35=A|34=3|49=EXC|56=001|52=20190530-18:33:24.616|98=0|108=30|10=214|
8=FIX.4.4|9=0307|35=S|34=4|49=EXC|56=001|57=001B27|52=20190530-18:33:30.620|131=68819253|117=20190530-000000000030.00|55=TFIC13280425|762=RFQF|48=20626|22=M|453=5|448=DCV|447=C|452=10|448=001B27|447=C|452=12|448=001|447=C|452=1|448=001FCM001|447=C|452=36|448=002B35|447=C|452=37|634=4.000|135=500000000|62=20190530-22:00:00|10=227|
8=FIX.4.4|9=104|35=A|34=4|49=001|50=001B27|52=20190530-18:33:37.270|56=EXC|43=Y|98=0|108=30|553=001FCM001|554=001FCM001|10=041|
8=FIX.4.4|9=0061|35=A|34=5|49=EXC|56=001|52=20190530-18:33:31.756|98=0|108=30|10=219|
8=FIX.4.4|9=110|35=A|34=1|49=001|50=001B27|52=20190530-18:36:46.637|56=EXC|43=Y|98=0|108=30|141=Y|553=001FCM001|554=001FCM001|10=090|
8=FIX.4.4|9=0067|35=A|34=1|49=EXC|56=001|52=20190530-18:36:41.100|98=0|108=30|141=Y|10=253|
8=FIX.4.4|9=177|35=R|34=2|49=001|50=001B27|52=20190530-18:36:51.967|56=EXC|131=46176325|146=1|55=TFIC13280425|22=M|762=RFQF|54=1|38=500000000|453=2|448=002B35|447=C|452=37|448=DCV|447=C|452=10|10=069|
8=FIX.4.4|9=0259|35=AI|34=2|49=EXC|56=001|57=001B27|52=20190530-18:36:46.392|131=46176325|453=5|448=DCV|447=C|452=10|448=001B27|447=C|452=12|448=001|447=C|452=1|448=001FCM001|447=C|452=36|448=002B35|447=C|452=37|55=TFIC13280425|762=RFQF|48=20626|22=M|54=1|38=500000000|297=10|10=220|
8=FIX.4.4|9=104|35=A|34=3|49=001|50=001B27|52=20190530-18:37:08.046|56=EXC|43=Y|98=0|108=30|553=001FCM001|554=001FCM001|10=043|
8=FIX.4.4|9=0061|35=A|34=3|49=EXC|56=001|52=20190530-18:37:02.497|98=0|108=30|10=221|
8=FIX.4.4|9=0307|35=S|34=4|49=EXC|56=001|57=001B27|52=20190530-18:37:18.550|131=46176325|117=20190530-000000000031.00|55=TFIC13280425|762=RFQF|48=20626|22=M|453=5|448=DCV|447=C|452=10|448=001B27|447=C|452=12|448=001|447=C|452=1|448=001FCM001|447=C|452=36|448=002B35|447=C|452=37|634=4.000|135=500000000|62=20190530-22:00:00|10=232|
8=FIX.4.4|9=104|35=A|34=4|49=001|50=001B27|52=20190530-18:37:25.225|56=EXC|43=Y|98=0|108=30|553=001FCM001|554=001FCM001|10=042|
8=FIX.4.4|9=0061|35=A|34=5|49=EXC|56=001|52=20190530-18:37:19.673|98=0|108=30|10=227|
8=FIX.4.4|9=131|35=R|34=5|49=001|50=001B27|52=20190530-18:37:44.185|56=EXC|131=9656684|146=1|55=TFIT16280428|22=M|762=RFQF|54=1|38=500000000|453=0|10=150|
8=FIX.4.4|9=0151|35=AG|34=6|49=EXC|56=001|57=001B27|52=20190530-18:37:38.610|131=9656684|658=99|146=1|55=TFIT16280428|762=RFQF|22=M|58=(962): Deposito no fue ingresada|10=126|
8=FIX.4.4|9=68|35=2|34=6|49=001|50=001B27|52=20190530-18:37:44.236|56=EXC|7=5|16=0|10=186|
8=FIX.4.4|9=0065|35=4|34=5|43=Y|49=EXC|56=001|52=20190530-18:37:38.660|123=Y|36=6|10=198|
8=FIX.4.4|9=0182|35=AG|34=6|43=Y|52=20190530-18:37:38.660|49=EXC|56=001|57=001B27|122=20190530-18:37:38.610|131=9656684|658=99|146=1|55=TFIT16280428|762=RFQF|22=M|58=(962): Deposito no fue ingresada|10=144|
8=FIX.4.4|9=0054|35=4|34=7|49=EXC|56=001|52=20190530-18:37:38.660|36=8|10=157|
8=FIX.4.4|9=105|35=j|34=7|49=001|50=001B27|52=20190530-18:37:44.257|56=EXC|45=6|58=Unsupported Message Type|372=AG|380=3|10=229|
8=FIX.4.4|9=0109|35=j|34=8|49=EXC|56=001|57=001B27|52=20190530-18:37:38.681|45=7|372=j|380=3|58=(1468): MsgType(#35) invalido|10=081|
8=FIX.4.4|9=104|35=A|34=8|49=001|50=001B27|52=20190530-18:37:47.598|56=EXC|43=Y|98=0|108=30|553=001FCM001|554=001FCM001|10=063|
8=FIX.4.4|9=0061|35=A|34=9|49=EXC|56=001|52=20190530-18:37:42.046|98=0|108=30|10=221|
8=FIX.4.4|9=110|35=A|34=1|49=001|50=001B27|52=20190530-18:39:03.819|56=EXC|43=Y|98=0|108=30|141=Y|553=001FCM001|554=001FCM001|10=088|
8=FIX.4.4|9=0067|35=A|34=1|49=EXC|56=001|52=20190530-18:38:58.308|98=0|108=30|141=Y|10=017|
8=FIX.4.4|9=177|35=R|34=2|49=001|50=001B27|52=20190530-18:39:09.069|56=EXC|131=37079863|146=1|55=TFIC13280425|22=M|762=RFQF|54=1|38=500000000|453=2|448=002B35|447=C|452=37|448=DCV|447=C|452=10|10=077|
8=FIX.4.4|9=0259|35=AI|34=2|49=EXC|56=001|57=001B27|52=20190530-18:39:03.496|131=37079863|453=5|448=DCV|447=C|452=10|448=001B27|447=C|452=12|448=001|447=C|452=1|448=001FCM001|447=C|452=36|448=002B35|447=C|452=37|55=TFIC13280425|762=RFQF|48=20626|22=M|54=1|38=500000000|297=10|10=230|
8=FIX.4.4|9=104|35=A|34=3|49=001|50=001B27|52=20190530-18:39:25.149|56=EXC|43=Y|98=0|108=30|553=001FCM001|554=001FCM001|10=048|
8=FIX.4.4|9=0061|35=A|34=3|49=EXC|56=001|52=20190530-18:39:19.593|98=0|108=30|10=228|
8=FIX.4.4|9=0307|35=S|34=4|49=EXC|56=001|57=001B27|52=20190530-18:39:35.622|131=37079863|117=20190530-000000000032.00|55=TFIC13280425|762=RFQF|48=20626|22=M|453=5|448=DCV|447=C|452=10|448=001B27|447=C|452=12|448=001|447=C|452=1|448=001FCM001|447=C|452=36|448=002B35|447=C|452=37|634=4.000|135=500000000|62=20190530-22:00:00|10=243|
8=FIX.4.4|9=104|35=A|34=4|49=001|50=001B27|52=20190530-18:39:42.268|56=EXC|43=Y|98=0|108=30|553=001FCM001|554=001FCM001|10=050|
8=FIX.4.4|9=0061|35=A|34=5|49=EXC|56=001|52=20190530-18:39:36.713|98=0|108=30|10=223|
8=FIX.4.4|9=110|35=A|34=1|49=001|50=001B27|52=20190530-18:43:50.092|56=EXC|43=Y|98=0|108=30|141=Y|553=001FCM001|554=001FCM001|10=078|
8=FIX.4.4|9=0067|35=A|34=1|49=EXC|56=001|52=20190530-18:43:44.219|98=0|108=30|141=Y|10=009|
8=FIX.4.4|9=177|35=R|34=2|49=001|50=001B27|52=20190530-18:43:55.364|56=EXC|131=17329517|146=1|55=TFIC13280425|22=M|762=RFQF|54=1|38=500000000|453=2|448=002B35|447=C|452=37|448=DCV|447=C|452=10|10=063|
8=FIX.4.4|9=0259|35=AI|34=2|49=EXC|56=001|57=001B27|52=20190530-18:43:49.437|131=17329517|453=5|448=DCV|447=C|452=10|448=001B27|447=C|452=12|448=001|447=C|452=1|448=001FCM001|447=C|452=36|448=002B35|447=C|452=37|55=TFIC13280425|762=RFQF|48=20626|22=M|54=1|38=500000000|297=10|10=222|
8=FIX.4.4|9=104|35=A|34=3|49=001|50=001B27|52=20190530-18:44:11.472|56=EXC|43=Y|98=0|108=30|553=001FCM001|554=001FCM001|10=038|
8=FIX.4.4|9=0061|35=A|34=3|49=EXC|56=001|52=20190530-18:44:05.565|98=0|108=30|10=218|
8=FIX.4.4|9=0307|35=S|34=4|49=EXC|56=001|57=001B27|52=20190530-18:44:21.527|131=17329517|117=20190530-000000000033.00|55=TFIC13280425|762=RFQF|48=20626|22=M|453=5|448=DCV|447=C|452=10|448=001B27|447=C|452=12|448=001|447=C|452=1|448=001FCM001|447=C|452=36|448=002B35|447=C|452=37|634=4.000|135=500000000|62=20190530-22:00:00|10=231|
8=FIX.4.4|9=104|35=A|34=4|49=001|50=001B27|52=20190530-18:44:28.561|56=EXC|43=Y|98=0|108=30|553=001FCM001|554=001FCM001|10=046|
8=FIX.4.4|9=0061|35=A|34=5|49=EXC|56=001|52=20190530-18:44:22.656|98=0|108=30|10=220|
8=FIX.4.4|9=110|35=A|34=1|49=001|50=001B27|52=20190530-19:52:51.066|56=EXC|43=Y|98=0|108=30|141=Y|553=001FCM001|554=001FCM001|10=081|
8=FIX.4.4|9=0067|35=A|34=1|49=EXC|56=001|52=20190530-19:52:45.877|98=0|108=30|141=Y|10=021|
8=FIX.4.4|9=177|35=R|34=2|49=001|50=001B27|52=20190530-19:53:03.063|56=EXC|131=65220288|146=1|55=TFIC13280425|22=M|762=RFQF|54=1|38=500000000|453=2|448=002B35|447=C|452=37|448=DCV|447=C|452=10|10=052|
8=FIX.4.4|9=0259|35=AI|34=2|49=EXC|56=001|57=001B27|52=20190530-19:52:57.785|131=65220288|453=5|448=DCV|447=C|452=10|448=001B27|447=C|452=12|448=001|447=C|452=1|448=001FCM001|447=C|452=36|448=002B35|447=C|452=37|55=TFIC13280425|762=RFQF|48=20626|22=M|54=1|38=500000000|297=10|10=226|
8=FIX.4.4|9=104|35=A|34=3|49=001|50=001B27|52=20190530-19:53:25.339|56=EXC|43=Y|98=0|108=30|553=001FCM001|554=001FCM001|10=046|
8=FIX.4.4|9=0061|35=A|34=3|49=EXC|56=001|52=20190530-19:53:20.164|98=0|108=30|10=211|
8=FIX.4.4|9=0307|35=S|34=4|49=EXC|56=001|57=001B27|52=20190530-19:53:42.514|131=65220288|117=20190530-000000000034.00|55=TFIC13280425|762=RFQF|48=20626|22=M|453=5|448=DCV|447=C|452=10|448=001B27|447=C|452=12|448=001|447=C|452=1|448=001FCM001|447=C|452=36|448=002B35|447=C|452=37|634=4.000|135=500000000|62=20190530-22:00:00|10=230|
8=FIX.4.4|9=104|35=A|34=4|49=001|50=001B27|52=20190530-19:53:49.174|56=EXC|43=Y|98=0|108=30|553=001FCM001|554=001FCM001|10=050|
8=FIX.4.4|9=0061|35=A|34=5|49=EXC|56=001|52=20190530-19:53:44.406|98=0|108=30|10=218|
8=FIX.4.4|9=104|35=A|34=5|49=001|50=001B27|52=20190530-19:53:53.414|56=EXC|43=Y|98=0|108=30|553=001FCM001|554=001FCM001|10=043|
8=FIX.4.4|9=0061|35=A|34=6|49=EXC|56=001|52=20190530-19:53:48.618|98=0|108=30|10=228|
8=FIX.4.4|9=59|35=0|34=4|49=001|50=001B27|52=20190530-19:53:55.810|56=EXC|10=054|
8=FIX.4.4|9=0049|35=0|34=7|49=EXC|56=001|52=20190530-19:54:18.000|10=176|
8=FIX.4.4|9=68|35=2|34=6|49=001|50=001B27|52=20190530-19:54:23.369|56=EXC|7=6|16=0|10=191|
8=FIX.4.4|9=0065|35=4|34=6|43=Y|49=EXC|56=001|52=20190530-19:54:18.095|123=Y|36=8|10=201|
8=FIX.4.4|9=0054|35=4|34=8|49=EXC|56=001|52=20190530-19:54:18.095|36=9|10=159|
8=FIX.4.4|9=104|35=A|34=7|49=001|50=001B27|52=20190530-19:54:26.404|56=EXC|43=Y|98=0|108=30|553=001FCM001|554=001FCM001|10=045|
8=FIX.4.4|9=0061|35=A|34=9|49=EXC|56=001|52=20190530-19:54:21.354|98=0|108=30|10=220|
8=FIX.4.4|9=110|35=A|34=1|49=001|50=001B27|52=20190530-19:56:08.360|56=EXC|43=Y|98=0|108=30|141=Y|553=001FCM001|554=001FCM001|10=084|
8=FIX.4.4|9=0067|35=A|34=1|49=EXC|56=001|52=20190530-19:56:03.099|98=0|108=30|141=Y|10=015|
8=FIX.4.4|9=177|35=R|34=2|49=001|50=001B27|52=20190530-19:56:13.671|56=EXC|131=56326844|146=1|55=TFIC13280425|22=M|762=RFQF|54=1|38=500000000|453=2|448=002B35|447=C|452=37|448=DCV|447=C|452=10|10=066|
8=FIX.4.4|9=0259|35=AI|34=2|49=EXC|56=001|57=001B27|52=20190530-19:56:08.376|131=56326844|453=5|448=DCV|447=C|452=10|448=001B27|447=C|452=12|448=001|447=C|452=1|448=001FCM001|447=C|452=36|448=002B35|447=C|452=37|55=TFIC13280425|762=RFQF|48=20626|22=M|54=1|38=500000000|297=10|10=227|
8=FIX.4.4|9=104|35=A|34=3|49=001|50=001B27|52=20190530-19:56:29.771|56=EXC|43=Y|98=0|108=30|553=001FCM001|554=001FCM001|10=053|
8=FIX.4.4|9=0061|35=A|34=3|49=EXC|56=001|52=20190530-19:56:24.500|98=0|108=30|10=212|
8=FIX.4.4|9=0307|35=S|34=4|49=EXC|56=001|57=001B27|52=20190530-19:56:40.515|131=56326844|117=20190530-000000000035.00|55=TFIC13280425|762=RFQF|48=20626|22=M|453=5|448=DCV|447=C|452=10|448=001B27|447=C|452=12|448=001|447=C|452=1|448=001FCM001|447=C|452=36|448=002B35|447=C|452=37|634=4.000|135=500000000|62=20190530-22:00:00|10=238|
8=FIX.4.4|9=104|35=A|34=4|49=001|50=001B27|52=20190530-19:56:46.897|56=EXC|43=Y|98=0|108=30|553=001FCM001|554=001FCM001|10=062|
8=FIX.4.4|9=0061|35=A|34=5|49=EXC|56=001|52=20190530-19:56:41.634|98=0|108=30|10=221|
8=FIX.4.4|9=59|35=0|34=4|49=001|50=001B27|52=20190530-19:57:00.753|56=EXC|10=054|
8=FIX.4.4|9=176|35=R|34=5|49=001|50=001B27|52=20190530-19:57:02.788|56=EXC|131=2603806|146=1|55=TFIC13280425|22=M|762=RFQF|54=1|38=500000000|453=2|448=002B35|447=C|452=37|448=DCV|447=C|452=10|10=015|
8=FIX.4.4|9=0258|35=AI|34=6|49=EXC|56=001|57=001B27|52=20190530-19:56:57.499|131=2603806|453=5|448=DCV|447=C|452=10|448=001B27|447=C|452=12|448=001|447=C|452=1|448=001FCM001|447=C|452=36|448=002B35|447=C|452=37|55=TFIC13280425|762=RFQF|48=20626|22=M|54=1|38=500000000|297=10|10=179|
8=FIX.4.4|9=68|35=2|34=6|49=001|50=001B27|52=20190530-19:57:02.818|56=EXC|7=5|16=0|10=189|
8=FIX.4.4|9=0065|35=4|34=5|43=Y|49=EXC|56=001|52=20190530-19:56:57.524|123=Y|36=6|10=200|
8=FIX.4.4|9=0289|35=AI|34=6|43=Y|52=20190530-19:56:57.524|49=EXC|56=001|57=001B27|122=20190530-19:56:57.499|131=2603806|453=5|448=DCV|447=C|452=10|448=001B27|447=C|452=12|448=001|447=C|452=1|448=001FCM001|447=C|452=36|448=002B35|447=C|452=37|55=TFIC13280425|762=RFQF|48=20626|22=M|54=1|38=500000000|297=10|10=199|
8=FIX.4.4|9=0054|35=4|34=7|49=EXC|56=001|52=20190530-19:56:57.524|36=8|10=159|
8=FIX.4.4|9=104|35=A|34=7|49=001|50=001B27|52=20190530-19:57:09.341|56=EXC|43=Y|98=0|108=30|553=001FCM001|554=001FCM001|10=049|
8=FIX.4.4|9=0061|35=A|34=8|49=EXC|56=001|52=20190530-19:57:04.066|98=0|108=30|10=223|
8=FIX.4.4|9=104|35=A|34=8|49=001|50=001B27|52=20190530-19:57:18.890|56=EXC|43=Y|98=0|108=30|553=001FCM001|554=001FCM001|10=059|
8=FIX.4.4|9=0061|35=A|34=9|49=EXC|56=001|52=20190530-19:57:13.614|98=0|108=30|10=223|
8=FIX.4.4|9=104|35=A|34=9|49=001|50=001B27|52=20190530-19:57:30.775|56=EXC|43=Y|98=0|108=30|553=001FCM001|554=001FCM001|10=056|
8=FIX.4.4|9=0062|35=A|34=10|49=EXC|56=001|52=20190530-19:57:25.511|98=0|108=30|10=007|
8=FIX.4.4|9=105|35=A|34=10|49=001|50=001B27|52=20190530-19:57:47.608|56=EXC|43=Y|98=0|108=30|553=001FCM001|554=001FCM001|10=100|
8=FIX.4.4|9=0062|35=A|34=11|49=EXC|56=001|52=20190530-19:57:42.343|98=0|108=30|10=010|
8=FIX.4.4|9=110|35=A|34=1|49=001|50=001B27|52=20190530-20:00:06.351|56=EXC|43=Y|98=0|108=30|141=Y|553=001FCM001|554=001FCM001|10=063|
8=FIX.4.4|9=0067|35=A|34=1|49=EXC|56=001|52=20190530-20:00:01.144|98=0|108=30|141=Y|10=241|
8=FIX.4.4|9=177|35=R|34=2|49=001|50=001B27|52=20190530-20:00:11.695|56=EXC|131=10283273|146=1|55=TFIC13280425|22=M|762=RFQF|54=1|38=500000000|453=2|448=002B35|447=C|452=37|448=DCV|447=C|452=10|10=039|
8=FIX.4.4|9=0259|35=AI|34=2|49=EXC|56=001|57=001B27|52=20190530-20:00:06.403|131=10283273|453=5|448=DCV|447=C|452=10|448=001B27|447=C|452=12|448=001|447=C|452=1|448=001FCM001|447=C|452=36|448=002B35|447=C|452=37|55=TFIC13280425|762=RFQF|48=20626|22=M|54=1|38=500000000|297=10|10=185|
8=FIX.4.4|9=104|35=A|34=3|49=001|50=001B27|52=20190530-20:00:27.764|56=EXC|43=Y|98=0|108=30|553=001FCM001|554=001FCM001|10=034|
8=FIX.4.4|9=0061|35=A|34=3|49=EXC|56=001|52=20190530-20:00:22.519|98=0|108=30|10=201|
8=FIX.4.4|9=0307|35=S|34=4|49=EXC|56=001|57=001B27|52=20190530-20:00:38.454|131=10283273|117=20190530-000000000037.00|55=TFIC13280425|762=RFQF|48=20626|22=M|453=5|448=DCV|447=C|452=10|448=001B27|447=C|452=12|448=001|447=C|452=1|448=001FCM001|447=C|452=36|448=002B35|447=C|452=37|634=4.000|135=500000000|62=20190530-22:00:00|10=218|
8=FIX.4.4|9=104|35=A|34=4|49=001|50=001B27|52=20190530-20:00:44.816|56=EXC|43=Y|98=0|108=30|553=001FCM001|554=001FCM001|10=032|
8=FIX.4.4|9=0061|35=A|34=5|49=EXC|56=001|52=20190530-20:00:39.542|98=0|108=30|10=207|
8=FIX.4.4|9=59|35=0|34=4|49=001|50=001B27|52=20190530-20:00:58.748|56=EXC|10=051|
8=FIX.4.4|9=177|35=R|34=5|49=001|50=001B27|52=20190530-20:01:00.683|56=EXC|131=60713231|146=1|55=TFIC13280425|22=M|762=RFQF|54=1|38=500000000|453=2|448=002B35|447=C|452=37|448=DCV|447=C|452=10|10=035|
8=FIX.4.4|9=0259|35=AI|34=6|49=EXC|56=001|57=001B27|52=20190530-20:00:55.387|131=60713231|453=5|448=DCV|447=C|452=10|448=001B27|447=C|452=12|448=001|447=C|452=1|448=001FCM001|447=C|452=36|448=002B35|447=C|452=37|55=TFIC13280425|762=RFQF|48=20626|22=M|54=1|38=500000000|297=10|10=201|
8=FIX.4.4|9=68|35=2|34=6|49=001|50=001B27|52=20190530-20:01:00.709|56=EXC|7=5|16=0|10=167|
8=FIX.4.4|9=0065|35=4|34=5|43=Y|49=EXC|56=001|52=20190530-20:00:55.411|123=Y|36=6|10=174|
8=FIX.4.4|9=0290|35=AI|34=6|43=Y|52=20190530-20:00:55.411|49=EXC|56=001|57=001B27|122=20190530-20:00:55.387|131=60713231|453=5|448=DCV|447=C|452=10|448=001B27|447=C|452=12|448=001|447=C|452=1|448=001FCM001|447=C|452=36|448=002B35|447=C|452=37|55=TFIC13280425|762=RFQF|48=20626|22=M|54=1|38=500000000|297=10|10=186|
8=FIX.4.4|9=0054|35=4|34=7|49=EXC|56=001|52=20190530-20:00:55.411|36=8|10=133|
8=FIX.4.4|9=104|35=A|34=7|49=001|50=001B27|52=20190530-20:01:07.311|56=EXC|43=Y|98=0|108=30|553=001FCM001|554=001FCM001|10=025|
8=FIX.4.4|9=0061|35=A|34=8|49=EXC|56=001|52=20190530-20:01:02.032|98=0|108=30|10=195|
8=FIX.4.4|9=104|35=A|34=8|49=001|50=001B27|52=20190530-20:01:16.757|56=EXC|43=Y|98=0|108=30|553=001FCM001|554=001FCM001|10=040|
8=FIX.4.4|9=0061|35=A|34=9|49=EXC|56=001|52=20190530-20:01:11.480|98=0|108=30|10=203|
8=FIX.4.4|9=110|35=A|34=1|49=001|50=001B27|52=20190530-20:03:09.860|56=EXC|43=Y|98=0|108=30|141=Y|553=001FCM001|554=001FCM001|10=074|
8=FIX.4.4|9=0067|35=A|34=1|49=EXC|56=001|52=20190530-20:03:04.680|98=0|108=30|141=Y|10=252|
8=FIX.4.4|9=177|35=R|34=2|49=001|50=001B27|52=20190530-20:03:15.460|56=EXC|131=35118123|146=1|55=TFIC13280425|22=M|762=RFQF|54=1|38=500000000|453=2|448=002B35|447=C|452=37|448=DCV|447=C|452=10|10=034|
8=FIX.4.4|9=0259|35=AI|34=2|49=EXC|56=001|57=001B27|52=20190530-20:03:10.163|131=35118123|453=5|448=DCV|447=C|452=10|448=001B27|447=C|452=12|448=001|447=C|452=1|448=001FCM001|447=C|452=36|448=002B35|447=C|452=37|55=TFIC13280425|762=RFQF|48=20626|22=M|54=1|38=500000000|297=10|10=184|
8=FIX.4.4|9=104|35=A|34=3|49=001|50=001B27|52=20190530-20:03:31.586|56=EXC|43=Y|98=0|108=30|553=001FCM001|554=001FCM001|10=034|
8=FIX.4.4|9=0061|35=A|34=3|49=EXC|56=001|52=20190530-20:03:26.373|98=0|108=30|10=206|
8=FIX.4.4|9=59|35=0|34=3|49=001|50=001B27|52=20190530-20:03:45.813|56=EXC|10=042|
8=FIX.4.4|9=0049|35=0|34=4|49=EXC|56=001|52=20190530-20:03:56.000|10=161|
8=FIX.4.4|9=68|35=2|34=4|49=001|50=001B27|52=20190530-20:04:01.372|56=EXC|7=3|16=0|10=163|
8=FIX.4.4|9=0065|35=4|34=3|43=Y|49=EXC|56=001|52=20190530-20:03:56.075|123=Y|36=5|10=181|
8=FIX.4.4|9=0054|35=4|34=5|49=EXC|56=001|52=20190530-20:03:56.075|36=6|10=139|
8=FIX.4.4|9=104|35=A|34=5|49=001|50=001B27|52=20190530-20:04:10.845|56=EXC|43=Y|98=0|108=30|553=001FCM001|554=001FCM001|10=032|
8=FIX.4.4|9=0061|35=A|34=6|49=EXC|56=001|52=20190530-20:04:05.589|98=0|108=30|10=216|
8=FIX.4.4|9=0307|35=S|34=7|49=EXC|56=001|57=001B27|52=20190530-20:04:15.843|131=35118123|117=20190530-000000000039.00|55=TFIC13280425|762=RFQF|48=20626|22=M|453=5|448=DCV|447=C|452=10|448=001B27|447=C|452=12|448=001|447=C|452=1|448=001FCM001|447=C|452=36|448=002B35|447=C|452=37|634=4.000|135=500000000|62=20190530-22:00:00|10=222|
8=FIX.4.4|9=104|35=A|34=6|49=001|50=001B27|52=20190530-20:04:32.611|56=EXC|43=Y|98=0|108=30|553=001FCM001|554=001FCM001|10=028|
8=FIX.4.4|9=0061|35=A|34=8|49=EXC|56=001|52=20190530-20:04:27.358|98=0|108=30|10=216|
8=FIX.4.4|9=59|35=0|34=6|49=001|50=001B27|52=20190530-20:04:41.814|56=EXC|10=043|
8=FIX.4.4|9=0049|35=0|34=9|49=EXC|56=001|52=20190530-20:04:57.000|10=168|
8=FIX.4.4|9=68|35=2|34=7|49=001|50=001B27|52=20190530-20:05:02.319|56=EXC|7=8|16=0|10=174|
8=FIX.4.4|9=0066|35=4|34=8|43=Y|49=EXC|56=001|52=20190530-20:04:57.018|123=Y|36=10|10=230|
8=FIX.4.4|9=0056|35=4|34=10|49=EXC|56=001|52=20190530-20:04:57.018|36=11|10=228|
8=FIX.4.4|9=68|35=1|34=7|49=001|50=001B27|52=20190530-20:05:06.813|56=EXC|112=TEST|10=064|
8=FIX.4.4|9=0050|35=0|34=11|49=EXC|56=001|52=20190530-20:05:27.000|10=199|
8=FIX.4.4|9=59|35=0|34=8|49=001|50=001B27|52=20190530-20:05:32.384|56=EXC|10=048|
8=FIX.4.4|9=110|35=A|34=1|49=001|50=001B27|52=20190530-20:10:17.935|56=EXC|43=Y|98=0|108=30|141=Y|553=001FCM001|554=001FCM001|10=074|
8=FIX.4.4|9=0067|35=A|34=1|49=EXC|56=001|52=20190530-20:10:12.741|98=0|108=30|141=Y|10=247|
8=FIX.4.4|9=177|35=R|34=2|49=001|50=001B27|52=20190530-20:10:23.788|56=EXC|131=19268584|146=1|55=TFIC13280425|22=M|762=RFQF|54=1|38=500000000|453=2|448=002B35|447=C|452=37|448=DCV|447=C|452=10|10=063|
8=FIX.4.4|9=0259|35=AI|34=2|49=EXC|56=001|57=001B27|52=20190530-20:10:18.486|131=19268584|453=5|448=DCV|447=C|452=10|448=001B27|447=C|452=12|448=001|447=C|452=1|448=001FCM001|447=C|452=36|448=002B35|447=C|452=37|55=TFIC13280425|762=RFQF|48=20626|22=M|54=1|38=500000000|297=10|10=217|
8=FIX.4.4|9=104|35=A|34=3|49=001|50=001B27|52=20190530-20:10:39.912|56=EXC|43=Y|98=0|108=30|553=001FCM001|554=001FCM001|10=033|
8=FIX.4.4|9=0061|35=A|34=3|49=EXC|56=001|52=20190530-20:10:34.660|98=0|108=30|10=202|
8=FIX.4.4|9=0307|35=S|34=4|49=EXC|56=001|57=001B27|52=20190530-20:10:50.986|131=19268584|117=20190530-000000000040.00|55=TFIC13280425|762=RFQF|48=20626|22=M|453=5|448=DCV|447=C|452=10|448=001B27|447=C|452=12|448=001|447=C|452=1|448=001FCM001|447=C|452=36|448=002B35|447=C|452=37|634=4.000|135=500000000|62=20190530-22:00:00|10=234|
8=FIX.4.4|9=104|35=A|34=4|49=001|50=001B27|52=20190530-20:10:57.361|56=EXC|43=Y|98=0|108=30|553=001FCM001|554=001FCM001|10=032|
8=FIX.4.4|9=0061|35=A|34=5|49=EXC|56=001|52=20190530-20:10:52.122|98=0|108=30|10=197|
8=FIX.4.4|9=59|35=0|34=4|49=001|50=001B27|52=20190530-20:11:09.903|56=EXC|10=042|
8=FIX.4.4|9=177|35=R|34=5|49=001|50=001B27|52=20190530-20:11:14.309|56=EXC|131=29584085|146=1|55=TFIC13280425|22=M|762=RFQF|54=1|38=500000000|453=2|448=002B35|447=C|452=37|448=DCV|447=C|452=10|10=054|
8=FIX.4.4|9=0259|35=AI|34=6|49=EXC|56=001|57=001B27|52=20190530-20:11:09.007|131=29584085|453=5|448=DCV|447=C|452=10|448=001B27|447=C|452=12|448=001|447=C|452=1|448=001FCM001|447=C|452=36|448=002B35|447=C|452=37|55=TFIC13280425|762=RFQF|48=20626|22=M|54=1|38=500000000|297=10|10=209|
8=FIX.4.4|9=68|35=2|34=6|49=001|50=001B27|52=20190530-20:11:14.355|56=EXC|7=5|16=0|10=170|
8=FIX.4.4|9=0065|35=4|34=5|43=Y|49=EXC|56=001|52=20190530-20:11:09.055|123=Y|36=6|10=179|
8=FIX.4.4|9=0290|35=AI|34=6|43=Y|52=20190530-20:11:09.055|49=EXC|56=001|57=001B27|122=20190530-20:11:09.007|131=29584085|453=5|448=DCV|447=C|452=10|448=001B27|447=C|452=12|448=001|447=C|452=1|448=001FCM001|447=C|452=36|448=002B35|447=C|452=37|55=TFIC13280425|762=RFQF|48=20626|22=M|54=1|38=500000000|297=10|10=199|
8=FIX.4.4|9=0054|35=4|34=7|49=EXC|56=001|52=20190530-20:11:09.055|36=8|10=138|
8=FIX.4.4|9=104|35=A|34=7|49=001|50=001B27|52=20190530-20:11:18.900|56=EXC|43=Y|98=0|108=30|553=001FCM001|554=001FCM001|10=032|
8=FIX.4.4|9=0061|35=A|34=8|49=EXC|56=001|52=20190530-20:11:13.633|98=0|108=30|10=205|
8=FIX.4.4|9=104|35=A|34=8|49=001|50=001B27|52=20190530-20:11:30.395|56=EXC|43=Y|98=0|108=30|553=001FCM001|554=001FCM001|10=035|
8=FIX.4.4|9=0061|35=A|34=9|49=EXC|56=001|52=20190530-20:11:25.124|98=0|108=30|10=204|
8=FIX.4.4|9=104|35=A|34=9|49=001|50=001B27|52=20190530-20:11:40.929|56=EXC|43=Y|98=0|108=30|553=001FCM001|554=001FCM001|10=040|
