8=FIX.4.4|9=110|35=A|34=1|49=002|50=002B37|52=20190507-19:32:56.933|56=EXC|43=Y|98=0|108=30|141=Y|553=002FCM002|554=002FCM002|10=098|
8=FIX.4.4|9=0067|35=A|34=1|49=EXC|56=002|52=20190507-19:32:56.946|98=0|108=30|141=Y|10=023|
8=FIX.4.4|9=104|35=A|34=2|49=002|50=002B37|52=20190507-19:33:02.979|56=EXC|43=Y|98=0|108=30|553=002FCM002|554=002FCM002|10=059|
8=FIX.4.4|9=0061|35=A|34=2|49=EXC|56=002|52=20190507-19:33:02.980|98=0|108=30|10=219|
8=FIX.4.4|9=0049|35=0|34=3|49=EXC|56=002|52=20190507-19:33:32.000|10=170|
8=FIX.4.4|9=59|35=0|34=3|49=002|50=002B37|52=20190507-19:33:32.972|56=EXC|10=062|
8=FIX.4.4|9=104|35=A|34=4|49=002|50=002B37|52=20190507-19:33:57.906|56=EXC|43=Y|98=0|108=30|553=002FCM002|554=002FCM002|10=061|
8=FIX.4.4|9=0061|35=A|34=4|49=EXC|56=002|52=20190507-19:33:57.906|98=0|108=30|10=229|
8=FIX.4.4|9=104|35=A|34=5|49=002|50=002B37|52=20190507-19:34:03.987|56=EXC|43=Y|98=0|108=30|553=002FCM002|554=002FCM002|10=063|
8=FIX.4.4|9=0061|35=A|34=5|49=EXC|56=002|52=20190507-19:34:03.987|98=0|108=30|10=231|
8=FIX.4.4|9=0049|35=0|34=6|49=EXC|56=002|52=20190507-19:34:33.000|10=175|
8=FIX.4.4|9=59|35=0|34=6|49=002|50=002B37|52=20190507-19:34:34.973|56=EXC|10=069|
8=FIX.4.4|9=110|35=A|34=1|49=002|50=002B37|52=20190507-19:35:15.113|56=EXC|43=Y|98=0|108=30|141=Y|553=002FCM002|554=002FCM002|10=086|
8=FIX.4.4|9=0067|35=A|34=1|49=EXC|56=002|52=20190507-19:35:15.121|98=0|108=30|141=Y|10=006|
8=FIX.4.4|9=104|35=A|34=2|49=002|50=002B37|52=20190507-19:35:21.595|56=EXC|43=Y|98=0|108=30|553=002FCM002|554=002FCM002|10=056|
8=FIX.4.4|9=0061|35=A|34=2|49=EXC|56=002|52=20190507-19:35:21.595|98=0|108=30|10=224|
8=FIX.4.4|9=110|35=A|34=1|49=002|50=002B37|52=20190507-19:37:09.873|56=EXC|43=Y|98=0|108=30|141=Y|553=002FCM002|554=002FCM002|10=104|
8=FIX.4.4|9=0067|35=A|34=1|49=EXC|56=002|52=20190507-19:37:09.880|98=0|108=30|141=Y|10=023|
8=FIX.4.4|9=110|35=A|34=1|49=002|50=002B37|52=20190507-19:44:36.976|56=EXC|43=Y|98=0|108=30|141=Y|553=002FCM002|554=002FCM002|10=106|
8=FIX.4.4|9=0067|35=A|34=1|49=EXC|56=002|52=20190507-19:44:36.987|98=0|108=30|141=Y|10=029|
8=FIX.4.4|9=0049|35=0|34=2|49=EXC|56=002|52=20190507-19:45:06.000|10=173|
8=FIX.4.4|9=59|35=0|34=2|49=002|50=002B37|52=20190507-19:45:07.879|56=EXC|10=072|
8=FIX.4.4|9=0049|35=0|34=3|49=EXC|56=002|52=20190507-19:45:36.000|10=177|
8=FIX.4.4|9=59|35=0|34=3|49=002|50=002B37|52=20190507-19:45:37.877|56=EXC|10=074|
8=FIX.4.4|9=0049|35=0|34=4|49=EXC|56=002|52=20190507-19:46:06.000|10=176|
8=FIX.4.4|9=59|35=0|34=4|49=002|50=002B37|52=20190507-19:46:07.879|56=EXC|10=075|
8=FIX.4.4|9=0049|35=0|34=5|49=EXC|56=002|52=20190507-19:46:36.000|10=180|
8=FIX.4.4|9=59|35=0|34=5|49=002|50=002B37|52=20190507-19:46:37.878|56=EXC|10=078|
8=FIX.4.4|9=0049|35=0|34=6|49=EXC|56=002|52=20190507-19:47:06.000|10=179|
8=FIX.4.4|9=59|35=0|34=6|49=002|50=002B37|52=20190507-19:47:07.877|56=EXC|10=076|
8=FIX.4.4|9=0049|35=0|34=7|49=EXC|56=002|52=20190507-19:47:36.000|10=183|
8=FIX.4.4|9=59|35=0|34=7|49=002|50=002B37|52=20190507-19:47:37.877|56=EXC|10=080|
8=FIX.4.4|9=0049|35=0|34=8|49=EXC|56=002|52=20190507-19:48:06.000|10=182|
8=FIX.4.4|9=59|35=0|34=8|49=002|50=002B37|52=20190507-19:48:07.877|56=EXC|10=079|
8=FIX.4.4|9=0049|35=0|34=9|49=EXC|56=002|52=20190507-19:48:36.000|10=186|
8=FIX.4.4|9=59|35=0|34=9|49=002|50=002B37|52=20190507-19:48:37.879|56=EXC|10=085|
8=FIX.4.4|9=0050|35=0|34=10|49=EXC|56=002|52=20190507-19:49:06.000|10=216|
8=FIX.4.4|9=60|35=0|34=10|49=002|50=002B37|52=20190507-19:49:07.878|56=EXC|10=114|
8=FIX.4.4|9=0050|35=0|34=11|49=EXC|56=002|52=20190507-19:49:36.000|10=220|
8=FIX.4.4|9=60|35=0|34=11|49=002|50=002B37|52=20190507-19:49:37.877|56=EXC|10=117|
8=FIX.4.4|9=0050|35=0|34=12|49=EXC|56=002|52=20190507-19:50:06.000|10=210|
8=FIX.4.4|9=60|35=0|34=12|49=002|50=002B37|52=20190507-19:50:07.877|56=EXC|10=107|
8=FIX.4.4|9=0050|35=0|34=13|49=EXC|56=002|52=20190507-19:50:36.000|10=214|
8=FIX.4.4|9=60|35=0|34=13|49=002|50=002B37|52=20190507-19:50:37.877|56=EXC|10=111|
8=FIX.4.4|9=0050|35=0|34=14|49=EXC|56=002|52=20190507-19:51:06.000|10=213|
8=FIX.4.4|9=60|35=0|34=14|49=002|50=002B37|52=20190507-19:51:07.877|56=EXC|10=110|
8=FIX.4.4|9=0050|35=0|34=15|49=EXC|56=002|52=20190507-19:51:36.000|10=217|
8=FIX.4.4|9=60|35=0|34=15|49=002|50=002B37|52=20190507-19:51:37.877|56=EXC|10=114|
8=FIX.4.4|9=0050|35=0|34=16|49=EXC|56=002|52=20190507-19:52:06.000|10=216|
8=FIX.4.4|9=60|35=0|34=16|49=002|50=002B37|52=20190507-19:52:07.878|56=EXC|10=114|
8=FIX.4.4|9=0050|35=0|34=17|49=EXC|56=002|52=20190507-19:52:36.000|10=220|
8=FIX.4.4|9=60|35=0|34=17|49=002|50=002B37|52=20190507-19:52:37.879|56=EXC|10=119|
8=FIX.4.4|9=0050|35=0|34=18|49=EXC|56=002|52=20190507-19:53:06.000|10=219|
8=FIX.4.4|9=60|35=0|34=18|49=002|50=002B37|52=20190507-19:53:07.878|56=EXC|10=117|
8=FIX.4.4|9=0050|35=0|34=19|49=EXC|56=002|52=20190507-19:53:36.000|10=223|
8=FIX.4.4|9=60|35=0|34=19|49=002|50=002B37|52=20190507-19:53:37.877|56=EXC|10=120|
8=FIX.4.4|9=0050|35=0|34=20|49=EXC|56=002|52=20190507-19:54:06.000|10=213|
8=FIX.4.4|9=60|35=0|34=20|49=002|50=002B37|52=20190507-19:54:07.877|56=EXC|10=110|
8=FIX.4.4|9=0050|35=0|34=21|49=EXC|56=002|52=20190507-19:54:36.000|10=217|
8=FIX.4.4|9=60|35=0|34=21|49=002|50=002B37|52=20190507-19:54:37.877|56=EXC|10=114|
8=FIX.4.4|9=0050|35=0|34=22|49=EXC|56=002|52=20190507-19:55:06.000|10=216|
8=FIX.4.4|9=60|35=0|34=22|49=002|50=002B37|52=20190507-19:55:07.877|56=EXC|10=113|
8=FIX.4.4|9=0050|35=0|34=23|49=EXC|56=002|52=20190507-19:55:36.000|10=220|
8=FIX.4.4|9=60|35=0|34=23|49=002|50=002B37|52=20190507-19:55:37.877|56=EXC|10=117|
8=FIX.4.4|9=0050|35=0|34=24|49=EXC|56=002|52=20190507-19:56:06.000|10=219|
8=FIX.4.4|9=60|35=0|34=24|49=002|50=002B37|52=20190507-19:56:07.877|56=EXC|10=116|
8=FIX.4.4|9=0050|35=0|34=25|49=EXC|56=002|52=20190507-19:56:36.000|10=223|
8=FIX.4.4|9=60|35=0|34=25|49=002|50=002B37|52=20190507-19:56:37.877|56=EXC|10=120|
8=FIX.4.4|9=0050|35=0|34=26|49=EXC|56=002|52=20190507-19:57:06.000|10=222|
8=FIX.4.4|9=60|35=0|34=26|49=002|50=002B37|52=20190507-19:57:07.878|56=EXC|10=120|
8=FIX.4.4|9=0050|35=0|34=27|49=EXC|56=002|52=20190507-19:57:36.000|10=226|
8=FIX.4.4|9=60|35=0|34=27|49=002|50=002B37|52=20190507-19:57:37.877|56=EXC|10=123|
8=FIX.4.4|9=0050|35=0|34=28|49=EXC|56=002|52=20190507-19:58:06.000|10=225|
8=FIX.4.4|9=60|35=0|34=28|49=002|50=002B37|52=20190507-19:58:07.877|56=EXC|10=122|
8=FIX.4.4|9=0050|35=0|34=29|49=EXC|56=002|52=20190507-19:58:36.000|10=229|
8=FIX.4.4|9=60|35=0|34=29|49=002|50=002B37|52=20190507-19:58:37.877|56=EXC|10=126|
8=FIX.4.4|9=0050|35=0|34=30|49=EXC|56=002|52=20190507-19:59:06.000|10=219|
8=FIX.4.4|9=60|35=0|34=30|49=002|50=002B37|52=20190507-19:59:07.877|56=EXC|10=116|
8=FIX.4.4|9=0050|35=0|34=31|49=EXC|56=002|52=20190507-19:59:36.000|10=223|
8=FIX.4.4|9=60|35=0|34=31|49=002|50=002B37|52=20190507-19:59:37.877|56=EXC|10=120|
8=FIX.4.4|9=0050|35=0|34=32|49=EXC|56=002|52=20190507-20:00:06.000|10=199|
8=FIX.4.4|9=60|35=0|34=32|49=002|50=002B37|52=20190507-20:00:07.877|56=EXC|10=096|
8=FIX.4.4|9=0050|35=0|34=33|49=EXC|56=002|52=20190507-20:00:36.000|10=203|
8=FIX.4.4|9=60|35=0|34=33|49=002|50=002B37|52=20190507-20:00:37.877|56=EXC|10=100|
8=FIX.4.4|9=0050|35=0|34=34|49=EXC|56=002|52=20190507-20:01:06.000|10=202|
8=FIX.4.4|9=60|35=0|34=34|49=002|50=002B37|52=20190507-20:01:07.877|56=EXC|10=099|
8=FIX.4.4|9=0050|35=0|34=35|49=EXC|56=002|52=20190507-20:01:36.000|10=206|
8=FIX.4.4|9=60|35=0|34=35|49=002|50=002B37|52=20190507-20:01:37.877|56=EXC|10=103|
8=FIX.4.4|9=0050|35=0|34=36|49=EXC|56=002|52=20190507-20:02:06.000|10=205|
8=FIX.4.4|9=60|35=0|34=36|49=002|50=002B37|52=20190507-20:02:07.877|56=EXC|10=102|
8=FIX.4.4|9=0050|35=0|34=37|49=EXC|56=002|52=20190507-20:02:36.000|10=209|
8=FIX.4.4|9=60|35=0|34=37|49=002|50=002B37|52=20190507-20:02:37.877|56=EXC|10=106|
8=FIX.4.4|9=0050|35=0|34=38|49=EXC|56=002|52=20190507-20:03:06.000|10=208|
8=FIX.4.4|9=60|35=0|34=38|49=002|50=002B37|52=20190507-20:03:07.877|56=EXC|10=105|
8=FIX.4.4|9=0050|35=0|34=39|49=EXC|56=002|52=20190507-20:03:36.000|10=212|
8=FIX.4.4|9=60|35=0|34=39|49=002|50=002B37|52=20190507-20:03:37.877|56=EXC|10=109|
8=FIX.4.4|9=0050|35=0|34=40|49=EXC|56=002|52=20190507-20:04:06.000|10=202|
8=FIX.4.4|9=60|35=0|34=40|49=002|50=002B37|52=20190507-20:04:07.879|56=EXC|10=101|
8=FIX.4.4|9=0050|35=0|34=41|49=EXC|56=002|52=20190507-20:04:36.000|10=206|
8=FIX.4.4|9=60|35=0|34=41|49=002|50=002B37|52=20190507-20:04:37.878|56=EXC|10=104|
8=FIX.4.4|9=0050|35=0|34=42|49=EXC|56=002|52=20190507-20:05:06.000|10=205|
8=FIX.4.4|9=60|35=0|34=42|49=002|50=002B37|52=20190507-20:05:07.878|56=EXC|10=103|
8=FIX.4.4|9=0050|35=0|34=43|49=EXC|56=002|52=20190507-20:05:36.000|10=209|
8=FIX.4.4|9=60|35=0|34=43|49=002|50=002B37|52=20190507-20:05:37.877|56=EXC|10=106|
8=FIX.4.4|9=0050|35=0|34=44|49=EXC|56=002|52=20190507-20:06:06.000|10=208|
8=FIX.4.4|9=60|35=0|34=44|49=002|50=002B37|52=20190507-20:06:07.877|56=EXC|10=105|
8=FIX.4.4|9=0050|35=0|34=45|49=EXC|56=002|52=20190507-20:06:36.000|10=212|
8=FIX.4.4|9=60|35=0|34=45|49=002|50=002B37|52=20190507-20:06:37.879|56=EXC|10=111|
8=FIX.4.4|9=0050|35=0|34=46|49=EXC|56=002|52=20190507-20:07:06.000|10=211|
8=FIX.4.4|9=60|35=0|34=46|49=002|50=002B37|52=20190507-20:07:07.877|56=EXC|10=108|
8=FIX.4.4|9=0050|35=0|34=47|49=EXC|56=002|52=20190507-20:07:36.000|10=215|
8=FIX.4.4|9=60|35=0|34=47|49=002|50=002B37|52=20190507-20:07:37.877|56=EXC|10=112|
8=FIX.4.4|9=0050|35=0|34=48|49=EXC|56=002|52=20190507-20:08:06.000|10=214|
8=FIX.4.4|9=60|35=0|34=48|49=002|50=002B37|52=20190507-20:08:07.877|56=EXC|10=111|
8=FIX.4.4|9=0050|35=0|34=49|49=EXC|56=002|52=20190507-20:08:36.000|10=218|
8=FIX.4.4|9=60|35=0|34=49|49=002|50=002B37|52=20190507-20:08:37.877|56=EXC|10=115|
8=FIX.4.4|9=0050|35=0|34=50|49=EXC|56=002|52=20190507-20:09:06.000|10=208|
8=FIX.4.4|9=60|35=0|34=50|49=002|50=002B37|52=20190507-20:09:07.877|56=EXC|10=105|
8=FIX.4.4|9=0050|35=0|34=51|49=EXC|56=002|52=20190507-20:09:36.000|10=212|
8=FIX.4.4|9=60|35=0|34=51|49=002|50=002B37|52=20190507-20:09:37.879|56=EXC|10=111|
8=FIX.4.4|9=0050|35=0|34=52|49=EXC|56=002|52=20190507-20:10:06.000|10=202|
8=FIX.4.4|9=60|35=0|34=52|49=002|50=002B37|52=20190507-20:10:07.877|56=EXC|10=099|
8=FIX.4.4|9=0050|35=0|34=53|49=EXC|56=002|52=20190507-20:10:36.000|10=206|
8=FIX.4.4|9=60|35=0|34=53|49=002|50=002B37|52=20190507-20:10:37.877|56=EXC|10=103|
8=FIX.4.4|9=0050|35=0|34=54|49=EXC|56=002|52=20190507-20:11:06.000|10=205|
8=FIX.4.4|9=60|35=0|34=54|49=002|50=002B37|52=20190507-20:11:07.877|56=EXC|10=102|
8=FIX.4.4|9=0050|35=0|34=55|49=EXC|56=002|52=20190507-20:11:36.000|10=209|
8=FIX.4.4|9=60|35=0|34=55|49=002|50=002B37|52=20190507-20:11:37.877|56=EXC|10=106|
8=FIX.4.4|9=0050|35=0|34=56|49=EXC|56=002|52=20190507-20:12:06.000|10=208|
8=FIX.4.4|9=60|35=0|34=56|49=002|50=002B37|52=20190507-20:12:07.878|56=EXC|10=106|
8=FIX.4.4|9=0050|35=0|34=57|49=EXC|56=002|52=20190507-20:12:36.000|10=212|
8=FIX.4.4|9=60|35=0|34=57|49=002|50=002B37|52=20190507-20:12:37.877|56=EXC|10=109|
8=FIX.4.4|9=0050|35=0|34=58|49=EXC|56=002|52=20190507-20:13:06.000|10=211|
8=FIX.4.4|9=60|35=0|34=58|49=002|50=002B37|52=20190507-20:13:07.877|56=EXC|10=108|
8=FIX.4.4|9=0050|35=0|34=59|49=EXC|56=002|52=20190507-20:13:36.000|10=215|
8=FIX.4.4|9=60|35=0|34=59|49=002|50=002B37|52=20190507-20:13:37.877|56=EXC|10=112|
8=FIX.4.4|9=0050|35=0|34=60|49=EXC|56=002|52=20190507-20:14:06.000|10=205|
8=FIX.4.4|9=60|35=0|34=60|49=002|50=002B37|52=20190507-20:14:07.877|56=EXC|10=102|
8=FIX.4.4|9=0050|35=0|34=61|49=EXC|56=002|52=20190507-20:14:36.000|10=209|
8=FIX.4.4|9=60|35=0|34=61|49=002|50=002B37|52=20190507-20:14:37.877|56=EXC|10=106|
8=FIX.4.4|9=0050|35=0|34=62|49=EXC|56=002|52=20190507-20:15:06.000|10=208|
8=FIX.4.4|9=60|35=0|34=62|49=002|50=002B37|52=20190507-20:15:07.877|56=EXC|10=105|
8=FIX.4.4|9=0050|35=0|34=63|49=EXC|56=002|52=20190507-20:15:36.000|10=212|
8=FIX.4.4|9=60|35=0|34=63|49=002|50=002B37|52=20190507-20:15:37.880|56=EXC|10=103|
8=FIX.4.4|9=0050|35=0|34=64|49=EXC|56=002|52=20190507-20:16:06.000|10=211|
8=FIX.4.4|9=60|35=0|34=64|49=002|50=002B37|52=20190507-20:16:07.884|56=EXC|10=106|
8=FIX.4.4|9=0050|35=0|34=65|49=EXC|56=002|52=20190507-20:16:36.000|10=215|
8=FIX.4.4|9=60|35=0|34=65|49=002|50=002B37|52=20190507-20:16:37.888|56=EXC|10=114|
8=FIX.4.4|9=0050|35=0|34=66|49=EXC|56=002|52=20190507-20:17:06.000|10=214|
8=FIX.4.4|9=60|35=0|34=66|49=002|50=002B37|52=20190507-20:17:07.893|56=EXC|10=109|
8=FIX.4.4|9=0050|35=0|34=67|49=EXC|56=002|52=20190507-20:17:36.000|10=218|
8=FIX.4.4|9=60|35=0|34=67|49=002|50=002B37|52=20190507-20:17:37.897|56=EXC|10=117|
8=FIX.4.4|9=0050|35=0|34=68|49=EXC|56=002|52=20190507-20:18:06.000|10=217|
8=FIX.4.4|9=60|35=0|34=68|49=002|50=002B37|52=20190507-20:18:07.902|56=EXC|10=103|
8=FIX.4.4|9=0050|35=0|34=69|49=EXC|56=002|52=20190507-20:18:36.000|10=221|
8=FIX.4.4|9=60|35=0|34=69|49=002|50=002B37|52=20190507-20:18:37.906|56=EXC|10=111|
8=FIX.4.4|9=0050|35=0|34=70|49=EXC|56=002|52=20190507-20:19:06.000|10=211|
8=FIX.4.4|9=60|35=0|34=70|49=002|50=002B37|52=20190507-20:19:07.911|56=EXC|10=097|
8=FIX.4.4|9=0050|35=0|34=71|49=EXC|56=002|52=20190507-20:19:36.000|10=215|
8=FIX.4.4|9=60|35=0|34=71|49=002|50=002B37|52=20190507-20:19:37.916|56=EXC|10=106|
8=FIX.4.4|9=0050|35=0|34=72|49=EXC|56=002|52=20190507-20:20:06.000|10=205|
8=FIX.4.4|9=60|35=0|34=72|49=002|50=002B37|52=20190507-20:20:07.920|56=EXC|10=091|
8=FIX.4.4|9=0050|35=0|34=73|49=EXC|56=002|52=20190507-20:20:36.000|10=209|
8=FIX.4.4|9=60|35=0|34=73|49=002|50=002B37|52=20190507-20:20:37.924|56=EXC|10=099|
8=FIX.4.4|9=0050|35=0|34=74|49=EXC|56=002|52=20190507-20:21:06.000|10=208|
8=FIX.4.4|9=60|35=0|34=74|49=002|50=002B37|52=20190507-20:21:07.926|56=EXC|10=100|
8=FIX.4.4|9=0050|35=0|34=75|49=EXC|56=002|52=20190507-20:21:36.000|10=212|
8=FIX.4.4|9=60|35=0|34=75|49=002|50=002B37|52=20190507-20:21:37.929|56=EXC|10=107|
8=FIX.4.4|9=0050|35=0|34=76|49=EXC|56=002|52=20190507-20:22:06.000|10=211|
8=FIX.4.4|9=60|35=0|34=76|49=002|50=002B37|52=20190507-20:22:07.930|56=EXC|10=098|
8=FIX.4.4|9=0050|35=0|34=77|49=EXC|56=002|52=20190507-20:22:36.000|10=215|
8=FIX.4.4|9=60|35=0|34=77|49=002|50=002B37|52=20190507-20:22:37.932|56=EXC|10=104|
8=FIX.4.4|9=0050|35=0|34=78|49=EXC|56=002|52=20190507-20:23:06.000|10=214|
8=FIX.4.4|9=60|35=0|34=78|49=002|50=002B37|52=20190507-20:23:07.934|56=EXC|10=105|
8=FIX.4.4|9=0050|35=0|34=79|49=EXC|56=002|52=20190507-20:23:36.000|10=218|
8=FIX.4.4|9=60|35=0|34=79|49=002|50=002B37|52=20190507-20:23:37.936|56=EXC|10=111|
8=FIX.4.4|9=0050|35=0|34=80|49=EXC|56=002|52=20190507-20:24:06.000|10=208|
8=FIX.4.4|9=60|35=0|34=80|49=002|50=002B37|52=20190507-20:24:07.937|56=EXC|10=102|
8=FIX.4.4|9=0050|35=0|34=81|49=EXC|56=002|52=20190507-20:24:36.000|10=212|
8=FIX.4.4|9=60|35=0|34=81|49=002|50=002B37|52=20190507-20:24:37.939|56=EXC|10=108|
8=FIX.4.4|9=0050|35=0|34=82|49=EXC|56=002|52=20190507-20:25:06.000|10=211|
8=FIX.4.4|9=60|35=0|34=82|49=002|50=002B37|52=20190507-20:25:07.942|56=EXC|10=101|
8=FIX.4.4|9=0050|35=0|34=83|49=EXC|56=002|52=20190507-20:25:36.000|10=215|
8=FIX.4.4|9=60|35=0|34=83|49=002|50=002B37|52=20190507-20:25:37.943|56=EXC|10=106|
8=FIX.4.4|9=0050|35=0|34=84|49=EXC|56=002|52=20190507-20:26:06.000|10=214|
8=FIX.4.4|9=60|35=0|34=84|49=002|50=002B37|52=20190507-20:26:07.944|56=EXC|10=106|
8=FIX.4.4|9=0050|35=0|34=85|49=EXC|56=002|52=20190507-20:26:36.000|10=218|
8=FIX.4.4|9=60|35=0|34=85|49=002|50=002B37|52=20190507-20:26:37.946|56=EXC|10=112|
8=FIX.4.4|9=0050|35=0|34=86|49=EXC|56=002|52=20190507-20:27:06.000|10=217|
8=FIX.4.4|9=60|35=0|34=86|49=002|50=002B37|52=20190507-20:27:07.945|56=EXC|10=110|
8=FIX.4.4|9=0050|35=0|34=87|49=EXC|56=002|52=20190507-20:27:36.000|10=221|
8=FIX.4.4|9=60|35=0|34=87|49=002|50=002B37|52=20190507-20:27:37.952|56=EXC|10=112|
8=FIX.4.4|9=0050|35=0|34=88|49=EXC|56=002|52=20190507-20:28:06.000|10=220|
8=FIX.4.4|9=60|35=0|34=88|49=002|50=002B37|52=20190507-20:28:07.948|56=EXC|10=116|
8=FIX.4.4|9=0050|35=0|34=89|49=EXC|56=002|52=20190507-20:28:36.000|10=224|
8=FIX.4.4|9=60|35=0|34=89|49=002|50=002B37|52=20190507-20:28:37.948|56=EXC|10=120|
8=FIX.4.4|9=0050|35=0|34=90|49=EXC|56=002|52=20190507-20:29:06.000|10=214|
8=FIX.4.4|9=60|35=0|34=90|49=002|50=002B37|52=20190507-20:29:07.948|56=EXC|10=110|
8=FIX.4.4|9=0050|35=0|34=91|49=EXC|56=002|52=20190507-20:29:36.000|10=218|
8=FIX.4.4|9=60|35=0|34=91|49=002|50=002B37|52=20190507-20:29:37.949|56=EXC|10=115|
8=FIX.4.4|9=0050|35=0|34=92|49=EXC|56=002|52=20190507-20:30:06.000|10=208|
8=FIX.4.4|9=60|35=0|34=92|49=002|50=002B37|52=20190507-20:30:07.951|56=EXC|10=098|
8=FIX.4.4|9=0050|35=0|34=93|49=EXC|56=002|52=20190507-20:30:36.000|10=212|
8=FIX.4.4|9=60|35=0|34=93|49=002|50=002B37|52=20190507-20:30:37.952|56=EXC|10=103|
8=FIX.4.4|9=0050|35=0|34=94|49=EXC|56=002|52=20190507-20:31:06.000|10=211|
8=FIX.4.4|9=60|35=0|34=94|49=002|50=002B37|52=20190507-20:31:07.951|56=EXC|10=101|
8=FIX.4.4|9=0050|35=0|34=95|49=EXC|56=002|52=20190507-20:31:36.000|10=215|
8=FIX.4.4|9=60|35=0|34=95|49=002|50=002B37|52=20190507-20:31:37.953|56=EXC|10=107|
8=FIX.4.4|9=0050|35=0|34=96|49=EXC|56=002|52=20190507-20:32:06.000|10=214|
8=FIX.4.4|9=60|35=0|34=96|49=002|50=002B37|52=20190507-20:32:07.953|56=EXC|10=106|
8=FIX.4.4|9=0050|35=0|34=97|49=EXC|56=002|52=20190507-20:32:36.000|10=218|
8=FIX.4.4|9=60|35=0|34=97|49=002|50=002B37|52=20190507-20:32:37.949|56=EXC|10=115|
8=FIX.4.4|9=0050|35=0|34=98|49=EXC|56=002|52=20190507-20:33:06.000|10=217|
8=FIX.4.4|9=60|35=0|34=98|49=002|50=002B37|52=20190507-20:33:07.943|56=EXC|10=108|
8=FIX.4.4|9=0050|35=0|34=99|49=EXC|56=002|52=20190507-20:33:36.000|10=221|
8=FIX.4.4|9=60|35=0|34=99|49=002|50=002B37|52=20190507-20:33:37.940|56=EXC|10=109|
8=FIX.4.4|9=0051|35=0|34=100|49=EXC|56=002|52=20190507-20:34:06.000|10=251|
8=FIX.4.4|9=61|35=0|34=100|49=002|50=002B37|52=20190507-20:34:07.933|56=EXC|10=141|
8=FIX.4.4|9=0051|35=0|34=101|49=EXC|56=002|52=20190507-20:34:36.000|10=255|
8=FIX.4.4|9=61|35=0|34=101|49=002|50=002B37|52=20190507-20:34:37.927|56=EXC|10=148|
8=FIX.4.4|9=0051|35=0|34=102|49=EXC|56=002|52=20190507-20:35:06.000|10=254|
8=FIX.4.4|9=61|35=0|34=102|49=002|50=002B37|52=20190507-20:35:07.922|56=EXC|10=142|
8=FIX.4.4|9=0051|35=0|34=103|49=EXC|56=002|52=20190507-20:35:36.000|10=002|
8=FIX.4.4|9=61|35=0|34=103|49=002|50=002B37|52=20190507-20:35:37.917|56=EXC|10=150|
8=FIX.4.4|9=0051|35=0|34=104|49=EXC|56=002|52=20190507-20:36:06.000|10=001|
8=FIX.4.4|9=61|35=0|34=104|49=002|50=002B37|52=20190507-20:36:07.912|56=EXC|10=144|
8=FIX.4.4|9=0051|35=0|34=105|49=EXC|56=002|52=20190507-20:36:36.000|10=005|
8=FIX.4.4|9=61|35=0|34=105|49=002|50=002B37|52=20190507-20:36:37.907|56=EXC|10=152|
8=FIX.4.4|9=0051|35=0|34=106|49=EXC|56=002|52=20190507-20:37:06.000|10=004|
8=FIX.4.4|9=61|35=0|34=106|49=002|50=002B37|52=20190507-20:37:07.903|56=EXC|10=147|
8=FIX.4.4|9=0051|35=0|34=107|49=EXC|56=002|52=20190507-20:37:36.000|10=008|
8=FIX.4.4|9=61|35=0|34=107|49=002|50=002B37|52=20190507-20:37:37.899|56=EXC|10=165|
8=FIX.4.4|9=0051|35=0|34=108|49=EXC|56=002|52=20190507-20:38:06.000|10=007|
8=FIX.4.4|9=61|35=0|34=108|49=002|50=002B37|52=20190507-20:38:07.896|56=EXC|10=161|
8=FIX.4.4|9=0051|35=0|34=109|49=EXC|56=002|52=20190507-20:38:36.000|10=011|
8=FIX.4.4|9=61|35=0|34=109|49=002|50=002B37|52=20190507-20:38:37.894|56=EXC|10=163|
8=FIX.4.4|9=0051|35=0|34=110|49=EXC|56=002|52=20190507-20:39:06.000|10=001|
8=FIX.4.4|9=61|35=0|34=110|49=002|50=002B37|52=20190507-20:39:07.892|56=EXC|10=151|
8=FIX.4.4|9=0051|35=0|34=111|49=EXC|56=002|52=20190507-20:39:36.000|10=005|
8=FIX.4.4|9=61|35=0|34=111|49=002|50=002B37|52=20190507-20:39:37.889|56=EXC|10=161|
8=FIX.4.4|9=0051|35=0|34=112|49=EXC|56=002|52=20190507-20:40:06.000|10=251|
8=FIX.4.4|9=61|35=0|34=112|49=002|50=002B37|52=20190507-20:40:07.888|56=EXC|10=150|
8=FIX.4.4|9=0051|35=0|34=113|49=EXC|56=002|52=20190507-20:40:36.000|10=255|
8=FIX.4.4|9=61|35=0|34=113|49=002|50=002B37|52=20190507-20:40:37.885|56=EXC|10=151|
8=FIX.4.4|9=0051|35=0|34=114|49=EXC|56=002|52=20190507-20:41:06.000|10=254|
8=FIX.4.4|9=61|35=0|34=114|49=002|50=002B37|52=20190507-20:41:07.883|56=EXC|10=148|
8=FIX.4.4|9=0051|35=0|34=115|49=EXC|56=002|52=20190507-20:41:36.000|10=002|
8=FIX.4.4|9=61|35=0|34=115|49=002|50=002B37|52=20190507-20:41:37.881|56=EXC|10=150|
8=FIX.4.4|9=0051|35=0|34=116|49=EXC|56=002|52=20190507-20:42:06.000|10=001|
8=FIX.4.4|9=61|35=0|34=116|49=002|50=002B37|52=20190507-20:42:07.879|56=EXC|10=156|
8=FIX.4.4|9=0051|35=0|34=117|49=EXC|56=002|52=20190507-20:42:36.000|10=005|
8=FIX.4.4|9=61|35=0|34=117|49=002|50=002B37|52=20190507-20:42:37.878|56=EXC|10=159|
8=FIX.4.4|9=0051|35=0|34=118|49=EXC|56=002|52=20190507-20:43:06.000|10=004|
8=FIX.4.4|9=61|35=0|34=118|49=002|50=002B37|52=20190507-20:43:07.876|56=EXC|10=156|
8=FIX.4.4|9=106|35=A|34=119|49=002|50=002B37|52=20190507-20:43:22.335|56=EXC|43=Y|98=0|108=30|553=002FCM002|554=002FCM002|10=147|
8=FIX.4.4|9=0063|35=A|34=119|49=EXC|56=002|52=20190507-20:43:22.319|98=0|108=30|10=061|
8=FIX.4.4|9=106|35=A|34=120|49=002|50=002B37|52=20190507-20:43:23.887|56=EXC|43=Y|98=0|108=30|553=002FCM002|554=002FCM002|10=152|
8=FIX.4.4|9=0063|35=A|34=120|49=EXC|56=002|52=20190507-20:43:23.870|98=0|108=30|10=056|
8=FIX.4.4|9=110|35=A|34=1|49=002|50=002B37|52=20190507-20:43:36.347|56=EXC|43=Y|98=0|108=30|141=Y|553=002FCM002|554=002FCM002|10=089|
8=FIX.4.4|9=0067|35=A|34=1|49=EXC|56=002|52=20190507-20:43:36.338|98=0|108=30|141=Y|10=010|
8=FIX.4.4|9=0049|35=0|34=2|49=EXC|56=002|52=20190507-20:44:06.000|10=164|
8=FIX.4.4|9=59|35=0|34=2|49=002|50=002B37|52=20190507-20:44:07.290|56=EXC|10=050|
8=FIX.4.4|9=0049|35=0|34=3|49=EXC|56=002|52=20190507-20:44:36.000|10=168|
8=FIX.4.4|9=59|35=0|34=3|49=002|50=002B37|52=20190507-20:44:37.288|56=EXC|10=061|
8=FIX.4.4|9=0049|35=0|34=4|49=EXC|56=002|52=20190507-20:45:06.000|10=167|
8=FIX.4.4|9=59|35=0|34=4|49=002|50=002B37|52=20190507-20:45:07.287|56=EXC|10=059|
8=FIX.4.4|9=0049|35=0|34=5|49=EXC|56=002|52=20190507-20:45:36.000|10=171|
8=FIX.4.4|9=59|35=0|34=5|49=002|50=002B37|52=20190507-20:45:37.286|56=EXC|10=062|
8=FIX.4.4|9=110|35=A|34=1|49=002|50=002B37|52=20190507-20:46:12.596|56=EXC|43=Y|98=0|108=30|141=Y|553=002FCM002|554=002FCM002|10=092|
8=FIX.4.4|9=0067|35=A|34=1|49=EXC|56=002|52=20190507-20:46:12.589|98=0|108=30|141=Y|10=015|
8=FIX.4.4|9=0049|35=0|34=2|49=EXC|56=002|52=20190507-20:46:42.000|10=166|
8=FIX.4.4|9=59|35=0|34=2|49=002|50=002B37|52=20190507-20:46:43.507|56=EXC|10=053|
8=FIX.4.4|9=0049|35=0|34=3|49=EXC|56=002|52=20190507-20:47:12.000|10=165|
8=FIX.4.4|9=59|35=0|34=3|49=002|50=002B37|52=20190507-20:47:13.505|56=EXC|10=050|
8=FIX.4.4|9=0049|35=0|34=4|49=EXC|56=002|52=20190507-20:47:42.000|10=169|
8=FIX.4.4|9=59|35=0|34=4|49=002|50=002B37|52=20190507-20:47:43.506|56=EXC|10=055|
8=FIX.4.4|9=0049|35=0|34=5|49=EXC|56=002|52=20190507-20:48:12.000|10=168|
8=FIX.4.4|9=59|35=0|34=5|49=002|50=002B37|52=20190507-20:48:13.505|56=EXC|10=053|
8=FIX.4.4|9=0049|35=0|34=6|49=EXC|56=002|52=20190507-20:48:42.000|10=172|
8=FIX.4.4|9=59|35=0|34=6|49=002|50=002B37|52=20190507-20:48:43.505|56=EXC|10=057|
8=FIX.4.4|9=0049|35=0|34=7|49=EXC|56=002|52=20190507-20:49:12.000|10=171|
8=FIX.4.4|9=59|35=0|34=7|49=002|50=002B37|52=20190507-20:49:13.504|56=EXC|10=055|
8=FIX.4.4|9=0049|35=0|34=8|49=EXC|56=002|52=20190507-20:49:42.000|10=175|
8=FIX.4.4|9=59|35=0|34=8|49=002|50=002B37|52=20190507-20:49:43.503|56=EXC|10=058|
8=FIX.4.4|9=0049|35=0|34=9|49=EXC|56=002|52=20190507-20:50:12.000|10=165|
8=FIX.4.4|9=59|35=0|34=9|49=002|50=002B37|52=20190507-20:50:13.503|56=EXC|10=048|
8=FIX.4.4|9=0050|35=0|34=10|49=EXC|56=002|52=20190507-20:50:42.000|10=200|
8=FIX.4.4|9=60|35=0|34=10|49=002|50=002B37|52=20190507-20:50:43.502|56=EXC|10=082|
8=FIX.4.4|9=0050|35=0|34=11|49=EXC|56=002|52=20190507-20:51:12.000|10=199|
8=FIX.4.4|9=60|35=0|34=11|49=002|50=002B37|52=20190507-20:51:13.502|56=EXC|10=081|
8=FIX.4.4|9=0050|35=0|34=12|49=EXC|56=002|52=20190507-20:51:42.000|10=203|
8=FIX.4.4|9=60|35=0|34=12|49=002|50=002B37|52=20190507-20:51:43.502|56=EXC|10=085|
8=FIX.4.4|9=0050|35=0|34=13|49=EXC|56=002|52=20190507-20:52:12.000|10=202|
8=FIX.4.4|9=60|35=0|34=13|49=002|50=002B37|52=20190507-20:52:13.503|56=EXC|10=085|
8=FIX.4.4|9=0050|35=0|34=14|49=EXC|56=002|52=20190507-20:52:42.000|10=206|
8=FIX.4.4|9=60|35=0|34=14|49=002|50=002B37|52=20190507-20:52:43.501|56=EXC|10=087|
8=FIX.4.4|9=0050|35=0|34=15|49=EXC|56=002|52=20190507-20:53:12.000|10=205|
8=FIX.4.4|9=60|35=0|34=15|49=002|50=002B37|52=20190507-20:53:13.501|56=EXC|10=086|
8=FIX.4.4|9=110|35=A|34=1|49=002|50=002B37|52=20190507-20:53:30.121|56=EXC|43=Y|98=0|108=30|141=Y|553=002FCM002|554=002FCM002|10=074|
8=FIX.4.4|9=0067|35=A|34=1|49=EXC|56=002|52=20190507-20:53:30.123|98=0|108=30|141=Y|10=253|
8=FIX.4.4|9=0049|35=0|34=2|49=EXC|56=002|52=20190507-20:54:00.000|10=159|
8=FIX.4.4|9=59|35=0|34=2|49=002|50=002B37|52=20190507-20:54:01.032|56=EXC|10=039|
8=FIX.4.4|9=0049|35=0|34=3|49=EXC|56=002|52=20190507-20:54:30.000|10=163|
8=FIX.4.4|9=59|35=0|34=3|49=002|50=002B37|52=20190507-20:54:31.032|56=EXC|10=043|
8=FIX.4.4|9=110|35=A|34=1|49=002|50=002B37|52=20190507-20:55:13.522|56=EXC|43=Y|98=0|108=30|141=Y|553=002FCM002|554=002FCM002|10=082|
8=FIX.4.4|9=0067|35=A|34=1|49=EXC|56=002|52=20190507-20:55:13.522|98=0|108=30|141=Y|10=003|
8=FIX.4.4|9=110|35=A|34=1|49=002|50=002B37|52=20190507-20:56:51.421|56=EXC|43=Y|98=0|108=30|141=Y|553=002FCM002|554=002FCM002|10=083|
8=FIX.4.4|9=0067|35=A|34=1|49=EXC|56=002|52=20190507-20:56:51.423|98=0|108=30|141=Y|10=006|
8=FIX.4.4|9=0049|35=0|34=2|49=EXC|56=002|52=20190507-20:57:21.000|10=165|
8=FIX.4.4|9=59|35=0|34=2|49=002|50=002B37|52=20190507-20:57:22.355|56=EXC|10=053|
8=FIX.4.4|9=0049|35=0|34=3|49=EXC|56=002|52=20190507-20:57:51.000|10=169|
8=FIX.4.4|9=59|35=0|34=3|49=002|50=002B37|52=20190507-20:57:52.353|56=EXC|10=055|
8=FIX.4.4|9=0049|35=0|34=4|49=EXC|56=002|52=20190507-20:58:21.000|10=168|
8=FIX.4.4|9=59|35=0|34=4|49=002|50=002B37|52=20190507-20:58:22.355|56=EXC|10=056|
8=FIX.4.4|9=0049|35=0|34=5|49=EXC|56=002|52=20190507-20:58:51.000|10=172|
8=FIX.4.4|9=59|35=0|34=5|49=002|50=002B37|52=20190507-20:58:52.353|56=EXC|10=058|
8=FIX.4.4|9=0049|35=0|34=6|49=EXC|56=002|52=20190507-20:59:21.000|10=171|
8=FIX.4.4|9=59|35=0|34=6|49=002|50=002B37|52=20190507-20:59:22.354|56=EXC|10=058|
8=FIX.4.4|9=0049|35=0|34=7|49=EXC|56=002|52=20190507-20:59:51.000|10=175|
8=FIX.4.4|9=59|35=0|34=7|49=002|50=002B37|52=20190507-20:59:52.353|56=EXC|10=061|
8=FIX.4.4|9=0049|35=0|34=8|49=EXC|56=002|52=20190507-21:00:21.000|10=160|
8=FIX.4.4|9=59|35=0|34=8|49=002|50=002B37|52=20190507-21:00:22.354|56=EXC|10=047|
8=FIX.4.4|9=0049|35=0|34=9|49=EXC|56=002|52=20190507-21:00:51.000|10=164|
8=FIX.4.4|9=59|35=0|34=9|49=002|50=002B37|52=20190507-21:00:52.353|56=EXC|10=050|
8=FIX.4.4|9=0050|35=0|34=10|49=EXC|56=002|52=20190507-21:01:21.000|10=194|
8=FIX.4.4|9=60|35=0|34=10|49=002|50=002B37|52=20190507-21:01:22.353|56=EXC|10=080|
8=FIX.4.4|9=110|35=A|34=1|49=002|50=002B37|52=20190507-21:01:34.870|56=EXC|43=Y|98=0|108=30|141=Y|553=002FCM002|554=002FCM002|10=083|
8=FIX.4.4|9=0067|35=A|34=1|49=EXC|56=002|52=20190507-21:01:34.871|98=0|108=30|141=Y|10=005|
8=FIX.4.4|9=0049|35=0|34=2|49=EXC|56=002|52=20190507-21:02:04.000|10=157|
8=FIX.4.4|9=59|35=0|34=2|49=002|50=002B37|52=20190507-21:02:05.806|56=EXC|10=046|
8=FIX.4.4|9=0049|35=0|34=3|49=EXC|56=002|52=20190507-21:02:34.000|10=161|
8=FIX.4.4|9=59|35=0|34=3|49=002|50=002B37|52=20190507-21:02:35.806|56=EXC|10=050|
8=FIX.4.4|9=0049|35=0|34=4|49=EXC|56=002|52=20190507-21:03:04.000|10=160|
8=FIX.4.4|9=59|35=0|34=4|49=002|50=002B37|52=20190507-21:03:05.806|56=EXC|10=049|
8=FIX.4.4|9=0049|35=0|34=5|49=EXC|56=002|52=20190507-21:03:34.000|10=164|
8=FIX.4.4|9=59|35=0|34=5|49=002|50=002B37|52=20190507-21:03:35.806|56=EXC|10=053|
8=FIX.4.4|9=0049|35=0|34=6|49=EXC|56=002|52=20190507-21:04:04.000|10=163|
8=FIX.4.4|9=59|35=0|34=6|49=002|50=002B37|52=20190507-21:04:05.806|56=EXC|10=052|
8=FIX.4.4|9=0049|35=0|34=7|49=EXC|56=002|52=20190507-21:04:34.000|10=167|
8=FIX.4.4|9=59|35=0|34=7|49=002|50=002B37|52=20190507-21:04:35.806|56=EXC|10=056|
8=FIX.4.4|9=0049|35=0|34=8|49=EXC|56=002|52=20190507-21:05:04.000|10=166|
8=FIX.4.4|9=59|35=0|34=8|49=002|50=002B37|52=20190507-21:05:05.807|56=EXC|10=056|
8=FIX.4.4|9=0049|35=0|34=9|49=EXC|56=002|52=20190507-21:05:34.000|10=170|
8=FIX.4.4|9=59|35=0|34=9|49=002|50=002B37|52=20190507-21:05:35.806|56=EXC|10=059|
8=FIX.4.4|9=0050|35=0|34=10|49=EXC|56=002|52=20190507-21:06:04.000|10=200|
8=FIX.4.4|9=60|35=0|34=10|49=002|50=002B37|52=20190507-21:06:05.805|56=EXC|10=088|
8=FIX.4.4|9=0050|35=0|34=11|49=EXC|56=002|52=20190507-21:06:34.000|10=204|
8=FIX.4.4|9=60|35=0|34=11|49=002|50=002B37|52=20190507-21:06:35.805|56=EXC|10=092|
8=FIX.4.4|9=0050|35=0|34=12|49=EXC|56=002|52=20190507-21:07:04.000|10=203|
8=FIX.4.4|9=60|35=0|34=12|49=002|50=002B37|52=20190507-21:07:05.807|56=EXC|10=093|
8=FIX.4.4|9=0050|35=0|34=13|49=EXC|56=002|52=20190507-21:07:34.000|10=207|
8=FIX.4.4|9=60|35=0|34=13|49=002|50=002B37|52=20190507-21:07:35.806|56=EXC|10=096|
8=FIX.4.4|9=0050|35=0|34=14|49=EXC|56=002|52=20190507-21:08:04.000|10=206|
8=FIX.4.4|9=60|35=0|34=14|49=002|50=002B37|52=20190507-21:08:05.807|56=EXC|10=096|
8=FIX.4.4|9=0050|35=0|34=15|49=EXC|56=002|52=20190507-21:08:34.000|10=210|
8=FIX.4.4|9=60|35=0|34=15|49=002|50=002B37|52=20190507-21:08:35.806|56=EXC|10=099|
8=FIX.4.4|9=0050|35=0|34=16|49=EXC|56=002|52=20190507-21:09:04.000|10=209|
8=FIX.4.4|9=60|35=0|34=16|49=002|50=002B37|52=20190507-21:09:05.806|56=EXC|10=098|
8=FIX.4.4|9=0050|35=0|34=17|49=EXC|56=002|52=20190507-21:09:34.000|10=213|
8=FIX.4.4|9=60|35=0|34=17|49=002|50=002B37|52=20190507-21:09:35.806|56=EXC|10=102|
8=FIX.4.4|9=0050|35=0|34=18|49=EXC|56=002|52=20190507-21:10:04.000|10=203|
8=FIX.4.4|9=60|35=0|34=18|49=002|50=002B37|52=20190507-21:10:05.805|56=EXC|10=091|
8=FIX.4.4|9=0050|35=0|34=19|49=EXC|56=002|52=20190507-21:10:34.000|10=207|
8=FIX.4.4|9=60|35=0|34=19|49=002|50=002B37|52=20190507-21:10:35.806|56=EXC|10=096|
8=FIX.4.4|9=0050|35=0|34=20|49=EXC|56=002|52=20190507-21:11:04.000|10=197|
8=FIX.4.4|9=60|35=0|34=20|49=002|50=002B37|52=20190507-21:11:05.806|56=EXC|10=086|
8=FIX.4.4|9=0050|35=0|34=21|49=EXC|56=002|52=20190507-21:11:34.000|10=201|
8=FIX.4.4|9=60|35=0|34=21|49=002|50=002B37|52=20190507-21:11:35.806|56=EXC|10=090|
8=FIX.4.4|9=0050|35=0|34=22|49=EXC|56=002|52=20190507-21:12:04.000|10=200|
8=FIX.4.4|9=60|35=0|34=22|49=002|50=002B37|52=20190507-21:12:05.805|56=EXC|10=088|
8=FIX.4.4|9=0050|35=0|34=23|49=EXC|56=002|52=20190507-21:12:34.000|10=204|
8=FIX.4.4|9=60|35=0|34=23|49=002|50=002B37|52=20190507-21:12:35.806|56=EXC|10=093|
8=FIX.4.4|9=0050|35=0|34=24|49=EXC|56=002|52=20190507-21:13:04.000|10=203|
8=FIX.4.4|9=60|35=0|34=24|49=002|50=002B37|52=20190507-21:13:05.806|56=EXC|10=092|
8=FIX.4.4|9=0050|35=0|34=25|49=EXC|56=002|52=20190507-21:13:34.000|10=207|
8=FIX.4.4|9=60|35=0|34=25|49=002|50=002B37|52=20190507-21:13:35.807|56=EXC|10=097|
8=FIX.4.4|9=0050|35=0|34=26|49=EXC|56=002|52=20190507-21:14:04.000|10=206|
8=FIX.4.4|9=60|35=0|34=26|49=002|50=002B37|52=20190507-21:14:05.806|56=EXC|10=095|
8=FIX.4.4|9=0050|35=0|34=27|49=EXC|56=002|52=20190507-21:14:34.000|10=210|
8=FIX.4.4|9=60|35=0|34=27|49=002|50=002B37|52=20190507-21:14:35.805|56=EXC|10=098|
8=FIX.4.4|9=0050|35=0|34=28|49=EXC|56=002|52=20190507-21:15:04.000|10=209|
8=FIX.4.4|9=60|35=0|34=28|49=002|50=002B37|52=20190507-21:15:05.805|56=EXC|10=097|
8=FIX.4.4|9=0050|35=0|34=29|49=EXC|56=002|52=20190507-21:15:34.000|10=213|
8=FIX.4.4|9=60|35=0|34=29|49=002|50=002B37|52=20190507-21:15:35.806|56=EXC|10=102|
8=FIX.4.4|9=110|35=A|34=1|49=002|50=002B37|52=20190507-21:15:52.657|56=EXC|43=Y|98=0|108=30|141=Y|553=002FCM002|554=002FCM002|10=091|
8=FIX.4.4|9=0067|35=A|34=1|49=EXC|56=002|52=20190507-21:15:52.351|98=0|108=30|141=Y|10=003|
8=FIX.4.4|9=0049|35=0|34=2|49=EXC|56=002|52=20190507-21:16:22.000|10=162|
8=FIX.4.4|9=59|35=0|34=2|49=002|50=002B37|52=20190507-21:16:23.575|56=EXC|10=054|
8=FIX.4.4|9=0049|35=0|34=3|49=EXC|56=002|52=20190507-21:16:52.000|10=166|
8=FIX.4.4|9=59|35=0|34=3|49=002|50=002B37|52=20190507-21:16:53.570|56=EXC|10=053|
8=FIX.4.4|9=0049|35=0|34=4|49=EXC|56=002|52=20190507-21:17:22.000|10=165|
8=FIX.4.4|9=59|35=0|34=4|49=002|50=002B37|52=20190507-21:17:23.570|56=EXC|10=052|
8=FIX.4.4|9=0049|35=0|34=5|49=EXC|56=002|52=20190507-21:17:52.000|10=169|
8=FIX.4.4|9=59|35=0|34=5|49=002|50=002B37|52=20190507-21:17:53.569|56=EXC|10=064|
8=FIX.4.4|9=0049|35=0|34=6|49=EXC|56=002|52=20190507-21:18:22.000|10=168|
8=FIX.4.4|9=59|35=0|34=6|49=002|50=002B37|52=20190507-21:18:23.569|56=EXC|10=063|
8=FIX.4.4|9=0049|35=0|34=7|49=EXC|56=002|52=20190507-21:18:52.000|10=172|
8=FIX.4.4|9=59|35=0|34=7|49=002|50=002B37|52=20190507-21:18:53.570|56=EXC|10=059|
8=FIX.4.4|9=0049|35=0|34=8|49=EXC|56=002|52=20190507-21:19:22.000|10=171|
8=FIX.4.4|9=59|35=0|34=8|49=002|50=002B37|52=20190507-21:19:23.568|56=EXC|10=065|
8=FIX.4.4|9=0049|35=0|34=9|49=EXC|56=002|52=20190507-21:19:52.000|10=175|
8=FIX.4.4|9=59|35=0|34=9|49=002|50=002B37|52=20190507-21:19:53.568|56=EXC|10=069|
8=FIX.4.4|9=0050|35=0|34=10|49=EXC|56=002|52=20190507-21:20:22.000|10=196|
8=FIX.4.4|9=60|35=0|34=10|49=002|50=002B37|52=20190507-21:20:23.569|56=EXC|10=091|
8=FIX.4.4|9=0050|35=0|34=11|49=EXC|56=002|52=20190507-21:20:52.000|10=200|
8=FIX.4.4|9=60|35=0|34=11|49=002|50=002B37|52=20190507-21:20:53.570|56=EXC|10=087|
8=FIX.4.4|9=110|35=A|34=1|49=002|50=002B37|52=20190507-21:21:19.622|56=EXC|43=Y|98=0|108=30|141=Y|553=002FCM002|554=002FCM002|10=083|
8=FIX.4.4|9=0067|35=A|34=1|49=EXC|56=002|52=20190507-21:21:19.311|98=0|108=30|141=Y|10=255|
8=FIX.4.4|9=0049|35=0|34=2|49=EXC|56=002|52=20190507-21:21:49.000|10=167|
8=FIX.4.4|9=59|35=0|34=2|49=002|50=002B37|52=20190507-21:21:50.535|56=EXC|10=046|
8=FIX.4.4|9=110|35=A|34=1|49=002|50=002B37|52=20190507-21:21:58.339|56=EXC|43=Y|98=0|108=30|141=Y|553=002FCM002|554=002FCM002|10=091|
8=FIX.4.4|9=0067|35=A|34=1|49=EXC|56=002|52=20190507-21:21:58.030|98=0|108=30|141=Y|10=000|
8=FIX.4.4|9=0049|35=0|34=2|49=EXC|56=002|52=20190507-21:22:28.000|10=165|
8=FIX.4.4|9=59|35=0|34=2|49=002|50=002B37|52=20190507-21:22:28.340|56=EXC|10=046|
8=FIX.4.4|9=0049|35=0|34=3|49=EXC|56=002|52=20190507-21:22:58.000|10=169|
8=FIX.4.4|9=59|35=0|34=3|49=002|50=002B37|52=20190507-21:22:58.340|56=EXC|10=050|
8=FIX.4.4|9=0049|35=0|34=4|49=EXC|56=002|52=20190507-21:23:28.000|10=168|
8=FIX.4.4|9=59|35=0|34=4|49=002|50=002B37|52=20190507-21:23:28.345|56=EXC|10=054|
8=FIX.4.4|9=0049|35=0|34=5|49=EXC|56=002|52=20190507-21:23:58.000|10=172|
8=FIX.4.4|9=59|35=0|34=5|49=002|50=002B37|52=20190507-21:23:58.340|56=EXC|10=053|
8=FIX.4.4|9=0049|35=0|34=6|49=EXC|56=002|52=20190507-21:24:28.000|10=171|
8=FIX.4.4|9=59|35=0|34=6|49=002|50=002B37|52=20190507-21:24:28.340|56=EXC|10=052|
8=FIX.4.4|9=0049|35=0|34=7|49=EXC|56=002|52=20190507-21:24:58.000|10=175|
8=FIX.4.4|9=59|35=0|34=7|49=002|50=002B37|52=20190507-21:24:58.340|56=EXC|10=056|
8=FIX.4.4|9=0049|35=0|34=8|49=EXC|56=002|52=20190507-21:25:28.000|10=174|
8=FIX.4.4|9=59|35=0|34=8|49=002|50=002B37|52=20190507-21:25:28.343|56=EXC|10=058|
8=FIX.4.4|9=0049|35=0|34=9|49=EXC|56=002|52=20190507-21:25:58.000|10=178|
8=FIX.4.4|9=59|35=0|34=9|49=002|50=002B37|52=20190507-21:25:58.341|56=EXC|10=060|
8=FIX.4.4|9=0050|35=0|34=10|49=EXC|56=002|52=20190507-21:26:28.000|10=208|
8=FIX.4.4|9=60|35=0|34=10|49=002|50=002B37|52=20190507-21:26:28.340|56=EXC|10=089|
8=FIX.4.4|9=0050|35=0|34=11|49=EXC|56=002|52=20190507-21:26:58.000|10=212|
8=FIX.4.4|9=60|35=0|34=11|49=002|50=002B37|52=20190507-21:26:58.343|56=EXC|10=096|
8=FIX.4.4|9=0050|35=0|34=12|49=EXC|56=002|52=20190507-21:27:28.000|10=211|
8=FIX.4.4|9=60|35=0|34=12|49=002|50=002B37|52=20190507-21:27:28.341|56=EXC|10=093|
8=FIX.4.4|9=0050|35=0|34=13|49=EXC|56=002|52=20190507-21:27:58.000|10=215|
8=FIX.4.4|9=60|35=0|34=13|49=002|50=002B37|52=20190507-21:27:58.342|56=EXC|10=098|
8=FIX.4.4|9=0050|35=0|34=14|49=EXC|56=002|52=20190507-21:28:28.000|10=214|
8=FIX.4.4|9=60|35=0|34=14|49=002|50=002B37|52=20190507-21:28:28.342|56=EXC|10=097|
8=FIX.4.4|9=0050|35=0|34=15|49=EXC|56=002|52=20190507-21:28:58.000|10=218|
8=FIX.4.4|9=60|35=0|34=15|49=002|50=002B37|52=20190507-21:28:58.341|56=EXC|10=100|
8=FIX.4.4|9=0050|35=0|34=16|49=EXC|56=002|52=20190507-21:29:28.000|10=217|
8=FIX.4.4|9=60|35=0|34=16|49=002|50=002B37|52=20190507-21:29:28.341|56=EXC|10=099|
8=FIX.4.4|9=0050|35=0|34=17|49=EXC|56=002|52=20190507-21:29:58.000|10=221|
8=FIX.4.4|9=60|35=0|34=17|49=002|50=002B37|52=20190507-21:29:58.368|56=EXC|10=112|
8=FIX.4.4|9=0050|35=0|34=18|49=EXC|56=002|52=20190507-21:30:28.000|10=211|
8=FIX.4.4|9=60|35=0|34=18|49=002|50=002B37|52=20190507-21:30:29.270|56=EXC|10=095|
8=FIX.4.4|9=0050|35=0|34=19|49=EXC|56=002|52=20190507-21:30:58.000|10=215|
8=FIX.4.4|9=60|35=0|34=19|49=002|50=002B37|52=20190507-21:30:59.270|56=EXC|10=099|
8=FIX.4.4|9=0050|35=0|34=20|49=EXC|56=002|52=20190507-21:31:28.000|10=205|
8=FIX.4.4|9=60|35=0|34=20|49=002|50=002B37|52=20190507-21:31:29.269|56=EXC|10=097|
8=FIX.4.4|9=0050|35=0|34=21|49=EXC|56=002|52=20190507-21:31:58.000|10=209|
8=FIX.4.4|9=60|35=0|34=21|49=002|50=002B37|52=20190507-21:31:59.269|56=EXC|10=101|
8=FIX.4.4|9=0050|35=0|34=22|49=EXC|56=002|52=20190507-21:32:28.000|10=208|
8=FIX.4.4|9=60|35=0|34=22|49=002|50=002B37|52=20190507-21:32:29.269|56=EXC|10=100|
8=FIX.4.4|9=0050|35=0|34=23|49=EXC|56=002|52=20190507-21:32:58.000|10=212|
8=FIX.4.4|9=60|35=0|34=23|49=002|50=002B37|52=20190507-21:32:59.269|56=EXC|10=104|
8=FIX.4.4|9=0050|35=0|34=24|49=EXC|56=002|52=20190507-21:33:28.000|10=211|
8=FIX.4.4|9=60|35=0|34=24|49=002|50=002B37|52=20190507-21:33:29.269|56=EXC|10=103|
8=FIX.4.4|9=0050|35=0|34=25|49=EXC|56=002|52=20190507-21:33:58.000|10=215|
8=FIX.4.4|9=60|35=0|34=25|49=002|50=002B37|52=20190507-21:33:59.269|56=EXC|10=107|
8=FIX.4.4|9=0050|35=0|34=26|49=EXC|56=002|52=20190507-21:34:28.000|10=214|
8=FIX.4.4|9=60|35=0|34=26|49=002|50=002B37|52=20190507-21:34:29.269|56=EXC|10=106|
8=FIX.4.4|9=0050|35=0|34=27|49=EXC|56=002|52=20190507-21:34:58.000|10=218|
8=FIX.4.4|9=60|35=0|34=27|49=002|50=002B37|52=20190507-21:34:59.270|56=EXC|10=102|
8=FIX.4.4|9=0050|35=0|34=28|49=EXC|56=002|52=20190507-21:35:28.000|10=217|
8=FIX.4.4|9=60|35=0|34=28|49=002|50=002B37|52=20190507-21:35:29.270|56=EXC|10=101|
8=FIX.4.4|9=0050|35=0|34=29|49=EXC|56=002|52=20190507-21:35:58.000|10=221|
8=FIX.4.4|9=60|35=0|34=29|49=002|50=002B37|52=20190507-21:35:59.269|56=EXC|10=113|
8=FIX.4.4|9=0050|35=0|34=30|49=EXC|56=002|52=20190507-21:36:28.000|10=211|
8=FIX.4.4|9=60|35=0|34=30|49=002|50=002B37|52=20190507-21:36:29.270|56=EXC|10=095|
8=FIX.4.4|9=0050|35=0|34=31|49=EXC|56=002|52=20190507-21:36:58.000|10=215|
8=FIX.4.4|9=60|35=0|34=31|49=002|50=002B37|52=20190507-21:36:59.270|56=EXC|10=099|
8=FIX.4.4|9=0050|35=0|34=32|49=EXC|56=002|52=20190507-21:37:28.000|10=214|
8=FIX.4.4|9=60|35=0|34=32|49=002|50=002B37|52=20190507-21:37:29.269|56=EXC|10=106|
8=FIX.4.4|9=0050|35=0|34=33|49=EXC|56=002|52=20190507-21:37:58.000|10=218|
8=FIX.4.4|9=60|35=0|34=33|49=002|50=002B37|52=20190507-21:37:59.270|56=EXC|10=102|
8=FIX.4.4|9=0050|35=0|34=34|49=EXC|56=002|52=20190507-21:38:28.000|10=217|
8=FIX.4.4|9=60|35=0|34=34|49=002|50=002B37|52=20190507-21:38:29.269|56=EXC|10=109|
8=FIX.4.4|9=0050|35=0|34=35|49=EXC|56=002|52=20190507-21:38:58.000|10=221|
8=FIX.4.4|9=60|35=0|34=35|49=002|50=002B37|52=20190507-21:38:59.269|56=EXC|10=113|
8=FIX.4.4|9=0050|35=0|34=36|49=EXC|56=002|52=20190507-21:39:28.000|10=220|
8=FIX.4.4|9=60|35=0|34=36|49=002|50=002B37|52=20190507-21:39:29.270|56=EXC|10=104|
8=FIX.4.4|9=0050|35=0|34=37|49=EXC|56=002|52=20190507-21:39:58.000|10=224|
8=FIX.4.4|9=60|35=0|34=37|49=002|50=002B37|52=20190507-21:39:59.269|56=EXC|10=116|
8=FIX.4.4|9=0050|35=0|34=38|49=EXC|56=002|52=20190507-21:40:28.000|10=214|
8=FIX.4.4|9=60|35=0|34=38|49=002|50=002B37|52=20190507-21:40:29.270|56=EXC|10=098|
8=FIX.4.4|9=0050|35=0|34=39|49=EXC|56=002|52=20190507-21:40:58.000|10=218|
8=FIX.4.4|9=60|35=0|34=39|49=002|50=002B37|52=20190507-21:40:59.269|56=EXC|10=110|
8=FIX.4.4|9=0050|35=0|34=40|49=EXC|56=002|52=20190507-21:41:28.000|10=208|
8=FIX.4.4|9=60|35=0|34=40|49=002|50=002B37|52=20190507-21:41:29.270|56=EXC|10=092|
8=FIX.4.4|9=0050|35=0|34=41|49=EXC|56=002|52=20190507-21:41:58.000|10=212|
8=FIX.4.4|9=60|35=0|34=41|49=002|50=002B37|52=20190507-21:41:59.269|56=EXC|10=104|
8=FIX.4.4|9=0050|35=0|34=42|49=EXC|56=002|52=20190507-21:42:28.000|10=211|
8=FIX.4.4|9=60|35=0|34=42|49=002|50=002B37|52=20190507-21:42:29.270|56=EXC|10=095|
8=FIX.4.4|9=0050|35=0|34=43|49=EXC|56=002|52=20190507-21:42:58.000|10=215|
8=FIX.4.4|9=60|35=0|34=43|49=002|50=002B37|52=20190507-21:42:59.269|56=EXC|10=107|
8=FIX.4.4|9=0050|35=0|34=44|49=EXC|56=002|52=20190507-21:43:28.000|10=214|
8=FIX.4.4|9=60|35=0|34=44|49=002|50=002B37|52=20190507-21:43:29.271|56=EXC|10=099|
8=FIX.4.4|9=0050|35=0|34=45|49=EXC|56=002|52=20190507-21:43:58.000|10=218|
8=FIX.4.4|9=60|35=0|34=45|49=002|50=002B37|52=20190507-21:43:59.269|56=EXC|10=110|
8=FIX.4.4|9=0050|35=0|34=46|49=EXC|56=002|52=20190507-21:44:28.000|10=217|
8=FIX.4.4|9=60|35=0|34=46|49=002|50=002B37|52=20190507-21:44:29.269|56=EXC|10=109|
8=FIX.4.4|9=0050|35=0|34=47|49=EXC|56=002|52=20190507-21:44:58.000|10=221|
8=FIX.4.4|9=60|35=0|34=47|49=002|50=002B37|52=20190507-21:44:59.270|56=EXC|10=105|
8=FIX.4.4|9=0050|35=0|34=48|49=EXC|56=002|52=20190507-21:45:28.000|10=220|
8=FIX.4.4|9=60|35=0|34=48|49=002|50=002B37|52=20190507-21:45:29.269|56=EXC|10=112|
8=FIX.4.4|9=0050|35=0|34=49|49=EXC|56=002|52=20190507-21:45:58.000|10=224|
8=FIX.4.4|9=60|35=0|34=49|49=002|50=002B37|52=20190507-21:45:59.270|56=EXC|10=108|
8=FIX.4.4|9=0050|35=0|34=50|49=EXC|56=002|52=20190507-21:46:28.000|10=214|
8=FIX.4.4|9=60|35=0|34=50|49=002|50=002B37|52=20190507-21:46:29.270|56=EXC|10=098|
8=FIX.4.4|9=0050|35=0|34=51|49=EXC|56=002|52=20190507-21:46:58.000|10=218|
8=FIX.4.4|9=60|35=0|34=51|49=002|50=002B37|52=20190507-21:46:59.269|56=EXC|10=110|
8=FIX.4.4|9=0050|35=0|34=52|49=EXC|56=002|52=20190507-21:47:28.000|10=217|
8=FIX.4.4|9=60|35=0|34=52|49=002|50=002B37|52=20190507-21:47:29.270|56=EXC|10=101|
8=FIX.4.4|9=0050|35=0|34=53|49=EXC|56=002|52=20190507-21:47:58.000|10=221|
8=FIX.4.4|9=60|35=0|34=53|49=002|50=002B37|52=20190507-21:47:59.270|56=EXC|10=105|
8=FIX.4.4|9=0050|35=0|34=54|49=EXC|56=002|52=20190507-21:48:28.000|10=220|
8=FIX.4.4|9=60|35=0|34=54|49=002|50=002B37|52=20190507-21:48:29.270|56=EXC|10=104|
8=FIX.4.4|9=0050|35=0|34=55|49=EXC|56=002|52=20190507-21:48:58.000|10=224|
8=FIX.4.4|9=60|35=0|34=55|49=002|50=002B37|52=20190507-21:48:59.269|56=EXC|10=116|
8=FIX.4.4|9=0050|35=0|34=56|49=EXC|56=002|52=20190507-21:49:28.000|10=223|
8=FIX.4.4|9=60|35=0|34=56|49=002|50=002B37|52=20190507-21:49:29.269|56=EXC|10=115|
8=FIX.4.4|9=0050|35=0|34=57|49=EXC|56=002|52=20190507-21:49:58.000|10=227|
8=FIX.4.4|9=60|35=0|34=57|49=002|50=002B37|52=20190507-21:49:59.270|56=EXC|10=111|
8=FIX.4.4|9=0050|35=0|34=58|49=EXC|56=002|52=20190507-21:50:28.000|10=217|
8=FIX.4.4|9=60|35=0|34=58|49=002|50=002B37|52=20190507-21:50:29.269|56=EXC|10=109|
8=FIX.4.4|9=0050|35=0|34=59|49=EXC|56=002|52=20190507-21:50:58.000|10=221|
8=FIX.4.4|9=60|35=0|34=59|49=002|50=002B37|52=20190507-21:50:59.269|56=EXC|10=113|
8=FIX.4.4|9=0050|35=0|34=60|49=EXC|56=002|52=20190507-21:51:28.000|10=211|
8=FIX.4.4|9=60|35=0|34=60|49=002|50=002B37|52=20190507-21:51:29.270|56=EXC|10=095|
8=FIX.4.4|9=0050|35=0|34=61|49=EXC|56=002|52=20190507-21:51:58.000|10=215|
8=FIX.4.4|9=60|35=0|34=61|49=002|50=002B37|52=20190507-21:51:59.269|56=EXC|10=107|
8=FIX.4.4|9=0050|35=0|34=62|49=EXC|56=002|52=20190507-21:52:28.000|10=214|
8=FIX.4.4|9=60|35=0|34=62|49=002|50=002B37|52=20190507-21:52:29.270|56=EXC|10=098|
8=FIX.4.4|9=0050|35=0|34=63|49=EXC|56=002|52=20190507-21:52:58.000|10=218|
8=FIX.4.4|9=60|35=0|34=63|49=002|50=002B37|52=20190507-21:52:59.269|56=EXC|10=110|
8=FIX.4.4|9=0050|35=0|34=64|49=EXC|56=002|52=20190507-21:53:28.000|10=217|
8=FIX.4.4|9=60|35=0|34=64|49=002|50=002B37|52=20190507-21:53:29.269|56=EXC|10=109|
8=FIX.4.4|9=0050|35=0|34=65|49=EXC|56=002|52=20190507-21:53:58.000|10=221|
8=FIX.4.4|9=60|35=0|34=65|49=002|50=002B37|52=20190507-21:53:59.269|56=EXC|10=113|
8=FIX.4.4|9=0050|35=0|34=66|49=EXC|56=002|52=20190507-21:54:28.000|10=220|
8=FIX.4.4|9=60|35=0|34=66|49=002|50=002B37|52=20190507-21:54:29.270|56=EXC|10=104|
8=FIX.4.4|9=0050|35=0|34=67|49=EXC|56=002|52=20190507-21:54:58.000|10=224|
8=FIX.4.4|9=60|35=0|34=67|49=002|50=002B37|52=20190507-21:54:59.269|56=EXC|10=116|
8=FIX.4.4|9=0050|35=0|34=68|49=EXC|56=002|52=20190507-21:55:28.000|10=223|
8=FIX.4.4|9=60|35=0|34=68|49=002|50=002B37|52=20190507-21:55:29.271|56=EXC|10=108|
8=FIX.4.4|9=0050|35=0|34=69|49=EXC|56=002|52=20190507-21:55:58.000|10=227|
8=FIX.4.4|9=60|35=0|34=69|49=002|50=002B37|52=20190507-21:55:59.270|56=EXC|10=111|
8=FIX.4.4|9=0050|35=0|34=70|49=EXC|56=002|52=20190507-21:56:28.000|10=217|
8=FIX.4.4|9=60|35=0|34=70|49=002|50=002B37|52=20190507-21:56:29.270|56=EXC|10=101|
8=FIX.4.4|9=0050|35=0|34=71|49=EXC|56=002|52=20190507-21:56:58.000|10=221|
8=FIX.4.4|9=60|35=0|34=71|49=002|50=002B37|52=20190507-21:56:59.270|56=EXC|10=105|
8=FIX.4.4|9=0050|35=0|34=72|49=EXC|56=002|52=20190507-21:57:28.000|10=220|
8=FIX.4.4|9=60|35=0|34=72|49=002|50=002B37|52=20190507-21:57:29.270|56=EXC|10=104|
8=FIX.4.4|9=0050|35=0|34=73|49=EXC|56=002|52=20190507-21:57:58.000|10=224|
8=FIX.4.4|9=60|35=0|34=73|49=002|50=002B37|52=20190507-21:57:59.271|56=EXC|10=109|
8=FIX.4.4|9=0050|35=0|34=74|49=EXC|56=002|52=20190507-21:58:28.000|10=223|
8=FIX.4.4|9=60|35=0|34=74|49=002|50=002B37|52=20190507-21:58:29.270|56=EXC|10=107|
8=FIX.4.4|9=0050|35=0|34=75|49=EXC|56=002|52=20190507-21:58:58.000|10=227|
8=FIX.4.4|9=60|35=0|34=75|49=002|50=002B37|52=20190507-21:58:59.270|56=EXC|10=111|
8=FIX.4.4|9=0050|35=0|34=76|49=EXC|56=002|52=20190507-21:59:28.000|10=226|
8=FIX.4.4|9=60|35=0|34=76|49=002|50=002B37|52=20190507-21:59:29.269|56=EXC|10=118|
8=FIX.4.4|9=0050|35=0|34=77|49=EXC|56=002|52=20190507-21:59:58.000|10=230|
8=FIX.4.4|9=60|35=0|34=77|49=002|50=002B37|52=20190507-21:59:59.270|56=EXC|10=114|
8=FIX.4.4|9=0050|35=0|34=78|49=EXC|56=002|52=20190507-22:00:28.000|10=215|
8=FIX.4.4|9=60|35=0|34=78|49=002|50=002B37|52=20190507-22:00:29.271|56=EXC|10=100|
8=FIX.4.4|9=0050|35=0|34=79|49=EXC|56=002|52=20190507-22:00:58.000|10=219|
8=FIX.4.4|9=60|35=0|34=79|49=002|50=002B37|52=20190507-22:00:59.271|56=EXC|10=104|
8=FIX.4.4|9=0050|35=0|34=80|49=EXC|56=002|52=20190507-22:01:28.000|10=209|
8=FIX.4.4|9=60|35=0|34=80|49=002|50=002B37|52=20190507-22:01:29.269|56=EXC|10=101|
8=FIX.4.4|9=0050|35=0|34=81|49=EXC|56=002|52=20190507-22:01:58.000|10=213|
8=FIX.4.4|9=60|35=0|34=81|49=002|50=002B37|52=20190507-22:01:59.269|56=EXC|10=105|
8=FIX.4.4|9=0050|35=0|34=82|49=EXC|56=002|52=20190507-22:02:28.000|10=212|
8=FIX.4.4|9=60|35=0|34=82|49=002|50=002B37|52=20190507-22:02:29.269|56=EXC|10=104|
8=FIX.4.4|9=0050|35=0|34=83|49=EXC|56=002|52=20190507-22:02:58.000|10=216|
8=FIX.4.4|9=60|35=0|34=83|49=002|50=002B37|52=20190507-22:02:59.269|56=EXC|10=108|
8=FIX.4.4|9=0050|35=0|34=84|49=EXC|56=002|52=20190507-22:03:28.000|10=215|
8=FIX.4.4|9=60|35=0|34=84|49=002|50=002B37|52=20190507-22:03:29.269|56=EXC|10=107|
8=FIX.4.4|9=0050|35=0|34=85|49=EXC|56=002|52=20190507-22:03:58.000|10=219|
8=FIX.4.4|9=60|35=0|34=85|49=002|50=002B37|52=20190507-22:03:59.269|56=EXC|10=111|
8=FIX.4.4|9=0050|35=0|34=86|49=EXC|56=002|52=20190507-22:04:28.000|10=218|
8=FIX.4.4|9=60|35=0|34=86|49=002|50=002B37|52=20190507-22:04:29.270|56=EXC|10=102|
8=FIX.4.4|9=0050|35=0|34=87|49=EXC|56=002|52=20190507-22:04:58.000|10=222|
8=FIX.4.4|9=60|35=0|34=87|49=002|50=002B37|52=20190507-22:04:59.267|56=EXC|10=112|
8=FIX.4.4|9=0050|35=0|34=88|49=EXC|56=002|52=20190507-22:05:28.000|10=221|
8=FIX.4.4|9=60|35=0|34=88|49=002|50=002B37|52=20190507-22:05:29.268|56=EXC|10=112|
8=FIX.4.4|9=0050|35=0|34=89|49=EXC|56=002|52=20190507-22:05:58.000|10=225|
8=FIX.4.4|9=60|35=0|34=89|49=002|50=002B37|52=20190507-22:05:59.269|56=EXC|10=117|
8=FIX.4.4|9=0050|35=0|34=90|49=EXC|56=002|52=20190507-22:06:28.000|10=215|
8=FIX.4.4|9=60|35=0|34=90|49=002|50=002B37|52=20190507-22:06:29.266|56=EXC|10=104|
8=FIX.4.4|9=0050|35=0|34=91|49=EXC|56=002|52=20190507-22:06:58.000|10=219|
8=FIX.4.4|9=60|35=0|34=91|49=002|50=002B37|52=20190507-22:06:59.268|56=EXC|10=110|
8=FIX.4.4|9=0050|35=0|34=92|49=EXC|56=002|52=20190507-22:07:28.000|10=218|
8=FIX.4.4|9=60|35=0|34=92|49=002|50=002B37|52=20190507-22:07:29.266|56=EXC|10=107|
8=FIX.4.4|9=0050|35=0|34=93|49=EXC|56=002|52=20190507-22:07:58.000|10=222|
8=FIX.4.4|9=60|35=0|34=93|49=002|50=002B37|52=20190507-22:07:59.266|56=EXC|10=111|
8=FIX.4.4|9=0050|35=0|34=94|49=EXC|56=002|52=20190507-22:08:28.000|10=221|
8=FIX.4.4|9=60|35=0|34=94|49=002|50=002B37|52=20190507-22:08:29.267|56=EXC|10=111|
8=FIX.4.4|9=0050|35=0|34=95|49=EXC|56=002|52=20190507-22:08:58.000|10=225|
8=FIX.4.4|9=60|35=0|34=95|49=002|50=002B37|52=20190507-22:08:59.267|56=EXC|10=115|
8=FIX.4.4|9=0050|35=0|34=96|49=EXC|56=002|52=20190507-22:09:28.000|10=224|
8=FIX.4.4|9=60|35=0|34=96|49=002|50=002B37|52=20190507-22:09:29.266|56=EXC|10=113|
8=FIX.4.4|9=0050|35=0|34=97|49=EXC|56=002|52=20190507-22:09:58.000|10=228|
8=FIX.4.4|9=60|35=0|34=97|49=002|50=002B37|52=20190507-22:09:59.265|56=EXC|10=116|
8=FIX.4.4|9=0050|35=0|34=98|49=EXC|56=002|52=20190507-22:10:28.000|10=218|
8=FIX.4.4|9=60|35=0|34=98|49=002|50=002B37|52=20190507-22:10:29.265|56=EXC|10=106|
8=FIX.4.4|9=0050|35=0|34=99|49=EXC|56=002|52=20190507-22:10:58.000|10=222|
8=FIX.4.4|9=60|35=0|34=99|49=002|50=002B37|52=20190507-22:10:59.265|56=EXC|10=110|
8=FIX.4.4|9=0051|35=0|34=100|49=EXC|56=002|52=20190507-22:11:28.000|10=252|
8=FIX.4.4|9=61|35=0|34=100|49=002|50=002B37|52=20190507-22:11:29.265|56=EXC|10=140|
8=FIX.4.4|9=0051|35=0|34=101|49=EXC|56=002|52=20190507-22:11:58.000|10=000|
8=FIX.4.4|9=61|35=0|34=101|49=002|50=002B37|52=20190507-22:11:59.264|56=EXC|10=143|
8=FIX.4.4|9=0051|35=0|34=102|49=EXC|56=002|52=20190507-22:12:28.000|10=255|
8=FIX.4.4|9=61|35=0|34=102|49=002|50=002B37|52=20190507-22:12:29.264|56=EXC|10=142|
8=FIX.4.4|9=0051|35=0|34=103|49=EXC|56=002|52=20190507-22:12:58.000|10=003|
8=FIX.4.4|9=61|35=0|34=103|49=002|50=002B37|52=20190507-22:12:59.264|56=EXC|10=146|
8=FIX.4.4|9=0051|35=0|34=104|49=EXC|56=002|52=20190507-22:13:28.000|10=002|
8=FIX.4.4|9=61|35=0|34=104|49=002|50=002B37|52=20190507-22:13:29.263|56=EXC|10=144|
8=FIX.4.4|9=0051|35=0|34=105|49=EXC|56=002|52=20190507-22:13:58.000|10=006|
8=FIX.4.4|9=61|35=0|34=105|49=002|50=002B37|52=20190507-22:13:59.264|56=EXC|10=149|
8=FIX.4.4|9=0051|35=0|34=106|49=EXC|56=002|52=20190507-22:14:28.000|10=005|
8=FIX.4.4|9=61|35=0|34=106|49=002|50=002B37|52=20190507-22:14:29.264|56=EXC|10=148|
8=FIX.4.4|9=0051|35=0|34=107|49=EXC|56=002|52=20190507-22:14:58.000|10=009|
8=FIX.4.4|9=61|35=0|34=107|49=002|50=002B37|52=20190507-22:14:59.263|56=EXC|10=151|
8=FIX.4.4|9=0051|35=0|34=108|49=EXC|56=002|52=20190507-22:15:28.000|10=008|
8=FIX.4.4|9=61|35=0|34=108|49=002|50=002B37|52=20190507-22:15:29.263|56=EXC|10=150|
8=FIX.4.4|9=0051|35=0|34=109|49=EXC|56=002|52=20190507-22:15:58.000|10=012|
8=FIX.4.4|9=61|35=0|34=109|49=002|50=002B37|52=20190507-22:15:59.263|56=EXC|10=154|
8=FIX.4.4|9=0051|35=0|34=110|49=EXC|56=002|52=20190507-22:16:28.000|10=002|
8=FIX.4.4|9=61|35=0|34=110|49=002|50=002B37|52=20190507-22:16:29.262|56=EXC|10=143|
8=FIX.4.4|9=0051|35=0|34=111|49=EXC|56=002|52=20190507-22:16:58.000|10=006|
8=FIX.4.4|9=61|35=0|34=111|49=002|50=002B37|52=20190507-22:16:59.263|56=EXC|10=148|
8=FIX.4.4|9=0051|35=0|34=112|49=EXC|56=002|52=20190507-22:17:28.000|10=005|
8=FIX.4.4|9=61|35=0|34=112|49=002|50=002B37|52=20190507-22:17:29.262|56=EXC|10=146|
8=FIX.4.4|9=0051|35=0|34=113|49=EXC|56=002|52=20190507-22:17:58.000|10=009|
8=FIX.4.4|9=61|35=0|34=113|49=002|50=002B37|52=20190507-22:17:59.264|56=EXC|10=152|
8=FIX.4.4|9=0051|35=0|34=114|49=EXC|56=002|52=20190507-22:18:28.000|10=008|
8=FIX.4.4|9=61|35=0|34=114|49=002|50=002B37|52=20190507-22:18:29.262|56=EXC|10=149|
8=FIX.4.4|9=0051|35=0|34=115|49=EXC|56=002|52=20190507-22:18:58.000|10=012|
8=FIX.4.4|9=61|35=0|34=115|49=002|50=002B37|52=20190507-22:18:59.262|56=EXC|10=153|
8=FIX.4.4|9=0051|35=0|34=116|49=EXC|56=002|52=20190507-22:19:28.000|10=011|
8=FIX.4.4|9=61|35=0|34=116|49=002|50=002B37|52=20190507-22:19:29.263|56=EXC|10=153|
8=FIX.4.4|9=0051|35=0|34=117|49=EXC|56=002|52=20190507-22:19:58.000|10=015|
8=FIX.4.4|9=61|35=0|34=117|49=002|50=002B37|52=20190507-22:19:59.263|56=EXC|10=157|
8=FIX.4.4|9=0051|35=0|34=118|49=EXC|56=002|52=20190507-22:20:28.000|10=005|
8=FIX.4.4|9=61|35=0|34=118|49=002|50=002B37|52=20190507-22:20:29.261|56=EXC|10=145|
8=FIX.4.4|9=0051|35=0|34=119|49=EXC|56=002|52=20190507-22:20:58.000|10=009|
8=FIX.4.4|9=61|35=0|34=119|49=002|50=002B37|52=20190507-22:20:59.262|56=EXC|10=150|
8=FIX.4.4|9=0051|35=0|34=120|49=EXC|56=002|52=20190507-22:21:28.000|10=255|
8=FIX.4.4|9=61|35=0|34=120|49=002|50=002B37|52=20190507-22:21:29.261|56=EXC|10=139|
8=FIX.4.4|9=0051|35=0|34=121|49=EXC|56=002|52=20190507-22:21:58.000|10=003|
8=FIX.4.4|9=61|35=0|34=121|49=002|50=002B37|52=20190507-22:21:59.261|56=EXC|10=143|
8=FIX.4.4|9=0051|35=0|34=122|49=EXC|56=002|52=20190507-22:22:28.000|10=002|
8=FIX.4.4|9=61|35=0|34=122|49=002|50=002B37|52=20190507-22:22:29.262|56=EXC|10=143|
8=FIX.4.4|9=0051|35=0|34=123|49=EXC|56=002|52=20190507-22:22:58.000|10=006|
8=FIX.4.4|9=61|35=0|34=123|49=002|50=002B37|52=20190507-22:22:59.262|56=EXC|10=147|
8=FIX.4.4|9=0051|35=0|34=124|49=EXC|56=002|52=20190507-22:23:28.000|10=005|
8=FIX.4.4|9=61|35=0|34=124|49=002|50=002B37|52=20190507-22:23:29.262|56=EXC|10=146|
8=FIX.4.4|9=0051|35=0|34=125|49=EXC|56=002|52=20190507-22:23:58.000|10=009|
8=FIX.4.4|9=61|35=0|34=125|49=002|50=002B37|52=20190507-22:23:59.261|56=EXC|10=149|
8=FIX.4.4|9=0051|35=0|34=126|49=EXC|56=002|52=20190507-22:24:28.000|10=008|
8=FIX.4.4|9=61|35=0|34=126|49=002|50=002B37|52=20190507-22:24:29.261|56=EXC|10=148|
8=FIX.4.4|9=0051|35=0|34=127|49=EXC|56=002|52=20190507-22:24:58.000|10=012|
8=FIX.4.4|9=61|35=0|34=127|49=002|50=002B37|52=20190507-22:24:59.262|56=EXC|10=153|
8=FIX.4.4|9=0051|35=0|34=128|49=EXC|56=002|52=20190507-22:25:28.000|10=011|
8=FIX.4.4|9=61|35=0|34=128|49=002|50=002B37|52=20190507-22:25:29.262|56=EXC|10=152|
8=FIX.4.4|9=0051|35=0|34=129|49=EXC|56=002|52=20190507-22:25:58.000|10=015|
8=FIX.4.4|9=61|35=0|34=129|49=002|50=002B37|52=20190507-22:25:59.262|56=EXC|10=156|
8=FIX.4.4|9=0051|35=0|34=130|49=EXC|56=002|52=20190507-22:26:28.000|10=005|
8=FIX.4.4|9=61|35=0|34=130|49=002|50=002B37|52=20190507-22:26:29.261|56=EXC|10=145|
8=FIX.4.4|9=0051|35=0|34=131|49=EXC|56=002|52=20190507-22:26:58.000|10=009|
8=FIX.4.4|9=61|35=0|34=131|49=002|50=002B37|52=20190507-22:26:59.260|56=EXC|10=148|
8=FIX.4.4|9=0051|35=0|34=132|49=EXC|56=002|52=20190507-22:27:28.000|10=008|
8=FIX.4.4|9=61|35=0|34=132|49=002|50=002B37|52=20190507-22:27:29.261|56=EXC|10=148|
8=FIX.4.4|9=0051|35=0|34=133|49=EXC|56=002|52=20190507-22:27:58.000|10=012|
8=FIX.4.4|9=61|35=0|34=133|49=002|50=002B37|52=20190507-22:27:59.261|56=EXC|10=152|
8=FIX.4.4|9=0051|35=0|34=134|49=EXC|56=002|52=20190507-22:28:28.000|10=011|
8=FIX.4.4|9=61|35=0|34=134|49=002|50=002B37|52=20190507-22:28:29.262|56=EXC|10=152|
8=FIX.4.4|9=0051|35=0|34=135|49=EXC|56=002|52=20190507-22:28:58.000|10=015|
8=FIX.4.4|9=61|35=0|34=135|49=002|50=002B37|52=20190507-22:28:59.260|56=EXC|10=154|
8=FIX.4.4|9=0051|35=0|34=136|49=EXC|56=002|52=20190507-22:29:28.000|10=014|
8=FIX.4.4|9=61|35=0|34=136|49=002|50=002B37|52=20190507-22:29:29.261|56=EXC|10=154|
8=FIX.4.4|9=0051|35=0|34=137|49=EXC|56=002|52=20190507-22:29:58.000|10=018|
8=FIX.4.4|9=61|35=0|34=137|49=002|50=002B37|52=20190507-22:29:59.260|56=EXC|10=157|
8=FIX.4.4|9=0051|35=0|34=138|49=EXC|56=002|52=20190507-22:30:28.000|10=008|
8=FIX.4.4|9=61|35=0|34=138|49=002|50=002B37|52=20190507-22:30:29.260|56=EXC|10=147|
8=FIX.4.4|9=0051|35=0|34=139|49=EXC|56=002|52=20190507-22:30:58.000|10=012|
8=FIX.4.4|9=61|35=0|34=139|49=002|50=002B37|52=20190507-22:30:59.260|56=EXC|10=151|
8=FIX.4.4|9=0051|35=0|34=140|49=EXC|56=002|52=20190507-22:31:28.000|10=002|
8=FIX.4.4|9=61|35=0|34=140|49=002|50=002B37|52=20190507-22:31:29.260|56=EXC|10=141|
8=FIX.4.4|9=0051|35=0|34=141|49=EXC|56=002|52=20190507-22:31:58.000|10=006|
8=FIX.4.4|9=61|35=0|34=141|49=002|50=002B37|52=20190507-22:31:59.262|56=EXC|10=147|
8=FIX.4.4|9=0051|35=0|34=142|49=EXC|56=002|52=20190507-22:32:28.000|10=005|
8=FIX.4.4|9=61|35=0|34=142|49=002|50=002B37|52=20190507-22:32:29.261|56=EXC|10=145|
8=FIX.4.4|9=0051|35=0|34=143|49=EXC|56=002|52=20190507-22:32:58.000|10=009|
8=FIX.4.4|9=61|35=0|34=143|49=002|50=002B37|52=20190507-22:32:59.261|56=EXC|10=149|
8=FIX.4.4|9=0051|35=0|34=144|49=EXC|56=002|52=20190507-22:33:28.000|10=008|
8=FIX.4.4|9=61|35=0|34=144|49=002|50=002B37|52=20190507-22:33:29.260|56=EXC|10=147|
8=FIX.4.4|9=0051|35=0|34=145|49=EXC|56=002|52=20190507-22:33:58.000|10=012|
8=FIX.4.4|9=61|35=0|34=145|49=002|50=002B37|52=20190507-22:33:59.261|56=EXC|10=152|
8=FIX.4.4|9=0051|35=0|34=146|49=EXC|56=002|52=20190507-22:34:28.000|10=011|
8=FIX.4.4|9=61|35=0|34=146|49=002|50=002B37|52=20190507-22:34:29.261|56=EXC|10=151|
8=FIX.4.4|9=0051|35=0|34=147|49=EXC|56=002|52=20190507-22:34:58.000|10=015|
8=FIX.4.4|9=61|35=0|34=147|49=002|50=002B37|52=20190507-22:34:59.260|56=EXC|10=154|
8=FIX.4.4|9=0051|35=0|34=148|49=EXC|56=002|52=20190507-22:35:28.000|10=014|
8=FIX.4.4|9=61|35=0|34=148|49=002|50=002B37|52=20190507-22:35:29.261|56=EXC|10=154|
8=FIX.4.4|9=0051|35=0|34=149|49=EXC|56=002|52=20190507-22:35:58.000|10=018|
8=FIX.4.4|9=61|35=0|34=149|49=002|50=002B37|52=20190507-22:35:59.260|56=EXC|10=157|
8=FIX.4.4|9=0051|35=0|34=150|49=EXC|56=002|52=20190507-22:36:28.000|10=008|
8=FIX.4.4|9=61|35=0|34=150|49=002|50=002B37|52=20190507-22:36:29.260|56=EXC|10=147|
8=FIX.4.4|9=0051|35=0|34=151|49=EXC|56=002|52=20190507-22:36:58.000|10=012|
8=FIX.4.4|9=61|35=0|34=151|49=002|50=002B37|52=20190507-22:36:59.261|56=EXC|10=152|
8=FIX.4.4|9=0051|35=0|34=152|49=EXC|56=002|52=20190507-22:37:28.000|10=011|
8=FIX.4.4|9=61|35=0|34=152|49=002|50=002B37|52=20190507-22:37:29.261|56=EXC|10=151|
8=FIX.4.4|9=0051|35=0|34=153|49=EXC|56=002|52=20190507-22:37:58.000|10=015|
8=FIX.4.4|9=61|35=0|34=153|49=002|50=002B37|52=20190507-22:37:59.261|56=EXC|10=155|
8=FIX.4.4|9=0051|35=0|34=154|49=EXC|56=002|52=20190507-22:38:28.000|10=014|
8=FIX.4.4|9=61|35=0|34=154|49=002|50=002B37|52=20190507-22:38:29.260|56=EXC|10=153|
8=FIX.4.4|9=0051|35=0|34=155|49=EXC|56=002|52=20190507-22:38:58.000|10=018|
8=FIX.4.4|9=61|35=0|34=155|49=002|50=002B37|52=20190507-22:38:59.260|56=EXC|10=157|
8=FIX.4.4|9=0051|35=0|34=156|49=EXC|56=002|52=20190507-22:39:28.000|10=017|
8=FIX.4.4|9=61|35=0|34=156|49=002|50=002B37|52=20190507-22:39:29.260|56=EXC|10=156|
8=FIX.4.4|9=0051|35=0|34=157|49=EXC|56=002|52=20190507-22:39:58.000|10=021|
8=FIX.4.4|9=61|35=0|34=157|49=002|50=002B37|52=20190507-22:39:59.259|56=EXC|10=168|
8=FIX.4.4|9=0051|35=0|34=158|49=EXC|56=002|52=20190507-22:40:28.000|10=011|
8=FIX.4.4|9=61|35=0|34=158|49=002|50=002B37|52=20190507-22:40:29.260|56=EXC|10=150|
8=FIX.4.4|9=0051|35=0|34=159|49=EXC|56=002|52=20190507-22:40:58.000|10=015|
8=FIX.4.4|9=61|35=0|34=159|49=002|50=002B37|52=20190507-22:40:59.260|56=EXC|10=154|
8=FIX.4.4|9=0051|35=0|34=160|49=EXC|56=002|52=20190507-22:41:28.000|10=005|
8=FIX.4.4|9=61|35=0|34=160|49=002|50=002B37|52=20190507-22:41:29.259|56=EXC|10=152|
8=FIX.4.4|9=0051|35=0|34=161|49=EXC|56=002|52=20190507-22:41:58.000|10=009|
8=FIX.4.4|9=61|35=0|34=161|49=002|50=002B37|52=20190507-22:41:59.260|56=EXC|10=148|
8=FIX.4.4|9=0051|35=0|34=162|49=EXC|56=002|52=20190507-22:42:28.000|10=008|
8=FIX.4.4|9=61|35=0|34=162|49=002|50=002B37|52=20190507-22:42:29.261|56=EXC|10=148|
8=FIX.4.4|9=0051|35=0|34=163|49=EXC|56=002|52=20190507-22:42:58.000|10=012|
8=FIX.4.4|9=61|35=0|34=163|49=002|50=002B37|52=20190507-22:42:59.261|56=EXC|10=152|
8=FIX.4.4|9=0051|35=0|34=164|49=EXC|56=002|52=20190507-22:43:28.000|10=011|
8=FIX.4.4|9=61|35=0|34=164|49=002|50=002B37|52=20190507-22:43:29.260|56=EXC|10=150|
8=FIX.4.4|9=0051|35=0|34=165|49=EXC|56=002|52=20190507-22:43:58.000|10=015|
8=FIX.4.4|9=61|35=0|34=165|49=002|50=002B37|52=20190507-22:43:59.259|56=EXC|10=162|
8=FIX.4.4|9=0051|35=0|34=166|49=EXC|56=002|52=20190507-22:44:28.000|10=014|
8=FIX.4.4|9=61|35=0|34=166|49=002|50=002B37|52=20190507-22:44:29.259|56=EXC|10=161|
8=FIX.4.4|9=0051|35=0|34=167|49=EXC|56=002|52=20190507-22:44:58.000|10=018|
8=FIX.4.4|9=61|35=0|34=167|49=002|50=002B37|52=20190507-22:44:59.258|56=EXC|10=164|
8=FIX.4.4|9=0051|35=0|34=168|49=EXC|56=002|52=20190507-22:45:28.000|10=017|
8=FIX.4.4|9=61|35=0|34=168|49=002|50=002B37|52=20190507-22:45:29.258|56=EXC|10=163|
8=FIX.4.4|9=0051|35=0|34=169|49=EXC|56=002|52=20190507-22:45:58.000|10=021|
8=FIX.4.4|9=61|35=0|34=169|49=002|50=002B37|52=20190507-22:45:59.259|56=EXC|10=168|
8=FIX.4.4|9=0051|35=0|34=170|49=EXC|56=002|52=20190507-22:46:28.000|10=011|
8=FIX.4.4|9=61|35=0|34=170|49=002|50=002B37|52=20190507-22:46:29.258|56=EXC|10=157|
8=FIX.4.4|9=0051|35=0|34=171|49=EXC|56=002|52=20190507-22:46:58.000|10=015|
8=FIX.4.4|9=61|35=0|34=171|49=002|50=002B37|52=20190507-22:46:59.258|56=EXC|10=161|
8=FIX.4.4|9=0051|35=0|34=172|49=EXC|56=002|52=20190507-22:47:28.000|10=014|
8=FIX.4.4|9=61|35=0|34=172|49=002|50=002B37|52=20190507-22:47:29.256|56=EXC|10=158|
8=FIX.4.4|9=0051|35=0|34=173|49=EXC|56=002|52=20190507-22:47:58.000|10=018|
8=FIX.4.4|9=61|35=0|34=173|49=002|50=002B37|52=20190507-22:47:59.256|56=EXC|10=162|
8=FIX.4.4|9=0051|35=0|34=174|49=EXC|56=002|52=20190507-22:48:28.000|10=017|
8=FIX.4.4|9=61|35=0|34=174|49=002|50=002B37|52=20190507-22:48:29.256|56=EXC|10=161|
8=FIX.4.4|9=0051|35=0|34=175|49=EXC|56=002|52=20190507-22:48:58.000|10=021|
8=FIX.4.4|9=61|35=0|34=175|49=002|50=002B37|52=20190507-22:48:59.255|56=EXC|10=164|
8=FIX.4.4|9=0051|35=0|34=176|49=EXC|56=002|52=20190507-22:49:28.000|10=020|
8=FIX.4.4|9=61|35=0|34=176|49=002|50=002B37|52=20190507-22:49:29.255|56=EXC|10=163|
8=FIX.4.4|9=0051|35=0|34=177|49=EXC|56=002|52=20190507-22:49:58.000|10=024|
8=FIX.4.4|9=61|35=0|34=177|49=002|50=002B37|52=20190507-22:49:59.255|56=EXC|10=167|
8=FIX.4.4|9=0051|35=0|34=178|49=EXC|56=002|52=20190507-22:50:28.000|10=014|
8=FIX.4.4|9=61|35=0|34=178|49=002|50=002B37|52=20190507-22:50:29.255|56=EXC|10=157|
8=FIX.4.4|9=0051|35=0|34=179|49=EXC|56=002|52=20190507-22:50:58.000|10=018|
8=FIX.4.4|9=61|35=0|34=179|49=002|50=002B37|52=20190507-22:50:59.256|56=EXC|10=162|
8=FIX.4.4|9=0051|35=0|34=180|49=EXC|56=002|52=20190507-22:51:28.000|10=008|
8=FIX.4.4|9=61|35=0|34=180|49=002|50=002B37|52=20190507-22:51:29.255|56=EXC|10=151|
8=FIX.4.4|9=0051|35=0|34=181|49=EXC|56=002|52=20190507-22:51:58.000|10=012|
8=FIX.4.4|9=61|35=0|34=181|49=002|50=002B37|52=20190507-22:51:59.254|56=EXC|10=154|
8=FIX.4.4|9=0051|35=0|34=182|49=EXC|56=002|52=20190507-22:52:28.000|10=011|
8=FIX.4.4|9=61|35=0|34=182|49=002|50=002B37|52=20190507-22:52:29.254|56=EXC|10=153|
8=FIX.4.4|9=0051|35=0|34=183|49=EXC|56=002|52=20190507-22:52:58.000|10=015|
8=FIX.4.4|9=61|35=0|34=183|49=002|50=002B37|52=20190507-22:52:59.255|56=EXC|10=158|
8=FIX.4.4|9=0051|35=0|34=184|49=EXC|56=002|52=20190507-22:53:28.000|10=014|
8=FIX.4.4|9=61|35=0|34=184|49=002|50=002B37|52=20190507-22:53:29.254|56=EXC|10=156|
8=FIX.4.4|9=0051|35=0|34=185|49=EXC|56=002|52=20190507-22:53:58.000|10=018|
8=FIX.4.4|9=61|35=0|34=185|49=002|50=002B37|52=20190507-22:53:59.253|56=EXC|10=159|
8=FIX.4.4|9=0051|35=0|34=186|49=EXC|56=002|52=20190507-22:54:28.000|10=017|
8=FIX.4.4|9=61|35=0|34=186|49=002|50=002B37|52=20190507-22:54:29.253|56=EXC|10=158|
8=FIX.4.4|9=0051|35=0|34=187|49=EXC|56=002|52=20190507-22:54:58.000|10=021|
8=FIX.4.4|9=61|35=0|34=187|49=002|50=002B37|52=20190507-22:54:59.254|56=EXC|10=163|
8=FIX.4.4|9=110|35=A|34=1|49=002|50=002B37|52=20190507-23:03:55.960|56=EXC|43=Y|98=0|108=30|141=Y|553=002FCM002|554=002FCM002|10=090|
8=FIX.4.4|9=0067|35=A|34=1|49=EXC|56=002|52=20190507-23:03:55.957|98=0|108=30|141=Y|10=017|
8=FIX.4.4|9=0049|35=0|34=2|49=EXC|56=002|52=20190507-23:04:25.000|10=164|
8=FIX.4.4|9=59|35=0|34=2|49=002|50=002B37|52=20190507-23:04:26.887|56=EXC|10=062|
8=FIX.4.4|9=0049|35=0|34=3|49=EXC|56=002|52=20190507-23:04:55.000|10=168|
8=FIX.4.4|9=59|35=0|34=3|49=002|50=002B37|52=20190507-23:04:56.888|56=EXC|10=067|
8=FIX.4.4|9=0049|35=0|34=4|49=EXC|56=002|52=20190507-23:05:25.000|10=167|
8=FIX.4.4|9=59|35=0|34=4|49=002|50=002B37|52=20190507-23:05:26.888|56=EXC|10=066|
8=FIX.4.4|9=0049|35=0|34=5|49=EXC|56=002|52=20190507-23:05:55.000|10=171|
8=FIX.4.4|9=59|35=0|34=5|49=002|50=002B37|52=20190507-23:05:56.888|56=EXC|10=070|
8=FIX.4.4|9=0049|35=0|34=6|49=EXC|56=002|52=20190507-23:06:25.000|10=170|
8=FIX.4.4|9=59|35=0|34=6|49=002|50=002B37|52=20190507-23:06:26.888|56=EXC|10=069|
8=FIX.4.4|9=0049|35=0|34=7|49=EXC|56=002|52=20190507-23:06:55.000|10=174|
8=FIX.4.4|9=59|35=0|34=7|49=002|50=002B37|52=20190507-23:06:56.887|56=EXC|10=072|
8=FIX.4.4|9=0049|35=0|34=8|49=EXC|56=002|52=20190507-23:07:25.000|10=173|
8=FIX.4.4|9=59|35=0|34=8|49=002|50=002B37|52=20190507-23:07:26.888|56=EXC|10=072|
8=FIX.4.4|9=0049|35=0|34=9|49=EXC|56=002|52=20190507-23:07:55.000|10=177|
8=FIX.4.4|9=59|35=0|34=9|49=002|50=002B37|52=20190507-23:07:56.887|56=EXC|10=075|
8=FIX.4.4|9=0050|35=0|34=10|49=EXC|56=002|52=20190507-23:08:25.000|10=207|
8=FIX.4.4|9=60|35=0|34=10|49=002|50=002B37|52=20190507-23:08:26.887|56=EXC|10=105|
8=FIX.4.4|9=0050|35=0|34=11|49=EXC|56=002|52=20190507-23:08:55.000|10=211|
8=FIX.4.4|9=60|35=0|34=11|49=002|50=002B37|52=20190507-23:08:56.887|56=EXC|10=109|
8=FIX.4.4|9=0050|35=0|34=12|49=EXC|56=002|52=20190507-23:09:25.000|10=210|
8=FIX.4.4|9=60|35=0|34=12|49=002|50=002B37|52=20190507-23:09:26.888|56=EXC|10=109|
8=FIX.4.4|9=110|35=A|34=1|49=002|50=002B37|52=20190507-23:09:40.884|56=EXC|43=Y|98=0|108=30|141=Y|553=002FCM002|554=002FCM002|10=095|
8=FIX.4.4|9=0067|35=A|34=1|49=EXC|56=002|52=20190507-23:09:40.883|98=0|108=30|141=Y|10=015|
8=FIX.4.4|9=0049|35=0|34=2|49=EXC|56=002|52=20190507-23:10:10.000|10=155|
8=FIX.4.4|9=59|35=0|34=2|49=002|50=002B37|52=20190507-23:10:11.807|56=EXC|10=045|
8=FIX.4.4|9=0049|35=0|34=3|49=EXC|56=002|52=20190507-23:10:40.000|10=159|
8=FIX.4.4|9=59|35=0|34=3|49=002|50=002B37|52=20190507-23:10:41.806|56=EXC|10=048|
8=FIX.4.4|9=0049|35=0|34=4|49=EXC|56=002|52=20190507-23:11:10.000|10=158|
8=FIX.4.4|9=59|35=0|34=4|49=002|50=002B37|52=20190507-23:11:11.807|56=EXC|10=048|
8=FIX.4.4|9=0049|35=0|34=5|49=EXC|56=002|52=20190507-23:11:40.000|10=162|
8=FIX.4.4|9=59|35=0|34=5|49=002|50=002B37|52=20190507-23:11:41.807|56=EXC|10=052|
8=FIX.4.4|9=0049|35=0|34=6|49=EXC|56=002|52=20190507-23:12:10.000|10=161|
8=FIX.4.4|9=59|35=0|34=6|49=002|50=002B37|52=20190507-23:12:11.808|56=EXC|10=052|
8=FIX.4.4|9=0049|35=0|34=7|49=EXC|56=002|52=20190507-23:12:40.000|10=165|
8=FIX.4.4|9=59|35=0|34=7|49=002|50=002B37|52=20190507-23:12:41.806|56=EXC|10=054|
8=FIX.4.4|9=0049|35=0|34=8|49=EXC|56=002|52=20190507-23:13:10.000|10=164|
8=FIX.4.4|9=59|35=0|34=8|49=002|50=002B37|52=20190507-23:13:11.807|56=EXC|10=054|
8=FIX.4.4|9=104|35=A|34=9|49=002|50=002B37|52=20190507-23:13:33.445|56=EXC|43=Y|98=0|108=30|553=002FCM002|554=002FCM002|10=051|
8=FIX.4.4|9=0061|35=A|34=9|49=EXC|56=002|52=20190507-23:13:33.436|98=0|108=30|10=219|
8=FIX.4.4|9=105|35=A|34=10|49=002|50=002B37|52=20190507-23:13:34.814|56=EXC|43=Y|98=0|108=30|553=002FCM002|554=002FCM002|10=093|
8=FIX.4.4|9=0062|35=A|34=10|49=EXC|56=002|52=20190507-23:13:34.806|98=0|108=30|10=006|
8=FIX.4.4|9=0050|35=0|34=11|49=EXC|56=002|52=20190507-23:14:04.000|10=202|
8=FIX.4.4|9=60|35=0|34=11|49=002|50=002B37|52=20190507-23:14:04.807|56=EXC|10=091|
8=FIX.4.4|9=110|35=A|34=1|49=002|50=002B37|52=20190507-23:23:36.767|56=EXC|43=Y|98=0|108=30|141=Y|553=002FCM002|554=002FCM002|10=096|
8=FIX.4.4|9=0067|35=A|34=1|49=EXC|56=002|52=20190507-23:23:36.766|98=0|108=30|141=Y|10=016|
8=FIX.4.4|9=0049|35=0|34=2|49=EXC|56=002|52=20190507-23:24:06.000|10=165|
8=FIX.4.4|9=59|35=0|34=2|49=002|50=002B37|52=20190507-23:24:07.686|56=EXC|10=060|
8=FIX.4.4|9=0049|35=0|34=3|49=EXC|56=002|52=20190507-23:24:36.000|10=169|
8=FIX.4.4|9=59|35=0|34=3|49=002|50=002B37|52=20190507-23:24:37.685|56=EXC|10=063|
8=FIX.4.4|9=0049|35=0|34=4|49=EXC|56=002|52=20190507-23:25:06.000|10=168|
8=FIX.4.4|9=59|35=0|34=4|49=002|50=002B37|52=20190507-23:25:07.685|56=EXC|10=062|
8=FIX.4.4|9=0049|35=0|34=5|49=EXC|56=002|52=20190507-23:25:36.000|10=172|
8=FIX.4.4|9=59|35=0|34=5|49=002|50=002B37|52=20190507-23:25:37.686|56=EXC|10=067|
8=FIX.4.4|9=0049|35=0|34=6|49=EXC|56=002|52=20190507-23:26:06.000|10=171|
8=FIX.4.4|9=59|35=0|34=6|49=002|50=002B37|52=20190507-23:26:07.687|56=EXC|10=067|
8=FIX.4.4|9=0049|35=0|34=7|49=EXC|56=002|52=20190507-23:26:36.000|10=175|
8=FIX.4.4|9=59|35=0|34=7|49=002|50=002B37|52=20190507-23:26:37.686|56=EXC|10=070|
8=FIX.4.4|9=0049|35=0|34=8|49=EXC|56=002|52=20190507-23:27:06.000|10=174|
8=FIX.4.4|9=59|35=0|34=8|49=002|50=002B37|52=20190507-23:27:07.687|56=EXC|10=070|
8=FIX.4.4|9=0049|35=0|34=9|49=EXC|56=002|52=20190507-23:27:36.000|10=178|
8=FIX.4.4|9=59|35=0|34=9|49=002|50=002B37|52=20190507-23:27:37.685|56=EXC|10=072|
8=FIX.4.4|9=0050|35=0|34=10|49=EXC|56=002|52=20190507-23:28:06.000|10=208|
8=FIX.4.4|9=60|35=0|34=10|49=002|50=002B37|52=20190507-23:28:07.685|56=EXC|10=102|
8=FIX.4.4|9=0050|35=0|34=11|49=EXC|56=002|52=20190507-23:28:36.000|10=212|
8=FIX.4.4|9=60|35=0|34=11|49=002|50=002B37|52=20190507-23:28:37.686|56=EXC|10=107|
8=FIX.4.4|9=0050|35=0|34=12|49=EXC|56=002|52=20190507-23:29:06.000|10=211|
8=FIX.4.4|9=60|35=0|34=12|49=002|50=002B37|52=20190507-23:29:07.686|56=EXC|10=106|
8=FIX.4.4|9=0050|35=0|34=13|49=EXC|56=002|52=20190507-23:29:36.000|10=215|
8=FIX.4.4|9=60|35=0|34=13|49=002|50=002B37|52=20190507-23:29:37.685|56=EXC|10=109|
8=FIX.4.4|9=0050|35=0|34=14|49=EXC|56=002|52=20190507-23:30:06.000|10=205|
8=FIX.4.4|9=60|35=0|34=14|49=002|50=002B37|52=20190507-23:30:07.685|56=EXC|10=099|
8=FIX.4.4|9=0050|35=0|34=15|49=EXC|56=002|52=20190507-23:30:36.000|10=209|
8=FIX.4.4|9=60|35=0|34=15|49=002|50=002B37|52=20190507-23:30:37.685|56=EXC|10=103|
8=FIX.4.4|9=0050|35=0|34=16|49=EXC|56=002|52=20190507-23:31:06.000|10=208|
8=FIX.4.4|9=60|35=0|34=16|49=002|50=002B37|52=20190507-23:31:07.687|56=EXC|10=104|
8=FIX.4.4|9=0050|35=0|34=17|49=EXC|56=002|52=20190507-23:31:36.000|10=212|
8=FIX.4.4|9=60|35=0|34=17|49=002|50=002B37|52=20190507-23:31:37.685|56=EXC|10=106|
8=FIX.4.4|9=0050|35=0|34=18|49=EXC|56=002|52=20190507-23:32:06.000|10=211|
8=FIX.4.4|9=60|35=0|34=18|49=002|50=002B37|52=20190507-23:32:07.685|56=EXC|10=105|
8=FIX.4.4|9=110|35=A|34=1|49=002|50=002B37|52=20190507-23:32:41.901|56=EXC|43=Y|98=0|108=30|141=Y|553=002FCM002|554=002FCM002|10=082|
8=FIX.4.4|9=0067|35=A|34=1|49=EXC|56=002|52=20190507-23:32:41.899|98=0|108=30|141=Y|10=019|
8=FIX.4.4|9=0049|35=0|34=2|49=EXC|56=002|52=20190507-23:33:11.000|10=161|
8=FIX.4.4|9=59|35=0|34=2|49=002|50=002B37|52=20190507-23:33:12.806|56=EXC|10=050|
8=FIX.4.4|9=0049|35=0|34=3|49=EXC|56=002|52=20190507-23:33:41.000|10=165|
8=FIX.4.4|9=59|35=0|34=3|49=002|50=002B37|52=20190507-23:33:42.807|56=EXC|10=055|
8=FIX.4.4|9=110|35=A|34=1|49=002|50=002B37|52=20190507-23:33:48.877|56=EXC|43=Y|98=0|108=30|141=Y|553=002FCM002|554=002FCM002|10=102|
8=FIX.4.4|9=0067|35=A|34=1|49=EXC|56=002|52=20190507-23:33:48.875|98=0|108=30|141=Y|10=021|
8=FIX.4.4|9=0049|35=0|34=2|49=EXC|56=002|52=20190507-23:34:18.000|10=169|
8=FIX.4.4|9=59|35=0|34=2|49=002|50=002B37|52=20190507-23:34:19.798|56=EXC|10=068|
8=FIX.4.4|9=0049|35=0|34=3|49=EXC|56=002|52=20190507-23:34:48.000|10=173|
8=FIX.4.4|9=59|35=0|34=3|49=002|50=002B37|52=20190507-23:34:49.796|56=EXC|10=070|
8=FIX.4.4|9=0049|35=0|34=4|49=EXC|56=002|52=20190507-23:35:18.000|10=172|
8=FIX.4.4|9=59|35=0|34=4|49=002|50=002B37|52=20190507-23:35:19.798|56=EXC|10=071|
8=FIX.4.4|9=0049|35=0|34=5|49=EXC|56=002|52=20190507-23:35:48.000|10=176|
8=FIX.4.4|9=59|35=0|34=5|49=002|50=002B37|52=20190507-23:35:49.797|56=EXC|10=074|
8=FIX.4.4|9=0049|35=0|34=6|49=EXC|56=002|52=20190507-23:36:18.000|10=175|
8=FIX.4.4|9=59|35=0|34=6|49=002|50=002B37|52=20190507-23:36:19.798|56=EXC|10=074|
8=FIX.4.4|9=0049|35=0|34=7|49=EXC|56=002|52=20190507-23:36:48.000|10=179|
8=FIX.4.4|9=59|35=0|34=7|49=002|50=002B37|52=20190507-23:36:49.798|56=EXC|10=078|
8=FIX.4.4|9=0049|35=0|34=8|49=EXC|56=002|52=20190507-23:37:18.000|10=178|
8=FIX.4.4|9=59|35=0|34=8|49=002|50=002B37|52=20190507-23:37:19.798|56=EXC|10=077|
8=FIX.4.4|9=0049|35=0|34=9|49=EXC|56=002|52=20190507-23:37:48.000|10=182|
8=FIX.4.4|9=59|35=0|34=9|49=002|50=002B37|52=20190507-23:37:49.798|56=EXC|10=081|
8=FIX.4.4|9=0050|35=0|34=10|49=EXC|56=002|52=20190507-23:38:18.000|10=212|
8=FIX.4.4|9=60|35=0|34=10|49=002|50=002B37|52=20190507-23:38:19.796|56=EXC|10=109|
8=FIX.4.4|9=110|35=A|34=1|49=002|50=002B37|52=20190507-23:38:51.210|56=EXC|43=Y|98=0|108=30|141=Y|553=002FCM002|554=002FCM002|10=082|
8=FIX.4.4|9=0067|35=A|34=1|49=EXC|56=002|52=20190507-23:38:51.206|98=0|108=30|141=Y|10=008|
8=FIX.4.4|9=0049|35=0|34=2|49=EXC|56=002|52=20190507-23:39:21.000|10=168|
8=FIX.4.4|9=59|35=0|34=2|49=002|50=002B37|52=20190507-23:39:22.145|56=EXC|10=053|
8=FIX.4.4|9=0049|35=0|34=3|49=EXC|56=002|52=20190507-23:39:51.000|10=172|
8=FIX.4.4|9=59|35=0|34=3|49=002|50=002B37|52=20190507-23:39:52.146|56=EXC|10=058|
8=FIX.4.4|9=110|35=A|34=1|49=002|50=002B37|52=20190507-23:42:40.862|56=EXC|43=Y|98=0|108=30|141=Y|553=002FCM002|554=002FCM002|10=088|
8=FIX.4.4|9=0067|35=A|34=1|49=EXC|56=002|52=20190507-23:42:40.861|98=0|108=30|141=Y|10=008|
8=FIX.4.4|9=0049|35=0|34=2|49=EXC|56=002|52=20190507-23:43:10.000|10=161|
8=FIX.4.4|9=59|35=0|34=2|49=002|50=002B37|52=20190507-23:43:11.828|56=EXC|10=054|
8=FIX.4.4|9=110|35=A|34=1|49=002|50=002B37|52=20190507-23:43:40.990|56=EXC|43=Y|98=0|108=30|141=Y|553=002FCM002|554=002FCM002|10=091|
8=FIX.4.4|9=0067|35=A|34=1|49=EXC|56=002|52=20190507-23:43:40.987|98=0|108=30|141=Y|10=018|
8=FIX.4.4|9=0049|35=0|34=2|49=EXC|56=002|52=20190507-23:44:10.000|10=162|
8=FIX.4.4|9=59|35=0|34=2|49=002|50=002B37|52=20190507-23:44:11.910|56=EXC|10=047|
8=FIX.4.4|9=0049|35=0|34=3|49=EXC|56=002|52=20190507-23:44:40.000|10=166|
8=FIX.4.4|9=59|35=0|34=3|49=002|50=002B37|52=20190507-23:44:41.910|56=EXC|10=051|
8=FIX.4.4|9=0049|35=0|34=4|49=EXC|56=002|52=20190507-23:45:10.000|10=165|
8=FIX.4.4|9=59|35=0|34=4|49=002|50=002B37|52=20190507-23:45:11.910|56=EXC|10=050|
8=FIX.4.4|9=0049|35=0|34=5|49=EXC|56=002|52=20190507-23:45:40.000|10=169|
8=FIX.4.4|9=59|35=0|34=5|49=002|50=002B37|52=20190507-23:45:41.911|56=EXC|10=055|
8=FIX.4.4|9=0049|35=0|34=6|49=EXC|56=002|52=20190507-23:46:10.000|10=168|
8=FIX.4.4|9=59|35=0|34=6|49=002|50=002B37|52=20190507-23:46:11.910|56=EXC|10=053|
8=FIX.4.4|9=0049|35=0|34=7|49=EXC|56=002|52=20190507-23:46:40.000|10=172|
8=FIX.4.4|9=59|35=0|34=7|49=002|50=002B37|52=20190507-23:46:41.911|56=EXC|10=058|
8=FIX.4.4|9=0049|35=0|34=8|49=EXC|56=002|52=20190507-23:47:10.000|10=171|
8=FIX.4.4|9=59|35=0|34=8|49=002|50=002B37|52=20190507-23:47:11.910|56=EXC|10=056|
8=FIX.4.4|9=0049|35=0|34=9|49=EXC|56=002|52=20190507-23:47:40.000|10=175|
8=FIX.4.4|9=59|35=0|34=9|49=002|50=002B37|52=20190507-23:47:41.910|56=EXC|10=060|
8=FIX.4.4|9=0050|35=0|34=10|49=EXC|56=002|52=20190507-23:48:10.000|10=205|
8=FIX.4.4|9=60|35=0|34=10|49=002|50=002B37|52=20190507-23:48:11.910|56=EXC|10=090|
8=FIX.4.4|9=0050|35=0|34=11|49=EXC|56=002|52=20190507-23:48:40.000|10=209|
8=FIX.4.4|9=60|35=0|34=11|49=002|50=002B37|52=20190507-23:48:41.911|56=EXC|10=095|
8=FIX.4.4|9=0050|35=0|34=12|49=EXC|56=002|52=20190507-23:49:10.000|10=208|
8=FIX.4.4|9=60|35=0|34=12|49=002|50=002B37|52=20190507-23:49:11.911|56=EXC|10=094|
8=FIX.4.4|9=0050|35=0|34=13|49=EXC|56=002|52=20190507-23:49:40.000|10=212|
8=FIX.4.4|9=60|35=0|34=13|49=002|50=002B37|52=20190507-23:49:41.912|56=EXC|10=099|
8=FIX.4.4|9=0050|35=0|34=14|49=EXC|56=002|52=20190507-23:50:10.000|10=202|
8=FIX.4.4|9=60|35=0|34=14|49=002|50=002B37|52=20190507-23:50:11.910|56=EXC|10=087|
8=FIX.4.4|9=0050|35=0|34=15|49=EXC|56=002|52=20190507-23:50:40.000|10=206|
8=FIX.4.4|9=60|35=0|34=15|49=002|50=002B37|52=20190507-23:50:41.911|56=EXC|10=092|
8=FIX.4.4|9=0050|35=0|34=16|49=EXC|56=002|52=20190507-23:51:10.000|10=205|
8=FIX.4.4|9=60|35=0|34=16|49=002|50=002B37|52=20190507-23:51:11.910|56=EXC|10=090|
8=FIX.4.4|9=0050|35=0|34=17|49=EXC|56=002|52=20190507-23:51:40.000|10=209|
8=FIX.4.4|9=60|35=0|34=17|49=002|50=002B37|52=20190507-23:51:41.911|56=EXC|10=095|
8=FIX.4.4|9=0050|35=0|34=18|49=EXC|56=002|52=20190507-23:52:10.000|10=208|
8=FIX.4.4|9=60|35=0|34=18|49=002|50=002B37|52=20190507-23:52:11.911|56=EXC|10=094|
8=FIX.4.4|9=0050|35=0|34=19|49=EXC|56=002|52=20190507-23:52:40.000|10=212|
8=FIX.4.4|9=110|35=A|34=1|49=002|50=002B37|52=20190507-23:52:47.019|56=EXC|43=Y|98=0|108=30|141=Y|553=002FCM002|554=002FCM002|10=090|
8=FIX.4.4|9=0067|35=A|34=1|49=EXC|56=002|52=20190507-23:52:47.013|98=0|108=30|141=Y|10=005|
8=FIX.4.4|9=0049|35=0|34=2|49=EXC|56=002|52=20190507-23:53:17.000|10=169|
8=FIX.4.4|9=59|35=0|34=2|49=002|50=002B37|52=20190507-23:53:17.032|56=EXC|10=048|
8=FIX.4.4|9=0049|35=0|34=3|49=EXC|56=002|52=20190507-23:53:47.000|10=173|
8=FIX.4.4|9=59|35=0|34=3|49=002|50=002B37|52=20190507-23:53:47.032|56=EXC|10=052|
8=FIX.4.4|9=0049|35=0|34=4|49=EXC|56=002|52=20190507-23:54:17.000|10=172|
8=FIX.4.4|9=59|35=0|34=4|49=002|50=002B37|52=20190507-23:54:17.033|56=EXC|10=052|
8=FIX.4.4|9=0049|35=0|34=5|49=EXC|56=002|52=20190507-23:54:47.000|10=176|
8=FIX.4.4|9=59|35=0|34=5|49=002|50=002B37|52=20190507-23:54:47.032|56=EXC|10=055|
8=FIX.4.4|9=0049|35=0|34=6|49=EXC|56=002|52=20190507-23:55:17.000|10=175|
8=FIX.4.4|9=59|35=0|34=6|49=002|50=002B37|52=20190507-23:55:17.031|56=EXC|10=053|
8=FIX.4.4|9=0049|35=0|34=7|49=EXC|56=002|52=20190507-23:55:47.000|10=179|
8=FIX.4.4|9=59|35=0|34=7|49=002|50=002B37|52=20190507-23:55:47.031|56=EXC|10=057|
8=FIX.4.4|9=110|35=A|34=1|49=002|50=002B37|52=20190507-23:59:24.703|56=EXC|43=Y|98=0|108=30|141=Y|553=002FCM002|554=002FCM002|10=092|
8=FIX.4.4|9=0067|35=A|34=1|49=EXC|56=002|52=20190507-23:59:24.697|98=0|108=30|141=Y|10=025|
8=FIX.4.4|9=110|35=A|34=1|49=002|50=002B37|52=20190508-00:00:09.693|56=EXC|43=Y|98=0|108=30|141=Y|553=002FCM002|554=002FCM002|10=085|
8=FIX.4.4|9=0067|35=A|34=1|49=EXC|56=002|52=20190508-00:00:09.687|98=0|108=30|141=Y|10=009|
8=FIX.4.4|9=0049|35=0|34=2|49=EXC|56=002|52=20190508-00:00:39.000|10=161|
8=FIX.4.4|9=59|35=0|34=2|49=002|50=002B37|52=20190508-00:00:40.634|56=EXC|10=040|
8=FIX.4.4|9=0049|35=0|34=3|49=EXC|56=002|52=20190508-00:01:09.000|10=160|
8=FIX.4.4|9=59|35=0|34=3|49=002|50=002B37|52=20190508-00:01:10.632|56=EXC|10=037|
8=FIX.4.4|9=0049|35=0|34=4|49=EXC|56=002|52=20190508-00:01:39.000|10=164|
8=FIX.4.4|9=59|35=0|34=4|49=002|50=002B37|52=20190508-00:01:40.634|56=EXC|10=043|
8=FIX.4.4|9=0049|35=0|34=5|49=EXC|56=002|52=20190508-00:02:09.000|10=163|
8=FIX.4.4|9=59|35=0|34=5|49=002|50=002B37|52=20190508-00:02:10.634|56=EXC|10=042|
8=FIX.4.4|9=0049|35=0|34=6|49=EXC|56=002|52=20190508-00:02:39.000|10=167|
8=FIX.4.4|9=59|35=0|34=6|49=002|50=002B37|52=20190508-00:02:40.634|56=EXC|10=046|
8=FIX.4.4|9=0049|35=0|34=7|49=EXC|56=002|52=20190508-00:03:09.000|10=166|
8=FIX.4.4|9=59|35=0|34=7|49=002|50=002B37|52=20190508-00:03:10.634|56=EXC|10=045|
8=FIX.4.4|9=0049|35=0|34=8|49=EXC|56=002|52=20190508-00:03:39.000|10=170|
8=FIX.4.4|9=59|35=0|34=8|49=002|50=002B37|52=20190508-00:03:40.634|56=EXC|10=049|
8=FIX.4.4|9=0049|35=0|34=9|49=EXC|56=002|52=20190508-00:04:09.000|10=169|
8=FIX.4.4|9=59|35=0|34=9|49=002|50=002B37|52=20190508-00:04:10.634|56=EXC|10=048|
8=FIX.4.4|9=110|35=A|34=1|49=002|50=002B37|52=20190508-00:15:49.139|56=EXC|43=Y|98=0|108=30|141=Y|553=002FCM002|554=002FCM002|10=090|
8=FIX.4.4|9=0067|35=A|34=1|49=EXC|56=002|52=20190508-00:15:49.132|98=0|108=30|141=Y|10=004|
8=FIX.4.4|9=0049|35=0|34=2|49=EXC|56=002|52=20190508-00:16:19.000|10=166|
8=FIX.4.4|9=59|35=0|34=2|49=002|50=002B37|52=20190508-00:16:20.062|56=EXC|10=040|
8=FIX.4.4|9=110|35=A|34=1|49=002|50=002B37|52=20190508-00:20:04.214|56=EXC|43=Y|98=0|108=30|141=Y|553=002FCM002|554=002FCM002|10=071|
8=FIX.4.4|9=0067|35=A|34=1|49=EXC|56=002|52=20190508-00:20:03.956|98=0|108=30|141=Y|10=004|
8=FIX.4.4|9=0049|35=0|34=2|49=EXC|56=002|52=20190508-00:20:33.000|10=157|
8=FIX.4.4|9=59|35=0|34=2|49=002|50=002B37|52=20190508-00:20:35.131|56=EXC|10=038|
8=FIX.4.4|9=0049|35=0|34=3|49=EXC|56=002|52=20190508-00:21:03.000|10=156|
8=FIX.4.4|9=59|35=0|34=3|49=002|50=002B37|52=20190508-00:21:05.133|56=EXC|10=039|
8=FIX.4.4|9=0049|35=0|34=4|49=EXC|56=002|52=20190508-00:21:33.000|10=160|
8=FIX.4.4|9=59|35=0|34=4|49=002|50=002B37|52=20190508-00:21:35.131|56=EXC|10=041|
8=FIX.4.4|9=110|35=A|34=1|49=002|50=002B37|52=20190508-00:22:13.191|56=EXC|43=Y|98=0|108=30|141=Y|553=002FCM002|554=002FCM002|10=077|
8=FIX.4.4|9=0067|35=A|34=1|49=EXC|56=002|52=20190508-00:22:12.908|98=0|108=30|141=Y|10=003|
8=FIX.4.4|9=0049|35=0|34=2|49=EXC|56=002|52=20190508-00:22:42.000|10=159|
8=FIX.4.4|9=59|35=0|34=2|49=002|50=002B37|52=20190508-00:22:44.108|56=EXC|10=044|
8=FIX.4.4|9=0049|35=0|34=3|49=EXC|56=002|52=20190508-00:23:12.000|10=158|
8=FIX.4.4|9=59|35=0|34=3|49=002|50=002B37|52=20190508-00:23:14.109|56=EXC|10=044|
8=FIX.4.4|9=0049|35=0|34=4|49=EXC|56=002|52=20190508-00:23:42.000|10=162|
8=FIX.4.4|9=59|35=0|34=4|49=002|50=002B37|52=20190508-00:23:44.109|56=EXC|10=048|
8=FIX.4.4|9=0049|35=0|34=5|49=EXC|56=002|52=20190508-00:24:12.000|10=161|
8=FIX.4.4|9=59|35=0|34=5|49=002|50=002B37|52=20190508-00:24:14.109|56=EXC|10=047|
8=FIX.4.4|9=0049|35=0|34=6|49=EXC|56=002|52=20190508-00:24:42.000|10=165|
8=FIX.4.4|9=59|35=0|34=6|49=002|50=002B37|52=20190508-00:24:44.109|56=EXC|10=051|
8=FIX.4.4|9=0049|35=0|34=7|49=EXC|56=002|52=20190508-00:25:12.000|10=164|
8=FIX.4.4|9=59|35=0|34=7|49=002|50=002B37|52=20190508-00:25:14.108|56=EXC|10=049|
8=FIX.4.4|9=0049|35=0|34=8|49=EXC|56=002|52=20190508-00:25:42.000|10=168|
8=FIX.4.4|9=59|35=0|34=8|49=002|50=002B37|52=20190508-00:25:44.110|56=EXC|10=046|
8=FIX.4.4|9=0049|35=0|34=9|49=EXC|56=002|52=20190508-00:26:12.000|10=167|
8=FIX.4.4|9=59|35=0|34=9|49=002|50=002B37|52=20190508-00:26:14.110|56=EXC|10=045|
8=FIX.4.4|9=0050|35=0|34=10|49=EXC|56=002|52=20190508-00:26:42.000|10=202|
8=FIX.4.4|9=60|35=0|34=10|49=002|50=002B37|52=20190508-00:26:44.109|56=EXC|10=088|
8=FIX.4.4|9=0050|35=0|34=11|49=EXC|56=002|52=20190508-00:27:12.000|10=201|
8=FIX.4.4|9=60|35=0|34=11|49=002|50=002B37|52=20190508-00:27:14.109|56=EXC|10=087|
8=FIX.4.4|9=0050|35=0|34=12|49=EXC|56=002|52=20190508-00:27:42.000|10=205|
8=FIX.4.4|9=60|35=0|34=12|49=002|50=002B37|52=20190508-00:27:44.110|56=EXC|10=083|
8=FIX.4.4|9=110|35=A|34=1|49=002|50=002B37|52=20190508-00:28:07.247|56=EXC|43=Y|98=0|108=30|141=Y|553=002FCM002|554=002FCM002|10=088|
8=FIX.4.4|9=0067|35=A|34=1|49=EXC|56=002|52=20190508-00:28:06.983|98=0|108=30|141=Y|10=015|
8=FIX.4.4|9=0049|35=0|34=2|49=EXC|56=002|52=20190508-00:28:36.000|10=168|
8=FIX.4.4|9=59|35=0|34=2|49=002|50=002B37|52=20190508-00:28:38.160|56=EXC|10=051|
8=FIX.4.4|9=0049|35=0|34=3|49=EXC|56=002|52=20190508-00:29:06.000|10=167|
8=FIX.4.4|9=59|35=0|34=3|49=002|50=002B37|52=20190508-00:29:08.158|56=EXC|10=057|
8=FIX.4.4|9=0049|35=0|34=4|49=EXC|56=002|52=20190508-00:29:36.000|10=171|
8=FIX.4.4|9=59|35=0|34=4|49=002|50=002B37|52=20190508-00:29:38.157|56=EXC|10=060|
8=FIX.4.4|9=0049|35=0|34=5|49=EXC|56=002|52=20190508-00:30:06.000|10=161|
8=FIX.4.4|9=59|35=0|34=5|49=002|50=002B37|52=20190508-00:30:08.158|56=EXC|10=051|
8=FIX.4.4|9=0049|35=0|34=6|49=EXC|56=002|52=20190508-00:30:36.000|10=165|
8=FIX.4.4|9=59|35=0|34=6|49=002|50=002B37|52=20190508-00:30:38.158|56=EXC|10=055|
8=FIX.4.4|9=0049|35=0|34=7|49=EXC|56=002|52=20190508-00:31:06.000|10=164|
8=FIX.4.4|9=59|35=0|34=7|49=002|50=002B37|52=20190508-00:31:08.157|56=EXC|10=053|
8=FIX.4.4|9=0049|35=0|34=8|49=EXC|56=002|52=20190508-00:31:36.000|10=168|
8=FIX.4.4|9=59|35=0|34=8|49=002|50=002B37|52=20190508-00:31:38.158|56=EXC|10=058|
8=FIX.4.4|9=0049|35=0|34=9|49=EXC|56=002|52=20190508-00:32:06.000|10=167|
8=FIX.4.4|9=59|35=0|34=9|49=002|50=002B37|52=20190508-00:32:08.158|56=EXC|10=057|
8=FIX.4.4|9=0050|35=0|34=10|49=EXC|56=002|52=20190508-00:32:36.000|10=202|
8=FIX.4.4|9=60|35=0|34=10|49=002|50=002B37|52=20190508-00:32:38.158|56=EXC|10=092|
8=FIX.4.4|9=0050|35=0|34=11|49=EXC|56=002|52=20190508-00:33:06.000|10=201|
8=FIX.4.4|9=60|35=0|34=11|49=002|50=002B37|52=20190508-00:33:08.158|56=EXC|10=091|
8=FIX.4.4|9=0050|35=0|34=12|49=EXC|56=002|52=20190508-00:33:36.000|10=205|
8=FIX.4.4|9=60|35=0|34=12|49=002|50=002B37|52=20190508-00:33:38.159|56=EXC|10=096|
8=FIX.4.4|9=0050|35=0|34=13|49=EXC|56=002|52=20190508-00:34:06.000|10=204|
8=FIX.4.4|9=60|35=0|34=13|49=002|50=002B37|52=20190508-00:34:08.158|56=EXC|10=094|
8=FIX.4.4|9=0050|35=0|34=14|49=EXC|56=002|52=20190508-00:34:36.000|10=208|
8=FIX.4.4|9=60|35=0|34=14|49=002|50=002B37|52=20190508-00:34:38.157|56=EXC|10=097|
8=FIX.4.4|9=0050|35=0|34=15|49=EXC|56=002|52=20190508-00:35:06.000|10=207|
8=FIX.4.4|9=60|35=0|34=15|49=002|50=002B37|52=20190508-00:35:08.158|56=EXC|10=097|
8=FIX.4.4|9=0050|35=0|34=16|49=EXC|56=002|52=20190508-00:35:36.000|10=211|
8=FIX.4.4|9=60|35=0|34=16|49=002|50=002B37|52=20190508-00:35:38.158|56=EXC|10=101|
8=FIX.4.4|9=0050|35=0|34=17|49=EXC|56=002|52=20190508-00:36:06.000|10=210|
8=FIX.4.4|9=60|35=0|34=17|49=002|50=002B37|52=20190508-00:36:08.158|56=EXC|10=100|
8=FIX.4.4|9=0050|35=0|34=18|49=EXC|56=002|52=20190508-00:36:36.000|10=214|
8=FIX.4.4|9=60|35=0|34=18|49=002|50=002B37|52=20190508-00:36:38.158|56=EXC|10=104|
8=FIX.4.4|9=0050|35=0|34=19|49=EXC|56=002|52=20190508-00:37:06.000|10=213|
8=FIX.4.4|9=60|35=0|34=19|49=002|50=002B37|52=20190508-00:37:08.158|56=EXC|10=103|
8=FIX.4.4|9=0050|35=0|34=20|49=EXC|56=002|52=20190508-00:37:36.000|10=208|
8=FIX.4.4|9=60|35=0|34=20|49=002|50=002B37|52=20190508-00:37:38.159|56=EXC|10=099|
8=FIX.4.4|9=0050|35=0|34=21|49=EXC|56=002|52=20190508-00:38:06.000|10=207|
8=FIX.4.4|9=60|35=0|34=21|49=002|50=002B37|52=20190508-00:38:08.157|56=EXC|10=096|
8=FIX.4.4|9=0050|35=0|34=22|49=EXC|56=002|52=20190508-00:38:36.000|10=211|
8=FIX.4.4|9=60|35=0|34=22|49=002|50=002B37|52=20190508-00:38:38.158|56=EXC|10=101|
8=FIX.4.4|9=0050|35=0|34=23|49=EXC|56=002|52=20190508-00:39:06.000|10=210|
8=FIX.4.4|9=60|35=0|34=23|49=002|50=002B37|52=20190508-00:39:08.157|56=EXC|10=099|
8=FIX.4.4|9=0050|35=0|34=24|49=EXC|56=002|52=20190508-00:39:36.000|10=214|
8=FIX.4.4|9=60|35=0|34=24|49=002|50=002B37|52=20190508-00:39:38.158|56=EXC|10=104|
8=FIX.4.4|9=0050|35=0|34=25|49=EXC|56=002|52=20190508-00:40:06.000|10=204|
8=FIX.4.4|9=60|35=0|34=25|49=002|50=002B37|52=20190508-00:40:08.159|56=EXC|10=095|
8=FIX.4.4|9=0050|35=0|34=26|49=EXC|56=002|52=20190508-00:40:36.000|10=208|
8=FIX.4.4|9=60|35=0|34=26|49=002|50=002B37|52=20190508-00:40:38.159|56=EXC|10=099|
8=FIX.4.4|9=0050|35=0|34=27|49=EXC|56=002|52=20190508-00:41:06.000|10=207|
8=FIX.4.4|9=60|35=0|34=27|49=002|50=002B37|52=20190508-00:41:08.159|56=EXC|10=098|
8=FIX.4.4|9=0050|35=0|34=28|49=EXC|56=002|52=20190508-00:41:36.000|10=211|
8=FIX.4.4|9=60|35=0|34=28|49=002|50=002B37|52=20190508-00:41:38.157|56=EXC|10=100|
8=FIX.4.4|9=0050|35=0|34=29|49=EXC|56=002|52=20190508-00:42:06.000|10=210|
8=FIX.4.4|9=60|35=0|34=29|49=002|50=002B37|52=20190508-00:42:08.158|56=EXC|10=100|
8=FIX.4.4|9=110|35=A|34=1|49=002|50=002B37|52=20190508-00:42:34.045|56=EXC|43=Y|98=0|108=30|141=Y|553=002FCM002|554=002FCM002|10=080|
8=FIX.4.4|9=0067|35=A|34=1|49=EXC|56=002|52=20190508-00:42:33.818|98=0|108=30|141=Y|10=008|
8=FIX.4.4|9=0049|35=0|34=2|49=EXC|56=002|52=20190508-00:43:03.000|10=159|
8=FIX.4.4|9=59|35=0|34=2|49=002|50=002B37|52=20190508-00:43:04.987|56=EXC|10=058|
8=FIX.4.4|9=0049|35=0|34=3|49=EXC|56=002|52=20190508-00:43:33.000|10=163|
8=FIX.4.4|9=59|35=0|34=3|49=002|50=002B37|52=20190508-00:43:34.988|56=EXC|10=063|
8=FIX.4.4|9=104|35=A|34=4|49=002|50=002B37|52=20190508-00:43:58.409|56=EXC|43=Y|98=0|108=30|553=002FCM002|554=002FCM002|10=052|
8=FIX.4.4|9=0061|35=A|34=4|49=EXC|56=002|52=20190508-00:43:58.177|98=0|108=30|10=222|
8=FIX.4.4|9=104|35=A|34=5|49=002|50=002B37|52=20190508-00:43:59.995|56=EXC|43=Y|98=0|108=30|553=002FCM002|554=002FCM002|10=064|
8=FIX.4.4|9=0061|35=A|34=5|49=EXC|56=002|52=20190508-00:43:59.766|98=0|108=30|10=228|
8=FIX.4.4|9=110|35=A|34=1|49=002|50=002B37|52=20190508-00:44:17.570|56=EXC|43=Y|98=0|108=30|141=Y|553=002FCM002|554=002FCM002|10=086|
8=FIX.4.4|9=0067|35=A|34=1|49=EXC|56=002|52=20190508-00:44:17.348|98=0|108=30|141=Y|10=010|
8=FIX.4.4|9=0049|35=0|34=2|49=EXC|56=002|52=20190508-00:44:47.000|10=168|
8=FIX.4.4|9=59|35=0|34=2|49=002|50=002B37|52=20190508-00:44:48.505|56=EXC|10=053|
8=FIX.4.4|9=0049|35=0|34=3|49=EXC|56=002|52=20190508-00:45:17.000|10=167|
8=FIX.4.4|9=59|35=0|34=3|49=002|50=002B37|52=20190508-00:45:18.505|56=EXC|10=052|
8=FIX.4.4|9=0049|35=0|34=4|49=EXC|56=002|52=20190508-00:45:47.000|10=171|
8=FIX.4.4|9=59|35=0|34=4|49=002|50=002B37|52=20190508-00:45:48.503|56=EXC|10=054|
8=FIX.4.4|9=110|35=A|34=1|49=002|50=002B37|52=20190508-00:45:55.405|56=EXC|43=Y|98=0|108=30|141=Y|553=002FCM002|554=002FCM002|10=086|
8=FIX.4.4|9=0067|35=A|34=1|49=EXC|56=002|52=20190508-00:45:55.186|98=0|108=30|141=Y|10=013|
8=FIX.4.4|9=0049|35=0|34=2|49=EXC|56=002|52=20190508-00:46:25.000|10=166|
8=FIX.4.4|9=59|35=0|34=2|49=002|50=002B37|52=20190508-00:46:26.309|56=EXC|10=053|
8=FIX.4.4|9=0049|35=0|34=3|49=EXC|56=002|52=20190508-00:46:55.000|10=170|
8=FIX.4.4|9=59|35=0|34=3|49=002|50=002B37|52=20190508-00:46:56.309|56=EXC|10=057|
8=FIX.4.4|9=0049|35=0|34=4|49=EXC|56=002|52=20190508-00:47:25.000|10=169|
8=FIX.4.4|9=59|35=0|34=4|49=002|50=002B37|52=20190508-00:47:26.309|56=EXC|10=056|
8=FIX.4.4|9=0049|35=0|34=5|49=EXC|56=002|52=20190508-00:47:55.000|10=173|
8=FIX.4.4|9=59|35=0|34=5|49=002|50=002B37|52=20190508-00:47:56.309|56=EXC|10=060|
8=FIX.4.4|9=110|35=A|34=1|49=002|50=002B37|52=20190508-00:48:16.969|56=EXC|43=Y|98=0|108=30|141=Y|553=002FCM002|554=002FCM002|10=101|
8=FIX.4.4|9=0067|35=A|34=1|49=EXC|56=002|52=20190508-00:48:16.756|98=0|108=30|141=Y|10=016|
8=FIX.4.4|9=0049|35=0|34=2|49=EXC|56=002|52=20190508-00:48:46.000|10=171|
8=FIX.4.4|9=59|35=0|34=2|49=002|50=002B37|52=20190508-00:48:47.905|56=EXC|10=060|
8=FIX.4.4|9=110|35=A|34=1|49=002|50=002B37|52=20190508-00:49:11.264|56=EXC|43=Y|98=0|108=30|141=Y|553=002FCM002|554=002FCM002|10=085|
8=FIX.4.4|9=0067|35=A|34=1|49=EXC|56=002|52=20190508-00:49:11.054|98=0|108=30|141=Y|10=003|
8=FIX.4.4|9=0049|35=0|34=2|49=EXC|56=002|52=20190508-00:49:41.000|10=167|
8=FIX.4.4|9=59|35=0|34=2|49=002|50=002B37|52=20190508-00:49:42.170|56=EXC|10=050|
8=FIX.4.4|9=0049|35=0|34=3|49=EXC|56=002|52=20190508-00:50:11.000|10=157|
8=FIX.4.4|9=59|35=0|34=3|49=002|50=002B37|52=20190508-00:50:12.171|56=EXC|10=041|
8=FIX.4.4|9=0049|35=0|34=4|49=EXC|56=002|52=20190508-00:50:41.000|10=161|
8=FIX.4.4|9=59|35=0|34=4|49=002|50=002B37|52=20190508-00:50:42.170|56=EXC|10=044|
8=FIX.4.4|9=110|35=A|34=1|49=002|50=002B37|52=20190508-00:50:58.735|56=EXC|43=Y|98=0|108=30|141=Y|553=002FCM002|554=002FCM002|10=091|
8=FIX.4.4|9=0067|35=A|34=1|49=EXC|56=002|52=20190508-00:50:58.526|98=0|108=30|141=Y|10=010|
8=FIX.4.4|9=110|35=A|34=1|49=002|50=002B37|52=20190508-00:51:16.422|56=EXC|43=Y|98=0|108=30|141=Y|553=002FCM002|554=002FCM002|10=079|
8=FIX.4.4|9=0067|35=A|34=1|49=EXC|56=002|52=20190508-00:51:16.220|98=0|108=30|141=Y|10=252|
8=FIX.4.4|9=0049|35=0|34=2|49=EXC|56=002|52=20190508-00:51:46.000|10=165|
8=FIX.4.4|9=59|35=0|34=2|49=002|50=002B37|52=20190508-00:51:47.253|56=EXC|10=050|
8=FIX.4.4|9=110|35=A|34=1|49=002|50=002B37|52=20190508-00:52:18.868|56=EXC|43=Y|98=0|108=30|141=Y|553=002FCM002|554=002FCM002|10=096|
8=FIX.4.4|9=0067|35=A|34=1|49=EXC|56=002|52=20190508-00:52:18.665|98=0|108=30|141=Y|10=012|
8=FIX.4.4|9=110|35=A|34=1|49=002|50=002B37|52=20190508-00:52:47.520|56=EXC|43=Y|98=0|108=30|141=Y|553=002FCM002|554=002FCM002|10=083|
8=FIX.4.4|9=0067|35=A|34=1|49=EXC|56=002|52=20190508-00:52:47.315|98=0|108=30|141=Y|10=006|
8=FIX.4.4|9=0049|35=0|34=2|49=EXC|56=002|52=20190508-00:53:17.000|10=165|
8=FIX.4.4|9=59|35=0|34=2|49=002|50=002B37|52=20190508-00:53:18.409|56=EXC|10=053|
8=FIX.4.4|9=0049|35=0|34=3|49=EXC|56=002|52=20190508-00:53:47.000|10=169|
8=FIX.4.4|9=59|35=0|34=3|49=002|50=002B37|52=20190508-00:53:48.410|56=EXC|10=049|
8=FIX.4.4|9=110|35=A|34=1|49=002|50=002B37|52=20190508-00:53:55.004|56=EXC|43=Y|98=0|108=30|141=Y|553=002FCM002|554=002FCM002|10=080|
8=FIX.4.4|9=0067|35=A|34=1|49=EXC|56=002|52=20190508-00:53:54.801|98=0|108=30|141=Y|10=005|
8=FIX.4.4|9=0049|35=0|34=2|49=EXC|56=002|52=20190508-00:54:24.000|10=164|
8=FIX.4.4|9=59|35=0|34=2|49=002|50=002B37|52=20190508-00:54:25.920|56=EXC|10=050|
8=FIX.4.4|9=110|35=A|34=1|49=002|50=002B37|52=20190508-00:54:51.935|56=EXC|43=Y|98=0|108=30|141=Y|553=002FCM002|554=002FCM002|10=090|
8=FIX.4.4|9=0067|35=A|34=1|49=EXC|56=002|52=20190508-00:54:51.985|98=0|108=30|141=Y|10=016|
8=FIX.4.4|9=0049|35=0|34=2|49=EXC|56=002|52=20190508-00:55:21.000|10=162|
8=FIX.4.4|9=59|35=0|34=2|49=002|50=002B37|52=20190508-00:55:22.875|56=EXC|10=057|
8=FIX.4.4|9=110|35=A|34=1|49=002|50=002B37|52=20190508-00:55:44.849|56=EXC|43=Y|98=0|108=30|141=Y|553=002FCM002|554=002FCM002|10=097|
8=FIX.4.4|9=0067|35=A|34=1|49=EXC|56=002|52=20190508-00:55:44.903|98=0|108=30|141=Y|10=009|
8=FIX.4.4|9=0049|35=0|34=2|49=EXC|56=002|52=20190508-00:56:14.000|10=165|
8=FIX.4.4|9=59|35=0|34=2|49=002|50=002B37|52=20190508-00:56:15.754|56=EXC|10=056|
8=FIX.4.4|9=0049|35=0|34=3|49=EXC|56=002|52=20190508-00:56:44.000|10=169|
8=FIX.4.4|9=59|35=0|34=3|49=002|50=002B37|52=20190508-00:56:45.753|56=EXC|10=059|
8=FIX.4.4|9=110|35=A|34=1|49=002|50=002B37|52=20190508-13:24:36.631|56=EXC|43=Y|98=0|108=30|141=Y|553=002FCM002|554=002FCM002|10=087|
8=FIX.4.4|9=0067|35=A|34=1|49=EXC|56=002|52=20190508-13:24:36.903|98=0|108=30|141=Y|10=010|
8=FIX.4.4|9=0049|35=0|34=2|49=EXC|56=002|52=20190508-13:25:06.000|10=166|
8=FIX.4.4|9=59|35=0|34=2|49=002|50=002B37|52=20190508-13:25:07.573|56=EXC|10=056|
8=FIX.4.4|9=0049|35=0|34=3|49=EXC|56=002|52=20190508-13:25:36.000|10=170|
8=FIX.4.4|9=59|35=0|34=3|49=002|50=002B37|52=20190508-13:25:37.573|56=EXC|10=060|
8=FIX.4.4|9=0049|35=0|34=4|49=EXC|56=002|52=20190508-13:26:06.000|10=169|
8=FIX.4.4|9=59|35=0|34=4|49=002|50=002B37|52=20190508-13:26:07.573|56=EXC|10=059|
8=FIX.4.4|9=0049|35=0|34=5|49=EXC|56=002|52=20190508-13:26:36.000|10=173|
8=FIX.4.4|9=59|35=0|34=5|49=002|50=002B37|52=20190508-13:26:37.578|56=EXC|10=068|
8=FIX.4.4|9=110|35=A|34=1|49=002|50=002B37|52=20190508-13:26:41.591|56=EXC|43=Y|98=0|108=30|141=Y|553=002FCM002|554=002FCM002|10=090|
8=FIX.4.4|9=110|35=A|34=1|49=002|50=002B37|52=20190508-13:43:06.648|56=EXC|43=Y|98=0|108=30|141=Y|553=002FCM002|554=002FCM002|10=093|
8=FIX.4.4|9=0067|35=A|34=1|49=EXC|56=002|52=20190508-13:43:06.356|98=0|108=30|141=Y|10=010|
8=FIX.4.4|9=0049|35=0|34=2|49=EXC|56=002|52=20190508-13:43:36.000|10=169|
8=FIX.4.4|9=59|35=0|34=2|49=002|50=002B37|52=20190508-13:43:37.498|56=EXC|10=065|
8=FIX.4.4|9=0049|35=0|34=3|49=EXC|56=002|52=20190508-13:44:06.000|10=168|
8=FIX.4.4|9=59|35=0|34=3|49=002|50=002B37|52=20190508-13:44:08.493|56=EXC|10=060|
8=FIX.4.4|9=0049|35=0|34=4|49=EXC|56=002|52=20190508-13:44:36.000|10=172|
8=FIX.4.4|9=59|35=0|34=4|49=002|50=002B37|52=20190508-13:44:38.508|56=EXC|10=061|
8=FIX.4.4|9=110|35=A|34=1|49=002|50=002B37|52=20190508-13:45:04.747|56=EXC|43=Y|98=0|108=30|141=Y|553=002FCM002|554=002FCM002|10=093|
8=FIX.4.4|9=0067|35=A|34=1|49=EXC|56=002|52=20190508-13:45:04.405|98=0|108=30|141=Y|10=005|
8=FIX.4.4|9=0049|35=0|34=2|49=EXC|56=002|52=20190508-13:45:34.000|10=169|
8=FIX.4.4|9=59|35=0|34=2|49=002|50=002B37|52=20190508-13:45:35.686|56=EXC|10=064|
8=FIX.4.4|9=110|35=A|34=1|49=002|50=002B37|52=20190508-14:05:42.167|56=EXC|43=Y|98=0|108=30|141=Y|553=002FCM002|554=002FCM002|10=088|
8=FIX.4.4|9=0067|35=A|34=1|49=EXC|56=002|52=20190508-14:05:42.027|98=0|108=30|141=Y|10=004|
8=FIX.4.4|9=0049|35=0|34=2|49=EXC|56=002|52=20190508-14:06:12.000|10=163|
8=FIX.4.4|9=59|35=0|34=2|49=002|50=002B37|52=20190508-14:06:12.181|56=EXC|10=047|
8=FIX.4.4|9=0049|35=0|34=3|49=EXC|56=002|52=20190508-14:06:42.000|10=167|
8=FIX.4.4|9=59|35=0|34=3|49=002|50=002B37|52=20190508-14:06:42.179|56=EXC|10=058|
8=FIX.4.4|9=110|35=A|34=1|49=002|50=002B37|52=20190508-14:06:54.238|56=EXC|43=Y|98=0|108=30|141=Y|553=002FCM002|554=002FCM002|10=091|
8=FIX.4.4|9=0067|35=A|34=1|49=EXC|56=002|52=20190508-14:06:54.100|98=0|108=30|141=Y|10=000|
8=FIX.4.4|9=0049|35=0|34=2|49=EXC|56=002|52=20190508-14:07:24.000|10=167|
8=FIX.4.4|9=59|35=0|34=2|49=002|50=002B37|52=20190508-14:07:25.116|56=EXC|10=050|
8=FIX.4.4|9=0049|35=0|34=3|49=EXC|56=002|52=20190508-14:07:54.000|10=171|
8=FIX.4.4|9=59|35=0|34=3|49=002|50=002B37|52=20190508-14:07:55.115|56=EXC|10=053|
8=FIX.4.4|9=0049|35=0|34=4|49=EXC|56=002|52=20190508-14:08:24.000|10=170|
8=FIX.4.4|9=59|35=0|34=4|49=002|50=002B37|52=20190508-14:08:25.114|56=EXC|10=051|
8=FIX.4.4|9=0049|35=0|34=5|49=EXC|56=002|52=20190508-14:08:54.000|10=174|
8=FIX.4.4|9=59|35=0|34=5|49=002|50=002B37|52=20190508-14:08:55.114|56=EXC|10=055|
8=FIX.4.4|9=0049|35=0|34=6|49=EXC|56=002|52=20190508-14:09:24.000|10=173|
8=FIX.4.4|9=59|35=0|34=6|49=002|50=002B37|52=20190508-14:09:25.117|56=EXC|10=057|
8=FIX.4.4|9=0049|35=0|34=7|49=EXC|56=002|52=20190508-14:09:54.000|10=177|
8=FIX.4.4|9=59|35=0|34=7|49=002|50=002B37|52=20190508-14:09:55.113|56=EXC|10=057|
8=FIX.4.4|9=0049|35=0|34=8|49=EXC|56=002|52=20190508-14:10:24.000|10=167|
8=FIX.4.4|9=59|35=0|34=8|49=002|50=002B37|52=20190508-14:10:25.113|56=EXC|10=047|
8=FIX.4.4|9=0049|35=0|34=9|49=EXC|56=002|52=20190508-14:10:54.000|10=171|
8=FIX.4.4|9=59|35=0|34=9|49=002|50=002B37|52=20190508-14:10:55.114|56=EXC|10=052|
8=FIX.4.4|9=0050|35=0|34=10|49=EXC|56=002|52=20190508-14:11:24.000|10=201|
8=FIX.4.4|9=60|35=0|34=10|49=002|50=002B37|52=20190508-14:11:25.114|56=EXC|10=082|
8=FIX.4.4|9=0050|35=0|34=11|49=EXC|56=002|52=20190508-14:11:54.000|10=205|
8=FIX.4.4|9=60|35=0|34=11|49=002|50=002B37|52=20190508-14:11:55.114|56=EXC|10=086|
8=FIX.4.4|9=0050|35=0|34=12|49=EXC|56=002|52=20190508-14:12:24.000|10=204|
8=FIX.4.4|9=60|35=0|34=12|49=002|50=002B37|52=20190508-14:12:25.115|56=EXC|10=086|
8=FIX.4.4|9=0050|35=0|34=13|49=EXC|56=002|52=20190508-14:12:54.000|10=208|
8=FIX.4.4|9=60|35=0|34=13|49=002|50=002B37|52=20190508-14:12:55.115|56=EXC|10=090|
8=FIX.4.4|9=0050|35=0|34=14|49=EXC|56=002|52=20190508-14:13:24.000|10=207|
8=FIX.4.4|9=60|35=0|34=14|49=002|50=002B37|52=20190508-14:13:25.117|56=EXC|10=091|
8=FIX.4.4|9=0050|35=0|34=15|49=EXC|56=002|52=20190508-14:13:54.000|10=211|
8=FIX.4.4|9=60|35=0|34=15|49=002|50=002B37|52=20190508-14:13:55.117|56=EXC|10=095|
8=FIX.4.4|9=0050|35=0|34=16|49=EXC|56=002|52=20190508-14:14:24.000|10=210|
8=FIX.4.4|9=60|35=0|34=16|49=002|50=002B37|52=20190508-14:14:25.113|56=EXC|10=090|
8=FIX.4.4|9=0050|35=0|34=17|49=EXC|56=002|52=20190508-14:14:54.000|10=214|
8=FIX.4.4|9=60|35=0|34=17|49=002|50=002B37|52=20190508-14:14:55.118|56=EXC|10=099|
8=FIX.4.4|9=0050|35=0|34=18|49=EXC|56=002|52=20190508-14:15:24.000|10=213|
8=FIX.4.4|9=60|35=0|34=18|49=002|50=002B37|52=20190508-14:15:25.117|56=EXC|10=097|
8=FIX.4.4|9=0050|35=0|34=19|49=EXC|56=002|52=20190508-14:15:54.000|10=217|
8=FIX.4.4|9=60|35=0|34=19|49=002|50=002B37|52=20190508-14:15:55.113|56=EXC|10=097|
8=FIX.4.4|9=0050|35=0|34=20|49=EXC|56=002|52=20190508-14:16:24.000|10=207|
8=FIX.4.4|9=60|35=0|34=20|49=002|50=002B37|52=20190508-14:16:25.119|56=EXC|10=093|
8=FIX.4.4|9=0050|35=0|34=21|49=EXC|56=002|52=20190508-14:16:54.000|10=211|
8=FIX.4.4|9=60|35=0|34=21|49=002|50=002B37|52=20190508-14:16:55.116|56=EXC|10=094|
8=FIX.4.4|9=0050|35=0|34=22|49=EXC|56=002|52=20190508-14:17:24.000|10=210|
8=FIX.4.4|9=60|35=0|34=22|49=002|50=002B37|52=20190508-14:17:25.114|56=EXC|10=091|
8=FIX.4.4|9=0050|35=0|34=23|49=EXC|56=002|52=20190508-14:17:54.000|10=214|
8=FIX.4.4|9=60|35=0|34=23|49=002|50=002B37|52=20190508-14:17:55.113|56=EXC|10=094|
8=FIX.4.4|9=0050|35=0|34=24|49=EXC|56=002|52=20190508-14:18:24.000|10=213|
8=FIX.4.4|9=60|35=0|34=24|49=002|50=002B37|52=20190508-14:18:25.116|56=EXC|10=096|
8=FIX.4.4|9=0050|35=0|34=25|49=EXC|56=002|52=20190508-14:18:54.000|10=217|
8=FIX.4.4|9=60|35=0|34=25|49=002|50=002B37|52=20190508-14:18:55.118|56=EXC|10=102|
8=FIX.4.4|9=0050|35=0|34=26|49=EXC|56=002|52=20190508-14:19:24.000|10=216|
8=FIX.4.4|9=60|35=0|34=26|49=002|50=002B37|52=20190508-14:19:25.114|56=EXC|10=097|
8=FIX.4.4|9=0050|35=0|34=27|49=EXC|56=002|52=20190508-14:19:54.000|10=220|
8=FIX.4.4|9=60|35=0|34=27|49=002|50=002B37|52=20190508-14:19:55.114|56=EXC|10=101|
8=FIX.4.4|9=0050|35=0|34=28|49=EXC|56=002|52=20190508-14:20:24.000|10=210|
8=FIX.4.4|9=60|35=0|34=28|49=002|50=002B37|52=20190508-14:20:25.119|56=EXC|10=096|
