8=FIX.4.4|9=105|35=A|34=1|49=010|50=010BWN|52=20190613-23:20:40.238|56=EXC|98=0|108=30|141=Y|553=010FCE003|554=010FCE003|10=126|
8=FIX.4.4|9=0067|35=A|34=1|49=EXC|56=010|52=20190613-23:20:39.853|98=0|108=30|141=Y|10=010|
8=FIX.4.4|9=0049|35=0|34=2|49=EXC|56=010|52=20190613-23:21:09.000|10=162|
8=FIX.4.4|9=59|35=0|34=2|49=010|50=010BWN|52=20190613-23:21:11.103|56=EXC|10=091|
8=FIX.4.4|9=105|35=A|34=1|49=010|50=010BWN|52=20190613-23:32:29.958|56=EXC|98=0|108=30|141=Y|553=010FCE003|554=010FCE003|10=145|
8=FIX.4.4|9=0067|35=A|34=1|49=EXC|56=010|52=20190613-23:32:29.265|98=0|108=30|141=Y|10=009|
8=FIX.4.4|9=0049|35=0|34=2|49=EXC|56=010|52=20190613-23:32:59.000|10=169|
8=FIX.4.4|9=59|35=0|34=2|49=010|50=010BWN|52=20190613-23:33:00.860|56=EXC|10=102|
8=FIX.4.4|9=105|35=A|34=1|49=010|50=010BWN|52=20190613-23:41:59.640|56=EXC|98=0|108=30|141=Y|553=010FCE003|554=010FCE003|10=136|
8=FIX.4.4|9=0067|35=A|34=1|49=EXC|56=010|52=20190613-23:41:58.968|98=0|108=30|141=Y|10=021|
8=FIX.4.4|9=105|35=A|34=1|49=010|50=010BWN|52=20190613-23:44:32.652|56=EXC|98=0|108=30|141=Y|553=010FCE003|554=010FCE003|10=133|
8=FIX.4.4|9=0067|35=A|34=1|49=EXC|56=010|52=20190613-23:44:32.003|98=0|108=30|141=Y|10=252|
8=FIX.4.4|9=0049|35=0|34=2|49=EXC|56=010|52=20190613-23:45:02.000|10=161|
8=FIX.4.4|9=59|35=0|34=2|49=010|50=010BWN|52=20190613-23:45:02.722|56=EXC|10=104|
8=FIX.4.4|9=105|35=A|34=1|49=010|50=010BWN|52=20190614-12:59:00.615|56=EXC|98=0|108=30|141=Y|553=010FCE003|554=010FCE003|10=132|
8=FIX.4.4|9=0067|35=A|34=1|49=EXC|56=010|52=20190614-12:59:01.012|98=0|108=30|141=Y|10=253|
8=FIX.4.4|9=105|35=A|34=1|49=010|50=010BWN|52=20190614-13:07:54.078|56=EXC|98=0|108=30|141=Y|553=010FCE003|554=010FCE003|10=138|
8=FIX.4.4|9=0067|35=A|34=1|49=EXC|56=010|52=20190614-13:07:53.516|98=0|108=30|141=Y|10=007|
8=FIX.4.4|9=105|35=A|34=1|49=010|50=010BWN|52=20190614-13:13:22.195|56=EXC|98=0|108=30|141=Y|553=010FCE003|554=010FCE003|10=130|
8=FIX.4.4|9=0067|35=A|34=1|49=EXC|56=010|52=20190614-13:13:22.181|98=0|108=30|141=Y|10=254|
8=FIX.4.4|9=105|35=A|34=1|49=010|50=010BWN|52=20190614-13:15:43.087|56=EXC|98=0|108=30|141=Y|553=010FCE003|554=010FCE003|10=135|
8=FIX.4.4|9=0067|35=A|34=1|49=EXC|56=010|52=20190614-13:15:43.265|98=0|108=30|141=Y|10=006|
8=FIX.4.4|9=105|35=A|34=1|49=010|50=010BWN|52=20190614-13:23:21.552|56=EXC|98=0|108=30|141=Y|553=010FCE003|554=010FCE003|10=127|
8=FIX.4.4|9=0067|35=A|34=1|49=EXC|56=010|52=20190614-13:23:21.845|98=0|108=30|141=Y|10=005|
8=FIX.4.4|9=105|35=A|34=1|49=010|50=010BWN|52=20190614-13:24:35.126|56=EXC|98=0|108=30|141=Y|553=010FCE003|554=010FCE003|10=130|
8=FIX.4.4|9=0067|35=A|34=1|49=EXC|56=010|52=20190614-13:24:35.185|98=0|108=30|141=Y|10=008|
8=FIX.4.4|9=105|35=A|34=1|49=010|50=010BWN|52=20190614-13:30:40.050|56=EXC|98=0|108=30|141=Y|553=010FCE003|554=010FCE003|10=119|
8=FIX.4.4|9=0067|35=A|34=1|49=EXC|56=010|52=20190614-13:30:40.149|98=0|108=30|141=Y|10=001|
8=FIX.4.4|9=0049|35=0|34=2|49=EXC|56=010|52=20190614-13:31:10.000|10=155|
8=FIX.4.4|9=59|35=0|34=2|49=010|50=010BWN|52=20190614-13:31:10.995|56=EXC|10=110|
8=FIX.4.4|9=0049|35=0|34=3|49=EXC|56=010|52=20190614-13:31:40.000|10=159|
8=FIX.4.4|9=59|35=0|34=3|49=010|50=010BWN|52=20190614-13:31:40.995|56=EXC|10=114|
8=FIX.4.4|9=105|35=A|34=1|49=010|50=010BWN|52=20190614-13:39:25.950|56=EXC|98=0|108=30|141=Y|553=010FCE003|554=010FCE003|10=140|
8=FIX.4.4|9=0067|35=A|34=1|49=EXC|56=010|52=20190614-13:39:26.190|98=0|108=30|141=Y|10=010|
8=FIX.4.4|9=105|35=A|34=1|49=010|50=010BWN|52=20190614-13:40:47.030|56=EXC|98=0|108=30|141=Y|553=010FCE003|554=010FCE003|10=125|
8=FIX.4.4|9=0067|35=A|34=1|49=EXC|56=010|52=20190614-13:40:47.290|98=0|108=30|141=Y|10=006|
8=FIX.4.4|9=105|35=A|34=1|49=010|50=010BWN|52=20190614-13:50:36.424|56=EXC|98=0|108=30|141=Y|553=010FCE003|554=010FCE003|10=131|
8=FIX.4.4|9=0067|35=A|34=1|49=EXC|56=010|52=20190614-13:50:36.848|98=0|108=30|141=Y|10=014|
8=FIX.4.4|9=105|35=A|34=1|49=010|50=010BWN|52=20190614-13:53:29.996|56=EXC|98=0|108=30|141=Y|553=010FCE003|554=010FCE003|10=150|
8=FIX.4.4|9=0067|35=A|34=1|49=EXC|56=010|52=20190614-13:53:30.462|98=0|108=30|141=Y|10=003|
8=FIX.4.4|9=0049|35=0|34=2|49=EXC|56=010|52=20190614-13:54:00.000|10=159|
8=FIX.4.4|9=59|35=0|34=2|49=010|50=010BWN|52=20190614-13:54:00.955|56=EXC|10=110|
8=FIX.4.4|9=0049|35=0|34=3|49=EXC|56=010|52=20190614-13:54:30.000|10=163|
8=FIX.4.4|9=59|35=0|34=3|49=010|50=010BWN|52=20190614-13:54:30.956|56=EXC|10=115|
8=FIX.4.4|9=0049|35=0|34=4|49=EXC|56=010|52=20190614-13:55:00.000|10=162|
8=FIX.4.4|9=59|35=0|34=4|49=010|50=010BWN|52=20190614-13:55:00.955|56=EXC|10=113|
8=FIX.4.4|9=0049|35=0|34=5|49=EXC|56=010|52=20190614-13:55:30.000|10=166|
8=FIX.4.4|9=59|35=0|34=5|49=010|50=010BWN|52=20190614-13:55:30.957|56=EXC|10=119|
8=FIX.4.4|9=0049|35=0|34=6|49=EXC|56=010|52=20190614-13:56:00.000|10=165|
8=FIX.4.4|9=59|35=0|34=6|49=010|50=010BWN|52=20190614-13:56:00.956|56=EXC|10=117|
8=FIX.4.4|9=0049|35=0|34=7|49=EXC|56=010|52=20190614-13:56:30.000|10=169|
8=FIX.4.4|9=59|35=0|34=7|49=010|50=010BWN|52=20190614-13:56:30.955|56=EXC|10=120|
8=FIX.4.4|9=0049|35=0|34=8|49=EXC|56=010|52=20190614-13:57:00.000|10=168|
8=FIX.4.4|9=59|35=0|34=8|49=010|50=010BWN|52=20190614-13:57:00.955|56=EXC|10=119|
8=FIX.4.4|9=0049|35=0|34=9|49=EXC|56=010|52=20190614-13:57:30.000|10=172|
8=FIX.4.4|9=59|35=0|34=9|49=010|50=010BWN|52=20190614-13:57:30.955|56=EXC|10=123|
8=FIX.4.4|9=0050|35=0|34=10|49=EXC|56=010|52=20190614-13:58:00.000|10=202|
8=FIX.4.4|9=60|35=0|34=10|49=010|50=010BWN|52=20190614-13:58:00.956|56=EXC|10=154|
8=FIX.4.4|9=0050|35=0|34=11|49=EXC|56=010|52=20190614-13:58:30.000|10=206|
8=FIX.4.4|9=60|35=0|34=11|49=010|50=010BWN|52=20190614-13:58:30.957|56=EXC|10=159|
8=FIX.4.4|9=0050|35=0|34=12|49=EXC|56=010|52=20190614-13:59:00.000|10=205|
8=FIX.4.4|9=60|35=0|34=12|49=010|50=010BWN|52=20190614-13:59:00.955|56=EXC|10=156|
8=FIX.4.4|9=0050|35=0|34=13|49=EXC|56=010|52=20190614-13:59:30.000|10=209|
8=FIX.4.4|9=60|35=0|34=13|49=010|50=010BWN|52=20190614-13:59:30.957|56=EXC|10=162|
8=FIX.4.4|9=0050|35=0|34=14|49=EXC|56=010|52=20190614-14:00:00.000|10=194|
8=FIX.4.4|9=60|35=0|34=14|49=010|50=010BWN|52=20190614-14:00:00.955|56=EXC|10=145|
8=FIX.4.4|9=0050|35=0|34=15|49=EXC|56=010|52=20190614-14:00:30.000|10=198|
8=FIX.4.4|9=60|35=0|34=15|49=010|50=010BWN|52=20190614-14:00:30.955|56=EXC|10=149|
8=FIX.4.4|9=0050|35=0|34=16|49=EXC|56=010|52=20190614-14:01:00.000|10=197|
8=FIX.4.4|9=60|35=0|34=16|49=010|50=010BWN|52=20190614-14:01:00.955|56=EXC|10=148|
8=FIX.4.4|9=105|35=A|34=1|49=010|50=010BWN|52=20190614-14:01:16.507|56=EXC|98=0|108=30|141=Y|553=010FCE003|554=010FCE003|10=128|
8=FIX.4.4|9=0067|35=A|34=1|49=EXC|56=010|52=20190614-14:01:17.101|98=0|108=30|141=Y|10=248|
8=FIX.4.4|9=0049|35=0|34=2|49=EXC|56=010|52=20190614-14:01:47.000|10=163|
8=FIX.4.4|9=59|35=0|34=2|49=010|50=010BWN|52=20190614-14:01:47.460|56=EXC|10=105|
8=FIX.4.4|9=105|35=A|34=1|49=010|50=010BWN|52=20190614-14:34:22.618|56=EXC|98=0|108=30|141=Y|553=010FCE003|554=010FCE003|10=134|
8=FIX.4.4|9=0067|35=A|34=1|49=EXC|56=010|52=20190614-14:34:22.900|98=0|108=30|141=Y|10=001|
8=FIX.4.4|9=0049|35=0|34=2|49=EXC|56=010|52=20190614-14:34:52.000|10=165|
8=FIX.4.4|9=59|35=0|34=2|49=010|50=010BWN|52=20190614-14:34:53.539|56=EXC|10=115|
8=FIX.4.4|9=105|35=A|34=1|49=010|50=010BWN|52=20190614-14:35:28.012|56=EXC|98=0|108=30|141=Y|553=010FCE003|554=010FCE003|10=129|
8=FIX.4.4|9=0067|35=A|34=1|49=EXC|56=010|52=20190614-14:35:28.312|98=0|108=30|141=Y|10=005|
8=FIX.4.4|9=105|35=A|34=1|49=010|50=010BWN|52=20190614-14:36:05.068|56=EXC|98=0|108=30|141=Y|553=010FCE003|554=010FCE003|10=136|
8=FIX.4.4|9=0067|35=A|34=1|49=EXC|56=010|52=20190614-14:36:05.376|98=0|108=30|141=Y|10=011|
8=FIX.4.4|9=105|35=A|34=1|49=010|50=010BWN|52=20190614-14:39:40.277|56=EXC|98=0|108=30|141=Y|553=010FCE003|554=010FCE003|10=140|
8=FIX.4.4|9=0067|35=A|34=1|49=EXC|56=010|52=20190614-14:39:40.651|98=0|108=30|141=Y|10=009|
8=FIX.4.4|9=0049|35=0|34=2|49=EXC|56=010|52=20190614-14:40:10.000|10=156|
8=FIX.4.4|9=59|35=0|34=2|49=010|50=010BWN|52=20190614-14:40:11.065|56=EXC|10=100|
8=FIX.4.4|9=105|35=A|34=1|49=010|50=010BWN|52=20190614-14:41:47.087|56=EXC|98=0|108=30|141=Y|553=010FCE003|554=010FCE003|10=139|
8=FIX.4.4|9=0067|35=A|34=1|49=EXC|56=010|52=20190614-14:41:47.488|98=0|108=30|141=Y|10=017|
8=FIX.4.4|9=105|35=A|34=1|49=010|50=010BWN|52=20190614-14:42:23.810|56=EXC|98=0|108=30|141=Y|553=010FCE003|554=010FCE003|10=128|
8=FIX.4.4|9=0067|35=A|34=1|49=EXC|56=010|52=20190614-14:42:24.222|98=0|108=30|141=Y|10=255|
8=FIX.4.4|9=0049|35=0|34=2|49=EXC|56=010|52=20190614-14:42:54.000|10=166|
8=FIX.4.4|9=59|35=0|34=2|49=010|50=010BWN|52=20190614-14:42:54.761|56=EXC|10=112|
8=FIX.4.4|9=105|35=A|34=1|49=010|50=010BWN|52=20190614-14:47:56.653|56=EXC|98=0|108=30|141=Y|553=010FCE003|554=010FCE003|10=144|
8=FIX.4.4|9=0067|35=A|34=1|49=EXC|56=010|52=20190614-14:47:56.844|98=0|108=30|141=Y|10=019|
8=FIX.4.4|9=105|35=A|34=1|49=010|50=010BWN|52=20190614-14:49:37.429|56=EXC|98=0|108=30|141=Y|553=010FCE003|554=010FCE003|10=146|
8=FIX.4.4|9=0067|35=A|34=1|49=EXC|56=010|52=20190614-14:49:37.651|98=0|108=30|141=Y|10=016|
8=FIX.4.4|9=105|35=A|34=1|49=010|50=010BWN|52=20190614-15:26:35.912|56=EXC|98=0|108=30|141=Y|553=010FCE003|554=010FCE003|10=137|
8=FIX.4.4|9=0067|35=A|34=1|49=EXC|56=010|52=20190614-15:26:35.761|98=0|108=30|141=Y|10=012|
8=FIX.4.4|9=105|35=A|34=1|49=010|50=010BWN|52=20190614-16:53:44.367|56=EXC|98=0|108=30|141=Y|553=010FCE003|554=010FCE003|10=142|
8=FIX.4.4|9=0067|35=A|34=1|49=EXC|56=010|52=20190614-16:53:44.212|98=0|108=30|141=Y|10=004|
8=FIX.4.4|9=0049|35=0|34=2|49=EXC|56=010|52=20190614-16:54:14.000|10=167|
8=FIX.4.4|9=59|35=0|34=2|49=010|50=010BWN|52=20190614-16:54:15.297|56=EXC|10=118|
8=FIX.4.4|9=0049|35=0|34=3|49=EXC|56=010|52=20190614-16:54:44.000|10=171|
8=FIX.4.4|9=59|35=0|34=3|49=010|50=010BWN|52=20190614-16:54:45.297|56=EXC|10=122|
8=FIX.4.4|9=105|35=A|34=1|49=010|50=010BWN|52=20190614-17:03:19.932|56=EXC|98=0|108=30|141=Y|553=010FCE003|554=010FCE003|10=138|
8=FIX.4.4|9=0067|35=A|34=1|49=EXC|56=010|52=20190614-17:03:19.908|98=0|108=30|141=Y|10=014|
8=FIX.4.4|9=0049|35=0|34=2|49=EXC|56=010|52=20190614-17:03:49.000|10=170|
8=FIX.4.4|9=59|35=0|34=2|49=010|50=010BWN|52=20190614-17:03:50.892|56=EXC|10=113|
8=FIX.4.4|9=0049|35=0|34=3|49=EXC|56=010|52=20190614-17:04:19.000|10=169|
8=FIX.4.4|9=59|35=0|34=3|49=010|50=010BWN|52=20190614-17:04:20.894|56=EXC|10=114|
8=FIX.4.4|9=105|35=A|34=1|49=010|50=010BWN|52=20190614-17:05:55.674|56=EXC|98=0|108=30|141=Y|553=010FCE003|554=010FCE003|10=143|
8=FIX.4.4|9=0067|35=A|34=1|49=EXC|56=010|52=20190614-17:05:55.360|98=0|108=30|141=Y|10=008|
8=FIX.4.4|9=0049|35=0|34=2|49=EXC|56=010|52=20190614-17:06:25.000|10=167|
8=FIX.4.4|9=59|35=0|34=2|49=010|50=010BWN|52=20190614-17:06:26.641|56=EXC|10=111|
8=FIX.4.4|9=0049|35=0|34=3|49=EXC|56=010|52=20190614-17:06:55.000|10=171|
8=FIX.4.4|9=59|35=0|34=3|49=010|50=010BWN|52=20190614-17:06:56.641|56=EXC|10=115|
8=FIX.4.4|9=105|35=A|34=1|49=010|50=010BWN|52=20190614-18:35:54.300|56=EXC|98=0|108=30|141=Y|553=010FCE003|554=010FCE003|10=132|
8=FIX.4.4|9=0067|35=A|34=1|49=EXC|56=010|52=20190614-18:35:54.317|98=0|108=30|141=Y|10=013|
8=FIX.4.4|9=0049|35=0|34=2|49=EXC|56=010|52=20190614-18:36:24.000|10=170|
8=FIX.4.4|9=59|35=0|34=2|49=010|50=010BWN|52=20190614-18:36:25.267|56=EXC|10=118|
8=FIX.4.4|9=0049|35=0|34=3|49=EXC|56=010|52=20190614-18:36:54.000|10=174|
8=FIX.4.4|9=59|35=0|34=3|49=010|50=010BWN|52=20190614-18:36:55.265|56=EXC|10=120|
8=FIX.4.4|9=105|35=A|34=1|49=010|50=010BWN|52=20190614-18:37:58.175|56=EXC|98=0|108=30|141=Y|553=010FCE003|554=010FCE003|10=148|
8=FIX.4.4|9=0067|35=A|34=1|49=EXC|56=010|52=20190614-18:37:58.219|98=0|108=30|141=Y|10=020|
8=FIX.4.4|9=0049|35=0|34=2|49=EXC|56=010|52=20190614-18:38:28.000|10=176|
8=FIX.4.4|9=59|35=0|34=2|49=010|50=010BWN|52=20190614-18:38:29.139|56=EXC|10=122|
8=FIX.4.4|9=0049|35=0|34=3|49=EXC|56=010|52=20190614-18:38:58.000|10=180|
8=FIX.4.4|9=59|35=0|34=3|49=010|50=010BWN|52=20190614-18:38:59.139|56=EXC|10=126|
8=FIX.4.4|9=0049|35=0|34=4|49=EXC|56=010|52=20190614-18:39:28.000|10=179|
8=FIX.4.4|9=59|35=0|34=4|49=010|50=010BWN|52=20190614-18:39:29.137|56=EXC|10=123|
8=FIX.4.4|9=0049|35=0|34=5|49=EXC|56=010|52=20190614-18:39:58.000|10=183|
8=FIX.4.4|9=59|35=0|34=5|49=010|50=010BWN|52=20190614-18:39:59.137|56=EXC|10=127|
8=FIX.4.4|9=0049|35=0|34=6|49=EXC|56=010|52=20190614-18:40:28.000|10=173|
8=FIX.4.4|9=59|35=0|34=6|49=010|50=010BWN|52=20190614-18:40:29.139|56=EXC|10=119|
8=FIX.4.4|9=0049|35=0|34=7|49=EXC|56=010|52=20190614-18:40:58.000|10=177|
8=FIX.4.4|9=59|35=0|34=7|49=010|50=010BWN|52=20190614-18:40:59.137|56=EXC|10=121|
8=FIX.4.4|9=105|35=A|34=1|49=010|50=010BWN|52=20190614-18:43:05.808|56=EXC|98=0|108=30|141=Y|553=010FCE003|554=010FCE003|10=140|
8=FIX.4.4|9=0067|35=A|34=1|49=EXC|56=010|52=20190614-18:43:05.940|98=0|108=30|141=Y|10=010|
8=FIX.4.4|9=0049|35=0|34=2|49=EXC|56=010|52=20190614-18:43:35.000|10=170|
8=FIX.4.4|9=59|35=0|34=2|49=010|50=010BWN|52=20190614-18:43:36.725|56=EXC|10=117|
8=FIX.4.4|9=0049|35=0|34=3|49=EXC|56=010|52=20190614-18:44:05.000|10=169|
8=FIX.4.4|9=105|35=A|34=1|49=010|50=010BWN|52=20190614-19:03:34.945|56=EXC|98=0|108=30|141=Y|553=010FCE003|554=010FCE003|10=141|
8=FIX.4.4|9=0067|35=A|34=1|49=EXC|56=010|52=20190614-19:03:35.025|98=0|108=30|141=Y|10=004|
8=FIX.4.4|9=0049|35=0|34=2|49=EXC|56=010|52=20190614-19:04:05.000|10=165|
8=FIX.4.4|9=59|35=0|34=2|49=010|50=010BWN|52=20190614-19:04:04.965|56=EXC|10=116|
8=FIX.4.4|9=0049|35=0|34=3|49=EXC|56=010|52=20190614-19:04:35.000|10=169|
8=FIX.4.4|9=59|35=0|34=3|49=010|50=010BWN|52=20190614-19:04:34.958|56=EXC|10=122|
8=FIX.4.4|9=105|35=A|34=1|49=010|50=010BWN|52=20190614-19:08:28.064|56=EXC|98=0|108=30|141=Y|553=010FCE003|554=010FCE003|10=141|
8=FIX.4.4|9=0067|35=A|34=1|49=EXC|56=010|52=20190614-19:08:28.204|98=0|108=30|141=Y|10=010|
8=FIX.4.4|9=0049|35=0|34=2|49=EXC|56=010|52=20190614-19:08:58.000|10=177|
8=FIX.4.4|9=59|35=0|34=2|49=010|50=010BWN|52=20190614-19:08:59.025|56=EXC|10=117|
8=FIX.4.4|9=0049|35=0|34=3|49=EXC|56=010|52=20190614-19:09:28.000|10=176|
8=FIX.4.4|9=59|35=0|34=3|49=010|50=010BWN|52=20190614-19:09:29.025|56=EXC|10=116|
8=FIX.4.4|9=105|35=A|34=1|49=010|50=010BWN|52=20190614-19:24:54.317|56=EXC|98=0|108=30|141=Y|553=010FCE003|554=010FCE003|10=139|
8=FIX.4.4|9=0067|35=A|34=1|49=EXC|56=010|52=20190614-19:24:54.341|98=0|108=30|141=Y|10=009|
8=FIX.4.4|9=0049|35=0|34=2|49=EXC|56=010|52=20190614-19:25:24.000|10=169|
8=FIX.4.4|9=59|35=0|34=2|49=010|50=010BWN|52=20190614-19:25:25.275|56=EXC|10=116|
8=FIX.4.4|9=0049|35=0|34=3|49=EXC|56=010|52=20190614-19:25:54.000|10=173|
8=FIX.4.4|9=59|35=0|34=3|49=010|50=010BWN|52=20190614-19:25:55.276|56=EXC|10=121|
8=FIX.4.4|9=105|35=A|34=1|49=010|50=010BWN|52=20190614-19:26:40.964|56=EXC|98=0|108=30|141=Y|553=010FCE003|554=010FCE003|10=144|
8=FIX.4.4|9=0067|35=A|34=1|49=EXC|56=010|52=20190614-19:26:41.012|98=0|108=30|141=Y|10=002|
8=FIX.4.4|9=0049|35=0|34=2|49=EXC|56=010|52=20190614-19:27:11.000|10=167|
8=FIX.4.4|9=59|35=0|34=2|49=010|50=010BWN|52=20190614-19:27:10.992|56=EXC|10=118|
8=FIX.4.4|9=0049|35=0|34=3|49=EXC|56=010|52=20190614-19:27:41.000|10=171|
8=FIX.4.4|9=59|35=0|34=3|49=010|50=010BWN|52=20190614-19:27:40.985|56=EXC|10=124|
8=FIX.4.4|9=105|35=A|34=1|49=010|50=010BWN|52=20190614-19:36:19.859|56=EXC|98=0|108=30|141=Y|553=010FCE003|554=010FCE003|10=154|
8=FIX.4.4|9=0067|35=A|34=1|49=EXC|56=010|52=20190614-19:36:20.028|98=0|108=30|141=Y|10=007|
8=FIX.4.4|9=0049|35=0|34=2|49=EXC|56=010|52=20190614-19:36:50.000|10=170|
8=FIX.4.4|9=59|35=0|34=2|49=010|50=010BWN|52=20190614-19:36:49.871|56=EXC|10=126|
8=FIX.4.4|9=0049|35=0|34=3|49=EXC|56=010|52=20190614-19:37:20.000|10=169|
8=FIX.4.4|9=59|35=0|34=3|49=010|50=010BWN|52=20190614-19:37:19.866|56=EXC|10=129|
8=FIX.4.4|9=105|35=A|34=1|49=010|50=010BWN|52=20190614-19:37:48.461|56=EXC|98=0|108=30|141=Y|553=010FCE003|554=010FCE003|10=146|
8=FIX.4.4|9=0067|35=A|34=1|49=EXC|56=010|52=20190614-19:37:48.646|98=0|108=30|141=Y|10=024|
8=FIX.4.4|9=0049|35=0|34=2|49=EXC|56=010|52=20190614-19:38:18.000|10=176|
8=FIX.4.4|9=59|35=0|34=2|49=010|50=010BWN|52=20190614-19:38:19.385|56=EXC|10=125|
8=FIX.4.4|9=0049|35=0|34=3|49=EXC|56=010|52=20190614-19:38:48.000|10=180|
8=FIX.4.4|9=59|35=0|34=3|49=010|50=010BWN|52=20190614-19:38:49.385|56=EXC|10=129|
8=FIX.4.4|9=105|35=A|34=1|49=010|50=010BWN|52=20190614-19:40:02.603|56=EXC|98=0|108=30|141=Y|553=010FCE003|554=010FCE003|10=128|
8=FIX.4.4|9=0067|35=A|34=1|49=EXC|56=010|52=20190614-19:40:02.837|98=0|108=30|141=Y|10=010|
8=FIX.4.4|9=0049|35=0|34=2|49=EXC|56=010|52=20190614-19:40:32.000|10=165|
8=FIX.4.4|9=59|35=0|34=2|49=010|50=010BWN|52=20190614-19:40:33.549|56=EXC|10=116|
8=FIX.4.4|9=0049|35=0|34=3|49=EXC|56=010|52=20190614-19:41:02.000|10=164|
8=FIX.4.4|9=59|35=0|34=3|49=010|50=010BWN|52=20190614-19:41:03.549|56=EXC|10=115|
8=FIX.4.4|9=105|35=A|34=1|49=010|50=010BWN|52=20190614-19:44:43.599|56=EXC|98=0|108=30|141=Y|553=010FCE003|554=010FCE003|10=151|
8=FIX.4.4|9=0067|35=A|34=1|49=EXC|56=010|52=20190614-19:44:43.870|98=0|108=30|141=Y|10=016|
8=FIX.4.4|9=0049|35=0|34=2|49=EXC|56=010|52=20190614-19:45:13.000|10=169|
8=FIX.4.4|9=59|35=0|34=2|49=010|50=010BWN|52=20190614-19:45:14.541|56=EXC|10=112|
8=FIX.4.4|9=0049|35=0|34=3|49=EXC|56=010|52=20190614-19:45:43.000|10=173|
8=FIX.4.4|9=59|35=0|34=3|49=010|50=010BWN|52=20190614-19:45:44.541|56=EXC|10=116|
8=FIX.4.4|9=105|35=A|34=1|49=010|50=010BWN|52=20190614-19:46:56.502|56=EXC|98=0|108=30|141=Y|553=010FCE003|554=010FCE003|10=141|
8=FIX.4.4|9=0067|35=A|34=1|49=EXC|56=010|52=20190614-19:46:56.803|98=0|108=30|141=Y|10=018|
8=FIX.4.4|9=0049|35=0|34=2|49=EXC|56=010|52=20190614-19:47:26.000|10=175|
8=FIX.4.4|9=59|35=0|34=2|49=010|50=010BWN|52=20190614-19:47:27.473|56=EXC|10=122|
8=FIX.4.4|9=0049|35=0|34=3|49=EXC|56=010|52=20190614-19:47:56.000|10=179|
8=FIX.4.4|9=59|35=0|34=3|49=010|50=010BWN|52=20190614-19:47:57.473|56=EXC|10=126|
8=FIX.4.4|9=105|35=A|34=1|49=010|50=010BWN|52=20190614-19:49:02.314|56=EXC|98=0|108=30|141=Y|553=010FCE003|554=010FCE003|10=136|
8=FIX.4.4|9=0067|35=A|34=1|49=EXC|56=010|52=20190614-19:49:02.644|98=0|108=30|141=Y|10=015|
8=FIX.4.4|9=0049|35=0|34=2|49=EXC|56=010|52=20190614-19:49:32.000|10=174|
8=FIX.4.4|9=59|35=0|34=2|49=010|50=010BWN|52=20190614-19:49:33.284|56=EXC|10=121|
8=FIX.4.4|9=0049|35=0|34=3|49=EXC|56=010|52=20190614-19:50:02.000|10=164|
8=FIX.4.4|9=59|35=0|34=3|49=010|50=010BWN|52=20190614-19:50:03.283|56=EXC|10=110|
8=FIX.4.4|9=105|35=A|34=1|49=010|50=010BWN|52=20190614-19:51:28.252|56=EXC|98=0|108=30|141=Y|553=010FCE003|554=010FCE003|10=138|
8=FIX.4.4|9=0067|35=A|34=1|49=EXC|56=010|52=20190614-19:51:28.616|98=0|108=30|141=Y|10=015|
8=FIX.4.4|9=0049|35=0|34=2|49=EXC|56=010|52=20190614-19:51:58.000|10=175|
8=FIX.4.4|9=59|35=0|34=2|49=010|50=010BWN|52=20190614-19:51:59.197|56=EXC|10=125|
8=FIX.4.4|9=0049|35=0|34=3|49=EXC|56=010|52=20190614-19:52:28.000|10=174|
8=FIX.4.4|9=59|35=0|34=3|49=010|50=010BWN|52=20190614-19:52:29.197|56=EXC|10=124|
8=FIX.4.4|9=105|35=A|34=1|49=010|50=010BWN|52=20190614-19:54:33.558|56=EXC|98=0|108=30|141=Y|553=010FCE003|554=010FCE003|10=146|
8=FIX.4.4|9=0067|35=A|34=1|49=EXC|56=010|52=20190614-19:54:33.995|98=0|108=30|141=Y|10=024|
8=FIX.4.4|9=0049|35=0|34=2|49=EXC|56=010|52=20190614-19:55:03.000|10=169|
8=FIX.4.4|9=59|35=0|34=2|49=010|50=010BWN|52=20190614-19:55:04.518|56=EXC|10=116|
8=FIX.4.4|9=0049|35=0|34=3|49=EXC|56=010|52=20190614-19:55:33.000|10=173|
8=FIX.4.4|9=59|35=0|34=3|49=010|50=010BWN|52=20190614-19:55:34.518|56=EXC|10=120|
8=FIX.4.4|9=105|35=A|34=1|49=010|50=010BWN|52=20190614-20:01:11.487|56=EXC|98=0|108=30|141=Y|553=010FCE003|554=010FCE003|10=127|
8=FIX.4.4|9=0067|35=A|34=1|49=EXC|56=010|52=20190614-20:01:11.979|98=0|108=30|141=Y|10=006|
8=FIX.4.4|9=0049|35=0|34=2|49=EXC|56=010|52=20190614-20:01:41.000|10=154|
8=FIX.4.4|9=59|35=0|34=2|49=010|50=010BWN|52=20190614-20:01:42.429|56=EXC|10=102|
8=FIX.4.4|9=0049|35=0|34=3|49=EXC|56=010|52=20190614-20:02:11.000|10=153|
8=FIX.4.4|9=59|35=0|34=3|49=010|50=010BWN|52=20190614-20:02:12.430|56=EXC|10=093|
8=FIX.4.4|9=105|35=A|34=1|49=010|50=010BWN|52=20190614-20:07:40.064|56=EXC|98=0|108=30|141=Y|553=010FCE003|554=010FCE003|10=126|
8=FIX.4.4|9=0067|35=A|34=1|49=EXC|56=010|52=20190614-20:07:40.646|98=0|108=30|141=Y|10=005|
8=FIX.4.4|9=0049|35=0|34=2|49=EXC|56=010|52=20190614-20:08:10.000|10=157|
8=FIX.4.4|9=59|35=0|34=2|49=010|50=010BWN|52=20190614-20:08:11.020|56=EXC|10=092|
8=FIX.4.4|9=0049|35=0|34=3|49=EXC|56=010|52=20190614-20:08:40.000|10=161|
8=FIX.4.4|9=59|35=0|34=3|49=010|50=010BWN|52=20190614-20:08:41.020|56=EXC|10=096|
