8=FIX.4.4|9=110|35=A|34=1|49=007|50=007B26|52=20190527-21:24:06.975|56=EXC|43=Y|98=0|108=30|141=Y|553=002FCM002|554=002FCM002|10=103|
8=FIX.4.4|9=110|35=A|34=1|49=007|50=007B26|52=20190527-21:28:00.368|56=EXC|43=Y|98=0|108=30|141=Y|553=002FCM002|554=002FCM002|10=097|
8=FIX.4.4|9=110|35=A|34=1|49=007|50=007B26|52=20190527-21:29:23.506|56=EXC|43=Y|98=0|108=30|141=Y|553=007FCE001|554=007FCE001|10=089|
8=FIX.4.4|9=0067|35=A|34=1|49=EXC|56=007|52=20190527-21:29:23.504|98=0|108=30|141=Y|10=013|
8=FIX.4.4|9=110|35=A|34=1|49=007|50=007B26|52=20190528-12:36:49.676|56=EXC|43=Y|98=0|108=30|141=Y|553=007FCE001|554=007FCE001|10=104|
8=FIX.4.4|9=0067|35=A|34=1|49=EXC|56=007|52=20190528-12:36:50.467|98=0|108=30|141=Y|10=020|
8=FIX.4.4|9=0049|35=0|34=2|49=EXC|56=007|52=20190528-12:37:20.000|10=171|
8=FIX.4.4|9=59|35=0|34=2|49=007|50=007B26|52=20190528-12:37:20.570|56=EXC|10=060|
8=FIX.4.4|9=110|35=A|34=1|49=007|50=007B26|52=20190528-12:43:36.278|56=EXC|43=Y|98=0|108=30|141=Y|553=007FCE001|554=007FCE001|10=096|
8=FIX.4.4|9=0067|35=A|34=1|49=EXC|56=007|52=20190528-12:43:36.600|98=0|108=30|141=Y|10=011|
8=FIX.4.4|9=110|35=A|34=1|49=007|50=007B26|52=20190528-12:57:43.588|56=EXC|43=Y|98=0|108=30|141=Y|553=007FCE001|554=007FCE001|10=103|
8=FIX.4.4|9=0067|35=A|34=1|49=EXC|56=007|52=20190528-12:57:44.130|98=0|108=30|141=Y|10=013|
8=FIX.4.4|9=110|35=A|34=1|49=007|50=007B26|52=20190528-12:59:56.658|56=EXC|43=Y|98=0|108=30|141=Y|553=007FCE001|554=007FCE001|10=107|
8=FIX.4.4|9=0067|35=A|34=1|49=EXC|56=007|52=20190528-12:59:57.234|98=0|108=30|141=Y|10=024|
8=FIX.4.4|9=0049|35=0|34=2|49=EXC|56=007|52=20190528-13:00:27.000|10=169|
8=FIX.4.4|9=59|35=0|34=2|49=007|50=007B26|52=20190528-13:00:27.499|56=EXC|10=068|
8=FIX.4.4|9=110|35=A|34=1|49=007|50=007B26|52=20190528-13:26:08.615|56=EXC|43=Y|98=0|108=30|141=Y|553=007FCE001|554=007FCE001|10=092|
8=FIX.4.4|9=0067|35=A|34=1|49=EXC|56=007|52=20190528-13:26:08.671|98=0|108=30|141=Y|10=020|
8=FIX.4.4|9=110|35=A|34=1|49=007|50=007B26|52=20190528-15:22:28.766|56=EXC|43=Y|98=0|108=30|141=Y|553=007FCE001|554=007FCE001|10=099|
8=FIX.4.4|9=0067|35=A|34=1|49=EXC|56=007|52=20190528-15:22:28.841|98=0|108=30|141=Y|10=019|
8=FIX.4.4|9=110|35=A|34=1|49=007|50=007B26|52=20190528-15:24:02.496|56=EXC|43=Y|98=0|108=30|141=Y|553=007FCE001|554=007FCE001|10=093|
8=FIX.4.4|9=0067|35=A|34=1|49=EXC|56=007|52=20190528-15:24:02.571|98=0|108=30|141=Y|10=013|
8=FIX.4.4|9=110|35=A|34=1|49=007|50=007B26|52=20190528-20:13:38.039|56=EXC|43=Y|98=0|108=30|141=Y|553=007FCE001|554=007FCE001|10=089|
8=FIX.4.4|9=0067|35=A|34=1|49=EXC|56=007|52=20190528-20:13:38.108|98=0|108=30|141=Y|10=012|
8=FIX.4.4|9=110|35=A|34=1|49=007|50=007B26|52=20190528-20:18:12.372|56=EXC|43=Y|98=0|108=30|141=Y|553=007FCE001|554=007FCE001|10=086|
8=FIX.4.4|9=0067|35=A|34=1|49=EXC|56=007|52=20190528-20:18:12.409|98=0|108=30|141=Y|10=013|
8=FIX.4.4|9=110|35=A|34=1|49=007|50=007B26|52=20190528-20:54:13.178|56=EXC|43=Y|98=0|108=30|141=Y|553=007FCE001|554=007FCE001|10=091|
8=FIX.4.4|9=0067|35=A|34=1|49=EXC|56=007|52=20190528-20:54:13.256|98=0|108=30|141=Y|10=014|
