8=FIX.4.4|9=110|35=A|34=1|49=051|50=051B17|52=20190718-18:54:54.969|56=EXC|43=N|98=0|108=30|141=Y|553=051FCM001|554=051FCM001|10=113|
8=FIX.4.4|9=0067|35=A|34=1|49=EXC|56=051|52=20190718-18:55:39.158|98=0|108=30|141=Y|10=031|
8=FIX.4.4|9=0049|35=0|34=2|49=EXC|56=051|52=20190718-18:56:09.000|10=185|
8=FIX.4.4|9=59|35=0|34=2|49=051|50=051B17|52=20190718-18:55:25.862|56=EXC|10=074|
8=FIX.4.4|9=0049|35=0|34=3|49=EXC|56=051|52=20190718-18:56:39.000|10=189|
8=FIX.4.4|9=59|35=0|34=3|49=051|50=051B17|52=20190718-18:55:55.863|56=EXC|10=079|
8=FIX.4.4|9=110|35=A|34=1|49=051|50=051B17|52=20190718-19:01:01.884|56=EXC|43=N|98=0|108=30|141=Y|553=051FCM001|554=051FCM001|10=094|
8=FIX.4.4|9=0067|35=A|34=1|49=EXC|56=051|52=20190718-19:01:46.087|98=0|108=30|141=Y|10=022|
8=FIX.4.4|9=0049|35=0|34=2|49=EXC|56=051|52=20190718-19:02:16.000|10=175|
8=FIX.4.4|9=59|35=0|34=2|49=051|50=051B17|52=20190718-19:01:32.789|56=EXC|10=072|
8=FIX.4.4|9=110|35=A|34=1|49=051|50=051B17|52=20190718-19:04:31.734|56=EXC|43=N|98=0|108=30|141=Y|553=051FCM001|554=051FCM001|10=094|
8=FIX.4.4|9=0067|35=A|34=1|49=EXC|56=051|52=20190718-19:05:15.946|98=0|108=30|141=Y|10=026|
8=FIX.4.4|9=0049|35=0|34=2|49=EXC|56=051|52=20190718-19:05:45.000|10=180|
8=FIX.4.4|9=59|35=0|34=2|49=051|50=051B17|52=20190718-19:05:02.623|56=EXC|10=060|
8=FIX.4.4|9=110|35=A|34=1|49=051|50=051B17|52=20190718-19:41:04.220|56=EXC|43=N|98=0|108=30|141=Y|553=051FCM001|554=051FCM001|10=085|
8=FIX.4.4|9=0067|35=A|34=1|49=EXC|56=051|52=20190718-19:41:38.276|98=0|108=30|141=Y|10=027|
8=FIX.4.4|9=0049|35=0|34=2|49=EXC|56=051|52=20190718-19:42:08.000|10=180|
8=FIX.4.4|9=59|35=0|34=2|49=051|50=051B17|52=20190718-19:41:35.203|56=EXC|10=060|
8=FIX.4.4|9=0049|35=0|34=3|49=EXC|56=051|52=20190718-19:42:38.000|10=184|
8=FIX.4.4|9=59|35=0|34=3|49=051|50=051B17|52=20190718-19:42:05.203|56=EXC|10=059|
8=FIX.4.4|9=59|35=5|34=4|49=051|50=051B17|52=20190718-19:42:22.203|56=EXC|10=064|
8=FIX.4.4|9=0055|35=5|34=4|49=EXC|56=051|52=20190718-19:42:56.257|369=4|10=221|
8=FIX.4.4|9=59|35=5|34=5|49=051|50=051B17|52=20190718-19:42:22.219|56=EXC|10=072|
8=FIX.4.4|9=110|35=A|34=1|49=051|50=051B17|52=20190719-14:44:06.869|56=EXC|43=N|98=0|108=30|141=Y|553=051FCM001|554=051FCM001|10=105|
8=FIX.4.4|9=0067|35=A|34=1|49=EXC|56=051|52=20190719-14:44:41.904|98=0|108=30|141=Y|10=018|
8=FIX.4.4|9=110|35=A|34=1|49=051|50=051B17|52=20190719-14:56:25.910|56=EXC|43=N|98=0|108=30|141=Y|553=051FCM001|554=051FCM001|10=096|
8=FIX.4.4|9=0067|35=A|34=1|49=EXC|56=051|52=20190719-14:57:00.887|98=0|108=30|141=Y|10=027|
8=FIX.4.4|9=0049|35=0|34=2|49=EXC|56=051|52=20190719-14:57:30.000|10=177|
8=FIX.4.4|9=59|35=0|34=2|49=051|50=051B17|52=20190719-14:56:56.554|56=EXC|10=074|
8=FIX.4.4|9=110|35=A|34=1|49=051|50=051B17|52=20190719-15:37:21.403|56=EXC|43=N|98=0|108=30|141=Y|553=051FCM001|554=051FCM001|10=089|
8=FIX.4.4|9=0067|35=A|34=1|49=EXC|56=051|52=20190719-15:37:56.394|98=0|108=30|141=Y|10=030|
8=FIX.4.4|9=0049|35=0|34=2|49=EXC|56=051|52=20190719-15:38:26.000|10=182|
8=FIX.4.4|9=59|35=0|34=2|49=051|50=051B17|52=20190719-15:37:52.065|56=EXC|10=067|
8=FIX.4.4|9=0049|35=0|34=3|49=EXC|56=051|52=20190719-15:38:56.000|10=186|
8=FIX.4.4|9=59|35=0|34=3|49=051|50=051B17|52=20190719-15:38:22.064|56=EXC|10=065|
8=FIX.4.4|9=0049|35=0|34=4|49=EXC|56=051|52=20190719-15:39:26.000|10=185|
8=FIX.4.4|9=59|35=0|34=4|49=051|50=051B17|52=20190719-15:38:52.064|56=EXC|10=069|
8=FIX.4.4|9=0049|35=0|34=5|49=EXC|56=051|52=20190719-15:39:56.000|10=189|
8=FIX.4.4|9=59|35=0|34=5|49=051|50=051B17|52=20190719-15:39:22.543|56=EXC|10=070|
8=FIX.4.4|9=0049|35=0|34=6|49=EXC|56=051|52=20190719-15:40:26.000|10=179|
8=FIX.4.4|9=59|35=0|34=6|49=051|50=051B17|52=20190719-15:39:53.062|56=EXC|10=071|
8=FIX.4.4|9=0214|35=R|34=7|49=EXC|56=051|57=051B17|52=20190719-15:40:47.722|131=20190719-000000000005.00|146=1|55=T24U19F|762=AFIR|48=27227|22=M|54=1|38=110|453=3|448=045B17|447=C|452=12|448=045|447=C|452=1|448=051B17|447=C|452=37|10=004|
8=FIX.4.4|9=59|35=0|34=7|49=051|50=051B17|52=20190719-15:40:23.062|56=EXC|10=061|
8=FIX.4.4|9=169|35=S|34=8|49=051|50=051B17|52=20190719-15:40:32.857|56=EXC|1=RT001|55=T24U19F|62=20190718-14:30:01.000|117=201907191037166_S|131=20190719-000000000005.00|135=0|762=AFIR|10=122|
8=FIX.4.4|9=0188|35=AI|34=8|49=EXC|56=051|57=051B17|52=20190719-15:41:07.830|117=201907191037166_S|55=T24U19F|762=AFIR|1=RT001|135=0|62=20190718-14:30:01.000|297=9|300=99|58=(408): Debe ingresar un precio|10=081|
8=FIX.4.4|9=0049|35=0|34=9|49=EXC|56=051|52=20190719-15:41:37.000|10=185|
8=FIX.4.4|9=59|35=0|34=9|49=051|50=051B17|52=20190719-15:41:03.065|56=EXC|10=065|
8=FIX.4.4|9=0050|35=0|34=10|49=EXC|56=051|52=20190719-15:42:07.000|10=215|
8=FIX.4.4|9=60|35=0|34=10|49=051|50=051B17|52=20190719-15:41:33.064|56=EXC|10=099|
8=FIX.4.4|9=0050|35=0|34=11|49=EXC|56=051|52=20190719-15:42:37.000|10=219|
8=FIX.4.4|9=60|35=0|34=11|49=051|50=051B17|52=20190719-15:42:03.061|56=EXC|10=095|
8=FIX.4.4|9=0214|35=R|34=12|49=EXC|56=051|57=051B17|52=20190719-15:42:38.161|131=20190719-000000000007.00|146=1|55=T24U19F|762=AFIR|48=27227|22=M|54=1|38=15|453=3|448=045B17|447=C|452=12|448=045|447=C|452=1|448=051B17|447=C|452=37|10=005|
8=FIX.4.4|9=0213|35=R|34=13|49=EXC|56=051|57=051B17|52=20190719-15:42:58.246|131=20190719-000000000007.00|146=1|55=T24U19F|762=AFIR|48=27227|22=M|54=1|38=0|453=3|448=045B17|447=C|452=12|448=045|447=C|452=1|448=051B17|447=C|452=37|10=213|
8=FIX.4.4|9=60|35=0|34=12|49=051|50=051B17|52=20190719-15:42:33.069|56=EXC|10=107|
8=FIX.4.4|9=0050|35=0|34=14|49=EXC|56=051|52=20190719-15:43:28.000|10=223|
8=FIX.4.4|9=60|35=5|34=13|49=051|50=051B17|52=20190719-15:42:54.064|56=EXC|10=111|
8=FIX.4.4|9=0057|35=5|34=15|49=EXC|56=051|52=20190719-15:43:29.030|369=13|10=052|
8=FIX.4.4|9=110|35=A|34=1|49=051|50=051B17|52=20190723-15:08:14.851|56=EXC|43=N|98=0|108=30|141=Y|553=051FCM001|554=051FCM001|10=091|
8=FIX.4.4|9=0067|35=A|34=1|49=EXC|56=051|52=20190723-15:08:54.178|98=0|108=30|141=Y|10=021|
8=FIX.4.4|9=0049|35=0|34=2|49=EXC|56=051|52=20190723-15:09:24.000|10=173|
8=FIX.4.4|9=59|35=0|34=2|49=051|50=051B17|52=20190723-15:08:45.556|56=EXC|10=067|
8=FIX.4.4|9=0049|35=0|34=3|49=EXC|56=051|52=20190723-15:09:54.000|10=177|
8=FIX.4.4|9=59|35=0|34=3|49=051|50=051B17|52=20190723-15:09:15.602|56=EXC|10=058|
8=FIX.4.4|9=0049|35=0|34=4|49=EXC|56=051|52=20190723-15:10:24.000|10=167|
8=FIX.4.4|9=59|35=0|34=4|49=051|50=051B17|52=20190723-15:09:46.558|56=EXC|10=073|
8=FIX.4.4|9=59|35=5|34=5|49=051|50=051B17|52=20190723-15:09:51.561|56=EXC|10=069|
8=FIX.4.4|9=0055|35=5|34=5|49=EXC|56=051|52=20190723-15:10:30.880|369=5|10=204|
8=FIX.4.4|9=110|35=A|34=1|49=051|50=051B17|52=20190723-15:34:01.901|56=EXC|43=N|98=0|108=30|141=Y|553=051FCM001|554=051FCM001|10=082|
8=FIX.4.4|9=0067|35=A|34=1|49=EXC|56=051|52=20190723-15:34:41.253|98=0|108=30|141=Y|10=010|
8=FIX.4.4|9=0049|35=0|34=2|49=EXC|56=051|52=20190723-15:35:11.000|10=168|
8=FIX.4.4|9=59|35=0|34=2|49=051|50=051B17|52=20190723-15:34:32.478|56=EXC|10=065|
8=FIX.4.4|9=59|35=5|34=3|49=051|50=051B17|52=20190723-15:34:53.480|56=EXC|10=067|
8=FIX.4.4|9=0055|35=5|34=3|49=EXC|56=051|52=20190723-15:35:32.832|369=3|10=206|
8=FIX.4.4|9=59|35=5|34=4|49=051|50=051B17|52=20190723-15:34:53.495|56=EXC|10=074|
8=FIX.4.4|9=110|35=A|34=1|49=051|50=051B17|52=20190723-15:41:24.678|56=EXC|43=N|98=0|108=30|141=Y|553=051FCM001|554=051FCM001|10=096|
8=FIX.4.4|9=0067|35=A|34=1|49=EXC|56=051|52=20190723-15:42:04.040|98=0|108=30|141=Y|10=002|
8=FIX.4.4|9=0049|35=0|34=2|49=EXC|56=051|52=20190723-15:42:34.000|10=171|
8=FIX.4.4|9=59|35=0|34=2|49=051|50=051B17|52=20190723-15:41:55.399|56=EXC|10=070|
8=FIX.4.4|9=0049|35=0|34=3|49=EXC|56=051|52=20190723-15:43:04.000|10=170|
8=FIX.4.4|9=59|35=0|34=3|49=051|50=051B17|52=20190723-15:42:25.404|56=EXC|10=056|
8=FIX.4.4|9=0049|35=0|34=4|49=EXC|56=051|52=20190723-15:43:34.000|10=174|
8=FIX.4.4|9=59|35=0|34=4|49=051|50=051B17|52=20190723-15:42:55.396|56=EXC|10=070|
8=FIX.4.4|9=59|35=5|34=5|49=051|50=051B17|52=20190723-15:43:01.402|56=EXC|10=056|
8=FIX.4.4|9=0055|35=5|34=5|49=EXC|56=051|52=20190723-15:43:40.736|369=5|10=211|
8=FIX.4.4|9=110|35=A|34=1|49=051|50=051B17|52=20190723-16:03:27.421|56=EXC|43=N|98=0|108=30|141=Y|553=051FCM001|554=051FCM001|10=084|
8=FIX.4.4|9=0067|35=A|34=1|49=EXC|56=051|52=20190723-16:04:06.808|98=0|108=30|141=Y|10=015|
8=FIX.4.4|9=0049|35=0|34=2|49=EXC|56=051|52=20190723-16:04:36.000|10=172|
8=FIX.4.4|9=59|35=0|34=2|49=051|50=051B17|52=20190723-16:03:58.138|56=EXC|10=063|
8=FIX.4.4|9=0049|35=0|34=3|49=EXC|56=051|52=20190723-16:05:06.000|10=171|
8=FIX.4.4|9=59|35=0|34=3|49=051|50=051B17|52=20190723-16:04:28.141|56=EXC|10=056|
8=FIX.4.4|9=0049|35=0|34=4|49=EXC|56=051|52=20190723-16:05:36.000|10=175|
8=FIX.4.4|9=59|35=0|34=4|49=051|50=051B17|52=20190723-16:04:58.148|56=EXC|10=067|
8=FIX.4.4|9=59|35=5|34=5|49=051|50=051B17|52=20190723-16:05:04.169|56=EXC|10=068|
8=FIX.4.4|9=0055|35=5|34=5|49=EXC|56=051|52=20190723-16:05:43.555|369=5|10=212|
8=FIX.4.4|9=110|35=A|34=1|49=051|50=051B17|52=20190723-16:12:06.476|56=EXC|43=N|98=0|108=30|141=Y|553=051FCM001|554=051FCM001|10=091|
8=FIX.4.4|9=0067|35=A|34=1|49=EXC|56=051|52=20190723-16:12:45.867|98=0|108=30|141=Y|10=022|
8=FIX.4.4|9=0049|35=0|34=2|49=EXC|56=051|52=20190723-16:13:15.000|10=169|
8=FIX.4.4|9=59|35=0|34=2|49=051|50=051B17|52=20190723-16:12:37.118|56=EXC|10=058|
8=FIX.4.4|9=0049|35=0|34=3|49=EXC|56=051|52=20190723-16:13:45.000|10=173|
8=FIX.4.4|9=59|35=0|34=3|49=051|50=051B17|52=20190723-16:13:07.116|56=EXC|10=055|
8=FIX.4.4|9=0049|35=0|34=4|49=EXC|56=051|52=20190723-16:14:15.000|10=172|
8=FIX.4.4|9=59|35=0|34=4|49=051|50=051B17|52=20190723-16:13:37.117|56=EXC|10=060|
8=FIX.4.4|9=59|35=5|34=5|49=051|50=051B17|52=20190723-16:13:43.118|56=EXC|10=064|
8=FIX.4.4|9=0055|35=5|34=5|49=EXC|56=051|52=20190723-16:14:22.482|369=5|10=208|
8=FIX.4.4|9=110|35=A|34=1|49=051|50=051B17|52=20190723-16:16:11.339|56=EXC|43=N|98=0|108=30|141=Y|553=051FCM001|554=051FCM001|10=089|
8=FIX.4.4|9=0067|35=A|34=1|49=EXC|56=051|52=20190723-16:16:50.735|98=0|108=30|141=Y|10=016|
8=FIX.4.4|9=0049|35=0|34=2|49=EXC|56=051|52=20190723-16:17:20.000|10=169|
8=FIX.4.4|9=59|35=0|34=2|49=051|50=051B17|52=20190723-16:16:42.085|56=EXC|10=061|
8=FIX.4.4|9=59|35=5|34=3|49=051|50=051B17|52=20190723-16:17:03.076|56=EXC|10=065|
8=FIX.4.4|9=0055|35=5|34=3|49=EXC|56=051|52=20190723-16:17:42.445|369=3|10=208|
8=FIX.4.4|9=59|35=5|34=4|49=051|50=051B17|52=20190723-16:17:03.076|56=EXC|10=066|
8=FIX.4.4|9=110|35=A|34=1|49=051|50=051B17|52=20190723-16:26:56.934|56=EXC|43=N|98=0|108=30|141=Y|553=051FCM001|554=051FCM001|10=100|
8=FIX.4.4|9=0067|35=A|34=1|49=EXC|56=051|52=20190723-16:27:36.332|98=0|108=30|141=Y|10=015|
8=FIX.4.4|9=0049|35=0|34=2|49=EXC|56=051|52=20190723-16:28:06.000|10=175|
8=FIX.4.4|9=59|35=0|34=2|49=051|50=051B17|52=20190723-16:27:27.652|56=EXC|10=066|
8=FIX.4.4|9=0049|35=0|34=3|49=EXC|56=051|52=20190723-16:28:36.000|10=179|
8=FIX.4.4|9=59|35=0|34=3|49=051|50=051B17|52=20190723-16:27:57.651|56=EXC|10=069|
8=FIX.4.4|9=0049|35=0|34=4|49=EXC|56=051|52=20190723-16:29:06.000|10=178|
8=FIX.4.4|9=59|35=0|34=4|49=051|50=051B17|52=20190723-16:28:27.650|56=EXC|10=067|
8=FIX.4.4|9=59|35=5|34=5|49=051|50=051B17|52=20190723-16:28:33.641|56=EXC|10=070|
8=FIX.4.4|9=0055|35=5|34=5|49=EXC|56=051|52=20190723-16:29:13.016|369=5|10=207|
8=FIX.4.4|9=110|35=A|34=1|49=051|50=051B17|52=20190723-16:31:06.597|56=EXC|43=N|98=0|108=30|141=Y|553=051FCM001|554=051FCM001|10=096|
8=FIX.4.4|9=0067|35=A|34=1|49=EXC|56=051|52=20190723-16:31:45.998|98=0|108=30|141=Y|10=028|
8=FIX.4.4|9=0049|35=0|34=2|49=EXC|56=051|52=20190723-16:32:15.000|10=170|
8=FIX.4.4|9=59|35=0|34=2|49=051|50=051B17|52=20190723-16:31:37.325|56=EXC|10=059|
8=FIX.4.4|9=0049|35=0|34=3|49=EXC|56=051|52=20190723-16:32:45.000|10=174|
8=FIX.4.4|9=59|35=0|34=3|49=051|50=051B17|52=20190723-16:32:07.332|56=EXC|10=056|
8=FIX.4.4|9=0049|35=0|34=4|49=EXC|56=051|52=20190723-16:33:15.000|10=173|
8=FIX.4.4|9=59|35=0|34=4|49=051|50=051B17|52=20190723-16:32:38.322|56=EXC|10=060|
8=FIX.4.4|9=59|35=5|34=5|49=051|50=051B17|52=20190723-16:32:43.324|56=EXC|10=064|
8=FIX.4.4|9=0055|35=5|34=5|49=EXC|56=051|52=20190723-16:33:22.700|369=5|10=202|
8=FIX.4.4|9=110|35=A|34=1|49=051|50=051B17|52=20190723-16:37:00.550|56=EXC|43=N|98=0|108=30|141=Y|553=051FCM001|554=051FCM001|10=085|
8=FIX.4.4|9=0067|35=A|34=1|49=EXC|56=051|52=20190723-16:37:39.955|98=0|108=30|141=Y|10=030|
8=FIX.4.4|9=0049|35=0|34=2|49=EXC|56=051|52=20190723-16:38:09.000|10=179|
8=FIX.4.4|9=59|35=0|34=2|49=051|50=051B17|52=20190723-16:37:31.133|56=EXC|10=056|
8=FIX.4.4|9=0049|35=0|34=3|49=EXC|56=051|52=20190723-16:38:39.000|10=183|
8=FIX.4.4|9=59|35=0|34=3|49=051|50=051B17|52=20190723-16:38:01.226|56=EXC|10=058|
8=FIX.4.4|9=110|35=A|34=1|49=051|50=051B17|52=20190723-16:41:28.434|56=EXC|43=N|98=0|108=30|141=Y|553=051FCM001|554=051FCM001|10=091|
8=FIX.4.4|9=0067|35=A|34=1|49=EXC|56=051|52=20190723-16:42:07.956|98=0|108=30|141=Y|10=022|
8=FIX.4.4|9=0049|35=0|34=2|49=EXC|56=051|52=20190723-16:42:37.000|10=175|
8=FIX.4.4|9=59|35=0|34=2|49=051|50=051B17|52=20190723-16:41:59.099|56=EXC|10=072|
8=FIX.4.4|9=59|35=5|34=3|49=051|50=051B17|52=20190723-16:42:20.091|56=EXC|10=059|
8=FIX.4.4|9=0055|35=5|34=3|49=EXC|56=051|52=20190723-16:42:59.474|369=3|10=216|
8=FIX.4.4|9=59|35=5|34=4|49=051|50=051B17|52=20190723-16:42:20.091|56=EXC|10=060|
8=FIX.4.4|9=110|35=A|34=1|49=051|50=051B17|52=20190723-16:48:30.934|56=EXC|43=N|98=0|108=30|141=Y|553=051FCM001|554=051FCM001|10=096|
8=FIX.4.4|9=0067|35=A|34=1|49=EXC|56=051|52=20190723-16:49:10.356|98=0|108=30|141=Y|10=017|
8=FIX.4.4|9=0049|35=0|34=2|49=EXC|56=051|52=20190723-16:49:40.000|10=176|
8=FIX.4.4|9=59|35=0|34=2|49=051|50=051B17|52=20190723-16:49:01.541|56=EXC|10=059|
8=FIX.4.4|9=59|35=5|34=3|49=051|50=051B17|52=20190723-16:49:22.533|56=EXC|10=069|
8=FIX.4.4|9=0055|35=5|34=3|49=EXC|56=051|52=20190723-16:50:01.930|369=3|10=199|
8=FIX.4.4|9=110|35=A|34=1|49=051|50=051B17|52=20190723-16:52:26.841|56=EXC|43=N|98=0|108=30|141=Y|553=051FCM001|554=051FCM001|10=093|
8=FIX.4.4|9=0067|35=A|34=1|49=EXC|56=051|52=20190723-16:53:06.260|98=0|108=30|141=Y|10=011|
8=FIX.4.4|9=0049|35=0|34=2|49=EXC|56=051|52=20190723-16:53:36.000|10=176|
8=FIX.4.4|9=59|35=0|34=2|49=051|50=051B17|52=20190723-16:52:57.569|56=EXC|10=074|
8=FIX.4.4|9=59|35=5|34=3|49=051|50=051B17|52=20190723-16:53:18.579|56=EXC|10=079|
8=FIX.4.4|9=0055|35=5|34=3|49=EXC|56=051|52=20190723-16:53:57.972|369=3|10=219|
8=FIX.4.4|9=110|35=A|34=1|49=051|50=051B17|52=20190723-18:39:51.738|56=EXC|43=N|98=0|108=30|141=Y|553=051FCM001|554=051FCM001|10=103|
8=FIX.4.4|9=0067|35=A|34=1|49=EXC|56=051|52=20190723-18:40:31.225|98=0|108=30|141=Y|10=008|
8=FIX.4.4|9=0049|35=0|34=2|49=EXC|56=051|52=20190723-18:41:01.000|10=167|
8=FIX.4.4|9=59|35=0|34=2|49=051|50=051B17|52=20190723-18:40:22.436|56=EXC|10=058|
8=FIX.4.4|9=0049|35=0|34=3|49=EXC|56=051|52=20190723-18:41:31.000|10=171|
8=FIX.4.4|9=59|35=0|34=3|49=051|50=051B17|52=20190723-18:40:52.450|56=EXC|10=058|
8=FIX.4.4|9=59|35=5|34=4|49=051|50=051B17|52=20190723-18:41:08.434|56=EXC|10=068|
8=FIX.4.4|9=0055|35=5|34=4|49=EXC|56=051|52=20190723-18:41:47.912|369=4|10=213|
8=FIX.4.4|9=110|35=A|34=1|49=051|50=051B17|52=20190723-18:51:17.611|56=EXC|43=N|98=0|108=30|141=Y|553=051FCM001|554=051FCM001|10=089|
8=FIX.4.4|9=0067|35=A|34=1|49=EXC|56=051|52=20190723-18:51:57.119|98=0|108=30|141=Y|10=020|
8=FIX.4.4|9=0049|35=0|34=2|49=EXC|56=051|52=20190723-18:52:27.000|10=177|
8=FIX.4.4|9=59|35=0|34=2|49=051|50=051B17|52=20190723-18:51:48.277|56=EXC|10=071|
8=FIX.4.4|9=0049|35=0|34=3|49=EXC|56=051|52=20190723-18:52:57.000|10=181|
8=FIX.4.4|9=59|35=0|34=3|49=051|50=051B17|52=20190723-18:52:18.323|56=EXC|10=062|
8=FIX.4.4|9=59|35=5|34=4|49=051|50=051B17|52=20190723-18:52:34.305|56=EXC|10=066|
8=FIX.4.4|9=0055|35=5|34=4|49=EXC|56=051|52=20190723-18:53:13.799|369=4|10=222|
8=FIX.4.4|9=110|35=A|34=1|49=051|50=051B17|52=20190723-20:20:39.777|56=EXC|43=N|98=0|108=30|141=Y|553=051FCM001|554=051FCM001|10=095|
8=FIX.4.4|9=0067|35=A|34=1|49=EXC|56=051|52=20190723-15:03:34.348|98=0|108=30|141=Y|10=013|
8=FIX.4.4|9=0049|35=0|34=2|49=EXC|56=051|52=20190723-15:04:04.000|10=166|
8=FIX.4.4|9=59|35=0|34=2|49=051|50=051B17|52=20190723-20:21:10.460|56=EXC|10=044|
8=FIX.4.4|9=110|35=A|34=1|49=051|50=051B17|52=20190723-20:21:42.767|56=EXC|43=N|98=0|108=30|141=Y|553=051FCM001|554=051FCM001|10=089|
8=FIX.4.4|9=110|35=A|34=1|49=051|50=051B17|52=20190723-20:49:27.891|56=EXC|43=N|98=0|108=30|141=Y|553=051FCM001|554=051FCM001|10=100|
8=FIX.4.4|9=0067|35=A|34=1|49=EXC|56=051|52=20190723-15:25:54.486|98=0|108=30|141=Y|10=022|
8=FIX.4.4|9=0049|35=0|34=2|49=EXC|56=051|52=20190723-15:26:24.000|10=172|
8=FIX.4.4|9=59|35=0|34=2|49=051|50=051B17|52=20190723-20:49:58.528|56=EXC|10=071|
8=FIX.4.4|9=0049|35=0|34=3|49=EXC|56=051|52=20190723-15:26:54.000|10=176|
8=FIX.4.4|9=59|35=0|34=3|49=051|50=051B17|52=20190723-20:50:28.539|56=EXC|10=063|
8=FIX.4.4|9=0049|35=0|34=4|49=EXC|56=051|52=20190723-15:27:24.000|10=175|
8=FIX.4.4|9=59|35=0|34=4|49=051|50=051B17|52=20190723-20:50:59.530|56=EXC|10=059|
8=FIX.4.4|9=0049|35=0|34=5|49=EXC|56=051|52=20190723-15:27:54.000|10=179|
8=FIX.4.4|9=59|35=0|34=5|49=051|50=051B17|52=20190723-20:51:29.529|56=EXC|10=066|
8=FIX.4.4|9=0049|35=0|34=6|49=EXC|56=051|52=20190723-15:28:24.000|10=178|
8=FIX.4.4|9=59|35=0|34=6|49=051|50=051B17|52=20190723-20:51:59.529|56=EXC|10=070|
8=FIX.4.4|9=0049|35=0|34=7|49=EXC|56=051|52=20190723-15:28:54.000|10=182|
8=FIX.4.4|9=59|35=0|34=7|49=051|50=051B17|52=20190723-20:52:29.844|56=EXC|10=069|
8=FIX.4.4|9=0049|35=0|34=8|49=EXC|56=051|52=20190723-15:29:24.000|10=181|
8=FIX.4.4|9=59|35=0|34=8|49=051|50=051B17|52=20190723-20:53:00.515|56=EXC|10=055|
8=FIX.4.4|9=0214|35=R|34=9|49=EXC|56=051|57=051B17|52=20190723-15:29:35.904|131=20190723-000000000026.00|146=1|55=T24U19F|762=AFIR|48=27227|22=M|54=1|38=110|453=3|448=045B17|447=C|452=12|448=045|447=C|452=1|448=051B17|447=C|452=37|10=005|
8=FIX.4.4|9=169|35=S|34=9|49=051|50=051B17|52=20190723-20:53:29.396|56=EXC|1=RT001|55=T24U19F|62=20190723-16:07:35.000|117=201907231549236_S|131=20190723-000000000026.00|135=0|762=AFIR|10=130|
8=FIX.4.4|9=0189|35=AI|34=10|49=EXC|56=051|57=051B17|52=20190723-15:29:55.979|117=201907231549236_S|55=T24U19F|762=AFIR|1=RT001|135=0|62=20190723-16:07:35.000|297=9|300=99|58=(408): Debe ingresar un precio|10=151|
8=FIX.4.4|9=0050|35=0|34=11|49=EXC|56=051|52=20190723-15:30:25.000|10=208|
8=FIX.4.4|9=60|35=0|34=10|49=051|50=051B17|52=20190723-20:53:59.527|56=EXC|10=105|
8=FIX.4.4|9=0050|35=0|34=12|49=EXC|56=051|52=20190723-15:30:55.000|10=212|
8=FIX.4.4|9=60|35=0|34=11|49=051|50=051B17|52=20190723-20:54:30.120|56=EXC|10=085|
8=FIX.4.4|9=0050|35=0|34=13|49=EXC|56=051|52=20190723-15:31:25.000|10=211|
8=FIX.4.4|9=60|35=0|34=12|49=051|50=051B17|52=20190723-20:55:00.528|56=EXC|10=096|
8=FIX.4.4|9=0214|35=R|34=14|49=EXC|56=051|57=051B17|52=20190723-15:31:31.276|131=20190723-000000000028.00|146=1|55=T24U19F|762=AFIR|48=27227|22=M|54=1|38=15|453=3|448=045B17|447=C|452=12|448=045|447=C|452=1|448=051B17|447=C|452=37|10=254|
8=FIX.4.4|9=0213|35=R|34=15|49=EXC|56=051|57=051B17|52=20190723-15:31:56.290|131=20190723-000000000028.00|146=1|55=T24U19F|762=AFIR|48=27227|22=M|54=1|38=0|453=3|448=045B17|447=C|452=12|448=045|447=C|452=1|448=051B17|447=C|452=37|10=203|
8=FIX.4.4|9=60|35=0|34=13|49=051|50=051B17|52=20190723-20:55:30.692|56=EXC|10=102|
8=FIX.4.4|9=0050|35=0|34=16|49=EXC|56=051|52=20190723-15:32:26.000|10=216|
8=FIX.4.4|9=60|35=5|34=14|49=051|50=051B17|52=20190723-20:56:00.523|56=EXC|10=099|
8=FIX.4.4|9=0057|35=5|34=17|49=EXC|56=051|52=20190723-15:32:27.105|369=14|10=049|
8=FIX.4.4|9=110|35=A|34=1|49=051|50=051B17|52=20190724-14:43:51.949|56=EXC|43=N|98=0|108=30|141=Y|553=051FCM001|554=051FCM001|10=099|
8=FIX.4.4|9=0067|35=A|34=1|49=EXC|56=051|52=20190724-14:44:32.374|98=0|108=30|141=Y|10=015|
8=FIX.4.4|9=0049|35=0|34=2|49=EXC|56=051|52=20190724-14:45:02.000|10=169|
8=FIX.4.4|9=59|35=0|34=2|49=051|50=051B17|52=20190724-14:44:22.708|56=EXC|10=061|
8=FIX.4.4|9=59|35=5|34=3|49=051|50=051B17|52=20190724-14:44:43.715|56=EXC|10=068|
8=FIX.4.4|9=0055|35=5|34=3|49=EXC|56=051|52=20190724-14:45:24.114|369=3|10=201|
8=FIX.4.4|9=59|35=5|34=4|49=051|50=051B17|52=20190724-14:44:43.715|56=EXC|10=069|
8=FIX.4.4|9=110|35=A|34=1|49=051|50=051B17|52=20190724-14:56:26.387|56=EXC|43=N|98=0|108=30|141=Y|553=051FCM001|554=051FCM001|10=101|
8=FIX.4.4|9=0067|35=A|34=1|49=EXC|56=051|52=20190724-14:57:06.825|98=0|108=30|141=Y|10=021|
8=FIX.4.4|9=0049|35=0|34=2|49=EXC|56=051|52=20190724-14:57:36.000|10=179|
8=FIX.4.4|9=59|35=0|34=2|49=051|50=051B17|52=20190724-14:56:57.165|56=EXC|10=069|
8=FIX.4.4|9=59|35=5|34=3|49=051|50=051B17|52=20190724-14:57:18.164|56=EXC|10=072|
8=FIX.4.4|9=0055|35=5|34=3|49=EXC|56=051|52=20190724-14:57:58.582|369=3|10=220|
8=FIX.4.4|9=59|35=5|34=4|49=051|50=051B17|52=20190724-14:57:18.177|56=EXC|10=077|
8=FIX.4.4|9=110|35=A|34=1|49=051|50=051B17|52=20190724-15:16:13.693|56=EXC|43=N|98=0|108=30|141=Y|553=051FCM001|554=051FCM001|10=094|
8=FIX.4.4|9=0067|35=A|34=1|49=EXC|56=051|52=20190724-15:16:54.146|98=0|108=30|141=Y|10=016|
8=FIX.4.4|9=0049|35=0|34=2|49=EXC|56=051|52=20190724-15:17:24.000|10=173|
8=FIX.4.4|9=59|35=0|34=2|49=051|50=051B17|52=20190724-15:16:44.396|56=EXC|10=068|
8=FIX.4.4|9=59|35=5|34=3|49=051|50=051B17|52=20190724-15:17:05.395|56=EXC|10=071|
8=FIX.4.4|9=0055|35=5|34=3|49=EXC|56=051|52=20190724-15:17:45.830|369=3|10=209|
8=FIX.4.4|9=110|35=A|34=1|49=051|50=051B17|52=20190724-16:08:06.407|56=EXC|43=N|98=0|108=30|141=Y|553=051FCM001|554=051FCM001|10=091|
8=FIX.4.4|9=0067|35=A|34=1|49=EXC|56=051|52=20190724-16:08:46.975|98=0|108=30|141=Y|10=029|
8=FIX.4.4|9=0049|35=0|34=2|49=EXC|56=051|52=20190724-16:09:16.000|10=176|
8=FIX.4.4|9=59|35=0|34=2|49=051|50=051B17|52=20190724-16:08:36.804|56=EXC|10=065|
8=FIX.4.4|9=59|35=5|34=3|49=051|50=051B17|52=20190724-16:08:57.799|56=EXC|10=087|
8=FIX.4.4|9=0055|35=5|34=3|49=EXC|56=051|52=20190724-16:09:38.273|369=3|10=214|
8=FIX.4.4|9=110|35=A|34=1|49=051|50=051B17|52=20190724-16:11:27.238|56=EXC|43=N|98=0|108=30|141=Y|553=051FCM001|554=051FCM001|10=090|
8=FIX.4.4|9=0067|35=A|34=1|49=EXC|56=051|52=20190724-16:12:07.727|98=0|108=30|141=Y|10=016|
8=FIX.4.4|9=0049|35=0|34=2|49=EXC|56=051|52=20190724-16:12:37.000|10=173|
8=FIX.4.4|9=59|35=0|34=2|49=051|50=051B17|52=20190724-16:11:57.708|56=EXC|10=065|
8=FIX.4.4|9=0049|35=0|34=3|49=EXC|56=051|52=20190724-16:13:07.000|10=172|
8=FIX.4.4|9=59|35=0|34=3|49=051|50=051B17|52=20190724-16:12:27.711|56=EXC|10=058|
8=FIX.4.4|9=0049|35=0|34=4|49=EXC|56=051|52=20190724-16:13:37.000|10=176|
8=FIX.4.4|9=59|35=0|34=4|49=051|50=051B17|52=20190724-16:12:57.713|56=EXC|10=064|
8=FIX.4.4|9=0049|35=0|34=5|49=EXC|56=051|52=20190724-16:14:07.000|10=175|
8=FIX.4.4|9=59|35=0|34=5|49=051|50=051B17|52=20190724-16:13:27.892|56=EXC|10=071|
8=FIX.4.4|9=0049|35=0|34=6|49=EXC|56=051|52=20190724-16:14:37.000|10=179|
8=FIX.4.4|9=59|35=0|34=6|49=051|50=051B17|52=20190724-16:13:58.744|56=EXC|10=072|
8=FIX.4.4|9=0049|35=0|34=7|49=EXC|56=051|52=20190724-16:15:07.000|10=178|
8=FIX.4.4|9=59|35=0|34=7|49=051|50=051B17|52=20190724-16:14:28.754|56=EXC|10=072|
8=FIX.4.4|9=0049|35=0|34=8|49=EXC|56=051|52=20190724-16:15:37.000|10=182|
8=FIX.4.4|9=59|35=0|34=8|49=051|50=051B17|52=20190724-16:14:59.714|56=EXC|10=073|
8=FIX.4.4|9=0214|35=R|34=9|49=EXC|56=051|57=051B17|52=20190724-16:15:44.311|131=20190724-000000000008.00|146=1|55=T24U19F|762=AFIR|48=27227|22=M|54=1|38=110|453=3|448=045B17|447=C|452=12|448=045|447=C|452=1|448=051B17|447=C|452=37|10=251|
8=FIX.4.4|9=169|35=S|34=9|49=051|50=051B17|52=20190724-16:15:23.928|56=EXC|1=RT001|55=T24U19F|62=20190723-16:07:35.000|117=201907241111226_S|131=20190724-000000000008.00|135=0|762=AFIR|10=115|
8=FIX.4.4|9=0189|35=AI|34=10|49=EXC|56=051|57=051B17|52=20190724-16:16:04.414|117=201907241111226_S|55=T24U19F|762=AFIR|1=RT001|135=0|62=20190723-16:07:35.000|297=9|300=99|58=(408): Debe ingresar un precio|10=112|
8=FIX.4.4|9=0050|35=0|34=11|49=EXC|56=051|52=20190724-16:16:34.000|10=214|
8=FIX.4.4|9=60|35=0|34=10|49=051|50=051B17|52=20190724-16:15:54.719|56=EXC|10=107|
8=FIX.4.4|9=0050|35=0|34=12|49=EXC|56=051|52=20190724-16:17:04.000|10=213|
8=FIX.4.4|9=60|35=0|34=11|49=051|50=051B17|52=20190724-16:16:24.743|56=EXC|10=103|
8=FIX.4.4|9=0050|35=0|34=13|49=EXC|56=051|52=20190724-16:17:34.000|10=217|
8=FIX.4.4|9=60|35=0|34=12|49=051|50=051B17|52=20190724-16:16:54.846|56=EXC|10=111|
8=FIX.4.4|9=0214|35=R|34=14|49=EXC|56=051|57=051B17|52=20190724-16:17:40.145|131=20190724-000000000010.00|146=1|55=T24U19F|762=AFIR|48=27227|22=M|54=1|38=15|453=3|448=045B17|447=C|452=12|448=045|447=C|452=1|448=051B17|447=C|452=37|10=247|
8=FIX.4.4|9=0213|35=R|34=15|49=EXC|56=051|57=051B17|52=20190724-16:18:00.393|131=20190724-000000000010.00|146=1|55=T24U19F|762=AFIR|48=27227|22=M|54=1|38=0|453=3|448=045B17|447=C|452=12|448=045|447=C|452=1|448=051B17|447=C|452=37|10=195|
8=FIX.4.4|9=60|35=0|34=13|49=051|50=051B17|52=20190724-16:17:25.710|56=EXC|10=101|
8=FIX.4.4|9=0050|35=0|34=16|49=EXC|56=051|52=20190724-16:18:30.000|10=217|
8=FIX.4.4|9=60|35=5|34=14|49=051|50=051B17|52=20190724-16:17:50.720|56=EXC|10=106|
8=FIX.4.4|9=0057|35=5|34=17|49=EXC|56=051|52=20190724-16:18:31.200|369=14|10=046|
8=FIX.4.4|9=60|35=5|34=15|49=051|50=051B17|52=20190724-16:17:50.720|56=EXC|10=107|
8=FIX.4.4|9=110|35=A|34=1|49=051|50=051B17|52=20190724-16:28:05.408|56=EXC|43=N|98=0|108=30|141=Y|553=051FCM001|554=051FCM001|10=093|
8=FIX.4.4|9=0067|35=A|34=1|49=EXC|56=051|52=20190724-16:28:45.909|98=0|108=30|141=Y|10=027|
8=FIX.4.4|9=0049|35=0|34=2|49=EXC|56=051|52=20190724-16:29:15.000|10=177|
8=FIX.4.4|9=59|35=0|34=2|49=051|50=051B17|52=20190724-16:28:36.063|56=EXC|10=064|
8=FIX.4.4|9=0049|35=0|34=3|49=EXC|56=051|52=20190724-16:29:45.000|10=181|
8=FIX.4.4|9=59|35=0|34=3|49=051|50=051B17|52=20190724-16:29:06.062|56=EXC|10=062|
8=FIX.4.4|9=0049|35=0|34=4|49=EXC|56=051|52=20190724-16:30:15.000|10=171|
8=FIX.4.4|9=59|35=0|34=4|49=051|50=051B17|52=20190724-16:29:36.064|56=EXC|10=068|
8=FIX.4.4|9=0049|35=0|34=5|49=EXC|56=051|52=20190724-16:30:45.000|10=175|
8=FIX.4.4|9=59|35=0|34=5|49=051|50=051B17|52=20190724-16:30:06.071|56=EXC|10=056|
8=FIX.4.4|9=0049|35=0|34=6|49=EXC|56=051|52=20190724-16:31:15.000|10=174|
8=FIX.4.4|9=59|35=0|34=6|49=051|50=051B17|52=20190724-16:30:36.062|56=EXC|10=060|
8=FIX.4.4|9=0049|35=0|34=7|49=EXC|56=051|52=20190724-16:31:45.000|10=178|
8=FIX.4.4|9=59|35=0|34=7|49=051|50=051B17|52=20190724-16:31:06.918|56=EXC|10=069|
8=FIX.4.4|9=0049|35=0|34=8|49=EXC|56=051|52=20190724-16:32:15.000|10=177|
8=FIX.4.4|9=59|35=0|34=8|49=051|50=051B17|52=20190724-16:31:37.069|56=EXC|10=071|
8=FIX.4.4|9=0214|35=R|34=9|49=EXC|56=051|57=051B17|52=20190724-16:32:27.645|131=20190724-000000000014.00|146=1|55=T24U19F|762=AFIR|48=27227|22=M|54=1|38=110|453=3|448=045B17|447=C|452=12|448=045|447=C|452=1|448=051B17|447=C|452=37|10=002|
8=FIX.4.4|9=169|35=S|34=9|49=051|50=051B17|52=20190724-16:32:07.246|56=EXC|1=RT001|55=T24U19F|62=20190723-16:07:35.000|117=201907241128016_S|131=20190724-000000000014.00|135=0|762=AFIR|10=111|
8=FIX.4.4|9=0189|35=AI|34=10|49=EXC|56=051|57=051B17|52=20190724-16:32:47.740|117=201907241128016_S|55=T24U19F|762=AFIR|1=RT001|135=0|62=20190723-16:07:35.000|297=9|300=99|58=(408): Debe ingresar un precio|10=124|
8=FIX.4.4|9=0050|35=0|34=11|49=EXC|56=051|52=20190724-16:33:17.000|10=214|
8=FIX.4.4|9=60|35=0|34=10|49=051|50=051B17|52=20190724-16:32:38.069|56=EXC|10=106|
8=FIX.4.4|9=0050|35=0|34=12|49=EXC|56=051|52=20190724-16:33:47.000|10=218|
8=FIX.4.4|9=60|35=0|34=11|49=051|50=051B17|52=20190724-16:33:08.348|56=EXC|10=105|
8=FIX.4.4|9=0050|35=0|34=13|49=EXC|56=051|52=20190724-16:34:17.000|10=217|
8=FIX.4.4|9=60|35=0|34=12|49=051|50=051B17|52=20190724-16:33:39.066|56=EXC|10=107|
8=FIX.4.4|9=0214|35=R|34=14|49=EXC|56=051|57=051B17|52=20190724-16:34:23.098|131=20190724-000000000016.00|146=1|55=T24U19F|762=AFIR|48=27227|22=M|54=1|38=15|453=3|448=045B17|447=C|452=12|448=045|447=C|452=1|448=051B17|447=C|452=37|10=004|
8=FIX.4.4|9=0213|35=R|34=15|49=EXC|56=051|57=051B17|52=20190724-16:34:43.163|131=20190724-000000000016.00|146=1|55=T24U19F|762=AFIR|48=27227|22=M|54=1|38=0|453=3|448=045B17|447=C|452=12|448=045|447=C|452=1|448=051B17|447=C|452=37|10=201|
8=FIX.4.4|9=60|35=0|34=13|49=051|50=051B17|52=20190724-16:34:09.166|56=EXC|10=107|
8=FIX.4.4|9=0050|35=0|34=16|49=EXC|56=051|52=20190724-16:35:13.000|10=217|
8=FIX.4.4|9=60|35=5|34=14|49=051|50=051B17|52=20190724-16:34:33.068|56=EXC|10=111|
8=FIX.4.4|9=0057|35=5|34=17|49=EXC|56=051|52=20190724-16:35:13.562|369=14|10=056|
8=FIX.4.4|9=60|35=5|34=15|49=051|50=051B17|52=20190724-16:34:33.083|56=EXC|10=109|
