<<<<<<< HEAD
8=FIX.4.4|9=110|35=A|34=1|49=007|50=007B26|52=20190607-14:13:04.998|56=EXC|43=Y|98=0|108=30|141=Y|553=007FCE001|554=007FCE001|10=097|
8=FIX.4.4|9=0067|35=A|34=1|49=EXC|56=007|52=20190607-14:13:05.061|98=0|108=30|141=Y|10=005|
8=FIX.4.4|9=0192|35=R|34=2|49=EXC|56=007|52=20190607-14:13:07.262|131=20190607-000000000012.00|146=1|55=TFIT15260826|762=RFQF|48=20348|22=M|54=1|38=1500000000|453=2|448=001B27|447=C|452=12|448=001|447=C|452=1|10=238|
8=FIX.4.4|9=110|35=A|34=1|49=007|50=007B26|52=20190607-15:35:43.267|56=EXC|43=Y|98=0|108=30|141=Y|553=007FCE001|554=007FCE001|10=094|
8=FIX.4.4|9=0067|35=A|34=1|49=EXC|56=007|52=20190607-15:35:43.321|98=0|108=30|141=Y|10=011|
8=FIX.4.4|9=110|35=A|34=1|49=007|50=007B26|52=20190607-16:16:18.279|56=EXC|43=Y|98=0|108=30|141=Y|553=007FCE001|554=007FCE001|10=099|
8=FIX.4.4|9=0067|35=A|34=1|49=EXC|56=007|52=20190607-16:16:18.378|98=0|108=30|141=Y|10=025|
8=FIX.4.4|9=110|35=A|34=1|49=007|50=007B26|52=20190607-16:39:55.160|56=EXC|43=Y|98=0|108=30|141=Y|553=007FCE001|554=007FCE001|10=094|
8=FIX.4.4|9=0067|35=A|34=1|49=EXC|56=007|52=20190607-16:39:55.205|98=0|108=30|141=Y|10=020|
8=FIX.4.4|9=110|35=A|34=1|49=007|50=007B26|52=20190607-16:43:05.110|56=EXC|43=Y|98=0|108=30|141=Y|553=007FCE001|554=007FCE001|10=079|
8=FIX.4.4|9=0067|35=A|34=1|49=EXC|56=007|52=20190607-16:43:05.175|98=0|108=30|141=Y|10=016|
8=FIX.4.4|9=110|35=A|34=1|49=007|50=007B26|52=20190607-16:44:16.310|56=EXC|43=Y|98=0|108=30|141=Y|553=007FCE001|554=007FCE001|10=084|
8=FIX.4.4|9=0067|35=A|34=1|49=EXC|56=007|52=20190607-16:44:16.342|98=0|108=30|141=Y|10=015|
8=FIX.4.4|9=110|35=A|34=1|49=007|50=007B26|52=20190607-16:47:05.190|56=EXC|43=Y|98=0|108=30|141=Y|553=007FCE001|554=007FCE001|10=091|
8=FIX.4.4|9=0067|35=A|34=1|49=EXC|56=007|52=20190607-16:47:05.246|98=0|108=30|141=Y|10=019|
8=FIX.4.4|9=154|35=R|34=2|49=007|50=007B26|52=20190607-16:47:07.489|56=EXC|131=61947059|146=1|55=TFIT15260826|22=M|762=RFQF|54=1|38=1500000000|453=1|448=DCV|447=C|452=10|10=032|
8=FIX.4.4|9=0236|35=AI|34=2|49=EXC|56=007|57=007B26|52=20190607-16:47:07.473|131=61947059|453=4|448=DCV|447=C|452=10|448=007B26|447=C|452=12|448=007|447=C|452=1|448=007FCE001|447=C|452=36|55=TFIT15260826|762=RFQF|48=20348|22=M|54=1|38=1500000000|297=10|10=190|
8=FIX.4.4|9=0192|35=R|34=3|49=EXC|56=007|52=20190607-16:47:07.473|131=20190607-000000000033.00|146=1|55=TFIT15260826|762=RFQF|48=20348|22=M|54=1|38=1500000000|453=2|448=007B26|447=C|452=12|448=007|447=C|452=1|10=010|
8=FIX.4.4|9=110|35=A|34=1|49=007|50=007B26|52=20190607-16:53:12.249|56=EXC|43=Y|98=0|108=30|141=Y|553=007FCE001|554=007FCE001|10=091|
8=FIX.4.4|9=0067|35=A|34=1|49=EXC|56=007|52=20190607-16:53:12.306|98=0|108=30|141=Y|10=011|
8=FIX.4.4|9=110|35=A|34=1|49=007|50=007B26|52=20190607-17:01:26.136|56=EXC|43=Y|98=0|108=30|141=Y|553=007FCE001|554=007FCE001|10=085|
8=FIX.4.4|9=0067|35=A|34=1|49=EXC|56=007|52=20190607-17:01:26.167|98=0|108=30|141=Y|10=015|
8=FIX.4.4|9=154|35=R|34=2|49=007|50=007B26|52=20190607-17:01:28.266|56=EXC|131=44232973|146=1|55=TFIT15260826|22=M|762=RFQF|54=1|38=1500000000|453=1|448=DCV|447=C|452=10|10=012|
8=FIX.4.4|9=0236|35=AI|34=2|49=EXC|56=007|57=007B26|52=20190607-17:01:28.235|131=44232973|453=4|448=DCV|447=C|452=10|448=007B26|447=C|452=12|448=007|447=C|452=1|448=007FCE001|447=C|452=36|55=TFIT15260826|762=RFQF|48=20348|22=M|54=1|38=1500000000|297=10|10=173|
8=FIX.4.4|9=0192|35=R|34=3|49=EXC|56=007|52=20190607-17:01:28.235|131=20190607-000000000037.00|146=1|55=TFIT15260826|762=RFQF|48=20348|22=M|54=1|38=1500000000|453=2|448=007B26|447=C|452=12|448=007|447=C|452=1|10=004|
8=FIX.4.4|9=110|35=A|34=1|49=007|50=007B26|52=20190607-17:05:59.253|56=EXC|43=Y|98=0|108=30|141=Y|553=007FCE001|554=007FCE001|10=095|
8=FIX.4.4|9=0067|35=A|34=1|49=EXC|56=007|52=20190607-17:05:59.295|98=0|108=30|141=Y|10=027|
=======
8=FIX.4.4|9=110|35=A|34=1|49=007|50=007B26|52=20190607-12:29:13.379|56=EXC|43=Y|98=0|108=30|141=Y|553=007FCE001|554=007FCE001|10=095|
8=FIX.4.4|9=0067|35=A|34=1|49=EXC|56=007|52=20190607-12:29:14.845|98=0|108=30|141=Y|10=020|
8=FIX.4.4|9=110|35=A|34=1|49=007|50=007B26|52=20190607-12:31:01.288|56=EXC|43=Y|98=0|108=30|141=Y|553=007FCE001|554=007FCE001|10=084|
8=FIX.4.4|9=0067|35=A|34=1|49=EXC|56=007|52=20190607-12:31:02.481|98=0|108=30|141=Y|10=006|
8=FIX.4.4|9=110|35=A|34=1|49=007|50=007B26|52=20190607-12:37:18.472|56=EXC|43=Y|98=0|108=30|141=Y|553=007FCE001|554=007FCE001|10=093|
8=FIX.4.4|9=0067|35=A|34=1|49=EXC|56=007|52=20190607-12:37:18.883|98=0|108=30|141=Y|10=025|
8=FIX.4.4|9=0192|35=R|34=2|49=EXC|56=007|52=20190607-12:37:21.174|131=20190607-000000000001.00|146=1|55=TFIT15260826|762=RFQF|48=20348|22=M|54=1|38=1500000000|453=2|448=001B27|447=C|452=12|448=001|447=C|452=1|10=238|
8=FIX.4.4|9=110|35=A|34=1|49=007|50=007B26|52=20190607-13:06:52.975|56=EXC|43=Y|98=0|108=30|141=Y|553=007FCE001|554=007FCE001|10=096|
8=FIX.4.4|9=0067|35=A|34=1|49=EXC|56=007|52=20190607-13:06:52.489|98=0|108=30|141=Y|10=022|
8=FIX.4.4|9=0192|35=R|34=2|49=EXC|56=007|52=20190607-13:06:54.725|131=20190607-000000000002.00|146=1|55=TFIT15260826|762=RFQF|48=20348|22=M|54=1|38=1500000000|453=2|448=001B27|447=C|452=12|448=001|447=C|452=1|10=244|
8=FIX.4.4|9=110|35=A|34=1|49=007|50=007B26|52=20190607-13:41:37.902|56=EXC|43=Y|98=0|108=30|141=Y|553=007FCE001|554=007FCE001|10=088|
8=FIX.4.4|9=0067|35=A|34=1|49=EXC|56=007|52=20190607-13:41:37.472|98=0|108=30|141=Y|10=016|
8=FIX.4.4|9=110|35=A|34=1|49=007|50=007B26|52=20190607-13:44:49.791|56=EXC|43=Y|98=0|108=30|141=Y|553=007FCE001|554=007FCE001|10=100|
8=FIX.4.4|9=0067|35=A|34=1|49=EXC|56=007|52=20190607-13:44:49.329|98=0|108=30|141=Y|10=023|
8=FIX.4.4|9=0192|35=R|34=2|49=EXC|56=007|52=20190607-13:44:51.624|131=20190607-000000000004.00|146=1|55=TFIT15260826|762=RFQF|48=20348|22=M|54=1|38=1500000000|453=2|448=001B27|447=C|452=12|448=001|447=C|452=1|10=243|
8=FIX.4.4|9=0192|35=R|34=3|49=EXC|56=007|52=20190607-13:44:52.353|131=20190607-000000000005.00|146=1|55=TFIT15260826|762=RFQF|48=20348|22=M|54=1|38=1500000000|453=2|448=001B27|447=C|452=12|448=001|447=C|452=1|10=245|
8=FIX.4.4|9=110|35=A|34=1|49=007|50=007B26|52=20190607-14:07:59.722|56=EXC|43=Y|98=0|108=30|141=Y|553=007FCE001|554=007FCE001|10=095|
8=FIX.4.4|9=0067|35=A|34=1|49=EXC|56=007|52=20190607-14:07:59.437|98=0|108=30|141=Y|10=024|
8=FIX.4.4|9=0192|35=R|34=2|49=EXC|56=007|52=20190607-14:08:01.717|131=20190607-000000000007.00|146=1|55=TFIT15260826|762=RFQF|48=20348|22=M|54=1|38=1500000000|453=2|448=001B27|447=C|452=12|448=001|447=C|452=1|10=245|
8=FIX.4.4|9=0192|35=R|34=3|49=EXC|56=007|52=20190607-14:08:02.586|131=20190607-000000000008.00|146=1|55=TFIT15260826|762=RFQF|48=20348|22=M|54=1|38=1500000000|453=2|448=001B27|447=C|452=12|448=001|447=C|452=1|10=252|
8=FIX.4.4|9=59|35=0|34=2|49=007|50=007B26|52=20190607-14:08:30.623|56=EXC|10=058|
8=FIX.4.4|9=0049|35=0|34=4|49=EXC|56=007|52=20190607-14:08:32.000|10=174|
8=FIX.4.4|9=68|35=2|34=3|49=007|50=007B26|52=20190607-14:08:32.325|56=EXC|7=3|16=0|10=187|
8=FIX.4.4|9=0223|35=R|34=3|43=Y|52=20190607-14:08:32.019|49=EXC|56=007|122=20190607-14:08:02.586|131=20190607-000000000008.00|146=1|55=TFIT15260826|762=RFQF|48=20348|22=M|54=1|38=1500000000|453=2|448=001B27|447=C|452=12|448=001|447=C|452=1|10=252|
8=FIX.4.4|9=0065|35=4|34=4|43=Y|49=EXC|56=007|52=20190607-14:08:32.019|123=Y|36=5|10=193|
8=FIX.4.4|9=0054|35=4|34=5|49=EXC|56=007|52=20190607-14:08:32.019|36=6|10=150|
8=FIX.4.4|9=68|35=2|34=4|49=007|50=007B26|52=20190607-14:08:32.361|56=EXC|7=3|16=0|10=188|
8=FIX.4.4|9=0223|35=R|34=3|43=Y|52=20190607-14:08:32.058|49=EXC|56=007|122=20190607-14:08:02.586|131=20190607-000000000008.00|146=1|55=TFIT15260826|762=RFQF|48=20348|22=M|54=1|38=1500000000|453=2|448=001B27|447=C|452=12|448=001|447=C|452=1|10=255|
8=FIX.4.4|9=0065|35=4|34=4|43=Y|49=EXC|56=007|52=20190607-14:08:32.058|123=Y|36=6|10=197|
8=FIX.4.4|9=0054|35=4|34=6|49=EXC|56=007|52=20190607-14:08:32.058|36=7|10=155|
8=FIX.4.4|9=0049|35=0|34=7|49=EXC|56=007|52=20190607-14:09:02.000|10=175|
8=FIX.4.4|9=59|35=0|34=5|49=007|50=007B26|52=20190607-14:09:02.588|56=EXC|10=071|
8=FIX.4.4|9=0049|35=0|34=8|49=EXC|56=007|52=20190607-14:09:32.000|10=179|
8=FIX.4.4|9=59|35=0|34=6|49=007|50=007B26|52=20190607-14:09:33.553|56=EXC|10=068|
8=FIX.4.4|9=0049|35=0|34=9|49=EXC|56=007|52=20190607-14:10:02.000|10=169|
8=FIX.4.4|9=59|35=0|34=7|49=007|50=007B26|52=20190607-14:10:04.521|56=EXC|10=054|
8=FIX.4.4|9=110|35=A|34=1|49=007|50=007B26|52=20190607-14:10:41.222|56=EXC|43=Y|98=0|108=30|141=Y|553=007FCE001|554=007FCE001|10=075|
8=FIX.4.4|9=0067|35=A|34=1|49=EXC|56=007|52=20190607-14:10:41.091|98=0|108=30|141=Y|10=005|
8=FIX.4.4|9=0192|35=R|34=2|49=EXC|56=007|52=20190607-14:10:43.320|131=20190607-000000000009.00|146=1|55=TFIT15260826|762=RFQF|48=20348|22=M|54=1|38=1500000000|453=2|448=001B27|447=C|452=12|448=001|447=C|452=1|10=236|
8=FIX.4.4|9=0192|35=R|34=3|49=EXC|56=007|52=20190607-14:10:44.022|131=20190607-000000000010.00|146=1|55=TFIT15260826|762=RFQF|48=20348|22=M|54=1|38=1500000000|453=2|448=001B27|447=C|452=12|448=001|447=C|452=1|10=229|
8=FIX.4.4|9=59|35=0|34=2|49=007|50=007B26|52=20190607-14:11:12.133|56=EXC|10=048|
8=FIX.4.4|9=0049|35=0|34=4|49=EXC|56=007|52=20190607-14:11:14.000|10=168|
8=FIX.4.4|9=68|35=2|34=3|49=007|50=007B26|52=20190607-14:11:14.149|56=EXC|7=3|16=0|10=185|
8=FIX.4.4|9=0223|35=R|34=3|43=Y|52=20190607-14:11:14.018|49=EXC|56=007|122=20190607-14:10:44.022|131=20190607-000000000010.00|146=1|55=TFIT15260826|762=RFQF|48=20348|22=M|54=1|38=1500000000|453=2|448=001B27|447=C|452=12|448=001|447=C|452=1|10=222|
8=FIX.4.4|9=0065|35=4|34=4|43=Y|49=EXC|56=007|52=20190607-14:11:14.018|123=Y|36=5|10=186|
8=FIX.4.4|9=0054|35=4|34=5|49=EXC|56=007|52=20190607-14:11:14.019|36=6|10=144|
8=FIX.4.4|9=68|35=2|34=4|49=007|50=007B26|52=20190607-14:11:14.187|56=EXC|7=3|16=0|10=188|
8=FIX.4.4|9=0223|35=R|34=3|43=Y|52=20190607-14:11:14.059|49=EXC|56=007|122=20190607-14:10:44.022|131=20190607-000000000010.00|146=1|55=TFIT15260826|762=RFQF|48=20348|22=M|54=1|38=1500000000|453=2|448=001B27|447=C|452=12|448=001|447=C|452=1|10=227|
8=FIX.4.4|9=0065|35=4|34=4|43=Y|49=EXC|56=007|52=20190607-14:11:14.059|123=Y|36=6|10=192|
8=FIX.4.4|9=0054|35=4|34=6|49=EXC|56=007|52=20190607-14:11:14.059|36=7|10=150|
8=FIX.4.4|9=110|35=A|34=1|49=007|50=007B26|52=20190607-14:22:14.143|56=EXC|43=Y|98=0|108=30|141=Y|553=007FCE001|554=007FCE001|10=080|
8=FIX.4.4|9=0067|35=A|34=1|49=EXC|56=007|52=20190607-14:22:14.429|98=0|108=30|141=Y|10=013|
8=FIX.4.4|9=0049|35=0|34=2|49=EXC|56=007|52=20190607-14:22:44.000|10=171|
8=FIX.4.4|9=59|35=0|34=2|49=007|50=007B26|52=20190607-14:22:45.022|56=EXC|10=053|
8=FIX.4.4|9=110|35=A|34=1|49=007|50=007B26|52=20190607-14:23:02.421|56=EXC|43=Y|98=0|108=30|141=Y|553=007FCE001|554=007FCE001|10=077|
8=FIX.4.4|9=0067|35=A|34=1|49=EXC|56=007|52=20190607-14:23:02.710|98=0|108=30|141=Y|10=004|
8=FIX.4.4|9=110|35=A|34=1|49=007|50=007B26|52=20190607-14:23:31.591|56=EXC|43=Y|98=0|108=30|141=Y|553=007FCE001|554=007FCE001|10=087|
8=FIX.4.4|9=0067|35=A|34=1|49=EXC|56=007|52=20190607-14:23:31.876|98=0|108=30|141=Y|10=019|
8=FIX.4.4|9=0192|35=R|34=2|49=EXC|56=007|52=20190607-14:23:34.063|131=20190607-000000000016.00|146=1|55=TFIT15260826|762=RFQF|48=20348|22=M|54=1|38=1500000000|453=2|448=001B27|447=C|452=12|448=001|447=C|452=1|10=242|
8=FIX.4.4|9=59|35=0|34=2|49=007|50=007B26|52=20190607-14:24:02.514|56=EXC|10=054|
8=FIX.4.4|9=0049|35=0|34=3|49=EXC|56=007|52=20190607-14:24:04.000|10=170|
8=FIX.4.4|9=59|35=0|34=3|49=007|50=007B26|52=20190607-14:24:32.521|56=EXC|10=056|
8=FIX.4.4|9=0049|35=0|34=4|49=EXC|56=007|52=20190607-14:24:34.000|10=174|
8=FIX.4.4|9=59|35=0|34=4|49=007|50=007B26|52=20190607-14:25:02.545|56=EXC|10=061|
8=FIX.4.4|9=110|35=A|34=1|49=007|50=007B26|52=20190607-14:42:14.923|56=EXC|43=Y|98=0|108=30|141=Y|553=007FCE001|554=007FCE001|10=088|
8=FIX.4.4|9=0067|35=A|34=1|49=EXC|56=007|52=20190607-14:42:14.985|98=0|108=30|141=Y|10=022|
8=FIX.4.4|9=0192|35=R|34=2|49=EXC|56=007|52=20190607-14:42:17.288|131=20190607-000000000017.00|146=1|55=TFIT15260826|762=RFQF|48=20348|22=M|54=1|38=1500000000|453=2|448=001B27|447=C|452=12|448=001|447=C|452=1|10=254|
8=FIX.4.4|9=110|35=A|34=1|49=007|50=007B26|52=20190607-14:45:47.420|56=EXC|43=Y|98=0|108=30|141=Y|553=007FCE001|554=007FCE001|10=089|
8=FIX.4.4|9=0067|35=A|34=1|49=EXC|56=007|52=20190607-14:45:47.483|98=0|108=30|141=Y|10=024|
8=FIX.4.4|9=0192|35=R|34=2|49=EXC|56=007|52=20190607-14:45:49.663|131=20190607-000000000018.00|146=1|55=TFIT15260826|762=RFQF|48=20348|22=M|54=1|38=1500000000|453=2|448=001B27|447=C|452=12|448=001|447=C|452=1|10=004|
8=FIX.4.4|9=59|35=0|34=2|49=007|50=007B26|52=20190607-14:46:18.338|56=EXC|10=069|
8=FIX.4.4|9=0049|35=0|34=3|49=EXC|56=007|52=20190607-14:46:19.000|10=180|
8=FIX.4.4|9=59|35=0|34=3|49=007|50=007B26|52=20190607-14:46:48.339|56=EXC|10=074|
8=FIX.4.4|9=0049|35=0|34=4|49=EXC|56=007|52=20190607-14:46:49.000|10=184|
8=FIX.4.4|9=110|35=A|34=1|49=007|50=007B26|52=20190607-14:51:26.041|56=EXC|43=Y|98=0|108=30|141=Y|553=007FCE001|554=007FCE001|10=082|
8=FIX.4.4|9=0067|35=A|34=1|49=EXC|56=007|52=20190607-14:51:26.101|98=0|108=30|141=Y|10=005|
8=FIX.4.4|9=110|35=A|34=1|49=007|50=007B26|52=20190607-14:54:09.995|56=EXC|43=Y|98=0|108=30|141=Y|553=007FCE001|554=007FCE001|10=104|
8=FIX.4.4|9=0067|35=A|34=1|49=EXC|56=007|52=20190607-14:54:10.055|98=0|108=30|141=Y|10=009|
8=FIX.4.4|9=0192|35=R|34=2|49=EXC|56=007|52=20190607-14:54:12.262|131=20190607-000000000020.00|146=1|55=TFIT15260826|762=RFQF|48=20348|22=M|54=1|38=1500000000|453=2|448=001B27|447=C|452=12|448=001|447=C|452=1|10=238|
8=FIX.4.4|9=110|35=A|34=1|49=007|50=007B26|52=20190607-14:55:37.589|56=EXC|43=Y|98=0|108=30|141=Y|553=007FCE001|554=007FCE001|10=105|
8=FIX.4.4|9=0067|35=A|34=1|49=EXC|56=007|52=20190607-14:55:37.653|98=0|108=30|141=Y|10=023|
8=FIX.4.4|9=0049|35=0|34=2|49=EXC|56=007|52=20190607-14:56:07.000|10=177|
8=FIX.4.4|9=59|35=0|34=2|49=007|50=007B26|52=20190607-14:56:08.551|56=EXC|10=066|
8=FIX.4.4|9=110|35=A|34=1|49=007|50=007B26|52=20190607-14:57:52.597|56=EXC|43=Y|98=0|108=30|141=Y|553=007FCE001|554=007FCE001|10=103|
8=FIX.4.4|9=0067|35=A|34=1|49=EXC|56=007|52=20190607-14:57:52.656|98=0|108=30|141=Y|10=025|
8=FIX.4.4|9=0192|35=R|34=2|49=EXC|56=007|52=20190607-14:57:54.873|131=20190607-000000000022.00|146=1|55=TFIT15260826|762=RFQF|48=20348|22=M|54=1|38=1500000000|453=2|448=001B27|447=C|452=12|448=001|447=C|452=1|10=001|
8=FIX.4.4|9=59|35=0|34=2|49=007|50=007B26|52=20190607-14:58:23.543|56=EXC|10=066|
8=FIX.4.4|9=0049|35=0|34=3|49=EXC|56=007|52=20190607-14:58:24.000|10=179|
8=FIX.4.4|9=59|35=0|34=3|49=007|50=007B26|52=20190607-14:58:53.545|56=EXC|10=072|
8=FIX.4.4|9=0049|35=0|34=4|49=EXC|56=007|52=20190607-14:58:54.000|10=183|
8=FIX.4.4|9=59|35=0|34=4|49=007|50=007B26|52=20190607-14:59:23.544|56=EXC|10=070|
8=FIX.4.4|9=0049|35=0|34=5|49=EXC|56=007|52=20190607-14:59:24.000|10=182|
8=FIX.4.4|9=59|35=0|34=5|49=007|50=007B26|52=20190607-14:59:53.543|56=EXC|10=073|
8=FIX.4.4|9=0049|35=0|34=6|49=EXC|56=007|52=20190607-14:59:54.000|10=186|
8=FIX.4.4|9=59|35=0|34=6|49=007|50=007B26|52=20190607-15:00:23.543|56=EXC|10=058|
8=FIX.4.4|9=0049|35=0|34=7|49=EXC|56=007|52=20190607-15:00:24.000|10=171|
8=FIX.4.4|9=59|35=0|34=7|49=007|50=007B26|52=20190607-15:00:53.544|56=EXC|10=063|
8=FIX.4.4|9=0049|35=0|34=8|49=EXC|56=007|52=20190607-15:00:54.000|10=175|
8=FIX.4.4|9=59|35=0|34=8|49=007|50=007B26|52=20190607-15:01:23.544|56=EXC|10=062|
8=FIX.4.4|9=0049|35=0|34=9|49=EXC|56=007|52=20190607-15:01:24.000|10=174|
8=FIX.4.4|9=59|35=0|34=9|49=007|50=007B26|52=20190607-15:01:53.544|56=EXC|10=066|
8=FIX.4.4|9=0050|35=0|34=10|49=EXC|56=007|52=20190607-15:01:54.000|10=209|
8=FIX.4.4|9=60|35=0|34=10|49=007|50=007B26|52=20190607-15:02:23.542|56=EXC|10=094|
8=FIX.4.4|9=0050|35=0|34=11|49=EXC|56=007|52=20190607-15:02:24.000|10=208|
8=FIX.4.4|9=60|35=0|34=11|49=007|50=007B26|52=20190607-15:02:53.543|56=EXC|10=099|
8=FIX.4.4|9=0050|35=0|34=12|49=EXC|56=007|52=20190607-15:02:54.000|10=212|
8=FIX.4.4|9=60|35=0|34=12|49=007|50=007B26|52=20190607-15:03:23.545|56=EXC|10=100|
8=FIX.4.4|9=0050|35=0|34=13|49=EXC|56=007|52=20190607-15:03:24.000|10=211|
8=FIX.4.4|9=60|35=0|34=13|49=007|50=007B26|52=20190607-15:03:53.545|56=EXC|10=104|
8=FIX.4.4|9=0050|35=0|34=14|49=EXC|56=007|52=20190607-15:03:54.000|10=215|
<<<<<<< HEAD
8=FIX.4.4|9=110|35=A|34=1|49=007|50=007B26|52=20190607-15:15:32.900|56=EXC|43=Y|98=0|108=30|141=Y|553=007FCE001|554=007FCE001|10=084|
8=FIX.4.4|9=0067|35=A|34=1|49=EXC|56=007|52=20190607-15:15:32.973|98=0|108=30|141=Y|10=020|
8=FIX.4.4|9=153|35=R|34=2|49=007|50=007B26|52=20190607-15:15:35.164|56=EXC|131=1670991|146=1|55=TFIT15260826|22=M|762=RFQF|54=1|38=1500000000|453=1|448=DCV|447=C|452=10|10=216|
8=FIX.4.4|9=0235|35=AI|34=2|49=EXC|56=007|57=007B26|52=20190607-15:15:35.199|131=1670991|453=4|448=DCV|447=C|452=10|448=007B26|447=C|452=12|448=007|447=C|452=1|448=007FCE001|447=C|452=36|55=TFIT15260826|762=RFQF|48=20348|22=M|54=1|38=1500000000|297=10|10=133|
8=FIX.4.4|9=0192|35=R|34=3|49=EXC|56=007|52=20190607-15:15:35.199|131=20190607-000000000023.00|146=1|55=TFIT15260826|762=RFQF|48=20348|22=M|54=1|38=1500000000|453=2|448=007B26|447=C|452=12|448=007|447=C|452=1|10=009|
8=FIX.4.4|9=110|35=A|34=1|49=007|50=007B26|52=20190607-15:18:17.223|56=EXC|43=Y|98=0|108=30|141=Y|553=007FCE001|554=007FCE001|10=088|
8=FIX.4.4|9=0067|35=A|34=1|49=EXC|56=007|52=20190607-15:18:17.293|98=0|108=30|141=Y|10=021|
8=FIX.4.4|9=154|35=R|34=2|49=007|50=007B26|52=20190607-15:18:19.466|56=EXC|131=68984306|146=1|55=TFIT15260826|22=M|762=RFQF|54=1|38=1500000000|453=1|448=DCV|447=C|452=10|10=030|
8=FIX.4.4|9=0236|35=AI|34=2|49=EXC|56=007|57=007B26|52=20190607-15:18:19.500|131=68984306|453=4|448=DCV|447=C|452=10|448=007B26|447=C|452=12|448=007|447=C|452=1|448=007FCE001|447=C|452=36|55=TFIT15260826|762=RFQF|48=20348|22=M|54=1|38=1500000000|297=10|10=184|
8=FIX.4.4|9=0192|35=R|34=3|49=EXC|56=007|52=20190607-15:18:19.500|131=20190607-000000000024.00|146=1|55=TFIT15260826|762=RFQF|48=20348|22=M|54=1|38=1500000000|453=2|448=007B26|447=C|452=12|448=007|447=C|452=1|10=001|
8=FIX.4.4|9=0049|35=0|34=4|49=EXC|56=007|52=20190607-15:18:49.000|10=184|
8=FIX.4.4|9=68|35=2|34=3|49=007|50=007B26|52=20190607-15:18:48.986|56=EXC|7=3|16=0|10=209|
8=FIX.4.4|9=0223|35=R|34=3|43=Y|52=20190607-15:18:49.024|49=EXC|56=007|122=20190607-15:18:19.500|131=20190607-000000000024.00|146=1|55=TFIT15260826|762=RFQF|48=20348|22=M|54=1|38=1500000000|453=2|448=007B26|447=C|452=12|448=007|447=C|452=1|10=007|
8=FIX.4.4|9=0065|35=4|34=4|43=Y|49=EXC|56=007|52=20190607-15:18:49.024|123=Y|36=5|10=199|
8=FIX.4.4|9=0054|35=4|34=5|49=EXC|56=007|52=20190607-15:18:49.024|36=6|10=156|
8=FIX.4.4|9=68|35=2|34=4|49=007|50=007B26|52=20190607-15:18:54.111|56=EXC|7=3|16=0|10=187|
8=FIX.4.4|9=0223|35=R|34=3|43=Y|52=20190607-15:18:54.146|49=EXC|56=007|122=20190607-15:18:19.500|131=20190607-000000000024.00|146=1|55=TFIT15260826|762=RFQF|48=20348|22=M|54=1|38=1500000000|453=2|448=007B26|447=C|452=12|448=007|447=C|452=1|10=008|
8=FIX.4.4|9=0065|35=4|34=4|43=Y|49=EXC|56=007|52=20190607-15:18:54.146|123=Y|36=6|10=201|
8=FIX.4.4|9=0054|35=4|34=6|49=EXC|56=007|52=20190607-15:18:54.146|36=7|10=159|
8=FIX.4.4|9=110|35=A|34=1|49=007|50=007B26|52=20190607-15:21:43.809|56=EXC|43=Y|98=0|108=30|141=Y|553=007FCE001|554=007FCE001|10=091|
8=FIX.4.4|9=0067|35=A|34=1|49=EXC|56=007|52=20190607-15:21:43.879|98=0|108=30|141=Y|10=024|
8=FIX.4.4|9=154|35=R|34=2|49=007|50=007B26|52=20190607-15:21:46.079|56=EXC|131=53879838|146=1|55=TFIT15260826|22=M|762=RFQF|54=1|38=1500000000|453=1|448=DCV|447=C|452=10|10=031|
8=FIX.4.4|9=0236|35=AI|34=2|49=EXC|56=007|57=007B26|52=20190607-15:21:46.114|131=53879838|453=4|448=DCV|447=C|452=10|448=007B26|447=C|452=12|448=007|447=C|452=1|448=007FCE001|447=C|452=36|55=TFIT15260826|762=RFQF|48=20348|22=M|54=1|38=1500000000|297=10|10=186|
8=FIX.4.4|9=0192|35=R|34=3|49=EXC|56=007|52=20190607-15:21:46.114|131=20190607-000000000025.00|146=1|55=TFIT15260826|762=RFQF|48=20348|22=M|54=1|38=1500000000|453=2|448=007B26|447=C|452=12|448=007|447=C|452=1|10=253|
8=FIX.4.4|9=0049|35=0|34=4|49=EXC|56=007|52=20190607-15:22:16.000|10=173|
8=FIX.4.4|9=68|35=2|34=3|49=007|50=007B26|52=20190607-15:22:15.984|56=EXC|7=3|16=0|10=196|
8=FIX.4.4|9=0223|35=R|34=3|43=Y|52=20190607-15:22:16.022|49=EXC|56=007|122=20190607-15:21:46.114|131=20190607-000000000025.00|146=1|55=TFIT15260826|762=RFQF|48=20348|22=M|54=1|38=1500000000|453=2|448=007B26|447=C|452=12|448=007|447=C|452=1|10=246|
8=FIX.4.4|9=0065|35=4|34=4|43=Y|49=EXC|56=007|52=20190607-15:22:16.022|123=Y|36=5|10=186|
8=FIX.4.4|9=0054|35=4|34=5|49=EXC|56=007|52=20190607-15:22:16.023|36=6|10=144|
8=FIX.4.4|9=68|35=2|34=4|49=007|50=007B26|52=20190607-15:22:21.076|56=EXC|7=3|16=0|10=186|
8=FIX.4.4|9=0223|35=R|34=3|43=Y|52=20190607-15:22:21.113|49=EXC|56=007|122=20190607-15:21:46.114|131=20190607-000000000025.00|146=1|55=TFIT15260826|762=RFQF|48=20348|22=M|54=1|38=1500000000|453=2|448=007B26|447=C|452=12|448=007|447=C|452=1|10=243|
8=FIX.4.4|9=0065|35=4|34=4|43=Y|49=EXC|56=007|52=20190607-15:22:21.113|123=Y|36=6|10=184|
8=FIX.4.4|9=0054|35=4|34=6|49=EXC|56=007|52=20190607-15:22:21.113|36=7|10=142|
8=FIX.4.4|9=0049|35=0|34=7|49=EXC|56=007|52=20190607-15:22:51.000|10=175|
8=FIX.4.4|9=59|35=0|34=5|49=007|50=007B26|52=20190607-15:22:51.703|56=EXC|10=060|
8=FIX.4.4|9=0049|35=0|34=8|49=EXC|56=007|52=20190607-15:23:21.000|10=174|
8=FIX.4.4|9=59|35=0|34=6|49=007|50=007B26|52=20190607-15:23:21.704|56=EXC|10=060|
8=FIX.4.4|9=110|35=A|34=1|49=007|50=007B26|52=20190607-16:29:58.908|56=EXC|43=Y|98=0|108=30|141=Y|553=007FCE001|554=007FCE001|10=106|
8=FIX.4.4|9=0067|35=A|34=1|49=EXC|56=007|52=20190607-16:29:58.968|98=0|108=30|141=Y|10=038|
8=FIX.4.4|9=153|35=R|34=2|49=007|50=007B26|52=20190607-16:30:01.230|56=EXC|131=7049983|146=1|55=TFIT15260826|22=M|762=RFQF|54=1|38=1500000000|453=1|448=DCV|447=C|452=10|10=208|
8=FIX.4.4|9=0235|35=AI|34=2|49=EXC|56=007|57=007B26|52=20190607-16:30:01.258|131=7049983|453=4|448=DCV|447=C|452=10|448=007B26|447=C|452=12|448=007|447=C|452=1|448=007FCE001|447=C|452=36|55=TFIT15260826|762=RFQF|48=20348|22=M|54=1|38=1500000000|297=10|10=127|
8=FIX.4.4|9=0192|35=R|34=3|49=EXC|56=007|52=20190607-16:30:01.258|131=20190607-000000000028.00|146=1|55=TFIT15260826|762=RFQF|48=20348|22=M|54=1|38=1500000000|453=2|448=007B26|447=C|452=12|448=007|447=C|452=1|10=001|
8=FIX.4.4|9=0049|35=0|34=4|49=EXC|56=007|52=20190607-16:30:31.000|10=170|
8=FIX.4.4|9=59|35=0|34=3|49=007|50=007B26|52=20190607-16:30:31.781|56=EXC|10=062|
8=FIX.4.4|9=68|35=1|34=4|49=007|50=007B26|52=20190607-16:30:46.781|56=EXC|112=TEST|10=088|
8=FIX.4.4|9=0058|35=0|34=5|49=EXC|56=007|52=20190607-16:30:46.807|112=TEST|10=210|
8=FIX.4.4|9=110|35=A|34=1|49=007|50=007B26|52=20190607-16:31:14.797|56=EXC|43=Y|98=0|108=30|141=Y|553=007FCE001|554=007FCE001|10=097|
8=FIX.4.4|9=0067|35=A|34=1|49=EXC|56=007|52=20190607-16:31:14.859|98=0|108=30|141=Y|10=022|
8=FIX.4.4|9=110|35=A|34=1|49=007|50=007B26|52=20190607-16:31:49.244|56=EXC|43=Y|98=0|108=30|141=Y|553=007FCE001|554=007FCE001|10=092|
8=FIX.4.4|9=0067|35=A|34=1|49=EXC|56=007|52=20190607-16:31:49.310|98=0|108=30|141=Y|10=012|
8=FIX.4.4|9=154|35=R|34=2|49=007|50=007B26|52=20190607-16:31:51.580|56=EXC|131=70173792|146=1|55=TFIT15260826|22=M|762=RFQF|54=1|38=1500000000|453=1|448=DCV|447=C|452=10|10=011|
8=FIX.4.4|9=0236|35=AI|34=2|49=EXC|56=007|57=007B26|52=20190607-16:31:51.609|131=70173792|453=4|448=DCV|447=C|452=10|448=007B26|447=C|452=12|448=007|447=C|452=1|448=007FCE001|447=C|452=36|55=TFIT15260826|762=RFQF|48=20348|22=M|54=1|38=1500000000|297=10|10=178|
8=FIX.4.4|9=0192|35=R|34=3|49=EXC|56=007|52=20190607-16:31:51.609|131=20190607-000000000029.00|146=1|55=TFIT15260826|762=RFQF|48=20348|22=M|54=1|38=1500000000|453=2|448=007B26|447=C|452=12|448=007|447=C|452=1|10=008|
8=FIX.4.4|9=0049|35=0|34=4|49=EXC|56=007|52=20190607-16:32:21.000|10=171|
8=FIX.4.4|9=59|35=0|34=3|49=007|50=007B26|52=20190607-16:32:22.224|56=EXC|10=056|
8=FIX.4.4|9=68|35=1|34=4|49=007|50=007B26|52=20190607-16:32:37.227|56=EXC|112=TEST|10=085|
8=FIX.4.4|9=0058|35=0|34=5|49=EXC|56=007|52=20190607-16:32:37.254|112=TEST|10=208|
8=FIX.4.4|9=110|35=A|34=1|49=007|50=007B26|52=20190607-16:51:45.981|56=EXC|43=Y|98=0|108=30|141=Y|553=007FCE001|554=007FCE001|10=098|
8=FIX.4.4|9=0067|35=A|34=1|49=EXC|56=007|52=20190607-16:51:46.030|98=0|108=30|141=Y|10=010|
8=FIX.4.4|9=154|35=R|34=2|49=007|50=007B26|52=20190607-16:51:48.346|56=EXC|131=76365261|146=1|55=TFIT15260826|22=M|762=RFQF|54=1|38=1500000000|453=1|448=DCV|447=C|452=10|10=019|
8=FIX.4.4|9=0236|35=AI|34=2|49=EXC|56=007|57=007B26|52=20190607-16:51:48.366|131=76365261|453=4|448=DCV|447=C|452=10|448=007B26|447=C|452=12|448=007|447=C|452=1|448=007FCE001|447=C|452=36|55=TFIT15260826|762=RFQF|48=20348|22=M|54=1|38=1500000000|297=10|10=186|
8=FIX.4.4|9=0192|35=R|34=3|49=EXC|56=007|52=20190607-16:51:48.366|131=20190607-000000000034.00|146=1|55=TFIT15260826|762=RFQF|48=20348|22=M|54=1|38=1500000000|453=2|448=007B26|447=C|452=12|448=007|447=C|452=1|10=012|
8=FIX.4.4|9=110|35=A|34=1|49=007|50=007B26|52=20190607-17:00:19.839|56=EXC|43=Y|98=0|108=30|141=Y|553=007FCE001|554=007FCE001|10=096|
8=FIX.4.4|9=0067|35=A|34=1|49=EXC|56=007|52=20190607-17:00:19.895|98=0|108=30|141=Y|10=024|
8=FIX.4.4|9=154|35=R|34=2|49=007|50=007B26|52=20190607-17:00:22.118|56=EXC|131=40799677|146=1|55=TFIT15260826|22=M|762=RFQF|54=1|38=1500000000|453=1|448=DCV|447=C|452=10|10=016|
8=FIX.4.4|9=0236|35=AI|34=2|49=EXC|56=007|57=007B26|52=20190607-17:00:22.134|131=40799677|453=4|448=DCV|447=C|452=10|448=007B26|447=C|452=12|448=007|447=C|452=1|448=007FCE001|447=C|452=36|55=TFIT15260826|762=RFQF|48=20348|22=M|54=1|38=1500000000|297=10|10=179|
8=FIX.4.4|9=0192|35=R|34=3|49=EXC|56=007|52=20190607-17:00:22.134|131=20190607-000000000036.00|146=1|55=TFIT15260826|762=RFQF|48=20348|22=M|54=1|38=1500000000|453=2|448=007B26|447=C|452=12|448=007|447=C|452=1|10=250|
8=FIX.4.4|9=0049|35=0|34=4|49=EXC|56=007|52=20190607-17:00:52.000|10=171|
8=FIX.4.4|9=68|35=2|34=3|49=007|50=007B26|52=20190607-17:00:52.011|56=EXC|7=3|16=0|10=176|
8=FIX.4.4|9=0223|35=R|34=3|43=Y|52=20190607-17:00:52.030|49=EXC|56=007|122=20190607-17:00:22.134|131=20190607-000000000036.00|146=1|55=TFIT15260826|762=RFQF|48=20348|22=M|54=1|38=1500000000|453=2|448=007B26|447=C|452=12|448=007|447=C|452=1|10=240|
8=FIX.4.4|9=0065|35=4|34=4|43=Y|49=EXC|56=007|52=20190607-17:00:52.030|123=Y|36=5|10=183|
8=FIX.4.4|9=0054|35=4|34=5|49=EXC|56=007|52=20190607-17:00:52.030|36=6|10=140|
=======
>>>>>>> 069492ed1c47821f77e483ed6a9d34242fbb67bb
>>>>>>> da02556c5d143e2f747792af737c29298e2fe0f4
