8=FIX.4.4|9=110|35=A|34=1|49=045|50=045B17|52=20190806-20:00:10.306|56=EXC|43=N|98=0|108=30|141=Y|553=045FCM001|554=045FCM001|10=084|
8=FIX.4.4|9=0067|35=A|34=1|49=EXC|56=045|52=20190806-20:01:03.622|98=0|108=30|141=Y|10=003|
8=FIX.4.4|9=151|35=R|34=2|49=045|50=045B17|52=20190806-20:00:16.259|56=EXC|131=201908061500064_R|146=1|22=M|762=AFIR|54=1|38=200|1=RP001|453=1|448=051B17|447=C|452=37|10=063|
8=FIX.4.4|9=0173|35=AG|34=2|49=EXC|56=045|57=045B17|52=20190806-20:01:09.537|131=201908061500064_R|658=99|146=1|762=AFIR|22=M|38=200|58=(1513): Falta el tag condicinal requerido Symbol(#55)|10=236|
8=FIX.4.4|9=135|35=3|34=3|49=045|50=045B17|52=20190806-20:00:16.259|56=EXC|45=2|58=The group 146 must set the delimiter field 55|371=762|372=AG|373=15|10=119|
8=FIX.4.4|9=110|35=A|34=1|49=045|50=045B17|52=20190806-20:06:52.145|56=EXC|43=N|98=0|108=30|141=Y|553=045FCM001|554=045FCM001|10=097|
8=FIX.4.4|9=0067|35=A|34=1|49=EXC|56=045|52=20190806-20:07:45.456|98=0|108=30|141=Y|10=020|
8=FIX.4.4|9=158|35=R|34=2|49=045|50=045B17|52=20190806-20:06:58.053|56=EXC|131=201908061506474_R|146=1|55=   |22=M|762=AFIR|54=1|38=200|1=RP001|453=1|448=051B17|447=C|452=37|10=093|
8=FIX.4.4|9=0153|35=AG|34=2|49=EXC|56=045|57=045B17|52=20190806-20:07:51.344|131=201908061506474_R|658=1|146=1|55=   |762=AFIR|22=M|38=200|58=(1479): Simbolo desconocido|10=120|
8=FIX.4.4|9=110|35=A|34=1|49=045|50=045B17|52=20190806-20:12:53.092|56=EXC|43=N|98=0|108=30|141=Y|553=045FCM001|554=045FCM001|10=096|
8=FIX.4.4|9=0067|35=A|34=1|49=EXC|56=045|52=20190806-20:13:46.405|98=0|108=30|141=Y|10=012|
8=FIX.4.4|9=151|35=R|34=2|49=045|50=045B17|52=20190806-20:12:59.049|56=EXC|131=201908061512484_R|146=1|22=M|762=AFIR|54=1|38=200|1=RP001|453=1|448=051B17|447=C|452=37|10=079|
8=FIX.4.4|9=0173|35=AG|34=2|49=EXC|56=045|57=045B17|52=20190806-20:13:52.338|131=201908061512484_R|658=99|146=1|762=AFIR|22=M|38=200|58=(1513): Falta el tag condicinal requerido Symbol(#55)|10=245|
8=FIX.4.4|9=135|35=3|34=3|49=045|50=045B17|52=20190806-20:12:59.064|56=EXC|45=2|58=The group 146 must set the delimiter field 55|371=762|372=AG|373=15|10=123|
8=FIX.4.4|9=110|35=A|34=1|49=045|50=045B17|52=20190806-21:41:14.868|56=EXC|43=N|98=0|108=30|141=Y|553=045FCM001|554=045FCM001|10=107|
8=FIX.4.4|9=0067|35=A|34=1|49=EXC|56=045|52=20190806-16:08:56.246|98=0|108=30|141=Y|10=025|
