8=FIX.4.4|9=110|35=A|34=1|49=051|50=051B17|52=20190806-20:00:10.400|56=EXC|43=N|98=0|108=30|141=Y|553=051FCM001|554=051FCM001|10=067|
8=FIX.4.4|9=0067|35=A|34=1|49=EXC|56=051|52=20190806-20:01:03.705|98=0|108=30|141=Y|10=002|
8=FIX.4.4|9=110|35=A|34=1|49=051|50=051B17|52=20190806-20:06:52.223|56=EXC|43=N|98=0|108=30|141=Y|553=051FCM001|554=051FCM001|10=082|
8=FIX.4.4|9=0067|35=A|34=1|49=EXC|56=051|52=20190806-20:07:45.523|98=0|108=30|141=Y|10=012|
8=FIX.4.4|9=110|35=A|34=1|49=051|50=051B17|52=20190806-20:12:53.170|56=EXC|43=N|98=0|108=30|141=Y|553=051FCM001|554=051FCM001|10=081|
8=FIX.4.4|9=0067|35=A|34=1|49=EXC|56=051|52=20190806-20:13:46.476|98=0|108=30|141=Y|10=017|
8=FIX.4.4|9=110|35=A|34=1|49=051|50=051B17|52=20190806-21:41:14.930|56=EXC|43=N|98=0|108=30|141=Y|553=051FCM001|554=051FCM001|10=085|
8=FIX.4.4|9=0067|35=A|34=1|49=EXC|56=051|52=20190806-16:08:56.321|98=0|108=30|141=Y|10=016|
