8=FIX.4.4|9=105|35=A|34=1|49=013|50=013B17|52=20190612-16:29:20.013|56=EXC|98=0|108=30|141=Y|553=013FCM001|554=013FCM001|10=088|
8=FIX.4.4|9=0067|35=A|34=1|49=EXC|56=013|52=20190612-16:29:20.038|98=0|108=30|141=Y|10=008|
8=FIX.4.4|9=0049|35=0|34=2|49=EXC|56=013|52=20190612-16:29:50.000|10=170|
8=FIX.4.4|9=59|35=0|34=2|49=013|50=013B17|52=20190612-16:29:50.033|56=EXC|10=050|
8=FIX.4.4|9=0049|35=0|34=3|49=EXC|56=013|52=20190612-16:30:20.000|10=160|
8=FIX.4.4|9=59|35=0|34=3|49=013|50=013B17|52=20190612-16:30:20.031|56=EXC|10=038|
8=FIX.4.4|9=105|35=A|34=1|49=013|50=013B17|52=20190612-16:44:40.057|56=EXC|98=0|108=30|141=Y|553=013FCM001|554=013FCM001|10=095|
8=FIX.4.4|9=0067|35=A|34=1|49=EXC|56=013|52=20190612-16:44:40.089|98=0|108=30|141=Y|10=013|
8=FIX.4.4|9=0049|35=0|34=2|49=EXC|56=013|52=20190612-16:45:10.000|10=164|
8=FIX.4.4|9=59|35=0|34=2|49=013|50=013B17|52=20190612-16:45:10.984|56=EXC|10=059|
8=FIX.4.4|9=105|35=A|34=1|49=013|50=013B17|52=20190612-16:55:03.414|56=EXC|98=0|108=30|141=Y|553=013FCM001|554=013FCM001|10=093|
8=FIX.4.4|9=0067|35=A|34=1|49=EXC|56=013|52=20190612-16:55:03.448|98=0|108=30|141=Y|10=013|
8=FIX.4.4|9=105|35=A|34=1|49=013|50=013B17|52=20190612-16:56:24.234|56=EXC|98=0|108=30|141=Y|553=013FCM001|554=013FCM001|10=097|
8=FIX.4.4|9=0067|35=A|34=1|49=EXC|56=013|52=20190612-16:56:24.268|98=0|108=30|141=Y|10=017|
8=FIX.4.4|9=0049|35=0|34=2|49=EXC|56=013|52=20190612-16:56:54.000|10=174|
8=FIX.4.4|9=59|35=0|34=2|49=013|50=013B17|52=20190612-16:56:55.112|56=EXC|10=053|
8=FIX.4.4|9=0049|35=0|34=3|49=EXC|56=013|52=20190612-16:57:24.000|10=173|
8=FIX.4.4|9=59|35=0|34=3|49=013|50=013B17|52=20190612-16:57:25.137|56=EXC|10=059|
8=FIX.4.4|9=105|35=A|34=1|49=013|50=013B17|52=20190612-19:36:17.183|56=EXC|98=0|108=30|141=Y|553=013FCM001|554=013FCM001|10=103|
8=FIX.4.4|9=0067|35=A|34=1|49=EXC|56=013|52=20190612-19:36:17.232|98=0|108=30|141=Y|10=011|
8=FIX.4.4|9=0049|35=0|34=2|49=EXC|56=013|52=20190612-19:36:47.000|10=177|
8=FIX.4.4|9=59|35=0|34=2|49=013|50=013B17|52=20190612-19:36:48.098|56=EXC|10=069|
8=FIX.4.4|9=105|35=A|34=1|49=013|50=013B17|52=20190612-19:56:51.825|56=EXC|98=0|108=30|141=Y|553=013FCM001|554=013FCM001|10=106|
8=FIX.4.4|9=0067|35=A|34=1|49=EXC|56=013|52=20190612-19:56:51.863|98=0|108=30|141=Y|10=021|
8=FIX.4.4|9=0049|35=0|34=2|49=EXC|56=013|52=20190612-19:57:21.000|10=172|
8=FIX.4.4|9=59|35=0|34=2|49=013|50=013B17|52=20190612-19:57:22.776|56=EXC|10=067|
8=FIX.4.4|9=0049|35=0|34=3|49=EXC|56=013|52=20190612-19:57:51.000|10=176|
8=FIX.4.4|9=59|35=0|34=3|49=013|50=013B17|52=20190612-19:57:52.775|56=EXC|10=070|
8=FIX.4.4|9=105|35=A|34=1|49=013|50=013B17|52=20190612-19:58:09.122|56=EXC|98=0|108=30|141=Y|553=013FCM001|554=013FCM001|10=101|
8=FIX.4.4|9=0067|35=A|34=1|49=EXC|56=013|52=20190612-19:58:09.162|98=0|108=30|141=Y|10=018|
8=FIX.4.4|9=0049|35=0|34=2|49=EXC|56=013|52=20190612-19:58:39.000|10=182|
8=FIX.4.4|9=59|35=0|34=2|49=013|50=013B17|52=20190612-19:58:40.069|56=EXC|10=063|
8=FIX.4.4|9=0049|35=0|34=3|49=EXC|56=013|52=20190612-19:59:09.000|10=181|
8=FIX.4.4|9=59|35=0|34=3|49=013|50=013B17|52=20190612-19:59:10.082|56=EXC|10=057|
8=FIX.4.4|9=105|35=A|34=1|49=013|50=013B17|52=20190612-20:04:55.569|56=EXC|98=0|108=30|141=Y|553=013FCM001|554=013FCM001|10=100|
8=FIX.4.4|9=0067|35=A|34=1|49=EXC|56=013|52=20190612-20:04:55.608|98=0|108=30|141=Y|10=007|
8=FIX.4.4|9=0049|35=0|34=2|49=EXC|56=013|52=20190612-20:05:25.000|10=161|
8=FIX.4.4|9=59|35=0|34=2|49=013|50=013B17|52=20190612-20:05:26.491|56=EXC|10=050|
8=FIX.4.4|9=0049|35=0|34=3|49=EXC|56=013|52=20190612-20:05:55.000|10=165|
8=FIX.4.4|9=59|35=0|34=3|49=013|50=013B17|52=20190612-20:05:56.491|56=EXC|10=054|
