8=FIX.4.4|9=105|35=A|34=1|49=002|50=002B35|52=20190613-23:20:40.080|56=EXC|98=0|108=30|141=Y|553=002FCM001|554=002FCM001|10=076|
8=FIX.4.4|9=0067|35=A|34=1|49=EXC|56=002|52=20190613-23:20:39.776|98=0|108=30|141=Y|10=015|
8=FIX.4.4|9=0049|35=0|34=2|49=EXC|56=002|52=20190613-23:21:09.000|10=163|
8=FIX.4.4|9=59|35=0|34=2|49=002|50=002B35|52=20190613-23:21:11.014|56=EXC|10=033|
8=FIX.4.4|9=105|35=A|34=1|49=002|50=002B35|52=20190613-23:32:29.830|56=EXC|98=0|108=30|141=Y|553=002FCM001|554=002FCM001|10=089|
8=FIX.4.4|9=0067|35=A|34=1|49=EXC|56=002|52=20190613-23:32:29.141|98=0|108=30|141=Y|10=003|
8=FIX.4.4|9=0049|35=0|34=2|49=EXC|56=002|52=20190613-23:32:59.000|10=170|
8=FIX.4.4|9=59|35=0|34=2|49=002|50=002B35|52=20190613-23:32:59.835|56=EXC|10=058|
8=FIX.4.4|9=105|35=A|34=1|49=002|50=002B35|52=20190613-23:41:59.571|56=EXC|98=0|108=30|141=Y|553=002FCM001|554=002FCM001|10=094|
8=FIX.4.4|9=0067|35=A|34=1|49=EXC|56=002|52=20190613-23:41:58.897|98=0|108=30|141=Y|10=023|
8=FIX.4.4|9=105|35=A|34=1|49=002|50=002B35|52=20190613-23:44:32.590|56=EXC|98=0|108=30|141=Y|553=002FCM001|554=002FCM001|10=089|
8=FIX.4.4|9=0067|35=A|34=1|49=EXC|56=002|52=20190613-23:44:31.919|98=0|108=30|141=Y|10=012|
8=FIX.4.4|9=0049|35=0|34=2|49=EXC|56=002|52=20190613-23:45:01.000|10=161|
8=FIX.4.4|9=59|35=0|34=2|49=002|50=002B35|52=20190613-23:45:03.523|56=EXC|10=045|
8=FIX.4.4|9=105|35=A|34=1|49=002|50=002B35|52=20190614-12:59:00.517|56=EXC|98=0|108=30|141=Y|553=002FCM001|554=002FCM001|10=088|
8=FIX.4.4|9=0067|35=A|34=1|49=EXC|56=002|52=20190614-12:59:00.912|98=0|108=30|141=Y|10=006|
8=FIX.4.4|9=105|35=A|34=1|49=002|50=002B35|52=20190614-13:07:53.977|56=EXC|98=0|108=30|141=Y|553=002FCM001|554=002FCM001|10=100|
8=FIX.4.4|9=0067|35=A|34=1|49=EXC|56=002|52=20190614-13:07:53.415|98=0|108=30|141=Y|10=006|
8=FIX.4.4|9=105|35=A|34=1|49=002|50=002B35|52=20190614-13:13:22.121|56=EXC|98=0|108=30|141=Y|553=002FCM001|554=002FCM001|10=074|
8=FIX.4.4|9=0067|35=A|34=1|49=EXC|56=002|52=20190614-13:13:22.109|98=0|108=30|141=Y|10=255|
8=FIX.4.4|9=105|35=A|34=1|49=002|50=002B35|52=20190614-13:15:43.023|56=EXC|98=0|108=30|141=Y|553=002FCM001|554=002FCM001|10=080|
8=FIX.4.4|9=0067|35=A|34=1|49=EXC|56=002|52=20190614-13:15:43.200|98=0|108=30|141=Y|10=252|
8=FIX.4.4|9=105|35=A|34=1|49=002|50=002B35|52=20190614-13:23:21.485|56=EXC|98=0|108=30|141=Y|553=002FCM001|554=002FCM001|10=087|
8=FIX.4.4|9=0067|35=A|34=1|49=EXC|56=002|52=20190614-13:23:21.778|98=0|108=30|141=Y|10=011|
8=FIX.4.4|9=105|35=A|34=1|49=002|50=002B35|52=20190614-13:24:35.058|56=EXC|98=0|108=30|141=Y|553=002FCM001|554=002FCM001|10=089|
8=FIX.4.4|9=0067|35=A|34=1|49=EXC|56=002|52=20190614-13:24:35.084|98=0|108=30|141=Y|10=007|
8=FIX.4.4|9=105|35=A|34=1|49=002|50=002B35|52=20190614-13:30:39.980|56=EXC|98=0|108=30|141=Y|553=002FCM001|554=002FCM001|10=094|
8=FIX.4.4|9=0067|35=A|34=1|49=EXC|56=002|52=20190614-13:30:40.080|98=0|108=30|141=Y|10=252|
8=FIX.4.4|9=0049|35=0|34=2|49=EXC|56=002|52=20190614-13:31:10.000|10=156|
8=FIX.4.4|9=59|35=0|34=2|49=002|50=002B35|52=20190614-13:31:10.908|56=EXC|10=045|
8=FIX.4.4|9=0049|35=0|34=3|49=EXC|56=002|52=20190614-13:31:40.000|10=160|
8=FIX.4.4|9=59|35=0|34=3|49=002|50=002B35|52=20190614-13:31:40.908|56=EXC|10=049|
8=FIX.4.4|9=105|35=A|34=1|49=002|50=002B35|52=20190614-13:39:25.863|56=EXC|98=0|108=30|141=Y|553=002FCM001|554=002FCM001|10=098|
8=FIX.4.4|9=0067|35=A|34=1|49=EXC|56=002|52=20190614-13:39:26.107|98=0|108=30|141=Y|10=009|
8=FIX.4.4|9=105|35=A|34=1|49=002|50=002B35|52=20190614-13:40:46.963|56=EXC|98=0|108=30|141=Y|553=002FCM001|554=002FCM001|10=094|
8=FIX.4.4|9=0067|35=A|34=1|49=EXC|56=002|52=20190614-13:40:47.225|98=0|108=30|141=Y|10=005|
8=FIX.4.4|9=105|35=A|34=1|49=002|50=002B35|52=20190614-13:50:36.357|56=EXC|98=0|108=30|141=Y|553=002FCM001|554=002FCM001|10=091|
8=FIX.4.4|9=0067|35=A|34=1|49=EXC|56=002|52=20190614-13:50:36.778|98=0|108=30|141=Y|10=017|
8=FIX.4.4|9=105|35=A|34=1|49=002|50=002B35|52=20190614-13:53:29.921|56=EXC|98=0|108=30|141=Y|553=002FCM001|554=002FCM001|10=093|
8=FIX.4.4|9=0067|35=A|34=1|49=EXC|56=002|52=20190614-13:53:30.392|98=0|108=30|141=Y|10=006|
8=FIX.4.4|9=0049|35=0|34=2|49=EXC|56=002|52=20190614-13:54:00.000|10=160|
8=FIX.4.4|9=59|35=0|34=2|49=002|50=002B35|52=20190614-13:54:00.865|56=EXC|10=051|
8=FIX.4.4|9=0049|35=0|34=3|49=EXC|56=002|52=20190614-13:54:30.000|10=164|
8=FIX.4.4|9=59|35=0|34=3|49=002|50=002B35|52=20190614-13:54:30.864|56=EXC|10=054|
8=FIX.4.4|9=0049|35=0|34=4|49=EXC|56=002|52=20190614-13:55:00.000|10=163|
8=FIX.4.4|9=59|35=0|34=4|49=002|50=002B35|52=20190614-13:55:00.864|56=EXC|10=053|
8=FIX.4.4|9=0049|35=0|34=5|49=EXC|56=002|52=20190614-13:55:30.000|10=167|
8=FIX.4.4|9=59|35=0|34=5|49=002|50=002B35|52=20190614-13:55:30.865|56=EXC|10=058|
8=FIX.4.4|9=0049|35=0|34=6|49=EXC|56=002|52=20190614-13:56:00.000|10=166|
8=FIX.4.4|9=59|35=0|34=6|49=002|50=002B35|52=20190614-13:56:00.866|56=EXC|10=058|
8=FIX.4.4|9=0049|35=0|34=7|49=EXC|56=002|52=20190614-13:56:30.000|10=170|
8=FIX.4.4|9=59|35=0|34=7|49=002|50=002B35|52=20190614-13:56:30.864|56=EXC|10=060|
8=FIX.4.4|9=0049|35=0|34=8|49=EXC|56=002|52=20190614-13:57:00.000|10=169|
8=FIX.4.4|9=59|35=0|34=8|49=002|50=002B35|52=20190614-13:57:00.864|56=EXC|10=059|
8=FIX.4.4|9=0049|35=0|34=9|49=EXC|56=002|52=20190614-13:57:30.000|10=173|
8=FIX.4.4|9=59|35=0|34=9|49=002|50=002B35|52=20190614-13:57:30.864|56=EXC|10=063|
8=FIX.4.4|9=0050|35=0|34=10|49=EXC|56=002|52=20190614-13:58:00.000|10=203|
8=FIX.4.4|9=60|35=0|34=10|49=002|50=002B35|52=20190614-13:58:00.865|56=EXC|10=094|
8=FIX.4.4|9=0050|35=0|34=11|49=EXC|56=002|52=20190614-13:58:30.000|10=207|
8=FIX.4.4|9=60|35=0|34=11|49=002|50=002B35|52=20190614-13:58:30.865|56=EXC|10=098|
8=FIX.4.4|9=0050|35=0|34=12|49=EXC|56=002|52=20190614-13:59:00.000|10=206|
8=FIX.4.4|9=60|35=0|34=12|49=002|50=002B35|52=20190614-13:59:00.865|56=EXC|10=097|
8=FIX.4.4|9=0050|35=0|34=13|49=EXC|56=002|52=20190614-13:59:30.000|10=210|
8=FIX.4.4|9=60|35=0|34=13|49=002|50=002B35|52=20190614-13:59:30.864|56=EXC|10=100|
8=FIX.4.4|9=0050|35=0|34=14|49=EXC|56=002|52=20190614-14:00:00.000|10=195|
8=FIX.4.4|9=60|35=0|34=14|49=002|50=002B35|52=20190614-14:00:00.865|56=EXC|10=086|
8=FIX.4.4|9=0050|35=0|34=15|49=EXC|56=002|52=20190614-14:00:30.000|10=199|
8=FIX.4.4|9=60|35=0|34=15|49=002|50=002B35|52=20190614-14:00:30.865|56=EXC|10=090|
8=FIX.4.4|9=0050|35=0|34=16|49=EXC|56=002|52=20190614-14:01:00.000|10=198|
8=FIX.4.4|9=60|35=0|34=16|49=002|50=002B35|52=20190614-14:01:00.864|56=EXC|10=088|
8=FIX.4.4|9=105|35=A|34=1|49=002|50=002B35|52=20190614-14:01:16.412|56=EXC|98=0|108=30|141=Y|553=002FCM001|554=002FCM001|10=078|
8=FIX.4.4|9=0067|35=A|34=1|49=EXC|56=002|52=20190614-14:01:17.006|98=0|108=30|141=Y|10=253|
8=FIX.4.4|9=0226|35=R|34=2|49=EXC|56=002|57=002B35|52=20190614-14:01:38.169|131=20190614-000000000001.00|146=1|55=TFIT06110919|762=RFQF|48=20320|22=M|54=1|38=1000000000|453=3|448=001B27|447=C|452=12|448=001|447=C|452=1|448=002B35|447=C|452=37|10=058|
8=FIX.4.4|9=59|35=0|34=2|49=002|50=002B35|52=20190614-14:01:47.398|56=EXC|10=056|
8=FIX.4.4|9=105|35=A|34=1|49=002|50=002B35|52=20190614-14:34:22.527|56=EXC|98=0|108=30|141=Y|553=002FCM001|554=002FCM001|10=088|
8=FIX.4.4|9=0067|35=A|34=1|49=EXC|56=002|52=20190614-14:34:22.826|98=0|108=30|141=Y|10=009|
8=FIX.4.4|9=0049|35=0|34=2|49=EXC|56=002|52=20190614-14:34:52.000|10=166|
8=FIX.4.4|9=59|35=0|34=2|49=002|50=002B35|52=20190614-14:34:53.452|56=EXC|10=050|
8=FIX.4.4|9=105|35=A|34=1|49=002|50=002B35|52=20190614-14:35:27.934|56=EXC|98=0|108=30|141=Y|553=002FCM001|554=002FCM001|10=096|
8=FIX.4.4|9=0067|35=A|34=1|49=EXC|56=002|52=20190614-14:35:28.235|98=0|108=30|141=Y|10=010|
8=FIX.4.4|9=0225|35=R|34=2|49=EXC|56=002|57=002B35|52=20190614-14:35:35.505|131=20190614-000000000002.00|146=1|55=TFIC13280425|762=RFQF|48=20626|22=M|54=1|38=500000000|453=3|448=001B27|447=C|452=12|448=001|447=C|452=1|448=002B35|447=C|452=37|10=002|
8=FIX.4.4|9=105|35=A|34=1|49=002|50=002B35|52=20190614-14:36:05.000|56=EXC|98=0|108=30|141=Y|553=002FCM001|554=002FCM001|10=077|
8=FIX.4.4|9=0067|35=A|34=1|49=EXC|56=002|52=20190614-14:36:05.307|98=0|108=30|141=Y|10=006|
8=FIX.4.4|9=105|35=A|34=1|49=002|50=002B35|52=20190614-14:39:40.099|56=EXC|98=0|108=30|141=Y|553=002FCM001|554=002FCM001|10=097|
8=FIX.4.4|9=0067|35=A|34=1|49=EXC|56=002|52=20190614-14:39:40.538|98=0|108=30|141=Y|10=014|
8=FIX.4.4|9=0225|35=R|34=2|49=EXC|56=002|57=002B35|52=20190614-14:39:47.655|131=20190614-000000000003.00|146=1|55=TFIC13280425|762=RFQF|48=20626|22=M|54=1|38=500000000|453=3|448=001B27|447=C|452=12|448=001|447=C|452=1|448=002B35|447=C|452=37|10=016|
8=FIX.4.4|9=206|35=S|34=2|49=002|50=002B35|52=20190614-14:40:03.445|56=EXC|55=TFIC13280425|62=20190617-22:00:00.000|117=20190614939371_S|131=20190614-000000000003.00|135=500000000|634=4|762=RFQF|453=1|448=DCV|447=C|452=10|10=050|
8=FIX.4.4|9=0301|35=AI|34=3|49=EXC|56=002|57=002B35|52=20190614-14:40:03.789|131=20190614-000000000003.00|117=20190614939371_S|453=4|448=DCV|447=C|452=10|448=001B27|447=C|452=12|448=001|447=C|452=1|448=002B35|447=C|452=37|55=TFIC13280425|762=RFQF|48=20626|22=M|54=1|634=4.000|135=500000000|62=20190617-22:00:00|297=16|10=239|
8=FIX.4.4|9=105|35=A|34=1|49=002|50=002B35|52=20190614-14:41:46.989|56=EXC|98=0|108=30|141=Y|553=002FCM001|554=002FCM001|10=104|
8=FIX.4.4|9=0067|35=A|34=1|49=EXC|56=002|52=20190614-14:41:47.393|98=0|108=30|141=Y|10=013|
8=FIX.4.4|9=0220|35=R|34=2|49=EXC|56=002|57=002B35|52=20190614-14:41:54.659|131=20190614-000000000004.00|146=1|55=TFIC13280425|762=RFQF|48=20626|22=M|38=500000000|453=3|448=001B27|447=C|452=12|448=001|447=C|452=1|448=002B35|447=C|452=37|10=047|
8=FIX.4.4|9=105|35=A|34=1|49=002|50=002B35|52=20190614-14:42:23.732|56=EXC|98=0|108=30|141=Y|553=002FCM001|554=002FCM001|10=086|
8=FIX.4.4|9=0067|35=A|34=1|49=EXC|56=002|52=20190614-14:42:24.147|98=0|108=30|141=Y|10=006|
8=FIX.4.4|9=0049|35=0|34=2|49=EXC|56=002|52=20190614-14:42:54.000|10=167|
8=FIX.4.4|9=59|35=0|34=2|49=002|50=002B35|52=20190614-14:42:53.723|56=EXC|10=050|
8=FIX.4.4|9=105|35=A|34=1|49=002|50=002B35|52=20190614-14:47:56.578|56=EXC|98=0|108=30|141=Y|553=002FCM001|554=002FCM001|10=105|
8=FIX.4.4|9=0067|35=A|34=1|49=EXC|56=002|52=20190614-14:47:56.770|98=0|108=30|141=Y|10=018|
8=FIX.4.4|9=105|35=A|34=1|49=002|50=002B35|52=20190614-14:49:37.329|56=EXC|98=0|108=30|141=Y|553=002FCM001|554=002FCM001|10=100|
8=FIX.4.4|9=0067|35=A|34=1|49=EXC|56=002|52=20190614-14:49:37.551|98=0|108=30|141=Y|10=016|
8=FIX.4.4|9=105|35=A|34=1|49=002|50=002B35|52=20190614-15:26:35.812|56=EXC|98=0|108=30|141=Y|553=002FCM001|554=002FCM001|10=091|
8=FIX.4.4|9=0067|35=A|34=1|49=EXC|56=002|52=20190614-15:26:35.661|98=0|108=30|141=Y|10=012|
8=FIX.4.4|9=0226|35=R|34=2|49=EXC|56=002|57=002B35|52=20190614-15:26:56.617|131=20190614-000000000005.00|146=1|55=TFIT06110919|762=RFQF|48=20320|22=M|54=1|38=1000000000|453=3|448=001B27|447=C|452=12|448=001|447=C|452=1|448=002B35|447=C|452=37|10=068|
8=FIX.4.4|9=105|35=A|34=1|49=002|50=002B35|52=20190614-16:53:44.286|56=EXC|98=0|108=30|141=Y|553=002FCM001|554=002FCM001|10=097|
8=FIX.4.4|9=0067|35=A|34=1|49=EXC|56=002|52=20190614-16:53:44.136|98=0|108=30|141=Y|10=010|
8=FIX.4.4|9=0225|35=R|34=2|49=EXC|56=002|57=002B35|52=20190614-16:53:51.407|131=20190614-000000000006.00|146=1|55=TFIC13280425|762=RFQF|48=20626|22=M|54=1|38=500000000|453=3|448=001B27|447=C|452=12|448=001|447=C|452=1|448=002B35|447=C|452=37|10=007|
8=FIX.4.4|9=207|35=S|34=2|49=002|50=002B35|52=20190614-16:54:08.187|56=EXC|55=TFIC13280425|62=20190617-22:00:00.000|117=201906141153421_S|131=20190614-000000000006.00|135=500000000|634=4|762=RFQF|453=1|448=DCV|447=C|452=10|10=102|
8=FIX.4.4|9=0302|35=AI|34=3|49=EXC|56=002|57=002B35|52=20190614-16:54:08.009|131=20190614-000000000006.00|117=201906141153421_S|453=4|448=DCV|447=C|452=10|448=001B27|447=C|452=12|448=001|447=C|452=1|448=002B35|447=C|452=37|55=TFIC13280425|762=RFQF|48=20626|22=M|54=1|634=4.000|135=500000000|62=20190617-22:00:00|297=16|10=017|
8=FIX.4.4|9=0515|35=8|34=4|49=EXC|56=002|57=002B35|52=20190614-16:54:26.995|11=201906141153421_S|17=1|37=0|150=F|1080=20190614-000000000006.00|1081=6|453=6|448=002B35|447=C|452=12|448=002|447=C|452=1|448=001B27|447=C|452=37|448=001|447=C|452=17|448=002FCM001|447=C|452=36|448=DCV|447=C|452=10|55=TFIC13280425|762=RFQF|48=20626|22=M|6=79.431|14=500000000|31=79.431|32=500000000|38=500000000|39=2|20102=79.431|54=2|60=20190614-16:54:26.995|75=20190614|63=1|64=20190614|151=0|1623=4.000|381=397158000.000|880=201906140000000083|828=99|10=114|
8=FIX.4.4|9=59|35=0|34=3|49=002|50=002B35|52=20190614-16:54:38.210|56=EXC|10=050|
8=FIX.4.4|9=126|35=j|34=4|49=002|50=002B35|52=20190614-16:54:42.408|56=EXC|45=4|58=Conditionally Required Field Missing, field=56|372=8|380=5|10=242|
8=FIX.4.4|9=0109|35=j|34=5|49=EXC|56=002|57=002B35|52=20190614-16:54:42.238|45=4|372=j|380=3|58=(1468): MsgType(#35) invalido|10=069|
8=FIX.4.4|9=105|35=A|34=1|49=002|50=002B35|52=20190614-17:03:19.861|56=EXC|98=0|108=30|141=Y|553=002FCM001|554=002FCM001|10=094|
8=FIX.4.4|9=0067|35=A|34=1|49=EXC|56=002|52=20190614-17:03:19.838|98=0|108=30|141=Y|10=017|
8=FIX.4.4|9=0225|35=R|34=2|49=EXC|56=002|57=002B35|52=20190614-17:03:27.104|131=20190614-000000000007.00|146=1|55=TFIC13280425|762=RFQF|48=20626|22=M|54=1|38=500000000|453=3|448=001B27|447=C|452=12|448=001|447=C|452=1|448=002B35|447=C|452=37|10=001|
8=FIX.4.4|9=207|35=S|34=2|49=002|50=002B35|52=20190614-17:03:43.224|56=EXC|55=TFIC13280425|62=20190617-22:00:00.000|117=201906141203171_S|131=20190614-000000000007.00|135=500000000|634=4|762=RFQF|453=1|448=DCV|447=C|452=10|10=087|
8=FIX.4.4|9=0302|35=AI|34=3|49=EXC|56=002|57=002B35|52=20190614-17:03:43.179|131=20190614-000000000007.00|117=201906141203171_S|453=4|448=DCV|447=C|452=10|448=001B27|447=C|452=12|448=001|447=C|452=1|448=002B35|447=C|452=37|55=TFIC13280425|762=RFQF|48=20626|22=M|54=1|634=4.000|135=500000000|62=20190617-22:00:00|297=16|10=018|
8=FIX.4.4|9=0515|35=8|34=4|49=EXC|56=002|57=002B35|52=20190614-17:04:02.015|11=201906141203171_S|17=2|37=0|150=F|1080=20190614-000000000007.00|1081=6|453=6|448=002B35|447=C|452=12|448=002|447=C|452=1|448=001B27|447=C|452=37|448=001|447=C|452=17|448=002FCM001|447=C|452=36|448=DCV|447=C|452=10|55=TFIC13280425|762=RFQF|48=20626|22=M|6=79.431|14=500000000|31=79.431|32=500000000|38=500000000|39=2|20102=79.431|54=2|60=20190614-17:04:02.015|75=20190614|63=1|64=20190614|151=0|1623=4.000|381=397158000.000|880=201906140000000084|828=99|10=061|
8=FIX.4.4|9=59|35=0|34=3|49=002|50=002B35|52=20190614-17:04:13.854|56=EXC|10=053|
8=FIX.4.4|9=0225|35=R|34=5|49=EXC|56=002|57=002B35|52=20190614-17:04:23.008|131=20190614-000000000008.00|146=1|55=TFIT16280428|762=RFQF|48=20399|22=M|54=1|38=500000000|453=3|448=001B27|447=C|452=12|448=001|447=C|452=1|448=002B35|447=C|452=37|10=035|
8=FIX.4.4|9=105|35=A|34=1|49=002|50=002B35|52=20190614-17:05:55.607|56=EXC|98=0|108=30|141=Y|553=002FCM001|554=002FCM001|10=094|
8=FIX.4.4|9=0067|35=A|34=1|49=EXC|56=002|52=20190614-17:05:55.295|98=0|108=30|141=Y|10=016|
8=FIX.4.4|9=0225|35=R|34=2|49=EXC|56=002|57=002B35|52=20190614-17:06:02.544|131=20190614-000000000009.00|146=1|55=TFIC13280425|762=RFQF|48=20626|22=M|54=1|38=500000000|453=3|448=001B27|447=C|452=12|448=001|447=C|452=1|448=002B35|447=C|452=37|10=007|
8=FIX.4.4|9=207|35=S|34=2|49=002|50=002B35|52=20190614-17:06:19.080|56=EXC|55=TFIC13280425|62=20190617-22:00:00.000|117=201906141205531_S|131=20190614-000000000009.00|135=500000000|634=4|762=RFQF|453=1|448=DCV|447=C|452=10|10=097|
8=FIX.4.4|9=0302|35=AI|34=3|49=EXC|56=002|57=002B35|52=20190614-17:06:18.746|131=20190614-000000000009.00|117=201906141205531_S|453=4|448=DCV|447=C|452=10|448=001B27|447=C|452=12|448=001|447=C|452=1|448=002B35|447=C|452=37|55=TFIC13280425|762=RFQF|48=20626|22=M|54=1|634=4.000|135=500000000|62=20190617-22:00:00|297=16|10=027|
8=FIX.4.4|9=0515|35=8|34=4|49=EXC|56=002|57=002B35|52=20190614-17:06:37.750|11=201906141205531_S|17=3|37=0|150=F|1080=20190614-000000000009.00|1081=6|453=6|448=002B35|447=C|452=12|448=002|447=C|452=1|448=001B27|447=C|452=37|448=001|447=C|452=17|448=002FCM001|447=C|452=36|448=DCV|447=C|452=10|55=TFIC13280425|762=RFQF|48=20626|22=M|6=79.431|14=500000000|31=79.431|32=500000000|38=500000000|39=2|20102=79.431|54=2|60=20190614-17:06:37.750|75=20190614|63=1|64=20190614|151=0|1623=4.000|381=397158000.000|880=201906140000000085|828=99|10=099|
8=FIX.4.4|9=59|35=0|34=3|49=002|50=002B35|52=20190614-17:06:49.599|56=EXC|10=070|
8=FIX.4.4|9=126|35=j|34=4|49=002|50=002B35|52=20190614-17:06:53.102|56=EXC|45=4|58=Conditionally Required Field Missing, field=56|372=8|380=5|10=233|
8=FIX.4.4|9=0109|35=j|34=5|49=EXC|56=002|57=002B35|52=20190614-17:06:52.775|45=4|372=j|380=3|58=(1468): MsgType(#35) invalido|10=074|
8=FIX.4.4|9=105|35=A|34=1|49=002|50=002B35|52=20190614-18:35:54.169|56=EXC|98=0|108=30|141=Y|553=002FCM001|554=002FCM001|10=100|
8=FIX.4.4|9=0067|35=A|34=1|49=EXC|56=002|52=20190614-18:35:54.218|98=0|108=30|141=Y|10=014|
8=FIX.4.4|9=0225|35=R|34=2|49=EXC|56=002|57=002B35|52=20190614-18:36:01.622|131=20190614-000000000010.00|146=1|55=TFIC13280425|762=RFQF|48=20626|22=M|54=1|38=500000000|453=3|448=001B27|447=C|452=12|448=001|447=C|452=1|448=002B35|447=C|452=37|10=255|
8=FIX.4.4|9=207|35=S|34=2|49=002|50=002B35|52=20190614-18:36:17.796|56=EXC|55=TFIC13280425|62=20190617-22:00:00.000|117=201906141335511_S|131=20190614-000000000010.00|135=500000000|634=4|762=RFQF|453=1|448=DCV|447=C|452=10|10=107|
8=FIX.4.4|9=0302|35=AI|34=3|49=EXC|56=002|57=002B35|52=20190614-18:36:17.788|131=20190614-000000000010.00|117=201906141335511_S|453=4|448=DCV|447=C|452=10|448=001B27|447=C|452=12|448=001|447=C|452=1|448=002B35|447=C|452=37|55=TFIC13280425|762=RFQF|48=20626|22=M|54=1|634=4.000|135=500000000|62=20190617-22:00:00|297=16|10=030|
8=FIX.4.4|9=0515|35=8|34=4|49=EXC|56=002|57=002B35|52=20190614-18:36:36.624|11=201906141335511_S|17=4|37=0|150=F|1080=20190614-000000000010.00|1081=6|453=6|448=002B35|447=C|452=12|448=002|447=C|452=1|448=001B27|447=C|452=37|448=001|447=C|452=17|448=002FCM001|447=C|452=36|448=DCV|447=C|452=10|55=TFIC13280425|762=RFQF|48=20626|22=M|6=79.431|14=500000000|31=79.431|32=500000000|38=500000000|39=2|20102=79.431|54=2|60=20190614-18:36:36.624|75=20190614|63=1|64=20190614|151=0|1623=4.000|381=397158000.000|880=201906140000000086|828=99|10=101|
8=FIX.4.4|9=59|35=0|34=3|49=002|50=002B35|52=20190614-18:36:48.129|56=EXC|10=062|
8=FIX.4.4|9=126|35=j|34=4|49=002|50=002B35|52=20190614-18:36:51.656|56=EXC|45=4|58=Conditionally Required Field Missing, field=56|372=8|380=5|10=249|
8=FIX.4.4|9=0109|35=j|34=5|49=EXC|56=002|57=002B35|52=20190614-18:36:51.657|45=4|372=j|380=3|58=(1468): MsgType(#35) invalido|10=076|
8=FIX.4.4|9=105|35=A|34=1|49=002|50=002B35|52=20190614-18:37:58.100|56=EXC|98=0|108=30|141=Y|553=002FCM001|554=002FCM001|10=091|
8=FIX.4.4|9=0067|35=A|34=1|49=EXC|56=002|52=20190614-18:37:58.148|98=0|108=30|141=Y|10=022|
8=FIX.4.4|9=0225|35=R|34=2|49=EXC|56=002|57=002B35|52=20190614-18:38:05.435|131=20190614-000000000011.00|146=1|55=TFIC13280425|762=RFQF|48=20626|22=M|54=1|38=500000000|453=3|448=001B27|447=C|452=12|448=001|447=C|452=1|448=002B35|447=C|452=37|10=008|
8=FIX.4.4|9=207|35=S|34=2|49=002|50=002B35|52=20190614-18:38:21.390|56=EXC|55=TFIC13280425|62=20190617-22:00:00.000|117=201906141337551_S|131=20190614-000000000011.00|135=500000000|634=4|762=RFQF|453=1|448=DCV|447=C|452=10|10=101|
8=FIX.4.4|9=0302|35=AI|34=3|49=EXC|56=002|57=002B35|52=20190614-18:38:21.414|131=20190614-000000000011.00|117=201906141337551_S|453=4|448=DCV|447=C|452=10|448=001B27|447=C|452=12|448=001|447=C|452=1|448=002B35|447=C|452=37|55=TFIC13280425|762=RFQF|48=20626|22=M|54=1|634=4.000|135=500000000|62=20190617-22:00:00|297=16|10=020|
8=FIX.4.4|9=0515|35=8|34=4|49=EXC|56=002|57=002B35|52=20190614-18:38:40.250|11=201906141337551_S|17=5|37=0|150=F|1080=20190614-000000000011.00|1081=6|453=6|448=002B35|447=C|452=12|448=002|447=C|452=1|448=001B27|447=C|452=37|448=001|447=C|452=17|448=002FCM001|447=C|452=36|448=DCV|447=C|452=10|55=TFIC13280425|762=RFQF|48=20626|22=M|6=79.431|14=500000000|31=79.431|32=500000000|38=500000000|39=2|20102=79.431|54=2|60=20190614-18:38:40.250|75=20190614|63=1|64=20190614|151=0|1623=4.000|381=397158000.000|880=201906140000000088|828=99|10=095|
8=FIX.4.4|9=59|35=0|34=3|49=002|50=002B35|52=20190614-18:38:52.061|56=EXC|10=054|
8=FIX.4.4|9=126|35=j|34=4|49=002|50=002B35|52=20190614-18:38:55.248|56=EXC|45=4|58=Conditionally Required Field Missing, field=56|372=8|380=5|10=252|
8=FIX.4.4|9=0109|35=j|34=5|49=EXC|56=002|57=002B35|52=20190614-18:38:55.281|45=4|372=j|380=3|58=(1468): MsgType(#35) invalido|10=075|
8=FIX.4.4|9=0049|35=0|34=6|49=EXC|56=002|52=20190614-18:39:25.000|10=179|
8=FIX.4.4|9=59|35=0|34=5|49=002|50=002B35|52=20190614-18:39:26.061|56=EXC|10=058|
8=FIX.4.4|9=0049|35=0|34=7|49=EXC|56=002|52=20190614-18:39:55.000|10=183|
8=FIX.4.4|9=59|35=0|34=6|49=002|50=002B35|52=20190614-18:39:56.060|56=EXC|10=061|
8=FIX.4.4|9=0049|35=0|34=8|49=EXC|56=002|52=20190614-18:40:25.000|10=173|
8=FIX.4.4|9=59|35=0|34=7|49=002|50=002B35|52=20190614-18:40:26.060|56=EXC|10=051|
8=FIX.4.4|9=0049|35=0|34=9|49=EXC|56=002|52=20190614-18:40:55.000|10=177|
8=FIX.4.4|9=59|35=0|34=8|49=002|50=002B35|52=20190614-18:40:56.060|56=EXC|10=055|
8=FIX.4.4|9=105|35=A|34=1|49=002|50=002B35|52=20190614-18:43:05.737|56=EXC|98=0|108=30|141=Y|553=002FCM001|554=002FCM001|10=096|
8=FIX.4.4|9=0067|35=A|34=1|49=EXC|56=002|52=20190614-18:43:05.864|98=0|108=30|141=Y|10=016|
8=FIX.4.4|9=0225|35=R|34=2|49=EXC|56=002|57=002B35|52=20190614-18:43:13.113|131=20190614-000000000012.00|146=1|55=TFIC13280425|762=RFQF|48=20626|22=M|54=1|38=500000000|453=3|448=001B27|447=C|452=12|448=001|447=C|452=1|448=002B35|447=C|452=37|10=253|
8=FIX.4.4|9=207|35=S|34=2|49=002|50=002B35|52=20190614-18:43:28.775|56=EXC|55=TFIC13280425|62=20190617-22:00:00.000|117=201906141343031_S|131=20190614-000000000012.00|135=500000000|634=4|762=RFQF|453=1|448=DCV|447=C|452=10|10=102|
8=FIX.4.4|9=0302|35=AI|34=3|49=EXC|56=002|57=002B35|52=20190614-18:43:28.882|131=20190614-000000000012.00|117=201906141343031_S|453=4|448=DCV|447=C|452=10|448=001B27|447=C|452=12|448=001|447=C|452=1|448=002B35|447=C|452=37|55=TFIC13280425|762=RFQF|48=20626|22=M|54=1|634=4.000|135=500000000|62=20190617-22:00:00|297=16|10=023|
8=FIX.4.4|9=0515|35=8|34=4|49=EXC|56=002|57=002B35|52=20190614-18:43:47.755|11=201906141343031_S|17=6|37=0|150=F|1080=20190614-000000000012.00|1081=6|453=6|448=002B35|447=C|452=12|448=002|447=C|452=1|448=001B27|447=C|452=37|448=001|447=C|452=17|448=002FCM001|447=C|452=36|448=DCV|447=C|452=10|55=TFIC13280425|762=RFQF|48=20626|22=M|6=79.431|14=500000000|31=79.431|32=500000000|38=500000000|39=2|20102=79.431|54=2|60=20190614-18:43:47.755|75=20190614|63=1|64=20190614|151=0|1623=4.000|381=397158000.000|880=201906140000000091|828=99|10=107|
8=FIX.4.4|9=59|35=0|34=3|49=002|50=002B35|52=20190614-18:43:59.644|56=EXC|10=064|
8=FIX.4.4|9=126|35=j|34=4|49=002|50=002B35|52=20190614-18:44:02.671|56=EXC|45=4|58=Conditionally Required Field Missing, field=56|372=8|380=5|10=241|
8=FIX.4.4|9=0109|35=j|34=5|49=EXC|56=002|57=002B35|52=20190614-18:44:02.788|45=4|372=j|380=3|58=(1468): MsgType(#35) invalido|10=076|
8=FIX.4.4|9=105|35=A|34=1|49=002|50=002B35|52=20190614-19:03:34.849|56=EXC|98=0|108=30|141=Y|553=002FCM001|554=002FCM001|10=099|
8=FIX.4.4|9=0067|35=A|34=1|49=EXC|56=002|52=20190614-19:03:34.933|98=0|108=30|141=Y|10=012|
8=FIX.4.4|9=0225|35=R|34=2|49=EXC|56=002|57=002B35|52=20190614-19:03:42.257|131=20190614-000000000013.00|146=1|55=TFIC13280425|762=RFQF|48=20626|22=M|54=1|38=500000000|453=3|448=001B27|447=C|452=12|448=001|447=C|452=1|448=002B35|447=C|452=37|10=006|
8=FIX.4.4|9=207|35=S|34=2|49=002|50=002B35|52=20190614-19:03:58.184|56=EXC|55=TFIC13280425|62=20190617-22:00:00.000|117=201906141403321_S|131=20190614-000000000013.00|135=500000000|634=4|762=RFQF|453=1|448=DCV|447=C|452=10|10=096|
8=FIX.4.4|9=0302|35=AI|34=3|49=EXC|56=002|57=002B35|52=20190614-19:03:58.237|131=20190614-000000000013.00|117=201906141403321_S|453=4|448=DCV|447=C|452=10|448=001B27|447=C|452=12|448=001|447=C|452=1|448=002B35|447=C|452=37|55=TFIC13280425|762=RFQF|48=20626|22=M|54=1|634=4.000|135=500000000|62=20190617-22:00:00|297=16|10=017|
8=FIX.4.4|9=0515|35=8|34=4|49=EXC|56=002|57=002B35|52=20190614-19:04:17.024|11=201906141403321_S|17=7|37=0|150=F|1080=20190614-000000000013.00|1081=6|453=6|448=002B35|447=C|452=12|448=002|447=C|452=1|448=001B27|447=C|452=37|448=001|447=C|452=17|448=002FCM001|447=C|452=36|448=DCV|447=C|452=10|55=TFIC13280425|762=RFQF|48=20626|22=M|6=79.431|14=500000000|31=79.431|32=500000000|38=500000000|39=2|20102=79.431|54=2|60=20190614-19:04:17.024|75=20190614|63=1|64=20190614|151=0|1623=4.000|381=397158000.000|880=201906140000000098|828=99|10=083|
8=FIX.4.4|9=59|35=0|34=3|49=002|50=002B35|52=20190614-19:04:28.813|56=EXC|10=056|
8=FIX.4.4|9=0225|35=R|34=5|49=EXC|56=002|57=002B35|52=20190614-19:04:38.638|131=20190614-000000000014.00|146=1|55=TFIT16280428|762=RFQF|48=20399|22=M|54=1|38=500000000|453=3|448=001B27|447=C|452=12|448=001|447=C|452=1|448=002B35|447=C|452=37|10=049|
8=FIX.4.4|9=105|35=A|34=1|49=002|50=002B35|52=20190614-19:08:27.991|56=EXC|98=0|108=30|141=Y|553=002FCM001|554=002FCM001|10=104|
8=FIX.4.4|9=0067|35=A|34=1|49=EXC|56=002|52=20190614-19:08:28.133|98=0|108=30|141=Y|10=012|
8=FIX.4.4|9=0225|35=R|34=2|49=EXC|56=002|57=002B35|52=20190614-19:08:35.450|131=20190614-000000000015.00|146=1|55=TFIC13280425|762=RFQF|48=20626|22=M|54=1|38=500000000|453=3|448=001B27|447=C|452=12|448=001|447=C|452=1|448=002B35|447=C|452=37|10=010|
8=FIX.4.4|9=207|35=S|34=2|49=002|50=002B35|52=20190614-19:08:51.222|56=EXC|55=TFIC13280425|62=20190617-22:00:00.000|117=201906141408251_S|131=20190614-000000000015.00|135=500000000|634=4|762=RFQF|453=1|448=DCV|447=C|452=10|10=096|
8=FIX.4.4|9=0302|35=AI|34=3|49=EXC|56=002|57=002B35|52=20190614-19:08:51.343|131=20190614-000000000015.00|117=201906141408251_S|453=4|448=DCV|447=C|452=10|448=001B27|447=C|452=12|448=001|447=C|452=1|448=002B35|447=C|452=37|55=TFIC13280425|762=RFQF|48=20626|22=M|54=1|634=4.000|135=500000000|62=20190617-22:00:00|297=16|10=022|
8=FIX.4.4|9=0515|35=8|34=4|49=EXC|56=002|57=002B35|52=20190614-19:09:10.125|11=201906141408251_S|17=8|37=0|150=F|1080=20190614-000000000015.00|1081=6|453=6|448=002B35|447=C|452=12|448=002|447=C|452=1|448=001B27|447=C|452=37|448=001|447=C|452=17|448=002FCM001|447=C|452=36|448=DCV|447=C|452=10|55=TFIC13280425|762=RFQF|48=20626|22=M|6=79.431|14=500000000|31=79.431|32=500000000|38=500000000|39=2|20102=79.431|54=2|60=20190614-19:09:10.125|75=20190614|63=1|64=20190614|151=0|1623=4.000|381=397158000.000|880=201906140000000103|828=99|10=080|
8=FIX.4.4|9=59|35=0|34=3|49=002|50=002B35|52=20190614-19:09:21.936|56=EXC|10=060|
8=FIX.4.4|9=0225|35=R|34=5|49=EXC|56=002|57=002B35|52=20190614-19:09:31.657|131=20190614-000000000016.00|146=1|55=TFIT16280428|762=RFQF|48=20399|22=M|54=1|38=500000000|453=3|448=001B27|447=C|452=12|448=001|447=C|452=1|448=002B35|447=C|452=37|10=050|
8=FIX.4.4|9=105|35=A|34=1|49=002|50=002B35|52=20190614-19:24:54.247|56=EXC|98=0|108=30|141=Y|553=002FCM001|554=002FCM001|10=096|
8=FIX.4.4|9=0067|35=A|34=1|49=EXC|56=002|52=20190614-19:24:54.273|98=0|108=30|141=Y|10=014|
8=FIX.4.4|9=0225|35=R|34=2|49=EXC|56=002|57=002B35|52=20190614-19:25:01.674|131=20190614-000000000017.00|146=1|55=TFIC13280425|762=RFQF|48=20626|22=M|54=1|38=500000000|453=3|448=001B27|447=C|452=12|448=001|447=C|452=1|448=002B35|447=C|452=37|10=012|
8=FIX.4.4|9=207|35=S|34=2|49=002|50=002B35|52=20190614-19:25:17.480|56=EXC|55=TFIC13280425|62=20190617-22:00:00.000|117=201906141424511_S|131=20190614-000000000017.00|135=500000000|634=4|762=RFQF|453=1|448=DCV|447=C|452=10|10=102|
8=FIX.4.4|9=0302|35=AI|34=3|49=EXC|56=002|57=002B35|52=20190614-19:25:17.482|131=20190614-000000000017.00|117=201906141424511_S|453=4|448=DCV|447=C|452=10|448=001B27|447=C|452=12|448=001|447=C|452=1|448=002B35|447=C|452=37|55=TFIC13280425|762=RFQF|48=20626|22=M|54=1|634=4.000|135=500000000|62=20190617-22:00:00|297=16|10=026|
8=FIX.4.4|9=0515|35=8|34=4|49=EXC|56=002|57=002B35|52=20190614-19:25:36.199|11=201906141424511_S|17=9|37=0|150=F|1080=20190614-000000000017.00|1081=6|453=6|448=002B35|447=C|452=12|448=002|447=C|452=1|448=001B27|447=C|452=37|448=001|447=C|452=17|448=002FCM001|447=C|452=36|448=DCV|447=C|452=10|55=TFIC13280425|762=RFQF|48=20626|22=M|6=79.431|14=500000000|31=79.431|32=500000000|38=500000000|39=2|20102=79.431|54=2|60=20190614-19:25:36.199|75=20190614|63=1|64=20190614|151=0|1623=4.000|381=397158000.000|880=201906140000000111|828=99|10=113|
8=FIX.4.4|9=59|35=0|34=3|49=002|50=002B35|52=20190614-19:25:48.186|56=EXC|10=064|
8=FIX.4.4|9=0225|35=R|34=5|49=EXC|56=002|57=002B35|52=20190614-19:25:57.622|131=20190614-000000000018.00|146=1|55=TFIT16280428|762=RFQF|48=20399|22=M|54=1|38=500000000|453=3|448=001B27|447=C|452=12|448=001|447=C|452=1|448=002B35|447=C|452=37|10=050|
8=FIX.4.4|9=105|35=A|34=1|49=002|50=002B35|52=20190614-19:26:40.897|56=EXC|98=0|108=30|141=Y|553=002FCM001|554=002FCM001|10=104|
8=FIX.4.4|9=0067|35=A|34=1|49=EXC|56=002|52=20190614-19:26:40.944|98=0|108=30|141=Y|10=016|
8=FIX.4.4|9=0225|35=R|34=2|49=EXC|56=002|57=002B35|52=20190614-19:26:48.222|131=20190614-000000000019.00|146=1|55=TFIC13280425|762=RFQF|48=20626|22=M|54=1|38=500000000|453=3|448=001B27|447=C|452=12|448=001|447=C|452=1|448=002B35|447=C|452=37|10=015|
8=FIX.4.4|9=207|35=S|34=2|49=002|50=002B35|52=20190614-19:27:04.517|56=EXC|55=TFIC13280425|62=20190617-22:00:00.000|117=201906141426381_S|131=20190614-000000000019.00|135=500000000|634=4|762=RFQF|453=1|448=DCV|447=C|452=10|10=110|
8=FIX.4.4|9=0302|35=AI|34=3|49=EXC|56=002|57=002B35|52=20190614-19:27:04.543|131=20190614-000000000019.00|117=201906141426381_S|453=4|448=DCV|447=C|452=10|448=001B27|447=C|452=12|448=001|447=C|452=1|448=002B35|447=C|452=37|55=TFIC13280425|762=RFQF|48=20626|22=M|54=1|634=4.000|135=500000000|62=20190617-22:00:00|297=16|10=031|
8=FIX.4.4|9=0516|35=8|34=4|49=EXC|56=002|57=002B35|52=20190614-19:27:23.342|11=201906141426381_S|17=10|37=0|150=F|1080=20190614-000000000019.00|1081=6|453=6|448=002B35|447=C|452=12|448=002|447=C|452=1|448=001B27|447=C|452=37|448=001|447=C|452=17|448=002FCM001|447=C|452=36|448=DCV|447=C|452=10|55=TFIC13280425|762=RFQF|48=20626|22=M|6=79.431|14=500000000|31=79.431|32=500000000|38=500000000|39=2|20102=79.431|54=2|60=20190614-19:27:23.342|75=20190614|63=1|64=20190614|151=0|1623=4.000|381=397158000.000|880=201906140000000112|828=99|10=140|
8=FIX.4.4|9=59|35=0|34=3|49=002|50=002B35|52=20190614-19:27:34.842|56=EXC|10=060|
8=FIX.4.4|9=105|35=A|34=1|49=002|50=002B35|52=20190614-19:36:19.783|56=EXC|98=0|108=30|141=Y|553=002FCM001|554=002FCM001|10=105|
8=FIX.4.4|9=0067|35=A|34=1|49=EXC|56=002|52=20190614-19:36:19.952|98=0|108=30|141=Y|10=022|
8=FIX.4.4|9=0225|35=R|34=2|49=EXC|56=002|57=002B35|52=20190614-19:36:27.226|131=20190614-000000000020.00|146=1|55=TFIC13280425|762=RFQF|48=20626|22=M|54=1|38=500000000|453=3|448=001B27|447=C|452=12|448=001|447=C|452=1|448=002B35|447=C|452=37|10=009|
8=FIX.4.4|9=207|35=S|34=2|49=002|50=002B35|52=20190614-19:36:43.502|56=EXC|55=TFIC13280425|62=20190617-22:00:00.000|117=201906141436171_S|131=20190614-000000000020.00|135=500000000|634=4|762=RFQF|453=1|448=DCV|447=C|452=10|10=097|
8=FIX.4.4|9=0302|35=AI|34=3|49=EXC|56=002|57=002B35|52=20190614-19:36:43.647|131=20190614-000000000020.00|117=201906141436171_S|453=4|448=DCV|447=C|452=10|448=001B27|447=C|452=12|448=001|447=C|452=1|448=002B35|447=C|452=37|55=TFIC13280425|762=RFQF|48=20626|22=M|54=1|634=4.000|135=500000000|62=20190617-22:00:00|297=16|10=029|
8=FIX.4.4|9=0516|35=8|34=4|49=EXC|56=002|57=002B35|52=20190614-19:37:02.368|11=201906141436171_S|17=11|37=0|150=F|1080=20190614-000000000020.00|1081=6|453=6|448=002B35|447=C|452=12|448=002|447=C|452=1|448=001B27|447=C|452=37|448=001|447=C|452=17|448=002FCM001|447=C|452=36|448=DCV|447=C|452=10|55=TFIC13280425|762=RFQF|48=20626|22=M|6=79.431|14=500000000|31=79.431|32=500000000|38=500000000|39=2|20102=79.431|54=2|60=20190614-19:37:02.368|75=20190614|63=1|64=20190614|151=0|1623=4.000|381=397158000.000|880=201906140000000116|828=99|10=147|
8=FIX.4.4|9=59|35=0|34=3|49=002|50=002B35|52=20190614-19:37:13.706|56=EXC|10=057|
8=FIX.4.4|9=126|35=j|34=4|49=002|50=002B35|52=20190614-19:37:17.285|56=EXC|45=4|58=Conditionally Required Field Missing, field=56|372=8|380=5|10=251|
8=FIX.4.4|9=0109|35=j|34=5|49=EXC|56=002|57=002B35|52=20190614-19:37:17.437|45=4|372=j|380=3|58=(1468): MsgType(#35) invalido|10=076|
8=FIX.4.4|9=105|35=A|34=1|49=002|50=002B35|52=20190614-19:37:48.382|56=EXC|98=0|108=30|141=Y|553=002FCM001|554=002FCM001|10=103|
8=FIX.4.4|9=0067|35=A|34=1|49=EXC|56=002|52=20190614-19:37:48.571|98=0|108=30|141=Y|10=022|
8=FIX.4.4|9=0225|35=R|34=2|49=EXC|56=002|57=002B35|52=20190614-19:37:55.838|131=20190614-000000000021.00|146=1|55=TFIC13280425|762=RFQF|48=20626|22=M|54=1|38=500000000|453=3|448=001B27|447=C|452=12|448=001|447=C|452=1|448=002B35|447=C|452=37|10=021|
8=FIX.4.4|9=207|35=S|34=2|49=002|50=002B35|52=20190614-19:38:11.545|56=EXC|55=TFIC13280425|62=20190617-22:00:00.000|117=201906141437451_S|131=20190614-000000000021.00|135=500000000|634=4|762=RFQF|453=1|448=DCV|447=C|452=10|10=104|
8=FIX.4.4|9=0302|35=AI|34=3|49=EXC|56=002|57=002B35|52=20190614-19:38:11.708|131=20190614-000000000021.00|117=201906141437451_S|453=4|448=DCV|447=C|452=10|448=001B27|447=C|452=12|448=001|447=C|452=1|448=002B35|447=C|452=37|55=TFIC13280425|762=RFQF|48=20626|22=M|54=1|634=4.000|135=500000000|62=20190617-22:00:00|297=16|10=027|
8=FIX.4.4|9=0516|35=8|34=4|49=EXC|56=002|57=002B35|52=20190614-19:38:30.502|11=201906141437451_S|17=12|37=0|150=F|1080=20190614-000000000021.00|1081=6|453=6|448=002B35|447=C|452=12|448=002|447=C|452=1|448=001B27|447=C|452=37|448=001|447=C|452=17|448=002FCM001|447=C|452=36|448=DCV|447=C|452=10|55=TFIC13280425|762=RFQF|48=20626|22=M|6=79.431|14=500000000|31=79.431|32=500000000|38=500000000|39=2|20102=79.431|54=2|60=20190614-19:38:30.502|75=20190614|63=1|64=20190614|151=0|1623=4.000|381=397158000.000|880=201906140000000117|828=99|10=136|
8=FIX.4.4|9=59|35=0|34=3|49=002|50=002B35|52=20190614-19:38:42.290|56=EXC|10=058|
8=FIX.4.4|9=126|35=j|34=4|49=002|50=002B35|52=20190614-19:38:45.393|56=EXC|45=4|58=Conditionally Required Field Missing, field=56|372=8|380=5|10=253|
8=FIX.4.4|9=0109|35=j|34=5|49=EXC|56=002|57=002B35|52=20190614-19:38:45.564|45=4|372=j|380=3|58=(1468): MsgType(#35) invalido|10=079|
8=FIX.4.4|9=105|35=A|34=1|49=002|50=002B35|52=20190614-19:40:02.534|56=EXC|98=0|108=30|141=Y|553=002FCM001|554=002FCM001|10=086|
8=FIX.4.4|9=0067|35=A|34=1|49=EXC|56=002|52=20190614-19:40:02.752|98=0|108=30|141=Y|10=007|
8=FIX.4.4|9=0225|35=R|34=2|49=EXC|56=002|57=002B35|52=20190614-19:40:10.004|131=20190614-000000000022.00|146=1|55=TFIC13280425|762=RFQF|48=20626|22=M|54=1|38=500000000|453=3|448=001B27|447=C|452=12|448=001|447=C|452=1|448=002B35|447=C|452=37|10=248|
8=FIX.4.4|9=207|35=S|34=2|49=002|50=002B35|52=20190614-19:40:26.271|56=EXC|55=TFIC13280425|62=20190617-22:00:00.000|117=201906141440001_S|131=20190614-000000000022.00|135=500000000|634=4|762=RFQF|453=1|448=DCV|447=C|452=10|10=085|
8=FIX.4.4|9=0302|35=AI|34=3|49=EXC|56=002|57=002B35|52=20190614-19:40:26.462|131=20190614-000000000022.00|117=201906141440001_S|453=4|448=DCV|447=C|452=10|448=001B27|447=C|452=12|448=001|447=C|452=1|448=002B35|447=C|452=37|55=TFIC13280425|762=RFQF|48=20626|22=M|54=1|634=4.000|135=500000000|62=20190617-22:00:00|297=16|10=009|
8=FIX.4.4|9=0516|35=8|34=4|49=EXC|56=002|57=002B35|52=20190614-19:40:45.178|11=201906141440001_S|17=13|37=0|150=F|1080=20190614-000000000022.00|1081=6|453=6|448=002B35|447=C|452=12|448=002|447=C|452=1|448=001B27|447=C|452=37|448=001|447=C|452=17|448=002FCM001|447=C|452=36|448=DCV|447=C|452=10|55=TFIC13280425|762=RFQF|48=20626|22=M|6=79.431|14=500000000|31=79.431|32=500000000|38=500000000|39=2|20102=79.431|54=2|60=20190614-19:40:45.178|75=20190614|63=1|64=20190614|151=0|1623=4.000|381=397158000.000|880=201906140000000118|828=99|10=140|
8=FIX.4.4|9=59|35=0|34=3|49=002|50=002B35|52=20190614-19:40:56.514|56=EXC|10=055|
8=FIX.4.4|9=126|35=j|34=4|49=002|50=002B35|52=20190614-19:41:00.164|56=EXC|45=4|58=Conditionally Required Field Missing, field=56|372=8|380=5|10=234|
8=FIX.4.4|9=0109|35=j|34=5|49=EXC|56=002|57=002B35|52=20190614-19:41:00.362|45=4|372=j|380=3|58=(1468): MsgType(#35) invalido|10=060|
8=FIX.4.4|9=105|35=A|34=1|49=002|50=002B35|52=20190614-19:44:43.531|56=EXC|98=0|108=30|141=Y|553=002FCM001|554=002FCM001|10=092|
8=FIX.4.4|9=0067|35=A|34=1|49=EXC|56=002|52=20190614-19:44:43.806|98=0|108=30|141=Y|10=016|
8=FIX.4.4|9=0225|35=R|34=2|49=EXC|56=002|57=002B35|52=20190614-19:44:51.110|131=20190614-000000000023.00|146=1|55=TFIC13280425|762=RFQF|48=20626|22=M|54=1|38=500000000|453=3|448=001B27|447=C|452=12|448=001|447=C|452=1|448=002B35|447=C|452=37|10=000|
8=FIX.4.4|9=207|35=S|34=2|49=002|50=002B35|52=20190614-19:45:07.154|56=EXC|55=TFIC13280425|62=20190617-22:00:00.000|117=201906141444411_S|131=20190614-000000000023.00|135=500000000|634=4|762=RFQF|453=1|448=DCV|447=C|452=10|10=099|
8=FIX.4.4|9=0302|35=AI|34=3|49=EXC|56=002|57=002B35|52=20190614-19:45:07.405|131=20190614-000000000023.00|117=201906141444411_S|453=4|448=DCV|447=C|452=10|448=001B27|447=C|452=12|448=001|447=C|452=1|448=002B35|447=C|452=37|55=TFIC13280425|762=RFQF|48=20626|22=M|54=1|634=4.000|135=500000000|62=20190617-22:00:00|297=16|10=020|
8=FIX.4.4|9=0516|35=8|34=4|49=EXC|56=002|57=002B35|52=20190614-19:45:26.260|11=201906141444411_S|17=14|37=0|150=F|1080=20190614-000000000023.00|1081=6|453=6|448=002B35|447=C|452=12|448=002|447=C|452=1|448=001B27|447=C|452=37|448=001|447=C|452=17|448=002FCM001|447=C|452=36|448=DCV|447=C|452=10|55=TFIC13280425|762=RFQF|48=20626|22=M|6=79.431|14=500000000|31=79.431|32=500000000|38=500000000|39=2|20102=79.431|54=2|60=20190614-19:45:26.260|75=20190614|63=1|64=20190614|151=0|1623=4.000|381=397158000.000|880=201906140000000119|828=99|10=144|
8=FIX.4.4|9=59|35=0|34=3|49=002|50=002B35|52=20190614-19:45:37.453|56=EXC|10=061|
8=FIX.4.4|9=105|35=A|34=1|49=002|50=002B35|52=20190614-19:46:56.436|56=EXC|98=0|108=30|141=Y|553=002FCM001|554=002FCM001|10=102|
8=FIX.4.4|9=0067|35=A|34=1|49=EXC|56=002|52=20190614-19:46:56.738|98=0|108=30|141=Y|10=026|
8=FIX.4.4|9=0225|35=R|34=2|49=EXC|56=002|57=002B35|52=20190614-19:47:03.986|131=20190614-000000000024.00|146=1|55=TFIC13280425|762=RFQF|48=20626|22=M|54=1|38=500000000|453=3|448=001B27|447=C|452=12|448=001|447=C|452=1|448=002B35|447=C|452=37|10=022|
8=FIX.4.4|9=207|35=S|34=2|49=002|50=002B35|52=20190614-19:47:19.955|56=EXC|55=TFIC13280425|62=20190617-22:00:00.000|117=201906141446531_S|131=20190614-000000000024.00|135=500000000|634=4|762=RFQF|453=1|448=DCV|447=C|452=10|10=119|
8=FIX.4.4|9=0302|35=AI|34=3|49=EXC|56=002|57=002B35|52=20190614-19:47:20.235|131=20190614-000000000024.00|117=201906141446531_S|453=4|448=DCV|447=C|452=10|448=001B27|447=C|452=12|448=001|447=C|452=1|448=002B35|447=C|452=37|55=TFIC13280425|762=RFQF|48=20626|22=M|54=1|634=4.000|135=500000000|62=20190617-22:00:00|297=16|10=024|
8=FIX.4.4|9=0516|35=8|34=4|49=EXC|56=002|57=002B35|52=20190614-19:47:39.178|11=201906141446531_S|17=15|37=0|150=F|1080=20190614-000000000024.00|1081=6|453=6|448=002B35|447=C|452=12|448=002|447=C|452=1|448=001B27|447=C|452=37|448=001|447=C|452=17|448=002FCM001|447=C|452=36|448=DCV|447=C|452=10|55=TFIC13280425|762=RFQF|48=20626|22=M|6=79.431|14=500000000|31=79.431|32=500000000|38=500000000|39=2|20102=79.431|54=2|60=20190614-19:47:39.178|75=20190614|63=1|64=20190614|151=0|1623=4.000|381=397158000.000|880=201906140000000120|828=99|10=171|
8=FIX.4.4|9=59|35=0|34=3|49=002|50=002B35|52=20190614-19:47:50.422|56=EXC|10=054|
8=FIX.4.4|9=126|35=j|34=4|49=002|50=002B35|52=20190614-19:47:54.108|56=EXC|45=4|58=Conditionally Required Field Missing, field=56|372=8|380=5|10=247|
8=FIX.4.4|9=0109|35=j|34=5|49=EXC|56=002|57=002B35|52=20190614-19:47:54.396|45=4|372=j|380=3|58=(1468): MsgType(#35) invalido|10=082|
8=FIX.4.4|9=105|35=A|34=1|49=002|50=002B35|52=20190614-19:49:02.241|56=EXC|98=0|108=30|141=Y|553=002FCM001|554=002FCM001|10=090|
8=FIX.4.4|9=0067|35=A|34=1|49=EXC|56=002|52=20190614-19:49:02.571|98=0|108=30|141=Y|10=015|
8=FIX.4.4|9=0225|35=R|34=2|49=EXC|56=002|57=002B35|52=20190614-19:49:09.864|131=20190614-000000000025.00|146=1|55=TFIC13280425|762=RFQF|48=20626|22=M|54=1|38=500000000|453=3|448=001B27|447=C|452=12|448=001|447=C|452=1|448=002B35|447=C|452=37|10=026|
8=FIX.4.4|9=207|35=S|34=2|49=002|50=002B35|52=20190614-19:49:25.944|56=EXC|55=TFIC13280425|62=20190617-22:00:00.000|117=201906141448591_S|131=20190614-000000000025.00|135=500000000|634=4|762=RFQF|453=1|448=DCV|447=C|452=10|10=125|
8=FIX.4.4|9=0302|35=AI|34=3|49=EXC|56=002|57=002B35|52=20190614-19:49:26.253|131=20190614-000000000025.00|117=201906141448591_S|453=4|448=DCV|447=C|452=10|448=001B27|447=C|452=12|448=001|447=C|452=1|448=002B35|447=C|452=37|55=TFIC13280425|762=RFQF|48=20626|22=M|54=1|634=4.000|135=500000000|62=20190617-22:00:00|297=16|10=041|
8=FIX.4.4|9=0516|35=8|34=4|49=EXC|56=002|57=002B35|52=20190614-19:49:45.136|11=201906141448591_S|17=16|37=0|150=F|1080=20190614-000000000025.00|1081=6|453=6|448=002B35|447=C|452=12|448=002|447=C|452=1|448=001B27|447=C|452=37|448=001|447=C|452=17|448=002FCM001|447=C|452=36|448=DCV|447=C|452=10|55=TFIC13280425|762=RFQF|48=20626|22=M|6=79.431|14=500000000|31=79.431|32=500000000|38=500000000|39=2|20102=79.431|54=2|60=20190614-19:49:45.136|75=20190614|63=1|64=20190614|151=0|1623=4.000|381=397158000.000|880=201906140000000121|828=99|10=168|
8=FIX.4.4|9=59|35=0|34=3|49=002|50=002B35|52=20190614-19:49:56.233|56=EXC|10=062|
8=FIX.4.4|9=105|35=A|34=1|49=002|50=002B35|52=20190614-19:51:28.181|56=EXC|98=0|108=30|141=Y|553=002FCM001|554=002FCM001|10=094|
8=FIX.4.4|9=0067|35=A|34=1|49=EXC|56=002|52=20190614-19:51:28.543|98=0|108=30|141=Y|10=015|
8=FIX.4.4|9=0225|35=R|34=2|49=EXC|56=002|57=002B35|52=20190614-19:51:35.767|131=20190614-000000000026.00|146=1|55=TFIC13280425|762=RFQF|48=20626|22=M|54=1|38=500000000|453=3|448=001B27|447=C|452=12|448=001|447=C|452=1|448=002B35|447=C|452=37|10=021|
8=FIX.4.4|9=207|35=S|34=2|49=002|50=002B35|52=20190614-19:51:52.221|56=EXC|55=TFIC13280425|62=20190617-22:00:00.000|117=201906141451251_S|131=20190614-000000000026.00|135=500000000|634=4|762=RFQF|453=1|448=DCV|447=C|452=10|10=094|
8=FIX.4.4|9=0302|35=AI|34=3|49=EXC|56=002|57=002B35|52=20190614-19:51:52.562|131=20190614-000000000026.00|117=201906141451251_S|453=4|448=DCV|447=C|452=10|448=001B27|447=C|452=12|448=001|447=C|452=1|448=002B35|447=C|452=37|55=TFIC13280425|762=RFQF|48=20626|22=M|54=1|634=4.000|135=500000000|62=20190617-22:00:00|297=16|10=024|
8=FIX.4.4|9=0516|35=8|34=4|49=EXC|56=002|57=002B35|52=20190614-19:52:11.409|11=201906141451251_S|17=17|37=0|150=F|1080=20190614-000000000026.00|1081=6|453=6|448=002B35|447=C|452=12|448=002|447=C|452=1|448=001B27|447=C|452=37|448=001|447=C|452=17|448=002FCM001|447=C|452=36|448=DCV|447=C|452=10|55=TFIC13280425|762=RFQF|48=20626|22=M|6=79.431|14=500000000|31=79.431|32=500000000|38=500000000|39=2|20102=79.431|54=2|60=20190614-19:52:11.409|75=20190614|63=1|64=20190614|151=0|1623=4.000|381=397158000.000|880=201906140000000122|828=99|10=138|
8=FIX.4.4|9=59|35=0|34=3|49=002|50=002B35|52=20190614-19:52:23.163|56=EXC|10=052|
8=FIX.4.4|9=105|35=A|34=1|49=002|50=002B35|52=20190614-19:54:33.486|56=EXC|98=0|108=30|141=Y|553=002FCM001|554=002FCM001|10=101|
8=FIX.4.4|9=0067|35=A|34=1|49=EXC|56=002|52=20190614-19:54:33.890|98=0|108=30|141=Y|10=019|
8=FIX.4.4|9=0225|35=R|34=2|49=EXC|56=002|57=002B35|52=20190614-19:54:41.113|131=20190614-000000000027.00|146=1|55=TFIC13280425|762=RFQF|48=20626|22=M|54=1|38=500000000|453=3|448=001B27|447=C|452=12|448=001|447=C|452=1|448=002B35|447=C|452=37|10=007|
8=FIX.4.4|9=207|35=S|34=2|49=002|50=002B35|52=20190614-19:54:57.104|56=EXC|55=TFIC13280425|62=20190617-22:00:00.000|117=201906141454311_S|131=20190614-000000000027.00|135=500000000|634=4|762=RFQF|453=1|448=DCV|447=C|452=10|10=103|
8=FIX.4.4|9=0302|35=AI|34=3|49=EXC|56=002|57=002B35|52=20190614-19:54:57.486|131=20190614-000000000027.00|117=201906141454311_S|453=4|448=DCV|447=C|452=10|448=001B27|447=C|452=12|448=001|447=C|452=1|448=002B35|447=C|452=37|55=TFIC13280425|762=RFQF|48=20626|22=M|54=1|634=4.000|135=500000000|62=20190617-22:00:00|297=16|10=038|
8=FIX.4.4|9=0516|35=8|34=4|49=EXC|56=002|57=002B35|52=20190614-19:55:16.324|11=201906141454311_S|17=18|37=0|150=F|1080=20190614-000000000027.00|1081=6|453=6|448=002B35|447=C|452=12|448=002|447=C|452=1|448=001B27|447=C|452=37|448=001|447=C|452=17|448=002FCM001|447=C|452=36|448=DCV|447=C|452=10|55=TFIC13280425|762=RFQF|48=20626|22=M|6=79.431|14=500000000|31=79.431|32=500000000|38=500000000|39=2|20102=79.431|54=2|60=20190614-19:55:16.324|75=20190614|63=1|64=20190614|151=0|1623=4.000|381=397158000.000|880=201906140000000128|828=99|10=154|
8=FIX.4.4|9=59|35=0|34=3|49=002|50=002B35|52=20190614-19:55:27.477|56=EXC|10=067|
8=FIX.4.4|9=0225|35=R|34=5|49=EXC|56=002|57=002B35|52=20190614-19:55:37.859|131=20190614-000000000028.00|146=1|55=TFIT16280428|762=RFQF|48=20399|22=M|54=1|38=500000000|453=3|448=001B27|447=C|452=12|448=001|447=C|452=1|448=002B35|447=C|452=37|10=064|
8=FIX.4.4|9=105|35=A|34=1|49=002|50=002B35|52=20190614-20:01:11.418|56=EXC|98=0|108=30|141=Y|553=002FCM001|554=002FCM001|10=076|
8=FIX.4.4|9=0067|35=A|34=1|49=EXC|56=002|52=20190614-20:01:11.913|98=0|108=30|141=Y|10=251|
8=FIX.4.4|9=0225|35=R|34=2|49=EXC|56=002|57=002B35|52=20190614-20:01:19.210|131=20190614-000000000029.00|146=1|55=TFIC13280425|762=RFQF|48=20626|22=M|54=1|38=500000000|453=3|448=001B27|447=C|452=12|448=001|447=C|452=1|448=002B35|447=C|452=37|10=252|
8=FIX.4.4|9=207|35=S|34=2|49=002|50=002B35|52=20190614-20:01:35.233|56=EXC|55=TFIC13280425|62=20190617-22:00:00.000|117=201906141501091_S|131=20190614-000000000029.00|135=500000000|634=4|762=RFQF|453=1|448=DCV|447=C|452=10|10=086|
8=FIX.4.4|9=0302|35=AI|34=3|49=EXC|56=002|57=002B35|52=20190614-20:01:35.704|131=20190614-000000000029.00|117=201906141501091_S|453=4|448=DCV|447=C|452=10|448=001B27|447=C|452=12|448=001|447=C|452=1|448=002B35|447=C|452=37|55=TFIC13280425|762=RFQF|48=20626|22=M|54=1|634=4.000|135=500000000|62=20190617-22:00:00|297=16|10=011|
8=FIX.4.4|9=0516|35=8|34=4|49=EXC|56=002|57=002B35|52=20190614-20:01:54.541|11=201906141501091_S|17=19|37=0|150=F|1080=20190614-000000000029.00|1081=6|453=6|448=002B35|447=C|452=12|448=002|447=C|452=1|448=001B27|447=C|452=37|448=001|447=C|452=17|448=002FCM001|447=C|452=36|448=DCV|447=C|452=10|55=TFIC13280425|762=RFQF|48=20626|22=M|6=79.431|14=500000000|31=79.431|32=500000000|38=500000000|39=2|20102=79.431|54=2|60=20190614-20:01:54.541|75=20190614|63=1|64=20190614|151=0|1623=4.000|381=397158000.000|880=201906140000000136|828=99|10=126|
8=FIX.4.4|9=59|35=0|34=3|49=002|50=002B35|52=20190614-20:02:05.393|56=EXC|10=044|
8=FIX.4.4|9=105|35=A|34=1|49=002|50=002B35|52=20190614-20:07:39.991|56=EXC|98=0|108=30|141=Y|553=002FCM001|554=002FCM001|10=098|
8=FIX.4.4|9=0067|35=A|34=1|49=EXC|56=002|52=20190614-20:07:40.573|98=0|108=30|141=Y|10=005|
8=FIX.4.4|9=0225|35=R|34=2|49=EXC|56=002|57=002B35|52=20190614-20:07:47.801|131=20190614-000000000030.00|146=1|55=TFIC13280425|762=RFQF|48=20626|22=M|54=1|38=500000000|453=3|448=001B27|447=C|452=12|448=001|447=C|452=1|448=002B35|447=C|452=37|10=001|
8=FIX.4.4|9=207|35=S|34=2|49=002|50=002B35|52=20190614-20:08:03.489|56=EXC|55=TFIC13280425|62=20190617-22:00:00.000|117=201906141507371_S|131=20190614-000000000030.00|135=500000000|634=4|762=RFQF|453=1|448=DCV|447=C|452=10|10=100|
8=FIX.4.4|9=0302|35=AI|34=3|49=EXC|56=002|57=002B35|52=20190614-20:08:04.049|131=20190614-000000000030.00|117=201906141507371_S|453=4|448=DCV|447=C|452=10|448=001B27|447=C|452=12|448=001|447=C|452=1|448=002B35|447=C|452=37|55=TFIC13280425|762=RFQF|48=20626|22=M|54=1|634=4.000|135=500000000|62=20190617-22:00:00|297=16|10=015|
8=FIX.4.4|9=0516|35=8|34=4|49=EXC|56=002|57=002B35|52=20190614-20:08:22.853|11=201906141507371_S|17=20|37=0|150=F|1080=20190614-000000000030.00|1081=6|453=6|448=002B35|447=C|452=12|448=002|447=C|452=1|448=001B27|447=C|452=37|448=001|447=C|452=17|448=002FCM001|447=C|452=36|448=DCV|447=C|452=10|55=TFIC13280425|762=RFQF|48=20626|22=M|6=79.431|14=500000000|31=79.431|32=500000000|38=500000000|39=2|20102=79.431|54=2|60=20190614-20:08:22.853|75=20190614|63=1|64=20190614|151=0|1623=4.000|381=397158000.000|880=201906140000000139|828=99|10=136|
8=FIX.4.4|9=59|35=0|34=3|49=002|50=002B35|52=20190614-20:08:33.935|56=EXC|10=053|
8=FIX.4.4|9=0225|35=R|34=5|49=EXC|56=002|57=002B35|52=20190614-20:08:44.152|131=20190614-000000000031.00|146=1|55=TFIT16280428|762=RFQF|48=20399|22=M|54=1|38=500000000|453=3|448=001B27|447=C|452=12|448=001|447=C|452=1|448=002B35|447=C|452=37|10=032|
8=FIX.4.4|9=105|35=A|34=1|49=002|50=002B35|52=20190614-21:42:56.046|56=EXC|98=0|108=30|141=Y|553=002FCM001|554=002FCM001|10=088|
8=FIX.4.4|9=0067|35=A|34=1|49=EXC|56=002|52=20190614-21:42:56.269|98=0|108=30|141=Y|10=014|
8=FIX.4.4|9=0225|35=R|34=2|49=EXC|56=002|57=002B35|52=20190614-21:43:03.627|131=20190614-000000000032.00|146=1|55=TFIC13280425|762=RFQF|48=20626|22=M|54=1|38=500000000|453=3|448=001B27|447=C|452=12|448=001|447=C|452=1|448=002B35|447=C|452=37|10=002|
8=FIX.4.4|9=207|35=S|34=2|49=002|50=002B35|52=20190614-21:43:20.136|56=EXC|55=TFIC13280425|62=20190617-22:00:00.000|117=201906141642531_S|131=20190614-000000000032.00|135=500000000|634=4|762=RFQF|453=1|448=DCV|447=C|452=10|10=088|
8=FIX.4.4|9=0302|35=AI|34=3|49=EXC|56=002|57=002B35|52=20190614-21:43:20.338|131=20190614-000000000032.00|117=201906141642531_S|453=4|448=DCV|447=C|452=10|448=001B27|447=C|452=12|448=001|447=C|452=1|448=002B35|447=C|452=37|55=TFIC13280425|762=RFQF|48=20626|22=M|54=1|634=4.000|135=500000000|62=20190617-22:00:00|297=16|10=014|
8=FIX.4.4|9=0516|35=8|34=4|49=EXC|56=002|57=002B35|52=20190614-21:43:39.301|11=201906141642531_S|17=21|37=0|150=F|1080=20190614-000000000032.00|1081=6|453=6|448=002B35|447=C|452=12|448=002|447=C|452=1|448=001B27|447=C|452=37|448=001|447=C|452=17|448=002FCM001|447=C|452=36|448=DCV|447=C|452=10|55=TFIC13280425|762=RFQF|48=20626|22=M|6=79.431|14=500000000|31=79.431|32=500000000|38=500000000|39=2|20102=79.431|54=2|60=20190614-21:43:39.301|75=20190614|63=1|64=20190614|151=0|1623=4.000|381=397158000.000|880=201906140000000143|828=99|10=124|
8=FIX.4.4|9=59|35=0|34=3|49=002|50=002B35|52=20190614-21:43:51.006|56=EXC|10=042|
8=FIX.4.4|9=77|35=A|34=1|49=002|50=002B35|52=20190614-22:06:36.775|56=EXC|98=0|108=30|141=Y|10=143|
8=FIX.4.4|9=77|35=A|34=1|49=002|50=002B35|52=20190614-22:07:38.705|56=EXC|98=0|108=30|141=Y|10=139|
8=FIX.4.4|9=105|35=A|34=1|49=002|50=002B35|52=20190614-22:07:58.575|56=EXC|98=0|108=30|141=Y|553=002FCM001|554=002FCM001|10=099|
8=FIX.4.4|9=0067|35=A|34=1|49=EXC|56=002|52=20190614-22:07:58.670|98=0|108=30|141=Y|10=014|
8=FIX.4.4|9=0225|35=R|34=2|49=EXC|56=002|57=002B35|52=20190614-22:08:06.004|131=20190614-000000000033.00|146=1|55=TFIC13280425|762=RFQF|48=20626|22=M|54=1|38=500000000|453=3|448=001B27|447=C|452=12|448=001|447=C|452=1|448=002B35|447=C|452=37|10=253|
8=FIX.4.4|9=105|35=A|34=1|49=002|50=002B35|52=20190614-22:13:24.865|56=EXC|98=0|108=30|141=Y|553=002FCM001|554=002FCM001|10=091|
8=FIX.4.4|9=0067|35=A|34=1|49=EXC|56=002|52=20190614-22:13:24.938|98=0|108=30|141=Y|10=011|
8=FIX.4.4|9=105|35=A|34=1|49=002|50=002B35|52=20190614-22:16:34.142|56=EXC|98=0|108=30|141=Y|553=002FCM001|554=002FCM001|10=083|
8=FIX.4.4|9=0067|35=A|34=1|49=EXC|56=002|52=20190614-22:16:34.271|98=0|108=30|141=Y|10=005|
8=FIX.4.4|9=0225|35=R|34=2|49=EXC|56=002|57=002B35|52=20190614-22:16:41.808|131=20190614-000000000034.00|146=1|55=TFIC13280425|762=RFQF|48=20626|22=M|54=1|38=500000000|453=3|448=001B27|447=C|452=12|448=001|447=C|452=1|448=002B35|447=C|452=37|10=008|
8=FIX.4.4|9=105|35=A|34=1|49=002|50=002B35|52=20190617-18:59:39.809|56=EXC|98=0|108=30|141=Y|553=002FCM001|554=002FCM001|10=113|
8=FIX.4.4|9=0067|35=A|34=1|49=EXC|56=002|52=20190617-18:59:39.496|98=0|108=30|141=Y|10=034|
8=FIX.4.4|9=0225|35=R|34=2|49=EXC|56=002|57=002B35|52=20190617-18:59:46.916|131=20190617-000000000001.00|146=1|55=TFIC13280425|762=RFQF|48=20626|22=M|54=1|38=500000000|453=3|448=001B27|447=C|452=12|448=001|447=C|452=1|448=002B35|447=C|452=37|10=025|
8=FIX.4.4|9=207|35=S|34=2|49=002|50=002B35|52=20190617-19:00:03.108|56=EXC|55=TFIC13280425|62=20190617-22:00:00.000|117=201906171359361_S|131=20190617-000000000001.00|135=500000000|634=4|762=RFQF|453=1|448=DCV|447=C|452=10|10=099|
8=FIX.4.4|9=0302|35=AI|34=3|49=EXC|56=002|57=002B35|52=20190617-19:00:02.681|131=20190617-000000000001.00|117=201906171359361_S|453=4|448=DCV|447=C|452=10|448=001B27|447=C|452=12|448=001|447=C|452=1|448=002B35|447=C|452=37|55=TFIC13280425|762=RFQF|48=20626|22=M|54=1|634=4.000|135=500000000|62=20190617-22:00:00|297=16|10=026|
8=FIX.4.4|9=0515|35=8|34=4|49=EXC|56=002|57=002B35|52=20190617-19:00:21.826|11=201906171359361_S|17=1|37=0|150=F|1080=20190617-000000000001.00|1081=6|453=6|448=002B35|447=C|452=12|448=002|447=C|452=1|448=001B27|447=C|452=37|448=001|447=C|452=17|448=002FCM001|447=C|452=36|448=DCV|447=C|452=10|55=TFIC13280425|762=RFQF|48=20626|22=M|6=79.457|14=500000000|31=79.457|32=500000000|38=500000000|39=2|20102=79.457|54=2|60=20190617-19:00:21.826|75=20190617|63=1|64=20190617|151=0|1623=4.000|381=397286000.000|880=201906170000000007|828=99|10=127|
8=FIX.4.4|9=59|35=0|34=3|49=002|50=002B35|52=20190617-19:00:33.803|56=EXC|10=050|
8=FIX.4.4|9=0225|35=R|34=5|49=EXC|56=002|57=002B35|52=20190617-19:00:43.454|131=20190617-000000000002.00|146=1|55=TFIT16280428|762=RFQF|48=20399|22=M|54=1|38=500000000|453=3|448=001B27|447=C|452=12|448=001|447=C|452=1|448=002B35|447=C|452=37|10=040|
8=FIX.4.4|9=105|35=A|34=1|49=002|50=002B35|52=20190617-19:07:51.160|56=EXC|98=0|108=30|141=Y|553=002FCM001|554=002FCM001|10=091|
8=FIX.4.4|9=0067|35=A|34=1|49=EXC|56=002|52=20190617-19:07:50.545|98=0|108=30|141=Y|10=016|
8=FIX.4.4|9=0191|35=R|34=2|49=EXC|56=002|52=20190617-19:08:03.173|131=20190617-000000000003.00|146=1|55=TFIC13280425|762=RFQF|48=20626|22=M|54=1|38=500000000|453=2|448=001B27|447=C|452=12|448=001|447=C|452=1|10=168|
8=FIX.4.4|9=59|35=0|34=2|49=002|50=002B35|52=20190617-19:08:22.133|56=EXC|10=051|
8=FIX.4.4|9=180|35=S|34=3|49=002|50=002B35|52=20190617-19:08:33.267|56=EXC|55=TFIC13280425|62=20190617-22:00:00.000|117=201906171407481_S|131=20190617-000000000003.00|135=500000000|634=4|762=RFQF|10=084|
8=FIX.4.4|9=0195|35=AI|34=3|49=EXC|56=002|57=002B35|52=20190617-19:08:32.624|117=201906171407481_S|55=TFIC13280425|762=RFQF|135=500000000|62=20190617-22:00:00.000|297=9|300=99|58=(962): Deposito no fue ingresada|10=015|
8=FIX.4.4|9=105|35=A|34=1|49=002|50=002B35|52=20190617-19:10:01.962|56=EXC|98=0|108=30|141=Y|553=002FCM001|554=002FCM001|10=090|
8=FIX.4.4|9=0067|35=A|34=1|49=EXC|56=002|52=20190617-19:10:01.353|98=0|108=30|141=Y|10=003|
8=FIX.4.4|9=0225|35=R|34=2|49=EXC|56=002|57=002B35|52=20190617-19:10:08.578|131=20190617-000000000004.00|146=1|55=TFIC13280425|762=RFQF|48=20626|22=M|54=1|38=500000000|453=3|448=001B27|447=C|452=12|448=001|447=C|452=1|448=002B35|447=C|452=37|10=018|
8=FIX.4.4|9=207|35=S|34=2|49=002|50=002B35|52=20190617-19:10:25.262|56=EXC|55=TFIC13280425|62=20190617-22:00:00.000|117=201906171409591_S|131=20190617-000000000004.00|135=500000000|634=4|762=RFQF|453=1|448=DCV|447=C|452=10|10=109|
8=FIX.4.4|9=0302|35=AI|34=3|49=EXC|56=002|57=002B35|52=20190617-19:10:24.619|131=20190617-000000000004.00|117=201906171409591_S|453=4|448=DCV|447=C|452=10|448=001B27|447=C|452=12|448=001|447=C|452=1|448=002B35|447=C|452=37|55=TFIC13280425|762=RFQF|48=20626|22=M|54=1|634=4.000|135=500000000|62=20190617-22:00:00|297=16|10=036|
8=FIX.4.4|9=105|35=A|34=1|49=002|50=002B35|52=20190617-19:11:54.192|56=EXC|98=0|108=30|141=Y|553=002FCM001|554=002FCM001|10=094|
8=FIX.4.4|9=0067|35=A|34=1|49=EXC|56=002|52=20190617-19:11:53.584|98=0|108=30|141=Y|10=017|
8=FIX.4.4|9=0225|35=R|34=2|49=EXC|56=002|57=002B35|52=20190617-19:12:00.964|131=20190617-000000000006.00|146=1|55=TFIC13280425|762=RFQF|48=20626|22=M|54=1|38=500000000|453=3|448=001B27|447=C|452=12|448=001|447=C|452=1|448=002B35|447=C|452=37|10=013|
8=FIX.4.4|9=207|35=S|34=2|49=002|50=002B35|52=20190617-19:12:17.508|56=EXC|55=TFIC13280425|62=20190617-22:00:00.000|117=201906171411511_S|131=20190617-000000000006.00|135=500000000|634=4|762=RFQF|453=1|448=DCV|447=C|452=10|10=102|
8=FIX.4.4|9=0302|35=AI|34=3|49=EXC|56=002|57=002B35|52=20190617-19:12:17.344|131=20190617-000000000006.00|117=201906171411511_S|453=4|448=DCV|447=C|452=10|448=001B27|447=C|452=12|448=001|447=C|452=1|448=002B35|447=C|452=37|55=TFIC13280425|762=RFQF|48=20626|22=M|54=1|634=4.000|135=500000000|62=20190617-22:00:00|297=16|10=022|
8=FIX.4.4|9=105|35=A|34=1|49=002|50=002B35|52=20190617-19:15:24.961|56=EXC|98=0|108=30|141=Y|553=002FCM001|554=002FCM001|10=099|
8=FIX.4.4|9=0067|35=A|34=1|49=EXC|56=002|52=20190617-19:15:24.554|98=0|108=30|141=Y|10=016|
8=FIX.4.4|9=0225|35=R|34=2|49=EXC|56=002|57=002B35|52=20190617-19:15:31.823|131=20190617-000000000008.00|146=1|55=TFIC13280425|762=RFQF|48=20626|22=M|54=1|38=500000000|453=3|448=001B27|447=C|452=12|448=001|447=C|452=1|448=002B35|447=C|452=37|10=016|
8=FIX.4.4|9=207|35=S|34=2|49=002|50=002B35|52=20190617-19:15:48.122|56=EXC|55=TFIC13280425|62=20190617-22:00:00.000|117=201906171415221_S|131=20190617-000000000008.00|135=500000000|634=4|762=RFQF|453=1|448=DCV|447=C|452=10|10=105|
8=FIX.4.4|9=0302|35=AI|34=3|49=EXC|56=002|57=002B35|52=20190617-19:15:47.678|131=20190617-000000000008.00|117=201906171415221_S|453=4|448=DCV|447=C|452=10|448=001B27|447=C|452=12|448=001|447=C|452=1|448=002B35|447=C|452=37|55=TFIC13280425|762=RFQF|48=20626|22=M|54=1|634=4.000|135=500000000|62=20190617-22:00:00|297=16|10=042|
8=FIX.4.4|9=0515|35=8|34=4|49=EXC|56=002|57=002B35|52=20190617-19:16:06.507|11=201906171415221_S|17=2|37=0|150=F|1080=20190617-000000000008.00|1081=6|453=6|448=002B35|447=C|452=12|448=002|447=C|452=1|448=001B27|447=C|452=37|448=001|447=C|452=17|448=002FCM001|447=C|452=36|448=DCV|447=C|452=10|55=TFIC13280425|762=RFQF|48=20626|22=M|6=79.457|14=500000000|31=79.457|32=500000000|38=500000000|39=2|20102=79.457|54=2|60=20190617-19:16:06.507|75=20190617|63=1|64=20190617|151=0|1623=4.000|381=397286000.000|880=201906170000000008|828=99|10=136|
8=FIX.4.4|9=59|35=0|34=3|49=002|50=002B35|52=20190617-19:16:18.864|56=EXC|10=067|
8=FIX.4.4|9=105|35=A|34=1|49=002|50=002B35|52=20190617-19:20:20.239|56=EXC|98=0|108=30|141=Y|553=002FCM001|554=002FCM001|10=089|
8=FIX.4.4|9=0067|35=A|34=1|49=EXC|56=002|52=20190617-19:20:19.818|98=0|108=30|141=Y|10=019|
8=FIX.4.4|9=0225|35=R|34=2|49=EXC|56=002|57=002B35|52=20190617-19:20:27.076|131=20190617-000000000009.00|146=1|55=TFIC13280425|762=RFQF|48=20626|22=M|54=1|38=500000000|453=3|448=001B27|447=C|452=12|448=001|447=C|452=1|448=002B35|447=C|452=37|10=018|
8=FIX.4.4|9=207|35=S|34=2|49=002|50=002B35|52=20190617-19:20:43.338|56=EXC|55=TFIC13280425|62=20190617-22:00:00.000|117=201906171420171_S|131=20190617-000000000009.00|135=500000000|634=4|762=RFQF|453=1|448=DCV|447=C|452=10|10=106|
8=FIX.4.4|9=0302|35=AI|34=3|49=EXC|56=002|57=002B35|52=20190617-19:20:42.890|131=20190617-000000000009.00|117=201906171420171_S|453=4|448=DCV|447=C|452=10|448=001B27|447=C|452=12|448=001|447=C|452=1|448=002B35|447=C|452=37|55=TFIC13280425|762=RFQF|48=20626|22=M|54=1|634=4.000|135=500000000|62=20190617-22:00:00|297=16|10=030|
8=FIX.4.4|9=0515|35=8|34=4|49=EXC|56=002|57=002B35|52=20190617-19:21:01.600|11=201906171420171_S|17=3|37=0|150=F|1080=20190617-000000000009.00|1081=6|453=6|448=002B35|447=C|452=12|448=002|447=C|452=1|448=001B27|447=C|452=37|448=001|447=C|452=17|448=002FCM001|447=C|452=36|448=DCV|447=C|452=10|55=TFIC13280425|762=RFQF|48=20626|22=M|6=79.457|14=500000000|31=79.457|32=500000000|38=500000000|39=2|20102=79.457|54=2|60=20190617-19:21:01.600|75=20190617|63=1|64=20190617|151=0|1623=4.000|381=397286000.000|880=201906170000000009|828=99|10=109|
8=FIX.4.4|9=59|35=0|34=3|49=002|50=002B35|52=20190617-19:21:14.183|56=EXC|10=053|
8=FIX.4.4|9=0225|35=R|34=5|49=EXC|56=002|57=002B35|52=20190617-19:21:23.810|131=20190617-000000000010.00|146=1|55=TFIT16280428|762=RFQF|48=20399|22=M|54=1|38=500000000|453=3|448=001B27|447=C|452=12|448=001|447=C|452=1|448=002B35|447=C|452=37|10=036|
8=FIX.4.4|9=105|35=A|34=1|49=002|50=002B35|52=20190617-19:23:57.079|56=EXC|98=0|108=30|141=Y|553=002FCM001|554=002FCM001|10=104|
8=FIX.4.4|9=0067|35=A|34=1|49=EXC|56=002|52=20190617-19:23:56.653|98=0|108=30|141=Y|10=020|
8=FIX.4.4|9=0225|35=R|34=2|49=EXC|56=002|57=002B35|52=20190617-19:24:03.956|131=20190617-000000000011.00|146=1|55=TFIC13280425|762=RFQF|48=20626|22=M|54=1|38=500000000|453=3|448=001B27|447=C|452=12|448=001|447=C|452=1|448=002B35|447=C|452=37|10=016|
8=FIX.4.4|9=207|35=S|34=2|49=002|50=002B35|52=20190617-19:24:20.298|56=EXC|55=TFIC13280425|62=20190617-22:00:00.000|117=201906171423541_S|131=20190617-000000000011.00|135=500000000|634=4|762=RFQF|453=1|448=DCV|447=C|452=10|10=107|
8=FIX.4.4|9=0302|35=AI|34=3|49=EXC|56=002|57=002B35|52=20190617-19:24:19.847|131=20190617-000000000011.00|117=201906171423541_S|453=4|448=DCV|447=C|452=10|448=001B27|447=C|452=12|448=001|447=C|452=1|448=002B35|447=C|452=37|55=TFIC13280425|762=RFQF|48=20626|22=M|54=1|634=4.000|135=500000000|62=20190617-22:00:00|297=16|10=037|
8=FIX.4.4|9=105|35=A|34=1|49=002|50=002B35|52=20190617-19:24:56.099|56=EXC|98=0|108=30|141=Y|553=002FCM001|554=002FCM001|10=106|
8=FIX.4.4|9=0067|35=A|34=1|49=EXC|56=002|52=20190617-19:24:55.677|98=0|108=30|141=Y|10=026|
8=FIX.4.4|9=0225|35=R|34=2|49=EXC|56=002|57=002B35|52=20190617-19:25:02.887|131=20190617-000000000013.00|146=1|55=TFIC13280425|762=RFQF|48=20626|22=M|54=1|38=500000000|453=3|448=001B27|447=C|452=12|448=001|447=C|452=1|448=002B35|447=C|452=37|10=021|
8=FIX.4.4|9=105|35=A|34=1|49=002|50=002B35|52=20190617-19:25:49.482|56=EXC|98=0|108=30|141=Y|553=002FCM001|554=002FCM001|10=105|
8=FIX.4.4|9=0067|35=A|34=1|49=EXC|56=002|52=20190617-19:25:49.055|98=0|108=30|141=Y|10=020|
8=FIX.4.4|9=0225|35=R|34=2|49=EXC|56=002|57=002B35|52=20190617-19:25:56.358|131=20190617-000000000014.00|146=1|55=TFIC13280425|762=RFQF|48=20626|22=M|54=1|38=500000000|453=3|448=001B27|447=C|452=12|448=001|447=C|452=1|448=002B35|447=C|452=37|10=024|
8=FIX.4.4|9=207|35=S|34=2|49=002|50=002B35|52=20190617-19:26:12.609|56=EXC|55=TFIC13280425|62=20190617-22:00:00.000|117=201906171425471_S|131=20190617-000000000014.00|135=500000000|634=4|762=RFQF|453=1|448=DCV|447=C|452=10|10=113|
8=FIX.4.4|9=0302|35=AI|34=3|49=EXC|56=002|57=002B35|52=20190617-19:26:12.157|131=20190617-000000000014.00|117=201906171425471_S|453=4|448=DCV|447=C|452=10|448=001B27|447=C|452=12|448=001|447=C|452=1|448=002B35|447=C|452=37|55=TFIC13280425|762=RFQF|48=20626|22=M|54=1|634=4.000|135=500000000|62=20190617-22:00:00|297=16|10=033|
8=FIX.4.4|9=0515|35=8|34=4|49=EXC|56=002|57=002B35|52=20190617-19:26:30.930|11=201906171425471_S|17=4|37=0|150=F|1080=20190617-000000000014.00|1081=6|453=6|448=002B35|447=C|452=12|448=002|447=C|452=1|448=001B27|447=C|452=37|448=001|447=C|452=17|448=002FCM001|447=C|452=36|448=DCV|447=C|452=10|55=TFIC13280425|762=RFQF|48=20626|22=M|6=79.457|14=500000000|31=79.457|32=500000000|38=500000000|39=2|20102=79.457|54=2|60=20190617-19:26:30.930|75=20190617|63=1|64=20190617|151=0|1623=4.000|381=397286000.000|880=201906170000000010|828=99|10=132|
8=FIX.4.4|9=59|35=0|34=3|49=002|50=002B35|52=20190617-19:26:43.474|56=EXC|10=063|
8=FIX.4.4|9=0225|35=R|34=5|49=EXC|56=002|57=002B35|52=20190617-19:26:53.267|131=20190617-000000000015.00|146=1|55=TFIT16280428|762=RFQF|48=20399|22=M|54=1|38=500000000|453=3|448=001B27|447=C|452=12|448=001|447=C|452=1|448=002B35|447=C|452=37|10=055|
8=FIX.4.4|9=105|35=A|34=1|49=002|50=002B35|52=20190617-19:33:42.807|56=EXC|98=0|108=30|141=Y|553=002FCM001|554=002FCM001|10=098|
8=FIX.4.4|9=0067|35=A|34=1|49=EXC|56=002|52=20190617-19:33:42.661|98=0|108=30|141=Y|10=015|
8=FIX.4.4|9=0049|35=0|34=2|49=EXC|56=002|52=20190617-19:34:12.000|10=170|
8=FIX.4.4|9=59|35=0|34=2|49=002|50=002B35|52=20190617-19:34:12.798|56=EXC|10=066|
8=FIX.4.4|9=105|35=A|34=1|49=002|50=002B35|52=20190617-19:34:43.818|56=EXC|98=0|108=30|141=Y|553=002FCM001|554=002FCM001|10=102|
8=FIX.4.4|9=0067|35=A|34=1|49=EXC|56=002|52=20190617-19:34:43.671|98=0|108=30|141=Y|10=018|
8=FIX.4.4|9=105|35=A|34=1|49=002|50=002B35|52=20190617-19:38:30.474|56=EXC|98=0|108=30|141=Y|553=002FCM001|554=002FCM001|10=100|
8=FIX.4.4|9=0067|35=A|34=1|49=EXC|56=002|52=20190617-19:38:30.323|98=0|108=30|141=Y|10=012|
8=FIX.4.4|9=105|35=A|34=1|49=002|50=002B35|52=20190617-19:39:07.712|56=EXC|98=0|108=30|141=Y|553=002FCM001|554=002FCM001|10=100|
8=FIX.4.4|9=0067|35=A|34=1|49=EXC|56=002|52=20190617-19:39:07.561|98=0|108=30|141=Y|10=021|
8=FIX.4.4|9=0225|35=R|34=2|49=EXC|56=002|57=002B35|52=20190617-19:39:14.810|131=20190617-000000000018.00|146=1|55=TFIC13280425|762=RFQF|48=20626|22=M|54=1|38=500000000|453=3|448=001B27|447=C|452=12|448=001|447=C|452=1|448=002B35|447=C|452=37|10=020|
8=FIX.4.4|9=207|35=S|34=2|49=002|50=002B35|52=20190617-19:39:30.984|56=EXC|55=TFIC13280425|62=20190617-22:00:00.000|117=201906171439051_S|131=20190617-000000000018.00|135=500000000|634=4|762=RFQF|453=1|448=DCV|447=C|452=10|10=126|
8=FIX.4.4|9=0302|35=AI|34=3|49=EXC|56=002|57=002B35|52=20190617-19:39:30.808|131=20190617-000000000018.00|117=201906171439051_S|453=4|448=DCV|447=C|452=10|448=001B27|447=C|452=12|448=001|447=C|452=1|448=002B35|447=C|452=37|55=TFIC13280425|762=RFQF|48=20626|22=M|54=1|634=4.000|135=500000000|62=20190617-22:00:00|297=16|10=043|
8=FIX.4.4|9=0049|35=0|34=4|49=EXC|56=002|52=20190617-19:40:00.000|10=166|
8=FIX.4.4|9=59|35=0|34=3|49=002|50=002B35|52=20190617-19:40:01.703|56=EXC|10=048|
8=FIX.4.4|9=105|35=A|34=1|49=002|50=002B35|52=20190617-19:44:36.966|56=EXC|98=0|108=30|141=Y|553=002FCM001|554=002FCM001|10=109|
8=FIX.4.4|9=0067|35=A|34=1|49=EXC|56=002|52=20190617-19:44:36.817|98=0|108=30|141=Y|10=023|
8=FIX.4.4|9=0049|35=0|34=2|49=EXC|56=002|52=20190617-19:45:06.000|10=175|
8=FIX.4.4|9=59|35=0|34=2|49=002|50=002B35|52=20190617-19:45:07.901|56=EXC|10=058|
8=FIX.4.4|9=105|35=A|34=1|49=002|50=002B35|52=20190617-19:45:34.849|56=EXC|98=0|108=30|141=Y|553=002FCM001|554=002FCM001|10=108|
8=FIX.4.4|9=0067|35=A|34=1|49=EXC|56=002|52=20190617-19:45:34.697|98=0|108=30|141=Y|10=028|
8=FIX.4.4|9=105|35=A|34=1|49=002|50=002B35|52=20190617-19:48:16.414|56=EXC|98=0|108=30|141=Y|553=002FCM001|554=002FCM001|10=099|
8=FIX.4.4|9=0067|35=A|34=1|49=EXC|56=002|52=20190617-19:48:16.263|98=0|108=30|141=Y|10=020|
8=FIX.4.4|9=0049|35=0|34=2|49=EXC|56=002|52=20190617-19:48:46.000|10=182|
8=FIX.4.4|9=59|35=0|34=2|49=002|50=002B35|52=20190617-19:48:47.377|56=EXC|10=072|
8=FIX.4.4|9=105|35=A|34=1|49=002|50=002B35|52=20190617-19:48:58.608|56=EXC|98=0|108=30|141=Y|553=002FCM001|554=002FCM001|10=110|
8=FIX.4.4|9=0067|35=A|34=1|49=EXC|56=002|52=20190617-19:48:58.455|98=0|108=30|141=Y|10=029|
8=FIX.4.4|9=0225|35=R|34=2|49=EXC|56=002|57=002B35|52=20190617-19:49:05.745|131=20190617-000000000021.00|146=1|55=TFIC13280425|762=RFQF|48=20626|22=M|54=1|38=500000000|453=3|448=001B27|447=C|452=12|448=001|447=C|452=1|448=002B35|447=C|452=37|10=022|
8=FIX.4.4|9=207|35=S|34=2|49=002|50=002B35|52=20190617-19:49:21.870|56=EXC|55=TFIC13280425|62=20190617-22:00:00.000|117=201906171448561_S|131=20190617-000000000021.00|135=500000000|634=4|762=RFQF|453=1|448=DCV|447=C|452=10|10=121|
8=FIX.4.4|9=0302|35=AI|34=3|49=EXC|56=002|57=002B35|52=20190617-19:49:21.690|131=20190617-000000000021.00|117=201906171448561_S|453=4|448=DCV|447=C|452=10|448=001B27|447=C|452=12|448=001|447=C|452=1|448=002B35|447=C|452=37|55=TFIC13280425|762=RFQF|48=20626|22=M|54=1|634=4.000|135=500000000|62=20190617-22:00:00|297=16|10=043|
8=FIX.4.4|9=0515|35=8|34=4|49=EXC|56=002|57=002B35|52=20190617-19:49:40.629|11=201906171448561_S|17=8|37=0|150=F|1080=20190617-000000000021.00|1081=6|453=6|448=002B35|447=C|452=12|448=002|447=C|452=1|448=001B27|447=C|452=37|448=001|447=C|452=17|448=002FCM001|447=C|452=36|448=DCV|447=C|452=10|55=TFIC13280425|762=RFQF|48=20626|22=M|6=79.457|14=500000000|31=79.457|32=500000000|38=500000000|39=2|20102=79.457|54=2|60=20190617-19:49:40.629|75=20190617|63=1|64=20190617|151=0|1623=4.000|381=397286000.000|880=201906170000000014|828=99|10=165|
8=FIX.4.4|9=59|35=0|34=3|49=002|50=002B35|52=20190617-19:49:52.601|56=EXC|10=060|
8=FIX.4.4|9=0225|35=R|34=5|49=EXC|56=002|57=002B35|52=20190617-19:50:02.195|131=20190617-000000000022.00|146=1|55=TFIT16280428|762=RFQF|48=20399|22=M|54=1|38=500000000|453=3|448=001B27|447=C|452=12|448=001|447=C|452=1|448=002B35|447=C|452=37|10=044|
8=FIX.4.4|9=105|35=A|34=1|49=002|50=002B35|52=20190617-19:58:29.982|56=EXC|98=0|108=30|141=Y|553=002FCM001|554=002FCM001|10=114|
8=FIX.4.4|9=0067|35=A|34=1|49=EXC|56=002|52=20190617-19:58:30.078|98=0|108=30|141=Y|10=021|
8=FIX.4.4|9=0225|35=R|34=2|49=EXC|56=002|57=002B35|52=20190617-19:58:37.385|131=20190617-000000000025.00|146=1|55=TFIC13280425|762=RFQF|48=20626|22=M|54=1|38=500000000|453=3|448=001B27|447=C|452=12|448=001|447=C|452=1|448=002B35|447=C|452=37|10=031|
8=FIX.4.4|9=105|35=A|34=1|49=002|50=002B35|52=20190617-19:59:09.798|56=EXC|98=0|108=30|141=Y|553=002FCM001|554=002FCM001|10=118|
8=FIX.4.4|9=0067|35=A|34=1|49=EXC|56=002|52=20190617-19:59:09.901|98=0|108=30|141=Y|10=023|
8=FIX.4.4|9=0225|35=R|34=2|49=EXC|56=002|57=002B35|52=20190617-19:59:17.172|131=20190617-000000000026.00|146=1|55=TFIC13280425|762=RFQF|48=20626|22=M|54=1|38=500000000|453=3|448=001B27|447=C|452=12|448=001|447=C|452=1|448=002B35|447=C|452=37|10=025|
8=FIX.4.4|9=207|35=S|34=2|49=002|50=002B35|52=20190617-19:59:32.980|56=EXC|55=TFIC13280425|62=20190617-22:00:00.000|117=201906171459071_S|131=20190617-000000000026.00|135=500000000|634=4|762=RFQF|453=1|448=DCV|447=C|452=10|10=129|
8=FIX.4.4|9=0302|35=AI|34=3|49=EXC|56=002|57=002B35|52=20190617-19:59:33.061|131=20190617-000000000026.00|117=201906171459071_S|453=4|448=DCV|447=C|452=10|448=001B27|447=C|452=12|448=001|447=C|452=1|448=002B35|447=C|452=37|55=TFIC13280425|762=RFQF|48=20626|22=M|54=1|634=4.000|135=500000000|62=20190617-22:00:00|297=16|10=042|
8=FIX.4.4|9=0516|35=8|34=4|49=EXC|56=002|57=002B35|52=20190617-19:59:51.797|11=201906171459071_S|17=10|37=0|150=F|1080=20190617-000000000026.00|1081=6|453=6|448=002B35|447=C|452=12|448=002|447=C|452=1|448=001B27|447=C|452=37|448=001|447=C|452=17|448=002FCM001|447=C|452=36|448=DCV|447=C|452=10|55=TFIC13280425|762=RFQF|48=20626|22=M|6=79.457|14=500000000|31=79.457|32=500000000|38=500000000|39=2|20102=79.457|54=2|60=20190617-19:59:51.797|75=20190617|63=1|64=20190617|151=0|1623=4.000|381=397286000.000|880=201906170000000016|828=99|10=230|
8=FIX.4.4|9=59|35=0|34=3|49=002|50=002B35|52=20190617-20:00:03.790|56=EXC|10=044|
8=FIX.4.4|9=0049|35=0|34=5|49=EXC|56=002|52=20190617-20:00:21.000|10=158|
8=FIX.4.4|9=59|35=0|34=4|49=002|50=002B35|52=20190617-20:00:33.790|56=EXC|10=048|
8=FIX.4.4|9=0049|35=0|34=6|49=EXC|56=002|52=20190617-20:00:51.000|10=162|
8=FIX.4.4|9=105|35=A|34=1|49=002|50=002B35|52=20190617-20:01:41.643|56=EXC|98=0|108=30|141=Y|553=002FCM001|554=002FCM001|10=082|
8=FIX.4.4|9=0067|35=A|34=1|49=EXC|56=002|52=20190617-20:01:41.767|98=0|108=30|141=Y|10=008|
8=FIX.4.4|9=0225|35=R|34=2|49=EXC|56=002|57=002B35|52=20190617-20:01:49.054|131=20190617-000000000027.00|146=1|55=TFIC13280425|762=RFQF|48=20626|22=M|54=1|38=500000000|453=3|448=001B27|447=C|452=12|448=001|447=C|452=1|448=002B35|447=C|452=37|10=009|
8=FIX.4.4|9=207|35=S|34=2|49=002|50=002B35|52=20190617-20:02:04.759|56=EXC|55=TFIC13280425|62=20190617-22:00:00.000|117=201906171501391_S|131=20190617-000000000027.00|135=500000000|634=4|762=RFQF|453=1|448=DCV|447=C|452=10|10=106|
8=FIX.4.4|9=0302|35=AI|34=3|49=EXC|56=002|57=002B35|52=20190617-20:02:04.862|131=20190617-000000000027.00|117=201906171501391_S|453=4|448=DCV|447=C|452=10|448=001B27|447=C|452=12|448=001|447=C|452=1|448=002B35|447=C|452=37|55=TFIC13280425|762=RFQF|48=20626|22=M|54=1|634=4.000|135=500000000|62=20190617-22:00:00|297=16|10=023|
8=FIX.4.4|9=0516|35=8|34=4|49=EXC|56=002|57=002B35|52=20190617-20:02:23.698|11=201906171501391_S|17=11|37=0|150=F|1080=20190617-000000000027.00|1081=6|453=6|448=002B35|447=C|452=12|448=002|447=C|452=1|448=001B27|447=C|452=37|448=001|447=C|452=17|448=002FCM001|447=C|452=36|448=DCV|447=C|452=10|55=TFIC13280425|762=RFQF|48=20626|22=M|6=79.457|14=500000000|31=79.457|32=500000000|38=500000000|39=2|20102=79.457|54=2|60=20190617-20:02:23.698|75=20190617|63=1|64=20190617|151=0|1623=4.000|381=397286000.000|880=201906170000000017|828=99|10=184|
8=FIX.4.4|9=59|35=0|34=3|49=002|50=002B35|52=20190617-20:02:35.573|56=EXC|10=050|
8=FIX.4.4|9=0225|35=R|34=5|49=EXC|56=002|57=002B35|52=20190617-20:02:45.466|131=20190617-000000000028.00|146=1|55=TFIT16280428|762=RFQF|48=20399|22=M|54=1|38=500000000|453=3|448=001B27|447=C|452=12|448=001|447=C|452=1|448=002B35|447=C|452=37|10=047|
8=FIX.4.4|9=59|35=0|34=4|49=002|50=002B35|52=20190617-20:03:05.573|56=EXC|10=049|
8=FIX.4.4|9=207|35=S|34=5|49=002|50=002B35|52=20190617-20:03:06.169|56=EXC|55=TFIT16280428|62=20190617-22:00:00.000|117=201906171501392_S|131=20190617-000000000028.00|135=500000000|634=3|762=RFQF|453=1|448=DCV|447=C|452=10|10=131|
8=FIX.4.4|9=0302|35=AI|34=6|49=EXC|56=002|57=002B35|52=20190617-20:03:06.280|131=20190617-000000000028.00|117=201906171501392_S|453=4|448=DCV|447=C|452=10|448=001B27|447=C|452=12|448=001|447=C|452=1|448=002B35|447=C|452=37|55=TFIT16280428|762=RFQF|48=20399|22=M|54=1|634=3.000|135=500000000|62=20190617-22:00:00|297=16|10=054|
8=FIX.4.4|9=87|35=Z|34=6|49=002|50=002B35|52=20190617-20:03:24.868|56=EXC|117=201906171501392_S|298=5|10=004|
8=FIX.4.4|9=0287|35=AI|34=7|49=EXC|56=002|57=002B35|52=20190617-20:03:24.984|131=20190617-000000000028.00|117=201906171501392_S|298=5|453=4|448=DCV|447=C|452=10|448=001B27|447=C|452=12|448=001|447=C|452=1|448=002B35|447=C|452=37|55=TFIT16280428|762=RFQF|48=20399|22=M|54=1|634=3.000|135=500000000|297=17|10=096|
8=FIX.4.4|9=0225|35=R|34=8|49=EXC|56=002|57=002B35|52=20190617-20:03:43.770|131=20190617-000000000029.00|146=1|55=TFIT16300632|762=RFQF|48=20406|22=M|54=1|38=500000000|453=3|448=001B27|447=C|452=12|448=001|447=C|452=1|448=002B35|447=C|452=37|10=027|
8=FIX.4.4|9=59|35=0|34=7|49=002|50=002B35|52=20190617-20:03:55.572|56=EXC|10=056|
8=FIX.4.4|9=0217|35=R|34=9|49=EXC|56=002|57=002B35|52=20190617-20:04:04.501|131=20190617-000000000029.00|146=1|55=TFIT16300632|762=RFQF|48=20406|22=M|54=1|38=0|453=3|448=001B27|447=C|452=12|448=001|447=C|452=1|448=002B35|447=C|452=37|10=142|
8=FIX.4.4|9=59|35=0|34=8|49=002|50=002B35|52=20190617-20:04:25.572|56=EXC|10=055|
8=FIX.4.4|9=0050|35=0|34=10|49=EXC|56=002|52=20190617-20:04:34.000|10=202|
8=FIX.4.4|9=0227|35=R|34=11|49=EXC|56=002|57=002B35|52=20190617-20:04:38.953|131=20190617-000000000030.00|146=1|55=TFIT06110919|762=RFQF|48=20320|22=M|54=1|38=1000000000|453=3|448=001B27|447=C|452=12|448=001|447=C|452=1|448=002B35|447=C|452=37|10=116|
8=FIX.4.4|9=59|35=0|34=9|49=002|50=002B35|52=20190617-20:04:55.573|56=EXC|10=060|
8=FIX.4.4|9=233|35=S|34=10|49=002|50=002B35|52=20190617-20:04:58.000|56=EXC|55=TFIT06110919|62=20190617-22:00:00.000|117=201906171501395_S|131=20190617-000000000030.00|135=1000000000|634=2|762=RFQF|453=2|448=002B35|447=C|452=37|448=DCV|447=C|452=10|10=071|
8=FIX.4.4|9=0266|35=AI|34=12|49=EXC|56=002|57=002B35|52=20190617-20:04:58.128|117=201906171501395_S|453=2|448=002B35|447=C|452=37|448=DCV|447=C|452=10|55=TFIT06110919|762=RFQF|135=1000000000|62=20190617-22:00:00.000|297=9|300=99|58=(1625): PartyRole(#452) invalido, tipo de rol '37'|10=045|
8=FIX.4.4|9=0050|35=0|34=13|49=EXC|56=002|52=20190617-20:05:28.000|10=209|
8=FIX.4.4|9=60|35=0|34=11|49=002|50=002B35|52=20190617-20:05:28.573|56=EXC|10=094|
8=FIX.4.4|9=0050|35=0|34=14|49=EXC|56=002|52=20190617-20:05:58.000|10=213|
8=FIX.4.4|9=60|35=0|34=12|49=002|50=002B35|52=20190617-20:05:58.573|56=EXC|10=098|
8=FIX.4.4|9=0050|35=0|34=15|49=EXC|56=002|52=20190617-20:06:28.000|10=212|
8=FIX.4.4|9=60|35=0|34=13|49=002|50=002B35|52=20190617-20:06:28.574|56=EXC|10=098|
8=FIX.4.4|9=0050|35=0|34=16|49=EXC|56=002|52=20190617-20:06:58.000|10=216|
8=FIX.4.4|9=60|35=0|34=14|49=002|50=002B35|52=20190617-20:06:58.573|56=EXC|10=101|
8=FIX.4.4|9=105|35=A|34=1|49=002|50=002B35|52=20190617-20:07:41.354|56=EXC|98=0|108=30|141=Y|553=002FCM001|554=002FCM001|10=087|
8=FIX.4.4|9=0067|35=A|34=1|49=EXC|56=002|52=20190617-20:07:41.532|98=0|108=30|141=Y|10=004|
8=FIX.4.4|9=0226|35=R|34=2|49=EXC|56=002|57=002B35|52=20190617-20:07:48.820|131=20190617-000000000031.00|146=1|55=TFIT06110919|762=RFQF|48=20320|22=M|54=1|38=1000000000|453=3|448=001B27|447=C|452=12|448=001|447=C|452=1|448=002B35|447=C|452=37|10=065|
8=FIX.4.4|9=59|35=0|34=2|49=002|50=002B35|52=20190617-20:08:12.292|56=EXC|10=048|
8=FIX.4.4|9=105|35=A|34=1|49=002|50=002B35|52=20190617-20:08:54.009|56=EXC|98=0|108=30|141=Y|553=002FCM001|554=002FCM001|10=089|
8=FIX.4.4|9=0067|35=A|34=1|49=EXC|56=002|52=20190617-20:08:54.199|98=0|108=30|141=Y|10=018|
8=FIX.4.4|9=0226|35=R|34=2|49=EXC|56=002|57=002B35|52=20190617-20:09:01.511|131=20190617-000000000032.00|146=1|55=TFIT06110919|762=RFQF|48=20320|22=M|54=1|38=1000000000|453=3|448=001B27|447=C|452=12|448=001|447=C|452=1|448=002B35|447=C|452=37|10=054|
8=FIX.4.4|9=105|35=A|34=1|49=002|50=002B35|52=20190617-20:10:08.600|56=EXC|98=0|108=30|141=Y|553=002FCM001|554=002FCM001|10=078|
8=FIX.4.4|9=0067|35=A|34=1|49=EXC|56=002|52=20190617-20:10:08.799|98=0|108=30|141=Y|10=016|
8=FIX.4.4|9=0192|35=R|34=2|49=EXC|56=002|52=20190617-20:10:16.026|131=20190617-000000000033.00|146=1|55=TFIT15260826|762=RFQF|48=20348|22=M|54=1|38=1500000000|453=2|448=007B26|447=C|452=12|448=007|447=C|452=1|10=241|
8=FIX.4.4|9=59|35=0|34=2|49=002|50=002B35|52=20190617-20:10:39.346|56=EXC|10=050|
8=FIX.4.4|9=208|35=S|34=3|49=002|50=002B35|52=20190617-20:10:40.681|56=EXC|55=TFIT15260826|62=20190617-22:00:00.000|117=201906171510066_S|131=20190617-000000000033.00|135=1500000000|634=6|762=RFQF|453=1|448=DCV|447=C|452=10|10=170|
8=FIX.4.4|9=0303|35=AI|34=3|49=EXC|56=002|57=002B35|52=20190617-20:10:40.862|131=20190617-000000000033.00|117=201906171510066_S|453=4|448=DCV|447=C|452=10|448=007B26|447=C|452=12|448=007|447=C|452=1|448=002B35|447=C|452=37|55=TFIT15260826|762=RFQF|48=20348|22=M|54=1|634=6.000|135=1500000000|62=20190617-22:00:00|297=16|10=104|
8=FIX.4.4|9=0049|35=0|34=4|49=EXC|56=002|52=20190617-20:11:10.000|10=157|
8=FIX.4.4|9=0523|35=8|34=5|49=EXC|56=002|57=002B35|52=20190617-20:11:10.014|11=201906171510066_S|17=12|37=0|150=F|1080=20190617-000000000033.00|1081=6|453=6|448=002B35|447=C|452=12|448=002|447=C|452=1|448=007B26|447=C|452=37|448=007|447=C|452=17|448=002FCM001|447=C|452=36|448=DCV|447=C|452=10|55=TFIT15260826|762=RFQF|48=20348|22=M|6=108.523|14=1500000000|31=108.523|32=1500000000|38=1500000000|39=2|20102=114.584|54=2|60=20190617-20:11:10.014|75=20190617|63=1|64=20190617|151=0|1623=6.000|381=1718769000.000|880=201906170000000018|828=99|10=225|
8=FIX.4.4|9=59|35=0|34=4|49=002|50=002B35|52=20190617-20:11:11.345|56=EXC|10=042|
8=FIX.4.4|9=0191|35=R|34=6|49=EXC|56=002|52=20190617-20:11:32.665|131=20190617-000000000034.00|146=1|55=TFIC14280426|762=RFQF|48=20602|22=M|54=1|38=500000000|453=2|448=001B27|447=C|452=12|448=001|447=C|452=1|10=166|
8=FIX.4.4|9=59|35=0|34=5|49=002|50=002B35|52=20190617-20:11:41.346|56=EXC|10=047|
8=FIX.4.4|9=0049|35=0|34=7|49=EXC|56=002|52=20190617-20:12:02.000|10=162|
8=FIX.4.4|9=59|35=0|34=6|49=002|50=002B35|52=20190617-20:12:11.347|56=EXC|10=047|
8=FIX.4.4|9=0049|35=0|34=8|49=EXC|56=002|52=20190617-20:12:32.000|10=166|
8=FIX.4.4|9=105|35=A|34=1|49=002|50=002B35|52=20190617-20:24:12.403|56=EXC|98=0|108=30|141=Y|553=002FCM001|554=002FCM001|10=079|
8=FIX.4.4|9=0067|35=A|34=1|49=EXC|56=002|52=20190617-20:24:12.571|98=0|108=30|141=Y|10=004|
8=FIX.4.4|9=0226|35=R|34=2|49=EXC|56=002|57=002B35|52=20190617-20:24:19.405|131=20190617-000000000035.00|146=1|55=TFIT06110919|762=RFQF|48=20320|22=M|54=1|38=1000000000|453=3|448=001B27|447=C|452=12|448=001|447=C|452=1|448=002B35|447=C|452=37|10=065|
8=FIX.4.4|9=105|35=A|34=1|49=002|50=002B35|52=20190617-20:40:00.357|56=EXC|98=0|108=30|141=Y|553=002FCM001|554=002FCM001|10=082|
8=FIX.4.4|9=0067|35=A|34=1|49=EXC|56=002|52=20190617-20:40:00.059|98=0|108=30|141=Y|10=000|
8=FIX.4.4|9=105|35=A|34=1|49=002|50=002B35|52=20190617-20:41:47.179|56=EXC|98=0|108=30|141=Y|553=002FCM001|554=002FCM001|10=096|
8=FIX.4.4|9=0067|35=A|34=1|49=EXC|56=002|52=20190617-20:41:47.015|98=0|108=30|141=Y|10=004|
8=FIX.4.4|9=105|35=A|34=1|49=002|50=002B35|52=20190617-20:42:59.972|56=EXC|98=0|108=30|141=Y|553=002FCM001|554=002FCM001|10=101|
8=FIX.4.4|9=0067|35=A|34=1|49=EXC|56=002|52=20190617-20:42:59.894|98=0|108=30|141=Y|10=023|
8=FIX.4.4|9=105|35=A|34=1|49=002|50=002B35|52=20190617-20:44:24.390|56=EXC|98=0|108=30|141=Y|553=002FCM001|554=002FCM001|10=089|
8=FIX.4.4|9=0067|35=A|34=1|49=EXC|56=002|52=20190617-20:44:24.096|98=0|108=30|141=Y|10=011|
8=FIX.4.4|9=105|35=A|34=1|49=002|50=002B35|52=20190617-20:46:22.109|56=EXC|98=0|108=30|141=Y|553=002FCM001|554=002FCM001|10=087|
8=FIX.4.4|9=0067|35=A|34=1|49=EXC|56=002|52=20190617-20:46:21.884|98=0|108=30|141=Y|10=015|
8=FIX.4.4|9=105|35=A|34=1|49=002|50=002B35|52=20190617-20:50:22.356|56=EXC|98=0|108=30|141=Y|553=002FCM001|554=002FCM001|10=086|
8=FIX.4.4|9=0067|35=A|34=1|49=EXC|56=002|52=20190617-20:50:22.135|98=0|108=30|141=Y|10=000|
8=FIX.4.4|9=105|35=A|34=1|49=002|50=002B35|52=20190617-20:52:33.486|56=EXC|98=0|108=30|141=Y|553=002FCM001|554=002FCM001|10=094|
8=FIX.4.4|9=0067|35=A|34=1|49=EXC|56=002|52=20190617-20:52:33.282|98=0|108=30|141=Y|10=007|
8=FIX.4.4|9=0225|35=R|34=2|49=EXC|56=002|57=002B35|52=20190617-20:52:40.518|131=20190617-000000000037.00|146=1|55=TFIC13280425|762=RFQF|48=20626|22=M|54=1|38=500000000|453=3|448=001B27|447=C|452=12|448=001|447=C|452=1|448=002B35|447=C|452=37|10=012|
8=FIX.4.4|9=207|35=S|34=2|49=002|50=002B35|52=20190617-20:52:56.712|56=EXC|55=TFIC13280425|62=20190617-22:00:00.000|117=201906171552311_S|131=20190617-000000000037.00|135=500000000|634=4|762=RFQF|453=1|448=DCV|447=C|452=10|10=106|
8=FIX.4.4|9=0302|35=AI|34=3|49=EXC|56=002|57=002B35|52=20190617-20:52:56.485|131=20190617-000000000037.00|117=201906171552311_S|453=4|448=DCV|447=C|452=10|448=001B27|447=C|452=12|448=001|447=C|452=1|448=002B35|447=C|452=37|55=TFIC13280425|762=RFQF|48=20626|22=M|54=1|634=4.000|135=500000000|62=20190617-22:00:00|297=16|10=035|
8=FIX.4.4|9=0516|35=8|34=4|49=EXC|56=002|57=002B35|52=20190617-20:53:15.217|11=201906171552311_S|17=13|37=0|150=F|1080=20190617-000000000037.00|1081=6|453=6|448=002B35|447=C|452=12|448=002|447=C|452=1|448=001B27|447=C|452=37|448=001|447=C|452=17|448=002FCM001|447=C|452=36|448=DCV|447=C|452=10|55=TFIC13280425|762=RFQF|48=20626|22=M|6=79.457|14=500000000|31=79.457|32=500000000|38=500000000|39=2|20102=79.457|54=2|60=20190617-20:53:15.217|75=20190617|63=1|64=20190617|151=0|1623=4.000|381=397286000.000|880=201906170000000019|828=99|10=175|
8=FIX.4.4|9=59|35=0|34=3|49=002|50=002B35|52=20190617-20:53:27.478|56=EXC|10=061|
8=FIX.4.4|9=0225|35=R|34=5|49=EXC|56=002|57=002B35|52=20190617-20:53:37.404|131=20190617-000000000038.00|146=1|55=TFIT16280428|762=RFQF|48=20399|22=M|54=1|38=500000000|453=3|448=001B27|447=C|452=12|448=001|447=C|452=1|448=002B35|447=C|452=37|10=047|
8=FIX.4.4|9=59|35=0|34=4|49=002|50=002B35|52=20190617-20:53:57.492|56=EXC|10=061|
8=FIX.4.4|9=207|35=S|34=5|49=002|50=002B35|52=20190617-20:53:58.284|56=EXC|55=TFIT16280428|62=20190617-22:00:00.000|117=201906171552312_S|131=20190617-000000000038.00|135=500000000|634=3|762=RFQF|453=1|448=DCV|447=C|452=10|10=140|
8=FIX.4.4|9=0302|35=AI|34=6|49=EXC|56=002|57=002B35|52=20190617-20:53:58.064|131=20190617-000000000038.00|117=201906171552312_S|453=4|448=DCV|447=C|452=10|448=001B27|447=C|452=12|448=001|447=C|452=1|448=002B35|447=C|452=37|55=TFIT16280428|762=RFQF|48=20399|22=M|54=1|634=3.000|135=500000000|62=20190617-22:00:00|297=16|10=065|
8=FIX.4.4|9=87|35=Z|34=6|49=002|50=002B35|52=20190617-20:54:16.906|56=EXC|117=201906171552312_S|298=5|10=002|
8=FIX.4.4|9=0287|35=AI|34=7|49=EXC|56=002|57=002B35|52=20190617-20:54:16.687|131=20190617-000000000038.00|117=201906171552312_S|298=5|453=4|448=DCV|447=C|452=10|448=001B27|447=C|452=12|448=001|447=C|452=1|448=002B35|447=C|452=37|55=TFIT16280428|762=RFQF|48=20399|22=M|54=1|634=3.000|135=500000000|297=17|10=102|
8=FIX.4.4|9=0225|35=R|34=8|49=EXC|56=002|57=002B35|52=20190617-20:54:35.383|131=20190617-000000000039.00|146=1|55=TFIT16300632|762=RFQF|48=20406|22=M|54=1|38=500000000|453=3|448=001B27|447=C|452=12|448=001|447=C|452=1|448=002B35|447=C|452=37|10=035|
8=FIX.4.4|9=59|35=0|34=7|49=002|50=002B35|52=20190617-20:54:47.477|56=EXC|10=067|
8=FIX.4.4|9=0217|35=R|34=9|49=EXC|56=002|57=002B35|52=20190617-20:54:56.004|131=20190617-000000000039.00|146=1|55=TFIT16300632|762=RFQF|48=20406|22=M|54=1|38=0|453=3|448=001B27|447=C|452=12|448=001|447=C|452=1|448=002B35|447=C|452=37|10=153|
8=FIX.4.4|9=59|35=0|34=8|49=002|50=002B35|52=20190617-20:55:17.478|56=EXC|10=067|
8=FIX.4.4|9=0050|35=0|34=10|49=EXC|56=002|52=20190617-20:55:26.000|10=209|
8=FIX.4.4|9=59|35=0|34=9|49=002|50=002B35|52=20190617-20:55:47.483|56=EXC|10=067|
8=FIX.4.4|9=0050|35=0|34=11|49=EXC|56=002|52=20190617-20:55:56.000|10=213|
8=FIX.4.4|9=105|35=A|34=1|49=002|50=002B35|52=20190617-20:57:37.774|56=EXC|98=0|108=30|141=Y|553=002FCM001|554=002FCM001|10=103|
8=FIX.4.4|9=0067|35=A|34=1|49=EXC|56=002|52=20190617-20:57:37.604|98=0|108=30|141=Y|10=014|
8=FIX.4.4|9=0225|35=R|34=2|49=EXC|56=002|57=002B35|52=20190617-20:57:44.815|131=20190617-000000000040.00|146=1|55=TFIC13280425|762=RFQF|48=20626|22=M|54=1|38=500000000|453=3|448=001B27|447=C|452=12|448=001|447=C|452=1|448=002B35|447=C|452=37|10=015|
8=FIX.4.4|9=207|35=S|34=2|49=002|50=002B35|52=20190617-20:58:00.798|56=EXC|55=TFIC13280425|62=20190617-22:00:00.000|117=201906171557351_S|131=20190617-000000000040.00|135=500000000|634=4|762=RFQF|453=1|448=DCV|447=C|452=10|10=118|
8=FIX.4.4|9=0302|35=AI|34=3|49=EXC|56=002|57=002B35|52=20190617-20:58:00.604|131=20190617-000000000040.00|117=201906171557351_S|453=4|448=DCV|447=C|452=10|448=001B27|447=C|452=12|448=001|447=C|452=1|448=002B35|447=C|452=37|55=TFIC13280425|762=RFQF|48=20626|22=M|54=1|634=4.000|135=500000000|62=20190617-22:00:00|297=16|10=026|
8=FIX.4.4|9=0516|35=8|34=4|49=EXC|56=002|57=002B35|52=20190617-20:58:19.433|11=201906171557351_S|17=14|37=0|150=F|1080=20190617-000000000040.00|1081=6|453=6|448=002B35|447=C|452=12|448=002|447=C|452=1|448=001B27|447=C|452=37|448=001|447=C|452=17|448=002FCM001|447=C|452=36|448=DCV|447=C|452=10|55=TFIC13280425|762=RFQF|48=20626|22=M|6=79.457|14=500000000|31=79.457|32=500000000|38=500000000|39=2|20102=79.457|54=2|60=20190617-20:58:19.433|75=20190617|63=1|64=20190617|151=0|1623=4.000|381=397286000.000|880=201906170000000020|828=99|10=189|
8=FIX.4.4|9=59|35=0|34=3|49=002|50=002B35|52=20190617-20:58:31.702|56=EXC|10=051|
8=FIX.4.4|9=0225|35=R|34=5|49=EXC|56=002|57=002B35|52=20190617-20:58:41.113|131=20190617-000000000041.00|146=1|55=TFIT16280428|762=RFQF|48=20399|22=M|54=1|38=500000000|453=3|448=001B27|447=C|452=12|448=001|447=C|452=1|448=002B35|447=C|452=37|10=038|
8=FIX.4.4|9=59|35=0|34=4|49=002|50=002B35|52=20190617-20:59:02.697|56=EXC|10=064|
8=FIX.4.4|9=207|35=S|34=5|49=002|50=002B35|52=20190617-20:59:02.713|56=EXC|55=TFIT16280428|62=20190617-22:00:00.000|117=201906171557352_S|131=20190617-000000000041.00|135=500000000|634=3|762=RFQF|453=1|448=DCV|447=C|452=10|10=135|
8=FIX.4.4|9=0302|35=AI|34=6|49=EXC|56=002|57=002B35|52=20190617-20:59:02.527|131=20190617-000000000041.00|117=201906171557352_S|453=4|448=DCV|447=C|452=10|448=001B27|447=C|452=12|448=001|447=C|452=1|448=002B35|447=C|452=37|55=TFIT16280428|762=RFQF|48=20399|22=M|54=1|634=3.000|135=500000000|62=20190617-22:00:00|297=16|10=067|
8=FIX.4.4|9=87|35=Z|34=6|49=002|50=002B35|52=20190617-20:59:21.418|56=EXC|117=201906171557352_S|298=5|10=010|
8=FIX.4.4|9=0287|35=AI|34=7|49=EXC|56=002|57=002B35|52=20190617-20:59:21.234|131=20190617-000000000041.00|117=201906171557352_S|298=5|453=4|448=DCV|447=C|452=10|448=001B27|447=C|452=12|448=001|447=C|452=1|448=002B35|447=C|452=37|55=TFIT16280428|762=RFQF|48=20399|22=M|54=1|634=3.000|135=500000000|297=17|10=094|
8=FIX.4.4|9=0225|35=R|34=8|49=EXC|56=002|57=002B35|52=20190617-20:59:40.193|131=20190617-000000000042.00|146=1|55=TFIT16300632|762=RFQF|48=20406|22=M|54=1|38=500000000|453=3|448=001B27|447=C|452=12|448=001|447=C|452=1|448=002B35|447=C|452=37|10=029|
8=FIX.4.4|9=59|35=0|34=7|49=002|50=002B35|52=20190617-20:59:51.692|56=EXC|10=066|
8=FIX.4.4|9=0217|35=R|34=9|49=EXC|56=002|57=002B35|52=20190617-21:00:00.876|131=20190617-000000000042.00|146=1|55=TFIT16300632|762=RFQF|48=20406|22=M|54=1|38=0|453=3|448=001B27|447=C|452=12|448=001|447=C|452=1|448=002B35|447=C|452=37|10=145|
8=FIX.4.4|9=59|35=0|34=8|49=002|50=002B35|52=20190617-21:00:21.700|56=EXC|10=041|
8=FIX.4.4|9=0050|35=0|34=10|49=EXC|56=002|52=20190617-21:00:30.000|10=195|
8=FIX.4.4|9=0227|35=R|34=11|49=EXC|56=002|57=002B35|52=20190617-21:00:35.825|131=20190617-000000000043.00|146=1|55=TFIT06110919|762=RFQF|48=20320|22=M|54=1|38=1000000000|453=3|448=001B27|447=C|452=12|448=001|447=C|452=1|448=002B35|447=C|452=37|10=112|
8=FIX.4.4|9=59|35=0|34=9|49=002|50=002B35|52=20190617-21:00:51.692|56=EXC|10=055|
8=FIX.4.4|9=209|35=S|34=10|49=002|50=002B35|52=20190617-21:00:54.880|56=EXC|55=TFIT06110919|62=20190617-22:00:00.000|117=201906171557355_S|131=20190617-000000000043.00|135=1000000000|634=2|762=RFQF|453=1|448=DCV|447=C|452=10|10=224|
8=FIX.4.4|9=0304|35=AI|34=12|49=EXC|56=002|57=002B35|52=20190617-21:00:54.707|131=20190617-000000000043.00|117=201906171557355_S|453=4|448=DCV|447=C|452=10|448=001B27|447=C|452=12|448=001|447=C|452=1|448=002B35|447=C|452=37|55=TFIT06110919|762=RFQF|48=20320|22=M|54=1|634=2.000|135=1000000000|62=20190617-22:00:00|297=16|10=136|
8=FIX.4.4|9=0050|35=0|34=13|49=EXC|56=002|52=20190617-21:01:24.000|10=202|
8=FIX.4.4|9=60|35=0|34=11|49=002|50=002B35|52=20190617-21:01:25.692|56=EXC|10=090|
8=FIX.4.4|9=0050|35=0|34=14|49=EXC|56=002|52=20190617-21:01:54.000|10=206|
8=FIX.4.4|9=60|35=0|34=12|49=002|50=002B35|52=20190617-21:01:55.703|56=EXC|10=087|
8=FIX.4.4|9=0050|35=0|34=15|49=EXC|56=002|52=20190617-21:02:24.000|10=205|
8=FIX.4.4|9=60|35=0|34=13|49=002|50=002B35|52=20190617-21:02:26.693|56=EXC|10=095|
8=FIX.4.4|9=105|35=A|34=1|49=002|50=002B35|52=20190617-21:04:08.608|56=EXC|98=0|108=30|141=Y|553=002FCM001|554=002FCM001|10=090|
8=FIX.4.4|9=0067|35=A|34=1|49=EXC|56=002|52=20190617-21:04:08.486|98=0|108=30|141=Y|10=013|
8=FIX.4.4|9=0226|35=R|34=2|49=EXC|56=002|57=002B35|52=20190617-21:04:15.771|131=20190617-000000000044.00|146=1|55=TFIT06110919|762=RFQF|48=20320|22=M|54=1|38=1000000000|453=3|448=001B27|447=C|452=12|448=001|447=C|452=1|448=002B35|447=C|452=37|10=066|
8=FIX.4.4|9=208|35=S|34=2|49=002|50=002B35|52=20190617-21:04:32.566|56=EXC|55=TFIT06110919|62=20190617-22:00:00.000|117=201906171604065_S|131=20190617-000000000044.00|135=1000000000|634=2|762=RFQF|453=1|448=DCV|447=C|452=10|10=169|
8=FIX.4.4|9=0303|35=AI|34=3|49=EXC|56=002|57=002B35|52=20190617-21:04:32.420|131=20190617-000000000044.00|117=201906171604065_S|453=4|448=DCV|447=C|452=10|448=001B27|447=C|452=12|448=001|447=C|452=1|448=002B35|447=C|452=37|55=TFIT06110919|762=RFQF|48=20320|22=M|54=1|634=2.000|135=1000000000|62=20190617-22:00:00|297=16|10=071|
8=FIX.4.4|9=0192|35=R|34=4|49=EXC|56=002|52=20190617-21:05:01.806|131=20190617-000000000045.00|146=1|55=TFIT15260826|762=RFQF|48=20348|22=M|54=1|38=1500000000|453=2|448=007B26|447=C|452=12|448=007|447=C|452=1|10=251|
8=FIX.4.4|9=59|35=0|34=3|49=002|50=002B35|52=20190617-21:05:03.532|56=EXC|10=044|
8=FIX.4.4|9=105|35=A|34=1|49=002|50=002B35|52=20190617-21:46:38.209|56=EXC|98=0|108=30|141=Y|553=002FCM001|554=002FCM001|10=096|
8=FIX.4.4|9=0067|35=A|34=1|49=EXC|56=002|52=20190617-21:46:37.823|98=0|108=30|141=Y|10=016|
8=FIX.4.4|9=0225|35=R|34=2|49=EXC|56=002|57=002B35|52=20190617-21:46:45.077|131=20190617-000000000047.00|146=1|55=TFIC13280425|762=RFQF|48=20626|22=M|54=1|38=500000000|453=3|448=001B27|447=C|452=12|448=001|447=C|452=1|448=002B35|447=C|452=37|10=022|
8=FIX.4.4|9=207|35=S|34=2|49=002|50=002B35|52=20190617-21:47:01.460|56=EXC|55=TFIC13280425|62=20190617-22:00:00.000|117=201906171646351_S|131=20190617-000000000047.00|135=500000000|634=4|762=RFQF|453=1|448=DCV|447=C|452=10|10=110|
8=FIX.4.4|9=0302|35=AI|34=3|49=EXC|56=002|57=002B35|52=20190617-21:47:01.034|131=20190617-000000000047.00|117=201906171646351_S|453=4|448=DCV|447=C|452=10|448=001B27|447=C|452=12|448=001|447=C|452=1|448=002B35|447=C|452=37|55=TFIC13280425|762=RFQF|48=20626|22=M|54=1|634=4.000|135=500000000|62=20190617-22:00:00|297=16|10=029|
8=FIX.4.4|9=0516|35=8|34=4|49=EXC|56=002|57=002B35|52=20190617-21:47:19.810|11=201906171646351_S|17=15|37=0|150=F|1080=20190617-000000000047.00|1081=6|453=6|448=002B35|447=C|452=12|448=002|447=C|452=1|448=001B27|447=C|452=37|448=001|447=C|452=17|448=002FCM001|447=C|452=36|448=DCV|447=C|452=10|55=TFIC13280425|762=RFQF|48=20626|22=M|6=79.457|14=500000000|31=79.457|32=500000000|38=500000000|39=2|20102=79.457|54=2|60=20190617-21:47:19.810|75=20190617|63=1|64=20190617|151=0|1623=4.000|381=397286000.000|880=201906170000000021|828=99|10=193|
8=FIX.4.4|9=59|35=0|34=3|49=002|50=002B35|52=20190617-21:47:32.130|56=EXC|10=046|
8=FIX.4.4|9=0225|35=R|34=5|49=EXC|56=002|57=002B35|52=20190617-21:47:42.091|131=20190617-000000000048.00|146=1|55=TFIT16280428|762=RFQF|48=20399|22=M|54=1|38=500000000|453=3|448=001B27|447=C|452=12|448=001|447=C|452=1|448=002B35|447=C|452=37|10=050|
8=FIX.4.4|9=59|35=0|34=4|49=002|50=002B35|52=20190617-21:48:02.130|56=EXC|10=045|
8=FIX.4.4|9=207|35=S|34=5|49=002|50=002B35|52=20190617-21:48:03.242|56=EXC|55=TFIT16280428|62=20190617-22:00:00.000|117=201906171646352_S|131=20190617-000000000048.00|135=500000000|634=3|762=RFQF|453=1|448=DCV|447=C|452=10|10=138|
8=FIX.4.4|9=0302|35=AI|34=6|49=EXC|56=002|57=002B35|52=20190617-21:48:02.824|131=20190617-000000000048.00|117=201906171646352_S|453=4|448=DCV|447=C|452=10|448=001B27|447=C|452=12|448=001|447=C|452=1|448=002B35|447=C|452=37|55=TFIT16280428|762=RFQF|48=20399|22=M|54=1|634=3.000|135=500000000|62=20190617-22:00:00|297=16|10=072|
8=FIX.4.4|9=87|35=Z|34=6|49=002|50=002B35|52=20190617-21:48:21.911|56=EXC|117=201906171646352_S|298=5|10=006|
8=FIX.4.4|9=0287|35=AI|34=7|49=EXC|56=002|57=002B35|52=20190617-21:48:21.497|131=20190617-000000000048.00|117=201906171646352_S|298=5|453=4|448=DCV|447=C|452=10|448=001B27|447=C|452=12|448=001|447=C|452=1|448=002B35|447=C|452=37|55=TFIT16280428|762=RFQF|48=20399|22=M|54=1|634=3.000|135=500000000|297=17|10=110|
8=FIX.4.4|9=0049|35=0|34=8|49=EXC|56=002|52=20190617-21:48:51.000|10=177|
8=FIX.4.4|9=68|35=2|34=7|49=002|50=002B35|52=20190617-21:48:51.430|56=EXC|7=7|16=0|10=186|
8=FIX.4.4|9=0318|35=AI|34=7|43=Y|52=20190617-21:48:51.022|49=EXC|56=002|57=002B35|122=20190617-21:48:21.497|131=20190617-000000000048.00|117=201906171646352_S|298=5|453=4|448=DCV|447=C|452=10|448=001B27|447=C|452=12|448=001|447=C|452=1|448=002B35|447=C|452=37|55=TFIT16280428|762=RFQF|48=20399|22=M|54=1|634=3.000|135=500000000|297=17|10=108|
8=FIX.4.4|9=0065|35=4|34=8|43=Y|49=EXC|56=002|52=20190617-21:48:51.022|123=Y|36=9|10=194|
8=FIX.4.4|9=0055|35=4|34=9|49=EXC|56=002|52=20190617-21:48:51.026|36=10|10=195|
8=FIX.4.4|9=68|35=2|34=8|49=002|50=002B35|52=20190617-21:48:59.478|56=EXC|7=7|16=0|10=207|
8=FIX.4.4|9=0318|35=AI|34=7|43=Y|52=20190617-21:48:59.068|49=EXC|56=002|57=002B35|122=20190617-21:48:21.497|131=20190617-000000000048.00|117=201906171646352_S|298=5|453=4|448=DCV|447=C|452=10|448=001B27|447=C|452=12|448=001|447=C|452=1|448=002B35|447=C|452=37|55=TFIT16280428|762=RFQF|48=20399|22=M|54=1|634=3.000|135=500000000|297=17|10=126|
8=FIX.4.4|9=0066|35=4|34=8|43=Y|49=EXC|56=002|52=20190617-21:48:59.068|123=Y|36=10|10=253|
8=FIX.4.4|9=0056|35=4|34=10|49=EXC|56=002|52=20190617-21:48:59.068|36=11|10=251|
8=FIX.4.4|9=105|35=A|34=1|49=002|50=002B35|52=20190617-21:55:14.456|56=EXC|98=0|108=30|141=Y|553=002FCM001|554=002FCM001|10=094|
8=FIX.4.4|9=0067|35=A|34=1|49=EXC|56=002|52=20190617-21:55:14.547|98=0|108=30|141=Y|10=014|
8=FIX.4.4|9=0226|35=R|34=2|49=EXC|56=002|57=002B35|52=20190617-21:55:21.885|131=20190617-000000000053.00|146=1|55=TFIT06110919|762=RFQF|48=20320|22=M|54=1|38=1000000000|453=3|448=001B27|447=C|452=12|448=001|447=C|452=1|448=002B35|447=C|452=37|10=075|
8=FIX.4.4|9=208|35=S|34=2|49=002|50=002B35|52=20190617-21:55:43.435|56=EXC|55=TFIT06110919|62=20190617-22:00:00.000|117=201906171655125_S|131=20190617-000000000053.00|135=1000000000|634=2|762=RFQF|453=1|448=DCV|447=C|452=10|10=175|
8=FIX.4.4|9=0303|35=AI|34=3|49=EXC|56=002|57=002B35|52=20190617-21:55:43.503|131=20190617-000000000053.00|117=201906171655125_S|453=4|448=DCV|447=C|452=10|448=001B27|447=C|452=12|448=001|447=C|452=1|448=002B35|447=C|452=37|55=TFIT06110919|762=RFQF|48=20320|22=M|54=1|634=2.000|135=1000000000|62=20190617-22:00:00|297=16|10=084|
8=FIX.4.4|9=105|35=A|34=1|49=002|50=002B35|52=20190617-21:57:28.311|56=EXC|98=0|108=30|141=Y|553=002FCM001|554=002FCM001|10=091|
8=FIX.4.4|9=0067|35=A|34=1|49=EXC|56=002|52=20190617-21:57:28.415|98=0|108=30|141=Y|10=015|
8=FIX.4.4|9=0225|35=R|34=2|49=EXC|56=002|57=002B35|52=20190617-21:57:35.719|131=20190617-000000000056.00|146=1|55=TFIC13280425|762=RFQF|48=20626|22=M|54=1|38=500000000|453=3|448=001B27|447=C|452=12|448=001|447=C|452=1|448=002B35|447=C|452=37|10=026|
8=FIX.4.4|9=207|35=S|34=2|49=002|50=002B35|52=20190617-21:57:56.648|56=EXC|55=TFIC13280425|62=20190617-22:00:00.000|117=201906171657251_S|131=20190617-000000000056.00|135=500000000|634=4|762=RFQF|453=1|448=DCV|447=C|452=10|10=130|
8=FIX.4.4|9=0302|35=AI|34=3|49=EXC|56=002|57=002B35|52=20190617-21:57:56.731|131=20190617-000000000056.00|117=201906171657251_S|453=4|448=DCV|447=C|452=10|448=001B27|447=C|452=12|448=001|447=C|452=1|448=002B35|447=C|452=37|55=TFIC13280425|762=RFQF|48=20626|22=M|54=1|634=4.000|135=500000000|62=20190617-22:00:00|297=16|10=045|
8=FIX.4.4|9=0516|35=8|34=4|49=EXC|56=002|57=002B35|52=20190617-21:58:15.486|11=201906171657251_S|17=17|37=0|150=F|1080=20190617-000000000056.00|1081=6|453=6|448=002B35|447=C|452=12|448=002|447=C|452=1|448=001B27|447=C|452=37|448=001|447=C|452=17|448=002FCM001|447=C|452=36|448=DCV|447=C|452=10|55=TFIC13280425|762=RFQF|48=20626|22=M|6=79.457|14=500000000|31=79.457|32=500000000|38=500000000|39=2|20102=79.457|54=2|60=20190617-21:58:15.486|75=20190617|63=1|64=20190617|151=0|1623=4.000|381=397286000.000|880=201906170000000023|828=99|10=212|
8=FIX.4.4|9=59|35=0|34=3|49=002|50=002B35|52=20190617-21:58:27.301|56=EXC|10=052|
8=FIX.4.4|9=0049|35=0|34=5|49=EXC|56=002|52=20190617-21:58:45.000|10=178|
8=FIX.4.4|9=105|35=A|34=1|49=002|50=002B35|52=20190617-22:02:40.698|56=EXC|98=0|108=30|141=Y|553=002FCM001|554=002FCM001|10=094|
8=FIX.4.4|9=0067|35=A|34=1|49=EXC|56=002|52=20190617-22:02:40.836|98=0|108=30|141=Y|10=007|
8=FIX.4.4|9=0226|35=R|34=2|49=EXC|56=002|57=002B35|52=20190617-22:02:48.149|131=20190617-000000000059.00|146=1|55=TFIT06110919|762=RFQF|48=20320|22=M|54=1|38=1000000000|453=3|448=001B27|447=C|452=12|448=001|447=C|452=1|448=002B35|447=C|452=37|10=076|
8=FIX.4.4|9=208|35=S|34=2|49=002|50=002B35|52=20190617-22:03:09.494|56=EXC|55=TFIT06110919|62=20190617-22:00:00.000|117=201906171702385_S|131=20190617-000000000059.00|135=1000000000|634=2|762=RFQF|453=1|448=DCV|447=C|452=10|10=183|
8=FIX.4.4|9=0245|35=AI|34=3|49=EXC|56=002|57=002B35|52=20190617-22:03:09.611|117=201906171702385_S|453=1|448=DCV|447=C|452=10|55=TFIT06110919|762=RFQF|135=1000000000|62=20190617-22:00:00.000|297=9|300=99|58=(1512): Valor invalido para el tag ValidUntilTime(#62)|10=040|
8=FIX.4.4|9=105|35=A|34=1|49=002|50=002B35|52=20190618-12:45:28.049|56=EXC|98=0|108=30|141=Y|553=002FCM001|554=002FCM001|10=097|
8=FIX.4.4|9=0067|35=A|34=1|49=EXC|56=002|52=20190618-12:45:28.106|98=0|108=30|141=Y|10=010|
8=FIX.4.4|9=0226|35=R|34=2|49=EXC|56=002|57=002B35|52=20190618-12:45:33.232|131=20190618-000000000001.00|146=1|55=TFIT06110919|762=RFQF|48=20320|22=M|54=1|38=1000000000|453=3|448=001B27|447=C|452=12|448=001|447=C|452=1|448=002B35|447=C|452=37|10=058|
8=FIX.4.4|9=207|35=S|34=2|49=002|50=002B35|52=20190618-12:45:54.595|56=EXC|55=TFIT06110919|62=20190617-22:00:00.000|117=20190618745225_S|131=20190618-000000000001.00|135=1000000000|634=2|762=RFQF|453=1|448=DCV|447=C|452=10|10=130|
