8=FIX.4.4|9=110|35=A|34=1|49=002|50=002B35|52=20190604-16:47:41.516|56=EXC|43=Y|98=0|108=30|141=Y|553=002FCM001|554=002FCM001|10=086|
8=FIX.4.4|9=0067|35=A|34=1|49=EXC|56=002|52=20190604-16:47:24.681|98=0|108=30|141=Y|10=015|
8=FIX.4.4|9=0225|35=R|34=2|49=EXC|56=002|57=002B35|52=20190604-16:47:36.996|131=20190604-000000000017.00|146=1|55=TFIC13280425|762=RFQF|48=20626|22=M|54=1|38=500000000|453=3|448=001B27|447=C|452=12|448=001|447=C|452=1|448=002B35|447=C|452=37|10=026|
8=FIX.4.4|9=59|35=0|34=2|49=002|50=002B35|52=20190604-16:48:12.438|56=EXC|10=055|
8=FIX.4.4|9=198|35=S|34=3|49=002|50=002B35|52=20190604-16:48:19.932|56=EXC|55=TFIC13280425|62=20190617-22:00:00.000|117=63444514|131=20190604-000000000017.00|135=500000000|634=4|762=RFQF|453=1|448=DCV|447=C|452=10|10=104|
8=FIX.4.4|9=0293|35=AI|34=3|49=EXC|56=002|57=002B35|52=20190604-16:48:03.054|131=20190604-000000000017.00|117=63444514|453=4|448=DCV|447=C|452=10|448=001B27|447=C|452=12|448=001|447=C|452=1|448=002B35|447=C|452=37|55=TFIC13280425|762=RFQF|48=20626|22=M|54=1|634=4.000|135=500000000|62=20190617-22:00:00|297=16|10=013|
8=FIX.4.4|9=0049|35=0|34=4|49=EXC|56=002|52=20190604-16:48:33.000|10=173|
8=FIX.4.4|9=59|35=0|34=4|49=002|50=002B35|52=20190604-16:48:50.436|56=EXC|10=057|
8=FIX.4.4|9=0507|35=8|34=5|49=EXC|56=002|57=002B35|52=20190604-16:48:49.362|11=63444514|17=15|37=0|150=F|1080=20190604-000000000017.00|1081=6|453=6|448=002B35|447=C|452=12|448=002|447=C|452=1|448=001B27|447=C|452=37|448=001|447=C|452=17|448=002FCM001|447=C|452=36|448=DCV|447=C|452=10|55=TFIC13280425|762=RFQF|48=20626|22=M|6=79.346|14=500000000|31=79.346|32=500000000|38=500000000|39=2|20102=79.346|54=2|60=20190604-16:48:49.362|75=20190604|63=1|64=20190604|151=0|1623=4.000|381=396731500.000|880=201906040000000015|828=99|10=157|
8=FIX.4.4|9=145|35=3|34=5|49=002|50=002B35|52=20190604-16:49:06.488|56=EXC|45=5|58=Value is incorrect (out of range) for this tag, field=828|371=828|372=8|373=5|10=045|
8=FIX.4.4|9=68|35=1|34=6|49=002|50=002B35|52=20190604-16:49:35.437|56=EXC|112=TEST|10=083|
8=FIX.4.4|9=0058|35=0|34=6|49=EXC|56=002|52=20190604-16:49:18.557|112=TEST|10=214|
8=FIX.4.4|9=0049|35=0|34=7|49=EXC|56=002|52=20190604-16:49:48.000|10=183|
8=FIX.4.4|9=59|35=0|34=7|49=002|50=002B35|52=20190604-16:50:05.436|56=EXC|10=053|
8=FIX.4.4|9=0049|35=0|34=8|49=EXC|56=002|52=20190604-16:50:18.000|10=173|
8=FIX.4.4|9=59|35=0|34=8|49=002|50=002B35|52=20190604-16:50:35.435|56=EXC|10=056|
8=FIX.4.4|9=110|35=A|34=1|49=002|50=002B35|52=20190604-18:43:07.027|56=EXC|43=Y|98=0|108=30|141=Y|553=002FCM001|554=002FCM001|10=083|
8=FIX.4.4|9=0067|35=A|34=1|49=EXC|56=002|52=20190604-18:42:49.982|98=0|108=30|141=Y|10=023|
8=FIX.4.4|9=0225|35=R|34=2|49=EXC|56=002|57=002B35|52=20190604-18:43:03.344|131=20190604-000000000019.00|146=1|55=TFIC13280425|762=RFQF|48=20626|22=M|54=1|38=500000000|453=3|448=001B27|447=C|452=12|448=001|447=C|452=1|448=002B35|447=C|452=37|10=007|
8=FIX.4.4|9=59|35=0|34=2|49=002|50=002B35|52=20190604-18:43:37.673|56=EXC|10=060|
8=FIX.4.4|9=197|35=S|34=3|49=002|50=002B35|52=20190604-18:43:48.245|56=EXC|55=TFIC13280425|62=20190617-22:00:00.000|117=2433359|131=20190604-000000000019.00|135=500000000|634=4|762=RFQF|453=1|448=DCV|447=C|452=10|10=051|
8=FIX.4.4|9=0292|35=AI|34=3|49=EXC|56=002|57=002B35|52=20190604-18:43:30.796|131=20190604-000000000019.00|117=2433359|453=4|448=DCV|447=C|452=10|448=001B27|447=C|452=12|448=001|447=C|452=1|448=002B35|447=C|452=37|55=TFIC13280425|762=RFQF|48=20626|22=M|54=1|634=4.000|135=500000000|62=20190617-22:00:00|297=16|10=230|
8=FIX.4.4|9=0049|35=0|34=4|49=EXC|56=002|52=20190604-18:44:00.000|10=165|
8=FIX.4.4|9=59|35=0|34=4|49=002|50=002B35|52=20190604-18:44:18.667|56=EXC|10=065|
8=FIX.4.4|9=0506|35=8|34=5|49=EXC|56=002|57=002B35|52=20190604-18:44:18.732|11=2433359|17=17|37=0|150=F|1080=20190604-000000000019.00|1081=6|453=6|448=002B35|447=C|452=12|448=002|447=C|452=1|448=001B27|447=C|452=37|448=001|447=C|452=17|448=002FCM001|447=C|452=36|448=DCV|447=C|452=10|55=TFIC13280425|762=RFQF|48=20626|22=M|6=79.346|14=500000000|31=79.346|32=500000000|38=500000000|39=2|20102=79.346|54=2|60=20190604-18:44:18.732|75=20190604|63=1|64=20190604|151=0|1623=4.000|381=396731500.000|880=201906040000000017|828=99|10=102|
8=FIX.4.4|9=145|35=3|34=5|49=002|50=002B35|52=20190604-18:44:36.331|56=EXC|45=5|58=Value is incorrect (out of range) for this tag, field=828|371=828|372=8|373=5|10=032|
8=FIX.4.4|9=68|35=1|34=6|49=002|50=002B35|52=20190604-18:45:02.674|56=EXC|112=TEST|10=078|
8=FIX.4.4|9=0058|35=0|34=6|49=EXC|56=002|52=20190604-18:44:45.221|112=TEST|10=199|
8=FIX.4.4|9=110|35=A|34=1|49=002|50=002B35|52=20190604-18:46:59.386|56=EXC|43=Y|98=0|108=30|141=Y|553=002FCM001|554=002FCM001|10=101|
8=FIX.4.4|9=0067|35=A|34=1|49=EXC|56=002|52=20190604-18:46:42.228|98=0|108=30|141=Y|10=013|
8=FIX.4.4|9=0225|35=R|34=2|49=EXC|56=002|57=002B35|52=20190604-18:46:57.657|131=20190604-000000000021.00|146=1|55=TFIC13280425|762=RFQF|48=20626|22=M|54=1|38=500000000|453=3|448=001B27|447=C|452=12|448=001|447=C|452=1|448=002B35|447=C|452=37|10=019|
8=FIX.4.4|9=59|35=0|34=2|49=002|50=002B35|52=20190604-18:47:29.742|56=EXC|10=062|
8=FIX.4.4|9=198|35=S|34=3|49=002|50=002B35|52=20190604-18:47:43.588|56=EXC|55=TFIC13280425|62=20190617-22:00:00.000|117=69133099|131=20190604-000000000021.00|135=500000000|634=4|762=RFQF|453=1|448=DCV|447=C|452=10|10=113|
8=FIX.4.4|9=0293|35=AI|34=3|49=EXC|56=002|57=002B35|52=20190604-18:47:26.141|131=20190604-000000000021.00|117=69133099|453=4|448=DCV|447=C|452=10|448=001B27|447=C|452=12|448=001|447=C|452=1|448=002B35|447=C|452=37|55=TFIC13280425|762=RFQF|48=20626|22=M|54=1|634=4.000|135=500000000|62=20190617-22:00:00|297=16|10=020|
8=FIX.4.4|9=0049|35=0|34=4|49=EXC|56=002|52=20190604-18:47:56.000|10=179|
8=FIX.4.4|9=59|35=0|34=4|49=002|50=002B35|52=20190604-18:48:13.737|56=EXC|10=062|
8=FIX.4.4|9=0507|35=8|34=5|49=EXC|56=002|57=002B35|52=20190604-18:48:14.977|11=69133099|17=19|37=0|150=F|1080=20190604-000000000021.00|1081=6|453=6|448=002B35|447=C|452=12|448=002|447=C|452=1|448=001B27|447=C|452=37|448=001|447=C|452=17|448=002FCM001|447=C|452=36|448=DCV|447=C|452=10|55=TFIC13280425|762=RFQF|48=20626|22=M|6=79.346|14=500000000|31=79.346|32=500000000|38=500000000|39=2|20102=79.346|54=2|60=20190604-18:48:14.977|75=20190604|63=1|64=20190604|151=0|1623=4.000|381=396731500.000|880=201906040000000019|828=99|10=181|
8=FIX.4.4|9=145|35=3|34=5|49=002|50=002B35|52=20190604-18:48:32.514|56=EXC|45=5|58=Value is incorrect (out of range) for this tag, field=828|371=828|372=8|373=5|10=035|
8=FIX.4.4|9=68|35=1|34=6|49=002|50=002B35|52=20190604-18:48:58.743|56=EXC|112=TEST|10=089|
8=FIX.4.4|9=0058|35=0|34=6|49=EXC|56=002|52=20190604-18:48:41.290|112=TEST|10=205|
8=FIX.4.4|9=110|35=A|34=1|49=002|50=002B35|52=20190604-18:51:11.291|56=EXC|43=Y|98=0|108=30|141=Y|553=002FCM001|554=002FCM001|10=080|
8=FIX.4.4|9=0067|35=A|34=1|49=EXC|56=002|52=20190604-18:50:54.013|98=0|108=30|141=Y|10=003|
8=FIX.4.4|9=0225|35=R|34=2|49=EXC|56=002|57=002B35|52=20190604-18:50:59.880|131=20190604-000000000022.00|146=1|55=TFIC13280425|762=RFQF|48=20626|22=M|54=1|38=500000000|453=3|448=001B27|447=C|452=12|448=001|447=C|452=1|448=002B35|447=C|452=37|10=015|
8=FIX.4.4|9=197|35=S|34=2|49=002|50=002B35|52=20190604-18:51:28.022|56=EXC|55=TFIC13280425|62=20190617-22:00:00.000|117=8962309|131=20190604-000000000022.00|135=500000000|634=4|762=RFQF|453=1|448=DCV|447=C|452=10|10=042|
8=FIX.4.4|9=0292|35=AI|34=3|49=EXC|56=002|57=002B35|52=20190604-18:51:10.573|131=20190604-000000000022.00|117=8962309|453=4|448=DCV|447=C|452=10|448=001B27|447=C|452=12|448=001|447=C|452=1|448=002B35|447=C|452=37|55=TFIC13280425|762=RFQF|48=20626|22=M|54=1|634=4.000|135=500000000|62=20190617-22:00:00|297=16|10=222|
8=FIX.4.4|9=0506|35=8|34=4|49=EXC|56=002|57=002B35|52=20190604-18:51:18.940|11=8962309|17=20|37=0|150=F|1080=20190604-000000000022.00|1081=6|453=6|448=002B35|447=C|452=12|448=002|447=C|452=1|448=001B27|447=C|452=37|448=001|447=C|452=17|448=002FCM001|447=C|452=36|448=DCV|447=C|452=10|55=TFIC13280425|762=RFQF|48=20626|22=M|6=79.346|14=500000000|31=79.346|32=500000000|38=500000000|39=2|20102=79.346|54=2|60=20190604-18:51:18.940|75=20190604|63=1|64=20190604|151=0|1623=4.000|381=396731500.000|880=201906040000000020|828=99|10=089|
8=FIX.4.4|9=145|35=3|34=3|49=002|50=002B35|52=20190604-18:51:41.400|56=EXC|45=4|58=Value is incorrect (out of range) for this tag, field=828|371=828|372=8|373=5|10=020|
8=FIX.4.4|9=0049|35=0|34=5|49=EXC|56=002|52=20190604-18:51:48.000|10=176|
8=FIX.4.4|9=59|35=0|34=4|49=002|50=002B35|52=20190604-18:52:11.880|56=EXC|10=054|
8=FIX.4.4|9=0049|35=0|34=6|49=EXC|56=002|52=20190604-18:52:18.000|10=175|
8=FIX.4.4|9=59|35=0|34=5|49=002|50=002B35|52=20190604-18:52:41.882|56=EXC|10=060|
8=FIX.4.4|9=110|35=A|34=1|49=002|50=002B35|52=20190604-19:15:33.765|56=EXC|43=Y|98=0|108=30|141=Y|553=002FCM001|554=002FCM001|10=091|
8=FIX.4.4|9=0067|35=A|34=1|49=EXC|56=002|52=20190604-19:15:17.072|98=0|108=30|141=Y|10=009|
8=FIX.4.4|9=0225|35=R|34=2|49=EXC|56=002|57=002B35|52=20190604-19:15:19.511|131=20190604-000000000023.00|146=1|55=TFIC13280425|762=RFQF|48=20626|22=M|54=1|38=500000000|453=3|448=001B27|447=C|452=12|448=001|447=C|452=1|448=002B35|447=C|452=37|10=005|
8=FIX.4.4|9=198|35=S|34=2|49=002|50=002B35|52=20190604-19:15:49.958|56=EXC|55=TFIC13280425|62=20190617-22:00:00.000|117=31393875|131=20190604-000000000023.00|135=500000000|634=4|762=RFQF|453=1|448=DCV|447=C|452=10|10=116|
8=FIX.4.4|9=0293|35=AI|34=3|49=EXC|56=002|57=002B35|52=20190604-19:15:32.492|131=20190604-000000000023.00|117=31393875|453=4|448=DCV|447=C|452=10|448=001B27|447=C|452=12|448=001|447=C|452=1|448=002B35|447=C|452=37|55=TFIC13280425|762=RFQF|48=20626|22=M|54=1|634=4.000|135=500000000|62=20190617-22:00:00|297=16|10=023|
8=FIX.4.4|9=0507|35=8|34=4|49=EXC|56=002|57=002B35|52=20190604-19:15:39.319|11=31393875|17=21|37=0|150=F|1080=20190604-000000000023.00|1081=6|453=6|448=002B35|447=C|452=12|448=002|447=C|452=1|448=001B27|447=C|452=37|448=001|447=C|452=17|448=002FCM001|447=C|452=36|448=DCV|447=C|452=10|55=TFIC13280425|762=RFQF|48=20626|22=M|6=79.346|14=500000000|31=79.346|32=500000000|38=500000000|39=2|20102=79.346|54=2|60=20190604-19:15:39.319|75=20190604|63=1|64=20190604|151=0|1623=4.000|381=396731500.000|880=201906040000000021|828=99|10=151|
8=FIX.4.4|9=145|35=3|34=3|49=002|50=002B35|52=20190604-19:16:01.786|56=EXC|45=4|58=Value is incorrect (out of range) for this tag, field=828|371=828|372=8|373=5|10=035|
8=FIX.4.4|9=0049|35=0|34=5|49=EXC|56=002|52=20190604-19:16:09.000|10=175|
8=FIX.4.4|9=59|35=0|34=4|49=002|50=002B35|52=20190604-19:16:32.636|56=EXC|10=057|
8=FIX.4.4|9=0049|35=0|34=6|49=EXC|56=002|52=20190604-19:16:39.000|10=179|
8=FIX.4.4|9=59|35=0|34=5|49=002|50=002B35|52=20190604-19:17:02.636|56=EXC|10=056|
8=FIX.4.4|9=0049|35=0|34=7|49=EXC|56=002|52=20190604-19:17:09.000|10=178|
8=FIX.4.4|9=59|35=0|34=6|49=002|50=002B35|52=20190604-19:17:32.638|56=EXC|10=062|
8=FIX.4.4|9=0049|35=0|34=8|49=EXC|56=002|52=20190604-19:17:39.000|10=182|
8=FIX.4.4|9=59|35=0|34=7|49=002|50=002B35|52=20190604-19:18:02.636|56=EXC|10=059|
8=FIX.4.4|9=0049|35=0|34=9|49=EXC|56=002|52=20190604-19:18:09.000|10=181|
8=FIX.4.4|9=59|35=0|34=8|49=002|50=002B35|52=20190604-19:18:32.636|56=EXC|10=063|
8=FIX.4.4|9=0050|35=0|34=10|49=EXC|56=002|52=20190604-19:18:39.000|10=216|
8=FIX.4.4|9=59|35=0|34=9|49=002|50=002B35|52=20190604-19:19:02.637|56=EXC|10=063|
8=FIX.4.4|9=0050|35=0|34=11|49=EXC|56=002|52=20190604-19:19:09.000|10=215|
8=FIX.4.4|9=60|35=0|34=10|49=002|50=002B35|52=20190604-19:19:32.638|56=EXC|10=099|
8=FIX.4.4|9=110|35=A|34=1|49=002|50=002B35|52=20190605-18:44:29.799|56=EXC|43=Y|98=0|108=30|141=Y|553=002FCM001|554=002FCM001|10=105|
8=FIX.4.4|9=0067|35=A|34=1|49=EXC|56=002|52=20190605-18:44:29.855|98=0|108=30|141=Y|10=023|
8=FIX.4.4|9=0225|35=R|34=2|49=EXC|56=002|57=002B35|52=20190605-18:44:32.028|131=20190605-000000000040.00|146=1|55=TFIC13280425|762=RFQF|48=20626|22=M|54=1|38=500000000|453=3|448=001B27|447=C|452=12|448=001|447=C|452=1|448=002B35|447=C|452=37|10=005|
8=FIX.4.4|9=198|35=S|34=2|49=002|50=002B35|52=20190605-18:44:37.900|56=EXC|55=TFIC13280425|62=20190617-22:00:00.000|117=23314809|131=20190605-000000000040.00|135=500000000|634=4|762=RFQF|453=1|448=DCV|447=C|452=10|10=093|
8=FIX.4.4|9=0293|35=AI|34=3|49=EXC|56=002|57=002B35|52=20190605-18:44:37.922|131=20190605-000000000040.00|117=23314809|453=4|448=DCV|447=C|452=10|448=001B27|447=C|452=12|448=001|447=C|452=1|448=002B35|447=C|452=37|55=TFIC13280425|762=RFQF|48=20626|22=M|54=1|634=4.000|135=500000000|62=20190617-22:00:00|297=16|10=019|
8=FIX.4.4|9=0507|35=8|34=4|49=EXC|56=002|57=002B35|52=20190605-18:44:43.637|11=23314809|17=24|37=0|150=F|1080=20190605-000000000040.00|1081=6|453=6|448=002B35|447=C|452=12|448=002|447=C|452=1|448=001B27|447=C|452=37|448=001|447=C|452=17|448=002FCM001|447=C|452=36|448=DCV|447=C|452=10|55=TFIC13280425|762=RFQF|48=20626|22=M|6=79.354|14=500000000|31=79.354|32=500000000|38=500000000|39=2|20102=79.354|54=2|60=20190605-18:44:43.637|75=20190605|63=1|64=20190605|151=0|1623=4.000|381=396774000.000|880=201906050000000024|828=99|10=150|
8=FIX.4.4|9=110|35=A|34=1|49=002|50=002B35|52=20190605-19:08:36.719|56=EXC|43=Y|98=0|108=30|141=Y|553=002FCM001|554=002FCM001|10=096|
8=FIX.4.4|9=0067|35=A|34=1|49=EXC|56=002|52=20190605-19:08:36.465|98=0|108=30|141=Y|10=019|
8=FIX.4.4|9=0225|35=R|34=2|49=EXC|56=002|57=002B35|52=20190605-19:08:38.603|131=20190605-000000000042.00|146=1|55=TFIC13280425|762=RFQF|48=20626|22=M|54=1|38=500000000|453=3|448=001B27|447=C|452=12|448=001|447=C|452=1|448=002B35|447=C|452=37|10=013|
8=FIX.4.4|9=197|35=S|34=2|49=002|50=002B35|52=20190605-19:08:44.936|56=EXC|55=TFIC13280425|62=20190617-22:00:00.000|117=4801727|131=20190605-000000000042.00|135=500000000|634=4|762=RFQF|453=1|448=DCV|447=C|452=10|10=053|
8=FIX.4.4|9=0292|35=AI|34=3|49=EXC|56=002|57=002B35|52=20190605-19:08:44.636|131=20190605-000000000042.00|117=4801727|453=4|448=DCV|447=C|452=10|448=001B27|447=C|452=12|448=001|447=C|452=1|448=002B35|447=C|452=37|55=TFIC13280425|762=RFQF|48=20626|22=M|54=1|634=4.000|135=500000000|62=20190617-22:00:00|297=16|10=228|
8=FIX.4.4|9=110|35=A|34=1|49=002|50=002B35|52=20190605-19:16:00.650|56=EXC|43=Y|98=0|108=30|141=Y|553=002FCM001|554=002FCM001|10=080|
8=FIX.4.4|9=0067|35=A|34=1|49=EXC|56=002|52=20190605-19:16:00.390|98=0|108=30|141=Y|10=006|
8=FIX.4.4|9=0225|35=R|34=2|49=EXC|56=002|57=002B35|52=20190605-19:16:02.551|131=20190605-000000000044.00|146=1|55=TFIC13280425|762=RFQF|48=20626|22=M|54=1|38=500000000|453=3|448=001B27|447=C|452=12|448=001|447=C|452=1|448=002B35|447=C|452=37|10=007|
8=FIX.4.4|9=197|35=S|34=2|49=002|50=002B35|52=20190605-19:16:09.005|56=EXC|55=TFIC13280425|62=20190617-22:00:00.000|117=8316526|131=20190605-000000000044.00|135=500000000|634=4|762=RFQF|453=1|448=DCV|447=C|452=10|10=044|
8=FIX.4.4|9=0292|35=AI|34=3|49=EXC|56=002|57=002B35|52=20190605-19:16:08.700|131=20190605-000000000044.00|117=8316526|453=4|448=DCV|447=C|452=10|448=001B27|447=C|452=12|448=001|447=C|452=1|448=002B35|447=C|452=37|55=TFIC13280425|762=RFQF|48=20626|22=M|54=1|634=4.000|135=500000000|62=20190617-22:00:00|297=16|10=223|
8=FIX.4.4|9=0506|35=8|34=4|49=EXC|56=002|57=002B35|52=20190605-19:16:14.335|11=8316526|17=27|37=0|150=F|1080=20190605-000000000044.00|1081=6|453=6|448=002B35|447=C|452=12|448=002|447=C|452=1|448=001B27|447=C|452=37|448=001|447=C|452=17|448=002FCM001|447=C|452=36|448=DCV|447=C|452=10|55=TFIC13280425|762=RFQF|48=20626|22=M|6=79.354|14=500000000|31=79.354|32=500000000|38=500000000|39=2|20102=79.354|54=2|60=20190605-19:16:14.335|75=20190605|63=1|64=20190605|151=0|1623=4.000|381=396774000.000|880=201906050000000027|828=99|10=098|
8=FIX.4.4|9=110|35=A|34=1|49=002|50=002B35|52=20190605-19:17:00.291|56=EXC|43=Y|98=0|108=30|141=Y|553=002FCM001|554=002FCM001|10=082|
8=FIX.4.4|9=0067|35=A|34=1|49=EXC|56=002|52=20190605-19:17:00.173|98=0|108=30|141=Y|10=006|
8=FIX.4.4|9=0225|35=R|34=2|49=EXC|56=002|57=002B35|52=20190605-19:17:03.484|131=20190605-000000000045.00|146=1|55=TFIC13280425|762=RFQF|48=20626|22=M|54=1|38=500000000|453=3|448=001B27|447=C|452=12|448=001|447=C|452=1|448=002B35|447=C|452=37|10=015|
8=FIX.4.4|9=197|35=S|34=2|49=002|50=002B35|52=20190605-19:17:10.921|56=EXC|55=TFIC13280425|62=20190617-22:00:00.000|117=5088417|131=20190605-000000000045.00|135=500000000|634=4|762=RFQF|453=1|448=DCV|447=C|452=10|10=047|
8=FIX.4.4|9=0292|35=AI|34=3|49=EXC|56=002|57=002B35|52=20190605-19:17:10.621|131=20190605-000000000045.00|117=5088417|453=4|448=DCV|447=C|452=10|448=001B27|447=C|452=12|448=001|447=C|452=1|448=002B35|447=C|452=37|55=TFIC13280425|762=RFQF|48=20626|22=M|54=1|634=4.000|135=500000000|62=20190617-22:00:00|297=16|10=222|
8=FIX.4.4|9=0506|35=8|34=4|49=EXC|56=002|57=002B35|52=20190605-19:17:16.373|11=5088417|17=28|37=0|150=F|1080=20190605-000000000045.00|1081=6|453=6|448=002B35|447=C|452=12|448=002|447=C|452=1|448=001B27|447=C|452=37|448=001|447=C|452=17|448=002FCM001|447=C|452=36|448=DCV|447=C|452=10|55=TFIC13280425|762=RFQF|48=20626|22=M|6=79.354|14=500000000|31=79.354|32=500000000|38=500000000|39=2|20102=79.354|54=2|60=20190605-19:17:16.373|75=20190605|63=1|64=20190605|151=0|1623=4.000|381=396774000.000|880=201906050000000028|828=99|10=113|
8=FIX.4.4|9=110|35=A|34=1|49=002|50=002B35|52=20190605-19:17:44.706|56=EXC|43=Y|98=0|108=30|141=Y|553=002FCM001|554=002FCM001|10=091|
8=FIX.4.4|9=0067|35=A|34=1|49=EXC|56=002|52=20190605-19:17:44.452|98=0|108=30|141=Y|10=014|
8=FIX.4.4|9=0225|35=R|34=2|49=EXC|56=002|57=002B35|52=20190605-19:17:46.660|131=20190605-000000000046.00|146=1|55=TFIC13280425|762=RFQF|48=20626|22=M|54=1|38=500000000|453=3|448=001B27|447=C|452=12|448=001|447=C|452=1|448=002B35|447=C|452=37|10=019|
8=FIX.4.4|9=197|35=S|34=2|49=002|50=002B35|52=20190605-19:17:53.315|56=EXC|55=TFIC13280425|62=20190617-22:00:00.000|117=6564311|131=20190605-000000000046.00|135=500000000|634=4|762=RFQF|453=1|448=DCV|447=C|452=10|10=045|
8=FIX.4.4|9=0292|35=AI|34=3|49=EXC|56=002|57=002B35|52=20190605-19:17:53.018|131=20190605-000000000046.00|117=6564311|453=4|448=DCV|447=C|452=10|448=001B27|447=C|452=12|448=001|447=C|452=1|448=002B35|447=C|452=37|55=TFIC13280425|762=RFQF|48=20626|22=M|54=1|634=4.000|135=500000000|62=20190617-22:00:00|297=16|10=223|
8=FIX.4.4|9=0506|35=8|34=4|49=EXC|56=002|57=002B35|52=20190605-19:17:58.619|11=6564311|17=29|37=0|150=F|1080=20190605-000000000046.00|1081=6|453=6|448=002B35|447=C|452=12|448=002|447=C|452=1|448=001B27|447=C|452=37|448=001|447=C|452=17|448=002FCM001|447=C|452=36|448=DCV|447=C|452=10|55=TFIC13280425|762=RFQF|48=20626|22=M|6=79.354|14=500000000|31=79.354|32=500000000|38=500000000|39=2|20102=79.354|54=2|60=20190605-19:17:58.619|75=20190605|63=1|64=20190605|151=0|1623=4.000|381=396774000.000|880=201906050000000029|828=99|10=127|
8=FIX.4.4|9=59|35=0|34=3|49=002|50=002B35|52=20190605-19:18:23.600|56=EXC|10=050|
8=FIX.4.4|9=0049|35=0|34=5|49=EXC|56=002|52=20190605-19:18:28.000|10=179|
8=FIX.4.4|9=110|35=A|34=1|49=002|50=002B35|52=20190605-19:33:41.956|56=EXC|43=Y|98=0|108=30|141=Y|553=002FCM001|554=002FCM001|10=093|
8=FIX.4.4|9=0067|35=A|34=1|49=EXC|56=002|52=20190605-19:33:41.688|98=0|108=30|141=Y|10=020|
8=FIX.4.4|9=0225|35=R|34=2|49=EXC|56=002|57=002B35|52=20190605-19:33:44.067|131=20190605-000000000049.00|146=1|55=TFIC13280425|762=RFQF|48=20626|22=M|54=1|38=500000000|453=3|448=001B27|447=C|452=12|448=001|447=C|452=1|448=002B35|447=C|452=37|10=019|
8=FIX.4.4|9=198|35=S|34=2|49=002|50=002B35|52=20190605-19:33:50.413|56=EXC|55=TFIC13280425|62=20190617-22:00:00.000|117=18824471|131=20190605-000000000049.00|135=500000000|634=4|762=RFQF|453=1|448=DCV|447=C|452=10|10=100|
8=FIX.4.4|9=0293|35=AI|34=3|49=EXC|56=002|57=002B35|52=20190605-19:33:50.097|131=20190605-000000000049.00|117=18824471|453=4|448=DCV|447=C|452=10|448=001B27|447=C|452=12|448=001|447=C|452=1|448=002B35|447=C|452=37|55=TFIC13280425|762=RFQF|48=20626|22=M|54=1|634=4.000|135=500000000|62=20190617-22:00:00|297=16|10=030|
8=FIX.4.4|9=0507|35=8|34=4|49=EXC|56=002|57=002B35|52=20190605-19:33:55.746|11=18824471|17=32|37=0|150=F|1080=20190605-000000000049.00|1081=6|453=6|448=002B35|447=C|452=12|448=002|447=C|452=1|448=001B27|447=C|452=37|448=001|447=C|452=17|448=002FCM001|447=C|452=36|448=DCV|447=C|452=10|55=TFIC13280425|762=RFQF|48=20626|22=M|6=79.354|14=500000000|31=79.354|32=500000000|38=500000000|39=2|20102=79.354|54=2|60=20190605-19:33:55.746|75=20190605|63=1|64=20190605|151=0|1623=4.000|381=396774000.000|880=201906050000000032|828=99|10=168|
8=FIX.4.4|9=110|35=A|34=1|49=002|50=002B35|52=20190605-19:36:17.963|56=EXC|43=Y|98=0|108=30|141=Y|553=002FCM001|554=002FCM001|10=097|
8=FIX.4.4|9=0067|35=A|34=1|49=EXC|56=002|52=20190605-19:36:18.033|98=0|108=30|141=Y|10=011|
8=FIX.4.4|9=110|35=A|34=1|49=002|50=002B35|52=20190605-19:37:49.430|56=EXC|43=Y|98=0|108=30|141=Y|553=002FCM001|554=002FCM001|10=092|
8=FIX.4.4|9=0067|35=A|34=1|49=EXC|56=002|52=20190605-19:37:49.505|98=0|108=30|141=Y|10=020|
8=FIX.4.4|9=0225|35=R|34=2|49=EXC|56=002|57=002B35|52=20190605-19:37:51.766|131=20190605-000000000051.00|146=1|55=TFIC13280425|762=RFQF|48=20626|22=M|54=1|38=500000000|453=3|448=001B27|447=C|452=12|448=001|447=C|452=1|448=002B35|447=C|452=37|10=020|
8=FIX.4.4|9=198|35=S|34=2|49=002|50=002B35|52=20190605-19:37:57.948|56=EXC|55=TFIC13280425|62=20190617-22:00:00.000|117=80782983|131=20190605-000000000051.00|135=500000000|634=4|762=RFQF|453=1|448=DCV|447=C|452=10|10=127|
8=FIX.4.4|9=0293|35=AI|34=3|49=EXC|56=002|57=002B35|52=20190605-19:37:57.941|131=20190605-000000000051.00|117=80782983|453=4|448=DCV|447=C|452=10|448=001B27|447=C|452=12|448=001|447=C|452=1|448=002B35|447=C|452=37|55=TFIC13280425|762=RFQF|48=20626|22=M|54=1|634=4.000|135=500000000|62=20190617-22:00:00|297=16|10=042|
8=FIX.4.4|9=0507|35=8|34=4|49=EXC|56=002|57=002B35|52=20190605-19:38:03.898|11=80782983|17=34|37=0|150=F|1080=20190605-000000000051.00|1081=6|453=6|448=002B35|447=C|452=12|448=002|447=C|452=1|448=001B27|447=C|452=37|448=001|447=C|452=17|448=002FCM001|447=C|452=36|448=DCV|447=C|452=10|55=TFIC13280425|762=RFQF|48=20626|22=M|6=79.354|14=500000000|31=79.354|32=500000000|38=500000000|39=2|20102=79.354|54=2|60=20190605-19:38:03.898|75=20190605|63=1|64=20190605|151=0|1623=4.000|381=396774000.000|880=201906050000000034|828=99|10=187|
8=FIX.4.4|9=110|35=A|34=1|49=002|50=002B35|52=20190605-19:41:52.194|56=EXC|43=Y|98=0|108=30|141=Y|553=002FCM001|554=002FCM001|10=088|
8=FIX.4.4|9=0067|35=A|34=1|49=EXC|56=002|52=20190605-19:41:52.361|98=0|108=30|141=Y|10=009|
8=FIX.4.4|9=0225|35=R|34=2|49=EXC|56=002|57=002B35|52=20190605-19:41:54.546|131=20190605-000000000053.00|146=1|55=TFIC13280425|762=RFQF|48=20626|22=M|54=1|38=500000000|453=3|448=001B27|447=C|452=12|448=001|447=C|452=1|448=002B35|447=C|452=37|10=016|
8=FIX.4.4|9=198|35=S|34=2|49=002|50=002B35|52=20190605-19:42:00.539|56=EXC|55=TFIC13280425|62=20190617-22:00:00.000|117=17628493|131=20190605-000000000053.00|135=500000000|634=4|762=RFQF|453=1|448=DCV|447=C|452=10|10=104|
8=FIX.4.4|9=0293|35=AI|34=3|49=EXC|56=002|57=002B35|52=20190605-19:42:00.529|131=20190605-000000000053.00|117=17628493|453=4|448=DCV|447=C|452=10|448=001B27|447=C|452=12|448=001|447=C|452=1|448=002B35|447=C|452=37|55=TFIC13280425|762=RFQF|48=20626|22=M|54=1|634=4.000|135=500000000|62=20190617-22:00:00|297=16|10=025|
8=FIX.4.4|9=0507|35=8|34=4|49=EXC|56=002|57=002B35|52=20190605-19:42:14.770|11=17628493|17=36|37=0|150=F|1080=20190605-000000000053.00|1081=6|453=6|448=002B35|447=C|452=12|448=002|447=C|452=1|448=001B27|447=C|452=37|448=001|447=C|452=17|448=002FCM001|447=C|452=36|448=DCV|447=C|452=10|55=TFIC13280425|762=RFQF|48=20626|22=M|6=79.354|14=500000000|31=79.354|32=500000000|38=500000000|39=2|20102=79.354|54=2|60=20190605-19:42:14.770|75=20190605|63=1|64=20190605|151=0|1623=4.000|381=396774000.000|880=201906050000000036|828=99|10=160|
8=FIX.4.4|9=110|35=A|34=1|49=002|50=002B35|52=20190605-19:43:36.275|56=EXC|43=Y|98=0|108=30|141=Y|553=002FCM001|554=002FCM001|10=092|
8=FIX.4.4|9=0067|35=A|34=1|49=EXC|56=002|52=20190605-19:43:36.330|98=0|108=30|141=Y|10=009|
8=FIX.4.4|9=0225|35=R|34=2|49=EXC|56=002|57=002B35|52=20190605-19:43:38.728|131=20190605-000000000054.00|146=1|55=TFIC13280425|762=RFQF|48=20626|22=M|54=1|38=500000000|453=3|448=001B27|447=C|452=12|448=001|447=C|452=1|448=002B35|447=C|452=37|10=023|
8=FIX.4.4|9=198|35=S|34=2|49=002|50=002B35|52=20190605-19:43:44.778|56=EXC|55=TFIC13280425|62=20190617-22:00:00.000|117=24787300|131=20190605-000000000054.00|135=500000000|634=4|762=RFQF|453=1|448=DCV|447=C|452=10|10=110|
8=FIX.4.4|9=0293|35=AI|34=3|49=EXC|56=002|57=002B35|52=20190605-19:43:44.766|131=20190605-000000000054.00|117=24787300|453=4|448=DCV|447=C|452=10|448=001B27|447=C|452=12|448=001|447=C|452=1|448=002B35|447=C|452=37|55=TFIC13280425|762=RFQF|48=20626|22=M|54=1|634=4.000|135=500000000|62=20190617-22:00:00|297=16|10=029|
8=FIX.4.4|9=0507|35=8|34=4|49=EXC|56=002|57=002B35|52=20190605-19:43:58.914|11=24787300|17=37|37=0|150=F|1080=20190605-000000000054.00|1081=6|453=6|448=002B35|447=C|452=12|448=002|447=C|452=1|448=001B27|447=C|452=37|448=001|447=C|452=17|448=002FCM001|447=C|452=36|448=DCV|447=C|452=10|55=TFIC13280425|762=RFQF|48=20626|22=M|6=79.354|14=500000000|31=79.354|32=500000000|38=500000000|39=2|20102=79.354|54=2|60=20190605-19:43:58.914|75=20190605|63=1|64=20190605|151=0|1623=4.000|381=396774000.000|880=201906050000000037|828=99|10=172|
8=FIX.4.4|9=110|35=A|34=1|49=002|50=002B35|52=20190605-19:44:21.732|56=EXC|43=Y|98=0|108=30|141=Y|553=002FCM001|554=002FCM001|10=085|
8=FIX.4.4|9=0067|35=A|34=1|49=EXC|56=002|52=20190605-19:44:21.795|98=0|108=30|141=Y|10=019|
8=FIX.4.4|9=0225|35=R|34=2|49=EXC|56=002|57=002B35|52=20190605-19:44:24.786|131=20190605-000000000055.00|146=1|55=TFIC13280425|762=RFQF|48=20626|22=M|54=1|38=500000000|453=3|448=001B27|447=C|452=12|448=001|447=C|452=1|448=002B35|447=C|452=37|10=024|
8=FIX.4.4|9=198|35=S|34=2|49=002|50=002B35|52=20190605-19:44:31.291|56=EXC|55=TFIC13280425|62=20190617-22:00:00.000|117=29270657|131=20190605-000000000055.00|135=500000000|634=4|762=RFQF|453=1|448=DCV|447=C|452=10|10=105|
8=FIX.4.4|9=0293|35=AI|34=3|49=EXC|56=002|57=002B35|52=20190605-19:44:31.281|131=20190605-000000000055.00|117=29270657|453=4|448=DCV|447=C|452=10|448=001B27|447=C|452=12|448=001|447=C|452=1|448=002B35|447=C|452=37|55=TFIC13280425|762=RFQF|48=20626|22=M|54=1|634=4.000|135=500000000|62=20190617-22:00:00|297=16|10=026|
8=FIX.4.4|9=0507|35=8|34=4|49=EXC|56=002|57=002B35|52=20190605-19:44:39.722|11=29270657|17=38|37=0|150=F|1080=20190605-000000000055.00|1081=6|453=6|448=002B35|447=C|452=12|448=002|447=C|452=1|448=001B27|447=C|452=37|448=001|447=C|452=17|448=002FCM001|447=C|452=36|448=DCV|447=C|452=10|55=TFIC13280425|762=RFQF|48=20626|22=M|6=79.354|14=500000000|31=79.354|32=500000000|38=500000000|39=2|20102=79.354|54=2|60=20190605-19:44:39.722|75=20190605|63=1|64=20190605|151=0|1623=4.000|381=396774000.000|880=201906050000000038|828=99|10=176|
8=FIX.4.4|9=59|35=0|34=3|49=002|50=002B35|52=20190605-19:45:01.600|56=EXC|10=046|
8=FIX.4.4|9=110|35=A|34=1|49=002|50=002B35|52=20190605-19:46:17.736|56=EXC|43=Y|98=0|108=30|141=Y|553=002FCM001|554=002FCM001|10=096|
8=FIX.4.4|9=0067|35=A|34=1|49=EXC|56=002|52=20190605-19:46:17.786|98=0|108=30|141=Y|10=026|
8=FIX.4.4|9=0225|35=R|34=2|49=EXC|56=002|57=002B35|52=20190605-19:46:20.022|131=20190605-000000000056.00|146=1|55=TFIC13280425|762=RFQF|48=20626|22=M|54=1|38=500000000|453=3|448=001B27|447=C|452=12|448=001|447=C|452=1|448=002B35|447=C|452=37|10=006|
8=FIX.4.4|9=198|35=S|34=2|49=002|50=002B35|52=20190605-19:46:26.898|56=EXC|55=TFIC13280425|62=20190617-22:00:00.000|117=35128046|131=20190605-000000000056.00|135=500000000|634=4|762=RFQF|453=1|448=DCV|447=C|452=10|10=116|
8=FIX.4.4|9=0293|35=AI|34=3|49=EXC|56=002|57=002B35|52=20190605-19:46:26.890|131=20190605-000000000056.00|117=35128046|453=4|448=DCV|447=C|452=10|448=001B27|447=C|452=12|448=001|447=C|452=1|448=002B35|447=C|452=37|55=TFIC13280425|762=RFQF|48=20626|22=M|54=1|634=4.000|135=500000000|62=20190617-22:00:00|297=16|10=030|
8=FIX.4.4|9=0507|35=8|34=4|49=EXC|56=002|57=002B35|52=20190605-19:46:32.693|11=35128046|17=39|37=0|150=F|1080=20190605-000000000056.00|1081=6|453=6|448=002B35|447=C|452=12|448=002|447=C|452=1|448=001B27|447=C|452=37|448=001|447=C|452=17|448=002FCM001|447=C|452=36|448=DCV|447=C|452=10|55=TFIC13280425|762=RFQF|48=20626|22=M|6=79.354|14=500000000|31=79.354|32=500000000|38=500000000|39=2|20102=79.354|54=2|60=20190605-19:46:32.693|75=20190605|63=1|64=20190605|151=0|1623=4.000|381=396774000.000|880=201906050000000039|828=99|10=174|
8=FIX.4.4|9=110|35=A|34=1|49=002|50=002B35|52=20190605-19:47:45.780|56=EXC|43=Y|98=0|108=30|141=Y|553=002FCM001|554=002FCM001|10=097|
8=FIX.4.4|9=0067|35=A|34=1|49=EXC|56=002|52=20190605-19:47:45.810|98=0|108=30|141=Y|10=016|
8=FIX.4.4|9=0225|35=R|34=2|49=EXC|56=002|57=002B35|52=20190605-19:47:48.509|131=20190605-000000000057.00|146=1|55=TFIC13280425|762=RFQF|48=20626|22=M|54=1|38=500000000|453=3|448=001B27|447=C|452=12|448=001|447=C|452=1|448=002B35|447=C|452=37|10=028|
8=FIX.4.4|9=198|35=S|34=2|49=002|50=002B35|52=20190605-19:47:54.561|56=EXC|55=TFIC13280425|62=20190617-22:00:00.000|117=28877627|131=20190605-000000000057.00|135=500000000|634=4|762=RFQF|453=1|448=DCV|447=C|452=10|10=124|
8=FIX.4.4|9=0293|35=AI|34=3|49=EXC|56=002|57=002B35|52=20190605-19:47:54.544|131=20190605-000000000057.00|117=28877627|453=4|448=DCV|447=C|452=10|448=001B27|447=C|452=12|448=001|447=C|452=1|448=002B35|447=C|452=37|55=TFIC13280425|762=RFQF|48=20626|22=M|54=1|634=4.000|135=500000000|62=20190617-22:00:00|297=16|10=047|
8=FIX.4.4|9=0507|35=8|34=4|49=EXC|56=002|57=002B35|52=20190605-19:48:10.174|11=28877627|17=40|37=0|150=F|1080=20190605-000000000057.00|1081=6|453=6|448=002B35|447=C|452=12|448=002|447=C|452=1|448=001B27|447=C|452=37|448=001|447=C|452=17|448=002FCM001|447=C|452=36|448=DCV|447=C|452=10|55=TFIC13280425|762=RFQF|48=20626|22=M|6=79.354|14=500000000|31=79.354|32=500000000|38=500000000|39=2|20102=79.354|54=2|60=20190605-19:48:10.174|75=20190605|63=1|64=20190605|151=0|1623=4.000|381=396774000.000|880=201906050000000040|828=99|10=161|
8=FIX.4.4|9=59|35=0|34=3|49=002|50=002B35|52=20190605-19:48:24.668|56=EXC|10=068|
8=FIX.4.4|9=0049|35=0|34=5|49=EXC|56=002|52=20190605-19:48:40.000|10=176|
8=FIX.4.4|9=59|35=0|34=4|49=002|50=002B35|52=20190605-19:48:54.679|56=EXC|10=074|
8=FIX.4.4|9=0049|35=0|34=6|49=EXC|56=002|52=20190605-19:49:10.000|10=175|
8=FIX.4.4|9=110|35=A|34=1|49=002|50=002B35|52=20190605-19:53:09.131|56=EXC|43=Y|98=0|108=30|141=Y|553=002FCM001|554=002FCM001|10=084|
8=FIX.4.4|9=0067|35=A|34=1|49=EXC|56=002|52=20190605-19:53:09.233|98=0|108=30|141=Y|10=012|
8=FIX.4.4|9=0225|35=R|34=2|49=EXC|56=002|57=002B35|52=20190605-19:53:11.369|131=20190605-000000000059.00|146=1|55=TFIC13280425|762=RFQF|48=20626|22=M|54=1|38=500000000|453=3|448=001B27|447=C|452=12|448=001|447=C|452=1|448=002B35|447=C|452=37|10=021|
8=FIX.4.4|9=198|35=S|34=2|49=002|50=002B35|52=20190605-19:53:18.808|56=EXC|55=TFIC13280425|62=20190617-22:00:00.000|117=19371808|131=20190605-000000000059.00|135=500000000|634=4|762=RFQF|453=1|448=DCV|447=C|452=10|10=117|
8=FIX.4.4|9=0293|35=AI|34=3|49=EXC|56=002|57=002B35|52=20190605-19:53:18.794|131=20190605-000000000059.00|117=19371808|453=4|448=DCV|447=C|452=10|448=001B27|447=C|452=12|448=001|447=C|452=1|448=002B35|447=C|452=37|55=TFIC13280425|762=RFQF|48=20626|22=M|54=1|634=4.000|135=500000000|62=20190617-22:00:00|297=16|10=043|
8=FIX.4.4|9=0507|35=8|34=4|49=EXC|56=002|57=002B35|52=20190605-19:53:36.647|11=19371808|17=42|37=0|150=F|1080=20190605-000000000059.00|1081=6|453=6|448=002B35|447=C|452=12|448=002|447=C|452=1|448=001B27|447=C|452=37|448=001|447=C|452=17|448=002FCM001|447=C|452=36|448=DCV|447=C|452=10|55=TFIC13280425|762=RFQF|48=20626|22=M|6=79.354|14=500000000|31=79.354|32=500000000|38=500000000|39=2|20102=79.354|54=2|60=20190605-19:53:36.647|75=20190605|63=1|64=20190605|151=0|1623=4.000|381=396774000.000|880=201906050000000042|828=99|10=175|
8=FIX.4.4|9=59|35=0|34=3|49=002|50=002B35|52=20190605-19:53:48.989|56=EXC|10=076|
8=FIX.4.4|9=0049|35=0|34=5|49=EXC|56=002|52=20190605-19:54:06.000|10=175|
8=FIX.4.4|9=110|35=A|34=1|49=002|50=002B35|52=20190605-20:00:23.732|56=EXC|43=Y|98=0|108=30|141=Y|553=002FCM001|554=002FCM001|10=071|
8=FIX.4.4|9=0067|35=A|34=1|49=EXC|56=002|52=20190605-20:00:23.770|98=0|108=30|141=Y|10=254|
8=FIX.4.4|9=0225|35=R|34=2|49=EXC|56=002|57=002B35|52=20190605-20:00:25.922|131=20190605-000000000060.00|146=1|55=TFIC13280425|762=RFQF|48=20626|22=M|54=1|38=500000000|453=3|448=001B27|447=C|452=12|448=001|447=C|452=1|448=002B35|447=C|452=37|10=253|
8=FIX.4.4|9=198|35=S|34=2|49=002|50=002B35|52=20190605-20:00:32.018|56=EXC|55=TFIC13280425|62=20190617-22:00:00.000|117=36997998|131=20190605-000000000060.00|135=500000000|634=4|762=RFQF|453=1|448=DCV|447=C|452=10|10=105|
8=FIX.4.4|9=0293|35=AI|34=3|49=EXC|56=002|57=002B35|52=20190605-20:00:31.995|131=20190605-000000000060.00|117=36997998|453=4|448=DCV|447=C|452=10|448=001B27|447=C|452=12|448=001|447=C|452=1|448=002B35|447=C|452=37|55=TFIC13280425|762=RFQF|48=20626|22=M|54=1|634=4.000|135=500000000|62=20190617-22:00:00|297=16|10=040|
8=FIX.4.4|9=0507|35=8|34=4|49=EXC|56=002|57=002B35|52=20190605-20:00:37.759|11=36997998|17=43|37=0|150=F|1080=20190605-000000000060.00|1081=6|453=6|448=002B35|447=C|452=12|448=002|447=C|452=1|448=001B27|447=C|452=37|448=001|447=C|452=17|448=002FCM001|447=C|452=36|448=DCV|447=C|452=10|55=TFIC13280425|762=RFQF|48=20626|22=M|6=79.354|14=500000000|31=79.354|32=500000000|38=500000000|39=2|20102=79.354|54=2|60=20190605-20:00:37.759|75=20190605|63=1|64=20190605|151=0|1623=4.000|381=396774000.000|880=201906050000000043|828=99|10=170|
8=FIX.4.4|9=59|35=0|34=3|49=002|50=002B35|52=20190605-20:01:02.587|56=EXC|10=045|
8=FIX.4.4|9=0049|35=0|34=5|49=EXC|56=002|52=20190605-20:01:07.000|10=160|
8=FIX.4.4|9=110|35=A|34=1|49=002|50=002B35|52=20190605-20:06:09.883|56=EXC|43=Y|98=0|108=30|141=Y|553=002FCM001|554=002FCM001|10=088|
8=FIX.4.4|9=0067|35=A|34=1|49=EXC|56=002|52=20190605-20:06:10.015|98=0|108=30|141=Y|10=248|
8=FIX.4.4|9=0049|35=0|34=2|49=EXC|56=002|52=20190605-20:06:40.000|10=159|
8=FIX.4.4|9=59|35=0|34=2|49=002|50=002B35|52=20190605-20:06:40.053|56=EXC|10=039|
8=FIX.4.4|9=110|35=A|34=1|49=002|50=002B35|52=20190605-20:11:54.698|56=EXC|43=Y|98=0|108=30|141=Y|553=002FCM001|554=002FCM001|10=088|
8=FIX.4.4|9=0067|35=A|34=1|49=EXC|56=002|52=20190605-20:11:55.056|98=0|108=30|141=Y|10=002|
8=FIX.4.4|9=0225|35=R|34=2|49=EXC|56=002|57=002B35|52=20190605-20:12:04.551|131=20190605-000000000061.00|146=1|55=TFIC13280425|762=RFQF|48=20626|22=M|54=1|38=500000000|453=3|448=001B27|447=C|452=12|448=001|447=C|452=1|448=002B35|447=C|452=37|10=252|
8=FIX.4.4|9=198|35=S|34=2|49=002|50=002B35|52=20190605-20:12:16.848|56=EXC|55=TFIC13280425|62=20190617-22:00:00.000|117=60032532|131=20190605-000000000061.00|135=500000000|634=4|762=RFQF|453=1|448=DCV|447=C|452=10|10=083|
8=FIX.4.4|9=0293|35=AI|34=3|49=EXC|56=002|57=002B35|52=20190605-20:12:16.820|131=20190605-000000000061.00|117=60032532|453=4|448=DCV|447=C|452=10|448=001B27|447=C|452=12|448=001|447=C|452=1|448=002B35|447=C|452=37|55=TFIC13280425|762=RFQF|48=20626|22=M|54=1|634=4.000|135=500000000|62=20190617-22:00:00|297=16|10=251|
8=FIX.4.4|9=0507|35=8|34=4|49=EXC|56=002|57=002B35|52=20190605-20:12:24.210|11=60032532|17=44|37=0|150=F|1080=20190605-000000000061.00|1081=6|453=6|448=002B35|447=C|452=12|448=002|447=C|452=1|448=001B27|447=C|452=37|448=001|447=C|452=17|448=002FCM001|447=C|452=36|448=DCV|447=C|452=10|55=TFIC13280425|762=RFQF|48=20626|22=M|6=79.354|14=500000000|31=79.354|32=500000000|38=500000000|39=2|20102=79.354|54=2|60=20190605-20:12:24.210|75=20190605|63=1|64=20190605|151=0|1623=4.000|381=396774000.000|880=201906050000000044|828=99|10=096|
8=FIX.4.4|9=110|35=A|34=1|49=002|50=002B35|52=20190605-20:34:59.860|56=EXC|43=Y|98=0|108=30|141=Y|553=002FCM001|554=002FCM001|10=089|
8=FIX.4.4|9=0067|35=A|34=1|49=EXC|56=002|52=20190605-20:34:59.665|98=0|108=30|141=Y|10=017|
8=FIX.4.4|9=0225|35=R|34=2|49=EXC|56=002|57=002B35|52=20190605-20:35:02.517|131=20190605-000000000063.00|146=1|55=TFIC13280425|762=RFQF|48=20626|22=M|54=1|38=500000000|453=3|448=001B27|447=C|452=12|448=001|447=C|452=1|448=002B35|447=C|452=37|10=003|
8=FIX.4.4|9=198|35=S|34=2|49=002|50=002B35|52=20190605-20:35:10.375|56=EXC|55=TFIC13280425|62=20190617-22:00:00.000|117=68763403|131=20190605-000000000063.00|135=500000000|634=4|762=RFQF|453=1|448=DCV|447=C|452=10|10=095|
8=FIX.4.4|9=0293|35=AI|34=3|49=EXC|56=002|57=002B35|52=20190605-20:35:10.039|131=20190605-000000000063.00|117=68763403|453=4|448=DCV|447=C|452=10|448=001B27|447=C|452=12|448=001|447=C|452=1|448=002B35|447=C|452=37|55=TFIC13280425|762=RFQF|48=20626|22=M|54=1|634=4.000|135=500000000|62=20190617-22:00:00|297=16|10=014|
8=FIX.4.4|9=0507|35=8|34=4|49=EXC|56=002|57=002B35|52=20190605-20:35:16.799|11=68763403|17=46|37=0|150=F|1080=20190605-000000000063.00|1081=6|453=6|448=002B35|447=C|452=12|448=002|447=C|452=1|448=001B27|447=C|452=37|448=001|447=C|452=17|448=002FCM001|447=C|452=36|448=DCV|447=C|452=10|55=TFIC13280425|762=RFQF|48=20626|22=M|6=79.354|14=500000000|31=79.354|32=500000000|38=500000000|39=2|20102=79.354|54=2|60=20190605-20:35:16.799|75=20190605|63=1|64=20190605|151=0|1623=4.000|381=396774000.000|880=201906050000000046|828=99|10=174|
8=FIX.4.4|9=59|35=0|34=3|49=002|50=002B35|52=20190605-20:35:40.435|56=EXC|10=046|
8=FIX.4.4|9=0049|35=0|34=5|49=EXC|56=002|52=20190605-20:35:46.000|10=170|
8=FIX.4.4|9=110|35=A|34=1|49=002|50=002B35|52=20190605-20:37:06.621|56=EXC|43=Y|98=0|108=30|141=Y|553=002FCM001|554=002FCM001|10=079|
8=FIX.4.4|9=0067|35=A|34=1|49=EXC|56=002|52=20190605-20:37:06.091|98=0|108=30|141=Y|10=005|
8=FIX.4.4|9=0225|35=R|34=2|49=EXC|56=002|57=002B35|52=20190605-20:37:09.194|131=20190605-000000000070.00|146=1|55=TFIC13280425|762=RFQF|48=20626|22=M|54=1|38=500000000|453=3|448=001B27|447=C|452=12|448=001|447=C|452=1|448=002B35|447=C|452=37|10=011|
8=FIX.4.4|9=198|35=S|34=2|49=002|50=002B35|52=20190605-20:37:18.180|56=EXC|55=TFIC13280425|62=20190617-22:00:00.000|117=73232020|131=20190605-000000000070.00|135=500000000|634=4|762=RFQF|453=1|448=DCV|447=C|452=10|10=079|
8=FIX.4.4|9=0293|35=AI|34=3|49=EXC|56=002|57=002B35|52=20190605-20:37:17.507|131=20190605-000000000070.00|117=73232020|453=4|448=DCV|447=C|452=10|448=001B27|447=C|452=12|448=001|447=C|452=1|448=002B35|447=C|452=37|55=TFIC13280425|762=RFQF|48=20626|22=M|54=1|634=4.000|135=500000000|62=20190617-22:00:00|297=16|10=003|
8=FIX.4.4|9=0507|35=8|34=4|49=EXC|56=002|57=002B35|52=20190605-20:37:26.149|11=73232020|17=47|37=0|150=F|1080=20190605-000000000070.00|1081=6|453=6|448=002B35|447=C|452=12|448=002|447=C|452=1|448=001B27|447=C|452=37|448=001|447=C|452=17|448=002FCM001|447=C|452=36|448=DCV|447=C|452=10|55=TFIC13280425|762=RFQF|48=20626|22=M|6=79.354|14=500000000|31=79.354|32=500000000|38=500000000|39=2|20102=79.354|54=2|60=20190605-20:37:26.149|75=20190605|63=1|64=20190605|151=0|1623=4.000|381=396774000.000|880=201906050000000047|828=99|10=140|
8=FIX.4.4|9=59|35=0|34=3|49=002|50=002B35|52=20190605-20:37:48.462|56=EXC|10=056|
8=FIX.4.4|9=0049|35=0|34=5|49=EXC|56=002|52=20190605-20:37:56.000|10=173|
