8=FIX.4.4|9=110|35=A|34=1|49=010|50=010BWN|52=20190607-14:13:05.089|56=EXC|43=Y|98=0|108=30|141=Y|553=010FCE003|554=010FCE003|10=130|
8=FIX.4.4|9=0067|35=A|34=1|49=EXC|56=010|52=20190607-14:13:05.160|98=0|108=30|141=Y|10=255|
8=FIX.4.4|9=0192|35=R|34=2|49=EXC|56=010|52=20190607-14:13:07.262|131=20190607-000000000012.00|146=1|55=TFIT15260826|762=RFQF|48=20348|22=M|54=1|38=1500000000|453=2|448=001B27|447=C|452=12|448=001|447=C|452=1|10=232|
8=FIX.4.4|9=110|35=A|34=1|49=010|50=010BWN|52=20190607-15:35:43.298|56=EXC|43=Y|98=0|108=30|141=Y|553=010FCE003|554=010FCE003|10=139|
8=FIX.4.4|9=0067|35=A|34=1|49=EXC|56=010|52=20190607-15:35:43.381|98=0|108=30|141=Y|10=011|
8=FIX.4.4|9=110|35=A|34=1|49=010|50=010BWN|52=20190607-16:16:18.389|56=EXC|43=Y|98=0|108=30|141=Y|553=010FCE003|554=010FCE003|10=142|
8=FIX.4.4|9=0067|35=A|34=1|49=EXC|56=010|52=20190607-16:16:18.437|98=0|108=30|141=Y|10=015|
8=FIX.4.4|9=110|35=A|34=1|49=010|50=010BWN|52=20190607-16:39:55.220|56=EXC|43=Y|98=0|108=30|141=Y|553=010FCE003|554=010FCE003|10=132|
8=FIX.4.4|9=0067|35=A|34=1|49=EXC|56=010|52=20190607-16:39:55.280|98=0|108=30|141=Y|10=017|
8=FIX.4.4|9=110|35=A|34=1|49=010|50=010BWN|52=20190607-16:43:05.180|56=EXC|43=Y|98=0|108=30|141=Y|553=010FCE003|554=010FCE003|10=127|
8=FIX.4.4|9=0067|35=A|34=1|49=EXC|56=010|52=20190607-16:43:05.218|98=0|108=30|141=Y|10=008|
8=FIX.4.4|9=110|35=A|34=1|49=010|50=010BWN|52=20190607-16:44:16.363|56=EXC|43=Y|98=0|108=30|141=Y|553=010FCE003|554=010FCE003|10=133|
8=FIX.4.4|9=0067|35=A|34=1|49=EXC|56=010|52=20190607-16:44:16.381|98=0|108=30|141=Y|10=012|
8=FIX.4.4|9=110|35=A|34=1|49=010|50=010BWN|52=20190607-16:47:05.297|56=EXC|43=Y|98=0|108=30|141=Y|553=010FCE003|554=010FCE003|10=140|
8=FIX.4.4|9=0067|35=A|34=1|49=EXC|56=010|52=20190607-16:47:05.328|98=0|108=30|141=Y|10=014|
8=FIX.4.4|9=0192|35=R|34=2|49=EXC|56=010|52=20190607-16:47:07.473|131=20190607-000000000033.00|146=1|55=TFIT15260826|762=RFQF|48=20348|22=M|54=1|38=1500000000|453=2|448=007B26|447=C|452=12|448=007|447=C|452=1|10=003|
8=FIX.4.4|9=110|35=A|34=1|49=010|50=010BWN|52=20190607-16:53:12.367|56=EXC|43=Y|98=0|108=30|141=Y|553=010FCE003|554=010FCE003|10=133|
8=FIX.4.4|9=0067|35=A|34=1|49=EXC|56=010|52=20190607-16:53:12.382|98=0|108=30|141=Y|10=009|
8=FIX.4.4|9=110|35=A|34=1|49=010|50=010BWN|52=20190607-17:01:26.216|56=EXC|43=Y|98=0|108=30|141=Y|553=010FCE003|554=010FCE003|10=125|
8=FIX.4.4|9=0067|35=A|34=1|49=EXC|56=010|52=20190607-17:01:26.246|98=0|108=30|141=Y|10=007|
8=FIX.4.4|9=0192|35=R|34=2|49=EXC|56=010|52=20190607-17:01:28.235|131=20190607-000000000037.00|146=1|55=TFIT15260826|762=RFQF|48=20348|22=M|54=1|38=1500000000|453=2|448=007B26|447=C|452=12|448=007|447=C|452=1|10=253|
