8=FIX.4.4|9=105|35=A|34=1|49=010|50=010BWN|52=20190613-22:13:47.983|56=EXC|98=0|108=30|141=Y|553=010FCE003|554=010FCE003|10=141|
8=FIX.4.4|9=0067|35=A|34=1|49=EXC|56=010|52=20190613-22:13:47.116|98=0|108=30|141=Y|10=002|
8=FIX.4.4|9=105|35=A|34=1|49=010|50=010BWN|52=20190613-22:17:15.601|56=EXC|98=0|108=30|141=Y|553=010FCE003|554=010FCE003|10=127|
8=FIX.4.4|9=0067|35=A|34=1|49=EXC|56=010|52=20190613-22:17:14.831|98=0|108=30|141=Y|10=004|
8=FIX.4.4|9=105|35=A|34=1|49=010|50=010BWN|52=20190613-22:20:15.742|56=EXC|98=0|108=30|141=Y|553=010FCE003|554=010FCE003|10=127|
8=FIX.4.4|9=0067|35=A|34=1|49=EXC|56=010|52=20190613-22:20:14.872|98=0|108=30|141=Y|10=003|
8=FIX.4.4|9=0049|35=0|34=2|49=EXC|56=010|52=20190613-22:20:44.000|10=159|
8=FIX.4.4|9=59|35=0|34=2|49=010|50=010BWN|52=20190613-22:20:46.705|56=EXC|10=105|
8=FIX.4.4|9=0049|35=0|34=3|49=EXC|56=010|52=20190613-22:21:14.000|10=158|
8=FIX.4.4|9=59|35=0|34=3|49=010|50=010BWN|52=20190613-22:21:16.717|56=EXC|10=107|
8=FIX.4.4|9=105|35=A|34=1|49=010|50=010BWN|52=20190613-22:26:15.168|56=EXC|98=0|108=30|141=Y|553=010FCE003|554=010FCE003|10=135|
8=FIX.4.4|9=0067|35=A|34=1|49=EXC|56=010|52=20190613-22:26:13.951|98=0|108=30|141=Y|10=006|
8=FIX.4.4|9=105|35=A|34=1|49=010|50=010BWN|52=20190613-22:28:49.375|56=EXC|98=0|108=30|141=Y|553=010FCE003|554=010FCE003|10=144|
8=FIX.4.4|9=0067|35=A|34=1|49=EXC|56=010|52=20190613-22:28:48.153|98=0|108=30|141=Y|10=010|
