8=FIX.4.4|9=110|35=A|34=1|49=010|50=010BWN|52=20190611-15:51:59.936|56=EXC|43=Y|98=0|108=30|141=Y|553=010FCE003|554=010FCE003|10=138|
8=FIX.4.4|9=0067|35=A|34=1|49=EXC|56=010|52=20190611-15:51:59.936|98=0|108=30|141=Y|10=017|
8=FIX.4.4|9=0049|35=0|34=2|49=EXC|56=010|52=20190611-15:52:29.000|10=167|
8=FIX.4.4|9=59|35=0|34=2|49=010|50=010BWN|52=20190611-15:52:30.802|56=EXC|10=101|
8=FIX.4.4|9=0191|35=R|34=3|49=EXC|56=010|52=20190611-15:52:49.887|131=20190611-000000000042.00|146=1|55=TFIT16300632|762=RFQF|48=20406|22=M|54=1|38=500000000|453=2|448=001B27|447=C|452=12|448=001|447=C|452=1|10=185|
8=FIX.4.4|9=110|35=A|34=1|49=010|50=010BWN|52=20190611-18:56:22.141|56=EXC|43=Y|98=0|108=30|141=Y|553=010FCE003|554=010FCE003|10=124|
8=FIX.4.4|9=0067|35=A|34=1|49=EXC|56=010|52=20190611-18:56:21.988|98=0|108=30|141=Y|10=021|
8=FIX.4.4|9=110|35=A|34=1|49=010|50=010BWN|52=20190611-19:22:23.123|56=EXC|43=Y|98=0|108=30|141=Y|553=010FCE003|554=010FCE003|10=119|
8=FIX.4.4|9=0067|35=A|34=1|49=EXC|56=010|52=20190611-19:22:23.164|98=0|108=30|141=Y|10=003|
8=FIX.4.4|9=110|35=A|34=1|49=010|50=010BWN|52=20190611-19:23:58.107|56=EXC|43=Y|98=0|108=30|141=Y|553=010FCE003|554=010FCE003|10=130|
8=FIX.4.4|9=0067|35=A|34=1|49=EXC|56=010|52=20190611-19:23:58.141|98=0|108=30|141=Y|10=007|
8=FIX.4.4|9=110|35=A|34=1|49=010|50=010BWN|52=20190611-19:26:32.482|56=EXC|43=Y|98=0|108=30|141=Y|553=010FCE003|554=010FCE003|10=131|
8=FIX.4.4|9=0067|35=A|34=1|49=EXC|56=010|52=20190611-19:26:32.536|98=0|108=30|141=Y|10=010|
8=FIX.4.4|9=110|35=A|34=1|49=010|50=010BWN|52=20190611-19:33:13.178|56=EXC|43=Y|98=0|108=30|141=Y|553=010FCE003|554=010FCE003|10=130|
8=FIX.4.4|9=0067|35=A|34=1|49=EXC|56=010|52=20190611-19:33:13.226|98=0|108=30|141=Y|10=003|
8=FIX.4.4|9=110|35=A|34=1|49=010|50=010BWN|52=20190611-19:39:31.727|56=EXC|43=Y|98=0|108=30|141=Y|553=010FCE003|554=010FCE003|10=136|
8=FIX.4.4|9=0067|35=A|34=1|49=EXC|56=010|52=20190611-19:39:31.798|98=0|108=30|141=Y|10=023|
8=FIX.4.4|9=110|35=A|34=1|49=010|50=010BWN|52=20190611-19:44:57.057|56=EXC|43=Y|98=0|108=30|141=Y|553=010FCE003|554=010FCE003|10=136|
8=FIX.4.4|9=0067|35=A|34=1|49=EXC|56=010|52=20190611-19:44:58.289|98=0|108=30|141=Y|10=023|
8=FIX.4.4|9=110|35=A|34=1|49=010|50=010BWN|52=20190611-19:50:18.400|56=EXC|43=Y|98=0|108=30|141=Y|553=010FCE003|554=010FCE003|10=122|
8=FIX.4.4|9=0067|35=A|34=1|49=EXC|56=010|52=20190611-19:50:18.448|98=0|108=30|141=Y|10=013|
8=FIX.4.4|9=110|35=A|34=1|49=010|50=010BWN|52=20190611-19:52:18.913|56=EXC|43=Y|98=0|108=30|141=Y|553=010FCE003|554=010FCE003|10=133|
8=FIX.4.4|9=0067|35=A|34=1|49=EXC|56=010|52=20190611-19:52:18.963|98=0|108=30|141=Y|10=017|
8=FIX.4.4|9=110|35=A|34=1|49=010|50=010BWN|52=20190611-19:57:54.319|56=EXC|43=Y|98=0|108=30|141=Y|553=010FCE003|554=010FCE003|10=138|
8=FIX.4.4|9=0067|35=A|34=1|49=EXC|56=010|52=20190611-19:57:54.378|98=0|108=30|141=Y|10=022|
8=FIX.4.4|9=110|35=A|34=1|49=010|50=010BWN|52=20190611-20:17:57.814|56=EXC|43=Y|98=0|108=30|141=Y|553=010FCE003|554=010FCE003|10=129|
8=FIX.4.4|9=0067|35=A|34=1|49=EXC|56=010|52=20190611-20:17:57.881|98=0|108=30|141=Y|10=012|
8=FIX.4.4|9=110|35=A|34=1|49=010|50=010BWN|52=20190611-20:21:27.048|56=EXC|43=Y|98=0|108=30|141=Y|553=010FCE003|554=010FCE003|10=120|
8=FIX.4.4|9=0067|35=A|34=1|49=EXC|56=010|52=20190611-20:21:27.091|98=0|108=30|141=Y|10=253|
8=FIX.4.4|9=0049|35=0|34=2|49=EXC|56=010|52=20190611-20:21:57.000|10=160|
8=FIX.4.4|9=59|35=0|34=2|49=010|50=010BWN|52=20190611-20:21:57.044|56=EXC|10=100|
8=FIX.4.4|9=0049|35=0|34=3|49=EXC|56=010|52=20190611-20:22:27.000|10=159|
8=FIX.4.4|9=59|35=0|34=3|49=010|50=010BWN|52=20190611-20:22:27.060|56=EXC|10=097|
8=FIX.4.4|9=110|35=A|34=1|49=010|50=010BWN|52=20190611-20:39:33.924|56=EXC|43=Y|98=0|108=30|141=Y|553=010FCE003|554=010FCE003|10=129|
8=FIX.4.4|9=0067|35=A|34=1|49=EXC|56=010|52=20190611-20:39:35.021|98=0|108=30|141=Y|10=254|
8=FIX.4.4|9=59|35=0|34=2|49=010|50=010BWN|52=20190611-20:40:04.073|56=EXC|10=095|
8=FIX.4.4|9=0049|35=0|34=2|49=EXC|56=010|52=20190611-20:40:05.000|10=154|
8=FIX.4.4|9=59|35=0|34=3|49=010|50=010BWN|52=20190611-20:40:34.076|56=EXC|10=102|
8=FIX.4.4|9=0049|35=0|34=3|49=EXC|56=010|52=20190611-20:40:35.000|10=158|
8=FIX.4.4|9=110|35=A|34=1|49=010|50=010BWN|52=20190611-20:50:00.973|56=EXC|43=Y|98=0|108=30|141=Y|553=010FCE003|554=010FCE003|10=120|
8=FIX.4.4|9=0067|35=A|34=1|49=EXC|56=010|52=20190611-20:50:00.974|98=0|108=30|141=Y|10=000|
8=FIX.4.4|9=0049|35=0|34=2|49=EXC|56=010|52=20190611-20:50:30.000|10=153|
8=FIX.4.4|9=59|35=0|34=2|49=010|50=010BWN|52=20190611-20:50:31.891|56=EXC|10=104|
8=FIX.4.4|9=110|35=A|34=1|49=010|50=010BWN|52=20190611-20:54:28.747|56=EXC|43=Y|98=0|108=30|141=Y|553=010FCE003|554=010FCE003|10=133|
8=FIX.4.4|9=0067|35=A|34=1|49=EXC|56=010|52=20190611-20:54:28.879|98=0|108=30|141=Y|10=018|
8=FIX.4.4|9=0049|35=0|34=2|49=EXC|56=010|52=20190611-20:54:58.000|10=167|
8=FIX.4.4|9=59|35=0|34=2|49=010|50=010BWN|52=20190611-20:54:59.397|56=EXC|10=119|
8=FIX.4.4|9=110|35=A|34=1|49=010|50=010BWN|52=20190611-20:56:58.784|56=EXC|43=Y|98=0|108=30|141=Y|553=010FCE003|554=010FCE003|10=139|
8=FIX.4.4|9=0067|35=A|34=1|49=EXC|56=010|52=20190611-20:56:58.928|98=0|108=30|141=Y|10=018|
8=FIX.4.4|9=0049|35=0|34=2|49=EXC|56=010|52=20190611-20:57:28.000|10=167|
8=FIX.4.4|9=59|35=0|34=2|49=010|50=010BWN|52=20190611-20:57:28.995|56=EXC|10=122|
8=FIX.4.4|9=110|35=A|34=1|49=010|50=010BWN|52=20190611-20:59:27.556|56=EXC|43=Y|98=0|108=30|141=Y|553=010FCE003|554=010FCE003|10=135|
8=FIX.4.4|9=0067|35=A|34=1|49=EXC|56=010|52=20190611-20:59:27.557|98=0|108=30|141=Y|10=015|
8=FIX.4.4|9=0049|35=0|34=2|49=EXC|56=010|52=20190611-20:59:57.000|10=171|
8=FIX.4.4|9=59|35=0|34=2|49=010|50=010BWN|52=20190611-20:59:58.386|56=EXC|10=121|
8=FIX.4.4|9=0049|35=0|34=3|49=EXC|56=010|52=20190611-21:00:27.000|10=156|
8=FIX.4.4|9=59|35=0|34=3|49=010|50=010BWN|52=20190611-21:00:28.384|56=EXC|10=104|
8=FIX.4.4|9=110|35=A|34=1|49=010|50=010BWN|52=20190611-21:02:11.446|56=EXC|43=Y|98=0|108=30|141=Y|553=010FCE003|554=010FCE003|10=115|
8=FIX.4.4|9=0067|35=A|34=1|49=EXC|56=010|52=20190611-21:02:11.577|98=0|108=30|141=Y|10=255|
8=FIX.4.4|9=0049|35=0|34=2|49=EXC|56=010|52=20190611-21:02:41.000|10=153|
8=FIX.4.4|9=59|35=0|34=2|49=010|50=010BWN|52=20190611-21:02:42.027|56=EXC|10=095|
8=FIX.4.4|9=110|35=A|34=1|49=010|50=010BWN|52=20190611-21:18:19.841|56=EXC|43=Y|98=0|108=30|141=Y|553=010FCE003|554=010FCE003|10=129|
8=FIX.4.4|9=0067|35=A|34=1|49=EXC|56=010|52=20190611-21:18:19.784|98=0|108=30|141=Y|10=014|
8=FIX.4.4|9=0049|35=0|34=2|49=EXC|56=010|52=20190611-21:18:49.000|10=168|
8=FIX.4.4|9=59|35=0|34=2|49=010|50=010BWN|52=20190611-21:18:50.706|56=EXC|10=105|
8=FIX.4.4|9=110|35=A|34=1|49=010|50=010BWN|52=20190611-21:20:20.104|56=EXC|43=Y|98=0|108=30|141=Y|553=010FCE003|554=010FCE003|10=106|
8=FIX.4.4|9=0067|35=A|34=1|49=EXC|56=010|52=20190611-21:20:20.054|98=0|108=30|141=Y|10=245|
8=FIX.4.4|9=0049|35=0|34=2|49=EXC|56=010|52=20190611-21:20:50.000|10=153|
8=FIX.4.4|9=59|35=0|34=2|49=010|50=010BWN|52=20190611-21:20:50.113|56=EXC|10=090|
8=FIX.4.4|9=110|35=A|34=1|49=010|50=010BWN|52=20190611-21:21:34.736|56=EXC|43=Y|98=0|108=30|141=Y|553=010FCE003|554=010FCE003|10=123|
8=FIX.4.4|9=0067|35=A|34=1|49=EXC|56=010|52=20190611-21:21:34.672|98=0|108=30|141=Y|10=001|
8=FIX.4.4|9=0049|35=0|34=2|49=EXC|56=010|52=20190611-21:22:04.000|10=154|
8=FIX.4.4|9=59|35=0|34=2|49=010|50=010BWN|52=20190611-21:22:05.653|56=EXC|10=101|
8=FIX.4.4|9=110|35=A|34=1|49=010|50=010BWN|52=20190611-21:40:48.929|56=EXC|43=Y|98=0|108=30|141=Y|553=010FCE003|554=010FCE003|10=133|
8=FIX.4.4|9=0067|35=A|34=1|49=EXC|56=010|52=20190611-21:40:48.974|98=0|108=30|141=Y|10=012|
8=FIX.4.4|9=0049|35=0|34=2|49=EXC|56=010|52=20190611-21:41:18.000|10=160|
8=FIX.4.4|9=59|35=0|34=2|49=010|50=010BWN|52=20190611-21:41:18.988|56=EXC|10=117|
8=FIX.4.4|9=110|35=A|34=1|49=010|50=010BWN|52=20190611-21:42:47.421|56=EXC|43=Y|98=0|108=30|141=Y|553=010FCE003|554=010FCE003|10=121|
8=FIX.4.4|9=0067|35=A|34=1|49=EXC|56=010|52=20190611-21:42:47.473|98=0|108=30|141=Y|10=007|
