8=FIX.4.4|9=82|35=A|34=1|49=001|50=001B17|52=20190509-20:46:16.004|56=EXC|43=Y|98=0|108=30|141=Y|10=123|
8=FIX.4.4|9=82|35=A|34=1|49=001|50=001B17|52=20190509-21:04:57.606|56=EXC|43=Y|98=0|108=30|141=Y|10=131|
8=FIX.4.4|9=82|35=A|34=1|49=001|50=001B17|52=20190509-21:07:15.489|56=EXC|43=Y|98=0|108=30|141=Y|10=137|
8=FIX.4.4|9=82|35=A|34=1|49=001|50=001B17|52=20190509-21:11:46.797|56=EXC|43=Y|98=0|108=30|141=Y|10=138|
8=FIX.4.4|9=82|35=A|34=1|49=001|50=001B17|52=20190509-21:16:58.061|56=EXC|43=Y|98=0|108=30|141=Y|10=130|
8=FIX.4.4|9=82|35=A|34=1|49=001|50=001B17|52=20190509-21:19:36.717|56=EXC|43=Y|98=0|108=30|141=Y|10=137|
8=FIX.4.4|9=82|35=A|34=1|49=001|50=001B17|52=20190509-21:20:22.094|56=EXC|43=Y|98=0|108=30|141=Y|10=122|
8=FIX.4.4|9=82|35=A|34=1|49=001|50=001B17|52=20190509-21:23:45.084|56=EXC|43=Y|98=0|108=30|141=Y|10=129|
8=FIX.4.4|9=82|35=A|34=1|49=001|50=001B17|52=20190509-21:28:48.220|56=EXC|43=Y|98=0|108=30|141=Y|10=129|
8=FIX.4.4|9=82|35=A|34=1|49=001|50=001B17|52=20190509-21:32:37.720|56=EXC|43=Y|98=0|108=30|141=Y|10=127|
