8=FIX.4.4|9=105|35=A|34=1|49=002|50=002B35|52=20190612-16:29:19.866|56=EXC|98=0|108=30|141=Y|553=002FCM001|554=002FCM001|10=104|
8=FIX.4.4|9=0067|35=A|34=1|49=EXC|56=002|52=20190612-16:29:19.888|98=0|108=30|141=Y|10=027|
8=FIX.4.4|9=0225|35=R|34=2|49=EXC|56=002|57=002B35|52=20190612-16:29:27.241|131=20190612-000000000048.00|146=1|55=TFIC13280425|762=RFQF|48=20626|22=M|54=1|38=500000000|453=3|448=001B27|447=C|452=12|448=001|447=C|452=1|448=002B35|447=C|452=37|10=011|
8=FIX.4.4|9=206|35=S|34=2|49=002|50=002B35|52=20190612-16:29:38.164|56=EXC|55=TFIC13280425|62=20190617-22:00:00.000|117=20190612112917_S|131=20190612-000000000048.00|135=500000000|634=4|762=RFQF|453=1|448=DCV|447=C|452=10|10=057|
8=FIX.4.4|9=0301|35=AI|34=3|49=EXC|56=002|57=002B35|52=20190612-16:29:38.157|131=20190612-000000000048.00|117=20190612112917_S|453=4|448=DCV|447=C|452=10|448=001B27|447=C|452=12|448=001|447=C|452=1|448=002B35|447=C|452=37|55=TFIC13280425|762=RFQF|48=20626|22=M|54=1|634=4.000|135=500000000|62=20190617-22:00:00|297=16|10=237|
8=FIX.4.4|9=0515|35=8|34=4|49=EXC|56=002|57=002B35|52=20190612-16:29:48.732|11=20190612112917_S|17=15|37=0|150=F|1080=20190612-000000000048.00|1081=6|453=6|448=002B35|447=C|452=12|448=002|447=C|452=1|448=001B27|447=C|452=37|448=001|447=C|452=17|448=002FCM001|447=C|452=36|448=DCV|447=C|452=10|55=TFIC13280425|762=RFQF|48=20626|22=M|6=79.414|14=500000000|31=79.414|32=500000000|38=500000000|39=2|20102=79.414|54=2|60=20190612-16:29:48.732|75=20190612|63=1|64=20190612|151=0|1623=4.000|381=397072500.000|880=201906120000000066|828=99|10=109|
8=FIX.4.4|9=68|35=2|34=3|49=002|50=002B35|52=20190612-16:29:48.839|56=EXC|7=3|16=0|10=195|
8=FIX.4.4|9=0332|35=AI|34=3|43=Y|52=20190612-16:29:48.825|49=EXC|56=002|57=002B35|122=20190612-16:29:38.157|131=20190612-000000000048.00|117=20190612112917_S|453=4|448=DCV|447=C|452=10|448=001B27|447=C|452=12|448=001|447=C|452=1|448=002B35|447=C|452=37|55=TFIC13280425|762=RFQF|48=20626|22=M|54=1|634=4.000|135=500000000|62=20190617-22:00:00|297=16|10=003|
8=FIX.4.4|9=0546|35=8|34=4|43=Y|52=20190612-16:29:48.825|49=EXC|56=002|57=002B35|122=20190612-16:29:48.732|11=20190612112917_S|17=15|37=0|150=F|1080=20190612-000000000048.00|1081=6|453=6|448=002B35|447=C|452=12|448=002|447=C|452=1|448=001B27|447=C|452=37|448=001|447=C|452=17|448=002FCM001|447=C|452=36|448=DCV|447=C|452=10|55=TFIC13280425|762=RFQF|48=20626|22=M|6=79.414|14=500000000|31=79.414|32=500000000|38=500000000|39=2|20102=79.414|54=2|60=20190612-16:29:48.732|75=20190612|63=1|64=20190612|151=0|1623=4.000|381=397072500.000|880=201906120000000066|828=99|10=131|
8=FIX.4.4|9=0054|35=4|34=5|49=EXC|56=002|52=20190612-16:29:48.825|36=6|10=158|
8=FIX.4.4|9=0049|35=0|34=6|49=EXC|56=002|52=20190612-16:30:18.000|10=168|
8=FIX.4.4|9=59|35=0|34=4|49=002|50=002B35|52=20190612-16:30:19.825|56=EXC|10=054|
8=FIX.4.4|9=105|35=A|34=1|49=002|50=002B35|52=20190612-16:44:39.887|56=EXC|98=0|108=30|141=Y|553=002FCM001|554=002FCM001|10=106|
8=FIX.4.4|9=0067|35=A|34=1|49=EXC|56=002|52=20190612-16:44:39.936|98=0|108=30|141=Y|10=020|
8=FIX.4.4|9=0225|35=R|34=2|49=EXC|56=002|57=002B35|52=20190612-16:44:47.294|131=20190612-000000000055.00|146=1|55=TFIC13280425|762=RFQF|48=20626|22=M|54=1|38=500000000|453=3|448=001B27|447=C|452=12|448=001|447=C|452=1|448=002B35|447=C|452=37|10=016|
8=FIX.4.4|9=206|35=S|34=2|49=002|50=002B35|52=20190612-16:45:02.988|56=EXC|55=TFIC13280425|62=20190617-22:00:00.000|117=20190612114437_S|131=20190612-000000000055.00|135=500000000|634=4|762=RFQF|453=1|448=DCV|447=C|452=10|10=057|
8=FIX.4.4|9=0301|35=AI|34=3|49=EXC|56=002|57=002B35|52=20190612-16:45:02.981|131=20190612-000000000055.00|117=20190612114437_S|453=4|448=DCV|447=C|452=10|448=001B27|447=C|452=12|448=001|447=C|452=1|448=002B35|447=C|452=37|55=TFIC13280425|762=RFQF|48=20626|22=M|54=1|634=4.000|135=500000000|62=20190617-22:00:00|297=16|10=228|
8=FIX.4.4|9=0515|35=8|34=4|49=EXC|56=002|57=002B35|52=20190612-16:45:13.645|11=20190612114437_S|17=16|37=0|150=F|1080=20190612-000000000055.00|1081=6|453=6|448=002B35|447=C|452=12|448=002|447=C|452=1|448=001B27|447=C|452=37|448=001|447=C|452=17|448=002FCM001|447=C|452=36|448=DCV|447=C|452=10|55=TFIC13280425|762=RFQF|48=20626|22=M|6=79.414|14=500000000|31=79.414|32=500000000|38=500000000|39=2|20102=79.414|54=2|60=20190612-16:45:13.645|75=20190612|63=1|64=20190612|151=0|1623=4.000|381=397072500.000|880=201906120000000070|828=99|10=088|
8=FIX.4.4|9=68|35=2|34=3|49=002|50=002B35|52=20190612-16:45:13.746|56=EXC|7=3|16=0|10=182|
8=FIX.4.4|9=0332|35=AI|34=3|43=Y|52=20190612-16:45:13.738|49=EXC|56=002|57=002B35|122=20190612-16:45:02.981|131=20190612-000000000055.00|117=20190612114437_S|453=4|448=DCV|447=C|452=10|448=001B27|447=C|452=12|448=001|447=C|452=1|448=002B35|447=C|452=37|55=TFIC13280425|762=RFQF|48=20626|22=M|54=1|634=4.000|135=500000000|62=20190617-22:00:00|297=16|10=243|
8=FIX.4.4|9=0546|35=8|34=4|43=Y|52=20190612-16:45:13.738|49=EXC|56=002|57=002B35|122=20190612-16:45:13.645|11=20190612114437_S|17=16|37=0|150=F|1080=20190612-000000000055.00|1081=6|453=6|448=002B35|447=C|452=12|448=002|447=C|452=1|448=001B27|447=C|452=37|448=001|447=C|452=17|448=002FCM001|447=C|452=36|448=DCV|447=C|452=10|55=TFIC13280425|762=RFQF|48=20626|22=M|6=79.414|14=500000000|31=79.414|32=500000000|38=500000000|39=2|20102=79.414|54=2|60=20190612-16:45:13.645|75=20190612|63=1|64=20190612|151=0|1623=4.000|381=397072500.000|880=201906120000000070|828=99|10=103|
8=FIX.4.4|9=0054|35=4|34=5|49=EXC|56=002|52=20190612-16:45:13.738|36=6|10=151|
8=FIX.4.4|9=105|35=A|34=1|49=002|50=002B35|52=20190612-16:55:03.280|56=EXC|98=0|108=30|141=Y|553=002FCM001|554=002FCM001|10=086|
8=FIX.4.4|9=0067|35=A|34=1|49=EXC|56=002|52=20190612-16:55:03.310|98=0|108=30|141=Y|10=255|
8=FIX.4.4|9=0225|35=R|34=2|49=EXC|56=002|57=002B35|52=20190612-16:55:10.599|131=20190612-000000000056.00|146=1|55=TFIC13280425|762=RFQF|48=20626|22=M|54=1|38=500000000|453=3|448=001B27|447=C|452=12|448=001|447=C|452=1|448=002B35|447=C|452=37|10=017|
8=FIX.4.4|9=105|35=A|34=1|49=002|50=002B35|52=20190612-16:56:24.097|56=EXC|98=0|108=30|141=Y|553=002FCM001|554=002FCM001|10=096|
8=FIX.4.4|9=0067|35=A|34=1|49=EXC|56=002|52=20190612-16:56:24.130|98=0|108=30|141=Y|10=003|
8=FIX.4.4|9=0225|35=R|34=2|49=EXC|56=002|57=002B35|52=20190612-16:56:31.378|131=20190612-000000000057.00|146=1|55=TFIC13280425|762=RFQF|48=20626|22=M|54=1|38=500000000|453=3|448=001B27|447=C|452=12|448=001|447=C|452=1|448=002B35|447=C|452=37|10=017|
8=FIX.4.4|9=206|35=S|34=2|49=002|50=002B35|52=20190612-16:56:47.166|56=EXC|55=TFIC13280425|62=20190617-22:00:00.000|117=20190612115621_S|131=20190612-000000000057.00|135=500000000|634=4|762=RFQF|453=1|448=DCV|447=C|452=10|10=054|
8=FIX.4.4|9=0301|35=AI|34=3|49=EXC|56=002|57=002B35|52=20190612-16:56:47.160|131=20190612-000000000057.00|117=20190612115621_S|453=4|448=DCV|447=C|452=10|448=001B27|447=C|452=12|448=001|447=C|452=1|448=002B35|447=C|452=37|55=TFIC13280425|762=RFQF|48=20626|22=M|54=1|634=4.000|135=500000000|62=20190617-22:00:00|297=16|10=226|
8=FIX.4.4|9=0515|35=8|34=4|49=EXC|56=002|57=002B35|52=20190612-16:57:02.577|11=20190612115621_S|17=17|37=0|150=F|1080=20190612-000000000057.00|1081=6|453=6|448=002B35|447=C|452=12|448=002|447=C|452=1|448=001B27|447=C|452=37|448=001|447=C|452=17|448=002FCM001|447=C|452=36|448=DCV|447=C|452=10|55=TFIC13280425|762=RFQF|48=20626|22=M|6=79.414|14=500000000|31=79.414|32=500000000|38=500000000|39=2|20102=79.414|54=2|60=20190612-16:57:02.577|75=20190612|63=1|64=20190612|151=0|1623=4.000|381=397072500.000|880=201906120000000079|828=99|10=106|
8=FIX.4.4|9=59|35=0|34=3|49=002|50=002B35|52=20190612-16:57:18.005|56=EXC|10=051|
