<<<<<<< HEAD
<<<<<<< HEAD
<<<<<<< HEAD
8=FIX.4.4|9=110|35=A|34=1|49=007|50=007B26|52=20190607-14:13:04.998|56=EXC|43=Y|98=0|108=30|141=Y|553=007FCE001|554=007FCE001|10=097|
8=FIX.4.4|9=0067|35=A|34=1|49=EXC|56=007|52=20190607-14:13:05.061|98=0|108=30|141=Y|10=005|
8=FIX.4.4|9=0192|35=R|34=2|49=EXC|56=007|52=20190607-14:13:07.262|131=20190607-000000000012.00|146=1|55=TFIT15260826|762=RFQF|48=20348|22=M|54=1|38=1500000000|453=2|448=001B27|447=C|452=12|448=001|447=C|452=1|10=238|
8=FIX.4.4|9=110|35=A|34=1|49=007|50=007B26|52=20190607-15:35:43.267|56=EXC|43=Y|98=0|108=30|141=Y|553=007FCE001|554=007FCE001|10=094|
8=FIX.4.4|9=0067|35=A|34=1|49=EXC|56=007|52=20190607-15:35:43.321|98=0|108=30|141=Y|10=011|
8=FIX.4.4|9=110|35=A|34=1|49=007|50=007B26|52=20190607-16:16:18.279|56=EXC|43=Y|98=0|108=30|141=Y|553=007FCE001|554=007FCE001|10=099|
8=FIX.4.4|9=0067|35=A|34=1|49=EXC|56=007|52=20190607-16:16:18.378|98=0|108=30|141=Y|10=025|
8=FIX.4.4|9=110|35=A|34=1|49=007|50=007B26|52=20190607-16:39:55.160|56=EXC|43=Y|98=0|108=30|141=Y|553=007FCE001|554=007FCE001|10=094|
8=FIX.4.4|9=0067|35=A|34=1|49=EXC|56=007|52=20190607-16:39:55.205|98=0|108=30|141=Y|10=020|
8=FIX.4.4|9=110|35=A|34=1|49=007|50=007B26|52=20190607-16:43:05.110|56=EXC|43=Y|98=0|108=30|141=Y|553=007FCE001|554=007FCE001|10=079|
8=FIX.4.4|9=0067|35=A|34=1|49=EXC|56=007|52=20190607-16:43:05.175|98=0|108=30|141=Y|10=016|
8=FIX.4.4|9=110|35=A|34=1|49=007|50=007B26|52=20190607-16:44:16.310|56=EXC|43=Y|98=0|108=30|141=Y|553=007FCE001|554=007FCE001|10=084|
8=FIX.4.4|9=0067|35=A|34=1|49=EXC|56=007|52=20190607-16:44:16.342|98=0|108=30|141=Y|10=015|
8=FIX.4.4|9=110|35=A|34=1|49=007|50=007B26|52=20190607-16:47:05.190|56=EXC|43=Y|98=0|108=30|141=Y|553=007FCE001|554=007FCE001|10=091|
8=FIX.4.4|9=0067|35=A|34=1|49=EXC|56=007|52=20190607-16:47:05.246|98=0|108=30|141=Y|10=019|
8=FIX.4.4|9=154|35=R|34=2|49=007|50=007B26|52=20190607-16:47:07.489|56=EXC|131=61947059|146=1|55=TFIT15260826|22=M|762=RFQF|54=1|38=1500000000|453=1|448=DCV|447=C|452=10|10=032|
8=FIX.4.4|9=0236|35=AI|34=2|49=EXC|56=007|57=007B26|52=20190607-16:47:07.473|131=61947059|453=4|448=DCV|447=C|452=10|448=007B26|447=C|452=12|448=007|447=C|452=1|448=007FCE001|447=C|452=36|55=TFIT15260826|762=RFQF|48=20348|22=M|54=1|38=1500000000|297=10|10=190|
8=FIX.4.4|9=0192|35=R|34=3|49=EXC|56=007|52=20190607-16:47:07.473|131=20190607-000000000033.00|146=1|55=TFIT15260826|762=RFQF|48=20348|22=M|54=1|38=1500000000|453=2|448=007B26|447=C|452=12|448=007|447=C|452=1|10=010|
8=FIX.4.4|9=110|35=A|34=1|49=007|50=007B26|52=20190607-16:53:12.249|56=EXC|43=Y|98=0|108=30|141=Y|553=007FCE001|554=007FCE001|10=091|
8=FIX.4.4|9=0067|35=A|34=1|49=EXC|56=007|52=20190607-16:53:12.306|98=0|108=30|141=Y|10=011|
8=FIX.4.4|9=110|35=A|34=1|49=007|50=007B26|52=20190607-17:01:26.136|56=EXC|43=Y|98=0|108=30|141=Y|553=007FCE001|554=007FCE001|10=085|
8=FIX.4.4|9=0067|35=A|34=1|49=EXC|56=007|52=20190607-17:01:26.167|98=0|108=30|141=Y|10=015|
8=FIX.4.4|9=154|35=R|34=2|49=007|50=007B26|52=20190607-17:01:28.266|56=EXC|131=44232973|146=1|55=TFIT15260826|22=M|762=RFQF|54=1|38=1500000000|453=1|448=DCV|447=C|452=10|10=012|
8=FIX.4.4|9=0236|35=AI|34=2|49=EXC|56=007|57=007B26|52=20190607-17:01:28.235|131=44232973|453=4|448=DCV|447=C|452=10|448=007B26|447=C|452=12|448=007|447=C|452=1|448=007FCE001|447=C|452=36|55=TFIT15260826|762=RFQF|48=20348|22=M|54=1|38=1500000000|297=10|10=173|
8=FIX.4.4|9=0192|35=R|34=3|49=EXC|56=007|52=20190607-17:01:28.235|131=20190607-000000000037.00|146=1|55=TFIT15260826|762=RFQF|48=20348|22=M|54=1|38=1500000000|453=2|448=007B26|447=C|452=12|448=007|447=C|452=1|10=004|
8=FIX.4.4|9=110|35=A|34=1|49=007|50=007B26|52=20190607-17:05:59.253|56=EXC|43=Y|98=0|108=30|141=Y|553=007FCE001|554=007FCE001|10=095|
8=FIX.4.4|9=0067|35=A|34=1|49=EXC|56=007|52=20190607-17:05:59.295|98=0|108=30|141=Y|10=027|
=======
8=FIX.4.4|9=110|35=A|34=1|49=007|50=007B26|52=20190607-12:29:13.379|56=EXC|43=Y|98=0|108=30|141=Y|553=007FCE001|554=007FCE001|10=095|
8=FIX.4.4|9=0067|35=A|34=1|49=EXC|56=007|52=20190607-12:29:14.845|98=0|108=30|141=Y|10=020|
8=FIX.4.4|9=110|35=A|34=1|49=007|50=007B26|52=20190607-12:31:01.288|56=EXC|43=Y|98=0|108=30|141=Y|553=007FCE001|554=007FCE001|10=084|
8=FIX.4.4|9=0067|35=A|34=1|49=EXC|56=007|52=20190607-12:31:02.481|98=0|108=30|141=Y|10=006|
8=FIX.4.4|9=110|35=A|34=1|49=007|50=007B26|52=20190607-12:37:18.472|56=EXC|43=Y|98=0|108=30|141=Y|553=007FCE001|554=007FCE001|10=093|
8=FIX.4.4|9=0067|35=A|34=1|49=EXC|56=007|52=20190607-12:37:18.883|98=0|108=30|141=Y|10=025|
8=FIX.4.4|9=0192|35=R|34=2|49=EXC|56=007|52=20190607-12:37:21.174|131=20190607-000000000001.00|146=1|55=TFIT15260826|762=RFQF|48=20348|22=M|54=1|38=1500000000|453=2|448=001B27|447=C|452=12|448=001|447=C|452=1|10=238|
8=FIX.4.4|9=110|35=A|34=1|49=007|50=007B26|52=20190607-13:06:52.975|56=EXC|43=Y|98=0|108=30|141=Y|553=007FCE001|554=007FCE001|10=096|
8=FIX.4.4|9=0067|35=A|34=1|49=EXC|56=007|52=20190607-13:06:52.489|98=0|108=30|141=Y|10=022|
8=FIX.4.4|9=0192|35=R|34=2|49=EXC|56=007|52=20190607-13:06:54.725|131=20190607-000000000002.00|146=1|55=TFIT15260826|762=RFQF|48=20348|22=M|54=1|38=1500000000|453=2|448=001B27|447=C|452=12|448=001|447=C|452=1|10=244|
8=FIX.4.4|9=110|35=A|34=1|49=007|50=007B26|52=20190607-13:41:37.902|56=EXC|43=Y|98=0|108=30|141=Y|553=007FCE001|554=007FCE001|10=088|
8=FIX.4.4|9=0067|35=A|34=1|49=EXC|56=007|52=20190607-13:41:37.472|98=0|108=30|141=Y|10=016|
8=FIX.4.4|9=110|35=A|34=1|49=007|50=007B26|52=20190607-13:44:49.791|56=EXC|43=Y|98=0|108=30|141=Y|553=007FCE001|554=007FCE001|10=100|
8=FIX.4.4|9=0067|35=A|34=1|49=EXC|56=007|52=20190607-13:44:49.329|98=0|108=30|141=Y|10=023|
8=FIX.4.4|9=0192|35=R|34=2|49=EXC|56=007|52=20190607-13:44:51.624|131=20190607-000000000004.00|146=1|55=TFIT15260826|762=RFQF|48=20348|22=M|54=1|38=1500000000|453=2|448=001B27|447=C|452=12|448=001|447=C|452=1|10=243|
8=FIX.4.4|9=0192|35=R|34=3|49=EXC|56=007|52=20190607-13:44:52.353|131=20190607-000000000005.00|146=1|55=TFIT15260826|762=RFQF|48=20348|22=M|54=1|38=1500000000|453=2|448=001B27|447=C|452=12|448=001|447=C|452=1|10=245|
8=FIX.4.4|9=110|35=A|34=1|49=007|50=007B26|52=20190607-14:07:59.722|56=EXC|43=Y|98=0|108=30|141=Y|553=007FCE001|554=007FCE001|10=095|
8=FIX.4.4|9=0067|35=A|34=1|49=EXC|56=007|52=20190607-14:07:59.437|98=0|108=30|141=Y|10=024|
8=FIX.4.4|9=0192|35=R|34=2|49=EXC|56=007|52=20190607-14:08:01.717|131=20190607-000000000007.00|146=1|55=TFIT15260826|762=RFQF|48=20348|22=M|54=1|38=1500000000|453=2|448=001B27|447=C|452=12|448=001|447=C|452=1|10=245|
8=FIX.4.4|9=0192|35=R|34=3|49=EXC|56=007|52=20190607-14:08:02.586|131=20190607-000000000008.00|146=1|55=TFIT15260826|762=RFQF|48=20348|22=M|54=1|38=1500000000|453=2|448=001B27|447=C|452=12|448=001|447=C|452=1|10=252|
8=FIX.4.4|9=59|35=0|34=2|49=007|50=007B26|52=20190607-14:08:30.623|56=EXC|10=058|
8=FIX.4.4|9=0049|35=0|34=4|49=EXC|56=007|52=20190607-14:08:32.000|10=174|
8=FIX.4.4|9=68|35=2|34=3|49=007|50=007B26|52=20190607-14:08:32.325|56=EXC|7=3|16=0|10=187|
8=FIX.4.4|9=0223|35=R|34=3|43=Y|52=20190607-14:08:32.019|49=EXC|56=007|122=20190607-14:08:02.586|131=20190607-000000000008.00|146=1|55=TFIT15260826|762=RFQF|48=20348|22=M|54=1|38=1500000000|453=2|448=001B27|447=C|452=12|448=001|447=C|452=1|10=252|
8=FIX.4.4|9=0065|35=4|34=4|43=Y|49=EXC|56=007|52=20190607-14:08:32.019|123=Y|36=5|10=193|
8=FIX.4.4|9=0054|35=4|34=5|49=EXC|56=007|52=20190607-14:08:32.019|36=6|10=150|
8=FIX.4.4|9=68|35=2|34=4|49=007|50=007B26|52=20190607-14:08:32.361|56=EXC|7=3|16=0|10=188|
8=FIX.4.4|9=0223|35=R|34=3|43=Y|52=20190607-14:08:32.058|49=EXC|56=007|122=20190607-14:08:02.586|131=20190607-000000000008.00|146=1|55=TFIT15260826|762=RFQF|48=20348|22=M|54=1|38=1500000000|453=2|448=001B27|447=C|452=12|448=001|447=C|452=1|10=255|
8=FIX.4.4|9=0065|35=4|34=4|43=Y|49=EXC|56=007|52=20190607-14:08:32.058|123=Y|36=6|10=197|
8=FIX.4.4|9=0054|35=4|34=6|49=EXC|56=007|52=20190607-14:08:32.058|36=7|10=155|
8=FIX.4.4|9=0049|35=0|34=7|49=EXC|56=007|52=20190607-14:09:02.000|10=175|
8=FIX.4.4|9=59|35=0|34=5|49=007|50=007B26|52=20190607-14:09:02.588|56=EXC|10=071|
8=FIX.4.4|9=0049|35=0|34=8|49=EXC|56=007|52=20190607-14:09:32.000|10=179|
8=FIX.4.4|9=59|35=0|34=6|49=007|50=007B26|52=20190607-14:09:33.553|56=EXC|10=068|
8=FIX.4.4|9=0049|35=0|34=9|49=EXC|56=007|52=20190607-14:10:02.000|10=169|
8=FIX.4.4|9=59|35=0|34=7|49=007|50=007B26|52=20190607-14:10:04.521|56=EXC|10=054|
8=FIX.4.4|9=110|35=A|34=1|49=007|50=007B26|52=20190607-14:10:41.222|56=EXC|43=Y|98=0|108=30|141=Y|553=007FCE001|554=007FCE001|10=075|
8=FIX.4.4|9=0067|35=A|34=1|49=EXC|56=007|52=20190607-14:10:41.091|98=0|108=30|141=Y|10=005|
8=FIX.4.4|9=0192|35=R|34=2|49=EXC|56=007|52=20190607-14:10:43.320|131=20190607-000000000009.00|146=1|55=TFIT15260826|762=RFQF|48=20348|22=M|54=1|38=1500000000|453=2|448=001B27|447=C|452=12|448=001|447=C|452=1|10=236|
8=FIX.4.4|9=0192|35=R|34=3|49=EXC|56=007|52=20190607-14:10:44.022|131=20190607-000000000010.00|146=1|55=TFIT15260826|762=RFQF|48=20348|22=M|54=1|38=1500000000|453=2|448=001B27|447=C|452=12|448=001|447=C|452=1|10=229|
8=FIX.4.4|9=59|35=0|34=2|49=007|50=007B26|52=20190607-14:11:12.133|56=EXC|10=048|
8=FIX.4.4|9=0049|35=0|34=4|49=EXC|56=007|52=20190607-14:11:14.000|10=168|
8=FIX.4.4|9=68|35=2|34=3|49=007|50=007B26|52=20190607-14:11:14.149|56=EXC|7=3|16=0|10=185|
8=FIX.4.4|9=0223|35=R|34=3|43=Y|52=20190607-14:11:14.018|49=EXC|56=007|122=20190607-14:10:44.022|131=20190607-000000000010.00|146=1|55=TFIT15260826|762=RFQF|48=20348|22=M|54=1|38=1500000000|453=2|448=001B27|447=C|452=12|448=001|447=C|452=1|10=222|
8=FIX.4.4|9=0065|35=4|34=4|43=Y|49=EXC|56=007|52=20190607-14:11:14.018|123=Y|36=5|10=186|
8=FIX.4.4|9=0054|35=4|34=5|49=EXC|56=007|52=20190607-14:11:14.019|36=6|10=144|
8=FIX.4.4|9=68|35=2|34=4|49=007|50=007B26|52=20190607-14:11:14.187|56=EXC|7=3|16=0|10=188|
8=FIX.4.4|9=0223|35=R|34=3|43=Y|52=20190607-14:11:14.059|49=EXC|56=007|122=20190607-14:10:44.022|131=20190607-000000000010.00|146=1|55=TFIT15260826|762=RFQF|48=20348|22=M|54=1|38=1500000000|453=2|448=001B27|447=C|452=12|448=001|447=C|452=1|10=227|
8=FIX.4.4|9=0065|35=4|34=4|43=Y|49=EXC|56=007|52=20190607-14:11:14.059|123=Y|36=6|10=192|
8=FIX.4.4|9=0054|35=4|34=6|49=EXC|56=007|52=20190607-14:11:14.059|36=7|10=150|
8=FIX.4.4|9=110|35=A|34=1|49=007|50=007B26|52=20190607-14:22:14.143|56=EXC|43=Y|98=0|108=30|141=Y|553=007FCE001|554=007FCE001|10=080|
8=FIX.4.4|9=0067|35=A|34=1|49=EXC|56=007|52=20190607-14:22:14.429|98=0|108=30|141=Y|10=013|
8=FIX.4.4|9=0049|35=0|34=2|49=EXC|56=007|52=20190607-14:22:44.000|10=171|
8=FIX.4.4|9=59|35=0|34=2|49=007|50=007B26|52=20190607-14:22:45.022|56=EXC|10=053|
8=FIX.4.4|9=110|35=A|34=1|49=007|50=007B26|52=20190607-14:23:02.421|56=EXC|43=Y|98=0|108=30|141=Y|553=007FCE001|554=007FCE001|10=077|
8=FIX.4.4|9=0067|35=A|34=1|49=EXC|56=007|52=20190607-14:23:02.710|98=0|108=30|141=Y|10=004|
8=FIX.4.4|9=110|35=A|34=1|49=007|50=007B26|52=20190607-14:23:31.591|56=EXC|43=Y|98=0|108=30|141=Y|553=007FCE001|554=007FCE001|10=087|
8=FIX.4.4|9=0067|35=A|34=1|49=EXC|56=007|52=20190607-14:23:31.876|98=0|108=30|141=Y|10=019|
8=FIX.4.4|9=0192|35=R|34=2|49=EXC|56=007|52=20190607-14:23:34.063|131=20190607-000000000016.00|146=1|55=TFIT15260826|762=RFQF|48=20348|22=M|54=1|38=1500000000|453=2|448=001B27|447=C|452=12|448=001|447=C|452=1|10=242|
8=FIX.4.4|9=59|35=0|34=2|49=007|50=007B26|52=20190607-14:24:02.514|56=EXC|10=054|
8=FIX.4.4|9=0049|35=0|34=3|49=EXC|56=007|52=20190607-14:24:04.000|10=170|
8=FIX.4.4|9=59|35=0|34=3|49=007|50=007B26|52=20190607-14:24:32.521|56=EXC|10=056|
8=FIX.4.4|9=0049|35=0|34=4|49=EXC|56=007|52=20190607-14:24:34.000|10=174|
8=FIX.4.4|9=59|35=0|34=4|49=007|50=007B26|52=20190607-14:25:02.545|56=EXC|10=061|
8=FIX.4.4|9=110|35=A|34=1|49=007|50=007B26|52=20190607-14:42:14.923|56=EXC|43=Y|98=0|108=30|141=Y|553=007FCE001|554=007FCE001|10=088|
8=FIX.4.4|9=0067|35=A|34=1|49=EXC|56=007|52=20190607-14:42:14.985|98=0|108=30|141=Y|10=022|
8=FIX.4.4|9=0192|35=R|34=2|49=EXC|56=007|52=20190607-14:42:17.288|131=20190607-000000000017.00|146=1|55=TFIT15260826|762=RFQF|48=20348|22=M|54=1|38=1500000000|453=2|448=001B27|447=C|452=12|448=001|447=C|452=1|10=254|
8=FIX.4.4|9=110|35=A|34=1|49=007|50=007B26|52=20190607-14:45:47.420|56=EXC|43=Y|98=0|108=30|141=Y|553=007FCE001|554=007FCE001|10=089|
8=FIX.4.4|9=0067|35=A|34=1|49=EXC|56=007|52=20190607-14:45:47.483|98=0|108=30|141=Y|10=024|
8=FIX.4.4|9=0192|35=R|34=2|49=EXC|56=007|52=20190607-14:45:49.663|131=20190607-000000000018.00|146=1|55=TFIT15260826|762=RFQF|48=20348|22=M|54=1|38=1500000000|453=2|448=001B27|447=C|452=12|448=001|447=C|452=1|10=004|
8=FIX.4.4|9=59|35=0|34=2|49=007|50=007B26|52=20190607-14:46:18.338|56=EXC|10=069|
8=FIX.4.4|9=0049|35=0|34=3|49=EXC|56=007|52=20190607-14:46:19.000|10=180|
8=FIX.4.4|9=59|35=0|34=3|49=007|50=007B26|52=20190607-14:46:48.339|56=EXC|10=074|
8=FIX.4.4|9=0049|35=0|34=4|49=EXC|56=007|52=20190607-14:46:49.000|10=184|
8=FIX.4.4|9=110|35=A|34=1|49=007|50=007B26|52=20190607-14:51:26.041|56=EXC|43=Y|98=0|108=30|141=Y|553=007FCE001|554=007FCE001|10=082|
8=FIX.4.4|9=0067|35=A|34=1|49=EXC|56=007|52=20190607-14:51:26.101|98=0|108=30|141=Y|10=005|
8=FIX.4.4|9=110|35=A|34=1|49=007|50=007B26|52=20190607-14:54:09.995|56=EXC|43=Y|98=0|108=30|141=Y|553=007FCE001|554=007FCE001|10=104|
8=FIX.4.4|9=0067|35=A|34=1|49=EXC|56=007|52=20190607-14:54:10.055|98=0|108=30|141=Y|10=009|
8=FIX.4.4|9=0192|35=R|34=2|49=EXC|56=007|52=20190607-14:54:12.262|131=20190607-000000000020.00|146=1|55=TFIT15260826|762=RFQF|48=20348|22=M|54=1|38=1500000000|453=2|448=001B27|447=C|452=12|448=001|447=C|452=1|10=238|
8=FIX.4.4|9=110|35=A|34=1|49=007|50=007B26|52=20190607-14:55:37.589|56=EXC|43=Y|98=0|108=30|141=Y|553=007FCE001|554=007FCE001|10=105|
8=FIX.4.4|9=0067|35=A|34=1|49=EXC|56=007|52=20190607-14:55:37.653|98=0|108=30|141=Y|10=023|
8=FIX.4.4|9=0049|35=0|34=2|49=EXC|56=007|52=20190607-14:56:07.000|10=177|
8=FIX.4.4|9=59|35=0|34=2|49=007|50=007B26|52=20190607-14:56:08.551|56=EXC|10=066|
8=FIX.4.4|9=110|35=A|34=1|49=007|50=007B26|52=20190607-14:57:52.597|56=EXC|43=Y|98=0|108=30|141=Y|553=007FCE001|554=007FCE001|10=103|
8=FIX.4.4|9=0067|35=A|34=1|49=EXC|56=007|52=20190607-14:57:52.656|98=0|108=30|141=Y|10=025|
8=FIX.4.4|9=0192|35=R|34=2|49=EXC|56=007|52=20190607-14:57:54.873|131=20190607-000000000022.00|146=1|55=TFIT15260826|762=RFQF|48=20348|22=M|54=1|38=1500000000|453=2|448=001B27|447=C|452=12|448=001|447=C|452=1|10=001|
8=FIX.4.4|9=59|35=0|34=2|49=007|50=007B26|52=20190607-14:58:23.543|56=EXC|10=066|
8=FIX.4.4|9=0049|35=0|34=3|49=EXC|56=007|52=20190607-14:58:24.000|10=179|
8=FIX.4.4|9=59|35=0|34=3|49=007|50=007B26|52=20190607-14:58:53.545|56=EXC|10=072|
8=FIX.4.4|9=0049|35=0|34=4|49=EXC|56=007|52=20190607-14:58:54.000|10=183|
8=FIX.4.4|9=59|35=0|34=4|49=007|50=007B26|52=20190607-14:59:23.544|56=EXC|10=070|
8=FIX.4.4|9=0049|35=0|34=5|49=EXC|56=007|52=20190607-14:59:24.000|10=182|
8=FIX.4.4|9=59|35=0|34=5|49=007|50=007B26|52=20190607-14:59:53.543|56=EXC|10=073|
8=FIX.4.4|9=0049|35=0|34=6|49=EXC|56=007|52=20190607-14:59:54.000|10=186|
8=FIX.4.4|9=59|35=0|34=6|49=007|50=007B26|52=20190607-15:00:23.543|56=EXC|10=058|
8=FIX.4.4|9=0049|35=0|34=7|49=EXC|56=007|52=20190607-15:00:24.000|10=171|
8=FIX.4.4|9=59|35=0|34=7|49=007|50=007B26|52=20190607-15:00:53.544|56=EXC|10=063|
8=FIX.4.4|9=0049|35=0|34=8|49=EXC|56=007|52=20190607-15:00:54.000|10=175|
8=FIX.4.4|9=59|35=0|34=8|49=007|50=007B26|52=20190607-15:01:23.544|56=EXC|10=062|
8=FIX.4.4|9=0049|35=0|34=9|49=EXC|56=007|52=20190607-15:01:24.000|10=174|
8=FIX.4.4|9=59|35=0|34=9|49=007|50=007B26|52=20190607-15:01:53.544|56=EXC|10=066|
8=FIX.4.4|9=0050|35=0|34=10|49=EXC|56=007|52=20190607-15:01:54.000|10=209|
8=FIX.4.4|9=60|35=0|34=10|49=007|50=007B26|52=20190607-15:02:23.542|56=EXC|10=094|
8=FIX.4.4|9=0050|35=0|34=11|49=EXC|56=007|52=20190607-15:02:24.000|10=208|
8=FIX.4.4|9=60|35=0|34=11|49=007|50=007B26|52=20190607-15:02:53.543|56=EXC|10=099|
8=FIX.4.4|9=0050|35=0|34=12|49=EXC|56=007|52=20190607-15:02:54.000|10=212|
8=FIX.4.4|9=60|35=0|34=12|49=007|50=007B26|52=20190607-15:03:23.545|56=EXC|10=100|
8=FIX.4.4|9=0050|35=0|34=13|49=EXC|56=007|52=20190607-15:03:24.000|10=211|
8=FIX.4.4|9=60|35=0|34=13|49=007|50=007B26|52=20190607-15:03:53.545|56=EXC|10=104|
8=FIX.4.4|9=0050|35=0|34=14|49=EXC|56=007|52=20190607-15:03:54.000|10=215|
>>>>>>> 069492ed1c47821f77e483ed6a9d34242fbb67bb
8=FIX.4.4|9=110|35=A|34=1|49=007|50=007B26|52=20190607-19:00:29.581|56=EXC|43=Y|98=0|108=30|141=Y|553=007FCE001|554=007FCE001|10=093|
8=FIX.4.4|9=0067|35=A|34=1|49=EXC|56=007|52=20190607-19:00:29.609|98=0|108=30|141=Y|10=020|
8=FIX.4.4|9=0049|35=0|34=2|49=EXC|56=007|52=20190607-19:00:59.000|10=178|
8=FIX.4.4|9=59|35=0|34=2|49=007|50=007B26|52=20190607-19:01:00.486|56=EXC|10=060|
8=FIX.4.4|9=0049|35=0|34=3|49=EXC|56=007|52=20190607-19:01:29.000|10=177|
8=FIX.4.4|9=59|35=0|34=3|49=007|50=007B26|52=20190607-19:01:31.476|56=EXC|10=064|
8=FIX.4.4|9=110|35=A|34=1|49=007|50=007B26|52=20190607-19:04:04.055|56=EXC|43=Y|98=0|108=30|141=Y|553=007FCE001|554=007FCE001|10=086|
8=FIX.4.4|9=0067|35=A|34=1|49=EXC|56=007|52=20190607-19:04:04.129|98=0|108=30|141=Y|10=014|
8=FIX.4.4|9=154|35=R|34=2|49=007|50=007B26|52=20190607-19:04:06.242|56=EXC|131=59491970|146=1|55=TFIT15260826|22=M|762=RFQF|54=1|38=1500000000|453=1|448=DCV|447=C|452=10|10=017|
8=FIX.4.4|9=0236|35=AI|34=2|49=EXC|56=007|57=007B26|52=20190607-19:04:06.230|131=59491970|453=4|448=DCV|447=C|452=10|448=007B26|447=C|452=12|448=007|447=C|452=1|448=007FCE001|447=C|452=36|55=TFIT15260826|762=RFQF|48=20348|22=M|54=1|38=1500000000|297=10|10=179|
8=FIX.4.4|9=0192|35=R|34=3|49=EXC|56=007|52=20190607-19:04:06.230|131=20190607-000000000040.00|146=1|55=TFIT15260826|762=RFQF|48=20348|22=M|54=1|38=1500000000|453=2|448=007B26|447=C|452=12|448=007|447=C|452=1|10=250|
8=FIX.4.4|9=0049|35=0|34=4|49=EXC|56=007|52=20190607-19:04:36.000|10=179|
8=FIX.4.4|9=59|35=0|34=3|49=007|50=007B26|52=20190607-19:04:36.896|56=EXC|10=078|
8=FIX.4.4|9=110|35=A|34=1|49=007|50=007B26|52=20190607-19:05:53.374|56=EXC|43=Y|98=0|108=30|141=Y|553=007FCE001|554=007FCE001|10=095|
8=FIX.4.4|9=0067|35=A|34=1|49=EXC|56=007|52=20190607-19:05:53.484|98=0|108=30|141=Y|10=023|
8=FIX.4.4|9=154|35=R|34=2|49=007|50=007B26|52=20190607-19:05:55.568|56=EXC|131=70154506|146=1|55=TFIT15260826|22=M|762=RFQF|54=1|38=1500000000|453=1|448=DCV|447=C|452=10|10=017|
8=FIX.4.4|9=0236|35=AI|34=2|49=EXC|56=007|57=007B26|52=20190607-19:05:55.555|131=70154506|453=4|448=DCV|447=C|452=10|448=007B26|447=C|452=12|448=007|447=C|452=1|448=007FCE001|447=C|452=36|55=TFIT15260826|762=RFQF|48=20348|22=M|54=1|38=1500000000|297=10|10=178|
8=FIX.4.4|9=0192|35=R|34=3|49=EXC|56=007|52=20190607-19:05:55.555|131=20190607-000000000041.00|146=1|55=TFIT15260826|762=RFQF|48=20348|22=M|54=1|38=1500000000|453=2|448=007B26|447=C|452=12|448=007|447=C|452=1|10=010|
8=FIX.4.4|9=110|35=A|34=1|49=007|50=007B26|52=20190607-19:13:31.717|56=EXC|43=Y|98=0|108=30|141=Y|553=007FCE001|554=007FCE001|10=091|
8=FIX.4.4|9=0067|35=A|34=1|49=EXC|56=007|52=20190607-19:13:31.835|98=0|108=30|141=Y|10=018|
8=FIX.4.4|9=154|35=R|34=2|49=007|50=007B26|52=20190607-19:13:34.155|56=EXC|131=34146870|146=1|55=TFIT15260826|22=M|762=RFQF|54=1|38=1500000000|453=1|448=DCV|447=C|452=10|10=010|
8=FIX.4.4|9=0236|35=AI|34=2|49=EXC|56=007|57=007B26|52=20190607-19:13:34.145|131=34146870|453=4|448=DCV|447=C|452=10|448=007B26|447=C|452=12|448=007|447=C|452=1|448=007FCE001|447=C|452=36|55=TFIT15260826|762=RFQF|48=20348|22=M|54=1|38=1500000000|297=10|10=174|
8=FIX.4.4|9=0192|35=R|34=3|49=EXC|56=007|52=20190607-19:13:34.145|131=20190607-000000000042.00|146=1|55=TFIT15260826|762=RFQF|48=20348|22=M|54=1|38=1500000000|453=2|448=007B26|447=C|452=12|448=007|447=C|452=1|10=002|
8=FIX.4.4|9=110|35=A|34=1|49=007|50=007B26|52=20190607-19:21:05.814|56=EXC|43=Y|98=0|108=30|141=Y|553=007FCE001|554=007FCE001|10=089|
8=FIX.4.4|9=0067|35=A|34=1|49=EXC|56=007|52=20190607-19:21:05.891|98=0|108=30|141=Y|10=020|
8=FIX.4.4|9=154|35=R|34=2|49=007|50=007B26|52=20190607-19:21:08.276|56=EXC|131=14464062|146=1|55=TFIT15260826|22=M|762=RFQF|54=1|38=1500000000|453=1|448=DCV|447=C|452=10|10=008|
8=FIX.4.4|9=0236|35=AI|34=2|49=EXC|56=007|57=007B26|52=20190607-19:21:08.256|131=14464062|453=4|448=DCV|447=C|452=10|448=007B26|447=C|452=12|448=007|447=C|452=1|448=007FCE001|447=C|452=36|55=TFIT15260826|762=RFQF|48=20348|22=M|54=1|38=1500000000|297=10|10=171|
8=FIX.4.4|9=0192|35=R|34=3|49=EXC|56=007|52=20190607-19:21:08.256|131=20190607-000000000043.00|146=1|55=TFIT15260826|762=RFQF|48=20348|22=M|54=1|38=1500000000|453=2|448=007B26|447=C|452=12|448=007|447=C|452=1|10=006|
8=FIX.4.4|9=110|35=A|34=1|49=007|50=007B26|52=20190607-19:21:31.076|56=EXC|43=Y|98=0|108=30|141=Y|553=007FCE001|554=007FCE001|10=088|
8=FIX.4.4|9=0067|35=A|34=1|49=EXC|56=007|52=20190607-19:21:31.144|98=0|108=30|141=Y|10=010|
8=FIX.4.4|9=154|35=R|34=2|49=007|50=007B26|52=20190607-19:21:32.106|56=EXC|131=70859808|146=1|55=TFIT15260826|22=M|762=RFQF|54=1|38=1500000000|453=1|448=DCV|447=C|452=10|10=015|
8=FIX.4.4|9=0236|35=AI|34=2|49=EXC|56=007|57=007B26|52=20190607-19:21:32.086|131=70859808|453=4|448=DCV|447=C|452=10|448=007B26|447=C|452=12|448=007|447=C|452=1|448=007FCE001|447=C|452=36|55=TFIT15260826|762=RFQF|48=20348|22=M|54=1|38=1500000000|297=10|10=187|
8=FIX.4.4|9=0192|35=R|34=3|49=EXC|56=007|52=20190607-19:21:32.086|131=20190607-000000000044.00|146=1|55=TFIT15260826|762=RFQF|48=20348|22=M|54=1|38=1500000000|453=2|448=007B26|447=C|452=12|448=007|447=C|452=1|10=005|
8=FIX.4.4|9=110|35=A|34=1|49=007|50=007B26|52=20190607-19:27:53.610|56=EXC|43=Y|98=0|108=30|141=Y|553=007FCE001|554=007FCE001|10=092|
8=FIX.4.4|9=0067|35=A|34=1|49=EXC|56=007|52=20190607-19:27:53.730|98=0|108=30|141=Y|10=021|
8=FIX.4.4|9=154|35=R|34=2|49=007|50=007B26|52=20190607-19:27:55.398|56=EXC|131=39240960|146=1|55=TFIT15260826|22=M|762=RFQF|54=1|38=1500000000|453=1|448=DCV|447=C|452=10|10=027|
8=FIX.4.4|9=0236|35=AI|34=2|49=EXC|56=007|57=007B26|52=20190607-19:27:55.378|131=39240960|453=4|448=DCV|447=C|452=10|448=007B26|447=C|452=12|448=007|447=C|452=1|448=007FCE001|447=C|452=36|55=TFIT15260826|762=RFQF|48=20348|22=M|54=1|38=1500000000|297=10|10=190|
8=FIX.4.4|9=0192|35=R|34=3|49=EXC|56=007|52=20190607-19:27:55.378|131=20190607-000000000047.00|146=1|55=TFIT15260826|762=RFQF|48=20348|22=M|54=1|38=1500000000|453=2|448=007B26|447=C|452=12|448=007|447=C|452=1|10=023|
8=FIX.4.4|9=110|35=A|34=1|49=007|50=007B26|52=20190607-19:28:55.441|56=EXC|43=Y|98=0|108=30|141=Y|553=007FCE001|554=007FCE001|10=097|
8=FIX.4.4|9=0067|35=A|34=1|49=EXC|56=007|52=20190607-19:28:55.616|98=0|108=30|141=Y|10=027|
8=FIX.4.4|9=154|35=R|34=2|49=007|50=007B26|52=20190607-19:28:58.261|56=EXC|131=58030575|146=1|55=TFIT15260826|22=M|762=RFQF|54=1|38=1500000000|453=1|448=DCV|447=C|452=10|10=020|
8=FIX.4.4|9=0236|35=AI|34=2|49=EXC|56=007|57=007B26|52=20190607-19:28:58.241|131=58030575|453=4|448=DCV|447=C|452=10|448=007B26|447=C|452=12|448=007|447=C|452=1|448=007FCE001|447=C|452=36|55=TFIT15260826|762=RFQF|48=20348|22=M|54=1|38=1500000000|297=10|10=183|
8=FIX.4.4|9=0192|35=R|34=3|49=EXC|56=007|52=20190607-19:28:58.241|131=20190607-000000000048.00|146=1|55=TFIT15260826|762=RFQF|48=20348|22=M|54=1|38=1500000000|453=2|448=007B26|447=C|452=12|448=007|447=C|452=1|10=017|
8=FIX.4.4|9=110|35=A|34=1|49=007|50=007B26|52=20190607-19:29:59.838|56=EXC|43=Y|98=0|108=30|141=Y|553=007FCE001|554=007FCE001|10=112|
8=FIX.4.4|9=0067|35=A|34=1|49=EXC|56=007|52=20190607-19:29:59.892|98=0|108=30|141=Y|10=038|
8=FIX.4.4|9=154|35=R|34=2|49=007|50=007B26|52=20190607-19:30:02.034|56=EXC|131=71141225|146=1|55=TFIT15260826|22=M|762=RFQF|54=1|38=1500000000|453=1|448=DCV|447=C|452=10|10=246|
8=FIX.4.4|9=0236|35=AI|34=2|49=EXC|56=007|57=007B26|52=20190607-19:30:02.019|131=71141225|453=4|448=DCV|447=C|452=10|448=007B26|447=C|452=12|448=007|447=C|452=1|448=007FCE001|447=C|452=36|55=TFIT15260826|762=RFQF|48=20348|22=M|54=1|38=1500000000|297=10|10=158|
8=FIX.4.4|9=0192|35=R|34=3|49=EXC|56=007|52=20190607-19:30:02.019|131=20190607-000000000049.00|146=1|55=TFIT15260826|762=RFQF|48=20348|22=M|54=1|38=1500000000|453=2|448=007B26|447=C|452=12|448=007|447=C|452=1|10=003|
8=FIX.4.4|9=59|35=0|34=3|49=007|50=007B26|52=20190607-19:30:32.552|56=EXC|10=062|
8=FIX.4.4|9=0049|35=0|34=4|49=EXC|56=007|52=20190607-19:30:32.000|10=174|
8=FIX.4.4|9=68|35=1|34=4|49=007|50=007B26|52=20190607-19:30:47.559|56=EXC|112=TEST|10=095|
8=FIX.4.4|9=0058|35=0|34=5|49=EXC|56=007|52=20190607-19:30:47.536|112=TEST|10=213|
8=FIX.4.4|9=110|35=A|34=1|49=007|50=007B26|52=20190607-19:33:18.600|56=EXC|43=Y|98=0|108=30|141=Y|553=007FCE001|554=007FCE001|10=089|
8=FIX.4.4|9=0067|35=A|34=1|49=EXC|56=007|52=20190607-19:33:18.763|98=0|108=30|141=Y|10=025|
8=FIX.4.4|9=153|35=R|34=2|49=007|50=007B26|52=20190607-19:33:21.732|56=EXC|131=5160983|146=1|55=TFIT15260826|22=M|762=RFQF|54=1|38=1500000000|453=1|448=DCV|447=C|452=10|10=215|
8=FIX.4.4|9=0235|35=AI|34=2|49=EXC|56=007|57=007B26|52=20190607-19:33:21.739|131=5160983|453=4|448=DCV|447=C|452=10|448=007B26|447=C|452=12|448=007|447=C|452=1|448=007FCE001|447=C|452=36|55=TFIT15260826|762=RFQF|48=20348|22=M|54=1|38=1500000000|297=10|10=131|
8=FIX.4.4|9=0192|35=R|34=3|49=EXC|56=007|52=20190607-19:33:21.739|131=20190607-000000000050.00|146=1|55=TFIT15260826|762=RFQF|48=20348|22=M|54=1|38=1500000000|453=2|448=007B26|447=C|452=12|448=007|447=C|452=1|10=008|
8=FIX.4.4|9=0049|35=0|34=4|49=EXC|56=007|52=20190607-19:33:51.000|10=178|
8=FIX.4.4|9=59|35=0|34=3|49=007|50=007B26|52=20190607-19:33:52.167|56=EXC|10=069|
8=FIX.4.4|9=110|35=A|34=1|49=007|50=007B26|52=20190607-19:44:05.898|56=EXC|43=Y|98=0|108=30|141=Y|553=007FCE001|554=007FCE001|10=106|
8=FIX.4.4|9=0067|35=A|34=1|49=EXC|56=007|52=20190607-19:44:06.053|98=0|108=30|141=Y|10=016|
8=FIX.4.4|9=154|35=R|34=2|49=007|50=007B26|52=20190607-19:44:08.067|56=EXC|131=59954356|146=1|55=TFIT15260826|22=M|762=RFQF|54=1|38=1500000000|453=1|448=DCV|447=C|452=10|10=030|
8=FIX.4.4|9=0236|35=AI|34=2|49=EXC|56=007|57=007B26|52=20190607-19:44:08.040|131=59954356|453=4|448=DCV|447=C|452=10|448=007B26|447=C|452=12|448=007|447=C|452=1|448=007FCE001|447=C|452=36|55=TFIT15260826|762=RFQF|48=20348|22=M|54=1|38=1500000000|297=10|10=186|
8=FIX.4.4|9=0192|35=R|34=3|49=EXC|56=007|52=20190607-19:44:08.040|131=20190607-000000000052.00|146=1|55=TFIT15260826|762=RFQF|48=20348|22=M|54=1|38=1500000000|453=2|448=007B26|447=C|452=12|448=007|447=C|452=1|10=002|
8=FIX.4.4|9=110|35=A|34=1|49=007|50=007B26|52=20190607-19:45:08.146|56=EXC|43=Y|98=0|108=30|141=Y|553=007FCE001|554=007FCE001|10=096|
8=FIX.4.4|9=0067|35=A|34=1|49=EXC|56=007|52=20190607-19:45:08.185|98=0|108=30|141=Y|10=025|
8=FIX.4.4|9=154|35=R|34=2|49=007|50=007B26|52=20190607-19:45:10.465|56=EXC|131=54040615|146=1|55=TFIT15260826|22=M|762=RFQF|54=1|38=1500000000|453=1|448=DCV|447=C|452=10|10=005|
8=FIX.4.4|9=0236|35=AI|34=2|49=EXC|56=007|57=007B26|52=20190607-19:45:10.437|131=54040615|453=4|448=DCV|447=C|452=10|448=007B26|447=C|452=12|448=007|447=C|452=1|448=007FCE001|447=C|452=36|55=TFIT15260826|762=RFQF|48=20348|22=M|54=1|38=1500000000|297=10|10=169|
8=FIX.4.4|9=0192|35=R|34=3|49=EXC|56=007|52=20190607-19:45:10.437|131=20190607-000000000054.00|146=1|55=TFIT15260826|762=RFQF|48=20348|22=M|54=1|38=1500000000|453=2|448=007B26|447=C|452=12|448=007|447=C|452=1|10=008|
8=FIX.4.4|9=110|35=A|34=1|49=007|50=007B26|52=20190607-19:54:07.083|56=EXC|43=Y|98=0|108=30|141=Y|553=007FCE001|554=007FCE001|10=095|
8=FIX.4.4|9=0067|35=A|34=1|49=EXC|56=007|52=20190607-19:54:07.079|98=0|108=30|141=Y|10=026|
8=FIX.4.4|9=153|35=R|34=2|49=007|50=007B26|52=20190607-19:54:09.229|56=EXC|131=7458880|146=1|55=TFIT15260826|22=M|762=RFQF|54=1|38=1500000000|453=1|448=DCV|447=C|452=10|10=233|
8=FIX.4.4|9=0235|35=AI|34=2|49=EXC|56=007|57=007B26|52=20190607-19:54:09.196|131=7458880|453=4|448=DCV|447=C|452=10|448=007B26|447=C|452=12|448=007|447=C|452=1|448=007FCE001|447=C|452=36|55=TFIT15260826|762=RFQF|48=20348|22=M|54=1|38=1500000000|297=10|10=145|
8=FIX.4.4|9=0192|35=R|34=3|49=EXC|56=007|52=20190607-19:54:09.196|131=20190607-000000000056.00|146=1|55=TFIT15260826|762=RFQF|48=20348|22=M|54=1|38=1500000000|453=2|448=007B26|447=C|452=12|448=007|447=C|452=1|10=020|
8=FIX.4.4|9=110|35=A|34=1|49=007|50=007B26|52=20190607-20:00:37.040|56=EXC|43=Y|98=0|108=30|141=Y|553=007FCE001|554=007FCE001|10=074|
8=FIX.4.4|9=0067|35=A|34=1|49=EXC|56=007|52=20190607-20:00:37.078|98=0|108=30|141=Y|10=011|
8=FIX.4.4|9=154|35=R|34=2|49=007|50=007B26|52=20190607-20:00:39.179|56=EXC|131=57102903|146=1|55=TFIT15260826|22=M|762=RFQF|54=1|38=1500000000|453=1|448=DCV|447=C|452=10|10=003|
8=FIX.4.4|9=0236|35=AI|34=2|49=EXC|56=007|57=007B26|52=20190607-20:00:39.139|131=57102903|453=4|448=DCV|447=C|452=10|448=007B26|447=C|452=12|448=007|447=C|452=1|448=007FCE001|447=C|452=36|55=TFIT15260826|762=RFQF|48=20348|22=M|54=1|38=1500000000|297=10|10=164|
8=FIX.4.4|9=0192|35=R|34=3|49=EXC|56=007|52=20190607-20:00:39.139|131=20190607-000000000058.00|146=1|55=TFIT15260826|762=RFQF|48=20348|22=M|54=1|38=1500000000|453=2|448=007B26|447=C|452=12|448=007|447=C|452=1|10=005|
8=FIX.4.4|9=0049|35=0|34=4|49=EXC|56=007|52=20190607-20:01:09.000|10=168|
8=FIX.4.4|9=68|35=2|34=3|49=007|50=007B26|52=20190607-20:01:09.063|56=EXC|7=3|16=0|10=180|
8=FIX.4.4|9=0223|35=R|34=3|43=Y|52=20190607-20:01:09.025|49=EXC|56=007|122=20190607-20:00:39.139|131=20190607-000000000058.00|146=1|55=TFIT15260826|762=RFQF|48=20348|22=M|54=1|38=1500000000|453=2|448=007B26|447=C|452=12|448=007|447=C|452=1|10=252|
8=FIX.4.4|9=0065|35=4|34=4|43=Y|49=EXC|56=007|52=20190607-20:01:09.025|123=Y|36=5|10=184|
8=FIX.4.4|9=0054|35=4|34=5|49=EXC|56=007|52=20190607-20:01:09.025|36=6|10=141|
8=FIX.4.4|9=68|35=2|34=4|49=007|50=007B26|52=20190607-20:01:14.179|56=EXC|7=3|16=0|10=185|
8=FIX.4.4|9=0223|35=R|34=3|43=Y|52=20190607-20:01:14.139|49=EXC|56=007|122=20190607-20:00:39.139|131=20190607-000000000058.00|146=1|55=TFIT15260826|762=RFQF|48=20348|22=M|54=1|38=1500000000|453=2|448=007B26|447=C|452=12|448=007|447=C|452=1|10=254|
8=FIX.4.4|9=0065|35=4|34=4|43=Y|49=EXC|56=007|52=20190607-20:01:14.139|123=Y|36=6|10=187|
8=FIX.4.4|9=0054|35=4|34=6|49=EXC|56=007|52=20190607-20:01:14.140|36=7|10=137|
8=FIX.4.4|9=110|35=A|34=1|49=007|50=007B26|52=20190607-20:04:04.548|56=EXC|43=Y|98=0|108=30|141=Y|553=007FCE001|554=007FCE001|10=085|
8=FIX.4.4|9=0067|35=A|34=1|49=EXC|56=007|52=20190607-20:04:04.696|98=0|108=30|141=Y|10=015|
8=FIX.4.4|9=154|35=R|34=2|49=007|50=007B26|52=20190607-20:04:06.724|56=EXC|131=79342661|146=1|55=TFIT15260826|22=M|762=RFQF|54=1|38=1500000000|453=1|448=DCV|447=C|452=10|10=008|
8=FIX.4.4|9=0236|35=AI|34=2|49=EXC|56=007|57=007B26|52=20190607-20:04:06.698|131=79342661|453=4|448=DCV|447=C|452=10|448=007B26|447=C|452=12|448=007|447=C|452=1|448=007FCE001|447=C|452=36|55=TFIT15260826|762=RFQF|48=20348|22=M|54=1|38=1500000000|297=10|10=183|
8=FIX.4.4|9=0192|35=R|34=3|49=EXC|56=007|52=20190607-20:04:06.698|131=20190607-000000000060.00|146=1|55=TFIT15260826|762=RFQF|48=20348|22=M|54=1|38=1500000000|453=2|448=007B26|447=C|452=12|448=007|447=C|452=1|10=006|
8=FIX.4.4|9=0049|35=0|34=4|49=EXC|56=007|52=20190607-20:04:36.000|10=171|
8=FIX.4.4|9=68|35=2|34=3|49=007|50=007B26|52=20190607-20:04:36.132|56=EXC|7=3|16=0|10=180|
8=FIX.4.4|9=0223|35=R|34=3|43=Y|52=20190607-20:04:36.097|49=EXC|56=007|122=20190607-20:04:06.698|131=20190607-000000000060.00|146=1|55=TFIT15260826|762=RFQF|48=20348|22=M|54=1|38=1500000000|453=2|448=007B26|447=C|452=12|448=007|447=C|452=1|10=009|
8=FIX.4.4|9=0065|35=4|34=4|43=Y|49=EXC|56=007|52=20190607-20:04:36.097|123=Y|36=5|10=196|
8=FIX.4.4|9=0054|35=4|34=5|49=EXC|56=007|52=20190607-20:04:36.097|36=6|10=153|
8=FIX.4.4|9=68|35=2|34=4|49=007|50=007B26|52=20190607-20:04:41.308|56=EXC|7=3|16=0|10=182|
8=FIX.4.4|9=0223|35=R|34=3|43=Y|52=20190607-20:04:41.274|49=EXC|56=007|122=20190607-20:04:06.698|131=20190607-000000000060.00|146=1|55=TFIT15260826|762=RFQF|48=20348|22=M|54=1|38=1500000000|453=2|448=007B26|447=C|452=12|448=007|447=C|452=1|10=002|
8=FIX.4.4|9=0065|35=4|34=4|43=Y|49=EXC|56=007|52=20190607-20:04:41.274|123=Y|36=6|10=190|
8=FIX.4.4|9=0054|35=4|34=6|49=EXC|56=007|52=20190607-20:04:41.275|36=7|10=149|
8=FIX.4.4|9=110|35=A|34=1|49=007|50=007B26|52=20190607-20:05:21.195|56=EXC|43=Y|98=0|108=30|141=Y|553=007FCE001|554=007FCE001|10=083|
8=FIX.4.4|9=0067|35=A|34=1|49=EXC|56=007|52=20190607-20:05:23.060|98=0|108=30|141=Y|10=002|
8=FIX.4.4|9=153|35=R|34=2|49=007|50=007B26|52=20190607-20:05:25.818|56=EXC|131=8409680|146=1|55=TFIT15260826|22=M|762=RFQF|54=1|38=1500000000|453=1|448=DCV|447=C|452=10|10=218|
8=FIX.4.4|9=0235|35=AI|34=2|49=EXC|56=007|57=007B26|52=20190607-20:05:25.785|131=8409680|453=4|448=DCV|447=C|452=10|448=007B26|447=C|452=12|448=007|447=C|452=1|448=007FCE001|447=C|452=36|55=TFIT15260826|762=RFQF|48=20348|22=M|54=1|38=1500000000|297=10|10=130|
8=FIX.4.4|9=0192|35=R|34=3|49=EXC|56=007|52=20190607-20:05:25.785|131=20190607-000000000061.00|146=1|55=TFIT15260826|762=RFQF|48=20348|22=M|54=1|38=1500000000|453=2|448=007B26|447=C|452=12|448=007|447=C|452=1|10=006|
8=FIX.4.4|9=110|35=A|34=1|49=007|50=007B26|52=20190607-20:41:07.975|56=EXC|43=Y|98=0|108=30|141=Y|553=007FCE001|554=007FCE001|10=093|
8=FIX.4.4|9=0067|35=A|34=1|49=EXC|56=007|52=20190607-20:41:07.912|98=0|108=30|141=Y|10=010|
8=FIX.4.4|9=110|35=A|34=1|49=007|50=007B26|52=20190607-20:42:22.655|56=EXC|43=Y|98=0|108=30|141=Y|553=007FCE001|554=007FCE001|10=086|
8=FIX.4.4|9=0067|35=A|34=1|49=EXC|56=007|52=20190607-20:42:22.582|98=0|108=30|141=Y|10=011|
8=FIX.4.4|9=110|35=A|34=1|49=007|50=007B26|52=20190607-20:42:52.265|56=EXC|43=Y|98=0|108=30|141=Y|553=007FCE001|554=007FCE001|10=086|
8=FIX.4.4|9=0067|35=A|34=1|49=EXC|56=007|52=20190607-20:42:52.201|98=0|108=30|141=Y|10=002|
8=FIX.4.4|9=154|35=R|34=2|49=007|50=007B26|52=20190607-20:42:54.612|56=EXC|131=64306349|146=1|55=TFIT15260826|22=M|762=RFQF|54=1|38=1500000000|453=1|448=DCV|447=C|452=10|10=006|
8=FIX.4.4|9=0236|35=AI|34=2|49=EXC|56=007|57=007B26|52=20190607-20:42:54.506|131=64306349|453=4|448=DCV|447=C|452=10|448=007B26|447=C|452=12|448=007|447=C|452=1|448=007FCE001|447=C|452=36|55=TFIT15260826|762=RFQF|48=20348|22=M|54=1|38=1500000000|297=10|10=173|
8=FIX.4.4|9=0192|35=R|34=3|49=EXC|56=007|52=20190607-20:42:54.506|131=20190607-000000000062.00|146=1|55=TFIT15260826|762=RFQF|48=20348|22=M|54=1|38=1500000000|453=2|448=007B26|447=C|452=12|448=007|447=C|452=1|10=001|
8=FIX.4.4|9=110|35=A|34=1|49=007|50=007B26|52=20190607-20:44:20.357|56=EXC|43=Y|98=0|108=30|141=Y|553=007FCE001|554=007FCE001|10=085|
8=FIX.4.4|9=0067|35=A|34=1|49=EXC|56=007|52=20190607-20:44:20.274|98=0|108=30|141=Y|10=009|
8=FIX.4.4|9=154|35=R|34=2|49=007|50=007B26|52=20190607-20:44:22.614|56=EXC|131=48353640|146=1|55=TFIT15260826|22=M|762=RFQF|54=1|38=1500000000|453=1|448=DCV|447=C|452=10|10=003|
8=FIX.4.4|9=0236|35=AI|34=2|49=EXC|56=007|57=007B26|52=20190607-20:44:22.503|131=48353640|453=4|448=DCV|447=C|452=10|448=007B26|447=C|452=12|448=007|447=C|452=1|448=007FCE001|447=C|452=36|55=TFIT15260826|762=RFQF|48=20348|22=M|54=1|38=1500000000|297=10|10=165|
8=FIX.4.4|9=0192|35=R|34=3|49=EXC|56=007|52=20190607-20:44:22.503|131=20190607-000000000064.00|146=1|55=TFIT15260826|762=RFQF|48=20348|22=M|54=1|38=1500000000|453=2|448=007B26|447=C|452=12|448=007|447=C|452=1|10=253|
8=FIX.4.4|9=110|35=A|34=1|49=007|50=007B26|52=20190607-20:54:11.926|56=EXC|43=Y|98=0|108=30|141=Y|553=007FCE001|554=007FCE001|10=088|
8=FIX.4.4|9=0067|35=A|34=1|49=EXC|56=007|52=20190607-20:54:11.884|98=0|108=30|141=Y|10=017|
8=FIX.4.4|9=154|35=R|34=2|49=007|50=007B26|52=20190607-20:54:14.052|56=EXC|131=32422749|146=1|55=TFIT15260826|22=M|762=RFQF|54=1|38=1500000000|453=1|448=DCV|447=C|452=10|10=001|
8=FIX.4.4|9=0236|35=AI|34=2|49=EXC|56=007|57=007B26|52=20190607-20:54:13.947|131=32422749|453=4|448=DCV|447=C|452=10|448=007B26|447=C|452=12|448=007|447=C|452=1|448=007FCE001|447=C|452=36|55=TFIT15260826|762=RFQF|48=20348|22=M|54=1|38=1500000000|297=10|10=178|
8=FIX.4.4|9=0192|35=R|34=3|49=EXC|56=007|52=20190607-20:54:13.947|131=20190607-000000000065.00|146=1|55=TFIT15260826|762=RFQF|48=20348|22=M|54=1|38=1500000000|453=2|448=007B26|447=C|452=12|448=007|447=C|452=1|10=011|
8=FIX.4.4|9=0049|35=0|34=4|49=EXC|56=007|52=20190607-20:54:43.000|10=174|
8=FIX.4.4|9=59|35=0|34=3|49=007|50=007B26|52=20190607-20:54:44.722|56=EXC|10=062|
8=FIX.4.4|9=110|35=A|34=1|49=007|50=007B26|52=20190607-20:55:20.164|56=EXC|43=Y|98=0|108=30|141=Y|553=007FCE001|554=007FCE001|10=083|
8=FIX.4.4|9=0067|35=A|34=1|49=EXC|56=007|52=20190607-20:55:20.099|98=0|108=30|141=Y|10=016|
8=FIX.4.4|9=154|35=R|34=2|49=007|50=007B26|52=20190607-20:55:22.352|56=EXC|131=33561848|146=1|55=TFIT15260826|22=M|762=RFQF|54=1|38=1500000000|453=1|448=DCV|447=C|452=10|10=009|
8=FIX.4.4|9=0236|35=AI|34=2|49=EXC|56=007|57=007B26|52=20190607-20:55:22.248|131=33561848|453=4|448=DCV|447=C|452=10|448=007B26|447=C|452=12|448=007|447=C|452=1|448=007FCE001|447=C|452=36|55=TFIT15260826|762=RFQF|48=20348|22=M|54=1|38=1500000000|297=10|10=178|
8=FIX.4.4|9=0192|35=R|34=3|49=EXC|56=007|52=20190607-20:55:22.248|131=20190607-000000000066.00|146=1|55=TFIT15260826|762=RFQF|48=20348|22=M|54=1|38=1500000000|453=2|448=007B26|447=C|452=12|448=007|447=C|452=1|10=007|
8=FIX.4.4|9=0049|35=0|34=4|49=EXC|56=007|52=20190607-20:55:52.000|10=175|
8=FIX.4.4|9=59|35=0|34=3|49=007|50=007B26|52=20190607-20:55:53.071|56=EXC|10=060|
8=FIX.4.4|9=110|35=A|34=1|49=007|50=007B26|52=20190607-20:59:15.450|56=EXC|43=Y|98=0|108=30|141=Y|553=007FCE001|554=007FCE001|10=089|
8=FIX.4.4|9=0067|35=A|34=1|49=EXC|56=007|52=20190607-20:59:17.022|98=0|108=30|141=Y|10=012|
8=FIX.4.4|9=110|35=A|34=1|49=007|50=007B26|52=20190607-21:31:59.805|56=EXC|43=Y|98=0|108=30|141=Y|553=007FCE001|554=007FCE001|10=092|
8=FIX.4.4|9=0067|35=A|34=1|49=EXC|56=007|52=20190607-21:31:59.711|98=0|108=30|141=Y|10=014|
8=FIX.4.4|9=110|35=A|34=1|49=007|50=007B26|52=20190607-21:32:39.012|56=EXC|43=Y|98=0|108=30|141=Y|553=007FCE001|554=007FCE001|10=081|
8=FIX.4.4|9=0067|35=A|34=1|49=EXC|56=007|52=20190607-21:32:38.931|98=0|108=30|141=Y|10=016|
8=FIX.4.4|9=110|35=A|34=1|49=007|50=007B26|52=20190607-21:33:02.908|56=EXC|43=Y|98=0|108=30|141=Y|553=007FCE001|554=007FCE001|10=086|
8=FIX.4.4|9=0067|35=A|34=1|49=EXC|56=007|52=20190607-21:33:02.834|98=0|108=30|141=Y|10=010|
8=FIX.4.4|9=0049|35=0|34=2|49=EXC|56=007|52=20190607-21:33:32.000|10=168|
8=FIX.4.4|9=59|35=0|34=2|49=007|50=007B26|52=20190607-21:33:33.817|56=EXC|10=062|
8=FIX.4.4|9=110|35=A|34=1|49=007|50=007B26|52=20190607-21:34:44.468|56=EXC|43=Y|98=0|108=30|141=Y|553=007FCE001|554=007FCE001|10=094|
8=FIX.4.4|9=0067|35=A|34=1|49=EXC|56=007|52=20190607-21:34:44.371|98=0|108=30|141=Y|10=013|
8=FIX.4.4|9=0049|35=0|34=2|49=EXC|56=007|52=20190607-21:35:14.000|10=170|
8=FIX.4.4|9=59|35=0|34=2|49=007|50=007B26|52=20190607-21:35:15.389|56=EXC|10=068|
8=FIX.4.4|9=104|35=A|34=3|49=007|50=007B26|52=20190607-21:35:37.654|56=EXC|43=Y|98=0|108=30|553=007FCE001|554=007FCE001|10=054|
8=FIX.4.4|9=0061|35=A|34=3|49=EXC|56=007|52=20190607-21:35:37.589|98=0|108=30|10=234|
8=FIX.4.4|9=110|35=A|34=1|49=007|50=007B26|52=20190607-21:36:18.960|56=EXC|43=Y|98=0|108=30|141=Y|553=007FCE001|554=007FCE001|10=094|
8=FIX.4.4|9=0067|35=A|34=1|49=EXC|56=007|52=20190607-21:36:18.911|98=0|108=30|141=Y|10=016|
8=FIX.4.4|9=110|35=A|34=1|49=007|50=007B26|52=20190607-21:37:18.844|56=EXC|43=Y|98=0|108=30|141=Y|553=007FCE001|554=007FCE001|10=096|
8=FIX.4.4|9=0067|35=A|34=1|49=EXC|56=007|52=20190607-21:37:18.747|98=0|108=30|141=Y|10=024|
8=FIX.4.4|9=110|35=A|34=1|49=007|50=007B26|52=20190607-21:41:52.190|56=EXC|43=Y|98=0|108=30|141=Y|553=007FCE001|554=007FCE001|10=083|
8=FIX.4.4|9=0067|35=A|34=1|49=EXC|56=007|52=20190607-21:41:52.120|98=0|108=30|141=Y|10=002|
8=FIX.4.4|9=110|35=A|34=1|49=007|50=007B26|52=20190607-21:44:11.547|56=EXC|43=Y|98=0|108=30|141=Y|553=007FCE001|554=007FCE001|10=087|
8=FIX.4.4|9=0067|35=A|34=1|49=EXC|56=007|52=20190607-21:44:11.455|98=0|108=30|141=Y|10=011|
8=FIX.4.4|9=0049|35=0|34=2|49=EXC|56=007|52=20190607-21:44:41.000|10=170|
8=FIX.4.4|9=59|35=0|34=2|49=007|50=007B26|52=20190607-21:44:42.487|56=EXC|10=067|
8=FIX.4.4|9=0049|35=0|34=3|49=EXC|56=007|52=20190607-21:45:11.000|10=169|
8=FIX.4.4|9=59|35=0|34=3|49=007|50=007B26|52=20190607-21:45:12.486|56=EXC|10=065|
8=FIX.4.4|9=0049|35=0|34=4|49=EXC|56=007|52=20190607-21:45:41.000|10=173|
8=FIX.4.4|9=59|35=0|34=4|49=007|50=007B26|52=20190607-21:45:42.487|56=EXC|10=070|
8=FIX.4.4|9=110|35=A|34=1|49=007|50=007B26|52=20190607-21:51:28.935|56=EXC|43=Y|98=0|108=30|141=Y|553=007FCE001|554=007FCE001|10=094|
8=FIX.4.4|9=0067|35=A|34=1|49=EXC|56=007|52=20190607-21:51:28.967|98=0|108=30|141=Y|10=025|
8=FIX.4.4|9=104|35=A|34=2|49=007|50=007B26|52=20190607-21:51:50.930|56=EXC|43=Y|98=0|108=30|553=007FCE001|554=007FCE001|10=043|
8=FIX.4.4|9=0061|35=A|34=2|49=EXC|56=007|52=20190607-21:51:50.826|98=0|108=30|10=220|
8=FIX.4.4|9=110|35=A|34=1|49=007|50=007B26|52=20190607-21:52:14.791|56=EXC|43=Y|98=0|108=30|141=Y|553=007FCE001|554=007FCE001|10=090|
8=FIX.4.4|9=0067|35=A|34=1|49=EXC|56=007|52=20190607-21:52:14.810|98=0|108=30|141=Y|10=008|
8=FIX.4.4|9=110|35=A|34=1|49=007|50=007B26|52=20190607-21:52:49.672|56=EXC|43=Y|98=0|108=30|141=Y|553=007FCE001|554=007FCE001|10=096|
8=FIX.4.4|9=0067|35=A|34=1|49=EXC|56=007|52=20190607-21:52:49.707|98=0|108=30|141=Y|10=021|
=======
8=FIX.4.4|9=110|35=A|34=1|49=007|50=007B26|52=20190607-21:41:30.389|56=EXC|43=Y|98=0|108=30|141=Y|553=007FCE001|554=007FCE001|10=089|
8=FIX.4.4|9=0067|35=A|34=1|49=EXC|56=007|52=20190607-21:41:30.336|98=0|108=30|141=Y|10=007|
8=FIX.4.4|9=153|35=R|34=2|49=007|50=007B26|52=20190607-21:41:32.772|56=EXC|131=2733629|146=1|55=TFIT15260826|22=M|762=RFQF|54=1|38=1500000000|453=1|448=DCV|447=C|452=10|10=213|
8=FIX.4.4|9=0235|35=AI|34=2|49=EXC|56=007|57=007B26|52=20190607-21:41:32.688|131=2733629|453=4|448=DCV|447=C|452=10|448=007B26|447=C|452=12|448=007|447=C|452=1|448=007FCE001|447=C|452=36|55=TFIT15260826|762=RFQF|48=20348|22=M|54=1|38=1500000000|297=10|10=128|
8=FIX.4.4|9=0192|35=R|34=3|49=EXC|56=007|52=20190607-21:41:32.688|131=20190607-000000000071.00|146=1|55=TFIT15260826|762=RFQF|48=20348|22=M|54=1|38=1500000000|453=2|448=007B26|447=C|452=12|448=007|447=C|452=1|10=008|
8=FIX.4.4|9=110|35=A|34=1|49=007|50=007B26|52=20190607-21:52:29.990|56=EXC|43=Y|98=0|108=30|141=Y|553=007FCE001|554=007FCE001|10=097|
8=FIX.4.4|9=0067|35=A|34=1|49=EXC|56=007|52=20190607-21:52:29.943|98=0|108=30|141=Y|10=021|
8=FIX.4.4|9=0191|35=R|34=2|49=EXC|56=007|52=20190607-21:52:32.256|131=20190607-000000000073.00|146=1|55=TFIT16300632|762=RFQF|48=20406|22=M|54=1|38=500000000|453=2|448=001B27|447=C|452=12|448=001|447=C|452=1|10=183|
8=FIX.4.4|9=110|35=A|34=1|49=007|50=007B26|52=20190607-21:53:04.037|56=EXC|43=Y|98=0|108=30|141=Y|553=007FCE001|554=007FCE001|10=083|
8=FIX.4.4|9=0067|35=A|34=1|49=EXC|56=007|52=20190607-21:53:03.988|98=0|108=30|141=Y|10=023|
8=FIX.4.4|9=0049|35=0|34=2|49=EXC|56=007|52=20190607-21:53:33.000|10=171|
8=FIX.4.4|9=59|35=0|34=2|49=007|50=007B26|52=20190607-21:53:35.026|56=EXC|10=058|
8=FIX.4.4|9=0049|35=0|34=3|49=EXC|56=007|52=20190607-21:54:03.000|10=170|
8=FIX.4.4|9=59|35=0|34=3|49=007|50=007B26|52=20190607-21:54:05.026|56=EXC|10=057|
8=FIX.4.4|9=110|35=A|34=1|49=007|50=007B26|52=20190607-21:54:23.091|56=EXC|43=Y|98=0|108=30|141=Y|553=007FCE001|554=007FCE001|10=085|
8=FIX.4.4|9=0067|35=A|34=1|49=EXC|56=007|52=20190607-21:54:23.041|98=0|108=30|141=Y|10=006|
>>>>>>> ca8b6fd13021438c8902d768218507fa06f95332
8=FIX.4.4|9=110|35=A|34=1|49=007|50=007B26|52=20190611-14:46:34.272|56=EXC|43=Y|98=0|108=30|141=Y|553=007FCE001|554=007FCE001|10=086|
8=FIX.4.4|9=0067|35=A|34=1|49=EXC|56=007|52=20190611-14:46:34.282|98=0|108=30|141=Y|10=013|
8=FIX.4.4|9=110|35=A|34=1|49=007|50=007B26|52=20190611-14:46:55.023|56=EXC|43=Y|98=0|108=30|141=Y|553=007FCE001|554=007FCE001|10=083|
8=FIX.4.4|9=0067|35=A|34=1|49=EXC|56=007|52=20190611-14:46:55.034|98=0|108=30|141=Y|10=011|
8=FIX.4.4|9=110|35=A|34=1|49=007|50=007B26|52=20190611-14:53:44.800|56=EXC|43=Y|98=0|108=30|141=Y|553=007FCE001|554=007FCE001|10=082|
8=FIX.4.4|9=0067|35=A|34=1|49=EXC|56=007|52=20190611-14:53:44.811|98=0|108=30|141=Y|10=010|
8=FIX.4.4|9=0049|35=0|34=2|49=EXC|56=007|52=20190611-14:54:14.000|10=168|
8=FIX.4.4|9=59|35=0|34=2|49=007|50=007B26|52=20190611-14:54:15.754|56=EXC|10=062|
8=FIX.4.4|9=110|35=A|34=1|49=007|50=007B26|52=20190611-14:54:49.068|56=EXC|43=Y|98=0|108=30|141=Y|553=007FCE001|554=007FCE001|10=094|
8=FIX.4.4|9=0067|35=A|34=1|49=EXC|56=007|52=20190611-14:54:49.083|98=0|108=30|141=Y|10=017|
8=FIX.4.4|9=0049|35=0|34=2|49=EXC|56=007|52=20190611-14:55:19.000|10=174|
8=FIX.4.4|9=59|35=0|34=2|49=007|50=007B26|52=20190611-14:55:20.041|56=EXC|10=048|
8=FIX.4.4|9=0049|35=0|34=3|49=EXC|56=007|52=20190611-14:55:49.000|10=178|
8=FIX.4.4|9=59|35=0|34=3|49=007|50=007B26|52=20190611-14:55:50.041|56=EXC|10=052|
8=FIX.4.4|9=110|35=A|34=1|49=007|50=007B26|52=20190611-14:58:50.478|56=EXC|43=Y|98=0|108=30|141=Y|553=007FCE001|554=007FCE001|10=095|
8=FIX.4.4|9=0067|35=A|34=1|49=EXC|56=007|52=20190611-14:58:50.495|98=0|108=30|141=Y|10=020|
8=FIX.4.4|9=0049|35=0|34=2|49=EXC|56=007|52=20190611-14:59:20.000|10=170|
8=FIX.4.4|9=59|35=0|34=2|49=007|50=007B26|52=20190611-14:59:21.414|56=EXC|10=057|
8=FIX.4.4|9=0049|35=0|34=3|49=EXC|56=007|52=20190611-14:59:50.000|10=174|
8=FIX.4.4|9=59|35=0|34=3|49=007|50=007B26|52=20190611-14:59:51.413|56=EXC|10=060|
8=FIX.4.4|9=110|35=A|34=1|49=007|50=007B26|52=20190611-15:03:10.905|56=EXC|43=Y|98=0|108=30|141=Y|553=007FCE001|554=007FCE001|10=077|
8=FIX.4.4|9=0067|35=A|34=1|49=EXC|56=007|52=20190611-15:03:10.913|98=0|108=30|141=Y|10=002|
8=FIX.4.4|9=0049|35=0|34=2|49=EXC|56=007|52=20190611-15:03:40.000|10=162|
8=FIX.4.4|9=59|35=0|34=2|49=007|50=007B26|52=20190611-15:03:41.807|56=EXC|10=055|
8=FIX.4.4|9=0049|35=0|34=3|49=EXC|56=007|52=20190611-15:04:10.000|10=161|
8=FIX.4.4|9=59|35=0|34=3|49=007|50=007B26|52=20190611-15:04:11.809|56=EXC|10=056|
8=FIX.4.4|9=110|35=A|34=1|49=007|50=007B26|52=20190611-15:09:17.229|56=EXC|43=Y|98=0|108=30|141=Y|553=007FCE001|554=007FCE001|10=089|
8=FIX.4.4|9=0067|35=A|34=1|49=EXC|56=007|52=20190611-15:09:17.239|98=0|108=30|141=Y|10=016|
8=FIX.4.4|9=0049|35=0|34=2|49=EXC|56=007|52=20190611-15:09:47.000|10=175|
8=FIX.4.4|9=59|35=0|34=2|49=007|50=007B26|52=20190611-15:09:48.141|56=EXC|10=059|
8=FIX.4.4|9=0049|35=0|34=3|49=EXC|56=007|52=20190611-15:10:17.000|10=165|
8=FIX.4.4|9=59|35=0|34=3|49=007|50=007B26|52=20190611-15:10:18.142|56=EXC|10=050|
8=FIX.4.4|9=0049|35=0|34=4|49=EXC|56=007|52=20190611-15:10:47.000|10=169|
8=FIX.4.4|9=59|35=0|34=4|49=007|50=007B26|52=20190611-15:10:48.142|56=EXC|10=054|
8=FIX.4.4|9=110|35=A|34=1|49=007|50=007B26|52=20190611-15:14:06.383|56=EXC|43=Y|98=0|108=30|141=Y|553=007FCE001|554=007FCE001|10=084|
8=FIX.4.4|9=0067|35=A|34=1|49=EXC|56=007|52=20190611-15:14:06.400|98=0|108=30|141=Y|10=000|
8=FIX.4.4|9=110|35=A|34=1|49=007|50=007B26|52=20190611-15:14:55.393|56=EXC|43=Y|98=0|108=30|141=Y|553=007FCE001|554=007FCE001|10=089|
8=FIX.4.4|9=0067|35=A|34=1|49=EXC|56=007|52=20190611-15:14:55.399|98=0|108=30|141=Y|10=021|
8=FIX.4.4|9=0049|35=0|34=2|49=EXC|56=007|52=20190611-15:15:25.000|10=168|
8=FIX.4.4|9=59|35=0|34=2|49=007|50=007B26|52=20190611-15:15:26.343|56=EXC|10=056|
8=FIX.4.4|9=0049|35=0|34=3|49=EXC|56=007|52=20190611-15:15:55.000|10=172|
8=FIX.4.4|9=59|35=0|34=3|49=007|50=007B26|52=20190611-15:15:56.343|56=EXC|10=060|
8=FIX.4.4|9=110|35=A|34=1|49=007|50=007B26|52=20190611-15:20:55.344|56=EXC|43=Y|98=0|108=30|141=Y|553=007FCE001|554=007FCE001|10=082|
8=FIX.4.4|9=0067|35=A|34=1|49=EXC|56=007|52=20190611-15:20:55.471|98=0|108=30|141=Y|10=009|
8=FIX.4.4|9=0049|35=0|34=2|49=EXC|56=007|52=20190611-15:21:25.000|10=165|
8=FIX.4.4|9=59|35=0|34=2|49=007|50=007B26|52=20190611-15:21:26.293|56=EXC|10=057|
8=FIX.4.4|9=0049|35=0|34=3|49=EXC|56=007|52=20190611-15:21:55.000|10=169|
8=FIX.4.4|9=59|35=0|34=3|49=007|50=007B26|52=20190611-15:21:56.293|56=EXC|10=061|
8=FIX.4.4|9=0049|35=0|34=4|49=EXC|56=007|52=20190611-15:22:25.000|10=168|
8=FIX.4.4|9=59|35=0|34=4|49=007|50=007B26|52=20190611-15:22:26.293|56=EXC|10=060|
8=FIX.4.4|9=0049|35=0|34=5|49=EXC|56=007|52=20190611-15:22:55.000|10=172|
8=FIX.4.4|9=59|35=0|34=5|49=007|50=007B26|52=20190611-15:22:56.294|56=EXC|10=065|
8=FIX.4.4|9=110|35=A|34=1|49=007|50=007B26|52=20190611-15:24:34.033|56=EXC|43=Y|98=0|108=30|141=Y|553=007FCE001|554=007FCE001|10=078|
8=FIX.4.4|9=0067|35=A|34=1|49=EXC|56=007|52=20190611-15:24:34.037|98=0|108=30|141=Y|10=008|
8=FIX.4.4|9=0049|35=0|34=2|49=EXC|56=007|52=20190611-15:25:04.000|10=166|
8=FIX.4.4|9=59|35=0|34=2|49=007|50=007B26|52=20190611-15:25:04.050|56=EXC|10=048|
8=FIX.4.4|9=0049|35=0|34=3|49=EXC|56=007|52=20190611-15:25:34.000|10=170|
8=FIX.4.4|9=59|35=0|34=3|49=007|50=007B26|52=20190611-15:25:34.046|56=EXC|10=057|
8=FIX.4.4|9=0049|35=0|34=4|49=EXC|56=007|52=20190611-15:26:04.000|10=169|
8=FIX.4.4|9=59|35=0|34=4|49=007|50=007B26|52=20190611-15:26:04.046|56=EXC|10=056|
8=FIX.4.4|9=104|35=A|34=5|49=007|50=007B26|52=20190611-15:26:12.740|56=EXC|43=Y|98=0|108=30|553=007FCE001|554=007FCE001|10=043|
8=FIX.4.4|9=0061|35=A|34=5|49=EXC|56=007|52=20190611-15:26:12.738|98=0|108=30|10=223|
8=FIX.4.4|9=104|35=A|34=6|49=007|50=007B26|52=20190611-15:26:14.011|56=EXC|43=Y|98=0|108=30|553=007FCE001|554=007FCE001|10=037|
8=FIX.4.4|9=0061|35=A|34=6|49=EXC|56=007|52=20190611-15:26:14.008|98=0|108=30|10=216|
8=FIX.4.4|9=0049|35=0|34=7|49=EXC|56=007|52=20190611-15:26:44.000|10=176|
8=FIX.4.4|9=59|35=0|34=7|49=007|50=007B26|52=20190611-15:26:44.045|56=EXC|10=062|
8=FIX.4.4|9=110|35=A|34=1|49=007|50=007B26|52=20190611-15:27:04.307|56=EXC|43=Y|98=0|108=30|141=Y|553=007FCE001|554=007FCE001|10=082|
8=FIX.4.4|9=0067|35=A|34=1|49=EXC|56=007|52=20190611-15:27:04.329|98=0|108=30|141=Y|10=012|
8=FIX.4.4|9=0049|35=0|34=2|49=EXC|56=007|52=20190611-15:27:34.000|10=171|
8=FIX.4.4|9=59|35=0|34=2|49=007|50=007B26|52=20190611-15:27:35.205|56=EXC|10=056|
8=FIX.4.4|9=0049|35=0|34=3|49=EXC|56=007|52=20190611-15:28:04.000|10=170|
8=FIX.4.4|9=59|35=0|34=3|49=007|50=007B26|52=20190611-15:28:05.206|56=EXC|10=056|
8=FIX.4.4|9=0049|35=0|34=4|49=EXC|56=007|52=20190611-15:28:34.000|10=174|
8=FIX.4.4|9=59|35=0|34=4|49=007|50=007B26|52=20190611-15:28:35.206|56=EXC|10=060|
8=FIX.4.4|9=0049|35=0|34=5|49=EXC|56=007|52=20190611-15:29:04.000|10=173|
8=FIX.4.4|9=59|35=0|34=5|49=007|50=007B26|52=20190611-15:29:05.206|56=EXC|10=059|
=======
8=FIX.4.4|9=105|35=A|34=1|49=007|50=007B26|52=20190611-22:57:17.812|56=EXC|98=0|108=30|141=Y|553=007FCE001|554=007FCE001|10=094|
8=FIX.4.4|9=0067|35=A|34=1|49=EXC|56=007|52=20190611-22:57:17.817|98=0|108=30|141=Y|10=019|
8=FIX.4.4|9=162|35=R|34=2|49=007|50=007B26|52=20190611-22:57:20.277|56=EXC|131=20190611175715_R|146=1|55=TFIT15260826|22=M|762=RFQF|54=1|38=1500000000|453=1|448=DCV|447=C|452=10|10=228|
8=FIX.4.4|9=0244|35=AI|34=2|49=EXC|56=007|57=007B26|52=20190611-22:57:20.236|131=20190611175715_R|453=4|448=DCV|447=C|452=10|448=007B26|447=C|452=12|448=007|447=C|452=1|448=007FCE001|447=C|452=36|55=TFIT15260826|762=RFQF|48=20348|22=M|54=1|38=1500000000|297=10|10=132|
8=FIX.4.4|9=0192|35=R|34=3|49=EXC|56=007|52=20190611-22:57:20.236|131=20190611-000000000020.00|146=1|55=TFIT15260826|762=RFQF|48=20348|22=M|54=1|38=1500000000|453=2|448=007B26|447=C|452=12|448=007|447=C|452=1|10=242|
8=FIX.4.4|9=0183|35=R|34=4|49=EXC|56=007|52=20190611-22:57:36.663|131=20190611-000000000020.00|146=1|55=TFIT15260826|762=RFQF|48=20348|22=M|54=1|38=0|453=2|448=007B26|447=C|452=12|448=007|447=C|452=1|10=072|
8=FIX.4.4|9=0316|35=S|34=5|49=EXC|56=007|57=007B26|52=20190611-22:57:36.663|131=20190611175715_R|117=20190611-000000000020.00|55=TFIT15260826|762=RFQF|48=20348|22=M|453=5|448=DCV|447=C|452=10|448=007B26|447=C|452=12|448=007|447=C|452=1|448=007FCE001|447=C|452=36|448=002B35|447=C|452=37|634=6.000|135=1500000000|62=20190617-22:00:00|10=042|
8=FIX.4.4|9=59|35=0|34=3|49=007|50=007B26|52=20190611-22:57:50.794|56=EXC|10=068|
8=FIX.4.4|9=147|35=AJ|34=4|49=007|50=007B26|52=20190611-22:57:57.375|56=EXC|54=1|55=TFIT15260826|117=20190611-000000000020.00|693=20190611175715_AJ|694=1|762=RFQF|10=067|
8=FIX.4.4|9=0522|35=8|34=6|49=EXC|56=007|57=007B26|52=20190611-22:57:57.333|11=20190611175715_AJ|17=3|37=0|150=F|1080=20190611-000000000020.00|1081=5|453=6|448=007B26|447=C|452=12|448=007|447=C|452=1|448=002B35|447=C|452=37|448=002|447=C|452=17|448=007FCE001|447=C|452=36|448=DCV|447=C|452=10|55=TFIT15260826|762=RFQF|48=20348|22=M|6=108.537|14=1500000000|31=108.537|32=1500000000|38=1500000000|39=2|20102=114.475|54=1|60=20190611-22:57:57.333|75=20190611|63=1|64=20190611|151=0|1623=6.000|381=1717131000.000|880=201906110000000004|828=99|10=191|
8=FIX.4.4|9=0049|35=0|34=7|49=EXC|56=007|52=20190611-22:58:27.000|10=180|
8=FIX.4.4|9=68|35=2|34=5|49=007|50=007B26|52=20190611-22:58:27.062|56=EXC|7=6|16=0|10=193|
8=FIX.4.4|9=0553|35=8|34=6|43=Y|52=20190611-22:58:27.019|49=EXC|56=007|57=007B26|122=20190611-22:57:57.333|11=20190611175715_AJ|17=3|37=0|150=F|1080=20190611-000000000020.00|1081=5|453=6|448=007B26|447=C|452=12|448=007|447=C|452=1|448=002B35|447=C|452=37|448=002|447=C|452=17|448=007FCE001|447=C|452=36|448=DCV|447=C|452=10|55=TFIT15260826|762=RFQF|48=20348|22=M|6=108.537|14=1500000000|31=108.537|32=1500000000|38=1500000000|39=2|20102=114.475|54=1|60=20190611-22:57:57.333|75=20190611|63=1|64=20190611|151=0|1623=6.000|381=1717131000.000|880=201906110000000004|828=99|10=203|
8=FIX.4.4|9=0065|35=4|34=7|43=Y|49=EXC|56=007|52=20190611-22:58:27.019|123=Y|36=8|10=202|
8=FIX.4.4|9=0054|35=4|34=8|49=EXC|56=007|52=20190611-22:58:27.020|36=9|10=151|
8=FIX.4.4|9=68|35=2|34=6|49=007|50=007B26|52=20190611-22:58:32.106|56=EXC|7=6|16=0|10=189|
8=FIX.4.4|9=0553|35=8|34=6|43=Y|52=20190611-22:58:32.064|49=EXC|56=007|57=007B26|122=20190611-22:57:57.333|11=20190611175715_AJ|17=3|37=0|150=F|1080=20190611-000000000020.00|1081=5|453=6|448=007B26|447=C|452=12|448=007|447=C|452=1|448=002B35|447=C|452=37|448=002|447=C|452=17|448=007FCE001|447=C|452=36|448=DCV|447=C|452=10|55=TFIT15260826|762=RFQF|48=20348|22=M|6=108.537|14=1500000000|31=108.537|32=1500000000|38=1500000000|39=2|20102=114.475|54=1|60=20190611-22:57:57.333|75=20190611|63=1|64=20190611|151=0|1623=6.000|381=1717131000.000|880=201906110000000004|828=99|10=199|
8=FIX.4.4|9=0065|35=4|34=7|43=Y|49=EXC|56=007|52=20190611-22:58:32.064|123=Y|36=9|10=199|
8=FIX.4.4|9=0055|35=4|34=9|49=EXC|56=007|52=20190611-22:58:32.064|36=10|10=197|
8=FIX.4.4|9=0050|35=0|34=10|49=EXC|56=007|52=20190611-22:59:02.000|10=208|
8=FIX.4.4|9=59|35=0|34=7|49=007|50=007B26|52=20190611-22:59:02.796|56=EXC|10=073|
8=FIX.4.4|9=0050|35=0|34=11|49=EXC|56=007|52=20190611-22:59:32.000|10=212|
8=FIX.4.4|9=59|35=0|34=8|49=007|50=007B26|52=20190611-22:59:33.789|56=EXC|10=080|
8=FIX.4.4|9=0050|35=0|34=12|49=EXC|56=007|52=20190611-23:00:02.000|10=197|
8=FIX.4.4|9=59|35=0|34=9|49=007|50=007B26|52=20190611-23:00:03.785|56=EXC|10=061|
8=FIX.4.4|9=105|35=A|34=1|49=007|50=007B26|52=20190611-23:00:57.181|56=EXC|98=0|108=30|141=Y|553=007FCE001|554=007FCE001|10=086|
8=FIX.4.4|9=0067|35=A|34=1|49=EXC|56=007|52=20190611-23:00:57.174|98=0|108=30|141=Y|10=008|
8=FIX.4.4|9=162|35=R|34=2|49=007|50=007B26|52=20190611-23:00:59.655|56=EXC|131=20190611180054_R|146=1|55=TFIT15260826|22=M|762=RFQF|54=1|38=1500000000|453=1|448=DCV|447=C|452=10|10=221|
8=FIX.4.4|9=0244|35=AI|34=2|49=EXC|56=007|57=007B26|52=20190611-23:00:59.613|131=20190611180054_R|453=4|448=DCV|447=C|452=10|448=007B26|447=C|452=12|448=007|447=C|452=1|448=007FCE001|447=C|452=36|55=TFIT15260826|762=RFQF|48=20348|22=M|54=1|38=1500000000|297=10|10=124|
8=FIX.4.4|9=0192|35=R|34=3|49=EXC|56=007|52=20190611-23:00:59.613|131=20190611-000000000021.00|146=1|55=TFIT15260826|762=RFQF|48=20348|22=M|54=1|38=1500000000|453=2|448=007B26|447=C|452=12|448=007|447=C|452=1|10=243|
8=FIX.4.4|9=0183|35=R|34=4|49=EXC|56=007|52=20190611-23:01:15.604|131=20190611-000000000021.00|146=1|55=TFIT15260826|762=RFQF|48=20348|22=M|54=1|38=0|453=2|448=007B26|447=C|452=12|448=007|447=C|452=1|10=055|
8=FIX.4.4|9=0316|35=S|34=5|49=EXC|56=007|57=007B26|52=20190611-23:01:15.604|131=20190611180054_R|117=20190611-000000000021.00|55=TFIT15260826|762=RFQF|48=20348|22=M|453=5|448=DCV|447=C|452=10|448=007B26|447=C|452=12|448=007|447=C|452=1|448=007FCE001|447=C|452=36|448=002B35|447=C|452=37|634=6.000|135=1500000000|62=20190617-22:00:00|10=017|
8=FIX.4.4|9=59|35=0|34=3|49=007|50=007B26|52=20190611-23:01:30.137|56=EXC|10=047|
8=FIX.4.4|9=105|35=A|34=1|49=007|50=007B26|52=20190611-23:03:31.273|56=EXC|98=0|108=30|141=Y|553=007FCE001|554=007FCE001|10=083|
8=FIX.4.4|9=0067|35=A|34=1|49=EXC|56=007|52=20190611-23:03:31.270|98=0|108=30|141=Y|10=000|
8=FIX.4.4|9=162|35=R|34=2|49=007|50=007B26|52=20190611-23:03:33.686|56=EXC|131=20190611180327_R|146=1|55=TFIT15260826|22=M|762=RFQF|54=1|38=1500000000|453=1|448=DCV|447=C|452=10|10=223|
8=FIX.4.4|9=0244|35=AI|34=2|49=EXC|56=007|57=007B26|52=20190611-23:03:33.644|131=20190611180327_R|453=4|448=DCV|447=C|452=10|448=007B26|447=C|452=12|448=007|447=C|452=1|448=007FCE001|447=C|452=36|55=TFIT15260826|762=RFQF|48=20348|22=M|54=1|38=1500000000|297=10|10=126|
8=FIX.4.4|9=0192|35=R|34=3|49=EXC|56=007|52=20190611-23:03:33.644|131=20190611-000000000022.00|146=1|55=TFIT15260826|762=RFQF|48=20348|22=M|54=1|38=1500000000|453=2|448=007B26|447=C|452=12|448=007|447=C|452=1|10=243|
8=FIX.4.4|9=0049|35=0|34=4|49=EXC|56=007|52=20190611-23:04:03.000|10=163|
8=FIX.4.4|9=59|35=0|34=3|49=007|50=007B26|52=20190611-23:04:04.205|56=EXC|10=047|
8=FIX.4.4|9=68|35=1|34=4|49=007|50=007B26|52=20190611-23:04:24.215|56=EXC|112=TEST|10=070|
8=FIX.4.4|9=0058|35=0|34=5|49=EXC|56=007|52=20190611-23:04:24.174|112=TEST|10=197|
8=FIX.4.4|9=105|35=A|34=1|49=007|50=007B26|52=20190611-23:04:52.242|56=EXC|98=0|108=30|141=Y|553=007FCE001|554=007FCE001|10=083|
8=FIX.4.4|9=0067|35=A|34=1|49=EXC|56=007|52=20190611-23:04:52.246|98=0|108=30|141=Y|10=007|
8=FIX.4.4|9=105|35=A|34=1|49=007|50=007B26|52=20190611-23:05:53.225|56=EXC|98=0|108=30|141=Y|553=007FCE001|554=007FCE001|10=086|
8=FIX.4.4|9=0067|35=A|34=1|49=EXC|56=007|52=20190611-23:05:53.230|98=0|108=30|141=Y|10=002|
8=FIX.4.4|9=105|35=A|34=1|49=007|50=007B26|52=20190611-23:33:37.128|56=EXC|98=0|108=30|141=Y|553=007FCE001|554=007FCE001|10=091|
8=FIX.4.4|9=0067|35=A|34=1|49=EXC|56=007|52=20190611-23:33:37.118|98=0|108=30|141=Y|10=010|
8=FIX.4.4|9=162|35=R|34=2|49=007|50=007B26|52=20190611-23:33:39.702|56=EXC|131=20190611183334_R|146=1|55=TFIT15260826|22=M|762=RFQF|54=1|38=1500000000|453=1|448=DCV|447=C|452=10|10=222|
8=FIX.4.4|9=0244|35=AI|34=2|49=EXC|56=007|57=007B26|52=20190611-23:33:39.653|131=20190611183334_R|453=4|448=DCV|447=C|452=10|448=007B26|447=C|452=12|448=007|447=C|452=1|448=007FCE001|447=C|452=36|55=TFIT15260826|762=RFQF|48=20348|22=M|54=1|38=1500000000|297=10|10=136|
8=FIX.4.4|9=0192|35=R|34=3|49=EXC|56=007|52=20190611-23:33:39.653|131=20190611-000000000023.00|146=1|55=TFIT15260826|762=RFQF|48=20348|22=M|54=1|38=1500000000|453=2|448=007B26|447=C|452=12|448=007|447=C|452=1|10=253|
8=FIX.4.4|9=0049|35=0|34=4|49=EXC|56=007|52=20190611-23:34:09.000|10=172|
8=FIX.4.4|9=59|35=0|34=3|49=007|50=007B26|52=20190611-23:34:10.085|56=EXC|10=053|
8=FIX.4.4|9=105|35=A|34=1|49=007|50=007B26|52=20190611-23:36:25.553|56=EXC|98=0|108=30|141=Y|553=007FCE001|554=007FCE001|10=093|
8=FIX.4.4|9=0067|35=A|34=1|49=EXC|56=007|52=20190611-23:36:25.546|98=0|108=30|141=Y|10=015|
8=FIX.4.4|9=162|35=R|34=2|49=007|50=007B26|52=20190611-23:36:27.981|56=EXC|131=20190611183622_R|146=1|55=TFIT15260826|22=M|762=RFQF|54=1|38=1500000000|453=1|448=DCV|447=C|452=10|10=231|
8=FIX.4.4|9=0244|35=AI|34=2|49=EXC|56=007|57=007B26|52=20190611-23:36:27.933|131=20190611183622_R|453=4|448=DCV|447=C|452=10|448=007B26|447=C|452=12|448=007|447=C|452=1|448=007FCE001|447=C|452=36|55=TFIT15260826|762=RFQF|48=20348|22=M|54=1|38=1500000000|297=10|10=137|
8=FIX.4.4|9=0192|35=R|34=3|49=EXC|56=007|52=20190611-23:36:27.933|131=20190611-000000000024.00|146=1|55=TFIT15260826|762=RFQF|48=20348|22=M|54=1|38=1500000000|453=2|448=007B26|447=C|452=12|448=007|447=C|452=1|10=255|
8=FIX.4.4|9=0049|35=0|34=4|49=EXC|56=007|52=20190611-23:36:57.000|10=177|
8=FIX.4.4|9=59|35=0|34=3|49=007|50=007B26|52=20190611-23:36:58.506|56=EXC|10=065|
8=FIX.4.4|9=0049|35=0|34=5|49=EXC|56=007|52=20190611-23:37:27.000|10=176|
8=FIX.4.4|9=59|35=0|34=4|49=007|50=007B26|52=20190611-23:37:28.512|56=EXC|10=061|
<<<<<<< HEAD
>>>>>>> f72e5dbf77f026669f3a9f397ac6f21de762bc4c
=======
8=FIX.4.4|9=105|35=A|34=1|49=007|50=007B26|52=20190612-13:11:13.800|56=EXC|98=0|108=30|141=Y|553=007FCE001|554=007FCE001|10=078|
8=FIX.4.4|9=0067|35=A|34=1|49=EXC|56=007|52=20190612-13:11:13.845|98=0|108=30|141=Y|10=007|
8=FIX.4.4|9=161|35=R|34=2|49=007|50=007B26|52=20190612-13:11:16.406|56=EXC|131=2019061281110_R|146=1|55=TFIT15260826|22=M|762=RFQF|54=1|38=1500000000|453=1|448=DCV|447=C|452=10|10=155|
8=FIX.4.4|9=0243|35=AI|34=2|49=EXC|56=007|57=007B26|52=20190612-13:11:16.411|131=2019061281110_R|453=4|448=DCV|447=C|452=10|448=007B26|447=C|452=12|448=007|447=C|452=1|448=007FCE001|447=C|452=36|55=TFIT15260826|762=RFQF|48=20348|22=M|54=1|38=1500000000|297=10|10=060|
8=FIX.4.4|9=0192|35=R|34=3|49=EXC|56=007|52=20190612-13:11:16.411|131=20190612-000000000001.00|146=1|55=TFIT15260826|762=RFQF|48=20348|22=M|54=1|38=1500000000|453=2|448=007B26|447=C|452=12|448=007|447=C|452=1|10=233|
8=FIX.4.4|9=105|35=A|34=1|49=007|50=007B26|52=20190612-13:23:10.045|56=EXC|98=0|108=30|141=Y|553=007FCE001|554=007FCE001|10=079|
8=FIX.4.4|9=0067|35=A|34=1|49=EXC|56=007|52=20190612-13:23:10.095|98=0|108=30|141=Y|10=004|
8=FIX.4.4|9=161|35=R|34=2|49=007|50=007B26|52=20190612-13:23:12.440|56=EXC|131=2019061282307_R|146=1|55=TFIT15260826|22=M|762=RFQF|54=1|38=1500000000|453=1|448=DCV|447=C|452=10|10=161|
8=FIX.4.4|9=0243|35=AI|34=2|49=EXC|56=007|57=007B26|52=20190612-13:23:12.449|131=2019061282307_R|453=4|448=DCV|447=C|452=10|448=007B26|447=C|452=12|448=007|447=C|452=1|448=007FCE001|447=C|452=36|55=TFIT15260826|762=RFQF|48=20348|22=M|54=1|38=1500000000|297=10|10=079|
8=FIX.4.4|9=0192|35=R|34=3|49=EXC|56=007|52=20190612-13:23:12.449|131=20190612-000000000002.00|146=1|55=TFIT15260826|762=RFQF|48=20348|22=M|54=1|38=1500000000|453=2|448=007B26|447=C|452=12|448=007|447=C|452=1|10=244|
8=FIX.4.4|9=0049|35=0|34=4|49=EXC|56=007|52=20190612-13:23:42.000|10=167|
8=FIX.4.4|9=59|35=0|34=3|49=007|50=007B26|52=20190612-13:23:42.934|56=EXC|10=059|
8=FIX.4.4|9=0049|35=0|34=5|49=EXC|56=007|52=20190612-13:24:12.000|10=166|
8=FIX.4.4|9=59|35=0|34=4|49=007|50=007B26|52=20190612-13:24:12.934|56=EXC|10=058|
8=FIX.4.4|9=0049|35=0|34=6|49=EXC|56=007|52=20190612-13:24:42.000|10=170|
8=FIX.4.4|9=59|35=0|34=5|49=007|50=007B26|52=20190612-13:24:42.934|56=EXC|10=062|
8=FIX.4.4|9=105|35=A|34=1|49=007|50=007B26|52=20190612-13:26:35.087|56=EXC|98=0|108=30|141=Y|553=007FCE001|554=007FCE001|10=095|
8=FIX.4.4|9=0067|35=A|34=1|49=EXC|56=007|52=20190612-13:26:35.138|98=0|108=30|141=Y|10=012|
8=FIX.4.4|9=161|35=R|34=2|49=007|50=007B26|52=20190612-13:26:37.542|56=EXC|131=2019061282632_R|146=1|55=TFIT15260826|22=M|762=RFQF|54=1|38=1500000000|453=1|448=DCV|447=C|452=10|10=175|
8=FIX.4.4|9=0243|35=AI|34=2|49=EXC|56=007|57=007B26|52=20190612-13:26:37.548|131=2019061282632_R|453=4|448=DCV|447=C|452=10|448=007B26|447=C|452=12|448=007|447=C|452=1|448=007FCE001|447=C|452=36|55=TFIT15260826|762=RFQF|48=20348|22=M|54=1|38=1500000000|297=10|10=090|
8=FIX.4.4|9=0192|35=R|34=3|49=EXC|56=007|52=20190612-13:26:37.548|131=20190612-000000000003.00|146=1|55=TFIT15260826|762=RFQF|48=20348|22=M|54=1|38=1500000000|453=2|448=007B26|447=C|452=12|448=007|447=C|452=1|10=255|
8=FIX.4.4|9=0049|35=0|34=4|49=EXC|56=007|52=20190612-13:27:07.000|10=172|
8=FIX.4.4|9=59|35=0|34=3|49=007|50=007B26|52=20190612-13:27:08.061|56=EXC|10=056|
8=FIX.4.4|9=105|35=A|34=1|49=007|50=007B26|52=20190612-13:28:07.332|56=EXC|98=0|108=30|141=Y|553=007FCE001|554=007FCE001|10=089|
8=FIX.4.4|9=0067|35=A|34=1|49=EXC|56=007|52=20190612-13:28:07.373|98=0|108=30|141=Y|10=014|
8=FIX.4.4|9=161|35=R|34=2|49=007|50=007B26|52=20190612-13:28:09.731|56=EXC|131=2019061282804_R|146=1|55=TFIT15260826|22=M|762=RFQF|54=1|38=1500000000|453=1|448=DCV|447=C|452=10|10=177|
8=FIX.4.4|9=0243|35=AI|34=2|49=EXC|56=007|57=007B26|52=20190612-13:28:09.737|131=2019061282804_R|453=4|448=DCV|447=C|452=10|448=007B26|447=C|452=12|448=007|447=C|452=1|448=007FCE001|447=C|452=36|55=TFIT15260826|762=RFQF|48=20348|22=M|54=1|38=1500000000|297=10|10=092|
8=FIX.4.4|9=0192|35=R|34=3|49=EXC|56=007|52=20190612-13:28:09.737|131=20190612-000000000004.00|146=1|55=TFIT15260826|762=RFQF|48=20348|22=M|54=1|38=1500000000|453=2|448=007B26|447=C|452=12|448=007|447=C|452=1|10=001|
8=FIX.4.4|9=0049|35=0|34=4|49=EXC|56=007|52=20190612-13:28:39.000|10=178|
8=FIX.4.4|9=59|35=0|34=3|49=007|50=007B26|52=20190612-13:28:40.223|56=EXC|10=053|
8=FIX.4.4|9=105|35=A|34=1|49=007|50=007B26|52=20190612-13:36:22.709|56=EXC|98=0|108=30|141=Y|553=007FCE001|554=007FCE001|10=093|
8=FIX.4.4|9=0067|35=A|34=1|49=EXC|56=007|52=20190612-13:36:22.779|98=0|108=30|141=Y|10=020|
8=FIX.4.4|9=161|35=R|34=2|49=007|50=007B26|52=20190612-13:36:25.225|56=EXC|131=2019061283620_R|146=1|55=TFIT15260826|22=M|762=RFQF|54=1|38=1500000000|453=1|448=DCV|447=C|452=10|10=169|
8=FIX.4.4|9=0243|35=AI|34=2|49=EXC|56=007|57=007B26|52=20190612-13:36:25.229|131=2019061283620_R|453=4|448=DCV|447=C|452=10|448=007B26|447=C|452=12|448=007|447=C|452=1|448=007FCE001|447=C|452=36|55=TFIT15260826|762=RFQF|48=20348|22=M|54=1|38=1500000000|297=10|10=082|
8=FIX.4.4|9=0192|35=R|34=3|49=EXC|56=007|52=20190612-13:36:25.229|131=20190612-000000000005.00|146=1|55=TFIT15260826|762=RFQF|48=20348|22=M|54=1|38=1500000000|453=2|448=007B26|447=C|452=12|448=007|447=C|452=1|10=251|
8=FIX.4.4|9=0183|35=R|34=4|49=EXC|56=007|52=20190612-13:36:41.461|131=20190612-000000000005.00|146=1|55=TFIT15260826|762=RFQF|48=20348|22=M|54=1|38=0|453=2|448=007B26|447=C|452=12|448=007|447=C|452=1|10=066|
8=FIX.4.4|9=0315|35=S|34=5|49=EXC|56=007|57=007B26|52=20190612-13:36:41.461|131=2019061283620_R|117=20190612-000000000005.00|55=TFIT15260826|762=RFQF|48=20348|22=M|453=5|448=DCV|447=C|452=10|448=007B26|447=C|452=12|448=007|447=C|452=1|448=007FCE001|447=C|452=36|448=002B35|447=C|452=37|634=6.000|135=1500000000|62=20190617-22:00:00|10=237|
8=FIX.4.4|9=59|35=0|34=3|49=007|50=007B26|52=20190612-13:36:55.582|56=EXC|10=066|
8=FIX.4.4|9=146|35=AJ|34=4|49=007|50=007B26|52=20190612-13:37:02.540|56=EXC|54=1|55=TFIT15260826|117=20190612-000000000005.00|693=2019061283620_AJ|694=1|762=RFQF|10=255|
8=FIX.4.4|9=0521|35=8|34=6|49=EXC|56=007|57=007B26|52=20190612-13:37:02.543|11=2019061283620_AJ|17=1|37=0|150=F|1080=20190612-000000000005.00|1081=5|453=6|448=007B26|447=C|452=12|448=007|447=C|452=1|448=002B35|447=C|452=37|448=002|447=C|452=17|448=007FCE001|447=C|452=36|448=DCV|447=C|452=10|55=TFIT15260826|762=RFQF|48=20348|22=M|6=108.535|14=1500000000|31=108.535|32=1500000000|38=1500000000|39=2|20102=114.493|54=1|60=20190612-13:37:02.543|75=20190612|63=1|64=20190612|151=0|1623=6.000|381=1717408500.000|880=201906120000000001|828=99|10=130|
8=FIX.4.4|9=0049|35=0|34=7|49=EXC|56=007|52=20190612-13:37:32.000|10=174|
8=FIX.4.4|9=59|35=0|34=5|49=007|50=007B26|52=20190612-13:37:32.587|56=EXC|10=069|
8=FIX.4.4|9=0049|35=0|34=8|49=EXC|56=007|52=20190612-13:38:02.000|10=173|
8=FIX.4.4|9=59|35=0|34=6|49=007|50=007B26|52=20190612-13:38:02.587|56=EXC|10=068|
8=FIX.4.4|9=105|35=A|34=1|49=007|50=007B26|52=20190612-13:39:01.582|56=EXC|98=0|108=30|141=Y|553=007FCE001|554=007FCE001|10=092|
8=FIX.4.4|9=0067|35=A|34=1|49=EXC|56=007|52=20190612-13:39:01.618|98=0|108=30|141=Y|10=012|
8=FIX.4.4|9=161|35=R|34=2|49=007|50=007B26|52=20190612-13:39:03.961|56=EXC|131=2019061283858_R|146=1|55=TFIT15260826|22=M|762=RFQF|54=1|38=1500000000|453=1|448=DCV|447=C|452=10|10=188|
8=FIX.4.4|9=0243|35=AI|34=2|49=EXC|56=007|57=007B26|52=20190612-13:39:03.964|131=2019061283858_R|453=4|448=DCV|447=C|452=10|448=007B26|447=C|452=12|448=007|447=C|452=1|448=007FCE001|447=C|452=36|55=TFIT15260826|762=RFQF|48=20348|22=M|54=1|38=1500000000|297=10|10=100|
8=FIX.4.4|9=0192|35=R|34=3|49=EXC|56=007|52=20190612-13:39:03.964|131=20190612-000000000006.00|146=1|55=TFIT15260826|762=RFQF|48=20348|22=M|54=1|38=1500000000|453=2|448=007B26|447=C|452=12|448=007|447=C|452=1|10=001|
8=FIX.4.4|9=0183|35=R|34=4|49=EXC|56=007|52=20190612-13:39:20.172|131=20190612-000000000006.00|146=1|55=TFIT15260826|762=RFQF|48=20348|22=M|54=1|38=0|453=2|448=007B26|447=C|452=12|448=007|447=C|452=1|10=066|
8=FIX.4.4|9=0315|35=S|34=5|49=EXC|56=007|57=007B26|52=20190612-13:39:20.172|131=2019061283858_R|117=20190612-000000000006.00|55=TFIT15260826|762=RFQF|48=20348|22=M|453=5|448=DCV|447=C|452=10|448=007B26|447=C|452=12|448=007|447=C|452=1|448=007FCE001|447=C|452=36|448=002B35|447=C|452=37|634=6.000|135=1500000000|62=20190617-22:00:00|10=250|
8=FIX.4.4|9=59|35=0|34=3|49=007|50=007B26|52=20190612-13:39:34.536|56=EXC|10=065|
8=FIX.4.4|9=146|35=AJ|34=4|49=007|50=007B26|52=20190612-13:39:41.341|56=EXC|54=1|55=TFIT15260826|117=20190612-000000000006.00|693=2019061283858_AJ|694=1|762=RFQF|10=017|
8=FIX.4.4|9=0521|35=8|34=6|49=EXC|56=007|57=007B26|52=20190612-13:39:41.344|11=2019061283858_AJ|17=2|37=0|150=F|1080=20190612-000000000006.00|1081=5|453=6|448=007B26|447=C|452=12|448=007|447=C|452=1|448=002B35|447=C|452=37|448=002|447=C|452=17|448=007FCE001|447=C|452=36|448=DCV|447=C|452=10|55=TFIT15260826|762=RFQF|48=20348|22=M|6=108.535|14=1500000000|31=108.535|32=1500000000|38=1500000000|39=2|20102=114.493|54=1|60=20190612-13:39:41.344|75=20190612|63=1|64=20190612|151=0|1623=6.000|381=1717408500.000|880=201906120000000002|828=99|10=154|
8=FIX.4.4|9=0049|35=0|34=7|49=EXC|56=007|52=20190612-13:40:11.000|10=165|
8=FIX.4.4|9=68|35=2|34=5|49=007|50=007B26|52=20190612-13:40:11.030|56=EXC|7=6|16=0|10=173|
8=FIX.4.4|9=0552|35=8|34=6|43=Y|52=20190612-13:40:11.033|49=EXC|56=007|57=007B26|122=20190612-13:39:41.344|11=2019061283858_AJ|17=2|37=0|150=F|1080=20190612-000000000006.00|1081=5|453=6|448=007B26|447=C|452=12|448=007|447=C|452=1|448=002B35|447=C|452=37|448=002|447=C|452=17|448=007FCE001|447=C|452=36|448=DCV|447=C|452=10|55=TFIT15260826|762=RFQF|48=20348|22=M|6=108.535|14=1500000000|31=108.535|32=1500000000|38=1500000000|39=2|20102=114.493|54=1|60=20190612-13:39:41.344|75=20190612|63=1|64=20190612|151=0|1623=6.000|381=1717408500.000|880=201906120000000002|828=99|10=147|
8=FIX.4.4|9=0065|35=4|34=7|43=Y|49=EXC|56=007|52=20190612-13:40:11.033|123=Y|36=8|10=183|
8=FIX.4.4|9=0054|35=4|34=8|49=EXC|56=007|52=20190612-13:40:11.033|36=9|10=140|
8=FIX.4.4|9=68|35=2|34=6|49=007|50=007B26|52=20190612-13:40:16.088|56=EXC|7=6|16=0|10=192|
8=FIX.4.4|9=0552|35=8|34=6|43=Y|52=20190612-13:40:16.092|49=EXC|56=007|57=007B26|122=20190612-13:39:41.344|11=2019061283858_AJ|17=2|37=0|150=F|1080=20190612-000000000006.00|1081=5|453=6|448=007B26|447=C|452=12|448=007|447=C|452=1|448=002B35|447=C|452=37|448=002|447=C|452=17|448=007FCE001|447=C|452=36|448=DCV|447=C|452=10|55=TFIT15260826|762=RFQF|48=20348|22=M|6=108.535|14=1500000000|31=108.535|32=1500000000|38=1500000000|39=2|20102=114.493|54=1|60=20190612-13:39:41.344|75=20190612|63=1|64=20190612|151=0|1623=6.000|381=1717408500.000|880=201906120000000002|828=99|10=157|
8=FIX.4.4|9=0065|35=4|34=7|43=Y|49=EXC|56=007|52=20190612-13:40:16.092|123=Y|36=9|10=194|
8=FIX.4.4|9=0055|35=4|34=9|49=EXC|56=007|52=20190612-13:40:16.092|36=10|10=192|
8=FIX.4.4|9=105|35=A|34=1|49=007|50=007B26|52=20190612-13:42:48.778|56=EXC|98=0|108=30|141=Y|553=007FCE001|554=007FCE001|10=104|
8=FIX.4.4|9=0067|35=A|34=1|49=EXC|56=007|52=20190612-13:42:48.811|98=0|108=30|141=Y|10=012|
8=FIX.4.4|9=161|35=R|34=2|49=007|50=007B26|52=20190612-13:42:51.236|56=EXC|131=2019061284245_R|146=1|55=TFIT15260826|22=M|762=RFQF|54=1|38=1500000000|453=1|448=DCV|447=C|452=10|10=171|
8=FIX.4.4|9=0243|35=AI|34=2|49=EXC|56=007|57=007B26|52=20190612-13:42:51.239|131=2019061284245_R|453=4|448=DCV|447=C|452=10|448=007B26|447=C|452=12|448=007|447=C|452=1|448=007FCE001|447=C|452=36|55=TFIT15260826|762=RFQF|48=20348|22=M|54=1|38=1500000000|297=10|10=083|
8=FIX.4.4|9=0192|35=R|34=3|49=EXC|56=007|52=20190612-13:42:51.239|131=20190612-000000000007.00|146=1|55=TFIT15260826|762=RFQF|48=20348|22=M|54=1|38=1500000000|453=2|448=007B26|447=C|452=12|448=007|447=C|452=1|10=250|
8=FIX.4.4|9=0183|35=R|34=4|49=EXC|56=007|52=20190612-13:43:07.346|131=20190612-000000000007.00|146=1|55=TFIT15260826|762=RFQF|48=20348|22=M|54=1|38=0|453=2|448=007B26|447=C|452=12|448=007|447=C|452=1|10=070|
8=FIX.4.4|9=0315|35=S|34=5|49=EXC|56=007|57=007B26|52=20190612-13:43:07.346|131=2019061284245_R|117=20190612-000000000007.00|55=TFIT15260826|762=RFQF|48=20348|22=M|453=5|448=DCV|447=C|452=10|448=007B26|447=C|452=12|448=007|447=C|452=1|448=007FCE001|447=C|452=36|448=002B35|447=C|452=37|634=6.000|135=1500000000|62=20190617-22:00:00|10=245|
8=FIX.4.4|9=59|35=0|34=3|49=007|50=007B26|52=20190612-13:43:21.657|56=EXC|10=060|
8=FIX.4.4|9=146|35=AJ|34=4|49=007|50=007B26|52=20190612-13:43:28.946|56=EXC|54=1|55=TFIT15260826|117=20190612-000000000007.00|693=2019061284245_AJ|694=1|762=RFQF|10=020|
8=FIX.4.4|9=0521|35=8|34=6|49=EXC|56=007|57=007B26|52=20190612-13:43:28.948|11=2019061284245_AJ|17=3|37=0|150=F|1080=20190612-000000000007.00|1081=5|453=6|448=007B26|447=C|452=12|448=007|447=C|452=1|448=002B35|447=C|452=37|448=002|447=C|452=17|448=007FCE001|447=C|452=36|448=DCV|447=C|452=10|55=TFIT15260826|762=RFQF|48=20348|22=M|6=108.535|14=1500000000|31=108.535|32=1500000000|38=1500000000|39=2|20102=114.493|54=1|60=20190612-13:43:28.948|75=20190612|63=1|64=20190612|151=0|1623=6.000|381=1717408500.000|880=201906120000000003|828=99|10=168|
8=FIX.4.4|9=0191|35=R|34=7|49=EXC|56=007|52=20190612-13:43:39.859|131=20190612-000000000008.00|146=1|55=TFIC14280426|762=RFQF|48=20602|22=M|54=1|38=500000000|453=2|448=001B27|447=C|452=12|448=001|447=C|452=1|10=182|
8=FIX.4.4|9=105|35=A|34=1|49=007|50=007B26|52=20190612-13:44:28.328|56=EXC|98=0|108=30|141=Y|553=007FCE001|554=007FCE001|10=095|
8=FIX.4.4|9=0067|35=A|34=1|49=EXC|56=007|52=20190612-13:44:28.361|98=0|108=30|141=Y|10=012|
8=FIX.4.4|9=0049|35=0|34=2|49=EXC|56=007|52=20190612-13:44:58.000|10=175|
8=FIX.4.4|9=59|35=0|34=2|49=007|50=007B26|52=20190612-13:44:59.296|56=EXC|10=070|
<<<<<<< HEAD
8=FIX.4.4|9=105|35=A|34=1|49=007|50=007B26|52=20190612-14:37:56.698|56=EXC|98=0|108=30|141=Y|553=007FCE001|554=007FCE001|10=109|
8=FIX.4.4|9=0067|35=A|34=1|49=EXC|56=007|52=20190612-14:37:56.746|98=0|108=30|141=Y|10=023|
8=FIX.4.4|9=0049|35=0|34=2|49=EXC|56=007|52=20190612-14:38:26.000|10=174|
8=FIX.4.4|9=59|35=0|34=2|49=007|50=007B26|52=20190612-14:38:27.630|56=EXC|10=061|
8=FIX.4.4|9=105|35=A|34=1|49=007|50=007B26|52=20190612-14:42:23.075|56=EXC|98=0|108=30|141=Y|553=007FCE001|554=007FCE001|10=088|
8=FIX.4.4|9=0067|35=A|34=1|49=EXC|56=007|52=20190612-14:42:23.126|98=0|108=30|141=Y|10=005|
8=FIX.4.4|9=0049|35=0|34=2|49=EXC|56=007|52=20190612-14:42:53.000|10=169|
8=FIX.4.4|9=59|35=0|34=2|49=007|50=007B26|52=20190612-14:42:53.919|56=EXC|10=065|
8=FIX.4.4|9=105|35=A|34=1|49=007|50=007B26|52=20190612-14:44:15.019|56=EXC|98=0|108=30|141=Y|553=007FCE001|554=007FCE001|10=089|
8=FIX.4.4|9=0067|35=A|34=1|49=EXC|56=007|52=20190612-14:44:15.062|98=0|108=30|141=Y|10=007|
8=FIX.4.4|9=0049|35=0|34=2|49=EXC|56=007|52=20190612-14:44:45.000|10=172|
8=FIX.4.4|9=59|35=0|34=2|49=007|50=007B26|52=20190612-14:44:45.014|56=EXC|10=054|
8=FIX.4.4|9=0049|35=0|34=3|49=EXC|56=007|52=20190612-14:45:15.000|10=171|
8=FIX.4.4|9=59|35=0|34=3|49=007|50=007B26|52=20190612-14:45:15.016|56=EXC|10=055|
8=FIX.4.4|9=0049|35=0|34=4|49=EXC|56=007|52=20190612-14:45:45.000|10=175|
8=FIX.4.4|9=59|35=0|34=4|49=007|50=007B26|52=20190612-14:45:45.015|56=EXC|10=058|
8=FIX.4.4|9=105|35=A|34=1|49=007|50=007B26|52=20190612-14:58:56.695|56=EXC|98=0|108=30|141=Y|553=007FCE001|554=007FCE001|10=109|
8=FIX.4.4|9=0067|35=A|34=1|49=EXC|56=007|52=20190612-14:58:56.746|98=0|108=30|141=Y|10=026|
8=FIX.4.4|9=0049|35=0|34=2|49=EXC|56=007|52=20190612-14:59:26.000|10=177|
8=FIX.4.4|9=59|35=0|34=2|49=007|50=007B26|52=20190612-14:59:27.668|56=EXC|10=075|
8=FIX.4.4|9=0049|35=0|34=3|49=EXC|56=007|52=20190612-14:59:56.000|10=181|
8=FIX.4.4|9=59|35=0|34=3|49=007|50=007B26|52=20190612-14:59:57.660|56=EXC|10=071|
8=FIX.4.4|9=0049|35=0|34=4|49=EXC|56=007|52=20190612-15:00:26.000|10=166|
8=FIX.4.4|9=59|35=0|34=4|49=007|50=007B26|52=20190612-15:00:27.667|56=EXC|10=063|
8=FIX.4.4|9=0049|35=0|34=5|49=EXC|56=007|52=20190612-15:00:56.000|10=170|
8=FIX.4.4|9=59|35=0|34=5|49=007|50=007B26|52=20190612-15:00:57.658|56=EXC|10=067|
=======
>>>>>>> 18c1b0dad7ac1179e40f521bb7110f9521769162
8=FIX.4.4|9=105|35=A|34=1|49=007|50=007B26|52=20190612-13:52:54.751|56=EXC|98=0|108=30|141=Y|553=007FCE001|554=007FCE001|10=093|
8=FIX.4.4|9=0067|35=A|34=1|49=EXC|56=007|52=20190612-13:52:53.529|98=0|108=30|141=Y|10=015|
8=FIX.4.4|9=161|35=R|34=2|49=007|50=007B26|52=20190612-13:52:57.283|56=EXC|131=2019061285252_R|146=1|55=TFIT15260826|22=M|762=RFQF|54=1|38=1500000000|453=1|448=DCV|447=C|452=10|10=179|
8=FIX.4.4|9=0243|35=AI|34=2|49=EXC|56=007|57=007B26|52=20190612-13:52:56.034|131=2019061285252_R|453=4|448=DCV|447=C|452=10|448=007B26|447=C|452=12|448=007|447=C|452=1|448=007FCE001|447=C|452=36|55=TFIT15260826|762=RFQF|48=20348|22=M|54=1|38=1500000000|297=10|10=081|
8=FIX.4.4|9=0192|35=R|34=3|49=EXC|56=007|52=20190612-13:52:56.034|131=20190612-000000000010.00|146=1|55=TFIT15260826|762=RFQF|48=20348|22=M|54=1|38=1500000000|453=2|448=007B26|447=C|452=12|448=007|447=C|452=1|10=243|
8=FIX.4.4|9=0183|35=R|34=4|49=EXC|56=007|52=20190612-13:53:12.834|131=20190612-000000000010.00|146=1|55=TFIT15260826|762=RFQF|48=20348|22=M|54=1|38=0|453=2|448=007B26|447=C|452=12|448=007|447=C|452=1|10=063|
8=FIX.4.4|9=0315|35=S|34=5|49=EXC|56=007|57=007B26|52=20190612-13:53:12.834|131=2019061285252_R|117=20190612-000000000010.00|55=TFIT15260826|762=RFQF|48=20348|22=M|453=5|448=DCV|447=C|452=10|448=007B26|447=C|452=12|448=007|447=C|452=1|448=007FCE001|447=C|452=36|448=002B35|447=C|452=37|634=6.000|135=1500000000|62=20190617-22:00:00|10=237|
8=FIX.4.4|9=59|35=0|34=3|49=007|50=007B26|52=20190612-13:53:27.604|56=EXC|10=059|
8=FIX.4.4|9=146|35=AJ|34=4|49=007|50=007B26|52=20190612-13:53:35.783|56=EXC|54=1|55=TFIT15260826|117=20190612-000000000010.00|693=2019061285252_AJ|694=1|762=RFQF|10=011|
8=FIX.4.4|9=0521|35=8|34=6|49=EXC|56=007|57=007B26|52=20190612-13:53:34.599|11=2019061285252_AJ|17=4|37=0|150=F|1080=20190612-000000000010.00|1081=5|453=6|448=007B26|447=C|452=12|448=007|447=C|452=1|448=002B35|447=C|452=37|448=002|447=C|452=17|448=007FCE001|447=C|452=36|448=DCV|447=C|452=10|55=TFIT15260826|762=RFQF|48=20348|22=M|6=108.535|14=1500000000|31=108.535|32=1500000000|38=1500000000|39=2|20102=114.493|54=1|60=20190612-13:53:34.599|75=20190612|63=1|64=20190612|151=0|1623=6.000|381=1717408500.000|880=201906120000000004|828=99|10=163|
8=FIX.4.4|9=0191|35=R|34=7|49=EXC|56=007|52=20190612-13:53:46.122|131=20190612-000000000011.00|146=1|55=TFIC14280426|762=RFQF|48=20602|22=M|54=1|38=500000000|453=2|448=001B27|447=C|452=12|448=001|447=C|452=1|10=158|
8=FIX.4.4|9=105|35=A|34=1|49=007|50=007B26|52=20190612-13:54:39.601|56=EXC|98=0|108=30|141=Y|553=007FCE001|554=007FCE001|10=092|
8=FIX.4.4|9=0067|35=A|34=1|49=EXC|56=007|52=20190612-13:54:38.698|98=0|108=30|141=Y|10=027|
8=FIX.4.4|9=0049|35=0|34=2|49=EXC|56=007|52=20190612-13:55:08.000|10=172|
8=FIX.4.4|9=59|35=0|34=2|49=007|50=007B26|52=20190612-13:55:10.346|56=EXC|10=055|
8=FIX.4.4|9=0049|35=0|34=3|49=EXC|56=007|52=20190612-13:55:38.000|10=176|
8=FIX.4.4|9=59|35=0|34=3|49=007|50=007B26|52=20190612-13:55:41.210|56=EXC|10=050|
8=FIX.4.4|9=105|35=A|34=1|49=007|50=007B26|52=20190612-14:02:46.514|56=EXC|98=0|108=30|141=Y|553=007FCE001|554=007FCE001|10=087|
8=FIX.4.4|9=0067|35=A|34=1|49=EXC|56=007|52=20190612-14:02:46.566|98=0|108=30|141=Y|10=014|
8=FIX.4.4|9=0049|35=0|34=2|49=EXC|56=007|52=20190612-14:03:16.000|10=165|
8=FIX.4.4|9=59|35=0|34=2|49=007|50=007B26|52=20190612-14:03:17.368|56=EXC|10=060|
8=FIX.4.4|9=105|35=A|34=1|49=007|50=007B26|52=20190612-14:22:41.585|56=EXC|98=0|108=30|141=Y|553=007FCE001|554=007FCE001|10=092|
8=FIX.4.4|9=0067|35=A|34=1|49=EXC|56=007|52=20190612-14:22:41.737|98=0|108=30|141=Y|10=011|
8=FIX.4.4|9=0049|35=0|34=2|49=EXC|56=007|52=20190612-14:23:11.000|10=162|
8=FIX.4.4|9=59|35=0|34=2|49=007|50=007B26|52=20190612-14:23:12.231|56=EXC|10=046|
8=FIX.4.4|9=105|35=A|34=1|49=007|50=007B26|52=20190612-14:26:44.129|56=EXC|98=0|108=30|141=Y|553=007FCE001|554=007FCE001|10=093|
8=FIX.4.4|9=0067|35=A|34=1|49=EXC|56=007|52=20190612-14:26:44.327|98=0|108=30|141=Y|10=013|
8=FIX.4.4|9=0049|35=0|34=2|49=EXC|56=007|52=20190612-14:27:14.000|10=169|
8=FIX.4.4|9=59|35=0|34=2|49=007|50=007B26|52=20190612-14:27:14.150|56=EXC|10=052|
8=FIX.4.4|9=0049|35=0|34=3|49=EXC|56=007|52=20190612-14:27:44.000|10=173|
8=FIX.4.4|9=59|35=0|34=3|49=007|50=007B26|52=20190612-14:27:44.681|56=EXC|10=065|
8=FIX.4.4|9=105|35=A|34=1|49=007|50=007B26|52=20190612-14:31:40.042|56=EXC|98=0|108=30|141=Y|553=007FCE001|554=007FCE001|10=079|
8=FIX.4.4|9=0067|35=A|34=1|49=EXC|56=007|52=20190612-14:31:40.212|98=0|108=30|141=Y|10=254|
8=FIX.4.4|9=0049|35=0|34=2|49=EXC|56=007|52=20190612-14:32:10.000|10=161|
8=FIX.4.4|9=59|35=0|34=2|49=007|50=007B26|52=20190612-14:32:10.736|56=EXC|10=054|
8=FIX.4.4|9=0049|35=0|34=3|49=EXC|56=007|52=20190612-14:32:40.000|10=165|
8=FIX.4.4|9=59|35=0|34=3|49=007|50=007B26|52=20190612-14:32:40.746|56=EXC|10=059|
>>>>>>> de40ea98bc785bea7a033c92b2c38844786d8980
