8=FIX.4.4|9=105|35=A|34=1|49=013|50=013B17|52=20190611-22:57:17.904|56=EXC|98=0|108=30|141=Y|553=013FCM001|554=013FCM001|10=100|
8=FIX.4.4|9=0067|35=A|34=1|49=EXC|56=013|52=20190611-22:57:17.909|98=0|108=30|141=Y|10=018|
8=FIX.4.4|9=0192|35=R|34=2|49=EXC|56=013|52=20190611-22:57:20.236|131=20190611-000000000020.00|146=1|55=TFIT15260826|762=RFQF|48=20348|22=M|54=1|38=1500000000|453=2|448=007B26|447=C|452=12|448=007|447=C|452=1|10=238|
8=FIX.4.4|9=0183|35=R|34=3|49=EXC|56=013|52=20190611-22:57:36.663|131=20190611-000000000020.00|146=1|55=TFIT15260826|762=RFQF|48=20348|22=M|54=1|38=0|453=2|448=007B26|447=C|452=12|448=007|447=C|452=1|10=068|
8=FIX.4.4|9=59|35=0|34=2|49=013|50=013B17|52=20190611-22:57:48.842|56=EXC|10=062|
8=FIX.4.4|9=0049|35=0|34=4|49=EXC|56=013|52=20190611-22:58:06.000|10=171|
8=FIX.4.4|9=59|35=0|34=3|49=013|50=013B17|52=20190611-22:58:18.851|56=EXC|10=061|
8=FIX.4.4|9=0049|35=0|34=5|49=EXC|56=013|52=20190611-22:58:36.000|10=175|
8=FIX.4.4|9=59|35=0|34=4|49=013|50=013B17|52=20190611-22:58:48.849|56=EXC|10=072|
8=FIX.4.4|9=0049|35=0|34=6|49=EXC|56=013|52=20190611-22:59:06.000|10=174|
8=FIX.4.4|9=59|35=0|34=5|49=013|50=013B17|52=20190611-22:59:18.844|56=EXC|10=066|
8=FIX.4.4|9=0049|35=0|34=7|49=EXC|56=013|52=20190611-22:59:36.000|10=178|
8=FIX.4.4|9=59|35=0|34=6|49=013|50=013B17|52=20190611-22:59:48.839|56=EXC|10=074|
8=FIX.4.4|9=0049|35=0|34=8|49=EXC|56=013|52=20190611-23:00:06.000|10=163|
8=FIX.4.4|9=59|35=0|34=7|49=013|50=013B17|52=20190611-23:00:18.854|56=EXC|10=056|
8=FIX.4.4|9=105|35=A|34=1|49=013|50=013B17|52=20190611-23:00:57.273|56=EXC|98=0|108=30|141=Y|553=013FCM001|554=013FCM001|10=092|
8=FIX.4.4|9=0067|35=A|34=1|49=EXC|56=013|52=20190611-23:00:57.281|98=0|108=30|141=Y|10=004|
8=FIX.4.4|9=0192|35=R|34=2|49=EXC|56=013|52=20190611-23:00:59.613|131=20190611-000000000021.00|146=1|55=TFIT15260826|762=RFQF|48=20348|22=M|54=1|38=1500000000|453=2|448=007B26|447=C|452=12|448=007|447=C|452=1|10=239|
8=FIX.4.4|9=0183|35=R|34=3|49=EXC|56=013|52=20190611-23:01:15.604|131=20190611-000000000021.00|146=1|55=TFIT15260826|762=RFQF|48=20348|22=M|54=1|38=0|453=2|448=007B26|447=C|452=12|448=007|447=C|452=1|10=051|
8=FIX.4.4|9=59|35=0|34=2|49=013|50=013B17|52=20190611-23:01:28.215|56=EXC|10=044|
8=FIX.4.4|9=105|35=A|34=1|49=013|50=013B17|52=20190611-23:03:31.361|56=EXC|98=0|108=30|141=Y|553=013FCM001|554=013FCM001|10=085|
8=FIX.4.4|9=0067|35=A|34=1|49=EXC|56=013|52=20190611-23:03:31.355|98=0|108=30|141=Y|10=001|
8=FIX.4.4|9=0192|35=R|34=2|49=EXC|56=013|52=20190611-23:03:33.644|131=20190611-000000000022.00|146=1|55=TFIT15260826|762=RFQF|48=20348|22=M|54=1|38=1500000000|453=2|448=007B26|447=C|452=12|448=007|447=C|452=1|10=239|
8=FIX.4.4|9=59|35=0|34=2|49=013|50=013B17|52=20190611-23:04:02.284|56=EXC|10=045|
8=FIX.4.4|9=0049|35=0|34=3|49=EXC|56=013|52=20190611-23:04:03.000|10=159|
8=FIX.4.4|9=68|35=1|34=3|49=013|50=013B17|52=20190611-23:04:19.274|56=EXC|112=TEST|10=072|
8=FIX.4.4|9=0058|35=0|34=4|49=EXC|56=013|52=20190611-23:04:19.231|112=TEST|10=191|
8=FIX.4.4|9=105|35=A|34=1|49=013|50=013B17|52=20190611-23:04:47.373|56=EXC|98=0|108=30|141=Y|553=013FCM001|554=013FCM001|10=096|
8=FIX.4.4|9=0067|35=A|34=1|49=EXC|56=013|52=20190611-23:04:47.377|98=0|108=30|141=Y|10=013|
8=FIX.4.4|9=105|35=A|34=1|49=013|50=013B17|52=20190611-23:05:48.302|56=EXC|98=0|108=30|141=Y|553=013FCM001|554=013FCM001|10=090|
8=FIX.4.4|9=0067|35=A|34=1|49=EXC|56=013|52=20190611-23:05:48.292|98=0|108=30|141=Y|10=011|
8=FIX.4.4|9=0049|35=0|34=2|49=EXC|56=013|52=20190611-23:06:18.000|10=166|
8=FIX.4.4|9=59|35=0|34=2|49=013|50=013B17|52=20190611-23:06:19.282|56=EXC|10=053|
8=FIX.4.4|9=105|35=A|34=1|49=013|50=013B17|52=20190611-23:33:37.213|56=EXC|98=0|108=30|141=Y|553=013FCM001|554=013FCM001|10=090|
8=FIX.4.4|9=0067|35=A|34=1|49=EXC|56=013|52=20190611-23:33:37.210|98=0|108=30|141=Y|10=000|
8=FIX.4.4|9=0192|35=R|34=2|49=EXC|56=013|52=20190611-23:33:39.653|131=20190611-000000000023.00|146=1|55=TFIT15260826|762=RFQF|48=20348|22=M|54=1|38=1500000000|453=2|448=007B26|447=C|452=12|448=007|447=C|452=1|10=249|
8=FIX.4.4|9=59|35=0|34=2|49=013|50=013B17|52=20190611-23:34:08.140|56=EXC|10=045|
8=FIX.4.4|9=0049|35=0|34=3|49=EXC|56=013|52=20190611-23:34:09.000|10=168|
8=FIX.4.4|9=105|35=A|34=1|49=013|50=013B17|52=20190611-23:36:25.645|56=EXC|98=0|108=30|141=Y|553=013FCM001|554=013FCM001|10=099|
8=FIX.4.4|9=0067|35=A|34=1|49=EXC|56=013|52=20190611-23:36:25.654|98=0|108=30|141=Y|10=012|
8=FIX.4.4|9=0192|35=R|34=2|49=EXC|56=013|52=20190611-23:36:27.933|131=20190611-000000000024.00|146=1|55=TFIT15260826|762=RFQF|48=20348|22=M|54=1|38=1500000000|453=2|448=007B26|447=C|452=12|448=007|447=C|452=1|10=251|
8=FIX.4.4|9=59|35=0|34=2|49=013|50=013B17|52=20190611-23:36:56.549|56=EXC|10=063|
8=FIX.4.4|9=0049|35=0|34=3|49=EXC|56=013|52=20190611-23:36:57.000|10=173|
8=FIX.4.4|9=59|35=0|34=3|49=013|50=013B17|52=20190611-23:37:26.560|56=EXC|10=055|
8=FIX.4.4|9=0049|35=0|34=4|49=EXC|56=013|52=20190611-23:37:27.000|10=172|
8=FIX.4.4|9=105|35=A|34=1|49=013|50=013B17|52=20190612-13:11:13.897|56=EXC|98=0|108=30|141=Y|553=013FCM001|554=013FCM001|10=098|
8=FIX.4.4|9=0067|35=A|34=1|49=EXC|56=013|52=20190612-13:11:13.937|98=0|108=30|141=Y|10=006|
8=FIX.4.4|9=0192|35=R|34=2|49=EXC|56=013|52=20190612-13:11:16.411|131=20190612-000000000001.00|146=1|55=TFIT15260826|762=RFQF|48=20348|22=M|54=1|38=1500000000|453=2|448=007B26|447=C|452=12|448=007|447=C|452=1|10=229|
8=FIX.4.4|9=105|35=A|34=1|49=013|50=013B17|52=20190612-13:23:10.146|56=EXC|98=0|108=30|141=Y|553=013FCM001|554=013FCM001|10=085|
8=FIX.4.4|9=0067|35=A|34=1|49=EXC|56=013|52=20190612-13:23:10.203|98=0|108=30|141=Y|10=248|
8=FIX.4.4|9=0192|35=R|34=2|49=EXC|56=013|52=20190612-13:23:12.449|131=20190612-000000000002.00|146=1|55=TFIT15260826|762=RFQF|48=20348|22=M|54=1|38=1500000000|453=2|448=007B26|447=C|452=12|448=007|447=C|452=1|10=240|
8=FIX.4.4|9=59|35=0|34=2|49=013|50=013B17|52=20190612-13:23:41.039|56=EXC|10=047|
8=FIX.4.4|9=0049|35=0|34=3|49=EXC|56=013|52=20190612-13:23:42.000|10=163|
8=FIX.4.4|9=59|35=0|34=3|49=013|50=013B17|52=20190612-13:24:11.038|56=EXC|10=045|
8=FIX.4.4|9=0049|35=0|34=4|49=EXC|56=013|52=20190612-13:24:12.000|10=162|
8=FIX.4.4|9=59|35=0|34=4|49=013|50=013B17|52=20190612-13:24:41.040|56=EXC|10=042|
8=FIX.4.4|9=0049|35=0|34=5|49=EXC|56=013|52=20190612-13:24:42.000|10=166|
8=FIX.4.4|9=105|35=A|34=1|49=013|50=013B17|52=20190612-13:26:35.178|56=EXC|98=0|108=30|141=Y|553=013FCM001|554=013FCM001|10=100|
8=FIX.4.4|9=0067|35=A|34=1|49=EXC|56=013|52=20190612-13:26:35.230|98=0|108=30|141=Y|10=002|
8=FIX.4.4|9=0192|35=R|34=2|49=EXC|56=013|52=20190612-13:26:37.548|131=20190612-000000000003.00|146=1|55=TFIT15260826|762=RFQF|48=20348|22=M|54=1|38=1500000000|453=2|448=007B26|447=C|452=12|448=007|447=C|452=1|10=251|
8=FIX.4.4|9=59|35=0|34=2|49=013|50=013B17|52=20190612-13:27:06.133|56=EXC|10=047|
8=FIX.4.4|9=0049|35=0|34=3|49=EXC|56=013|52=20190612-13:27:07.000|10=168|
8=FIX.4.4|9=105|35=A|34=1|49=013|50=013B17|52=20190612-13:28:07.430|56=EXC|98=0|108=30|141=Y|553=013FCM001|554=013FCM001|10=092|
8=FIX.4.4|9=0067|35=A|34=1|49=EXC|56=013|52=20190612-13:28:07.481|98=0|108=30|141=Y|10=011|
8=FIX.4.4|9=0192|35=R|34=2|49=EXC|56=013|52=20190612-13:28:09.737|131=20190612-000000000004.00|146=1|55=TFIT15260826|762=RFQF|48=20348|22=M|54=1|38=1500000000|453=2|448=007B26|447=C|452=12|448=007|447=C|452=1|10=253|
8=FIX.4.4|9=59|35=0|34=2|49=013|50=013B17|52=20190612-13:28:38.301|56=EXC|10=050|
8=FIX.4.4|9=0049|35=0|34=3|49=EXC|56=013|52=20190612-13:28:39.000|10=174|
8=FIX.4.4|9=105|35=A|34=1|49=013|50=013B17|52=20190612-13:36:22.826|56=EXC|98=0|108=30|141=Y|553=013FCM001|554=013FCM001|10=097|
8=FIX.4.4|9=0067|35=A|34=1|49=EXC|56=013|52=20190612-13:36:22.864|98=0|108=30|141=Y|10=012|
8=FIX.4.4|9=0192|35=R|34=2|49=EXC|56=013|52=20190612-13:36:25.229|131=20190612-000000000005.00|146=1|55=TFIT15260826|762=RFQF|48=20348|22=M|54=1|38=1500000000|453=2|448=007B26|447=C|452=12|448=007|447=C|452=1|10=247|
8=FIX.4.4|9=0183|35=R|34=3|49=EXC|56=013|52=20190612-13:36:41.461|131=20190612-000000000005.00|146=1|55=TFIT15260826|762=RFQF|48=20348|22=M|54=1|38=0|453=2|448=007B26|447=C|452=12|448=007|447=C|452=1|10=062|
8=FIX.4.4|9=59|35=0|34=2|49=013|50=013B17|52=20190612-13:36:53.686|56=EXC|10=062|
8=FIX.4.4|9=0049|35=0|34=4|49=EXC|56=013|52=20190612-13:37:11.000|10=165|
8=FIX.4.4|9=59|35=0|34=3|49=013|50=013B17|52=20190612-13:37:23.688|56=EXC|10=063|
8=FIX.4.4|9=0049|35=0|34=5|49=EXC|56=013|52=20190612-13:37:41.000|10=169|
8=FIX.4.4|9=59|35=0|34=4|49=013|50=013B17|52=20190612-13:37:53.684|56=EXC|10=063|
8=FIX.4.4|9=0049|35=0|34=6|49=EXC|56=013|52=20190612-13:38:11.000|10=168|
8=FIX.4.4|9=105|35=A|34=1|49=013|50=013B17|52=20190612-13:39:01.673|56=EXC|98=0|108=30|141=Y|553=013FCM001|554=013FCM001|10=097|
8=FIX.4.4|9=0067|35=A|34=1|49=EXC|56=013|52=20190612-13:39:01.725|98=0|108=30|141=Y|10=008|
8=FIX.4.4|9=0192|35=R|34=2|49=EXC|56=013|52=20190612-13:39:03.964|131=20190612-000000000006.00|146=1|55=TFIT15260826|762=RFQF|48=20348|22=M|54=1|38=1500000000|453=2|448=007B26|447=C|452=12|448=007|447=C|452=1|10=253|
8=FIX.4.4|9=0183|35=R|34=3|49=EXC|56=013|52=20190612-13:39:20.172|131=20190612-000000000006.00|146=1|55=TFIT15260826|762=RFQF|48=20348|22=M|54=1|38=0|453=2|448=007B26|447=C|452=12|448=007|447=C|452=1|10=062|
8=FIX.4.4|9=59|35=0|34=2|49=013|50=013B17|52=20190612-13:39:32.587|56=EXC|10=062|
8=FIX.4.4|9=0049|35=0|34=4|49=EXC|56=013|52=20190612-13:39:50.000|10=170|
8=FIX.4.4|9=59|35=0|34=3|49=013|50=013B17|52=20190612-13:40:02.583|56=EXC|10=048|
8=FIX.4.4|9=0049|35=0|34=5|49=EXC|56=013|52=20190612-13:40:20.000|10=160|
8=FIX.4.4|9=59|35=0|34=4|49=013|50=013B17|52=20190612-13:40:32.584|56=EXC|10=053|
8=FIX.4.4|9=105|35=A|34=1|49=013|50=013B17|52=20190612-13:42:48.881|56=EXC|98=0|108=30|141=Y|553=013FCM001|554=013FCM001|10=103|
8=FIX.4.4|9=0067|35=A|34=1|49=EXC|56=013|52=20190612-13:42:48.919|98=0|108=30|141=Y|10=018|
8=FIX.4.4|9=0192|35=R|34=2|49=EXC|56=013|52=20190612-13:42:51.239|131=20190612-000000000007.00|146=1|55=TFIT15260826|762=RFQF|48=20348|22=M|54=1|38=1500000000|453=2|448=007B26|447=C|452=12|448=007|447=C|452=1|10=246|
8=FIX.4.4|9=0183|35=R|34=3|49=EXC|56=013|52=20190612-13:43:07.346|131=20190612-000000000007.00|146=1|55=TFIT15260826|762=RFQF|48=20348|22=M|54=1|38=0|453=2|448=007B26|447=C|452=12|448=007|447=C|452=1|10=066|
8=FIX.4.4|9=59|35=0|34=2|49=013|50=013B17|52=20190612-13:43:19.758|56=EXC|10=062|
8=FIX.4.4|9=0049|35=0|34=4|49=EXC|56=013|52=20190612-13:43:37.000|10=170|
8=FIX.4.4|9=0191|35=R|34=5|49=EXC|56=013|52=20190612-13:43:39.859|131=20190612-000000000008.00|146=1|55=TFIC14280426|762=RFQF|48=20602|22=M|54=1|38=500000000|453=2|448=001B27|447=C|452=12|448=001|447=C|452=1|10=177|
8=FIX.4.4|9=105|35=A|34=1|49=013|50=013B17|52=20190612-13:44:28.410|56=EXC|98=0|108=30|141=Y|553=013FCM001|554=013FCM001|10=091|
8=FIX.4.4|9=0067|35=A|34=1|49=EXC|56=013|52=20190612-13:44:28.454|98=0|108=30|141=Y|10=012|
8=FIX.4.4|9=0049|35=0|34=2|49=EXC|56=013|52=20190612-13:44:58.000|10=172|
8=FIX.4.4|9=59|35=0|34=2|49=013|50=013B17|52=20190612-13:44:59.342|56=EXC|10=056|
