8=FIX.4.4|9=110|35=A|34=1|49=045|50=045B17|52=20190806-20:00:10.306|56=EXC|43=N|98=0|108=30|141=Y|553=045FCM001|554=045FCM001|10=084|
8=FIX.4.4|9=0067|35=A|34=1|49=EXC|56=045|52=20190806-20:01:03.622|98=0|108=30|141=Y|10=003|
8=FIX.4.4|9=151|35=R|34=2|49=045|50=045B17|52=20190806-20:00:16.259|56=EXC|131=201908061500064_R|146=1|22=M|762=AFIR|54=1|38=200|1=RP001|453=1|448=051B17|447=C|452=37|10=063|
8=FIX.4.4|9=0173|35=AG|34=2|49=EXC|56=045|57=045B17|52=20190806-20:01:09.537|131=201908061500064_R|658=99|146=1|762=AFIR|22=M|38=200|58=(1513): Falta el tag condicinal requerido Symbol(#55)|10=236|
8=FIX.4.4|9=135|35=3|34=3|49=045|50=045B17|52=20190806-20:00:16.259|56=EXC|45=2|58=The group 146 must set the delimiter field 55|371=762|372=AG|373=15|10=119|
8=FIX.4.4|9=110|35=A|34=1|49=045|50=045B17|52=20190806-20:06:52.145|56=EXC|43=N|98=0|108=30|141=Y|553=045FCM001|554=045FCM001|10=097|
8=FIX.4.4|9=0067|35=A|34=1|49=EXC|56=045|52=20190806-20:07:45.456|98=0|108=30|141=Y|10=020|
8=FIX.4.4|9=158|35=R|34=2|49=045|50=045B17|52=20190806-20:06:58.053|56=EXC|131=201908061506474_R|146=1|55=   |22=M|762=AFIR|54=1|38=200|1=RP001|453=1|448=051B17|447=C|452=37|10=093|
8=FIX.4.4|9=0153|35=AG|34=2|49=EXC|56=045|57=045B17|52=20190806-20:07:51.344|131=201908061506474_R|658=1|146=1|55=   |762=AFIR|22=M|38=200|58=(1479): Simbolo desconocido|10=120|
8=FIX.4.4|9=110|35=A|34=1|49=045|50=045B17|52=20190806-20:12:53.092|56=EXC|43=N|98=0|108=30|141=Y|553=045FCM001|554=045FCM001|10=096|
8=FIX.4.4|9=0067|35=A|34=1|49=EXC|56=045|52=20190806-20:13:46.405|98=0|108=30|141=Y|10=012|
8=FIX.4.4|9=151|35=R|34=2|49=045|50=045B17|52=20190806-20:12:59.049|56=EXC|131=201908061512484_R|146=1|22=M|762=AFIR|54=1|38=200|1=RP001|453=1|448=051B17|447=C|452=37|10=079|
8=FIX.4.4|9=0173|35=AG|34=2|49=EXC|56=045|57=045B17|52=20190806-20:13:52.338|131=201908061512484_R|658=99|146=1|762=AFIR|22=M|38=200|58=(1513): Falta el tag condicinal requerido Symbol(#55)|10=245|
8=FIX.4.4|9=135|35=3|34=3|49=045|50=045B17|52=20190806-20:12:59.064|56=EXC|45=2|58=The group 146 must set the delimiter field 55|371=762|372=AG|373=15|10=123|
8=FIX.4.4|9=110|35=A|34=1|49=045|50=045B17|52=20190806-21:41:14.868|56=EXC|43=N|98=0|108=30|141=Y|553=045FCM001|554=045FCM001|10=107|
8=FIX.4.4|9=0067|35=A|34=1|49=EXC|56=045|52=20190806-16:08:56.246|98=0|108=30|141=Y|10=025|
8=FIX.4.4|9=110|35=A|34=1|49=045|50=045B17|52=20190808-15:51:12.558|56=EXC|43=N|98=0|108=30|141=Y|553=045FCM001|554=045FCM001|10=107|
8=FIX.4.4|9=0067|35=A|34=1|49=EXC|56=045|52=20190809-15:52:07.547|98=0|108=30|141=Y|10=026|
8=FIX.4.4|9=110|35=A|34=1|49=045|50=045B17|52=20190808-15:52:05.514|56=EXC|43=N|98=0|108=30|141=Y|553=045FCM001|554=045FCM001|10=102|
8=FIX.4.4|9=0067|35=A|34=1|49=EXC|56=045|52=20190809-15:53:00.512|98=0|108=30|141=Y|10=012|
8=FIX.4.4|9=110|35=A|34=1|49=045|50=045B17|52=20190808-15:53:40.904|56=EXC|43=N|98=0|108=30|141=Y|553=045FCM001|554=045FCM001|10=105|
8=FIX.4.4|9=0067|35=A|34=1|49=EXC|56=045|52=20190809-15:54:35.899|98=0|108=30|141=Y|10=039|
8=FIX.4.4|9=110|35=A|34=1|49=045|50=045B17|52=20190808-15:57:35.540|56=EXC|43=N|98=0|108=30|141=Y|553=045FCM001|554=045FCM001|10=109|
8=FIX.4.4|9=0067|35=A|34=1|49=EXC|56=045|52=20190809-15:58:30.538|98=0|108=30|141=Y|10=028|
8=FIX.4.4|9=0049|35=0|34=2|49=EXC|56=045|52=20190809-15:59:00.000|10=180|
8=FIX.4.4|9=59|35=0|34=2|49=045|50=045B17|52=20190808-15:58:06.191|56=EXC|10=074|
8=FIX.4.4|9=0049|35=0|34=3|49=EXC|56=045|52=20190809-15:59:30.000|10=184|
8=FIX.4.4|9=59|35=0|34=3|49=045|50=045B17|52=20190808-15:58:36.427|56=EXC|10=080|
8=FIX.4.4|9=0049|35=0|34=4|49=EXC|56=045|52=20190809-16:00:00.000|10=169|
8=FIX.4.4|9=59|35=0|34=4|49=045|50=045B17|52=20190808-15:59:07.194|56=EXC|10=081|
8=FIX.4.4|9=0049|35=0|34=5|49=EXC|56=045|52=20190809-16:00:30.000|10=173|
8=FIX.4.4|9=59|35=0|34=5|49=045|50=045B17|52=20190808-15:59:37.279|56=EXC|10=089|
8=FIX.4.4|9=0049|35=0|34=6|49=EXC|56=045|52=20190809-16:01:00.000|10=172|
8=FIX.4.4|9=59|35=0|34=6|49=045|50=045B17|52=20190808-16:00:08.188|56=EXC|10=074|
8=FIX.4.4|9=0049|35=0|34=7|49=EXC|56=045|52=20190809-16:01:30.000|10=176|
8=FIX.4.4|9=59|35=0|34=7|49=045|50=045B17|52=20190808-16:00:38.196|56=EXC|10=077|
8=FIX.4.4|9=0049|35=0|34=8|49=EXC|56=045|52=20190809-16:02:00.000|10=175|
8=FIX.4.4|9=59|35=0|34=8|49=045|50=045B17|52=20190808-16:01:08.202|56=EXC|10=064|
8=FIX.4.4|9=0049|35=0|34=9|49=EXC|56=045|52=20190809-16:02:30.000|10=179|
8=FIX.4.4|9=59|35=0|34=9|49=045|50=045B17|52=20190808-16:01:38.785|56=EXC|10=084|
8=FIX.4.4|9=0050|35=0|34=10|49=EXC|56=045|52=20190809-16:03:00.000|10=209|
8=FIX.4.4|9=60|35=0|34=10|49=045|50=045B17|52=20190808-16:02:09.190|56=EXC|10=105|
8=FIX.4.4|9=0050|35=0|34=11|49=EXC|56=045|52=20190809-16:03:30.000|10=213|
8=FIX.4.4|9=60|35=0|34=11|49=045|50=045B17|52=20190808-16:02:39.577|56=EXC|10=118|
8=FIX.4.4|9=0050|35=0|34=12|49=EXC|56=045|52=20190809-16:04:00.000|10=212|
8=FIX.4.4|9=60|35=0|34=12|49=045|50=045B17|52=20190808-16:03:10.197|56=EXC|10=107|
8=FIX.4.4|9=0050|35=0|34=13|49=EXC|56=045|52=20190809-16:04:30.000|10=216|
8=FIX.4.4|9=60|35=0|34=13|49=045|50=045B17|52=20190808-16:03:40.401|56=EXC|10=099|
8=FIX.4.4|9=0050|35=0|34=14|49=EXC|56=045|52=20190809-16:05:00.000|10=215|
8=FIX.4.4|9=60|35=0|34=14|49=045|50=045B17|52=20190808-16:04:11.189|56=EXC|10=112|
8=FIX.4.4|9=0050|35=0|34=15|49=EXC|56=045|52=20190809-16:05:30.000|10=219|
8=FIX.4.4|9=60|35=0|34=15|49=045|50=045B17|52=20190808-16:04:41.253|56=EXC|10=108|
8=FIX.4.4|9=0050|35=0|34=16|49=EXC|56=045|52=20190809-16:06:00.000|10=218|
8=FIX.4.4|9=60|35=0|34=16|49=045|50=045B17|52=20190808-16:05:12.191|56=EXC|10=109|
8=FIX.4.4|9=0050|35=0|34=17|49=EXC|56=045|52=20190809-16:06:30.000|10=222|
8=FIX.4.4|9=60|35=0|34=17|49=045|50=045B17|52=20190808-16:05:42.189|56=EXC|10=120|
8=FIX.4.4|9=0050|35=0|34=18|49=EXC|56=045|52=20190809-16:07:00.000|10=221|
8=FIX.4.4|9=60|35=0|34=18|49=045|50=045B17|52=20190808-16:06:12.199|56=EXC|10=120|
8=FIX.4.4|9=0050|35=0|34=19|49=EXC|56=045|52=20190809-16:07:30.000|10=225|
8=FIX.4.4|9=60|35=0|34=19|49=045|50=045B17|52=20190808-16:06:42.824|56=EXC|10=119|
8=FIX.4.4|9=0050|35=0|34=20|49=EXC|56=045|52=20190809-16:08:00.000|10=215|
8=FIX.4.4|9=60|35=0|34=20|49=045|50=045B17|52=20190808-16:07:13.200|56=EXC|10=098|
8=FIX.4.4|9=0050|35=0|34=21|49=EXC|56=045|52=20190809-16:08:30.000|10=219|
8=FIX.4.4|9=60|35=0|34=21|49=045|50=045B17|52=20190808-16:07:43.475|56=EXC|10=116|
8=FIX.4.4|9=0050|35=0|34=22|49=EXC|56=045|52=20190809-16:09:00.000|10=218|
8=FIX.4.4|9=60|35=0|34=22|49=045|50=045B17|52=20190808-16:08:14.201|56=EXC|10=103|
8=FIX.4.4|9=0050|35=0|34=23|49=EXC|56=045|52=20190809-16:09:30.000|10=222|
8=FIX.4.4|9=60|35=0|34=23|49=045|50=045B17|52=20190808-16:08:44.197|56=EXC|10=121|
8=FIX.4.4|9=0050|35=0|34=24|49=EXC|56=045|52=20190809-16:10:00.000|10=212|
8=FIX.4.4|9=60|35=0|34=24|49=045|50=045B17|52=20190808-16:09:14.195|56=EXC|10=118|
8=FIX.4.4|9=0050|35=0|34=25|49=EXC|56=045|52=20190809-16:10:30.000|10=216|
8=FIX.4.4|9=60|35=0|34=25|49=045|50=045B17|52=20190808-16:09:44.815|56=EXC|10=121|
8=FIX.4.4|9=0050|35=0|34=26|49=EXC|56=045|52=20190809-16:11:00.000|10=215|
8=FIX.4.4|9=60|35=0|34=26|49=045|50=045B17|52=20190808-16:10:15.194|56=EXC|10=112|
8=FIX.4.4|9=0050|35=0|34=27|49=EXC|56=045|52=20190809-16:11:30.000|10=219|
8=FIX.4.4|9=60|35=0|34=27|49=045|50=045B17|52=20190808-16:10:45.557|56=EXC|10=119|
8=FIX.4.4|9=0050|35=0|34=28|49=EXC|56=045|52=20190809-16:12:00.000|10=218|
8=FIX.4.4|9=60|35=0|34=28|49=045|50=045B17|52=20190808-16:11:16.193|56=EXC|10=115|
8=FIX.4.4|9=0050|35=0|34=29|49=EXC|56=045|52=20190809-16:12:30.000|10=222|
8=FIX.4.4|9=60|35=0|34=29|49=045|50=045B17|52=20190808-16:11:46.318|56=EXC|10=118|
8=FIX.4.4|9=0050|35=0|34=30|49=EXC|56=045|52=20190809-16:13:00.000|10=212|
8=FIX.4.4|9=60|35=0|34=30|49=045|50=045B17|52=20190808-16:12:17.196|56=EXC|10=113|
8=FIX.4.4|9=0050|35=0|34=31|49=EXC|56=045|52=20190809-16:13:30.000|10=216|
8=FIX.4.4|9=60|35=0|34=31|49=045|50=045B17|52=20190808-16:12:47.199|56=EXC|10=120|
8=FIX.4.4|9=0050|35=0|34=32|49=EXC|56=045|52=20190809-16:14:00.000|10=215|
8=FIX.4.4|9=60|35=0|34=32|49=045|50=045B17|52=20190808-16:13:18.208|56=EXC|10=111|
8=FIX.4.4|9=0050|35=0|34=33|49=EXC|56=045|52=20190809-16:14:30.000|10=219|
8=FIX.4.4|9=60|35=0|34=33|49=045|50=045B17|52=20190808-16:13:48.199|56=EXC|10=124|
8=FIX.4.4|9=0050|35=0|34=34|49=EXC|56=045|52=20190809-16:15:00.000|10=218|
8=FIX.4.4|9=60|35=0|34=34|49=045|50=045B17|52=20190808-16:14:18.194|56=EXC|10=118|
8=FIX.4.4|9=0050|35=0|34=35|49=EXC|56=045|52=20190809-16:15:30.000|10=222|
8=FIX.4.4|9=60|35=0|34=35|49=045|50=045B17|52=20190808-16:14:48.655|56=EXC|10=124|
8=FIX.4.4|9=0050|35=0|34=36|49=EXC|56=045|52=20190809-16:16:00.000|10=221|
8=FIX.4.4|9=60|35=0|34=36|49=045|50=045B17|52=20190808-16:15:19.189|56=EXC|10=126|
8=FIX.4.4|9=0050|35=0|34=37|49=EXC|56=045|52=20190809-16:16:30.000|10=225|
8=FIX.4.4|9=60|35=0|34=37|49=045|50=045B17|52=20190808-16:15:49.451|56=EXC|10=122|
8=FIX.4.4|9=0050|35=0|34=38|49=EXC|56=045|52=20190809-16:17:00.000|10=224|
8=FIX.4.4|9=60|35=0|34=38|49=045|50=045B17|52=20190808-16:16:20.189|56=EXC|10=121|
8=FIX.4.4|9=0050|35=0|34=39|49=EXC|56=045|52=20190809-16:17:30.000|10=228|
8=FIX.4.4|9=60|35=0|34=39|49=045|50=045B17|52=20190808-16:16:50.294|56=EXC|10=122|
8=FIX.4.4|9=0050|35=0|34=40|49=EXC|56=045|52=20190809-16:18:00.000|10=218|
8=FIX.4.4|9=60|35=0|34=40|49=045|50=045B17|52=20190808-16:17:21.203|56=EXC|10=103|
8=FIX.4.4|9=0050|35=0|34=41|49=EXC|56=045|52=20190809-16:18:30.000|10=222|
8=FIX.4.4|9=60|35=0|34=41|49=045|50=045B17|52=20190808-16:17:52.191|56=EXC|10=114|
8=FIX.4.4|9=0050|35=0|34=42|49=EXC|56=045|52=20190809-16:19:00.000|10=221|
8=FIX.4.4|9=60|35=0|34=42|49=045|50=045B17|52=20190808-16:18:22.202|56=EXC|10=106|
8=FIX.4.4|9=0050|35=0|34=43|49=EXC|56=045|52=20190809-16:19:30.000|10=225|
8=FIX.4.4|9=60|35=0|34=43|49=045|50=045B17|52=20190808-16:18:53.189|56=EXC|10=125|
8=FIX.4.4|9=0050|35=0|34=44|49=EXC|56=045|52=20190809-16:20:00.000|10=215|
8=FIX.4.4|9=60|35=0|34=44|49=045|50=045B17|52=20190808-16:19:23.202|56=EXC|10=110|
8=FIX.4.4|9=0050|35=0|34=45|49=EXC|56=045|52=20190809-16:20:30.000|10=219|
8=FIX.4.4|9=60|35=0|34=45|49=045|50=045B17|52=20190808-16:19:54.190|56=EXC|10=121|
8=FIX.4.4|9=0050|35=0|34=46|49=EXC|56=045|52=20190809-16:21:00.000|10=218|
8=FIX.4.4|9=60|35=0|34=46|49=045|50=045B17|52=20190808-16:20:24.187|56=EXC|10=117|
8=FIX.4.4|9=0050|35=0|34=47|49=EXC|56=045|52=20190809-16:21:30.000|10=222|
8=FIX.4.4|9=60|35=0|34=47|49=045|50=045B17|52=20190808-16:20:54.188|56=EXC|10=122|
8=FIX.4.4|9=0050|35=0|34=48|49=EXC|56=045|52=20190809-16:22:00.000|10=221|
8=FIX.4.4|9=60|35=0|34=48|49=045|50=045B17|52=20190808-16:21:24.203|56=EXC|10=109|
8=FIX.4.4|9=0050|35=0|34=49|49=EXC|56=045|52=20190809-16:22:30.000|10=225|
8=FIX.4.4|9=60|35=0|34=49|49=045|50=045B17|52=20190808-16:21:54.200|56=EXC|10=110|
8=FIX.4.4|9=0050|35=0|34=50|49=EXC|56=045|52=20190809-16:23:00.000|10=215|
8=FIX.4.4|9=60|35=0|34=50|49=045|50=045B17|52=20190808-16:22:24.198|56=EXC|10=116|
8=FIX.4.4|9=0050|35=0|34=51|49=EXC|56=045|52=20190809-16:23:30.000|10=219|
8=FIX.4.4|9=60|35=0|34=51|49=045|50=045B17|52=20190808-16:22:54.976|56=EXC|10=124|
8=FIX.4.4|9=0050|35=0|34=52|49=EXC|56=045|52=20190809-16:24:00.000|10=218|
8=FIX.4.4|9=60|35=0|34=52|49=045|50=045B17|52=20190808-16:23:25.188|56=EXC|10=119|
8=FIX.4.4|9=0050|35=0|34=53|49=EXC|56=045|52=20190809-16:24:30.000|10=222|
8=FIX.4.4|9=60|35=0|34=53|49=045|50=045B17|52=20190808-16:23:55.741|56=EXC|10=118|
8=FIX.4.4|9=0050|35=0|34=54|49=EXC|56=045|52=20190809-16:25:00.000|10=221|
8=FIX.4.4|9=60|35=0|34=54|49=045|50=045B17|52=20190808-16:24:26.198|56=EXC|10=124|
8=FIX.4.4|9=0050|35=0|34=55|49=EXC|56=045|52=20190809-16:25:30.000|10=225|
8=FIX.4.4|9=60|35=0|34=55|49=045|50=045B17|52=20190808-16:24:56.599|56=EXC|10=133|
8=FIX.4.4|9=0050|35=0|34=56|49=EXC|56=045|52=20190809-16:26:00.000|10=224|
8=FIX.4.4|9=60|35=0|34=56|49=045|50=045B17|52=20190808-16:25:27.197|56=EXC|10=127|
8=FIX.4.4|9=0050|35=0|34=57|49=EXC|56=045|52=20190809-16:26:30.000|10=228|
8=FIX.4.4|9=60|35=0|34=57|49=045|50=045B17|52=20190808-16:25:57.302|56=EXC|10=119|
8=FIX.4.4|9=0050|35=0|34=58|49=EXC|56=045|52=20190809-16:27:00.000|10=227|
8=FIX.4.4|9=60|35=0|34=58|49=045|50=045B17|52=20190808-16:26:28.196|56=EXC|10=130|
8=FIX.4.4|9=0050|35=0|34=59|49=EXC|56=045|52=20190809-16:27:30.000|10=231|
8=FIX.4.4|9=60|35=0|34=59|49=045|50=045B17|52=20190808-16:26:58.199|56=EXC|10=137|
8=FIX.4.4|9=0050|35=0|34=60|49=EXC|56=045|52=20190809-16:28:00.000|10=221|
8=FIX.4.4|9=60|35=0|34=60|49=045|50=045B17|52=20190808-16:27:28.192|56=EXC|10=120|
8=FIX.4.4|9=0050|35=0|34=61|49=EXC|56=045|52=20190809-16:28:30.000|10=225|
8=FIX.4.4|9=60|35=0|34=61|49=045|50=045B17|52=20190808-16:27:58.754|56=EXC|10=128|
8=FIX.4.4|9=0050|35=0|34=62|49=EXC|56=045|52=20190809-16:29:00.000|10=224|
8=FIX.4.4|9=60|35=0|34=62|49=045|50=045B17|52=20190808-16:28:29.199|56=EXC|10=131|
8=FIX.4.4|9=0050|35=0|34=63|49=EXC|56=045|52=20190809-16:29:30.000|10=228|
8=FIX.4.4|9=60|35=0|34=63|49=045|50=045B17|52=20190808-16:28:59.525|56=EXC|10=128|
8=FIX.4.4|9=0050|35=0|34=64|49=EXC|56=045|52=20190809-16:30:00.000|10=218|
8=FIX.4.4|9=60|35=0|34=64|49=045|50=045B17|52=20190808-16:29:30.203|56=EXC|10=112|
8=FIX.4.4|9=0050|35=0|34=65|49=EXC|56=045|52=20190809-16:30:30.000|10=222|
8=FIX.4.4|9=60|35=0|34=65|49=045|50=045B17|52=20190808-16:30:00.358|56=EXC|10=113|
8=FIX.4.4|9=0050|35=0|34=66|49=EXC|56=045|52=20190809-16:31:00.000|10=221|
8=FIX.4.4|9=60|35=0|34=66|49=045|50=045B17|52=20190808-16:30:31.199|56=EXC|10=121|
8=FIX.4.4|9=0050|35=0|34=67|49=EXC|56=045|52=20190809-16:31:30.000|10=225|
8=FIX.4.4|9=60|35=0|34=67|49=045|50=045B17|52=20190808-16:31:01.194|56=EXC|10=115|
8=FIX.4.4|9=0050|35=0|34=68|49=EXC|56=045|52=20190809-16:32:00.000|10=224|
8=FIX.4.4|9=60|35=0|34=68|49=045|50=045B17|52=20190808-16:31:31.195|56=EXC|10=120|
8=FIX.4.4|9=0050|35=0|34=69|49=EXC|56=045|52=20190809-16:32:30.000|10=228|
8=FIX.4.4|9=60|35=0|34=69|49=045|50=045B17|52=20190808-16:32:02.000|56=EXC|10=105|
8=FIX.4.4|9=0050|35=0|34=70|49=EXC|56=045|52=20190809-16:33:00.000|10=218|
8=FIX.4.4|9=60|35=0|34=70|49=045|50=045B17|52=20190808-16:32:32.191|56=EXC|10=111|
8=FIX.4.4|9=0050|35=0|34=71|49=EXC|56=045|52=20190809-16:33:30.000|10=222|
8=FIX.4.4|9=60|35=0|34=71|49=045|50=045B17|52=20190808-16:33:02.812|56=EXC|10=110|
8=FIX.4.4|9=0050|35=0|34=72|49=EXC|56=045|52=20190809-16:34:00.000|10=221|
8=FIX.4.4|9=60|35=0|34=72|49=045|50=045B17|52=20190808-16:33:33.197|56=EXC|10=121|
8=FIX.4.4|9=0050|35=0|34=73|49=EXC|56=045|52=20190809-16:34:30.000|10=225|
8=FIX.4.4|9=60|35=0|34=73|49=045|50=045B17|52=20190808-16:34:03.649|56=EXC|10=122|
8=FIX.4.4|9=0050|35=0|34=74|49=EXC|56=045|52=20190809-16:35:00.000|10=224|
8=FIX.4.4|9=60|35=0|34=74|49=045|50=045B17|52=20190808-16:34:34.189|56=EXC|10=126|
8=FIX.4.4|9=0050|35=0|34=75|49=EXC|56=045|52=20190809-16:35:30.000|10=228|
8=FIX.4.4|9=60|35=0|34=75|49=045|50=045B17|52=20190808-16:35:04.470|56=EXC|10=118|
8=FIX.4.4|9=0050|35=0|34=76|49=EXC|56=045|52=20190809-16:36:00.000|10=227|
8=FIX.4.4|9=0050|35=0|34=77|49=EXC|56=045|52=20190809-16:36:30.000|10=231|
8=FIX.4.4|9=60|35=0|34=76|49=045|50=045B17|52=20190808-16:35:35.006|56=EXC|10=118|
8=FIX.4.4|9=0050|35=0|34=78|49=EXC|56=045|52=20190809-16:37:00.000|10=230|
8=FIX.4.4|9=60|35=0|34=77|49=045|50=045B17|52=20190808-16:36:05.003|56=EXC|10=114|
8=FIX.4.4|9=0050|35=0|34=79|49=EXC|56=045|52=20190809-16:37:30.000|10=234|
8=FIX.4.4|9=60|35=0|34=78|49=045|50=045B17|52=20190808-16:36:34.999|56=EXC|10=141|
8=FIX.4.4|9=0050|35=0|34=80|49=EXC|56=045|52=20190809-16:38:00.000|10=224|
8=FIX.4.4|9=60|35=0|34=79|49=045|50=045B17|52=20190808-16:37:05.004|56=EXC|10=118|
8=FIX.4.4|9=0050|35=0|34=81|49=EXC|56=045|52=20190809-16:38:30.000|10=228|
8=FIX.4.4|9=60|35=0|34=80|49=045|50=045B17|52=20190808-16:37:35.006|56=EXC|10=115|
8=FIX.4.4|9=0050|35=0|34=82|49=EXC|56=045|52=20190809-16:39:00.000|10=227|
8=FIX.4.4|9=60|35=0|34=81|49=045|50=045B17|52=20190808-16:38:05.854|56=EXC|10=125|
8=FIX.4.4|9=0050|35=0|34=83|49=EXC|56=045|52=20190809-16:39:30.000|10=231|
8=FIX.4.4|9=60|35=0|34=82|49=045|50=045B17|52=20190808-16:38:36.201|56=EXC|10=116|
8=FIX.4.4|9=0050|35=0|34=84|49=EXC|56=045|52=20190809-16:40:00.000|10=221|
8=FIX.4.4|9=60|35=0|34=83|49=045|50=045B17|52=20190808-16:39:06.665|56=EXC|10=129|
8=FIX.4.4|9=0050|35=0|34=85|49=EXC|56=045|52=20190809-16:40:30.000|10=225|
8=FIX.4.4|9=60|35=0|34=84|49=045|50=045B17|52=20190808-16:39:37.200|56=EXC|10=119|
8=FIX.4.4|9=0050|35=0|34=86|49=EXC|56=045|52=20190809-16:41:00.000|10=224|
8=FIX.4.4|9=60|35=0|34=85|49=045|50=045B17|52=20190808-16:40:07.355|56=EXC|10=120|
8=FIX.4.4|9=0050|35=0|34=87|49=EXC|56=045|52=20190809-16:41:30.000|10=228|
8=FIX.4.4|9=60|35=0|34=86|49=045|50=045B17|52=20190808-16:40:38.198|56=EXC|10=130|
8=FIX.4.4|9=0050|35=0|34=88|49=EXC|56=045|52=20190809-16:42:00.000|10=227|
8=FIX.4.4|9=60|35=0|34=87|49=045|50=045B17|52=20190808-16:41:08.195|56=EXC|10=126|
8=FIX.4.4|9=0050|35=0|34=89|49=EXC|56=045|52=20190809-16:42:30.000|10=231|
8=FIX.4.4|9=60|35=0|34=88|49=045|50=045B17|52=20190808-16:41:38.195|56=EXC|10=130|
8=FIX.4.4|9=0050|35=0|34=90|49=EXC|56=045|52=20190809-16:43:00.000|10=221|
8=FIX.4.4|9=60|35=0|34=89|49=045|50=045B17|52=20190808-16:42:09.013|56=EXC|10=119|
8=FIX.4.4|9=0050|35=0|34=91|49=EXC|56=045|52=20190809-16:43:30.000|10=225|
8=FIX.4.4|9=60|35=0|34=90|49=045|50=045B17|52=20190808-16:42:39.199|56=EXC|10=129|
8=FIX.4.4|9=110|35=A|34=1|49=045|50=045B17|52=20190808-16:43:01.305|56=EXC|43=N|98=0|108=30|141=Y|553=045FCM001|554=045FCM001|10=097|
8=FIX.4.4|9=110|35=A|34=1|49=045|50=045B17|52=20190808-16:44:02.241|56=EXC|43=N|98=0|108=30|141=Y|553=045FCM001|554=045FCM001|10=098|
8=FIX.4.4|9=0067|35=A|34=1|49=EXC|56=045|52=20190809-16:44:57.270|98=0|108=30|141=Y|10=026|
8=FIX.4.4|9=0049|35=0|34=2|49=EXC|56=045|52=20190809-16:45:27.000|10=185|
8=FIX.4.4|9=59|35=0|34=2|49=045|50=045B17|52=20190808-16:44:33.200|56=EXC|10=061|
8=FIX.4.4|9=0049|35=0|34=3|49=EXC|56=045|52=20190809-16:45:57.000|10=189|
8=FIX.4.4|9=110|35=A|34=1|49=045|50=045B17|52=20190808-16:45:04.204|56=EXC|43=N|98=0|108=30|141=Y|553=045FCM001|554=045FCM001|10=100|
8=FIX.4.4|9=110|35=A|34=1|49=045|50=045B17|52=20190808-16:46:05.203|56=EXC|43=N|98=0|108=30|141=Y|553=045FCM001|554=045FCM001|10=101|
8=FIX.4.4|9=0067|35=A|34=1|49=EXC|56=045|52=20190809-16:47:00.239|98=0|108=30|141=Y|10=022|
8=FIX.4.4|9=0049|35=0|34=2|49=EXC|56=045|52=20190809-16:47:30.000|10=181|
8=FIX.4.4|9=59|35=0|34=2|49=045|50=045B17|52=20190808-16:46:36.189|56=EXC|10=082|
8=FIX.4.4|9=0049|35=0|34=3|49=EXC|56=045|52=20190809-16:48:00.000|10=180|
8=FIX.4.4|9=59|35=0|34=3|49=045|50=045B17|52=20190808-16:47:06.195|56=EXC|10=078|
8=FIX.4.4|9=110|35=A|34=1|49=045|50=045B17|52=20190808-16:47:07.219|56=EXC|43=N|98=0|108=30|141=Y|553=045FCM001|554=045FCM001|10=111|
8=FIX.4.4|9=110|35=A|34=1|49=045|50=045B17|52=20190808-16:48:08.227|56=EXC|43=N|98=0|108=30|141=Y|553=045FCM001|554=045FCM001|10=112|
8=FIX.4.4|9=0067|35=A|34=1|49=EXC|56=045|52=20190809-16:49:03.270|98=0|108=30|141=Y|10=022|
8=FIX.4.4|9=0049|35=0|34=2|49=EXC|56=045|52=20190809-16:49:33.000|10=186|
8=FIX.4.4|9=59|35=0|34=2|49=045|50=045B17|52=20190808-16:48:39.191|56=EXC|10=080|
8=FIX.4.4|9=0049|35=0|34=3|49=EXC|56=045|52=20190809-16:50:03.000|10=176|
8=FIX.4.4|9=59|35=0|34=3|49=045|50=045B17|52=20190808-16:49:09.190|56=EXC|10=078|
8=FIX.4.4|9=110|35=A|34=1|49=045|50=045B17|52=20190808-16:49:11.374|56=EXC|43=N|98=0|108=30|141=Y|553=045FCM001|554=045FCM001|10=110|
8=FIX.4.4|9=110|35=A|34=1|49=045|50=045B17|52=20190808-16:50:12.221|56=EXC|43=N|98=0|108=30|141=Y|553=045FCM001|554=045FCM001|10=094|
8=FIX.4.4|9=0067|35=A|34=1|49=EXC|56=045|52=20190809-16:51:07.268|98=0|108=30|141=Y|10=026|
8=FIX.4.4|9=0049|35=0|34=2|49=EXC|56=045|52=20190809-16:51:37.000|10=183|
8=FIX.4.4|9=59|35=0|34=2|49=045|50=045B17|52=20190808-16:50:43.189|56=EXC|10=075|
8=FIX.4.4|9=0049|35=0|34=3|49=EXC|56=045|52=20190809-16:52:07.000|10=182|
8=FIX.4.4|9=59|35=0|34=3|49=045|50=045B17|52=20190808-16:51:13.189|56=EXC|10=074|
8=FIX.4.4|9=110|35=A|34=1|49=045|50=045B17|52=20190808-16:51:15.224|56=EXC|43=N|98=0|108=30|141=Y|553=045FCM001|554=045FCM001|10=101|
8=FIX.4.4|9=110|35=A|34=1|49=045|50=045B17|52=20190808-16:52:16.229|56=EXC|43=N|98=0|108=30|141=Y|553=045FCM001|554=045FCM001|10=108|
8=FIX.4.4|9=0067|35=A|34=1|49=EXC|56=045|52=20190809-16:53:11.273|98=0|108=30|141=Y|10=019|
8=FIX.4.4|9=0049|35=0|34=2|49=EXC|56=045|52=20190809-16:53:41.000|10=180|
8=FIX.4.4|9=59|35=0|34=2|49=045|50=045B17|52=20190808-16:52:47.188|56=EXC|10=080|
8=FIX.4.4|9=0049|35=0|34=3|49=EXC|56=045|52=20190809-16:54:11.000|10=179|
8=FIX.4.4|9=59|35=0|34=3|49=045|50=045B17|52=20190808-16:53:17.190|56=EXC|10=072|
8=FIX.4.4|9=110|35=A|34=1|49=045|50=045B17|52=20190808-16:53:19.581|56=EXC|43=N|98=0|108=30|141=Y|553=045FCM001|554=045FCM001|10=113|
8=FIX.4.4|9=110|35=A|34=1|49=045|50=045B17|52=20190808-16:54:19.675|56=EXC|43=N|98=0|108=30|141=Y|553=045FCM001|554=045FCM001|10=118|
8=FIX.4.4|9=0067|35=A|34=1|49=EXC|56=045|52=20190809-16:55:14.720|98=0|108=30|141=Y|10=021|
8=FIX.4.4|9=0049|35=0|34=2|49=EXC|56=045|52=20190809-16:55:44.000|10=185|
8=FIX.4.4|9=59|35=0|34=2|49=045|50=045B17|52=20190808-16:54:50.191|56=EXC|10=070|
8=FIX.4.4|9=0049|35=0|34=3|49=EXC|56=045|52=20190809-16:56:14.000|10=184|
8=FIX.4.4|9=59|35=0|34=3|49=045|50=045B17|52=20190808-16:55:20.418|56=EXC|10=071|
8=FIX.4.4|9=0049|35=0|34=4|49=EXC|56=045|52=20190809-16:56:44.000|10=188|
8=FIX.4.4|9=59|35=0|34=4|49=045|50=045B17|52=20190808-16:55:51.189|56=EXC|10=081|
8=FIX.4.4|9=0049|35=0|34=5|49=EXC|56=045|52=20190809-16:57:14.000|10=187|
8=FIX.4.4|9=59|35=0|34=5|49=045|50=045B17|52=20190808-16:56:21.188|56=EXC|10=079|
8=FIX.4.4|9=0049|35=0|34=6|49=EXC|56=045|52=20190809-16:57:44.000|10=191|
8=FIX.4.4|9=59|35=0|34=6|49=045|50=045B17|52=20190808-16:56:51.202|56=EXC|10=070|
8=FIX.4.4|9=0049|35=0|34=7|49=EXC|56=045|52=20190809-16:58:14.000|10=190|
8=FIX.4.4|9=59|35=0|34=7|49=045|50=045B17|52=20190808-16:57:21.953|56=EXC|10=082|
8=FIX.4.4|9=0049|35=0|34=8|49=EXC|56=045|52=20190809-16:58:44.000|10=194|
8=FIX.4.4|9=59|35=0|34=8|49=045|50=045B17|52=20190808-16:57:52.201|56=EXC|10=073|
8=FIX.4.4|9=0049|35=0|34=9|49=EXC|56=045|52=20190809-16:59:14.000|10=193|
8=FIX.4.4|9=59|35=0|34=9|49=045|50=045B17|52=20190808-16:58:22.824|56=EXC|10=083|
8=FIX.4.4|9=0050|35=0|34=10|49=EXC|56=045|52=20190809-16:59:44.000|10=228|
8=FIX.4.4|9=60|35=0|34=10|49=045|50=045B17|52=20190808-16:58:53.201|56=EXC|10=108|
8=FIX.4.4|9=0050|35=0|34=11|49=EXC|56=045|52=20190809-17:00:14.000|10=213|
8=FIX.4.4|9=60|35=0|34=11|49=045|50=045B17|52=20190808-16:59:23.682|56=EXC|10=120|
8=FIX.4.4|9=0050|35=0|34=12|49=EXC|56=045|52=20190809-17:00:44.000|10=217|
8=FIX.4.4|9=60|35=0|34=12|49=045|50=045B17|52=20190808-16:59:54.201|56=EXC|10=112|
8=FIX.4.4|9=0050|35=0|34=13|49=EXC|56=045|52=20190809-17:01:14.000|10=216|
8=FIX.4.4|9=60|35=0|34=13|49=045|50=045B17|52=20190808-17:00:24.413|56=EXC|10=102|
8=FIX.4.4|9=0050|35=0|34=14|49=EXC|56=045|52=20190809-17:01:44.000|10=220|
8=FIX.4.4|9=60|35=0|34=14|49=045|50=045B17|52=20190808-17:00:55.199|56=EXC|10=118|
8=FIX.4.4|9=0050|35=0|34=15|49=EXC|56=045|52=20190809-17:02:14.000|10=219|
8=FIX.4.4|9=60|35=0|34=15|49=045|50=045B17|52=20190808-17:01:25.227|56=EXC|10=109|
8=FIX.4.4|9=0050|35=0|34=16|49=EXC|56=045|52=20190809-17:02:44.000|10=223|
8=FIX.4.4|9=60|35=0|34=16|49=045|50=045B17|52=20190808-17:01:56.197|56=EXC|10=120|
8=FIX.4.4|9=110|35=A|34=1|49=045|50=045B17|52=20190808-17:02:16.261|56=EXC|43=N|98=0|108=30|141=Y|553=045FCM001|554=045FCM001|10=100|
8=FIX.4.4|9=110|35=A|34=1|49=045|50=045B17|52=20190808-17:03:17.240|56=EXC|43=N|98=0|108=30|141=Y|553=045FCM001|554=045FCM001|10=099|
8=FIX.4.4|9=0067|35=A|34=1|49=EXC|56=045|52=20190809-17:04:12.298|98=0|108=30|141=Y|10=024|
8=FIX.4.4|9=0049|35=0|34=2|49=EXC|56=045|52=20190809-17:04:42.000|10=178|
8=FIX.4.4|9=59|35=0|34=2|49=045|50=045B17|52=20190808-17:03:48.195|56=EXC|10=076|
8=FIX.4.4|9=0049|35=0|34=3|49=EXC|56=045|52=20190809-17:05:12.000|10=177|
8=FIX.4.4|9=59|35=0|34=3|49=045|50=045B17|52=20190808-17:04:18.196|56=EXC|10=076|
8=FIX.4.4|9=0049|35=0|34=4|49=EXC|56=045|52=20190809-17:05:42.000|10=181|
8=FIX.4.4|9=59|35=0|34=4|49=045|50=045B17|52=20190808-17:04:48.196|56=EXC|10=080|
8=FIX.4.4|9=0049|35=0|34=5|49=EXC|56=045|52=20190809-17:06:12.000|10=180|
8=FIX.4.4|9=59|35=0|34=5|49=045|50=045B17|52=20190808-17:05:18.195|56=EXC|10=078|
8=FIX.4.4|9=0049|35=0|34=6|49=EXC|56=045|52=20190809-17:06:42.000|10=184|
8=FIX.4.4|9=59|35=0|34=6|49=045|50=045B17|52=20190808-17:05:48.201|56=EXC|10=070|
8=FIX.4.4|9=0049|35=0|34=7|49=EXC|56=045|52=20190809-17:07:12.000|10=183|
8=FIX.4.4|9=59|35=0|34=7|49=045|50=045B17|52=20190808-17:06:18.202|56=EXC|10=070|
8=FIX.4.4|9=0049|35=0|34=8|49=EXC|56=045|52=20190809-17:07:42.000|10=187|
8=FIX.4.4|9=59|35=0|34=8|49=045|50=045B17|52=20190808-17:06:48.202|56=EXC|10=074|
8=FIX.4.4|9=0049|35=0|34=9|49=EXC|56=045|52=20190809-17:08:12.000|10=186|
8=FIX.4.4|9=59|35=0|34=9|49=045|50=045B17|52=20190808-17:07:18.195|56=EXC|10=084|
8=FIX.4.4|9=0050|35=0|34=10|49=EXC|56=045|52=20190809-17:08:42.000|10=221|
8=FIX.4.4|9=60|35=0|34=10|49=045|50=045B17|52=20190808-17:07:48.193|56=EXC|10=117|
8=FIX.4.4|9=0050|35=0|34=11|49=EXC|56=045|52=20190809-17:09:12.000|10=220|
8=FIX.4.4|9=60|35=0|34=11|49=045|50=045B17|52=20190808-17:08:18.193|56=EXC|10=116|
8=FIX.4.4|9=0050|35=0|34=12|49=EXC|56=045|52=20190809-17:09:42.000|10=224|
8=FIX.4.4|9=60|35=0|34=12|49=045|50=045B17|52=20190808-17:08:48.191|56=EXC|10=118|
8=FIX.4.4|9=0050|35=0|34=13|49=EXC|56=045|52=20190809-17:10:12.000|10=214|
8=FIX.4.4|9=60|35=0|34=13|49=045|50=045B17|52=20190808-17:09:18.191|56=EXC|10=117|
8=FIX.4.4|9=0050|35=0|34=14|49=EXC|56=045|52=20190809-17:10:42.000|10=218|
8=FIX.4.4|9=60|35=0|34=14|49=045|50=045B17|52=20190808-17:09:48.191|56=EXC|10=121|
8=FIX.4.4|9=0050|35=0|34=15|49=EXC|56=045|52=20190809-17:11:12.000|10=217|
8=FIX.4.4|9=60|35=0|34=15|49=045|50=045B17|52=20190808-17:10:18.190|56=EXC|10=110|
8=FIX.4.4|9=0050|35=0|34=16|49=EXC|56=045|52=20190809-17:11:42.000|10=221|
8=FIX.4.4|9=60|35=0|34=16|49=045|50=045B17|52=20190808-17:10:48.189|56=EXC|10=122|
8=FIX.4.4|9=0050|35=0|34=17|49=EXC|56=045|52=20190809-17:12:12.000|10=220|
8=FIX.4.4|9=60|35=0|34=17|49=045|50=045B17|52=20190808-17:11:18.191|56=EXC|10=114|
8=FIX.4.4|9=0050|35=0|34=18|49=EXC|56=045|52=20190809-17:12:42.000|10=224|
8=FIX.4.4|9=60|35=0|34=18|49=045|50=045B17|52=20190808-17:11:48.190|56=EXC|10=117|
8=FIX.4.4|9=0050|35=0|34=19|49=EXC|56=045|52=20190809-17:13:12.000|10=223|
8=FIX.4.4|9=60|35=0|34=19|49=045|50=045B17|52=20190808-17:12:18.198|56=EXC|10=124|
8=FIX.4.4|9=0050|35=0|34=20|49=EXC|56=045|52=20190809-17:13:42.000|10=218|
8=FIX.4.4|9=60|35=0|34=20|49=045|50=045B17|52=20190808-17:12:48.194|56=EXC|10=115|
8=FIX.4.4|9=0050|35=0|34=21|49=EXC|56=045|52=20190809-17:14:12.000|10=217|
8=FIX.4.4|9=60|35=0|34=21|49=045|50=045B17|52=20190808-17:13:18.203|56=EXC|10=105|
8=FIX.4.4|9=0050|35=0|34=22|49=EXC|56=045|52=20190809-17:14:42.000|10=221|
8=FIX.4.4|9=60|35=0|34=22|49=045|50=045B17|52=20190808-17:13:48.203|56=EXC|10=109|
8=FIX.4.4|9=0050|35=0|34=23|49=EXC|56=045|52=20190809-17:15:12.000|10=220|
8=FIX.4.4|9=60|35=0|34=23|49=045|50=045B17|52=20190808-17:14:18.202|56=EXC|10=107|
8=FIX.4.4|9=0050|35=0|34=24|49=EXC|56=045|52=20190809-17:15:42.000|10=224|
8=FIX.4.4|9=60|35=0|34=24|49=045|50=045B17|52=20190808-17:14:48.202|56=EXC|10=111|
8=FIX.4.4|9=0050|35=0|34=25|49=EXC|56=045|52=20190809-17:16:12.000|10=223|
8=FIX.4.4|9=60|35=0|34=25|49=045|50=045B17|52=20190808-17:15:18.201|56=EXC|10=109|
8=FIX.4.4|9=0050|35=0|34=26|49=EXC|56=045|52=20190809-17:16:42.000|10=227|
8=FIX.4.4|9=60|35=0|34=26|49=045|50=045B17|52=20190808-17:15:48.201|56=EXC|10=113|
8=FIX.4.4|9=0050|35=0|34=27|49=EXC|56=045|52=20190809-17:17:12.000|10=226|
8=FIX.4.4|9=60|35=0|34=27|49=045|50=045B17|52=20190808-17:16:18.200|56=EXC|10=111|
8=FIX.4.4|9=0050|35=0|34=28|49=EXC|56=045|52=20190809-17:17:42.000|10=230|
8=FIX.4.4|9=60|35=0|34=28|49=045|50=045B17|52=20190808-17:16:48.201|56=EXC|10=116|
8=FIX.4.4|9=0050|35=0|34=29|49=EXC|56=045|52=20190809-17:18:12.000|10=229|
8=FIX.4.4|9=60|35=0|34=29|49=045|50=045B17|52=20190808-17:17:18.198|56=EXC|10=130|
8=FIX.4.4|9=0050|35=0|34=30|49=EXC|56=045|52=20190809-17:18:42.000|10=224|
8=FIX.4.4|9=60|35=0|34=30|49=045|50=045B17|52=20190808-17:17:48.201|56=EXC|10=110|
8=FIX.4.4|9=0050|35=0|34=31|49=EXC|56=045|52=20190809-17:19:12.000|10=223|
8=FIX.4.4|9=60|35=0|34=31|49=045|50=045B17|52=20190808-17:18:18.196|56=EXC|10=122|
8=FIX.4.4|9=0050|35=0|34=32|49=EXC|56=045|52=20190809-17:19:42.000|10=227|
8=FIX.4.4|9=60|35=0|34=32|49=045|50=045B17|52=20190808-17:18:48.196|56=EXC|10=126|
8=FIX.4.4|9=0050|35=0|34=33|49=EXC|56=045|52=20190809-17:20:12.000|10=217|
8=FIX.4.4|9=60|35=0|34=33|49=045|50=045B17|52=20190808-17:19:18.195|56=EXC|10=124|
8=FIX.4.4|9=0050|35=0|34=34|49=EXC|56=045|52=20190809-17:20:42.000|10=221|
8=FIX.4.4|9=60|35=0|34=34|49=045|50=045B17|52=20190808-17:19:48.188|56=EXC|10=130|
8=FIX.4.4|9=0050|35=0|34=35|49=EXC|56=045|52=20190809-17:21:12.000|10=220|
8=FIX.4.4|9=60|35=0|34=35|49=045|50=045B17|52=20190808-17:20:18.195|56=EXC|10=118|
8=FIX.4.4|9=0050|35=0|34=36|49=EXC|56=045|52=20190809-17:21:42.000|10=224|
8=FIX.4.4|9=60|35=0|34=36|49=045|50=045B17|52=20190808-17:20:48.194|56=EXC|10=121|
8=FIX.4.4|9=0050|35=0|34=37|49=EXC|56=045|52=20190809-17:22:12.000|10=223|
8=FIX.4.4|9=60|35=0|34=37|49=045|50=045B17|52=20190808-17:21:18.194|56=EXC|10=120|
8=FIX.4.4|9=0050|35=0|34=38|49=EXC|56=045|52=20190809-17:22:42.000|10=227|
8=FIX.4.4|9=60|35=0|34=38|49=045|50=045B17|52=20190808-17:21:48.193|56=EXC|10=123|
8=FIX.4.4|9=0050|35=0|34=39|49=EXC|56=045|52=20190809-17:23:12.000|10=226|
8=FIX.4.4|9=60|35=0|34=39|49=045|50=045B17|52=20190808-17:22:18.192|56=EXC|10=121|
8=FIX.4.4|9=0050|35=0|34=40|49=EXC|56=045|52=20190809-17:23:42.000|10=221|
8=FIX.4.4|9=60|35=0|34=40|49=045|50=045B17|52=20190808-17:22:48.193|56=EXC|10=117|
8=FIX.4.4|9=0050|35=0|34=41|49=EXC|56=045|52=20190809-17:24:12.000|10=220|
8=FIX.4.4|9=60|35=0|34=41|49=045|50=045B17|52=20190808-17:23:18.192|56=EXC|10=115|
8=FIX.4.4|9=0050|35=0|34=42|49=EXC|56=045|52=20190809-17:24:42.000|10=224|
8=FIX.4.4|9=60|35=0|34=42|49=045|50=045B17|52=20190808-17:23:48.195|56=EXC|10=122|
8=FIX.4.4|9=0050|35=0|34=43|49=EXC|56=045|52=20190809-17:25:12.000|10=223|
8=FIX.4.4|9=60|35=0|34=43|49=045|50=045B17|52=20190808-17:24:18.191|56=EXC|10=117|
8=FIX.4.4|9=0050|35=0|34=44|49=EXC|56=045|52=20190809-17:25:42.000|10=227|
8=FIX.4.4|9=60|35=0|34=44|49=045|50=045B17|52=20190808-17:24:48.190|56=EXC|10=120|
8=FIX.4.4|9=0050|35=0|34=45|49=EXC|56=045|52=20190809-17:26:12.000|10=226|
8=FIX.4.4|9=60|35=0|34=45|49=045|50=045B17|52=20190808-17:25:18.192|56=EXC|10=121|
8=FIX.4.4|9=0050|35=0|34=46|49=EXC|56=045|52=20190809-17:26:42.000|10=230|
8=FIX.4.4|9=60|35=0|34=46|49=045|50=045B17|52=20190808-17:25:48.190|56=EXC|10=123|
8=FIX.4.4|9=0050|35=0|34=47|49=EXC|56=045|52=20190809-17:27:12.000|10=229|
8=FIX.4.4|9=60|35=0|34=47|49=045|50=045B17|52=20190808-17:26:18.194|56=EXC|10=126|
8=FIX.4.4|9=0050|35=0|34=48|49=EXC|56=045|52=20190809-17:27:42.000|10=233|
8=FIX.4.4|9=60|35=0|34=48|49=045|50=045B17|52=20190808-17:26:48.189|56=EXC|10=134|
8=FIX.4.4|9=0050|35=0|34=49|49=EXC|56=045|52=20190809-17:28:12.000|10=232|
8=FIX.4.4|9=60|35=0|34=49|49=045|50=045B17|52=20190808-17:27:18.188|56=EXC|10=132|
8=FIX.4.4|9=0050|35=0|34=50|49=EXC|56=045|52=20190809-17:28:42.000|10=227|
8=FIX.4.4|9=60|35=0|34=50|49=045|50=045B17|52=20190808-17:27:48.202|56=EXC|10=114|
8=FIX.4.4|9=0050|35=0|34=51|49=EXC|56=045|52=20190809-17:29:12.000|10=226|
8=FIX.4.4|9=60|35=0|34=51|49=045|50=045B17|52=20190808-17:28:19.188|56=EXC|10=127|
8=FIX.4.4|9=0050|35=0|34=52|49=EXC|56=045|52=20190809-17:29:42.000|10=230|
8=FIX.4.4|9=60|35=0|34=52|49=045|50=045B17|52=20190808-17:28:49.187|56=EXC|10=130|
8=FIX.4.4|9=0050|35=0|34=53|49=EXC|56=045|52=20190809-17:30:12.000|10=220|
8=FIX.4.4|9=60|35=0|34=53|49=045|50=045B17|52=20190808-17:29:19.202|56=EXC|10=117|
8=FIX.4.4|9=0050|35=0|34=54|49=EXC|56=045|52=20190809-17:30:42.000|10=224|
8=FIX.4.4|9=60|35=0|34=54|49=045|50=045B17|52=20190808-17:29:50.195|56=EXC|10=124|
8=FIX.4.4|9=0050|35=0|34=55|49=EXC|56=045|52=20190809-17:31:12.000|10=223|
8=FIX.4.4|9=60|35=0|34=55|49=045|50=045B17|52=20190808-17:30:20.190|56=EXC|10=109|
8=FIX.4.4|9=0050|35=0|34=56|49=EXC|56=045|52=20190809-17:31:42.000|10=227|
8=FIX.4.4|9=60|35=0|34=56|49=045|50=045B17|52=20190808-17:30:50.192|56=EXC|10=115|
8=FIX.4.4|9=0050|35=0|34=57|49=EXC|56=045|52=20190809-17:32:12.000|10=226|
8=FIX.4.4|9=60|35=0|34=57|49=045|50=045B17|52=20190808-17:31:20.203|56=EXC|10=107|
8=FIX.4.4|9=0050|35=0|34=58|49=EXC|56=045|52=20190809-17:32:42.000|10=230|
8=FIX.4.4|9=60|35=0|34=58|49=045|50=045B17|52=20190808-17:31:50.197|56=EXC|10=123|
8=FIX.4.4|9=0050|35=0|34=59|49=EXC|56=045|52=20190809-17:33:12.000|10=229|
8=FIX.4.4|9=60|35=0|34=59|49=045|50=045B17|52=20190808-17:32:20.196|56=EXC|10=121|
8=FIX.4.4|9=0050|35=0|34=60|49=EXC|56=045|52=20190809-17:33:42.000|10=224|
8=FIX.4.4|9=60|35=0|34=60|49=045|50=045B17|52=20190808-17:32:50.202|56=EXC|10=104|
8=FIX.4.4|9=0050|35=0|34=61|49=EXC|56=045|52=20190809-17:34:12.000|10=223|
8=FIX.4.4|9=60|35=0|34=61|49=045|50=045B17|52=20190808-17:33:21.187|56=EXC|10=116|
8=FIX.4.4|9=0050|35=0|34=62|49=EXC|56=045|52=20190809-17:34:42.000|10=227|
8=FIX.4.4|9=60|35=0|34=62|49=045|50=045B17|52=20190808-17:33:51.200|56=EXC|10=106|
8=FIX.4.4|9=0050|35=0|34=63|49=EXC|56=045|52=20190809-17:35:12.000|10=226|
8=FIX.4.4|9=60|35=0|34=63|49=045|50=045B17|52=20190808-17:34:21.199|56=EXC|10=122|
8=FIX.4.4|9=0050|35=0|34=64|49=EXC|56=045|52=20190809-17:35:42.000|10=230|
8=FIX.4.4|9=60|35=0|34=64|49=045|50=045B17|52=20190808-17:34:51.202|56=EXC|10=111|
8=FIX.4.4|9=0050|35=0|34=65|49=EXC|56=045|52=20190809-17:36:12.000|10=229|
8=FIX.4.4|9=60|35=0|34=65|49=045|50=045B17|52=20190808-17:35:21.201|56=EXC|10=109|
8=FIX.4.4|9=0050|35=0|34=66|49=EXC|56=045|52=20190809-17:36:42.000|10=233|
8=FIX.4.4|9=60|35=0|34=66|49=045|50=045B17|52=20190808-17:35:52.188|56=EXC|10=128|
8=FIX.4.4|9=0050|35=0|34=67|49=EXC|56=045|52=20190809-17:37:12.000|10=232|
8=FIX.4.4|9=60|35=0|34=67|49=045|50=045B17|52=20190808-17:36:22.199|56=EXC|10=129|
8=FIX.4.4|9=0050|35=0|34=68|49=EXC|56=045|52=20190809-17:37:42.000|10=236|
8=FIX.4.4|9=60|35=0|34=68|49=045|50=045B17|52=20190808-17:36:52.200|56=EXC|10=116|
8=FIX.4.4|9=0050|35=0|34=69|49=EXC|56=045|52=20190809-17:38:12.000|10=235|
8=FIX.4.4|9=60|35=0|34=69|49=045|50=045B17|52=20190808-17:37:22.197|56=EXC|10=130|
8=FIX.4.4|9=0050|35=0|34=70|49=EXC|56=045|52=20190809-17:38:42.000|10=230|
8=FIX.4.4|9=60|35=0|34=70|49=045|50=045B17|52=20190808-17:37:52.341|56=EXC|10=116|
8=FIX.4.4|9=0050|35=0|34=71|49=EXC|56=045|52=20190809-17:39:12.000|10=229|
8=FIX.4.4|9=60|35=0|34=71|49=045|50=045B17|52=20190808-17:38:23.196|56=EXC|10=124|
8=FIX.4.4|9=0050|35=0|34=72|49=EXC|56=045|52=20190809-17:39:42.000|10=233|
8=FIX.4.4|9=60|35=0|34=72|49=045|50=045B17|52=20190808-17:38:53.198|56=EXC|10=130|
8=FIX.4.4|9=0050|35=0|34=73|49=EXC|56=045|52=20190809-17:40:12.000|10=223|
8=FIX.4.4|9=60|35=0|34=73|49=045|50=045B17|52=20190808-17:39:23.195|56=EXC|10=126|
8=FIX.4.4|9=0050|35=0|34=74|49=EXC|56=045|52=20190809-17:40:42.000|10=227|
8=FIX.4.4|9=60|35=0|34=74|49=045|50=045B17|52=20190808-17:39:53.879|56=EXC|10=139|
8=FIX.4.4|9=0050|35=0|34=75|49=EXC|56=045|52=20190809-17:41:12.000|10=226|
8=FIX.4.4|9=60|35=0|34=75|49=045|50=045B17|52=20190808-17:40:24.194|56=EXC|10=120|
8=FIX.4.4|9=0050|35=0|34=76|49=EXC|56=045|52=20190809-17:41:42.000|10=230|
8=FIX.4.4|9=60|35=0|34=76|49=045|50=045B17|52=20190808-17:40:54.628|56=EXC|10=126|
8=FIX.4.4|9=0050|35=0|34=77|49=EXC|56=045|52=20190809-17:42:12.000|10=229|
8=FIX.4.4|9=60|35=0|34=77|49=045|50=045B17|52=20190808-17:41:25.193|56=EXC|10=123|
8=FIX.4.4|9=0050|35=0|34=78|49=EXC|56=045|52=20190809-17:42:42.000|10=233|
8=FIX.4.4|9=60|35=0|34=78|49=045|50=045B17|52=20190808-17:41:55.412|56=EXC|10=121|
8=FIX.4.4|9=0050|35=0|34=79|49=EXC|56=045|52=20190809-17:43:12.000|10=232|
8=FIX.4.4|9=60|35=0|34=79|49=045|50=045B17|52=20190808-17:42:26.191|56=EXC|10=125|
8=FIX.4.4|9=0050|35=0|34=80|49=EXC|56=045|52=20190809-17:43:42.000|10=227|
8=FIX.4.4|9=60|35=0|34=80|49=045|50=045B17|52=20190808-17:42:56.220|56=EXC|10=113|
8=FIX.4.4|9=0050|35=0|34=81|49=EXC|56=045|52=20190809-17:44:12.000|10=226|
8=FIX.4.4|9=60|35=0|34=81|49=045|50=045B17|52=20190808-17:43:27.190|56=EXC|10=119|
8=FIX.4.4|9=0050|35=0|34=82|49=EXC|56=045|52=20190809-17:44:42.000|10=230|
8=FIX.4.4|9=60|35=0|34=82|49=045|50=045B17|52=20190808-17:43:57.190|56=EXC|10=123|
8=FIX.4.4|9=0050|35=0|34=83|49=EXC|56=045|52=20190809-17:45:12.000|10=229|
8=FIX.4.4|9=60|35=0|34=83|49=045|50=045B17|52=20190808-17:44:27.190|56=EXC|10=122|
8=FIX.4.4|9=0050|35=0|34=84|49=EXC|56=045|52=20190809-17:45:42.000|10=233|
8=FIX.4.4|9=60|35=0|34=84|49=045|50=045B17|52=20190808-17:44:57.750|56=EXC|10=128|
8=FIX.4.4|9=0050|35=0|34=85|49=EXC|56=045|52=20190809-17:46:12.000|10=232|
8=FIX.4.4|9=60|35=0|34=85|49=045|50=045B17|52=20190808-17:45:28.188|56=EXC|10=133|
8=FIX.4.4|9=0050|35=0|34=86|49=EXC|56=045|52=20190809-17:46:42.000|10=236|
8=FIX.4.4|9=60|35=0|34=86|49=045|50=045B17|52=20190808-17:45:58.561|56=EXC|10=132|
8=FIX.4.4|9=0050|35=0|34=87|49=EXC|56=045|52=20190809-17:47:12.000|10=235|
8=FIX.4.4|9=60|35=0|34=87|49=045|50=045B17|52=20190808-17:46:29.188|56=EXC|10=137|
8=FIX.4.4|9=0050|35=0|34=88|49=EXC|56=045|52=20190809-17:47:42.000|10=239|
8=FIX.4.4|9=60|35=0|34=88|49=045|50=045B17|52=20190808-17:46:59.399|56=EXC|10=145|
8=FIX.4.4|9=0050|35=0|34=89|49=EXC|56=045|52=20190809-17:48:12.000|10=238|
8=FIX.4.4|9=60|35=0|34=89|49=045|50=045B17|52=20190808-17:47:30.197|56=EXC|10=132|
8=FIX.4.4|9=0050|35=0|34=90|49=EXC|56=045|52=20190809-17:48:42.000|10=233|
8=FIX.4.4|9=60|35=0|34=90|49=045|50=045B17|52=20190808-17:48:00.192|56=EXC|10=117|
8=FIX.4.4|9=0050|35=0|34=91|49=EXC|56=045|52=20190809-17:49:12.000|10=232|
8=FIX.4.4|9=60|35=0|34=91|49=045|50=045B17|52=20190808-17:48:30.197|56=EXC|10=126|
8=FIX.4.4|9=0050|35=0|34=92|49=EXC|56=045|52=20190809-17:49:42.000|10=236|
8=FIX.4.4|9=60|35=0|34=92|49=045|50=045B17|52=20190808-17:49:00.941|56=EXC|10=122|
8=FIX.4.4|9=0050|35=0|34=93|49=EXC|56=045|52=20190809-17:50:12.000|10=226|
8=FIX.4.4|9=60|35=0|34=93|49=045|50=045B17|52=20190808-17:49:31.194|56=EXC|10=127|
8=FIX.4.4|9=0050|35=0|34=94|49=EXC|56=045|52=20190809-17:50:42.000|10=230|
8=FIX.4.4|9=60|35=0|34=94|49=045|50=045B17|52=20190808-17:50:01.721|56=EXC|10=113|
8=FIX.4.4|9=0050|35=0|34=95|49=EXC|56=045|52=20190809-17:51:12.000|10=229|
8=FIX.4.4|9=60|35=0|34=95|49=045|50=045B17|52=20190808-17:50:32.192|56=EXC|10=120|
8=FIX.4.4|9=0050|35=0|34=96|49=EXC|56=045|52=20190809-17:51:42.000|10=233|
8=FIX.4.4|9=60|35=0|34=96|49=045|50=045B17|52=20190808-17:51:02.439|56=EXC|10=123|
8=FIX.4.4|9=0050|35=0|34=97|49=EXC|56=045|52=20190809-17:52:12.000|10=232|
8=FIX.4.4|9=60|35=0|34=97|49=045|50=045B17|52=20190808-17:51:33.203|56=EXC|10=117|
8=FIX.4.4|9=0050|35=0|34=98|49=EXC|56=045|52=20190809-17:52:42.000|10=236|
8=FIX.4.4|9=60|35=0|34=98|49=045|50=045B17|52=20190808-17:52:04.190|56=EXC|10=122|
8=FIX.4.4|9=0050|35=0|34=99|49=EXC|56=045|52=20190809-17:53:12.000|10=235|
8=FIX.4.4|9=60|35=0|34=99|49=045|50=045B17|52=20190808-17:52:34.191|56=EXC|10=127|
8=FIX.4.4|9=0051|35=0|34=100|49=EXC|56=045|52=20190809-17:53:42.000|10=014|
8=FIX.4.4|9=61|35=0|34=100|49=045|50=045B17|52=20190808-17:53:04.192|56=EXC|10=158|
8=FIX.4.4|9=0051|35=0|34=101|49=EXC|56=045|52=20190809-17:54:12.000|10=013|
8=FIX.4.4|9=61|35=0|34=101|49=045|50=045B17|52=20190808-17:53:34.189|56=EXC|10=168|
8=FIX.4.4|9=0051|35=0|34=102|49=EXC|56=045|52=20190809-17:54:42.000|10=017|
8=FIX.4.4|9=61|35=0|34=102|49=045|50=045B17|52=20190808-17:54:04.639|56=EXC|10=167|
8=FIX.4.4|9=0051|35=0|34=103|49=EXC|56=045|52=20190809-17:55:12.000|10=016|
8=FIX.4.4|9=61|35=0|34=103|49=045|50=045B17|52=20190808-17:54:35.189|56=EXC|10=172|
8=FIX.4.4|9=0051|35=0|34=104|49=EXC|56=045|52=20190809-17:55:42.000|10=020|
8=FIX.4.4|9=61|35=0|34=104|49=045|50=045B17|52=20190808-17:55:05.388|56=EXC|10=172|
8=FIX.4.4|9=0051|35=0|34=105|49=EXC|56=045|52=20190809-17:56:12.000|10=019|
8=FIX.4.4|9=61|35=0|34=105|49=045|50=045B17|52=20190808-17:55:36.203|56=EXC|10=163|
8=FIX.4.4|9=0051|35=0|34=106|49=EXC|56=045|52=20190809-17:56:42.000|10=023|
8=FIX.4.4|9=61|35=0|34=106|49=045|50=045B17|52=20190808-17:56:06.202|56=EXC|10=161|
8=FIX.4.4|9=0051|35=0|34=107|49=EXC|56=045|52=20190809-17:57:12.000|10=022|
8=FIX.4.4|9=61|35=0|34=107|49=045|50=045B17|52=20190808-17:56:36.201|56=EXC|10=164|
8=FIX.4.4|9=0051|35=0|34=108|49=EXC|56=045|52=20190809-17:57:42.000|10=026|
8=FIX.4.4|9=61|35=0|34=108|49=045|50=045B17|52=20190808-17:57:06.868|56=EXC|10=182|
8=FIX.4.4|9=0051|35=0|34=109|49=EXC|56=045|52=20190809-17:58:12.000|10=025|
8=FIX.4.4|9=61|35=0|34=109|49=045|50=045B17|52=20190808-17:57:37.201|56=EXC|10=168|
8=FIX.4.4|9=0051|35=0|34=110|49=EXC|56=045|52=20190809-17:58:42.000|10=020|
8=FIX.4.4|9=61|35=0|34=110|49=045|50=045B17|52=20190808-17:58:07.651|56=EXC|10=167|
8=FIX.4.4|9=0051|35=0|34=111|49=EXC|56=045|52=20190809-17:59:12.000|10=019|
8=FIX.4.4|9=61|35=0|34=111|49=045|50=045B17|52=20190808-17:58:38.201|56=EXC|10=163|
8=FIX.4.4|9=0051|35=0|34=112|49=EXC|56=045|52=20190809-17:59:42.000|10=023|
8=FIX.4.4|9=61|35=0|34=112|49=045|50=045B17|52=20190808-17:59:08.431|56=EXC|10=167|
8=FIX.4.4|9=0051|35=0|34=113|49=EXC|56=045|52=20190809-18:00:12.000|10=008|
8=FIX.4.4|9=61|35=0|34=113|49=045|50=045B17|52=20190808-17:59:39.200|56=EXC|10=166|
8=FIX.4.4|9=0051|35=0|34=114|49=EXC|56=045|52=20190809-18:00:42.000|10=012|
8=FIX.4.4|9=61|35=0|34=114|49=045|50=045B17|52=20190808-18:00:09.243|56=EXC|10=158|
8=FIX.4.4|9=0051|35=0|34=115|49=EXC|56=045|52=20190809-18:01:12.000|10=011|
8=FIX.4.4|9=61|35=0|34=115|49=045|50=045B17|52=20190808-18:00:40.202|56=EXC|10=149|
8=FIX.4.4|9=0051|35=0|34=116|49=EXC|56=045|52=20190809-18:01:42.000|10=015|
8=FIX.4.4|9=61|35=0|34=116|49=045|50=045B17|52=20190808-18:01:10.201|56=EXC|10=147|
8=FIX.4.4|9=0051|35=0|34=117|49=EXC|56=045|52=20190809-18:02:12.000|10=014|
8=FIX.4.4|9=61|35=0|34=117|49=045|50=045B17|52=20190808-18:01:40.197|56=EXC|10=165|
8=FIX.4.4|9=0051|35=0|34=118|49=EXC|56=045|52=20190809-18:02:42.000|10=018|
8=FIX.4.4|9=61|35=0|34=118|49=045|50=045B17|52=20190808-18:02:10.740|56=EXC|10=158|
8=FIX.4.4|9=0051|35=0|34=119|49=EXC|56=045|52=20190809-18:03:12.000|10=017|
8=FIX.4.4|9=61|35=0|34=119|49=045|50=045B17|52=20190808-18:02:41.197|56=EXC|10=169|
8=FIX.4.4|9=0051|35=0|34=120|49=EXC|56=045|52=20190809-18:03:42.000|10=012|
8=FIX.4.4|9=61|35=0|34=120|49=045|50=045B17|52=20190808-18:03:11.443|56=EXC|10=153|
8=FIX.4.4|9=0051|35=0|34=121|49=EXC|56=045|52=20190809-18:04:12.000|10=011|
8=FIX.4.4|9=61|35=0|34=121|49=045|50=045B17|52=20190808-18:03:42.196|56=EXC|10=163|
8=FIX.4.4|9=0051|35=0|34=122|49=EXC|56=045|52=20190809-18:04:42.000|10=015|
8=FIX.4.4|9=61|35=0|34=122|49=045|50=045B17|52=20190808-18:04:12.223|56=EXC|10=153|
8=FIX.4.4|9=0051|35=0|34=123|49=EXC|56=045|52=20190809-18:05:12.000|10=014|
8=FIX.4.4|9=61|35=0|34=123|49=045|50=045B17|52=20190808-18:04:43.194|56=EXC|10=165|
8=FIX.4.4|9=0051|35=0|34=124|49=EXC|56=045|52=20190809-18:05:42.000|10=018|
8=FIX.4.4|9=61|35=0|34=124|49=045|50=045B17|52=20190808-18:05:13.197|56=EXC|10=167|
8=FIX.4.4|9=0051|35=0|34=125|49=EXC|56=045|52=20190809-18:06:12.000|10=017|
8=FIX.4.4|9=61|35=0|34=125|49=045|50=045B17|52=20190808-18:05:43.193|56=EXC|10=167|
8=FIX.4.4|9=0051|35=0|34=126|49=EXC|56=045|52=20190809-18:06:42.000|10=021|
8=FIX.4.4|9=61|35=0|34=126|49=045|50=045B17|52=20190808-18:06:13.753|56=EXC|10=168|
8=FIX.4.4|9=0051|35=0|34=127|49=EXC|56=045|52=20190809-18:07:12.000|10=020|
8=FIX.4.4|9=61|35=0|34=127|49=045|50=045B17|52=20190808-18:06:44.193|56=EXC|10=171|
8=FIX.4.4|9=0051|35=0|34=128|49=EXC|56=045|52=20190809-18:07:42.000|10=024|
8=FIX.4.4|9=61|35=0|34=128|49=045|50=045B17|52=20190808-18:07:14.533|56=EXC|10=168|
8=FIX.4.4|9=0051|35=0|34=129|49=EXC|56=045|52=20190809-18:08:12.000|10=023|
8=FIX.4.4|9=61|35=0|34=129|49=045|50=045B17|52=20190808-18:07:45.192|56=EXC|10=174|
8=FIX.4.4|9=0051|35=0|34=130|49=EXC|56=045|52=20190809-18:08:42.000|10=018|
8=FIX.4.4|9=61|35=0|34=130|49=045|50=045B17|52=20190808-18:08:15.376|56=EXC|10=168|
8=FIX.4.4|9=0051|35=0|34=131|49=EXC|56=045|52=20190809-18:09:12.000|10=017|
8=FIX.4.4|9=61|35=0|34=131|49=045|50=045B17|52=20190808-18:08:46.192|56=EXC|10=169|
8=FIX.4.4|9=0051|35=0|34=132|49=EXC|56=045|52=20190809-18:09:42.000|10=021|
8=FIX.4.4|9=61|35=0|34=132|49=045|50=045B17|52=20190808-18:09:16.198|56=EXC|10=174|
8=FIX.4.4|9=0051|35=0|34=133|49=EXC|56=045|52=20190809-18:10:12.000|10=011|
8=FIX.4.4|9=61|35=0|34=133|49=045|50=045B17|52=20190808-18:09:46.198|56=EXC|10=178|
8=FIX.4.4|9=0051|35=0|34=134|49=EXC|56=045|52=20190809-18:10:42.000|10=015|
8=FIX.4.4|9=0051|35=0|34=135|49=EXC|56=045|52=20190809-18:11:12.000|10=014|
8=FIX.4.4|9=61|35=0|34=134|49=045|50=045B17|52=20190808-18:10:16.891|56=EXC|10=168|
8=FIX.4.4|9=0051|35=0|34=136|49=EXC|56=045|52=20190809-18:11:42.000|10=018|
8=FIX.4.4|9=61|35=0|34=135|49=045|50=045B17|52=20190808-18:10:46.891|56=EXC|10=172|
8=FIX.4.4|9=0051|35=0|34=137|49=EXC|56=045|52=20190809-18:12:12.000|10=017|
8=FIX.4.4|9=61|35=0|34=136|49=045|50=045B17|52=20190808-18:11:16.891|56=EXC|10=171|
8=FIX.4.4|9=0051|35=0|34=138|49=EXC|56=045|52=20190809-18:12:42.000|10=021|
8=FIX.4.4|9=61|35=0|34=137|49=045|50=045B17|52=20190808-18:11:46.890|56=EXC|10=174|
8=FIX.4.4|9=0051|35=0|34=139|49=EXC|56=045|52=20190809-18:13:12.000|10=020|
8=FIX.4.4|9=61|35=0|34=138|49=045|50=045B17|52=20190808-18:12:16.890|56=EXC|10=173|
8=FIX.4.4|9=0051|35=0|34=140|49=EXC|56=045|52=20190809-18:13:42.000|10=015|
8=FIX.4.4|9=61|35=0|34=139|49=045|50=045B17|52=20190808-18:12:46.894|56=EXC|10=181|
8=FIX.4.4|9=0051|35=0|34=141|49=EXC|56=045|52=20190809-18:14:12.000|10=014|
8=FIX.4.4|9=61|35=0|34=140|49=045|50=045B17|52=20190808-18:13:16.891|56=EXC|10=168|
8=FIX.4.4|9=0051|35=0|34=142|49=EXC|56=045|52=20190809-18:14:42.000|10=018|
8=FIX.4.4|9=61|35=0|34=141|49=045|50=045B17|52=20190808-18:13:46.892|56=EXC|10=173|
8=FIX.4.4|9=0051|35=0|34=143|49=EXC|56=045|52=20190809-18:15:12.000|10=017|
8=FIX.4.4|9=61|35=0|34=142|49=045|50=045B17|52=20190808-18:14:16.890|56=EXC|10=170|
8=FIX.4.4|9=0051|35=0|34=144|49=EXC|56=045|52=20190809-18:15:42.000|10=021|
8=FIX.4.4|9=61|35=0|34=143|49=045|50=045B17|52=20190808-18:14:46.889|56=EXC|10=182|
8=FIX.4.4|9=0051|35=0|34=145|49=EXC|56=045|52=20190809-18:16:12.000|10=020|
8=FIX.4.4|9=61|35=0|34=144|49=045|50=045B17|52=20190808-18:15:16.890|56=EXC|10=173|
8=FIX.4.4|9=0051|35=0|34=146|49=EXC|56=045|52=20190809-18:16:42.000|10=024|
8=FIX.4.4|9=61|35=0|34=145|49=045|50=045B17|52=20190808-18:15:46.892|56=EXC|10=179|
8=FIX.4.4|9=0051|35=0|34=147|49=EXC|56=045|52=20190809-18:17:12.000|10=023|
8=FIX.4.4|9=61|35=0|34=146|49=045|50=045B17|52=20190808-18:16:16.888|56=EXC|10=183|
8=FIX.4.4|9=0051|35=0|34=148|49=EXC|56=045|52=20190809-18:17:42.000|10=027|
8=FIX.4.4|9=61|35=0|34=147|49=045|50=045B17|52=20190808-18:16:46.891|56=EXC|10=181|
8=FIX.4.4|9=0051|35=0|34=149|49=EXC|56=045|52=20190809-18:18:12.000|10=026|
8=FIX.4.4|9=61|35=0|34=148|49=045|50=045B17|52=20190808-18:17:16.889|56=EXC|10=187|
8=FIX.4.4|9=0051|35=0|34=150|49=EXC|56=045|52=20190809-18:18:42.000|10=021|
8=FIX.4.4|9=61|35=0|34=149|49=045|50=045B17|52=20190808-18:17:46.890|56=EXC|10=183|
8=FIX.4.4|9=0051|35=0|34=151|49=EXC|56=045|52=20190809-18:19:12.000|10=020|
8=FIX.4.4|9=61|35=0|34=150|49=045|50=045B17|52=20190808-18:18:16.888|56=EXC|10=180|
8=FIX.4.4|9=0051|35=0|34=152|49=EXC|56=045|52=20190809-18:19:42.000|10=024|
8=FIX.4.4|9=61|35=0|34=151|49=045|50=045B17|52=20190808-18:18:46.888|56=EXC|10=184|
8=FIX.4.4|9=0051|35=0|34=153|49=EXC|56=045|52=20190809-18:20:12.000|10=014|
8=FIX.4.4|9=61|35=0|34=152|49=045|50=045B17|52=20190808-18:19:16.887|56=EXC|10=182|
8=FIX.4.4|9=0051|35=0|34=154|49=EXC|56=045|52=20190809-18:20:42.000|10=018|
8=FIX.4.4|9=61|35=0|34=153|49=045|50=045B17|52=20190808-18:19:46.889|56=EXC|10=188|
8=FIX.4.4|9=0051|35=0|34=155|49=EXC|56=045|52=20190809-18:21:12.000|10=017|
8=FIX.4.4|9=61|35=0|34=154|49=045|50=045B17|52=20190808-18:20:16.891|56=EXC|10=171|
8=FIX.4.4|9=0051|35=0|34=156|49=EXC|56=045|52=20190809-18:21:42.000|10=021|
8=FIX.4.4|9=61|35=0|34=155|49=045|50=045B17|52=20190808-18:20:46.888|56=EXC|10=181|
8=FIX.4.4|9=0051|35=0|34=157|49=EXC|56=045|52=20190809-18:22:12.000|10=020|
8=FIX.4.4|9=61|35=0|34=156|49=045|50=045B17|52=20190808-18:21:16.885|56=EXC|10=177|
8=FIX.4.4|9=0051|35=0|34=158|49=EXC|56=045|52=20190809-18:22:42.000|10=024|
8=FIX.4.4|9=61|35=0|34=157|49=045|50=045B17|52=20190808-18:21:46.887|56=EXC|10=183|
8=FIX.4.4|9=0051|35=0|34=159|49=EXC|56=045|52=20190809-18:23:12.000|10=023|
8=FIX.4.4|9=61|35=0|34=158|49=045|50=045B17|52=20190808-18:22:16.884|56=EXC|10=179|
8=FIX.4.4|9=0051|35=0|34=160|49=EXC|56=045|52=20190809-18:23:42.000|10=018|
8=FIX.4.4|9=61|35=0|34=159|49=045|50=045B17|52=20190808-18:22:46.878|56=EXC|10=186|
8=FIX.4.4|9=0051|35=0|34=161|49=EXC|56=045|52=20190809-18:24:12.000|10=017|
8=FIX.4.4|9=61|35=0|34=160|49=045|50=045B17|52=20190808-18:23:16.888|56=EXC|10=177|
8=FIX.4.4|9=0051|35=0|34=162|49=EXC|56=045|52=20190809-18:24:42.000|10=021|
8=FIX.4.4|9=61|35=0|34=161|49=045|50=045B17|52=20190808-18:23:46.886|56=EXC|10=179|
8=FIX.4.4|9=0051|35=0|34=163|49=EXC|56=045|52=20190809-18:25:12.000|10=020|
8=FIX.4.4|9=61|35=0|34=162|49=045|50=045B17|52=20190808-18:24:16.883|56=EXC|10=175|
8=FIX.4.4|9=0051|35=0|34=164|49=EXC|56=045|52=20190809-18:25:42.000|10=024|
8=FIX.4.4|9=61|35=0|34=163|49=045|50=045B17|52=20190808-18:24:46.884|56=EXC|10=180|
8=FIX.4.4|9=0051|35=0|34=165|49=EXC|56=045|52=20190809-18:26:12.000|10=023|
8=FIX.4.4|9=61|35=0|34=164|49=045|50=045B17|52=20190808-18:25:16.875|56=EXC|10=179|
8=FIX.4.4|9=0051|35=0|34=166|49=EXC|56=045|52=20190809-18:26:42.000|10=027|
8=FIX.4.4|9=61|35=0|34=165|49=045|50=045B17|52=20190808-18:25:46.883|56=EXC|10=182|
8=FIX.4.4|9=0051|35=0|34=167|49=EXC|56=045|52=20190809-18:27:12.000|10=026|
8=FIX.4.4|9=61|35=0|34=166|49=045|50=045B17|52=20190808-18:26:16.881|56=EXC|10=179|
8=FIX.4.4|9=0051|35=0|34=168|49=EXC|56=045|52=20190809-18:27:42.000|10=030|
8=FIX.4.4|9=61|35=0|34=167|49=045|50=045B17|52=20190808-18:26:46.882|56=EXC|10=184|
8=FIX.4.4|9=0051|35=0|34=169|49=EXC|56=045|52=20190809-18:28:12.000|10=029|
8=FIX.4.4|9=61|35=0|34=168|49=045|50=045B17|52=20190808-18:27:16.879|56=EXC|10=189|
8=FIX.4.4|9=0051|35=0|34=170|49=EXC|56=045|52=20190809-18:28:42.000|10=024|
8=FIX.4.4|9=61|35=0|34=169|49=045|50=045B17|52=20190808-18:27:46.881|56=EXC|10=186|
8=FIX.4.4|9=0051|35=0|34=171|49=EXC|56=045|52=20190809-18:29:12.000|10=023|
8=FIX.4.4|9=61|35=0|34=170|49=045|50=045B17|52=20190808-18:28:16.878|56=EXC|10=182|
8=FIX.4.4|9=0051|35=0|34=172|49=EXC|56=045|52=20190809-18:29:42.000|10=027|
8=FIX.4.4|9=61|35=0|34=171|49=045|50=045B17|52=20190808-18:28:46.882|56=EXC|10=181|
8=FIX.4.4|9=0051|35=0|34=173|49=EXC|56=045|52=20190809-18:30:12.000|10=017|
8=FIX.4.4|9=61|35=0|34=172|49=045|50=045B17|52=20190808-18:29:16.878|56=EXC|10=185|
8=FIX.4.4|9=0051|35=0|34=174|49=EXC|56=045|52=20190809-18:30:42.000|10=021|
8=FIX.4.4|9=61|35=0|34=173|49=045|50=045B17|52=20190808-18:29:46.880|56=EXC|10=182|
8=FIX.4.4|9=0051|35=0|34=175|49=EXC|56=045|52=20190809-18:31:12.000|10=020|
8=FIX.4.4|9=61|35=0|34=174|49=045|50=045B17|52=20190808-18:30:16.877|56=EXC|10=178|
8=FIX.4.4|9=0051|35=0|34=176|49=EXC|56=045|52=20190809-18:31:42.000|10=024|
8=FIX.4.4|9=61|35=0|34=175|49=045|50=045B17|52=20190808-18:30:46.879|56=EXC|10=184|
8=FIX.4.4|9=0051|35=0|34=177|49=EXC|56=045|52=20190809-18:32:12.000|10=023|
8=FIX.4.4|9=61|35=0|34=176|49=045|50=045B17|52=20190808-18:31:16.876|56=EXC|10=180|
8=FIX.4.4|9=0051|35=0|34=178|49=EXC|56=045|52=20190809-18:32:42.000|10=027|
8=FIX.4.4|9=61|35=0|34=177|49=045|50=045B17|52=20190808-18:31:46.879|56=EXC|10=187|
8=FIX.4.4|9=0051|35=0|34=179|49=EXC|56=045|52=20190809-18:33:12.000|10=026|
8=FIX.4.4|9=61|35=0|34=178|49=045|50=045B17|52=20190808-18:32:16.876|56=EXC|10=183|
8=FIX.4.4|9=0051|35=0|34=180|49=EXC|56=045|52=20190809-18:33:42.000|10=021|
8=FIX.4.4|9=61|35=0|34=179|49=045|50=045B17|52=20190808-18:32:46.878|56=EXC|10=189|
8=FIX.4.4|9=0051|35=0|34=181|49=EXC|56=045|52=20190809-18:34:12.000|10=020|
8=FIX.4.4|9=61|35=0|34=180|49=045|50=045B17|52=20190808-18:33:16.874|56=EXC|10=175|
8=FIX.4.4|9=0051|35=0|34=182|49=EXC|56=045|52=20190809-18:34:42.000|10=024|
8=FIX.4.4|9=61|35=0|34=181|49=045|50=045B17|52=20190808-18:33:46.892|56=EXC|10=179|
8=FIX.4.4|9=0051|35=0|34=183|49=EXC|56=045|52=20190809-18:35:12.000|10=023|
8=FIX.4.4|9=61|35=0|34=182|49=045|50=045B17|52=20190808-18:34:17.198|56=EXC|10=178|
8=FIX.4.4|9=0051|35=0|34=184|49=EXC|56=045|52=20190809-18:35:42.000|10=027|
8=FIX.4.4|9=61|35=0|34=183|49=045|50=045B17|52=20190808-18:34:47.197|56=EXC|10=181|
8=FIX.4.4|9=0051|35=0|34=185|49=EXC|56=045|52=20190809-18:36:12.000|10=026|
8=FIX.4.4|9=61|35=0|34=184|49=045|50=045B17|52=20190808-18:35:17.197|56=EXC|10=180|
8=FIX.4.4|9=0051|35=0|34=186|49=EXC|56=045|52=20190809-18:36:42.000|10=030|
8=FIX.4.4|9=61|35=0|34=185|49=045|50=045B17|52=20190808-18:35:47.196|56=EXC|10=183|
8=FIX.4.4|9=0051|35=0|34=187|49=EXC|56=045|52=20190809-18:37:12.000|10=029|
8=FIX.4.4|9=61|35=0|34=186|49=045|50=045B17|52=20190808-18:36:17.196|56=EXC|10=182|
8=FIX.4.4|9=0051|35=0|34=188|49=EXC|56=045|52=20190809-18:37:42.000|10=033|
8=FIX.4.4|9=61|35=0|34=187|49=045|50=045B17|52=20190808-18:36:47.195|56=EXC|10=185|
8=FIX.4.4|9=0051|35=0|34=189|49=EXC|56=045|52=20190809-18:38:12.000|10=032|
8=FIX.4.4|9=61|35=0|34=188|49=045|50=045B17|52=20190808-18:37:17.195|56=EXC|10=184|
8=FIX.4.4|9=0051|35=0|34=190|49=EXC|56=045|52=20190809-18:38:42.000|10=027|
8=FIX.4.4|9=61|35=0|34=189|49=045|50=045B17|52=20190808-18:37:47.195|56=EXC|10=188|
8=FIX.4.4|9=0051|35=0|34=191|49=EXC|56=045|52=20190809-18:39:12.000|10=026|
8=FIX.4.4|9=61|35=0|34=190|49=045|50=045B17|52=20190808-18:38:17.195|56=EXC|10=178|
8=FIX.4.4|9=0051|35=0|34=192|49=EXC|56=045|52=20190809-18:39:42.000|10=030|
8=FIX.4.4|9=61|35=0|34=191|49=045|50=045B17|52=20190808-18:38:47.194|56=EXC|10=181|
8=FIX.4.4|9=0051|35=0|34=193|49=EXC|56=045|52=20190809-18:40:12.000|10=020|
8=FIX.4.4|9=61|35=0|34=192|49=045|50=045B17|52=20190808-18:39:17.194|56=EXC|10=180|
8=FIX.4.4|9=0051|35=0|34=194|49=EXC|56=045|52=20190809-18:40:42.000|10=024|
8=FIX.4.4|9=61|35=0|34=193|49=045|50=045B17|52=20190808-18:39:47.193|56=EXC|10=183|
8=FIX.4.4|9=0051|35=0|34=195|49=EXC|56=045|52=20190809-18:41:12.000|10=023|
8=FIX.4.4|9=61|35=0|34=194|49=045|50=045B17|52=20190808-18:40:17.193|56=EXC|10=173|
8=FIX.4.4|9=0051|35=0|34=196|49=EXC|56=045|52=20190809-18:41:42.000|10=027|
8=FIX.4.4|9=61|35=0|34=195|49=045|50=045B17|52=20190808-18:40:47.192|56=EXC|10=176|
8=FIX.4.4|9=0051|35=0|34=197|49=EXC|56=045|52=20190809-18:42:12.000|10=026|
8=FIX.4.4|9=61|35=0|34=196|49=045|50=045B17|52=20190808-18:41:17.192|56=EXC|10=175|
8=FIX.4.4|9=0051|35=0|34=198|49=EXC|56=045|52=20190809-18:42:42.000|10=030|
8=FIX.4.4|9=61|35=0|34=197|49=045|50=045B17|52=20190808-18:41:47.199|56=EXC|10=186|
8=FIX.4.4|9=0051|35=0|34=199|49=EXC|56=045|52=20190809-18:43:12.000|10=029|
8=FIX.4.4|9=61|35=0|34=198|49=045|50=045B17|52=20190808-18:42:17.194|56=EXC|10=180|
8=FIX.4.4|9=0051|35=0|34=200|49=EXC|56=045|52=20190809-18:43:42.000|10=015|
8=FIX.4.4|9=61|35=0|34=199|49=045|50=045B17|52=20190808-18:42:47.191|56=EXC|10=181|
8=FIX.4.4|9=0051|35=0|34=201|49=EXC|56=045|52=20190809-18:44:12.000|10=014|
8=FIX.4.4|9=61|35=0|34=200|49=045|50=045B17|52=20190808-18:43:17.191|56=EXC|10=162|
8=FIX.4.4|9=0051|35=0|34=202|49=EXC|56=045|52=20190809-18:44:42.000|10=018|
8=FIX.4.4|9=61|35=0|34=201|49=045|50=045B17|52=20190808-18:43:47.190|56=EXC|10=165|
8=FIX.4.4|9=0051|35=0|34=203|49=EXC|56=045|52=20190809-18:45:12.000|10=017|
8=FIX.4.4|9=61|35=0|34=202|49=045|50=045B17|52=20190808-18:44:17.190|56=EXC|10=164|
8=FIX.4.4|9=0051|35=0|34=204|49=EXC|56=045|52=20190809-18:45:42.000|10=021|
8=FIX.4.4|9=61|35=0|34=203|49=045|50=045B17|52=20190808-18:44:47.190|56=EXC|10=168|
8=FIX.4.4|9=0051|35=0|34=205|49=EXC|56=045|52=20190809-18:46:12.000|10=020|
8=FIX.4.4|9=61|35=0|34=204|49=045|50=045B17|52=20190808-18:45:17.193|56=EXC|10=170|
8=FIX.4.4|9=0051|35=0|34=206|49=EXC|56=045|52=20190809-18:46:42.000|10=024|
8=FIX.4.4|9=61|35=0|34=205|49=045|50=045B17|52=20190808-18:45:47.189|56=EXC|10=179|
8=FIX.4.4|9=0051|35=0|34=207|49=EXC|56=045|52=20190809-18:47:12.000|10=023|
8=FIX.4.4|9=61|35=0|34=206|49=045|50=045B17|52=20190808-18:46:17.188|56=EXC|10=177|
8=FIX.4.4|9=0051|35=0|34=208|49=EXC|56=045|52=20190809-18:47:42.000|10=027|
8=FIX.4.4|9=61|35=0|34=207|49=045|50=045B17|52=20190808-18:46:47.197|56=EXC|10=181|
8=FIX.4.4|9=0051|35=0|34=209|49=EXC|56=045|52=20190809-18:48:12.000|10=026|
8=FIX.4.4|9=61|35=0|34=208|49=045|50=045B17|52=20190808-18:47:17.200|56=EXC|10=165|
8=FIX.4.4|9=0051|35=0|34=210|49=EXC|56=045|52=20190809-18:48:42.000|10=021|
8=FIX.4.4|9=61|35=0|34=209|49=045|50=045B17|52=20190808-18:47:47.196|56=EXC|10=183|
8=FIX.4.4|9=0051|35=0|34=211|49=EXC|56=045|52=20190809-18:49:12.000|10=020|
8=FIX.4.4|9=61|35=0|34=210|49=045|50=045B17|52=20190808-18:48:17.196|56=EXC|10=173|
8=FIX.4.4|9=0051|35=0|34=212|49=EXC|56=045|52=20190809-18:49:42.000|10=024|
8=FIX.4.4|9=61|35=0|34=211|49=045|50=045B17|52=20190808-18:48:47.201|56=EXC|10=164|
8=FIX.4.4|9=0051|35=0|34=213|49=EXC|56=045|52=20190809-18:50:12.000|10=014|
8=FIX.4.4|9=61|35=0|34=212|49=045|50=045B17|52=20190808-18:49:18.191|56=EXC|10=172|
8=FIX.4.4|9=0051|35=0|34=214|49=EXC|56=045|52=20190809-18:50:42.000|10=018|
8=FIX.4.4|9=61|35=0|34=213|49=045|50=045B17|52=20190808-18:49:48.199|56=EXC|10=184|
8=FIX.4.4|9=0051|35=0|34=215|49=EXC|56=045|52=20190809-18:51:12.000|10=017|
8=FIX.4.4|9=61|35=0|34=214|49=045|50=045B17|52=20190808-18:50:18.196|56=EXC|10=171|
8=FIX.4.4|9=0051|35=0|34=216|49=EXC|56=045|52=20190809-18:51:42.000|10=021|
8=FIX.4.4|9=61|35=0|34=215|49=045|50=045B17|52=20190808-18:50:48.195|56=EXC|10=174|
8=FIX.4.4|9=0051|35=0|34=217|49=EXC|56=045|52=20190809-18:52:12.000|10=020|
8=FIX.4.4|9=61|35=0|34=216|49=045|50=045B17|52=20190808-18:51:18.196|56=EXC|10=174|
8=FIX.4.4|9=0051|35=0|34=218|49=EXC|56=045|52=20190809-18:52:42.000|10=024|
8=FIX.4.4|9=61|35=0|34=217|49=045|50=045B17|52=20190808-18:51:48.195|56=EXC|10=177|
8=FIX.4.4|9=0051|35=0|34=219|49=EXC|56=045|52=20190809-18:53:12.000|10=023|
8=FIX.4.4|9=61|35=0|34=218|49=045|50=045B17|52=20190808-18:52:18.194|56=EXC|10=175|
8=FIX.4.4|9=0051|35=0|34=220|49=EXC|56=045|52=20190809-18:53:42.000|10=018|
8=FIX.4.4|9=61|35=0|34=219|49=045|50=045B17|52=20190808-18:52:48.997|56=EXC|10=190|
8=FIX.4.4|9=0051|35=0|34=221|49=EXC|56=045|52=20190809-18:54:12.000|10=017|
8=FIX.4.4|9=61|35=0|34=220|49=045|50=045B17|52=20190808-18:53:19.194|56=EXC|10=170|
8=FIX.4.4|9=0051|35=0|34=222|49=EXC|56=045|52=20190809-18:54:42.000|10=021|
8=FIX.4.4|9=61|35=0|34=221|49=045|50=045B17|52=20190808-18:53:49.693|56=EXC|10=178|
8=FIX.4.4|9=0051|35=0|34=223|49=EXC|56=045|52=20190809-18:55:12.000|10=020|
8=FIX.4.4|9=61|35=0|34=222|49=045|50=045B17|52=20190808-18:54:20.193|56=EXC|10=164|
8=FIX.4.4|9=0051|35=0|34=224|49=EXC|56=045|52=20190809-18:55:42.000|10=024|
8=FIX.4.4|9=61|35=0|34=223|49=045|50=045B17|52=20190808-18:54:50.458|56=EXC|10=172|
8=FIX.4.4|9=0051|35=0|34=225|49=EXC|56=045|52=20190809-18:56:12.000|10=023|
8=FIX.4.4|9=61|35=0|34=224|49=045|50=045B17|52=20190808-18:55:21.192|56=EXC|10=167|
8=FIX.4.4|9=0051|35=0|34=226|49=EXC|56=045|52=20190809-18:56:42.000|10=027|
8=FIX.4.4|9=61|35=0|34=225|49=045|50=045B17|52=20190808-18:55:51.222|56=EXC|10=165|
8=FIX.4.4|9=0051|35=0|34=227|49=EXC|56=045|52=20190809-18:57:12.000|10=026|
8=FIX.4.4|9=61|35=0|34=226|49=045|50=045B17|52=20190808-18:56:22.199|56=EXC|10=178|
8=FIX.4.4|9=0051|35=0|34=228|49=EXC|56=045|52=20190809-18:57:42.000|10=030|
8=FIX.4.4|9=61|35=0|34=227|49=045|50=045B17|52=20190808-18:56:52.192|56=EXC|10=175|
8=FIX.4.4|9=0051|35=0|34=229|49=EXC|56=045|52=20190809-18:58:12.000|10=029|
8=FIX.4.4|9=61|35=0|34=228|49=045|50=045B17|52=20190808-18:57:22.198|56=EXC|10=180|
8=FIX.4.4|9=0051|35=0|34=230|49=EXC|56=045|52=20190809-18:58:42.000|10=024|
8=FIX.4.4|9=61|35=0|34=229|49=045|50=045B17|52=20190808-18:57:52.550|56=EXC|10=176|
8=FIX.4.4|9=0051|35=0|34=231|49=EXC|56=045|52=20190809-18:59:12.000|10=023|
8=FIX.4.4|9=61|35=0|34=230|49=045|50=045B17|52=20190808-18:58:23.199|56=EXC|10=176|
8=FIX.4.4|9=0051|35=0|34=232|49=EXC|56=045|52=20190809-18:59:42.000|10=027|
8=FIX.4.4|9=61|35=0|34=231|49=045|50=045B17|52=20190808-18:58:53.314|56=EXC|10=169|
8=FIX.4.4|9=0051|35=0|34=233|49=EXC|56=045|52=20190809-19:00:12.000|10=012|
8=FIX.4.4|9=61|35=0|34=232|49=045|50=045B17|52=20190808-18:59:24.189|56=EXC|10=179|
8=FIX.4.4|9=0051|35=0|34=234|49=EXC|56=045|52=20190809-19:00:42.000|10=016|
8=FIX.4.4|9=61|35=0|34=233|49=045|50=045B17|52=20190808-18:59:54.189|56=EXC|10=183|
8=FIX.4.4|9=0051|35=0|34=235|49=EXC|56=045|52=20190809-19:01:12.000|10=015|
8=FIX.4.4|9=61|35=0|34=234|49=045|50=045B17|52=20190808-19:00:24.188|56=EXC|10=167|
8=FIX.4.4|9=0051|35=0|34=236|49=EXC|56=045|52=20190809-19:01:42.000|10=019|
8=FIX.4.4|9=61|35=0|34=235|49=045|50=045B17|52=20190808-19:00:54.703|56=EXC|10=164|
8=FIX.4.4|9=0051|35=0|34=237|49=EXC|56=045|52=20190809-19:02:12.000|10=018|
8=FIX.4.4|9=61|35=0|34=236|49=045|50=045B17|52=20190808-19:01:25.194|56=EXC|10=168|
8=FIX.4.4|9=0051|35=0|34=238|49=EXC|56=045|52=20190809-19:02:42.000|10=022|
8=FIX.4.4|9=61|35=0|34=237|49=045|50=045B17|52=20190808-19:01:55.405|56=EXC|10=167|
8=FIX.4.4|9=0051|35=0|34=239|49=EXC|56=045|52=20190809-19:03:12.000|10=021|
8=FIX.4.4|9=61|35=0|34=238|49=045|50=045B17|52=20190808-19:02:26.201|56=EXC|10=161|
8=FIX.4.4|9=0051|35=0|34=240|49=EXC|56=045|52=20190809-19:03:42.000|10=016|
8=FIX.4.4|9=61|35=0|34=239|49=045|50=045B17|52=20190808-19:02:57.201|56=EXC|10=166|
8=FIX.4.4|9=0051|35=0|34=241|49=EXC|56=045|52=20190809-19:04:12.000|10=015|
8=FIX.4.4|9=61|35=0|34=240|49=045|50=045B17|52=20190808-19:03:27.200|56=EXC|10=155|
8=FIX.4.4|9=0051|35=0|34=242|49=EXC|56=045|52=20190809-19:04:42.000|10=019|
8=FIX.4.4|9=61|35=0|34=241|49=045|50=045B17|52=20190808-19:03:57.200|56=EXC|10=159|
8=FIX.4.4|9=0051|35=0|34=243|49=EXC|56=045|52=20190809-19:05:12.000|10=018|
8=FIX.4.4|9=61|35=0|34=242|49=045|50=045B17|52=20190808-19:04:27.200|56=EXC|10=158|
8=FIX.4.4|9=0051|35=0|34=244|49=EXC|56=045|52=20190809-19:05:42.000|10=022|
8=FIX.4.4|9=61|35=0|34=243|49=045|50=045B17|52=20190808-19:04:57.715|56=EXC|10=173|
8=FIX.4.4|9=0051|35=0|34=245|49=EXC|56=045|52=20190809-19:06:12.000|10=021|
8=FIX.4.4|9=61|35=0|34=244|49=045|50=045B17|52=20190808-19:05:28.200|56=EXC|10=162|
8=FIX.4.4|9=0051|35=0|34=246|49=EXC|56=045|52=20190809-19:06:42.000|10=025|
8=FIX.4.4|9=61|35=0|34=245|49=045|50=045B17|52=20190808-19:05:58.402|56=EXC|10=170|
8=FIX.4.4|9=0051|35=0|34=247|49=EXC|56=045|52=20190809-19:07:12.000|10=024|
8=FIX.4.4|9=61|35=0|34=246|49=045|50=045B17|52=20190808-19:06:29.198|56=EXC|10=182|
8=FIX.4.4|9=0051|35=0|34=248|49=EXC|56=045|52=20190809-19:07:42.000|10=028|
8=FIX.4.4|9=61|35=0|34=247|49=045|50=045B17|52=20190808-19:06:59.201|56=EXC|10=171|
8=FIX.4.4|9=0051|35=0|34=249|49=EXC|56=045|52=20190809-19:08:12.000|10=027|
8=FIX.4.4|9=61|35=0|34=248|49=045|50=045B17|52=20190808-19:07:29.201|56=EXC|10=170|
8=FIX.4.4|9=0051|35=0|34=250|49=EXC|56=045|52=20190809-19:08:42.000|10=022|
8=FIX.4.4|9=61|35=0|34=249|49=045|50=045B17|52=20190808-19:07:59.795|56=EXC|10=192|
8=FIX.4.4|9=0051|35=0|34=251|49=EXC|56=045|52=20190809-19:09:12.000|10=021|
8=FIX.4.4|9=61|35=0|34=250|49=045|50=045B17|52=20190808-19:08:30.200|56=EXC|10=155|
8=FIX.4.4|9=0051|35=0|34=252|49=EXC|56=045|52=20190809-19:09:42.000|10=025|
8=FIX.4.4|9=61|35=0|34=251|49=045|50=045B17|52=20190808-19:09:00.544|56=EXC|10=165|
8=FIX.4.4|9=0051|35=0|34=253|49=EXC|56=045|52=20190809-19:10:12.000|10=015|
8=FIX.4.4|9=61|35=0|34=252|49=045|50=045B17|52=20190808-19:09:31.200|56=EXC|10=159|
8=FIX.4.4|9=0051|35=0|34=254|49=EXC|56=045|52=20190809-19:10:42.000|10=019|
8=FIX.4.4|9=61|35=0|34=253|49=045|50=045B17|52=20190808-19:10:01.262|56=EXC|10=157|
8=FIX.4.4|9=0051|35=0|34=255|49=EXC|56=045|52=20190809-19:11:12.000|10=018|
8=FIX.4.4|9=61|35=0|34=254|49=045|50=045B17|52=20190808-19:10:32.200|56=EXC|10=154|
8=FIX.4.4|9=0051|35=0|34=256|49=EXC|56=045|52=20190809-19:11:42.000|10=022|
8=FIX.4.4|9=61|35=0|34=255|49=045|50=045B17|52=20190808-19:11:02.197|56=EXC|10=168|
8=FIX.4.4|9=0051|35=0|34=257|49=EXC|56=045|52=20190809-19:12:12.000|10=021|
8=FIX.4.4|9=61|35=0|34=256|49=045|50=045B17|52=20190808-19:11:32.198|56=EXC|10=173|
8=FIX.4.4|9=0051|35=0|34=258|49=EXC|56=045|52=20190809-19:12:42.000|10=025|
8=FIX.4.4|9=61|35=0|34=257|49=045|50=045B17|52=20190808-19:12:02.650|56=EXC|10=165|
8=FIX.4.4|9=0051|35=0|34=259|49=EXC|56=045|52=20190809-19:13:12.000|10=024|
8=FIX.4.4|9=61|35=0|34=258|49=045|50=045B17|52=20190808-19:12:33.197|56=EXC|10=176|
8=FIX.4.4|9=0051|35=0|34=260|49=EXC|56=045|52=20190809-19:13:42.000|10=019|
8=FIX.4.4|9=61|35=0|34=259|49=045|50=045B17|52=20190808-19:13:03.353|56=EXC|10=169|
8=FIX.4.4|9=0051|35=0|34=261|49=EXC|56=045|52=20190809-19:14:12.000|10=018|
8=FIX.4.4|9=61|35=0|34=260|49=045|50=045B17|52=20190808-19:13:34.196|56=EXC|10=170|
8=FIX.4.4|9=0051|35=0|34=262|49=EXC|56=045|52=20190809-19:14:42.000|10=022|
8=FIX.4.4|9=61|35=0|34=261|49=045|50=045B17|52=20190808-19:14:04.200|56=EXC|10=155|
8=FIX.4.4|9=0051|35=0|34=263|49=EXC|56=045|52=20190809-19:15:12.000|10=021|
8=FIX.4.4|9=61|35=0|34=262|49=045|50=045B17|52=20190808-19:14:34.198|56=EXC|10=175|
8=FIX.4.4|9=0051|35=0|34=264|49=EXC|56=045|52=20190809-19:15:42.000|10=025|
8=FIX.4.4|9=61|35=0|34=263|49=045|50=045B17|52=20190808-19:15:04.792|56=EXC|10=174|
8=FIX.4.4|9=0051|35=0|34=265|49=EXC|56=045|52=20190809-19:16:12.000|10=024|
8=FIX.4.4|9=61|35=0|34=264|49=045|50=045B17|52=20190808-19:15:35.199|56=EXC|10=180|
8=FIX.4.4|9=0051|35=0|34=266|49=EXC|56=045|52=20190809-19:16:42.000|10=028|
8=FIX.4.4|9=61|35=0|34=265|49=045|50=045B17|52=20190808-19:16:05.526|56=EXC|10=173|
8=FIX.4.4|9=0051|35=0|34=267|49=EXC|56=045|52=20190809-19:17:12.000|10=027|
8=FIX.4.4|9=61|35=0|34=266|49=045|50=045B17|52=20190808-19:16:36.193|56=EXC|10=178|
8=FIX.4.4|9=0051|35=0|34=268|49=EXC|56=045|52=20190809-19:17:42.000|10=031|
8=FIX.4.4|9=61|35=0|34=267|49=045|50=045B17|52=20190808-19:17:06.274|56=EXC|10=177|
8=FIX.4.4|9=0051|35=0|34=269|49=EXC|56=045|52=20190809-19:18:12.000|10=030|
8=FIX.4.4|9=61|35=0|34=268|49=045|50=045B17|52=20190808-19:17:37.197|56=EXC|10=186|
8=FIX.4.4|9=0051|35=0|34=270|49=EXC|56=045|52=20190809-19:18:42.000|10=025|
8=FIX.4.4|9=77|35=A|34=1|49=045|50=045B17|52=20190808-19:18:06.105|56=EXC|98=0|108=30|141=Y|10=155|
8=FIX.4.4|9=77|35=A|34=1|49=045|50=045B17|52=20190808-19:19:06.100|56=EXC|98=0|108=30|141=Y|10=151|
8=FIX.4.4|9=77|35=A|34=1|49=045|50=045B17|52=20190808-19:20:07.192|56=EXC|98=0|108=30|141=Y|10=155|
8=FIX.4.4|9=77|35=A|34=1|49=045|50=045B17|52=20190808-19:21:07.237|56=EXC|98=0|108=30|141=Y|10=156|
8=FIX.4.4|9=77|35=A|34=1|49=045|50=045B17|52=20190808-19:22:07.254|56=EXC|98=0|108=30|141=Y|10=156|
8=FIX.4.4|9=77|35=A|34=1|49=045|50=045B17|52=20190808-19:23:07.544|56=EXC|98=0|108=30|141=Y|10=159|
8=FIX.4.4|9=77|35=A|34=1|49=045|50=045B17|52=20190808-19:24:07.603|56=EXC|98=0|108=30|141=Y|10=156|
8=FIX.4.4|9=77|35=A|34=1|49=045|50=045B17|52=20190808-19:25:07.596|56=EXC|98=0|108=30|141=Y|10=168|
8=FIX.4.4|9=77|35=A|34=1|49=045|50=045B17|52=20190808-19:26:07.792|56=EXC|98=0|108=30|141=Y|10=167|
8=FIX.4.4|9=77|35=A|34=1|49=045|50=045B17|52=20190808-19:27:07.911|56=EXC|98=0|108=30|141=Y|10=161|
8=FIX.4.4|9=77|35=A|34=1|49=045|50=045B17|52=20190808-19:28:07.307|56=EXC|98=0|108=30|141=Y|10=161|
8=FIX.4.4|9=77|35=A|34=1|49=045|50=045B17|52=20190808-19:29:07.304|56=EXC|98=0|108=30|141=Y|10=159|
8=FIX.4.4|9=77|35=A|34=1|49=045|50=045B17|52=20190808-19:30:08.237|56=EXC|98=0|108=30|141=Y|10=157|
8=FIX.4.4|9=77|35=A|34=1|49=045|50=045B17|52=20190808-19:31:09.245|56=EXC|98=0|108=30|141=Y|10=158|
8=FIX.4.4|9=77|35=A|34=1|49=045|50=045B17|52=20190808-19:32:10.245|56=EXC|98=0|108=30|141=Y|10=151|
8=FIX.4.4|9=77|35=A|34=1|49=045|50=045B17|52=20190808-19:33:11.241|56=EXC|98=0|108=30|141=Y|10=149|
8=FIX.4.4|9=77|35=A|34=1|49=045|50=045B17|52=20190808-19:34:12.241|56=EXC|98=0|108=30|141=Y|10=151|
