8=FIX.4.4|9=153|35=R|34=1|49=007|50=007B26|52=20190610-13:39:00.484|56=EXC|131=4005250|146=1|55=TFIT15260826|22=M|762=RFQF|54=1|38=1500000000|453=1|448=DCV|447=C|452=10|10=193|