8=FIX.4.4|9=110|35=A|34=1|49=007|50=007B26|52=20190606-20:27:29.951|56=EXC|43=Y|98=0|108=30|141=Y|553=007FCE001|554=007FCE001|10=094|8=FIX.4.4|9=68|35=2|34=2|49=007|50=007B26|52=20190606-20:27:37.778|56=EXC|7=2|16=0|10=199|8=FIX.4.4|9=68|35=2|34=3|49=007|50=007B26|52=20190606-20:27:43.073|56=EXC|7=2|16=0|10=185|