8=FIX.4.4|9=110|35=A|34=1|49=007|50=007B26|52=20190530-22:09:04.507|56=EXC|43=Y|98=0|108=30|141=Y|553=007FCE001|554=007FCE001|10=082|8=FIX.4.4|9=59|35=0|34=2|49=007|50=007B26|52=20190530-22:09:35.390|56=EXC|10=059|8=FIX.4.4|9=59|35=0|34=3|49=007|50=007B26|52=20190530-22:10:06.380|56=EXC|10=049|8=FIX.4.4|9=59|35=0|34=4|49=007|50=007B26|52=20190530-22:10:36.380|56=EXC|10=053|8=FIX.4.4|9=59|35=0|34=5|49=007|50=007B26|52=20190530-22:11:06.386|56=EXC|10=058|8=FIX.4.4|9=59|35=0|34=6|49=007|50=007B26|52=20190530-22:11:36.384|56=EXC|10=060|8=FIX.4.4|9=59|35=0|34=7|49=007|50=007B26|52=20190530-22:12:06.393|56=EXC|10=059|8=FIX.4.4|9=59|35=0|34=8|49=007|50=007B26|52=20190530-22:12:37.379|56=EXC|10=068|8=FIX.4.4|9=59|35=0|34=9|49=007|50=007B26|52=20190530-22:13:07.380|56=EXC|10=059|