8=FIX.4.4|9=110|35=A|34=1|49=007|50=007B26|52=20190610-21:54:20.518|56=EXC|43=Y|98=0|108=30|141=Y|553=007FCE001|554=007FCE001|10=080|8=FIX.4.4|9=59|35=0|34=2|49=007|50=007B26|52=20190610-21:54:51.418|56=EXC|10=056|