8=FIX.4.4|9=106|35=A|34=1|49=002|50=19|52=20190509-14:27:03.642|56=EXC|43=Y|98=0|108=30|141=Y|553=010FCE003|554=010FCE003|10=121|