8=FIX.4.4|9=105|35=A|34=1|49=007|50=007B26|52=20190611-23:36:25.553|56=EXC|98=0|108=30|141=Y|553=007FCE001|554=007FCE001|10=093|8=FIX.4.4|9=162|35=R|34=2|49=007|50=007B26|52=20190611-23:36:27.981|56=EXC|131=20190611183622_R|146=1|55=TFIT15260826|22=M|762=RFQF|54=1|38=1500000000|453=1|448=DCV|447=C|452=10|10=231|8=FIX.4.4|9=59|35=0|34=3|49=007|50=007B26|52=20190611-23:36:58.506|56=EXC|10=065|8=FIX.4.4|9=59|35=0|34=4|49=007|50=007B26|52=20190611-23:37:28.512|56=EXC|10=061|