8=FIX.4.4|9=110|35=A|34=1|49=007|50=007B26|52=20190529-19:08:47.256|56=EXC|43=Y|98=0|108=30|141=Y|553=007FCE001|554=007FCE001|10=103|