8=FIX.4.4|9=105|35=A|34=1|49=007|50=007B26|52=20190619-19:28:53.267|56=EXC|98=0|108=30|141=Y|553=007FCE001|554=007FCE001|10=110|8=FIX.4.4|9=59|35=0|34=2|49=007|50=007B26|52=20190619-19:29:24.235|56=EXC|10=071|8=FIX.4.4|9=59|35=0|34=3|49=007|50=007B26|52=20190619-19:29:54.235|56=EXC|10=075|