8=FIX.4.4|9=110|35=A|34=1|49=007|50=007B26|52=20190611-15:27:04.307|56=EXC|43=Y|98=0|108=30|141=Y|553=007FCE001|554=007FCE001|10=082|8=FIX.4.4|9=59|35=0|34=2|49=007|50=007B26|52=20190611-15:27:35.205|56=EXC|10=056|8=FIX.4.4|9=59|35=0|34=3|49=007|50=007B26|52=20190611-15:28:05.206|56=EXC|10=056|8=FIX.4.4|9=59|35=0|34=4|49=007|50=007B26|52=20190611-15:28:35.206|56=EXC|10=060|8=FIX.4.4|9=59|35=0|34=5|49=007|50=007B26|52=20190611-15:29:05.206|56=EXC|10=059|