8=FIX.4.4|9=110|35=A|34=1|49=007|50=007B26|52=20190627-15:02:34.053|56=EXC|43=Y|98=0|108=30|141=Y|553=007FCE001|554=007FCE001|10=083|8=FIX.4.4|9=59|35=0|34=2|49=007|50=007B26|52=20190627-15:03:04.994|56=EXC|10=068|8=FIX.4.4|9=59|35=0|34=3|49=007|50=007B26|52=20190627-15:03:34.994|56=EXC|10=072|8=FIX.4.4|9=59|35=0|34=4|49=007|50=007B26|52=20190627-15:04:04.994|56=EXC|10=071|8=FIX.4.4|9=59|35=0|34=5|49=007|50=007B26|52=20190627-15:04:34.994|56=EXC|10=075|8=FIX.4.4|9=59|35=0|34=6|49=007|50=007B26|52=20190627-15:05:04.993|56=EXC|10=073|8=FIX.4.4|9=59|35=0|34=7|49=007|50=007B26|52=20190627-15:05:34.995|56=EXC|10=079|8=FIX.4.4|9=59|35=0|34=8|49=007|50=007B26|52=20190627-15:06:04.994|56=EXC|10=077|8=FIX.4.4|9=59|35=0|34=9|49=007|50=007B26|52=20190627-15:06:34.994|56=EXC|10=081|8=FIX.4.4|9=60|35=0|34=10|49=007|50=007B26|52=20190627-15:07:04.995|56=EXC|10=112|8=FIX.4.4|9=164|35=R|34=11|49=007|50=007B26|52=20190627-15:07:18.659|56=EXC|131=201906271002316_R|146=1|55=TFIT15260826|22=M|762=RFQF|54=1|38=1500000000|453=1|448=DCV|447=C|452=10|10=079|8=FIX.4.4|9=60|35=0|34=12|49=007|50=007B26|52=20190627-15:07:48.994|56=EXC|10=121|8=FIX.4.4|9=60|35=0|34=13|49=007|50=007B26|52=20190627-15:08:18.994|56=EXC|10=120|8=FIX.4.4|9=149|35=AJ|34=14|49=007|50=007B26|52=20190627-15:08:30.967|56=EXC|54=1|55=TFIT15260826|117=20190627-000000000037.00|693=201906271002316_AJ|694=1|762=RFQF|10=178|8=FIX.4.4|9=60|35=0|34=15|49=007|50=007B26|52=20190627-15:09:00.994|56=EXC|10=114|8=FIX.4.4|9=60|35=5|34=16|49=007|50=007B26|52=20190627-15:09:02.787|56=EXC|10=122|