8=FIX.4.4|9=105|35=A|34=1|49=007|50=007B26|52=20190618-13:33:12.076|56=EXC|98=0|108=30|141=Y|553=007FCE001|554=007FCE001|10=092|8=FIX.4.4|9=59|35=0|34=2|49=007|50=007B26|52=20190618-13:33:43.055|56=EXC|10=060|8=FIX.4.4|9=59|35=0|34=3|49=007|50=007B26|52=20190618-13:34:13.054|56=EXC|10=058|8=FIX.4.4|9=59|35=0|34=4|49=007|50=007B26|52=20190618-13:34:43.054|56=EXC|10=062|8=FIX.4.4|9=59|35=0|34=5|49=007|50=007B26|52=20190618-13:35:13.054|56=EXC|10=061|8=FIX.4.4|9=59|35=0|34=6|49=007|50=007B26|52=20190618-13:35:43.054|56=EXC|10=065|8=FIX.4.4|9=59|35=0|34=7|49=007|50=007B26|52=20190618-13:36:13.053|56=EXC|10=063|8=FIX.4.4|9=59|35=0|34=8|49=007|50=007B26|52=20190618-13:36:43.053|56=EXC|10=067|