8=FIX.4.4|9=105|35=A|34=1|49=007|50=007B26|52=20190621-14:20:46.147|56=EXC|98=0|108=30|141=Y|553=007FCE001|554=007FCE001|10=089|8=FIX.4.4|9=59|35=0|34=2|49=007|50=007B26|52=20190621-14:21:17.111|56=EXC|10=046|8=FIX.4.4|9=59|35=0|34=3|49=007|50=007B26|52=20190621-14:21:47.111|56=EXC|10=050|8=FIX.4.4|9=59|35=0|34=4|49=007|50=007B26|52=20190621-14:22:17.110|56=EXC|10=048|8=FIX.4.4|9=59|35=0|34=5|49=007|50=007B26|52=20190621-14:22:47.110|56=EXC|10=052|8=FIX.4.4|9=59|35=0|34=6|49=007|50=007B26|52=20190621-14:23:17.117|56=EXC|10=058|8=FIX.4.4|9=59|35=0|34=7|49=007|50=007B26|52=20190621-14:23:47.111|56=EXC|10=056|8=FIX.4.4|9=59|35=0|34=8|49=007|50=007B26|52=20190621-14:24:17.110|56=EXC|10=054|8=FIX.4.4|9=59|35=0|34=9|49=007|50=007B26|52=20190621-14:24:47.111|56=EXC|10=059|8=FIX.4.4|9=163|35=R|34=10|49=007|50=007B26|52=20190621-14:25:10.148|56=EXC|131=20190621920436_R|146=1|55=TFIT15260826|22=M|762=RFQF|54=1|38=1500000000|453=1|448=DCV|447=C|452=10|10=012|8=FIX.4.4|9=60|35=0|34=11|49=007|50=007B26|52=20190621-14:25:41.110|56=EXC|10=086|8=FIX.4.4|9=60|35=0|34=12|49=007|50=007B26|52=20190621-14:26:11.111|56=EXC|10=086|8=FIX.4.4|9=148|35=AJ|34=13|49=007|50=007B26|52=20190621-14:26:18.321|56=EXC|54=1|55=TFIT15260826|117=20190621-000000000006.00|693=20190621920436_AJ|694=1|762=RFQF|10=106|8=FIX.4.4|9=60|35=0|34=14|49=007|50=007B26|52=20190621-14:26:49.111|56=EXC|10=099|8=FIX.4.4|9=60|35=0|34=15|49=007|50=007B26|52=20190621-14:27:19.110|56=EXC|10=097|8=FIX.4.4|9=178|35=R|34=16|49=007|50=007B26|52=20190621-14:27:36.200|56=EXC|131=20190621920439_R|146=1|55=TFIT16280428|22=M|762=RFQF|54=1|38=0|453=2|448=DCV|447=C|452=10|448=010BWN|447=C|452=37|10=031|8=FIX.4.4|9=211|35=R|34=17|49=007|50=007B26|52=20190621-14:27:49.665|56=EXC|131=201906219204310_R|146=1|55=TFIT16240724|22=M|762=RFQF|54=2|38=500000000|453=3|448=002B35|447=C|452=37|448=DCV|447=C|452=10|448=010BWN|447=C|452=37|10=078|8=FIX.4.4|9=60|35=0|34=18|49=007|50=007B26|52=20190621-14:28:20.111|56=EXC|10=094|8=FIX.4.4|9=211|35=R|34=19|49=007|50=007B26|52=20190621-14:28:29.284|56=EXC|131=201906219204311_R|146=1|55=TFIC14280426|22=M|762=RFQF|54=2|38=1000000000|453=3|448=007B26|447=C|452=12|448=007|447=C|452=1|448=002B37|447=C|452=37|10=183|8=FIX.4.4|9=60|35=0|34=20|49=007|50=007B26|52=20190621-14:29:00.110|56=EXC|10=085|8=FIX.4.4|9=60|35=0|34=21|49=007|50=007B26|52=20190621-14:29:30.110|56=EXC|10=089|