8=FIX.4.4|9=110|35=A|34=1|49=007|50=007B26|52=20190529-22:55:38.407|56=EXC|43=Y|98=0|108=30|141=Y|553=007FCE001|554=007FCE001|10=097|8=FIX.4.4|9=59|35=0|34=2|49=007|50=007B26|52=20190529-22:56:09.099|56=EXC|10=076|8=FIX.4.4|9=59|35=0|34=3|49=007|50=007B26|52=20190529-22:56:39.102|56=EXC|10=065|8=FIX.4.4|9=59|35=0|34=4|49=007|50=007B26|52=20190529-22:57:09.099|56=EXC|10=079|8=FIX.4.4|9=59|35=0|34=5|49=007|50=007B26|52=20190529-22:57:39.100|56=EXC|10=066|