8=FIX.4.4|9=110|35=A|34=1|49=002|50=002B37|52=20190527-20:58:46.192|56=EXC|43=Y|98=0|108=30|141=Y|553=010FCE003|554=010FCE003|10=080|