8=FIX.4.4|9=82|35=A|34=1|49=002|50=002B37|52=20190509-14:09:37.981|56=EXC|43=Y|98=0|108=30|141=Y|10=146|