8=FIX.4.4|9=105|35=A|34=1|49=007|50=007B26|52=20190612-13:44:28.328|56=EXC|98=0|108=30|141=Y|553=007FCE001|554=007FCE001|10=095|8=FIX.4.4|9=59|35=0|34=2|49=007|50=007B26|52=20190612-13:44:59.296|56=EXC|10=070|