8=FIX.4.4|9=78|35=A|34=1|49=002|50=19|52=20190527-20:57:09.975|56=EXC|43=Y|98=0|108=30|141=Y|10=197|