8=FIX.4.4|9=110|35=A|34=1|49=051|50=051B17|52=20190719-15:37:21.403|56=EXC|43=N|98=0|108=30|141=Y|553=051FCM001|554=051FCM001|10=089|8=FIX.4.4|9=59|35=0|34=2|49=051|50=051B17|52=20190719-15:37:52.065|56=EXC|10=067|8=FIX.4.4|9=59|35=0|34=3|49=051|50=051B17|52=20190719-15:38:22.064|56=EXC|10=065|8=FIX.4.4|9=59|35=0|34=4|49=051|50=051B17|52=20190719-15:38:52.064|56=EXC|10=069|8=FIX.4.4|9=59|35=0|34=5|49=051|50=051B17|52=20190719-15:39:22.543|56=EXC|10=070|8=FIX.4.4|9=59|35=0|34=6|49=051|50=051B17|52=20190719-15:39:53.062|56=EXC|10=071|8=FIX.4.4|9=59|35=0|34=7|49=051|50=051B17|52=20190719-15:40:23.062|56=EXC|10=061|8=FIX.4.4|9=169|35=S|34=8|49=051|50=051B17|52=20190719-15:40:32.857|56=EXC|1=RT001|55=T24U19F|62=20190718-14:30:01.000|117=201907191037166_S|131=20190719-000000000005.00|135=0|762=AFIR|10=122|8=FIX.4.4|9=59|35=0|34=9|49=051|50=051B17|52=20190719-15:41:03.065|56=EXC|10=065|8=FIX.4.4|9=60|35=0|34=10|49=051|50=051B17|52=20190719-15:41:33.064|56=EXC|10=099|8=FIX.4.4|9=60|35=0|34=11|49=051|50=051B17|52=20190719-15:42:03.061|56=EXC|10=095|8=FIX.4.4|9=60|35=0|34=12|49=051|50=051B17|52=20190719-15:42:33.069|56=EXC|10=107|8=FIX.4.4|9=60|35=5|34=13|49=051|50=051B17|52=20190719-15:42:54.064|56=EXC|10=111|