8=FIX.4.4|9=105|35=A|34=1|49=010|50=010BWN|52=20190614-20:07:40.064|56=EXC|98=0|108=30|141=Y|553=010FCE003|554=010FCE003|10=126|8=FIX.4.4|9=59|35=0|34=2|49=010|50=010BWN|52=20190614-20:08:11.020|56=EXC|10=092|8=FIX.4.4|9=59|35=0|34=3|49=010|50=010BWN|52=20190614-20:08:41.020|56=EXC|10=096|