8=FIX.4.4|9=105|35=A|34=1|49=010|50=010BWN|52=20190621-14:20:46.189|56=EXC|98=0|108=30|141=Y|553=010FCE003|554=010FCE003|10=136|8=FIX.4.4|9=59|35=0|34=2|49=010|50=010BWN|52=20190621-14:21:17.130|56=EXC|10=096|8=FIX.4.4|9=59|35=0|34=3|49=010|50=010BWN|52=20190621-14:21:47.130|56=EXC|10=100|8=FIX.4.4|9=59|35=0|34=4|49=010|50=010BWN|52=20190621-14:22:17.130|56=EXC|10=099|8=FIX.4.4|9=59|35=0|34=5|49=010|50=010BWN|52=20190621-14:22:47.129|56=EXC|10=111|8=FIX.4.4|9=59|35=0|34=6|49=010|50=010BWN|52=20190621-14:23:17.130|56=EXC|10=102|8=FIX.4.4|9=59|35=0|34=7|49=010|50=010BWN|52=20190621-14:23:47.129|56=EXC|10=114|8=FIX.4.4|9=59|35=0|34=8|49=010|50=010BWN|52=20190621-14:24:17.129|56=EXC|10=113|8=FIX.4.4|9=59|35=0|34=9|49=010|50=010BWN|52=20190621-14:24:47.130|56=EXC|10=109|8=FIX.4.4|9=60|35=0|34=10|49=010|50=010BWN|52=20190621-14:25:17.130|56=EXC|10=139|8=FIX.4.4|9=60|35=0|34=11|49=010|50=010BWN|52=20190621-14:25:47.130|56=EXC|10=143|8=FIX.4.4|9=60|35=0|34=12|49=010|50=010BWN|52=20190621-14:26:17.128|56=EXC|10=149|8=FIX.4.4|9=60|35=0|34=13|49=010|50=010BWN|52=20190621-14:26:47.128|56=EXC|10=153|8=FIX.4.4|9=60|35=0|34=14|49=010|50=010BWN|52=20190621-14:27:17.128|56=EXC|10=152|8=FIX.4.4|9=60|35=0|34=15|49=010|50=010BWN|52=20190621-14:27:47.129|56=EXC|10=157|8=FIX.4.4|9=60|35=0|34=16|49=010|50=010BWN|52=20190621-14:28:17.129|56=EXC|10=156|8=FIX.4.4|9=60|35=0|34=17|49=010|50=010BWN|52=20190621-14:28:47.129|56=EXC|10=160|8=FIX.4.4|9=60|35=0|34=18|49=010|50=010BWN|52=20190621-14:29:17.129|56=EXC|10=159|