8=FIX.4.4|9=110|35=A|34=1|49=010|50=010BWN|52=20190606-20:27:30.422|56=EXC|43=Y|98=0|108=30|141=Y|553=010FCE003|554=010FCE003|10=120|8=FIX.4.4|9=68|35=2|34=2|49=010|50=010BWN|52=20190606-20:27:37.860|56=EXC|7=2|16=0|10=240|8=FIX.4.4|9=68|35=2|34=3|49=010|50=010BWN|52=20190606-20:27:43.104|56=EXC|7=2|16=0|10=229|