8=FIX.4.4|9=105|35=A|34=1|49=010|50=010BWN|52=20190618-21:23:15.344|56=EXC|98=0|108=30|141=Y|553=010FCE003|554=010FCE003|10=132|8=FIX.4.4|9=59|35=0|34=2|49=010|50=010BWN|52=20190618-21:23:46.272|56=EXC|10=111|8=FIX.4.4|9=59|35=0|34=3|49=010|50=010BWN|52=20190618-21:24:16.272|56=EXC|10=110|