8=FIX.4.4|9=105|35=A|34=1|49=010|50=010BWN|52=20190613-22:28:49.375|56=EXC|98=0|108=30|141=Y|553=010FCE003|554=010FCE003|10=144|