8=FIX.4.4|9=110|35=A|34=1|49=010|50=010BWN|52=20190607-17:00:19.893|56=EXC|43=Y|98=0|108=30|141=Y|553=010FCE003|554=010FCE003|10=137|8=FIX.4.4|9=59|35=0|34=2|49=010|50=010BWN|52=20190607-17:00:50.869|56=EXC|10=116|8=FIX.4.4|9=68|35=2|34=3|49=010|50=010BWN|52=20190607-17:00:52.011|56=EXC|7=2|16=0|10=224|