8=FIX.4.4|9=105|35=A|34=1|49=010|50=010BWN|52=20190618-13:33:12.112|56=EXC|98=0|108=30|141=Y|553=010FCE003|554=010FCE003|10=124|8=FIX.4.4|9=59|35=0|34=2|49=010|50=010BWN|52=20190618-13:33:43.079|56=EXC|10=115|8=FIX.4.4|9=59|35=0|34=3|49=010|50=010BWN|52=20190618-13:34:13.081|56=EXC|10=107|8=FIX.4.4|9=59|35=0|34=4|49=010|50=010BWN|52=20190618-13:34:43.080|56=EXC|10=110|8=FIX.4.4|9=59|35=0|34=5|49=010|50=010BWN|52=20190618-13:35:13.079|56=EXC|10=117|8=FIX.4.4|9=59|35=0|34=6|49=010|50=010BWN|52=20190618-13:35:43.079|56=EXC|10=121|8=FIX.4.4|9=59|35=0|34=7|49=010|50=010BWN|52=20190618-13:36:13.079|56=EXC|10=120|8=FIX.4.4|9=59|35=0|34=8|49=010|50=010BWN|52=20190618-13:36:43.079|56=EXC|10=124|