8=FIX.4.4|9=105|35=A|34=1|49=010|50=010BWN|52=20190612-14:58:56.755|56=EXC|98=0|108=30|141=Y|553=010FCE003|554=010FCE003|10=147|8=FIX.4.4|9=59|35=0|34=2|49=010|50=010BWN|52=20190612-14:59:27.702|56=EXC|10=113|8=FIX.4.4|9=59|35=0|34=3|49=010|50=010BWN|52=20190612-14:59:57.694|56=EXC|10=127|8=FIX.4.4|9=59|35=0|34=4|49=010|50=010BWN|52=20190612-15:00:27.700|56=EXC|10=100|8=FIX.4.4|9=59|35=0|34=5|49=010|50=010BWN|52=20190612-15:00:57.696|56=EXC|10=118|