8=FIX.4.4|9=105|35=A|34=1|49=010|50=010BWN|52=20190617-22:02:40.764|56=EXC|98=0|108=30|141=Y|553=010FCE003|554=010FCE003|10=133|8=FIX.4.4|9=59|35=0|34=2|49=010|50=010BWN|52=20190617-22:03:11.741|56=EXC|10=102|