8=FIX.4.4|9=105|35=A|34=1|49=010|50=010BWN|52=20190619-19:28:53.314|56=EXC|98=0|108=30|141=Y|553=010FCE003|554=010FCE003|10=144|8=FIX.4.4|9=59|35=0|34=2|49=010|50=010BWN|52=20190619-19:29:24.262|56=EXC|10=120|8=FIX.4.4|9=59|35=0|34=3|49=010|50=010BWN|52=20190619-19:29:54.261|56=EXC|10=123|