8=FIX.4.4|9=110|35=A|34=1|49=010|50=010BWN|52=20190703-19:49:02.668|56=EXC|43=Y|98=0|108=30|141=Y|553=010FCE003|554=010FCE003|10=141|8=FIX.4.4|9=59|35=0|34=2|49=010|50=010BWN|52=20190703-19:49:33.539|56=EXC|10=123|8=FIX.4.4|9=59|35=0|34=3|49=010|50=010BWN|52=20190703-19:50:03.539|56=EXC|10=113|8=FIX.4.4|9=59|35=5|34=4|49=010|50=010BWN|52=20190703-19:50:22.544|56=EXC|10=116|