8=FIX.4.4|9=110|35=A|34=1|49=010|50=010BWN|52=20190606-20:52:00.583|56=EXC|43=Y|98=0|108=30|141=Y|553=010FCE003|554=010FCE003|10=123|