8=FIX.4.4|9=105|35=A|34=1|49=010|50=010BWN|52=20190625-15:58:17.389|56=EXC|98=0|108=30|141=Y|553=010FCE003|554=010FCE003|10=152|8=FIX.4.4|9=59|35=0|34=2|49=010|50=010BWN|52=20190625-15:58:48.306|56=EXC|10=120|8=FIX.4.4|9=59|35=0|34=3|49=010|50=010BWN|52=20190625-15:59:18.306|56=EXC|10=119|8=FIX.4.4|9=59|35=0|34=4|49=010|50=010BWN|52=20190625-15:59:48.306|56=EXC|10=123|8=FIX.4.4|9=59|35=0|34=5|49=010|50=010BWN|52=20190625-16:00:18.305|56=EXC|10=107|8=FIX.4.4|9=59|35=0|34=6|49=010|50=010BWN|52=20190625-16:00:48.304|56=EXC|10=110|8=FIX.4.4|9=59|35=0|34=7|49=010|50=010BWN|52=20190625-16:01:18.305|56=EXC|10=110|8=FIX.4.4|9=59|35=0|34=8|49=010|50=010BWN|52=20190625-16:01:48.305|56=EXC|10=114|8=FIX.4.4|9=59|35=0|34=9|49=010|50=010BWN|52=20190625-16:02:18.306|56=EXC|10=114|8=FIX.4.4|9=60|35=0|34=10|49=010|50=010BWN|52=20190625-16:02:48.305|56=EXC|10=148|8=FIX.4.4|9=60|35=0|34=11|49=010|50=010BWN|52=20190625-16:03:18.306|56=EXC|10=148|8=FIX.4.4|9=60|35=0|34=12|49=010|50=010BWN|52=20190625-16:03:48.305|56=EXC|10=151|8=FIX.4.4|9=60|35=0|34=13|49=010|50=010BWN|52=20190625-16:04:18.305|56=EXC|10=150|8=FIX.4.4|9=60|35=0|34=14|49=010|50=010BWN|52=20190625-16:04:48.306|56=EXC|10=155|8=FIX.4.4|9=60|35=0|34=15|49=010|50=010BWN|52=20190625-16:05:18.304|56=EXC|10=152|8=FIX.4.4|9=60|35=0|34=16|49=010|50=010BWN|52=20190625-16:05:48.305|56=EXC|10=157|8=FIX.4.4|9=60|35=5|34=17|49=010|50=010BWN|52=20190625-16:06:06.306|56=EXC|10=159|