8=FIX.4.4|9=110|35=A|34=1|49=010|50=010BWN|52=20190627-15:02:34.089|56=EXC|43=Y|98=0|108=30|141=Y|553=010FCE003|554=010FCE003|10=133|8=FIX.4.4|9=59|35=0|34=2|49=010|50=010BWN|52=20190627-15:03:05.022|56=EXC|10=100|8=FIX.4.4|9=59|35=0|34=3|49=010|50=010BWN|52=20190627-15:03:35.022|56=EXC|10=104|8=FIX.4.4|9=59|35=0|34=4|49=010|50=010BWN|52=20190627-15:04:05.022|56=EXC|10=103|8=FIX.4.4|9=59|35=0|34=5|49=010|50=010BWN|52=20190627-15:04:35.022|56=EXC|10=107|8=FIX.4.4|9=59|35=0|34=6|49=010|50=010BWN|52=20190627-15:05:05.022|56=EXC|10=106|8=FIX.4.4|9=59|35=0|34=7|49=010|50=010BWN|52=20190627-15:05:35.021|56=EXC|10=109|8=FIX.4.4|9=59|35=0|34=8|49=010|50=010BWN|52=20190627-15:06:05.022|56=EXC|10=109|8=FIX.4.4|9=59|35=0|34=9|49=010|50=010BWN|52=20190627-15:06:35.021|56=EXC|10=112|8=FIX.4.4|9=60|35=0|34=10|49=010|50=010BWN|52=20190627-15:07:05.021|56=EXC|10=142|8=FIX.4.4|9=60|35=0|34=11|49=010|50=010BWN|52=20190627-15:07:35.021|56=EXC|10=146|8=FIX.4.4|9=60|35=0|34=12|49=010|50=010BWN|52=20190627-15:08:05.022|56=EXC|10=146|8=FIX.4.4|9=60|35=0|34=13|49=010|50=010BWN|52=20190627-15:08:35.021|56=EXC|10=149|8=FIX.4.4|9=60|35=5|34=14|49=010|50=010BWN|52=20190627-15:09:03.021|56=EXC|10=151|