8=FIX.4.4|9=110|35=A|34=1|49=045|50=045B17|52=20190719-15:37:21.309|56=EXC|43=N|98=0|108=30|141=Y|553=045FCM001|554=045FCM001|10=106|8=FIX.4.4|9=59|35=0|34=2|49=045|50=045B17|52=20190719-15:37:51.862|56=EXC|10=077|8=FIX.4.4|9=59|35=0|34=3|49=045|50=045B17|52=20190719-15:38:22.001|56=EXC|10=062|8=FIX.4.4|9=59|35=0|34=4|49=045|50=045B17|52=20190719-15:38:52.865|56=EXC|10=084|8=FIX.4.4|9=59|35=0|34=5|49=045|50=045B17|52=20190719-15:39:22.858|56=EXC|10=085|8=FIX.4.4|9=158|35=R|34=6|49=045|50=045B17|52=20190719-15:39:37.628|56=EXC|131=201907191037164_R|146=1|55=   |22=M|762=AFIR|54=1|38=200|1=RP001|453=1|448=051B17|447=C|452=37|10=113|8=FIX.4.4|9=161|35=R|34=7|49=045|50=045B17|52=20190719-15:39:52.687|56=EXC|131=201907191037165_R|146=1|55=CPIH17F|22=M|762=AFIR|54=1|38=90|1=RP001|453=1|448=051B17|447=C|452=37|10=184|8=FIX.4.4|9=162|35=R|34=8|49=045|50=045B17|52=20190719-15:40:12.755|56=EXC|131=201907191037166_R|146=1|55=T24U19F|22=M|762=AFIR|54=1|38=110|1=RP001|453=1|448=051B17|447=C|452=37|10=193|8=FIX.4.4|9=59|35=0|34=9|49=045|50=045B17|52=20190719-15:40:42.860|56=EXC|10=076|8=FIX.4.4|9=161|35=R|34=10|49=045|50=045B17|52=20190719-15:40:47.905|56=EXC|131=201907191037167_R|146=1|55=T24U19F|22=M|762=AFIR|54=1|38=0|1=RP001|453=1|448=051B17|447=C|452=37|10=141|8=FIX.4.4|9=60|35=0|34=11|49=045|50=045B17|52=20190719-15:41:18.859|56=EXC|10=121|8=FIX.4.4|9=60|35=0|34=12|49=045|50=045B17|52=20190719-15:41:48.851|56=EXC|10=117|8=FIX.4.4|9=187|35=R|34=13|49=045|50=045B17|52=20190719-15:42:03.190|56=EXC|131=2019071910371610_R|146=1|55=T24U19F|22=M|762=AFIR|54=1|38=15|1=RP001|453=2|448=051B17|447=C|452=37|448=037B18|447=C|452=37|10=117|8=FIX.4.4|9=186|35=R|34=14|49=045|50=045B17|52=20190719-15:42:23.275|56=EXC|131=2019071910371610_R|146=1|55=T24U19F|22=M|762=AFIR|54=1|38=0|1=RP001|453=2|448=051B17|447=C|452=37|448=037B18|447=C|452=37|10=069|8=FIX.4.4|9=60|35=5|34=15|49=045|50=045B17|52=20190719-15:42:53.861|56=EXC|10=123|8=FIX.4.4|9=60|35=5|34=16|49=045|50=045B17|52=20190719-15:42:53.861|56=EXC|10=124|