8=FIX.4.4|9=110|35=A|34=1|49=002|50=002B35|52=20190612-14:48:35.229|56=EXC|43=Y|98=0|108=30|141=Y|553=002FCM001|554=002FCM001|10=088|8=FIX.4.4|9=199|35=S|34=2|49=002|50=002B35|52=20190612-14:48:53.595|56=EXC|55=TFIT16280428|62=20190617-22:00:00.000|117=60112624|131=20190612-000000000025.00|135=1000000000|634=3|762=RFQF|453=1|448=DCV|447=C|452=10|10=159|8=FIX.4.4|9=78|35=Z|34=3|49=002|50=002B35|52=20190612-14:49:14.564|56=EXC|117=60112624|298=5|10=230|