8=FIX.4.4|9=110|35=A|34=1|49=002|50=002B35|52=20190528-23:30:32.265|56=EXC|43=Y|98=0|108=30|141=Y|553=002FCM001|554=002FCM001|10=082|8=FIX.4.4|9=59|35=0|34=2|49=002|50=002B35|52=20190528-23:31:03.197|56=EXC|10=052|