8=FIX.4.4|9=110|35=A|34=1|49=002|50=002B35|52=20190611-21:21:34.657|56=EXC|43=Y|98=0|108=30|141=Y|553=002FCM001|554=002FCM001|10=080|8=FIX.4.4|9=198|35=S|34=2|49=002|50=002B35|52=20190611-21:21:53.085|56=EXC|55=TFIC13280425|62=20190617-22:00:00.000|117=65622338|131=20190611-000000000097.00|135=500000000|634=4|762=RFQF|453=1|448=DCV|447=C|452=10|10=095|8=FIX.4.4|9=68|35=2|34=3|49=002|50=002B35|52=20190611-21:22:13.870|56=EXC|7=2|16=0|10=169|