8=FIX.4.4|9=110|35=A|34=1|49=002|50=002B35|52=20190531-16:53:15.174|56=EXC|43=Y|98=0|108=30|141=Y|553=002FCM001|554=002FCM001|10=083|8=FIX.4.4|9=59|35=0|34=2|49=002|50=002B35|52=20190531-16:53:46.085|56=EXC|10=055|8=0|108=30|553=002FCM001|554=002FCM001|10=039|8=FIX.4.4|9=198|35=S|34=3|49=002|50=002B35|52=20190531-16:53:46.029|56=EXC|55=TFIC13280425|62=20190617-22:00:00.000|117=34674025|131=20190531-000000000052.00|135=500000000|634=4|762=RFQF|453=1|448=DCV|447=C|452=10|10=094|8=FIX.4.4|9=68|35=2|34=4|49=002|50=002B35|52=20190531-16:53:46.093|56=EXC|7=3|16=0|10=183|8=FIX.4.4|9=104|35=A|34=5|49=002|50=002B35|52=20190531-16:53:57.203|56=EXC|43=Y|98=0|108=30|553=002FCM001|554=002FCM001|10=044|