8=FIX.4.4|9=110|35=A|34=1|49=002|50=002B35|52=20190529-22:55:38.343|56=EXC|43=Y|98=0|108=30|141=Y|553=002FCM001|554=002FCM001|10=092|8=FIX.4.4|9=59|35=0|34=2|49=002|50=002B35|52=20190529-22:56:09.074|56=EXC|10=059|8=FIX.4.4|9=68|35=2|34=3|49=002|50=002B35|52=20190529-22:56:11.796|56=EXC|7=2|16=0|10=190|8=FIX.4.4|9=59|35=0|34=4|49=002|50=002B35|52=20190529-22:56:42.075|56=EXC|10=059|8=FIX.4.4|9=59|35=0|34=5|49=002|50=002B35|52=20190529-22:57:12.074|56=EXC|10=057|8=FIX.4.4|9=59|35=0|34=6|49=002|50=002B35|52=20190529-22:57:42.079|56=EXC|10=066|