8=FIX.4.4|9=110|35=A|34=1|49=002|50=002B35|52=20190531-21:16:32.266|56=EXC|43=Y|98=0|108=30|141=Y|553=002FCM001|554=002FCM001|10=079|8=FIX.4.4|9=59|35=0|34=2|49=002|50=002B35|52=20190531-21:17:03.133|56=EXC|10=038|8=0|108=30|553=002FCM001|554=002FCM001|10=043|8=FIX.4.4|9=198|35=S|34=3|49=002|50=002B35|52=20190531-21:17:13.125|56=EXC|55=TFIC13280425|62=20190617-22:00:00.000|117=40441802|131=20190531-000000000062.00|135=500000000|634=4|762=RFQF|453=1|448=DCV|447=C|452=10|10=074|8=FIX.4.4|9=68|35=2|34=4|49=002|50=002B35|52=20190531-21:17:13.227|56=EXC|7=3|16=0|10=172|8=FIX.4.4|9=104|35=A|34=5|49=002|50=002B35|52=20190531-21:17:19.311|56=EXC|43=Y|98=0|108=30|553=002FCM001|554=002FCM001|10=038|8=FIX.4.4|9=104|35=A|34=6|49=002|50=002B35|52=20190531-21:17:33.165|56=EXC|43=Y|98=0|108=30|553=002FCM001|554=002FCM001|10=042|8=FIX.4.4|9=104|35=A|34=7|49=002|50=002B35|52=20190531-21:17:44.761|56=EXC|43=Y|98=0|108=30|553=002FCM001|554=002FCM001|10=047|8=FIX.4.4|9=68|35=2|34=8|49=002|50=002B35|52=20190531-21:18:14.588|56=EXC|7=6|16=0|10=191|8=FIX.4.4|9=104|35=A|34=9|49=002|50=002B35|52=20190531-21:18:20.301|56=EXC|43=Y|98=0|108=30|553=002FCM001|554=002FCM001|10=034|8=FIX.4.4|9=105|35=A|34=10|49=002|50=002B35|52=20190531-21:18:34.198|56=EXC|43=Y|98=0|108=30|553=002FCM001|554=002FCM001|10=094|8=FIX.4.4|9=105|35=A|34=11|49=002|50=002B35|52=20190531-21:18:45.762|56=EXC|43=Y|98=0|108=30|553=002FCM001|554=002FCM001|10=094|8=FIX.4.4|9=60|35=0|34=12|49=002|50=002B35|52=20190531-21:19:16.752|56=EXC|10=092|8=FIX.4.4|9=105|35=A|34=13|49=002|50=002B35|52=20190531-21:19:21.321|56=EXC|43=Y|98=0|108=30|553=002FCM001|554=002FCM001|10=082|8=FIX.4.4|9=105|35=A|34=14|49=002|50=002B35|52=20190531-21:19:35.198|56=EXC|43=Y|98=0|108=30|553=002FCM001|554=002FCM001|10=100|8=FIX.4.4|9=105|35=A|34=15|49=002|50=002B35|52=20190531-21:19:46.780|56=EXC|43=Y|98=0|108=30|553=002FCM001|554=002FCM001|10=100|8=FIX.4.4|9=60|35=0|34=16|49=002|50=002B35|52=20190531-21:20:17.753|56=EXC|10=090|8=FIX.4.4|9=105|35=A|34=17|49=002|50=002B35|52=20190531-21:20:22.320|56=EXC|43=Y|98=0|108=30|553=002FCM001|554=002FCM001|10=078|8=FIX.4.4|9=105|35=A|34=18|49=002|50=002B35|52=20190531-21:20:36.193|56=EXC|43=Y|98=0|108=30|553=002FCM001|554=002FCM001|10=092|8=FIX.4.4|9=105|35=A|34=19|49=002|50=002B35|52=20190531-21:20:47.774|56=EXC|43=Y|98=0|108=30|553=002FCM001|554=002FCM001|10=100|8=FIX.4.4|9=60|35=0|34=20|49=002|50=002B35|52=20190531-21:21:18.752|56=EXC|10=086|8=FIX.4.4|9=105|35=A|34=21|49=002|50=002B35|52=20190531-21:21:23.387|56=EXC|43=Y|98=0|108=30|553=002FCM001|554=002FCM001|10=088|8=FIX.4.4|9=105|35=A|34=22|49=002|50=002B35|52=20190531-21:21:37.186|56=EXC|43=Y|98=0|108=30|553=002FCM001|554=002FCM001|10=091|8=FIX.4.4|9=105|35=A|34=23|49=002|50=002B35|52=20190531-21:21:48.809|56=EXC|43=Y|98=0|108=30|553=002FCM001|554=002FCM001|10=096|