8=FIX.4.4|9=110|35=A|34=1|49=002|50=002B35|52=20190605-19:18:39.072|56=EXC|43=Y|98=0|108=30|141=Y|553=002FCM001|554=002FCM001|10=092|8=FIX.4.4|9=198|35=S|34=2|49=002|50=002B35|52=20190605-19:18:49.695|56=EXC|55=TFIC13280425|62=20190617-22:00:00.000|117=41161956|131=20190605-000000000047.00|135=500000000|634=4|762=RFQF|453=1|448=DCV|447=C|452=10|10=119|8=FIX.4.4|9=59|35=0|34=3|49=002|50=002B35|52=20190605-19:19:20.467|56=EXC|10=059|8=FIX.4.4|9=59|35=0|34=4|49=002|50=002B35|52=20190605-19:19:50.467|56=EXC|10=063|8=FIX.4.4|9=59|35=0|34=5|49=002|50=002B35|52=20190605-19:20:20.467|56=EXC|10=053|8=FIX.4.4|9=59|35=0|34=6|49=002|50=002B35|52=20190605-19:20:50.468|56=EXC|10=058|8=FIX.4.4|9=59|35=0|34=7|49=002|50=002B35|52=20190605-19:21:20.468|56=EXC|10=057|8=FIX.4.4|9=59|35=0|34=8|49=002|50=002B35|52=20190605-19:21:50.467|56=EXC|10=060|8=FIX.4.4|9=59|35=0|34=9|49=002|50=002B35|52=20190605-19:22:20.468|56=EXC|10=060|8=FIX.4.4|9=60|35=0|34=10|49=002|50=002B35|52=20190605-19:22:50.469|56=EXC|10=096|8=FIX.4.4|9=60|35=0|34=11|49=002|50=002B35|52=20190605-19:23:20.469|56=EXC|10=095|8=FIX.4.4|9=60|35=0|34=12|49=002|50=002B35|52=20190605-19:23:50.468|56=EXC|10=098|8=FIX.4.4|9=60|35=0|34=13|49=002|50=002B35|52=20190605-19:24:20.468|56=EXC|10=097|8=FIX.4.4|9=60|35=0|34=14|49=002|50=002B35|52=20190605-19:24:50.469|56=EXC|10=102|8=FIX.4.4|9=60|35=0|34=15|49=002|50=002B35|52=20190605-19:25:20.467|56=EXC|10=099|8=FIX.4.4|9=60|35=0|34=16|49=002|50=002B35|52=20190605-19:25:50.468|56=EXC|10=104|8=FIX.4.4|9=60|35=0|34=17|49=002|50=002B35|52=20190605-19:26:20.469|56=EXC|10=104|8=FIX.4.4|9=60|35=0|34=18|49=002|50=002B35|52=20190605-19:26:50.467|56=EXC|10=106|8=FIX.4.4|9=60|35=0|34=19|49=002|50=002B35|52=20190605-19:27:20.467|56=EXC|10=105|8=FIX.4.4|9=60|35=0|34=20|49=002|50=002B35|52=20190605-19:27:50.467|56=EXC|10=100|8=FIX.4.4|9=60|35=0|34=21|49=002|50=002B35|52=20190605-19:28:20.467|56=EXC|10=099|8=FIX.4.4|9=60|35=0|34=22|49=002|50=002B35|52=20190605-19:28:50.468|56=EXC|10=104|8=FIX.4.4|9=60|35=0|34=23|49=002|50=002B35|52=20190605-19:29:20.467|56=EXC|10=102|8=FIX.4.4|9=60|35=0|34=24|49=002|50=002B35|52=20190605-19:29:50.467|56=EXC|10=106|