8=FIX.4.4|9=110|35=A|34=1|49=002|50=002B35|52=20190530-21:09:35.487|56=EXC|43=Y|98=0|108=30|141=Y|553=002FCM001|554=002FCM001|10=088|8=FIX.4.4|9=59|35=0|34=2|49=002|50=002B35|52=20190530-21:10:06.289|56=EXC|10=045|8=0|108=30|553=002FCM001|554=002FCM001|10=044|8=FIX.4.4|9=198|35=S|34=3|49=002|50=002B35|52=20190530-21:10:14.284|56=EXC|55=TFIC13280425|62=20190530-22:00:00.000|117=71916300|131=20190530-000000000052.00|135=500000000|634=4|762=RFQF|453=1|448=DCV|447=C|452=10|10=069|8=FIX.4.4|9=68|35=2|34=4|49=002|50=002B35|52=20190530-21:10:14.400|56=EXC|7=3|16=0|10=158|8=FIX.4.4|9=104|35=A|34=5|49=002|50=002B35|52=20190530-21:10:17.858|56=EXC|43=Y|98=0|108=30|553=002FCM001|554=002FCM001|10=044|8=FIX.4.4|9=68|35=2|34=6|49=002|50=002B35|52=20190530-21:10:33.262|56=EXC|7=5|16=0|10=169|8=FIX.4.4|9=104|35=A|34=7|49=002|50=002B35|52=20190530-21:10:36.382|56=EXC|43=Y|98=0|108=30|553=002FCM001|554=002FCM001|10=039|8=FIX.4.4|9=104|35=A|34=8|49=002|50=002B35|52=20190530-21:10:49.471|56=EXC|43=Y|98=0|108=30|553=002FCM001|554=002FCM001|10=043|