8=FIX.4.4|9=110|35=A|34=1|49=002|50=002B35|52=20190525-16:45:27.747|56=EXC|43=Y|98=0|108=30|141=Y|553=002FCM001|554=002FCM001|10=096|8=FIX.4.4|9=198|35=S|34=2|49=002|50=002B35|52=20190525-16:45:43.837|56=EXC|55=TFIC13280425|62=20190530-22:00:00.000|117=14790081|131=20190527-000000000007.00|135=500000000|634=4|762=RFQF|453=1|448=DCV|447=C|452=10|10=099|8=FIX.4.4|9=59|35=0|34=3|49=002|50=002B35|52=20190525-16:46:14.606|56=EXC|10=055|