8=FIX.4.4|9=105|35=A|34=1|49=002|50=002B35|52=20190618-21:23:15.272|56=EXC|98=0|108=30|141=Y|553=002FCM001|554=002FCM001|10=087|8=FIX.4.4|9=208|35=S|34=2|49=002|50=002B35|52=20190618-21:23:44.032|56=EXC|55=TFIT06110919|62=20190830-22:00:00.000|117=201906181623125_S|131=20190618-000000000027.00|135=1000000000|634=2|762=RFQF|453=1|448=DCV|447=C|452=10|10=160|8=FIX.4.4|9=59|35=0|34=3|49=002|50=002B35|52=20190618-21:24:14.184|56=EXC|10=051|