8=FIX.4.4|9=110|35=A|34=1|49=002|50=002B35|52=20190530-17:27:42.173|56=EXC|43=Y|98=0|108=30|141=Y|553=002FCM001|554=002FCM001|10=083|8=FIX.4.4|9=198|35=S|34=2|49=002|50=002B35|52=20190530-17:28:03.953|56=EXC|55=TFIC13280425|62=20190530-22:00:00.000|117=36532786|131=20190530-000000000026.00|135=500000000|634=4|762=RFQF|453=1|448=DCV|447=C|452=10|10=097|8=FIX.4.4|9=59|35=0|34=3|49=002|50=002B35|52=20190530-17:28:34.129|56=EXC|10=054|