8=FIX.4.4|9=110|35=A|34=1|49=002|50=002B35|52=20190703-19:49:02.574|56=EXC|43=Y|98=0|108=30|141=Y|553=002FCM001|554=002FCM001|10=092|8=FIX.4.4|9=219|35=S|34=2|49=002|50=002B35|52=20190703-19:49:30.247|56=EXC|55=TFIC13280425|62=20190830-22:00:00.000|117=201907031448591_S|131=20190703-000000000013.00|134=0|135=500000000|632=0|634=3|762=RFQF|453=1|448=DCV|447=C|452=10|10=125|8=FIX.4.4|9=59|35=0|34=3|49=002|50=002B35|52=20190703-19:50:00.408|56=EXC|10=046|8=FIX.4.4|9=59|35=5|34=4|49=002|50=002B35|52=20190703-19:50:22.294|56=EXC|10=059|