8=FIX.4.4|9=106|35=A|34=1|49=002|50=18|52=20190509-20:37:01.261|56=EXC|43=Y|98=0|108=30|141=Y|553=002FCM001|554=002FCM001|10=127|8=FIX.4.4|9=55|35=0|34=2|49=002|50=18|52=20190509-20:37:31.844|56=EXC|10=095|8=FIX.4.4|9=55|35=0|34=3|49=002|50=18|52=20190509-20:38:01.844|56=EXC|10=094|8=FIX.4.4|9=55|35=0|34=4|49=002|50=18|52=20190509-20:38:31.845|56=EXC|10=099|8=FIX.4.4|9=55|35=0|34=5|49=002|50=18|52=20190509-20:39:01.843|56=EXC|10=096|8=FIX.4.4|9=55|35=0|34=6|49=002|50=18|52=20190509-20:39:31.843|56=EXC|10=100|8=FIX.4.4|9=55|35=0|34=7|49=002|50=18|52=20190509-20:40:01.844|56=EXC|10=091|8=FIX.4.4|9=55|35=0|34=8|49=002|50=18|52=20190509-20:40:31.845|56=EXC|10=096|8=FIX.4.4|9=55|35=0|34=9|49=002|50=18|52=20190509-20:41:01.843|56=EXC|10=093|8=FIX.4.4|9=56|35=0|34=10|49=002|50=18|52=20190509-20:41:31.843|56=EXC|10=137|8=FIX.4.4|9=56|35=0|34=11|49=002|50=18|52=20190509-20:42:01.844|56=EXC|10=137|8=FIX.4.4|9=56|35=0|34=12|49=002|50=18|52=20190509-20:42:31.844|56=EXC|10=141|8=FIX.4.4|9=56|35=0|34=13|49=002|50=18|52=20190509-20:43:01.844|56=EXC|10=140|8=FIX.4.4|9=56|35=0|34=14|49=002|50=18|52=20190509-20:43:31.844|56=EXC|10=144|8=FIX.4.4|9=56|35=0|34=15|49=002|50=18|52=20190509-20:44:01.855|56=EXC|10=145|8=FIX.4.4|9=56|35=0|34=16|49=002|50=18|52=20190509-20:44:32.843|56=EXC|10=147|8=FIX.4.4|9=56|35=0|34=17|49=002|50=18|52=20190509-20:45:02.844|56=EXC|10=147|8=FIX.4.4|9=56|35=0|34=18|49=002|50=18|52=20190509-20:45:32.844|56=EXC|10=151|8=FIX.4.4|9=56|35=0|34=19|49=002|50=18|52=20190509-20:46:02.845|56=EXC|10=151|