8=FIX.4.4|9=110|35=A|34=1|49=002|50=002B35|52=20190531-16:58:03.993|56=EXC|43=Y|98=0|108=30|141=Y|553=002FCM001|554=002FCM001|10=094|8=FIX.4.4|9=59|35=0|34=2|49=002|50=002B35|52=20190531-16:58:34.932|56=EXC|10=058|8=0|108=30|553=002FCM001|554=002FCM001|10=053|8=FIX.4.4|9=198|35=S|34=3|49=002|50=002B35|52=20190531-16:58:44.591|56=EXC|55=TFIC13280425|62=20190617-22:00:00.000|117=41900917|131=20190531-000000000054.00|135=500000000|634=4|762=RFQF|453=1|448=DCV|447=C|452=10|10=103|8=FIX.4.4|9=68|35=2|34=4|49=002|50=002B35|52=20190531-16:58:44.626|56=EXC|7=3|16=0|10=188|8=FIX.4.4|9=104|35=A|34=5|49=002|50=002B35|52=20190531-16:58:50.689|56=EXC|43=Y|98=0|108=30|553=002FCM001|554=002FCM001|10=060|8=FIX.4.4|9=104|35=A|34=6|49=002|50=002B35|52=20190531-16:59:04.999|56=EXC|43=Y|98=0|108=30|553=002FCM001|554=002FCM001|10=065|8=FIX.4.4|9=104|35=A|34=7|49=002|50=002B35|52=20190531-16:59:16.514|56=EXC|43=Y|98=0|108=30|553=002FCM001|554=002FCM001|10=052|8=FIX.4.4|9=68|35=2|34=8|49=002|50=002B35|52=20190531-16:59:46.128|56=EXC|7=6|16=0|10=195|8=FIX.4.4|9=104|35=A|34=9|49=002|50=002B35|52=20190531-16:59:51.705|56=EXC|43=Y|98=0|108=30|553=002FCM001|554=002FCM001|10=055|8=FIX.4.4|9=105|35=A|34=10|49=002|50=002B35|52=20190531-17:00:05.977|56=EXC|43=Y|98=0|108=30|553=002FCM001|554=002FCM001|10=093|8=FIX.4.4|9=105|35=A|34=11|49=002|50=002B35|52=20190531-17:00:17.539|56=EXC|43=Y|98=0|108=30|553=002FCM001|554=002FCM001|10=091|8=FIX.4.4|9=60|35=0|34=12|49=002|50=002B35|52=20190531-17:00:48.471|56=EXC|10=090|8=FIX.4.4|9=105|35=A|34=13|49=002|50=002B35|52=20190531-17:00:52.698|56=EXC|43=Y|98=0|108=30|553=002FCM001|554=002FCM001|10=098|8=FIX.4.4|9=105|35=A|34=14|49=002|50=002B35|52=20190531-17:01:06.959|56=EXC|43=Y|98=0|108=30|553=002FCM001|554=002FCM001|10=099|8=FIX.4.4|9=105|35=A|34=15|49=002|50=002B35|52=20190531-17:01:18.531|56=EXC|43=Y|98=0|108=30|553=002FCM001|554=002FCM001|10=089|8=FIX.4.4|9=60|35=0|34=16|49=002|50=002B35|52=20190531-17:01:49.471|56=EXC|10=096|8=FIX.4.4|9=105|35=A|34=17|49=002|50=002B35|52=20190531-17:01:53.702|56=EXC|43=Y|98=0|108=30|553=002FCM001|554=002FCM001|10=090|8=FIX.4.4|9=105|35=A|34=18|49=002|50=002B35|52=20190531-17:02:07.976|56=EXC|43=Y|98=0|108=30|553=002FCM001|554=002FCM001|10=104|8=FIX.4.4|9=105|35=A|34=19|49=002|50=002B35|52=20190531-17:02:19.516|56=EXC|43=Y|98=0|108=30|553=002FCM001|554=002FCM001|10=098|8=FIX.4.4|9=60|35=0|34=20|49=002|50=002B35|52=20190531-17:02:50.471|56=EXC|10=084|8=FIX.4.4|9=105|35=A|34=21|49=002|50=002B35|52=20190531-17:02:54.718|56=EXC|43=Y|98=0|108=30|553=002FCM001|554=002FCM001|10=094|8=FIX.4.4|9=105|35=A|34=22|49=002|50=002B35|52=20190531-17:03:08.948|56=EXC|43=Y|98=0|108=30|553=002FCM001|554=002FCM001|10=100|8=FIX.4.4|9=105|35=A|34=23|49=002|50=002B35|52=20190531-17:03:20.526|56=EXC|43=Y|98=0|108=30|553=002FCM001|554=002FCM001|10=087|