8=FIX.4.4|9=110|35=A|34=1|49=002|50=002B35|52=20190528-23:49:03.907|56=EXC|43=Y|98=0|108=30|141=Y|553=002FCM001|554=002FCM001|10=093|8=FIX.4.4|9=59|35=0|34=2|49=002|50=002B35|52=20190528-23:49:34.846|56=EXC|10=066|8=FIX.4.4|9=68|35=2|34=3|49=002|50=002B35|52=20190528-23:49:42.684|56=EXC|7=2|16=0|10=192|8=FIX.4.4|9=68|35=2|34=4|49=002|50=002B35|52=20190528-23:49:49.734|56=EXC|7=2|16=0|10=196|