8=FIX.4.4|9=110|35=A|34=1|49=002|50=002B35|52=20190530-16:39:03.870|56=EXC|43=Y|98=0|108=30|141=Y|553=002FCM001|554=002FCM001|10=086|8=FIX.4.4|9=59|35=0|34=2|49=002|50=002B35|52=20190530-16:39:34.801|56=EXC|10=051|8=0|108=30|553=002FCM001|554=002FCM001|10=044|8=FIX.4.4|9=198|35=S|34=3|49=002|50=002B35|52=20190530-16:39:46.610|56=EXC|55=TFIC13280425|62=20190530-22:00:00.000|117=75405133|131=20190530-000000000019.00|135=500000000|634=4|762=RFQF|453=1|448=DCV|447=C|452=10|10=086|8=FIX.4.4|9=68|35=2|34=4|49=002|50=002B35|52=20190530-16:39:46.643|56=EXC|7=3|16=0|10=187|8=FIX.4.4|9=104|35=A|34=5|49=002|50=002B35|52=20190530-16:39:47.754|56=EXC|43=Y|98=0|108=30|553=002FCM001|554=002FCM001|10=057|