8=FIX.4.4|9=110|35=A|34=1|49=037|50=037B18|52=20190719-15:37:21.356|56=EXC|43=N|98=0|108=30|141=Y|553=037FCM001|554=037FCM001|10=113|8=FIX.4.4|9=180|35=S|34=2|49=037|50=037B18|52=20190719-15:37:47.355|56=EXC|1=RT001|55=T24U19F|62=20190830-22:00:00.000|117=201907191037161_S|131=20190719-000000000002.00|133=1000|135=100|762=AFIR|10=096|8=FIX.4.4|9=59|35=0|34=3|49=037|50=037B18|52=20190719-15:38:17.880|56=EXC|10=084|8=FIX.4.4|9=186|35=S|34=4|49=037|50=037B18|52=20190719-15:38:32.499|56=EXC|1=RT001|55=T24U19F|62=20190830-22:00:00.000|117=201907191037162_S|131=20190719-000000000003.00|133=1500|134=100|135=0|762=AFIR|10=121|8=FIX.4.4|9=59|35=0|34=5|49=037|50=037B18|52=20190719-15:39:02.870|56=EXC|10=080|8=FIX.4.4|9=180|35=S|34=6|49=037|50=037B18|52=20190719-15:39:17.602|56=EXC|1=RT001|55=T24U19F|62=20190830-22:00:00.000|117=201907191037163_S|131=20190719-000000000004.00|133=1230|135=150|762=AFIR|10=108|8=FIX.4.4|9=59|35=0|34=7|49=037|50=037B18|52=20190719-15:39:47.875|56=EXC|10=096|8=FIX.4.4|9=59|35=0|34=8|49=037|50=037B18|52=20190719-15:40:18.874|56=EXC|10=086|8=FIX.4.4|9=59|35=0|34=9|49=037|50=037B18|52=20190719-15:40:48.874|56=EXC|10=090|8=FIX.4.4|9=60|35=0|34=10|49=037|50=037B18|52=20190719-15:41:18.878|56=EXC|10=124|8=FIX.4.4|9=60|35=0|34=11|49=037|50=037B18|52=20190719-15:41:48.882|56=EXC|10=123|8=FIX.4.4|9=60|35=0|34=12|49=037|50=037B18|52=20190719-15:42:18.881|56=EXC|10=121|8=FIX.4.4|9=60|35=0|34=13|49=037|50=037B18|52=20190719-15:42:48.879|56=EXC|10=132|8=FIX.4.4|9=60|35=5|34=14|49=037|50=037B18|52=20190719-15:42:53.455|56=EXC|10=124|