8=FIX.4.4|9=110|35=A|34=1|49=051|50=051B17|52=20190805-18:42:55.799|56=EXC|43=N|98=0|108=30|141=Y|553=051FCM001|554=051FCM001|10=109|