8=FIX.4.4|9=110|35=A|34=1|49=051|50=051B17|52=20190726-15:54:34.734|56=EXC|43=N|98=0|108=30|141=Y|553=051FCM001|554=051FCM001|10=097|8=FIX.4.4|9=59|35=5|34=2|49=051|50=051B17|52=20190726-15:55:01.548|56=EXC|10=070|