8=FIX.4.4|9=110|35=A|34=1|49=051|50=051B17|52=20190801-13:53:57.806|56=EXC|43=N|98=0|108=30|141=Y|553=051FCM001|554=051FCM001|10=093|8=FIX.4.4|9=59|35=0|34=2|49=051|50=051B17|52=20190801-13:54:28.475|56=EXC|10=064|8=FIX.4.4|9=59|35=0|34=3|49=051|50=051B17|52=20190801-13:54:58.568|56=EXC|10=071|8=FIX.4.4|9=59|35=0|34=4|49=051|50=051B17|52=20190801-13:55:29.476|56=EXC|10=069|8=FIX.4.4|9=59|35=0|34=5|49=051|50=051B17|52=20190801-13:55:59.471|56=EXC|10=068|8=FIX.4.4|9=59|35=0|34=6|49=051|50=051B17|52=20190801-13:56:29.472|56=EXC|10=068|8=FIX.4.4|9=59|35=0|34=7|49=051|50=051B17|52=20190801-13:56:59.864|56=EXC|10=077|8=FIX.4.4|9=59|35=0|34=8|49=051|50=051B17|52=20190801-13:57:30.470|56=EXC|10=061|8=FIX.4.4|9=59|35=0|34=9|49=051|50=051B17|52=20190801-13:58:00.503|56=EXC|10=057|8=FIX.4.4|9=170|35=S|34=10|49=051|50=051B17|52=20190801-13:58:24.779|56=EXC|1=RT001|55=T24U19F|62=20190725-17:17:08.000|117=201908010853536_S|131=20190801-000000000004.00|135=0|762=AFIR|10=160|8=FIX.4.4|9=60|35=0|34=11|49=051|50=051B17|52=20190801-13:58:55.471|56=EXC|10=104|8=FIX.4.4|9=60|35=0|34=12|49=051|50=051B17|52=20190801-13:59:25.466|56=EXC|10=107|8=FIX.4.4|9=60|35=0|34=13|49=051|50=051B17|52=20190801-13:59:55.466|56=EXC|10=111|8=FIX.4.4|9=60|35=0|34=14|49=051|50=051B17|52=20190801-14:00:25.478|56=EXC|10=099|8=FIX.4.4|9=60|35=5|34=15|49=051|50=051B17|52=20190801-14:00:55.472|56=EXC|10=102|