8=FIX.4.4|9=110|35=A|34=1|49=051|50=051B17|52=20190724-16:28:05.408|56=EXC|43=N|98=0|108=30|141=Y|553=051FCM001|554=051FCM001|10=093|8=FIX.4.4|9=59|35=0|34=2|49=051|50=051B17|52=20190724-16:28:36.063|56=EXC|10=064|8=FIX.4.4|9=59|35=0|34=3|49=051|50=051B17|52=20190724-16:29:06.062|56=EXC|10=062|8=FIX.4.4|9=59|35=0|34=4|49=051|50=051B17|52=20190724-16:29:36.064|56=EXC|10=068|8=FIX.4.4|9=59|35=0|34=5|49=051|50=051B17|52=20190724-16:30:06.071|56=EXC|10=056|8=FIX.4.4|9=59|35=0|34=6|49=051|50=051B17|52=20190724-16:30:36.062|56=EXC|10=060|8=FIX.4.4|9=59|35=0|34=7|49=051|50=051B17|52=20190724-16:31:06.918|56=EXC|10=069|8=FIX.4.4|9=59|35=0|34=8|49=051|50=051B17|52=20190724-16:31:37.069|56=EXC|10=071|8=FIX.4.4|9=169|35=S|34=9|49=051|50=051B17|52=20190724-16:32:07.246|56=EXC|1=RT001|55=T24U19F|62=20190723-16:07:35.000|117=201907241128016_S|131=20190724-000000000014.00|135=0|762=AFIR|10=111|8=FIX.4.4|9=60|35=0|34=10|49=051|50=051B17|52=20190724-16:32:38.069|56=EXC|10=106|8=FIX.4.4|9=60|35=0|34=11|49=051|50=051B17|52=20190724-16:33:08.348|56=EXC|10=105|8=FIX.4.4|9=60|35=0|34=12|49=051|50=051B17|52=20190724-16:33:39.066|56=EXC|10=107|8=FIX.4.4|9=60|35=0|34=13|49=051|50=051B17|52=20190724-16:34:09.166|56=EXC|10=107|8=FIX.4.4|9=60|35=5|34=14|49=051|50=051B17|52=20190724-16:34:33.068|56=EXC|10=111|8=FIX.4.4|9=60|35=5|34=15|49=051|50=051B17|52=20190724-16:34:33.083|56=EXC|10=109|