8=FIX.4.4|9=110|35=A|34=1|49=051|50=051B17|52=20190731-20:39:27.864|56=EXC|43=N|98=0|108=30|141=Y|553=051FCM001|554=051FCM001|10=098|8=FIX.4.4|9=59|35=0|34=2|49=051|50=051B17|52=20190731-20:39:58.573|56=EXC|10=069|8=FIX.4.4|9=59|35=0|34=3|49=051|50=051B17|52=20190731-20:40:28.634|56=EXC|10=057|8=FIX.4.4|9=59|35=0|34=4|49=051|50=051B17|52=20190731-20:40:59.576|56=EXC|10=067|8=FIX.4.4|9=59|35=0|34=5|49=051|50=051B17|52=20190731-20:41:29.573|56=EXC|10=063|8=FIX.4.4|9=59|35=0|34=6|49=051|50=051B17|52=20190731-20:41:59.576|56=EXC|10=070|8=FIX.4.4|9=59|35=0|34=7|49=051|50=051B17|52=20190731-20:42:30.060|56=EXC|10=049|8=FIX.4.4|9=59|35=0|34=8|49=051|50=051B17|52=20190731-20:43:00.566|56=EXC|10=059|8=FIX.4.4|9=59|35=0|34=9|49=051|50=051B17|52=20190731-20:43:30.727|56=EXC|10=062|8=FIX.4.4|9=170|35=S|34=10|49=051|50=051B17|52=20190731-20:43:49.622|56=EXC|1=RT001|55=T24U19F|62=20190725-17:17:08.000|117=201907311539236_S|131=20190731-000000000014.00|135=0|762=AFIR|10=152|8=FIX.4.4|9=60|35=0|34=11|49=051|50=051B17|52=20190731-20:44:20.570|56=EXC|10=091|8=FIX.4.4|9=60|35=0|34=12|49=051|50=051B17|52=20190731-20:44:50.569|56=EXC|10=103|8=FIX.4.4|9=60|35=0|34=13|49=051|50=051B17|52=20190731-20:45:20.570|56=EXC|10=094|8=FIX.4.4|9=60|35=0|34=14|49=051|50=051B17|52=20190731-20:45:50.571|56=EXC|10=099|8=FIX.4.4|9=60|35=5|34=15|49=051|50=051B17|52=20190731-20:46:15.554|56=EXC|10=108|