8=FIX.4.4|9=110|35=A|34=1|49=051|50=051B17|52=20190726-20:19:51.566|56=EXC|43=N|98=0|108=30|141=Y|553=051FCM001|554=051FCM001|10=096|8=FIX.4.4|9=59|35=0|34=2|49=051|50=051B17|52=20190726-20:20:22.257|56=EXC|10=053|8=FIX.4.4|9=59|35=0|34=3|49=051|50=051B17|52=20190726-20:20:52.318|56=EXC|10=055|8=FIX.4.4|9=59|35=0|34=4|49=051|50=051B17|52=20190726-20:21:23.258|56=EXC|10=058|8=FIX.4.4|9=59|35=0|34=5|49=051|50=051B17|52=20190726-20:21:53.258|56=EXC|10=062|8=FIX.4.4|9=59|35=0|34=6|49=051|50=051B17|52=20190726-20:22:23.266|56=EXC|10=060|8=FIX.4.4|9=59|35=0|34=7|49=051|50=051B17|52=20190726-20:22:53.584|56=EXC|10=067|8=FIX.4.4|9=59|35=0|34=8|49=051|50=051B17|52=20190726-20:23:24.256|56=EXC|10=063|8=FIX.4.4|9=59|35=0|34=9|49=051|50=051B17|52=20190726-20:23:54.318|56=EXC|10=066|8=FIX.4.4|9=60|35=0|34=10|49=051|50=051B17|52=20190726-20:24:25.258|56=EXC|10=100|8=FIX.4.4|9=60|35=5|34=11|49=051|50=051B17|52=20190726-20:24:29.261|56=EXC|10=104|