8=FIX.4.4|9=110|35=A|34=1|49=045|50=045B17|52=20190724-16:28:05.268|56=EXC|43=N|98=0|108=30|141=Y|553=045FCM001|554=045FCM001|10=109|8=FIX.4.4|9=59|35=0|34=2|49=045|50=045B17|52=20190724-16:28:36.027|56=EXC|10=070|8=FIX.4.4|9=59|35=0|34=3|49=045|50=045B17|52=20190724-16:29:06.023|56=EXC|10=065|8=FIX.4.4|9=59|35=0|34=4|49=045|50=045B17|52=20190724-16:29:36.026|56=EXC|10=072|8=FIX.4.4|9=59|35=0|34=5|49=045|50=045B17|52=20190724-16:30:06.021|56=EXC|10=057|8=FIX.4.4|9=59|35=0|34=6|49=045|50=045B17|52=20190724-16:30:36.021|56=EXC|10=061|8=FIX.4.4|9=59|35=0|34=7|49=045|50=045B17|52=20190724-16:31:06.915|56=EXC|10=072|8=FIX.4.4|9=158|35=R|34=8|49=045|50=045B17|52=20190724-16:31:12.032|56=EXC|131=201907241128014_R|146=1|55=   |22=M|762=AFIR|54=1|38=200|1=RP001|453=1|448=051B17|447=C|452=37|10=077|8=FIX.4.4|9=161|35=R|34=9|49=045|50=045B17|52=20190724-16:31:27.107|56=EXC|131=201907241128015_R|146=1|55=CPIH17F|22=M|762=AFIR|54=1|38=90|1=RP001|453=1|448=051B17|447=C|452=37|10=155|8=FIX.4.4|9=163|35=R|34=10|49=045|50=045B17|52=20190724-16:31:47.151|56=EXC|131=201907241128016_R|146=1|55=T24U19F|22=M|762=AFIR|54=1|38=110|1=RP001|453=1|448=051B17|447=C|452=37|10=221|8=FIX.4.4|9=60|35=0|34=11|49=045|50=045B17|52=20190724-16:32:18.019|56=EXC|10=106|8=FIX.4.4|9=161|35=R|34=12|49=045|50=045B17|52=20190724-16:32:27.295|56=EXC|131=201907241128017_R|146=1|55=T24U19F|22=M|762=AFIR|54=1|38=0|1=RP001|453=1|448=051B17|447=C|452=37|10=132|8=FIX.4.4|9=60|35=0|34=13|49=045|50=045B17|52=20190724-16:32:58.019|56=EXC|10=112|8=FIX.4.4|9=60|35=0|34=14|49=045|50=045B17|52=20190724-16:33:28.022|56=EXC|10=105|8=FIX.4.4|9=187|35=R|34=15|49=045|50=045B17|52=20190724-16:33:42.610|56=EXC|131=2019072411280110_R|146=1|55=T24U19F|22=M|762=AFIR|54=1|38=15|1=RP001|453=2|448=051B17|447=C|452=37|448=037B18|447=C|452=37|10=107|8=FIX.4.4|9=186|35=R|34=16|49=045|50=045B17|52=20190724-16:34:02.670|56=EXC|131=2019072411280110_R|146=1|55=T24U19F|22=M|762=AFIR|54=1|38=0|1=RP001|453=2|448=051B17|447=C|452=37|448=037B18|447=C|452=37|10=056|8=FIX.4.4|9=60|35=5|34=17|49=045|50=045B17|52=20190724-16:34:33.021|56=EXC|10=109|8=FIX.4.4|9=60|35=5|34=18|49=045|50=045B17|52=20190724-16:34:33.021|56=EXC|10=110|