8=FIX.4.4|9=110|35=A|34=1|49=045|50=045B17|52=20190801-13:53:57.775|56=EXC|43=N|98=0|108=30|141=Y|553=045FCM001|554=045FCM001|10=110|8=FIX.4.4|9=59|35=0|34=2|49=045|50=045B17|52=20190801-13:54:28.347|56=EXC|10=068|8=FIX.4.4|9=59|35=0|34=3|49=045|50=045B17|52=20190801-13:54:58.564|56=EXC|10=073|8=FIX.4.4|9=59|35=0|34=4|49=045|50=045B17|52=20190801-13:55:29.351|56=EXC|10=067|8=FIX.4.4|9=59|35=0|34=5|49=045|50=045B17|52=20190801-13:55:59.346|56=EXC|10=075|8=FIX.4.4|9=59|35=0|34=6|49=045|50=045B17|52=20190801-13:56:29.344|56=EXC|10=072|8=FIX.4.4|9=59|35=0|34=7|49=045|50=045B17|52=20190801-13:56:59.864|56=EXC|10=083|8=FIX.4.4|9=158|35=R|34=8|49=045|50=045B17|52=20190801-13:57:29.627|56=EXC|131=201908010853534_R|146=1|55=   |22=M|762=AFIR|54=1|38=200|1=RP001|453=1|448=051B17|447=C|452=37|10=103|8=FIX.4.4|9=161|35=R|34=9|49=045|50=045B17|52=20190801-13:57:44.667|56=EXC|131=201908010853535_R|146=1|55=CPIH17F|22=M|762=AFIR|54=1|38=90|1=RP001|453=1|448=051B17|447=C|452=37|10=173|8=FIX.4.4|9=163|35=R|34=10|49=045|50=045B17|52=20190801-13:58:04.733|56=EXC|131=201908010853536_R|146=1|55=T24U19F|22=M|762=AFIR|54=1|38=110|1=RP001|453=1|448=051B17|447=C|452=37|10=229|8=FIX.4.4|9=60|35=0|34=11|49=045|50=045B17|52=20190801-13:58:35.348|56=EXC|10=111|8=FIX.4.4|9=161|35=R|34=12|49=045|50=045B17|52=20190801-13:58:44.823|56=EXC|131=201908010853537_R|146=1|55=T24U19F|22=M|762=AFIR|54=1|38=0|1=RP001|453=1|448=051B17|447=C|452=37|10=136|8=FIX.4.4|9=60|35=0|34=13|49=045|50=045B17|52=20190801-13:59:15.342|56=EXC|10=106|8=FIX.4.4|9=60|35=0|34=14|49=045|50=045B17|52=20190801-13:59:45.341|56=EXC|10=109|8=FIX.4.4|9=187|35=R|34=15|49=045|50=045B17|52=20190801-13:59:59.987|56=EXC|131=2019080108535310_R|146=1|55=T24U19F|22=M|762=AFIR|54=1|38=15|1=RP001|453=2|448=051B17|447=C|452=37|448=037B18|447=C|452=37|10=140|8=FIX.4.4|9=186|35=R|34=16|49=045|50=045B17|52=20190801-14:00:25.009|56=EXC|131=2019080108535310_R|146=1|55=T24U19F|22=M|762=AFIR|54=1|38=0|1=RP001|453=2|448=051B17|447=C|452=37|448=037B18|447=C|452=37|10=051|8=FIX.4.4|9=60|35=5|34=17|49=045|50=045B17|52=20190801-14:00:55.347|56=EXC|10=111|