8=FIX.4.4|9=110|35=A|34=1|49=045|50=045B17|52=20190726-15:54:34.672|56=EXC|43=N|98=0|108=30|141=Y|553=045FCM001|554=045FCM001|10=110|8=FIX.4.4|9=158|35=R|34=2|49=045|50=045B17|52=20190726-15:54:40.659|56=EXC|131=201907261054304_R|146=1|55=   |22=M|762=AFIR|54=1|38=200|1=RP001|453=1|448=051B17|447=C|452=37|10=095|8=FIX.4.4|9=59|35=5|34=3|49=045|50=045B17|52=20190726-15:55:00.814|56=EXC|10=072|