8=FIX.4.4|9=110|35=A|34=1|49=045|50=045B17|52=20190726-20:19:51.457|56=EXC|43=N|98=0|108=30|141=Y|553=045FCM001|554=045FCM001|10=107|8=FIX.4.4|9=59|35=0|34=2|49=045|50=045B17|52=20190726-20:20:22.194|56=EXC|10=059|8=FIX.4.4|9=59|35=0|34=3|49=045|50=045B17|52=20190726-20:20:52.318|56=EXC|10=061|8=FIX.4.4|9=59|35=0|34=4|49=045|50=045B17|52=20190726-20:21:23.196|56=EXC|10=065|8=FIX.4.4|9=59|35=0|34=5|49=045|50=045B17|52=20190726-20:21:53.195|56=EXC|10=068|8=FIX.4.4|9=59|35=0|34=6|49=045|50=045B17|52=20190726-20:22:23.192|56=EXC|10=064|8=FIX.4.4|9=59|35=0|34=7|49=045|50=045B17|52=20190726-20:22:53.584|56=EXC|10=073|8=FIX.4.4|9=59|35=0|34=8|49=045|50=045B17|52=20190726-20:23:24.194|56=EXC|10=070|8=FIX.4.4|9=59|35=0|34=9|49=045|50=045B17|52=20190726-20:23:54.318|56=EXC|10=072|8=FIX.4.4|9=60|35=0|34=10|49=045|50=045B17|52=20190726-20:24:25.192|56=EXC|10=103|8=FIX.4.4|9=60|35=5|34=11|49=045|50=045B17|52=20190726-20:24:29.199|56=EXC|10=120|