8=FIX.4.4|9=110|35=A|34=1|49=045|50=045B17|52=20190731-20:39:27.770|56=EXC|43=N|98=0|108=30|141=Y|553=045FCM001|554=045FCM001|10=106|8=FIX.4.4|9=59|35=0|34=2|49=045|50=045B17|52=20190731-20:39:58.429|56=EXC|10=075|8=FIX.4.4|9=59|35=0|34=3|49=045|50=045B17|52=20190731-20:40:28.634|56=EXC|10=063|8=FIX.4.4|9=59|35=0|34=4|49=045|50=045B17|52=20190731-20:40:59.420|56=EXC|10=061|8=FIX.4.4|9=59|35=0|34=5|49=045|50=045B17|52=20190731-20:41:29.432|56=EXC|10=063|8=FIX.4.4|9=59|35=0|34=6|49=045|50=045B17|52=20190731-20:42:00.420|56=EXC|10=051|8=FIX.4.4|9=59|35=0|34=7|49=045|50=045B17|52=20190731-20:42:30.419|56=EXC|10=063|8=FIX.4.4|9=158|35=R|34=8|49=045|50=045B17|52=20190731-20:42:54.501|56=EXC|131=201907311539234_R|146=1|55=   |22=M|762=AFIR|54=1|38=200|1=RP001|453=1|448=051B17|447=C|452=37|10=087|8=FIX.4.4|9=161|35=R|34=9|49=045|50=045B17|52=20190731-20:43:09.545|56=EXC|131=201907311539235_R|146=1|55=CPIH17F|22=M|762=AFIR|54=1|38=90|1=RP001|453=1|448=051B17|447=C|452=37|10=165|8=FIX.4.4|9=163|35=R|34=10|49=045|50=045B17|52=20190731-20:43:29.571|56=EXC|131=201907311539236_R|146=1|55=T24U19F|22=M|762=AFIR|54=1|38=110|1=RP001|453=1|448=051B17|447=C|452=37|10=231|8=FIX.4.4|9=60|35=0|34=11|49=045|50=045B17|52=20190731-20:44:00.434|56=EXC|10=094|8=FIX.4.4|9=161|35=R|34=12|49=045|50=045B17|52=20190731-20:44:04.687|56=EXC|131=201907311539237_R|146=1|55=T24U19F|22=M|762=AFIR|54=1|38=0|1=RP001|453=1|448=051B17|447=C|452=37|10=136|8=FIX.4.4|9=60|35=0|34=13|49=045|50=045B17|52=20190731-20:44:35.430|56=EXC|10=100|8=FIX.4.4|9=60|35=0|34=14|49=045|50=045B17|52=20190731-20:45:05.428|56=EXC|10=106|8=FIX.4.4|9=187|35=R|34=15|49=045|50=045B17|52=20190731-20:45:19.820|56=EXC|131=2019073115392310_R|146=1|55=T24U19F|22=M|762=AFIR|54=1|38=15|1=RP001|453=2|448=051B17|447=C|452=37|448=037B18|447=C|452=37|10=118|8=FIX.4.4|9=186|35=R|34=16|49=045|50=045B17|52=20190731-20:45:44.850|56=EXC|131=2019073115392310_R|146=1|55=T24U19F|22=M|762=AFIR|54=1|38=0|1=RP001|453=2|448=051B17|447=C|452=37|448=037B18|447=C|452=37|10=065|8=FIX.4.4|9=60|35=0|34=17|49=045|50=045B17|52=20190731-20:46:14.843|56=EXC|10=111|8=FIX.4.4|9=60|35=5|34=18|49=045|50=045B17|52=20190731-20:46:15.429|56=EXC|10=118|