8=FIX.4.4|9=110|35=A|34=1|49=029|50=029B17|52=20190719-15:37:21.244|56=EXC|43=N|98=0|108=30|141=Y|553=029FCM001|554=029FCM001|10=112|8=FIX.4.4|9=162|35=R|34=2|49=029|50=029B17|52=20190719-15:37:27.238|56=EXC|131=201907191037161_R|146=1|55=T24U19F|22=M|762=AFIR|54=1|38=100|1=RT001|453=1|448=037B18|447=C|452=37|10=202|8=FIX.4.4|9=59|35=0|34=3|49=029|50=029B17|52=20190719-15:37:57.829|56=EXC|10=091|8=FIX.4.4|9=162|35=R|34=4|49=029|50=029B17|52=20190719-15:38:07.442|56=EXC|131=201907191037162_R|146=1|55=T24U19F|22=M|762=AFIR|54=2|38=100|1=RT001|453=1|448=037B18|447=C|452=37|10=202|8=FIX.4.4|9=59|35=0|34=5|49=029|50=029B17|52=20190719-15:38:37.828|56=EXC|10=091|8=FIX.4.4|9=162|35=R|34=6|49=029|50=029B17|52=20190719-15:38:52.537|56=EXC|131=201907191037163_R|146=1|55=T24U19F|22=M|762=AFIR|54=1|38=150|1=RT001|453=1|448=037B18|447=C|452=37|10=214|8=FIX.4.4|9=59|35=0|34=7|49=029|50=029B17|52=20190719-15:39:22.539|56=EXC|10=087|8=FIX.4.4|9=59|35=0|34=8|49=029|50=029B17|52=20190719-15:39:52.828|56=EXC|10=092|8=FIX.4.4|9=59|35=0|34=9|49=029|50=029B17|52=20190719-15:40:23.147|56=EXC|10=077|8=FIX.4.4|9=60|35=0|34=10|49=029|50=029B17|52=20190719-15:40:53.829|56=EXC|10=119|8=FIX.4.4|9=162|35=R|34=11|49=029|50=029B17|52=20190719-15:41:02.955|56=EXC|131=201907191037168_R|146=1|55=I01H99F|22=M|762=AFIR|54=1|38=-1|1=RT001|453=1|448=037B18|447=C|452=37|10=179|8=FIX.4.4|9=161|35=R|34=12|49=029|50=029B17|52=20190719-15:41:18.000|56=EXC|131=201907191037169_R|146=1|55=I06H99F|22=M|762=AFIR|54=1|38=7|1=RT001|453=1|448=037B18|447=C|452=37|10=134|8=FIX.4.4|9=161|35=R|34=13|49=029|50=029B17|52=20190719-15:41:43.092|56=EXC|131=201907191037169_R|146=1|55=I06H99F|22=M|762=AFIR|54=1|38=0|1=RT001|453=1|448=037B18|447=C|452=37|10=137|8=FIX.4.4|9=60|35=0|34=14|49=029|50=029B17|52=20190719-15:42:13.829|56=EXC|10=121|8=FIX.4.4|9=60|35=0|34=15|49=029|50=029B17|52=20190719-15:42:43.826|56=EXC|10=122|8=FIX.4.4|9=60|35=5|34=16|49=029|50=029B17|52=20190719-15:42:53.830|56=EXC|10=124|