8=FIX.4.4|9=105|35=A|34=1|49=013|50=013B17|52=20190621-14:20:46.228|56=EXC|98=0|108=30|141=Y|553=013FCM001|554=013FCM001|10=093|8=FIX.4.4|9=59|35=0|34=2|49=013|50=013B17|52=20190621-14:21:17.147|56=EXC|10=049|8=FIX.4.4|9=59|35=0|34=3|49=013|50=013B17|52=20190621-14:21:47.148|56=EXC|10=054|8=FIX.4.4|9=59|35=0|34=4|49=013|50=013B17|52=20190621-14:22:17.146|56=EXC|10=051|8=FIX.4.4|9=59|35=0|34=5|49=013|50=013B17|52=20190621-14:22:47.148|56=EXC|10=057|8=FIX.4.4|9=59|35=0|34=6|49=013|50=013B17|52=20190621-14:23:17.148|56=EXC|10=056|8=FIX.4.4|9=59|35=0|34=7|49=013|50=013B17|52=20190621-14:23:47.148|56=EXC|10=060|8=FIX.4.4|9=59|35=0|34=8|49=013|50=013B17|52=20190621-14:24:17.148|56=EXC|10=059|8=FIX.4.4|9=59|35=0|34=9|49=013|50=013B17|52=20190621-14:24:47.148|56=EXC|10=063|8=FIX.4.4|9=60|35=0|34=10|49=013|50=013B17|52=20190621-14:25:17.147|56=EXC|10=092|8=FIX.4.4|9=60|35=0|34=11|49=013|50=013B17|52=20190621-14:25:47.148|56=EXC|10=097|8=FIX.4.4|9=60|35=0|34=12|49=013|50=013B17|52=20190621-14:26:17.147|56=EXC|10=095|8=FIX.4.4|9=60|35=0|34=13|49=013|50=013B17|52=20190621-14:26:47.148|56=EXC|10=100|8=FIX.4.4|9=60|35=0|34=14|49=013|50=013B17|52=20190621-14:27:17.148|56=EXC|10=099|8=FIX.4.4|9=60|35=0|34=15|49=013|50=013B17|52=20190621-14:27:47.148|56=EXC|10=103|8=FIX.4.4|9=60|35=0|34=16|49=013|50=013B17|52=20190621-14:28:17.147|56=EXC|10=101|8=FIX.4.4|9=60|35=0|34=17|49=013|50=013B17|52=20190621-14:28:47.147|56=EXC|10=105|8=FIX.4.4|9=60|35=0|34=18|49=013|50=013B17|52=20190621-14:29:17.147|56=EXC|10=104|