8=FIX.4.4|9=110|35=A|34=1|49=013|50=013B17|52=20190606-20:27:32.385|56=EXC|43=Y|98=0|108=30|141=Y|553=013FCM001|554=013FCM001|10=093|8=FIX.4.4|9=68|35=2|34=2|49=013|50=013B17|52=20190606-20:27:37.750|56=EXC|7=2|16=0|10=183|8=FIX.4.4|9=68|35=2|34=3|49=013|50=013B17|52=20190606-20:27:42.888|56=EXC|7=2|16=0|10=192|