8=FIX.4.4|9=105|35=A|34=1|49=013|50=013B17|52=20190612-14:58:56.796|56=EXC|98=0|108=30|141=Y|553=013FCM001|554=013FCM001|10=115|8=FIX.4.4|9=59|35=0|34=2|49=013|50=013B17|52=20190612-14:59:27.717|56=EXC|10=064|8=FIX.4.4|9=59|35=0|34=3|49=013|50=013B17|52=20190612-14:59:57.709|56=EXC|10=069|8=FIX.4.4|9=59|35=0|34=4|49=013|50=013B17|52=20190612-15:00:27.716|56=EXC|10=052|8=FIX.4.4|9=59|35=0|34=5|49=013|50=013B17|52=20190612-15:00:57.707|56=EXC|10=056|