8=FIX.4.4|9=105|35=A|34=1|49=013|50=013B17|52=20190612-14:31:40.273|56=EXC|98=0|108=30|141=Y|553=013FCM001|554=013FCM001|10=089|8=FIX.4.4|9=59|35=0|34=2|49=013|50=013B17|52=20190612-14:32:10.783|56=EXC|10=050|8=FIX.4.4|9=59|35=0|34=3|49=013|50=013B17|52=20190612-14:32:40.777|56=EXC|10=057|