8=FIX.4.4|9=105|35=A|34=1|49=013|50=013B17|52=20190612-20:04:55.569|56=EXC|98=0|108=30|141=Y|553=013FCM001|554=013FCM001|10=100|8=FIX.4.4|9=59|35=0|34=2|49=013|50=013B17|52=20190612-20:05:26.491|56=EXC|10=050|8=FIX.4.4|9=59|35=0|34=3|49=013|50=013B17|52=20190612-20:05:56.491|56=EXC|10=054|