8=FIX.4.4|9=110|35=A|34=1|49=013|50=013B17|52=20190611-15:27:04.398|56=EXC|43=Y|98=0|108=30|141=Y|553=013FCM001|554=013FCM001|10=096|8=FIX.4.4|9=59|35=0|34=2|49=013|50=013B17|52=20190611-15:27:35.303|56=EXC|10=049|8=FIX.4.4|9=59|35=0|34=3|49=013|50=013B17|52=20190611-15:28:05.302|56=EXC|10=047|8=FIX.4.4|9=59|35=0|34=4|49=013|50=013B17|52=20190611-15:28:35.301|56=EXC|10=050|8=FIX.4.4|9=59|35=0|34=5|49=013|50=013B17|52=20190611-15:29:05.302|56=EXC|10=050|