8=FIX.4.4|9=105|35=A|34=1|49=013|50=013B17|52=20190614-20:07:40.102|56=EXC|98=0|108=30|141=Y|553=013FCM001|554=013FCM001|10=082|8=FIX.4.4|9=59|35=0|34=2|49=013|50=013B17|52=20190614-20:08:11.039|56=EXC|10=047|8=FIX.4.4|9=59|35=0|34=3|49=013|50=013B17|52=20190614-20:08:41.039|56=EXC|10=051|