8=FIX.4.4|9=105|35=A|34=1|49=013|50=013B17|52=20190618-13:33:12.147|56=EXC|98=0|108=30|141=Y|553=013FCM001|554=013FCM001|10=095|8=FIX.4.4|9=59|35=0|34=2|49=013|50=013B17|52=20190618-13:33:43.099|56=EXC|10=062|8=FIX.4.4|9=59|35=0|34=3|49=013|50=013B17|52=20190618-13:34:13.098|56=EXC|10=060|8=FIX.4.4|9=59|35=0|34=4|49=013|50=013B17|52=20190618-13:34:43.098|56=EXC|10=064|8=FIX.4.4|9=59|35=0|34=5|49=013|50=013B17|52=20190618-13:35:13.098|56=EXC|10=063|8=FIX.4.4|9=59|35=0|34=6|49=013|50=013B17|52=20190618-13:35:43.099|56=EXC|10=068|8=FIX.4.4|9=59|35=0|34=7|49=013|50=013B17|52=20190618-13:36:13.098|56=EXC|10=066|8=FIX.4.4|9=59|35=0|34=8|49=013|50=013B17|52=20190618-13:36:43.099|56=EXC|10=071|