8=FIX.4.4|9=105|35=A|34=1|49=013|50=013B17|52=20190617-22:02:40.807|56=EXC|98=0|108=30|141=Y|553=013FCM001|554=013FCM001|10=094|8=FIX.4.4|9=59|35=0|34=2|49=013|50=013B17|52=20190617-22:03:11.761|56=EXC|10=049|