8=FIX.4.4|9=105|35=A|34=1|49=013|50=013B17|52=20190621-19:44:18.345|56=EXC|98=0|108=30|141=Y|553=013FCM001|554=013FCM001|10=103|