8=FIX.4.4|9=110|35=A|34=1|49=013|50=013B17|52=20190606-18:54:40.613|56=EXC|43=Y|98=0|108=30|141=Y|553=013FCM001|554=013FCM001|10=093|8=FIX.4.4|9=59|35=0|34=2|49=013|50=013B17|52=20190606-18:55:11.559|56=EXC|10=064|8=FIX.4.4|9=59|35=0|34=3|49=013|50=013B17|52=20190606-18:55:41.559|56=EXC|10=068|