8=FIX.4.4|9=110|35=A|34=1|49=013|50=013B17|52=20190703-19:49:02.699|56=EXC|43=Y|98=0|108=30|141=Y|553=013FCM001|554=013FCM001|10=108|8=FIX.4.4|9=59|35=0|34=2|49=013|50=013B17|52=20190703-19:49:33.555|56=EXC|10=066|8=FIX.4.4|9=59|35=0|34=3|49=013|50=013B17|52=20190703-19:50:03.558|56=EXC|10=059|8=FIX.4.4|9=59|35=5|34=4|49=013|50=013B17|52=20190703-19:50:22.560|56=EXC|10=059|