8=FIX.4.4|9=105|35=A|34=1|49=013|50=013B17|52=20190613-22:28:49.406|56=EXC|98=0|108=30|141=Y|553=013FCM001|554=013FCM001|10=102|