8=FIX.4.4|9=105|35=A|34=1|49=013|50=013B17|52=20190625-15:58:17.429|56=EXC|98=0|108=30|141=Y|553=013FCM001|554=013FCM001|10=110|8=FIX.4.4|9=59|35=0|34=2|49=013|50=013B17|52=20190625-15:58:48.328|56=EXC|10=069|8=FIX.4.4|9=59|35=0|34=3|49=013|50=013B17|52=20190625-15:59:18.329|56=EXC|10=069|8=FIX.4.4|9=59|35=0|34=4|49=013|50=013B17|52=20190625-15:59:48.328|56=EXC|10=072|8=FIX.4.4|9=59|35=0|34=5|49=013|50=013B17|52=20190625-16:00:18.328|56=EXC|10=057|8=FIX.4.4|9=59|35=0|34=6|49=013|50=013B17|52=20190625-16:00:48.328|56=EXC|10=061|8=FIX.4.4|9=59|35=0|34=7|49=013|50=013B17|52=20190625-16:01:18.329|56=EXC|10=061|8=FIX.4.4|9=59|35=0|34=8|49=013|50=013B17|52=20190625-16:01:48.329|56=EXC|10=065|8=FIX.4.4|9=59|35=0|34=9|49=013|50=013B17|52=20190625-16:02:18.328|56=EXC|10=063|8=FIX.4.4|9=60|35=0|34=10|49=013|50=013B17|52=20190625-16:02:48.329|56=EXC|10=099|8=FIX.4.4|9=60|35=0|34=11|49=013|50=013B17|52=20190625-16:03:18.328|56=EXC|10=097|8=FIX.4.4|9=60|35=0|34=12|49=013|50=013B17|52=20190625-16:03:48.328|56=EXC|10=101|8=FIX.4.4|9=60|35=0|34=13|49=013|50=013B17|52=20190625-16:04:18.329|56=EXC|10=101|8=FIX.4.4|9=60|35=0|34=14|49=013|50=013B17|52=20190625-16:04:48.328|56=EXC|10=104|8=FIX.4.4|9=60|35=0|34=15|49=013|50=013B17|52=20190625-16:05:18.328|56=EXC|10=103|8=FIX.4.4|9=60|35=0|34=16|49=013|50=013B17|52=20190625-16:05:48.328|56=EXC|10=107|8=FIX.4.4|9=60|35=5|34=17|49=013|50=013B17|52=20190625-16:06:06.329|56=EXC|10=109|