8=FIX.4.4|9=110|35=A|34=1|49=013|50=013B17|52=20190607-17:00:19.937|56=EXC|43=Y|98=0|108=30|141=Y|553=013FCM001|554=013FCM001|10=099|8=FIX.4.4|9=59|35=0|34=2|49=013|50=013B17|52=20190607-17:00:50.895|56=EXC|10=060|8=FIX.4.4|9=68|35=2|34=3|49=013|50=013B17|52=20190607-17:00:52.011|56=EXC|7=2|16=0|10=169|