8=FIX.4.4|9=105|35=A|34=1|49=013|50=013B17|52=20190611-23:36:25.645|56=EXC|98=0|108=30|141=Y|553=013FCM001|554=013FCM001|10=099|8=FIX.4.4|9=59|35=0|34=2|49=013|50=013B17|52=20190611-23:36:56.549|56=EXC|10=063|8=FIX.4.4|9=59|35=0|34=3|49=013|50=013B17|52=20190611-23:37:26.560|56=EXC|10=055|