8=FIX.4.4|9=105|35=A|34=1|49=013|50=013B17|52=20190612-16:56:24.234|56=EXC|98=0|108=30|141=Y|553=013FCM001|554=013FCM001|10=097|8=FIX.4.4|9=59|35=0|34=2|49=013|50=013B17|52=20190612-16:56:55.112|56=EXC|10=053|8=FIX.4.4|9=59|35=0|34=3|49=013|50=013B17|52=20190612-16:57:25.137|56=EXC|10=059|