8=FIX.4.4|9=110|35=A|34=1|49=029|50=029B17|52=20190731-20:39:27.714|56=EXC|43=N|98=0|108=30|141=Y|553=029FCM001|554=029FCM001|10=112|8=FIX.4.4|9=162|35=R|34=2|49=029|50=029B17|52=20190731-20:39:33.694|56=EXC|131=201907311539231_R|146=1|55=T24U19F|22=M|762=AFIR|54=1|38=100|1=RT001|453=1|448=037B18|447=C|452=37|10=196|8=FIX.4.4|9=59|35=0|34=3|49=029|50=029B17|52=20190731-20:40:04.404|56=EXC|10=056|8=FIX.4.4|9=143|35=AJ|34=4|49=029|50=029B17|52=20190731-20:40:13.913|56=EXC|54=1|55=T24U19F|117=20190731-000000000011.00|693=201907311539231_AJ|694=1|762=AFIR|10=071|8=FIX.4.4|9=162|35=R|34=5|49=029|50=029B17|52=20190731-20:40:39.073|56=EXC|131=201907311539232_R|146=1|55=T24U19F|22=M|762=AFIR|54=2|38=100|1=RT001|453=1|448=037B18|447=C|452=37|10=190|8=FIX.4.4|9=59|35=0|34=6|49=029|50=029B17|52=20190731-20:41:09.409|56=EXC|10=070|8=FIX.4.4|9=143|35=AJ|34=7|49=029|50=029B17|52=20190731-20:41:24.182|56=EXC|54=2|55=T24U19F|117=20190731-000000000012.00|693=201907311539232_AJ|694=1|762=AFIR|10=078|8=FIX.4.4|9=162|35=R|34=8|49=029|50=029B17|52=20190731-20:41:49.261|56=EXC|131=201907311539233_R|146=1|55=T24U19F|22=M|762=AFIR|54=1|38=150|1=RT001|453=1|448=037B18|447=C|452=37|10=199|8=FIX.4.4|9=59|35=0|34=9|49=029|50=029B17|52=20190731-20:42:19.400|56=EXC|10=066|8=FIX.4.4|9=144|35=AJ|34=10|49=029|50=029B17|52=20190731-20:42:29.403|56=EXC|54=1|55=T24U19F|117=20190731-000000000013.00|693=201907311539233_AJ|694=1|762=AFIR|10=124|8=FIX.4.4|9=60|35=0|34=11|49=029|50=029B17|52=20190731-20:42:59.394|56=EXC|10=115|8=FIX.4.4|9=60|35=0|34=12|49=029|50=029B17|52=20190731-20:43:29.696|56=EXC|10=119|8=FIX.4.4|9=60|35=0|34=13|49=029|50=029B17|52=20190731-20:44:00.400|56=EXC|10=093|8=FIX.4.4|9=162|35=R|34=14|49=029|50=029B17|52=20190731-20:44:19.695|56=EXC|131=201907311539238_R|146=1|55=I01H99F|22=M|762=AFIR|54=1|38=-1|1=RT001|453=1|448=037B18|447=C|452=37|10=183|8=FIX.4.4|9=161|35=R|34=15|49=029|50=029B17|52=20190731-20:44:34.742|56=EXC|131=201907311539239_R|146=1|55=I06H99F|22=M|762=AFIR|54=1|38=7|1=RT001|453=1|448=037B18|447=C|452=37|10=140|8=FIX.4.4|9=161|35=R|34=16|49=029|50=029B17|52=20190731-20:44:59.767|56=EXC|131=201907311539239_R|146=1|55=I06H99F|22=M|762=AFIR|54=1|38=0|1=RT001|453=1|448=037B18|447=C|452=37|10=148|8=FIX.4.4|9=60|35=0|34=17|49=029|50=029B17|52=20190731-20:45:31.024|56=EXC|10=104|8=FIX.4.4|9=60|35=0|34=18|49=029|50=029B17|52=20190731-20:46:01.398|56=EXC|10=117|8=FIX.4.4|9=60|35=5|34=19|49=029|50=029B17|52=20190731-20:46:15.397|56=EXC|10=127|