8=FIX.4.4|9=110|35=A|34=1|49=029|50=029B17|52=20190805-18:42:55.587|56=EXC|43=N|98=0|108=30|141=Y|553=029FCM001|554=029FCM001|10=124|