8=FIX.4.4|9=110|35=A|34=1|49=029|50=029B17|52=20190726-15:54:34.626|56=EXC|43=N|98=0|108=30|141=Y|553=029FCM001|554=029FCM001|10=117|8=FIX.4.4|9=59|35=5|34=2|49=029|50=029B17|52=20190726-15:55:01.298|56=EXC|10=082|