8=FIX.4.4|9=110|35=A|34=1|49=029|50=029B17|52=20190806-21:41:14.803|56=EXC|43=N|98=0|108=30|141=Y|553=029FCM001|554=029FCM001|10=104|8=FIX.4.4|9=161|35=R|34=2|49=029|50=029B17|52=20190806-21:41:20.841|56=EXC|131=201908061641108_R|146=1|55=I01H99F|22=M|762=AFIR|54=1|38=-1|1=RT001|453=1|448=037B18|447=C|452=37|10=110|