8=FIX.4.4|9=77|35=A|34=1|49=029|50=029B17|52=20190808-19:34:12.199|56=EXC|98=0|108=30|141=Y|10=167|