8=FIX.4.4|9=110|35=A|34=1|49=029|50=029B17|52=20190724-16:28:05.169|56=EXC|43=N|98=0|108=30|141=Y|553=029FCM001|554=029FCM001|10=117|8=FIX.4.4|9=162|35=R|34=2|49=029|50=029B17|52=20190724-16:28:11.207|56=EXC|131=201907241128011_R|146=1|55=T24U19F|22=M|762=AFIR|54=1|38=100|1=RT001|453=1|448=037B18|447=C|452=37|10=179|8=FIX.4.4|9=59|35=0|34=3|49=029|50=029B17|52=20190724-16:28:41.913|56=EXC|10=075|8=FIX.4.4|9=162|35=R|34=4|49=029|50=029B17|52=20190724-16:28:51.528|56=EXC|131=201907241128012_R|146=1|55=T24U19F|22=M|762=AFIR|54=2|38=100|1=RT001|453=1|448=037B18|447=C|452=37|10=193|8=FIX.4.4|9=59|35=0|34=5|49=029|50=029B17|52=20190724-16:29:21.915|56=EXC|10=078|8=FIX.4.4|9=143|35=AJ|34=6|49=029|50=029B17|52=20190724-16:29:36.658|56=EXC|54=2|55=T24U19F|117=20190724-000000000012.00|693=201907241128012_AJ|694=1|762=AFIR|10=095|8=FIX.4.4|9=162|35=R|34=7|49=029|50=029B17|52=20190724-16:30:01.780|56=EXC|131=201907241128013_R|146=1|55=T24U19F|22=M|762=AFIR|54=1|38=150|1=RT001|453=1|448=037B18|447=C|452=37|10=189|8=FIX.4.4|9=59|35=0|34=8|49=029|50=029B17|52=20190724-16:30:31.961|56=EXC|10=075|8=FIX.4.4|9=143|35=AJ|34=9|49=029|50=029B17|52=20190724-16:30:46.897|56=EXC|54=1|55=T24U19F|117=20190724-000000000013.00|693=201907241128013_AJ|694=1|762=AFIR|10=097|8=FIX.4.4|9=60|35=0|34=10|49=029|50=029B17|52=20190724-16:31:16.911|56=EXC|10=107|8=FIX.4.4|9=60|35=0|34=11|49=029|50=029B17|52=20190724-16:31:46.917|56=EXC|10=117|8=FIX.4.4|9=60|35=0|34=12|49=029|50=029B17|52=20190724-16:32:16.909|56=EXC|10=117|8=FIX.4.4|9=162|35=R|34=13|49=029|50=029B17|52=20190724-16:32:42.380|56=EXC|131=201907241128018_R|146=1|55=I01H99F|22=M|762=AFIR|54=1|38=-1|1=RT001|453=1|448=037B18|447=C|452=37|10=165|8=FIX.4.4|9=161|35=R|34=14|49=029|50=029B17|52=20190724-16:32:57.441|56=EXC|131=201907241128019_R|146=1|55=I06H99F|22=M|762=AFIR|54=1|38=7|1=RT001|453=1|448=037B18|447=C|452=37|10=136|8=FIX.4.4|9=161|35=R|34=15|49=029|50=029B17|52=20190724-16:33:22.505|56=EXC|131=201907241128019_R|146=1|55=I06H99F|22=M|762=AFIR|54=1|38=0|1=RT001|453=1|448=037B18|447=C|452=37|10=124|8=FIX.4.4|9=60|35=0|34=16|49=029|50=029B17|52=20190724-16:33:52.913|56=EXC|10=117|8=FIX.4.4|9=60|35=0|34=17|49=029|50=029B17|52=20190724-16:34:22.922|56=EXC|10=116|8=FIX.4.4|9=60|35=5|34=18|49=029|50=029B17|52=20190724-16:34:33.911|56=EXC|10=122|