8=FIX.4.4|9=110|35=A|34=1|49=029|50=029B17|52=20190726-20:19:51.358|56=EXC|43=N|98=0|108=30|141=Y|553=029FCM001|554=029FCM001|10=115|8=FIX.4.4|9=162|35=R|34=2|49=029|50=029B17|52=20190726-20:19:57.455|56=EXC|131=2019072615194615_R|146=1|55=T24U19F|22=M|762=AFIR|54=1|38=60|1=RT001|453=1|448=037B18|447=C|452=37|10=216|8=FIX.4.4|9=59|35=0|34=3|49=029|50=029B17|52=20190726-20:20:28.069|56=EXC|10=071|8=FIX.4.4|9=162|35=R|34=4|49=029|50=029B17|52=20190726-20:20:37.794|56=EXC|131=2019072615194616_R|146=1|55=T24U19F|22=M|762=AFIR|54=1|38=48|1=RT001|453=1|448=037B18|447=C|452=37|10=221|8=FIX.4.4|9=59|35=0|34=5|49=029|50=029B17|52=20190726-20:21:08.068|56=EXC|10=071|8=FIX.4.4|9=163|35=R|34=6|49=029|50=029B17|52=20190726-20:21:23.117|56=EXC|131=2019072615194617_R|146=1|55=T24U19F|22=M|762=AFIR|54=2|38=120|1=RT001|453=1|448=037B18|447=C|452=37|10=250|8=FIX.4.4|9=59|35=0|34=7|49=029|50=029B17|52=20190726-20:21:54.070|56=EXC|10=067|8=FIX.4.4|9=162|35=R|34=8|49=029|50=029B17|52=20190726-20:22:08.192|56=EXC|131=2019072615194618_R|146=1|55=T24U19F|22=M|762=AFIR|54=1|38=65|1=RT001|453=1|448=037B18|447=C|452=37|10=218|8=FIX.4.4|9=59|35=0|34=9|49=029|50=029B17|52=20190726-20:22:39.065|56=EXC|10=077|8=FIX.4.4|9=164|35=R|34=10|49=029|50=029B17|52=20190726-20:22:53.287|56=EXC|131=2019072615194619_R|146=1|55=T24U19F|22=M|762=AFIR|54=1|38=146|1=RT001|453=1|448=037B18|447=C|452=37|10=059|8=FIX.4.4|9=60|35=0|34=11|49=029|50=029B17|52=20190726-20:23:24.069|56=EXC|10=109|8=FIX.4.4|9=164|35=R|34=12|49=029|50=029B17|52=20190726-20:23:38.375|56=EXC|131=2019072615194620_R|146=1|55=T24U19F|22=M|762=AFIR|54=2|38=130|1=RT001|453=1|448=037B18|447=C|452=37|10=049|8=FIX.4.4|9=60|35=0|34=13|49=029|50=029B17|52=20190726-20:24:09.068|56=EXC|10=114|8=FIX.4.4|9=60|35=5|34=14|49=029|50=029B17|52=20190726-20:24:29.074|56=EXC|10=119|