8=FIX.4.4|9=110|35=A|34=1|49=029|50=029B17|52=20190801-13:53:57.615|56=EXC|43=N|98=0|108=30|141=Y|553=029FCM001|554=029FCM001|10=111|8=FIX.4.4|9=162|35=R|34=2|49=029|50=029B17|52=20190801-13:54:03.617|56=EXC|131=201908010853531_R|146=1|55=T24U19F|22=M|762=AFIR|54=1|38=100|1=RT001|453=1|448=037B18|447=C|452=37|10=184|8=FIX.4.4|9=59|35=0|34=3|49=029|50=029B17|52=20190801-13:54:34.160|56=EXC|10=063|8=FIX.4.4|9=143|35=AJ|34=4|49=029|50=029B17|52=20190801-13:54:43.998|56=EXC|54=1|55=T24U19F|117=20190801-000000000001.00|693=201908010853531_AJ|694=1|762=AFIR|10=088|8=FIX.4.4|9=162|35=R|34=5|49=029|50=029B17|52=20190801-13:55:09.187|56=EXC|131=201908010853532_R|146=1|55=T24U19F|22=M|762=AFIR|54=2|38=100|1=RT001|453=1|448=037B18|447=C|452=37|10=198|8=FIX.4.4|9=59|35=0|34=6|49=029|50=029B17|52=20190801-13:55:40.153|56=EXC|10=066|8=FIX.4.4|9=143|35=AJ|34=7|49=029|50=029B17|52=20190801-13:55:54.269|56=EXC|54=2|55=T24U19F|117=20190801-000000000002.00|693=201908010853532_AJ|694=1|762=AFIR|10=088|8=FIX.4.4|9=162|35=R|34=8|49=029|50=029B17|52=20190801-13:56:19.361|56=EXC|131=201908010853533_R|146=1|55=T24U19F|22=M|762=AFIR|54=1|38=150|1=RT001|453=1|448=037B18|447=C|452=37|10=202|8=FIX.4.4|9=59|35=0|34=9|49=029|50=029B17|52=20190801-13:56:50.156|56=EXC|10=074|8=FIX.4.4|9=144|35=AJ|34=10|49=029|50=029B17|52=20190801-13:57:04.507|56=EXC|54=1|55=T24U19F|117=20190801-000000000003.00|693=201908010853533_AJ|694=1|762=AFIR|10=124|8=FIX.4.4|9=60|35=0|34=11|49=029|50=029B17|52=20190801-13:57:35.156|56=EXC|10=111|8=FIX.4.4|9=60|35=0|34=12|49=029|50=029B17|52=20190801-13:58:05.155|56=EXC|10=109|8=FIX.4.4|9=60|35=0|34=13|49=029|50=029B17|52=20190801-13:58:35.158|56=EXC|10=116|8=FIX.4.4|9=162|35=R|34=14|49=029|50=029B17|52=20190801-13:58:59.851|56=EXC|131=201908010853538_R|146=1|55=I01H99F|22=M|762=AFIR|54=1|38=-1|1=RT001|453=1|448=037B18|447=C|452=37|10=185|8=FIX.4.4|9=161|35=R|34=15|49=029|50=029B17|52=20190801-13:59:14.889|56=EXC|131=201908010853539_R|146=1|55=I06H99F|22=M|762=AFIR|54=1|38=7|1=RT001|453=1|448=037B18|447=C|452=37|10=155|8=FIX.4.4|9=161|35=R|34=16|49=029|50=029B17|52=20190801-13:59:39.931|56=EXC|131=201908010853539_R|146=1|55=I06H99F|22=M|762=AFIR|54=1|38=0|1=RT001|453=1|448=037B18|447=C|452=37|10=144|8=FIX.4.4|9=60|35=0|34=17|49=029|50=029B17|52=20190801-14:00:10.153|56=EXC|10=096|8=FIX.4.4|9=60|35=0|34=18|49=029|50=029B17|52=20190801-14:00:40.153|56=EXC|10=100|8=FIX.4.4|9=60|35=5|34=19|49=029|50=029B17|52=20190801-14:00:56.159|56=EXC|10=119|